{
  "contractName": "Laws",
  "abi": [
    {
      "inputs": [],
      "stateMutability": "nonpayable",
      "type": "constructor"
    },
    {
      "anonymous": false,
      "inputs": [
        {
          "indexed": true,
          "internalType": "uint256",
          "name": "id",
          "type": "uint256"
        }
      ],
      "name": "LawCreated",
      "type": "event"
    },
    {
      "anonymous": false,
      "inputs": [
        {
          "indexed": true,
          "internalType": "address",
          "name": "oldOwner",
          "type": "address"
        },
        {
          "indexed": true,
          "internalType": "address",
          "name": "newOwner",
          "type": "address"
        }
      ],
      "name": "OwnerSet",
      "type": "event"
    },
    {
      "inputs": [
        {
          "internalType": "address",
          "name": "newOwner",
          "type": "address"
        }
      ],
      "name": "changeOwner",
      "outputs": [],
      "stateMutability": "nonpayable",
      "type": "function"
    },
    {
      "inputs": [
        {
          "internalType": "string",
          "name": "title",
          "type": "string"
        },
        {
          "internalType": "string",
          "name": "law",
          "type": "string"
        },
        {
          "internalType": "string[]",
          "name": "articles",
          "type": "string[]"
        },
        {
          "internalType": "string[]",
          "name": "documents",
          "type": "string[]"
        }
      ],
      "name": "createLaw",
      "outputs": [
        {
          "internalType": "uint256",
          "name": "",
          "type": "uint256"
        }
      ],
      "stateMutability": "payable",
      "type": "function"
    },
    {
      "inputs": [
        {
          "internalType": "uint256",
          "name": "id",
          "type": "uint256"
        },
        {
          "internalType": "string",
          "name": "law",
          "type": "string"
        },
        {
          "internalType": "string[]",
          "name": "articles",
          "type": "string[]"
        },
        {
          "internalType": "string[]",
          "name": "documents",
          "type": "string[]"
        }
      ],
      "name": "proposeEdit",
      "outputs": [],
      "stateMutability": "payable",
      "type": "function"
    },
    {
      "inputs": [
        {
          "internalType": "uint256",
          "name": "id",
          "type": "uint256"
        },
        {
          "internalType": "uint256",
          "name": "version",
          "type": "uint256"
        },
        {
          "internalType": "int256",
          "name": "v",
          "type": "int256"
        }
      ],
      "name": "vote",
      "outputs": [],
      "stateMutability": "payable",
      "type": "function"
    },
    {
      "inputs": [
        {
          "internalType": "uint256",
          "name": "id",
          "type": "uint256"
        }
      ],
      "name": "getRevisions",
      "outputs": [
        {
          "internalType": "string",
          "name": "revisions",
          "type": "string"
        }
      ],
      "stateMutability": "view",
      "type": "function"
    },
    {
      "inputs": [
        {
          "internalType": "uint256",
          "name": "id",
          "type": "uint256"
        },
        {
          "internalType": "uint256",
          "name": "version",
          "type": "uint256"
        }
      ],
      "name": "getRevision",
      "outputs": [
        {
          "internalType": "string",
          "name": "revision",
          "type": "string"
        }
      ],
      "stateMutability": "view",
      "type": "function"
    },
    {
      "inputs": [
        {
          "internalType": "uint256",
          "name": "id",
          "type": "uint256"
        },
        {
          "internalType": "uint256",
          "name": "version",
          "type": "uint256"
        }
      ],
      "name": "getDocuments",
      "outputs": [
        {
          "internalType": "string",
          "name": "documents",
          "type": "string"
        }
      ],
      "stateMutability": "view",
      "type": "function"
    },
    {
      "inputs": [
        {
          "internalType": "uint256",
          "name": "id",
          "type": "uint256"
        }
      ],
      "name": "getCurrentVersion",
      "outputs": [
        {
          "internalType": "uint256",
          "name": "version",
          "type": "uint256"
        }
      ],
      "stateMutability": "view",
      "type": "function"
    },
    {
      "inputs": [],
      "name": "getLawCount",
      "outputs": [
        {
          "internalType": "uint256",
          "name": "count",
          "type": "uint256"
        }
      ],
      "stateMutability": "view",
      "type": "function"
    },
    {
      "inputs": [
        {
          "internalType": "uint256",
          "name": "id",
          "type": "uint256"
        },
        {
          "internalType": "uint256",
          "name": "version",
          "type": "uint256"
        }
      ],
      "name": "getLaw",
      "outputs": [
        {
          "components": [
            {
              "internalType": "string",
              "name": "title",
              "type": "string"
            },
            {
              "internalType": "string",
              "name": "law",
              "type": "string"
            },
            {
              "internalType": "string[]",
              "name": "articles",
              "type": "string[]"
            },
            {
              "internalType": "string[]",
              "name": "documents",
              "type": "string[]"
            },
            {
              "internalType": "int256",
              "name": "votes",
              "type": "int256"
            },
            {
              "internalType": "uint256",
              "name": "total",
              "type": "uint256"
            },
            {
              "internalType": "uint256",
              "name": "version",
              "type": "uint256"
            }
          ],
          "internalType": "struct Laws.cLaws",
          "name": "L",
          "type": "tuple"
        }
      ],
      "stateMutability": "view",
      "type": "function"
    },
    {
      "inputs": [
        {
          "internalType": "uint256",
          "name": "id",
          "type": "uint256"
        }
      ],
      "name": "getLaw",
      "outputs": [
        {
          "internalType": "string",
          "name": "law",
          "type": "string"
        }
      ],
      "stateMutability": "view",
      "type": "function"
    },
    {
      "inputs": [],
      "name": "getOwner",
      "outputs": [
        {
          "internalType": "address",
          "name": "",
          "type": "address"
        }
      ],
      "stateMutability": "view",
      "type": "function"
    }
  ],
  "bytecode": "0x6080604052600060035534801561001557600080fd5b50336000806101000a81548173ffffffffffffffffffffffffffffffffffffffff021916908373ffffffffffffffffffffffffffffffffffffffff16021790555060008054906101000a900473ffffffffffffffffffffffffffffffffffffffff1673ffffffffffffffffffffffffffffffffffffffff16600073ffffffffffffffffffffffffffffffffffffffff167f342827c97908e5e2f71151c08502a66d44b6f758e3ac2f1de95f02eb95f0a73560405160405180910390a3612c97806100e06000396000f3fe6080604052600436106100a75760003560e01c80638349166f116100645780638349166f146101c6578063893d20e814610203578063a6f9dae11461022e578063c1c1a37714610257578063c3b53ba414610287578063e715463c146102c4576100a7565b80631d31245c146100ac5780631f88e5a9146100c857806320b7c317146101055780633ec559c6146101215780636192e3e81461015e5780636475f4fe1461019b575b600080fd5b6100c660048036038101906100c19190611cfa565b610301565b005b3480156100d457600080fd5b506100ef60048036038101906100ea9190611db5565b6104d9565b6040516100fc919061200f565b60405180910390f35b61011f600480360381019061011a919061205d565b610826565b005b34801561012d57600080fd5b50610148600480360381019061014391906120b0565b610d1b565b6040516101559190612127565b60405180910390f35b34801561016a57600080fd5b5061018560048036038101906101809190611db5565b610ef3565b6040516101929190612127565b60405180910390f35b3480156101a757600080fd5b506101b061108c565b6040516101bd9190612158565b60405180910390f35b3480156101d257600080fd5b506101ed60048036038101906101e89190611db5565b611099565b6040516101fa9190612127565b60405180910390f35b34801561020f57600080fd5b50610218611184565b60405161022591906121b4565b60405180910390f35b34801561023a57600080fd5b50610255600480360381019061025091906121fb565b6111ad565b005b610271600480360381019061026c9190612228565b6112f8565b60405161027e9190612158565b60405180910390f35b34801561029357600080fd5b506102ae60048036038101906102a991906120b0565b611546565b6040516102bb9190612127565b60405180910390f35b3480156102d057600080fd5b506102eb60048036038101906102e691906120b0565b611567565b6040516102f89190612158565b60405180910390f35b60006040518060e0016040528060028781548110610322576103216122ff565b5b9060005260206000200160008154811061033f5761033e6122ff565b5b9060005260206000209060070201600001805461035b9061235d565b80601f01602080910402602001604051908101604052809291908181526020018280546103879061235d565b80156103d45780601f106103a9576101008083540402835291602001916103d4565b820191906000526020600020905b8154815290600101906020018083116103b757829003601f168201915b50505050508152602001858152602001848152602001838152602001600081526020016000815260200142815250905060028581548110610418576104176122ff565b5b906000526020600020018190806001815401808255809150506001900390600052602060002090600702016000909190919091506000820151816000019081610461919061253a565b506020820151816001019081610477919061253a565b50604082015181600201908051906020019061049492919061196d565b5060608201518160030190805190602001906104b192919061196d565b506080820151816004015560a0820151816005015560c0820151816006015550505050505050565b6104e16119c6565b600283815481106104f5576104f46122ff565b5b906000526020600020018281548110610511576105106122ff565b5b90600052602060002090600702016040518060e001604052908160008201805461053a9061235d565b80601f01602080910402602001604051908101604052809291908181526020018280546105669061235d565b80156105b35780601f10610588576101008083540402835291602001916105b3565b820191906000526020600020905b81548152906001019060200180831161059657829003601f168201915b505050505081526020016001820180546105cc9061235d565b80601f01602080910402602001604051908101604052809291908181526020018280546105f89061235d565b80156106455780601f1061061a57610100808354040283529160200191610645565b820191906000526020600020905b81548152906001019060200180831161062857829003601f168201915b5050505050815260200160028201805480602002602001604051908101604052809291908181526020016000905b8282101561071f5783829060005260206000200180546106929061235d565b80601f01602080910402602001604051908101604052809291908181526020018280546106be9061235d565b801561070b5780601f106106e05761010080835404028352916020019161070b565b820191906000526020600020905b8154815290600101906020018083116106ee57829003601f168201915b505050505081526020019060010190610673565b50505050815260200160038201805480602002602001604051908101604052809291908181526020016000905b828210156107f857838290600052602060002001805461076b9061235d565b80601f01602080910402602001604051908101604052809291908181526020018280546107979061235d565b80156107e45780601f106107b9576101008083540402835291602001916107e4565b820191906000526020600020905b8154815290600101906020018083116107c757829003601f168201915b50505050508152602001906001019061074c565b5050505081526020016004820154815260200160058201548152602001600682015481525050905092915050565b7fffffffffffffffffffffffffffffffffffffffffffffffffffffffffffffffff811215610889576040517f08c379a000000000000000000000000000000000000000000000000000000000815260040161088090612658565b60405180910390fd5b60018113156108cd576040517f08c379a00000000000000000000000000000000000000000000000000000000081526004016108c490612658565b60405180910390fd5b60005b600184815481106108e4576108e36122ff565b5b9060005260206000200180549050811015610b8b573373ffffffffffffffffffffffffffffffffffffffff1660018581548110610924576109236122ff565b5b9060005260206000200182815481106109405761093f6122ff565b5b906000526020600020906003020160000160009054906101000a900473ffffffffffffffffffffffffffffffffffffffff1673ffffffffffffffffffffffffffffffffffffffff1603610b7857600184815481106109a1576109a06122ff565b5b9060005260206000200181815481106109bd576109bc6122ff565b5b906000526020600020906003020160020154600285815481106109e3576109e26122ff565b5b9060005260206000200160018681548110610a0157610a006122ff565b5b906000526020600020018381548110610a1d57610a1c6122ff565b5b90600052602060002090600302016001015481548110610a4057610a3f6122ff565b5b90600052602060002090600702016004016000828254610a6091906126a7565b9250508190555060028481548110610a7b57610a7a6122ff565b5b9060005260206000200160018581548110610a9957610a986122ff565b5b906000526020600020018281548110610ab557610ab46122ff565b5b90600052602060002090600302016001015481548110610ad857610ad76122ff565b5b90600052602060002090600702016005016000815480929190610afa906126ea565b919050555060018481548110610b1357610b126122ff565b5b906000526020600020018181548110610b2f57610b2e6122ff565b5b9060005260206000209060030201600080820160006101000a81549073ffffffffffffffffffffffffffffffffffffffff02191690556001820160009055600282016000905550505b8080610b8390612713565b9150506108d0565b50600060405180606001604052803373ffffffffffffffffffffffffffffffffffffffff16815260200184815260200183815250905060018481548110610bd557610bd46122ff565b5b9060005260206000200181908060018154018082558091505060019003906000526020600020906003020160009091909190915060008201518160000160006101000a81548173ffffffffffffffffffffffffffffffffffffffff021916908373ffffffffffffffffffffffffffffffffffffffff160217905550602082015181600101556040820151816002015550508160028581548110610c7b57610c7a6122ff565b5b906000526020600020018481548110610c9757610c966122ff565b5b90600052602060002090600702016004016000828254610cb7919061275b565b9250508190555060028481548110610cd257610cd16122ff565b5b906000526020600020018381548110610cee57610ced6122ff565b5b90600052602060002090600702016005016000815480929190610d1090612713565b919050555050505050565b606060005b60028381548110610d3457610d336122ff565b5b9060005260206000200180549050811015610eed57610d528161166c565b60028481548110610d6657610d656122ff565b5b906000526020600020018281548110610d8257610d816122ff565b5b906000526020600020906007020160000160028581548110610da757610da66122ff565b5b906000526020600020018381548110610dc357610dc26122ff565b5b9060005260206000209060070201600101610e1e60028781548110610deb57610dea6122ff565b5b906000526020600020018581548110610e0757610e066122ff565b5b90600052602060002090600702016006015461166c565b610e6860028881548110610e3557610e346122ff565b5b906000526020600020018681548110610e5157610e506122ff565b5b90600052602060002090600702016004015461173a565b610eb260028981548110610e7f57610e7e6122ff565b5b906000526020600020018781548110610e9b57610e9a6122ff565b5b90600052602060002090600702016005015461166c565b87604051602001610ec997969594939291906128aa565b60405160208183030381529060405291508080610ee590612713565b915050610d20565b50919050565b6060610efe8261166c565b60028481548110610f1257610f116122ff565b5b906000526020600020018381548110610f2e57610f2d6122ff565b5b906000526020600020906007020160000160028581548110610f5357610f526122ff565b5b906000526020600020018481548110610f6f57610f6e6122ff565b5b9060005260206000209060070201600101604051602001610f9293929190612969565b604051602081830303815290604052905060005b60028481548110610fba57610fb96122ff565b5b906000526020600020018381548110610fd657610fd56122ff565b5b906000526020600020906007020160020180549050811015611085578160028581548110611007576110066122ff565b5b906000526020600020018481548110611023576110226122ff565b5b90600052602060002090600702016002018281548110611046576110456122ff565b5b906000526020600020016040516020016110619291906129b8565b6040516020818303038152906040529150808061107d90612713565b915050610fa6565b5092915050565b6000600280549050905090565b606060005b600284815481106110b2576110b16122ff565b5b9060005260206000200183815481106110ce576110cd6122ff565b5b90600052602060002090600702016003018054905081101561117d57600284815481106110fe576110fd6122ff565b5b90600052602060002001838154811061111a576111196122ff565b5b9060005260206000209060070201600301818154811061113d5761113c6122ff565b5b90600052602060002001826040516020016111599291906129eb565b6040516020818303038152906040529150808061117590612713565b91505061109e565b5092915050565b60008060009054906101000a900473ffffffffffffffffffffffffffffffffffffffff16905090565b60008054906101000a900473ffffffffffffffffffffffffffffffffffffffff1673ffffffffffffffffffffffffffffffffffffffff163373ffffffffffffffffffffffffffffffffffffffff161461123b576040517f08c379a000000000000000000000000000000000000000000000000000000000815260040161123290612a6a565b60405180910390fd5b8073ffffffffffffffffffffffffffffffffffffffff1660008054906101000a900473ffffffffffffffffffffffffffffffffffffffff1673ffffffffffffffffffffffffffffffffffffffff167f342827c97908e5e2f71151c08502a66d44b6f758e3ac2f1de95f02eb95f0a73560405160405180910390a3806000806101000a81548173ffffffffffffffffffffffffffffffffffffffff021916908373ffffffffffffffffffffffffffffffffffffffff16021790555050565b6000600a84511161133e576040517f08c379a000000000000000000000000000000000000000000000000000000000815260040161133590612ad6565b60405180910390fd5b6004855111611382576040517f08c379a000000000000000000000000000000000000000000000000000000000815260040161137990612b42565b60405180910390fd5b60006040518060e0016040528087815260200186815260200185815260200184815260200160008152602001600081526020014281525090506002600181600181540180825580915050039060005260206000205050600260016002805490506113ec9190612b62565b815481106113fd576113fc6122ff565b5b906000526020600020018190806001815401808255809150506001900390600052602060002090600702016000909190919091506000820151816000019081611446919061253a565b50602082015181600101908161145c919061253a565b50604082015181600201908051906020019061147992919061196d565b50606082015181600301908051906020019061149692919061196d565b506080820151816004015560a0820151816005015560c082015181600601555050600360008154809291906114ca90612713565b91905055506001808160018154018082558091505003906000526020600020505060016002805490506114fd9190612b62565b7ffe55c2349d62da6a9f59944b4bec1e721fb08faf486fb6758bded48f8a70ad1960405160405180910390a2600160028054905061153b9190612b62565b915050949350505050565b6060600061155383611567565b905061155f8382610ef3565b915050919050565b6000806000905060005b60028481548110611585576115846122ff565b5b906000526020600020018054905081101561166557600080611636612710600288815481106115b7576115b66122ff565b5b9060005260206000200185815481106115d3576115d26122ff565b5b9060005260206000209060070201600401546115ef9190612b96565b60028881548110611603576116026122ff565b5b90600052602060002001858154811061161f5761161e6122ff565b5b9060005260206000209060070201600501546117c8565b915091508180156116475750838112155b15611650578294505b5050808061165d90612713565b915050611571565b5050919050565b60606000600161167b846117fe565b01905060008167ffffffffffffffff81111561169a57611699611ae9565b5b6040519080825280601f01601f1916602001820160405280156116cc5781602001600182028036833780820191505090505b509050600082602001820190505b60011561172f578080600190039150507f3031323334353637383961626364656600000000000000000000000000000000600a86061a8153600a858161172357611722612c0e565b5b049450600085036116da575b819350505050919050565b6060600082126117595760405180602001604052806000815250611790565b6040518060400160405280600181526020017f2d000000000000000000000000000000000000000000000000000000000000008152505b6117a161179c84611951565b61166c565b6040516020016117b2929190612c3d565b6040516020818303038152906040529050919050565b600080600083036117df57600080915091506117f7565b60018385816117f1576117f0612c0e565b5b05915091505b9250929050565b600080600090507a184f03e93ff9f4daa797ed6e38ed64bf6a1f010000000000000000831061185c577a184f03e93ff9f4daa797ed6e38ed64bf6a1f010000000000000000838161185257611851612c0e565b5b0492506040810190505b6d04ee2d6d415b85acef81000000008310611899576d04ee2d6d415b85acef8100000000838161188f5761188e612c0e565b5b0492506020810190505b662386f26fc1000083106118c857662386f26fc1000083816118be576118bd612c0e565b5b0492506010810190505b6305f5e10083106118f1576305f5e10083816118e7576118e6612c0e565b5b0492506008810190505b612710831061191657612710838161190c5761190b612c0e565b5b0492506004810190505b60648310611939576064838161192f5761192e612c0e565b5b0492506002810190505b600a8310611948576001810190505b80915050919050565b6000808212156119645781600003611966565b815b9050919050565b8280548282559060005260206000209081019282156119b5579160200282015b828111156119b45782518290816119a4919061253a565b509160200191906001019061198d565b5b5090506119c29190611a03565b5090565b6040518060e00160405280606081526020016060815260200160608152602001606081526020016000815260200160008152602001600081525090565b5b80821115611a235760008181611a1a9190611a27565b50600101611a04565b5090565b508054611a339061235d565b6000825580601f10611a455750611a64565b601f016020900490600052602060002090810190611a639190611a67565b5b50565b5b80821115611a80576000816000905550600101611a68565b5090565b6000604051905090565b600080fd5b600080fd5b6000819050919050565b611aab81611a98565b8114611ab657600080fd5b50565b600081359050611ac881611aa2565b92915050565b600080fd5b600080fd5b6000601f19601f8301169050919050565b7f4e487b7100000000000000000000000000000000000000000000000000000000600052604160045260246000fd5b611b2182611ad8565b810181811067ffffffffffffffff82111715611b4057611b3f611ae9565b5b80604052505050565b6000611b53611a84565b9050611b5f8282611b18565b919050565b600067ffffffffffffffff821115611b7f57611b7e611ae9565b5b611b8882611ad8565b9050602081019050919050565b82818337600083830152505050565b6000611bb7611bb284611b64565b611b49565b905082815260208101848484011115611bd357611bd2611ad3565b5b611bde848285611b95565b509392505050565b600082601f830112611bfb57611bfa611ace565b5b8135611c0b848260208601611ba4565b91505092915050565b600067ffffffffffffffff821115611c2f57611c2e611ae9565b5b602082029050602081019050919050565b600080fd5b6000611c58611c5384611c14565b611b49565b90508083825260208201905060208402830185811115611c7b57611c7a611c40565b5b835b81811015611cc257803567ffffffffffffffff811115611ca057611c9f611ace565b5b808601611cad8982611be6565b85526020850194505050602081019050611c7d565b5050509392505050565b600082601f830112611ce157611ce0611ace565b5b8135611cf1848260208601611c45565b91505092915050565b60008060008060808587031215611d1457611d13611a8e565b5b6000611d2287828801611ab9565b945050602085013567ffffffffffffffff811115611d4357611d42611a93565b5b611d4f87828801611be6565b935050604085013567ffffffffffffffff811115611d7057611d6f611a93565b5b611d7c87828801611ccc565b925050606085013567ffffffffffffffff811115611d9d57611d9c611a93565b5b611da987828801611ccc565b91505092959194509250565b60008060408385031215611dcc57611dcb611a8e565b5b6000611dda85828601611ab9565b9250506020611deb85828601611ab9565b9150509250929050565b600081519050919050565b600082825260208201905092915050565b60005b83811015611e2f578082015181840152602081019050611e14565b60008484015250505050565b6000611e4682611df5565b611e508185611e00565b9350611e60818560208601611e11565b611e6981611ad8565b840191505092915050565b600081519050919050565b600082825260208201905092915050565b6000819050602082019050919050565b6000611eac8383611e3b565b905092915050565b6000602082019050919050565b6000611ecc82611e74565b611ed68185611e7f565b935083602082028501611ee885611e90565b8060005b85811015611f245784840389528151611f058582611ea0565b9450611f1083611eb4565b925060208a01995050600181019050611eec565b50829750879550505050505092915050565b6000819050919050565b611f4981611f36565b82525050565b611f5881611a98565b82525050565b600060e0830160008301518482036000860152611f7b8282611e3b565b91505060208301518482036020860152611f958282611e3b565b91505060408301518482036040860152611faf8282611ec1565b91505060608301518482036060860152611fc98282611ec1565b9150506080830151611fde6080860182611f40565b5060a0830151611ff160a0860182611f4f565b5060c083015161200460c0860182611f4f565b508091505092915050565b600060208201905081810360008301526120298184611f5e565b905092915050565b61203a81611f36565b811461204557600080fd5b50565b60008135905061205781612031565b92915050565b60008060006060848603121561207657612075611a8e565b5b600061208486828701611ab9565b935050602061209586828701611ab9565b92505060406120a686828701612048565b9150509250925092565b6000602082840312156120c6576120c5611a8e565b5b60006120d484828501611ab9565b91505092915050565b600082825260208201905092915050565b60006120f982611df5565b61210381856120dd565b9350612113818560208601611e11565b61211c81611ad8565b840191505092915050565b6000602082019050818103600083015261214181846120ee565b905092915050565b61215281611a98565b82525050565b600060208201905061216d6000830184612149565b92915050565b600073ffffffffffffffffffffffffffffffffffffffff82169050919050565b600061219e82612173565b9050919050565b6121ae81612193565b82525050565b60006020820190506121c960008301846121a5565b92915050565b6121d881612193565b81146121e357600080fd5b50565b6000813590506121f5816121cf565b92915050565b60006020828403121561221157612210611a8e565b5b600061221f848285016121e6565b91505092915050565b6000806000806080858703121561224257612241611a8e565b5b600085013567ffffffffffffffff8111156122605761225f611a93565b5b61226c87828801611be6565b945050602085013567ffffffffffffffff81111561228d5761228c611a93565b5b61229987828801611be6565b935050604085013567ffffffffffffffff8111156122ba576122b9611a93565b5b6122c687828801611ccc565b925050606085013567ffffffffffffffff8111156122e7576122e6611a93565b5b6122f387828801611ccc565b91505092959194509250565b7f4e487b7100000000000000000000000000000000000000000000000000000000600052603260045260246000fd5b7f4e487b7100000000000000000000000000000000000000000000000000000000600052602260045260246000fd5b6000600282049050600182168061237557607f821691505b6020821081036123885761238761232e565b5b50919050565b60008190508160005260206000209050919050565b60006020601f8301049050919050565b600082821b905092915050565b6000600883026123f07fffffffffffffffffffffffffffffffffffffffffffffffffffffffffffffffff826123b3565b6123fa86836123b3565b95508019841693508086168417925050509392505050565b6000819050919050565b600061243761243261242d84611a98565b612412565b611a98565b9050919050565b6000819050919050565b6124518361241c565b61246561245d8261243e565b8484546123c0565b825550505050565b600090565b61247a61246d565b612485818484612448565b505050565b5b818110156124a95761249e600082612472565b60018101905061248b565b5050565b601f8211156124ee576124bf8161238e565b6124c8846123a3565b810160208510156124d7578190505b6124eb6124e3856123a3565b83018261248a565b50505b505050565b600082821c905092915050565b6000612511600019846008026124f3565b1980831691505092915050565b600061252a8383612500565b9150826002028217905092915050565b61254382611df5565b67ffffffffffffffff81111561255c5761255b611ae9565b5b612566825461235d565b6125718282856124ad565b600060209050601f8311600181146125a45760008415612592578287015190505b61259c858261251e565b865550612604565b601f1984166125b28661238e565b60005b828110156125da578489015182556001820191506020850194506020810190506125b5565b868310156125f757848901516125f3601f891682612500565b8355505b6001600288020188555050505b505050505050565b7f496e76616c696420766f74650000000000000000000000000000000000000000600082015250565b6000612642600c836120dd565b915061264d8261260c565b602082019050919050565b6000602082019050818103600083015261267181612635565b9050919050565b7f4e487b7100000000000000000000000000000000000000000000000000000000600052601160045260246000fd5b60006126b282611f36565b91506126bd83611f36565b92508282039050818112600084121682821360008512151617156126e4576126e3612678565b5b92915050565b60006126f582611a98565b91506000820361270857612707612678565b5b600182039050919050565b600061271e82611a98565b91507fffffffffffffffffffffffffffffffffffffffffffffffffffffffffffffffff82036127505761274f612678565b5b600182019050919050565b600061276682611f36565b915061277183611f36565b92508282019050828112156000831216838212600084121516171561279957612798612678565b5b92915050565b600081905092915050565b60006127b582611df5565b6127bf818561279f565b93506127cf818560208601611e11565b80840191505092915050565b7f2300000000000000000000000000000000000000000000000000000000000000815250565b6000815461280e8161235d565b612818818661279f565b9450600182166000811461283357600181146128485761287b565b60ff198316865281151582028601935061287b565b6128518561238e565b60005b8381101561287357815481890152600182019150602081019050612854565b838801955050505b50505092915050565b7f7c00000000000000000000000000000000000000000000000000000000000000815250565b60006128b6828a6127aa565b91506128c1826127db565b6001820191506128d18289612801565b91506128dc826127db565b6001820191506128ec8288612801565b91506128f7826127db565b60018201915061290782876127aa565b9150612912826127db565b60018201915061292282866127aa565b915061292d826127db565b60018201915061293d82856127aa565b915061294882612884565b60018201915061295882846127aa565b915081905098975050505050505050565b600061297582866127aa565b9150612980826127db565b6001820191506129908285612801565b915061299b826127db565b6001820191506129ab8284612801565b9150819050949350505050565b60006129c482856127aa565b91506129cf826127db565b6001820191506129df8284612801565b91508190509392505050565b60006129f78285612801565b9150612a02826127db565b600182019150612a1282846127aa565b91508190509392505050565b7f43616c6c6572206973206e6f74206f776e657200000000000000000000000000600082015250565b6000612a546013836120dd565b9150612a5f82612a1e565b602082019050919050565b60006020820190508181036000830152612a8381612a47565b9050919050565b7f5465787420746f20736d616c6c00000000000000000000000000000000000000600082015250565b6000612ac0600d836120dd565b9150612acb82612a8a565b602082019050919050565b60006020820190508181036000830152612aef81612ab3565b9050919050565b7f5465787420746f6f20736d616c6c000000000000000000000000000000000000600082015250565b6000612b2c600e836120dd565b9150612b3782612af6565b602082019050919050565b60006020820190508181036000830152612b5b81612b1f565b9050919050565b6000612b6d82611a98565b9150612b7883611a98565b9250828203905081811115612b9057612b8f612678565b5b92915050565b6000612ba182611f36565b9150612bac83611f36565b9250828202612bba81611f36565b91507f80000000000000000000000000000000000000000000000000000000000000008414600084121615612bf257612bf1612678565b5b8282058414831517612c0757612c06612678565b5b5092915050565b7f4e487b7100000000000000000000000000000000000000000000000000000000600052601260045260246000fd5b6000612c4982856127aa565b9150612c5582846127aa565b9150819050939250505056fea2646970667358221220d4750e11163e601153653963e5b2cbf104fde6e9fd9b256224bfcf90f67de36264736f6c63430008130033",
  "immutableReferences": {},
  "source": "// SPDX-License-Identifier: GPL-3.0\n\npragma solidity >=0.8.0 <0.9.0;\n\nimport \"./OpenZeppelin.mod/Strings.sol\";\nimport \"./OpenZeppelin.mod/math/SafeMath.sol\";\n/**\n * @title Laws\n * @dev Direct Democracy law system\n */\ncontract Laws {\n\n    address private owner;\n\n    struct cLaws {\n        string title;\n        string law;\n        string[] articles;\n        string[] documents;\n        int256 votes;\n        uint256 total;\n        uint256 version;\n    }\n\n    struct cVote {\n        address addr;\n        uint256 version;\n        int256 vote;\n    }\n\n    cVote[][] votes;\n    cLaws[][] laws;\n\n    uint256 lawIndex = 0;\n    // event for EVM logging\n    event OwnerSet(address indexed oldOwner, address indexed newOwner);\n    event LawCreated(uint256 indexed id);\n    // modifier to check if caller is owner\n    modifier isOwner() {\n        // If the first argument of 'require' evaluates to 'false', execution terminates and all\n        // changes to the state and to Ether balances are reverted.\n        // This used to consume all gas in old EVM versions, but not anymore.\n        // It is often a good idea to use 'require' to check if functions are called correctly.\n        // As a second argument, you can also provide an explanation about what went wrong.\n        require(msg.sender == owner, \"Caller is not owner\");\n        _;\n\n    }\n\n    /**\n     * @dev Set contract deployer as owner\n     */\n    constructor() {\n        owner = msg.sender; // 'msg.sender' is sender of current call, contract deployer for a constructor\n        emit OwnerSet(address(0), owner);\n    }\n\n    /**\n     * @dev Change owner\n     * @param newOwner address of new owner\n     */\n    function changeOwner(address newOwner) public isOwner {\n        emit OwnerSet(owner, newOwner);\n        owner = newOwner;\n    }\n\n\n    function createLaw(string memory title, string memory law, string[] memory articles, string[] memory documents) public payable returns (uint256) {\n        \n        require(bytes(law).length > 10, \"Text to small\");\n        require(bytes(title).length > 4, \"Text too small\");\n\n        cLaws memory Law = cLaws({\n            title:title,\n            law:law,\n            articles:articles,\n            documents:documents,\n            votes:0,\n            total:0,\n            version:block.timestamp\n            });\n        laws.push();\n        laws[laws.length-1].push(Law);\n        lawIndex++;\n        votes.push();\n        emit LawCreated(laws.length-1);\n        return laws.length-1;\n    }\n\n    function proposeEdit(uint256 id, string memory law, string[] memory articles, string[] memory documents) public payable {\n         cLaws memory Law = cLaws({\n            title:laws[id][0].title,\n            law:law,\n            articles:articles,\n            documents:documents,\n            votes:0,\n            total:0,\n            version:block.timestamp\n            });\n        laws[id].push(Law);\n    }\n\n    function vote(uint256 id, uint256 version, int256 v) public payable {\n        require(v >= -1, \"Invalid vote\");\n        require(v <= 1, \"Invalid vote\");\n\n\n        for(uint256 i = 0; i < votes[id].length; i++)\n        {\n            if (votes[id][i].addr == msg.sender)\n            {\n                laws[id][votes[id][i].version].votes -= votes[id][i].vote;\n                laws[id][votes[id][i].version].total--;\n                delete votes[id][i];\n            }\n        }\n        cVote memory vot = cVote({\n            addr : msg.sender,\n            version : version,\n            vote : v\n        });\n        votes[id].push(vot);\n        laws[id][version].votes += v;\n        laws[id][version].total++;\n    }\n\n    function getRevisions(uint256 id) public view returns(string memory revisions) {\n\n        for (uint256 i = 0; i < laws[id].length; i++)\n        {\n            revisions = string.concat(Strings.toString(i),'#', laws[id][i].title,'#', laws[id][i].law,'#', Strings.toString(laws[id][i].version),'#', Strings.toString(int256(laws[id][i].votes)),'#', Strings.toString(laws[id][i].total),'|', revisions);\n        }\n    }\n\n    function getRevision(uint256 id, uint256 version) public view returns(string memory revision) {\n        revision = string.concat(Strings.toString(version),'#', laws[id][version].title,'#', laws[id][version].law);\n        for(uint256 i = 0; i < laws[id][version].articles.length; i++)\n        {\n            revision = string.concat(revision,'#',laws[id][version].articles[i]);\n        }\n    }\n\n    function getDocuments(uint256 id, uint256 version) public view returns(string memory documents) {\n\n        for (uint256 i = 0; i < laws[id][version].documents.length; i++)\n        {\n            documents = string.concat(laws[id][version].documents[i],'#', documents);\n        }\n    }\n\n    function getCurrentVersion(uint256 id) public view returns(uint256 version)\n    {\n        int256 max = 0;\n        //uint256 maxDate = 0;\n        for(uint256 i = 0; i < laws[id].length; i++)\n        {\n            (bool b, int256 v) = SafeMath.tryDiv((laws[id][i].votes*10000), int256(laws[id][i].total));\n            if ((b) && (v >= max))\n            {\n                version = i;\n            }\n        }\n    }\n\n    function getLaw(uint256 id) public view returns (string memory law)\n    {\n        uint256 version = getCurrentVersion(id);\n\n        law = getRevision(id, version);\n    }\n\n    function getLawCount() public view returns(uint256 count)\n    {\n        count = laws.length;\n    }\n    \n    function getLaw(uint256 id, uint256 version) public view returns(cLaws memory L)\n    {\n        L = laws[id][version];\n    }\n    /**\n     * @dev Return owner address \n     * @return address of owner\n     */\n    function getOwner() external view returns (address) {\n        return owner;\n    }\n\n} \n\n\n",
  "sourcePath": "/var/www/html/vote/DD/Solidity/contracts/laws.sol",
  "compiler": {
    "name": "solc",
    "version": "0.8.19+commit.7dd6d404.Emscripten.clang"
  },
  "schemaVersion": "3.4.13",
  "updatedAt": "2023-05-08T11:54:46.651Z",
  "devdoc": {
    "details": "Direct Democracy law system",
    "kind": "dev",
    "methods": {
      "changeOwner(address)": {
        "details": "Change owner",
        "params": {
          "newOwner": "address of new owner"
        }
      },
      "constructor": {
        "details": "Set contract deployer as owner"
      },
      "getOwner()": {
        "details": "Return owner address ",
        "returns": {
          "_0": "address of owner"
        }
      }
    },
    "title": "Laws",
    "version": 1
  },
  "userdoc": {
    "kind": "user",
    "methods": {},
    "version": 1
  }
}