{
  "contractName": "Taxes",
  "abi": [
    {
      "inputs": [],
      "stateMutability": "nonpayable",
      "type": "constructor"
    },
    {
      "anonymous": false,
      "inputs": [
        {
          "indexed": true,
          "internalType": "address",
          "name": "oldOwner",
          "type": "address"
        },
        {
          "indexed": true,
          "internalType": "address",
          "name": "newOwner",
          "type": "address"
        }
      ],
      "name": "OwnerSet",
      "type": "event"
    },
    {
      "inputs": [
        {
          "internalType": "address",
          "name": "newOwner",
          "type": "address"
        }
      ],
      "name": "changeOwner",
      "outputs": [],
      "stateMutability": "nonpayable",
      "type": "function"
    },
    {
      "inputs": [],
      "name": "getOwner",
      "outputs": [
        {
          "internalType": "address",
          "name": "",
          "type": "address"
        }
      ],
      "stateMutability": "view",
      "type": "function"
    },
    {
      "inputs": [
        {
          "internalType": "int8",
          "name": "PIT",
          "type": "int8"
        },
        {
          "internalType": "int8",
          "name": "CIT",
          "type": "int8"
        },
        {
          "internalType": "int8",
          "name": "VAT",
          "type": "int8"
        },
        {
          "internalType": "int8",
          "name": "Health",
          "type": "int8"
        }
      ],
      "name": "proposeStandardTaxes",
      "outputs": [],
      "stateMutability": "payable",
      "type": "function"
    },
    {
      "inputs": [
        {
          "internalType": "string",
          "name": "companyID",
          "type": "string"
        },
        {
          "internalType": "int8",
          "name": "tax",
          "type": "int8"
        }
      ],
      "name": "proposeCustomTaxes",
      "outputs": [],
      "stateMutability": "payable",
      "type": "function"
    },
    {
      "inputs": [],
      "name": "getCurrentTaxes",
      "outputs": [
        {
          "components": [
            {
              "internalType": "int8",
              "name": "PIT",
              "type": "int8"
            },
            {
              "internalType": "int8",
              "name": "CIT",
              "type": "int8"
            },
            {
              "internalType": "int8",
              "name": "VAT",
              "type": "int8"
            },
            {
              "internalType": "int8",
              "name": "Health",
              "type": "int8"
            },
            {
              "internalType": "int256",
              "name": "votes",
              "type": "int256"
            },
            {
              "internalType": "int256",
              "name": "total",
              "type": "int256"
            }
          ],
          "internalType": "struct Taxes.cStandardTaxesProp",
          "name": "taxes",
          "type": "tuple"
        }
      ],
      "stateMutability": "view",
      "type": "function"
    },
    {
      "inputs": [],
      "name": "getCustomTaxes",
      "outputs": [
        {
          "internalType": "string",
          "name": "taxes",
          "type": "string"
        }
      ],
      "stateMutability": "view",
      "type": "function"
    },
    {
      "inputs": [],
      "name": "getVotes",
      "outputs": [
        {
          "internalType": "string",
          "name": "v",
          "type": "string"
        }
      ],
      "stateMutability": "view",
      "type": "function"
    },
    {
      "inputs": [
        {
          "internalType": "uint256",
          "name": "id",
          "type": "uint256"
        },
        {
          "internalType": "int256",
          "name": "v",
          "type": "int256"
        }
      ],
      "name": "vote",
      "outputs": [],
      "stateMutability": "payable",
      "type": "function"
    },
    {
      "inputs": [
        {
          "internalType": "uint256",
          "name": "id",
          "type": "uint256"
        },
        {
          "internalType": "int256",
          "name": "v",
          "type": "int256"
        }
      ],
      "name": "voteCustom",
      "outputs": [],
      "stateMutability": "payable",
      "type": "function"
    }
  ],
  "bytecode": "0x608060405234801561001057600080fd5b50336000806101000a81548173ffffffffffffffffffffffffffffffffffffffff021916908373ffffffffffffffffffffffffffffffffffffffff16021790555060008054906101000a900473ffffffffffffffffffffffffffffffffffffffff1673ffffffffffffffffffffffffffffffffffffffff16600073ffffffffffffffffffffffffffffffffffffffff167f342827c97908e5e2f71151c08502a66d44b6f758e3ac2f1de95f02eb95f0a73560405160405180910390a360046040518060c00160405280601060000b8152602001600160000b8152602001601060000b8152602001601960000b8152602001600081526020016000815250908060018154018082558091505060019003906000526020600020906003020160009091909190915060008201518160000160006101000a81548160ff021916908360000b60ff16021790555060208201518160000160016101000a81548160ff021916908360000b60ff16021790555060408201518160000160026101000a81548160ff021916908360000b60ff16021790555060608201518160000160036101000a81548160ff021916908360000b60ff1602179055506080820151816001015560a08201518160020155505061216a806101eb6000396000f3fe6080604052600436106100865760003560e01c80638867a4c9116100595780638867a4c91461010a578063893d20e814610135578063a6f9dae114610160578063d71fdd0014610189578063f73e8912146101b457610086565b80630dc960151461008b57806333db1a61146100b6578063564a80f9146100d25780635e44daf3146100ee575b600080fd5b34801561009757600080fd5b506100a06101d0565b6040516100ad91906114b9565b60405180910390f35b6100d060048036038101906100cb919061155b565b610375565b005b6100ec60048036038101906100e79190611709565b610748565b005b6101086004803603810190610103919061155b565b6107ed565b005b34801561011657600080fd5b5061011f610bc0565b60405161012c91906114b9565b60405180910390f35b34801561014157600080fd5b5061014a610ce3565b60405161015791906117a6565b60405180910390f35b34801561016c57600080fd5b50610187600480360381019061018291906117ed565b610d0c565b005b34801561019557600080fd5b5061019e610e57565b6040516101ab91906118b3565b60405180910390f35b6101ce60048036038101906101c991906118ce565b610fd8565b005b606060005b6004805490508110156103715781610221600483815481106101fa576101f9611935565b5b906000526020600020906003020160000160009054906101000a900460000b60000b6110ea565b61025f6004848154811061023857610237611935565b5b906000526020600020906003020160000160019054906101000a900460000b60000b6110ea565b61029d6004858154811061027657610275611935565b5b906000526020600020906003020160000160029054906101000a900460000b60000b6110ea565b6102db600486815481106102b4576102b3611935565b5b906000526020600020906003020160000160039054906101000a900460000b60000b6110ea565b610309600487815481106102f2576102f1611935565b5b9060005260206000209060030201600101546110ea565b610337600488815481106103205761031f611935565b5b9060005260206000209060030201600201546110ea565b60405160200161034d97969594939291906119ec565b6040516020818303038152906040529150808061036990611ada565b9150506101d5565b5090565b7fffffffffffffffffffffffffffffffffffffffffffffffffffffffffffffffff8112156103d8576040517f08c379a00000000000000000000000000000000000000000000000000000000081526004016103cf90611b6e565b60405180910390fd5b600181131561041c576040517f08c379a000000000000000000000000000000000000000000000000000000000815260040161041390611b6e565b60405180910390fd5b6000600280549050111561060c5760005b60028054905081101561060a573373ffffffffffffffffffffffffffffffffffffffff166002828154811061046557610464611935565b5b906000526020600020906003020160000160009054906101000a900473ffffffffffffffffffffffffffffffffffffffff1673ffffffffffffffffffffffffffffffffffffffff16036105f757600281815481106104c6576104c5611935565b5b9060005260206000209060030201600101546003600183815481106104ee576104ed611935565b5b9060005260206000209060030201600201548154811061051157610510611935565b5b906000526020600020906004020160020160008282546105319190611b8e565b9250508190555060016003600183815481106105505761054f611935565b5b9060005260206000209060030201600201548154811061057357610572611935565b5b906000526020600020906004020160030160008282546105939190611b8e565b92505081905550600281815481106105ae576105ad611935565b5b9060005260206000209060030201600080820160006101000a81549073ffffffffffffffffffffffffffffffffffffffff02191690556001820160009055600282016000905550505b808061060290611ada565b91505061042d565b505b600060405180606001604052803373ffffffffffffffffffffffffffffffffffffffff168152602001838152602001848152509050600281908060018154018082558091505060019003906000526020600020906003020160009091909190915060008201518160000160006101000a81548173ffffffffffffffffffffffffffffffffffffffff021916908373ffffffffffffffffffffffffffffffffffffffff1602179055506020820151816001015560408201518160020155505081600384815481106106df576106de611935565b5b906000526020600020906004020160020160008282546106ff9190611bd1565b9250508190555060016003848154811061071c5761071b611935565b5b9060005260206000209060040201600301600082825461073c9190611bd1565b92505081905550505050565b600360405180608001604052808481526020018360000b8152602001600081526020016000815250908060018154018082558091505060019003906000526020600020906004020160009091909190915060008201518160000190816107ae9190611e21565b5060208201518160010160006101000a81548160ff021916908360000b60ff160217905550604082015181600201556060820151816003015550505050565b7fffffffffffffffffffffffffffffffffffffffffffffffffffffffffffffffff811215610850576040517f08c379a000000000000000000000000000000000000000000000000000000000815260040161084790611b6e565b60405180910390fd5b6001811315610894576040517f08c379a000000000000000000000000000000000000000000000000000000000815260040161088b90611b6e565b60405180910390fd5b60006001805490501115610a845760005b600180549050811015610a82573373ffffffffffffffffffffffffffffffffffffffff16600182815481106108dd576108dc611935565b5b906000526020600020906003020160000160009054906101000a900473ffffffffffffffffffffffffffffffffffffffff1673ffffffffffffffffffffffffffffffffffffffff1603610a6f576001818154811061093e5761093d611935565b5b90600052602060002090600302016001015460046001838154811061096657610965611935565b5b9060005260206000209060030201600201548154811061098957610988611935565b5b906000526020600020906003020160010160008282546109a99190611b8e565b9250508190555060016004600183815481106109c8576109c7611935565b5b906000526020600020906003020160020154815481106109eb576109ea611935565b5b90600052602060002090600302016002016000828254610a0b9190611b8e565b9250508190555060018181548110610a2657610a25611935565b5b9060005260206000209060030201600080820160006101000a81549073ffffffffffffffffffffffffffffffffffffffff02191690556001820160009055600282016000905550505b8080610a7a90611ada565b9150506108a5565b505b600060405180606001604052803373ffffffffffffffffffffffffffffffffffffffff168152602001838152602001848152509050600181908060018154018082558091505060019003906000526020600020906003020160009091909190915060008201518160000160006101000a81548173ffffffffffffffffffffffffffffffffffffffff021916908373ffffffffffffffffffffffffffffffffffffffff160217905550602082015181600101556040820151816002015550508160048481548110610b5757610b56611935565b5b90600052602060002090600302016001016000828254610b779190611bd1565b92505081905550600160048481548110610b9457610b93611935565b5b90600052602060002090600302016002016000828254610bb49190611bd1565b92505081905550505050565b60606000806003805490501115610cdb5760005b600380549050811015610cd95760038181548110610bf557610bf4611935565b5b9060005260206000209060040201600001610c4460038381548110610c1d57610c1c611935565b5b906000526020600020906004020160010160009054906101000a900460000b60000b6110ea565b610c7260038481548110610c5b57610c5a611935565b5b9060005260206000209060040201600201546110ea565b610ca060038581548110610c8957610c88611935565b5b9060005260206000209060040201600301546110ea565b86604051602001610cb5959493929190611f76565b60405160208183030381529060405292508080610cd190611ada565b915050610bd4565b505b600090505090565b60008060009054906101000a900473ffffffffffffffffffffffffffffffffffffffff16905090565b60008054906101000a900473ffffffffffffffffffffffffffffffffffffffff1673ffffffffffffffffffffffffffffffffffffffff163373ffffffffffffffffffffffffffffffffffffffff1614610d9a576040517f08c379a0000000000000000000000000000000000000000000000000000000008152600401610d9190612049565b60405180910390fd5b8073ffffffffffffffffffffffffffffffffffffffff1660008054906101000a900473ffffffffffffffffffffffffffffffffffffffff1673ffffffffffffffffffffffffffffffffffffffff167f342827c97908e5e2f71151c08502a66d44b6f758e3ac2f1de95f02eb95f0a73560405160405180910390a3806000806101000a81548173ffffffffffffffffffffffffffffffffffffffff021916908373ffffffffffffffffffffffffffffffffffffffff16021790555050565b610e5f6113eb565b60008060006004805490501115610f185760005b600480549050811015610f1657600080610ee46103e860048581548110610e9d57610e9c611935565b5b906000526020600020906003020160010154610eb99190612069565b60048581548110610ecd57610ecc611935565b5b906000526020600020906003020160020154611178565b91509150818015610ef55750848112155b15610f01578094508293505b50508080610f0e90611ada565b915050610e73565b505b6000915060048181548110610f3057610f2f611935565b5b90600052602060002090600302016040518060c00160405290816000820160009054906101000a900460000b60000b60000b81526020016000820160019054906101000a900460000b60000b60000b81526020016000820160029054906101000a900460000b60000b60000b81526020016000820160039054906101000a900460000b60000b60000b8152602001600182015481526020016002820154815250509250505090565b60046040518060c001604052808660000b81526020018560000b81526020018460000b81526020018360000b8152602001600081526020016000815250908060018154018082558091505060019003906000526020600020906003020160009091909190915060008201518160000160006101000a81548160ff021916908360000b60ff16021790555060208201518160000160016101000a81548160ff021916908360000b60ff16021790555060408201518160000160026101000a81548160ff021916908360000b60ff16021790555060608201518160000160036101000a81548160ff021916908360000b60ff1602179055506080820151816001015560a08201518160020155505050505050565b6060600082126111095760405180602001604052806000815250611140565b6040518060400160405280600181526020017f2d000000000000000000000000000000000000000000000000000000000000008152505b61115161114c846111ae565b6111ca565b6040516020016111629291906120e1565b6040516020818303038152906040529050919050565b6000806000830361118f57600080915091506111a7565b60018385816111a1576111a0612105565b5b05915091505b9250929050565b6000808212156111c157816000036111c3565b815b9050919050565b6060600060016111d984611298565b01905060008167ffffffffffffffff8111156111f8576111f76115a5565b5b6040519080825280601f01601f19166020018201604052801561122a5781602001600182028036833780820191505090505b509050600082602001820190505b60011561128d578080600190039150507f3031323334353637383961626364656600000000000000000000000000000000600a86061a8153600a858161128157611280612105565b5b04945060008503611238575b819350505050919050565b600080600090507a184f03e93ff9f4daa797ed6e38ed64bf6a1f01000000000000000083106112f6577a184f03e93ff9f4daa797ed6e38ed64bf6a1f01000000000000000083816112ec576112eb612105565b5b0492506040810190505b6d04ee2d6d415b85acef81000000008310611333576d04ee2d6d415b85acef8100000000838161132957611328612105565b5b0492506020810190505b662386f26fc10000831061136257662386f26fc10000838161135857611357612105565b5b0492506010810190505b6305f5e100831061138b576305f5e100838161138157611380612105565b5b0492506008810190505b61271083106113b05761271083816113a6576113a5612105565b5b0492506004810190505b606483106113d357606483816113c9576113c8612105565b5b0492506002810190505b600a83106113e2576001810190505b80915050919050565b6040518060c001604052806000800b81526020016000800b81526020016000800b81526020016000800b815260200160008152602001600081525090565b600081519050919050565b600082825260208201905092915050565b60005b83811015611463578082015181840152602081019050611448565b60008484015250505050565b6000601f19601f8301169050919050565b600061148b82611429565b6114958185611434565b93506114a5818560208601611445565b6114ae8161146f565b840191505092915050565b600060208201905081810360008301526114d38184611480565b905092915050565b6000604051905090565b600080fd5b600080fd5b6000819050919050565b611502816114ef565b811461150d57600080fd5b50565b60008135905061151f816114f9565b92915050565b6000819050919050565b61153881611525565b811461154357600080fd5b50565b6000813590506115558161152f565b92915050565b60008060408385031215611572576115716114e5565b5b600061158085828601611510565b925050602061159185828601611546565b9150509250929050565b600080fd5b600080fd5b7f4e487b7100000000000000000000000000000000000000000000000000000000600052604160045260246000fd5b6115dd8261146f565b810181811067ffffffffffffffff821117156115fc576115fb6115a5565b5b80604052505050565b600061160f6114db565b905061161b82826115d4565b919050565b600067ffffffffffffffff82111561163b5761163a6115a5565b5b6116448261146f565b9050602081019050919050565b82818337600083830152505050565b600061167361166e84611620565b611605565b90508281526020810184848401111561168f5761168e6115a0565b5b61169a848285611651565b509392505050565b600082601f8301126116b7576116b661159b565b5b81356116c7848260208601611660565b91505092915050565b60008160000b9050919050565b6116e6816116d0565b81146116f157600080fd5b50565b600081359050611703816116dd565b92915050565b600080604083850312156117205761171f6114e5565b5b600083013567ffffffffffffffff81111561173e5761173d6114ea565b5b61174a858286016116a2565b925050602061175b858286016116f4565b9150509250929050565b600073ffffffffffffffffffffffffffffffffffffffff82169050919050565b600061179082611765565b9050919050565b6117a081611785565b82525050565b60006020820190506117bb6000830184611797565b92915050565b6117ca81611785565b81146117d557600080fd5b50565b6000813590506117e7816117c1565b92915050565b600060208284031215611803576118026114e5565b5b6000611811848285016117d8565b91505092915050565b611823816116d0565b82525050565b61183281611525565b82525050565b60c08201600082015161184e600085018261181a565b506020820151611861602085018261181a565b506040820151611874604085018261181a565b506060820151611887606085018261181a565b50608082015161189a6080850182611829565b5060a08201516118ad60a0850182611829565b50505050565b600060c0820190506118c86000830184611838565b92915050565b600080600080608085870312156118e8576118e76114e5565b5b60006118f6878288016116f4565b9450506020611907878288016116f4565b9350506040611918878288016116f4565b9250506060611929878288016116f4565b91505092959194509250565b7f4e487b7100000000000000000000000000000000000000000000000000000000600052603260045260246000fd5b600081905092915050565b600061197a82611429565b6119848185611964565b9350611994818560208601611445565b80840191505092915050565b7f2300000000000000000000000000000000000000000000000000000000000000815250565b7f7c00000000000000000000000000000000000000000000000000000000000000815250565b60006119f8828a61196f565b9150611a04828961196f565b9150611a0f826119a0565b600182019150611a1f828861196f565b9150611a2a826119a0565b600182019150611a3a828761196f565b9150611a45826119a0565b600182019150611a55828661196f565b9150611a60826119a0565b600182019150611a70828561196f565b9150611a7b826119a0565b600182019150611a8b828461196f565b9150611a96826119c6565b60018201915081905098975050505050505050565b7f4e487b7100000000000000000000000000000000000000000000000000000000600052601160045260246000fd5b6000611ae5826114ef565b91507fffffffffffffffffffffffffffffffffffffffffffffffffffffffffffffffff8203611b1757611b16611aab565b5b600182019050919050565b7f496e76616c696420766f74650000000000000000000000000000000000000000600082015250565b6000611b58600c83611434565b9150611b6382611b22565b602082019050919050565b60006020820190508181036000830152611b8781611b4b565b9050919050565b6000611b9982611525565b9150611ba483611525565b9250828203905081811260008412168282136000851215161715611bcb57611bca611aab565b5b92915050565b6000611bdc82611525565b9150611be783611525565b925082820190508281121560008312168382126000841215161715611c0f57611c0e611aab565b5b92915050565b7f4e487b7100000000000000000000000000000000000000000000000000000000600052602260045260246000fd5b60006002820490506001821680611c5c57607f821691505b602082108103611c6f57611c6e611c15565b5b50919050565b60008190508160005260206000209050919050565b60006020601f8301049050919050565b600082821b905092915050565b600060088302611cd77fffffffffffffffffffffffffffffffffffffffffffffffffffffffffffffffff82611c9a565b611ce18683611c9a565b95508019841693508086168417925050509392505050565b6000819050919050565b6000611d1e611d19611d14846114ef565b611cf9565b6114ef565b9050919050565b6000819050919050565b611d3883611d03565b611d4c611d4482611d25565b848454611ca7565b825550505050565b600090565b611d61611d54565b611d6c818484611d2f565b505050565b5b81811015611d9057611d85600082611d59565b600181019050611d72565b5050565b601f821115611dd557611da681611c75565b611daf84611c8a565b81016020851015611dbe578190505b611dd2611dca85611c8a565b830182611d71565b50505b505050565b600082821c905092915050565b6000611df860001984600802611dda565b1980831691505092915050565b6000611e118383611de7565b9150826002028217905092915050565b611e2a82611429565b67ffffffffffffffff811115611e4357611e426115a5565b5b611e4d8254611c44565b611e58828285611d94565b600060209050601f831160018114611e8b5760008415611e79578287015190505b611e838582611e05565b865550611eeb565b601f198416611e9986611c75565b60005b82811015611ec157848901518255600182019150602085019450602081019050611e9c565b86831015611ede5784890151611eda601f891682611de7565b8355505b6001600288020188555050505b505050505050565b60008154611f0081611c44565b611f0a8186611964565b94506001821660008114611f255760018114611f3a57611f6d565b60ff1983168652811515820286019350611f6d565b611f4385611c75565b60005b83811015611f6557815481890152600182019150602081019050611f46565b838801955050505b50505092915050565b6000611f828288611ef3565b9150611f8d826119a0565b600182019150611f9d828761196f565b9150611fa8826119a0565b600182019150611fb8828661196f565b9150611fc3826119a0565b600182019150611fd3828561196f565b9150611fde826119c6565b600182019150611fee828461196f565b91508190509695505050505050565b7f43616c6c6572206973206e6f74206f776e657200000000000000000000000000600082015250565b6000612033601383611434565b915061203e82611ffd565b602082019050919050565b6000602082019050818103600083015261206281612026565b9050919050565b600061207482611525565b915061207f83611525565b925082820261208d81611525565b91507f800000000000000000000000000000000000000000000000000000000000000084146000841216156120c5576120c4611aab565b5b82820584148315176120da576120d9611aab565b5b5092915050565b60006120ed828561196f565b91506120f9828461196f565b91508190509392505050565b7f4e487b7100000000000000000000000000000000000000000000000000000000600052601260045260246000fdfea2646970667358221220295e6ca8cccdaea594bc1053ca4ca2830f7d70bf5becbb8a2aeadde3be90809064736f6c63430008130033",
  "immutableReferences": {},
  "source": "// SPDX-License-Identifier: GPL-3.0\n\npragma solidity >=0.7.0 <0.9.0;\n\nimport \"./OpenZeppelin.mod/Strings.sol\";\nimport \"./OpenZeppelin.mod/math/SafeMath.sol\";\n/**\n * @title Taxes\n * @dev Direct Democracy taxes System\n */\ncontract Taxes {\n \n    address private owner;\n\n    struct cCustomTaxesProp {\n        string companyID;\n        int8 tax;\n        int256 votes;\n        int256 total;\n    }\n\n    struct cStandardTaxesProp {\n        int8 PIT;\n        int8 CIT;\n        int8 VAT;\n        int8 Health;\n        int256 votes;\n        int256 total;\n    }\n\n    struct cVotes {\n        address addr;\n        int256 vote;\n        uint256 id;\n    }\n\n    cVotes[] votes;\n    cVotes[] customVotes;\n\n    cCustomTaxesProp[] customTaxesProp;\n    cStandardTaxesProp[] standardTaxesProp;\n    // event for EVM logging\n    event OwnerSet(address indexed oldOwner, address indexed newOwner);\n\n    // modifier to check if caller is owner\n    modifier isOwner() {\n        // If the first argument of 'require' evaluates to 'false', execution terminates and all\n        // changes to the state and to Ether balances are reverted.\n        // This used to consume all gas in old EVM versions, but not anymore.\n        // It is often a good idea to use 'require' to check if functions are called correctly.\n        // As a second argument, you can also provide an explanation about what went wrong.\n        require(msg.sender == owner, \"Caller is not owner\");\n        _;\n    }\n\n    /**\n     * @dev Set contract deployer as owner\n     */\n    constructor() {\n        owner = msg.sender; // 'msg.sender' is sender of current call, contract deployer for a constructor\n        emit OwnerSet(address(0), owner);\n        standardTaxesProp.push(\n            cStandardTaxesProp({\n                PIT:16,\n                CIT:1,\n                VAT:16,\n                Health:25,\n                votes:0,\n                total:0\n            })\n        );\n    }\n\n    /**\n     * @dev Change owner\n     * @param newOwner address of new owner\n     */\n    function changeOwner(address newOwner) public isOwner {\n        emit OwnerSet(owner, newOwner);\n        owner = newOwner;\n    }\n\n    /**\n     * @dev Return owner address \n     * @return address of owner\n     */\n    function getOwner() external view returns (address) {\n        return owner;\n    }\n\n    function proposeStandardTaxes(int8 PIT,int8 CIT,int8 VAT,int8 Health) public payable\n    {\n        standardTaxesProp.push(\n            cStandardTaxesProp({\n                PIT:PIT,\n                CIT:CIT,\n                VAT:VAT,\n                Health:Health,\n                votes:0,\n                total:0\n            })\n        );\n    }\n\n    function proposeCustomTaxes(string memory companyID, int8 tax) public payable\n    {\n        customTaxesProp.push(\n            cCustomTaxesProp({\n                companyID:companyID,\n                tax:tax,\n                votes:0,\n                total:0\n            })\n        );\n    }\n\n    function getCurrentTaxes() public view returns(cStandardTaxesProp memory taxes)\n    {\n        int256 max = 0;\n        uint256 maxStandard = 0;\n        //uint256 maxCustom = 0;\n\n        if (standardTaxesProp.length > 0)\n        for(uint256 i = 0; i < standardTaxesProp.length; i++)\n        {\n            (bool b, int256 percent) = SafeMath.tryDiv(standardTaxesProp[i].votes * 1000, standardTaxesProp[i].total);\n\n            if((b) && (percent >= max))\n            {\n                max = percent;\n                maxStandard = i;\n            } \n        }\n\n        max = 0;\n\n        taxes = standardTaxesProp[maxStandard];\n    }\n\n    function getCustomTaxes() public view returns(string memory taxes)\n    {\n        int256 max = 0;\n     //   uint256 maxStandard = 0;\n        //uint256 maxCustom = 0;\n\n        if (customTaxesProp.length > 0)\n        for(uint256 i = 0; i < customTaxesProp.length; i++)\n        {\n            //(bool b, int256 percent) = SafeMath.tryDiv(customTaxesProp[i].votes * 1000, customTaxesProp[i].total);\n                taxes = string.concat(customTaxesProp[i].companyID,'#', \n                Strings.toString(customTaxesProp[i].tax),'#',\n                Strings.toString(customTaxesProp[i].votes),'#',\n                Strings.toString(customTaxesProp[i].total),'|', taxes);\n/*            if((b) && (percent >= max))\n            {\n                max = percent;\n\n\n\n                maxStandard = i;\n            } */\n        }\n\n        max = 0;\n\n\n    }\n\n    function getVotes() public view returns (string memory v) {\n        for (uint256 i = 0; i < standardTaxesProp.length; i++)\n        {\n            v = string.concat(v,\n                Strings.toString(int256(standardTaxesProp[i].PIT)), '#',\n                Strings.toString(int256(standardTaxesProp[i].CIT)), '#',\n                Strings.toString(int256(standardTaxesProp[i].VAT)), '#',\n                Strings.toString(int256(standardTaxesProp[i].Health)), '#',\n                Strings.toString(int256(standardTaxesProp[i].votes)), '#',\n                Strings.toString(standardTaxesProp[i].total), '|'\n            );\n        }\n    }\n\n    function vote(uint256 id, int256 v) public payable {\n        require(v >= -1, \"Invalid vote\");\n        require(v <= 1, \"Invalid vote\");\n\n        if (votes.length > 0)\n        for(uint256 i = 0; i < votes.length; i++)\n        {\n            if (votes[i].addr == msg.sender)\n            {\n                standardTaxesProp[votes[i].id].votes -= votes[i].vote;\n                standardTaxesProp[votes[i].id].total -= 1;\n                delete votes[i];\n            }\n        }\n        cVotes memory vot = cVotes({\n            addr : msg.sender,\n            vote : v,\n            id : id\n        });\n        votes.push(vot);\n        standardTaxesProp[id].votes += v;\n        standardTaxesProp[id].total += 1;\n    }\n\n    function voteCustom(uint256 id, int256 v) public payable {\n        require(v >= -1, \"Invalid vote\");\n        require(v <= 1, \"Invalid vote\");\n\n        if (customVotes.length > 0)\n        for(uint256 i = 0; i < customVotes.length; i++)\n        {\n            if (customVotes[i].addr == msg.sender)\n            {\n                customTaxesProp[votes[i].id].votes -= customVotes[i].vote;\n                customTaxesProp[votes[i].id].total -= 1; \n                delete customVotes[i];\n            }\n        }\n        cVotes memory vot = cVotes({\n            addr : msg.sender,\n            vote : v,\n            id : id\n        });\n        customVotes.push(vot); \n        customTaxesProp[id].votes += v; \n        customTaxesProp[id].total += 1;\n    }\n} ",
  "sourcePath": "/var/www/html/vote/DD/Solidity/contracts/taxes.sol",
  "compiler": {
    "name": "solc",
    "version": "0.8.19+commit.7dd6d404.Emscripten.clang"
  },
  "schemaVersion": "3.4.13",
  "updatedAt": "2023-05-08T11:54:46.669Z",
  "devdoc": {
    "details": "Direct Democracy taxes System",
    "kind": "dev",
    "methods": {
      "changeOwner(address)": {
        "details": "Change owner",
        "params": {
          "newOwner": "address of new owner"
        }
      },
      "constructor": {
        "details": "Set contract deployer as owner"
      },
      "getOwner()": {
        "details": "Return owner address ",
        "returns": {
          "_0": "address of owner"
        }
      }
    },
    "title": "Taxes",
    "version": 1
  },
  "userdoc": {
    "kind": "user",
    "methods": {},
    "version": 1
  }
}