{
	"data": {
		"bytecode": {
			"linkReferences": {},
			"object": "608060405260006003553480156200001657600080fd5b50620000636040518060400160405280601b81526020017f4f776e657220636f6e7472616374206465706c6f7965642062793a0000000000815250336200012460201b6200166c1760201c565b336000806101000a81548173ffffffffffffffffffffffffffffffffffffffff021916908373ffffffffffffffffffffffffffffffffffffffff16021790555060008054906101000a900473ffffffffffffffffffffffffffffffffffffffff1673ffffffffffffffffffffffffffffffffffffffff16600073ffffffffffffffffffffffffffffffffffffffff167f342827c97908e5e2f71151c08502a66d44b6f758e3ac2f1de95f02eb95f0a73560405160405180910390a362000306565b620001c682826040516024016200013d929190620002d2565b6040516020818303038152906040527f319af333000000000000000000000000000000000000000000000000000000007bffffffffffffffffffffffffffffffffffffffffffffffffffffffff19166020820180517bffffffffffffffffffffffffffffffffffffffffffffffffffffffff8381831617835250505050620001ca60201b60201c565b5050565b60008151905060006a636f6e736f6c652e6c6f679050602083016000808483855afa5050505050565b600081519050919050565b600082825260208201905092915050565b60005b838110156200022f57808201518184015260208101905062000212565b60008484015250505050565b6000601f19601f8301169050919050565b60006200025982620001f3565b620002658185620001fe565b9350620002778185602086016200020f565b62000282816200023b565b840191505092915050565b600073ffffffffffffffffffffffffffffffffffffffff82169050919050565b6000620002ba826200028d565b9050919050565b620002cc81620002ad565b82525050565b60006040820190508181036000830152620002ee81856200024c565b9050620002ff6020830184620002c1565b9392505050565b612d8c80620003166000396000f3fe6080604052600436106100a75760003560e01c80638349166f116100645780638349166f146101c6578063893d20e814610203578063a6f9dae11461022e578063c1c1a37714610257578063c3b53ba414610287578063e715463c146102c4576100a7565b80631d31245c146100ac5780631f88e5a9146100c857806320b7c317146101055780633ec559c6146101215780636192e3e81461015e5780636475f4fe1461019b575b600080fd5b6100c660048036038101906100c19190611dbf565b610301565b005b3480156100d457600080fd5b506100ef60048036038101906100ea9190611e7a565b6104d9565b6040516100fc91906120d4565b60405180910390f35b61011f600480360381019061011a9190612122565b610826565b005b34801561012d57600080fd5b5061014860048036038101906101439190612175565b610d1b565b60405161015591906121ec565b60405180910390f35b34801561016a57600080fd5b5061018560048036038101906101809190611e7a565b610ef3565b60405161019291906121ec565b60405180910390f35b3480156101a757600080fd5b506101b061108c565b6040516101bd919061221d565b60405180910390f35b3480156101d257600080fd5b506101ed60048036038101906101e89190611e7a565b611099565b6040516101fa91906121ec565b60405180910390f35b34801561020f57600080fd5b50610218611184565b6040516102259190612279565b60405180910390f35b34801561023a57600080fd5b50610255600480360381019061025091906122c0565b6111ad565b005b610271600480360381019061026c91906122ed565b6112f8565b60405161027e919061221d565b60405180910390f35b34801561029357600080fd5b506102ae60048036038101906102a99190612175565b611546565b6040516102bb91906121ec565b60405180910390f35b3480156102d057600080fd5b506102eb60048036038101906102e69190612175565b611567565b6040516102f8919061221d565b60405180910390f35b60006040518060e0016040528060028781548110610322576103216123c4565b5b9060005260206000200160008154811061033f5761033e6123c4565b5b9060005260206000209060070201600001805461035b90612422565b80601f016020809104026020016040519081016040528092919081815260200182805461038790612422565b80156103d45780601f106103a9576101008083540402835291602001916103d4565b820191906000526020600020905b8154815290600101906020018083116103b757829003601f168201915b50505050508152602001858152602001848152602001838152602001600081526020016000815260200142815250905060028581548110610418576104176123c4565b5b90600052602060002001819080600181540180825580915050600190039060005260206000209060070201600090919091909150600082015181600001908161046191906125ff565b50602082015181600101908161047791906125ff565b506040820151816002019080519060200190610494929190611a32565b5060608201518160030190805190602001906104b1929190611a32565b506080820151816004015560a0820151816005015560c0820151816006015550505050505050565b6104e1611a8b565b600283815481106104f5576104f46123c4565b5b906000526020600020018281548110610511576105106123c4565b5b90600052602060002090600702016040518060e001604052908160008201805461053a90612422565b80601f016020809104026020016040519081016040528092919081815260200182805461056690612422565b80156105b35780601f10610588576101008083540402835291602001916105b3565b820191906000526020600020905b81548152906001019060200180831161059657829003601f168201915b505050505081526020016001820180546105cc90612422565b80601f01602080910402602001604051908101604052809291908181526020018280546105f890612422565b80156106455780601f1061061a57610100808354040283529160200191610645565b820191906000526020600020905b81548152906001019060200180831161062857829003601f168201915b5050505050815260200160028201805480602002602001604051908101604052809291908181526020016000905b8282101561071f57838290600052602060002001805461069290612422565b80601f01602080910402602001604051908101604052809291908181526020018280546106be90612422565b801561070b5780601f106106e05761010080835404028352916020019161070b565b820191906000526020600020905b8154815290600101906020018083116106ee57829003601f168201915b505050505081526020019060010190610673565b50505050815260200160038201805480602002602001604051908101604052809291908181526020016000905b828210156107f857838290600052602060002001805461076b90612422565b80601f016020809104026020016040519081016040528092919081815260200182805461079790612422565b80156107e45780601f106107b9576101008083540402835291602001916107e4565b820191906000526020600020905b8154815290600101906020018083116107c757829003601f168201915b50505050508152602001906001019061074c565b5050505081526020016004820154815260200160058201548152602001600682015481525050905092915050565b7fffffffffffffffffffffffffffffffffffffffffffffffffffffffffffffffff811215610889576040517f08c379a00000000000000000000000000000000000000000000000000000000081526004016108809061271d565b60405180910390fd5b60018113156108cd576040517f08c379a00000000000000000000000000000000000000000000000000000000081526004016108c49061271d565b60405180910390fd5b60005b600184815481106108e4576108e36123c4565b5b9060005260206000200180549050811015610b8b573373ffffffffffffffffffffffffffffffffffffffff1660018581548110610924576109236123c4565b5b9060005260206000200182815481106109405761093f6123c4565b5b906000526020600020906003020160000160009054906101000a900473ffffffffffffffffffffffffffffffffffffffff1673ffffffffffffffffffffffffffffffffffffffff1603610b7857600184815481106109a1576109a06123c4565b5b9060005260206000200181815481106109bd576109bc6123c4565b5b906000526020600020906003020160020154600285815481106109e3576109e26123c4565b5b9060005260206000200160018681548110610a0157610a006123c4565b5b906000526020600020018381548110610a1d57610a1c6123c4565b5b90600052602060002090600302016001015481548110610a4057610a3f6123c4565b5b90600052602060002090600702016004016000828254610a60919061276c565b9250508190555060028481548110610a7b57610a7a6123c4565b5b9060005260206000200160018581548110610a9957610a986123c4565b5b906000526020600020018281548110610ab557610ab46123c4565b5b90600052602060002090600302016001015481548110610ad857610ad76123c4565b5b90600052602060002090600702016005016000815480929190610afa906127af565b919050555060018481548110610b1357610b126123c4565b5b906000526020600020018181548110610b2f57610b2e6123c4565b5b9060005260206000209060030201600080820160006101000a81549073ffffffffffffffffffffffffffffffffffffffff02191690556001820160009055600282016000905550505b8080610b83906127d8565b9150506108d0565b50600060405180606001604052803373ffffffffffffffffffffffffffffffffffffffff16815260200184815260200183815250905060018481548110610bd557610bd46123c4565b5b9060005260206000200181908060018154018082558091505060019003906000526020600020906003020160009091909190915060008201518160000160006101000a81548173ffffffffffffffffffffffffffffffffffffffff021916908373ffffffffffffffffffffffffffffffffffffffff160217905550602082015181600101556040820151816002015550508160028581548110610c7b57610c7a6123c4565b5b906000526020600020018481548110610c9757610c966123c4565b5b90600052602060002090600702016004016000828254610cb79190612820565b9250508190555060028481548110610cd257610cd16123c4565b5b906000526020600020018381548110610cee57610ced6123c4565b5b90600052602060002090600702016005016000815480929190610d10906127d8565b919050555050505050565b606060005b60028381548110610d3457610d336123c4565b5b9060005260206000200180549050811015610eed57610d5281611708565b60028481548110610d6657610d656123c4565b5b906000526020600020018281548110610d8257610d816123c4565b5b906000526020600020906007020160000160028581548110610da757610da66123c4565b5b906000526020600020018381548110610dc357610dc26123c4565b5b9060005260206000209060070201600101610e1e60028781548110610deb57610dea6123c4565b5b906000526020600020018581548110610e0757610e066123c4565b5b906000526020600020906007020160060154611708565b610e6860028881548110610e3557610e346123c4565b5b906000526020600020018681548110610e5157610e506123c4565b5b9060005260206000209060070201600401546117d6565b610eb260028981548110610e7f57610e7e6123c4565b5b906000526020600020018781548110610e9b57610e9a6123c4565b5b906000526020600020906007020160050154611708565b87604051602001610ec9979695949392919061296f565b60405160208183030381529060405291508080610ee5906127d8565b915050610d20565b50919050565b6060610efe82611708565b60028481548110610f1257610f116123c4565b5b906000526020600020018381548110610f2e57610f2d6123c4565b5b906000526020600020906007020160000160028581548110610f5357610f526123c4565b5b906000526020600020018481548110610f6f57610f6e6123c4565b5b9060005260206000209060070201600101604051602001610f9293929190612a2e565b604051602081830303815290604052905060005b60028481548110610fba57610fb96123c4565b5b906000526020600020018381548110610fd657610fd56123c4565b5b906000526020600020906007020160020180549050811015611085578160028581548110611007576110066123c4565b5b906000526020600020018481548110611023576110226123c4565b5b90600052602060002090600702016002018281548110611046576110456123c4565b5b90600052602060002001604051602001611061929190612a7d565b6040516020818303038152906040529150808061107d906127d8565b915050610fa6565b5092915050565b6000600280549050905090565b606060005b600284815481106110b2576110b16123c4565b5b9060005260206000200183815481106110ce576110cd6123c4565b5b90600052602060002090600702016003018054905081101561117d57600284815481106110fe576110fd6123c4565b5b90600052602060002001838154811061111a576111196123c4565b5b9060005260206000209060070201600301818154811061113d5761113c6123c4565b5b9060005260206000200182604051602001611159929190612ab0565b60405160208183030381529060405291508080611175906127d8565b91505061109e565b5092915050565b60008060009054906101000a900473ffffffffffffffffffffffffffffffffffffffff16905090565b60008054906101000a900473ffffffffffffffffffffffffffffffffffffffff1673ffffffffffffffffffffffffffffffffffffffff163373ffffffffffffffffffffffffffffffffffffffff161461123b576040517f08c379a000000000000000000000000000000000000000000000000000000000815260040161123290612b2f565b60405180910390fd5b8073ffffffffffffffffffffffffffffffffffffffff1660008054906101000a900473ffffffffffffffffffffffffffffffffffffffff1673ffffffffffffffffffffffffffffffffffffffff167f342827c97908e5e2f71151c08502a66d44b6f758e3ac2f1de95f02eb95f0a73560405160405180910390a3806000806101000a81548173ffffffffffffffffffffffffffffffffffffffff021916908373ffffffffffffffffffffffffffffffffffffffff16021790555050565b6000600a84511161133e576040517f08c379a000000000000000000000000000000000000000000000000000000000815260040161133590612b9b565b60405180910390fd5b6004855111611382576040517f08c379a000000000000000000000000000000000000000000000000000000000815260040161137990612c07565b60405180910390fd5b60006040518060e0016040528087815260200186815260200185815260200184815260200160008152602001600081526020014281525090506002600181600181540180825580915050039060005260206000205050600260016002805490506113ec9190612c27565b815481106113fd576113fc6123c4565b5b90600052602060002001819080600181540180825580915050600190039060005260206000209060070201600090919091909150600082015181600001908161144691906125ff565b50602082015181600101908161145c91906125ff565b506040820151816002019080519060200190611479929190611a32565b506060820151816003019080519060200190611496929190611a32565b506080820151816004015560a0820151816005015560c082015181600601555050600360008154809291906114ca906127d8565b91905055506001808160018154018082558091505003906000526020600020505060016002805490506114fd9190612c27565b7ffe55c2349d62da6a9f59944b4bec1e721fb08faf486fb6758bded48f8a70ad1960405160405180910390a2600160028054905061153b9190612c27565b915050949350505050565b6060600061155383611567565b905061155f8382610ef3565b915050919050565b6000806000905060005b60028481548110611585576115846123c4565b5b906000526020600020018054905081101561166557600080611636612710600288815481106115b7576115b66123c4565b5b9060005260206000200185815481106115d3576115d26123c4565b5b9060005260206000209060070201600401546115ef9190612c5b565b60028881548110611603576116026123c4565b5b90600052602060002001858154811061161f5761161e6123c4565b5b906000526020600020906007020160050154611864565b915091508180156116475750838112155b15611650578294505b5050808061165d906127d8565b915050611571565b5050919050565b6117048282604051602401611682929190612cd3565b6040516020818303038152906040527f319af333000000000000000000000000000000000000000000000000000000007bffffffffffffffffffffffffffffffffffffffffffffffffffffffff19166020820180517bffffffffffffffffffffffffffffffffffffffffffffffffffffffff838183161783525050505061189a565b5050565b606060006001611717846118c3565b01905060008167ffffffffffffffff81111561173657611735611bae565b5b6040519080825280601f01601f1916602001820160405280156117685781602001600182028036833780820191505090505b509050600082602001820190505b6001156117cb578080600190039150507f3031323334353637383961626364656600000000000000000000000000000000600a86061a8153600a85816117bf576117be612d03565b5b04945060008503611776575b819350505050919050565b6060600082126117f5576040518060200160405280600081525061182c565b6040518060400160405280600181526020017f2d000000000000000000000000000000000000000000000000000000000000008152505b61183d61183884611a16565b611708565b60405160200161184e929190612d32565b6040516020818303038152906040529050919050565b6000806000830361187b5760008091509150611893565b600183858161188d5761188c612d03565b5b05915091505b9250929050565b60008151905060006a636f6e736f6c652e6c6f679050602083016000808483855afa5050505050565b600080600090507a184f03e93ff9f4daa797ed6e38ed64bf6a1f0100000000000000008310611921577a184f03e93ff9f4daa797ed6e38ed64bf6a1f010000000000000000838161191757611916612d03565b5b0492506040810190505b6d04ee2d6d415b85acef8100000000831061195e576d04ee2d6d415b85acef8100000000838161195457611953612d03565b5b0492506020810190505b662386f26fc10000831061198d57662386f26fc10000838161198357611982612d03565b5b0492506010810190505b6305f5e10083106119b6576305f5e10083816119ac576119ab612d03565b5b0492506008810190505b61271083106119db5761271083816119d1576119d0612d03565b5b0492506004810190505b606483106119fe57606483816119f4576119f3612d03565b5b0492506002810190505b600a8310611a0d576001810190505b80915050919050565b600080821215611a295781600003611a2b565b815b9050919050565b828054828255906000526020600020908101928215611a7a579160200282015b82811115611a79578251829081611a6991906125ff565b5091602001919060010190611a52565b5b509050611a879190611ac8565b5090565b6040518060e00160405280606081526020016060815260200160608152602001606081526020016000815260200160008152602001600081525090565b5b80821115611ae85760008181611adf9190611aec565b50600101611ac9565b5090565b508054611af890612422565b6000825580601f10611b0a5750611b29565b601f016020900490600052602060002090810190611b289190611b2c565b5b50565b5b80821115611b45576000816000905550600101611b2d565b5090565b6000604051905090565b600080fd5b600080fd5b6000819050919050565b611b7081611b5d565b8114611b7b57600080fd5b50565b600081359050611b8d81611b67565b92915050565b600080fd5b600080fd5b6000601f19601f8301169050919050565b7f4e487b7100000000000000000000000000000000000000000000000000000000600052604160045260246000fd5b611be682611b9d565b810181811067ffffffffffffffff82111715611c0557611c04611bae565b5b80604052505050565b6000611c18611b49565b9050611c248282611bdd565b919050565b600067ffffffffffffffff821115611c4457611c43611bae565b5b611c4d82611b9d565b9050602081019050919050565b82818337600083830152505050565b6000611c7c611c7784611c29565b611c0e565b905082815260208101848484011115611c9857611c97611b98565b5b611ca3848285611c5a565b509392505050565b600082601f830112611cc057611cbf611b93565b5b8135611cd0848260208601611c69565b91505092915050565b600067ffffffffffffffff821115611cf457611cf3611bae565b5b602082029050602081019050919050565b600080fd5b6000611d1d611d1884611cd9565b611c0e565b90508083825260208201905060208402830185811115611d4057611d3f611d05565b5b835b81811015611d8757803567ffffffffffffffff811115611d6557611d64611b93565b5b808601611d728982611cab565b85526020850194505050602081019050611d42565b5050509392505050565b600082601f830112611da657611da5611b93565b5b8135611db6848260208601611d0a565b91505092915050565b60008060008060808587031215611dd957611dd8611b53565b5b6000611de787828801611b7e565b945050602085013567ffffffffffffffff811115611e0857611e07611b58565b5b611e1487828801611cab565b935050604085013567ffffffffffffffff811115611e3557611e34611b58565b5b611e4187828801611d91565b925050606085013567ffffffffffffffff811115611e6257611e61611b58565b5b611e6e87828801611d91565b91505092959194509250565b60008060408385031215611e9157611e90611b53565b5b6000611e9f85828601611b7e565b9250506020611eb085828601611b7e565b9150509250929050565b600081519050919050565b600082825260208201905092915050565b60005b83811015611ef4578082015181840152602081019050611ed9565b60008484015250505050565b6000611f0b82611eba565b611f158185611ec5565b9350611f25818560208601611ed6565b611f2e81611b9d565b840191505092915050565b600081519050919050565b600082825260208201905092915050565b6000819050602082019050919050565b6000611f718383611f00565b905092915050565b6000602082019050919050565b6000611f9182611f39565b611f9b8185611f44565b935083602082028501611fad85611f55565b8060005b85811015611fe95784840389528151611fca8582611f65565b9450611fd583611f79565b925060208a01995050600181019050611fb1565b50829750879550505050505092915050565b6000819050919050565b61200e81611ffb565b82525050565b61201d81611b5d565b82525050565b600060e08301600083015184820360008601526120408282611f00565b9150506020830151848203602086015261205a8282611f00565b915050604083015184820360408601526120748282611f86565b9150506060830151848203606086015261208e8282611f86565b91505060808301516120a36080860182612005565b5060a08301516120b660a0860182612014565b5060c08301516120c960c0860182612014565b508091505092915050565b600060208201905081810360008301526120ee8184612023565b905092915050565b6120ff81611ffb565b811461210a57600080fd5b50565b60008135905061211c816120f6565b92915050565b60008060006060848603121561213b5761213a611b53565b5b600061214986828701611b7e565b935050602061215a86828701611b7e565b925050604061216b8682870161210d565b9150509250925092565b60006020828403121561218b5761218a611b53565b5b600061219984828501611b7e565b91505092915050565b600082825260208201905092915050565b60006121be82611eba565b6121c881856121a2565b93506121d8818560208601611ed6565b6121e181611b9d565b840191505092915050565b6000602082019050818103600083015261220681846121b3565b905092915050565b61221781611b5d565b82525050565b6000602082019050612232600083018461220e565b92915050565b600073ffffffffffffffffffffffffffffffffffffffff82169050919050565b600061226382612238565b9050919050565b61227381612258565b82525050565b600060208201905061228e600083018461226a565b92915050565b61229d81612258565b81146122a857600080fd5b50565b6000813590506122ba81612294565b92915050565b6000602082840312156122d6576122d5611b53565b5b60006122e4848285016122ab565b91505092915050565b6000806000806080858703121561230757612306611b53565b5b600085013567ffffffffffffffff81111561232557612324611b58565b5b61233187828801611cab565b945050602085013567ffffffffffffffff81111561235257612351611b58565b5b61235e87828801611cab565b935050604085013567ffffffffffffffff81111561237f5761237e611b58565b5b61238b87828801611d91565b925050606085013567ffffffffffffffff8111156123ac576123ab611b58565b5b6123b887828801611d91565b91505092959194509250565b7f4e487b7100000000000000000000000000000000000000000000000000000000600052603260045260246000fd5b7f4e487b7100000000000000000000000000000000000000000000000000000000600052602260045260246000fd5b6000600282049050600182168061243a57607f821691505b60208210810361244d5761244c6123f3565b5b50919050565b60008190508160005260206000209050919050565b60006020601f8301049050919050565b600082821b905092915050565b6000600883026124b57fffffffffffffffffffffffffffffffffffffffffffffffffffffffffffffffff82612478565b6124bf8683612478565b95508019841693508086168417925050509392505050565b6000819050919050565b60006124fc6124f76124f284611b5d565b6124d7565b611b5d565b9050919050565b6000819050919050565b612516836124e1565b61252a61252282612503565b848454612485565b825550505050565b600090565b61253f612532565b61254a81848461250d565b505050565b5b8181101561256e57612563600082612537565b600181019050612550565b5050565b601f8211156125b35761258481612453565b61258d84612468565b8101602085101561259c578190505b6125b06125a885612468565b83018261254f565b50505b505050565b600082821c905092915050565b60006125d6600019846008026125b8565b1980831691505092915050565b60006125ef83836125c5565b9150826002028217905092915050565b61260882611eba565b67ffffffffffffffff81111561262157612620611bae565b5b61262b8254612422565b612636828285612572565b600060209050601f8311600181146126695760008415612657578287015190505b61266185826125e3565b8655506126c9565b601f19841661267786612453565b60005b8281101561269f5784890151825560018201915060208501945060208101905061267a565b868310156126bc57848901516126b8601f8916826125c5565b8355505b6001600288020188555050505b505050505050565b7f496e76616c696420766f74650000000000000000000000000000000000000000600082015250565b6000612707600c836121a2565b9150612712826126d1565b602082019050919050565b60006020820190508181036000830152612736816126fa565b9050919050565b7f4e487b7100000000000000000000000000000000000000000000000000000000600052601160045260246000fd5b600061277782611ffb565b915061278283611ffb565b92508282039050818112600084121682821360008512151617156127a9576127a861273d565b5b92915050565b60006127ba82611b5d565b9150600082036127cd576127cc61273d565b5b600182039050919050565b60006127e382611b5d565b91507fffffffffffffffffffffffffffffffffffffffffffffffffffffffffffffffff82036128155761281461273d565b5b600182019050919050565b600061282b82611ffb565b915061283683611ffb565b92508282019050828112156000831216838212600084121516171561285e5761285d61273d565b5b92915050565b600081905092915050565b600061287a82611eba565b6128848185612864565b9350612894818560208601611ed6565b80840191505092915050565b7f2300000000000000000000000000000000000000000000000000000000000000815250565b600081546128d381612422565b6128dd8186612864565b945060018216600081146128f8576001811461290d57612940565b60ff1983168652811515820286019350612940565b61291685612453565b60005b8381101561293857815481890152600182019150602081019050612919565b838801955050505b50505092915050565b7f7c00000000000000000000000000000000000000000000000000000000000000815250565b600061297b828a61286f565b9150612986826128a0565b60018201915061299682896128c6565b91506129a1826128a0565b6001820191506129b182886128c6565b91506129bc826128a0565b6001820191506129cc828761286f565b91506129d7826128a0565b6001820191506129e7828661286f565b91506129f2826128a0565b600182019150612a02828561286f565b9150612a0d82612949565b600182019150612a1d828461286f565b915081905098975050505050505050565b6000612a3a828661286f565b9150612a45826128a0565b600182019150612a5582856128c6565b9150612a60826128a0565b600182019150612a7082846128c6565b9150819050949350505050565b6000612a89828561286f565b9150612a94826128a0565b600182019150612aa482846128c6565b91508190509392505050565b6000612abc82856128c6565b9150612ac7826128a0565b600182019150612ad7828461286f565b91508190509392505050565b7f43616c6c6572206973206e6f74206f776e657200000000000000000000000000600082015250565b6000612b196013836121a2565b9150612b2482612ae3565b602082019050919050565b60006020820190508181036000830152612b4881612b0c565b9050919050565b7f5465787420746f20736d616c6c00000000000000000000000000000000000000600082015250565b6000612b85600d836121a2565b9150612b9082612b4f565b602082019050919050565b60006020820190508181036000830152612bb481612b78565b9050919050565b7f5465787420746f6f20736d616c6c000000000000000000000000000000000000600082015250565b6000612bf1600e836121a2565b9150612bfc82612bbb565b602082019050919050565b60006020820190508181036000830152612c2081612be4565b9050919050565b6000612c3282611b5d565b9150612c3d83611b5d565b9250828203905081811115612c5557612c5461273d565b5b92915050565b6000612c6682611ffb565b9150612c7183611ffb565b9250828202612c7f81611ffb565b91507f80000000000000000000000000000000000000000000000000000000000000008414600084121615612cb757612cb661273d565b5b8282058414831517612ccc57612ccb61273d565b5b5092915050565b60006040820190508181036000830152612ced81856121b3565b9050612cfc602083018461226a565b9392505050565b7f4e487b7100000000000000000000000000000000000000000000000000000000600052601260045260246000fd5b6000612d3e828561286f565b9150612d4a828461286f565b9150819050939250505056fea26469706673582212208dd23c42e7a32c3f504a7f9a345aeee5ab788e7c52d58bc5e4a3610eda5f0e6664736f6c63430008120033",
			"opcodes": "PUSH1 0x80 PUSH1 0x40 MSTORE PUSH1 0x0 PUSH1 0x3 SSTORE CALLVALUE DUP1 ISZERO PUSH3 0x16 JUMPI PUSH1 0x0 DUP1 REVERT JUMPDEST POP PUSH3 0x63 PUSH1 0x40 MLOAD DUP1 PUSH1 0x40 ADD PUSH1 0x40 MSTORE DUP1 PUSH1 0x1B DUP2 MSTORE PUSH1 0x20 ADD PUSH32 0x4F776E657220636F6E7472616374206465706C6F7965642062793A0000000000 DUP2 MSTORE POP CALLER PUSH3 0x124 PUSH1 0x20 SHL PUSH3 0x166C OR PUSH1 0x20 SHR JUMP JUMPDEST CALLER PUSH1 0x0 DUP1 PUSH2 0x100 EXP DUP2 SLOAD DUP2 PUSH20 0xFFFFFFFFFFFFFFFFFFFFFFFFFFFFFFFFFFFFFFFF MUL NOT AND SWAP1 DUP4 PUSH20 0xFFFFFFFFFFFFFFFFFFFFFFFFFFFFFFFFFFFFFFFF AND MUL OR SWAP1 SSTORE POP PUSH1 0x0 DUP1 SLOAD SWAP1 PUSH2 0x100 EXP SWAP1 DIV PUSH20 0xFFFFFFFFFFFFFFFFFFFFFFFFFFFFFFFFFFFFFFFF AND PUSH20 0xFFFFFFFFFFFFFFFFFFFFFFFFFFFFFFFFFFFFFFFF AND PUSH1 0x0 PUSH20 0xFFFFFFFFFFFFFFFFFFFFFFFFFFFFFFFFFFFFFFFF AND PUSH32 0x342827C97908E5E2F71151C08502A66D44B6F758E3AC2F1DE95F02EB95F0A735 PUSH1 0x40 MLOAD PUSH1 0x40 MLOAD DUP1 SWAP2 SUB SWAP1 LOG3 PUSH3 0x306 JUMP JUMPDEST PUSH3 0x1C6 DUP3 DUP3 PUSH1 0x40 MLOAD PUSH1 0x24 ADD PUSH3 0x13D SWAP3 SWAP2 SWAP1 PUSH3 0x2D2 JUMP JUMPDEST PUSH1 0x40 MLOAD PUSH1 0x20 DUP2 DUP4 SUB SUB DUP2 MSTORE SWAP1 PUSH1 0x40 MSTORE PUSH32 0x319AF33300000000000000000000000000000000000000000000000000000000 PUSH28 0xFFFFFFFFFFFFFFFFFFFFFFFFFFFFFFFFFFFFFFFFFFFFFFFFFFFFFFFF NOT AND PUSH1 0x20 DUP3 ADD DUP1 MLOAD PUSH28 0xFFFFFFFFFFFFFFFFFFFFFFFFFFFFFFFFFFFFFFFFFFFFFFFFFFFFFFFF DUP4 DUP2 DUP4 AND OR DUP4 MSTORE POP POP POP POP PUSH3 0x1CA PUSH1 0x20 SHL PUSH1 0x20 SHR JUMP JUMPDEST POP POP JUMP JUMPDEST PUSH1 0x0 DUP2 MLOAD SWAP1 POP PUSH1 0x0 PUSH11 0x636F6E736F6C652E6C6F67 SWAP1 POP PUSH1 0x20 DUP4 ADD PUSH1 0x0 DUP1 DUP5 DUP4 DUP6 GAS STATICCALL POP POP POP POP POP JUMP JUMPDEST PUSH1 0x0 DUP2 MLOAD SWAP1 POP SWAP2 SWAP1 POP JUMP JUMPDEST PUSH1 0x0 DUP3 DUP3 MSTORE PUSH1 0x20 DUP3 ADD SWAP1 POP SWAP3 SWAP2 POP POP JUMP JUMPDEST PUSH1 0x0 JUMPDEST DUP4 DUP2 LT ISZERO PUSH3 0x22F JUMPI DUP1 DUP3 ADD MLOAD DUP2 DUP5 ADD MSTORE PUSH1 0x20 DUP2 ADD SWAP1 POP PUSH3 0x212 JUMP JUMPDEST PUSH1 0x0 DUP5 DUP5 ADD MSTORE POP POP POP POP JUMP JUMPDEST PUSH1 0x0 PUSH1 0x1F NOT PUSH1 0x1F DUP4 ADD AND SWAP1 POP SWAP2 SWAP1 POP JUMP JUMPDEST PUSH1 0x0 PUSH3 0x259 DUP3 PUSH3 0x1F3 JUMP JUMPDEST PUSH3 0x265 DUP2 DUP6 PUSH3 0x1FE JUMP JUMPDEST SWAP4 POP PUSH3 0x277 DUP2 DUP6 PUSH1 0x20 DUP7 ADD PUSH3 0x20F JUMP JUMPDEST PUSH3 0x282 DUP2 PUSH3 0x23B JUMP JUMPDEST DUP5 ADD SWAP2 POP POP SWAP3 SWAP2 POP POP JUMP JUMPDEST PUSH1 0x0 PUSH20 0xFFFFFFFFFFFFFFFFFFFFFFFFFFFFFFFFFFFFFFFF DUP3 AND SWAP1 POP SWAP2 SWAP1 POP JUMP JUMPDEST PUSH1 0x0 PUSH3 0x2BA DUP3 PUSH3 0x28D JUMP JUMPDEST SWAP1 POP SWAP2 SWAP1 POP JUMP JUMPDEST PUSH3 0x2CC DUP2 PUSH3 0x2AD JUMP JUMPDEST DUP3 MSTORE POP POP JUMP JUMPDEST PUSH1 0x0 PUSH1 0x40 DUP3 ADD SWAP1 POP DUP2 DUP2 SUB PUSH1 0x0 DUP4 ADD MSTORE PUSH3 0x2EE DUP2 DUP6 PUSH3 0x24C JUMP JUMPDEST SWAP1 POP PUSH3 0x2FF PUSH1 0x20 DUP4 ADD DUP5 PUSH3 0x2C1 JUMP JUMPDEST SWAP4 SWAP3 POP POP POP JUMP JUMPDEST PUSH2 0x2D8C DUP1 PUSH3 0x316 PUSH1 0x0 CODECOPY PUSH1 0x0 RETURN INVALID PUSH1 0x80 PUSH1 0x40 MSTORE PUSH1 0x4 CALLDATASIZE LT PUSH2 0xA7 JUMPI PUSH1 0x0 CALLDATALOAD PUSH1 0xE0 SHR DUP1 PUSH4 0x8349166F GT PUSH2 0x64 JUMPI DUP1 PUSH4 0x8349166F EQ PUSH2 0x1C6 JUMPI DUP1 PUSH4 0x893D20E8 EQ PUSH2 0x203 JUMPI DUP1 PUSH4 0xA6F9DAE1 EQ PUSH2 0x22E JUMPI DUP1 PUSH4 0xC1C1A377 EQ PUSH2 0x257 JUMPI DUP1 PUSH4 0xC3B53BA4 EQ PUSH2 0x287 JUMPI DUP1 PUSH4 0xE715463C EQ PUSH2 0x2C4 JUMPI PUSH2 0xA7 JUMP JUMPDEST DUP1 PUSH4 0x1D31245C EQ PUSH2 0xAC JUMPI DUP1 PUSH4 0x1F88E5A9 EQ PUSH2 0xC8 JUMPI DUP1 PUSH4 0x20B7C317 EQ PUSH2 0x105 JUMPI DUP1 PUSH4 0x3EC559C6 EQ PUSH2 0x121 JUMPI DUP1 PUSH4 0x6192E3E8 EQ PUSH2 0x15E JUMPI DUP1 PUSH4 0x6475F4FE EQ PUSH2 0x19B JUMPI JUMPDEST PUSH1 0x0 DUP1 REVERT JUMPDEST PUSH2 0xC6 PUSH1 0x4 DUP1 CALLDATASIZE SUB DUP2 ADD SWAP1 PUSH2 0xC1 SWAP2 SWAP1 PUSH2 0x1DBF JUMP JUMPDEST PUSH2 0x301 JUMP JUMPDEST STOP JUMPDEST CALLVALUE DUP1 ISZERO PUSH2 0xD4 JUMPI PUSH1 0x0 DUP1 REVERT JUMPDEST POP PUSH2 0xEF PUSH1 0x4 DUP1 CALLDATASIZE SUB DUP2 ADD SWAP1 PUSH2 0xEA SWAP2 SWAP1 PUSH2 0x1E7A JUMP JUMPDEST PUSH2 0x4D9 JUMP JUMPDEST PUSH1 0x40 MLOAD PUSH2 0xFC SWAP2 SWAP1 PUSH2 0x20D4 JUMP JUMPDEST PUSH1 0x40 MLOAD DUP1 SWAP2 SUB SWAP1 RETURN JUMPDEST PUSH2 0x11F PUSH1 0x4 DUP1 CALLDATASIZE SUB DUP2 ADD SWAP1 PUSH2 0x11A SWAP2 SWAP1 PUSH2 0x2122 JUMP JUMPDEST PUSH2 0x826 JUMP JUMPDEST STOP JUMPDEST CALLVALUE DUP1 ISZERO PUSH2 0x12D JUMPI PUSH1 0x0 DUP1 REVERT JUMPDEST POP PUSH2 0x148 PUSH1 0x4 DUP1 CALLDATASIZE SUB DUP2 ADD SWAP1 PUSH2 0x143 SWAP2 SWAP1 PUSH2 0x2175 JUMP JUMPDEST PUSH2 0xD1B JUMP JUMPDEST PUSH1 0x40 MLOAD PUSH2 0x155 SWAP2 SWAP1 PUSH2 0x21EC JUMP JUMPDEST PUSH1 0x40 MLOAD DUP1 SWAP2 SUB SWAP1 RETURN JUMPDEST CALLVALUE DUP1 ISZERO PUSH2 0x16A JUMPI PUSH1 0x0 DUP1 REVERT JUMPDEST POP PUSH2 0x185 PUSH1 0x4 DUP1 CALLDATASIZE SUB DUP2 ADD SWAP1 PUSH2 0x180 SWAP2 SWAP1 PUSH2 0x1E7A JUMP JUMPDEST PUSH2 0xEF3 JUMP JUMPDEST PUSH1 0x40 MLOAD PUSH2 0x192 SWAP2 SWAP1 PUSH2 0x21EC JUMP JUMPDEST PUSH1 0x40 MLOAD DUP1 SWAP2 SUB SWAP1 RETURN JUMPDEST CALLVALUE DUP1 ISZERO PUSH2 0x1A7 JUMPI PUSH1 0x0 DUP1 REVERT JUMPDEST POP PUSH2 0x1B0 PUSH2 0x108C JUMP JUMPDEST PUSH1 0x40 MLOAD PUSH2 0x1BD SWAP2 SWAP1 PUSH2 0x221D JUMP JUMPDEST PUSH1 0x40 MLOAD DUP1 SWAP2 SUB SWAP1 RETURN JUMPDEST CALLVALUE DUP1 ISZERO PUSH2 0x1D2 JUMPI PUSH1 0x0 DUP1 REVERT JUMPDEST POP PUSH2 0x1ED PUSH1 0x4 DUP1 CALLDATASIZE SUB DUP2 ADD SWAP1 PUSH2 0x1E8 SWAP2 SWAP1 PUSH2 0x1E7A JUMP JUMPDEST PUSH2 0x1099 JUMP JUMPDEST PUSH1 0x40 MLOAD PUSH2 0x1FA SWAP2 SWAP1 PUSH2 0x21EC JUMP JUMPDEST PUSH1 0x40 MLOAD DUP1 SWAP2 SUB SWAP1 RETURN JUMPDEST CALLVALUE DUP1 ISZERO PUSH2 0x20F JUMPI PUSH1 0x0 DUP1 REVERT JUMPDEST POP PUSH2 0x218 PUSH2 0x1184 JUMP JUMPDEST PUSH1 0x40 MLOAD PUSH2 0x225 SWAP2 SWAP1 PUSH2 0x2279 JUMP JUMPDEST PUSH1 0x40 MLOAD DUP1 SWAP2 SUB SWAP1 RETURN JUMPDEST CALLVALUE DUP1 ISZERO PUSH2 0x23A JUMPI PUSH1 0x0 DUP1 REVERT JUMPDEST POP PUSH2 0x255 PUSH1 0x4 DUP1 CALLDATASIZE SUB DUP2 ADD SWAP1 PUSH2 0x250 SWAP2 SWAP1 PUSH2 0x22C0 JUMP JUMPDEST PUSH2 0x11AD JUMP JUMPDEST STOP JUMPDEST PUSH2 0x271 PUSH1 0x4 DUP1 CALLDATASIZE SUB DUP2 ADD SWAP1 PUSH2 0x26C SWAP2 SWAP1 PUSH2 0x22ED JUMP JUMPDEST PUSH2 0x12F8 JUMP JUMPDEST PUSH1 0x40 MLOAD PUSH2 0x27E SWAP2 SWAP1 PUSH2 0x221D JUMP JUMPDEST PUSH1 0x40 MLOAD DUP1 SWAP2 SUB SWAP1 RETURN JUMPDEST CALLVALUE DUP1 ISZERO PUSH2 0x293 JUMPI PUSH1 0x0 DUP1 REVERT JUMPDEST POP PUSH2 0x2AE PUSH1 0x4 DUP1 CALLDATASIZE SUB DUP2 ADD SWAP1 PUSH2 0x2A9 SWAP2 SWAP1 PUSH2 0x2175 JUMP JUMPDEST PUSH2 0x1546 JUMP JUMPDEST PUSH1 0x40 MLOAD PUSH2 0x2BB SWAP2 SWAP1 PUSH2 0x21EC JUMP JUMPDEST PUSH1 0x40 MLOAD DUP1 SWAP2 SUB SWAP1 RETURN JUMPDEST CALLVALUE DUP1 ISZERO PUSH2 0x2D0 JUMPI PUSH1 0x0 DUP1 REVERT JUMPDEST POP PUSH2 0x2EB PUSH1 0x4 DUP1 CALLDATASIZE SUB DUP2 ADD SWAP1 PUSH2 0x2E6 SWAP2 SWAP1 PUSH2 0x2175 JUMP JUMPDEST PUSH2 0x1567 JUMP JUMPDEST PUSH1 0x40 MLOAD PUSH2 0x2F8 SWAP2 SWAP1 PUSH2 0x221D JUMP JUMPDEST PUSH1 0x40 MLOAD DUP1 SWAP2 SUB SWAP1 RETURN JUMPDEST PUSH1 0x0 PUSH1 0x40 MLOAD DUP1 PUSH1 0xE0 ADD PUSH1 0x40 MSTORE DUP1 PUSH1 0x2 DUP8 DUP2 SLOAD DUP2 LT PUSH2 0x322 JUMPI PUSH2 0x321 PUSH2 0x23C4 JUMP JUMPDEST JUMPDEST SWAP1 PUSH1 0x0 MSTORE PUSH1 0x20 PUSH1 0x0 KECCAK256 ADD PUSH1 0x0 DUP2 SLOAD DUP2 LT PUSH2 0x33F JUMPI PUSH2 0x33E PUSH2 0x23C4 JUMP JUMPDEST JUMPDEST SWAP1 PUSH1 0x0 MSTORE PUSH1 0x20 PUSH1 0x0 KECCAK256 SWAP1 PUSH1 0x7 MUL ADD PUSH1 0x0 ADD DUP1 SLOAD PUSH2 0x35B SWAP1 PUSH2 0x2422 JUMP JUMPDEST DUP1 PUSH1 0x1F ADD PUSH1 0x20 DUP1 SWAP2 DIV MUL PUSH1 0x20 ADD PUSH1 0x40 MLOAD SWAP1 DUP2 ADD PUSH1 0x40 MSTORE DUP1 SWAP3 SWAP2 SWAP1 DUP2 DUP2 MSTORE PUSH1 0x20 ADD DUP3 DUP1 SLOAD PUSH2 0x387 SWAP1 PUSH2 0x2422 JUMP JUMPDEST DUP1 ISZERO PUSH2 0x3D4 JUMPI DUP1 PUSH1 0x1F LT PUSH2 0x3A9 JUMPI PUSH2 0x100 DUP1 DUP4 SLOAD DIV MUL DUP4 MSTORE SWAP2 PUSH1 0x20 ADD SWAP2 PUSH2 0x3D4 JUMP JUMPDEST DUP3 ADD SWAP2 SWAP1 PUSH1 0x0 MSTORE PUSH1 0x20 PUSH1 0x0 KECCAK256 SWAP1 JUMPDEST DUP2 SLOAD DUP2 MSTORE SWAP1 PUSH1 0x1 ADD SWAP1 PUSH1 0x20 ADD DUP1 DUP4 GT PUSH2 0x3B7 JUMPI DUP3 SWAP1 SUB PUSH1 0x1F AND DUP3 ADD SWAP2 JUMPDEST POP POP POP POP POP DUP2 MSTORE PUSH1 0x20 ADD DUP6 DUP2 MSTORE PUSH1 0x20 ADD DUP5 DUP2 MSTORE PUSH1 0x20 ADD DUP4 DUP2 MSTORE PUSH1 0x20 ADD PUSH1 0x0 DUP2 MSTORE PUSH1 0x20 ADD PUSH1 0x0 DUP2 MSTORE PUSH1 0x20 ADD TIMESTAMP DUP2 MSTORE POP SWAP1 POP PUSH1 0x2 DUP6 DUP2 SLOAD DUP2 LT PUSH2 0x418 JUMPI PUSH2 0x417 PUSH2 0x23C4 JUMP JUMPDEST JUMPDEST SWAP1 PUSH1 0x0 MSTORE PUSH1 0x20 PUSH1 0x0 KECCAK256 ADD DUP2 SWAP1 DUP1 PUSH1 0x1 DUP2 SLOAD ADD DUP1 DUP3 SSTORE DUP1 SWAP2 POP POP PUSH1 0x1 SWAP1 SUB SWAP1 PUSH1 0x0 MSTORE PUSH1 0x20 PUSH1 0x0 KECCAK256 SWAP1 PUSH1 0x7 MUL ADD PUSH1 0x0 SWAP1 SWAP2 SWAP1 SWAP2 SWAP1 SWAP2 POP PUSH1 0x0 DUP3 ADD MLOAD DUP2 PUSH1 0x0 ADD SWAP1 DUP2 PUSH2 0x461 SWAP2 SWAP1 PUSH2 0x25FF JUMP JUMPDEST POP PUSH1 0x20 DUP3 ADD MLOAD DUP2 PUSH1 0x1 ADD SWAP1 DUP2 PUSH2 0x477 SWAP2 SWAP1 PUSH2 0x25FF JUMP JUMPDEST POP PUSH1 0x40 DUP3 ADD MLOAD DUP2 PUSH1 0x2 ADD SWAP1 DUP1 MLOAD SWAP1 PUSH1 0x20 ADD SWAP1 PUSH2 0x494 SWAP3 SWAP2 SWAP1 PUSH2 0x1A32 JUMP JUMPDEST POP PUSH1 0x60 DUP3 ADD MLOAD DUP2 PUSH1 0x3 ADD SWAP1 DUP1 MLOAD SWAP1 PUSH1 0x20 ADD SWAP1 PUSH2 0x4B1 SWAP3 SWAP2 SWAP1 PUSH2 0x1A32 JUMP JUMPDEST POP PUSH1 0x80 DUP3 ADD MLOAD DUP2 PUSH1 0x4 ADD SSTORE PUSH1 0xA0 DUP3 ADD MLOAD DUP2 PUSH1 0x5 ADD SSTORE PUSH1 0xC0 DUP3 ADD MLOAD DUP2 PUSH1 0x6 ADD SSTORE POP POP POP POP POP POP POP JUMP JUMPDEST PUSH2 0x4E1 PUSH2 0x1A8B JUMP JUMPDEST PUSH1 0x2 DUP4 DUP2 SLOAD DUP2 LT PUSH2 0x4F5 JUMPI PUSH2 0x4F4 PUSH2 0x23C4 JUMP JUMPDEST JUMPDEST SWAP1 PUSH1 0x0 MSTORE PUSH1 0x20 PUSH1 0x0 KECCAK256 ADD DUP3 DUP2 SLOAD DUP2 LT PUSH2 0x511 JUMPI PUSH2 0x510 PUSH2 0x23C4 JUMP JUMPDEST JUMPDEST SWAP1 PUSH1 0x0 MSTORE PUSH1 0x20 PUSH1 0x0 KECCAK256 SWAP1 PUSH1 0x7 MUL ADD PUSH1 0x40 MLOAD DUP1 PUSH1 0xE0 ADD PUSH1 0x40 MSTORE SWAP1 DUP2 PUSH1 0x0 DUP3 ADD DUP1 SLOAD PUSH2 0x53A SWAP1 PUSH2 0x2422 JUMP JUMPDEST DUP1 PUSH1 0x1F ADD PUSH1 0x20 DUP1 SWAP2 DIV MUL PUSH1 0x20 ADD PUSH1 0x40 MLOAD SWAP1 DUP2 ADD PUSH1 0x40 MSTORE DUP1 SWAP3 SWAP2 SWAP1 DUP2 DUP2 MSTORE PUSH1 0x20 ADD DUP3 DUP1 SLOAD PUSH2 0x566 SWAP1 PUSH2 0x2422 JUMP JUMPDEST DUP1 ISZERO PUSH2 0x5B3 JUMPI DUP1 PUSH1 0x1F LT PUSH2 0x588 JUMPI PUSH2 0x100 DUP1 DUP4 SLOAD DIV MUL DUP4 MSTORE SWAP2 PUSH1 0x20 ADD SWAP2 PUSH2 0x5B3 JUMP JUMPDEST DUP3 ADD SWAP2 SWAP1 PUSH1 0x0 MSTORE PUSH1 0x20 PUSH1 0x0 KECCAK256 SWAP1 JUMPDEST DUP2 SLOAD DUP2 MSTORE SWAP1 PUSH1 0x1 ADD SWAP1 PUSH1 0x20 ADD DUP1 DUP4 GT PUSH2 0x596 JUMPI DUP3 SWAP1 SUB PUSH1 0x1F AND DUP3 ADD SWAP2 JUMPDEST POP POP POP POP POP DUP2 MSTORE PUSH1 0x20 ADD PUSH1 0x1 DUP3 ADD DUP1 SLOAD PUSH2 0x5CC SWAP1 PUSH2 0x2422 JUMP JUMPDEST DUP1 PUSH1 0x1F ADD PUSH1 0x20 DUP1 SWAP2 DIV MUL PUSH1 0x20 ADD PUSH1 0x40 MLOAD SWAP1 DUP2 ADD PUSH1 0x40 MSTORE DUP1 SWAP3 SWAP2 SWAP1 DUP2 DUP2 MSTORE PUSH1 0x20 ADD DUP3 DUP1 SLOAD PUSH2 0x5F8 SWAP1 PUSH2 0x2422 JUMP JUMPDEST DUP1 ISZERO PUSH2 0x645 JUMPI DUP1 PUSH1 0x1F LT PUSH2 0x61A JUMPI PUSH2 0x100 DUP1 DUP4 SLOAD DIV MUL DUP4 MSTORE SWAP2 PUSH1 0x20 ADD SWAP2 PUSH2 0x645 JUMP JUMPDEST DUP3 ADD SWAP2 SWAP1 PUSH1 0x0 MSTORE PUSH1 0x20 PUSH1 0x0 KECCAK256 SWAP1 JUMPDEST DUP2 SLOAD DUP2 MSTORE SWAP1 PUSH1 0x1 ADD SWAP1 PUSH1 0x20 ADD DUP1 DUP4 GT PUSH2 0x628 JUMPI DUP3 SWAP1 SUB PUSH1 0x1F AND DUP3 ADD SWAP2 JUMPDEST POP POP POP POP POP DUP2 MSTORE PUSH1 0x20 ADD PUSH1 0x2 DUP3 ADD DUP1 SLOAD DUP1 PUSH1 0x20 MUL PUSH1 0x20 ADD PUSH1 0x40 MLOAD SWAP1 DUP2 ADD PUSH1 0x40 MSTORE DUP1 SWAP3 SWAP2 SWAP1 DUP2 DUP2 MSTORE PUSH1 0x20 ADD PUSH1 0x0 SWAP1 JUMPDEST DUP3 DUP3 LT ISZERO PUSH2 0x71F JUMPI DUP4 DUP3 SWAP1 PUSH1 0x0 MSTORE PUSH1 0x20 PUSH1 0x0 KECCAK256 ADD DUP1 SLOAD PUSH2 0x692 SWAP1 PUSH2 0x2422 JUMP JUMPDEST DUP1 PUSH1 0x1F ADD PUSH1 0x20 DUP1 SWAP2 DIV MUL PUSH1 0x20 ADD PUSH1 0x40 MLOAD SWAP1 DUP2 ADD PUSH1 0x40 MSTORE DUP1 SWAP3 SWAP2 SWAP1 DUP2 DUP2 MSTORE PUSH1 0x20 ADD DUP3 DUP1 SLOAD PUSH2 0x6BE SWAP1 PUSH2 0x2422 JUMP JUMPDEST DUP1 ISZERO PUSH2 0x70B JUMPI DUP1 PUSH1 0x1F LT PUSH2 0x6E0 JUMPI PUSH2 0x100 DUP1 DUP4 SLOAD DIV MUL DUP4 MSTORE SWAP2 PUSH1 0x20 ADD SWAP2 PUSH2 0x70B JUMP JUMPDEST DUP3 ADD SWAP2 SWAP1 PUSH1 0x0 MSTORE PUSH1 0x20 PUSH1 0x0 KECCAK256 SWAP1 JUMPDEST DUP2 SLOAD DUP2 MSTORE SWAP1 PUSH1 0x1 ADD SWAP1 PUSH1 0x20 ADD DUP1 DUP4 GT PUSH2 0x6EE JUMPI DUP3 SWAP1 SUB PUSH1 0x1F AND DUP3 ADD SWAP2 JUMPDEST POP POP POP POP POP DUP2 MSTORE PUSH1 0x20 ADD SWAP1 PUSH1 0x1 ADD SWAP1 PUSH2 0x673 JUMP JUMPDEST POP POP POP POP DUP2 MSTORE PUSH1 0x20 ADD PUSH1 0x3 DUP3 ADD DUP1 SLOAD DUP1 PUSH1 0x20 MUL PUSH1 0x20 ADD PUSH1 0x40 MLOAD SWAP1 DUP2 ADD PUSH1 0x40 MSTORE DUP1 SWAP3 SWAP2 SWAP1 DUP2 DUP2 MSTORE PUSH1 0x20 ADD PUSH1 0x0 SWAP1 JUMPDEST DUP3 DUP3 LT ISZERO PUSH2 0x7F8 JUMPI DUP4 DUP3 SWAP1 PUSH1 0x0 MSTORE PUSH1 0x20 PUSH1 0x0 KECCAK256 ADD DUP1 SLOAD PUSH2 0x76B SWAP1 PUSH2 0x2422 JUMP JUMPDEST DUP1 PUSH1 0x1F ADD PUSH1 0x20 DUP1 SWAP2 DIV MUL PUSH1 0x20 ADD PUSH1 0x40 MLOAD SWAP1 DUP2 ADD PUSH1 0x40 MSTORE DUP1 SWAP3 SWAP2 SWAP1 DUP2 DUP2 MSTORE PUSH1 0x20 ADD DUP3 DUP1 SLOAD PUSH2 0x797 SWAP1 PUSH2 0x2422 JUMP JUMPDEST DUP1 ISZERO PUSH2 0x7E4 JUMPI DUP1 PUSH1 0x1F LT PUSH2 0x7B9 JUMPI PUSH2 0x100 DUP1 DUP4 SLOAD DIV MUL DUP4 MSTORE SWAP2 PUSH1 0x20 ADD SWAP2 PUSH2 0x7E4 JUMP JUMPDEST DUP3 ADD SWAP2 SWAP1 PUSH1 0x0 MSTORE PUSH1 0x20 PUSH1 0x0 KECCAK256 SWAP1 JUMPDEST DUP2 SLOAD DUP2 MSTORE SWAP1 PUSH1 0x1 ADD SWAP1 PUSH1 0x20 ADD DUP1 DUP4 GT PUSH2 0x7C7 JUMPI DUP3 SWAP1 SUB PUSH1 0x1F AND DUP3 ADD SWAP2 JUMPDEST POP POP POP POP POP DUP2 MSTORE PUSH1 0x20 ADD SWAP1 PUSH1 0x1 ADD SWAP1 PUSH2 0x74C JUMP JUMPDEST POP POP POP POP DUP2 MSTORE PUSH1 0x20 ADD PUSH1 0x4 DUP3 ADD SLOAD DUP2 MSTORE PUSH1 0x20 ADD PUSH1 0x5 DUP3 ADD SLOAD DUP2 MSTORE PUSH1 0x20 ADD PUSH1 0x6 DUP3 ADD SLOAD DUP2 MSTORE POP POP SWAP1 POP SWAP3 SWAP2 POP POP JUMP JUMPDEST PUSH32 0xFFFFFFFFFFFFFFFFFFFFFFFFFFFFFFFFFFFFFFFFFFFFFFFFFFFFFFFFFFFFFFFF DUP2 SLT ISZERO PUSH2 0x889 JUMPI PUSH1 0x40 MLOAD PUSH32 0x8C379A000000000000000000000000000000000000000000000000000000000 DUP2 MSTORE PUSH1 0x4 ADD PUSH2 0x880 SWAP1 PUSH2 0x271D JUMP JUMPDEST PUSH1 0x40 MLOAD DUP1 SWAP2 SUB SWAP1 REVERT JUMPDEST PUSH1 0x1 DUP2 SGT ISZERO PUSH2 0x8CD JUMPI PUSH1 0x40 MLOAD PUSH32 0x8C379A000000000000000000000000000000000000000000000000000000000 DUP2 MSTORE PUSH1 0x4 ADD PUSH2 0x8C4 SWAP1 PUSH2 0x271D JUMP JUMPDEST PUSH1 0x40 MLOAD DUP1 SWAP2 SUB SWAP1 REVERT JUMPDEST PUSH1 0x0 JUMPDEST PUSH1 0x1 DUP5 DUP2 SLOAD DUP2 LT PUSH2 0x8E4 JUMPI PUSH2 0x8E3 PUSH2 0x23C4 JUMP JUMPDEST JUMPDEST SWAP1 PUSH1 0x0 MSTORE PUSH1 0x20 PUSH1 0x0 KECCAK256 ADD DUP1 SLOAD SWAP1 POP DUP2 LT ISZERO PUSH2 0xB8B JUMPI CALLER PUSH20 0xFFFFFFFFFFFFFFFFFFFFFFFFFFFFFFFFFFFFFFFF AND PUSH1 0x1 DUP6 DUP2 SLOAD DUP2 LT PUSH2 0x924 JUMPI PUSH2 0x923 PUSH2 0x23C4 JUMP JUMPDEST JUMPDEST SWAP1 PUSH1 0x0 MSTORE PUSH1 0x20 PUSH1 0x0 KECCAK256 ADD DUP3 DUP2 SLOAD DUP2 LT PUSH2 0x940 JUMPI PUSH2 0x93F PUSH2 0x23C4 JUMP JUMPDEST JUMPDEST SWAP1 PUSH1 0x0 MSTORE PUSH1 0x20 PUSH1 0x0 KECCAK256 SWAP1 PUSH1 0x3 MUL ADD PUSH1 0x0 ADD PUSH1 0x0 SWAP1 SLOAD SWAP1 PUSH2 0x100 EXP SWAP1 DIV PUSH20 0xFFFFFFFFFFFFFFFFFFFFFFFFFFFFFFFFFFFFFFFF AND PUSH20 0xFFFFFFFFFFFFFFFFFFFFFFFFFFFFFFFFFFFFFFFF AND SUB PUSH2 0xB78 JUMPI PUSH1 0x1 DUP5 DUP2 SLOAD DUP2 LT PUSH2 0x9A1 JUMPI PUSH2 0x9A0 PUSH2 0x23C4 JUMP JUMPDEST JUMPDEST SWAP1 PUSH1 0x0 MSTORE PUSH1 0x20 PUSH1 0x0 KECCAK256 ADD DUP2 DUP2 SLOAD DUP2 LT PUSH2 0x9BD JUMPI PUSH2 0x9BC PUSH2 0x23C4 JUMP JUMPDEST JUMPDEST SWAP1 PUSH1 0x0 MSTORE PUSH1 0x20 PUSH1 0x0 KECCAK256 SWAP1 PUSH1 0x3 MUL ADD PUSH1 0x2 ADD SLOAD PUSH1 0x2 DUP6 DUP2 SLOAD DUP2 LT PUSH2 0x9E3 JUMPI PUSH2 0x9E2 PUSH2 0x23C4 JUMP JUMPDEST JUMPDEST SWAP1 PUSH1 0x0 MSTORE PUSH1 0x20 PUSH1 0x0 KECCAK256 ADD PUSH1 0x1 DUP7 DUP2 SLOAD DUP2 LT PUSH2 0xA01 JUMPI PUSH2 0xA00 PUSH2 0x23C4 JUMP JUMPDEST JUMPDEST SWAP1 PUSH1 0x0 MSTORE PUSH1 0x20 PUSH1 0x0 KECCAK256 ADD DUP4 DUP2 SLOAD DUP2 LT PUSH2 0xA1D JUMPI PUSH2 0xA1C PUSH2 0x23C4 JUMP JUMPDEST JUMPDEST SWAP1 PUSH1 0x0 MSTORE PUSH1 0x20 PUSH1 0x0 KECCAK256 SWAP1 PUSH1 0x3 MUL ADD PUSH1 0x1 ADD SLOAD DUP2 SLOAD DUP2 LT PUSH2 0xA40 JUMPI PUSH2 0xA3F PUSH2 0x23C4 JUMP JUMPDEST JUMPDEST SWAP1 PUSH1 0x0 MSTORE PUSH1 0x20 PUSH1 0x0 KECCAK256 SWAP1 PUSH1 0x7 MUL ADD PUSH1 0x4 ADD PUSH1 0x0 DUP3 DUP3 SLOAD PUSH2 0xA60 SWAP2 SWAP1 PUSH2 0x276C JUMP JUMPDEST SWAP3 POP POP DUP2 SWAP1 SSTORE POP PUSH1 0x2 DUP5 DUP2 SLOAD DUP2 LT PUSH2 0xA7B JUMPI PUSH2 0xA7A PUSH2 0x23C4 JUMP JUMPDEST JUMPDEST SWAP1 PUSH1 0x0 MSTORE PUSH1 0x20 PUSH1 0x0 KECCAK256 ADD PUSH1 0x1 DUP6 DUP2 SLOAD DUP2 LT PUSH2 0xA99 JUMPI PUSH2 0xA98 PUSH2 0x23C4 JUMP JUMPDEST JUMPDEST SWAP1 PUSH1 0x0 MSTORE PUSH1 0x20 PUSH1 0x0 KECCAK256 ADD DUP3 DUP2 SLOAD DUP2 LT PUSH2 0xAB5 JUMPI PUSH2 0xAB4 PUSH2 0x23C4 JUMP JUMPDEST JUMPDEST SWAP1 PUSH1 0x0 MSTORE PUSH1 0x20 PUSH1 0x0 KECCAK256 SWAP1 PUSH1 0x3 MUL ADD PUSH1 0x1 ADD SLOAD DUP2 SLOAD DUP2 LT PUSH2 0xAD8 JUMPI PUSH2 0xAD7 PUSH2 0x23C4 JUMP JUMPDEST JUMPDEST SWAP1 PUSH1 0x0 MSTORE PUSH1 0x20 PUSH1 0x0 KECCAK256 SWAP1 PUSH1 0x7 MUL ADD PUSH1 0x5 ADD PUSH1 0x0 DUP2 SLOAD DUP1 SWAP3 SWAP2 SWAP1 PUSH2 0xAFA SWAP1 PUSH2 0x27AF JUMP JUMPDEST SWAP2 SWAP1 POP SSTORE POP PUSH1 0x1 DUP5 DUP2 SLOAD DUP2 LT PUSH2 0xB13 JUMPI PUSH2 0xB12 PUSH2 0x23C4 JUMP JUMPDEST JUMPDEST SWAP1 PUSH1 0x0 MSTORE PUSH1 0x20 PUSH1 0x0 KECCAK256 ADD DUP2 DUP2 SLOAD DUP2 LT PUSH2 0xB2F JUMPI PUSH2 0xB2E PUSH2 0x23C4 JUMP JUMPDEST JUMPDEST SWAP1 PUSH1 0x0 MSTORE PUSH1 0x20 PUSH1 0x0 KECCAK256 SWAP1 PUSH1 0x3 MUL ADD PUSH1 0x0 DUP1 DUP3 ADD PUSH1 0x0 PUSH2 0x100 EXP DUP2 SLOAD SWAP1 PUSH20 0xFFFFFFFFFFFFFFFFFFFFFFFFFFFFFFFFFFFFFFFF MUL NOT AND SWAP1 SSTORE PUSH1 0x1 DUP3 ADD PUSH1 0x0 SWAP1 SSTORE PUSH1 0x2 DUP3 ADD PUSH1 0x0 SWAP1 SSTORE POP POP JUMPDEST DUP1 DUP1 PUSH2 0xB83 SWAP1 PUSH2 0x27D8 JUMP JUMPDEST SWAP2 POP POP PUSH2 0x8D0 JUMP JUMPDEST POP PUSH1 0x0 PUSH1 0x40 MLOAD DUP1 PUSH1 0x60 ADD PUSH1 0x40 MSTORE DUP1 CALLER PUSH20 0xFFFFFFFFFFFFFFFFFFFFFFFFFFFFFFFFFFFFFFFF AND DUP2 MSTORE PUSH1 0x20 ADD DUP5 DUP2 MSTORE PUSH1 0x20 ADD DUP4 DUP2 MSTORE POP SWAP1 POP PUSH1 0x1 DUP5 DUP2 SLOAD DUP2 LT PUSH2 0xBD5 JUMPI PUSH2 0xBD4 PUSH2 0x23C4 JUMP JUMPDEST JUMPDEST SWAP1 PUSH1 0x0 MSTORE PUSH1 0x20 PUSH1 0x0 KECCAK256 ADD DUP2 SWAP1 DUP1 PUSH1 0x1 DUP2 SLOAD ADD DUP1 DUP3 SSTORE DUP1 SWAP2 POP POP PUSH1 0x1 SWAP1 SUB SWAP1 PUSH1 0x0 MSTORE PUSH1 0x20 PUSH1 0x0 KECCAK256 SWAP1 PUSH1 0x3 MUL ADD PUSH1 0x0 SWAP1 SWAP2 SWAP1 SWAP2 SWAP1 SWAP2 POP PUSH1 0x0 DUP3 ADD MLOAD DUP2 PUSH1 0x0 ADD PUSH1 0x0 PUSH2 0x100 EXP DUP2 SLOAD DUP2 PUSH20 0xFFFFFFFFFFFFFFFFFFFFFFFFFFFFFFFFFFFFFFFF MUL NOT AND SWAP1 DUP4 PUSH20 0xFFFFFFFFFFFFFFFFFFFFFFFFFFFFFFFFFFFFFFFF AND MUL OR SWAP1 SSTORE POP PUSH1 0x20 DUP3 ADD MLOAD DUP2 PUSH1 0x1 ADD SSTORE PUSH1 0x40 DUP3 ADD MLOAD DUP2 PUSH1 0x2 ADD SSTORE POP POP DUP2 PUSH1 0x2 DUP6 DUP2 SLOAD DUP2 LT PUSH2 0xC7B JUMPI PUSH2 0xC7A PUSH2 0x23C4 JUMP JUMPDEST JUMPDEST SWAP1 PUSH1 0x0 MSTORE PUSH1 0x20 PUSH1 0x0 KECCAK256 ADD DUP5 DUP2 SLOAD DUP2 LT PUSH2 0xC97 JUMPI PUSH2 0xC96 PUSH2 0x23C4 JUMP JUMPDEST JUMPDEST SWAP1 PUSH1 0x0 MSTORE PUSH1 0x20 PUSH1 0x0 KECCAK256 SWAP1 PUSH1 0x7 MUL ADD PUSH1 0x4 ADD PUSH1 0x0 DUP3 DUP3 SLOAD PUSH2 0xCB7 SWAP2 SWAP1 PUSH2 0x2820 JUMP JUMPDEST SWAP3 POP POP DUP2 SWAP1 SSTORE POP PUSH1 0x2 DUP5 DUP2 SLOAD DUP2 LT PUSH2 0xCD2 JUMPI PUSH2 0xCD1 PUSH2 0x23C4 JUMP JUMPDEST JUMPDEST SWAP1 PUSH1 0x0 MSTORE PUSH1 0x20 PUSH1 0x0 KECCAK256 ADD DUP4 DUP2 SLOAD DUP2 LT PUSH2 0xCEE JUMPI PUSH2 0xCED PUSH2 0x23C4 JUMP JUMPDEST JUMPDEST SWAP1 PUSH1 0x0 MSTORE PUSH1 0x20 PUSH1 0x0 KECCAK256 SWAP1 PUSH1 0x7 MUL ADD PUSH1 0x5 ADD PUSH1 0x0 DUP2 SLOAD DUP1 SWAP3 SWAP2 SWAP1 PUSH2 0xD10 SWAP1 PUSH2 0x27D8 JUMP JUMPDEST SWAP2 SWAP1 POP SSTORE POP POP POP POP POP JUMP JUMPDEST PUSH1 0x60 PUSH1 0x0 JUMPDEST PUSH1 0x2 DUP4 DUP2 SLOAD DUP2 LT PUSH2 0xD34 JUMPI PUSH2 0xD33 PUSH2 0x23C4 JUMP JUMPDEST JUMPDEST SWAP1 PUSH1 0x0 MSTORE PUSH1 0x20 PUSH1 0x0 KECCAK256 ADD DUP1 SLOAD SWAP1 POP DUP2 LT ISZERO PUSH2 0xEED JUMPI PUSH2 0xD52 DUP2 PUSH2 0x1708 JUMP JUMPDEST PUSH1 0x2 DUP5 DUP2 SLOAD DUP2 LT PUSH2 0xD66 JUMPI PUSH2 0xD65 PUSH2 0x23C4 JUMP JUMPDEST JUMPDEST SWAP1 PUSH1 0x0 MSTORE PUSH1 0x20 PUSH1 0x0 KECCAK256 ADD DUP3 DUP2 SLOAD DUP2 LT PUSH2 0xD82 JUMPI PUSH2 0xD81 PUSH2 0x23C4 JUMP JUMPDEST JUMPDEST SWAP1 PUSH1 0x0 MSTORE PUSH1 0x20 PUSH1 0x0 KECCAK256 SWAP1 PUSH1 0x7 MUL ADD PUSH1 0x0 ADD PUSH1 0x2 DUP6 DUP2 SLOAD DUP2 LT PUSH2 0xDA7 JUMPI PUSH2 0xDA6 PUSH2 0x23C4 JUMP JUMPDEST JUMPDEST SWAP1 PUSH1 0x0 MSTORE PUSH1 0x20 PUSH1 0x0 KECCAK256 ADD DUP4 DUP2 SLOAD DUP2 LT PUSH2 0xDC3 JUMPI PUSH2 0xDC2 PUSH2 0x23C4 JUMP JUMPDEST JUMPDEST SWAP1 PUSH1 0x0 MSTORE PUSH1 0x20 PUSH1 0x0 KECCAK256 SWAP1 PUSH1 0x7 MUL ADD PUSH1 0x1 ADD PUSH2 0xE1E PUSH1 0x2 DUP8 DUP2 SLOAD DUP2 LT PUSH2 0xDEB JUMPI PUSH2 0xDEA PUSH2 0x23C4 JUMP JUMPDEST JUMPDEST SWAP1 PUSH1 0x0 MSTORE PUSH1 0x20 PUSH1 0x0 KECCAK256 ADD DUP6 DUP2 SLOAD DUP2 LT PUSH2 0xE07 JUMPI PUSH2 0xE06 PUSH2 0x23C4 JUMP JUMPDEST JUMPDEST SWAP1 PUSH1 0x0 MSTORE PUSH1 0x20 PUSH1 0x0 KECCAK256 SWAP1 PUSH1 0x7 MUL ADD PUSH1 0x6 ADD SLOAD PUSH2 0x1708 JUMP JUMPDEST PUSH2 0xE68 PUSH1 0x2 DUP9 DUP2 SLOAD DUP2 LT PUSH2 0xE35 JUMPI PUSH2 0xE34 PUSH2 0x23C4 JUMP JUMPDEST JUMPDEST SWAP1 PUSH1 0x0 MSTORE PUSH1 0x20 PUSH1 0x0 KECCAK256 ADD DUP7 DUP2 SLOAD DUP2 LT PUSH2 0xE51 JUMPI PUSH2 0xE50 PUSH2 0x23C4 JUMP JUMPDEST JUMPDEST SWAP1 PUSH1 0x0 MSTORE PUSH1 0x20 PUSH1 0x0 KECCAK256 SWAP1 PUSH1 0x7 MUL ADD PUSH1 0x4 ADD SLOAD PUSH2 0x17D6 JUMP JUMPDEST PUSH2 0xEB2 PUSH1 0x2 DUP10 DUP2 SLOAD DUP2 LT PUSH2 0xE7F JUMPI PUSH2 0xE7E PUSH2 0x23C4 JUMP JUMPDEST JUMPDEST SWAP1 PUSH1 0x0 MSTORE PUSH1 0x20 PUSH1 0x0 KECCAK256 ADD DUP8 DUP2 SLOAD DUP2 LT PUSH2 0xE9B JUMPI PUSH2 0xE9A PUSH2 0x23C4 JUMP JUMPDEST JUMPDEST SWAP1 PUSH1 0x0 MSTORE PUSH1 0x20 PUSH1 0x0 KECCAK256 SWAP1 PUSH1 0x7 MUL ADD PUSH1 0x5 ADD SLOAD PUSH2 0x1708 JUMP JUMPDEST DUP8 PUSH1 0x40 MLOAD PUSH1 0x20 ADD PUSH2 0xEC9 SWAP8 SWAP7 SWAP6 SWAP5 SWAP4 SWAP3 SWAP2 SWAP1 PUSH2 0x296F JUMP JUMPDEST PUSH1 0x40 MLOAD PUSH1 0x20 DUP2 DUP4 SUB SUB DUP2 MSTORE SWAP1 PUSH1 0x40 MSTORE SWAP2 POP DUP1 DUP1 PUSH2 0xEE5 SWAP1 PUSH2 0x27D8 JUMP JUMPDEST SWAP2 POP POP PUSH2 0xD20 JUMP JUMPDEST POP SWAP2 SWAP1 POP JUMP JUMPDEST PUSH1 0x60 PUSH2 0xEFE DUP3 PUSH2 0x1708 JUMP JUMPDEST PUSH1 0x2 DUP5 DUP2 SLOAD DUP2 LT PUSH2 0xF12 JUMPI PUSH2 0xF11 PUSH2 0x23C4 JUMP JUMPDEST JUMPDEST SWAP1 PUSH1 0x0 MSTORE PUSH1 0x20 PUSH1 0x0 KECCAK256 ADD DUP4 DUP2 SLOAD DUP2 LT PUSH2 0xF2E JUMPI PUSH2 0xF2D PUSH2 0x23C4 JUMP JUMPDEST JUMPDEST SWAP1 PUSH1 0x0 MSTORE PUSH1 0x20 PUSH1 0x0 KECCAK256 SWAP1 PUSH1 0x7 MUL ADD PUSH1 0x0 ADD PUSH1 0x2 DUP6 DUP2 SLOAD DUP2 LT PUSH2 0xF53 JUMPI PUSH2 0xF52 PUSH2 0x23C4 JUMP JUMPDEST JUMPDEST SWAP1 PUSH1 0x0 MSTORE PUSH1 0x20 PUSH1 0x0 KECCAK256 ADD DUP5 DUP2 SLOAD DUP2 LT PUSH2 0xF6F JUMPI PUSH2 0xF6E PUSH2 0x23C4 JUMP JUMPDEST JUMPDEST SWAP1 PUSH1 0x0 MSTORE PUSH1 0x20 PUSH1 0x0 KECCAK256 SWAP1 PUSH1 0x7 MUL ADD PUSH1 0x1 ADD PUSH1 0x40 MLOAD PUSH1 0x20 ADD PUSH2 0xF92 SWAP4 SWAP3 SWAP2 SWAP1 PUSH2 0x2A2E JUMP JUMPDEST PUSH1 0x40 MLOAD PUSH1 0x20 DUP2 DUP4 SUB SUB DUP2 MSTORE SWAP1 PUSH1 0x40 MSTORE SWAP1 POP PUSH1 0x0 JUMPDEST PUSH1 0x2 DUP5 DUP2 SLOAD DUP2 LT PUSH2 0xFBA JUMPI PUSH2 0xFB9 PUSH2 0x23C4 JUMP JUMPDEST JUMPDEST SWAP1 PUSH1 0x0 MSTORE PUSH1 0x20 PUSH1 0x0 KECCAK256 ADD DUP4 DUP2 SLOAD DUP2 LT PUSH2 0xFD6 JUMPI PUSH2 0xFD5 PUSH2 0x23C4 JUMP JUMPDEST JUMPDEST SWAP1 PUSH1 0x0 MSTORE PUSH1 0x20 PUSH1 0x0 KECCAK256 SWAP1 PUSH1 0x7 MUL ADD PUSH1 0x2 ADD DUP1 SLOAD SWAP1 POP DUP2 LT ISZERO PUSH2 0x1085 JUMPI DUP2 PUSH1 0x2 DUP6 DUP2 SLOAD DUP2 LT PUSH2 0x1007 JUMPI PUSH2 0x1006 PUSH2 0x23C4 JUMP JUMPDEST JUMPDEST SWAP1 PUSH1 0x0 MSTORE PUSH1 0x20 PUSH1 0x0 KECCAK256 ADD DUP5 DUP2 SLOAD DUP2 LT PUSH2 0x1023 JUMPI PUSH2 0x1022 PUSH2 0x23C4 JUMP JUMPDEST JUMPDEST SWAP1 PUSH1 0x0 MSTORE PUSH1 0x20 PUSH1 0x0 KECCAK256 SWAP1 PUSH1 0x7 MUL ADD PUSH1 0x2 ADD DUP3 DUP2 SLOAD DUP2 LT PUSH2 0x1046 JUMPI PUSH2 0x1045 PUSH2 0x23C4 JUMP JUMPDEST JUMPDEST SWAP1 PUSH1 0x0 MSTORE PUSH1 0x20 PUSH1 0x0 KECCAK256 ADD PUSH1 0x40 MLOAD PUSH1 0x20 ADD PUSH2 0x1061 SWAP3 SWAP2 SWAP1 PUSH2 0x2A7D JUMP JUMPDEST PUSH1 0x40 MLOAD PUSH1 0x20 DUP2 DUP4 SUB SUB DUP2 MSTORE SWAP1 PUSH1 0x40 MSTORE SWAP2 POP DUP1 DUP1 PUSH2 0x107D SWAP1 PUSH2 0x27D8 JUMP JUMPDEST SWAP2 POP POP PUSH2 0xFA6 JUMP JUMPDEST POP SWAP3 SWAP2 POP POP JUMP JUMPDEST PUSH1 0x0 PUSH1 0x2 DUP1 SLOAD SWAP1 POP SWAP1 POP SWAP1 JUMP JUMPDEST PUSH1 0x60 PUSH1 0x0 JUMPDEST PUSH1 0x2 DUP5 DUP2 SLOAD DUP2 LT PUSH2 0x10B2 JUMPI PUSH2 0x10B1 PUSH2 0x23C4 JUMP JUMPDEST JUMPDEST SWAP1 PUSH1 0x0 MSTORE PUSH1 0x20 PUSH1 0x0 KECCAK256 ADD DUP4 DUP2 SLOAD DUP2 LT PUSH2 0x10CE JUMPI PUSH2 0x10CD PUSH2 0x23C4 JUMP JUMPDEST JUMPDEST SWAP1 PUSH1 0x0 MSTORE PUSH1 0x20 PUSH1 0x0 KECCAK256 SWAP1 PUSH1 0x7 MUL ADD PUSH1 0x3 ADD DUP1 SLOAD SWAP1 POP DUP2 LT ISZERO PUSH2 0x117D JUMPI PUSH1 0x2 DUP5 DUP2 SLOAD DUP2 LT PUSH2 0x10FE JUMPI PUSH2 0x10FD PUSH2 0x23C4 JUMP JUMPDEST JUMPDEST SWAP1 PUSH1 0x0 MSTORE PUSH1 0x20 PUSH1 0x0 KECCAK256 ADD DUP4 DUP2 SLOAD DUP2 LT PUSH2 0x111A JUMPI PUSH2 0x1119 PUSH2 0x23C4 JUMP JUMPDEST JUMPDEST SWAP1 PUSH1 0x0 MSTORE PUSH1 0x20 PUSH1 0x0 KECCAK256 SWAP1 PUSH1 0x7 MUL ADD PUSH1 0x3 ADD DUP2 DUP2 SLOAD DUP2 LT PUSH2 0x113D JUMPI PUSH2 0x113C PUSH2 0x23C4 JUMP JUMPDEST JUMPDEST SWAP1 PUSH1 0x0 MSTORE PUSH1 0x20 PUSH1 0x0 KECCAK256 ADD DUP3 PUSH1 0x40 MLOAD PUSH1 0x20 ADD PUSH2 0x1159 SWAP3 SWAP2 SWAP1 PUSH2 0x2AB0 JUMP JUMPDEST PUSH1 0x40 MLOAD PUSH1 0x20 DUP2 DUP4 SUB SUB DUP2 MSTORE SWAP1 PUSH1 0x40 MSTORE SWAP2 POP DUP1 DUP1 PUSH2 0x1175 SWAP1 PUSH2 0x27D8 JUMP JUMPDEST SWAP2 POP POP PUSH2 0x109E JUMP JUMPDEST POP SWAP3 SWAP2 POP POP JUMP JUMPDEST PUSH1 0x0 DUP1 PUSH1 0x0 SWAP1 SLOAD SWAP1 PUSH2 0x100 EXP SWAP1 DIV PUSH20 0xFFFFFFFFFFFFFFFFFFFFFFFFFFFFFFFFFFFFFFFF AND SWAP1 POP SWAP1 JUMP JUMPDEST PUSH1 0x0 DUP1 SLOAD SWAP1 PUSH2 0x100 EXP SWAP1 DIV PUSH20 0xFFFFFFFFFFFFFFFFFFFFFFFFFFFFFFFFFFFFFFFF AND PUSH20 0xFFFFFFFFFFFFFFFFFFFFFFFFFFFFFFFFFFFFFFFF AND CALLER PUSH20 0xFFFFFFFFFFFFFFFFFFFFFFFFFFFFFFFFFFFFFFFF AND EQ PUSH2 0x123B JUMPI PUSH1 0x40 MLOAD PUSH32 0x8C379A000000000000000000000000000000000000000000000000000000000 DUP2 MSTORE PUSH1 0x4 ADD PUSH2 0x1232 SWAP1 PUSH2 0x2B2F JUMP JUMPDEST PUSH1 0x40 MLOAD DUP1 SWAP2 SUB SWAP1 REVERT JUMPDEST DUP1 PUSH20 0xFFFFFFFFFFFFFFFFFFFFFFFFFFFFFFFFFFFFFFFF AND PUSH1 0x0 DUP1 SLOAD SWAP1 PUSH2 0x100 EXP SWAP1 DIV PUSH20 0xFFFFFFFFFFFFFFFFFFFFFFFFFFFFFFFFFFFFFFFF AND PUSH20 0xFFFFFFFFFFFFFFFFFFFFFFFFFFFFFFFFFFFFFFFF AND PUSH32 0x342827C97908E5E2F71151C08502A66D44B6F758E3AC2F1DE95F02EB95F0A735 PUSH1 0x40 MLOAD PUSH1 0x40 MLOAD DUP1 SWAP2 SUB SWAP1 LOG3 DUP1 PUSH1 0x0 DUP1 PUSH2 0x100 EXP DUP2 SLOAD DUP2 PUSH20 0xFFFFFFFFFFFFFFFFFFFFFFFFFFFFFFFFFFFFFFFF MUL NOT AND SWAP1 DUP4 PUSH20 0xFFFFFFFFFFFFFFFFFFFFFFFFFFFFFFFFFFFFFFFF AND MUL OR SWAP1 SSTORE POP POP JUMP JUMPDEST PUSH1 0x0 PUSH1 0xA DUP5 MLOAD GT PUSH2 0x133E JUMPI PUSH1 0x40 MLOAD PUSH32 0x8C379A000000000000000000000000000000000000000000000000000000000 DUP2 MSTORE PUSH1 0x4 ADD PUSH2 0x1335 SWAP1 PUSH2 0x2B9B JUMP JUMPDEST PUSH1 0x40 MLOAD DUP1 SWAP2 SUB SWAP1 REVERT JUMPDEST PUSH1 0x4 DUP6 MLOAD GT PUSH2 0x1382 JUMPI PUSH1 0x40 MLOAD PUSH32 0x8C379A000000000000000000000000000000000000000000000000000000000 DUP2 MSTORE PUSH1 0x4 ADD PUSH2 0x1379 SWAP1 PUSH2 0x2C07 JUMP JUMPDEST PUSH1 0x40 MLOAD DUP1 SWAP2 SUB SWAP1 REVERT JUMPDEST PUSH1 0x0 PUSH1 0x40 MLOAD DUP1 PUSH1 0xE0 ADD PUSH1 0x40 MSTORE DUP1 DUP8 DUP2 MSTORE PUSH1 0x20 ADD DUP7 DUP2 MSTORE PUSH1 0x20 ADD DUP6 DUP2 MSTORE PUSH1 0x20 ADD DUP5 DUP2 MSTORE PUSH1 0x20 ADD PUSH1 0x0 DUP2 MSTORE PUSH1 0x20 ADD PUSH1 0x0 DUP2 MSTORE PUSH1 0x20 ADD TIMESTAMP DUP2 MSTORE POP SWAP1 POP PUSH1 0x2 PUSH1 0x1 DUP2 PUSH1 0x1 DUP2 SLOAD ADD DUP1 DUP3 SSTORE DUP1 SWAP2 POP POP SUB SWAP1 PUSH1 0x0 MSTORE PUSH1 0x20 PUSH1 0x0 KECCAK256 POP POP PUSH1 0x2 PUSH1 0x1 PUSH1 0x2 DUP1 SLOAD SWAP1 POP PUSH2 0x13EC SWAP2 SWAP1 PUSH2 0x2C27 JUMP JUMPDEST DUP2 SLOAD DUP2 LT PUSH2 0x13FD JUMPI PUSH2 0x13FC PUSH2 0x23C4 JUMP JUMPDEST JUMPDEST SWAP1 PUSH1 0x0 MSTORE PUSH1 0x20 PUSH1 0x0 KECCAK256 ADD DUP2 SWAP1 DUP1 PUSH1 0x1 DUP2 SLOAD ADD DUP1 DUP3 SSTORE DUP1 SWAP2 POP POP PUSH1 0x1 SWAP1 SUB SWAP1 PUSH1 0x0 MSTORE PUSH1 0x20 PUSH1 0x0 KECCAK256 SWAP1 PUSH1 0x7 MUL ADD PUSH1 0x0 SWAP1 SWAP2 SWAP1 SWAP2 SWAP1 SWAP2 POP PUSH1 0x0 DUP3 ADD MLOAD DUP2 PUSH1 0x0 ADD SWAP1 DUP2 PUSH2 0x1446 SWAP2 SWAP1 PUSH2 0x25FF JUMP JUMPDEST POP PUSH1 0x20 DUP3 ADD MLOAD DUP2 PUSH1 0x1 ADD SWAP1 DUP2 PUSH2 0x145C SWAP2 SWAP1 PUSH2 0x25FF JUMP JUMPDEST POP PUSH1 0x40 DUP3 ADD MLOAD DUP2 PUSH1 0x2 ADD SWAP1 DUP1 MLOAD SWAP1 PUSH1 0x20 ADD SWAP1 PUSH2 0x1479 SWAP3 SWAP2 SWAP1 PUSH2 0x1A32 JUMP JUMPDEST POP PUSH1 0x60 DUP3 ADD MLOAD DUP2 PUSH1 0x3 ADD SWAP1 DUP1 MLOAD SWAP1 PUSH1 0x20 ADD SWAP1 PUSH2 0x1496 SWAP3 SWAP2 SWAP1 PUSH2 0x1A32 JUMP JUMPDEST POP PUSH1 0x80 DUP3 ADD MLOAD DUP2 PUSH1 0x4 ADD SSTORE PUSH1 0xA0 DUP3 ADD MLOAD DUP2 PUSH1 0x5 ADD SSTORE PUSH1 0xC0 DUP3 ADD MLOAD DUP2 PUSH1 0x6 ADD SSTORE POP POP PUSH1 0x3 PUSH1 0x0 DUP2 SLOAD DUP1 SWAP3 SWAP2 SWAP1 PUSH2 0x14CA SWAP1 PUSH2 0x27D8 JUMP JUMPDEST SWAP2 SWAP1 POP SSTORE POP PUSH1 0x1 DUP1 DUP2 PUSH1 0x1 DUP2 SLOAD ADD DUP1 DUP3 SSTORE DUP1 SWAP2 POP POP SUB SWAP1 PUSH1 0x0 MSTORE PUSH1 0x20 PUSH1 0x0 KECCAK256 POP POP PUSH1 0x1 PUSH1 0x2 DUP1 SLOAD SWAP1 POP PUSH2 0x14FD SWAP2 SWAP1 PUSH2 0x2C27 JUMP JUMPDEST PUSH32 0xFE55C2349D62DA6A9F59944B4BEC1E721FB08FAF486FB6758BDED48F8A70AD19 PUSH1 0x40 MLOAD PUSH1 0x40 MLOAD DUP1 SWAP2 SUB SWAP1 LOG2 PUSH1 0x1 PUSH1 0x2 DUP1 SLOAD SWAP1 POP PUSH2 0x153B SWAP2 SWAP1 PUSH2 0x2C27 JUMP JUMPDEST SWAP2 POP POP SWAP5 SWAP4 POP POP POP POP JUMP JUMPDEST PUSH1 0x60 PUSH1 0x0 PUSH2 0x1553 DUP4 PUSH2 0x1567 JUMP JUMPDEST SWAP1 POP PUSH2 0x155F DUP4 DUP3 PUSH2 0xEF3 JUMP JUMPDEST SWAP2 POP POP SWAP2 SWAP1 POP JUMP JUMPDEST PUSH1 0x0 DUP1 PUSH1 0x0 SWAP1 POP PUSH1 0x0 JUMPDEST PUSH1 0x2 DUP5 DUP2 SLOAD DUP2 LT PUSH2 0x1585 JUMPI PUSH2 0x1584 PUSH2 0x23C4 JUMP JUMPDEST JUMPDEST SWAP1 PUSH1 0x0 MSTORE PUSH1 0x20 PUSH1 0x0 KECCAK256 ADD DUP1 SLOAD SWAP1 POP DUP2 LT ISZERO PUSH2 0x1665 JUMPI PUSH1 0x0 DUP1 PUSH2 0x1636 PUSH2 0x2710 PUSH1 0x2 DUP9 DUP2 SLOAD DUP2 LT PUSH2 0x15B7 JUMPI PUSH2 0x15B6 PUSH2 0x23C4 JUMP JUMPDEST JUMPDEST SWAP1 PUSH1 0x0 MSTORE PUSH1 0x20 PUSH1 0x0 KECCAK256 ADD DUP6 DUP2 SLOAD DUP2 LT PUSH2 0x15D3 JUMPI PUSH2 0x15D2 PUSH2 0x23C4 JUMP JUMPDEST JUMPDEST SWAP1 PUSH1 0x0 MSTORE PUSH1 0x20 PUSH1 0x0 KECCAK256 SWAP1 PUSH1 0x7 MUL ADD PUSH1 0x4 ADD SLOAD PUSH2 0x15EF SWAP2 SWAP1 PUSH2 0x2C5B JUMP JUMPDEST PUSH1 0x2 DUP9 DUP2 SLOAD DUP2 LT PUSH2 0x1603 JUMPI PUSH2 0x1602 PUSH2 0x23C4 JUMP JUMPDEST JUMPDEST SWAP1 PUSH1 0x0 MSTORE PUSH1 0x20 PUSH1 0x0 KECCAK256 ADD DUP6 DUP2 SLOAD DUP2 LT PUSH2 0x161F JUMPI PUSH2 0x161E PUSH2 0x23C4 JUMP JUMPDEST JUMPDEST SWAP1 PUSH1 0x0 MSTORE PUSH1 0x20 PUSH1 0x0 KECCAK256 SWAP1 PUSH1 0x7 MUL ADD PUSH1 0x5 ADD SLOAD PUSH2 0x1864 JUMP JUMPDEST SWAP2 POP SWAP2 POP DUP2 DUP1 ISZERO PUSH2 0x1647 JUMPI POP DUP4 DUP2 SLT ISZERO JUMPDEST ISZERO PUSH2 0x1650 JUMPI DUP3 SWAP5 POP JUMPDEST POP POP DUP1 DUP1 PUSH2 0x165D SWAP1 PUSH2 0x27D8 JUMP JUMPDEST SWAP2 POP POP PUSH2 0x1571 JUMP JUMPDEST POP POP SWAP2 SWAP1 POP JUMP JUMPDEST PUSH2 0x1704 DUP3 DUP3 PUSH1 0x40 MLOAD PUSH1 0x24 ADD PUSH2 0x1682 SWAP3 SWAP2 SWAP1 PUSH2 0x2CD3 JUMP JUMPDEST PUSH1 0x40 MLOAD PUSH1 0x20 DUP2 DUP4 SUB SUB DUP2 MSTORE SWAP1 PUSH1 0x40 MSTORE PUSH32 0x319AF33300000000000000000000000000000000000000000000000000000000 PUSH28 0xFFFFFFFFFFFFFFFFFFFFFFFFFFFFFFFFFFFFFFFFFFFFFFFFFFFFFFFF NOT AND PUSH1 0x20 DUP3 ADD DUP1 MLOAD PUSH28 0xFFFFFFFFFFFFFFFFFFFFFFFFFFFFFFFFFFFFFFFFFFFFFFFFFFFFFFFF DUP4 DUP2 DUP4 AND OR DUP4 MSTORE POP POP POP POP PUSH2 0x189A JUMP JUMPDEST POP POP JUMP JUMPDEST PUSH1 0x60 PUSH1 0x0 PUSH1 0x1 PUSH2 0x1717 DUP5 PUSH2 0x18C3 JUMP JUMPDEST ADD SWAP1 POP PUSH1 0x0 DUP2 PUSH8 0xFFFFFFFFFFFFFFFF DUP2 GT ISZERO PUSH2 0x1736 JUMPI PUSH2 0x1735 PUSH2 0x1BAE JUMP JUMPDEST JUMPDEST PUSH1 0x40 MLOAD SWAP1 DUP1 DUP3 MSTORE DUP1 PUSH1 0x1F ADD PUSH1 0x1F NOT AND PUSH1 0x20 ADD DUP3 ADD PUSH1 0x40 MSTORE DUP1 ISZERO PUSH2 0x1768 JUMPI DUP2 PUSH1 0x20 ADD PUSH1 0x1 DUP3 MUL DUP1 CALLDATASIZE DUP4 CALLDATACOPY DUP1 DUP3 ADD SWAP2 POP POP SWAP1 POP JUMPDEST POP SWAP1 POP PUSH1 0x0 DUP3 PUSH1 0x20 ADD DUP3 ADD SWAP1 POP JUMPDEST PUSH1 0x1 ISZERO PUSH2 0x17CB JUMPI DUP1 DUP1 PUSH1 0x1 SWAP1 SUB SWAP2 POP POP PUSH32 0x3031323334353637383961626364656600000000000000000000000000000000 PUSH1 0xA DUP7 MOD BYTE DUP2 MSTORE8 PUSH1 0xA DUP6 DUP2 PUSH2 0x17BF JUMPI PUSH2 0x17BE PUSH2 0x2D03 JUMP JUMPDEST JUMPDEST DIV SWAP5 POP PUSH1 0x0 DUP6 SUB PUSH2 0x1776 JUMPI JUMPDEST DUP2 SWAP4 POP POP POP POP SWAP2 SWAP1 POP JUMP JUMPDEST PUSH1 0x60 PUSH1 0x0 DUP3 SLT PUSH2 0x17F5 JUMPI PUSH1 0x40 MLOAD DUP1 PUSH1 0x20 ADD PUSH1 0x40 MSTORE DUP1 PUSH1 0x0 DUP2 MSTORE POP PUSH2 0x182C JUMP JUMPDEST PUSH1 0x40 MLOAD DUP1 PUSH1 0x40 ADD PUSH1 0x40 MSTORE DUP1 PUSH1 0x1 DUP2 MSTORE PUSH1 0x20 ADD PUSH32 0x2D00000000000000000000000000000000000000000000000000000000000000 DUP2 MSTORE POP JUMPDEST PUSH2 0x183D PUSH2 0x1838 DUP5 PUSH2 0x1A16 JUMP JUMPDEST PUSH2 0x1708 JUMP JUMPDEST PUSH1 0x40 MLOAD PUSH1 0x20 ADD PUSH2 0x184E SWAP3 SWAP2 SWAP1 PUSH2 0x2D32 JUMP JUMPDEST PUSH1 0x40 MLOAD PUSH1 0x20 DUP2 DUP4 SUB SUB DUP2 MSTORE SWAP1 PUSH1 0x40 MSTORE SWAP1 POP SWAP2 SWAP1 POP JUMP JUMPDEST PUSH1 0x0 DUP1 PUSH1 0x0 DUP4 SUB PUSH2 0x187B JUMPI PUSH1 0x0 DUP1 SWAP2 POP SWAP2 POP PUSH2 0x1893 JUMP JUMPDEST PUSH1 0x1 DUP4 DUP6 DUP2 PUSH2 0x188D JUMPI PUSH2 0x188C PUSH2 0x2D03 JUMP JUMPDEST JUMPDEST SDIV SWAP2 POP SWAP2 POP JUMPDEST SWAP3 POP SWAP3 SWAP1 POP JUMP JUMPDEST PUSH1 0x0 DUP2 MLOAD SWAP1 POP PUSH1 0x0 PUSH11 0x636F6E736F6C652E6C6F67 SWAP1 POP PUSH1 0x20 DUP4 ADD PUSH1 0x0 DUP1 DUP5 DUP4 DUP6 GAS STATICCALL POP POP POP POP POP JUMP JUMPDEST PUSH1 0x0 DUP1 PUSH1 0x0 SWAP1 POP PUSH27 0x184F03E93FF9F4DAA797ED6E38ED64BF6A1F010000000000000000 DUP4 LT PUSH2 0x1921 JUMPI PUSH27 0x184F03E93FF9F4DAA797ED6E38ED64BF6A1F010000000000000000 DUP4 DUP2 PUSH2 0x1917 JUMPI PUSH2 0x1916 PUSH2 0x2D03 JUMP JUMPDEST JUMPDEST DIV SWAP3 POP PUSH1 0x40 DUP2 ADD SWAP1 POP JUMPDEST PUSH14 0x4EE2D6D415B85ACEF8100000000 DUP4 LT PUSH2 0x195E JUMPI PUSH14 0x4EE2D6D415B85ACEF8100000000 DUP4 DUP2 PUSH2 0x1954 JUMPI PUSH2 0x1953 PUSH2 0x2D03 JUMP JUMPDEST JUMPDEST DIV SWAP3 POP PUSH1 0x20 DUP2 ADD SWAP1 POP JUMPDEST PUSH7 0x2386F26FC10000 DUP4 LT PUSH2 0x198D JUMPI PUSH7 0x2386F26FC10000 DUP4 DUP2 PUSH2 0x1983 JUMPI PUSH2 0x1982 PUSH2 0x2D03 JUMP JUMPDEST JUMPDEST DIV SWAP3 POP PUSH1 0x10 DUP2 ADD SWAP1 POP JUMPDEST PUSH4 0x5F5E100 DUP4 LT PUSH2 0x19B6 JUMPI PUSH4 0x5F5E100 DUP4 DUP2 PUSH2 0x19AC JUMPI PUSH2 0x19AB PUSH2 0x2D03 JUMP JUMPDEST JUMPDEST DIV SWAP3 POP PUSH1 0x8 DUP2 ADD SWAP1 POP JUMPDEST PUSH2 0x2710 DUP4 LT PUSH2 0x19DB JUMPI PUSH2 0x2710 DUP4 DUP2 PUSH2 0x19D1 JUMPI PUSH2 0x19D0 PUSH2 0x2D03 JUMP JUMPDEST JUMPDEST DIV SWAP3 POP PUSH1 0x4 DUP2 ADD SWAP1 POP JUMPDEST PUSH1 0x64 DUP4 LT PUSH2 0x19FE JUMPI PUSH1 0x64 DUP4 DUP2 PUSH2 0x19F4 JUMPI PUSH2 0x19F3 PUSH2 0x2D03 JUMP JUMPDEST JUMPDEST DIV SWAP3 POP PUSH1 0x2 DUP2 ADD SWAP1 POP JUMPDEST PUSH1 0xA DUP4 LT PUSH2 0x1A0D JUMPI PUSH1 0x1 DUP2 ADD SWAP1 POP JUMPDEST DUP1 SWAP2 POP POP SWAP2 SWAP1 POP JUMP JUMPDEST PUSH1 0x0 DUP1 DUP3 SLT ISZERO PUSH2 0x1A29 JUMPI DUP2 PUSH1 0x0 SUB PUSH2 0x1A2B JUMP JUMPDEST DUP2 JUMPDEST SWAP1 POP SWAP2 SWAP1 POP JUMP JUMPDEST DUP3 DUP1 SLOAD DUP3 DUP3 SSTORE SWAP1 PUSH1 0x0 MSTORE PUSH1 0x20 PUSH1 0x0 KECCAK256 SWAP1 DUP2 ADD SWAP3 DUP3 ISZERO PUSH2 0x1A7A JUMPI SWAP2 PUSH1 0x20 MUL DUP3 ADD JUMPDEST DUP3 DUP2 GT ISZERO PUSH2 0x1A79 JUMPI DUP3 MLOAD DUP3 SWAP1 DUP2 PUSH2 0x1A69 SWAP2 SWAP1 PUSH2 0x25FF JUMP JUMPDEST POP SWAP2 PUSH1 0x20 ADD SWAP2 SWAP1 PUSH1 0x1 ADD SWAP1 PUSH2 0x1A52 JUMP JUMPDEST JUMPDEST POP SWAP1 POP PUSH2 0x1A87 SWAP2 SWAP1 PUSH2 0x1AC8 JUMP JUMPDEST POP SWAP1 JUMP JUMPDEST PUSH1 0x40 MLOAD DUP1 PUSH1 0xE0 ADD PUSH1 0x40 MSTORE DUP1 PUSH1 0x60 DUP2 MSTORE PUSH1 0x20 ADD PUSH1 0x60 DUP2 MSTORE PUSH1 0x20 ADD PUSH1 0x60 DUP2 MSTORE PUSH1 0x20 ADD PUSH1 0x60 DUP2 MSTORE PUSH1 0x20 ADD PUSH1 0x0 DUP2 MSTORE PUSH1 0x20 ADD PUSH1 0x0 DUP2 MSTORE PUSH1 0x20 ADD PUSH1 0x0 DUP2 MSTORE POP SWAP1 JUMP JUMPDEST JUMPDEST DUP1 DUP3 GT ISZERO PUSH2 0x1AE8 JUMPI PUSH1 0x0 DUP2 DUP2 PUSH2 0x1ADF SWAP2 SWAP1 PUSH2 0x1AEC JUMP JUMPDEST POP PUSH1 0x1 ADD PUSH2 0x1AC9 JUMP JUMPDEST POP SWAP1 JUMP JUMPDEST POP DUP1 SLOAD PUSH2 0x1AF8 SWAP1 PUSH2 0x2422 JUMP JUMPDEST PUSH1 0x0 DUP3 SSTORE DUP1 PUSH1 0x1F LT PUSH2 0x1B0A JUMPI POP PUSH2 0x1B29 JUMP JUMPDEST PUSH1 0x1F ADD PUSH1 0x20 SWAP1 DIV SWAP1 PUSH1 0x0 MSTORE PUSH1 0x20 PUSH1 0x0 KECCAK256 SWAP1 DUP2 ADD SWAP1 PUSH2 0x1B28 SWAP2 SWAP1 PUSH2 0x1B2C JUMP JUMPDEST JUMPDEST POP JUMP JUMPDEST JUMPDEST DUP1 DUP3 GT ISZERO PUSH2 0x1B45 JUMPI PUSH1 0x0 DUP2 PUSH1 0x0 SWAP1 SSTORE POP PUSH1 0x1 ADD PUSH2 0x1B2D JUMP JUMPDEST POP SWAP1 JUMP JUMPDEST PUSH1 0x0 PUSH1 0x40 MLOAD SWAP1 POP SWAP1 JUMP JUMPDEST PUSH1 0x0 DUP1 REVERT JUMPDEST PUSH1 0x0 DUP1 REVERT JUMPDEST PUSH1 0x0 DUP2 SWAP1 POP SWAP2 SWAP1 POP JUMP JUMPDEST PUSH2 0x1B70 DUP2 PUSH2 0x1B5D JUMP JUMPDEST DUP2 EQ PUSH2 0x1B7B JUMPI PUSH1 0x0 DUP1 REVERT JUMPDEST POP JUMP JUMPDEST PUSH1 0x0 DUP2 CALLDATALOAD SWAP1 POP PUSH2 0x1B8D DUP2 PUSH2 0x1B67 JUMP JUMPDEST SWAP3 SWAP2 POP POP JUMP JUMPDEST PUSH1 0x0 DUP1 REVERT JUMPDEST PUSH1 0x0 DUP1 REVERT JUMPDEST PUSH1 0x0 PUSH1 0x1F NOT PUSH1 0x1F DUP4 ADD AND SWAP1 POP SWAP2 SWAP1 POP JUMP JUMPDEST PUSH32 0x4E487B7100000000000000000000000000000000000000000000000000000000 PUSH1 0x0 MSTORE PUSH1 0x41 PUSH1 0x4 MSTORE PUSH1 0x24 PUSH1 0x0 REVERT JUMPDEST PUSH2 0x1BE6 DUP3 PUSH2 0x1B9D JUMP JUMPDEST DUP2 ADD DUP2 DUP2 LT PUSH8 0xFFFFFFFFFFFFFFFF DUP3 GT OR ISZERO PUSH2 0x1C05 JUMPI PUSH2 0x1C04 PUSH2 0x1BAE JUMP JUMPDEST JUMPDEST DUP1 PUSH1 0x40 MSTORE POP POP POP JUMP JUMPDEST PUSH1 0x0 PUSH2 0x1C18 PUSH2 0x1B49 JUMP JUMPDEST SWAP1 POP PUSH2 0x1C24 DUP3 DUP3 PUSH2 0x1BDD JUMP JUMPDEST SWAP2 SWAP1 POP JUMP JUMPDEST PUSH1 0x0 PUSH8 0xFFFFFFFFFFFFFFFF DUP3 GT ISZERO PUSH2 0x1C44 JUMPI PUSH2 0x1C43 PUSH2 0x1BAE JUMP JUMPDEST JUMPDEST PUSH2 0x1C4D DUP3 PUSH2 0x1B9D JUMP JUMPDEST SWAP1 POP PUSH1 0x20 DUP2 ADD SWAP1 POP SWAP2 SWAP1 POP JUMP JUMPDEST DUP3 DUP2 DUP4 CALLDATACOPY PUSH1 0x0 DUP4 DUP4 ADD MSTORE POP POP POP JUMP JUMPDEST PUSH1 0x0 PUSH2 0x1C7C PUSH2 0x1C77 DUP5 PUSH2 0x1C29 JUMP JUMPDEST PUSH2 0x1C0E JUMP JUMPDEST SWAP1 POP DUP3 DUP2 MSTORE PUSH1 0x20 DUP2 ADD DUP5 DUP5 DUP5 ADD GT ISZERO PUSH2 0x1C98 JUMPI PUSH2 0x1C97 PUSH2 0x1B98 JUMP JUMPDEST JUMPDEST PUSH2 0x1CA3 DUP5 DUP3 DUP6 PUSH2 0x1C5A JUMP JUMPDEST POP SWAP4 SWAP3 POP POP POP JUMP JUMPDEST PUSH1 0x0 DUP3 PUSH1 0x1F DUP4 ADD SLT PUSH2 0x1CC0 JUMPI PUSH2 0x1CBF PUSH2 0x1B93 JUMP JUMPDEST JUMPDEST DUP2 CALLDATALOAD PUSH2 0x1CD0 DUP5 DUP3 PUSH1 0x20 DUP7 ADD PUSH2 0x1C69 JUMP JUMPDEST SWAP2 POP POP SWAP3 SWAP2 POP POP JUMP JUMPDEST PUSH1 0x0 PUSH8 0xFFFFFFFFFFFFFFFF DUP3 GT ISZERO PUSH2 0x1CF4 JUMPI PUSH2 0x1CF3 PUSH2 0x1BAE JUMP JUMPDEST JUMPDEST PUSH1 0x20 DUP3 MUL SWAP1 POP PUSH1 0x20 DUP2 ADD SWAP1 POP SWAP2 SWAP1 POP JUMP JUMPDEST PUSH1 0x0 DUP1 REVERT JUMPDEST PUSH1 0x0 PUSH2 0x1D1D PUSH2 0x1D18 DUP5 PUSH2 0x1CD9 JUMP JUMPDEST PUSH2 0x1C0E JUMP JUMPDEST SWAP1 POP DUP1 DUP4 DUP3 MSTORE PUSH1 0x20 DUP3 ADD SWAP1 POP PUSH1 0x20 DUP5 MUL DUP4 ADD DUP6 DUP2 GT ISZERO PUSH2 0x1D40 JUMPI PUSH2 0x1D3F PUSH2 0x1D05 JUMP JUMPDEST JUMPDEST DUP4 JUMPDEST DUP2 DUP2 LT ISZERO PUSH2 0x1D87 JUMPI DUP1 CALLDATALOAD PUSH8 0xFFFFFFFFFFFFFFFF DUP2 GT ISZERO PUSH2 0x1D65 JUMPI PUSH2 0x1D64 PUSH2 0x1B93 JUMP JUMPDEST JUMPDEST DUP1 DUP7 ADD PUSH2 0x1D72 DUP10 DUP3 PUSH2 0x1CAB JUMP JUMPDEST DUP6 MSTORE PUSH1 0x20 DUP6 ADD SWAP5 POP POP POP PUSH1 0x20 DUP2 ADD SWAP1 POP PUSH2 0x1D42 JUMP JUMPDEST POP POP POP SWAP4 SWAP3 POP POP POP JUMP JUMPDEST PUSH1 0x0 DUP3 PUSH1 0x1F DUP4 ADD SLT PUSH2 0x1DA6 JUMPI PUSH2 0x1DA5 PUSH2 0x1B93 JUMP JUMPDEST JUMPDEST DUP2 CALLDATALOAD PUSH2 0x1DB6 DUP5 DUP3 PUSH1 0x20 DUP7 ADD PUSH2 0x1D0A JUMP JUMPDEST SWAP2 POP POP SWAP3 SWAP2 POP POP JUMP JUMPDEST PUSH1 0x0 DUP1 PUSH1 0x0 DUP1 PUSH1 0x80 DUP6 DUP8 SUB SLT ISZERO PUSH2 0x1DD9 JUMPI PUSH2 0x1DD8 PUSH2 0x1B53 JUMP JUMPDEST JUMPDEST PUSH1 0x0 PUSH2 0x1DE7 DUP8 DUP3 DUP9 ADD PUSH2 0x1B7E JUMP JUMPDEST SWAP5 POP POP PUSH1 0x20 DUP6 ADD CALLDATALOAD PUSH8 0xFFFFFFFFFFFFFFFF DUP2 GT ISZERO PUSH2 0x1E08 JUMPI PUSH2 0x1E07 PUSH2 0x1B58 JUMP JUMPDEST JUMPDEST PUSH2 0x1E14 DUP8 DUP3 DUP9 ADD PUSH2 0x1CAB JUMP JUMPDEST SWAP4 POP POP PUSH1 0x40 DUP6 ADD CALLDATALOAD PUSH8 0xFFFFFFFFFFFFFFFF DUP2 GT ISZERO PUSH2 0x1E35 JUMPI PUSH2 0x1E34 PUSH2 0x1B58 JUMP JUMPDEST JUMPDEST PUSH2 0x1E41 DUP8 DUP3 DUP9 ADD PUSH2 0x1D91 JUMP JUMPDEST SWAP3 POP POP PUSH1 0x60 DUP6 ADD CALLDATALOAD PUSH8 0xFFFFFFFFFFFFFFFF DUP2 GT ISZERO PUSH2 0x1E62 JUMPI PUSH2 0x1E61 PUSH2 0x1B58 JUMP JUMPDEST JUMPDEST PUSH2 0x1E6E DUP8 DUP3 DUP9 ADD PUSH2 0x1D91 JUMP JUMPDEST SWAP2 POP POP SWAP3 SWAP6 SWAP2 SWAP5 POP SWAP3 POP JUMP JUMPDEST PUSH1 0x0 DUP1 PUSH1 0x40 DUP4 DUP6 SUB SLT ISZERO PUSH2 0x1E91 JUMPI PUSH2 0x1E90 PUSH2 0x1B53 JUMP JUMPDEST JUMPDEST PUSH1 0x0 PUSH2 0x1E9F DUP6 DUP3 DUP7 ADD PUSH2 0x1B7E JUMP JUMPDEST SWAP3 POP POP PUSH1 0x20 PUSH2 0x1EB0 DUP6 DUP3 DUP7 ADD PUSH2 0x1B7E JUMP JUMPDEST SWAP2 POP POP SWAP3 POP SWAP3 SWAP1 POP JUMP JUMPDEST PUSH1 0x0 DUP2 MLOAD SWAP1 POP SWAP2 SWAP1 POP JUMP JUMPDEST PUSH1 0x0 DUP3 DUP3 MSTORE PUSH1 0x20 DUP3 ADD SWAP1 POP SWAP3 SWAP2 POP POP JUMP JUMPDEST PUSH1 0x0 JUMPDEST DUP4 DUP2 LT ISZERO PUSH2 0x1EF4 JUMPI DUP1 DUP3 ADD MLOAD DUP2 DUP5 ADD MSTORE PUSH1 0x20 DUP2 ADD SWAP1 POP PUSH2 0x1ED9 JUMP JUMPDEST PUSH1 0x0 DUP5 DUP5 ADD MSTORE POP POP POP POP JUMP JUMPDEST PUSH1 0x0 PUSH2 0x1F0B DUP3 PUSH2 0x1EBA JUMP JUMPDEST PUSH2 0x1F15 DUP2 DUP6 PUSH2 0x1EC5 JUMP JUMPDEST SWAP4 POP PUSH2 0x1F25 DUP2 DUP6 PUSH1 0x20 DUP7 ADD PUSH2 0x1ED6 JUMP JUMPDEST PUSH2 0x1F2E DUP2 PUSH2 0x1B9D JUMP JUMPDEST DUP5 ADD SWAP2 POP POP SWAP3 SWAP2 POP POP JUMP JUMPDEST PUSH1 0x0 DUP2 MLOAD SWAP1 POP SWAP2 SWAP1 POP JUMP JUMPDEST PUSH1 0x0 DUP3 DUP3 MSTORE PUSH1 0x20 DUP3 ADD SWAP1 POP SWAP3 SWAP2 POP POP JUMP JUMPDEST PUSH1 0x0 DUP2 SWAP1 POP PUSH1 0x20 DUP3 ADD SWAP1 POP SWAP2 SWAP1 POP JUMP JUMPDEST PUSH1 0x0 PUSH2 0x1F71 DUP4 DUP4 PUSH2 0x1F00 JUMP JUMPDEST SWAP1 POP SWAP3 SWAP2 POP POP JUMP JUMPDEST PUSH1 0x0 PUSH1 0x20 DUP3 ADD SWAP1 POP SWAP2 SWAP1 POP JUMP JUMPDEST PUSH1 0x0 PUSH2 0x1F91 DUP3 PUSH2 0x1F39 JUMP JUMPDEST PUSH2 0x1F9B DUP2 DUP6 PUSH2 0x1F44 JUMP JUMPDEST SWAP4 POP DUP4 PUSH1 0x20 DUP3 MUL DUP6 ADD PUSH2 0x1FAD DUP6 PUSH2 0x1F55 JUMP JUMPDEST DUP1 PUSH1 0x0 JUMPDEST DUP6 DUP2 LT ISZERO PUSH2 0x1FE9 JUMPI DUP5 DUP5 SUB DUP10 MSTORE DUP2 MLOAD PUSH2 0x1FCA DUP6 DUP3 PUSH2 0x1F65 JUMP JUMPDEST SWAP5 POP PUSH2 0x1FD5 DUP4 PUSH2 0x1F79 JUMP JUMPDEST SWAP3 POP PUSH1 0x20 DUP11 ADD SWAP10 POP POP PUSH1 0x1 DUP2 ADD SWAP1 POP PUSH2 0x1FB1 JUMP JUMPDEST POP DUP3 SWAP8 POP DUP8 SWAP6 POP POP POP POP POP POP SWAP3 SWAP2 POP POP JUMP JUMPDEST PUSH1 0x0 DUP2 SWAP1 POP SWAP2 SWAP1 POP JUMP JUMPDEST PUSH2 0x200E DUP2 PUSH2 0x1FFB JUMP JUMPDEST DUP3 MSTORE POP POP JUMP JUMPDEST PUSH2 0x201D DUP2 PUSH2 0x1B5D JUMP JUMPDEST DUP3 MSTORE POP POP JUMP JUMPDEST PUSH1 0x0 PUSH1 0xE0 DUP4 ADD PUSH1 0x0 DUP4 ADD MLOAD DUP5 DUP3 SUB PUSH1 0x0 DUP7 ADD MSTORE PUSH2 0x2040 DUP3 DUP3 PUSH2 0x1F00 JUMP JUMPDEST SWAP2 POP POP PUSH1 0x20 DUP4 ADD MLOAD DUP5 DUP3 SUB PUSH1 0x20 DUP7 ADD MSTORE PUSH2 0x205A DUP3 DUP3 PUSH2 0x1F00 JUMP JUMPDEST SWAP2 POP POP PUSH1 0x40 DUP4 ADD MLOAD DUP5 DUP3 SUB PUSH1 0x40 DUP7 ADD MSTORE PUSH2 0x2074 DUP3 DUP3 PUSH2 0x1F86 JUMP JUMPDEST SWAP2 POP POP PUSH1 0x60 DUP4 ADD MLOAD DUP5 DUP3 SUB PUSH1 0x60 DUP7 ADD MSTORE PUSH2 0x208E DUP3 DUP3 PUSH2 0x1F86 JUMP JUMPDEST SWAP2 POP POP PUSH1 0x80 DUP4 ADD MLOAD PUSH2 0x20A3 PUSH1 0x80 DUP7 ADD DUP3 PUSH2 0x2005 JUMP JUMPDEST POP PUSH1 0xA0 DUP4 ADD MLOAD PUSH2 0x20B6 PUSH1 0xA0 DUP7 ADD DUP3 PUSH2 0x2014 JUMP JUMPDEST POP PUSH1 0xC0 DUP4 ADD MLOAD PUSH2 0x20C9 PUSH1 0xC0 DUP7 ADD DUP3 PUSH2 0x2014 JUMP JUMPDEST POP DUP1 SWAP2 POP POP SWAP3 SWAP2 POP POP JUMP JUMPDEST PUSH1 0x0 PUSH1 0x20 DUP3 ADD SWAP1 POP DUP2 DUP2 SUB PUSH1 0x0 DUP4 ADD MSTORE PUSH2 0x20EE DUP2 DUP5 PUSH2 0x2023 JUMP JUMPDEST SWAP1 POP SWAP3 SWAP2 POP POP JUMP JUMPDEST PUSH2 0x20FF DUP2 PUSH2 0x1FFB JUMP JUMPDEST DUP2 EQ PUSH2 0x210A JUMPI PUSH1 0x0 DUP1 REVERT JUMPDEST POP JUMP JUMPDEST PUSH1 0x0 DUP2 CALLDATALOAD SWAP1 POP PUSH2 0x211C DUP2 PUSH2 0x20F6 JUMP JUMPDEST SWAP3 SWAP2 POP POP JUMP JUMPDEST PUSH1 0x0 DUP1 PUSH1 0x0 PUSH1 0x60 DUP5 DUP7 SUB SLT ISZERO PUSH2 0x213B JUMPI PUSH2 0x213A PUSH2 0x1B53 JUMP JUMPDEST JUMPDEST PUSH1 0x0 PUSH2 0x2149 DUP7 DUP3 DUP8 ADD PUSH2 0x1B7E JUMP JUMPDEST SWAP4 POP POP PUSH1 0x20 PUSH2 0x215A DUP7 DUP3 DUP8 ADD PUSH2 0x1B7E JUMP JUMPDEST SWAP3 POP POP PUSH1 0x40 PUSH2 0x216B DUP7 DUP3 DUP8 ADD PUSH2 0x210D JUMP JUMPDEST SWAP2 POP POP SWAP3 POP SWAP3 POP SWAP3 JUMP JUMPDEST PUSH1 0x0 PUSH1 0x20 DUP3 DUP5 SUB SLT ISZERO PUSH2 0x218B JUMPI PUSH2 0x218A PUSH2 0x1B53 JUMP JUMPDEST JUMPDEST PUSH1 0x0 PUSH2 0x2199 DUP5 DUP3 DUP6 ADD PUSH2 0x1B7E JUMP JUMPDEST SWAP2 POP POP SWAP3 SWAP2 POP POP JUMP JUMPDEST PUSH1 0x0 DUP3 DUP3 MSTORE PUSH1 0x20 DUP3 ADD SWAP1 POP SWAP3 SWAP2 POP POP JUMP JUMPDEST PUSH1 0x0 PUSH2 0x21BE DUP3 PUSH2 0x1EBA JUMP JUMPDEST PUSH2 0x21C8 DUP2 DUP6 PUSH2 0x21A2 JUMP JUMPDEST SWAP4 POP PUSH2 0x21D8 DUP2 DUP6 PUSH1 0x20 DUP7 ADD PUSH2 0x1ED6 JUMP JUMPDEST PUSH2 0x21E1 DUP2 PUSH2 0x1B9D JUMP JUMPDEST DUP5 ADD SWAP2 POP POP SWAP3 SWAP2 POP POP JUMP JUMPDEST PUSH1 0x0 PUSH1 0x20 DUP3 ADD SWAP1 POP DUP2 DUP2 SUB PUSH1 0x0 DUP4 ADD MSTORE PUSH2 0x2206 DUP2 DUP5 PUSH2 0x21B3 JUMP JUMPDEST SWAP1 POP SWAP3 SWAP2 POP POP JUMP JUMPDEST PUSH2 0x2217 DUP2 PUSH2 0x1B5D JUMP JUMPDEST DUP3 MSTORE POP POP JUMP JUMPDEST PUSH1 0x0 PUSH1 0x20 DUP3 ADD SWAP1 POP PUSH2 0x2232 PUSH1 0x0 DUP4 ADD DUP5 PUSH2 0x220E JUMP JUMPDEST SWAP3 SWAP2 POP POP JUMP JUMPDEST PUSH1 0x0 PUSH20 0xFFFFFFFFFFFFFFFFFFFFFFFFFFFFFFFFFFFFFFFF DUP3 AND SWAP1 POP SWAP2 SWAP1 POP JUMP JUMPDEST PUSH1 0x0 PUSH2 0x2263 DUP3 PUSH2 0x2238 JUMP JUMPDEST SWAP1 POP SWAP2 SWAP1 POP JUMP JUMPDEST PUSH2 0x2273 DUP2 PUSH2 0x2258 JUMP JUMPDEST DUP3 MSTORE POP POP JUMP JUMPDEST PUSH1 0x0 PUSH1 0x20 DUP3 ADD SWAP1 POP PUSH2 0x228E PUSH1 0x0 DUP4 ADD DUP5 PUSH2 0x226A JUMP JUMPDEST SWAP3 SWAP2 POP POP JUMP JUMPDEST PUSH2 0x229D DUP2 PUSH2 0x2258 JUMP JUMPDEST DUP2 EQ PUSH2 0x22A8 JUMPI PUSH1 0x0 DUP1 REVERT JUMPDEST POP JUMP JUMPDEST PUSH1 0x0 DUP2 CALLDATALOAD SWAP1 POP PUSH2 0x22BA DUP2 PUSH2 0x2294 JUMP JUMPDEST SWAP3 SWAP2 POP POP JUMP JUMPDEST PUSH1 0x0 PUSH1 0x20 DUP3 DUP5 SUB SLT ISZERO PUSH2 0x22D6 JUMPI PUSH2 0x22D5 PUSH2 0x1B53 JUMP JUMPDEST JUMPDEST PUSH1 0x0 PUSH2 0x22E4 DUP5 DUP3 DUP6 ADD PUSH2 0x22AB JUMP JUMPDEST SWAP2 POP POP SWAP3 SWAP2 POP POP JUMP JUMPDEST PUSH1 0x0 DUP1 PUSH1 0x0 DUP1 PUSH1 0x80 DUP6 DUP8 SUB SLT ISZERO PUSH2 0x2307 JUMPI PUSH2 0x2306 PUSH2 0x1B53 JUMP JUMPDEST JUMPDEST PUSH1 0x0 DUP6 ADD CALLDATALOAD PUSH8 0xFFFFFFFFFFFFFFFF DUP2 GT ISZERO PUSH2 0x2325 JUMPI PUSH2 0x2324 PUSH2 0x1B58 JUMP JUMPDEST JUMPDEST PUSH2 0x2331 DUP8 DUP3 DUP9 ADD PUSH2 0x1CAB JUMP JUMPDEST SWAP5 POP POP PUSH1 0x20 DUP6 ADD CALLDATALOAD PUSH8 0xFFFFFFFFFFFFFFFF DUP2 GT ISZERO PUSH2 0x2352 JUMPI PUSH2 0x2351 PUSH2 0x1B58 JUMP JUMPDEST JUMPDEST PUSH2 0x235E DUP8 DUP3 DUP9 ADD PUSH2 0x1CAB JUMP JUMPDEST SWAP4 POP POP PUSH1 0x40 DUP6 ADD CALLDATALOAD PUSH8 0xFFFFFFFFFFFFFFFF DUP2 GT ISZERO PUSH2 0x237F JUMPI PUSH2 0x237E PUSH2 0x1B58 JUMP JUMPDEST JUMPDEST PUSH2 0x238B DUP8 DUP3 DUP9 ADD PUSH2 0x1D91 JUMP JUMPDEST SWAP3 POP POP PUSH1 0x60 DUP6 ADD CALLDATALOAD PUSH8 0xFFFFFFFFFFFFFFFF DUP2 GT ISZERO PUSH2 0x23AC JUMPI PUSH2 0x23AB PUSH2 0x1B58 JUMP JUMPDEST JUMPDEST PUSH2 0x23B8 DUP8 DUP3 DUP9 ADD PUSH2 0x1D91 JUMP JUMPDEST SWAP2 POP POP SWAP3 SWAP6 SWAP2 SWAP5 POP SWAP3 POP JUMP JUMPDEST PUSH32 0x4E487B7100000000000000000000000000000000000000000000000000000000 PUSH1 0x0 MSTORE PUSH1 0x32 PUSH1 0x4 MSTORE PUSH1 0x24 PUSH1 0x0 REVERT JUMPDEST PUSH32 0x4E487B7100000000000000000000000000000000000000000000000000000000 PUSH1 0x0 MSTORE PUSH1 0x22 PUSH1 0x4 MSTORE PUSH1 0x24 PUSH1 0x0 REVERT JUMPDEST PUSH1 0x0 PUSH1 0x2 DUP3 DIV SWAP1 POP PUSH1 0x1 DUP3 AND DUP1 PUSH2 0x243A JUMPI PUSH1 0x7F DUP3 AND SWAP2 POP JUMPDEST PUSH1 0x20 DUP3 LT DUP2 SUB PUSH2 0x244D JUMPI PUSH2 0x244C PUSH2 0x23F3 JUMP JUMPDEST JUMPDEST POP SWAP2 SWAP1 POP JUMP JUMPDEST PUSH1 0x0 DUP2 SWAP1 POP DUP2 PUSH1 0x0 MSTORE PUSH1 0x20 PUSH1 0x0 KECCAK256 SWAP1 POP SWAP2 SWAP1 POP JUMP JUMPDEST PUSH1 0x0 PUSH1 0x20 PUSH1 0x1F DUP4 ADD DIV SWAP1 POP SWAP2 SWAP1 POP JUMP JUMPDEST PUSH1 0x0 DUP3 DUP3 SHL SWAP1 POP SWAP3 SWAP2 POP POP JUMP JUMPDEST PUSH1 0x0 PUSH1 0x8 DUP4 MUL PUSH2 0x24B5 PUSH32 0xFFFFFFFFFFFFFFFFFFFFFFFFFFFFFFFFFFFFFFFFFFFFFFFFFFFFFFFFFFFFFFFF DUP3 PUSH2 0x2478 JUMP JUMPDEST PUSH2 0x24BF DUP7 DUP4 PUSH2 0x2478 JUMP JUMPDEST SWAP6 POP DUP1 NOT DUP5 AND SWAP4 POP DUP1 DUP7 AND DUP5 OR SWAP3 POP POP POP SWAP4 SWAP3 POP POP POP JUMP JUMPDEST PUSH1 0x0 DUP2 SWAP1 POP SWAP2 SWAP1 POP JUMP JUMPDEST PUSH1 0x0 PUSH2 0x24FC PUSH2 0x24F7 PUSH2 0x24F2 DUP5 PUSH2 0x1B5D JUMP JUMPDEST PUSH2 0x24D7 JUMP JUMPDEST PUSH2 0x1B5D JUMP JUMPDEST SWAP1 POP SWAP2 SWAP1 POP JUMP JUMPDEST PUSH1 0x0 DUP2 SWAP1 POP SWAP2 SWAP1 POP JUMP JUMPDEST PUSH2 0x2516 DUP4 PUSH2 0x24E1 JUMP JUMPDEST PUSH2 0x252A PUSH2 0x2522 DUP3 PUSH2 0x2503 JUMP JUMPDEST DUP5 DUP5 SLOAD PUSH2 0x2485 JUMP JUMPDEST DUP3 SSTORE POP POP POP POP JUMP JUMPDEST PUSH1 0x0 SWAP1 JUMP JUMPDEST PUSH2 0x253F PUSH2 0x2532 JUMP JUMPDEST PUSH2 0x254A DUP2 DUP5 DUP5 PUSH2 0x250D JUMP JUMPDEST POP POP POP JUMP JUMPDEST JUMPDEST DUP2 DUP2 LT ISZERO PUSH2 0x256E JUMPI PUSH2 0x2563 PUSH1 0x0 DUP3 PUSH2 0x2537 JUMP JUMPDEST PUSH1 0x1 DUP2 ADD SWAP1 POP PUSH2 0x2550 JUMP JUMPDEST POP POP JUMP JUMPDEST PUSH1 0x1F DUP3 GT ISZERO PUSH2 0x25B3 JUMPI PUSH2 0x2584 DUP2 PUSH2 0x2453 JUMP JUMPDEST PUSH2 0x258D DUP5 PUSH2 0x2468 JUMP JUMPDEST DUP2 ADD PUSH1 0x20 DUP6 LT ISZERO PUSH2 0x259C JUMPI DUP2 SWAP1 POP JUMPDEST PUSH2 0x25B0 PUSH2 0x25A8 DUP6 PUSH2 0x2468 JUMP JUMPDEST DUP4 ADD DUP3 PUSH2 0x254F JUMP JUMPDEST POP POP JUMPDEST POP POP POP JUMP JUMPDEST PUSH1 0x0 DUP3 DUP3 SHR SWAP1 POP SWAP3 SWAP2 POP POP JUMP JUMPDEST PUSH1 0x0 PUSH2 0x25D6 PUSH1 0x0 NOT DUP5 PUSH1 0x8 MUL PUSH2 0x25B8 JUMP JUMPDEST NOT DUP1 DUP4 AND SWAP2 POP POP SWAP3 SWAP2 POP POP JUMP JUMPDEST PUSH1 0x0 PUSH2 0x25EF DUP4 DUP4 PUSH2 0x25C5 JUMP JUMPDEST SWAP2 POP DUP3 PUSH1 0x2 MUL DUP3 OR SWAP1 POP SWAP3 SWAP2 POP POP JUMP JUMPDEST PUSH2 0x2608 DUP3 PUSH2 0x1EBA JUMP JUMPDEST PUSH8 0xFFFFFFFFFFFFFFFF DUP2 GT ISZERO PUSH2 0x2621 JUMPI PUSH2 0x2620 PUSH2 0x1BAE JUMP JUMPDEST JUMPDEST PUSH2 0x262B DUP3 SLOAD PUSH2 0x2422 JUMP JUMPDEST PUSH2 0x2636 DUP3 DUP3 DUP6 PUSH2 0x2572 JUMP JUMPDEST PUSH1 0x0 PUSH1 0x20 SWAP1 POP PUSH1 0x1F DUP4 GT PUSH1 0x1 DUP2 EQ PUSH2 0x2669 JUMPI PUSH1 0x0 DUP5 ISZERO PUSH2 0x2657 JUMPI DUP3 DUP8 ADD MLOAD SWAP1 POP JUMPDEST PUSH2 0x2661 DUP6 DUP3 PUSH2 0x25E3 JUMP JUMPDEST DUP7 SSTORE POP PUSH2 0x26C9 JUMP JUMPDEST PUSH1 0x1F NOT DUP5 AND PUSH2 0x2677 DUP7 PUSH2 0x2453 JUMP JUMPDEST PUSH1 0x0 JUMPDEST DUP3 DUP2 LT ISZERO PUSH2 0x269F JUMPI DUP5 DUP10 ADD MLOAD DUP3 SSTORE PUSH1 0x1 DUP3 ADD SWAP2 POP PUSH1 0x20 DUP6 ADD SWAP5 POP PUSH1 0x20 DUP2 ADD SWAP1 POP PUSH2 0x267A JUMP JUMPDEST DUP7 DUP4 LT ISZERO PUSH2 0x26BC JUMPI DUP5 DUP10 ADD MLOAD PUSH2 0x26B8 PUSH1 0x1F DUP10 AND DUP3 PUSH2 0x25C5 JUMP JUMPDEST DUP4 SSTORE POP JUMPDEST PUSH1 0x1 PUSH1 0x2 DUP9 MUL ADD DUP9 SSTORE POP POP POP JUMPDEST POP POP POP POP POP POP JUMP JUMPDEST PUSH32 0x496E76616C696420766F74650000000000000000000000000000000000000000 PUSH1 0x0 DUP3 ADD MSTORE POP JUMP JUMPDEST PUSH1 0x0 PUSH2 0x2707 PUSH1 0xC DUP4 PUSH2 0x21A2 JUMP JUMPDEST SWAP2 POP PUSH2 0x2712 DUP3 PUSH2 0x26D1 JUMP JUMPDEST PUSH1 0x20 DUP3 ADD SWAP1 POP SWAP2 SWAP1 POP JUMP JUMPDEST PUSH1 0x0 PUSH1 0x20 DUP3 ADD SWAP1 POP DUP2 DUP2 SUB PUSH1 0x0 DUP4 ADD MSTORE PUSH2 0x2736 DUP2 PUSH2 0x26FA JUMP JUMPDEST SWAP1 POP SWAP2 SWAP1 POP JUMP JUMPDEST PUSH32 0x4E487B7100000000000000000000000000000000000000000000000000000000 PUSH1 0x0 MSTORE PUSH1 0x11 PUSH1 0x4 MSTORE PUSH1 0x24 PUSH1 0x0 REVERT JUMPDEST PUSH1 0x0 PUSH2 0x2777 DUP3 PUSH2 0x1FFB JUMP JUMPDEST SWAP2 POP PUSH2 0x2782 DUP4 PUSH2 0x1FFB JUMP JUMPDEST SWAP3 POP DUP3 DUP3 SUB SWAP1 POP DUP2 DUP2 SLT PUSH1 0x0 DUP5 SLT AND DUP3 DUP3 SGT PUSH1 0x0 DUP6 SLT ISZERO AND OR ISZERO PUSH2 0x27A9 JUMPI PUSH2 0x27A8 PUSH2 0x273D JUMP JUMPDEST JUMPDEST SWAP3 SWAP2 POP POP JUMP JUMPDEST PUSH1 0x0 PUSH2 0x27BA DUP3 PUSH2 0x1B5D JUMP JUMPDEST SWAP2 POP PUSH1 0x0 DUP3 SUB PUSH2 0x27CD JUMPI PUSH2 0x27CC PUSH2 0x273D JUMP JUMPDEST JUMPDEST PUSH1 0x1 DUP3 SUB SWAP1 POP SWAP2 SWAP1 POP JUMP JUMPDEST PUSH1 0x0 PUSH2 0x27E3 DUP3 PUSH2 0x1B5D JUMP JUMPDEST SWAP2 POP PUSH32 0xFFFFFFFFFFFFFFFFFFFFFFFFFFFFFFFFFFFFFFFFFFFFFFFFFFFFFFFFFFFFFFFF DUP3 SUB PUSH2 0x2815 JUMPI PUSH2 0x2814 PUSH2 0x273D JUMP JUMPDEST JUMPDEST PUSH1 0x1 DUP3 ADD SWAP1 POP SWAP2 SWAP1 POP JUMP JUMPDEST PUSH1 0x0 PUSH2 0x282B DUP3 PUSH2 0x1FFB JUMP JUMPDEST SWAP2 POP PUSH2 0x2836 DUP4 PUSH2 0x1FFB JUMP JUMPDEST SWAP3 POP DUP3 DUP3 ADD SWAP1 POP DUP3 DUP2 SLT ISZERO PUSH1 0x0 DUP4 SLT AND DUP4 DUP3 SLT PUSH1 0x0 DUP5 SLT ISZERO AND OR ISZERO PUSH2 0x285E JUMPI PUSH2 0x285D PUSH2 0x273D JUMP JUMPDEST JUMPDEST SWAP3 SWAP2 POP POP JUMP JUMPDEST PUSH1 0x0 DUP2 SWAP1 POP SWAP3 SWAP2 POP POP JUMP JUMPDEST PUSH1 0x0 PUSH2 0x287A DUP3 PUSH2 0x1EBA JUMP JUMPDEST PUSH2 0x2884 DUP2 DUP6 PUSH2 0x2864 JUMP JUMPDEST SWAP4 POP PUSH2 0x2894 DUP2 DUP6 PUSH1 0x20 DUP7 ADD PUSH2 0x1ED6 JUMP JUMPDEST DUP1 DUP5 ADD SWAP2 POP POP SWAP3 SWAP2 POP POP JUMP JUMPDEST PUSH32 0x2300000000000000000000000000000000000000000000000000000000000000 DUP2 MSTORE POP JUMP JUMPDEST PUSH1 0x0 DUP2 SLOAD PUSH2 0x28D3 DUP2 PUSH2 0x2422 JUMP JUMPDEST PUSH2 0x28DD DUP2 DUP7 PUSH2 0x2864 JUMP JUMPDEST SWAP5 POP PUSH1 0x1 DUP3 AND PUSH1 0x0 DUP2 EQ PUSH2 0x28F8 JUMPI PUSH1 0x1 DUP2 EQ PUSH2 0x290D JUMPI PUSH2 0x2940 JUMP JUMPDEST PUSH1 0xFF NOT DUP4 AND DUP7 MSTORE DUP2 ISZERO ISZERO DUP3 MUL DUP7 ADD SWAP4 POP PUSH2 0x2940 JUMP JUMPDEST PUSH2 0x2916 DUP6 PUSH2 0x2453 JUMP JUMPDEST PUSH1 0x0 JUMPDEST DUP4 DUP2 LT ISZERO PUSH2 0x2938 JUMPI DUP2 SLOAD DUP2 DUP10 ADD MSTORE PUSH1 0x1 DUP3 ADD SWAP2 POP PUSH1 0x20 DUP2 ADD SWAP1 POP PUSH2 0x2919 JUMP JUMPDEST DUP4 DUP9 ADD SWAP6 POP POP POP JUMPDEST POP POP POP SWAP3 SWAP2 POP POP JUMP JUMPDEST PUSH32 0x7C00000000000000000000000000000000000000000000000000000000000000 DUP2 MSTORE POP JUMP JUMPDEST PUSH1 0x0 PUSH2 0x297B DUP3 DUP11 PUSH2 0x286F JUMP JUMPDEST SWAP2 POP PUSH2 0x2986 DUP3 PUSH2 0x28A0 JUMP JUMPDEST PUSH1 0x1 DUP3 ADD SWAP2 POP PUSH2 0x2996 DUP3 DUP10 PUSH2 0x28C6 JUMP JUMPDEST SWAP2 POP PUSH2 0x29A1 DUP3 PUSH2 0x28A0 JUMP JUMPDEST PUSH1 0x1 DUP3 ADD SWAP2 POP PUSH2 0x29B1 DUP3 DUP9 PUSH2 0x28C6 JUMP JUMPDEST SWAP2 POP PUSH2 0x29BC DUP3 PUSH2 0x28A0 JUMP JUMPDEST PUSH1 0x1 DUP3 ADD SWAP2 POP PUSH2 0x29CC DUP3 DUP8 PUSH2 0x286F JUMP JUMPDEST SWAP2 POP PUSH2 0x29D7 DUP3 PUSH2 0x28A0 JUMP JUMPDEST PUSH1 0x1 DUP3 ADD SWAP2 POP PUSH2 0x29E7 DUP3 DUP7 PUSH2 0x286F JUMP JUMPDEST SWAP2 POP PUSH2 0x29F2 DUP3 PUSH2 0x28A0 JUMP JUMPDEST PUSH1 0x1 DUP3 ADD SWAP2 POP PUSH2 0x2A02 DUP3 DUP6 PUSH2 0x286F JUMP JUMPDEST SWAP2 POP PUSH2 0x2A0D DUP3 PUSH2 0x2949 JUMP JUMPDEST PUSH1 0x1 DUP3 ADD SWAP2 POP PUSH2 0x2A1D DUP3 DUP5 PUSH2 0x286F JUMP JUMPDEST SWAP2 POP DUP2 SWAP1 POP SWAP9 SWAP8 POP POP POP POP POP POP POP POP JUMP JUMPDEST PUSH1 0x0 PUSH2 0x2A3A DUP3 DUP7 PUSH2 0x286F JUMP JUMPDEST SWAP2 POP PUSH2 0x2A45 DUP3 PUSH2 0x28A0 JUMP JUMPDEST PUSH1 0x1 DUP3 ADD SWAP2 POP PUSH2 0x2A55 DUP3 DUP6 PUSH2 0x28C6 JUMP JUMPDEST SWAP2 POP PUSH2 0x2A60 DUP3 PUSH2 0x28A0 JUMP JUMPDEST PUSH1 0x1 DUP3 ADD SWAP2 POP PUSH2 0x2A70 DUP3 DUP5 PUSH2 0x28C6 JUMP JUMPDEST SWAP2 POP DUP2 SWAP1 POP SWAP5 SWAP4 POP POP POP POP JUMP JUMPDEST PUSH1 0x0 PUSH2 0x2A89 DUP3 DUP6 PUSH2 0x286F JUMP JUMPDEST SWAP2 POP PUSH2 0x2A94 DUP3 PUSH2 0x28A0 JUMP JUMPDEST PUSH1 0x1 DUP3 ADD SWAP2 POP PUSH2 0x2AA4 DUP3 DUP5 PUSH2 0x28C6 JUMP JUMPDEST SWAP2 POP DUP2 SWAP1 POP SWAP4 SWAP3 POP POP POP JUMP JUMPDEST PUSH1 0x0 PUSH2 0x2ABC DUP3 DUP6 PUSH2 0x28C6 JUMP JUMPDEST SWAP2 POP PUSH2 0x2AC7 DUP3 PUSH2 0x28A0 JUMP JUMPDEST PUSH1 0x1 DUP3 ADD SWAP2 POP PUSH2 0x2AD7 DUP3 DUP5 PUSH2 0x286F JUMP JUMPDEST SWAP2 POP DUP2 SWAP1 POP SWAP4 SWAP3 POP POP POP JUMP JUMPDEST PUSH32 0x43616C6C6572206973206E6F74206F776E657200000000000000000000000000 PUSH1 0x0 DUP3 ADD MSTORE POP JUMP JUMPDEST PUSH1 0x0 PUSH2 0x2B19 PUSH1 0x13 DUP4 PUSH2 0x21A2 JUMP JUMPDEST SWAP2 POP PUSH2 0x2B24 DUP3 PUSH2 0x2AE3 JUMP JUMPDEST PUSH1 0x20 DUP3 ADD SWAP1 POP SWAP2 SWAP1 POP JUMP JUMPDEST PUSH1 0x0 PUSH1 0x20 DUP3 ADD SWAP1 POP DUP2 DUP2 SUB PUSH1 0x0 DUP4 ADD MSTORE PUSH2 0x2B48 DUP2 PUSH2 0x2B0C JUMP JUMPDEST SWAP1 POP SWAP2 SWAP1 POP JUMP JUMPDEST PUSH32 0x5465787420746F20736D616C6C00000000000000000000000000000000000000 PUSH1 0x0 DUP3 ADD MSTORE POP JUMP JUMPDEST PUSH1 0x0 PUSH2 0x2B85 PUSH1 0xD DUP4 PUSH2 0x21A2 JUMP JUMPDEST SWAP2 POP PUSH2 0x2B90 DUP3 PUSH2 0x2B4F JUMP JUMPDEST PUSH1 0x20 DUP3 ADD SWAP1 POP SWAP2 SWAP1 POP JUMP JUMPDEST PUSH1 0x0 PUSH1 0x20 DUP3 ADD SWAP1 POP DUP2 DUP2 SUB PUSH1 0x0 DUP4 ADD MSTORE PUSH2 0x2BB4 DUP2 PUSH2 0x2B78 JUMP JUMPDEST SWAP1 POP SWAP2 SWAP1 POP JUMP JUMPDEST PUSH32 0x5465787420746F6F20736D616C6C000000000000000000000000000000000000 PUSH1 0x0 DUP3 ADD MSTORE POP JUMP JUMPDEST PUSH1 0x0 PUSH2 0x2BF1 PUSH1 0xE DUP4 PUSH2 0x21A2 JUMP JUMPDEST SWAP2 POP PUSH2 0x2BFC DUP3 PUSH2 0x2BBB JUMP JUMPDEST PUSH1 0x20 DUP3 ADD SWAP1 POP SWAP2 SWAP1 POP JUMP JUMPDEST PUSH1 0x0 PUSH1 0x20 DUP3 ADD SWAP1 POP DUP2 DUP2 SUB PUSH1 0x0 DUP4 ADD MSTORE PUSH2 0x2C20 DUP2 PUSH2 0x2BE4 JUMP JUMPDEST SWAP1 POP SWAP2 SWAP1 POP JUMP JUMPDEST PUSH1 0x0 PUSH2 0x2C32 DUP3 PUSH2 0x1B5D JUMP JUMPDEST SWAP2 POP PUSH2 0x2C3D DUP4 PUSH2 0x1B5D JUMP JUMPDEST SWAP3 POP DUP3 DUP3 SUB SWAP1 POP DUP2 DUP2 GT ISZERO PUSH2 0x2C55 JUMPI PUSH2 0x2C54 PUSH2 0x273D JUMP JUMPDEST JUMPDEST SWAP3 SWAP2 POP POP JUMP JUMPDEST PUSH1 0x0 PUSH2 0x2C66 DUP3 PUSH2 0x1FFB JUMP JUMPDEST SWAP2 POP PUSH2 0x2C71 DUP4 PUSH2 0x1FFB JUMP JUMPDEST SWAP3 POP DUP3 DUP3 MUL PUSH2 0x2C7F DUP2 PUSH2 0x1FFB JUMP JUMPDEST SWAP2 POP PUSH32 0x8000000000000000000000000000000000000000000000000000000000000000 DUP5 EQ PUSH1 0x0 DUP5 SLT AND ISZERO PUSH2 0x2CB7 JUMPI PUSH2 0x2CB6 PUSH2 0x273D JUMP JUMPDEST JUMPDEST DUP3 DUP3 SDIV DUP5 EQ DUP4 ISZERO OR PUSH2 0x2CCC JUMPI PUSH2 0x2CCB PUSH2 0x273D JUMP JUMPDEST JUMPDEST POP SWAP3 SWAP2 POP POP JUMP JUMPDEST PUSH1 0x0 PUSH1 0x40 DUP3 ADD SWAP1 POP DUP2 DUP2 SUB PUSH1 0x0 DUP4 ADD MSTORE PUSH2 0x2CED DUP2 DUP6 PUSH2 0x21B3 JUMP JUMPDEST SWAP1 POP PUSH2 0x2CFC PUSH1 0x20 DUP4 ADD DUP5 PUSH2 0x226A JUMP JUMPDEST SWAP4 SWAP3 POP POP POP JUMP JUMPDEST PUSH32 0x4E487B7100000000000000000000000000000000000000000000000000000000 PUSH1 0x0 MSTORE PUSH1 0x12 PUSH1 0x4 MSTORE PUSH1 0x24 PUSH1 0x0 REVERT JUMPDEST PUSH1 0x0 PUSH2 0x2D3E DUP3 DUP6 PUSH2 0x286F JUMP JUMPDEST SWAP2 POP PUSH2 0x2D4A DUP3 DUP5 PUSH2 0x286F JUMP JUMPDEST SWAP2 POP DUP2 SWAP1 POP SWAP4 SWAP3 POP POP POP JUMP INVALID LOG2 PUSH5 0x6970667358 0x22 SLT KECCAK256 DUP14 0xD2 EXTCODECOPY TIMESTAMP 0xE7 LOG3 0x2C EXTCODEHASH POP 0x4A PUSH32 0x9A345AEEE5AB788E7C52D58BC5E4A3610EDA5F0E6664736F6C63430008120033 "
		},
		"gasEstimates": {
			"creation": {
				"codeDepositCost": "2332000",
				"executionCost": "infinite",
				"totalCost": "infinite"
			},
			"external": {
				"changeOwner(address)": "30611",
				"createLaw(string,string,string[],string[])": "infinite",
				"getCurrentVersion(uint256)": "infinite",
				"getDocuments(uint256,uint256)": "infinite",
				"getLaw(uint256)": "infinite",
				"getLaw(uint256,uint256)": "infinite",
				"getLawCount()": "2556",
				"getOwner()": "2544",
				"getRevision(uint256,uint256)": "infinite",
				"getRevisions(uint256)": "infinite",
				"proposeEdit(uint256,string,string[],string[])": "infinite",
				"vote(uint256,uint256,int256)": "infinite"
			}
		},
		"methodIdentifiers": {
			"changeOwner(address)": "a6f9dae1",
			"createLaw(string,string,string[],string[])": "c1c1a377",
			"getCurrentVersion(uint256)": "e715463c",
			"getDocuments(uint256,uint256)": "8349166f",
			"getLaw(uint256)": "c3b53ba4",
			"getLaw(uint256,uint256)": "1f88e5a9",
			"getLawCount()": "6475f4fe",
			"getOwner()": "893d20e8",
			"getRevision(uint256,uint256)": "6192e3e8",
			"getRevisions(uint256)": "3ec559c6",
			"proposeEdit(uint256,string,string[],string[])": "1d31245c",
			"vote(uint256,uint256,int256)": "20b7c317"
		}
	},
	"abi": [
		{
			"inputs": [],
			"stateMutability": "nonpayable",
			"type": "constructor"
		},
		{
			"anonymous": false,
			"inputs": [
				{
					"indexed": true,
					"internalType": "uint256",
					"name": "id",
					"type": "uint256"
				}
			],
			"name": "LawCreated",
			"type": "event"
		},
		{
			"anonymous": false,
			"inputs": [
				{
					"indexed": true,
					"internalType": "address",
					"name": "oldOwner",
					"type": "address"
				},
				{
					"indexed": true,
					"internalType": "address",
					"name": "newOwner",
					"type": "address"
				}
			],
			"name": "OwnerSet",
			"type": "event"
		},
		{
			"inputs": [
				{
					"internalType": "address",
					"name": "newOwner",
					"type": "address"
				}
			],
			"name": "changeOwner",
			"outputs": [],
			"stateMutability": "nonpayable",
			"type": "function"
		},
		{
			"inputs": [
				{
					"internalType": "string",
					"name": "title",
					"type": "string"
				},
				{
					"internalType": "string",
					"name": "law",
					"type": "string"
				},
				{
					"internalType": "string[]",
					"name": "articles",
					"type": "string[]"
				},
				{
					"internalType": "string[]",
					"name": "documents",
					"type": "string[]"
				}
			],
			"name": "createLaw",
			"outputs": [
				{
					"internalType": "uint256",
					"name": "",
					"type": "uint256"
				}
			],
			"stateMutability": "payable",
			"type": "function"
		},
		{
			"inputs": [
				{
					"internalType": "uint256",
					"name": "id",
					"type": "uint256"
				}
			],
			"name": "getCurrentVersion",
			"outputs": [
				{
					"internalType": "uint256",
					"name": "version",
					"type": "uint256"
				}
			],
			"stateMutability": "view",
			"type": "function"
		},
		{
			"inputs": [
				{
					"internalType": "uint256",
					"name": "id",
					"type": "uint256"
				},
				{
					"internalType": "uint256",
					"name": "version",
					"type": "uint256"
				}
			],
			"name": "getDocuments",
			"outputs": [
				{
					"internalType": "string",
					"name": "documents",
					"type": "string"
				}
			],
			"stateMutability": "view",
			"type": "function"
		},
		{
			"inputs": [
				{
					"internalType": "uint256",
					"name": "id",
					"type": "uint256"
				},
				{
					"internalType": "uint256",
					"name": "version",
					"type": "uint256"
				}
			],
			"name": "getLaw",
			"outputs": [
				{
					"components": [
						{
							"internalType": "string",
							"name": "title",
							"type": "string"
						},
						{
							"internalType": "string",
							"name": "law",
							"type": "string"
						},
						{
							"internalType": "string[]",
							"name": "articles",
							"type": "string[]"
						},
						{
							"internalType": "string[]",
							"name": "documents",
							"type": "string[]"
						},
						{
							"internalType": "int256",
							"name": "votes",
							"type": "int256"
						},
						{
							"internalType": "uint256",
							"name": "total",
							"type": "uint256"
						},
						{
							"internalType": "uint256",
							"name": "version",
							"type": "uint256"
						}
					],
					"internalType": "struct Laws.cLaws",
					"name": "L",
					"type": "tuple"
				}
			],
			"stateMutability": "view",
			"type": "function"
		},
		{
			"inputs": [
				{
					"internalType": "uint256",
					"name": "id",
					"type": "uint256"
				}
			],
			"name": "getLaw",
			"outputs": [
				{
					"internalType": "string",
					"name": "law",
					"type": "string"
				}
			],
			"stateMutability": "view",
			"type": "function"
		},
		{
			"inputs": [],
			"name": "getLawCount",
			"outputs": [
				{
					"internalType": "uint256",
					"name": "count",
					"type": "uint256"
				}
			],
			"stateMutability": "view",
			"type": "function"
		},
		{
			"inputs": [],
			"name": "getOwner",
			"outputs": [
				{
					"internalType": "address",
					"name": "",
					"type": "address"
				}
			],
			"stateMutability": "view",
			"type": "function"
		},
		{
			"inputs": [
				{
					"internalType": "uint256",
					"name": "id",
					"type": "uint256"
				},
				{
					"internalType": "uint256",
					"name": "version",
					"type": "uint256"
				}
			],
			"name": "getRevision",
			"outputs": [
				{
					"internalType": "string",
					"name": "revision",
					"type": "string"
				}
			],
			"stateMutability": "view",
			"type": "function"
		},
		{
			"inputs": [
				{
					"internalType": "uint256",
					"name": "id",
					"type": "uint256"
				}
			],
			"name": "getRevisions",
			"outputs": [
				{
					"internalType": "string",
					"name": "revisions",
					"type": "string"
				}
			],
			"stateMutability": "view",
			"type": "function"
		},
		{
			"inputs": [
				{
					"internalType": "uint256",
					"name": "id",
					"type": "uint256"
				},
				{
					"internalType": "string",
					"name": "law",
					"type": "string"
				},
				{
					"internalType": "string[]",
					"name": "articles",
					"type": "string[]"
				},
				{
					"internalType": "string[]",
					"name": "documents",
					"type": "string[]"
				}
			],
			"name": "proposeEdit",
			"outputs": [],
			"stateMutability": "payable",
			"type": "function"
		},
		{
			"inputs": [
				{
					"internalType": "uint256",
					"name": "id",
					"type": "uint256"
				},
				{
					"internalType": "uint256",
					"name": "version",
					"type": "uint256"
				},
				{
					"internalType": "int256",
					"name": "v",
					"type": "int256"
				}
			],
			"name": "vote",
			"outputs": [],
			"stateMutability": "payable",
			"type": "function"
		}
	]
}