{
	"data": {
		"bytecode": {
			"linkReferences": {},
			"object": "608060405260006003553480156200001657600080fd5b50620000636040518060400160405280601b81526020017f4f776e657220636f6e7472616374206465706c6f7965642062793a0000000000815250336200012460201b62001b861760201c565b336000806101000a81548173ffffffffffffffffffffffffffffffffffffffff021916908373ffffffffffffffffffffffffffffffffffffffff16021790555060008054906101000a900473ffffffffffffffffffffffffffffffffffffffff1673ffffffffffffffffffffffffffffffffffffffff16600073ffffffffffffffffffffffffffffffffffffffff167f342827c97908e5e2f71151c08502a66d44b6f758e3ac2f1de95f02eb95f0a73560405160405180910390a362000306565b620001c682826040516024016200013d929190620002d2565b6040516020818303038152906040527f319af333000000000000000000000000000000000000000000000000000000007bffffffffffffffffffffffffffffffffffffffffffffffffffffffff19166020820180517bffffffffffffffffffffffffffffffffffffffffffffffffffffffff8381831617835250505050620001ca60201b60201c565b5050565b60008151905060006a636f6e736f6c652e6c6f679050602083016000808483855afa5050505050565b600081519050919050565b600082825260208201905092915050565b60005b838110156200022f57808201518184015260208101905062000212565b60008484015250505050565b6000601f19601f8301169050919050565b60006200025982620001f3565b620002658185620001fe565b9350620002778185602086016200020f565b62000282816200023b565b840191505092915050565b600073ffffffffffffffffffffffffffffffffffffffff82169050919050565b6000620002ba826200028d565b9050919050565b620002cc81620002ad565b82525050565b60006040820190508181036000830152620002ee81856200024c565b9050620002ff6020830184620002c1565b9392505050565b61332980620003166000396000f3fe6080604052600436106100c25760003560e01c80636475f4fe1161007f578063a6f9dae111610059578063a6f9dae114610265578063c1c1a3771461028e578063c3b53ba4146102be578063e715463c146102fb576100c2565b80636475f4fe146101d25780638349166f146101fd578063893d20e81461023a576100c2565b80631d31245c146100c75780631f88e5a9146100e357806320b7c317146101205780633ec559c61461013c5780634cef38f9146101795780636192e3e814610195575b600080fd5b6100e160048036038101906100dc91906122d9565b610338565b005b3480156100ef57600080fd5b5061010a60048036038101906101059190612394565b610510565b60405161011791906125ee565b60405180910390f35b61013a6004803603810190610135919061263c565b61085d565b005b34801561014857600080fd5b50610163600480360381019061015e919061268f565b610d52565b6040516101709190612706565b60405180910390f35b610193600480360381019061018e9190612728565b610f2a565b005b3480156101a157600080fd5b506101bc60048036038101906101b79190612394565b61140d565b6040516101c99190612706565b60405180910390f35b3480156101de57600080fd5b506101e76115a6565b6040516101f491906127ba565b60405180910390f35b34801561020957600080fd5b50610224600480360381019061021f9190612394565b6115b3565b6040516102319190612706565b60405180910390f35b34801561024657600080fd5b5061024f61169e565b60405161025c9190612816565b60405180910390f35b34801561027157600080fd5b5061028c6004803603810190610287919061285d565b6116c7565b005b6102a860048036038101906102a3919061288a565b611812565b6040516102b591906127ba565b60405180910390f35b3480156102ca57600080fd5b506102e560048036038101906102e0919061268f565b611a60565b6040516102f29190612706565b60405180910390f35b34801561030757600080fd5b50610322600480360381019061031d919061268f565b611a81565b60405161032f91906127ba565b60405180910390f35b60006040518060e001604052806002878154811061035957610358612961565b5b9060005260206000200160008154811061037657610375612961565b5b90600052602060002090600702016000018054610392906129bf565b80601f01602080910402602001604051908101604052809291908181526020018280546103be906129bf565b801561040b5780601f106103e05761010080835404028352916020019161040b565b820191906000526020600020905b8154815290600101906020018083116103ee57829003601f168201915b5050505050815260200185815260200184815260200183815260200160008152602001600081526020014281525090506002858154811061044f5761044e612961565b5b9060005260206000200181908060018154018082558091505060019003906000526020600020906007020160009091909190915060008201518160000190816104989190612b9c565b5060208201518160010190816104ae9190612b9c565b5060408201518160020190805190602001906104cb929190611f4c565b5060608201518160030190805190602001906104e8929190611f4c565b506080820151816004015560a0820151816005015560c0820151816006015550505050505050565b610518611fa5565b6002838154811061052c5761052b612961565b5b90600052602060002001828154811061054857610547612961565b5b90600052602060002090600702016040518060e0016040529081600082018054610571906129bf565b80601f016020809104026020016040519081016040528092919081815260200182805461059d906129bf565b80156105ea5780601f106105bf576101008083540402835291602001916105ea565b820191906000526020600020905b8154815290600101906020018083116105cd57829003601f168201915b50505050508152602001600182018054610603906129bf565b80601f016020809104026020016040519081016040528092919081815260200182805461062f906129bf565b801561067c5780601f106106515761010080835404028352916020019161067c565b820191906000526020600020905b81548152906001019060200180831161065f57829003601f168201915b5050505050815260200160028201805480602002602001604051908101604052809291908181526020016000905b828210156107565783829060005260206000200180546106c9906129bf565b80601f01602080910402602001604051908101604052809291908181526020018280546106f5906129bf565b80156107425780601f1061071757610100808354040283529160200191610742565b820191906000526020600020905b81548152906001019060200180831161072557829003601f168201915b5050505050815260200190600101906106aa565b50505050815260200160038201805480602002602001604051908101604052809291908181526020016000905b8282101561082f5783829060005260206000200180546107a2906129bf565b80601f01602080910402602001604051908101604052809291908181526020018280546107ce906129bf565b801561081b5780601f106107f05761010080835404028352916020019161081b565b820191906000526020600020905b8154815290600101906020018083116107fe57829003601f168201915b505050505081526020019060010190610783565b5050505081526020016004820154815260200160058201548152602001600682015481525050905092915050565b7fffffffffffffffffffffffffffffffffffffffffffffffffffffffffffffffff8112156108c0576040517f08c379a00000000000000000000000000000000000000000000000000000000081526004016108b790612cba565b60405180910390fd5b6001811315610904576040517f08c379a00000000000000000000000000000000000000000000000000000000081526004016108fb90612cba565b60405180910390fd5b60005b6001848154811061091b5761091a612961565b5b9060005260206000200180549050811015610bc2573373ffffffffffffffffffffffffffffffffffffffff166001858154811061095b5761095a612961565b5b90600052602060002001828154811061097757610976612961565b5b906000526020600020906003020160000160009054906101000a900473ffffffffffffffffffffffffffffffffffffffff1673ffffffffffffffffffffffffffffffffffffffff1603610baf57600184815481106109d8576109d7612961565b5b9060005260206000200181815481106109f4576109f3612961565b5b90600052602060002090600302016002015460028581548110610a1a57610a19612961565b5b9060005260206000200160018681548110610a3857610a37612961565b5b906000526020600020018381548110610a5457610a53612961565b5b90600052602060002090600302016001015481548110610a7757610a76612961565b5b90600052602060002090600702016004016000828254610a979190612d09565b9250508190555060028481548110610ab257610ab1612961565b5b9060005260206000200160018581548110610ad057610acf612961565b5b906000526020600020018281548110610aec57610aeb612961565b5b90600052602060002090600302016001015481548110610b0f57610b0e612961565b5b90600052602060002090600702016005016000815480929190610b3190612d4c565b919050555060018481548110610b4a57610b49612961565b5b906000526020600020018181548110610b6657610b65612961565b5b9060005260206000209060030201600080820160006101000a81549073ffffffffffffffffffffffffffffffffffffffff02191690556001820160009055600282016000905550505b8080610bba90612d75565b915050610907565b50600060405180606001604052803373ffffffffffffffffffffffffffffffffffffffff16815260200184815260200183815250905060018481548110610c0c57610c0b612961565b5b9060005260206000200181908060018154018082558091505060019003906000526020600020906003020160009091909190915060008201518160000160006101000a81548173ffffffffffffffffffffffffffffffffffffffff021916908373ffffffffffffffffffffffffffffffffffffffff160217905550602082015181600101556040820151816002015550508160028581548110610cb257610cb1612961565b5b906000526020600020018481548110610cce57610ccd612961565b5b90600052602060002090600702016004016000828254610cee9190612dbd565b9250508190555060028481548110610d0957610d08612961565b5b906000526020600020018381548110610d2557610d24612961565b5b90600052602060002090600702016005016000815480929190610d4790612d75565b919050555050505050565b606060005b60028381548110610d6b57610d6a612961565b5b9060005260206000200180549050811015610f2457610d8981611c22565b60028481548110610d9d57610d9c612961565b5b906000526020600020018281548110610db957610db8612961565b5b906000526020600020906007020160000160028581548110610dde57610ddd612961565b5b906000526020600020018381548110610dfa57610df9612961565b5b9060005260206000209060070201600101610e5560028781548110610e2257610e21612961565b5b906000526020600020018581548110610e3e57610e3d612961565b5b906000526020600020906007020160060154611c22565b610e9f60028881548110610e6c57610e6b612961565b5b906000526020600020018681548110610e8857610e87612961565b5b906000526020600020906007020160040154611cf0565b610ee960028981548110610eb657610eb5612961565b5b906000526020600020018781548110610ed257610ed1612961565b5b906000526020600020906007020160050154611c22565b87604051602001610f009796959493929190612f0c565b60405160208183030381529060405291508080610f1c90612d75565b915050610d57565b50919050565b60006040518060e0016040528060028781548110610f4b57610f4a612961565b5b906000526020600020018581548110610f6757610f66612961565b5b90600052602060002090600702016000018054610f83906129bf565b80601f0160208091040260200160405190810160405280929190818152602001828054610faf906129bf565b8015610ffc5780601f10610fd157610100808354040283529160200191610ffc565b820191906000526020600020905b815481529060010190602001808311610fdf57829003601f168201915b505050505081526020016002878154811061101a57611019612961565b5b90600052602060002001858154811061103657611035612961565b5b90600052602060002090600702016001018054611052906129bf565b80601f016020809104026020016040519081016040528092919081815260200182805461107e906129bf565b80156110cb5780601f106110a0576101008083540402835291602001916110cb565b820191906000526020600020905b8154815290600101906020018083116110ae57829003601f168201915b50505050508152602001600287815481106110e9576110e8612961565b5b90600052602060002001858154811061110557611104612961565b5b9060005260206000209060070201600201805480602002602001604051908101604052809291908181526020016000905b828210156111e2578382906000526020600020018054611155906129bf565b80601f0160208091040260200160405190810160405280929190818152602001828054611181906129bf565b80156111ce5780601f106111a3576101008083540402835291602001916111ce565b820191906000526020600020905b8154815290600101906020018083116111b157829003601f168201915b505050505081526020019060010190611136565b505050508152602001600287815481106111ff576111fe612961565b5b90600052602060002001858154811061121b5761121a612961565b5b9060005260206000209060070201600301805480602002602001604051908101604052809291908181526020016000905b828210156112f857838290600052602060002001805461126b906129bf565b80601f0160208091040260200160405190810160405280929190818152602001828054611297906129bf565b80156112e45780601f106112b9576101008083540402835291602001916112e4565b820191906000526020600020905b8154815290600101906020018083116112c757829003601f168201915b50505050508152602001906001019061124c565b5050505081526020016000815260200160008152602001428152509050818160400151858151811061132d5761132c612961565b5b60200260200101819052506002858154811061134c5761134b612961565b5b9060005260206000200181908060018154018082558091505060019003906000526020600020906007020160009091909190915060008201518160000190816113959190612b9c565b5060208201518160010190816113ab9190612b9c565b5060408201518160020190805190602001906113c8929190611f4c565b5060608201518160030190805190602001906113e5929190611f4c565b506080820151816004015560a0820151816005015560c0820151816006015550505050505050565b606061141882611c22565b6002848154811061142c5761142b612961565b5b90600052602060002001838154811061144857611447612961565b5b90600052602060002090600702016000016002858154811061146d5761146c612961565b5b90600052602060002001848154811061148957611488612961565b5b90600052602060002090600702016001016040516020016114ac93929190612fcb565b604051602081830303815290604052905060005b600284815481106114d4576114d3612961565b5b9060005260206000200183815481106114f0576114ef612961565b5b90600052602060002090600702016002018054905081101561159f57816002858154811061152157611520612961565b5b90600052602060002001848154811061153d5761153c612961565b5b906000526020600020906007020160020182815481106115605761155f612961565b5b9060005260206000200160405160200161157b92919061301a565b6040516020818303038152906040529150808061159790612d75565b9150506114c0565b5092915050565b6000600280549050905090565b606060005b600284815481106115cc576115cb612961565b5b9060005260206000200183815481106115e8576115e7612961565b5b906000526020600020906007020160030180549050811015611697576002848154811061161857611617612961565b5b90600052602060002001838154811061163457611633612961565b5b9060005260206000209060070201600301818154811061165757611656612961565b5b906000526020600020018260405160200161167392919061304d565b6040516020818303038152906040529150808061168f90612d75565b9150506115b8565b5092915050565b60008060009054906101000a900473ffffffffffffffffffffffffffffffffffffffff16905090565b60008054906101000a900473ffffffffffffffffffffffffffffffffffffffff1673ffffffffffffffffffffffffffffffffffffffff163373ffffffffffffffffffffffffffffffffffffffff1614611755576040517f08c379a000000000000000000000000000000000000000000000000000000000815260040161174c906130cc565b60405180910390fd5b8073ffffffffffffffffffffffffffffffffffffffff1660008054906101000a900473ffffffffffffffffffffffffffffffffffffffff1673ffffffffffffffffffffffffffffffffffffffff167f342827c97908e5e2f71151c08502a66d44b6f758e3ac2f1de95f02eb95f0a73560405160405180910390a3806000806101000a81548173ffffffffffffffffffffffffffffffffffffffff021916908373ffffffffffffffffffffffffffffffffffffffff16021790555050565b6000600a845111611858576040517f08c379a000000000000000000000000000000000000000000000000000000000815260040161184f90613138565b60405180910390fd5b600485511161189c576040517f08c379a0000000000000000000000000000000000000000000000000000000008152600401611893906131a4565b60405180910390fd5b60006040518060e00160405280878152602001868152602001858152602001848152602001600081526020016000815260200142815250905060026001816001815401808255809150500390600052602060002050506002600160028054905061190691906131c4565b8154811061191757611916612961565b5b9060005260206000200181908060018154018082558091505060019003906000526020600020906007020160009091909190915060008201518160000190816119609190612b9c565b5060208201518160010190816119769190612b9c565b506040820151816002019080519060200190611993929190611f4c565b5060608201518160030190805190602001906119b0929190611f4c565b506080820151816004015560a0820151816005015560c082015181600601555050600360008154809291906119e490612d75565b9190505550600180816001815401808255809150500390600052602060002050506001600280549050611a1791906131c4565b7ffe55c2349d62da6a9f59944b4bec1e721fb08faf486fb6758bded48f8a70ad1960405160405180910390a26001600280549050611a5591906131c4565b915050949350505050565b60606000611a6d83611a81565b9050611a79838261140d565b915050919050565b6000806000905060005b60028481548110611a9f57611a9e612961565b5b9060005260206000200180549050811015611b7f57600080611b5061271060028881548110611ad157611ad0612961565b5b906000526020600020018581548110611aed57611aec612961565b5b906000526020600020906007020160040154611b0991906131f8565b60028881548110611b1d57611b1c612961565b5b906000526020600020018581548110611b3957611b38612961565b5b906000526020600020906007020160050154611d7e565b91509150818015611b615750838112155b15611b6a578294505b50508080611b7790612d75565b915050611a8b565b5050919050565b611c1e8282604051602401611b9c929190613270565b6040516020818303038152906040527f319af333000000000000000000000000000000000000000000000000000000007bffffffffffffffffffffffffffffffffffffffffffffffffffffffff19166020820180517bffffffffffffffffffffffffffffffffffffffffffffffffffffffff8381831617835250505050611db4565b5050565b606060006001611c3184611ddd565b01905060008167ffffffffffffffff811115611c5057611c4f6120c8565b5b6040519080825280601f01601f191660200182016040528015611c825781602001600182028036833780820191505090505b509050600082602001820190505b600115611ce5578080600190039150507f3031323334353637383961626364656600000000000000000000000000000000600a86061a8153600a8581611cd957611cd86132a0565b5b04945060008503611c90575b819350505050919050565b606060008212611d0f5760405180602001604052806000815250611d46565b6040518060400160405280600181526020017f2d000000000000000000000000000000000000000000000000000000000000008152505b611d57611d5284611f30565b611c22565b604051602001611d689291906132cf565b6040516020818303038152906040529050919050565b60008060008303611d955760008091509150611dad565b6001838581611da757611da66132a0565b5b05915091505b9250929050565b60008151905060006a636f6e736f6c652e6c6f679050602083016000808483855afa5050505050565b600080600090507a184f03e93ff9f4daa797ed6e38ed64bf6a1f0100000000000000008310611e3b577a184f03e93ff9f4daa797ed6e38ed64bf6a1f0100000000000000008381611e3157611e306132a0565b5b0492506040810190505b6d04ee2d6d415b85acef81000000008310611e78576d04ee2d6d415b85acef81000000008381611e6e57611e6d6132a0565b5b0492506020810190505b662386f26fc100008310611ea757662386f26fc100008381611e9d57611e9c6132a0565b5b0492506010810190505b6305f5e1008310611ed0576305f5e1008381611ec657611ec56132a0565b5b0492506008810190505b6127108310611ef5576127108381611eeb57611eea6132a0565b5b0492506004810190505b60648310611f185760648381611f0e57611f0d6132a0565b5b0492506002810190505b600a8310611f27576001810190505b80915050919050565b600080821215611f435781600003611f45565b815b9050919050565b828054828255906000526020600020908101928215611f94579160200282015b82811115611f93578251829081611f839190612b9c565b5091602001919060010190611f6c565b5b509050611fa19190611fe2565b5090565b6040518060e00160405280606081526020016060815260200160608152602001606081526020016000815260200160008152602001600081525090565b5b808211156120025760008181611ff99190612006565b50600101611fe3565b5090565b508054612012906129bf565b6000825580601f106120245750612043565b601f0160209004906000526020600020908101906120429190612046565b5b50565b5b8082111561205f576000816000905550600101612047565b5090565b6000604051905090565b600080fd5b600080fd5b6000819050919050565b61208a81612077565b811461209557600080fd5b50565b6000813590506120a781612081565b92915050565b600080fd5b600080fd5b6000601f19601f8301169050919050565b7f4e487b7100000000000000000000000000000000000000000000000000000000600052604160045260246000fd5b612100826120b7565b810181811067ffffffffffffffff8211171561211f5761211e6120c8565b5b80604052505050565b6000612132612063565b905061213e82826120f7565b919050565b600067ffffffffffffffff82111561215e5761215d6120c8565b5b612167826120b7565b9050602081019050919050565b82818337600083830152505050565b600061219661219184612143565b612128565b9050828152602081018484840111156121b2576121b16120b2565b5b6121bd848285612174565b509392505050565b600082601f8301126121da576121d96120ad565b5b81356121ea848260208601612183565b91505092915050565b600067ffffffffffffffff82111561220e5761220d6120c8565b5b602082029050602081019050919050565b600080fd5b6000612237612232846121f3565b612128565b9050808382526020820190506020840283018581111561225a5761225961221f565b5b835b818110156122a157803567ffffffffffffffff81111561227f5761227e6120ad565b5b80860161228c89826121c5565b8552602085019450505060208101905061225c565b5050509392505050565b600082601f8301126122c0576122bf6120ad565b5b81356122d0848260208601612224565b91505092915050565b600080600080608085870312156122f3576122f261206d565b5b600061230187828801612098565b945050602085013567ffffffffffffffff81111561232257612321612072565b5b61232e878288016121c5565b935050604085013567ffffffffffffffff81111561234f5761234e612072565b5b61235b878288016122ab565b925050606085013567ffffffffffffffff81111561237c5761237b612072565b5b612388878288016122ab565b91505092959194509250565b600080604083850312156123ab576123aa61206d565b5b60006123b985828601612098565b92505060206123ca85828601612098565b9150509250929050565b600081519050919050565b600082825260208201905092915050565b60005b8381101561240e5780820151818401526020810190506123f3565b60008484015250505050565b6000612425826123d4565b61242f81856123df565b935061243f8185602086016123f0565b612448816120b7565b840191505092915050565b600081519050919050565b600082825260208201905092915050565b6000819050602082019050919050565b600061248b838361241a565b905092915050565b6000602082019050919050565b60006124ab82612453565b6124b5818561245e565b9350836020820285016124c78561246f565b8060005b8581101561250357848403895281516124e4858261247f565b94506124ef83612493565b925060208a019950506001810190506124cb565b50829750879550505050505092915050565b6000819050919050565b61252881612515565b82525050565b61253781612077565b82525050565b600060e083016000830151848203600086015261255a828261241a565b91505060208301518482036020860152612574828261241a565b9150506040830151848203604086015261258e82826124a0565b915050606083015184820360608601526125a882826124a0565b91505060808301516125bd608086018261251f565b5060a08301516125d060a086018261252e565b5060c08301516125e360c086018261252e565b508091505092915050565b60006020820190508181036000830152612608818461253d565b905092915050565b61261981612515565b811461262457600080fd5b50565b60008135905061263681612610565b92915050565b6000806000606084860312156126555761265461206d565b5b600061266386828701612098565b935050602061267486828701612098565b925050604061268586828701612627565b9150509250925092565b6000602082840312156126a5576126a461206d565b5b60006126b384828501612098565b91505092915050565b600082825260208201905092915050565b60006126d8826123d4565b6126e281856126bc565b93506126f28185602086016123f0565b6126fb816120b7565b840191505092915050565b6000602082019050818103600083015261272081846126cd565b905092915050565b600080600080608085870312156127425761274161206d565b5b600061275087828801612098565b945050602061276187828801612098565b935050604061277287828801612098565b925050606085013567ffffffffffffffff81111561279357612792612072565b5b61279f878288016121c5565b91505092959194509250565b6127b481612077565b82525050565b60006020820190506127cf60008301846127ab565b92915050565b600073ffffffffffffffffffffffffffffffffffffffff82169050919050565b6000612800826127d5565b9050919050565b612810816127f5565b82525050565b600060208201905061282b6000830184612807565b92915050565b61283a816127f5565b811461284557600080fd5b50565b60008135905061285781612831565b92915050565b6000602082840312156128735761287261206d565b5b600061288184828501612848565b91505092915050565b600080600080608085870312156128a4576128a361206d565b5b600085013567ffffffffffffffff8111156128c2576128c1612072565b5b6128ce878288016121c5565b945050602085013567ffffffffffffffff8111156128ef576128ee612072565b5b6128fb878288016121c5565b935050604085013567ffffffffffffffff81111561291c5761291b612072565b5b612928878288016122ab565b925050606085013567ffffffffffffffff81111561294957612948612072565b5b612955878288016122ab565b91505092959194509250565b7f4e487b7100000000000000000000000000000000000000000000000000000000600052603260045260246000fd5b7f4e487b7100000000000000000000000000000000000000000000000000000000600052602260045260246000fd5b600060028204905060018216806129d757607f821691505b6020821081036129ea576129e9612990565b5b50919050565b60008190508160005260206000209050919050565b60006020601f8301049050919050565b600082821b905092915050565b600060088302612a527fffffffffffffffffffffffffffffffffffffffffffffffffffffffffffffffff82612a15565b612a5c8683612a15565b95508019841693508086168417925050509392505050565b6000819050919050565b6000612a99612a94612a8f84612077565b612a74565b612077565b9050919050565b6000819050919050565b612ab383612a7e565b612ac7612abf82612aa0565b848454612a22565b825550505050565b600090565b612adc612acf565b612ae7818484612aaa565b505050565b5b81811015612b0b57612b00600082612ad4565b600181019050612aed565b5050565b601f821115612b5057612b21816129f0565b612b2a84612a05565b81016020851015612b39578190505b612b4d612b4585612a05565b830182612aec565b50505b505050565b600082821c905092915050565b6000612b7360001984600802612b55565b1980831691505092915050565b6000612b8c8383612b62565b9150826002028217905092915050565b612ba5826123d4565b67ffffffffffffffff811115612bbe57612bbd6120c8565b5b612bc882546129bf565b612bd3828285612b0f565b600060209050601f831160018114612c065760008415612bf4578287015190505b612bfe8582612b80565b865550612c66565b601f198416612c14866129f0565b60005b82811015612c3c57848901518255600182019150602085019450602081019050612c17565b86831015612c595784890151612c55601f891682612b62565b8355505b6001600288020188555050505b505050505050565b7f496e76616c696420766f74650000000000000000000000000000000000000000600082015250565b6000612ca4600c836126bc565b9150612caf82612c6e565b602082019050919050565b60006020820190508181036000830152612cd381612c97565b9050919050565b7f4e487b7100000000000000000000000000000000000000000000000000000000600052601160045260246000fd5b6000612d1482612515565b9150612d1f83612515565b9250828203905081811260008412168282136000851215161715612d4657612d45612cda565b5b92915050565b6000612d5782612077565b915060008203612d6a57612d69612cda565b5b600182039050919050565b6000612d8082612077565b91507fffffffffffffffffffffffffffffffffffffffffffffffffffffffffffffffff8203612db257612db1612cda565b5b600182019050919050565b6000612dc882612515565b9150612dd383612515565b925082820190508281121560008312168382126000841215161715612dfb57612dfa612cda565b5b92915050565b600081905092915050565b6000612e17826123d4565b612e218185612e01565b9350612e318185602086016123f0565b80840191505092915050565b7f2300000000000000000000000000000000000000000000000000000000000000815250565b60008154612e70816129bf565b612e7a8186612e01565b94506001821660008114612e955760018114612eaa57612edd565b60ff1983168652811515820286019350612edd565b612eb3856129f0565b60005b83811015612ed557815481890152600182019150602081019050612eb6565b838801955050505b50505092915050565b7f7c00000000000000000000000000000000000000000000000000000000000000815250565b6000612f18828a612e0c565b9150612f2382612e3d565b600182019150612f338289612e63565b9150612f3e82612e3d565b600182019150612f4e8288612e63565b9150612f5982612e3d565b600182019150612f698287612e0c565b9150612f7482612e3d565b600182019150612f848286612e0c565b9150612f8f82612e3d565b600182019150612f9f8285612e0c565b9150612faa82612ee6565b600182019150612fba8284612e0c565b915081905098975050505050505050565b6000612fd78286612e0c565b9150612fe282612e3d565b600182019150612ff28285612e63565b9150612ffd82612e3d565b60018201915061300d8284612e63565b9150819050949350505050565b60006130268285612e0c565b915061303182612e3d565b6001820191506130418284612e63565b91508190509392505050565b60006130598285612e63565b915061306482612e3d565b6001820191506130748284612e0c565b91508190509392505050565b7f43616c6c6572206973206e6f74206f776e657200000000000000000000000000600082015250565b60006130b66013836126bc565b91506130c182613080565b602082019050919050565b600060208201905081810360008301526130e5816130a9565b9050919050565b7f5465787420746f20736d616c6c00000000000000000000000000000000000000600082015250565b6000613122600d836126bc565b915061312d826130ec565b602082019050919050565b6000602082019050818103600083015261315181613115565b9050919050565b7f5465787420746f6f20736d616c6c000000000000000000000000000000000000600082015250565b600061318e600e836126bc565b915061319982613158565b602082019050919050565b600060208201905081810360008301526131bd81613181565b9050919050565b60006131cf82612077565b91506131da83612077565b92508282039050818111156131f2576131f1612cda565b5b92915050565b600061320382612515565b915061320e83612515565b925082820261321c81612515565b91507f8000000000000000000000000000000000000000000000000000000000000000841460008412161561325457613253612cda565b5b828205841483151761326957613268612cda565b5b5092915050565b6000604082019050818103600083015261328a81856126cd565b90506132996020830184612807565b9392505050565b7f4e487b7100000000000000000000000000000000000000000000000000000000600052601260045260246000fd5b60006132db8285612e0c565b91506132e78284612e0c565b9150819050939250505056fea2646970667358221220e0695ef672c197a4abe422a8116a7626d89ae8cdfc6dfaa2d9397432ac6fb05b64736f6c63430008120033",
			"opcodes": "PUSH1 0x80 PUSH1 0x40 MSTORE PUSH1 0x0 PUSH1 0x3 SSTORE CALLVALUE DUP1 ISZERO PUSH3 0x16 JUMPI PUSH1 0x0 DUP1 REVERT JUMPDEST POP PUSH3 0x63 PUSH1 0x40 MLOAD DUP1 PUSH1 0x40 ADD PUSH1 0x40 MSTORE DUP1 PUSH1 0x1B DUP2 MSTORE PUSH1 0x20 ADD PUSH32 0x4F776E657220636F6E7472616374206465706C6F7965642062793A0000000000 DUP2 MSTORE POP CALLER PUSH3 0x124 PUSH1 0x20 SHL PUSH3 0x1B86 OR PUSH1 0x20 SHR JUMP JUMPDEST CALLER PUSH1 0x0 DUP1 PUSH2 0x100 EXP DUP2 SLOAD DUP2 PUSH20 0xFFFFFFFFFFFFFFFFFFFFFFFFFFFFFFFFFFFFFFFF MUL NOT AND SWAP1 DUP4 PUSH20 0xFFFFFFFFFFFFFFFFFFFFFFFFFFFFFFFFFFFFFFFF AND MUL OR SWAP1 SSTORE POP PUSH1 0x0 DUP1 SLOAD SWAP1 PUSH2 0x100 EXP SWAP1 DIV PUSH20 0xFFFFFFFFFFFFFFFFFFFFFFFFFFFFFFFFFFFFFFFF AND PUSH20 0xFFFFFFFFFFFFFFFFFFFFFFFFFFFFFFFFFFFFFFFF AND PUSH1 0x0 PUSH20 0xFFFFFFFFFFFFFFFFFFFFFFFFFFFFFFFFFFFFFFFF AND PUSH32 0x342827C97908E5E2F71151C08502A66D44B6F758E3AC2F1DE95F02EB95F0A735 PUSH1 0x40 MLOAD PUSH1 0x40 MLOAD DUP1 SWAP2 SUB SWAP1 LOG3 PUSH3 0x306 JUMP JUMPDEST PUSH3 0x1C6 DUP3 DUP3 PUSH1 0x40 MLOAD PUSH1 0x24 ADD PUSH3 0x13D SWAP3 SWAP2 SWAP1 PUSH3 0x2D2 JUMP JUMPDEST PUSH1 0x40 MLOAD PUSH1 0x20 DUP2 DUP4 SUB SUB DUP2 MSTORE SWAP1 PUSH1 0x40 MSTORE PUSH32 0x319AF33300000000000000000000000000000000000000000000000000000000 PUSH28 0xFFFFFFFFFFFFFFFFFFFFFFFFFFFFFFFFFFFFFFFFFFFFFFFFFFFFFFFF NOT AND PUSH1 0x20 DUP3 ADD DUP1 MLOAD PUSH28 0xFFFFFFFFFFFFFFFFFFFFFFFFFFFFFFFFFFFFFFFFFFFFFFFFFFFFFFFF DUP4 DUP2 DUP4 AND OR DUP4 MSTORE POP POP POP POP PUSH3 0x1CA PUSH1 0x20 SHL PUSH1 0x20 SHR JUMP JUMPDEST POP POP JUMP JUMPDEST PUSH1 0x0 DUP2 MLOAD SWAP1 POP PUSH1 0x0 PUSH11 0x636F6E736F6C652E6C6F67 SWAP1 POP PUSH1 0x20 DUP4 ADD PUSH1 0x0 DUP1 DUP5 DUP4 DUP6 GAS STATICCALL POP POP POP POP POP JUMP JUMPDEST PUSH1 0x0 DUP2 MLOAD SWAP1 POP SWAP2 SWAP1 POP JUMP JUMPDEST PUSH1 0x0 DUP3 DUP3 MSTORE PUSH1 0x20 DUP3 ADD SWAP1 POP SWAP3 SWAP2 POP POP JUMP JUMPDEST PUSH1 0x0 JUMPDEST DUP4 DUP2 LT ISZERO PUSH3 0x22F JUMPI DUP1 DUP3 ADD MLOAD DUP2 DUP5 ADD MSTORE PUSH1 0x20 DUP2 ADD SWAP1 POP PUSH3 0x212 JUMP JUMPDEST PUSH1 0x0 DUP5 DUP5 ADD MSTORE POP POP POP POP JUMP JUMPDEST PUSH1 0x0 PUSH1 0x1F NOT PUSH1 0x1F DUP4 ADD AND SWAP1 POP SWAP2 SWAP1 POP JUMP JUMPDEST PUSH1 0x0 PUSH3 0x259 DUP3 PUSH3 0x1F3 JUMP JUMPDEST PUSH3 0x265 DUP2 DUP6 PUSH3 0x1FE JUMP JUMPDEST SWAP4 POP PUSH3 0x277 DUP2 DUP6 PUSH1 0x20 DUP7 ADD PUSH3 0x20F JUMP JUMPDEST PUSH3 0x282 DUP2 PUSH3 0x23B JUMP JUMPDEST DUP5 ADD SWAP2 POP POP SWAP3 SWAP2 POP POP JUMP JUMPDEST PUSH1 0x0 PUSH20 0xFFFFFFFFFFFFFFFFFFFFFFFFFFFFFFFFFFFFFFFF DUP3 AND SWAP1 POP SWAP2 SWAP1 POP JUMP JUMPDEST PUSH1 0x0 PUSH3 0x2BA DUP3 PUSH3 0x28D JUMP JUMPDEST SWAP1 POP SWAP2 SWAP1 POP JUMP JUMPDEST PUSH3 0x2CC DUP2 PUSH3 0x2AD JUMP JUMPDEST DUP3 MSTORE POP POP JUMP JUMPDEST PUSH1 0x0 PUSH1 0x40 DUP3 ADD SWAP1 POP DUP2 DUP2 SUB PUSH1 0x0 DUP4 ADD MSTORE PUSH3 0x2EE DUP2 DUP6 PUSH3 0x24C JUMP JUMPDEST SWAP1 POP PUSH3 0x2FF PUSH1 0x20 DUP4 ADD DUP5 PUSH3 0x2C1 JUMP JUMPDEST SWAP4 SWAP3 POP POP POP JUMP JUMPDEST PUSH2 0x3329 DUP1 PUSH3 0x316 PUSH1 0x0 CODECOPY PUSH1 0x0 RETURN INVALID PUSH1 0x80 PUSH1 0x40 MSTORE PUSH1 0x4 CALLDATASIZE LT PUSH2 0xC2 JUMPI PUSH1 0x0 CALLDATALOAD PUSH1 0xE0 SHR DUP1 PUSH4 0x6475F4FE GT PUSH2 0x7F JUMPI DUP1 PUSH4 0xA6F9DAE1 GT PUSH2 0x59 JUMPI DUP1 PUSH4 0xA6F9DAE1 EQ PUSH2 0x265 JUMPI DUP1 PUSH4 0xC1C1A377 EQ PUSH2 0x28E JUMPI DUP1 PUSH4 0xC3B53BA4 EQ PUSH2 0x2BE JUMPI DUP1 PUSH4 0xE715463C EQ PUSH2 0x2FB JUMPI PUSH2 0xC2 JUMP JUMPDEST DUP1 PUSH4 0x6475F4FE EQ PUSH2 0x1D2 JUMPI DUP1 PUSH4 0x8349166F EQ PUSH2 0x1FD JUMPI DUP1 PUSH4 0x893D20E8 EQ PUSH2 0x23A JUMPI PUSH2 0xC2 JUMP JUMPDEST DUP1 PUSH4 0x1D31245C EQ PUSH2 0xC7 JUMPI DUP1 PUSH4 0x1F88E5A9 EQ PUSH2 0xE3 JUMPI DUP1 PUSH4 0x20B7C317 EQ PUSH2 0x120 JUMPI DUP1 PUSH4 0x3EC559C6 EQ PUSH2 0x13C JUMPI DUP1 PUSH4 0x4CEF38F9 EQ PUSH2 0x179 JUMPI DUP1 PUSH4 0x6192E3E8 EQ PUSH2 0x195 JUMPI JUMPDEST PUSH1 0x0 DUP1 REVERT JUMPDEST PUSH2 0xE1 PUSH1 0x4 DUP1 CALLDATASIZE SUB DUP2 ADD SWAP1 PUSH2 0xDC SWAP2 SWAP1 PUSH2 0x22D9 JUMP JUMPDEST PUSH2 0x338 JUMP JUMPDEST STOP JUMPDEST CALLVALUE DUP1 ISZERO PUSH2 0xEF JUMPI PUSH1 0x0 DUP1 REVERT JUMPDEST POP PUSH2 0x10A PUSH1 0x4 DUP1 CALLDATASIZE SUB DUP2 ADD SWAP1 PUSH2 0x105 SWAP2 SWAP1 PUSH2 0x2394 JUMP JUMPDEST PUSH2 0x510 JUMP JUMPDEST PUSH1 0x40 MLOAD PUSH2 0x117 SWAP2 SWAP1 PUSH2 0x25EE JUMP JUMPDEST PUSH1 0x40 MLOAD DUP1 SWAP2 SUB SWAP1 RETURN JUMPDEST PUSH2 0x13A PUSH1 0x4 DUP1 CALLDATASIZE SUB DUP2 ADD SWAP1 PUSH2 0x135 SWAP2 SWAP1 PUSH2 0x263C JUMP JUMPDEST PUSH2 0x85D JUMP JUMPDEST STOP JUMPDEST CALLVALUE DUP1 ISZERO PUSH2 0x148 JUMPI PUSH1 0x0 DUP1 REVERT JUMPDEST POP PUSH2 0x163 PUSH1 0x4 DUP1 CALLDATASIZE SUB DUP2 ADD SWAP1 PUSH2 0x15E SWAP2 SWAP1 PUSH2 0x268F JUMP JUMPDEST PUSH2 0xD52 JUMP JUMPDEST PUSH1 0x40 MLOAD PUSH2 0x170 SWAP2 SWAP1 PUSH2 0x2706 JUMP JUMPDEST PUSH1 0x40 MLOAD DUP1 SWAP2 SUB SWAP1 RETURN JUMPDEST PUSH2 0x193 PUSH1 0x4 DUP1 CALLDATASIZE SUB DUP2 ADD SWAP1 PUSH2 0x18E SWAP2 SWAP1 PUSH2 0x2728 JUMP JUMPDEST PUSH2 0xF2A JUMP JUMPDEST STOP JUMPDEST CALLVALUE DUP1 ISZERO PUSH2 0x1A1 JUMPI PUSH1 0x0 DUP1 REVERT JUMPDEST POP PUSH2 0x1BC PUSH1 0x4 DUP1 CALLDATASIZE SUB DUP2 ADD SWAP1 PUSH2 0x1B7 SWAP2 SWAP1 PUSH2 0x2394 JUMP JUMPDEST PUSH2 0x140D JUMP JUMPDEST PUSH1 0x40 MLOAD PUSH2 0x1C9 SWAP2 SWAP1 PUSH2 0x2706 JUMP JUMPDEST PUSH1 0x40 MLOAD DUP1 SWAP2 SUB SWAP1 RETURN JUMPDEST CALLVALUE DUP1 ISZERO PUSH2 0x1DE JUMPI PUSH1 0x0 DUP1 REVERT JUMPDEST POP PUSH2 0x1E7 PUSH2 0x15A6 JUMP JUMPDEST PUSH1 0x40 MLOAD PUSH2 0x1F4 SWAP2 SWAP1 PUSH2 0x27BA JUMP JUMPDEST PUSH1 0x40 MLOAD DUP1 SWAP2 SUB SWAP1 RETURN JUMPDEST CALLVALUE DUP1 ISZERO PUSH2 0x209 JUMPI PUSH1 0x0 DUP1 REVERT JUMPDEST POP PUSH2 0x224 PUSH1 0x4 DUP1 CALLDATASIZE SUB DUP2 ADD SWAP1 PUSH2 0x21F SWAP2 SWAP1 PUSH2 0x2394 JUMP JUMPDEST PUSH2 0x15B3 JUMP JUMPDEST PUSH1 0x40 MLOAD PUSH2 0x231 SWAP2 SWAP1 PUSH2 0x2706 JUMP JUMPDEST PUSH1 0x40 MLOAD DUP1 SWAP2 SUB SWAP1 RETURN JUMPDEST CALLVALUE DUP1 ISZERO PUSH2 0x246 JUMPI PUSH1 0x0 DUP1 REVERT JUMPDEST POP PUSH2 0x24F PUSH2 0x169E JUMP JUMPDEST PUSH1 0x40 MLOAD PUSH2 0x25C SWAP2 SWAP1 PUSH2 0x2816 JUMP JUMPDEST PUSH1 0x40 MLOAD DUP1 SWAP2 SUB SWAP1 RETURN JUMPDEST CALLVALUE DUP1 ISZERO PUSH2 0x271 JUMPI PUSH1 0x0 DUP1 REVERT JUMPDEST POP PUSH2 0x28C PUSH1 0x4 DUP1 CALLDATASIZE SUB DUP2 ADD SWAP1 PUSH2 0x287 SWAP2 SWAP1 PUSH2 0x285D JUMP JUMPDEST PUSH2 0x16C7 JUMP JUMPDEST STOP JUMPDEST PUSH2 0x2A8 PUSH1 0x4 DUP1 CALLDATASIZE SUB DUP2 ADD SWAP1 PUSH2 0x2A3 SWAP2 SWAP1 PUSH2 0x288A JUMP JUMPDEST PUSH2 0x1812 JUMP JUMPDEST PUSH1 0x40 MLOAD PUSH2 0x2B5 SWAP2 SWAP1 PUSH2 0x27BA JUMP JUMPDEST PUSH1 0x40 MLOAD DUP1 SWAP2 SUB SWAP1 RETURN JUMPDEST CALLVALUE DUP1 ISZERO PUSH2 0x2CA JUMPI PUSH1 0x0 DUP1 REVERT JUMPDEST POP PUSH2 0x2E5 PUSH1 0x4 DUP1 CALLDATASIZE SUB DUP2 ADD SWAP1 PUSH2 0x2E0 SWAP2 SWAP1 PUSH2 0x268F JUMP JUMPDEST PUSH2 0x1A60 JUMP JUMPDEST PUSH1 0x40 MLOAD PUSH2 0x2F2 SWAP2 SWAP1 PUSH2 0x2706 JUMP JUMPDEST PUSH1 0x40 MLOAD DUP1 SWAP2 SUB SWAP1 RETURN JUMPDEST CALLVALUE DUP1 ISZERO PUSH2 0x307 JUMPI PUSH1 0x0 DUP1 REVERT JUMPDEST POP PUSH2 0x322 PUSH1 0x4 DUP1 CALLDATASIZE SUB DUP2 ADD SWAP1 PUSH2 0x31D SWAP2 SWAP1 PUSH2 0x268F JUMP JUMPDEST PUSH2 0x1A81 JUMP JUMPDEST PUSH1 0x40 MLOAD PUSH2 0x32F SWAP2 SWAP1 PUSH2 0x27BA JUMP JUMPDEST PUSH1 0x40 MLOAD DUP1 SWAP2 SUB SWAP1 RETURN JUMPDEST PUSH1 0x0 PUSH1 0x40 MLOAD DUP1 PUSH1 0xE0 ADD PUSH1 0x40 MSTORE DUP1 PUSH1 0x2 DUP8 DUP2 SLOAD DUP2 LT PUSH2 0x359 JUMPI PUSH2 0x358 PUSH2 0x2961 JUMP JUMPDEST JUMPDEST SWAP1 PUSH1 0x0 MSTORE PUSH1 0x20 PUSH1 0x0 KECCAK256 ADD PUSH1 0x0 DUP2 SLOAD DUP2 LT PUSH2 0x376 JUMPI PUSH2 0x375 PUSH2 0x2961 JUMP JUMPDEST JUMPDEST SWAP1 PUSH1 0x0 MSTORE PUSH1 0x20 PUSH1 0x0 KECCAK256 SWAP1 PUSH1 0x7 MUL ADD PUSH1 0x0 ADD DUP1 SLOAD PUSH2 0x392 SWAP1 PUSH2 0x29BF JUMP JUMPDEST DUP1 PUSH1 0x1F ADD PUSH1 0x20 DUP1 SWAP2 DIV MUL PUSH1 0x20 ADD PUSH1 0x40 MLOAD SWAP1 DUP2 ADD PUSH1 0x40 MSTORE DUP1 SWAP3 SWAP2 SWAP1 DUP2 DUP2 MSTORE PUSH1 0x20 ADD DUP3 DUP1 SLOAD PUSH2 0x3BE SWAP1 PUSH2 0x29BF JUMP JUMPDEST DUP1 ISZERO PUSH2 0x40B JUMPI DUP1 PUSH1 0x1F LT PUSH2 0x3E0 JUMPI PUSH2 0x100 DUP1 DUP4 SLOAD DIV MUL DUP4 MSTORE SWAP2 PUSH1 0x20 ADD SWAP2 PUSH2 0x40B JUMP JUMPDEST DUP3 ADD SWAP2 SWAP1 PUSH1 0x0 MSTORE PUSH1 0x20 PUSH1 0x0 KECCAK256 SWAP1 JUMPDEST DUP2 SLOAD DUP2 MSTORE SWAP1 PUSH1 0x1 ADD SWAP1 PUSH1 0x20 ADD DUP1 DUP4 GT PUSH2 0x3EE JUMPI DUP3 SWAP1 SUB PUSH1 0x1F AND DUP3 ADD SWAP2 JUMPDEST POP POP POP POP POP DUP2 MSTORE PUSH1 0x20 ADD DUP6 DUP2 MSTORE PUSH1 0x20 ADD DUP5 DUP2 MSTORE PUSH1 0x20 ADD DUP4 DUP2 MSTORE PUSH1 0x20 ADD PUSH1 0x0 DUP2 MSTORE PUSH1 0x20 ADD PUSH1 0x0 DUP2 MSTORE PUSH1 0x20 ADD TIMESTAMP DUP2 MSTORE POP SWAP1 POP PUSH1 0x2 DUP6 DUP2 SLOAD DUP2 LT PUSH2 0x44F JUMPI PUSH2 0x44E PUSH2 0x2961 JUMP JUMPDEST JUMPDEST SWAP1 PUSH1 0x0 MSTORE PUSH1 0x20 PUSH1 0x0 KECCAK256 ADD DUP2 SWAP1 DUP1 PUSH1 0x1 DUP2 SLOAD ADD DUP1 DUP3 SSTORE DUP1 SWAP2 POP POP PUSH1 0x1 SWAP1 SUB SWAP1 PUSH1 0x0 MSTORE PUSH1 0x20 PUSH1 0x0 KECCAK256 SWAP1 PUSH1 0x7 MUL ADD PUSH1 0x0 SWAP1 SWAP2 SWAP1 SWAP2 SWAP1 SWAP2 POP PUSH1 0x0 DUP3 ADD MLOAD DUP2 PUSH1 0x0 ADD SWAP1 DUP2 PUSH2 0x498 SWAP2 SWAP1 PUSH2 0x2B9C JUMP JUMPDEST POP PUSH1 0x20 DUP3 ADD MLOAD DUP2 PUSH1 0x1 ADD SWAP1 DUP2 PUSH2 0x4AE SWAP2 SWAP1 PUSH2 0x2B9C JUMP JUMPDEST POP PUSH1 0x40 DUP3 ADD MLOAD DUP2 PUSH1 0x2 ADD SWAP1 DUP1 MLOAD SWAP1 PUSH1 0x20 ADD SWAP1 PUSH2 0x4CB SWAP3 SWAP2 SWAP1 PUSH2 0x1F4C JUMP JUMPDEST POP PUSH1 0x60 DUP3 ADD MLOAD DUP2 PUSH1 0x3 ADD SWAP1 DUP1 MLOAD SWAP1 PUSH1 0x20 ADD SWAP1 PUSH2 0x4E8 SWAP3 SWAP2 SWAP1 PUSH2 0x1F4C JUMP JUMPDEST POP PUSH1 0x80 DUP3 ADD MLOAD DUP2 PUSH1 0x4 ADD SSTORE PUSH1 0xA0 DUP3 ADD MLOAD DUP2 PUSH1 0x5 ADD SSTORE PUSH1 0xC0 DUP3 ADD MLOAD DUP2 PUSH1 0x6 ADD SSTORE POP POP POP POP POP POP POP JUMP JUMPDEST PUSH2 0x518 PUSH2 0x1FA5 JUMP JUMPDEST PUSH1 0x2 DUP4 DUP2 SLOAD DUP2 LT PUSH2 0x52C JUMPI PUSH2 0x52B PUSH2 0x2961 JUMP JUMPDEST JUMPDEST SWAP1 PUSH1 0x0 MSTORE PUSH1 0x20 PUSH1 0x0 KECCAK256 ADD DUP3 DUP2 SLOAD DUP2 LT PUSH2 0x548 JUMPI PUSH2 0x547 PUSH2 0x2961 JUMP JUMPDEST JUMPDEST SWAP1 PUSH1 0x0 MSTORE PUSH1 0x20 PUSH1 0x0 KECCAK256 SWAP1 PUSH1 0x7 MUL ADD PUSH1 0x40 MLOAD DUP1 PUSH1 0xE0 ADD PUSH1 0x40 MSTORE SWAP1 DUP2 PUSH1 0x0 DUP3 ADD DUP1 SLOAD PUSH2 0x571 SWAP1 PUSH2 0x29BF JUMP JUMPDEST DUP1 PUSH1 0x1F ADD PUSH1 0x20 DUP1 SWAP2 DIV MUL PUSH1 0x20 ADD PUSH1 0x40 MLOAD SWAP1 DUP2 ADD PUSH1 0x40 MSTORE DUP1 SWAP3 SWAP2 SWAP1 DUP2 DUP2 MSTORE PUSH1 0x20 ADD DUP3 DUP1 SLOAD PUSH2 0x59D SWAP1 PUSH2 0x29BF JUMP JUMPDEST DUP1 ISZERO PUSH2 0x5EA JUMPI DUP1 PUSH1 0x1F LT PUSH2 0x5BF JUMPI PUSH2 0x100 DUP1 DUP4 SLOAD DIV MUL DUP4 MSTORE SWAP2 PUSH1 0x20 ADD SWAP2 PUSH2 0x5EA JUMP JUMPDEST DUP3 ADD SWAP2 SWAP1 PUSH1 0x0 MSTORE PUSH1 0x20 PUSH1 0x0 KECCAK256 SWAP1 JUMPDEST DUP2 SLOAD DUP2 MSTORE SWAP1 PUSH1 0x1 ADD SWAP1 PUSH1 0x20 ADD DUP1 DUP4 GT PUSH2 0x5CD JUMPI DUP3 SWAP1 SUB PUSH1 0x1F AND DUP3 ADD SWAP2 JUMPDEST POP POP POP POP POP DUP2 MSTORE PUSH1 0x20 ADD PUSH1 0x1 DUP3 ADD DUP1 SLOAD PUSH2 0x603 SWAP1 PUSH2 0x29BF JUMP JUMPDEST DUP1 PUSH1 0x1F ADD PUSH1 0x20 DUP1 SWAP2 DIV MUL PUSH1 0x20 ADD PUSH1 0x40 MLOAD SWAP1 DUP2 ADD PUSH1 0x40 MSTORE DUP1 SWAP3 SWAP2 SWAP1 DUP2 DUP2 MSTORE PUSH1 0x20 ADD DUP3 DUP1 SLOAD PUSH2 0x62F SWAP1 PUSH2 0x29BF JUMP JUMPDEST DUP1 ISZERO PUSH2 0x67C JUMPI DUP1 PUSH1 0x1F LT PUSH2 0x651 JUMPI PUSH2 0x100 DUP1 DUP4 SLOAD DIV MUL DUP4 MSTORE SWAP2 PUSH1 0x20 ADD SWAP2 PUSH2 0x67C JUMP JUMPDEST DUP3 ADD SWAP2 SWAP1 PUSH1 0x0 MSTORE PUSH1 0x20 PUSH1 0x0 KECCAK256 SWAP1 JUMPDEST DUP2 SLOAD DUP2 MSTORE SWAP1 PUSH1 0x1 ADD SWAP1 PUSH1 0x20 ADD DUP1 DUP4 GT PUSH2 0x65F JUMPI DUP3 SWAP1 SUB PUSH1 0x1F AND DUP3 ADD SWAP2 JUMPDEST POP POP POP POP POP DUP2 MSTORE PUSH1 0x20 ADD PUSH1 0x2 DUP3 ADD DUP1 SLOAD DUP1 PUSH1 0x20 MUL PUSH1 0x20 ADD PUSH1 0x40 MLOAD SWAP1 DUP2 ADD PUSH1 0x40 MSTORE DUP1 SWAP3 SWAP2 SWAP1 DUP2 DUP2 MSTORE PUSH1 0x20 ADD PUSH1 0x0 SWAP1 JUMPDEST DUP3 DUP3 LT ISZERO PUSH2 0x756 JUMPI DUP4 DUP3 SWAP1 PUSH1 0x0 MSTORE PUSH1 0x20 PUSH1 0x0 KECCAK256 ADD DUP1 SLOAD PUSH2 0x6C9 SWAP1 PUSH2 0x29BF JUMP JUMPDEST DUP1 PUSH1 0x1F ADD PUSH1 0x20 DUP1 SWAP2 DIV MUL PUSH1 0x20 ADD PUSH1 0x40 MLOAD SWAP1 DUP2 ADD PUSH1 0x40 MSTORE DUP1 SWAP3 SWAP2 SWAP1 DUP2 DUP2 MSTORE PUSH1 0x20 ADD DUP3 DUP1 SLOAD PUSH2 0x6F5 SWAP1 PUSH2 0x29BF JUMP JUMPDEST DUP1 ISZERO PUSH2 0x742 JUMPI DUP1 PUSH1 0x1F LT PUSH2 0x717 JUMPI PUSH2 0x100 DUP1 DUP4 SLOAD DIV MUL DUP4 MSTORE SWAP2 PUSH1 0x20 ADD SWAP2 PUSH2 0x742 JUMP JUMPDEST DUP3 ADD SWAP2 SWAP1 PUSH1 0x0 MSTORE PUSH1 0x20 PUSH1 0x0 KECCAK256 SWAP1 JUMPDEST DUP2 SLOAD DUP2 MSTORE SWAP1 PUSH1 0x1 ADD SWAP1 PUSH1 0x20 ADD DUP1 DUP4 GT PUSH2 0x725 JUMPI DUP3 SWAP1 SUB PUSH1 0x1F AND DUP3 ADD SWAP2 JUMPDEST POP POP POP POP POP DUP2 MSTORE PUSH1 0x20 ADD SWAP1 PUSH1 0x1 ADD SWAP1 PUSH2 0x6AA JUMP JUMPDEST POP POP POP POP DUP2 MSTORE PUSH1 0x20 ADD PUSH1 0x3 DUP3 ADD DUP1 SLOAD DUP1 PUSH1 0x20 MUL PUSH1 0x20 ADD PUSH1 0x40 MLOAD SWAP1 DUP2 ADD PUSH1 0x40 MSTORE DUP1 SWAP3 SWAP2 SWAP1 DUP2 DUP2 MSTORE PUSH1 0x20 ADD PUSH1 0x0 SWAP1 JUMPDEST DUP3 DUP3 LT ISZERO PUSH2 0x82F JUMPI DUP4 DUP3 SWAP1 PUSH1 0x0 MSTORE PUSH1 0x20 PUSH1 0x0 KECCAK256 ADD DUP1 SLOAD PUSH2 0x7A2 SWAP1 PUSH2 0x29BF JUMP JUMPDEST DUP1 PUSH1 0x1F ADD PUSH1 0x20 DUP1 SWAP2 DIV MUL PUSH1 0x20 ADD PUSH1 0x40 MLOAD SWAP1 DUP2 ADD PUSH1 0x40 MSTORE DUP1 SWAP3 SWAP2 SWAP1 DUP2 DUP2 MSTORE PUSH1 0x20 ADD DUP3 DUP1 SLOAD PUSH2 0x7CE SWAP1 PUSH2 0x29BF JUMP JUMPDEST DUP1 ISZERO PUSH2 0x81B JUMPI DUP1 PUSH1 0x1F LT PUSH2 0x7F0 JUMPI PUSH2 0x100 DUP1 DUP4 SLOAD DIV MUL DUP4 MSTORE SWAP2 PUSH1 0x20 ADD SWAP2 PUSH2 0x81B JUMP JUMPDEST DUP3 ADD SWAP2 SWAP1 PUSH1 0x0 MSTORE PUSH1 0x20 PUSH1 0x0 KECCAK256 SWAP1 JUMPDEST DUP2 SLOAD DUP2 MSTORE SWAP1 PUSH1 0x1 ADD SWAP1 PUSH1 0x20 ADD DUP1 DUP4 GT PUSH2 0x7FE JUMPI DUP3 SWAP1 SUB PUSH1 0x1F AND DUP3 ADD SWAP2 JUMPDEST POP POP POP POP POP DUP2 MSTORE PUSH1 0x20 ADD SWAP1 PUSH1 0x1 ADD SWAP1 PUSH2 0x783 JUMP JUMPDEST POP POP POP POP DUP2 MSTORE PUSH1 0x20 ADD PUSH1 0x4 DUP3 ADD SLOAD DUP2 MSTORE PUSH1 0x20 ADD PUSH1 0x5 DUP3 ADD SLOAD DUP2 MSTORE PUSH1 0x20 ADD PUSH1 0x6 DUP3 ADD SLOAD DUP2 MSTORE POP POP SWAP1 POP SWAP3 SWAP2 POP POP JUMP JUMPDEST PUSH32 0xFFFFFFFFFFFFFFFFFFFFFFFFFFFFFFFFFFFFFFFFFFFFFFFFFFFFFFFFFFFFFFFF DUP2 SLT ISZERO PUSH2 0x8C0 JUMPI PUSH1 0x40 MLOAD PUSH32 0x8C379A000000000000000000000000000000000000000000000000000000000 DUP2 MSTORE PUSH1 0x4 ADD PUSH2 0x8B7 SWAP1 PUSH2 0x2CBA JUMP JUMPDEST PUSH1 0x40 MLOAD DUP1 SWAP2 SUB SWAP1 REVERT JUMPDEST PUSH1 0x1 DUP2 SGT ISZERO PUSH2 0x904 JUMPI PUSH1 0x40 MLOAD PUSH32 0x8C379A000000000000000000000000000000000000000000000000000000000 DUP2 MSTORE PUSH1 0x4 ADD PUSH2 0x8FB SWAP1 PUSH2 0x2CBA JUMP JUMPDEST PUSH1 0x40 MLOAD DUP1 SWAP2 SUB SWAP1 REVERT JUMPDEST PUSH1 0x0 JUMPDEST PUSH1 0x1 DUP5 DUP2 SLOAD DUP2 LT PUSH2 0x91B JUMPI PUSH2 0x91A PUSH2 0x2961 JUMP JUMPDEST JUMPDEST SWAP1 PUSH1 0x0 MSTORE PUSH1 0x20 PUSH1 0x0 KECCAK256 ADD DUP1 SLOAD SWAP1 POP DUP2 LT ISZERO PUSH2 0xBC2 JUMPI CALLER PUSH20 0xFFFFFFFFFFFFFFFFFFFFFFFFFFFFFFFFFFFFFFFF AND PUSH1 0x1 DUP6 DUP2 SLOAD DUP2 LT PUSH2 0x95B JUMPI PUSH2 0x95A PUSH2 0x2961 JUMP JUMPDEST JUMPDEST SWAP1 PUSH1 0x0 MSTORE PUSH1 0x20 PUSH1 0x0 KECCAK256 ADD DUP3 DUP2 SLOAD DUP2 LT PUSH2 0x977 JUMPI PUSH2 0x976 PUSH2 0x2961 JUMP JUMPDEST JUMPDEST SWAP1 PUSH1 0x0 MSTORE PUSH1 0x20 PUSH1 0x0 KECCAK256 SWAP1 PUSH1 0x3 MUL ADD PUSH1 0x0 ADD PUSH1 0x0 SWAP1 SLOAD SWAP1 PUSH2 0x100 EXP SWAP1 DIV PUSH20 0xFFFFFFFFFFFFFFFFFFFFFFFFFFFFFFFFFFFFFFFF AND PUSH20 0xFFFFFFFFFFFFFFFFFFFFFFFFFFFFFFFFFFFFFFFF AND SUB PUSH2 0xBAF JUMPI PUSH1 0x1 DUP5 DUP2 SLOAD DUP2 LT PUSH2 0x9D8 JUMPI PUSH2 0x9D7 PUSH2 0x2961 JUMP JUMPDEST JUMPDEST SWAP1 PUSH1 0x0 MSTORE PUSH1 0x20 PUSH1 0x0 KECCAK256 ADD DUP2 DUP2 SLOAD DUP2 LT PUSH2 0x9F4 JUMPI PUSH2 0x9F3 PUSH2 0x2961 JUMP JUMPDEST JUMPDEST SWAP1 PUSH1 0x0 MSTORE PUSH1 0x20 PUSH1 0x0 KECCAK256 SWAP1 PUSH1 0x3 MUL ADD PUSH1 0x2 ADD SLOAD PUSH1 0x2 DUP6 DUP2 SLOAD DUP2 LT PUSH2 0xA1A JUMPI PUSH2 0xA19 PUSH2 0x2961 JUMP JUMPDEST JUMPDEST SWAP1 PUSH1 0x0 MSTORE PUSH1 0x20 PUSH1 0x0 KECCAK256 ADD PUSH1 0x1 DUP7 DUP2 SLOAD DUP2 LT PUSH2 0xA38 JUMPI PUSH2 0xA37 PUSH2 0x2961 JUMP JUMPDEST JUMPDEST SWAP1 PUSH1 0x0 MSTORE PUSH1 0x20 PUSH1 0x0 KECCAK256 ADD DUP4 DUP2 SLOAD DUP2 LT PUSH2 0xA54 JUMPI PUSH2 0xA53 PUSH2 0x2961 JUMP JUMPDEST JUMPDEST SWAP1 PUSH1 0x0 MSTORE PUSH1 0x20 PUSH1 0x0 KECCAK256 SWAP1 PUSH1 0x3 MUL ADD PUSH1 0x1 ADD SLOAD DUP2 SLOAD DUP2 LT PUSH2 0xA77 JUMPI PUSH2 0xA76 PUSH2 0x2961 JUMP JUMPDEST JUMPDEST SWAP1 PUSH1 0x0 MSTORE PUSH1 0x20 PUSH1 0x0 KECCAK256 SWAP1 PUSH1 0x7 MUL ADD PUSH1 0x4 ADD PUSH1 0x0 DUP3 DUP3 SLOAD PUSH2 0xA97 SWAP2 SWAP1 PUSH2 0x2D09 JUMP JUMPDEST SWAP3 POP POP DUP2 SWAP1 SSTORE POP PUSH1 0x2 DUP5 DUP2 SLOAD DUP2 LT PUSH2 0xAB2 JUMPI PUSH2 0xAB1 PUSH2 0x2961 JUMP JUMPDEST JUMPDEST SWAP1 PUSH1 0x0 MSTORE PUSH1 0x20 PUSH1 0x0 KECCAK256 ADD PUSH1 0x1 DUP6 DUP2 SLOAD DUP2 LT PUSH2 0xAD0 JUMPI PUSH2 0xACF PUSH2 0x2961 JUMP JUMPDEST JUMPDEST SWAP1 PUSH1 0x0 MSTORE PUSH1 0x20 PUSH1 0x0 KECCAK256 ADD DUP3 DUP2 SLOAD DUP2 LT PUSH2 0xAEC JUMPI PUSH2 0xAEB PUSH2 0x2961 JUMP JUMPDEST JUMPDEST SWAP1 PUSH1 0x0 MSTORE PUSH1 0x20 PUSH1 0x0 KECCAK256 SWAP1 PUSH1 0x3 MUL ADD PUSH1 0x1 ADD SLOAD DUP2 SLOAD DUP2 LT PUSH2 0xB0F JUMPI PUSH2 0xB0E PUSH2 0x2961 JUMP JUMPDEST JUMPDEST SWAP1 PUSH1 0x0 MSTORE PUSH1 0x20 PUSH1 0x0 KECCAK256 SWAP1 PUSH1 0x7 MUL ADD PUSH1 0x5 ADD PUSH1 0x0 DUP2 SLOAD DUP1 SWAP3 SWAP2 SWAP1 PUSH2 0xB31 SWAP1 PUSH2 0x2D4C JUMP JUMPDEST SWAP2 SWAP1 POP SSTORE POP PUSH1 0x1 DUP5 DUP2 SLOAD DUP2 LT PUSH2 0xB4A JUMPI PUSH2 0xB49 PUSH2 0x2961 JUMP JUMPDEST JUMPDEST SWAP1 PUSH1 0x0 MSTORE PUSH1 0x20 PUSH1 0x0 KECCAK256 ADD DUP2 DUP2 SLOAD DUP2 LT PUSH2 0xB66 JUMPI PUSH2 0xB65 PUSH2 0x2961 JUMP JUMPDEST JUMPDEST SWAP1 PUSH1 0x0 MSTORE PUSH1 0x20 PUSH1 0x0 KECCAK256 SWAP1 PUSH1 0x3 MUL ADD PUSH1 0x0 DUP1 DUP3 ADD PUSH1 0x0 PUSH2 0x100 EXP DUP2 SLOAD SWAP1 PUSH20 0xFFFFFFFFFFFFFFFFFFFFFFFFFFFFFFFFFFFFFFFF MUL NOT AND SWAP1 SSTORE PUSH1 0x1 DUP3 ADD PUSH1 0x0 SWAP1 SSTORE PUSH1 0x2 DUP3 ADD PUSH1 0x0 SWAP1 SSTORE POP POP JUMPDEST DUP1 DUP1 PUSH2 0xBBA SWAP1 PUSH2 0x2D75 JUMP JUMPDEST SWAP2 POP POP PUSH2 0x907 JUMP JUMPDEST POP PUSH1 0x0 PUSH1 0x40 MLOAD DUP1 PUSH1 0x60 ADD PUSH1 0x40 MSTORE DUP1 CALLER PUSH20 0xFFFFFFFFFFFFFFFFFFFFFFFFFFFFFFFFFFFFFFFF AND DUP2 MSTORE PUSH1 0x20 ADD DUP5 DUP2 MSTORE PUSH1 0x20 ADD DUP4 DUP2 MSTORE POP SWAP1 POP PUSH1 0x1 DUP5 DUP2 SLOAD DUP2 LT PUSH2 0xC0C JUMPI PUSH2 0xC0B PUSH2 0x2961 JUMP JUMPDEST JUMPDEST SWAP1 PUSH1 0x0 MSTORE PUSH1 0x20 PUSH1 0x0 KECCAK256 ADD DUP2 SWAP1 DUP1 PUSH1 0x1 DUP2 SLOAD ADD DUP1 DUP3 SSTORE DUP1 SWAP2 POP POP PUSH1 0x1 SWAP1 SUB SWAP1 PUSH1 0x0 MSTORE PUSH1 0x20 PUSH1 0x0 KECCAK256 SWAP1 PUSH1 0x3 MUL ADD PUSH1 0x0 SWAP1 SWAP2 SWAP1 SWAP2 SWAP1 SWAP2 POP PUSH1 0x0 DUP3 ADD MLOAD DUP2 PUSH1 0x0 ADD PUSH1 0x0 PUSH2 0x100 EXP DUP2 SLOAD DUP2 PUSH20 0xFFFFFFFFFFFFFFFFFFFFFFFFFFFFFFFFFFFFFFFF MUL NOT AND SWAP1 DUP4 PUSH20 0xFFFFFFFFFFFFFFFFFFFFFFFFFFFFFFFFFFFFFFFF AND MUL OR SWAP1 SSTORE POP PUSH1 0x20 DUP3 ADD MLOAD DUP2 PUSH1 0x1 ADD SSTORE PUSH1 0x40 DUP3 ADD MLOAD DUP2 PUSH1 0x2 ADD SSTORE POP POP DUP2 PUSH1 0x2 DUP6 DUP2 SLOAD DUP2 LT PUSH2 0xCB2 JUMPI PUSH2 0xCB1 PUSH2 0x2961 JUMP JUMPDEST JUMPDEST SWAP1 PUSH1 0x0 MSTORE PUSH1 0x20 PUSH1 0x0 KECCAK256 ADD DUP5 DUP2 SLOAD DUP2 LT PUSH2 0xCCE JUMPI PUSH2 0xCCD PUSH2 0x2961 JUMP JUMPDEST JUMPDEST SWAP1 PUSH1 0x0 MSTORE PUSH1 0x20 PUSH1 0x0 KECCAK256 SWAP1 PUSH1 0x7 MUL ADD PUSH1 0x4 ADD PUSH1 0x0 DUP3 DUP3 SLOAD PUSH2 0xCEE SWAP2 SWAP1 PUSH2 0x2DBD JUMP JUMPDEST SWAP3 POP POP DUP2 SWAP1 SSTORE POP PUSH1 0x2 DUP5 DUP2 SLOAD DUP2 LT PUSH2 0xD09 JUMPI PUSH2 0xD08 PUSH2 0x2961 JUMP JUMPDEST JUMPDEST SWAP1 PUSH1 0x0 MSTORE PUSH1 0x20 PUSH1 0x0 KECCAK256 ADD DUP4 DUP2 SLOAD DUP2 LT PUSH2 0xD25 JUMPI PUSH2 0xD24 PUSH2 0x2961 JUMP JUMPDEST JUMPDEST SWAP1 PUSH1 0x0 MSTORE PUSH1 0x20 PUSH1 0x0 KECCAK256 SWAP1 PUSH1 0x7 MUL ADD PUSH1 0x5 ADD PUSH1 0x0 DUP2 SLOAD DUP1 SWAP3 SWAP2 SWAP1 PUSH2 0xD47 SWAP1 PUSH2 0x2D75 JUMP JUMPDEST SWAP2 SWAP1 POP SSTORE POP POP POP POP POP JUMP JUMPDEST PUSH1 0x60 PUSH1 0x0 JUMPDEST PUSH1 0x2 DUP4 DUP2 SLOAD DUP2 LT PUSH2 0xD6B JUMPI PUSH2 0xD6A PUSH2 0x2961 JUMP JUMPDEST JUMPDEST SWAP1 PUSH1 0x0 MSTORE PUSH1 0x20 PUSH1 0x0 KECCAK256 ADD DUP1 SLOAD SWAP1 POP DUP2 LT ISZERO PUSH2 0xF24 JUMPI PUSH2 0xD89 DUP2 PUSH2 0x1C22 JUMP JUMPDEST PUSH1 0x2 DUP5 DUP2 SLOAD DUP2 LT PUSH2 0xD9D JUMPI PUSH2 0xD9C PUSH2 0x2961 JUMP JUMPDEST JUMPDEST SWAP1 PUSH1 0x0 MSTORE PUSH1 0x20 PUSH1 0x0 KECCAK256 ADD DUP3 DUP2 SLOAD DUP2 LT PUSH2 0xDB9 JUMPI PUSH2 0xDB8 PUSH2 0x2961 JUMP JUMPDEST JUMPDEST SWAP1 PUSH1 0x0 MSTORE PUSH1 0x20 PUSH1 0x0 KECCAK256 SWAP1 PUSH1 0x7 MUL ADD PUSH1 0x0 ADD PUSH1 0x2 DUP6 DUP2 SLOAD DUP2 LT PUSH2 0xDDE JUMPI PUSH2 0xDDD PUSH2 0x2961 JUMP JUMPDEST JUMPDEST SWAP1 PUSH1 0x0 MSTORE PUSH1 0x20 PUSH1 0x0 KECCAK256 ADD DUP4 DUP2 SLOAD DUP2 LT PUSH2 0xDFA JUMPI PUSH2 0xDF9 PUSH2 0x2961 JUMP JUMPDEST JUMPDEST SWAP1 PUSH1 0x0 MSTORE PUSH1 0x20 PUSH1 0x0 KECCAK256 SWAP1 PUSH1 0x7 MUL ADD PUSH1 0x1 ADD PUSH2 0xE55 PUSH1 0x2 DUP8 DUP2 SLOAD DUP2 LT PUSH2 0xE22 JUMPI PUSH2 0xE21 PUSH2 0x2961 JUMP JUMPDEST JUMPDEST SWAP1 PUSH1 0x0 MSTORE PUSH1 0x20 PUSH1 0x0 KECCAK256 ADD DUP6 DUP2 SLOAD DUP2 LT PUSH2 0xE3E JUMPI PUSH2 0xE3D PUSH2 0x2961 JUMP JUMPDEST JUMPDEST SWAP1 PUSH1 0x0 MSTORE PUSH1 0x20 PUSH1 0x0 KECCAK256 SWAP1 PUSH1 0x7 MUL ADD PUSH1 0x6 ADD SLOAD PUSH2 0x1C22 JUMP JUMPDEST PUSH2 0xE9F PUSH1 0x2 DUP9 DUP2 SLOAD DUP2 LT PUSH2 0xE6C JUMPI PUSH2 0xE6B PUSH2 0x2961 JUMP JUMPDEST JUMPDEST SWAP1 PUSH1 0x0 MSTORE PUSH1 0x20 PUSH1 0x0 KECCAK256 ADD DUP7 DUP2 SLOAD DUP2 LT PUSH2 0xE88 JUMPI PUSH2 0xE87 PUSH2 0x2961 JUMP JUMPDEST JUMPDEST SWAP1 PUSH1 0x0 MSTORE PUSH1 0x20 PUSH1 0x0 KECCAK256 SWAP1 PUSH1 0x7 MUL ADD PUSH1 0x4 ADD SLOAD PUSH2 0x1CF0 JUMP JUMPDEST PUSH2 0xEE9 PUSH1 0x2 DUP10 DUP2 SLOAD DUP2 LT PUSH2 0xEB6 JUMPI PUSH2 0xEB5 PUSH2 0x2961 JUMP JUMPDEST JUMPDEST SWAP1 PUSH1 0x0 MSTORE PUSH1 0x20 PUSH1 0x0 KECCAK256 ADD DUP8 DUP2 SLOAD DUP2 LT PUSH2 0xED2 JUMPI PUSH2 0xED1 PUSH2 0x2961 JUMP JUMPDEST JUMPDEST SWAP1 PUSH1 0x0 MSTORE PUSH1 0x20 PUSH1 0x0 KECCAK256 SWAP1 PUSH1 0x7 MUL ADD PUSH1 0x5 ADD SLOAD PUSH2 0x1C22 JUMP JUMPDEST DUP8 PUSH1 0x40 MLOAD PUSH1 0x20 ADD PUSH2 0xF00 SWAP8 SWAP7 SWAP6 SWAP5 SWAP4 SWAP3 SWAP2 SWAP1 PUSH2 0x2F0C JUMP JUMPDEST PUSH1 0x40 MLOAD PUSH1 0x20 DUP2 DUP4 SUB SUB DUP2 MSTORE SWAP1 PUSH1 0x40 MSTORE SWAP2 POP DUP1 DUP1 PUSH2 0xF1C SWAP1 PUSH2 0x2D75 JUMP JUMPDEST SWAP2 POP POP PUSH2 0xD57 JUMP JUMPDEST POP SWAP2 SWAP1 POP JUMP JUMPDEST PUSH1 0x0 PUSH1 0x40 MLOAD DUP1 PUSH1 0xE0 ADD PUSH1 0x40 MSTORE DUP1 PUSH1 0x2 DUP8 DUP2 SLOAD DUP2 LT PUSH2 0xF4B JUMPI PUSH2 0xF4A PUSH2 0x2961 JUMP JUMPDEST JUMPDEST SWAP1 PUSH1 0x0 MSTORE PUSH1 0x20 PUSH1 0x0 KECCAK256 ADD DUP6 DUP2 SLOAD DUP2 LT PUSH2 0xF67 JUMPI PUSH2 0xF66 PUSH2 0x2961 JUMP JUMPDEST JUMPDEST SWAP1 PUSH1 0x0 MSTORE PUSH1 0x20 PUSH1 0x0 KECCAK256 SWAP1 PUSH1 0x7 MUL ADD PUSH1 0x0 ADD DUP1 SLOAD PUSH2 0xF83 SWAP1 PUSH2 0x29BF JUMP JUMPDEST DUP1 PUSH1 0x1F ADD PUSH1 0x20 DUP1 SWAP2 DIV MUL PUSH1 0x20 ADD PUSH1 0x40 MLOAD SWAP1 DUP2 ADD PUSH1 0x40 MSTORE DUP1 SWAP3 SWAP2 SWAP1 DUP2 DUP2 MSTORE PUSH1 0x20 ADD DUP3 DUP1 SLOAD PUSH2 0xFAF SWAP1 PUSH2 0x29BF JUMP JUMPDEST DUP1 ISZERO PUSH2 0xFFC JUMPI DUP1 PUSH1 0x1F LT PUSH2 0xFD1 JUMPI PUSH2 0x100 DUP1 DUP4 SLOAD DIV MUL DUP4 MSTORE SWAP2 PUSH1 0x20 ADD SWAP2 PUSH2 0xFFC JUMP JUMPDEST DUP3 ADD SWAP2 SWAP1 PUSH1 0x0 MSTORE PUSH1 0x20 PUSH1 0x0 KECCAK256 SWAP1 JUMPDEST DUP2 SLOAD DUP2 MSTORE SWAP1 PUSH1 0x1 ADD SWAP1 PUSH1 0x20 ADD DUP1 DUP4 GT PUSH2 0xFDF JUMPI DUP3 SWAP1 SUB PUSH1 0x1F AND DUP3 ADD SWAP2 JUMPDEST POP POP POP POP POP DUP2 MSTORE PUSH1 0x20 ADD PUSH1 0x2 DUP8 DUP2 SLOAD DUP2 LT PUSH2 0x101A JUMPI PUSH2 0x1019 PUSH2 0x2961 JUMP JUMPDEST JUMPDEST SWAP1 PUSH1 0x0 MSTORE PUSH1 0x20 PUSH1 0x0 KECCAK256 ADD DUP6 DUP2 SLOAD DUP2 LT PUSH2 0x1036 JUMPI PUSH2 0x1035 PUSH2 0x2961 JUMP JUMPDEST JUMPDEST SWAP1 PUSH1 0x0 MSTORE PUSH1 0x20 PUSH1 0x0 KECCAK256 SWAP1 PUSH1 0x7 MUL ADD PUSH1 0x1 ADD DUP1 SLOAD PUSH2 0x1052 SWAP1 PUSH2 0x29BF JUMP JUMPDEST DUP1 PUSH1 0x1F ADD PUSH1 0x20 DUP1 SWAP2 DIV MUL PUSH1 0x20 ADD PUSH1 0x40 MLOAD SWAP1 DUP2 ADD PUSH1 0x40 MSTORE DUP1 SWAP3 SWAP2 SWAP1 DUP2 DUP2 MSTORE PUSH1 0x20 ADD DUP3 DUP1 SLOAD PUSH2 0x107E SWAP1 PUSH2 0x29BF JUMP JUMPDEST DUP1 ISZERO PUSH2 0x10CB JUMPI DUP1 PUSH1 0x1F LT PUSH2 0x10A0 JUMPI PUSH2 0x100 DUP1 DUP4 SLOAD DIV MUL DUP4 MSTORE SWAP2 PUSH1 0x20 ADD SWAP2 PUSH2 0x10CB JUMP JUMPDEST DUP3 ADD SWAP2 SWAP1 PUSH1 0x0 MSTORE PUSH1 0x20 PUSH1 0x0 KECCAK256 SWAP1 JUMPDEST DUP2 SLOAD DUP2 MSTORE SWAP1 PUSH1 0x1 ADD SWAP1 PUSH1 0x20 ADD DUP1 DUP4 GT PUSH2 0x10AE JUMPI DUP3 SWAP1 SUB PUSH1 0x1F AND DUP3 ADD SWAP2 JUMPDEST POP POP POP POP POP DUP2 MSTORE PUSH1 0x20 ADD PUSH1 0x2 DUP8 DUP2 SLOAD DUP2 LT PUSH2 0x10E9 JUMPI PUSH2 0x10E8 PUSH2 0x2961 JUMP JUMPDEST JUMPDEST SWAP1 PUSH1 0x0 MSTORE PUSH1 0x20 PUSH1 0x0 KECCAK256 ADD DUP6 DUP2 SLOAD DUP2 LT PUSH2 0x1105 JUMPI PUSH2 0x1104 PUSH2 0x2961 JUMP JUMPDEST JUMPDEST SWAP1 PUSH1 0x0 MSTORE PUSH1 0x20 PUSH1 0x0 KECCAK256 SWAP1 PUSH1 0x7 MUL ADD PUSH1 0x2 ADD DUP1 SLOAD DUP1 PUSH1 0x20 MUL PUSH1 0x20 ADD PUSH1 0x40 MLOAD SWAP1 DUP2 ADD PUSH1 0x40 MSTORE DUP1 SWAP3 SWAP2 SWAP1 DUP2 DUP2 MSTORE PUSH1 0x20 ADD PUSH1 0x0 SWAP1 JUMPDEST DUP3 DUP3 LT ISZERO PUSH2 0x11E2 JUMPI DUP4 DUP3 SWAP1 PUSH1 0x0 MSTORE PUSH1 0x20 PUSH1 0x0 KECCAK256 ADD DUP1 SLOAD PUSH2 0x1155 SWAP1 PUSH2 0x29BF JUMP JUMPDEST DUP1 PUSH1 0x1F ADD PUSH1 0x20 DUP1 SWAP2 DIV MUL PUSH1 0x20 ADD PUSH1 0x40 MLOAD SWAP1 DUP2 ADD PUSH1 0x40 MSTORE DUP1 SWAP3 SWAP2 SWAP1 DUP2 DUP2 MSTORE PUSH1 0x20 ADD DUP3 DUP1 SLOAD PUSH2 0x1181 SWAP1 PUSH2 0x29BF JUMP JUMPDEST DUP1 ISZERO PUSH2 0x11CE JUMPI DUP1 PUSH1 0x1F LT PUSH2 0x11A3 JUMPI PUSH2 0x100 DUP1 DUP4 SLOAD DIV MUL DUP4 MSTORE SWAP2 PUSH1 0x20 ADD SWAP2 PUSH2 0x11CE JUMP JUMPDEST DUP3 ADD SWAP2 SWAP1 PUSH1 0x0 MSTORE PUSH1 0x20 PUSH1 0x0 KECCAK256 SWAP1 JUMPDEST DUP2 SLOAD DUP2 MSTORE SWAP1 PUSH1 0x1 ADD SWAP1 PUSH1 0x20 ADD DUP1 DUP4 GT PUSH2 0x11B1 JUMPI DUP3 SWAP1 SUB PUSH1 0x1F AND DUP3 ADD SWAP2 JUMPDEST POP POP POP POP POP DUP2 MSTORE PUSH1 0x20 ADD SWAP1 PUSH1 0x1 ADD SWAP1 PUSH2 0x1136 JUMP JUMPDEST POP POP POP POP DUP2 MSTORE PUSH1 0x20 ADD PUSH1 0x2 DUP8 DUP2 SLOAD DUP2 LT PUSH2 0x11FF JUMPI PUSH2 0x11FE PUSH2 0x2961 JUMP JUMPDEST JUMPDEST SWAP1 PUSH1 0x0 MSTORE PUSH1 0x20 PUSH1 0x0 KECCAK256 ADD DUP6 DUP2 SLOAD DUP2 LT PUSH2 0x121B JUMPI PUSH2 0x121A PUSH2 0x2961 JUMP JUMPDEST JUMPDEST SWAP1 PUSH1 0x0 MSTORE PUSH1 0x20 PUSH1 0x0 KECCAK256 SWAP1 PUSH1 0x7 MUL ADD PUSH1 0x3 ADD DUP1 SLOAD DUP1 PUSH1 0x20 MUL PUSH1 0x20 ADD PUSH1 0x40 MLOAD SWAP1 DUP2 ADD PUSH1 0x40 MSTORE DUP1 SWAP3 SWAP2 SWAP1 DUP2 DUP2 MSTORE PUSH1 0x20 ADD PUSH1 0x0 SWAP1 JUMPDEST DUP3 DUP3 LT ISZERO PUSH2 0x12F8 JUMPI DUP4 DUP3 SWAP1 PUSH1 0x0 MSTORE PUSH1 0x20 PUSH1 0x0 KECCAK256 ADD DUP1 SLOAD PUSH2 0x126B SWAP1 PUSH2 0x29BF JUMP JUMPDEST DUP1 PUSH1 0x1F ADD PUSH1 0x20 DUP1 SWAP2 DIV MUL PUSH1 0x20 ADD PUSH1 0x40 MLOAD SWAP1 DUP2 ADD PUSH1 0x40 MSTORE DUP1 SWAP3 SWAP2 SWAP1 DUP2 DUP2 MSTORE PUSH1 0x20 ADD DUP3 DUP1 SLOAD PUSH2 0x1297 SWAP1 PUSH2 0x29BF JUMP JUMPDEST DUP1 ISZERO PUSH2 0x12E4 JUMPI DUP1 PUSH1 0x1F LT PUSH2 0x12B9 JUMPI PUSH2 0x100 DUP1 DUP4 SLOAD DIV MUL DUP4 MSTORE SWAP2 PUSH1 0x20 ADD SWAP2 PUSH2 0x12E4 JUMP JUMPDEST DUP3 ADD SWAP2 SWAP1 PUSH1 0x0 MSTORE PUSH1 0x20 PUSH1 0x0 KECCAK256 SWAP1 JUMPDEST DUP2 SLOAD DUP2 MSTORE SWAP1 PUSH1 0x1 ADD SWAP1 PUSH1 0x20 ADD DUP1 DUP4 GT PUSH2 0x12C7 JUMPI DUP3 SWAP1 SUB PUSH1 0x1F AND DUP3 ADD SWAP2 JUMPDEST POP POP POP POP POP DUP2 MSTORE PUSH1 0x20 ADD SWAP1 PUSH1 0x1 ADD SWAP1 PUSH2 0x124C JUMP JUMPDEST POP POP POP POP DUP2 MSTORE PUSH1 0x20 ADD PUSH1 0x0 DUP2 MSTORE PUSH1 0x20 ADD PUSH1 0x0 DUP2 MSTORE PUSH1 0x20 ADD TIMESTAMP DUP2 MSTORE POP SWAP1 POP DUP2 DUP2 PUSH1 0x40 ADD MLOAD DUP6 DUP2 MLOAD DUP2 LT PUSH2 0x132D JUMPI PUSH2 0x132C PUSH2 0x2961 JUMP JUMPDEST JUMPDEST PUSH1 0x20 MUL PUSH1 0x20 ADD ADD DUP2 SWAP1 MSTORE POP PUSH1 0x2 DUP6 DUP2 SLOAD DUP2 LT PUSH2 0x134C JUMPI PUSH2 0x134B PUSH2 0x2961 JUMP JUMPDEST JUMPDEST SWAP1 PUSH1 0x0 MSTORE PUSH1 0x20 PUSH1 0x0 KECCAK256 ADD DUP2 SWAP1 DUP1 PUSH1 0x1 DUP2 SLOAD ADD DUP1 DUP3 SSTORE DUP1 SWAP2 POP POP PUSH1 0x1 SWAP1 SUB SWAP1 PUSH1 0x0 MSTORE PUSH1 0x20 PUSH1 0x0 KECCAK256 SWAP1 PUSH1 0x7 MUL ADD PUSH1 0x0 SWAP1 SWAP2 SWAP1 SWAP2 SWAP1 SWAP2 POP PUSH1 0x0 DUP3 ADD MLOAD DUP2 PUSH1 0x0 ADD SWAP1 DUP2 PUSH2 0x1395 SWAP2 SWAP1 PUSH2 0x2B9C JUMP JUMPDEST POP PUSH1 0x20 DUP3 ADD MLOAD DUP2 PUSH1 0x1 ADD SWAP1 DUP2 PUSH2 0x13AB SWAP2 SWAP1 PUSH2 0x2B9C JUMP JUMPDEST POP PUSH1 0x40 DUP3 ADD MLOAD DUP2 PUSH1 0x2 ADD SWAP1 DUP1 MLOAD SWAP1 PUSH1 0x20 ADD SWAP1 PUSH2 0x13C8 SWAP3 SWAP2 SWAP1 PUSH2 0x1F4C JUMP JUMPDEST POP PUSH1 0x60 DUP3 ADD MLOAD DUP2 PUSH1 0x3 ADD SWAP1 DUP1 MLOAD SWAP1 PUSH1 0x20 ADD SWAP1 PUSH2 0x13E5 SWAP3 SWAP2 SWAP1 PUSH2 0x1F4C JUMP JUMPDEST POP PUSH1 0x80 DUP3 ADD MLOAD DUP2 PUSH1 0x4 ADD SSTORE PUSH1 0xA0 DUP3 ADD MLOAD DUP2 PUSH1 0x5 ADD SSTORE PUSH1 0xC0 DUP3 ADD MLOAD DUP2 PUSH1 0x6 ADD SSTORE POP POP POP POP POP POP POP JUMP JUMPDEST PUSH1 0x60 PUSH2 0x1418 DUP3 PUSH2 0x1C22 JUMP JUMPDEST PUSH1 0x2 DUP5 DUP2 SLOAD DUP2 LT PUSH2 0x142C JUMPI PUSH2 0x142B PUSH2 0x2961 JUMP JUMPDEST JUMPDEST SWAP1 PUSH1 0x0 MSTORE PUSH1 0x20 PUSH1 0x0 KECCAK256 ADD DUP4 DUP2 SLOAD DUP2 LT PUSH2 0x1448 JUMPI PUSH2 0x1447 PUSH2 0x2961 JUMP JUMPDEST JUMPDEST SWAP1 PUSH1 0x0 MSTORE PUSH1 0x20 PUSH1 0x0 KECCAK256 SWAP1 PUSH1 0x7 MUL ADD PUSH1 0x0 ADD PUSH1 0x2 DUP6 DUP2 SLOAD DUP2 LT PUSH2 0x146D JUMPI PUSH2 0x146C PUSH2 0x2961 JUMP JUMPDEST JUMPDEST SWAP1 PUSH1 0x0 MSTORE PUSH1 0x20 PUSH1 0x0 KECCAK256 ADD DUP5 DUP2 SLOAD DUP2 LT PUSH2 0x1489 JUMPI PUSH2 0x1488 PUSH2 0x2961 JUMP JUMPDEST JUMPDEST SWAP1 PUSH1 0x0 MSTORE PUSH1 0x20 PUSH1 0x0 KECCAK256 SWAP1 PUSH1 0x7 MUL ADD PUSH1 0x1 ADD PUSH1 0x40 MLOAD PUSH1 0x20 ADD PUSH2 0x14AC SWAP4 SWAP3 SWAP2 SWAP1 PUSH2 0x2FCB JUMP JUMPDEST PUSH1 0x40 MLOAD PUSH1 0x20 DUP2 DUP4 SUB SUB DUP2 MSTORE SWAP1 PUSH1 0x40 MSTORE SWAP1 POP PUSH1 0x0 JUMPDEST PUSH1 0x2 DUP5 DUP2 SLOAD DUP2 LT PUSH2 0x14D4 JUMPI PUSH2 0x14D3 PUSH2 0x2961 JUMP JUMPDEST JUMPDEST SWAP1 PUSH1 0x0 MSTORE PUSH1 0x20 PUSH1 0x0 KECCAK256 ADD DUP4 DUP2 SLOAD DUP2 LT PUSH2 0x14F0 JUMPI PUSH2 0x14EF PUSH2 0x2961 JUMP JUMPDEST JUMPDEST SWAP1 PUSH1 0x0 MSTORE PUSH1 0x20 PUSH1 0x0 KECCAK256 SWAP1 PUSH1 0x7 MUL ADD PUSH1 0x2 ADD DUP1 SLOAD SWAP1 POP DUP2 LT ISZERO PUSH2 0x159F JUMPI DUP2 PUSH1 0x2 DUP6 DUP2 SLOAD DUP2 LT PUSH2 0x1521 JUMPI PUSH2 0x1520 PUSH2 0x2961 JUMP JUMPDEST JUMPDEST SWAP1 PUSH1 0x0 MSTORE PUSH1 0x20 PUSH1 0x0 KECCAK256 ADD DUP5 DUP2 SLOAD DUP2 LT PUSH2 0x153D JUMPI PUSH2 0x153C PUSH2 0x2961 JUMP JUMPDEST JUMPDEST SWAP1 PUSH1 0x0 MSTORE PUSH1 0x20 PUSH1 0x0 KECCAK256 SWAP1 PUSH1 0x7 MUL ADD PUSH1 0x2 ADD DUP3 DUP2 SLOAD DUP2 LT PUSH2 0x1560 JUMPI PUSH2 0x155F PUSH2 0x2961 JUMP JUMPDEST JUMPDEST SWAP1 PUSH1 0x0 MSTORE PUSH1 0x20 PUSH1 0x0 KECCAK256 ADD PUSH1 0x40 MLOAD PUSH1 0x20 ADD PUSH2 0x157B SWAP3 SWAP2 SWAP1 PUSH2 0x301A JUMP JUMPDEST PUSH1 0x40 MLOAD PUSH1 0x20 DUP2 DUP4 SUB SUB DUP2 MSTORE SWAP1 PUSH1 0x40 MSTORE SWAP2 POP DUP1 DUP1 PUSH2 0x1597 SWAP1 PUSH2 0x2D75 JUMP JUMPDEST SWAP2 POP POP PUSH2 0x14C0 JUMP JUMPDEST POP SWAP3 SWAP2 POP POP JUMP JUMPDEST PUSH1 0x0 PUSH1 0x2 DUP1 SLOAD SWAP1 POP SWAP1 POP SWAP1 JUMP JUMPDEST PUSH1 0x60 PUSH1 0x0 JUMPDEST PUSH1 0x2 DUP5 DUP2 SLOAD DUP2 LT PUSH2 0x15CC JUMPI PUSH2 0x15CB PUSH2 0x2961 JUMP JUMPDEST JUMPDEST SWAP1 PUSH1 0x0 MSTORE PUSH1 0x20 PUSH1 0x0 KECCAK256 ADD DUP4 DUP2 SLOAD DUP2 LT PUSH2 0x15E8 JUMPI PUSH2 0x15E7 PUSH2 0x2961 JUMP JUMPDEST JUMPDEST SWAP1 PUSH1 0x0 MSTORE PUSH1 0x20 PUSH1 0x0 KECCAK256 SWAP1 PUSH1 0x7 MUL ADD PUSH1 0x3 ADD DUP1 SLOAD SWAP1 POP DUP2 LT ISZERO PUSH2 0x1697 JUMPI PUSH1 0x2 DUP5 DUP2 SLOAD DUP2 LT PUSH2 0x1618 JUMPI PUSH2 0x1617 PUSH2 0x2961 JUMP JUMPDEST JUMPDEST SWAP1 PUSH1 0x0 MSTORE PUSH1 0x20 PUSH1 0x0 KECCAK256 ADD DUP4 DUP2 SLOAD DUP2 LT PUSH2 0x1634 JUMPI PUSH2 0x1633 PUSH2 0x2961 JUMP JUMPDEST JUMPDEST SWAP1 PUSH1 0x0 MSTORE PUSH1 0x20 PUSH1 0x0 KECCAK256 SWAP1 PUSH1 0x7 MUL ADD PUSH1 0x3 ADD DUP2 DUP2 SLOAD DUP2 LT PUSH2 0x1657 JUMPI PUSH2 0x1656 PUSH2 0x2961 JUMP JUMPDEST JUMPDEST SWAP1 PUSH1 0x0 MSTORE PUSH1 0x20 PUSH1 0x0 KECCAK256 ADD DUP3 PUSH1 0x40 MLOAD PUSH1 0x20 ADD PUSH2 0x1673 SWAP3 SWAP2 SWAP1 PUSH2 0x304D JUMP JUMPDEST PUSH1 0x40 MLOAD PUSH1 0x20 DUP2 DUP4 SUB SUB DUP2 MSTORE SWAP1 PUSH1 0x40 MSTORE SWAP2 POP DUP1 DUP1 PUSH2 0x168F SWAP1 PUSH2 0x2D75 JUMP JUMPDEST SWAP2 POP POP PUSH2 0x15B8 JUMP JUMPDEST POP SWAP3 SWAP2 POP POP JUMP JUMPDEST PUSH1 0x0 DUP1 PUSH1 0x0 SWAP1 SLOAD SWAP1 PUSH2 0x100 EXP SWAP1 DIV PUSH20 0xFFFFFFFFFFFFFFFFFFFFFFFFFFFFFFFFFFFFFFFF AND SWAP1 POP SWAP1 JUMP JUMPDEST PUSH1 0x0 DUP1 SLOAD SWAP1 PUSH2 0x100 EXP SWAP1 DIV PUSH20 0xFFFFFFFFFFFFFFFFFFFFFFFFFFFFFFFFFFFFFFFF AND PUSH20 0xFFFFFFFFFFFFFFFFFFFFFFFFFFFFFFFFFFFFFFFF AND CALLER PUSH20 0xFFFFFFFFFFFFFFFFFFFFFFFFFFFFFFFFFFFFFFFF AND EQ PUSH2 0x1755 JUMPI PUSH1 0x40 MLOAD PUSH32 0x8C379A000000000000000000000000000000000000000000000000000000000 DUP2 MSTORE PUSH1 0x4 ADD PUSH2 0x174C SWAP1 PUSH2 0x30CC JUMP JUMPDEST PUSH1 0x40 MLOAD DUP1 SWAP2 SUB SWAP1 REVERT JUMPDEST DUP1 PUSH20 0xFFFFFFFFFFFFFFFFFFFFFFFFFFFFFFFFFFFFFFFF AND PUSH1 0x0 DUP1 SLOAD SWAP1 PUSH2 0x100 EXP SWAP1 DIV PUSH20 0xFFFFFFFFFFFFFFFFFFFFFFFFFFFFFFFFFFFFFFFF AND PUSH20 0xFFFFFFFFFFFFFFFFFFFFFFFFFFFFFFFFFFFFFFFF AND PUSH32 0x342827C97908E5E2F71151C08502A66D44B6F758E3AC2F1DE95F02EB95F0A735 PUSH1 0x40 MLOAD PUSH1 0x40 MLOAD DUP1 SWAP2 SUB SWAP1 LOG3 DUP1 PUSH1 0x0 DUP1 PUSH2 0x100 EXP DUP2 SLOAD DUP2 PUSH20 0xFFFFFFFFFFFFFFFFFFFFFFFFFFFFFFFFFFFFFFFF MUL NOT AND SWAP1 DUP4 PUSH20 0xFFFFFFFFFFFFFFFFFFFFFFFFFFFFFFFFFFFFFFFF AND MUL OR SWAP1 SSTORE POP POP JUMP JUMPDEST PUSH1 0x0 PUSH1 0xA DUP5 MLOAD GT PUSH2 0x1858 JUMPI PUSH1 0x40 MLOAD PUSH32 0x8C379A000000000000000000000000000000000000000000000000000000000 DUP2 MSTORE PUSH1 0x4 ADD PUSH2 0x184F SWAP1 PUSH2 0x3138 JUMP JUMPDEST PUSH1 0x40 MLOAD DUP1 SWAP2 SUB SWAP1 REVERT JUMPDEST PUSH1 0x4 DUP6 MLOAD GT PUSH2 0x189C JUMPI PUSH1 0x40 MLOAD PUSH32 0x8C379A000000000000000000000000000000000000000000000000000000000 DUP2 MSTORE PUSH1 0x4 ADD PUSH2 0x1893 SWAP1 PUSH2 0x31A4 JUMP JUMPDEST PUSH1 0x40 MLOAD DUP1 SWAP2 SUB SWAP1 REVERT JUMPDEST PUSH1 0x0 PUSH1 0x40 MLOAD DUP1 PUSH1 0xE0 ADD PUSH1 0x40 MSTORE DUP1 DUP8 DUP2 MSTORE PUSH1 0x20 ADD DUP7 DUP2 MSTORE PUSH1 0x20 ADD DUP6 DUP2 MSTORE PUSH1 0x20 ADD DUP5 DUP2 MSTORE PUSH1 0x20 ADD PUSH1 0x0 DUP2 MSTORE PUSH1 0x20 ADD PUSH1 0x0 DUP2 MSTORE PUSH1 0x20 ADD TIMESTAMP DUP2 MSTORE POP SWAP1 POP PUSH1 0x2 PUSH1 0x1 DUP2 PUSH1 0x1 DUP2 SLOAD ADD DUP1 DUP3 SSTORE DUP1 SWAP2 POP POP SUB SWAP1 PUSH1 0x0 MSTORE PUSH1 0x20 PUSH1 0x0 KECCAK256 POP POP PUSH1 0x2 PUSH1 0x1 PUSH1 0x2 DUP1 SLOAD SWAP1 POP PUSH2 0x1906 SWAP2 SWAP1 PUSH2 0x31C4 JUMP JUMPDEST DUP2 SLOAD DUP2 LT PUSH2 0x1917 JUMPI PUSH2 0x1916 PUSH2 0x2961 JUMP JUMPDEST JUMPDEST SWAP1 PUSH1 0x0 MSTORE PUSH1 0x20 PUSH1 0x0 KECCAK256 ADD DUP2 SWAP1 DUP1 PUSH1 0x1 DUP2 SLOAD ADD DUP1 DUP3 SSTORE DUP1 SWAP2 POP POP PUSH1 0x1 SWAP1 SUB SWAP1 PUSH1 0x0 MSTORE PUSH1 0x20 PUSH1 0x0 KECCAK256 SWAP1 PUSH1 0x7 MUL ADD PUSH1 0x0 SWAP1 SWAP2 SWAP1 SWAP2 SWAP1 SWAP2 POP PUSH1 0x0 DUP3 ADD MLOAD DUP2 PUSH1 0x0 ADD SWAP1 DUP2 PUSH2 0x1960 SWAP2 SWAP1 PUSH2 0x2B9C JUMP JUMPDEST POP PUSH1 0x20 DUP3 ADD MLOAD DUP2 PUSH1 0x1 ADD SWAP1 DUP2 PUSH2 0x1976 SWAP2 SWAP1 PUSH2 0x2B9C JUMP JUMPDEST POP PUSH1 0x40 DUP3 ADD MLOAD DUP2 PUSH1 0x2 ADD SWAP1 DUP1 MLOAD SWAP1 PUSH1 0x20 ADD SWAP1 PUSH2 0x1993 SWAP3 SWAP2 SWAP1 PUSH2 0x1F4C JUMP JUMPDEST POP PUSH1 0x60 DUP3 ADD MLOAD DUP2 PUSH1 0x3 ADD SWAP1 DUP1 MLOAD SWAP1 PUSH1 0x20 ADD SWAP1 PUSH2 0x19B0 SWAP3 SWAP2 SWAP1 PUSH2 0x1F4C JUMP JUMPDEST POP PUSH1 0x80 DUP3 ADD MLOAD DUP2 PUSH1 0x4 ADD SSTORE PUSH1 0xA0 DUP3 ADD MLOAD DUP2 PUSH1 0x5 ADD SSTORE PUSH1 0xC0 DUP3 ADD MLOAD DUP2 PUSH1 0x6 ADD SSTORE POP POP PUSH1 0x3 PUSH1 0x0 DUP2 SLOAD DUP1 SWAP3 SWAP2 SWAP1 PUSH2 0x19E4 SWAP1 PUSH2 0x2D75 JUMP JUMPDEST SWAP2 SWAP1 POP SSTORE POP PUSH1 0x1 DUP1 DUP2 PUSH1 0x1 DUP2 SLOAD ADD DUP1 DUP3 SSTORE DUP1 SWAP2 POP POP SUB SWAP1 PUSH1 0x0 MSTORE PUSH1 0x20 PUSH1 0x0 KECCAK256 POP POP PUSH1 0x1 PUSH1 0x2 DUP1 SLOAD SWAP1 POP PUSH2 0x1A17 SWAP2 SWAP1 PUSH2 0x31C4 JUMP JUMPDEST PUSH32 0xFE55C2349D62DA6A9F59944B4BEC1E721FB08FAF486FB6758BDED48F8A70AD19 PUSH1 0x40 MLOAD PUSH1 0x40 MLOAD DUP1 SWAP2 SUB SWAP1 LOG2 PUSH1 0x1 PUSH1 0x2 DUP1 SLOAD SWAP1 POP PUSH2 0x1A55 SWAP2 SWAP1 PUSH2 0x31C4 JUMP JUMPDEST SWAP2 POP POP SWAP5 SWAP4 POP POP POP POP JUMP JUMPDEST PUSH1 0x60 PUSH1 0x0 PUSH2 0x1A6D DUP4 PUSH2 0x1A81 JUMP JUMPDEST SWAP1 POP PUSH2 0x1A79 DUP4 DUP3 PUSH2 0x140D JUMP JUMPDEST SWAP2 POP POP SWAP2 SWAP1 POP JUMP JUMPDEST PUSH1 0x0 DUP1 PUSH1 0x0 SWAP1 POP PUSH1 0x0 JUMPDEST PUSH1 0x2 DUP5 DUP2 SLOAD DUP2 LT PUSH2 0x1A9F JUMPI PUSH2 0x1A9E PUSH2 0x2961 JUMP JUMPDEST JUMPDEST SWAP1 PUSH1 0x0 MSTORE PUSH1 0x20 PUSH1 0x0 KECCAK256 ADD DUP1 SLOAD SWAP1 POP DUP2 LT ISZERO PUSH2 0x1B7F JUMPI PUSH1 0x0 DUP1 PUSH2 0x1B50 PUSH2 0x2710 PUSH1 0x2 DUP9 DUP2 SLOAD DUP2 LT PUSH2 0x1AD1 JUMPI PUSH2 0x1AD0 PUSH2 0x2961 JUMP JUMPDEST JUMPDEST SWAP1 PUSH1 0x0 MSTORE PUSH1 0x20 PUSH1 0x0 KECCAK256 ADD DUP6 DUP2 SLOAD DUP2 LT PUSH2 0x1AED JUMPI PUSH2 0x1AEC PUSH2 0x2961 JUMP JUMPDEST JUMPDEST SWAP1 PUSH1 0x0 MSTORE PUSH1 0x20 PUSH1 0x0 KECCAK256 SWAP1 PUSH1 0x7 MUL ADD PUSH1 0x4 ADD SLOAD PUSH2 0x1B09 SWAP2 SWAP1 PUSH2 0x31F8 JUMP JUMPDEST PUSH1 0x2 DUP9 DUP2 SLOAD DUP2 LT PUSH2 0x1B1D JUMPI PUSH2 0x1B1C PUSH2 0x2961 JUMP JUMPDEST JUMPDEST SWAP1 PUSH1 0x0 MSTORE PUSH1 0x20 PUSH1 0x0 KECCAK256 ADD DUP6 DUP2 SLOAD DUP2 LT PUSH2 0x1B39 JUMPI PUSH2 0x1B38 PUSH2 0x2961 JUMP JUMPDEST JUMPDEST SWAP1 PUSH1 0x0 MSTORE PUSH1 0x20 PUSH1 0x0 KECCAK256 SWAP1 PUSH1 0x7 MUL ADD PUSH1 0x5 ADD SLOAD PUSH2 0x1D7E JUMP JUMPDEST SWAP2 POP SWAP2 POP DUP2 DUP1 ISZERO PUSH2 0x1B61 JUMPI POP DUP4 DUP2 SLT ISZERO JUMPDEST ISZERO PUSH2 0x1B6A JUMPI DUP3 SWAP5 POP JUMPDEST POP POP DUP1 DUP1 PUSH2 0x1B77 SWAP1 PUSH2 0x2D75 JUMP JUMPDEST SWAP2 POP POP PUSH2 0x1A8B JUMP JUMPDEST POP POP SWAP2 SWAP1 POP JUMP JUMPDEST PUSH2 0x1C1E DUP3 DUP3 PUSH1 0x40 MLOAD PUSH1 0x24 ADD PUSH2 0x1B9C SWAP3 SWAP2 SWAP1 PUSH2 0x3270 JUMP JUMPDEST PUSH1 0x40 MLOAD PUSH1 0x20 DUP2 DUP4 SUB SUB DUP2 MSTORE SWAP1 PUSH1 0x40 MSTORE PUSH32 0x319AF33300000000000000000000000000000000000000000000000000000000 PUSH28 0xFFFFFFFFFFFFFFFFFFFFFFFFFFFFFFFFFFFFFFFFFFFFFFFFFFFFFFFF NOT AND PUSH1 0x20 DUP3 ADD DUP1 MLOAD PUSH28 0xFFFFFFFFFFFFFFFFFFFFFFFFFFFFFFFFFFFFFFFFFFFFFFFFFFFFFFFF DUP4 DUP2 DUP4 AND OR DUP4 MSTORE POP POP POP POP PUSH2 0x1DB4 JUMP JUMPDEST POP POP JUMP JUMPDEST PUSH1 0x60 PUSH1 0x0 PUSH1 0x1 PUSH2 0x1C31 DUP5 PUSH2 0x1DDD JUMP JUMPDEST ADD SWAP1 POP PUSH1 0x0 DUP2 PUSH8 0xFFFFFFFFFFFFFFFF DUP2 GT ISZERO PUSH2 0x1C50 JUMPI PUSH2 0x1C4F PUSH2 0x20C8 JUMP JUMPDEST JUMPDEST PUSH1 0x40 MLOAD SWAP1 DUP1 DUP3 MSTORE DUP1 PUSH1 0x1F ADD PUSH1 0x1F NOT AND PUSH1 0x20 ADD DUP3 ADD PUSH1 0x40 MSTORE DUP1 ISZERO PUSH2 0x1C82 JUMPI DUP2 PUSH1 0x20 ADD PUSH1 0x1 DUP3 MUL DUP1 CALLDATASIZE DUP4 CALLDATACOPY DUP1 DUP3 ADD SWAP2 POP POP SWAP1 POP JUMPDEST POP SWAP1 POP PUSH1 0x0 DUP3 PUSH1 0x20 ADD DUP3 ADD SWAP1 POP JUMPDEST PUSH1 0x1 ISZERO PUSH2 0x1CE5 JUMPI DUP1 DUP1 PUSH1 0x1 SWAP1 SUB SWAP2 POP POP PUSH32 0x3031323334353637383961626364656600000000000000000000000000000000 PUSH1 0xA DUP7 MOD BYTE DUP2 MSTORE8 PUSH1 0xA DUP6 DUP2 PUSH2 0x1CD9 JUMPI PUSH2 0x1CD8 PUSH2 0x32A0 JUMP JUMPDEST JUMPDEST DIV SWAP5 POP PUSH1 0x0 DUP6 SUB PUSH2 0x1C90 JUMPI JUMPDEST DUP2 SWAP4 POP POP POP POP SWAP2 SWAP1 POP JUMP JUMPDEST PUSH1 0x60 PUSH1 0x0 DUP3 SLT PUSH2 0x1D0F JUMPI PUSH1 0x40 MLOAD DUP1 PUSH1 0x20 ADD PUSH1 0x40 MSTORE DUP1 PUSH1 0x0 DUP2 MSTORE POP PUSH2 0x1D46 JUMP JUMPDEST PUSH1 0x40 MLOAD DUP1 PUSH1 0x40 ADD PUSH1 0x40 MSTORE DUP1 PUSH1 0x1 DUP2 MSTORE PUSH1 0x20 ADD PUSH32 0x2D00000000000000000000000000000000000000000000000000000000000000 DUP2 MSTORE POP JUMPDEST PUSH2 0x1D57 PUSH2 0x1D52 DUP5 PUSH2 0x1F30 JUMP JUMPDEST PUSH2 0x1C22 JUMP JUMPDEST PUSH1 0x40 MLOAD PUSH1 0x20 ADD PUSH2 0x1D68 SWAP3 SWAP2 SWAP1 PUSH2 0x32CF JUMP JUMPDEST PUSH1 0x40 MLOAD PUSH1 0x20 DUP2 DUP4 SUB SUB DUP2 MSTORE SWAP1 PUSH1 0x40 MSTORE SWAP1 POP SWAP2 SWAP1 POP JUMP JUMPDEST PUSH1 0x0 DUP1 PUSH1 0x0 DUP4 SUB PUSH2 0x1D95 JUMPI PUSH1 0x0 DUP1 SWAP2 POP SWAP2 POP PUSH2 0x1DAD JUMP JUMPDEST PUSH1 0x1 DUP4 DUP6 DUP2 PUSH2 0x1DA7 JUMPI PUSH2 0x1DA6 PUSH2 0x32A0 JUMP JUMPDEST JUMPDEST SDIV SWAP2 POP SWAP2 POP JUMPDEST SWAP3 POP SWAP3 SWAP1 POP JUMP JUMPDEST PUSH1 0x0 DUP2 MLOAD SWAP1 POP PUSH1 0x0 PUSH11 0x636F6E736F6C652E6C6F67 SWAP1 POP PUSH1 0x20 DUP4 ADD PUSH1 0x0 DUP1 DUP5 DUP4 DUP6 GAS STATICCALL POP POP POP POP POP JUMP JUMPDEST PUSH1 0x0 DUP1 PUSH1 0x0 SWAP1 POP PUSH27 0x184F03E93FF9F4DAA797ED6E38ED64BF6A1F010000000000000000 DUP4 LT PUSH2 0x1E3B JUMPI PUSH27 0x184F03E93FF9F4DAA797ED6E38ED64BF6A1F010000000000000000 DUP4 DUP2 PUSH2 0x1E31 JUMPI PUSH2 0x1E30 PUSH2 0x32A0 JUMP JUMPDEST JUMPDEST DIV SWAP3 POP PUSH1 0x40 DUP2 ADD SWAP1 POP JUMPDEST PUSH14 0x4EE2D6D415B85ACEF8100000000 DUP4 LT PUSH2 0x1E78 JUMPI PUSH14 0x4EE2D6D415B85ACEF8100000000 DUP4 DUP2 PUSH2 0x1E6E JUMPI PUSH2 0x1E6D PUSH2 0x32A0 JUMP JUMPDEST JUMPDEST DIV SWAP3 POP PUSH1 0x20 DUP2 ADD SWAP1 POP JUMPDEST PUSH7 0x2386F26FC10000 DUP4 LT PUSH2 0x1EA7 JUMPI PUSH7 0x2386F26FC10000 DUP4 DUP2 PUSH2 0x1E9D JUMPI PUSH2 0x1E9C PUSH2 0x32A0 JUMP JUMPDEST JUMPDEST DIV SWAP3 POP PUSH1 0x10 DUP2 ADD SWAP1 POP JUMPDEST PUSH4 0x5F5E100 DUP4 LT PUSH2 0x1ED0 JUMPI PUSH4 0x5F5E100 DUP4 DUP2 PUSH2 0x1EC6 JUMPI PUSH2 0x1EC5 PUSH2 0x32A0 JUMP JUMPDEST JUMPDEST DIV SWAP3 POP PUSH1 0x8 DUP2 ADD SWAP1 POP JUMPDEST PUSH2 0x2710 DUP4 LT PUSH2 0x1EF5 JUMPI PUSH2 0x2710 DUP4 DUP2 PUSH2 0x1EEB JUMPI PUSH2 0x1EEA PUSH2 0x32A0 JUMP JUMPDEST JUMPDEST DIV SWAP3 POP PUSH1 0x4 DUP2 ADD SWAP1 POP JUMPDEST PUSH1 0x64 DUP4 LT PUSH2 0x1F18 JUMPI PUSH1 0x64 DUP4 DUP2 PUSH2 0x1F0E JUMPI PUSH2 0x1F0D PUSH2 0x32A0 JUMP JUMPDEST JUMPDEST DIV SWAP3 POP PUSH1 0x2 DUP2 ADD SWAP1 POP JUMPDEST PUSH1 0xA DUP4 LT PUSH2 0x1F27 JUMPI PUSH1 0x1 DUP2 ADD SWAP1 POP JUMPDEST DUP1 SWAP2 POP POP SWAP2 SWAP1 POP JUMP JUMPDEST PUSH1 0x0 DUP1 DUP3 SLT ISZERO PUSH2 0x1F43 JUMPI DUP2 PUSH1 0x0 SUB PUSH2 0x1F45 JUMP JUMPDEST DUP2 JUMPDEST SWAP1 POP SWAP2 SWAP1 POP JUMP JUMPDEST DUP3 DUP1 SLOAD DUP3 DUP3 SSTORE SWAP1 PUSH1 0x0 MSTORE PUSH1 0x20 PUSH1 0x0 KECCAK256 SWAP1 DUP2 ADD SWAP3 DUP3 ISZERO PUSH2 0x1F94 JUMPI SWAP2 PUSH1 0x20 MUL DUP3 ADD JUMPDEST DUP3 DUP2 GT ISZERO PUSH2 0x1F93 JUMPI DUP3 MLOAD DUP3 SWAP1 DUP2 PUSH2 0x1F83 SWAP2 SWAP1 PUSH2 0x2B9C JUMP JUMPDEST POP SWAP2 PUSH1 0x20 ADD SWAP2 SWAP1 PUSH1 0x1 ADD SWAP1 PUSH2 0x1F6C JUMP JUMPDEST JUMPDEST POP SWAP1 POP PUSH2 0x1FA1 SWAP2 SWAP1 PUSH2 0x1FE2 JUMP JUMPDEST POP SWAP1 JUMP JUMPDEST PUSH1 0x40 MLOAD DUP1 PUSH1 0xE0 ADD PUSH1 0x40 MSTORE DUP1 PUSH1 0x60 DUP2 MSTORE PUSH1 0x20 ADD PUSH1 0x60 DUP2 MSTORE PUSH1 0x20 ADD PUSH1 0x60 DUP2 MSTORE PUSH1 0x20 ADD PUSH1 0x60 DUP2 MSTORE PUSH1 0x20 ADD PUSH1 0x0 DUP2 MSTORE PUSH1 0x20 ADD PUSH1 0x0 DUP2 MSTORE PUSH1 0x20 ADD PUSH1 0x0 DUP2 MSTORE POP SWAP1 JUMP JUMPDEST JUMPDEST DUP1 DUP3 GT ISZERO PUSH2 0x2002 JUMPI PUSH1 0x0 DUP2 DUP2 PUSH2 0x1FF9 SWAP2 SWAP1 PUSH2 0x2006 JUMP JUMPDEST POP PUSH1 0x1 ADD PUSH2 0x1FE3 JUMP JUMPDEST POP SWAP1 JUMP JUMPDEST POP DUP1 SLOAD PUSH2 0x2012 SWAP1 PUSH2 0x29BF JUMP JUMPDEST PUSH1 0x0 DUP3 SSTORE DUP1 PUSH1 0x1F LT PUSH2 0x2024 JUMPI POP PUSH2 0x2043 JUMP JUMPDEST PUSH1 0x1F ADD PUSH1 0x20 SWAP1 DIV SWAP1 PUSH1 0x0 MSTORE PUSH1 0x20 PUSH1 0x0 KECCAK256 SWAP1 DUP2 ADD SWAP1 PUSH2 0x2042 SWAP2 SWAP1 PUSH2 0x2046 JUMP JUMPDEST JUMPDEST POP JUMP JUMPDEST JUMPDEST DUP1 DUP3 GT ISZERO PUSH2 0x205F JUMPI PUSH1 0x0 DUP2 PUSH1 0x0 SWAP1 SSTORE POP PUSH1 0x1 ADD PUSH2 0x2047 JUMP JUMPDEST POP SWAP1 JUMP JUMPDEST PUSH1 0x0 PUSH1 0x40 MLOAD SWAP1 POP SWAP1 JUMP JUMPDEST PUSH1 0x0 DUP1 REVERT JUMPDEST PUSH1 0x0 DUP1 REVERT JUMPDEST PUSH1 0x0 DUP2 SWAP1 POP SWAP2 SWAP1 POP JUMP JUMPDEST PUSH2 0x208A DUP2 PUSH2 0x2077 JUMP JUMPDEST DUP2 EQ PUSH2 0x2095 JUMPI PUSH1 0x0 DUP1 REVERT JUMPDEST POP JUMP JUMPDEST PUSH1 0x0 DUP2 CALLDATALOAD SWAP1 POP PUSH2 0x20A7 DUP2 PUSH2 0x2081 JUMP JUMPDEST SWAP3 SWAP2 POP POP JUMP JUMPDEST PUSH1 0x0 DUP1 REVERT JUMPDEST PUSH1 0x0 DUP1 REVERT JUMPDEST PUSH1 0x0 PUSH1 0x1F NOT PUSH1 0x1F DUP4 ADD AND SWAP1 POP SWAP2 SWAP1 POP JUMP JUMPDEST PUSH32 0x4E487B7100000000000000000000000000000000000000000000000000000000 PUSH1 0x0 MSTORE PUSH1 0x41 PUSH1 0x4 MSTORE PUSH1 0x24 PUSH1 0x0 REVERT JUMPDEST PUSH2 0x2100 DUP3 PUSH2 0x20B7 JUMP JUMPDEST DUP2 ADD DUP2 DUP2 LT PUSH8 0xFFFFFFFFFFFFFFFF DUP3 GT OR ISZERO PUSH2 0x211F JUMPI PUSH2 0x211E PUSH2 0x20C8 JUMP JUMPDEST JUMPDEST DUP1 PUSH1 0x40 MSTORE POP POP POP JUMP JUMPDEST PUSH1 0x0 PUSH2 0x2132 PUSH2 0x2063 JUMP JUMPDEST SWAP1 POP PUSH2 0x213E DUP3 DUP3 PUSH2 0x20F7 JUMP JUMPDEST SWAP2 SWAP1 POP JUMP JUMPDEST PUSH1 0x0 PUSH8 0xFFFFFFFFFFFFFFFF DUP3 GT ISZERO PUSH2 0x215E JUMPI PUSH2 0x215D PUSH2 0x20C8 JUMP JUMPDEST JUMPDEST PUSH2 0x2167 DUP3 PUSH2 0x20B7 JUMP JUMPDEST SWAP1 POP PUSH1 0x20 DUP2 ADD SWAP1 POP SWAP2 SWAP1 POP JUMP JUMPDEST DUP3 DUP2 DUP4 CALLDATACOPY PUSH1 0x0 DUP4 DUP4 ADD MSTORE POP POP POP JUMP JUMPDEST PUSH1 0x0 PUSH2 0x2196 PUSH2 0x2191 DUP5 PUSH2 0x2143 JUMP JUMPDEST PUSH2 0x2128 JUMP JUMPDEST SWAP1 POP DUP3 DUP2 MSTORE PUSH1 0x20 DUP2 ADD DUP5 DUP5 DUP5 ADD GT ISZERO PUSH2 0x21B2 JUMPI PUSH2 0x21B1 PUSH2 0x20B2 JUMP JUMPDEST JUMPDEST PUSH2 0x21BD DUP5 DUP3 DUP6 PUSH2 0x2174 JUMP JUMPDEST POP SWAP4 SWAP3 POP POP POP JUMP JUMPDEST PUSH1 0x0 DUP3 PUSH1 0x1F DUP4 ADD SLT PUSH2 0x21DA JUMPI PUSH2 0x21D9 PUSH2 0x20AD JUMP JUMPDEST JUMPDEST DUP2 CALLDATALOAD PUSH2 0x21EA DUP5 DUP3 PUSH1 0x20 DUP7 ADD PUSH2 0x2183 JUMP JUMPDEST SWAP2 POP POP SWAP3 SWAP2 POP POP JUMP JUMPDEST PUSH1 0x0 PUSH8 0xFFFFFFFFFFFFFFFF DUP3 GT ISZERO PUSH2 0x220E JUMPI PUSH2 0x220D PUSH2 0x20C8 JUMP JUMPDEST JUMPDEST PUSH1 0x20 DUP3 MUL SWAP1 POP PUSH1 0x20 DUP2 ADD SWAP1 POP SWAP2 SWAP1 POP JUMP JUMPDEST PUSH1 0x0 DUP1 REVERT JUMPDEST PUSH1 0x0 PUSH2 0x2237 PUSH2 0x2232 DUP5 PUSH2 0x21F3 JUMP JUMPDEST PUSH2 0x2128 JUMP JUMPDEST SWAP1 POP DUP1 DUP4 DUP3 MSTORE PUSH1 0x20 DUP3 ADD SWAP1 POP PUSH1 0x20 DUP5 MUL DUP4 ADD DUP6 DUP2 GT ISZERO PUSH2 0x225A JUMPI PUSH2 0x2259 PUSH2 0x221F JUMP JUMPDEST JUMPDEST DUP4 JUMPDEST DUP2 DUP2 LT ISZERO PUSH2 0x22A1 JUMPI DUP1 CALLDATALOAD PUSH8 0xFFFFFFFFFFFFFFFF DUP2 GT ISZERO PUSH2 0x227F JUMPI PUSH2 0x227E PUSH2 0x20AD JUMP JUMPDEST JUMPDEST DUP1 DUP7 ADD PUSH2 0x228C DUP10 DUP3 PUSH2 0x21C5 JUMP JUMPDEST DUP6 MSTORE PUSH1 0x20 DUP6 ADD SWAP5 POP POP POP PUSH1 0x20 DUP2 ADD SWAP1 POP PUSH2 0x225C JUMP JUMPDEST POP POP POP SWAP4 SWAP3 POP POP POP JUMP JUMPDEST PUSH1 0x0 DUP3 PUSH1 0x1F DUP4 ADD SLT PUSH2 0x22C0 JUMPI PUSH2 0x22BF PUSH2 0x20AD JUMP JUMPDEST JUMPDEST DUP2 CALLDATALOAD PUSH2 0x22D0 DUP5 DUP3 PUSH1 0x20 DUP7 ADD PUSH2 0x2224 JUMP JUMPDEST SWAP2 POP POP SWAP3 SWAP2 POP POP JUMP JUMPDEST PUSH1 0x0 DUP1 PUSH1 0x0 DUP1 PUSH1 0x80 DUP6 DUP8 SUB SLT ISZERO PUSH2 0x22F3 JUMPI PUSH2 0x22F2 PUSH2 0x206D JUMP JUMPDEST JUMPDEST PUSH1 0x0 PUSH2 0x2301 DUP8 DUP3 DUP9 ADD PUSH2 0x2098 JUMP JUMPDEST SWAP5 POP POP PUSH1 0x20 DUP6 ADD CALLDATALOAD PUSH8 0xFFFFFFFFFFFFFFFF DUP2 GT ISZERO PUSH2 0x2322 JUMPI PUSH2 0x2321 PUSH2 0x2072 JUMP JUMPDEST JUMPDEST PUSH2 0x232E DUP8 DUP3 DUP9 ADD PUSH2 0x21C5 JUMP JUMPDEST SWAP4 POP POP PUSH1 0x40 DUP6 ADD CALLDATALOAD PUSH8 0xFFFFFFFFFFFFFFFF DUP2 GT ISZERO PUSH2 0x234F JUMPI PUSH2 0x234E PUSH2 0x2072 JUMP JUMPDEST JUMPDEST PUSH2 0x235B DUP8 DUP3 DUP9 ADD PUSH2 0x22AB JUMP JUMPDEST SWAP3 POP POP PUSH1 0x60 DUP6 ADD CALLDATALOAD PUSH8 0xFFFFFFFFFFFFFFFF DUP2 GT ISZERO PUSH2 0x237C JUMPI PUSH2 0x237B PUSH2 0x2072 JUMP JUMPDEST JUMPDEST PUSH2 0x2388 DUP8 DUP3 DUP9 ADD PUSH2 0x22AB JUMP JUMPDEST SWAP2 POP POP SWAP3 SWAP6 SWAP2 SWAP5 POP SWAP3 POP JUMP JUMPDEST PUSH1 0x0 DUP1 PUSH1 0x40 DUP4 DUP6 SUB SLT ISZERO PUSH2 0x23AB JUMPI PUSH2 0x23AA PUSH2 0x206D JUMP JUMPDEST JUMPDEST PUSH1 0x0 PUSH2 0x23B9 DUP6 DUP3 DUP7 ADD PUSH2 0x2098 JUMP JUMPDEST SWAP3 POP POP PUSH1 0x20 PUSH2 0x23CA DUP6 DUP3 DUP7 ADD PUSH2 0x2098 JUMP JUMPDEST SWAP2 POP POP SWAP3 POP SWAP3 SWAP1 POP JUMP JUMPDEST PUSH1 0x0 DUP2 MLOAD SWAP1 POP SWAP2 SWAP1 POP JUMP JUMPDEST PUSH1 0x0 DUP3 DUP3 MSTORE PUSH1 0x20 DUP3 ADD SWAP1 POP SWAP3 SWAP2 POP POP JUMP JUMPDEST PUSH1 0x0 JUMPDEST DUP4 DUP2 LT ISZERO PUSH2 0x240E JUMPI DUP1 DUP3 ADD MLOAD DUP2 DUP5 ADD MSTORE PUSH1 0x20 DUP2 ADD SWAP1 POP PUSH2 0x23F3 JUMP JUMPDEST PUSH1 0x0 DUP5 DUP5 ADD MSTORE POP POP POP POP JUMP JUMPDEST PUSH1 0x0 PUSH2 0x2425 DUP3 PUSH2 0x23D4 JUMP JUMPDEST PUSH2 0x242F DUP2 DUP6 PUSH2 0x23DF JUMP JUMPDEST SWAP4 POP PUSH2 0x243F DUP2 DUP6 PUSH1 0x20 DUP7 ADD PUSH2 0x23F0 JUMP JUMPDEST PUSH2 0x2448 DUP2 PUSH2 0x20B7 JUMP JUMPDEST DUP5 ADD SWAP2 POP POP SWAP3 SWAP2 POP POP JUMP JUMPDEST PUSH1 0x0 DUP2 MLOAD SWAP1 POP SWAP2 SWAP1 POP JUMP JUMPDEST PUSH1 0x0 DUP3 DUP3 MSTORE PUSH1 0x20 DUP3 ADD SWAP1 POP SWAP3 SWAP2 POP POP JUMP JUMPDEST PUSH1 0x0 DUP2 SWAP1 POP PUSH1 0x20 DUP3 ADD SWAP1 POP SWAP2 SWAP1 POP JUMP JUMPDEST PUSH1 0x0 PUSH2 0x248B DUP4 DUP4 PUSH2 0x241A JUMP JUMPDEST SWAP1 POP SWAP3 SWAP2 POP POP JUMP JUMPDEST PUSH1 0x0 PUSH1 0x20 DUP3 ADD SWAP1 POP SWAP2 SWAP1 POP JUMP JUMPDEST PUSH1 0x0 PUSH2 0x24AB DUP3 PUSH2 0x2453 JUMP JUMPDEST PUSH2 0x24B5 DUP2 DUP6 PUSH2 0x245E JUMP JUMPDEST SWAP4 POP DUP4 PUSH1 0x20 DUP3 MUL DUP6 ADD PUSH2 0x24C7 DUP6 PUSH2 0x246F JUMP JUMPDEST DUP1 PUSH1 0x0 JUMPDEST DUP6 DUP2 LT ISZERO PUSH2 0x2503 JUMPI DUP5 DUP5 SUB DUP10 MSTORE DUP2 MLOAD PUSH2 0x24E4 DUP6 DUP3 PUSH2 0x247F JUMP JUMPDEST SWAP5 POP PUSH2 0x24EF DUP4 PUSH2 0x2493 JUMP JUMPDEST SWAP3 POP PUSH1 0x20 DUP11 ADD SWAP10 POP POP PUSH1 0x1 DUP2 ADD SWAP1 POP PUSH2 0x24CB JUMP JUMPDEST POP DUP3 SWAP8 POP DUP8 SWAP6 POP POP POP POP POP POP SWAP3 SWAP2 POP POP JUMP JUMPDEST PUSH1 0x0 DUP2 SWAP1 POP SWAP2 SWAP1 POP JUMP JUMPDEST PUSH2 0x2528 DUP2 PUSH2 0x2515 JUMP JUMPDEST DUP3 MSTORE POP POP JUMP JUMPDEST PUSH2 0x2537 DUP2 PUSH2 0x2077 JUMP JUMPDEST DUP3 MSTORE POP POP JUMP JUMPDEST PUSH1 0x0 PUSH1 0xE0 DUP4 ADD PUSH1 0x0 DUP4 ADD MLOAD DUP5 DUP3 SUB PUSH1 0x0 DUP7 ADD MSTORE PUSH2 0x255A DUP3 DUP3 PUSH2 0x241A JUMP JUMPDEST SWAP2 POP POP PUSH1 0x20 DUP4 ADD MLOAD DUP5 DUP3 SUB PUSH1 0x20 DUP7 ADD MSTORE PUSH2 0x2574 DUP3 DUP3 PUSH2 0x241A JUMP JUMPDEST SWAP2 POP POP PUSH1 0x40 DUP4 ADD MLOAD DUP5 DUP3 SUB PUSH1 0x40 DUP7 ADD MSTORE PUSH2 0x258E DUP3 DUP3 PUSH2 0x24A0 JUMP JUMPDEST SWAP2 POP POP PUSH1 0x60 DUP4 ADD MLOAD DUP5 DUP3 SUB PUSH1 0x60 DUP7 ADD MSTORE PUSH2 0x25A8 DUP3 DUP3 PUSH2 0x24A0 JUMP JUMPDEST SWAP2 POP POP PUSH1 0x80 DUP4 ADD MLOAD PUSH2 0x25BD PUSH1 0x80 DUP7 ADD DUP3 PUSH2 0x251F JUMP JUMPDEST POP PUSH1 0xA0 DUP4 ADD MLOAD PUSH2 0x25D0 PUSH1 0xA0 DUP7 ADD DUP3 PUSH2 0x252E JUMP JUMPDEST POP PUSH1 0xC0 DUP4 ADD MLOAD PUSH2 0x25E3 PUSH1 0xC0 DUP7 ADD DUP3 PUSH2 0x252E JUMP JUMPDEST POP DUP1 SWAP2 POP POP SWAP3 SWAP2 POP POP JUMP JUMPDEST PUSH1 0x0 PUSH1 0x20 DUP3 ADD SWAP1 POP DUP2 DUP2 SUB PUSH1 0x0 DUP4 ADD MSTORE PUSH2 0x2608 DUP2 DUP5 PUSH2 0x253D JUMP JUMPDEST SWAP1 POP SWAP3 SWAP2 POP POP JUMP JUMPDEST PUSH2 0x2619 DUP2 PUSH2 0x2515 JUMP JUMPDEST DUP2 EQ PUSH2 0x2624 JUMPI PUSH1 0x0 DUP1 REVERT JUMPDEST POP JUMP JUMPDEST PUSH1 0x0 DUP2 CALLDATALOAD SWAP1 POP PUSH2 0x2636 DUP2 PUSH2 0x2610 JUMP JUMPDEST SWAP3 SWAP2 POP POP JUMP JUMPDEST PUSH1 0x0 DUP1 PUSH1 0x0 PUSH1 0x60 DUP5 DUP7 SUB SLT ISZERO PUSH2 0x2655 JUMPI PUSH2 0x2654 PUSH2 0x206D JUMP JUMPDEST JUMPDEST PUSH1 0x0 PUSH2 0x2663 DUP7 DUP3 DUP8 ADD PUSH2 0x2098 JUMP JUMPDEST SWAP4 POP POP PUSH1 0x20 PUSH2 0x2674 DUP7 DUP3 DUP8 ADD PUSH2 0x2098 JUMP JUMPDEST SWAP3 POP POP PUSH1 0x40 PUSH2 0x2685 DUP7 DUP3 DUP8 ADD PUSH2 0x2627 JUMP JUMPDEST SWAP2 POP POP SWAP3 POP SWAP3 POP SWAP3 JUMP JUMPDEST PUSH1 0x0 PUSH1 0x20 DUP3 DUP5 SUB SLT ISZERO PUSH2 0x26A5 JUMPI PUSH2 0x26A4 PUSH2 0x206D JUMP JUMPDEST JUMPDEST PUSH1 0x0 PUSH2 0x26B3 DUP5 DUP3 DUP6 ADD PUSH2 0x2098 JUMP JUMPDEST SWAP2 POP POP SWAP3 SWAP2 POP POP JUMP JUMPDEST PUSH1 0x0 DUP3 DUP3 MSTORE PUSH1 0x20 DUP3 ADD SWAP1 POP SWAP3 SWAP2 POP POP JUMP JUMPDEST PUSH1 0x0 PUSH2 0x26D8 DUP3 PUSH2 0x23D4 JUMP JUMPDEST PUSH2 0x26E2 DUP2 DUP6 PUSH2 0x26BC JUMP JUMPDEST SWAP4 POP PUSH2 0x26F2 DUP2 DUP6 PUSH1 0x20 DUP7 ADD PUSH2 0x23F0 JUMP JUMPDEST PUSH2 0x26FB DUP2 PUSH2 0x20B7 JUMP JUMPDEST DUP5 ADD SWAP2 POP POP SWAP3 SWAP2 POP POP JUMP JUMPDEST PUSH1 0x0 PUSH1 0x20 DUP3 ADD SWAP1 POP DUP2 DUP2 SUB PUSH1 0x0 DUP4 ADD MSTORE PUSH2 0x2720 DUP2 DUP5 PUSH2 0x26CD JUMP JUMPDEST SWAP1 POP SWAP3 SWAP2 POP POP JUMP JUMPDEST PUSH1 0x0 DUP1 PUSH1 0x0 DUP1 PUSH1 0x80 DUP6 DUP8 SUB SLT ISZERO PUSH2 0x2742 JUMPI PUSH2 0x2741 PUSH2 0x206D JUMP JUMPDEST JUMPDEST PUSH1 0x0 PUSH2 0x2750 DUP8 DUP3 DUP9 ADD PUSH2 0x2098 JUMP JUMPDEST SWAP5 POP POP PUSH1 0x20 PUSH2 0x2761 DUP8 DUP3 DUP9 ADD PUSH2 0x2098 JUMP JUMPDEST SWAP4 POP POP PUSH1 0x40 PUSH2 0x2772 DUP8 DUP3 DUP9 ADD PUSH2 0x2098 JUMP JUMPDEST SWAP3 POP POP PUSH1 0x60 DUP6 ADD CALLDATALOAD PUSH8 0xFFFFFFFFFFFFFFFF DUP2 GT ISZERO PUSH2 0x2793 JUMPI PUSH2 0x2792 PUSH2 0x2072 JUMP JUMPDEST JUMPDEST PUSH2 0x279F DUP8 DUP3 DUP9 ADD PUSH2 0x21C5 JUMP JUMPDEST SWAP2 POP POP SWAP3 SWAP6 SWAP2 SWAP5 POP SWAP3 POP JUMP JUMPDEST PUSH2 0x27B4 DUP2 PUSH2 0x2077 JUMP JUMPDEST DUP3 MSTORE POP POP JUMP JUMPDEST PUSH1 0x0 PUSH1 0x20 DUP3 ADD SWAP1 POP PUSH2 0x27CF PUSH1 0x0 DUP4 ADD DUP5 PUSH2 0x27AB JUMP JUMPDEST SWAP3 SWAP2 POP POP JUMP JUMPDEST PUSH1 0x0 PUSH20 0xFFFFFFFFFFFFFFFFFFFFFFFFFFFFFFFFFFFFFFFF DUP3 AND SWAP1 POP SWAP2 SWAP1 POP JUMP JUMPDEST PUSH1 0x0 PUSH2 0x2800 DUP3 PUSH2 0x27D5 JUMP JUMPDEST SWAP1 POP SWAP2 SWAP1 POP JUMP JUMPDEST PUSH2 0x2810 DUP2 PUSH2 0x27F5 JUMP JUMPDEST DUP3 MSTORE POP POP JUMP JUMPDEST PUSH1 0x0 PUSH1 0x20 DUP3 ADD SWAP1 POP PUSH2 0x282B PUSH1 0x0 DUP4 ADD DUP5 PUSH2 0x2807 JUMP JUMPDEST SWAP3 SWAP2 POP POP JUMP JUMPDEST PUSH2 0x283A DUP2 PUSH2 0x27F5 JUMP JUMPDEST DUP2 EQ PUSH2 0x2845 JUMPI PUSH1 0x0 DUP1 REVERT JUMPDEST POP JUMP JUMPDEST PUSH1 0x0 DUP2 CALLDATALOAD SWAP1 POP PUSH2 0x2857 DUP2 PUSH2 0x2831 JUMP JUMPDEST SWAP3 SWAP2 POP POP JUMP JUMPDEST PUSH1 0x0 PUSH1 0x20 DUP3 DUP5 SUB SLT ISZERO PUSH2 0x2873 JUMPI PUSH2 0x2872 PUSH2 0x206D JUMP JUMPDEST JUMPDEST PUSH1 0x0 PUSH2 0x2881 DUP5 DUP3 DUP6 ADD PUSH2 0x2848 JUMP JUMPDEST SWAP2 POP POP SWAP3 SWAP2 POP POP JUMP JUMPDEST PUSH1 0x0 DUP1 PUSH1 0x0 DUP1 PUSH1 0x80 DUP6 DUP8 SUB SLT ISZERO PUSH2 0x28A4 JUMPI PUSH2 0x28A3 PUSH2 0x206D JUMP JUMPDEST JUMPDEST PUSH1 0x0 DUP6 ADD CALLDATALOAD PUSH8 0xFFFFFFFFFFFFFFFF DUP2 GT ISZERO PUSH2 0x28C2 JUMPI PUSH2 0x28C1 PUSH2 0x2072 JUMP JUMPDEST JUMPDEST PUSH2 0x28CE DUP8 DUP3 DUP9 ADD PUSH2 0x21C5 JUMP JUMPDEST SWAP5 POP POP PUSH1 0x20 DUP6 ADD CALLDATALOAD PUSH8 0xFFFFFFFFFFFFFFFF DUP2 GT ISZERO PUSH2 0x28EF JUMPI PUSH2 0x28EE PUSH2 0x2072 JUMP JUMPDEST JUMPDEST PUSH2 0x28FB DUP8 DUP3 DUP9 ADD PUSH2 0x21C5 JUMP JUMPDEST SWAP4 POP POP PUSH1 0x40 DUP6 ADD CALLDATALOAD PUSH8 0xFFFFFFFFFFFFFFFF DUP2 GT ISZERO PUSH2 0x291C JUMPI PUSH2 0x291B PUSH2 0x2072 JUMP JUMPDEST JUMPDEST PUSH2 0x2928 DUP8 DUP3 DUP9 ADD PUSH2 0x22AB JUMP JUMPDEST SWAP3 POP POP PUSH1 0x60 DUP6 ADD CALLDATALOAD PUSH8 0xFFFFFFFFFFFFFFFF DUP2 GT ISZERO PUSH2 0x2949 JUMPI PUSH2 0x2948 PUSH2 0x2072 JUMP JUMPDEST JUMPDEST PUSH2 0x2955 DUP8 DUP3 DUP9 ADD PUSH2 0x22AB JUMP JUMPDEST SWAP2 POP POP SWAP3 SWAP6 SWAP2 SWAP5 POP SWAP3 POP JUMP JUMPDEST PUSH32 0x4E487B7100000000000000000000000000000000000000000000000000000000 PUSH1 0x0 MSTORE PUSH1 0x32 PUSH1 0x4 MSTORE PUSH1 0x24 PUSH1 0x0 REVERT JUMPDEST PUSH32 0x4E487B7100000000000000000000000000000000000000000000000000000000 PUSH1 0x0 MSTORE PUSH1 0x22 PUSH1 0x4 MSTORE PUSH1 0x24 PUSH1 0x0 REVERT JUMPDEST PUSH1 0x0 PUSH1 0x2 DUP3 DIV SWAP1 POP PUSH1 0x1 DUP3 AND DUP1 PUSH2 0x29D7 JUMPI PUSH1 0x7F DUP3 AND SWAP2 POP JUMPDEST PUSH1 0x20 DUP3 LT DUP2 SUB PUSH2 0x29EA JUMPI PUSH2 0x29E9 PUSH2 0x2990 JUMP JUMPDEST JUMPDEST POP SWAP2 SWAP1 POP JUMP JUMPDEST PUSH1 0x0 DUP2 SWAP1 POP DUP2 PUSH1 0x0 MSTORE PUSH1 0x20 PUSH1 0x0 KECCAK256 SWAP1 POP SWAP2 SWAP1 POP JUMP JUMPDEST PUSH1 0x0 PUSH1 0x20 PUSH1 0x1F DUP4 ADD DIV SWAP1 POP SWAP2 SWAP1 POP JUMP JUMPDEST PUSH1 0x0 DUP3 DUP3 SHL SWAP1 POP SWAP3 SWAP2 POP POP JUMP JUMPDEST PUSH1 0x0 PUSH1 0x8 DUP4 MUL PUSH2 0x2A52 PUSH32 0xFFFFFFFFFFFFFFFFFFFFFFFFFFFFFFFFFFFFFFFFFFFFFFFFFFFFFFFFFFFFFFFF DUP3 PUSH2 0x2A15 JUMP JUMPDEST PUSH2 0x2A5C DUP7 DUP4 PUSH2 0x2A15 JUMP JUMPDEST SWAP6 POP DUP1 NOT DUP5 AND SWAP4 POP DUP1 DUP7 AND DUP5 OR SWAP3 POP POP POP SWAP4 SWAP3 POP POP POP JUMP JUMPDEST PUSH1 0x0 DUP2 SWAP1 POP SWAP2 SWAP1 POP JUMP JUMPDEST PUSH1 0x0 PUSH2 0x2A99 PUSH2 0x2A94 PUSH2 0x2A8F DUP5 PUSH2 0x2077 JUMP JUMPDEST PUSH2 0x2A74 JUMP JUMPDEST PUSH2 0x2077 JUMP JUMPDEST SWAP1 POP SWAP2 SWAP1 POP JUMP JUMPDEST PUSH1 0x0 DUP2 SWAP1 POP SWAP2 SWAP1 POP JUMP JUMPDEST PUSH2 0x2AB3 DUP4 PUSH2 0x2A7E JUMP JUMPDEST PUSH2 0x2AC7 PUSH2 0x2ABF DUP3 PUSH2 0x2AA0 JUMP JUMPDEST DUP5 DUP5 SLOAD PUSH2 0x2A22 JUMP JUMPDEST DUP3 SSTORE POP POP POP POP JUMP JUMPDEST PUSH1 0x0 SWAP1 JUMP JUMPDEST PUSH2 0x2ADC PUSH2 0x2ACF JUMP JUMPDEST PUSH2 0x2AE7 DUP2 DUP5 DUP5 PUSH2 0x2AAA JUMP JUMPDEST POP POP POP JUMP JUMPDEST JUMPDEST DUP2 DUP2 LT ISZERO PUSH2 0x2B0B JUMPI PUSH2 0x2B00 PUSH1 0x0 DUP3 PUSH2 0x2AD4 JUMP JUMPDEST PUSH1 0x1 DUP2 ADD SWAP1 POP PUSH2 0x2AED JUMP JUMPDEST POP POP JUMP JUMPDEST PUSH1 0x1F DUP3 GT ISZERO PUSH2 0x2B50 JUMPI PUSH2 0x2B21 DUP2 PUSH2 0x29F0 JUMP JUMPDEST PUSH2 0x2B2A DUP5 PUSH2 0x2A05 JUMP JUMPDEST DUP2 ADD PUSH1 0x20 DUP6 LT ISZERO PUSH2 0x2B39 JUMPI DUP2 SWAP1 POP JUMPDEST PUSH2 0x2B4D PUSH2 0x2B45 DUP6 PUSH2 0x2A05 JUMP JUMPDEST DUP4 ADD DUP3 PUSH2 0x2AEC JUMP JUMPDEST POP POP JUMPDEST POP POP POP JUMP JUMPDEST PUSH1 0x0 DUP3 DUP3 SHR SWAP1 POP SWAP3 SWAP2 POP POP JUMP JUMPDEST PUSH1 0x0 PUSH2 0x2B73 PUSH1 0x0 NOT DUP5 PUSH1 0x8 MUL PUSH2 0x2B55 JUMP JUMPDEST NOT DUP1 DUP4 AND SWAP2 POP POP SWAP3 SWAP2 POP POP JUMP JUMPDEST PUSH1 0x0 PUSH2 0x2B8C DUP4 DUP4 PUSH2 0x2B62 JUMP JUMPDEST SWAP2 POP DUP3 PUSH1 0x2 MUL DUP3 OR SWAP1 POP SWAP3 SWAP2 POP POP JUMP JUMPDEST PUSH2 0x2BA5 DUP3 PUSH2 0x23D4 JUMP JUMPDEST PUSH8 0xFFFFFFFFFFFFFFFF DUP2 GT ISZERO PUSH2 0x2BBE JUMPI PUSH2 0x2BBD PUSH2 0x20C8 JUMP JUMPDEST JUMPDEST PUSH2 0x2BC8 DUP3 SLOAD PUSH2 0x29BF JUMP JUMPDEST PUSH2 0x2BD3 DUP3 DUP3 DUP6 PUSH2 0x2B0F JUMP JUMPDEST PUSH1 0x0 PUSH1 0x20 SWAP1 POP PUSH1 0x1F DUP4 GT PUSH1 0x1 DUP2 EQ PUSH2 0x2C06 JUMPI PUSH1 0x0 DUP5 ISZERO PUSH2 0x2BF4 JUMPI DUP3 DUP8 ADD MLOAD SWAP1 POP JUMPDEST PUSH2 0x2BFE DUP6 DUP3 PUSH2 0x2B80 JUMP JUMPDEST DUP7 SSTORE POP PUSH2 0x2C66 JUMP JUMPDEST PUSH1 0x1F NOT DUP5 AND PUSH2 0x2C14 DUP7 PUSH2 0x29F0 JUMP JUMPDEST PUSH1 0x0 JUMPDEST DUP3 DUP2 LT ISZERO PUSH2 0x2C3C JUMPI DUP5 DUP10 ADD MLOAD DUP3 SSTORE PUSH1 0x1 DUP3 ADD SWAP2 POP PUSH1 0x20 DUP6 ADD SWAP5 POP PUSH1 0x20 DUP2 ADD SWAP1 POP PUSH2 0x2C17 JUMP JUMPDEST DUP7 DUP4 LT ISZERO PUSH2 0x2C59 JUMPI DUP5 DUP10 ADD MLOAD PUSH2 0x2C55 PUSH1 0x1F DUP10 AND DUP3 PUSH2 0x2B62 JUMP JUMPDEST DUP4 SSTORE POP JUMPDEST PUSH1 0x1 PUSH1 0x2 DUP9 MUL ADD DUP9 SSTORE POP POP POP JUMPDEST POP POP POP POP POP POP JUMP JUMPDEST PUSH32 0x496E76616C696420766F74650000000000000000000000000000000000000000 PUSH1 0x0 DUP3 ADD MSTORE POP JUMP JUMPDEST PUSH1 0x0 PUSH2 0x2CA4 PUSH1 0xC DUP4 PUSH2 0x26BC JUMP JUMPDEST SWAP2 POP PUSH2 0x2CAF DUP3 PUSH2 0x2C6E JUMP JUMPDEST PUSH1 0x20 DUP3 ADD SWAP1 POP SWAP2 SWAP1 POP JUMP JUMPDEST PUSH1 0x0 PUSH1 0x20 DUP3 ADD SWAP1 POP DUP2 DUP2 SUB PUSH1 0x0 DUP4 ADD MSTORE PUSH2 0x2CD3 DUP2 PUSH2 0x2C97 JUMP JUMPDEST SWAP1 POP SWAP2 SWAP1 POP JUMP JUMPDEST PUSH32 0x4E487B7100000000000000000000000000000000000000000000000000000000 PUSH1 0x0 MSTORE PUSH1 0x11 PUSH1 0x4 MSTORE PUSH1 0x24 PUSH1 0x0 REVERT JUMPDEST PUSH1 0x0 PUSH2 0x2D14 DUP3 PUSH2 0x2515 JUMP JUMPDEST SWAP2 POP PUSH2 0x2D1F DUP4 PUSH2 0x2515 JUMP JUMPDEST SWAP3 POP DUP3 DUP3 SUB SWAP1 POP DUP2 DUP2 SLT PUSH1 0x0 DUP5 SLT AND DUP3 DUP3 SGT PUSH1 0x0 DUP6 SLT ISZERO AND OR ISZERO PUSH2 0x2D46 JUMPI PUSH2 0x2D45 PUSH2 0x2CDA JUMP JUMPDEST JUMPDEST SWAP3 SWAP2 POP POP JUMP JUMPDEST PUSH1 0x0 PUSH2 0x2D57 DUP3 PUSH2 0x2077 JUMP JUMPDEST SWAP2 POP PUSH1 0x0 DUP3 SUB PUSH2 0x2D6A JUMPI PUSH2 0x2D69 PUSH2 0x2CDA JUMP JUMPDEST JUMPDEST PUSH1 0x1 DUP3 SUB SWAP1 POP SWAP2 SWAP1 POP JUMP JUMPDEST PUSH1 0x0 PUSH2 0x2D80 DUP3 PUSH2 0x2077 JUMP JUMPDEST SWAP2 POP PUSH32 0xFFFFFFFFFFFFFFFFFFFFFFFFFFFFFFFFFFFFFFFFFFFFFFFFFFFFFFFFFFFFFFFF DUP3 SUB PUSH2 0x2DB2 JUMPI PUSH2 0x2DB1 PUSH2 0x2CDA JUMP JUMPDEST JUMPDEST PUSH1 0x1 DUP3 ADD SWAP1 POP SWAP2 SWAP1 POP JUMP JUMPDEST PUSH1 0x0 PUSH2 0x2DC8 DUP3 PUSH2 0x2515 JUMP JUMPDEST SWAP2 POP PUSH2 0x2DD3 DUP4 PUSH2 0x2515 JUMP JUMPDEST SWAP3 POP DUP3 DUP3 ADD SWAP1 POP DUP3 DUP2 SLT ISZERO PUSH1 0x0 DUP4 SLT AND DUP4 DUP3 SLT PUSH1 0x0 DUP5 SLT ISZERO AND OR ISZERO PUSH2 0x2DFB JUMPI PUSH2 0x2DFA PUSH2 0x2CDA JUMP JUMPDEST JUMPDEST SWAP3 SWAP2 POP POP JUMP JUMPDEST PUSH1 0x0 DUP2 SWAP1 POP SWAP3 SWAP2 POP POP JUMP JUMPDEST PUSH1 0x0 PUSH2 0x2E17 DUP3 PUSH2 0x23D4 JUMP JUMPDEST PUSH2 0x2E21 DUP2 DUP6 PUSH2 0x2E01 JUMP JUMPDEST SWAP4 POP PUSH2 0x2E31 DUP2 DUP6 PUSH1 0x20 DUP7 ADD PUSH2 0x23F0 JUMP JUMPDEST DUP1 DUP5 ADD SWAP2 POP POP SWAP3 SWAP2 POP POP JUMP JUMPDEST PUSH32 0x2300000000000000000000000000000000000000000000000000000000000000 DUP2 MSTORE POP JUMP JUMPDEST PUSH1 0x0 DUP2 SLOAD PUSH2 0x2E70 DUP2 PUSH2 0x29BF JUMP JUMPDEST PUSH2 0x2E7A DUP2 DUP7 PUSH2 0x2E01 JUMP JUMPDEST SWAP5 POP PUSH1 0x1 DUP3 AND PUSH1 0x0 DUP2 EQ PUSH2 0x2E95 JUMPI PUSH1 0x1 DUP2 EQ PUSH2 0x2EAA JUMPI PUSH2 0x2EDD JUMP JUMPDEST PUSH1 0xFF NOT DUP4 AND DUP7 MSTORE DUP2 ISZERO ISZERO DUP3 MUL DUP7 ADD SWAP4 POP PUSH2 0x2EDD JUMP JUMPDEST PUSH2 0x2EB3 DUP6 PUSH2 0x29F0 JUMP JUMPDEST PUSH1 0x0 JUMPDEST DUP4 DUP2 LT ISZERO PUSH2 0x2ED5 JUMPI DUP2 SLOAD DUP2 DUP10 ADD MSTORE PUSH1 0x1 DUP3 ADD SWAP2 POP PUSH1 0x20 DUP2 ADD SWAP1 POP PUSH2 0x2EB6 JUMP JUMPDEST DUP4 DUP9 ADD SWAP6 POP POP POP JUMPDEST POP POP POP SWAP3 SWAP2 POP POP JUMP JUMPDEST PUSH32 0x7C00000000000000000000000000000000000000000000000000000000000000 DUP2 MSTORE POP JUMP JUMPDEST PUSH1 0x0 PUSH2 0x2F18 DUP3 DUP11 PUSH2 0x2E0C JUMP JUMPDEST SWAP2 POP PUSH2 0x2F23 DUP3 PUSH2 0x2E3D JUMP JUMPDEST PUSH1 0x1 DUP3 ADD SWAP2 POP PUSH2 0x2F33 DUP3 DUP10 PUSH2 0x2E63 JUMP JUMPDEST SWAP2 POP PUSH2 0x2F3E DUP3 PUSH2 0x2E3D JUMP JUMPDEST PUSH1 0x1 DUP3 ADD SWAP2 POP PUSH2 0x2F4E DUP3 DUP9 PUSH2 0x2E63 JUMP JUMPDEST SWAP2 POP PUSH2 0x2F59 DUP3 PUSH2 0x2E3D JUMP JUMPDEST PUSH1 0x1 DUP3 ADD SWAP2 POP PUSH2 0x2F69 DUP3 DUP8 PUSH2 0x2E0C JUMP JUMPDEST SWAP2 POP PUSH2 0x2F74 DUP3 PUSH2 0x2E3D JUMP JUMPDEST PUSH1 0x1 DUP3 ADD SWAP2 POP PUSH2 0x2F84 DUP3 DUP7 PUSH2 0x2E0C JUMP JUMPDEST SWAP2 POP PUSH2 0x2F8F DUP3 PUSH2 0x2E3D JUMP JUMPDEST PUSH1 0x1 DUP3 ADD SWAP2 POP PUSH2 0x2F9F DUP3 DUP6 PUSH2 0x2E0C JUMP JUMPDEST SWAP2 POP PUSH2 0x2FAA DUP3 PUSH2 0x2EE6 JUMP JUMPDEST PUSH1 0x1 DUP3 ADD SWAP2 POP PUSH2 0x2FBA DUP3 DUP5 PUSH2 0x2E0C JUMP JUMPDEST SWAP2 POP DUP2 SWAP1 POP SWAP9 SWAP8 POP POP POP POP POP POP POP POP JUMP JUMPDEST PUSH1 0x0 PUSH2 0x2FD7 DUP3 DUP7 PUSH2 0x2E0C JUMP JUMPDEST SWAP2 POP PUSH2 0x2FE2 DUP3 PUSH2 0x2E3D JUMP JUMPDEST PUSH1 0x1 DUP3 ADD SWAP2 POP PUSH2 0x2FF2 DUP3 DUP6 PUSH2 0x2E63 JUMP JUMPDEST SWAP2 POP PUSH2 0x2FFD DUP3 PUSH2 0x2E3D JUMP JUMPDEST PUSH1 0x1 DUP3 ADD SWAP2 POP PUSH2 0x300D DUP3 DUP5 PUSH2 0x2E63 JUMP JUMPDEST SWAP2 POP DUP2 SWAP1 POP SWAP5 SWAP4 POP POP POP POP JUMP JUMPDEST PUSH1 0x0 PUSH2 0x3026 DUP3 DUP6 PUSH2 0x2E0C JUMP JUMPDEST SWAP2 POP PUSH2 0x3031 DUP3 PUSH2 0x2E3D JUMP JUMPDEST PUSH1 0x1 DUP3 ADD SWAP2 POP PUSH2 0x3041 DUP3 DUP5 PUSH2 0x2E63 JUMP JUMPDEST SWAP2 POP DUP2 SWAP1 POP SWAP4 SWAP3 POP POP POP JUMP JUMPDEST PUSH1 0x0 PUSH2 0x3059 DUP3 DUP6 PUSH2 0x2E63 JUMP JUMPDEST SWAP2 POP PUSH2 0x3064 DUP3 PUSH2 0x2E3D JUMP JUMPDEST PUSH1 0x1 DUP3 ADD SWAP2 POP PUSH2 0x3074 DUP3 DUP5 PUSH2 0x2E0C JUMP JUMPDEST SWAP2 POP DUP2 SWAP1 POP SWAP4 SWAP3 POP POP POP JUMP JUMPDEST PUSH32 0x43616C6C6572206973206E6F74206F776E657200000000000000000000000000 PUSH1 0x0 DUP3 ADD MSTORE POP JUMP JUMPDEST PUSH1 0x0 PUSH2 0x30B6 PUSH1 0x13 DUP4 PUSH2 0x26BC JUMP JUMPDEST SWAP2 POP PUSH2 0x30C1 DUP3 PUSH2 0x3080 JUMP JUMPDEST PUSH1 0x20 DUP3 ADD SWAP1 POP SWAP2 SWAP1 POP JUMP JUMPDEST PUSH1 0x0 PUSH1 0x20 DUP3 ADD SWAP1 POP DUP2 DUP2 SUB PUSH1 0x0 DUP4 ADD MSTORE PUSH2 0x30E5 DUP2 PUSH2 0x30A9 JUMP JUMPDEST SWAP1 POP SWAP2 SWAP1 POP JUMP JUMPDEST PUSH32 0x5465787420746F20736D616C6C00000000000000000000000000000000000000 PUSH1 0x0 DUP3 ADD MSTORE POP JUMP JUMPDEST PUSH1 0x0 PUSH2 0x3122 PUSH1 0xD DUP4 PUSH2 0x26BC JUMP JUMPDEST SWAP2 POP PUSH2 0x312D DUP3 PUSH2 0x30EC JUMP JUMPDEST PUSH1 0x20 DUP3 ADD SWAP1 POP SWAP2 SWAP1 POP JUMP JUMPDEST PUSH1 0x0 PUSH1 0x20 DUP3 ADD SWAP1 POP DUP2 DUP2 SUB PUSH1 0x0 DUP4 ADD MSTORE PUSH2 0x3151 DUP2 PUSH2 0x3115 JUMP JUMPDEST SWAP1 POP SWAP2 SWAP1 POP JUMP JUMPDEST PUSH32 0x5465787420746F6F20736D616C6C000000000000000000000000000000000000 PUSH1 0x0 DUP3 ADD MSTORE POP JUMP JUMPDEST PUSH1 0x0 PUSH2 0x318E PUSH1 0xE DUP4 PUSH2 0x26BC JUMP JUMPDEST SWAP2 POP PUSH2 0x3199 DUP3 PUSH2 0x3158 JUMP JUMPDEST PUSH1 0x20 DUP3 ADD SWAP1 POP SWAP2 SWAP1 POP JUMP JUMPDEST PUSH1 0x0 PUSH1 0x20 DUP3 ADD SWAP1 POP DUP2 DUP2 SUB PUSH1 0x0 DUP4 ADD MSTORE PUSH2 0x31BD DUP2 PUSH2 0x3181 JUMP JUMPDEST SWAP1 POP SWAP2 SWAP1 POP JUMP JUMPDEST PUSH1 0x0 PUSH2 0x31CF DUP3 PUSH2 0x2077 JUMP JUMPDEST SWAP2 POP PUSH2 0x31DA DUP4 PUSH2 0x2077 JUMP JUMPDEST SWAP3 POP DUP3 DUP3 SUB SWAP1 POP DUP2 DUP2 GT ISZERO PUSH2 0x31F2 JUMPI PUSH2 0x31F1 PUSH2 0x2CDA JUMP JUMPDEST JUMPDEST SWAP3 SWAP2 POP POP JUMP JUMPDEST PUSH1 0x0 PUSH2 0x3203 DUP3 PUSH2 0x2515 JUMP JUMPDEST SWAP2 POP PUSH2 0x320E DUP4 PUSH2 0x2515 JUMP JUMPDEST SWAP3 POP DUP3 DUP3 MUL PUSH2 0x321C DUP2 PUSH2 0x2515 JUMP JUMPDEST SWAP2 POP PUSH32 0x8000000000000000000000000000000000000000000000000000000000000000 DUP5 EQ PUSH1 0x0 DUP5 SLT AND ISZERO PUSH2 0x3254 JUMPI PUSH2 0x3253 PUSH2 0x2CDA JUMP JUMPDEST JUMPDEST DUP3 DUP3 SDIV DUP5 EQ DUP4 ISZERO OR PUSH2 0x3269 JUMPI PUSH2 0x3268 PUSH2 0x2CDA JUMP JUMPDEST JUMPDEST POP SWAP3 SWAP2 POP POP JUMP JUMPDEST PUSH1 0x0 PUSH1 0x40 DUP3 ADD SWAP1 POP DUP2 DUP2 SUB PUSH1 0x0 DUP4 ADD MSTORE PUSH2 0x328A DUP2 DUP6 PUSH2 0x26CD JUMP JUMPDEST SWAP1 POP PUSH2 0x3299 PUSH1 0x20 DUP4 ADD DUP5 PUSH2 0x2807 JUMP JUMPDEST SWAP4 SWAP3 POP POP POP JUMP JUMPDEST PUSH32 0x4E487B7100000000000000000000000000000000000000000000000000000000 PUSH1 0x0 MSTORE PUSH1 0x12 PUSH1 0x4 MSTORE PUSH1 0x24 PUSH1 0x0 REVERT JUMPDEST PUSH1 0x0 PUSH2 0x32DB DUP3 DUP6 PUSH2 0x2E0C JUMP JUMPDEST SWAP2 POP PUSH2 0x32E7 DUP3 DUP5 PUSH2 0x2E0C JUMP JUMPDEST SWAP2 POP DUP2 SWAP1 POP SWAP4 SWAP3 POP POP POP JUMP INVALID LOG2 PUSH5 0x6970667358 0x22 SLT KECCAK256 0xE0 PUSH10 0x5EF672C197A4ABE422A8 GT PUSH11 0x7626D89AE8CDFC6DFAA2D9 CODECOPY PUSH21 0x32AC6FB05B64736F6C634300081200330000000000 "
		},
		"gasEstimates": {
			"creation": {
				"codeDepositCost": "2619400",
				"executionCost": "infinite",
				"totalCost": "infinite"
			},
			"external": {
				"changeOwner(address)": "30589",
				"createLaw(string,string,string[],string[])": "infinite",
				"getCurrentVersion(uint256)": "infinite",
				"getDocuments(uint256,uint256)": "infinite",
				"getLaw(uint256)": "infinite",
				"getLaw(uint256,uint256)": "infinite",
				"getLawCount()": "2468",
				"getOwner()": "2589",
				"getRevision(uint256,uint256)": "infinite",
				"getRevisions(uint256)": "infinite",
				"proposeArticleEdit(uint256,uint256,uint256,string)": "infinite",
				"proposeEdit(uint256,string,string[],string[])": "infinite",
				"vote(uint256,uint256,int256)": "infinite"
			}
		},
		"methodIdentifiers": {
			"changeOwner(address)": "a6f9dae1",
			"createLaw(string,string,string[],string[])": "c1c1a377",
			"getCurrentVersion(uint256)": "e715463c",
			"getDocuments(uint256,uint256)": "8349166f",
			"getLaw(uint256)": "c3b53ba4",
			"getLaw(uint256,uint256)": "1f88e5a9",
			"getLawCount()": "6475f4fe",
			"getOwner()": "893d20e8",
			"getRevision(uint256,uint256)": "6192e3e8",
			"getRevisions(uint256)": "3ec559c6",
			"proposeArticleEdit(uint256,uint256,uint256,string)": "4cef38f9",
			"proposeEdit(uint256,string,string[],string[])": "1d31245c",
			"vote(uint256,uint256,int256)": "20b7c317"
		}
	},
	"abi": [
		{
			"inputs": [],
			"stateMutability": "nonpayable",
			"type": "constructor"
		},
		{
			"anonymous": false,
			"inputs": [
				{
					"indexed": true,
					"internalType": "uint256",
					"name": "id",
					"type": "uint256"
				}
			],
			"name": "LawCreated",
			"type": "event"
		},
		{
			"anonymous": false,
			"inputs": [
				{
					"indexed": true,
					"internalType": "address",
					"name": "oldOwner",
					"type": "address"
				},
				{
					"indexed": true,
					"internalType": "address",
					"name": "newOwner",
					"type": "address"
				}
			],
			"name": "OwnerSet",
			"type": "event"
		},
		{
			"inputs": [
				{
					"internalType": "address",
					"name": "newOwner",
					"type": "address"
				}
			],
			"name": "changeOwner",
			"outputs": [],
			"stateMutability": "nonpayable",
			"type": "function"
		},
		{
			"inputs": [
				{
					"internalType": "string",
					"name": "title",
					"type": "string"
				},
				{
					"internalType": "string",
					"name": "law",
					"type": "string"
				},
				{
					"internalType": "string[]",
					"name": "articles",
					"type": "string[]"
				},
				{
					"internalType": "string[]",
					"name": "documents",
					"type": "string[]"
				}
			],
			"name": "createLaw",
			"outputs": [
				{
					"internalType": "uint256",
					"name": "",
					"type": "uint256"
				}
			],
			"stateMutability": "payable",
			"type": "function"
		},
		{
			"inputs": [
				{
					"internalType": "uint256",
					"name": "id",
					"type": "uint256"
				}
			],
			"name": "getCurrentVersion",
			"outputs": [
				{
					"internalType": "uint256",
					"name": "version",
					"type": "uint256"
				}
			],
			"stateMutability": "view",
			"type": "function"
		},
		{
			"inputs": [
				{
					"internalType": "uint256",
					"name": "id",
					"type": "uint256"
				},
				{
					"internalType": "uint256",
					"name": "version",
					"type": "uint256"
				}
			],
			"name": "getDocuments",
			"outputs": [
				{
					"internalType": "string",
					"name": "documents",
					"type": "string"
				}
			],
			"stateMutability": "view",
			"type": "function"
		},
		{
			"inputs": [
				{
					"internalType": "uint256",
					"name": "id",
					"type": "uint256"
				},
				{
					"internalType": "uint256",
					"name": "version",
					"type": "uint256"
				}
			],
			"name": "getLaw",
			"outputs": [
				{
					"components": [
						{
							"internalType": "string",
							"name": "title",
							"type": "string"
						},
						{
							"internalType": "string",
							"name": "law",
							"type": "string"
						},
						{
							"internalType": "string[]",
							"name": "articles",
							"type": "string[]"
						},
						{
							"internalType": "string[]",
							"name": "documents",
							"type": "string[]"
						},
						{
							"internalType": "int256",
							"name": "votes",
							"type": "int256"
						},
						{
							"internalType": "uint256",
							"name": "total",
							"type": "uint256"
						},
						{
							"internalType": "uint256",
							"name": "version",
							"type": "uint256"
						}
					],
					"internalType": "struct Laws.cLaws",
					"name": "L",
					"type": "tuple"
				}
			],
			"stateMutability": "view",
			"type": "function"
		},
		{
			"inputs": [
				{
					"internalType": "uint256",
					"name": "id",
					"type": "uint256"
				}
			],
			"name": "getLaw",
			"outputs": [
				{
					"internalType": "string",
					"name": "law",
					"type": "string"
				}
			],
			"stateMutability": "view",
			"type": "function"
		},
		{
			"inputs": [],
			"name": "getLawCount",
			"outputs": [
				{
					"internalType": "uint256",
					"name": "count",
					"type": "uint256"
				}
			],
			"stateMutability": "view",
			"type": "function"
		},
		{
			"inputs": [],
			"name": "getOwner",
			"outputs": [
				{
					"internalType": "address",
					"name": "",
					"type": "address"
				}
			],
			"stateMutability": "view",
			"type": "function"
		},
		{
			"inputs": [
				{
					"internalType": "uint256",
					"name": "id",
					"type": "uint256"
				},
				{
					"internalType": "uint256",
					"name": "version",
					"type": "uint256"
				}
			],
			"name": "getRevision",
			"outputs": [
				{
					"internalType": "string",
					"name": "revision",
					"type": "string"
				}
			],
			"stateMutability": "view",
			"type": "function"
		},
		{
			"inputs": [
				{
					"internalType": "uint256",
					"name": "id",
					"type": "uint256"
				}
			],
			"name": "getRevisions",
			"outputs": [
				{
					"internalType": "string",
					"name": "revisions",
					"type": "string"
				}
			],
			"stateMutability": "view",
			"type": "function"
		},
		{
			"inputs": [
				{
					"internalType": "uint256",
					"name": "id",
					"type": "uint256"
				},
				{
					"internalType": "uint256",
					"name": "articleId",
					"type": "uint256"
				},
				{
					"internalType": "uint256",
					"name": "version",
					"type": "uint256"
				},
				{
					"internalType": "string",
					"name": "article",
					"type": "string"
				}
			],
			"name": "proposeArticleEdit",
			"outputs": [],
			"stateMutability": "payable",
			"type": "function"
		},
		{
			"inputs": [
				{
					"internalType": "uint256",
					"name": "id",
					"type": "uint256"
				},
				{
					"internalType": "string",
					"name": "law",
					"type": "string"
				},
				{
					"internalType": "string[]",
					"name": "articles",
					"type": "string[]"
				},
				{
					"internalType": "string[]",
					"name": "documents",
					"type": "string[]"
				}
			],
			"name": "proposeEdit",
			"outputs": [],
			"stateMutability": "payable",
			"type": "function"
		},
		{
			"inputs": [
				{
					"internalType": "uint256",
					"name": "id",
					"type": "uint256"
				},
				{
					"internalType": "uint256",
					"name": "version",
					"type": "uint256"
				},
				{
					"internalType": "int256",
					"name": "v",
					"type": "int256"
				}
			],
			"name": "vote",
			"outputs": [],
			"stateMutability": "payable",
			"type": "function"
		}
	]
}