{
	"data": {
		"bytecode": {
			"linkReferences": {},
			"object": "608060405260006003553480156200001657600080fd5b50620000636040518060400160405280601b81526020017f4f776e657220636f6e7472616374206465706c6f7965642062793a0000000000815250336200012460201b62001b861760201c565b336000806101000a81548173ffffffffffffffffffffffffffffffffffffffff021916908373ffffffffffffffffffffffffffffffffffffffff16021790555060008054906101000a900473ffffffffffffffffffffffffffffffffffffffff1673ffffffffffffffffffffffffffffffffffffffff16600073ffffffffffffffffffffffffffffffffffffffff167f342827c97908e5e2f71151c08502a66d44b6f758e3ac2f1de95f02eb95f0a73560405160405180910390a362000306565b620001c682826040516024016200013d929190620002d2565b6040516020818303038152906040527f319af333000000000000000000000000000000000000000000000000000000007bffffffffffffffffffffffffffffffffffffffffffffffffffffffff19166020820180517bffffffffffffffffffffffffffffffffffffffffffffffffffffffff8381831617835250505050620001ca60201b60201c565b5050565b60008151905060006a636f6e736f6c652e6c6f679050602083016000808483855afa5050505050565b600081519050919050565b600082825260208201905092915050565b60005b838110156200022f57808201518184015260208101905062000212565b60008484015250505050565b6000601f19601f8301169050919050565b60006200025982620001f3565b620002658185620001fe565b9350620002778185602086016200020f565b62000282816200023b565b840191505092915050565b600073ffffffffffffffffffffffffffffffffffffffff82169050919050565b6000620002ba826200028d565b9050919050565b620002cc81620002ad565b82525050565b60006040820190508181036000830152620002ee81856200024c565b9050620002ff6020830184620002c1565b9392505050565b61332980620003166000396000f3fe6080604052600436106100c25760003560e01c8063707e196e1161007f578063a6f9dae111610059578063a6f9dae114610279578063d12e2535146102a2578063e715463c146102be578063f0f3f2c8146102fb576100c2565b8063707e196e146101d45780637af7581d14610211578063893d20e81461024e576100c2565b80631d31245c146100c757806320b7c317146100e35780633ec559c6146100ff578063582f60fb1461013c5780636192e3e81461016c5780636475f4fe146101a9575b600080fd5b6100e160048036038101906100dc91906122d9565b610338565b005b6100fd60048036038101906100f891906123ca565b610510565b005b34801561010b57600080fd5b506101266004803603810190610121919061241d565b610a05565b60405161013391906124c9565b60405180910390f35b610156600480360381019061015191906124eb565b610bdd565b60405161016391906125d1565b60405180910390f35b34801561017857600080fd5b50610193600480360381019061018e91906125ec565b610e2b565b6040516101a091906124c9565b60405180910390f35b3480156101b557600080fd5b506101be610fc4565b6040516101cb91906125d1565b60405180910390f35b3480156101e057600080fd5b506101fb60048036038101906101f691906125ec565b610fd1565b6040516102089190612807565b60405180910390f35b34801561021d57600080fd5b50610238600480360381019061023391906125ec565b61131e565b60405161024591906124c9565b60405180910390f35b34801561025a57600080fd5b50610263611409565b604051610270919061286a565b60405180910390f35b34801561028557600080fd5b506102a0600480360381019061029b91906128b1565b611432565b005b6102bc60048036038101906102b791906128de565b61157d565b005b3480156102ca57600080fd5b506102e560048036038101906102e0919061241d565b611a60565b6040516102f291906125d1565b60405180910390f35b34801561030757600080fd5b50610322600480360381019061031d919061241d565b611b65565b60405161032f91906124c9565b60405180910390f35b60006040518060e001604052806002878154811061035957610358612961565b5b9060005260206000200160008154811061037657610375612961565b5b90600052602060002090600702016000018054610392906129bf565b80601f01602080910402602001604051908101604052809291908181526020018280546103be906129bf565b801561040b5780601f106103e05761010080835404028352916020019161040b565b820191906000526020600020905b8154815290600101906020018083116103ee57829003601f168201915b5050505050815260200185815260200184815260200183815260200160008152602001600081526020014281525090506002858154811061044f5761044e612961565b5b9060005260206000200181908060018154018082558091505060019003906000526020600020906007020160009091909190915060008201518160000190816104989190612b9c565b5060208201518160010190816104ae9190612b9c565b5060408201518160020190805190602001906104cb929190611f4c565b5060608201518160030190805190602001906104e8929190611f4c565b506080820151816004015560a0820151816005015560c0820151816006015550505050505050565b7fffffffffffffffffffffffffffffffffffffffffffffffffffffffffffffffff811215610573576040517f08c379a000000000000000000000000000000000000000000000000000000000815260040161056a90612cba565b60405180910390fd5b60018113156105b7576040517f08c379a00000000000000000000000000000000000000000000000000000000081526004016105ae90612cba565b60405180910390fd5b60005b600184815481106105ce576105cd612961565b5b9060005260206000200180549050811015610875573373ffffffffffffffffffffffffffffffffffffffff166001858154811061060e5761060d612961565b5b90600052602060002001828154811061062a57610629612961565b5b906000526020600020906003020160000160009054906101000a900473ffffffffffffffffffffffffffffffffffffffff1673ffffffffffffffffffffffffffffffffffffffff1603610862576001848154811061068b5761068a612961565b5b9060005260206000200181815481106106a7576106a6612961565b5b906000526020600020906003020160020154600285815481106106cd576106cc612961565b5b90600052602060002001600186815481106106eb576106ea612961565b5b90600052602060002001838154811061070757610706612961565b5b9060005260206000209060030201600101548154811061072a57610729612961565b5b9060005260206000209060070201600401600082825461074a9190612d09565b925050819055506002848154811061076557610764612961565b5b906000526020600020016001858154811061078357610782612961565b5b90600052602060002001828154811061079f5761079e612961565b5b906000526020600020906003020160010154815481106107c2576107c1612961565b5b906000526020600020906007020160050160008154809291906107e490612d4c565b9190505550600184815481106107fd576107fc612961565b5b90600052602060002001818154811061081957610818612961565b5b9060005260206000209060030201600080820160006101000a81549073ffffffffffffffffffffffffffffffffffffffff02191690556001820160009055600282016000905550505b808061086d90612d75565b9150506105ba565b50600060405180606001604052803373ffffffffffffffffffffffffffffffffffffffff168152602001848152602001838152509050600184815481106108bf576108be612961565b5b9060005260206000200181908060018154018082558091505060019003906000526020600020906003020160009091909190915060008201518160000160006101000a81548173ffffffffffffffffffffffffffffffffffffffff021916908373ffffffffffffffffffffffffffffffffffffffff16021790555060208201518160010155604082015181600201555050816002858154811061096557610964612961565b5b90600052602060002001848154811061098157610980612961565b5b906000526020600020906007020160040160008282546109a19190612dbd565b92505081905550600284815481106109bc576109bb612961565b5b9060005260206000200183815481106109d8576109d7612961565b5b906000526020600020906007020160050160008154809291906109fa90612d75565b919050555050505050565b606060005b60028381548110610a1e57610a1d612961565b5b9060005260206000200180549050811015610bd757610a3c81611c22565b60028481548110610a5057610a4f612961565b5b906000526020600020018281548110610a6c57610a6b612961565b5b906000526020600020906007020160000160028581548110610a9157610a90612961565b5b906000526020600020018381548110610aad57610aac612961565b5b9060005260206000209060070201600101610b0860028781548110610ad557610ad4612961565b5b906000526020600020018581548110610af157610af0612961565b5b906000526020600020906007020160060154611c22565b610b5260028881548110610b1f57610b1e612961565b5b906000526020600020018681548110610b3b57610b3a612961565b5b906000526020600020906007020160040154611cf0565b610b9c60028981548110610b6957610b68612961565b5b906000526020600020018781548110610b8557610b84612961565b5b906000526020600020906007020160050154611c22565b87604051602001610bb39796959493929190612f0c565b60405160208183030381529060405291508080610bcf90612d75565b915050610a0a565b50919050565b6000600a845111610c23576040517f08c379a0000000000000000000000000000000000000000000000000000000008152600401610c1a90613017565b60405180910390fd5b6004855111610c67576040517f08c379a0000000000000000000000000000000000000000000000000000000008152600401610c5e90613083565b60405180910390fd5b60006040518060e001604052808781526020018681526020018581526020018481526020016000815260200160008152602001428152509050600260018160018154018082558091505003906000526020600020505060026001600280549050610cd191906130a3565b81548110610ce257610ce1612961565b5b906000526020600020018190806001815401808255809150506001900390600052602060002090600702016000909190919091506000820151816000019081610d2b9190612b9c565b506020820151816001019081610d419190612b9c565b506040820151816002019080519060200190610d5e929190611f4c565b506060820151816003019080519060200190610d7b929190611f4c565b506080820151816004015560a0820151816005015560c08201518160060155505060036000815480929190610daf90612d75565b9190505550600180816001815401808255809150500390600052602060002050506001600280549050610de291906130a3565b7f1ac2092e16e28eef29d1832f3dc69da1b21284a1f3159d3b26cb238b22fe4f8a60405160405180910390a26001600280549050610e2091906130a3565b915050949350505050565b6060610e3682611c22565b60028481548110610e4a57610e49612961565b5b906000526020600020018381548110610e6657610e65612961565b5b906000526020600020906007020160000160028581548110610e8b57610e8a612961565b5b906000526020600020018481548110610ea757610ea6612961565b5b9060005260206000209060070201600101604051602001610eca939291906130d7565b604051602081830303815290604052905060005b60028481548110610ef257610ef1612961565b5b906000526020600020018381548110610f0e57610f0d612961565b5b906000526020600020906007020160020180549050811015610fbd578160028581548110610f3f57610f3e612961565b5b906000526020600020018481548110610f5b57610f5a612961565b5b90600052602060002090600702016002018281548110610f7e57610f7d612961565b5b90600052602060002001604051602001610f99929190613126565b60405160208183030381529060405291508080610fb590612d75565b915050610ede565b5092915050565b6000600280549050905090565b610fd9611fa5565b60028381548110610fed57610fec612961565b5b90600052602060002001828154811061100957611008612961565b5b90600052602060002090600702016040518060e0016040529081600082018054611032906129bf565b80601f016020809104026020016040519081016040528092919081815260200182805461105e906129bf565b80156110ab5780601f10611080576101008083540402835291602001916110ab565b820191906000526020600020905b81548152906001019060200180831161108e57829003601f168201915b505050505081526020016001820180546110c4906129bf565b80601f01602080910402602001604051908101604052809291908181526020018280546110f0906129bf565b801561113d5780601f106111125761010080835404028352916020019161113d565b820191906000526020600020905b81548152906001019060200180831161112057829003601f168201915b5050505050815260200160028201805480602002602001604051908101604052809291908181526020016000905b8282101561121757838290600052602060002001805461118a906129bf565b80601f01602080910402602001604051908101604052809291908181526020018280546111b6906129bf565b80156112035780601f106111d857610100808354040283529160200191611203565b820191906000526020600020905b8154815290600101906020018083116111e657829003601f168201915b50505050508152602001906001019061116b565b50505050815260200160038201805480602002602001604051908101604052809291908181526020016000905b828210156112f0578382906000526020600020018054611263906129bf565b80601f016020809104026020016040519081016040528092919081815260200182805461128f906129bf565b80156112dc5780601f106112b1576101008083540402835291602001916112dc565b820191906000526020600020905b8154815290600101906020018083116112bf57829003601f168201915b505050505081526020019060010190611244565b5050505081526020016004820154815260200160058201548152602001600682015481525050905092915050565b606060005b6002848154811061133757611336612961565b5b90600052602060002001838154811061135357611352612961565b5b906000526020600020906007020160030180549050811015611402576002848154811061138357611382612961565b5b90600052602060002001838154811061139f5761139e612961565b5b906000526020600020906007020160030181815481106113c2576113c1612961565b5b90600052602060002001826040516020016113de929190613159565b604051602081830303815290604052915080806113fa90612d75565b915050611323565b5092915050565b60008060009054906101000a900473ffffffffffffffffffffffffffffffffffffffff16905090565b60008054906101000a900473ffffffffffffffffffffffffffffffffffffffff1673ffffffffffffffffffffffffffffffffffffffff163373ffffffffffffffffffffffffffffffffffffffff16146114c0576040517f08c379a00000000000000000000000000000000000000000000000000000000081526004016114b7906131d8565b60405180910390fd5b8073ffffffffffffffffffffffffffffffffffffffff1660008054906101000a900473ffffffffffffffffffffffffffffffffffffffff1673ffffffffffffffffffffffffffffffffffffffff167f342827c97908e5e2f71151c08502a66d44b6f758e3ac2f1de95f02eb95f0a73560405160405180910390a3806000806101000a81548173ffffffffffffffffffffffffffffffffffffffff021916908373ffffffffffffffffffffffffffffffffffffffff16021790555050565b60006040518060e001604052806002878154811061159e5761159d612961565b5b9060005260206000200185815481106115ba576115b9612961565b5b906000526020600020906007020160000180546115d6906129bf565b80601f0160208091040260200160405190810160405280929190818152602001828054611602906129bf565b801561164f5780601f106116245761010080835404028352916020019161164f565b820191906000526020600020905b81548152906001019060200180831161163257829003601f168201915b505050505081526020016002878154811061166d5761166c612961565b5b90600052602060002001858154811061168957611688612961565b5b906000526020600020906007020160010180546116a5906129bf565b80601f01602080910402602001604051908101604052809291908181526020018280546116d1906129bf565b801561171e5780601f106116f35761010080835404028352916020019161171e565b820191906000526020600020905b81548152906001019060200180831161170157829003601f168201915b505050505081526020016002878154811061173c5761173b612961565b5b90600052602060002001858154811061175857611757612961565b5b9060005260206000209060070201600201805480602002602001604051908101604052809291908181526020016000905b828210156118355783829060005260206000200180546117a8906129bf565b80601f01602080910402602001604051908101604052809291908181526020018280546117d4906129bf565b80156118215780601f106117f657610100808354040283529160200191611821565b820191906000526020600020905b81548152906001019060200180831161180457829003601f168201915b505050505081526020019060010190611789565b5050505081526020016002878154811061185257611851612961565b5b90600052602060002001858154811061186e5761186d612961565b5b9060005260206000209060070201600301805480602002602001604051908101604052809291908181526020016000905b8282101561194b5783829060005260206000200180546118be906129bf565b80601f01602080910402602001604051908101604052809291908181526020018280546118ea906129bf565b80156119375780601f1061190c57610100808354040283529160200191611937565b820191906000526020600020905b81548152906001019060200180831161191a57829003601f168201915b50505050508152602001906001019061189f565b505050508152602001600081526020016000815260200142815250905081816040015185815181106119805761197f612961565b5b60200260200101819052506002858154811061199f5761199e612961565b5b9060005260206000200181908060018154018082558091505060019003906000526020600020906007020160009091909190915060008201518160000190816119e89190612b9c565b5060208201518160010190816119fe9190612b9c565b506040820151816002019080519060200190611a1b929190611f4c565b506060820151816003019080519060200190611a38929190611f4c565b506080820151816004015560a0820151816005015560c0820151816006015550505050505050565b6000806000905060005b60028481548110611a7e57611a7d612961565b5b9060005260206000200180549050811015611b5e57600080611b2f61271060028881548110611ab057611aaf612961565b5b906000526020600020018581548110611acc57611acb612961565b5b906000526020600020906007020160040154611ae891906131f8565b60028881548110611afc57611afb612961565b5b906000526020600020018581548110611b1857611b17612961565b5b906000526020600020906007020160050154611d7e565b91509150818015611b405750838112155b15611b49578294505b50508080611b5690612d75565b915050611a6a565b5050919050565b60606000611b7283611a60565b9050611b7e8382610e2b565b915050919050565b611c1e8282604051602401611b9c929190613270565b6040516020818303038152906040527f319af333000000000000000000000000000000000000000000000000000000007bffffffffffffffffffffffffffffffffffffffffffffffffffffffff19166020820180517bffffffffffffffffffffffffffffffffffffffffffffffffffffffff8381831617835250505050611db4565b5050565b606060006001611c3184611ddd565b01905060008167ffffffffffffffff811115611c5057611c4f6120c8565b5b6040519080825280601f01601f191660200182016040528015611c825781602001600182028036833780820191505090505b509050600082602001820190505b600115611ce5578080600190039150507f3031323334353637383961626364656600000000000000000000000000000000600a86061a8153600a8581611cd957611cd86132a0565b5b04945060008503611c90575b819350505050919050565b606060008212611d0f5760405180602001604052806000815250611d46565b6040518060400160405280600181526020017f2d000000000000000000000000000000000000000000000000000000000000008152505b611d57611d5284611f30565b611c22565b604051602001611d689291906132cf565b6040516020818303038152906040529050919050565b60008060008303611d955760008091509150611dad565b6001838581611da757611da66132a0565b5b05915091505b9250929050565b60008151905060006a636f6e736f6c652e6c6f679050602083016000808483855afa5050505050565b600080600090507a184f03e93ff9f4daa797ed6e38ed64bf6a1f0100000000000000008310611e3b577a184f03e93ff9f4daa797ed6e38ed64bf6a1f0100000000000000008381611e3157611e306132a0565b5b0492506040810190505b6d04ee2d6d415b85acef81000000008310611e78576d04ee2d6d415b85acef81000000008381611e6e57611e6d6132a0565b5b0492506020810190505b662386f26fc100008310611ea757662386f26fc100008381611e9d57611e9c6132a0565b5b0492506010810190505b6305f5e1008310611ed0576305f5e1008381611ec657611ec56132a0565b5b0492506008810190505b6127108310611ef5576127108381611eeb57611eea6132a0565b5b0492506004810190505b60648310611f185760648381611f0e57611f0d6132a0565b5b0492506002810190505b600a8310611f27576001810190505b80915050919050565b600080821215611f435781600003611f45565b815b9050919050565b828054828255906000526020600020908101928215611f94579160200282015b82811115611f93578251829081611f839190612b9c565b5091602001919060010190611f6c565b5b509050611fa19190611fe2565b5090565b6040518060e00160405280606081526020016060815260200160608152602001606081526020016000815260200160008152602001600081525090565b5b808211156120025760008181611ff99190612006565b50600101611fe3565b5090565b508054612012906129bf565b6000825580601f106120245750612043565b601f0160209004906000526020600020908101906120429190612046565b5b50565b5b8082111561205f576000816000905550600101612047565b5090565b6000604051905090565b600080fd5b600080fd5b6000819050919050565b61208a81612077565b811461209557600080fd5b50565b6000813590506120a781612081565b92915050565b600080fd5b600080fd5b6000601f19601f8301169050919050565b7f4e487b7100000000000000000000000000000000000000000000000000000000600052604160045260246000fd5b612100826120b7565b810181811067ffffffffffffffff8211171561211f5761211e6120c8565b5b80604052505050565b6000612132612063565b905061213e82826120f7565b919050565b600067ffffffffffffffff82111561215e5761215d6120c8565b5b612167826120b7565b9050602081019050919050565b82818337600083830152505050565b600061219661219184612143565b612128565b9050828152602081018484840111156121b2576121b16120b2565b5b6121bd848285612174565b509392505050565b600082601f8301126121da576121d96120ad565b5b81356121ea848260208601612183565b91505092915050565b600067ffffffffffffffff82111561220e5761220d6120c8565b5b602082029050602081019050919050565b600080fd5b6000612237612232846121f3565b612128565b9050808382526020820190506020840283018581111561225a5761225961221f565b5b835b818110156122a157803567ffffffffffffffff81111561227f5761227e6120ad565b5b80860161228c89826121c5565b8552602085019450505060208101905061225c565b5050509392505050565b600082601f8301126122c0576122bf6120ad565b5b81356122d0848260208601612224565b91505092915050565b600080600080608085870312156122f3576122f261206d565b5b600061230187828801612098565b945050602085013567ffffffffffffffff81111561232257612321612072565b5b61232e878288016121c5565b935050604085013567ffffffffffffffff81111561234f5761234e612072565b5b61235b878288016122ab565b925050606085013567ffffffffffffffff81111561237c5761237b612072565b5b612388878288016122ab565b91505092959194509250565b6000819050919050565b6123a781612394565b81146123b257600080fd5b50565b6000813590506123c48161239e565b92915050565b6000806000606084860312156123e3576123e261206d565b5b60006123f186828701612098565b935050602061240286828701612098565b9250506040612413868287016123b5565b9150509250925092565b6000602082840312156124335761243261206d565b5b600061244184828501612098565b91505092915050565b600081519050919050565b600082825260208201905092915050565b60005b83811015612484578082015181840152602081019050612469565b60008484015250505050565b600061249b8261244a565b6124a58185612455565b93506124b5818560208601612466565b6124be816120b7565b840191505092915050565b600060208201905081810360008301526124e38184612490565b905092915050565b600080600080608085870312156125055761250461206d565b5b600085013567ffffffffffffffff81111561252357612522612072565b5b61252f878288016121c5565b945050602085013567ffffffffffffffff8111156125505761254f612072565b5b61255c878288016121c5565b935050604085013567ffffffffffffffff81111561257d5761257c612072565b5b612589878288016122ab565b925050606085013567ffffffffffffffff8111156125aa576125a9612072565b5b6125b6878288016122ab565b91505092959194509250565b6125cb81612077565b82525050565b60006020820190506125e660008301846125c2565b92915050565b600080604083850312156126035761260261206d565b5b600061261185828601612098565b925050602061262285828601612098565b9150509250929050565b600082825260208201905092915050565b60006126488261244a565b612652818561262c565b9350612662818560208601612466565b61266b816120b7565b840191505092915050565b600081519050919050565b600082825260208201905092915050565b6000819050602082019050919050565b60006126ae838361263d565b905092915050565b6000602082019050919050565b60006126ce82612676565b6126d88185612681565b9350836020820285016126ea85612692565b8060005b85811015612726578484038952815161270785826126a2565b9450612712836126b6565b925060208a019950506001810190506126ee565b50829750879550505050505092915050565b61274181612394565b82525050565b61275081612077565b82525050565b600060e0830160008301518482036000860152612773828261263d565b9150506020830151848203602086015261278d828261263d565b915050604083015184820360408601526127a782826126c3565b915050606083015184820360608601526127c182826126c3565b91505060808301516127d66080860182612738565b5060a08301516127e960a0860182612747565b5060c08301516127fc60c0860182612747565b508091505092915050565b600060208201905081810360008301526128218184612756565b905092915050565b600073ffffffffffffffffffffffffffffffffffffffff82169050919050565b600061285482612829565b9050919050565b61286481612849565b82525050565b600060208201905061287f600083018461285b565b92915050565b61288e81612849565b811461289957600080fd5b50565b6000813590506128ab81612885565b92915050565b6000602082840312156128c7576128c661206d565b5b60006128d58482850161289c565b91505092915050565b600080600080608085870312156128f8576128f761206d565b5b600061290687828801612098565b945050602061291787828801612098565b935050604061292887828801612098565b925050606085013567ffffffffffffffff81111561294957612948612072565b5b612955878288016121c5565b91505092959194509250565b7f4e487b7100000000000000000000000000000000000000000000000000000000600052603260045260246000fd5b7f4e487b7100000000000000000000000000000000000000000000000000000000600052602260045260246000fd5b600060028204905060018216806129d757607f821691505b6020821081036129ea576129e9612990565b5b50919050565b60008190508160005260206000209050919050565b60006020601f8301049050919050565b600082821b905092915050565b600060088302612a527fffffffffffffffffffffffffffffffffffffffffffffffffffffffffffffffff82612a15565b612a5c8683612a15565b95508019841693508086168417925050509392505050565b6000819050919050565b6000612a99612a94612a8f84612077565b612a74565b612077565b9050919050565b6000819050919050565b612ab383612a7e565b612ac7612abf82612aa0565b848454612a22565b825550505050565b600090565b612adc612acf565b612ae7818484612aaa565b505050565b5b81811015612b0b57612b00600082612ad4565b600181019050612aed565b5050565b601f821115612b5057612b21816129f0565b612b2a84612a05565b81016020851015612b39578190505b612b4d612b4585612a05565b830182612aec565b50505b505050565b600082821c905092915050565b6000612b7360001984600802612b55565b1980831691505092915050565b6000612b8c8383612b62565b9150826002028217905092915050565b612ba58261244a565b67ffffffffffffffff811115612bbe57612bbd6120c8565b5b612bc882546129bf565b612bd3828285612b0f565b600060209050601f831160018114612c065760008415612bf4578287015190505b612bfe8582612b80565b865550612c66565b601f198416612c14866129f0565b60005b82811015612c3c57848901518255600182019150602085019450602081019050612c17565b86831015612c595784890151612c55601f891682612b62565b8355505b6001600288020188555050505b505050505050565b7f496e76616c696420766f74650000000000000000000000000000000000000000600082015250565b6000612ca4600c83612455565b9150612caf82612c6e565b602082019050919050565b60006020820190508181036000830152612cd381612c97565b9050919050565b7f4e487b7100000000000000000000000000000000000000000000000000000000600052601160045260246000fd5b6000612d1482612394565b9150612d1f83612394565b9250828203905081811260008412168282136000851215161715612d4657612d45612cda565b5b92915050565b6000612d5782612077565b915060008203612d6a57612d69612cda565b5b600182039050919050565b6000612d8082612077565b91507fffffffffffffffffffffffffffffffffffffffffffffffffffffffffffffffff8203612db257612db1612cda565b5b600182019050919050565b6000612dc882612394565b9150612dd383612394565b925082820190508281121560008312168382126000841215161715612dfb57612dfa612cda565b5b92915050565b600081905092915050565b6000612e178261244a565b612e218185612e01565b9350612e31818560208601612466565b80840191505092915050565b7f2300000000000000000000000000000000000000000000000000000000000000815250565b60008154612e70816129bf565b612e7a8186612e01565b94506001821660008114612e955760018114612eaa57612edd565b60ff1983168652811515820286019350612edd565b612eb3856129f0565b60005b83811015612ed557815481890152600182019150602081019050612eb6565b838801955050505b50505092915050565b7f7c00000000000000000000000000000000000000000000000000000000000000815250565b6000612f18828a612e0c565b9150612f2382612e3d565b600182019150612f338289612e63565b9150612f3e82612e3d565b600182019150612f4e8288612e63565b9150612f5982612e3d565b600182019150612f698287612e0c565b9150612f7482612e3d565b600182019150612f848286612e0c565b9150612f8f82612e3d565b600182019150612f9f8285612e0c565b9150612faa82612ee6565b600182019150612fba8284612e0c565b915081905098975050505050505050565b7f5465787420746f20736d616c6c00000000000000000000000000000000000000600082015250565b6000613001600d83612455565b915061300c82612fcb565b602082019050919050565b6000602082019050818103600083015261303081612ff4565b9050919050565b7f5465787420746f6f20736d616c6c000000000000000000000000000000000000600082015250565b600061306d600e83612455565b915061307882613037565b602082019050919050565b6000602082019050818103600083015261309c81613060565b9050919050565b60006130ae82612077565b91506130b983612077565b92508282039050818111156130d1576130d0612cda565b5b92915050565b60006130e38286612e0c565b91506130ee82612e3d565b6001820191506130fe8285612e63565b915061310982612e3d565b6001820191506131198284612e63565b9150819050949350505050565b60006131328285612e0c565b915061313d82612e3d565b60018201915061314d8284612e63565b91508190509392505050565b60006131658285612e63565b915061317082612e3d565b6001820191506131808284612e0c565b91508190509392505050565b7f43616c6c6572206973206e6f74206f776e657200000000000000000000000000600082015250565b60006131c2601383612455565b91506131cd8261318c565b602082019050919050565b600060208201905081810360008301526131f1816131b5565b9050919050565b600061320382612394565b915061320e83612394565b925082820261321c81612394565b91507f8000000000000000000000000000000000000000000000000000000000000000841460008412161561325457613253612cda565b5b828205841483151761326957613268612cda565b5b5092915050565b6000604082019050818103600083015261328a8185612490565b9050613299602083018461285b565b9392505050565b7f4e487b7100000000000000000000000000000000000000000000000000000000600052601260045260246000fd5b60006132db8285612e0c565b91506132e78284612e0c565b9150819050939250505056fea26469706673582212201321167bc0a11a842f7b55aaa728bf4158f7cf661eae75f5fbee6b33d7a2686164736f6c63430008120033",
			"opcodes": "PUSH1 0x80 PUSH1 0x40 MSTORE PUSH1 0x0 PUSH1 0x3 SSTORE CALLVALUE DUP1 ISZERO PUSH3 0x16 JUMPI PUSH1 0x0 DUP1 REVERT JUMPDEST POP PUSH3 0x63 PUSH1 0x40 MLOAD DUP1 PUSH1 0x40 ADD PUSH1 0x40 MSTORE DUP1 PUSH1 0x1B DUP2 MSTORE PUSH1 0x20 ADD PUSH32 0x4F776E657220636F6E7472616374206465706C6F7965642062793A0000000000 DUP2 MSTORE POP CALLER PUSH3 0x124 PUSH1 0x20 SHL PUSH3 0x1B86 OR PUSH1 0x20 SHR JUMP JUMPDEST CALLER PUSH1 0x0 DUP1 PUSH2 0x100 EXP DUP2 SLOAD DUP2 PUSH20 0xFFFFFFFFFFFFFFFFFFFFFFFFFFFFFFFFFFFFFFFF MUL NOT AND SWAP1 DUP4 PUSH20 0xFFFFFFFFFFFFFFFFFFFFFFFFFFFFFFFFFFFFFFFF AND MUL OR SWAP1 SSTORE POP PUSH1 0x0 DUP1 SLOAD SWAP1 PUSH2 0x100 EXP SWAP1 DIV PUSH20 0xFFFFFFFFFFFFFFFFFFFFFFFFFFFFFFFFFFFFFFFF AND PUSH20 0xFFFFFFFFFFFFFFFFFFFFFFFFFFFFFFFFFFFFFFFF AND PUSH1 0x0 PUSH20 0xFFFFFFFFFFFFFFFFFFFFFFFFFFFFFFFFFFFFFFFF AND PUSH32 0x342827C97908E5E2F71151C08502A66D44B6F758E3AC2F1DE95F02EB95F0A735 PUSH1 0x40 MLOAD PUSH1 0x40 MLOAD DUP1 SWAP2 SUB SWAP1 LOG3 PUSH3 0x306 JUMP JUMPDEST PUSH3 0x1C6 DUP3 DUP3 PUSH1 0x40 MLOAD PUSH1 0x24 ADD PUSH3 0x13D SWAP3 SWAP2 SWAP1 PUSH3 0x2D2 JUMP JUMPDEST PUSH1 0x40 MLOAD PUSH1 0x20 DUP2 DUP4 SUB SUB DUP2 MSTORE SWAP1 PUSH1 0x40 MSTORE PUSH32 0x319AF33300000000000000000000000000000000000000000000000000000000 PUSH28 0xFFFFFFFFFFFFFFFFFFFFFFFFFFFFFFFFFFFFFFFFFFFFFFFFFFFFFFFF NOT AND PUSH1 0x20 DUP3 ADD DUP1 MLOAD PUSH28 0xFFFFFFFFFFFFFFFFFFFFFFFFFFFFFFFFFFFFFFFFFFFFFFFFFFFFFFFF DUP4 DUP2 DUP4 AND OR DUP4 MSTORE POP POP POP POP PUSH3 0x1CA PUSH1 0x20 SHL PUSH1 0x20 SHR JUMP JUMPDEST POP POP JUMP JUMPDEST PUSH1 0x0 DUP2 MLOAD SWAP1 POP PUSH1 0x0 PUSH11 0x636F6E736F6C652E6C6F67 SWAP1 POP PUSH1 0x20 DUP4 ADD PUSH1 0x0 DUP1 DUP5 DUP4 DUP6 GAS STATICCALL POP POP POP POP POP JUMP JUMPDEST PUSH1 0x0 DUP2 MLOAD SWAP1 POP SWAP2 SWAP1 POP JUMP JUMPDEST PUSH1 0x0 DUP3 DUP3 MSTORE PUSH1 0x20 DUP3 ADD SWAP1 POP SWAP3 SWAP2 POP POP JUMP JUMPDEST PUSH1 0x0 JUMPDEST DUP4 DUP2 LT ISZERO PUSH3 0x22F JUMPI DUP1 DUP3 ADD MLOAD DUP2 DUP5 ADD MSTORE PUSH1 0x20 DUP2 ADD SWAP1 POP PUSH3 0x212 JUMP JUMPDEST PUSH1 0x0 DUP5 DUP5 ADD MSTORE POP POP POP POP JUMP JUMPDEST PUSH1 0x0 PUSH1 0x1F NOT PUSH1 0x1F DUP4 ADD AND SWAP1 POP SWAP2 SWAP1 POP JUMP JUMPDEST PUSH1 0x0 PUSH3 0x259 DUP3 PUSH3 0x1F3 JUMP JUMPDEST PUSH3 0x265 DUP2 DUP6 PUSH3 0x1FE JUMP JUMPDEST SWAP4 POP PUSH3 0x277 DUP2 DUP6 PUSH1 0x20 DUP7 ADD PUSH3 0x20F JUMP JUMPDEST PUSH3 0x282 DUP2 PUSH3 0x23B JUMP JUMPDEST DUP5 ADD SWAP2 POP POP SWAP3 SWAP2 POP POP JUMP JUMPDEST PUSH1 0x0 PUSH20 0xFFFFFFFFFFFFFFFFFFFFFFFFFFFFFFFFFFFFFFFF DUP3 AND SWAP1 POP SWAP2 SWAP1 POP JUMP JUMPDEST PUSH1 0x0 PUSH3 0x2BA DUP3 PUSH3 0x28D JUMP JUMPDEST SWAP1 POP SWAP2 SWAP1 POP JUMP JUMPDEST PUSH3 0x2CC DUP2 PUSH3 0x2AD JUMP JUMPDEST DUP3 MSTORE POP POP JUMP JUMPDEST PUSH1 0x0 PUSH1 0x40 DUP3 ADD SWAP1 POP DUP2 DUP2 SUB PUSH1 0x0 DUP4 ADD MSTORE PUSH3 0x2EE DUP2 DUP6 PUSH3 0x24C JUMP JUMPDEST SWAP1 POP PUSH3 0x2FF PUSH1 0x20 DUP4 ADD DUP5 PUSH3 0x2C1 JUMP JUMPDEST SWAP4 SWAP3 POP POP POP JUMP JUMPDEST PUSH2 0x3329 DUP1 PUSH3 0x316 PUSH1 0x0 CODECOPY PUSH1 0x0 RETURN INVALID PUSH1 0x80 PUSH1 0x40 MSTORE PUSH1 0x4 CALLDATASIZE LT PUSH2 0xC2 JUMPI PUSH1 0x0 CALLDATALOAD PUSH1 0xE0 SHR DUP1 PUSH4 0x707E196E GT PUSH2 0x7F JUMPI DUP1 PUSH4 0xA6F9DAE1 GT PUSH2 0x59 JUMPI DUP1 PUSH4 0xA6F9DAE1 EQ PUSH2 0x279 JUMPI DUP1 PUSH4 0xD12E2535 EQ PUSH2 0x2A2 JUMPI DUP1 PUSH4 0xE715463C EQ PUSH2 0x2BE JUMPI DUP1 PUSH4 0xF0F3F2C8 EQ PUSH2 0x2FB JUMPI PUSH2 0xC2 JUMP JUMPDEST DUP1 PUSH4 0x707E196E EQ PUSH2 0x1D4 JUMPI DUP1 PUSH4 0x7AF7581D EQ PUSH2 0x211 JUMPI DUP1 PUSH4 0x893D20E8 EQ PUSH2 0x24E JUMPI PUSH2 0xC2 JUMP JUMPDEST DUP1 PUSH4 0x1D31245C EQ PUSH2 0xC7 JUMPI DUP1 PUSH4 0x20B7C317 EQ PUSH2 0xE3 JUMPI DUP1 PUSH4 0x3EC559C6 EQ PUSH2 0xFF JUMPI DUP1 PUSH4 0x582F60FB EQ PUSH2 0x13C JUMPI DUP1 PUSH4 0x6192E3E8 EQ PUSH2 0x16C JUMPI DUP1 PUSH4 0x6475F4FE EQ PUSH2 0x1A9 JUMPI JUMPDEST PUSH1 0x0 DUP1 REVERT JUMPDEST PUSH2 0xE1 PUSH1 0x4 DUP1 CALLDATASIZE SUB DUP2 ADD SWAP1 PUSH2 0xDC SWAP2 SWAP1 PUSH2 0x22D9 JUMP JUMPDEST PUSH2 0x338 JUMP JUMPDEST STOP JUMPDEST PUSH2 0xFD PUSH1 0x4 DUP1 CALLDATASIZE SUB DUP2 ADD SWAP1 PUSH2 0xF8 SWAP2 SWAP1 PUSH2 0x23CA JUMP JUMPDEST PUSH2 0x510 JUMP JUMPDEST STOP JUMPDEST CALLVALUE DUP1 ISZERO PUSH2 0x10B JUMPI PUSH1 0x0 DUP1 REVERT JUMPDEST POP PUSH2 0x126 PUSH1 0x4 DUP1 CALLDATASIZE SUB DUP2 ADD SWAP1 PUSH2 0x121 SWAP2 SWAP1 PUSH2 0x241D JUMP JUMPDEST PUSH2 0xA05 JUMP JUMPDEST PUSH1 0x40 MLOAD PUSH2 0x133 SWAP2 SWAP1 PUSH2 0x24C9 JUMP JUMPDEST PUSH1 0x40 MLOAD DUP1 SWAP2 SUB SWAP1 RETURN JUMPDEST PUSH2 0x156 PUSH1 0x4 DUP1 CALLDATASIZE SUB DUP2 ADD SWAP1 PUSH2 0x151 SWAP2 SWAP1 PUSH2 0x24EB JUMP JUMPDEST PUSH2 0xBDD JUMP JUMPDEST PUSH1 0x40 MLOAD PUSH2 0x163 SWAP2 SWAP1 PUSH2 0x25D1 JUMP JUMPDEST PUSH1 0x40 MLOAD DUP1 SWAP2 SUB SWAP1 RETURN JUMPDEST CALLVALUE DUP1 ISZERO PUSH2 0x178 JUMPI PUSH1 0x0 DUP1 REVERT JUMPDEST POP PUSH2 0x193 PUSH1 0x4 DUP1 CALLDATASIZE SUB DUP2 ADD SWAP1 PUSH2 0x18E SWAP2 SWAP1 PUSH2 0x25EC JUMP JUMPDEST PUSH2 0xE2B JUMP JUMPDEST PUSH1 0x40 MLOAD PUSH2 0x1A0 SWAP2 SWAP1 PUSH2 0x24C9 JUMP JUMPDEST PUSH1 0x40 MLOAD DUP1 SWAP2 SUB SWAP1 RETURN JUMPDEST CALLVALUE DUP1 ISZERO PUSH2 0x1B5 JUMPI PUSH1 0x0 DUP1 REVERT JUMPDEST POP PUSH2 0x1BE PUSH2 0xFC4 JUMP JUMPDEST PUSH1 0x40 MLOAD PUSH2 0x1CB SWAP2 SWAP1 PUSH2 0x25D1 JUMP JUMPDEST PUSH1 0x40 MLOAD DUP1 SWAP2 SUB SWAP1 RETURN JUMPDEST CALLVALUE DUP1 ISZERO PUSH2 0x1E0 JUMPI PUSH1 0x0 DUP1 REVERT JUMPDEST POP PUSH2 0x1FB PUSH1 0x4 DUP1 CALLDATASIZE SUB DUP2 ADD SWAP1 PUSH2 0x1F6 SWAP2 SWAP1 PUSH2 0x25EC JUMP JUMPDEST PUSH2 0xFD1 JUMP JUMPDEST PUSH1 0x40 MLOAD PUSH2 0x208 SWAP2 SWAP1 PUSH2 0x2807 JUMP JUMPDEST PUSH1 0x40 MLOAD DUP1 SWAP2 SUB SWAP1 RETURN JUMPDEST CALLVALUE DUP1 ISZERO PUSH2 0x21D JUMPI PUSH1 0x0 DUP1 REVERT JUMPDEST POP PUSH2 0x238 PUSH1 0x4 DUP1 CALLDATASIZE SUB DUP2 ADD SWAP1 PUSH2 0x233 SWAP2 SWAP1 PUSH2 0x25EC JUMP JUMPDEST PUSH2 0x131E JUMP JUMPDEST PUSH1 0x40 MLOAD PUSH2 0x245 SWAP2 SWAP1 PUSH2 0x24C9 JUMP JUMPDEST PUSH1 0x40 MLOAD DUP1 SWAP2 SUB SWAP1 RETURN JUMPDEST CALLVALUE DUP1 ISZERO PUSH2 0x25A JUMPI PUSH1 0x0 DUP1 REVERT JUMPDEST POP PUSH2 0x263 PUSH2 0x1409 JUMP JUMPDEST PUSH1 0x40 MLOAD PUSH2 0x270 SWAP2 SWAP1 PUSH2 0x286A JUMP JUMPDEST PUSH1 0x40 MLOAD DUP1 SWAP2 SUB SWAP1 RETURN JUMPDEST CALLVALUE DUP1 ISZERO PUSH2 0x285 JUMPI PUSH1 0x0 DUP1 REVERT JUMPDEST POP PUSH2 0x2A0 PUSH1 0x4 DUP1 CALLDATASIZE SUB DUP2 ADD SWAP1 PUSH2 0x29B SWAP2 SWAP1 PUSH2 0x28B1 JUMP JUMPDEST PUSH2 0x1432 JUMP JUMPDEST STOP JUMPDEST PUSH2 0x2BC PUSH1 0x4 DUP1 CALLDATASIZE SUB DUP2 ADD SWAP1 PUSH2 0x2B7 SWAP2 SWAP1 PUSH2 0x28DE JUMP JUMPDEST PUSH2 0x157D JUMP JUMPDEST STOP JUMPDEST CALLVALUE DUP1 ISZERO PUSH2 0x2CA JUMPI PUSH1 0x0 DUP1 REVERT JUMPDEST POP PUSH2 0x2E5 PUSH1 0x4 DUP1 CALLDATASIZE SUB DUP2 ADD SWAP1 PUSH2 0x2E0 SWAP2 SWAP1 PUSH2 0x241D JUMP JUMPDEST PUSH2 0x1A60 JUMP JUMPDEST PUSH1 0x40 MLOAD PUSH2 0x2F2 SWAP2 SWAP1 PUSH2 0x25D1 JUMP JUMPDEST PUSH1 0x40 MLOAD DUP1 SWAP2 SUB SWAP1 RETURN JUMPDEST CALLVALUE DUP1 ISZERO PUSH2 0x307 JUMPI PUSH1 0x0 DUP1 REVERT JUMPDEST POP PUSH2 0x322 PUSH1 0x4 DUP1 CALLDATASIZE SUB DUP2 ADD SWAP1 PUSH2 0x31D SWAP2 SWAP1 PUSH2 0x241D JUMP JUMPDEST PUSH2 0x1B65 JUMP JUMPDEST PUSH1 0x40 MLOAD PUSH2 0x32F SWAP2 SWAP1 PUSH2 0x24C9 JUMP JUMPDEST PUSH1 0x40 MLOAD DUP1 SWAP2 SUB SWAP1 RETURN JUMPDEST PUSH1 0x0 PUSH1 0x40 MLOAD DUP1 PUSH1 0xE0 ADD PUSH1 0x40 MSTORE DUP1 PUSH1 0x2 DUP8 DUP2 SLOAD DUP2 LT PUSH2 0x359 JUMPI PUSH2 0x358 PUSH2 0x2961 JUMP JUMPDEST JUMPDEST SWAP1 PUSH1 0x0 MSTORE PUSH1 0x20 PUSH1 0x0 KECCAK256 ADD PUSH1 0x0 DUP2 SLOAD DUP2 LT PUSH2 0x376 JUMPI PUSH2 0x375 PUSH2 0x2961 JUMP JUMPDEST JUMPDEST SWAP1 PUSH1 0x0 MSTORE PUSH1 0x20 PUSH1 0x0 KECCAK256 SWAP1 PUSH1 0x7 MUL ADD PUSH1 0x0 ADD DUP1 SLOAD PUSH2 0x392 SWAP1 PUSH2 0x29BF JUMP JUMPDEST DUP1 PUSH1 0x1F ADD PUSH1 0x20 DUP1 SWAP2 DIV MUL PUSH1 0x20 ADD PUSH1 0x40 MLOAD SWAP1 DUP2 ADD PUSH1 0x40 MSTORE DUP1 SWAP3 SWAP2 SWAP1 DUP2 DUP2 MSTORE PUSH1 0x20 ADD DUP3 DUP1 SLOAD PUSH2 0x3BE SWAP1 PUSH2 0x29BF JUMP JUMPDEST DUP1 ISZERO PUSH2 0x40B JUMPI DUP1 PUSH1 0x1F LT PUSH2 0x3E0 JUMPI PUSH2 0x100 DUP1 DUP4 SLOAD DIV MUL DUP4 MSTORE SWAP2 PUSH1 0x20 ADD SWAP2 PUSH2 0x40B JUMP JUMPDEST DUP3 ADD SWAP2 SWAP1 PUSH1 0x0 MSTORE PUSH1 0x20 PUSH1 0x0 KECCAK256 SWAP1 JUMPDEST DUP2 SLOAD DUP2 MSTORE SWAP1 PUSH1 0x1 ADD SWAP1 PUSH1 0x20 ADD DUP1 DUP4 GT PUSH2 0x3EE JUMPI DUP3 SWAP1 SUB PUSH1 0x1F AND DUP3 ADD SWAP2 JUMPDEST POP POP POP POP POP DUP2 MSTORE PUSH1 0x20 ADD DUP6 DUP2 MSTORE PUSH1 0x20 ADD DUP5 DUP2 MSTORE PUSH1 0x20 ADD DUP4 DUP2 MSTORE PUSH1 0x20 ADD PUSH1 0x0 DUP2 MSTORE PUSH1 0x20 ADD PUSH1 0x0 DUP2 MSTORE PUSH1 0x20 ADD TIMESTAMP DUP2 MSTORE POP SWAP1 POP PUSH1 0x2 DUP6 DUP2 SLOAD DUP2 LT PUSH2 0x44F JUMPI PUSH2 0x44E PUSH2 0x2961 JUMP JUMPDEST JUMPDEST SWAP1 PUSH1 0x0 MSTORE PUSH1 0x20 PUSH1 0x0 KECCAK256 ADD DUP2 SWAP1 DUP1 PUSH1 0x1 DUP2 SLOAD ADD DUP1 DUP3 SSTORE DUP1 SWAP2 POP POP PUSH1 0x1 SWAP1 SUB SWAP1 PUSH1 0x0 MSTORE PUSH1 0x20 PUSH1 0x0 KECCAK256 SWAP1 PUSH1 0x7 MUL ADD PUSH1 0x0 SWAP1 SWAP2 SWAP1 SWAP2 SWAP1 SWAP2 POP PUSH1 0x0 DUP3 ADD MLOAD DUP2 PUSH1 0x0 ADD SWAP1 DUP2 PUSH2 0x498 SWAP2 SWAP1 PUSH2 0x2B9C JUMP JUMPDEST POP PUSH1 0x20 DUP3 ADD MLOAD DUP2 PUSH1 0x1 ADD SWAP1 DUP2 PUSH2 0x4AE SWAP2 SWAP1 PUSH2 0x2B9C JUMP JUMPDEST POP PUSH1 0x40 DUP3 ADD MLOAD DUP2 PUSH1 0x2 ADD SWAP1 DUP1 MLOAD SWAP1 PUSH1 0x20 ADD SWAP1 PUSH2 0x4CB SWAP3 SWAP2 SWAP1 PUSH2 0x1F4C JUMP JUMPDEST POP PUSH1 0x60 DUP3 ADD MLOAD DUP2 PUSH1 0x3 ADD SWAP1 DUP1 MLOAD SWAP1 PUSH1 0x20 ADD SWAP1 PUSH2 0x4E8 SWAP3 SWAP2 SWAP1 PUSH2 0x1F4C JUMP JUMPDEST POP PUSH1 0x80 DUP3 ADD MLOAD DUP2 PUSH1 0x4 ADD SSTORE PUSH1 0xA0 DUP3 ADD MLOAD DUP2 PUSH1 0x5 ADD SSTORE PUSH1 0xC0 DUP3 ADD MLOAD DUP2 PUSH1 0x6 ADD SSTORE POP POP POP POP POP POP POP JUMP JUMPDEST PUSH32 0xFFFFFFFFFFFFFFFFFFFFFFFFFFFFFFFFFFFFFFFFFFFFFFFFFFFFFFFFFFFFFFFF DUP2 SLT ISZERO PUSH2 0x573 JUMPI PUSH1 0x40 MLOAD PUSH32 0x8C379A000000000000000000000000000000000000000000000000000000000 DUP2 MSTORE PUSH1 0x4 ADD PUSH2 0x56A SWAP1 PUSH2 0x2CBA JUMP JUMPDEST PUSH1 0x40 MLOAD DUP1 SWAP2 SUB SWAP1 REVERT JUMPDEST PUSH1 0x1 DUP2 SGT ISZERO PUSH2 0x5B7 JUMPI PUSH1 0x40 MLOAD PUSH32 0x8C379A000000000000000000000000000000000000000000000000000000000 DUP2 MSTORE PUSH1 0x4 ADD PUSH2 0x5AE SWAP1 PUSH2 0x2CBA JUMP JUMPDEST PUSH1 0x40 MLOAD DUP1 SWAP2 SUB SWAP1 REVERT JUMPDEST PUSH1 0x0 JUMPDEST PUSH1 0x1 DUP5 DUP2 SLOAD DUP2 LT PUSH2 0x5CE JUMPI PUSH2 0x5CD PUSH2 0x2961 JUMP JUMPDEST JUMPDEST SWAP1 PUSH1 0x0 MSTORE PUSH1 0x20 PUSH1 0x0 KECCAK256 ADD DUP1 SLOAD SWAP1 POP DUP2 LT ISZERO PUSH2 0x875 JUMPI CALLER PUSH20 0xFFFFFFFFFFFFFFFFFFFFFFFFFFFFFFFFFFFFFFFF AND PUSH1 0x1 DUP6 DUP2 SLOAD DUP2 LT PUSH2 0x60E JUMPI PUSH2 0x60D PUSH2 0x2961 JUMP JUMPDEST JUMPDEST SWAP1 PUSH1 0x0 MSTORE PUSH1 0x20 PUSH1 0x0 KECCAK256 ADD DUP3 DUP2 SLOAD DUP2 LT PUSH2 0x62A JUMPI PUSH2 0x629 PUSH2 0x2961 JUMP JUMPDEST JUMPDEST SWAP1 PUSH1 0x0 MSTORE PUSH1 0x20 PUSH1 0x0 KECCAK256 SWAP1 PUSH1 0x3 MUL ADD PUSH1 0x0 ADD PUSH1 0x0 SWAP1 SLOAD SWAP1 PUSH2 0x100 EXP SWAP1 DIV PUSH20 0xFFFFFFFFFFFFFFFFFFFFFFFFFFFFFFFFFFFFFFFF AND PUSH20 0xFFFFFFFFFFFFFFFFFFFFFFFFFFFFFFFFFFFFFFFF AND SUB PUSH2 0x862 JUMPI PUSH1 0x1 DUP5 DUP2 SLOAD DUP2 LT PUSH2 0x68B JUMPI PUSH2 0x68A PUSH2 0x2961 JUMP JUMPDEST JUMPDEST SWAP1 PUSH1 0x0 MSTORE PUSH1 0x20 PUSH1 0x0 KECCAK256 ADD DUP2 DUP2 SLOAD DUP2 LT PUSH2 0x6A7 JUMPI PUSH2 0x6A6 PUSH2 0x2961 JUMP JUMPDEST JUMPDEST SWAP1 PUSH1 0x0 MSTORE PUSH1 0x20 PUSH1 0x0 KECCAK256 SWAP1 PUSH1 0x3 MUL ADD PUSH1 0x2 ADD SLOAD PUSH1 0x2 DUP6 DUP2 SLOAD DUP2 LT PUSH2 0x6CD JUMPI PUSH2 0x6CC PUSH2 0x2961 JUMP JUMPDEST JUMPDEST SWAP1 PUSH1 0x0 MSTORE PUSH1 0x20 PUSH1 0x0 KECCAK256 ADD PUSH1 0x1 DUP7 DUP2 SLOAD DUP2 LT PUSH2 0x6EB JUMPI PUSH2 0x6EA PUSH2 0x2961 JUMP JUMPDEST JUMPDEST SWAP1 PUSH1 0x0 MSTORE PUSH1 0x20 PUSH1 0x0 KECCAK256 ADD DUP4 DUP2 SLOAD DUP2 LT PUSH2 0x707 JUMPI PUSH2 0x706 PUSH2 0x2961 JUMP JUMPDEST JUMPDEST SWAP1 PUSH1 0x0 MSTORE PUSH1 0x20 PUSH1 0x0 KECCAK256 SWAP1 PUSH1 0x3 MUL ADD PUSH1 0x1 ADD SLOAD DUP2 SLOAD DUP2 LT PUSH2 0x72A JUMPI PUSH2 0x729 PUSH2 0x2961 JUMP JUMPDEST JUMPDEST SWAP1 PUSH1 0x0 MSTORE PUSH1 0x20 PUSH1 0x0 KECCAK256 SWAP1 PUSH1 0x7 MUL ADD PUSH1 0x4 ADD PUSH1 0x0 DUP3 DUP3 SLOAD PUSH2 0x74A SWAP2 SWAP1 PUSH2 0x2D09 JUMP JUMPDEST SWAP3 POP POP DUP2 SWAP1 SSTORE POP PUSH1 0x2 DUP5 DUP2 SLOAD DUP2 LT PUSH2 0x765 JUMPI PUSH2 0x764 PUSH2 0x2961 JUMP JUMPDEST JUMPDEST SWAP1 PUSH1 0x0 MSTORE PUSH1 0x20 PUSH1 0x0 KECCAK256 ADD PUSH1 0x1 DUP6 DUP2 SLOAD DUP2 LT PUSH2 0x783 JUMPI PUSH2 0x782 PUSH2 0x2961 JUMP JUMPDEST JUMPDEST SWAP1 PUSH1 0x0 MSTORE PUSH1 0x20 PUSH1 0x0 KECCAK256 ADD DUP3 DUP2 SLOAD DUP2 LT PUSH2 0x79F JUMPI PUSH2 0x79E PUSH2 0x2961 JUMP JUMPDEST JUMPDEST SWAP1 PUSH1 0x0 MSTORE PUSH1 0x20 PUSH1 0x0 KECCAK256 SWAP1 PUSH1 0x3 MUL ADD PUSH1 0x1 ADD SLOAD DUP2 SLOAD DUP2 LT PUSH2 0x7C2 JUMPI PUSH2 0x7C1 PUSH2 0x2961 JUMP JUMPDEST JUMPDEST SWAP1 PUSH1 0x0 MSTORE PUSH1 0x20 PUSH1 0x0 KECCAK256 SWAP1 PUSH1 0x7 MUL ADD PUSH1 0x5 ADD PUSH1 0x0 DUP2 SLOAD DUP1 SWAP3 SWAP2 SWAP1 PUSH2 0x7E4 SWAP1 PUSH2 0x2D4C JUMP JUMPDEST SWAP2 SWAP1 POP SSTORE POP PUSH1 0x1 DUP5 DUP2 SLOAD DUP2 LT PUSH2 0x7FD JUMPI PUSH2 0x7FC PUSH2 0x2961 JUMP JUMPDEST JUMPDEST SWAP1 PUSH1 0x0 MSTORE PUSH1 0x20 PUSH1 0x0 KECCAK256 ADD DUP2 DUP2 SLOAD DUP2 LT PUSH2 0x819 JUMPI PUSH2 0x818 PUSH2 0x2961 JUMP JUMPDEST JUMPDEST SWAP1 PUSH1 0x0 MSTORE PUSH1 0x20 PUSH1 0x0 KECCAK256 SWAP1 PUSH1 0x3 MUL ADD PUSH1 0x0 DUP1 DUP3 ADD PUSH1 0x0 PUSH2 0x100 EXP DUP2 SLOAD SWAP1 PUSH20 0xFFFFFFFFFFFFFFFFFFFFFFFFFFFFFFFFFFFFFFFF MUL NOT AND SWAP1 SSTORE PUSH1 0x1 DUP3 ADD PUSH1 0x0 SWAP1 SSTORE PUSH1 0x2 DUP3 ADD PUSH1 0x0 SWAP1 SSTORE POP POP JUMPDEST DUP1 DUP1 PUSH2 0x86D SWAP1 PUSH2 0x2D75 JUMP JUMPDEST SWAP2 POP POP PUSH2 0x5BA JUMP JUMPDEST POP PUSH1 0x0 PUSH1 0x40 MLOAD DUP1 PUSH1 0x60 ADD PUSH1 0x40 MSTORE DUP1 CALLER PUSH20 0xFFFFFFFFFFFFFFFFFFFFFFFFFFFFFFFFFFFFFFFF AND DUP2 MSTORE PUSH1 0x20 ADD DUP5 DUP2 MSTORE PUSH1 0x20 ADD DUP4 DUP2 MSTORE POP SWAP1 POP PUSH1 0x1 DUP5 DUP2 SLOAD DUP2 LT PUSH2 0x8BF JUMPI PUSH2 0x8BE PUSH2 0x2961 JUMP JUMPDEST JUMPDEST SWAP1 PUSH1 0x0 MSTORE PUSH1 0x20 PUSH1 0x0 KECCAK256 ADD DUP2 SWAP1 DUP1 PUSH1 0x1 DUP2 SLOAD ADD DUP1 DUP3 SSTORE DUP1 SWAP2 POP POP PUSH1 0x1 SWAP1 SUB SWAP1 PUSH1 0x0 MSTORE PUSH1 0x20 PUSH1 0x0 KECCAK256 SWAP1 PUSH1 0x3 MUL ADD PUSH1 0x0 SWAP1 SWAP2 SWAP1 SWAP2 SWAP1 SWAP2 POP PUSH1 0x0 DUP3 ADD MLOAD DUP2 PUSH1 0x0 ADD PUSH1 0x0 PUSH2 0x100 EXP DUP2 SLOAD DUP2 PUSH20 0xFFFFFFFFFFFFFFFFFFFFFFFFFFFFFFFFFFFFFFFF MUL NOT AND SWAP1 DUP4 PUSH20 0xFFFFFFFFFFFFFFFFFFFFFFFFFFFFFFFFFFFFFFFF AND MUL OR SWAP1 SSTORE POP PUSH1 0x20 DUP3 ADD MLOAD DUP2 PUSH1 0x1 ADD SSTORE PUSH1 0x40 DUP3 ADD MLOAD DUP2 PUSH1 0x2 ADD SSTORE POP POP DUP2 PUSH1 0x2 DUP6 DUP2 SLOAD DUP2 LT PUSH2 0x965 JUMPI PUSH2 0x964 PUSH2 0x2961 JUMP JUMPDEST JUMPDEST SWAP1 PUSH1 0x0 MSTORE PUSH1 0x20 PUSH1 0x0 KECCAK256 ADD DUP5 DUP2 SLOAD DUP2 LT PUSH2 0x981 JUMPI PUSH2 0x980 PUSH2 0x2961 JUMP JUMPDEST JUMPDEST SWAP1 PUSH1 0x0 MSTORE PUSH1 0x20 PUSH1 0x0 KECCAK256 SWAP1 PUSH1 0x7 MUL ADD PUSH1 0x4 ADD PUSH1 0x0 DUP3 DUP3 SLOAD PUSH2 0x9A1 SWAP2 SWAP1 PUSH2 0x2DBD JUMP JUMPDEST SWAP3 POP POP DUP2 SWAP1 SSTORE POP PUSH1 0x2 DUP5 DUP2 SLOAD DUP2 LT PUSH2 0x9BC JUMPI PUSH2 0x9BB PUSH2 0x2961 JUMP JUMPDEST JUMPDEST SWAP1 PUSH1 0x0 MSTORE PUSH1 0x20 PUSH1 0x0 KECCAK256 ADD DUP4 DUP2 SLOAD DUP2 LT PUSH2 0x9D8 JUMPI PUSH2 0x9D7 PUSH2 0x2961 JUMP JUMPDEST JUMPDEST SWAP1 PUSH1 0x0 MSTORE PUSH1 0x20 PUSH1 0x0 KECCAK256 SWAP1 PUSH1 0x7 MUL ADD PUSH1 0x5 ADD PUSH1 0x0 DUP2 SLOAD DUP1 SWAP3 SWAP2 SWAP1 PUSH2 0x9FA SWAP1 PUSH2 0x2D75 JUMP JUMPDEST SWAP2 SWAP1 POP SSTORE POP POP POP POP POP JUMP JUMPDEST PUSH1 0x60 PUSH1 0x0 JUMPDEST PUSH1 0x2 DUP4 DUP2 SLOAD DUP2 LT PUSH2 0xA1E JUMPI PUSH2 0xA1D PUSH2 0x2961 JUMP JUMPDEST JUMPDEST SWAP1 PUSH1 0x0 MSTORE PUSH1 0x20 PUSH1 0x0 KECCAK256 ADD DUP1 SLOAD SWAP1 POP DUP2 LT ISZERO PUSH2 0xBD7 JUMPI PUSH2 0xA3C DUP2 PUSH2 0x1C22 JUMP JUMPDEST PUSH1 0x2 DUP5 DUP2 SLOAD DUP2 LT PUSH2 0xA50 JUMPI PUSH2 0xA4F PUSH2 0x2961 JUMP JUMPDEST JUMPDEST SWAP1 PUSH1 0x0 MSTORE PUSH1 0x20 PUSH1 0x0 KECCAK256 ADD DUP3 DUP2 SLOAD DUP2 LT PUSH2 0xA6C JUMPI PUSH2 0xA6B PUSH2 0x2961 JUMP JUMPDEST JUMPDEST SWAP1 PUSH1 0x0 MSTORE PUSH1 0x20 PUSH1 0x0 KECCAK256 SWAP1 PUSH1 0x7 MUL ADD PUSH1 0x0 ADD PUSH1 0x2 DUP6 DUP2 SLOAD DUP2 LT PUSH2 0xA91 JUMPI PUSH2 0xA90 PUSH2 0x2961 JUMP JUMPDEST JUMPDEST SWAP1 PUSH1 0x0 MSTORE PUSH1 0x20 PUSH1 0x0 KECCAK256 ADD DUP4 DUP2 SLOAD DUP2 LT PUSH2 0xAAD JUMPI PUSH2 0xAAC PUSH2 0x2961 JUMP JUMPDEST JUMPDEST SWAP1 PUSH1 0x0 MSTORE PUSH1 0x20 PUSH1 0x0 KECCAK256 SWAP1 PUSH1 0x7 MUL ADD PUSH1 0x1 ADD PUSH2 0xB08 PUSH1 0x2 DUP8 DUP2 SLOAD DUP2 LT PUSH2 0xAD5 JUMPI PUSH2 0xAD4 PUSH2 0x2961 JUMP JUMPDEST JUMPDEST SWAP1 PUSH1 0x0 MSTORE PUSH1 0x20 PUSH1 0x0 KECCAK256 ADD DUP6 DUP2 SLOAD DUP2 LT PUSH2 0xAF1 JUMPI PUSH2 0xAF0 PUSH2 0x2961 JUMP JUMPDEST JUMPDEST SWAP1 PUSH1 0x0 MSTORE PUSH1 0x20 PUSH1 0x0 KECCAK256 SWAP1 PUSH1 0x7 MUL ADD PUSH1 0x6 ADD SLOAD PUSH2 0x1C22 JUMP JUMPDEST PUSH2 0xB52 PUSH1 0x2 DUP9 DUP2 SLOAD DUP2 LT PUSH2 0xB1F JUMPI PUSH2 0xB1E PUSH2 0x2961 JUMP JUMPDEST JUMPDEST SWAP1 PUSH1 0x0 MSTORE PUSH1 0x20 PUSH1 0x0 KECCAK256 ADD DUP7 DUP2 SLOAD DUP2 LT PUSH2 0xB3B JUMPI PUSH2 0xB3A PUSH2 0x2961 JUMP JUMPDEST JUMPDEST SWAP1 PUSH1 0x0 MSTORE PUSH1 0x20 PUSH1 0x0 KECCAK256 SWAP1 PUSH1 0x7 MUL ADD PUSH1 0x4 ADD SLOAD PUSH2 0x1CF0 JUMP JUMPDEST PUSH2 0xB9C PUSH1 0x2 DUP10 DUP2 SLOAD DUP2 LT PUSH2 0xB69 JUMPI PUSH2 0xB68 PUSH2 0x2961 JUMP JUMPDEST JUMPDEST SWAP1 PUSH1 0x0 MSTORE PUSH1 0x20 PUSH1 0x0 KECCAK256 ADD DUP8 DUP2 SLOAD DUP2 LT PUSH2 0xB85 JUMPI PUSH2 0xB84 PUSH2 0x2961 JUMP JUMPDEST JUMPDEST SWAP1 PUSH1 0x0 MSTORE PUSH1 0x20 PUSH1 0x0 KECCAK256 SWAP1 PUSH1 0x7 MUL ADD PUSH1 0x5 ADD SLOAD PUSH2 0x1C22 JUMP JUMPDEST DUP8 PUSH1 0x40 MLOAD PUSH1 0x20 ADD PUSH2 0xBB3 SWAP8 SWAP7 SWAP6 SWAP5 SWAP4 SWAP3 SWAP2 SWAP1 PUSH2 0x2F0C JUMP JUMPDEST PUSH1 0x40 MLOAD PUSH1 0x20 DUP2 DUP4 SUB SUB DUP2 MSTORE SWAP1 PUSH1 0x40 MSTORE SWAP2 POP DUP1 DUP1 PUSH2 0xBCF SWAP1 PUSH2 0x2D75 JUMP JUMPDEST SWAP2 POP POP PUSH2 0xA0A JUMP JUMPDEST POP SWAP2 SWAP1 POP JUMP JUMPDEST PUSH1 0x0 PUSH1 0xA DUP5 MLOAD GT PUSH2 0xC23 JUMPI PUSH1 0x40 MLOAD PUSH32 0x8C379A000000000000000000000000000000000000000000000000000000000 DUP2 MSTORE PUSH1 0x4 ADD PUSH2 0xC1A SWAP1 PUSH2 0x3017 JUMP JUMPDEST PUSH1 0x40 MLOAD DUP1 SWAP2 SUB SWAP1 REVERT JUMPDEST PUSH1 0x4 DUP6 MLOAD GT PUSH2 0xC67 JUMPI PUSH1 0x40 MLOAD PUSH32 0x8C379A000000000000000000000000000000000000000000000000000000000 DUP2 MSTORE PUSH1 0x4 ADD PUSH2 0xC5E SWAP1 PUSH2 0x3083 JUMP JUMPDEST PUSH1 0x40 MLOAD DUP1 SWAP2 SUB SWAP1 REVERT JUMPDEST PUSH1 0x0 PUSH1 0x40 MLOAD DUP1 PUSH1 0xE0 ADD PUSH1 0x40 MSTORE DUP1 DUP8 DUP2 MSTORE PUSH1 0x20 ADD DUP7 DUP2 MSTORE PUSH1 0x20 ADD DUP6 DUP2 MSTORE PUSH1 0x20 ADD DUP5 DUP2 MSTORE PUSH1 0x20 ADD PUSH1 0x0 DUP2 MSTORE PUSH1 0x20 ADD PUSH1 0x0 DUP2 MSTORE PUSH1 0x20 ADD TIMESTAMP DUP2 MSTORE POP SWAP1 POP PUSH1 0x2 PUSH1 0x1 DUP2 PUSH1 0x1 DUP2 SLOAD ADD DUP1 DUP3 SSTORE DUP1 SWAP2 POP POP SUB SWAP1 PUSH1 0x0 MSTORE PUSH1 0x20 PUSH1 0x0 KECCAK256 POP POP PUSH1 0x2 PUSH1 0x1 PUSH1 0x2 DUP1 SLOAD SWAP1 POP PUSH2 0xCD1 SWAP2 SWAP1 PUSH2 0x30A3 JUMP JUMPDEST DUP2 SLOAD DUP2 LT PUSH2 0xCE2 JUMPI PUSH2 0xCE1 PUSH2 0x2961 JUMP JUMPDEST JUMPDEST SWAP1 PUSH1 0x0 MSTORE PUSH1 0x20 PUSH1 0x0 KECCAK256 ADD DUP2 SWAP1 DUP1 PUSH1 0x1 DUP2 SLOAD ADD DUP1 DUP3 SSTORE DUP1 SWAP2 POP POP PUSH1 0x1 SWAP1 SUB SWAP1 PUSH1 0x0 MSTORE PUSH1 0x20 PUSH1 0x0 KECCAK256 SWAP1 PUSH1 0x7 MUL ADD PUSH1 0x0 SWAP1 SWAP2 SWAP1 SWAP2 SWAP1 SWAP2 POP PUSH1 0x0 DUP3 ADD MLOAD DUP2 PUSH1 0x0 ADD SWAP1 DUP2 PUSH2 0xD2B SWAP2 SWAP1 PUSH2 0x2B9C JUMP JUMPDEST POP PUSH1 0x20 DUP3 ADD MLOAD DUP2 PUSH1 0x1 ADD SWAP1 DUP2 PUSH2 0xD41 SWAP2 SWAP1 PUSH2 0x2B9C JUMP JUMPDEST POP PUSH1 0x40 DUP3 ADD MLOAD DUP2 PUSH1 0x2 ADD SWAP1 DUP1 MLOAD SWAP1 PUSH1 0x20 ADD SWAP1 PUSH2 0xD5E SWAP3 SWAP2 SWAP1 PUSH2 0x1F4C JUMP JUMPDEST POP PUSH1 0x60 DUP3 ADD MLOAD DUP2 PUSH1 0x3 ADD SWAP1 DUP1 MLOAD SWAP1 PUSH1 0x20 ADD SWAP1 PUSH2 0xD7B SWAP3 SWAP2 SWAP1 PUSH2 0x1F4C JUMP JUMPDEST POP PUSH1 0x80 DUP3 ADD MLOAD DUP2 PUSH1 0x4 ADD SSTORE PUSH1 0xA0 DUP3 ADD MLOAD DUP2 PUSH1 0x5 ADD SSTORE PUSH1 0xC0 DUP3 ADD MLOAD DUP2 PUSH1 0x6 ADD SSTORE POP POP PUSH1 0x3 PUSH1 0x0 DUP2 SLOAD DUP1 SWAP3 SWAP2 SWAP1 PUSH2 0xDAF SWAP1 PUSH2 0x2D75 JUMP JUMPDEST SWAP2 SWAP1 POP SSTORE POP PUSH1 0x1 DUP1 DUP2 PUSH1 0x1 DUP2 SLOAD ADD DUP1 DUP3 SSTORE DUP1 SWAP2 POP POP SUB SWAP1 PUSH1 0x0 MSTORE PUSH1 0x20 PUSH1 0x0 KECCAK256 POP POP PUSH1 0x1 PUSH1 0x2 DUP1 SLOAD SWAP1 POP PUSH2 0xDE2 SWAP2 SWAP1 PUSH2 0x30A3 JUMP JUMPDEST PUSH32 0x1AC2092E16E28EEF29D1832F3DC69DA1B21284A1F3159D3B26CB238B22FE4F8A PUSH1 0x40 MLOAD PUSH1 0x40 MLOAD DUP1 SWAP2 SUB SWAP1 LOG2 PUSH1 0x1 PUSH1 0x2 DUP1 SLOAD SWAP1 POP PUSH2 0xE20 SWAP2 SWAP1 PUSH2 0x30A3 JUMP JUMPDEST SWAP2 POP POP SWAP5 SWAP4 POP POP POP POP JUMP JUMPDEST PUSH1 0x60 PUSH2 0xE36 DUP3 PUSH2 0x1C22 JUMP JUMPDEST PUSH1 0x2 DUP5 DUP2 SLOAD DUP2 LT PUSH2 0xE4A JUMPI PUSH2 0xE49 PUSH2 0x2961 JUMP JUMPDEST JUMPDEST SWAP1 PUSH1 0x0 MSTORE PUSH1 0x20 PUSH1 0x0 KECCAK256 ADD DUP4 DUP2 SLOAD DUP2 LT PUSH2 0xE66 JUMPI PUSH2 0xE65 PUSH2 0x2961 JUMP JUMPDEST JUMPDEST SWAP1 PUSH1 0x0 MSTORE PUSH1 0x20 PUSH1 0x0 KECCAK256 SWAP1 PUSH1 0x7 MUL ADD PUSH1 0x0 ADD PUSH1 0x2 DUP6 DUP2 SLOAD DUP2 LT PUSH2 0xE8B JUMPI PUSH2 0xE8A PUSH2 0x2961 JUMP JUMPDEST JUMPDEST SWAP1 PUSH1 0x0 MSTORE PUSH1 0x20 PUSH1 0x0 KECCAK256 ADD DUP5 DUP2 SLOAD DUP2 LT PUSH2 0xEA7 JUMPI PUSH2 0xEA6 PUSH2 0x2961 JUMP JUMPDEST JUMPDEST SWAP1 PUSH1 0x0 MSTORE PUSH1 0x20 PUSH1 0x0 KECCAK256 SWAP1 PUSH1 0x7 MUL ADD PUSH1 0x1 ADD PUSH1 0x40 MLOAD PUSH1 0x20 ADD PUSH2 0xECA SWAP4 SWAP3 SWAP2 SWAP1 PUSH2 0x30D7 JUMP JUMPDEST PUSH1 0x40 MLOAD PUSH1 0x20 DUP2 DUP4 SUB SUB DUP2 MSTORE SWAP1 PUSH1 0x40 MSTORE SWAP1 POP PUSH1 0x0 JUMPDEST PUSH1 0x2 DUP5 DUP2 SLOAD DUP2 LT PUSH2 0xEF2 JUMPI PUSH2 0xEF1 PUSH2 0x2961 JUMP JUMPDEST JUMPDEST SWAP1 PUSH1 0x0 MSTORE PUSH1 0x20 PUSH1 0x0 KECCAK256 ADD DUP4 DUP2 SLOAD DUP2 LT PUSH2 0xF0E JUMPI PUSH2 0xF0D PUSH2 0x2961 JUMP JUMPDEST JUMPDEST SWAP1 PUSH1 0x0 MSTORE PUSH1 0x20 PUSH1 0x0 KECCAK256 SWAP1 PUSH1 0x7 MUL ADD PUSH1 0x2 ADD DUP1 SLOAD SWAP1 POP DUP2 LT ISZERO PUSH2 0xFBD JUMPI DUP2 PUSH1 0x2 DUP6 DUP2 SLOAD DUP2 LT PUSH2 0xF3F JUMPI PUSH2 0xF3E PUSH2 0x2961 JUMP JUMPDEST JUMPDEST SWAP1 PUSH1 0x0 MSTORE PUSH1 0x20 PUSH1 0x0 KECCAK256 ADD DUP5 DUP2 SLOAD DUP2 LT PUSH2 0xF5B JUMPI PUSH2 0xF5A PUSH2 0x2961 JUMP JUMPDEST JUMPDEST SWAP1 PUSH1 0x0 MSTORE PUSH1 0x20 PUSH1 0x0 KECCAK256 SWAP1 PUSH1 0x7 MUL ADD PUSH1 0x2 ADD DUP3 DUP2 SLOAD DUP2 LT PUSH2 0xF7E JUMPI PUSH2 0xF7D PUSH2 0x2961 JUMP JUMPDEST JUMPDEST SWAP1 PUSH1 0x0 MSTORE PUSH1 0x20 PUSH1 0x0 KECCAK256 ADD PUSH1 0x40 MLOAD PUSH1 0x20 ADD PUSH2 0xF99 SWAP3 SWAP2 SWAP1 PUSH2 0x3126 JUMP JUMPDEST PUSH1 0x40 MLOAD PUSH1 0x20 DUP2 DUP4 SUB SUB DUP2 MSTORE SWAP1 PUSH1 0x40 MSTORE SWAP2 POP DUP1 DUP1 PUSH2 0xFB5 SWAP1 PUSH2 0x2D75 JUMP JUMPDEST SWAP2 POP POP PUSH2 0xEDE JUMP JUMPDEST POP SWAP3 SWAP2 POP POP JUMP JUMPDEST PUSH1 0x0 PUSH1 0x2 DUP1 SLOAD SWAP1 POP SWAP1 POP SWAP1 JUMP JUMPDEST PUSH2 0xFD9 PUSH2 0x1FA5 JUMP JUMPDEST PUSH1 0x2 DUP4 DUP2 SLOAD DUP2 LT PUSH2 0xFED JUMPI PUSH2 0xFEC PUSH2 0x2961 JUMP JUMPDEST JUMPDEST SWAP1 PUSH1 0x0 MSTORE PUSH1 0x20 PUSH1 0x0 KECCAK256 ADD DUP3 DUP2 SLOAD DUP2 LT PUSH2 0x1009 JUMPI PUSH2 0x1008 PUSH2 0x2961 JUMP JUMPDEST JUMPDEST SWAP1 PUSH1 0x0 MSTORE PUSH1 0x20 PUSH1 0x0 KECCAK256 SWAP1 PUSH1 0x7 MUL ADD PUSH1 0x40 MLOAD DUP1 PUSH1 0xE0 ADD PUSH1 0x40 MSTORE SWAP1 DUP2 PUSH1 0x0 DUP3 ADD DUP1 SLOAD PUSH2 0x1032 SWAP1 PUSH2 0x29BF JUMP JUMPDEST DUP1 PUSH1 0x1F ADD PUSH1 0x20 DUP1 SWAP2 DIV MUL PUSH1 0x20 ADD PUSH1 0x40 MLOAD SWAP1 DUP2 ADD PUSH1 0x40 MSTORE DUP1 SWAP3 SWAP2 SWAP1 DUP2 DUP2 MSTORE PUSH1 0x20 ADD DUP3 DUP1 SLOAD PUSH2 0x105E SWAP1 PUSH2 0x29BF JUMP JUMPDEST DUP1 ISZERO PUSH2 0x10AB JUMPI DUP1 PUSH1 0x1F LT PUSH2 0x1080 JUMPI PUSH2 0x100 DUP1 DUP4 SLOAD DIV MUL DUP4 MSTORE SWAP2 PUSH1 0x20 ADD SWAP2 PUSH2 0x10AB JUMP JUMPDEST DUP3 ADD SWAP2 SWAP1 PUSH1 0x0 MSTORE PUSH1 0x20 PUSH1 0x0 KECCAK256 SWAP1 JUMPDEST DUP2 SLOAD DUP2 MSTORE SWAP1 PUSH1 0x1 ADD SWAP1 PUSH1 0x20 ADD DUP1 DUP4 GT PUSH2 0x108E JUMPI DUP3 SWAP1 SUB PUSH1 0x1F AND DUP3 ADD SWAP2 JUMPDEST POP POP POP POP POP DUP2 MSTORE PUSH1 0x20 ADD PUSH1 0x1 DUP3 ADD DUP1 SLOAD PUSH2 0x10C4 SWAP1 PUSH2 0x29BF JUMP JUMPDEST DUP1 PUSH1 0x1F ADD PUSH1 0x20 DUP1 SWAP2 DIV MUL PUSH1 0x20 ADD PUSH1 0x40 MLOAD SWAP1 DUP2 ADD PUSH1 0x40 MSTORE DUP1 SWAP3 SWAP2 SWAP1 DUP2 DUP2 MSTORE PUSH1 0x20 ADD DUP3 DUP1 SLOAD PUSH2 0x10F0 SWAP1 PUSH2 0x29BF JUMP JUMPDEST DUP1 ISZERO PUSH2 0x113D JUMPI DUP1 PUSH1 0x1F LT PUSH2 0x1112 JUMPI PUSH2 0x100 DUP1 DUP4 SLOAD DIV MUL DUP4 MSTORE SWAP2 PUSH1 0x20 ADD SWAP2 PUSH2 0x113D JUMP JUMPDEST DUP3 ADD SWAP2 SWAP1 PUSH1 0x0 MSTORE PUSH1 0x20 PUSH1 0x0 KECCAK256 SWAP1 JUMPDEST DUP2 SLOAD DUP2 MSTORE SWAP1 PUSH1 0x1 ADD SWAP1 PUSH1 0x20 ADD DUP1 DUP4 GT PUSH2 0x1120 JUMPI DUP3 SWAP1 SUB PUSH1 0x1F AND DUP3 ADD SWAP2 JUMPDEST POP POP POP POP POP DUP2 MSTORE PUSH1 0x20 ADD PUSH1 0x2 DUP3 ADD DUP1 SLOAD DUP1 PUSH1 0x20 MUL PUSH1 0x20 ADD PUSH1 0x40 MLOAD SWAP1 DUP2 ADD PUSH1 0x40 MSTORE DUP1 SWAP3 SWAP2 SWAP1 DUP2 DUP2 MSTORE PUSH1 0x20 ADD PUSH1 0x0 SWAP1 JUMPDEST DUP3 DUP3 LT ISZERO PUSH2 0x1217 JUMPI DUP4 DUP3 SWAP1 PUSH1 0x0 MSTORE PUSH1 0x20 PUSH1 0x0 KECCAK256 ADD DUP1 SLOAD PUSH2 0x118A SWAP1 PUSH2 0x29BF JUMP JUMPDEST DUP1 PUSH1 0x1F ADD PUSH1 0x20 DUP1 SWAP2 DIV MUL PUSH1 0x20 ADD PUSH1 0x40 MLOAD SWAP1 DUP2 ADD PUSH1 0x40 MSTORE DUP1 SWAP3 SWAP2 SWAP1 DUP2 DUP2 MSTORE PUSH1 0x20 ADD DUP3 DUP1 SLOAD PUSH2 0x11B6 SWAP1 PUSH2 0x29BF JUMP JUMPDEST DUP1 ISZERO PUSH2 0x1203 JUMPI DUP1 PUSH1 0x1F LT PUSH2 0x11D8 JUMPI PUSH2 0x100 DUP1 DUP4 SLOAD DIV MUL DUP4 MSTORE SWAP2 PUSH1 0x20 ADD SWAP2 PUSH2 0x1203 JUMP JUMPDEST DUP3 ADD SWAP2 SWAP1 PUSH1 0x0 MSTORE PUSH1 0x20 PUSH1 0x0 KECCAK256 SWAP1 JUMPDEST DUP2 SLOAD DUP2 MSTORE SWAP1 PUSH1 0x1 ADD SWAP1 PUSH1 0x20 ADD DUP1 DUP4 GT PUSH2 0x11E6 JUMPI DUP3 SWAP1 SUB PUSH1 0x1F AND DUP3 ADD SWAP2 JUMPDEST POP POP POP POP POP DUP2 MSTORE PUSH1 0x20 ADD SWAP1 PUSH1 0x1 ADD SWAP1 PUSH2 0x116B JUMP JUMPDEST POP POP POP POP DUP2 MSTORE PUSH1 0x20 ADD PUSH1 0x3 DUP3 ADD DUP1 SLOAD DUP1 PUSH1 0x20 MUL PUSH1 0x20 ADD PUSH1 0x40 MLOAD SWAP1 DUP2 ADD PUSH1 0x40 MSTORE DUP1 SWAP3 SWAP2 SWAP1 DUP2 DUP2 MSTORE PUSH1 0x20 ADD PUSH1 0x0 SWAP1 JUMPDEST DUP3 DUP3 LT ISZERO PUSH2 0x12F0 JUMPI DUP4 DUP3 SWAP1 PUSH1 0x0 MSTORE PUSH1 0x20 PUSH1 0x0 KECCAK256 ADD DUP1 SLOAD PUSH2 0x1263 SWAP1 PUSH2 0x29BF JUMP JUMPDEST DUP1 PUSH1 0x1F ADD PUSH1 0x20 DUP1 SWAP2 DIV MUL PUSH1 0x20 ADD PUSH1 0x40 MLOAD SWAP1 DUP2 ADD PUSH1 0x40 MSTORE DUP1 SWAP3 SWAP2 SWAP1 DUP2 DUP2 MSTORE PUSH1 0x20 ADD DUP3 DUP1 SLOAD PUSH2 0x128F SWAP1 PUSH2 0x29BF JUMP JUMPDEST DUP1 ISZERO PUSH2 0x12DC JUMPI DUP1 PUSH1 0x1F LT PUSH2 0x12B1 JUMPI PUSH2 0x100 DUP1 DUP4 SLOAD DIV MUL DUP4 MSTORE SWAP2 PUSH1 0x20 ADD SWAP2 PUSH2 0x12DC JUMP JUMPDEST DUP3 ADD SWAP2 SWAP1 PUSH1 0x0 MSTORE PUSH1 0x20 PUSH1 0x0 KECCAK256 SWAP1 JUMPDEST DUP2 SLOAD DUP2 MSTORE SWAP1 PUSH1 0x1 ADD SWAP1 PUSH1 0x20 ADD DUP1 DUP4 GT PUSH2 0x12BF JUMPI DUP3 SWAP1 SUB PUSH1 0x1F AND DUP3 ADD SWAP2 JUMPDEST POP POP POP POP POP DUP2 MSTORE PUSH1 0x20 ADD SWAP1 PUSH1 0x1 ADD SWAP1 PUSH2 0x1244 JUMP JUMPDEST POP POP POP POP DUP2 MSTORE PUSH1 0x20 ADD PUSH1 0x4 DUP3 ADD SLOAD DUP2 MSTORE PUSH1 0x20 ADD PUSH1 0x5 DUP3 ADD SLOAD DUP2 MSTORE PUSH1 0x20 ADD PUSH1 0x6 DUP3 ADD SLOAD DUP2 MSTORE POP POP SWAP1 POP SWAP3 SWAP2 POP POP JUMP JUMPDEST PUSH1 0x60 PUSH1 0x0 JUMPDEST PUSH1 0x2 DUP5 DUP2 SLOAD DUP2 LT PUSH2 0x1337 JUMPI PUSH2 0x1336 PUSH2 0x2961 JUMP JUMPDEST JUMPDEST SWAP1 PUSH1 0x0 MSTORE PUSH1 0x20 PUSH1 0x0 KECCAK256 ADD DUP4 DUP2 SLOAD DUP2 LT PUSH2 0x1353 JUMPI PUSH2 0x1352 PUSH2 0x2961 JUMP JUMPDEST JUMPDEST SWAP1 PUSH1 0x0 MSTORE PUSH1 0x20 PUSH1 0x0 KECCAK256 SWAP1 PUSH1 0x7 MUL ADD PUSH1 0x3 ADD DUP1 SLOAD SWAP1 POP DUP2 LT ISZERO PUSH2 0x1402 JUMPI PUSH1 0x2 DUP5 DUP2 SLOAD DUP2 LT PUSH2 0x1383 JUMPI PUSH2 0x1382 PUSH2 0x2961 JUMP JUMPDEST JUMPDEST SWAP1 PUSH1 0x0 MSTORE PUSH1 0x20 PUSH1 0x0 KECCAK256 ADD DUP4 DUP2 SLOAD DUP2 LT PUSH2 0x139F JUMPI PUSH2 0x139E PUSH2 0x2961 JUMP JUMPDEST JUMPDEST SWAP1 PUSH1 0x0 MSTORE PUSH1 0x20 PUSH1 0x0 KECCAK256 SWAP1 PUSH1 0x7 MUL ADD PUSH1 0x3 ADD DUP2 DUP2 SLOAD DUP2 LT PUSH2 0x13C2 JUMPI PUSH2 0x13C1 PUSH2 0x2961 JUMP JUMPDEST JUMPDEST SWAP1 PUSH1 0x0 MSTORE PUSH1 0x20 PUSH1 0x0 KECCAK256 ADD DUP3 PUSH1 0x40 MLOAD PUSH1 0x20 ADD PUSH2 0x13DE SWAP3 SWAP2 SWAP1 PUSH2 0x3159 JUMP JUMPDEST PUSH1 0x40 MLOAD PUSH1 0x20 DUP2 DUP4 SUB SUB DUP2 MSTORE SWAP1 PUSH1 0x40 MSTORE SWAP2 POP DUP1 DUP1 PUSH2 0x13FA SWAP1 PUSH2 0x2D75 JUMP JUMPDEST SWAP2 POP POP PUSH2 0x1323 JUMP JUMPDEST POP SWAP3 SWAP2 POP POP JUMP JUMPDEST PUSH1 0x0 DUP1 PUSH1 0x0 SWAP1 SLOAD SWAP1 PUSH2 0x100 EXP SWAP1 DIV PUSH20 0xFFFFFFFFFFFFFFFFFFFFFFFFFFFFFFFFFFFFFFFF AND SWAP1 POP SWAP1 JUMP JUMPDEST PUSH1 0x0 DUP1 SLOAD SWAP1 PUSH2 0x100 EXP SWAP1 DIV PUSH20 0xFFFFFFFFFFFFFFFFFFFFFFFFFFFFFFFFFFFFFFFF AND PUSH20 0xFFFFFFFFFFFFFFFFFFFFFFFFFFFFFFFFFFFFFFFF AND CALLER PUSH20 0xFFFFFFFFFFFFFFFFFFFFFFFFFFFFFFFFFFFFFFFF AND EQ PUSH2 0x14C0 JUMPI PUSH1 0x40 MLOAD PUSH32 0x8C379A000000000000000000000000000000000000000000000000000000000 DUP2 MSTORE PUSH1 0x4 ADD PUSH2 0x14B7 SWAP1 PUSH2 0x31D8 JUMP JUMPDEST PUSH1 0x40 MLOAD DUP1 SWAP2 SUB SWAP1 REVERT JUMPDEST DUP1 PUSH20 0xFFFFFFFFFFFFFFFFFFFFFFFFFFFFFFFFFFFFFFFF AND PUSH1 0x0 DUP1 SLOAD SWAP1 PUSH2 0x100 EXP SWAP1 DIV PUSH20 0xFFFFFFFFFFFFFFFFFFFFFFFFFFFFFFFFFFFFFFFF AND PUSH20 0xFFFFFFFFFFFFFFFFFFFFFFFFFFFFFFFFFFFFFFFF AND PUSH32 0x342827C97908E5E2F71151C08502A66D44B6F758E3AC2F1DE95F02EB95F0A735 PUSH1 0x40 MLOAD PUSH1 0x40 MLOAD DUP1 SWAP2 SUB SWAP1 LOG3 DUP1 PUSH1 0x0 DUP1 PUSH2 0x100 EXP DUP2 SLOAD DUP2 PUSH20 0xFFFFFFFFFFFFFFFFFFFFFFFFFFFFFFFFFFFFFFFF MUL NOT AND SWAP1 DUP4 PUSH20 0xFFFFFFFFFFFFFFFFFFFFFFFFFFFFFFFFFFFFFFFF AND MUL OR SWAP1 SSTORE POP POP JUMP JUMPDEST PUSH1 0x0 PUSH1 0x40 MLOAD DUP1 PUSH1 0xE0 ADD PUSH1 0x40 MSTORE DUP1 PUSH1 0x2 DUP8 DUP2 SLOAD DUP2 LT PUSH2 0x159E JUMPI PUSH2 0x159D PUSH2 0x2961 JUMP JUMPDEST JUMPDEST SWAP1 PUSH1 0x0 MSTORE PUSH1 0x20 PUSH1 0x0 KECCAK256 ADD DUP6 DUP2 SLOAD DUP2 LT PUSH2 0x15BA JUMPI PUSH2 0x15B9 PUSH2 0x2961 JUMP JUMPDEST JUMPDEST SWAP1 PUSH1 0x0 MSTORE PUSH1 0x20 PUSH1 0x0 KECCAK256 SWAP1 PUSH1 0x7 MUL ADD PUSH1 0x0 ADD DUP1 SLOAD PUSH2 0x15D6 SWAP1 PUSH2 0x29BF JUMP JUMPDEST DUP1 PUSH1 0x1F ADD PUSH1 0x20 DUP1 SWAP2 DIV MUL PUSH1 0x20 ADD PUSH1 0x40 MLOAD SWAP1 DUP2 ADD PUSH1 0x40 MSTORE DUP1 SWAP3 SWAP2 SWAP1 DUP2 DUP2 MSTORE PUSH1 0x20 ADD DUP3 DUP1 SLOAD PUSH2 0x1602 SWAP1 PUSH2 0x29BF JUMP JUMPDEST DUP1 ISZERO PUSH2 0x164F JUMPI DUP1 PUSH1 0x1F LT PUSH2 0x1624 JUMPI PUSH2 0x100 DUP1 DUP4 SLOAD DIV MUL DUP4 MSTORE SWAP2 PUSH1 0x20 ADD SWAP2 PUSH2 0x164F JUMP JUMPDEST DUP3 ADD SWAP2 SWAP1 PUSH1 0x0 MSTORE PUSH1 0x20 PUSH1 0x0 KECCAK256 SWAP1 JUMPDEST DUP2 SLOAD DUP2 MSTORE SWAP1 PUSH1 0x1 ADD SWAP1 PUSH1 0x20 ADD DUP1 DUP4 GT PUSH2 0x1632 JUMPI DUP3 SWAP1 SUB PUSH1 0x1F AND DUP3 ADD SWAP2 JUMPDEST POP POP POP POP POP DUP2 MSTORE PUSH1 0x20 ADD PUSH1 0x2 DUP8 DUP2 SLOAD DUP2 LT PUSH2 0x166D JUMPI PUSH2 0x166C PUSH2 0x2961 JUMP JUMPDEST JUMPDEST SWAP1 PUSH1 0x0 MSTORE PUSH1 0x20 PUSH1 0x0 KECCAK256 ADD DUP6 DUP2 SLOAD DUP2 LT PUSH2 0x1689 JUMPI PUSH2 0x1688 PUSH2 0x2961 JUMP JUMPDEST JUMPDEST SWAP1 PUSH1 0x0 MSTORE PUSH1 0x20 PUSH1 0x0 KECCAK256 SWAP1 PUSH1 0x7 MUL ADD PUSH1 0x1 ADD DUP1 SLOAD PUSH2 0x16A5 SWAP1 PUSH2 0x29BF JUMP JUMPDEST DUP1 PUSH1 0x1F ADD PUSH1 0x20 DUP1 SWAP2 DIV MUL PUSH1 0x20 ADD PUSH1 0x40 MLOAD SWAP1 DUP2 ADD PUSH1 0x40 MSTORE DUP1 SWAP3 SWAP2 SWAP1 DUP2 DUP2 MSTORE PUSH1 0x20 ADD DUP3 DUP1 SLOAD PUSH2 0x16D1 SWAP1 PUSH2 0x29BF JUMP JUMPDEST DUP1 ISZERO PUSH2 0x171E JUMPI DUP1 PUSH1 0x1F LT PUSH2 0x16F3 JUMPI PUSH2 0x100 DUP1 DUP4 SLOAD DIV MUL DUP4 MSTORE SWAP2 PUSH1 0x20 ADD SWAP2 PUSH2 0x171E JUMP JUMPDEST DUP3 ADD SWAP2 SWAP1 PUSH1 0x0 MSTORE PUSH1 0x20 PUSH1 0x0 KECCAK256 SWAP1 JUMPDEST DUP2 SLOAD DUP2 MSTORE SWAP1 PUSH1 0x1 ADD SWAP1 PUSH1 0x20 ADD DUP1 DUP4 GT PUSH2 0x1701 JUMPI DUP3 SWAP1 SUB PUSH1 0x1F AND DUP3 ADD SWAP2 JUMPDEST POP POP POP POP POP DUP2 MSTORE PUSH1 0x20 ADD PUSH1 0x2 DUP8 DUP2 SLOAD DUP2 LT PUSH2 0x173C JUMPI PUSH2 0x173B PUSH2 0x2961 JUMP JUMPDEST JUMPDEST SWAP1 PUSH1 0x0 MSTORE PUSH1 0x20 PUSH1 0x0 KECCAK256 ADD DUP6 DUP2 SLOAD DUP2 LT PUSH2 0x1758 JUMPI PUSH2 0x1757 PUSH2 0x2961 JUMP JUMPDEST JUMPDEST SWAP1 PUSH1 0x0 MSTORE PUSH1 0x20 PUSH1 0x0 KECCAK256 SWAP1 PUSH1 0x7 MUL ADD PUSH1 0x2 ADD DUP1 SLOAD DUP1 PUSH1 0x20 MUL PUSH1 0x20 ADD PUSH1 0x40 MLOAD SWAP1 DUP2 ADD PUSH1 0x40 MSTORE DUP1 SWAP3 SWAP2 SWAP1 DUP2 DUP2 MSTORE PUSH1 0x20 ADD PUSH1 0x0 SWAP1 JUMPDEST DUP3 DUP3 LT ISZERO PUSH2 0x1835 JUMPI DUP4 DUP3 SWAP1 PUSH1 0x0 MSTORE PUSH1 0x20 PUSH1 0x0 KECCAK256 ADD DUP1 SLOAD PUSH2 0x17A8 SWAP1 PUSH2 0x29BF JUMP JUMPDEST DUP1 PUSH1 0x1F ADD PUSH1 0x20 DUP1 SWAP2 DIV MUL PUSH1 0x20 ADD PUSH1 0x40 MLOAD SWAP1 DUP2 ADD PUSH1 0x40 MSTORE DUP1 SWAP3 SWAP2 SWAP1 DUP2 DUP2 MSTORE PUSH1 0x20 ADD DUP3 DUP1 SLOAD PUSH2 0x17D4 SWAP1 PUSH2 0x29BF JUMP JUMPDEST DUP1 ISZERO PUSH2 0x1821 JUMPI DUP1 PUSH1 0x1F LT PUSH2 0x17F6 JUMPI PUSH2 0x100 DUP1 DUP4 SLOAD DIV MUL DUP4 MSTORE SWAP2 PUSH1 0x20 ADD SWAP2 PUSH2 0x1821 JUMP JUMPDEST DUP3 ADD SWAP2 SWAP1 PUSH1 0x0 MSTORE PUSH1 0x20 PUSH1 0x0 KECCAK256 SWAP1 JUMPDEST DUP2 SLOAD DUP2 MSTORE SWAP1 PUSH1 0x1 ADD SWAP1 PUSH1 0x20 ADD DUP1 DUP4 GT PUSH2 0x1804 JUMPI DUP3 SWAP1 SUB PUSH1 0x1F AND DUP3 ADD SWAP2 JUMPDEST POP POP POP POP POP DUP2 MSTORE PUSH1 0x20 ADD SWAP1 PUSH1 0x1 ADD SWAP1 PUSH2 0x1789 JUMP JUMPDEST POP POP POP POP DUP2 MSTORE PUSH1 0x20 ADD PUSH1 0x2 DUP8 DUP2 SLOAD DUP2 LT PUSH2 0x1852 JUMPI PUSH2 0x1851 PUSH2 0x2961 JUMP JUMPDEST JUMPDEST SWAP1 PUSH1 0x0 MSTORE PUSH1 0x20 PUSH1 0x0 KECCAK256 ADD DUP6 DUP2 SLOAD DUP2 LT PUSH2 0x186E JUMPI PUSH2 0x186D PUSH2 0x2961 JUMP JUMPDEST JUMPDEST SWAP1 PUSH1 0x0 MSTORE PUSH1 0x20 PUSH1 0x0 KECCAK256 SWAP1 PUSH1 0x7 MUL ADD PUSH1 0x3 ADD DUP1 SLOAD DUP1 PUSH1 0x20 MUL PUSH1 0x20 ADD PUSH1 0x40 MLOAD SWAP1 DUP2 ADD PUSH1 0x40 MSTORE DUP1 SWAP3 SWAP2 SWAP1 DUP2 DUP2 MSTORE PUSH1 0x20 ADD PUSH1 0x0 SWAP1 JUMPDEST DUP3 DUP3 LT ISZERO PUSH2 0x194B JUMPI DUP4 DUP3 SWAP1 PUSH1 0x0 MSTORE PUSH1 0x20 PUSH1 0x0 KECCAK256 ADD DUP1 SLOAD PUSH2 0x18BE SWAP1 PUSH2 0x29BF JUMP JUMPDEST DUP1 PUSH1 0x1F ADD PUSH1 0x20 DUP1 SWAP2 DIV MUL PUSH1 0x20 ADD PUSH1 0x40 MLOAD SWAP1 DUP2 ADD PUSH1 0x40 MSTORE DUP1 SWAP3 SWAP2 SWAP1 DUP2 DUP2 MSTORE PUSH1 0x20 ADD DUP3 DUP1 SLOAD PUSH2 0x18EA SWAP1 PUSH2 0x29BF JUMP JUMPDEST DUP1 ISZERO PUSH2 0x1937 JUMPI DUP1 PUSH1 0x1F LT PUSH2 0x190C JUMPI PUSH2 0x100 DUP1 DUP4 SLOAD DIV MUL DUP4 MSTORE SWAP2 PUSH1 0x20 ADD SWAP2 PUSH2 0x1937 JUMP JUMPDEST DUP3 ADD SWAP2 SWAP1 PUSH1 0x0 MSTORE PUSH1 0x20 PUSH1 0x0 KECCAK256 SWAP1 JUMPDEST DUP2 SLOAD DUP2 MSTORE SWAP1 PUSH1 0x1 ADD SWAP1 PUSH1 0x20 ADD DUP1 DUP4 GT PUSH2 0x191A JUMPI DUP3 SWAP1 SUB PUSH1 0x1F AND DUP3 ADD SWAP2 JUMPDEST POP POP POP POP POP DUP2 MSTORE PUSH1 0x20 ADD SWAP1 PUSH1 0x1 ADD SWAP1 PUSH2 0x189F JUMP JUMPDEST POP POP POP POP DUP2 MSTORE PUSH1 0x20 ADD PUSH1 0x0 DUP2 MSTORE PUSH1 0x20 ADD PUSH1 0x0 DUP2 MSTORE PUSH1 0x20 ADD TIMESTAMP DUP2 MSTORE POP SWAP1 POP DUP2 DUP2 PUSH1 0x40 ADD MLOAD DUP6 DUP2 MLOAD DUP2 LT PUSH2 0x1980 JUMPI PUSH2 0x197F PUSH2 0x2961 JUMP JUMPDEST JUMPDEST PUSH1 0x20 MUL PUSH1 0x20 ADD ADD DUP2 SWAP1 MSTORE POP PUSH1 0x2 DUP6 DUP2 SLOAD DUP2 LT PUSH2 0x199F JUMPI PUSH2 0x199E PUSH2 0x2961 JUMP JUMPDEST JUMPDEST SWAP1 PUSH1 0x0 MSTORE PUSH1 0x20 PUSH1 0x0 KECCAK256 ADD DUP2 SWAP1 DUP1 PUSH1 0x1 DUP2 SLOAD ADD DUP1 DUP3 SSTORE DUP1 SWAP2 POP POP PUSH1 0x1 SWAP1 SUB SWAP1 PUSH1 0x0 MSTORE PUSH1 0x20 PUSH1 0x0 KECCAK256 SWAP1 PUSH1 0x7 MUL ADD PUSH1 0x0 SWAP1 SWAP2 SWAP1 SWAP2 SWAP1 SWAP2 POP PUSH1 0x0 DUP3 ADD MLOAD DUP2 PUSH1 0x0 ADD SWAP1 DUP2 PUSH2 0x19E8 SWAP2 SWAP1 PUSH2 0x2B9C JUMP JUMPDEST POP PUSH1 0x20 DUP3 ADD MLOAD DUP2 PUSH1 0x1 ADD SWAP1 DUP2 PUSH2 0x19FE SWAP2 SWAP1 PUSH2 0x2B9C JUMP JUMPDEST POP PUSH1 0x40 DUP3 ADD MLOAD DUP2 PUSH1 0x2 ADD SWAP1 DUP1 MLOAD SWAP1 PUSH1 0x20 ADD SWAP1 PUSH2 0x1A1B SWAP3 SWAP2 SWAP1 PUSH2 0x1F4C JUMP JUMPDEST POP PUSH1 0x60 DUP3 ADD MLOAD DUP2 PUSH1 0x3 ADD SWAP1 DUP1 MLOAD SWAP1 PUSH1 0x20 ADD SWAP1 PUSH2 0x1A38 SWAP3 SWAP2 SWAP1 PUSH2 0x1F4C JUMP JUMPDEST POP PUSH1 0x80 DUP3 ADD MLOAD DUP2 PUSH1 0x4 ADD SSTORE PUSH1 0xA0 DUP3 ADD MLOAD DUP2 PUSH1 0x5 ADD SSTORE PUSH1 0xC0 DUP3 ADD MLOAD DUP2 PUSH1 0x6 ADD SSTORE POP POP POP POP POP POP POP JUMP JUMPDEST PUSH1 0x0 DUP1 PUSH1 0x0 SWAP1 POP PUSH1 0x0 JUMPDEST PUSH1 0x2 DUP5 DUP2 SLOAD DUP2 LT PUSH2 0x1A7E JUMPI PUSH2 0x1A7D PUSH2 0x2961 JUMP JUMPDEST JUMPDEST SWAP1 PUSH1 0x0 MSTORE PUSH1 0x20 PUSH1 0x0 KECCAK256 ADD DUP1 SLOAD SWAP1 POP DUP2 LT ISZERO PUSH2 0x1B5E JUMPI PUSH1 0x0 DUP1 PUSH2 0x1B2F PUSH2 0x2710 PUSH1 0x2 DUP9 DUP2 SLOAD DUP2 LT PUSH2 0x1AB0 JUMPI PUSH2 0x1AAF PUSH2 0x2961 JUMP JUMPDEST JUMPDEST SWAP1 PUSH1 0x0 MSTORE PUSH1 0x20 PUSH1 0x0 KECCAK256 ADD DUP6 DUP2 SLOAD DUP2 LT PUSH2 0x1ACC JUMPI PUSH2 0x1ACB PUSH2 0x2961 JUMP JUMPDEST JUMPDEST SWAP1 PUSH1 0x0 MSTORE PUSH1 0x20 PUSH1 0x0 KECCAK256 SWAP1 PUSH1 0x7 MUL ADD PUSH1 0x4 ADD SLOAD PUSH2 0x1AE8 SWAP2 SWAP1 PUSH2 0x31F8 JUMP JUMPDEST PUSH1 0x2 DUP9 DUP2 SLOAD DUP2 LT PUSH2 0x1AFC JUMPI PUSH2 0x1AFB PUSH2 0x2961 JUMP JUMPDEST JUMPDEST SWAP1 PUSH1 0x0 MSTORE PUSH1 0x20 PUSH1 0x0 KECCAK256 ADD DUP6 DUP2 SLOAD DUP2 LT PUSH2 0x1B18 JUMPI PUSH2 0x1B17 PUSH2 0x2961 JUMP JUMPDEST JUMPDEST SWAP1 PUSH1 0x0 MSTORE PUSH1 0x20 PUSH1 0x0 KECCAK256 SWAP1 PUSH1 0x7 MUL ADD PUSH1 0x5 ADD SLOAD PUSH2 0x1D7E JUMP JUMPDEST SWAP2 POP SWAP2 POP DUP2 DUP1 ISZERO PUSH2 0x1B40 JUMPI POP DUP4 DUP2 SLT ISZERO JUMPDEST ISZERO PUSH2 0x1B49 JUMPI DUP3 SWAP5 POP JUMPDEST POP POP DUP1 DUP1 PUSH2 0x1B56 SWAP1 PUSH2 0x2D75 JUMP JUMPDEST SWAP2 POP POP PUSH2 0x1A6A JUMP JUMPDEST POP POP SWAP2 SWAP1 POP JUMP JUMPDEST PUSH1 0x60 PUSH1 0x0 PUSH2 0x1B72 DUP4 PUSH2 0x1A60 JUMP JUMPDEST SWAP1 POP PUSH2 0x1B7E DUP4 DUP3 PUSH2 0xE2B JUMP JUMPDEST SWAP2 POP POP SWAP2 SWAP1 POP JUMP JUMPDEST PUSH2 0x1C1E DUP3 DUP3 PUSH1 0x40 MLOAD PUSH1 0x24 ADD PUSH2 0x1B9C SWAP3 SWAP2 SWAP1 PUSH2 0x3270 JUMP JUMPDEST PUSH1 0x40 MLOAD PUSH1 0x20 DUP2 DUP4 SUB SUB DUP2 MSTORE SWAP1 PUSH1 0x40 MSTORE PUSH32 0x319AF33300000000000000000000000000000000000000000000000000000000 PUSH28 0xFFFFFFFFFFFFFFFFFFFFFFFFFFFFFFFFFFFFFFFFFFFFFFFFFFFFFFFF NOT AND PUSH1 0x20 DUP3 ADD DUP1 MLOAD PUSH28 0xFFFFFFFFFFFFFFFFFFFFFFFFFFFFFFFFFFFFFFFFFFFFFFFFFFFFFFFF DUP4 DUP2 DUP4 AND OR DUP4 MSTORE POP POP POP POP PUSH2 0x1DB4 JUMP JUMPDEST POP POP JUMP JUMPDEST PUSH1 0x60 PUSH1 0x0 PUSH1 0x1 PUSH2 0x1C31 DUP5 PUSH2 0x1DDD JUMP JUMPDEST ADD SWAP1 POP PUSH1 0x0 DUP2 PUSH8 0xFFFFFFFFFFFFFFFF DUP2 GT ISZERO PUSH2 0x1C50 JUMPI PUSH2 0x1C4F PUSH2 0x20C8 JUMP JUMPDEST JUMPDEST PUSH1 0x40 MLOAD SWAP1 DUP1 DUP3 MSTORE DUP1 PUSH1 0x1F ADD PUSH1 0x1F NOT AND PUSH1 0x20 ADD DUP3 ADD PUSH1 0x40 MSTORE DUP1 ISZERO PUSH2 0x1C82 JUMPI DUP2 PUSH1 0x20 ADD PUSH1 0x1 DUP3 MUL DUP1 CALLDATASIZE DUP4 CALLDATACOPY DUP1 DUP3 ADD SWAP2 POP POP SWAP1 POP JUMPDEST POP SWAP1 POP PUSH1 0x0 DUP3 PUSH1 0x20 ADD DUP3 ADD SWAP1 POP JUMPDEST PUSH1 0x1 ISZERO PUSH2 0x1CE5 JUMPI DUP1 DUP1 PUSH1 0x1 SWAP1 SUB SWAP2 POP POP PUSH32 0x3031323334353637383961626364656600000000000000000000000000000000 PUSH1 0xA DUP7 MOD BYTE DUP2 MSTORE8 PUSH1 0xA DUP6 DUP2 PUSH2 0x1CD9 JUMPI PUSH2 0x1CD8 PUSH2 0x32A0 JUMP JUMPDEST JUMPDEST DIV SWAP5 POP PUSH1 0x0 DUP6 SUB PUSH2 0x1C90 JUMPI JUMPDEST DUP2 SWAP4 POP POP POP POP SWAP2 SWAP1 POP JUMP JUMPDEST PUSH1 0x60 PUSH1 0x0 DUP3 SLT PUSH2 0x1D0F JUMPI PUSH1 0x40 MLOAD DUP1 PUSH1 0x20 ADD PUSH1 0x40 MSTORE DUP1 PUSH1 0x0 DUP2 MSTORE POP PUSH2 0x1D46 JUMP JUMPDEST PUSH1 0x40 MLOAD DUP1 PUSH1 0x40 ADD PUSH1 0x40 MSTORE DUP1 PUSH1 0x1 DUP2 MSTORE PUSH1 0x20 ADD PUSH32 0x2D00000000000000000000000000000000000000000000000000000000000000 DUP2 MSTORE POP JUMPDEST PUSH2 0x1D57 PUSH2 0x1D52 DUP5 PUSH2 0x1F30 JUMP JUMPDEST PUSH2 0x1C22 JUMP JUMPDEST PUSH1 0x40 MLOAD PUSH1 0x20 ADD PUSH2 0x1D68 SWAP3 SWAP2 SWAP1 PUSH2 0x32CF JUMP JUMPDEST PUSH1 0x40 MLOAD PUSH1 0x20 DUP2 DUP4 SUB SUB DUP2 MSTORE SWAP1 PUSH1 0x40 MSTORE SWAP1 POP SWAP2 SWAP1 POP JUMP JUMPDEST PUSH1 0x0 DUP1 PUSH1 0x0 DUP4 SUB PUSH2 0x1D95 JUMPI PUSH1 0x0 DUP1 SWAP2 POP SWAP2 POP PUSH2 0x1DAD JUMP JUMPDEST PUSH1 0x1 DUP4 DUP6 DUP2 PUSH2 0x1DA7 JUMPI PUSH2 0x1DA6 PUSH2 0x32A0 JUMP JUMPDEST JUMPDEST SDIV SWAP2 POP SWAP2 POP JUMPDEST SWAP3 POP SWAP3 SWAP1 POP JUMP JUMPDEST PUSH1 0x0 DUP2 MLOAD SWAP1 POP PUSH1 0x0 PUSH11 0x636F6E736F6C652E6C6F67 SWAP1 POP PUSH1 0x20 DUP4 ADD PUSH1 0x0 DUP1 DUP5 DUP4 DUP6 GAS STATICCALL POP POP POP POP POP JUMP JUMPDEST PUSH1 0x0 DUP1 PUSH1 0x0 SWAP1 POP PUSH27 0x184F03E93FF9F4DAA797ED6E38ED64BF6A1F010000000000000000 DUP4 LT PUSH2 0x1E3B JUMPI PUSH27 0x184F03E93FF9F4DAA797ED6E38ED64BF6A1F010000000000000000 DUP4 DUP2 PUSH2 0x1E31 JUMPI PUSH2 0x1E30 PUSH2 0x32A0 JUMP JUMPDEST JUMPDEST DIV SWAP3 POP PUSH1 0x40 DUP2 ADD SWAP1 POP JUMPDEST PUSH14 0x4EE2D6D415B85ACEF8100000000 DUP4 LT PUSH2 0x1E78 JUMPI PUSH14 0x4EE2D6D415B85ACEF8100000000 DUP4 DUP2 PUSH2 0x1E6E JUMPI PUSH2 0x1E6D PUSH2 0x32A0 JUMP JUMPDEST JUMPDEST DIV SWAP3 POP PUSH1 0x20 DUP2 ADD SWAP1 POP JUMPDEST PUSH7 0x2386F26FC10000 DUP4 LT PUSH2 0x1EA7 JUMPI PUSH7 0x2386F26FC10000 DUP4 DUP2 PUSH2 0x1E9D JUMPI PUSH2 0x1E9C PUSH2 0x32A0 JUMP JUMPDEST JUMPDEST DIV SWAP3 POP PUSH1 0x10 DUP2 ADD SWAP1 POP JUMPDEST PUSH4 0x5F5E100 DUP4 LT PUSH2 0x1ED0 JUMPI PUSH4 0x5F5E100 DUP4 DUP2 PUSH2 0x1EC6 JUMPI PUSH2 0x1EC5 PUSH2 0x32A0 JUMP JUMPDEST JUMPDEST DIV SWAP3 POP PUSH1 0x8 DUP2 ADD SWAP1 POP JUMPDEST PUSH2 0x2710 DUP4 LT PUSH2 0x1EF5 JUMPI PUSH2 0x2710 DUP4 DUP2 PUSH2 0x1EEB JUMPI PUSH2 0x1EEA PUSH2 0x32A0 JUMP JUMPDEST JUMPDEST DIV SWAP3 POP PUSH1 0x4 DUP2 ADD SWAP1 POP JUMPDEST PUSH1 0x64 DUP4 LT PUSH2 0x1F18 JUMPI PUSH1 0x64 DUP4 DUP2 PUSH2 0x1F0E JUMPI PUSH2 0x1F0D PUSH2 0x32A0 JUMP JUMPDEST JUMPDEST DIV SWAP3 POP PUSH1 0x2 DUP2 ADD SWAP1 POP JUMPDEST PUSH1 0xA DUP4 LT PUSH2 0x1F27 JUMPI PUSH1 0x1 DUP2 ADD SWAP1 POP JUMPDEST DUP1 SWAP2 POP POP SWAP2 SWAP1 POP JUMP JUMPDEST PUSH1 0x0 DUP1 DUP3 SLT ISZERO PUSH2 0x1F43 JUMPI DUP2 PUSH1 0x0 SUB PUSH2 0x1F45 JUMP JUMPDEST DUP2 JUMPDEST SWAP1 POP SWAP2 SWAP1 POP JUMP JUMPDEST DUP3 DUP1 SLOAD DUP3 DUP3 SSTORE SWAP1 PUSH1 0x0 MSTORE PUSH1 0x20 PUSH1 0x0 KECCAK256 SWAP1 DUP2 ADD SWAP3 DUP3 ISZERO PUSH2 0x1F94 JUMPI SWAP2 PUSH1 0x20 MUL DUP3 ADD JUMPDEST DUP3 DUP2 GT ISZERO PUSH2 0x1F93 JUMPI DUP3 MLOAD DUP3 SWAP1 DUP2 PUSH2 0x1F83 SWAP2 SWAP1 PUSH2 0x2B9C JUMP JUMPDEST POP SWAP2 PUSH1 0x20 ADD SWAP2 SWAP1 PUSH1 0x1 ADD SWAP1 PUSH2 0x1F6C JUMP JUMPDEST JUMPDEST POP SWAP1 POP PUSH2 0x1FA1 SWAP2 SWAP1 PUSH2 0x1FE2 JUMP JUMPDEST POP SWAP1 JUMP JUMPDEST PUSH1 0x40 MLOAD DUP1 PUSH1 0xE0 ADD PUSH1 0x40 MSTORE DUP1 PUSH1 0x60 DUP2 MSTORE PUSH1 0x20 ADD PUSH1 0x60 DUP2 MSTORE PUSH1 0x20 ADD PUSH1 0x60 DUP2 MSTORE PUSH1 0x20 ADD PUSH1 0x60 DUP2 MSTORE PUSH1 0x20 ADD PUSH1 0x0 DUP2 MSTORE PUSH1 0x20 ADD PUSH1 0x0 DUP2 MSTORE PUSH1 0x20 ADD PUSH1 0x0 DUP2 MSTORE POP SWAP1 JUMP JUMPDEST JUMPDEST DUP1 DUP3 GT ISZERO PUSH2 0x2002 JUMPI PUSH1 0x0 DUP2 DUP2 PUSH2 0x1FF9 SWAP2 SWAP1 PUSH2 0x2006 JUMP JUMPDEST POP PUSH1 0x1 ADD PUSH2 0x1FE3 JUMP JUMPDEST POP SWAP1 JUMP JUMPDEST POP DUP1 SLOAD PUSH2 0x2012 SWAP1 PUSH2 0x29BF JUMP JUMPDEST PUSH1 0x0 DUP3 SSTORE DUP1 PUSH1 0x1F LT PUSH2 0x2024 JUMPI POP PUSH2 0x2043 JUMP JUMPDEST PUSH1 0x1F ADD PUSH1 0x20 SWAP1 DIV SWAP1 PUSH1 0x0 MSTORE PUSH1 0x20 PUSH1 0x0 KECCAK256 SWAP1 DUP2 ADD SWAP1 PUSH2 0x2042 SWAP2 SWAP1 PUSH2 0x2046 JUMP JUMPDEST JUMPDEST POP JUMP JUMPDEST JUMPDEST DUP1 DUP3 GT ISZERO PUSH2 0x205F JUMPI PUSH1 0x0 DUP2 PUSH1 0x0 SWAP1 SSTORE POP PUSH1 0x1 ADD PUSH2 0x2047 JUMP JUMPDEST POP SWAP1 JUMP JUMPDEST PUSH1 0x0 PUSH1 0x40 MLOAD SWAP1 POP SWAP1 JUMP JUMPDEST PUSH1 0x0 DUP1 REVERT JUMPDEST PUSH1 0x0 DUP1 REVERT JUMPDEST PUSH1 0x0 DUP2 SWAP1 POP SWAP2 SWAP1 POP JUMP JUMPDEST PUSH2 0x208A DUP2 PUSH2 0x2077 JUMP JUMPDEST DUP2 EQ PUSH2 0x2095 JUMPI PUSH1 0x0 DUP1 REVERT JUMPDEST POP JUMP JUMPDEST PUSH1 0x0 DUP2 CALLDATALOAD SWAP1 POP PUSH2 0x20A7 DUP2 PUSH2 0x2081 JUMP JUMPDEST SWAP3 SWAP2 POP POP JUMP JUMPDEST PUSH1 0x0 DUP1 REVERT JUMPDEST PUSH1 0x0 DUP1 REVERT JUMPDEST PUSH1 0x0 PUSH1 0x1F NOT PUSH1 0x1F DUP4 ADD AND SWAP1 POP SWAP2 SWAP1 POP JUMP JUMPDEST PUSH32 0x4E487B7100000000000000000000000000000000000000000000000000000000 PUSH1 0x0 MSTORE PUSH1 0x41 PUSH1 0x4 MSTORE PUSH1 0x24 PUSH1 0x0 REVERT JUMPDEST PUSH2 0x2100 DUP3 PUSH2 0x20B7 JUMP JUMPDEST DUP2 ADD DUP2 DUP2 LT PUSH8 0xFFFFFFFFFFFFFFFF DUP3 GT OR ISZERO PUSH2 0x211F JUMPI PUSH2 0x211E PUSH2 0x20C8 JUMP JUMPDEST JUMPDEST DUP1 PUSH1 0x40 MSTORE POP POP POP JUMP JUMPDEST PUSH1 0x0 PUSH2 0x2132 PUSH2 0x2063 JUMP JUMPDEST SWAP1 POP PUSH2 0x213E DUP3 DUP3 PUSH2 0x20F7 JUMP JUMPDEST SWAP2 SWAP1 POP JUMP JUMPDEST PUSH1 0x0 PUSH8 0xFFFFFFFFFFFFFFFF DUP3 GT ISZERO PUSH2 0x215E JUMPI PUSH2 0x215D PUSH2 0x20C8 JUMP JUMPDEST JUMPDEST PUSH2 0x2167 DUP3 PUSH2 0x20B7 JUMP JUMPDEST SWAP1 POP PUSH1 0x20 DUP2 ADD SWAP1 POP SWAP2 SWAP1 POP JUMP JUMPDEST DUP3 DUP2 DUP4 CALLDATACOPY PUSH1 0x0 DUP4 DUP4 ADD MSTORE POP POP POP JUMP JUMPDEST PUSH1 0x0 PUSH2 0x2196 PUSH2 0x2191 DUP5 PUSH2 0x2143 JUMP JUMPDEST PUSH2 0x2128 JUMP JUMPDEST SWAP1 POP DUP3 DUP2 MSTORE PUSH1 0x20 DUP2 ADD DUP5 DUP5 DUP5 ADD GT ISZERO PUSH2 0x21B2 JUMPI PUSH2 0x21B1 PUSH2 0x20B2 JUMP JUMPDEST JUMPDEST PUSH2 0x21BD DUP5 DUP3 DUP6 PUSH2 0x2174 JUMP JUMPDEST POP SWAP4 SWAP3 POP POP POP JUMP JUMPDEST PUSH1 0x0 DUP3 PUSH1 0x1F DUP4 ADD SLT PUSH2 0x21DA JUMPI PUSH2 0x21D9 PUSH2 0x20AD JUMP JUMPDEST JUMPDEST DUP2 CALLDATALOAD PUSH2 0x21EA DUP5 DUP3 PUSH1 0x20 DUP7 ADD PUSH2 0x2183 JUMP JUMPDEST SWAP2 POP POP SWAP3 SWAP2 POP POP JUMP JUMPDEST PUSH1 0x0 PUSH8 0xFFFFFFFFFFFFFFFF DUP3 GT ISZERO PUSH2 0x220E JUMPI PUSH2 0x220D PUSH2 0x20C8 JUMP JUMPDEST JUMPDEST PUSH1 0x20 DUP3 MUL SWAP1 POP PUSH1 0x20 DUP2 ADD SWAP1 POP SWAP2 SWAP1 POP JUMP JUMPDEST PUSH1 0x0 DUP1 REVERT JUMPDEST PUSH1 0x0 PUSH2 0x2237 PUSH2 0x2232 DUP5 PUSH2 0x21F3 JUMP JUMPDEST PUSH2 0x2128 JUMP JUMPDEST SWAP1 POP DUP1 DUP4 DUP3 MSTORE PUSH1 0x20 DUP3 ADD SWAP1 POP PUSH1 0x20 DUP5 MUL DUP4 ADD DUP6 DUP2 GT ISZERO PUSH2 0x225A JUMPI PUSH2 0x2259 PUSH2 0x221F JUMP JUMPDEST JUMPDEST DUP4 JUMPDEST DUP2 DUP2 LT ISZERO PUSH2 0x22A1 JUMPI DUP1 CALLDATALOAD PUSH8 0xFFFFFFFFFFFFFFFF DUP2 GT ISZERO PUSH2 0x227F JUMPI PUSH2 0x227E PUSH2 0x20AD JUMP JUMPDEST JUMPDEST DUP1 DUP7 ADD PUSH2 0x228C DUP10 DUP3 PUSH2 0x21C5 JUMP JUMPDEST DUP6 MSTORE PUSH1 0x20 DUP6 ADD SWAP5 POP POP POP PUSH1 0x20 DUP2 ADD SWAP1 POP PUSH2 0x225C JUMP JUMPDEST POP POP POP SWAP4 SWAP3 POP POP POP JUMP JUMPDEST PUSH1 0x0 DUP3 PUSH1 0x1F DUP4 ADD SLT PUSH2 0x22C0 JUMPI PUSH2 0x22BF PUSH2 0x20AD JUMP JUMPDEST JUMPDEST DUP2 CALLDATALOAD PUSH2 0x22D0 DUP5 DUP3 PUSH1 0x20 DUP7 ADD PUSH2 0x2224 JUMP JUMPDEST SWAP2 POP POP SWAP3 SWAP2 POP POP JUMP JUMPDEST PUSH1 0x0 DUP1 PUSH1 0x0 DUP1 PUSH1 0x80 DUP6 DUP8 SUB SLT ISZERO PUSH2 0x22F3 JUMPI PUSH2 0x22F2 PUSH2 0x206D JUMP JUMPDEST JUMPDEST PUSH1 0x0 PUSH2 0x2301 DUP8 DUP3 DUP9 ADD PUSH2 0x2098 JUMP JUMPDEST SWAP5 POP POP PUSH1 0x20 DUP6 ADD CALLDATALOAD PUSH8 0xFFFFFFFFFFFFFFFF DUP2 GT ISZERO PUSH2 0x2322 JUMPI PUSH2 0x2321 PUSH2 0x2072 JUMP JUMPDEST JUMPDEST PUSH2 0x232E DUP8 DUP3 DUP9 ADD PUSH2 0x21C5 JUMP JUMPDEST SWAP4 POP POP PUSH1 0x40 DUP6 ADD CALLDATALOAD PUSH8 0xFFFFFFFFFFFFFFFF DUP2 GT ISZERO PUSH2 0x234F JUMPI PUSH2 0x234E PUSH2 0x2072 JUMP JUMPDEST JUMPDEST PUSH2 0x235B DUP8 DUP3 DUP9 ADD PUSH2 0x22AB JUMP JUMPDEST SWAP3 POP POP PUSH1 0x60 DUP6 ADD CALLDATALOAD PUSH8 0xFFFFFFFFFFFFFFFF DUP2 GT ISZERO PUSH2 0x237C JUMPI PUSH2 0x237B PUSH2 0x2072 JUMP JUMPDEST JUMPDEST PUSH2 0x2388 DUP8 DUP3 DUP9 ADD PUSH2 0x22AB JUMP JUMPDEST SWAP2 POP POP SWAP3 SWAP6 SWAP2 SWAP5 POP SWAP3 POP JUMP JUMPDEST PUSH1 0x0 DUP2 SWAP1 POP SWAP2 SWAP1 POP JUMP JUMPDEST PUSH2 0x23A7 DUP2 PUSH2 0x2394 JUMP JUMPDEST DUP2 EQ PUSH2 0x23B2 JUMPI PUSH1 0x0 DUP1 REVERT JUMPDEST POP JUMP JUMPDEST PUSH1 0x0 DUP2 CALLDATALOAD SWAP1 POP PUSH2 0x23C4 DUP2 PUSH2 0x239E JUMP JUMPDEST SWAP3 SWAP2 POP POP JUMP JUMPDEST PUSH1 0x0 DUP1 PUSH1 0x0 PUSH1 0x60 DUP5 DUP7 SUB SLT ISZERO PUSH2 0x23E3 JUMPI PUSH2 0x23E2 PUSH2 0x206D JUMP JUMPDEST JUMPDEST PUSH1 0x0 PUSH2 0x23F1 DUP7 DUP3 DUP8 ADD PUSH2 0x2098 JUMP JUMPDEST SWAP4 POP POP PUSH1 0x20 PUSH2 0x2402 DUP7 DUP3 DUP8 ADD PUSH2 0x2098 JUMP JUMPDEST SWAP3 POP POP PUSH1 0x40 PUSH2 0x2413 DUP7 DUP3 DUP8 ADD PUSH2 0x23B5 JUMP JUMPDEST SWAP2 POP POP SWAP3 POP SWAP3 POP SWAP3 JUMP JUMPDEST PUSH1 0x0 PUSH1 0x20 DUP3 DUP5 SUB SLT ISZERO PUSH2 0x2433 JUMPI PUSH2 0x2432 PUSH2 0x206D JUMP JUMPDEST JUMPDEST PUSH1 0x0 PUSH2 0x2441 DUP5 DUP3 DUP6 ADD PUSH2 0x2098 JUMP JUMPDEST SWAP2 POP POP SWAP3 SWAP2 POP POP JUMP JUMPDEST PUSH1 0x0 DUP2 MLOAD SWAP1 POP SWAP2 SWAP1 POP JUMP JUMPDEST PUSH1 0x0 DUP3 DUP3 MSTORE PUSH1 0x20 DUP3 ADD SWAP1 POP SWAP3 SWAP2 POP POP JUMP JUMPDEST PUSH1 0x0 JUMPDEST DUP4 DUP2 LT ISZERO PUSH2 0x2484 JUMPI DUP1 DUP3 ADD MLOAD DUP2 DUP5 ADD MSTORE PUSH1 0x20 DUP2 ADD SWAP1 POP PUSH2 0x2469 JUMP JUMPDEST PUSH1 0x0 DUP5 DUP5 ADD MSTORE POP POP POP POP JUMP JUMPDEST PUSH1 0x0 PUSH2 0x249B DUP3 PUSH2 0x244A JUMP JUMPDEST PUSH2 0x24A5 DUP2 DUP6 PUSH2 0x2455 JUMP JUMPDEST SWAP4 POP PUSH2 0x24B5 DUP2 DUP6 PUSH1 0x20 DUP7 ADD PUSH2 0x2466 JUMP JUMPDEST PUSH2 0x24BE DUP2 PUSH2 0x20B7 JUMP JUMPDEST DUP5 ADD SWAP2 POP POP SWAP3 SWAP2 POP POP JUMP JUMPDEST PUSH1 0x0 PUSH1 0x20 DUP3 ADD SWAP1 POP DUP2 DUP2 SUB PUSH1 0x0 DUP4 ADD MSTORE PUSH2 0x24E3 DUP2 DUP5 PUSH2 0x2490 JUMP JUMPDEST SWAP1 POP SWAP3 SWAP2 POP POP JUMP JUMPDEST PUSH1 0x0 DUP1 PUSH1 0x0 DUP1 PUSH1 0x80 DUP6 DUP8 SUB SLT ISZERO PUSH2 0x2505 JUMPI PUSH2 0x2504 PUSH2 0x206D JUMP JUMPDEST JUMPDEST PUSH1 0x0 DUP6 ADD CALLDATALOAD PUSH8 0xFFFFFFFFFFFFFFFF DUP2 GT ISZERO PUSH2 0x2523 JUMPI PUSH2 0x2522 PUSH2 0x2072 JUMP JUMPDEST JUMPDEST PUSH2 0x252F DUP8 DUP3 DUP9 ADD PUSH2 0x21C5 JUMP JUMPDEST SWAP5 POP POP PUSH1 0x20 DUP6 ADD CALLDATALOAD PUSH8 0xFFFFFFFFFFFFFFFF DUP2 GT ISZERO PUSH2 0x2550 JUMPI PUSH2 0x254F PUSH2 0x2072 JUMP JUMPDEST JUMPDEST PUSH2 0x255C DUP8 DUP3 DUP9 ADD PUSH2 0x21C5 JUMP JUMPDEST SWAP4 POP POP PUSH1 0x40 DUP6 ADD CALLDATALOAD PUSH8 0xFFFFFFFFFFFFFFFF DUP2 GT ISZERO PUSH2 0x257D JUMPI PUSH2 0x257C PUSH2 0x2072 JUMP JUMPDEST JUMPDEST PUSH2 0x2589 DUP8 DUP3 DUP9 ADD PUSH2 0x22AB JUMP JUMPDEST SWAP3 POP POP PUSH1 0x60 DUP6 ADD CALLDATALOAD PUSH8 0xFFFFFFFFFFFFFFFF DUP2 GT ISZERO PUSH2 0x25AA JUMPI PUSH2 0x25A9 PUSH2 0x2072 JUMP JUMPDEST JUMPDEST PUSH2 0x25B6 DUP8 DUP3 DUP9 ADD PUSH2 0x22AB JUMP JUMPDEST SWAP2 POP POP SWAP3 SWAP6 SWAP2 SWAP5 POP SWAP3 POP JUMP JUMPDEST PUSH2 0x25CB DUP2 PUSH2 0x2077 JUMP JUMPDEST DUP3 MSTORE POP POP JUMP JUMPDEST PUSH1 0x0 PUSH1 0x20 DUP3 ADD SWAP1 POP PUSH2 0x25E6 PUSH1 0x0 DUP4 ADD DUP5 PUSH2 0x25C2 JUMP JUMPDEST SWAP3 SWAP2 POP POP JUMP JUMPDEST PUSH1 0x0 DUP1 PUSH1 0x40 DUP4 DUP6 SUB SLT ISZERO PUSH2 0x2603 JUMPI PUSH2 0x2602 PUSH2 0x206D JUMP JUMPDEST JUMPDEST PUSH1 0x0 PUSH2 0x2611 DUP6 DUP3 DUP7 ADD PUSH2 0x2098 JUMP JUMPDEST SWAP3 POP POP PUSH1 0x20 PUSH2 0x2622 DUP6 DUP3 DUP7 ADD PUSH2 0x2098 JUMP JUMPDEST SWAP2 POP POP SWAP3 POP SWAP3 SWAP1 POP JUMP JUMPDEST PUSH1 0x0 DUP3 DUP3 MSTORE PUSH1 0x20 DUP3 ADD SWAP1 POP SWAP3 SWAP2 POP POP JUMP JUMPDEST PUSH1 0x0 PUSH2 0x2648 DUP3 PUSH2 0x244A JUMP JUMPDEST PUSH2 0x2652 DUP2 DUP6 PUSH2 0x262C JUMP JUMPDEST SWAP4 POP PUSH2 0x2662 DUP2 DUP6 PUSH1 0x20 DUP7 ADD PUSH2 0x2466 JUMP JUMPDEST PUSH2 0x266B DUP2 PUSH2 0x20B7 JUMP JUMPDEST DUP5 ADD SWAP2 POP POP SWAP3 SWAP2 POP POP JUMP JUMPDEST PUSH1 0x0 DUP2 MLOAD SWAP1 POP SWAP2 SWAP1 POP JUMP JUMPDEST PUSH1 0x0 DUP3 DUP3 MSTORE PUSH1 0x20 DUP3 ADD SWAP1 POP SWAP3 SWAP2 POP POP JUMP JUMPDEST PUSH1 0x0 DUP2 SWAP1 POP PUSH1 0x20 DUP3 ADD SWAP1 POP SWAP2 SWAP1 POP JUMP JUMPDEST PUSH1 0x0 PUSH2 0x26AE DUP4 DUP4 PUSH2 0x263D JUMP JUMPDEST SWAP1 POP SWAP3 SWAP2 POP POP JUMP JUMPDEST PUSH1 0x0 PUSH1 0x20 DUP3 ADD SWAP1 POP SWAP2 SWAP1 POP JUMP JUMPDEST PUSH1 0x0 PUSH2 0x26CE DUP3 PUSH2 0x2676 JUMP JUMPDEST PUSH2 0x26D8 DUP2 DUP6 PUSH2 0x2681 JUMP JUMPDEST SWAP4 POP DUP4 PUSH1 0x20 DUP3 MUL DUP6 ADD PUSH2 0x26EA DUP6 PUSH2 0x2692 JUMP JUMPDEST DUP1 PUSH1 0x0 JUMPDEST DUP6 DUP2 LT ISZERO PUSH2 0x2726 JUMPI DUP5 DUP5 SUB DUP10 MSTORE DUP2 MLOAD PUSH2 0x2707 DUP6 DUP3 PUSH2 0x26A2 JUMP JUMPDEST SWAP5 POP PUSH2 0x2712 DUP4 PUSH2 0x26B6 JUMP JUMPDEST SWAP3 POP PUSH1 0x20 DUP11 ADD SWAP10 POP POP PUSH1 0x1 DUP2 ADD SWAP1 POP PUSH2 0x26EE JUMP JUMPDEST POP DUP3 SWAP8 POP DUP8 SWAP6 POP POP POP POP POP POP SWAP3 SWAP2 POP POP JUMP JUMPDEST PUSH2 0x2741 DUP2 PUSH2 0x2394 JUMP JUMPDEST DUP3 MSTORE POP POP JUMP JUMPDEST PUSH2 0x2750 DUP2 PUSH2 0x2077 JUMP JUMPDEST DUP3 MSTORE POP POP JUMP JUMPDEST PUSH1 0x0 PUSH1 0xE0 DUP4 ADD PUSH1 0x0 DUP4 ADD MLOAD DUP5 DUP3 SUB PUSH1 0x0 DUP7 ADD MSTORE PUSH2 0x2773 DUP3 DUP3 PUSH2 0x263D JUMP JUMPDEST SWAP2 POP POP PUSH1 0x20 DUP4 ADD MLOAD DUP5 DUP3 SUB PUSH1 0x20 DUP7 ADD MSTORE PUSH2 0x278D DUP3 DUP3 PUSH2 0x263D JUMP JUMPDEST SWAP2 POP POP PUSH1 0x40 DUP4 ADD MLOAD DUP5 DUP3 SUB PUSH1 0x40 DUP7 ADD MSTORE PUSH2 0x27A7 DUP3 DUP3 PUSH2 0x26C3 JUMP JUMPDEST SWAP2 POP POP PUSH1 0x60 DUP4 ADD MLOAD DUP5 DUP3 SUB PUSH1 0x60 DUP7 ADD MSTORE PUSH2 0x27C1 DUP3 DUP3 PUSH2 0x26C3 JUMP JUMPDEST SWAP2 POP POP PUSH1 0x80 DUP4 ADD MLOAD PUSH2 0x27D6 PUSH1 0x80 DUP7 ADD DUP3 PUSH2 0x2738 JUMP JUMPDEST POP PUSH1 0xA0 DUP4 ADD MLOAD PUSH2 0x27E9 PUSH1 0xA0 DUP7 ADD DUP3 PUSH2 0x2747 JUMP JUMPDEST POP PUSH1 0xC0 DUP4 ADD MLOAD PUSH2 0x27FC PUSH1 0xC0 DUP7 ADD DUP3 PUSH2 0x2747 JUMP JUMPDEST POP DUP1 SWAP2 POP POP SWAP3 SWAP2 POP POP JUMP JUMPDEST PUSH1 0x0 PUSH1 0x20 DUP3 ADD SWAP1 POP DUP2 DUP2 SUB PUSH1 0x0 DUP4 ADD MSTORE PUSH2 0x2821 DUP2 DUP5 PUSH2 0x2756 JUMP JUMPDEST SWAP1 POP SWAP3 SWAP2 POP POP JUMP JUMPDEST PUSH1 0x0 PUSH20 0xFFFFFFFFFFFFFFFFFFFFFFFFFFFFFFFFFFFFFFFF DUP3 AND SWAP1 POP SWAP2 SWAP1 POP JUMP JUMPDEST PUSH1 0x0 PUSH2 0x2854 DUP3 PUSH2 0x2829 JUMP JUMPDEST SWAP1 POP SWAP2 SWAP1 POP JUMP JUMPDEST PUSH2 0x2864 DUP2 PUSH2 0x2849 JUMP JUMPDEST DUP3 MSTORE POP POP JUMP JUMPDEST PUSH1 0x0 PUSH1 0x20 DUP3 ADD SWAP1 POP PUSH2 0x287F PUSH1 0x0 DUP4 ADD DUP5 PUSH2 0x285B JUMP JUMPDEST SWAP3 SWAP2 POP POP JUMP JUMPDEST PUSH2 0x288E DUP2 PUSH2 0x2849 JUMP JUMPDEST DUP2 EQ PUSH2 0x2899 JUMPI PUSH1 0x0 DUP1 REVERT JUMPDEST POP JUMP JUMPDEST PUSH1 0x0 DUP2 CALLDATALOAD SWAP1 POP PUSH2 0x28AB DUP2 PUSH2 0x2885 JUMP JUMPDEST SWAP3 SWAP2 POP POP JUMP JUMPDEST PUSH1 0x0 PUSH1 0x20 DUP3 DUP5 SUB SLT ISZERO PUSH2 0x28C7 JUMPI PUSH2 0x28C6 PUSH2 0x206D JUMP JUMPDEST JUMPDEST PUSH1 0x0 PUSH2 0x28D5 DUP5 DUP3 DUP6 ADD PUSH2 0x289C JUMP JUMPDEST SWAP2 POP POP SWAP3 SWAP2 POP POP JUMP JUMPDEST PUSH1 0x0 DUP1 PUSH1 0x0 DUP1 PUSH1 0x80 DUP6 DUP8 SUB SLT ISZERO PUSH2 0x28F8 JUMPI PUSH2 0x28F7 PUSH2 0x206D JUMP JUMPDEST JUMPDEST PUSH1 0x0 PUSH2 0x2906 DUP8 DUP3 DUP9 ADD PUSH2 0x2098 JUMP JUMPDEST SWAP5 POP POP PUSH1 0x20 PUSH2 0x2917 DUP8 DUP3 DUP9 ADD PUSH2 0x2098 JUMP JUMPDEST SWAP4 POP POP PUSH1 0x40 PUSH2 0x2928 DUP8 DUP3 DUP9 ADD PUSH2 0x2098 JUMP JUMPDEST SWAP3 POP POP PUSH1 0x60 DUP6 ADD CALLDATALOAD PUSH8 0xFFFFFFFFFFFFFFFF DUP2 GT ISZERO PUSH2 0x2949 JUMPI PUSH2 0x2948 PUSH2 0x2072 JUMP JUMPDEST JUMPDEST PUSH2 0x2955 DUP8 DUP3 DUP9 ADD PUSH2 0x21C5 JUMP JUMPDEST SWAP2 POP POP SWAP3 SWAP6 SWAP2 SWAP5 POP SWAP3 POP JUMP JUMPDEST PUSH32 0x4E487B7100000000000000000000000000000000000000000000000000000000 PUSH1 0x0 MSTORE PUSH1 0x32 PUSH1 0x4 MSTORE PUSH1 0x24 PUSH1 0x0 REVERT JUMPDEST PUSH32 0x4E487B7100000000000000000000000000000000000000000000000000000000 PUSH1 0x0 MSTORE PUSH1 0x22 PUSH1 0x4 MSTORE PUSH1 0x24 PUSH1 0x0 REVERT JUMPDEST PUSH1 0x0 PUSH1 0x2 DUP3 DIV SWAP1 POP PUSH1 0x1 DUP3 AND DUP1 PUSH2 0x29D7 JUMPI PUSH1 0x7F DUP3 AND SWAP2 POP JUMPDEST PUSH1 0x20 DUP3 LT DUP2 SUB PUSH2 0x29EA JUMPI PUSH2 0x29E9 PUSH2 0x2990 JUMP JUMPDEST JUMPDEST POP SWAP2 SWAP1 POP JUMP JUMPDEST PUSH1 0x0 DUP2 SWAP1 POP DUP2 PUSH1 0x0 MSTORE PUSH1 0x20 PUSH1 0x0 KECCAK256 SWAP1 POP SWAP2 SWAP1 POP JUMP JUMPDEST PUSH1 0x0 PUSH1 0x20 PUSH1 0x1F DUP4 ADD DIV SWAP1 POP SWAP2 SWAP1 POP JUMP JUMPDEST PUSH1 0x0 DUP3 DUP3 SHL SWAP1 POP SWAP3 SWAP2 POP POP JUMP JUMPDEST PUSH1 0x0 PUSH1 0x8 DUP4 MUL PUSH2 0x2A52 PUSH32 0xFFFFFFFFFFFFFFFFFFFFFFFFFFFFFFFFFFFFFFFFFFFFFFFFFFFFFFFFFFFFFFFF DUP3 PUSH2 0x2A15 JUMP JUMPDEST PUSH2 0x2A5C DUP7 DUP4 PUSH2 0x2A15 JUMP JUMPDEST SWAP6 POP DUP1 NOT DUP5 AND SWAP4 POP DUP1 DUP7 AND DUP5 OR SWAP3 POP POP POP SWAP4 SWAP3 POP POP POP JUMP JUMPDEST PUSH1 0x0 DUP2 SWAP1 POP SWAP2 SWAP1 POP JUMP JUMPDEST PUSH1 0x0 PUSH2 0x2A99 PUSH2 0x2A94 PUSH2 0x2A8F DUP5 PUSH2 0x2077 JUMP JUMPDEST PUSH2 0x2A74 JUMP JUMPDEST PUSH2 0x2077 JUMP JUMPDEST SWAP1 POP SWAP2 SWAP1 POP JUMP JUMPDEST PUSH1 0x0 DUP2 SWAP1 POP SWAP2 SWAP1 POP JUMP JUMPDEST PUSH2 0x2AB3 DUP4 PUSH2 0x2A7E JUMP JUMPDEST PUSH2 0x2AC7 PUSH2 0x2ABF DUP3 PUSH2 0x2AA0 JUMP JUMPDEST DUP5 DUP5 SLOAD PUSH2 0x2A22 JUMP JUMPDEST DUP3 SSTORE POP POP POP POP JUMP JUMPDEST PUSH1 0x0 SWAP1 JUMP JUMPDEST PUSH2 0x2ADC PUSH2 0x2ACF JUMP JUMPDEST PUSH2 0x2AE7 DUP2 DUP5 DUP5 PUSH2 0x2AAA JUMP JUMPDEST POP POP POP JUMP JUMPDEST JUMPDEST DUP2 DUP2 LT ISZERO PUSH2 0x2B0B JUMPI PUSH2 0x2B00 PUSH1 0x0 DUP3 PUSH2 0x2AD4 JUMP JUMPDEST PUSH1 0x1 DUP2 ADD SWAP1 POP PUSH2 0x2AED JUMP JUMPDEST POP POP JUMP JUMPDEST PUSH1 0x1F DUP3 GT ISZERO PUSH2 0x2B50 JUMPI PUSH2 0x2B21 DUP2 PUSH2 0x29F0 JUMP JUMPDEST PUSH2 0x2B2A DUP5 PUSH2 0x2A05 JUMP JUMPDEST DUP2 ADD PUSH1 0x20 DUP6 LT ISZERO PUSH2 0x2B39 JUMPI DUP2 SWAP1 POP JUMPDEST PUSH2 0x2B4D PUSH2 0x2B45 DUP6 PUSH2 0x2A05 JUMP JUMPDEST DUP4 ADD DUP3 PUSH2 0x2AEC JUMP JUMPDEST POP POP JUMPDEST POP POP POP JUMP JUMPDEST PUSH1 0x0 DUP3 DUP3 SHR SWAP1 POP SWAP3 SWAP2 POP POP JUMP JUMPDEST PUSH1 0x0 PUSH2 0x2B73 PUSH1 0x0 NOT DUP5 PUSH1 0x8 MUL PUSH2 0x2B55 JUMP JUMPDEST NOT DUP1 DUP4 AND SWAP2 POP POP SWAP3 SWAP2 POP POP JUMP JUMPDEST PUSH1 0x0 PUSH2 0x2B8C DUP4 DUP4 PUSH2 0x2B62 JUMP JUMPDEST SWAP2 POP DUP3 PUSH1 0x2 MUL DUP3 OR SWAP1 POP SWAP3 SWAP2 POP POP JUMP JUMPDEST PUSH2 0x2BA5 DUP3 PUSH2 0x244A JUMP JUMPDEST PUSH8 0xFFFFFFFFFFFFFFFF DUP2 GT ISZERO PUSH2 0x2BBE JUMPI PUSH2 0x2BBD PUSH2 0x20C8 JUMP JUMPDEST JUMPDEST PUSH2 0x2BC8 DUP3 SLOAD PUSH2 0x29BF JUMP JUMPDEST PUSH2 0x2BD3 DUP3 DUP3 DUP6 PUSH2 0x2B0F JUMP JUMPDEST PUSH1 0x0 PUSH1 0x20 SWAP1 POP PUSH1 0x1F DUP4 GT PUSH1 0x1 DUP2 EQ PUSH2 0x2C06 JUMPI PUSH1 0x0 DUP5 ISZERO PUSH2 0x2BF4 JUMPI DUP3 DUP8 ADD MLOAD SWAP1 POP JUMPDEST PUSH2 0x2BFE DUP6 DUP3 PUSH2 0x2B80 JUMP JUMPDEST DUP7 SSTORE POP PUSH2 0x2C66 JUMP JUMPDEST PUSH1 0x1F NOT DUP5 AND PUSH2 0x2C14 DUP7 PUSH2 0x29F0 JUMP JUMPDEST PUSH1 0x0 JUMPDEST DUP3 DUP2 LT ISZERO PUSH2 0x2C3C JUMPI DUP5 DUP10 ADD MLOAD DUP3 SSTORE PUSH1 0x1 DUP3 ADD SWAP2 POP PUSH1 0x20 DUP6 ADD SWAP5 POP PUSH1 0x20 DUP2 ADD SWAP1 POP PUSH2 0x2C17 JUMP JUMPDEST DUP7 DUP4 LT ISZERO PUSH2 0x2C59 JUMPI DUP5 DUP10 ADD MLOAD PUSH2 0x2C55 PUSH1 0x1F DUP10 AND DUP3 PUSH2 0x2B62 JUMP JUMPDEST DUP4 SSTORE POP JUMPDEST PUSH1 0x1 PUSH1 0x2 DUP9 MUL ADD DUP9 SSTORE POP POP POP JUMPDEST POP POP POP POP POP POP JUMP JUMPDEST PUSH32 0x496E76616C696420766F74650000000000000000000000000000000000000000 PUSH1 0x0 DUP3 ADD MSTORE POP JUMP JUMPDEST PUSH1 0x0 PUSH2 0x2CA4 PUSH1 0xC DUP4 PUSH2 0x2455 JUMP JUMPDEST SWAP2 POP PUSH2 0x2CAF DUP3 PUSH2 0x2C6E JUMP JUMPDEST PUSH1 0x20 DUP3 ADD SWAP1 POP SWAP2 SWAP1 POP JUMP JUMPDEST PUSH1 0x0 PUSH1 0x20 DUP3 ADD SWAP1 POP DUP2 DUP2 SUB PUSH1 0x0 DUP4 ADD MSTORE PUSH2 0x2CD3 DUP2 PUSH2 0x2C97 JUMP JUMPDEST SWAP1 POP SWAP2 SWAP1 POP JUMP JUMPDEST PUSH32 0x4E487B7100000000000000000000000000000000000000000000000000000000 PUSH1 0x0 MSTORE PUSH1 0x11 PUSH1 0x4 MSTORE PUSH1 0x24 PUSH1 0x0 REVERT JUMPDEST PUSH1 0x0 PUSH2 0x2D14 DUP3 PUSH2 0x2394 JUMP JUMPDEST SWAP2 POP PUSH2 0x2D1F DUP4 PUSH2 0x2394 JUMP JUMPDEST SWAP3 POP DUP3 DUP3 SUB SWAP1 POP DUP2 DUP2 SLT PUSH1 0x0 DUP5 SLT AND DUP3 DUP3 SGT PUSH1 0x0 DUP6 SLT ISZERO AND OR ISZERO PUSH2 0x2D46 JUMPI PUSH2 0x2D45 PUSH2 0x2CDA JUMP JUMPDEST JUMPDEST SWAP3 SWAP2 POP POP JUMP JUMPDEST PUSH1 0x0 PUSH2 0x2D57 DUP3 PUSH2 0x2077 JUMP JUMPDEST SWAP2 POP PUSH1 0x0 DUP3 SUB PUSH2 0x2D6A JUMPI PUSH2 0x2D69 PUSH2 0x2CDA JUMP JUMPDEST JUMPDEST PUSH1 0x1 DUP3 SUB SWAP1 POP SWAP2 SWAP1 POP JUMP JUMPDEST PUSH1 0x0 PUSH2 0x2D80 DUP3 PUSH2 0x2077 JUMP JUMPDEST SWAP2 POP PUSH32 0xFFFFFFFFFFFFFFFFFFFFFFFFFFFFFFFFFFFFFFFFFFFFFFFFFFFFFFFFFFFFFFFF DUP3 SUB PUSH2 0x2DB2 JUMPI PUSH2 0x2DB1 PUSH2 0x2CDA JUMP JUMPDEST JUMPDEST PUSH1 0x1 DUP3 ADD SWAP1 POP SWAP2 SWAP1 POP JUMP JUMPDEST PUSH1 0x0 PUSH2 0x2DC8 DUP3 PUSH2 0x2394 JUMP JUMPDEST SWAP2 POP PUSH2 0x2DD3 DUP4 PUSH2 0x2394 JUMP JUMPDEST SWAP3 POP DUP3 DUP3 ADD SWAP1 POP DUP3 DUP2 SLT ISZERO PUSH1 0x0 DUP4 SLT AND DUP4 DUP3 SLT PUSH1 0x0 DUP5 SLT ISZERO AND OR ISZERO PUSH2 0x2DFB JUMPI PUSH2 0x2DFA PUSH2 0x2CDA JUMP JUMPDEST JUMPDEST SWAP3 SWAP2 POP POP JUMP JUMPDEST PUSH1 0x0 DUP2 SWAP1 POP SWAP3 SWAP2 POP POP JUMP JUMPDEST PUSH1 0x0 PUSH2 0x2E17 DUP3 PUSH2 0x244A JUMP JUMPDEST PUSH2 0x2E21 DUP2 DUP6 PUSH2 0x2E01 JUMP JUMPDEST SWAP4 POP PUSH2 0x2E31 DUP2 DUP6 PUSH1 0x20 DUP7 ADD PUSH2 0x2466 JUMP JUMPDEST DUP1 DUP5 ADD SWAP2 POP POP SWAP3 SWAP2 POP POP JUMP JUMPDEST PUSH32 0x2300000000000000000000000000000000000000000000000000000000000000 DUP2 MSTORE POP JUMP JUMPDEST PUSH1 0x0 DUP2 SLOAD PUSH2 0x2E70 DUP2 PUSH2 0x29BF JUMP JUMPDEST PUSH2 0x2E7A DUP2 DUP7 PUSH2 0x2E01 JUMP JUMPDEST SWAP5 POP PUSH1 0x1 DUP3 AND PUSH1 0x0 DUP2 EQ PUSH2 0x2E95 JUMPI PUSH1 0x1 DUP2 EQ PUSH2 0x2EAA JUMPI PUSH2 0x2EDD JUMP JUMPDEST PUSH1 0xFF NOT DUP4 AND DUP7 MSTORE DUP2 ISZERO ISZERO DUP3 MUL DUP7 ADD SWAP4 POP PUSH2 0x2EDD JUMP JUMPDEST PUSH2 0x2EB3 DUP6 PUSH2 0x29F0 JUMP JUMPDEST PUSH1 0x0 JUMPDEST DUP4 DUP2 LT ISZERO PUSH2 0x2ED5 JUMPI DUP2 SLOAD DUP2 DUP10 ADD MSTORE PUSH1 0x1 DUP3 ADD SWAP2 POP PUSH1 0x20 DUP2 ADD SWAP1 POP PUSH2 0x2EB6 JUMP JUMPDEST DUP4 DUP9 ADD SWAP6 POP POP POP JUMPDEST POP POP POP SWAP3 SWAP2 POP POP JUMP JUMPDEST PUSH32 0x7C00000000000000000000000000000000000000000000000000000000000000 DUP2 MSTORE POP JUMP JUMPDEST PUSH1 0x0 PUSH2 0x2F18 DUP3 DUP11 PUSH2 0x2E0C JUMP JUMPDEST SWAP2 POP PUSH2 0x2F23 DUP3 PUSH2 0x2E3D JUMP JUMPDEST PUSH1 0x1 DUP3 ADD SWAP2 POP PUSH2 0x2F33 DUP3 DUP10 PUSH2 0x2E63 JUMP JUMPDEST SWAP2 POP PUSH2 0x2F3E DUP3 PUSH2 0x2E3D JUMP JUMPDEST PUSH1 0x1 DUP3 ADD SWAP2 POP PUSH2 0x2F4E DUP3 DUP9 PUSH2 0x2E63 JUMP JUMPDEST SWAP2 POP PUSH2 0x2F59 DUP3 PUSH2 0x2E3D JUMP JUMPDEST PUSH1 0x1 DUP3 ADD SWAP2 POP PUSH2 0x2F69 DUP3 DUP8 PUSH2 0x2E0C JUMP JUMPDEST SWAP2 POP PUSH2 0x2F74 DUP3 PUSH2 0x2E3D JUMP JUMPDEST PUSH1 0x1 DUP3 ADD SWAP2 POP PUSH2 0x2F84 DUP3 DUP7 PUSH2 0x2E0C JUMP JUMPDEST SWAP2 POP PUSH2 0x2F8F DUP3 PUSH2 0x2E3D JUMP JUMPDEST PUSH1 0x1 DUP3 ADD SWAP2 POP PUSH2 0x2F9F DUP3 DUP6 PUSH2 0x2E0C JUMP JUMPDEST SWAP2 POP PUSH2 0x2FAA DUP3 PUSH2 0x2EE6 JUMP JUMPDEST PUSH1 0x1 DUP3 ADD SWAP2 POP PUSH2 0x2FBA DUP3 DUP5 PUSH2 0x2E0C JUMP JUMPDEST SWAP2 POP DUP2 SWAP1 POP SWAP9 SWAP8 POP POP POP POP POP POP POP POP JUMP JUMPDEST PUSH32 0x5465787420746F20736D616C6C00000000000000000000000000000000000000 PUSH1 0x0 DUP3 ADD MSTORE POP JUMP JUMPDEST PUSH1 0x0 PUSH2 0x3001 PUSH1 0xD DUP4 PUSH2 0x2455 JUMP JUMPDEST SWAP2 POP PUSH2 0x300C DUP3 PUSH2 0x2FCB JUMP JUMPDEST PUSH1 0x20 DUP3 ADD SWAP1 POP SWAP2 SWAP1 POP JUMP JUMPDEST PUSH1 0x0 PUSH1 0x20 DUP3 ADD SWAP1 POP DUP2 DUP2 SUB PUSH1 0x0 DUP4 ADD MSTORE PUSH2 0x3030 DUP2 PUSH2 0x2FF4 JUMP JUMPDEST SWAP1 POP SWAP2 SWAP1 POP JUMP JUMPDEST PUSH32 0x5465787420746F6F20736D616C6C000000000000000000000000000000000000 PUSH1 0x0 DUP3 ADD MSTORE POP JUMP JUMPDEST PUSH1 0x0 PUSH2 0x306D PUSH1 0xE DUP4 PUSH2 0x2455 JUMP JUMPDEST SWAP2 POP PUSH2 0x3078 DUP3 PUSH2 0x3037 JUMP JUMPDEST PUSH1 0x20 DUP3 ADD SWAP1 POP SWAP2 SWAP1 POP JUMP JUMPDEST PUSH1 0x0 PUSH1 0x20 DUP3 ADD SWAP1 POP DUP2 DUP2 SUB PUSH1 0x0 DUP4 ADD MSTORE PUSH2 0x309C DUP2 PUSH2 0x3060 JUMP JUMPDEST SWAP1 POP SWAP2 SWAP1 POP JUMP JUMPDEST PUSH1 0x0 PUSH2 0x30AE DUP3 PUSH2 0x2077 JUMP JUMPDEST SWAP2 POP PUSH2 0x30B9 DUP4 PUSH2 0x2077 JUMP JUMPDEST SWAP3 POP DUP3 DUP3 SUB SWAP1 POP DUP2 DUP2 GT ISZERO PUSH2 0x30D1 JUMPI PUSH2 0x30D0 PUSH2 0x2CDA JUMP JUMPDEST JUMPDEST SWAP3 SWAP2 POP POP JUMP JUMPDEST PUSH1 0x0 PUSH2 0x30E3 DUP3 DUP7 PUSH2 0x2E0C JUMP JUMPDEST SWAP2 POP PUSH2 0x30EE DUP3 PUSH2 0x2E3D JUMP JUMPDEST PUSH1 0x1 DUP3 ADD SWAP2 POP PUSH2 0x30FE DUP3 DUP6 PUSH2 0x2E63 JUMP JUMPDEST SWAP2 POP PUSH2 0x3109 DUP3 PUSH2 0x2E3D JUMP JUMPDEST PUSH1 0x1 DUP3 ADD SWAP2 POP PUSH2 0x3119 DUP3 DUP5 PUSH2 0x2E63 JUMP JUMPDEST SWAP2 POP DUP2 SWAP1 POP SWAP5 SWAP4 POP POP POP POP JUMP JUMPDEST PUSH1 0x0 PUSH2 0x3132 DUP3 DUP6 PUSH2 0x2E0C JUMP JUMPDEST SWAP2 POP PUSH2 0x313D DUP3 PUSH2 0x2E3D JUMP JUMPDEST PUSH1 0x1 DUP3 ADD SWAP2 POP PUSH2 0x314D DUP3 DUP5 PUSH2 0x2E63 JUMP JUMPDEST SWAP2 POP DUP2 SWAP1 POP SWAP4 SWAP3 POP POP POP JUMP JUMPDEST PUSH1 0x0 PUSH2 0x3165 DUP3 DUP6 PUSH2 0x2E63 JUMP JUMPDEST SWAP2 POP PUSH2 0x3170 DUP3 PUSH2 0x2E3D JUMP JUMPDEST PUSH1 0x1 DUP3 ADD SWAP2 POP PUSH2 0x3180 DUP3 DUP5 PUSH2 0x2E0C JUMP JUMPDEST SWAP2 POP DUP2 SWAP1 POP SWAP4 SWAP3 POP POP POP JUMP JUMPDEST PUSH32 0x43616C6C6572206973206E6F74206F776E657200000000000000000000000000 PUSH1 0x0 DUP3 ADD MSTORE POP JUMP JUMPDEST PUSH1 0x0 PUSH2 0x31C2 PUSH1 0x13 DUP4 PUSH2 0x2455 JUMP JUMPDEST SWAP2 POP PUSH2 0x31CD DUP3 PUSH2 0x318C JUMP JUMPDEST PUSH1 0x20 DUP3 ADD SWAP1 POP SWAP2 SWAP1 POP JUMP JUMPDEST PUSH1 0x0 PUSH1 0x20 DUP3 ADD SWAP1 POP DUP2 DUP2 SUB PUSH1 0x0 DUP4 ADD MSTORE PUSH2 0x31F1 DUP2 PUSH2 0x31B5 JUMP JUMPDEST SWAP1 POP SWAP2 SWAP1 POP JUMP JUMPDEST PUSH1 0x0 PUSH2 0x3203 DUP3 PUSH2 0x2394 JUMP JUMPDEST SWAP2 POP PUSH2 0x320E DUP4 PUSH2 0x2394 JUMP JUMPDEST SWAP3 POP DUP3 DUP3 MUL PUSH2 0x321C DUP2 PUSH2 0x2394 JUMP JUMPDEST SWAP2 POP PUSH32 0x8000000000000000000000000000000000000000000000000000000000000000 DUP5 EQ PUSH1 0x0 DUP5 SLT AND ISZERO PUSH2 0x3254 JUMPI PUSH2 0x3253 PUSH2 0x2CDA JUMP JUMPDEST JUMPDEST DUP3 DUP3 SDIV DUP5 EQ DUP4 ISZERO OR PUSH2 0x3269 JUMPI PUSH2 0x3268 PUSH2 0x2CDA JUMP JUMPDEST JUMPDEST POP SWAP3 SWAP2 POP POP JUMP JUMPDEST PUSH1 0x0 PUSH1 0x40 DUP3 ADD SWAP1 POP DUP2 DUP2 SUB PUSH1 0x0 DUP4 ADD MSTORE PUSH2 0x328A DUP2 DUP6 PUSH2 0x2490 JUMP JUMPDEST SWAP1 POP PUSH2 0x3299 PUSH1 0x20 DUP4 ADD DUP5 PUSH2 0x285B JUMP JUMPDEST SWAP4 SWAP3 POP POP POP JUMP JUMPDEST PUSH32 0x4E487B7100000000000000000000000000000000000000000000000000000000 PUSH1 0x0 MSTORE PUSH1 0x12 PUSH1 0x4 MSTORE PUSH1 0x24 PUSH1 0x0 REVERT JUMPDEST PUSH1 0x0 PUSH2 0x32DB DUP3 DUP6 PUSH2 0x2E0C JUMP JUMPDEST SWAP2 POP PUSH2 0x32E7 DUP3 DUP5 PUSH2 0x2E0C JUMP JUMPDEST SWAP2 POP DUP2 SWAP1 POP SWAP4 SWAP3 POP POP POP JUMP INVALID LOG2 PUSH5 0x6970667358 0x22 SLT KECCAK256 SGT 0x21 AND PUSH28 0xC0A11A842F7B55AAA728BF4158F7CF661EAE75F5FBEE6B33D7A26861 PUSH5 0x736F6C6343 STOP ADDMOD SLT STOP CALLER "
		},
		"gasEstimates": {
			"creation": {
				"codeDepositCost": "2619400",
				"executionCost": "infinite",
				"totalCost": "infinite"
			},
			"external": {
				"changeOwner(address)": "30589",
				"createProject(string,string,string[],string[])": "infinite",
				"getAttachments(uint256,uint256)": "infinite",
				"getCurrentVersion(uint256)": "infinite",
				"getLawCount()": "2556",
				"getOwner()": "2589",
				"getProject(uint256)": "infinite",
				"getRevision(uint256,uint256)": "infinite",
				"getRevisions(uint256)": "infinite",
				"getSpecificProject(uint256,uint256)": "infinite",
				"proposeEdit(uint256,string,string[],string[])": "infinite",
				"proposeEnhanchmentEdit(uint256,uint256,uint256,string)": "infinite",
				"vote(uint256,uint256,int256)": "infinite"
			}
		},
		"methodIdentifiers": {
			"changeOwner(address)": "a6f9dae1",
			"createProject(string,string,string[],string[])": "582f60fb",
			"getAttachments(uint256,uint256)": "7af7581d",
			"getCurrentVersion(uint256)": "e715463c",
			"getLawCount()": "6475f4fe",
			"getOwner()": "893d20e8",
			"getProject(uint256)": "f0f3f2c8",
			"getRevision(uint256,uint256)": "6192e3e8",
			"getRevisions(uint256)": "3ec559c6",
			"getSpecificProject(uint256,uint256)": "707e196e",
			"proposeEdit(uint256,string,string[],string[])": "1d31245c",
			"proposeEnhanchmentEdit(uint256,uint256,uint256,string)": "d12e2535",
			"vote(uint256,uint256,int256)": "20b7c317"
		}
	},
	"abi": [
		{
			"inputs": [],
			"stateMutability": "nonpayable",
			"type": "constructor"
		},
		{
			"anonymous": false,
			"inputs": [
				{
					"indexed": true,
					"internalType": "address",
					"name": "oldOwner",
					"type": "address"
				},
				{
					"indexed": true,
					"internalType": "address",
					"name": "newOwner",
					"type": "address"
				}
			],
			"name": "OwnerSet",
			"type": "event"
		},
		{
			"anonymous": false,
			"inputs": [
				{
					"indexed": true,
					"internalType": "uint256",
					"name": "id",
					"type": "uint256"
				}
			],
			"name": "ProjectCreated",
			"type": "event"
		},
		{
			"inputs": [
				{
					"internalType": "address",
					"name": "newOwner",
					"type": "address"
				}
			],
			"name": "changeOwner",
			"outputs": [],
			"stateMutability": "nonpayable",
			"type": "function"
		},
		{
			"inputs": [
				{
					"internalType": "string",
					"name": "title",
					"type": "string"
				},
				{
					"internalType": "string",
					"name": "project",
					"type": "string"
				},
				{
					"internalType": "string[]",
					"name": "enhanchments",
					"type": "string[]"
				},
				{
					"internalType": "string[]",
					"name": "attachments",
					"type": "string[]"
				}
			],
			"name": "createProject",
			"outputs": [
				{
					"internalType": "uint256",
					"name": "",
					"type": "uint256"
				}
			],
			"stateMutability": "payable",
			"type": "function"
		},
		{
			"inputs": [
				{
					"internalType": "uint256",
					"name": "id",
					"type": "uint256"
				},
				{
					"internalType": "uint256",
					"name": "version",
					"type": "uint256"
				}
			],
			"name": "getAttachments",
			"outputs": [
				{
					"internalType": "string",
					"name": "documents",
					"type": "string"
				}
			],
			"stateMutability": "view",
			"type": "function"
		},
		{
			"inputs": [
				{
					"internalType": "uint256",
					"name": "id",
					"type": "uint256"
				}
			],
			"name": "getCurrentVersion",
			"outputs": [
				{
					"internalType": "uint256",
					"name": "version",
					"type": "uint256"
				}
			],
			"stateMutability": "view",
			"type": "function"
		},
		{
			"inputs": [],
			"name": "getLawCount",
			"outputs": [
				{
					"internalType": "uint256",
					"name": "count",
					"type": "uint256"
				}
			],
			"stateMutability": "view",
			"type": "function"
		},
		{
			"inputs": [],
			"name": "getOwner",
			"outputs": [
				{
					"internalType": "address",
					"name": "",
					"type": "address"
				}
			],
			"stateMutability": "view",
			"type": "function"
		},
		{
			"inputs": [
				{
					"internalType": "uint256",
					"name": "id",
					"type": "uint256"
				}
			],
			"name": "getProject",
			"outputs": [
				{
					"internalType": "string",
					"name": "law",
					"type": "string"
				}
			],
			"stateMutability": "view",
			"type": "function"
		},
		{
			"inputs": [
				{
					"internalType": "uint256",
					"name": "id",
					"type": "uint256"
				},
				{
					"internalType": "uint256",
					"name": "version",
					"type": "uint256"
				}
			],
			"name": "getRevision",
			"outputs": [
				{
					"internalType": "string",
					"name": "revision",
					"type": "string"
				}
			],
			"stateMutability": "view",
			"type": "function"
		},
		{
			"inputs": [
				{
					"internalType": "uint256",
					"name": "id",
					"type": "uint256"
				}
			],
			"name": "getRevisions",
			"outputs": [
				{
					"internalType": "string",
					"name": "revisions",
					"type": "string"
				}
			],
			"stateMutability": "view",
			"type": "function"
		},
		{
			"inputs": [
				{
					"internalType": "uint256",
					"name": "id",
					"type": "uint256"
				},
				{
					"internalType": "uint256",
					"name": "version",
					"type": "uint256"
				}
			],
			"name": "getSpecificProject",
			"outputs": [
				{
					"components": [
						{
							"internalType": "string",
							"name": "title",
							"type": "string"
						},
						{
							"internalType": "string",
							"name": "project",
							"type": "string"
						},
						{
							"internalType": "string[]",
							"name": "enhanchments",
							"type": "string[]"
						},
						{
							"internalType": "string[]",
							"name": "attachments",
							"type": "string[]"
						},
						{
							"internalType": "int256",
							"name": "votes",
							"type": "int256"
						},
						{
							"internalType": "uint256",
							"name": "total",
							"type": "uint256"
						},
						{
							"internalType": "uint256",
							"name": "version",
							"type": "uint256"
						}
					],
					"internalType": "struct Laws.cProjects",
					"name": "L",
					"type": "tuple"
				}
			],
			"stateMutability": "view",
			"type": "function"
		},
		{
			"inputs": [
				{
					"internalType": "uint256",
					"name": "id",
					"type": "uint256"
				},
				{
					"internalType": "string",
					"name": "project",
					"type": "string"
				},
				{
					"internalType": "string[]",
					"name": "enhanchments",
					"type": "string[]"
				},
				{
					"internalType": "string[]",
					"name": "attachments",
					"type": "string[]"
				}
			],
			"name": "proposeEdit",
			"outputs": [],
			"stateMutability": "payable",
			"type": "function"
		},
		{
			"inputs": [
				{
					"internalType": "uint256",
					"name": "id",
					"type": "uint256"
				},
				{
					"internalType": "uint256",
					"name": "eId",
					"type": "uint256"
				},
				{
					"internalType": "uint256",
					"name": "version",
					"type": "uint256"
				},
				{
					"internalType": "string",
					"name": "enhnancement",
					"type": "string"
				}
			],
			"name": "proposeEnhanchmentEdit",
			"outputs": [],
			"stateMutability": "payable",
			"type": "function"
		},
		{
			"inputs": [
				{
					"internalType": "uint256",
					"name": "id",
					"type": "uint256"
				},
				{
					"internalType": "uint256",
					"name": "version",
					"type": "uint256"
				},
				{
					"internalType": "int256",
					"name": "v",
					"type": "int256"
				}
			],
			"name": "vote",
			"outputs": [],
			"stateMutability": "payable",
			"type": "function"
		}
	]
}