{
	"data": {
		"bytecode": {
			"linkReferences": {},
			"object": "6117d6610053600b82828239805160001a607314610046577f4e487b7100000000000000000000000000000000000000000000000000000000600052600060045260246000fd5b30600052607381538281f3fe73000000000000000000000000000000000000000030146080604052600436106101415760003560e01c80635f972df8116100c2578063913f424c11610086578063913f424c146103c2578063a01539fc146103f4578063bb8c256a14610424578063db31883314610455578063e241c1d914610487578063f47289e1146104b857610141565b80635f972df8146102cf57806366ce10b7146103005780638081a1e7146103305780638940aebe146103615780638cecf66e1461039257610141565b80632d58c9a2116101095780632d58c9a2146102145780632e52d60614610232578063426817fa146102505780634df7e3d0146102805780635b7648111461029e57610141565b80630138e31b14610146578063022079d91461017757806306c91ce3146101a75780630dbe671f146101c55780631ecfe64d146101e3575b600080fd5b610160600480360381019061015b91906110ef565b6104ea565b60405161016e929190611165565b60405180910390f35b610191600480360381019061018c919061118e565b6105c4565b60405161019e9190611224565b60405180910390f35b6101af610640565b6040516101bc919061123f565b60405180910390f35b6101cd610664565b6040516101da919061123f565b60405180910390f35b6101fd60048036038101906101f891906110ef565b610669565b60405161020b929190611165565b60405180910390f35b61021c61076e565b604051610229919061123f565b60405180910390f35b61023a610792565b604051610247919061123f565b60405180910390f35b61026a600480360381019061026591906113a1565b6107b6565b604051610277919061140f565b60405180910390f35b6102886107bd565b604051610295919061123f565b60405180910390f35b6102b860048036038101906102b391906110ef565b6107c2565b6040516102c6929190611165565b60405180910390f35b6102e960048036038101906102e491906110ef565b61083a565b6040516102f7929190611165565b60405180910390f35b61031a6004803603810190610315919061142a565b6108b2565b6040516103279190611224565b60405180910390f35b61034a6004803603810190610345919061142a565b61090a565b604051610358929190611165565b60405180910390f35b61037b6004803603810190610376919061147d565b6109a4565b604051610389929190611165565b60405180910390f35b6103ac60048036038101906103a7919061147d565b6109fb565b6040516103b9919061123f565b60405180910390f35b6103dc60048036038101906103d791906110ef565b610b14565b6040516103eb939291906114aa565b60405180910390f35b61040e600480360381019061040991906114e1565b610bcf565b60405161041b919061140f565b60405180910390f35b61043e600480360381019061043991906110ef565b610d12565b60405161044c929190611165565b60405180910390f35b61046f600480360381019061046a9190611534565b610db0565b60405161047e939291906114aa565b60405180910390f35b6104a1600480360381019061049c919061142a565b610fe8565b6040516104af929190611165565b60405180910390f35b6104d260048036038101906104cd919061142a565b611082565b6040516104e1939291906114aa565b60405180910390f35b6000807ffffffffffffffffffffffffffffffffffffffffffffffffffffffffefffffc2f8061051c5761051b6115c1565b5b7ffffffffffffffffffffffffffffffffffffffffffffffffffffffffefffffc2f8061054b5761054a6115c1565b5b8686097ffffffffffffffffffffffffffffffffffffffffffffffffffffffffefffffc2f8061057d5761057c6115c1565b5b888609087ffffffffffffffffffffffffffffffffffffffffffffffffffffffffefffffc2f806105b0576105af6115c1565b5b848709809250819350505094509492505050565b6000806105e7600060405180604001604052808a81526020018981525087610bcf565b90508073ffffffffffffffffffffffffffffffffffffffff1661061d6040518060400160405280878152602001868152506107b6565b73ffffffffffffffffffffffffffffffffffffffff161491505095945050505050565b7f79be667ef9dcbbac55a06295ce870b07029bfcdb2dce28d959f2815b16f8179881565b600081565b6000807ffffffffffffffffffffffffffffffffffffffffffffffffffffffffefffffc2f8061069b5761069a6115c1565b5b7ffffffffffffffffffffffffffffffffffffffffffffffffffffffffefffffc2f806106ca576106c96115c1565b5b86867ffffffffffffffffffffffffffffffffffffffffffffffffffffffffefffffc2f6106f7919061161f565b097ffffffffffffffffffffffffffffffffffffffffffffffffffffffffefffffc2f80610727576107266115c1565b5b888609087ffffffffffffffffffffffffffffffffffffffffffffffffffffffffefffffc2f8061075a576107596115c1565b5b848709809250819350505094509492505050565b7f483ada7726a3c4655da4fbfc0e1108a8fd17b448a68554199c47d08ffb10d4b881565b7ffffffffffffffffffffffffffffffffffffffffffffffffffffffffefffffc2f81565b6000919050565b600781565b6000807ffffffffffffffffffffffffffffffffffffffffffffffffffffffffefffffc2f806107f4576107f36115c1565b5b8487097ffffffffffffffffffffffffffffffffffffffffffffffffffffffffefffffc2f80610826576108256115c1565b5b848709809250819350505094509492505050565b6000807ffffffffffffffffffffffffffffffffffffffffffffffffffffffffefffffc2f8061086c5761086b6115c1565b5b8387097ffffffffffffffffffffffffffffffffffffffffffffffffffffffffefffffc2f8061089e5761089d6115c1565b5b858709809250819350505094509492505050565b60006109017f79be667ef9dcbbac55a06295ce870b07029bfcdb2dce28d959f2815b16f817987f483ada7726a3c4655da4fbfc0e1108a8fd17b448a68554199c47d08ffb10d4b88686866105c4565b90509392505050565b600080600061091c8487876001610b14565b809350819450829550505050610931816109fb565b90507ffffffffffffffffffffffffffffffffffffffffffffffffffffffffefffffc2f80610962576109616115c1565b5b81840992507ffffffffffffffffffffffffffffffffffffffffffffffffffffffffefffffc2f80610996576109956115c1565b5b818309915050935093915050565b6000806109f27f79be667ef9dcbbac55a06295ce870b07029bfcdb2dce28d959f2815b16f817987f483ada7726a3c4655da4fbfc0e1108a8fd17b448a68554199c47d08ffb10d4b88561090a565b91509150915091565b6000806000905060006001905060007ffffffffffffffffffffffffffffffffffffffffffffffffffffffffefffffc2f9050600085905060005b60008214610b07578183610a499190611653565b9050837ffffffffffffffffffffffffffffffffffffffffffffffffffffffffefffffc2f80610a7b57610a7a6115c1565b5b7ffffffffffffffffffffffffffffffffffffffffffffffffffffffffefffffc2f80610aaa57610aa96115c1565b5b8684097ffffffffffffffffffffffffffffffffffffffffffffffffffffffffefffffc2f610ad8919061161f565b87088095508196505050818282610aef9190611684565b84610afa919061161f565b8093508194505050610a35565b8495505050505050919050565b60008060008087905060008790506000879050600087905060008060006001905060008e03610b5457600080600199509950995050505050505050610bc5565b5b60008714610bae5760006001881614610b8357610b76838383898989610db0565b8093508194508295505050505b600287610b909190611653565b9650610b9d868686611082565b809650819750829850505050610b55565b828282809a50819b50829c50505050505050505050505b9450945094915050565b6000807ffffffffffffffffffffffffffffffffebaaedce6af48a03bbfd25e8cd03641419050808582610c02919061161f565b610c0c91906116c6565b94508080610c1d57610c1c6115c1565b5b84600060028110610c3157610c306116f7565b5b60200201518609945060018560001b6000600287600160028110610c5857610c576116f7565b5b6020020151610c6791906116c6565b03610c7357601b610c76565b601c5b86600060028110610c8a57610c896116f7565b5b602002015160001b8480610ca157610ca06115c1565b5b88600060028110610cb557610cb46116f7565b5b6020020151880960001b60405160008152602001604052604051610cdc949392919061175b565b6020604051602081039080840390855afa158015610cfe573d6000803e3d6000fd5b505050602060405103519150509392505050565b6000806000610d278787600188886001610db0565b809350819450829550505050610d3c816109fb565b90507ffffffffffffffffffffffffffffffffffffffffffffffffffffffffefffffc2f80610d6d57610d6c6115c1565b5b81840992507ffffffffffffffffffffffffffffffffffffffffffffffffffffffffefffffc2f80610da157610da06115c1565b5b81830991505094509492505050565b6000806000806000806000808d148015610dca575060008c145b15610de15789898996509650965050505050610fdc565b60008a148015610df15750600089145b15610e08578c8c8c96509650965050505050610fdc565b898d148015610e165750888c145b15610e7657610e278d8c8f8e6107c2565b8094508195505050610e3d8484600360016107c2565b8094508195505050610e538484600060016104ea565b8094508195505050610e698c8c600260016107c2565b8092508193505050610e9f565b610e8289898e8e610669565b8094508195505050610e968a898f8e610669565b80925081935050505b610eab8484848461083a565b8094508195505050610ebf848486866107c2565b8093508198505050610ed387838f8e610669565b8093508198505050610ee787838c8b610669565b8093508198505050610efb8d8c8985610669565b8092508197505050610f0f868286866107c2565b8092508197505050610f2386828e8e610669565b8092508197505050808214610fd3577ffffffffffffffffffffffffffffffffffffffffffffffffffffffffefffffc2f80610f6157610f606115c1565b5b81880996507ffffffffffffffffffffffffffffffffffffffffffffffffffffffffefffffc2f80610f9557610f946115c1565b5b82870995507ffffffffffffffffffffffffffffffffffffffffffffffffffffffffefffffc2f80610fc957610fc86115c1565b5b8183099450610fd7565b8194505b505050505b96509650969350505050565b6000806000610ffa8686866001610b14565b80935081945082955050505061100f816109fb565b90507ffffffffffffffffffffffffffffffffffffffffffffffffffffffffefffffc2f806110405761103f6115c1565b5b81840992507ffffffffffffffffffffffffffffffffffffffffffffffffffffffffefffffc2f80611074576110736115c1565b5b818309915050935093915050565b6000806000611095868686898989610db0565b80935081945082955050505093509350939050565b6000604051905090565b600080fd5b6000819050919050565b6110cc816110b9565b81146110d757600080fd5b50565b6000813590506110e9816110c3565b92915050565b60008060008060808587031215611109576111086110b4565b5b6000611117878288016110da565b9450506020611128878288016110da565b9350506040611139878288016110da565b925050606061114a878288016110da565b91505092959194509250565b61115f816110b9565b82525050565b600060408201905061117a6000830185611156565b6111876020830184611156565b9392505050565b600080600080600060a086880312156111aa576111a96110b4565b5b60006111b8888289016110da565b95505060206111c9888289016110da565b94505060406111da888289016110da565b93505060606111eb888289016110da565b92505060806111fc888289016110da565b9150509295509295909350565b60008115159050919050565b61121e81611209565b82525050565b60006020820190506112396000830184611215565b92915050565b60006020820190506112546000830184611156565b92915050565b600080fd5b6000601f19601f8301169050919050565b7f4e487b7100000000000000000000000000000000000000000000000000000000600052604160045260246000fd5b6112a88261125f565b810181811067ffffffffffffffff821117156112c7576112c6611270565b5b80604052505050565b60006112da6110aa565b90506112e6828261129f565b919050565b600067ffffffffffffffff82111561130657611305611270565b5b602082029050919050565b600080fd5b6000611329611324846112eb565b6112d0565b9050806020840283018581111561134357611342611311565b5b835b8181101561136c578061135888826110da565b845260208401935050602081019050611345565b5050509392505050565b600082601f83011261138b5761138a61125a565b5b6002611398848285611316565b91505092915050565b6000604082840312156113b7576113b66110b4565b5b60006113c584828501611376565b91505092915050565b600073ffffffffffffffffffffffffffffffffffffffff82169050919050565b60006113f9826113ce565b9050919050565b611409816113ee565b82525050565b60006020820190506114246000830184611400565b92915050565b600080600060608486031215611443576114426110b4565b5b6000611451868287016110da565b9350506020611462868287016110da565b9250506040611473868287016110da565b9150509250925092565b600060208284031215611493576114926110b4565b5b60006114a1848285016110da565b91505092915050565b60006060820190506114bf6000830186611156565b6114cc6020830185611156565b6114d96040830184611156565b949350505050565b6000806000608084860312156114fa576114f96110b4565b5b6000611508868287016110da565b935050602061151986828701611376565b925050606061152a868287016110da565b9150509250925092565b60008060008060008060c08789031215611551576115506110b4565b5b600061155f89828a016110da565b965050602061157089828a016110da565b955050604061158189828a016110da565b945050606061159289828a016110da565b93505060806115a389828a016110da565b92505060a06115b489828a016110da565b9150509295509295509295565b7f4e487b7100000000000000000000000000000000000000000000000000000000600052601260045260246000fd5b7f4e487b7100000000000000000000000000000000000000000000000000000000600052601160045260246000fd5b600061162a826110b9565b9150611635836110b9565b925082820390508181111561164d5761164c6115f0565b5b92915050565b600061165e826110b9565b9150611669836110b9565b925082611679576116786115c1565b5b828204905092915050565b600061168f826110b9565b915061169a836110b9565b92508282026116a8816110b9565b915082820484148315176116bf576116be6115f0565b5b5092915050565b60006116d1826110b9565b91506116dc836110b9565b9250826116ec576116eb6115c1565b5b828206905092915050565b7f4e487b7100000000000000000000000000000000000000000000000000000000600052603260045260246000fd5b6000819050919050565b61173981611726565b82525050565b600060ff82169050919050565b6117558161173f565b82525050565b60006080820190506117706000830187611730565b61177d602083018661174c565b61178a6040830185611730565b6117976060830184611730565b9594505050505056fea26469706673582212202fbbb2fe4785e68249b6bb35c56702a092c480650ebd3cd38b76239df05cc94664736f6c63430008120033",
			"opcodes": "PUSH2 0x17D6 PUSH2 0x53 PUSH1 0xB DUP3 DUP3 DUP3 CODECOPY DUP1 MLOAD PUSH1 0x0 BYTE PUSH1 0x73 EQ PUSH2 0x46 JUMPI PUSH32 0x4E487B7100000000000000000000000000000000000000000000000000000000 PUSH1 0x0 MSTORE PUSH1 0x0 PUSH1 0x4 MSTORE PUSH1 0x24 PUSH1 0x0 REVERT JUMPDEST ADDRESS PUSH1 0x0 MSTORE PUSH1 0x73 DUP2 MSTORE8 DUP3 DUP2 RETURN INVALID PUSH20 0x0 ADDRESS EQ PUSH1 0x80 PUSH1 0x40 MSTORE PUSH1 0x4 CALLDATASIZE LT PUSH2 0x141 JUMPI PUSH1 0x0 CALLDATALOAD PUSH1 0xE0 SHR DUP1 PUSH4 0x5F972DF8 GT PUSH2 0xC2 JUMPI DUP1 PUSH4 0x913F424C GT PUSH2 0x86 JUMPI DUP1 PUSH4 0x913F424C EQ PUSH2 0x3C2 JUMPI DUP1 PUSH4 0xA01539FC EQ PUSH2 0x3F4 JUMPI DUP1 PUSH4 0xBB8C256A EQ PUSH2 0x424 JUMPI DUP1 PUSH4 0xDB318833 EQ PUSH2 0x455 JUMPI DUP1 PUSH4 0xE241C1D9 EQ PUSH2 0x487 JUMPI DUP1 PUSH4 0xF47289E1 EQ PUSH2 0x4B8 JUMPI PUSH2 0x141 JUMP JUMPDEST DUP1 PUSH4 0x5F972DF8 EQ PUSH2 0x2CF JUMPI DUP1 PUSH4 0x66CE10B7 EQ PUSH2 0x300 JUMPI DUP1 PUSH4 0x8081A1E7 EQ PUSH2 0x330 JUMPI DUP1 PUSH4 0x8940AEBE EQ PUSH2 0x361 JUMPI DUP1 PUSH4 0x8CECF66E EQ PUSH2 0x392 JUMPI PUSH2 0x141 JUMP JUMPDEST DUP1 PUSH4 0x2D58C9A2 GT PUSH2 0x109 JUMPI DUP1 PUSH4 0x2D58C9A2 EQ PUSH2 0x214 JUMPI DUP1 PUSH4 0x2E52D606 EQ PUSH2 0x232 JUMPI DUP1 PUSH4 0x426817FA EQ PUSH2 0x250 JUMPI DUP1 PUSH4 0x4DF7E3D0 EQ PUSH2 0x280 JUMPI DUP1 PUSH4 0x5B764811 EQ PUSH2 0x29E JUMPI PUSH2 0x141 JUMP JUMPDEST DUP1 PUSH4 0x138E31B EQ PUSH2 0x146 JUMPI DUP1 PUSH4 0x22079D9 EQ PUSH2 0x177 JUMPI DUP1 PUSH4 0x6C91CE3 EQ PUSH2 0x1A7 JUMPI DUP1 PUSH4 0xDBE671F EQ PUSH2 0x1C5 JUMPI DUP1 PUSH4 0x1ECFE64D EQ PUSH2 0x1E3 JUMPI JUMPDEST PUSH1 0x0 DUP1 REVERT JUMPDEST PUSH2 0x160 PUSH1 0x4 DUP1 CALLDATASIZE SUB DUP2 ADD SWAP1 PUSH2 0x15B SWAP2 SWAP1 PUSH2 0x10EF JUMP JUMPDEST PUSH2 0x4EA JUMP JUMPDEST PUSH1 0x40 MLOAD PUSH2 0x16E SWAP3 SWAP2 SWAP1 PUSH2 0x1165 JUMP JUMPDEST PUSH1 0x40 MLOAD DUP1 SWAP2 SUB SWAP1 RETURN JUMPDEST PUSH2 0x191 PUSH1 0x4 DUP1 CALLDATASIZE SUB DUP2 ADD SWAP1 PUSH2 0x18C SWAP2 SWAP1 PUSH2 0x118E JUMP JUMPDEST PUSH2 0x5C4 JUMP JUMPDEST PUSH1 0x40 MLOAD PUSH2 0x19E SWAP2 SWAP1 PUSH2 0x1224 JUMP JUMPDEST PUSH1 0x40 MLOAD DUP1 SWAP2 SUB SWAP1 RETURN JUMPDEST PUSH2 0x1AF PUSH2 0x640 JUMP JUMPDEST PUSH1 0x40 MLOAD PUSH2 0x1BC SWAP2 SWAP1 PUSH2 0x123F JUMP JUMPDEST PUSH1 0x40 MLOAD DUP1 SWAP2 SUB SWAP1 RETURN JUMPDEST PUSH2 0x1CD PUSH2 0x664 JUMP JUMPDEST PUSH1 0x40 MLOAD PUSH2 0x1DA SWAP2 SWAP1 PUSH2 0x123F JUMP JUMPDEST PUSH1 0x40 MLOAD DUP1 SWAP2 SUB SWAP1 RETURN JUMPDEST PUSH2 0x1FD PUSH1 0x4 DUP1 CALLDATASIZE SUB DUP2 ADD SWAP1 PUSH2 0x1F8 SWAP2 SWAP1 PUSH2 0x10EF JUMP JUMPDEST PUSH2 0x669 JUMP JUMPDEST PUSH1 0x40 MLOAD PUSH2 0x20B SWAP3 SWAP2 SWAP1 PUSH2 0x1165 JUMP JUMPDEST PUSH1 0x40 MLOAD DUP1 SWAP2 SUB SWAP1 RETURN JUMPDEST PUSH2 0x21C PUSH2 0x76E JUMP JUMPDEST PUSH1 0x40 MLOAD PUSH2 0x229 SWAP2 SWAP1 PUSH2 0x123F JUMP JUMPDEST PUSH1 0x40 MLOAD DUP1 SWAP2 SUB SWAP1 RETURN JUMPDEST PUSH2 0x23A PUSH2 0x792 JUMP JUMPDEST PUSH1 0x40 MLOAD PUSH2 0x247 SWAP2 SWAP1 PUSH2 0x123F JUMP JUMPDEST PUSH1 0x40 MLOAD DUP1 SWAP2 SUB SWAP1 RETURN JUMPDEST PUSH2 0x26A PUSH1 0x4 DUP1 CALLDATASIZE SUB DUP2 ADD SWAP1 PUSH2 0x265 SWAP2 SWAP1 PUSH2 0x13A1 JUMP JUMPDEST PUSH2 0x7B6 JUMP JUMPDEST PUSH1 0x40 MLOAD PUSH2 0x277 SWAP2 SWAP1 PUSH2 0x140F JUMP JUMPDEST PUSH1 0x40 MLOAD DUP1 SWAP2 SUB SWAP1 RETURN JUMPDEST PUSH2 0x288 PUSH2 0x7BD JUMP JUMPDEST PUSH1 0x40 MLOAD PUSH2 0x295 SWAP2 SWAP1 PUSH2 0x123F JUMP JUMPDEST PUSH1 0x40 MLOAD DUP1 SWAP2 SUB SWAP1 RETURN JUMPDEST PUSH2 0x2B8 PUSH1 0x4 DUP1 CALLDATASIZE SUB DUP2 ADD SWAP1 PUSH2 0x2B3 SWAP2 SWAP1 PUSH2 0x10EF JUMP JUMPDEST PUSH2 0x7C2 JUMP JUMPDEST PUSH1 0x40 MLOAD PUSH2 0x2C6 SWAP3 SWAP2 SWAP1 PUSH2 0x1165 JUMP JUMPDEST PUSH1 0x40 MLOAD DUP1 SWAP2 SUB SWAP1 RETURN JUMPDEST PUSH2 0x2E9 PUSH1 0x4 DUP1 CALLDATASIZE SUB DUP2 ADD SWAP1 PUSH2 0x2E4 SWAP2 SWAP1 PUSH2 0x10EF JUMP JUMPDEST PUSH2 0x83A JUMP JUMPDEST PUSH1 0x40 MLOAD PUSH2 0x2F7 SWAP3 SWAP2 SWAP1 PUSH2 0x1165 JUMP JUMPDEST PUSH1 0x40 MLOAD DUP1 SWAP2 SUB SWAP1 RETURN JUMPDEST PUSH2 0x31A PUSH1 0x4 DUP1 CALLDATASIZE SUB DUP2 ADD SWAP1 PUSH2 0x315 SWAP2 SWAP1 PUSH2 0x142A JUMP JUMPDEST PUSH2 0x8B2 JUMP JUMPDEST PUSH1 0x40 MLOAD PUSH2 0x327 SWAP2 SWAP1 PUSH2 0x1224 JUMP JUMPDEST PUSH1 0x40 MLOAD DUP1 SWAP2 SUB SWAP1 RETURN JUMPDEST PUSH2 0x34A PUSH1 0x4 DUP1 CALLDATASIZE SUB DUP2 ADD SWAP1 PUSH2 0x345 SWAP2 SWAP1 PUSH2 0x142A JUMP JUMPDEST PUSH2 0x90A JUMP JUMPDEST PUSH1 0x40 MLOAD PUSH2 0x358 SWAP3 SWAP2 SWAP1 PUSH2 0x1165 JUMP JUMPDEST PUSH1 0x40 MLOAD DUP1 SWAP2 SUB SWAP1 RETURN JUMPDEST PUSH2 0x37B PUSH1 0x4 DUP1 CALLDATASIZE SUB DUP2 ADD SWAP1 PUSH2 0x376 SWAP2 SWAP1 PUSH2 0x147D JUMP JUMPDEST PUSH2 0x9A4 JUMP JUMPDEST PUSH1 0x40 MLOAD PUSH2 0x389 SWAP3 SWAP2 SWAP1 PUSH2 0x1165 JUMP JUMPDEST PUSH1 0x40 MLOAD DUP1 SWAP2 SUB SWAP1 RETURN JUMPDEST PUSH2 0x3AC PUSH1 0x4 DUP1 CALLDATASIZE SUB DUP2 ADD SWAP1 PUSH2 0x3A7 SWAP2 SWAP1 PUSH2 0x147D JUMP JUMPDEST PUSH2 0x9FB JUMP JUMPDEST PUSH1 0x40 MLOAD PUSH2 0x3B9 SWAP2 SWAP1 PUSH2 0x123F JUMP JUMPDEST PUSH1 0x40 MLOAD DUP1 SWAP2 SUB SWAP1 RETURN JUMPDEST PUSH2 0x3DC PUSH1 0x4 DUP1 CALLDATASIZE SUB DUP2 ADD SWAP1 PUSH2 0x3D7 SWAP2 SWAP1 PUSH2 0x10EF JUMP JUMPDEST PUSH2 0xB14 JUMP JUMPDEST PUSH1 0x40 MLOAD PUSH2 0x3EB SWAP4 SWAP3 SWAP2 SWAP1 PUSH2 0x14AA JUMP JUMPDEST PUSH1 0x40 MLOAD DUP1 SWAP2 SUB SWAP1 RETURN JUMPDEST PUSH2 0x40E PUSH1 0x4 DUP1 CALLDATASIZE SUB DUP2 ADD SWAP1 PUSH2 0x409 SWAP2 SWAP1 PUSH2 0x14E1 JUMP JUMPDEST PUSH2 0xBCF JUMP JUMPDEST PUSH1 0x40 MLOAD PUSH2 0x41B SWAP2 SWAP1 PUSH2 0x140F JUMP JUMPDEST PUSH1 0x40 MLOAD DUP1 SWAP2 SUB SWAP1 RETURN JUMPDEST PUSH2 0x43E PUSH1 0x4 DUP1 CALLDATASIZE SUB DUP2 ADD SWAP1 PUSH2 0x439 SWAP2 SWAP1 PUSH2 0x10EF JUMP JUMPDEST PUSH2 0xD12 JUMP JUMPDEST PUSH1 0x40 MLOAD PUSH2 0x44C SWAP3 SWAP2 SWAP1 PUSH2 0x1165 JUMP JUMPDEST PUSH1 0x40 MLOAD DUP1 SWAP2 SUB SWAP1 RETURN JUMPDEST PUSH2 0x46F PUSH1 0x4 DUP1 CALLDATASIZE SUB DUP2 ADD SWAP1 PUSH2 0x46A SWAP2 SWAP1 PUSH2 0x1534 JUMP JUMPDEST PUSH2 0xDB0 JUMP JUMPDEST PUSH1 0x40 MLOAD PUSH2 0x47E SWAP4 SWAP3 SWAP2 SWAP1 PUSH2 0x14AA JUMP JUMPDEST PUSH1 0x40 MLOAD DUP1 SWAP2 SUB SWAP1 RETURN JUMPDEST PUSH2 0x4A1 PUSH1 0x4 DUP1 CALLDATASIZE SUB DUP2 ADD SWAP1 PUSH2 0x49C SWAP2 SWAP1 PUSH2 0x142A JUMP JUMPDEST PUSH2 0xFE8 JUMP JUMPDEST PUSH1 0x40 MLOAD PUSH2 0x4AF SWAP3 SWAP2 SWAP1 PUSH2 0x1165 JUMP JUMPDEST PUSH1 0x40 MLOAD DUP1 SWAP2 SUB SWAP1 RETURN JUMPDEST PUSH2 0x4D2 PUSH1 0x4 DUP1 CALLDATASIZE SUB DUP2 ADD SWAP1 PUSH2 0x4CD SWAP2 SWAP1 PUSH2 0x142A JUMP JUMPDEST PUSH2 0x1082 JUMP JUMPDEST PUSH1 0x40 MLOAD PUSH2 0x4E1 SWAP4 SWAP3 SWAP2 SWAP1 PUSH2 0x14AA JUMP JUMPDEST PUSH1 0x40 MLOAD DUP1 SWAP2 SUB SWAP1 RETURN JUMPDEST PUSH1 0x0 DUP1 PUSH32 0xFFFFFFFFFFFFFFFFFFFFFFFFFFFFFFFFFFFFFFFFFFFFFFFFFFFFFFFEFFFFFC2F DUP1 PUSH2 0x51C JUMPI PUSH2 0x51B PUSH2 0x15C1 JUMP JUMPDEST JUMPDEST PUSH32 0xFFFFFFFFFFFFFFFFFFFFFFFFFFFFFFFFFFFFFFFFFFFFFFFFFFFFFFFEFFFFFC2F DUP1 PUSH2 0x54B JUMPI PUSH2 0x54A PUSH2 0x15C1 JUMP JUMPDEST JUMPDEST DUP7 DUP7 MULMOD PUSH32 0xFFFFFFFFFFFFFFFFFFFFFFFFFFFFFFFFFFFFFFFFFFFFFFFFFFFFFFFEFFFFFC2F DUP1 PUSH2 0x57D JUMPI PUSH2 0x57C PUSH2 0x15C1 JUMP JUMPDEST JUMPDEST DUP9 DUP7 MULMOD ADDMOD PUSH32 0xFFFFFFFFFFFFFFFFFFFFFFFFFFFFFFFFFFFFFFFFFFFFFFFFFFFFFFFEFFFFFC2F DUP1 PUSH2 0x5B0 JUMPI PUSH2 0x5AF PUSH2 0x15C1 JUMP JUMPDEST JUMPDEST DUP5 DUP8 MULMOD DUP1 SWAP3 POP DUP2 SWAP4 POP POP POP SWAP5 POP SWAP5 SWAP3 POP POP POP JUMP JUMPDEST PUSH1 0x0 DUP1 PUSH2 0x5E7 PUSH1 0x0 PUSH1 0x40 MLOAD DUP1 PUSH1 0x40 ADD PUSH1 0x40 MSTORE DUP1 DUP11 DUP2 MSTORE PUSH1 0x20 ADD DUP10 DUP2 MSTORE POP DUP8 PUSH2 0xBCF JUMP JUMPDEST SWAP1 POP DUP1 PUSH20 0xFFFFFFFFFFFFFFFFFFFFFFFFFFFFFFFFFFFFFFFF AND PUSH2 0x61D PUSH1 0x40 MLOAD DUP1 PUSH1 0x40 ADD PUSH1 0x40 MSTORE DUP1 DUP8 DUP2 MSTORE PUSH1 0x20 ADD DUP7 DUP2 MSTORE POP PUSH2 0x7B6 JUMP JUMPDEST PUSH20 0xFFFFFFFFFFFFFFFFFFFFFFFFFFFFFFFFFFFFFFFF AND EQ SWAP2 POP POP SWAP6 SWAP5 POP POP POP POP POP JUMP JUMPDEST PUSH32 0x79BE667EF9DCBBAC55A06295CE870B07029BFCDB2DCE28D959F2815B16F81798 DUP2 JUMP JUMPDEST PUSH1 0x0 DUP2 JUMP JUMPDEST PUSH1 0x0 DUP1 PUSH32 0xFFFFFFFFFFFFFFFFFFFFFFFFFFFFFFFFFFFFFFFFFFFFFFFFFFFFFFFEFFFFFC2F DUP1 PUSH2 0x69B JUMPI PUSH2 0x69A PUSH2 0x15C1 JUMP JUMPDEST JUMPDEST PUSH32 0xFFFFFFFFFFFFFFFFFFFFFFFFFFFFFFFFFFFFFFFFFFFFFFFFFFFFFFFEFFFFFC2F DUP1 PUSH2 0x6CA JUMPI PUSH2 0x6C9 PUSH2 0x15C1 JUMP JUMPDEST JUMPDEST DUP7 DUP7 PUSH32 0xFFFFFFFFFFFFFFFFFFFFFFFFFFFFFFFFFFFFFFFFFFFFFFFFFFFFFFFEFFFFFC2F PUSH2 0x6F7 SWAP2 SWAP1 PUSH2 0x161F JUMP JUMPDEST MULMOD PUSH32 0xFFFFFFFFFFFFFFFFFFFFFFFFFFFFFFFFFFFFFFFFFFFFFFFFFFFFFFFEFFFFFC2F DUP1 PUSH2 0x727 JUMPI PUSH2 0x726 PUSH2 0x15C1 JUMP JUMPDEST JUMPDEST DUP9 DUP7 MULMOD ADDMOD PUSH32 0xFFFFFFFFFFFFFFFFFFFFFFFFFFFFFFFFFFFFFFFFFFFFFFFFFFFFFFFEFFFFFC2F DUP1 PUSH2 0x75A JUMPI PUSH2 0x759 PUSH2 0x15C1 JUMP JUMPDEST JUMPDEST DUP5 DUP8 MULMOD DUP1 SWAP3 POP DUP2 SWAP4 POP POP POP SWAP5 POP SWAP5 SWAP3 POP POP POP JUMP JUMPDEST PUSH32 0x483ADA7726A3C4655DA4FBFC0E1108A8FD17B448A68554199C47D08FFB10D4B8 DUP2 JUMP JUMPDEST PUSH32 0xFFFFFFFFFFFFFFFFFFFFFFFFFFFFFFFFFFFFFFFFFFFFFFFFFFFFFFFEFFFFFC2F DUP2 JUMP JUMPDEST PUSH1 0x0 SWAP2 SWAP1 POP JUMP JUMPDEST PUSH1 0x7 DUP2 JUMP JUMPDEST PUSH1 0x0 DUP1 PUSH32 0xFFFFFFFFFFFFFFFFFFFFFFFFFFFFFFFFFFFFFFFFFFFFFFFFFFFFFFFEFFFFFC2F DUP1 PUSH2 0x7F4 JUMPI PUSH2 0x7F3 PUSH2 0x15C1 JUMP JUMPDEST JUMPDEST DUP5 DUP8 MULMOD PUSH32 0xFFFFFFFFFFFFFFFFFFFFFFFFFFFFFFFFFFFFFFFFFFFFFFFFFFFFFFFEFFFFFC2F DUP1 PUSH2 0x826 JUMPI PUSH2 0x825 PUSH2 0x15C1 JUMP JUMPDEST JUMPDEST DUP5 DUP8 MULMOD DUP1 SWAP3 POP DUP2 SWAP4 POP POP POP SWAP5 POP SWAP5 SWAP3 POP POP POP JUMP JUMPDEST PUSH1 0x0 DUP1 PUSH32 0xFFFFFFFFFFFFFFFFFFFFFFFFFFFFFFFFFFFFFFFFFFFFFFFFFFFFFFFEFFFFFC2F DUP1 PUSH2 0x86C JUMPI PUSH2 0x86B PUSH2 0x15C1 JUMP JUMPDEST JUMPDEST DUP4 DUP8 MULMOD PUSH32 0xFFFFFFFFFFFFFFFFFFFFFFFFFFFFFFFFFFFFFFFFFFFFFFFFFFFFFFFEFFFFFC2F DUP1 PUSH2 0x89E JUMPI PUSH2 0x89D PUSH2 0x15C1 JUMP JUMPDEST JUMPDEST DUP6 DUP8 MULMOD DUP1 SWAP3 POP DUP2 SWAP4 POP POP POP SWAP5 POP SWAP5 SWAP3 POP POP POP JUMP JUMPDEST PUSH1 0x0 PUSH2 0x901 PUSH32 0x79BE667EF9DCBBAC55A06295CE870B07029BFCDB2DCE28D959F2815B16F81798 PUSH32 0x483ADA7726A3C4655DA4FBFC0E1108A8FD17B448A68554199C47D08FFB10D4B8 DUP7 DUP7 DUP7 PUSH2 0x5C4 JUMP JUMPDEST SWAP1 POP SWAP4 SWAP3 POP POP POP JUMP JUMPDEST PUSH1 0x0 DUP1 PUSH1 0x0 PUSH2 0x91C DUP5 DUP8 DUP8 PUSH1 0x1 PUSH2 0xB14 JUMP JUMPDEST DUP1 SWAP4 POP DUP2 SWAP5 POP DUP3 SWAP6 POP POP POP POP PUSH2 0x931 DUP2 PUSH2 0x9FB JUMP JUMPDEST SWAP1 POP PUSH32 0xFFFFFFFFFFFFFFFFFFFFFFFFFFFFFFFFFFFFFFFFFFFFFFFFFFFFFFFEFFFFFC2F DUP1 PUSH2 0x962 JUMPI PUSH2 0x961 PUSH2 0x15C1 JUMP JUMPDEST JUMPDEST DUP2 DUP5 MULMOD SWAP3 POP PUSH32 0xFFFFFFFFFFFFFFFFFFFFFFFFFFFFFFFFFFFFFFFFFFFFFFFFFFFFFFFEFFFFFC2F DUP1 PUSH2 0x996 JUMPI PUSH2 0x995 PUSH2 0x15C1 JUMP JUMPDEST JUMPDEST DUP2 DUP4 MULMOD SWAP2 POP POP SWAP4 POP SWAP4 SWAP2 POP POP JUMP JUMPDEST PUSH1 0x0 DUP1 PUSH2 0x9F2 PUSH32 0x79BE667EF9DCBBAC55A06295CE870B07029BFCDB2DCE28D959F2815B16F81798 PUSH32 0x483ADA7726A3C4655DA4FBFC0E1108A8FD17B448A68554199C47D08FFB10D4B8 DUP6 PUSH2 0x90A JUMP JUMPDEST SWAP2 POP SWAP2 POP SWAP2 POP SWAP2 JUMP JUMPDEST PUSH1 0x0 DUP1 PUSH1 0x0 SWAP1 POP PUSH1 0x0 PUSH1 0x1 SWAP1 POP PUSH1 0x0 PUSH32 0xFFFFFFFFFFFFFFFFFFFFFFFFFFFFFFFFFFFFFFFFFFFFFFFFFFFFFFFEFFFFFC2F SWAP1 POP PUSH1 0x0 DUP6 SWAP1 POP PUSH1 0x0 JUMPDEST PUSH1 0x0 DUP3 EQ PUSH2 0xB07 JUMPI DUP2 DUP4 PUSH2 0xA49 SWAP2 SWAP1 PUSH2 0x1653 JUMP JUMPDEST SWAP1 POP DUP4 PUSH32 0xFFFFFFFFFFFFFFFFFFFFFFFFFFFFFFFFFFFFFFFFFFFFFFFFFFFFFFFEFFFFFC2F DUP1 PUSH2 0xA7B JUMPI PUSH2 0xA7A PUSH2 0x15C1 JUMP JUMPDEST JUMPDEST PUSH32 0xFFFFFFFFFFFFFFFFFFFFFFFFFFFFFFFFFFFFFFFFFFFFFFFFFFFFFFFEFFFFFC2F DUP1 PUSH2 0xAAA JUMPI PUSH2 0xAA9 PUSH2 0x15C1 JUMP JUMPDEST JUMPDEST DUP7 DUP5 MULMOD PUSH32 0xFFFFFFFFFFFFFFFFFFFFFFFFFFFFFFFFFFFFFFFFFFFFFFFFFFFFFFFEFFFFFC2F PUSH2 0xAD8 SWAP2 SWAP1 PUSH2 0x161F JUMP JUMPDEST DUP8 ADDMOD DUP1 SWAP6 POP DUP2 SWAP7 POP POP POP DUP2 DUP3 DUP3 PUSH2 0xAEF SWAP2 SWAP1 PUSH2 0x1684 JUMP JUMPDEST DUP5 PUSH2 0xAFA SWAP2 SWAP1 PUSH2 0x161F JUMP JUMPDEST DUP1 SWAP4 POP DUP2 SWAP5 POP POP POP PUSH2 0xA35 JUMP JUMPDEST DUP5 SWAP6 POP POP POP POP POP POP SWAP2 SWAP1 POP JUMP JUMPDEST PUSH1 0x0 DUP1 PUSH1 0x0 DUP1 DUP8 SWAP1 POP PUSH1 0x0 DUP8 SWAP1 POP PUSH1 0x0 DUP8 SWAP1 POP PUSH1 0x0 DUP8 SWAP1 POP PUSH1 0x0 DUP1 PUSH1 0x0 PUSH1 0x1 SWAP1 POP PUSH1 0x0 DUP15 SUB PUSH2 0xB54 JUMPI PUSH1 0x0 DUP1 PUSH1 0x1 SWAP10 POP SWAP10 POP SWAP10 POP POP POP POP POP POP POP POP PUSH2 0xBC5 JUMP JUMPDEST JUMPDEST PUSH1 0x0 DUP8 EQ PUSH2 0xBAE JUMPI PUSH1 0x0 PUSH1 0x1 DUP9 AND EQ PUSH2 0xB83 JUMPI PUSH2 0xB76 DUP4 DUP4 DUP4 DUP10 DUP10 DUP10 PUSH2 0xDB0 JUMP JUMPDEST DUP1 SWAP4 POP DUP2 SWAP5 POP DUP3 SWAP6 POP POP POP POP JUMPDEST PUSH1 0x2 DUP8 PUSH2 0xB90 SWAP2 SWAP1 PUSH2 0x1653 JUMP JUMPDEST SWAP7 POP PUSH2 0xB9D DUP7 DUP7 DUP7 PUSH2 0x1082 JUMP JUMPDEST DUP1 SWAP7 POP DUP2 SWAP8 POP DUP3 SWAP9 POP POP POP POP PUSH2 0xB55 JUMP JUMPDEST DUP3 DUP3 DUP3 DUP1 SWAP11 POP DUP2 SWAP12 POP DUP3 SWAP13 POP POP POP POP POP POP POP POP POP POP POP JUMPDEST SWAP5 POP SWAP5 POP SWAP5 SWAP2 POP POP JUMP JUMPDEST PUSH1 0x0 DUP1 PUSH32 0xFFFFFFFFFFFFFFFFFFFFFFFFFFFFFFFEBAAEDCE6AF48A03BBFD25E8CD0364141 SWAP1 POP DUP1 DUP6 DUP3 PUSH2 0xC02 SWAP2 SWAP1 PUSH2 0x161F JUMP JUMPDEST PUSH2 0xC0C SWAP2 SWAP1 PUSH2 0x16C6 JUMP JUMPDEST SWAP5 POP DUP1 DUP1 PUSH2 0xC1D JUMPI PUSH2 0xC1C PUSH2 0x15C1 JUMP JUMPDEST JUMPDEST DUP5 PUSH1 0x0 PUSH1 0x2 DUP2 LT PUSH2 0xC31 JUMPI PUSH2 0xC30 PUSH2 0x16F7 JUMP JUMPDEST JUMPDEST PUSH1 0x20 MUL ADD MLOAD DUP7 MULMOD SWAP5 POP PUSH1 0x1 DUP6 PUSH1 0x0 SHL PUSH1 0x0 PUSH1 0x2 DUP8 PUSH1 0x1 PUSH1 0x2 DUP2 LT PUSH2 0xC58 JUMPI PUSH2 0xC57 PUSH2 0x16F7 JUMP JUMPDEST JUMPDEST PUSH1 0x20 MUL ADD MLOAD PUSH2 0xC67 SWAP2 SWAP1 PUSH2 0x16C6 JUMP JUMPDEST SUB PUSH2 0xC73 JUMPI PUSH1 0x1B PUSH2 0xC76 JUMP JUMPDEST PUSH1 0x1C JUMPDEST DUP7 PUSH1 0x0 PUSH1 0x2 DUP2 LT PUSH2 0xC8A JUMPI PUSH2 0xC89 PUSH2 0x16F7 JUMP JUMPDEST JUMPDEST PUSH1 0x20 MUL ADD MLOAD PUSH1 0x0 SHL DUP5 DUP1 PUSH2 0xCA1 JUMPI PUSH2 0xCA0 PUSH2 0x15C1 JUMP JUMPDEST JUMPDEST DUP9 PUSH1 0x0 PUSH1 0x2 DUP2 LT PUSH2 0xCB5 JUMPI PUSH2 0xCB4 PUSH2 0x16F7 JUMP JUMPDEST JUMPDEST PUSH1 0x20 MUL ADD MLOAD DUP9 MULMOD PUSH1 0x0 SHL PUSH1 0x40 MLOAD PUSH1 0x0 DUP2 MSTORE PUSH1 0x20 ADD PUSH1 0x40 MSTORE PUSH1 0x40 MLOAD PUSH2 0xCDC SWAP5 SWAP4 SWAP3 SWAP2 SWAP1 PUSH2 0x175B JUMP JUMPDEST PUSH1 0x20 PUSH1 0x40 MLOAD PUSH1 0x20 DUP2 SUB SWAP1 DUP1 DUP5 SUB SWAP1 DUP6 GAS STATICCALL ISZERO DUP1 ISZERO PUSH2 0xCFE JUMPI RETURNDATASIZE PUSH1 0x0 DUP1 RETURNDATACOPY RETURNDATASIZE PUSH1 0x0 REVERT JUMPDEST POP POP POP PUSH1 0x20 PUSH1 0x40 MLOAD SUB MLOAD SWAP2 POP POP SWAP4 SWAP3 POP POP POP JUMP JUMPDEST PUSH1 0x0 DUP1 PUSH1 0x0 PUSH2 0xD27 DUP8 DUP8 PUSH1 0x1 DUP9 DUP9 PUSH1 0x1 PUSH2 0xDB0 JUMP JUMPDEST DUP1 SWAP4 POP DUP2 SWAP5 POP DUP3 SWAP6 POP POP POP POP PUSH2 0xD3C DUP2 PUSH2 0x9FB JUMP JUMPDEST SWAP1 POP PUSH32 0xFFFFFFFFFFFFFFFFFFFFFFFFFFFFFFFFFFFFFFFFFFFFFFFFFFFFFFFEFFFFFC2F DUP1 PUSH2 0xD6D JUMPI PUSH2 0xD6C PUSH2 0x15C1 JUMP JUMPDEST JUMPDEST DUP2 DUP5 MULMOD SWAP3 POP PUSH32 0xFFFFFFFFFFFFFFFFFFFFFFFFFFFFFFFFFFFFFFFFFFFFFFFFFFFFFFFEFFFFFC2F DUP1 PUSH2 0xDA1 JUMPI PUSH2 0xDA0 PUSH2 0x15C1 JUMP JUMPDEST JUMPDEST DUP2 DUP4 MULMOD SWAP2 POP POP SWAP5 POP SWAP5 SWAP3 POP POP POP JUMP JUMPDEST PUSH1 0x0 DUP1 PUSH1 0x0 DUP1 PUSH1 0x0 DUP1 PUSH1 0x0 DUP1 DUP14 EQ DUP1 ISZERO PUSH2 0xDCA JUMPI POP PUSH1 0x0 DUP13 EQ JUMPDEST ISZERO PUSH2 0xDE1 JUMPI DUP10 DUP10 DUP10 SWAP7 POP SWAP7 POP SWAP7 POP POP POP POP POP PUSH2 0xFDC JUMP JUMPDEST PUSH1 0x0 DUP11 EQ DUP1 ISZERO PUSH2 0xDF1 JUMPI POP PUSH1 0x0 DUP10 EQ JUMPDEST ISZERO PUSH2 0xE08 JUMPI DUP13 DUP13 DUP13 SWAP7 POP SWAP7 POP SWAP7 POP POP POP POP POP PUSH2 0xFDC JUMP JUMPDEST DUP10 DUP14 EQ DUP1 ISZERO PUSH2 0xE16 JUMPI POP DUP9 DUP13 EQ JUMPDEST ISZERO PUSH2 0xE76 JUMPI PUSH2 0xE27 DUP14 DUP13 DUP16 DUP15 PUSH2 0x7C2 JUMP JUMPDEST DUP1 SWAP5 POP DUP2 SWAP6 POP POP POP PUSH2 0xE3D DUP5 DUP5 PUSH1 0x3 PUSH1 0x1 PUSH2 0x7C2 JUMP JUMPDEST DUP1 SWAP5 POP DUP2 SWAP6 POP POP POP PUSH2 0xE53 DUP5 DUP5 PUSH1 0x0 PUSH1 0x1 PUSH2 0x4EA JUMP JUMPDEST DUP1 SWAP5 POP DUP2 SWAP6 POP POP POP PUSH2 0xE69 DUP13 DUP13 PUSH1 0x2 PUSH1 0x1 PUSH2 0x7C2 JUMP JUMPDEST DUP1 SWAP3 POP DUP2 SWAP4 POP POP POP PUSH2 0xE9F JUMP JUMPDEST PUSH2 0xE82 DUP10 DUP10 DUP15 DUP15 PUSH2 0x669 JUMP JUMPDEST DUP1 SWAP5 POP DUP2 SWAP6 POP POP POP PUSH2 0xE96 DUP11 DUP10 DUP16 DUP15 PUSH2 0x669 JUMP JUMPDEST DUP1 SWAP3 POP DUP2 SWAP4 POP POP POP JUMPDEST PUSH2 0xEAB DUP5 DUP5 DUP5 DUP5 PUSH2 0x83A JUMP JUMPDEST DUP1 SWAP5 POP DUP2 SWAP6 POP POP POP PUSH2 0xEBF DUP5 DUP5 DUP7 DUP7 PUSH2 0x7C2 JUMP JUMPDEST DUP1 SWAP4 POP DUP2 SWAP9 POP POP POP PUSH2 0xED3 DUP8 DUP4 DUP16 DUP15 PUSH2 0x669 JUMP JUMPDEST DUP1 SWAP4 POP DUP2 SWAP9 POP POP POP PUSH2 0xEE7 DUP8 DUP4 DUP13 DUP12 PUSH2 0x669 JUMP JUMPDEST DUP1 SWAP4 POP DUP2 SWAP9 POP POP POP PUSH2 0xEFB DUP14 DUP13 DUP10 DUP6 PUSH2 0x669 JUMP JUMPDEST DUP1 SWAP3 POP DUP2 SWAP8 POP POP POP PUSH2 0xF0F DUP7 DUP3 DUP7 DUP7 PUSH2 0x7C2 JUMP JUMPDEST DUP1 SWAP3 POP DUP2 SWAP8 POP POP POP PUSH2 0xF23 DUP7 DUP3 DUP15 DUP15 PUSH2 0x669 JUMP JUMPDEST DUP1 SWAP3 POP DUP2 SWAP8 POP POP POP DUP1 DUP3 EQ PUSH2 0xFD3 JUMPI PUSH32 0xFFFFFFFFFFFFFFFFFFFFFFFFFFFFFFFFFFFFFFFFFFFFFFFFFFFFFFFEFFFFFC2F DUP1 PUSH2 0xF61 JUMPI PUSH2 0xF60 PUSH2 0x15C1 JUMP JUMPDEST JUMPDEST DUP2 DUP9 MULMOD SWAP7 POP PUSH32 0xFFFFFFFFFFFFFFFFFFFFFFFFFFFFFFFFFFFFFFFFFFFFFFFFFFFFFFFEFFFFFC2F DUP1 PUSH2 0xF95 JUMPI PUSH2 0xF94 PUSH2 0x15C1 JUMP JUMPDEST JUMPDEST DUP3 DUP8 MULMOD SWAP6 POP PUSH32 0xFFFFFFFFFFFFFFFFFFFFFFFFFFFFFFFFFFFFFFFFFFFFFFFFFFFFFFFEFFFFFC2F DUP1 PUSH2 0xFC9 JUMPI PUSH2 0xFC8 PUSH2 0x15C1 JUMP JUMPDEST JUMPDEST DUP2 DUP4 MULMOD SWAP5 POP PUSH2 0xFD7 JUMP JUMPDEST DUP2 SWAP5 POP JUMPDEST POP POP POP POP JUMPDEST SWAP7 POP SWAP7 POP SWAP7 SWAP4 POP POP POP POP JUMP JUMPDEST PUSH1 0x0 DUP1 PUSH1 0x0 PUSH2 0xFFA DUP7 DUP7 DUP7 PUSH1 0x1 PUSH2 0xB14 JUMP JUMPDEST DUP1 SWAP4 POP DUP2 SWAP5 POP DUP3 SWAP6 POP POP POP POP PUSH2 0x100F DUP2 PUSH2 0x9FB JUMP JUMPDEST SWAP1 POP PUSH32 0xFFFFFFFFFFFFFFFFFFFFFFFFFFFFFFFFFFFFFFFFFFFFFFFFFFFFFFFEFFFFFC2F DUP1 PUSH2 0x1040 JUMPI PUSH2 0x103F PUSH2 0x15C1 JUMP JUMPDEST JUMPDEST DUP2 DUP5 MULMOD SWAP3 POP PUSH32 0xFFFFFFFFFFFFFFFFFFFFFFFFFFFFFFFFFFFFFFFFFFFFFFFFFFFFFFFEFFFFFC2F DUP1 PUSH2 0x1074 JUMPI PUSH2 0x1073 PUSH2 0x15C1 JUMP JUMPDEST JUMPDEST DUP2 DUP4 MULMOD SWAP2 POP POP SWAP4 POP SWAP4 SWAP2 POP POP JUMP JUMPDEST PUSH1 0x0 DUP1 PUSH1 0x0 PUSH2 0x1095 DUP7 DUP7 DUP7 DUP10 DUP10 DUP10 PUSH2 0xDB0 JUMP JUMPDEST DUP1 SWAP4 POP DUP2 SWAP5 POP DUP3 SWAP6 POP POP POP POP SWAP4 POP SWAP4 POP SWAP4 SWAP1 POP JUMP JUMPDEST PUSH1 0x0 PUSH1 0x40 MLOAD SWAP1 POP SWAP1 JUMP JUMPDEST PUSH1 0x0 DUP1 REVERT JUMPDEST PUSH1 0x0 DUP2 SWAP1 POP SWAP2 SWAP1 POP JUMP JUMPDEST PUSH2 0x10CC DUP2 PUSH2 0x10B9 JUMP JUMPDEST DUP2 EQ PUSH2 0x10D7 JUMPI PUSH1 0x0 DUP1 REVERT JUMPDEST POP JUMP JUMPDEST PUSH1 0x0 DUP2 CALLDATALOAD SWAP1 POP PUSH2 0x10E9 DUP2 PUSH2 0x10C3 JUMP JUMPDEST SWAP3 SWAP2 POP POP JUMP JUMPDEST PUSH1 0x0 DUP1 PUSH1 0x0 DUP1 PUSH1 0x80 DUP6 DUP8 SUB SLT ISZERO PUSH2 0x1109 JUMPI PUSH2 0x1108 PUSH2 0x10B4 JUMP JUMPDEST JUMPDEST PUSH1 0x0 PUSH2 0x1117 DUP8 DUP3 DUP9 ADD PUSH2 0x10DA JUMP JUMPDEST SWAP5 POP POP PUSH1 0x20 PUSH2 0x1128 DUP8 DUP3 DUP9 ADD PUSH2 0x10DA JUMP JUMPDEST SWAP4 POP POP PUSH1 0x40 PUSH2 0x1139 DUP8 DUP3 DUP9 ADD PUSH2 0x10DA JUMP JUMPDEST SWAP3 POP POP PUSH1 0x60 PUSH2 0x114A DUP8 DUP3 DUP9 ADD PUSH2 0x10DA JUMP JUMPDEST SWAP2 POP POP SWAP3 SWAP6 SWAP2 SWAP5 POP SWAP3 POP JUMP JUMPDEST PUSH2 0x115F DUP2 PUSH2 0x10B9 JUMP JUMPDEST DUP3 MSTORE POP POP JUMP JUMPDEST PUSH1 0x0 PUSH1 0x40 DUP3 ADD SWAP1 POP PUSH2 0x117A PUSH1 0x0 DUP4 ADD DUP6 PUSH2 0x1156 JUMP JUMPDEST PUSH2 0x1187 PUSH1 0x20 DUP4 ADD DUP5 PUSH2 0x1156 JUMP JUMPDEST SWAP4 SWAP3 POP POP POP JUMP JUMPDEST PUSH1 0x0 DUP1 PUSH1 0x0 DUP1 PUSH1 0x0 PUSH1 0xA0 DUP7 DUP9 SUB SLT ISZERO PUSH2 0x11AA JUMPI PUSH2 0x11A9 PUSH2 0x10B4 JUMP JUMPDEST JUMPDEST PUSH1 0x0 PUSH2 0x11B8 DUP9 DUP3 DUP10 ADD PUSH2 0x10DA JUMP JUMPDEST SWAP6 POP POP PUSH1 0x20 PUSH2 0x11C9 DUP9 DUP3 DUP10 ADD PUSH2 0x10DA JUMP JUMPDEST SWAP5 POP POP PUSH1 0x40 PUSH2 0x11DA DUP9 DUP3 DUP10 ADD PUSH2 0x10DA JUMP JUMPDEST SWAP4 POP POP PUSH1 0x60 PUSH2 0x11EB DUP9 DUP3 DUP10 ADD PUSH2 0x10DA JUMP JUMPDEST SWAP3 POP POP PUSH1 0x80 PUSH2 0x11FC DUP9 DUP3 DUP10 ADD PUSH2 0x10DA JUMP JUMPDEST SWAP2 POP POP SWAP3 SWAP6 POP SWAP3 SWAP6 SWAP1 SWAP4 POP JUMP JUMPDEST PUSH1 0x0 DUP2 ISZERO ISZERO SWAP1 POP SWAP2 SWAP1 POP JUMP JUMPDEST PUSH2 0x121E DUP2 PUSH2 0x1209 JUMP JUMPDEST DUP3 MSTORE POP POP JUMP JUMPDEST PUSH1 0x0 PUSH1 0x20 DUP3 ADD SWAP1 POP PUSH2 0x1239 PUSH1 0x0 DUP4 ADD DUP5 PUSH2 0x1215 JUMP JUMPDEST SWAP3 SWAP2 POP POP JUMP JUMPDEST PUSH1 0x0 PUSH1 0x20 DUP3 ADD SWAP1 POP PUSH2 0x1254 PUSH1 0x0 DUP4 ADD DUP5 PUSH2 0x1156 JUMP JUMPDEST SWAP3 SWAP2 POP POP JUMP JUMPDEST PUSH1 0x0 DUP1 REVERT JUMPDEST PUSH1 0x0 PUSH1 0x1F NOT PUSH1 0x1F DUP4 ADD AND SWAP1 POP SWAP2 SWAP1 POP JUMP JUMPDEST PUSH32 0x4E487B7100000000000000000000000000000000000000000000000000000000 PUSH1 0x0 MSTORE PUSH1 0x41 PUSH1 0x4 MSTORE PUSH1 0x24 PUSH1 0x0 REVERT JUMPDEST PUSH2 0x12A8 DUP3 PUSH2 0x125F JUMP JUMPDEST DUP2 ADD DUP2 DUP2 LT PUSH8 0xFFFFFFFFFFFFFFFF DUP3 GT OR ISZERO PUSH2 0x12C7 JUMPI PUSH2 0x12C6 PUSH2 0x1270 JUMP JUMPDEST JUMPDEST DUP1 PUSH1 0x40 MSTORE POP POP POP JUMP JUMPDEST PUSH1 0x0 PUSH2 0x12DA PUSH2 0x10AA JUMP JUMPDEST SWAP1 POP PUSH2 0x12E6 DUP3 DUP3 PUSH2 0x129F JUMP JUMPDEST SWAP2 SWAP1 POP JUMP JUMPDEST PUSH1 0x0 PUSH8 0xFFFFFFFFFFFFFFFF DUP3 GT ISZERO PUSH2 0x1306 JUMPI PUSH2 0x1305 PUSH2 0x1270 JUMP JUMPDEST JUMPDEST PUSH1 0x20 DUP3 MUL SWAP1 POP SWAP2 SWAP1 POP JUMP JUMPDEST PUSH1 0x0 DUP1 REVERT JUMPDEST PUSH1 0x0 PUSH2 0x1329 PUSH2 0x1324 DUP5 PUSH2 0x12EB JUMP JUMPDEST PUSH2 0x12D0 JUMP JUMPDEST SWAP1 POP DUP1 PUSH1 0x20 DUP5 MUL DUP4 ADD DUP6 DUP2 GT ISZERO PUSH2 0x1343 JUMPI PUSH2 0x1342 PUSH2 0x1311 JUMP JUMPDEST JUMPDEST DUP4 JUMPDEST DUP2 DUP2 LT ISZERO PUSH2 0x136C JUMPI DUP1 PUSH2 0x1358 DUP9 DUP3 PUSH2 0x10DA JUMP JUMPDEST DUP5 MSTORE PUSH1 0x20 DUP5 ADD SWAP4 POP POP PUSH1 0x20 DUP2 ADD SWAP1 POP PUSH2 0x1345 JUMP JUMPDEST POP POP POP SWAP4 SWAP3 POP POP POP JUMP JUMPDEST PUSH1 0x0 DUP3 PUSH1 0x1F DUP4 ADD SLT PUSH2 0x138B JUMPI PUSH2 0x138A PUSH2 0x125A JUMP JUMPDEST JUMPDEST PUSH1 0x2 PUSH2 0x1398 DUP5 DUP3 DUP6 PUSH2 0x1316 JUMP JUMPDEST SWAP2 POP POP SWAP3 SWAP2 POP POP JUMP JUMPDEST PUSH1 0x0 PUSH1 0x40 DUP3 DUP5 SUB SLT ISZERO PUSH2 0x13B7 JUMPI PUSH2 0x13B6 PUSH2 0x10B4 JUMP JUMPDEST JUMPDEST PUSH1 0x0 PUSH2 0x13C5 DUP5 DUP3 DUP6 ADD PUSH2 0x1376 JUMP JUMPDEST SWAP2 POP POP SWAP3 SWAP2 POP POP JUMP JUMPDEST PUSH1 0x0 PUSH20 0xFFFFFFFFFFFFFFFFFFFFFFFFFFFFFFFFFFFFFFFF DUP3 AND SWAP1 POP SWAP2 SWAP1 POP JUMP JUMPDEST PUSH1 0x0 PUSH2 0x13F9 DUP3 PUSH2 0x13CE JUMP JUMPDEST SWAP1 POP SWAP2 SWAP1 POP JUMP JUMPDEST PUSH2 0x1409 DUP2 PUSH2 0x13EE JUMP JUMPDEST DUP3 MSTORE POP POP JUMP JUMPDEST PUSH1 0x0 PUSH1 0x20 DUP3 ADD SWAP1 POP PUSH2 0x1424 PUSH1 0x0 DUP4 ADD DUP5 PUSH2 0x1400 JUMP JUMPDEST SWAP3 SWAP2 POP POP JUMP JUMPDEST PUSH1 0x0 DUP1 PUSH1 0x0 PUSH1 0x60 DUP5 DUP7 SUB SLT ISZERO PUSH2 0x1443 JUMPI PUSH2 0x1442 PUSH2 0x10B4 JUMP JUMPDEST JUMPDEST PUSH1 0x0 PUSH2 0x1451 DUP7 DUP3 DUP8 ADD PUSH2 0x10DA JUMP JUMPDEST SWAP4 POP POP PUSH1 0x20 PUSH2 0x1462 DUP7 DUP3 DUP8 ADD PUSH2 0x10DA JUMP JUMPDEST SWAP3 POP POP PUSH1 0x40 PUSH2 0x1473 DUP7 DUP3 DUP8 ADD PUSH2 0x10DA JUMP JUMPDEST SWAP2 POP POP SWAP3 POP SWAP3 POP SWAP3 JUMP JUMPDEST PUSH1 0x0 PUSH1 0x20 DUP3 DUP5 SUB SLT ISZERO PUSH2 0x1493 JUMPI PUSH2 0x1492 PUSH2 0x10B4 JUMP JUMPDEST JUMPDEST PUSH1 0x0 PUSH2 0x14A1 DUP5 DUP3 DUP6 ADD PUSH2 0x10DA JUMP JUMPDEST SWAP2 POP POP SWAP3 SWAP2 POP POP JUMP JUMPDEST PUSH1 0x0 PUSH1 0x60 DUP3 ADD SWAP1 POP PUSH2 0x14BF PUSH1 0x0 DUP4 ADD DUP7 PUSH2 0x1156 JUMP JUMPDEST PUSH2 0x14CC PUSH1 0x20 DUP4 ADD DUP6 PUSH2 0x1156 JUMP JUMPDEST PUSH2 0x14D9 PUSH1 0x40 DUP4 ADD DUP5 PUSH2 0x1156 JUMP JUMPDEST SWAP5 SWAP4 POP POP POP POP JUMP JUMPDEST PUSH1 0x0 DUP1 PUSH1 0x0 PUSH1 0x80 DUP5 DUP7 SUB SLT ISZERO PUSH2 0x14FA JUMPI PUSH2 0x14F9 PUSH2 0x10B4 JUMP JUMPDEST JUMPDEST PUSH1 0x0 PUSH2 0x1508 DUP7 DUP3 DUP8 ADD PUSH2 0x10DA JUMP JUMPDEST SWAP4 POP POP PUSH1 0x20 PUSH2 0x1519 DUP7 DUP3 DUP8 ADD PUSH2 0x1376 JUMP JUMPDEST SWAP3 POP POP PUSH1 0x60 PUSH2 0x152A DUP7 DUP3 DUP8 ADD PUSH2 0x10DA JUMP JUMPDEST SWAP2 POP POP SWAP3 POP SWAP3 POP SWAP3 JUMP JUMPDEST PUSH1 0x0 DUP1 PUSH1 0x0 DUP1 PUSH1 0x0 DUP1 PUSH1 0xC0 DUP8 DUP10 SUB SLT ISZERO PUSH2 0x1551 JUMPI PUSH2 0x1550 PUSH2 0x10B4 JUMP JUMPDEST JUMPDEST PUSH1 0x0 PUSH2 0x155F DUP10 DUP3 DUP11 ADD PUSH2 0x10DA JUMP JUMPDEST SWAP7 POP POP PUSH1 0x20 PUSH2 0x1570 DUP10 DUP3 DUP11 ADD PUSH2 0x10DA JUMP JUMPDEST SWAP6 POP POP PUSH1 0x40 PUSH2 0x1581 DUP10 DUP3 DUP11 ADD PUSH2 0x10DA JUMP JUMPDEST SWAP5 POP POP PUSH1 0x60 PUSH2 0x1592 DUP10 DUP3 DUP11 ADD PUSH2 0x10DA JUMP JUMPDEST SWAP4 POP POP PUSH1 0x80 PUSH2 0x15A3 DUP10 DUP3 DUP11 ADD PUSH2 0x10DA JUMP JUMPDEST SWAP3 POP POP PUSH1 0xA0 PUSH2 0x15B4 DUP10 DUP3 DUP11 ADD PUSH2 0x10DA JUMP JUMPDEST SWAP2 POP POP SWAP3 SWAP6 POP SWAP3 SWAP6 POP SWAP3 SWAP6 JUMP JUMPDEST PUSH32 0x4E487B7100000000000000000000000000000000000000000000000000000000 PUSH1 0x0 MSTORE PUSH1 0x12 PUSH1 0x4 MSTORE PUSH1 0x24 PUSH1 0x0 REVERT JUMPDEST PUSH32 0x4E487B7100000000000000000000000000000000000000000000000000000000 PUSH1 0x0 MSTORE PUSH1 0x11 PUSH1 0x4 MSTORE PUSH1 0x24 PUSH1 0x0 REVERT JUMPDEST PUSH1 0x0 PUSH2 0x162A DUP3 PUSH2 0x10B9 JUMP JUMPDEST SWAP2 POP PUSH2 0x1635 DUP4 PUSH2 0x10B9 JUMP JUMPDEST SWAP3 POP DUP3 DUP3 SUB SWAP1 POP DUP2 DUP2 GT ISZERO PUSH2 0x164D JUMPI PUSH2 0x164C PUSH2 0x15F0 JUMP JUMPDEST JUMPDEST SWAP3 SWAP2 POP POP JUMP JUMPDEST PUSH1 0x0 PUSH2 0x165E DUP3 PUSH2 0x10B9 JUMP JUMPDEST SWAP2 POP PUSH2 0x1669 DUP4 PUSH2 0x10B9 JUMP JUMPDEST SWAP3 POP DUP3 PUSH2 0x1679 JUMPI PUSH2 0x1678 PUSH2 0x15C1 JUMP JUMPDEST JUMPDEST DUP3 DUP3 DIV SWAP1 POP SWAP3 SWAP2 POP POP JUMP JUMPDEST PUSH1 0x0 PUSH2 0x168F DUP3 PUSH2 0x10B9 JUMP JUMPDEST SWAP2 POP PUSH2 0x169A DUP4 PUSH2 0x10B9 JUMP JUMPDEST SWAP3 POP DUP3 DUP3 MUL PUSH2 0x16A8 DUP2 PUSH2 0x10B9 JUMP JUMPDEST SWAP2 POP DUP3 DUP3 DIV DUP5 EQ DUP4 ISZERO OR PUSH2 0x16BF JUMPI PUSH2 0x16BE PUSH2 0x15F0 JUMP JUMPDEST JUMPDEST POP SWAP3 SWAP2 POP POP JUMP JUMPDEST PUSH1 0x0 PUSH2 0x16D1 DUP3 PUSH2 0x10B9 JUMP JUMPDEST SWAP2 POP PUSH2 0x16DC DUP4 PUSH2 0x10B9 JUMP JUMPDEST SWAP3 POP DUP3 PUSH2 0x16EC JUMPI PUSH2 0x16EB PUSH2 0x15C1 JUMP JUMPDEST JUMPDEST DUP3 DUP3 MOD SWAP1 POP SWAP3 SWAP2 POP POP JUMP JUMPDEST PUSH32 0x4E487B7100000000000000000000000000000000000000000000000000000000 PUSH1 0x0 MSTORE PUSH1 0x32 PUSH1 0x4 MSTORE PUSH1 0x24 PUSH1 0x0 REVERT JUMPDEST PUSH1 0x0 DUP2 SWAP1 POP SWAP2 SWAP1 POP JUMP JUMPDEST PUSH2 0x1739 DUP2 PUSH2 0x1726 JUMP JUMPDEST DUP3 MSTORE POP POP JUMP JUMPDEST PUSH1 0x0 PUSH1 0xFF DUP3 AND SWAP1 POP SWAP2 SWAP1 POP JUMP JUMPDEST PUSH2 0x1755 DUP2 PUSH2 0x173F JUMP JUMPDEST DUP3 MSTORE POP POP JUMP JUMPDEST PUSH1 0x0 PUSH1 0x80 DUP3 ADD SWAP1 POP PUSH2 0x1770 PUSH1 0x0 DUP4 ADD DUP8 PUSH2 0x1730 JUMP JUMPDEST PUSH2 0x177D PUSH1 0x20 DUP4 ADD DUP7 PUSH2 0x174C JUMP JUMPDEST PUSH2 0x178A PUSH1 0x40 DUP4 ADD DUP6 PUSH2 0x1730 JUMP JUMPDEST PUSH2 0x1797 PUSH1 0x60 DUP4 ADD DUP5 PUSH2 0x1730 JUMP JUMPDEST SWAP6 SWAP5 POP POP POP POP POP JUMP INVALID LOG2 PUSH5 0x6970667358 0x22 SLT KECCAK256 0x2F 0xBB 0xB2 INVALID SELFBALANCE DUP6 0xE6 DUP3 0x49 0xB6 0xBB CALLDATALOAD 0xC5 PUSH8 0x2A092C480650EBD EXTCODECOPY 0xD3 DUP12 PUSH23 0x239DF05CC94664736F6C63430008120033000000000000 "
		},
		"gasEstimates": {
			"creation": {
				"codeDepositCost": "1220400",
				"executionCost": "1297",
				"totalCost": "1221697"
			},
			"external": {
				"_ecAdd(uint256,uint256,uint256,uint256,uint256,uint256)": "infinite",
				"_ecDouble(uint256,uint256,uint256)": "infinite",
				"_ecMul(uint256,uint256,uint256,uint256)": "infinite",
				"_inverse(uint256)": "infinite",
				"_jAdd(uint256,uint256,uint256,uint256)": "infinite",
				"_jDiv(uint256,uint256,uint256,uint256)": "infinite",
				"_jMul(uint256,uint256,uint256,uint256)": "infinite",
				"_jSub(uint256,uint256,uint256,uint256)": "infinite",
				"a()": "403",
				"b()": "402",
				"deriveKey(uint256,uint256,uint256)": "infinite",
				"ecadd(uint256,uint256,uint256,uint256)": "infinite",
				"ecmul(uint256,uint256,uint256)": "infinite",
				"ecmulVerify(uint256,uint256,uint256,uint256,uint256)": "infinite",
				"gx()": "381",
				"gy()": "336",
				"n()": "358",
				"point_hash(uint256[2])": "infinite",
				"publicKey(uint256)": "infinite",
				"publicKeyVerify(uint256,uint256,uint256)": "infinite",
				"sbmul_add_mul(uint256,uint256[2],uint256)": "infinite"
			}
		},
		"methodIdentifiers": {
			"_ecAdd(uint256,uint256,uint256,uint256,uint256,uint256)": "db318833",
			"_ecDouble(uint256,uint256,uint256)": "f47289e1",
			"_ecMul(uint256,uint256,uint256,uint256)": "913f424c",
			"_inverse(uint256)": "8cecf66e",
			"_jAdd(uint256,uint256,uint256,uint256)": "0138e31b",
			"_jDiv(uint256,uint256,uint256,uint256)": "5f972df8",
			"_jMul(uint256,uint256,uint256,uint256)": "5b764811",
			"_jSub(uint256,uint256,uint256,uint256)": "1ecfe64d",
			"a()": "0dbe671f",
			"b()": "4df7e3d0",
			"deriveKey(uint256,uint256,uint256)": "e241c1d9",
			"ecadd(uint256,uint256,uint256,uint256)": "bb8c256a",
			"ecmul(uint256,uint256,uint256)": "8081a1e7",
			"ecmulVerify(uint256,uint256,uint256,uint256,uint256)": "022079d9",
			"gx()": "06c91ce3",
			"gy()": "2d58c9a2",
			"n()": "2e52d606",
			"point_hash(uint256[2])": "426817fa",
			"publicKey(uint256)": "8940aebe",
			"publicKeyVerify(uint256,uint256,uint256)": "66ce10b7",
			"sbmul_add_mul(uint256,uint256[2],uint256)": "a01539fc"
		}
	},
	"abi": [
		{
			"inputs": [
				{
					"internalType": "uint256",
					"name": "x1",
					"type": "uint256"
				},
				{
					"internalType": "uint256",
					"name": "y1",
					"type": "uint256"
				},
				{
					"internalType": "uint256",
					"name": "z1",
					"type": "uint256"
				},
				{
					"internalType": "uint256",
					"name": "x2",
					"type": "uint256"
				},
				{
					"internalType": "uint256",
					"name": "y2",
					"type": "uint256"
				},
				{
					"internalType": "uint256",
					"name": "z2",
					"type": "uint256"
				}
			],
			"name": "_ecAdd",
			"outputs": [
				{
					"internalType": "uint256",
					"name": "x3",
					"type": "uint256"
				},
				{
					"internalType": "uint256",
					"name": "y3",
					"type": "uint256"
				},
				{
					"internalType": "uint256",
					"name": "z3",
					"type": "uint256"
				}
			],
			"stateMutability": "pure",
			"type": "function"
		},
		{
			"inputs": [
				{
					"internalType": "uint256",
					"name": "x1",
					"type": "uint256"
				},
				{
					"internalType": "uint256",
					"name": "y1",
					"type": "uint256"
				},
				{
					"internalType": "uint256",
					"name": "z1",
					"type": "uint256"
				}
			],
			"name": "_ecDouble",
			"outputs": [
				{
					"internalType": "uint256",
					"name": "x3",
					"type": "uint256"
				},
				{
					"internalType": "uint256",
					"name": "y3",
					"type": "uint256"
				},
				{
					"internalType": "uint256",
					"name": "z3",
					"type": "uint256"
				}
			],
			"stateMutability": "pure",
			"type": "function"
		},
		{
			"inputs": [
				{
					"internalType": "uint256",
					"name": "d",
					"type": "uint256"
				},
				{
					"internalType": "uint256",
					"name": "x1",
					"type": "uint256"
				},
				{
					"internalType": "uint256",
					"name": "y1",
					"type": "uint256"
				},
				{
					"internalType": "uint256",
					"name": "z1",
					"type": "uint256"
				}
			],
			"name": "_ecMul",
			"outputs": [
				{
					"internalType": "uint256",
					"name": "x3",
					"type": "uint256"
				},
				{
					"internalType": "uint256",
					"name": "y3",
					"type": "uint256"
				},
				{
					"internalType": "uint256",
					"name": "z3",
					"type": "uint256"
				}
			],
			"stateMutability": "pure",
			"type": "function"
		},
		{
			"inputs": [
				{
					"internalType": "uint256",
					"name": "val",
					"type": "uint256"
				}
			],
			"name": "_inverse",
			"outputs": [
				{
					"internalType": "uint256",
					"name": "invVal",
					"type": "uint256"
				}
			],
			"stateMutability": "pure",
			"type": "function"
		},
		{
			"inputs": [
				{
					"internalType": "uint256",
					"name": "x1",
					"type": "uint256"
				},
				{
					"internalType": "uint256",
					"name": "z1",
					"type": "uint256"
				},
				{
					"internalType": "uint256",
					"name": "x2",
					"type": "uint256"
				},
				{
					"internalType": "uint256",
					"name": "z2",
					"type": "uint256"
				}
			],
			"name": "_jAdd",
			"outputs": [
				{
					"internalType": "uint256",
					"name": "x3",
					"type": "uint256"
				},
				{
					"internalType": "uint256",
					"name": "z3",
					"type": "uint256"
				}
			],
			"stateMutability": "pure",
			"type": "function"
		},
		{
			"inputs": [
				{
					"internalType": "uint256",
					"name": "x1",
					"type": "uint256"
				},
				{
					"internalType": "uint256",
					"name": "z1",
					"type": "uint256"
				},
				{
					"internalType": "uint256",
					"name": "x2",
					"type": "uint256"
				},
				{
					"internalType": "uint256",
					"name": "z2",
					"type": "uint256"
				}
			],
			"name": "_jDiv",
			"outputs": [
				{
					"internalType": "uint256",
					"name": "x3",
					"type": "uint256"
				},
				{
					"internalType": "uint256",
					"name": "z3",
					"type": "uint256"
				}
			],
			"stateMutability": "pure",
			"type": "function"
		},
		{
			"inputs": [
				{
					"internalType": "uint256",
					"name": "x1",
					"type": "uint256"
				},
				{
					"internalType": "uint256",
					"name": "z1",
					"type": "uint256"
				},
				{
					"internalType": "uint256",
					"name": "x2",
					"type": "uint256"
				},
				{
					"internalType": "uint256",
					"name": "z2",
					"type": "uint256"
				}
			],
			"name": "_jMul",
			"outputs": [
				{
					"internalType": "uint256",
					"name": "x3",
					"type": "uint256"
				},
				{
					"internalType": "uint256",
					"name": "z3",
					"type": "uint256"
				}
			],
			"stateMutability": "pure",
			"type": "function"
		},
		{
			"inputs": [
				{
					"internalType": "uint256",
					"name": "x1",
					"type": "uint256"
				},
				{
					"internalType": "uint256",
					"name": "z1",
					"type": "uint256"
				},
				{
					"internalType": "uint256",
					"name": "x2",
					"type": "uint256"
				},
				{
					"internalType": "uint256",
					"name": "z2",
					"type": "uint256"
				}
			],
			"name": "_jSub",
			"outputs": [
				{
					"internalType": "uint256",
					"name": "x3",
					"type": "uint256"
				},
				{
					"internalType": "uint256",
					"name": "z3",
					"type": "uint256"
				}
			],
			"stateMutability": "pure",
			"type": "function"
		},
		{
			"inputs": [],
			"name": "a",
			"outputs": [
				{
					"internalType": "uint256",
					"name": "",
					"type": "uint256"
				}
			],
			"stateMutability": "view",
			"type": "function"
		},
		{
			"inputs": [],
			"name": "b",
			"outputs": [
				{
					"internalType": "uint256",
					"name": "",
					"type": "uint256"
				}
			],
			"stateMutability": "view",
			"type": "function"
		},
		{
			"inputs": [
				{
					"internalType": "uint256",
					"name": "privKey",
					"type": "uint256"
				},
				{
					"internalType": "uint256",
					"name": "pubX",
					"type": "uint256"
				},
				{
					"internalType": "uint256",
					"name": "pubY",
					"type": "uint256"
				}
			],
			"name": "deriveKey",
			"outputs": [
				{
					"internalType": "uint256",
					"name": "qx",
					"type": "uint256"
				},
				{
					"internalType": "uint256",
					"name": "qy",
					"type": "uint256"
				}
			],
			"stateMutability": "pure",
			"type": "function"
		},
		{
			"inputs": [
				{
					"internalType": "uint256",
					"name": "x1",
					"type": "uint256"
				},
				{
					"internalType": "uint256",
					"name": "y1",
					"type": "uint256"
				},
				{
					"internalType": "uint256",
					"name": "x2",
					"type": "uint256"
				},
				{
					"internalType": "uint256",
					"name": "y2",
					"type": "uint256"
				}
			],
			"name": "ecadd",
			"outputs": [
				{
					"internalType": "uint256",
					"name": "x3",
					"type": "uint256"
				},
				{
					"internalType": "uint256",
					"name": "y3",
					"type": "uint256"
				}
			],
			"stateMutability": "pure",
			"type": "function"
		},
		{
			"inputs": [
				{
					"internalType": "uint256",
					"name": "x1",
					"type": "uint256"
				},
				{
					"internalType": "uint256",
					"name": "y1",
					"type": "uint256"
				},
				{
					"internalType": "uint256",
					"name": "scalar",
					"type": "uint256"
				}
			],
			"name": "ecmul",
			"outputs": [
				{
					"internalType": "uint256",
					"name": "x2",
					"type": "uint256"
				},
				{
					"internalType": "uint256",
					"name": "y2",
					"type": "uint256"
				}
			],
			"stateMutability": "pure",
			"type": "function"
		},
		{
			"inputs": [
				{
					"internalType": "uint256",
					"name": "x1",
					"type": "uint256"
				},
				{
					"internalType": "uint256",
					"name": "y1",
					"type": "uint256"
				},
				{
					"internalType": "uint256",
					"name": "scalar",
					"type": "uint256"
				},
				{
					"internalType": "uint256",
					"name": "qx",
					"type": "uint256"
				},
				{
					"internalType": "uint256",
					"name": "qy",
					"type": "uint256"
				}
			],
			"name": "ecmulVerify",
			"outputs": [
				{
					"internalType": "bool",
					"name": "",
					"type": "bool"
				}
			],
			"stateMutability": "pure",
			"type": "function"
		},
		{
			"inputs": [],
			"name": "gx",
			"outputs": [
				{
					"internalType": "uint256",
					"name": "",
					"type": "uint256"
				}
			],
			"stateMutability": "view",
			"type": "function"
		},
		{
			"inputs": [],
			"name": "gy",
			"outputs": [
				{
					"internalType": "uint256",
					"name": "",
					"type": "uint256"
				}
			],
			"stateMutability": "view",
			"type": "function"
		},
		{
			"inputs": [],
			"name": "n",
			"outputs": [
				{
					"internalType": "uint256",
					"name": "",
					"type": "uint256"
				}
			],
			"stateMutability": "view",
			"type": "function"
		},
		{
			"inputs": [
				{
					"internalType": "uint256[2]",
					"name": "point",
					"type": "uint256[2]"
				}
			],
			"name": "point_hash",
			"outputs": [
				{
					"internalType": "address",
					"name": "",
					"type": "address"
				}
			],
			"stateMutability": "pure",
			"type": "function"
		},
		{
			"inputs": [
				{
					"internalType": "uint256",
					"name": "privKey",
					"type": "uint256"
				}
			],
			"name": "publicKey",
			"outputs": [
				{
					"internalType": "uint256",
					"name": "qx",
					"type": "uint256"
				},
				{
					"internalType": "uint256",
					"name": "qy",
					"type": "uint256"
				}
			],
			"stateMutability": "pure",
			"type": "function"
		},
		{
			"inputs": [
				{
					"internalType": "uint256",
					"name": "privKey",
					"type": "uint256"
				},
				{
					"internalType": "uint256",
					"name": "x",
					"type": "uint256"
				},
				{
					"internalType": "uint256",
					"name": "y",
					"type": "uint256"
				}
			],
			"name": "publicKeyVerify",
			"outputs": [
				{
					"internalType": "bool",
					"name": "",
					"type": "bool"
				}
			],
			"stateMutability": "pure",
			"type": "function"
		},
		{
			"inputs": [
				{
					"internalType": "uint256",
					"name": "s",
					"type": "uint256"
				},
				{
					"internalType": "uint256[2]",
					"name": "B",
					"type": "uint256[2]"
				},
				{
					"internalType": "uint256",
					"name": "c",
					"type": "uint256"
				}
			],
			"name": "sbmul_add_mul",
			"outputs": [
				{
					"internalType": "address",
					"name": "",
					"type": "address"
				}
			],
			"stateMutability": "pure",
			"type": "function"
		}
	]
}