{
	"data": {
		"bytecode": {
			"linkReferences": {},
			"object": "60806040523480156200001157600080fd5b506200005e6040518060400160405280601b81526020017f4f776e657220636f6e7472616374206465706c6f7965642062793a0000000000815250336200022f60201b620018ec1760201c565b336000806101000a81548173ffffffffffffffffffffffffffffffffffffffff021916908373ffffffffffffffffffffffffffffffffffffffff16021790555060008054906101000a900473ffffffffffffffffffffffffffffffffffffffff1673ffffffffffffffffffffffffffffffffffffffff16600073ffffffffffffffffffffffffffffffffffffffff167f342827c97908e5e2f71151c08502a66d44b6f758e3ac2f1de95f02eb95f0a73560405160405180910390a360056040518060c00160405280601060000b8152602001600160000b8152602001601060000b8152602001601960000b8152602001600081526020016000815250908060018154018082558091505060019003906000526020600020906003020160009091909190915060008201518160000160006101000a81548160ff021916908360000b60ff16021790555060208201518160000160016101000a81548160ff021916908360000b60ff16021790555060408201518160000160026101000a81548160ff021916908360000b60ff16021790555060608201518160000160036101000a81548160ff021916908360000b60ff1602179055506080820151816001015560a08201518160020155505062000411565b620002d1828260405160240162000248929190620003dd565b6040516020818303038152906040527f319af333000000000000000000000000000000000000000000000000000000007bffffffffffffffffffffffffffffffffffffffffffffffffffffffff19166020820180517bffffffffffffffffffffffffffffffffffffffffffffffffffffffff8381831617835250505050620002d560201b60201c565b5050565b60008151905060006a636f6e736f6c652e6c6f679050602083016000808483855afa5050505050565b600081519050919050565b600082825260208201905092915050565b60005b838110156200033a5780820151818401526020810190506200031d565b60008484015250505050565b6000601f19601f8301169050919050565b60006200036482620002fe565b62000370818562000309565b9350620003828185602086016200031a565b6200038d8162000346565b840191505092915050565b600073ffffffffffffffffffffffffffffffffffffffff82169050919050565b6000620003c58262000398565b9050919050565b620003d781620003b8565b82525050565b60006040820190508181036000830152620003f9818562000357565b90506200040a6020830184620003cc565b9392505050565b612ac380620004216000396000f3fe6080604052600436106100c25760003560e01c8063893d20e81161007f578063d0551f1111610059578063d0551f1114610220578063d71fdd001461023c578063e30ebafd14610267578063f73e8912146102a4576100c2565b8063893d20e81461018d5780638a0d56ce146101b8578063b28b59ed146101f5576100c2565b80630dc96015146100c757806333db1a61146100f2578063564a80f91461010e5780635e44daf31461012a5780636121008c146101465780638867a4c914610162575b600080fd5b3480156100d357600080fd5b506100dc6102c0565b6040516100e99190611d80565b60405180910390f35b61010c60048036038101906101079190611e22565b610465565b005b61012860048036038101906101239190611fd0565b610838565b005b610144600480360381019061013f9190611e22565b6108dd565b005b610160600480360381019061015b9190611fd0565b610cb0565b005b34801561016e57600080fd5b50610177610d55565b6040516101849190611d80565b60405180910390f35b34801561019957600080fd5b506101a2610e82565b6040516101af919061206d565b60405180910390f35b3480156101c457600080fd5b506101df60048036038101906101da9190612088565b610eab565b6040516101ec91906120e0565b60405180910390f35b34801561020157600080fd5b5061020a611002565b6040516102179190611d80565b60405180910390f35b61023a60048036038101906102359190611e22565b61112f565b005b34801561024857600080fd5b50610251611502565b60405161025e9190612194565b60405180910390f35b34801561027357600080fd5b5061028e60048036038101906102899190612088565b611683565b60405161029b91906120e0565b60405180910390f35b6102be60048036038101906102b991906121af565b6117da565b005b606060005b6005805490508110156104615781610311600583815481106102ea576102e9612216565b5b906000526020600020906003020160000160009054906101000a900460000b60000b611988565b61034f6005848154811061032857610327612216565b5b906000526020600020906003020160000160019054906101000a900460000b60000b611988565b61038d6005858154811061036657610365612216565b5b906000526020600020906003020160000160029054906101000a900460000b60000b611988565b6103cb600586815481106103a4576103a3612216565b5b906000526020600020906003020160000160039054906101000a900460000b60000b611988565b6103f9600587815481106103e2576103e1612216565b5b906000526020600020906003020160010154611988565b610427600588815481106104105761040f612216565b5b906000526020600020906003020160020154611988565b60405160200161043d97969594939291906122cd565b60405160208183030381529060405291508080610459906123bb565b9150506102c5565b5090565b7fffffffffffffffffffffffffffffffffffffffffffffffffffffffffffffffff8112156104c8576040517f08c379a00000000000000000000000000000000000000000000000000000000081526004016104bf9061244f565b60405180910390fd5b600181131561050c576040517f08c379a00000000000000000000000000000000000000000000000000000000081526004016105039061244f565b60405180910390fd5b600060028054905011156106fc5760005b6002805490508110156106fa573373ffffffffffffffffffffffffffffffffffffffff166002828154811061055557610554612216565b5b906000526020600020906003020160000160009054906101000a900473ffffffffffffffffffffffffffffffffffffffff1673ffffffffffffffffffffffffffffffffffffffff16036106e757600281815481106105b6576105b5612216565b5b9060005260206000209060030201600101546004600183815481106105de576105dd612216565b5b9060005260206000209060030201600201548154811061060157610600612216565b5b90600052602060002090600402016002016000828254610621919061246f565b9250508190555060016004600183815481106106405761063f612216565b5b9060005260206000209060030201600201548154811061066357610662612216565b5b90600052602060002090600402016003016000828254610683919061246f565b925050819055506002818154811061069e5761069d612216565b5b9060005260206000209060030201600080820160006101000a81549073ffffffffffffffffffffffffffffffffffffffff02191690556001820160009055600282016000905550505b80806106f2906123bb565b91505061051d565b505b600060405180606001604052803373ffffffffffffffffffffffffffffffffffffffff168152602001838152602001848152509050600281908060018154018082558091505060019003906000526020600020906003020160009091909190915060008201518160000160006101000a81548173ffffffffffffffffffffffffffffffffffffffff021916908373ffffffffffffffffffffffffffffffffffffffff1602179055506020820151816001015560408201518160020155505081600484815481106107cf576107ce612216565b5b906000526020600020906004020160020160008282546107ef91906124b2565b9250508190555060016004848154811061080c5761080b612216565b5b9060005260206000209060040201600301600082825461082c91906124b2565b92505081905550505050565b600460405180608001604052808481526020018360000b81526020016000815260200160008152509080600181540180825580915050600190039060005260206000209060040201600090919091909150600082015181600001908161089e9190612702565b5060208201518160010160006101000a81548160ff021916908360000b60ff160217905550604082015181600201556060820151816003015550505050565b7fffffffffffffffffffffffffffffffffffffffffffffffffffffffffffffffff811215610940576040517f08c379a00000000000000000000000000000000000000000000000000000000081526004016109379061244f565b60405180910390fd5b6001811315610984576040517f08c379a000000000000000000000000000000000000000000000000000000000815260040161097b9061244f565b60405180910390fd5b60006001805490501115610b745760005b600180549050811015610b72573373ffffffffffffffffffffffffffffffffffffffff16600182815481106109cd576109cc612216565b5b906000526020600020906003020160000160009054906101000a900473ffffffffffffffffffffffffffffffffffffffff1673ffffffffffffffffffffffffffffffffffffffff1603610b5f5760018181548110610a2e57610a2d612216565b5b906000526020600020906003020160010154600560018381548110610a5657610a55612216565b5b90600052602060002090600302016002015481548110610a7957610a78612216565b5b90600052602060002090600302016001016000828254610a99919061246f565b925050819055506001600560018381548110610ab857610ab7612216565b5b90600052602060002090600302016002015481548110610adb57610ada612216565b5b90600052602060002090600302016002016000828254610afb919061246f565b9250508190555060018181548110610b1657610b15612216565b5b9060005260206000209060030201600080820160006101000a81549073ffffffffffffffffffffffffffffffffffffffff02191690556001820160009055600282016000905550505b8080610b6a906123bb565b915050610995565b505b600060405180606001604052803373ffffffffffffffffffffffffffffffffffffffff168152602001838152602001848152509050600181908060018154018082558091505060019003906000526020600020906003020160009091909190915060008201518160000160006101000a81548173ffffffffffffffffffffffffffffffffffffffff021916908373ffffffffffffffffffffffffffffffffffffffff160217905550602082015181600101556040820151816002015550508160058481548110610c4757610c46612216565b5b90600052602060002090600302016001016000828254610c6791906124b2565b92505081905550600160058481548110610c8457610c83612216565b5b90600052602060002090600302016002016000828254610ca491906124b2565b92505081905550505050565b600660405180608001604052808481526020018360000b815260200160008152602001600081525090806001815401808255809150506001900390600052602060002090600402016000909190919091506000820151816000019081610d169190612702565b5060208201518160010160006101000a81548160ff021916908360000b60ff160217905550604082015181600201556060820151816003015550505050565b60606000806004805490501115610e7a5760005b600480549050811015610e7857610d7f81611a16565b60048281548110610d9357610d92612216565b5b9060005260206000209060040201600001610de260048481548110610dbb57610dba612216565b5b906000526020600020906004020160010160009054906101000a900460000b60000b611988565b610e1060048581548110610df957610df8612216565b5b906000526020600020906004020160020154611988565b610e3e60048681548110610e2757610e26612216565b5b906000526020600020906004020160030154611988565b87604051602001610e5496959493929190612857565b60405160208183030381529060405292508080610e70906123bb565b915050610d69565b505b600090505090565b60008060009054906101000a900473ffffffffffffffffffffffffffffffffffffffff16905090565b600080600090506000805b600480549050811015610ff75760048181548110610ed757610ed6612216565b5b9060005260206000209060040201600001604051602001610ef891906128fa565b6040516020818303038152906040528051906020012085604051602001610f1f9190612911565b6040516020818303038152906040528051906020012003610fe457600060048281548110610f5057610f4f612216565b5b9060005260206000209060040201600301546103e860048481548110610f7957610f78612216565b5b906000526020600020906004020160020154610f959190612928565b610f9f91906129cf565b905082811315610fe25760048281548110610fbd57610fbc612216565b5b906000526020600020906004020160010160009054906101000a900460000b60000b93505b505b8080610fef906123bb565b915050610eb6565b508192505050919050565b606060008060068054905011156111275760005b6006805490508110156111255761102c81611a16565b600682815481106110405761103f612216565b5b906000526020600020906004020160000161108f6006848154811061106857611067612216565b5b906000526020600020906004020160010160009054906101000a900460000b60000b611988565b6110bd600685815481106110a6576110a5612216565b5b906000526020600020906004020160020154611988565b6110eb600686815481106110d4576110d3612216565b5b906000526020600020906004020160030154611988565b8760405160200161110196959493929190612857565b6040516020818303038152906040529250808061111d906123bb565b915050611016565b505b600090505090565b7fffffffffffffffffffffffffffffffffffffffffffffffffffffffffffffffff811215611192576040517f08c379a00000000000000000000000000000000000000000000000000000000081526004016111899061244f565b60405180910390fd5b60018113156111d6576040517f08c379a00000000000000000000000000000000000000000000000000000000081526004016111cd9061244f565b60405180910390fd5b600060038054905011156113c65760005b6003805490508110156113c4573373ffffffffffffffffffffffffffffffffffffffff166003828154811061121f5761121e612216565b5b906000526020600020906003020160000160009054906101000a900473ffffffffffffffffffffffffffffffffffffffff1673ffffffffffffffffffffffffffffffffffffffff16036113b157600381815481106112805761127f612216565b5b9060005260206000209060030201600101546006600183815481106112a8576112a7612216565b5b906000526020600020906003020160020154815481106112cb576112ca612216565b5b906000526020600020906004020160020160008282546112eb919061246f565b92505081905550600160066001838154811061130a57611309612216565b5b9060005260206000209060030201600201548154811061132d5761132c612216565b5b9060005260206000209060040201600301600082825461134d919061246f565b925050819055506003818154811061136857611367612216565b5b9060005260206000209060030201600080820160006101000a81549073ffffffffffffffffffffffffffffffffffffffff02191690556001820160009055600282016000905550505b80806113bc906123bb565b9150506111e7565b505b600060405180606001604052803373ffffffffffffffffffffffffffffffffffffffff168152602001838152602001848152509050600381908060018154018082558091505060019003906000526020600020906003020160009091909190915060008201518160000160006101000a81548173ffffffffffffffffffffffffffffffffffffffff021916908373ffffffffffffffffffffffffffffffffffffffff16021790555060208201518160010155604082015181600201555050816006848154811061149957611498612216565b5b906000526020600020906004020160020160008282546114b991906124b2565b925050819055506001600684815481106114d6576114d5612216565b5b906000526020600020906004020160030160008282546114f691906124b2565b92505081905550505050565b61150a611cb2565b600080600060058054905011156115c35760005b6005805490508110156115c15760008061158f6103e86005858154811061154857611547612216565b5b9060005260206000209060030201600101546115649190612928565b6005858154811061157857611577612216565b5b906000526020600020906003020160020154611ae4565b915091508180156115a05750848112155b156115ac578094508293505b505080806115b9906123bb565b91505061151e565b505b60009150600581815481106115db576115da612216565b5b90600052602060002090600302016040518060c00160405290816000820160009054906101000a900460000b60000b60000b81526020016000820160019054906101000a900460000b60000b60000b81526020016000820160029054906101000a900460000b60000b60000b81526020016000820160039054906101000a900460000b60000b60000b8152602001600182015481526020016002820154815250509250505090565b600080600090506000805b6006805490508110156117cf57600681815481106116af576116ae612216565b5b90600052602060002090600402016000016040516020016116d091906128fa565b60405160208183030381529060405280519060200120856040516020016116f79190612911565b60405160208183030381529060405280519060200120036117bc5760006006828154811061172857611727612216565b5b9060005260206000209060040201600301546103e86006848154811061175157611750612216565b5b90600052602060002090600402016002015461176d9190612928565b61177791906129cf565b9050828113156117ba576006828154811061179557611794612216565b5b906000526020600020906004020160010160009054906101000a900460000b60000b93505b505b80806117c7906123bb565b91505061168e565b508192505050919050565b60056040518060c001604052808660000b81526020018560000b81526020018460000b81526020018360000b8152602001600081526020016000815250908060018154018082558091505060019003906000526020600020906003020160009091909190915060008201518160000160006101000a81548160ff021916908360000b60ff16021790555060208201518160000160016101000a81548160ff021916908360000b60ff16021790555060408201518160000160026101000a81548160ff021916908360000b60ff16021790555060608201518160000160036101000a81548160ff021916908360000b60ff1602179055506080820151816001015560a08201518160020155505050505050565b6119848282604051602401611902929190612a39565b6040516020818303038152906040527f319af333000000000000000000000000000000000000000000000000000000007bffffffffffffffffffffffffffffffffffffffffffffffffffffffff19166020820180517bffffffffffffffffffffffffffffffffffffffffffffffffffffffff8381831617835250505050611b1a565b5050565b6060600082126119a757604051806020016040528060008152506119de565b6040518060400160405280600181526020017f2d000000000000000000000000000000000000000000000000000000000000008152505b6119ef6119ea84611b43565b611a16565b604051602001611a00929190612a69565b6040516020818303038152906040529050919050565b606060006001611a2584611b5f565b01905060008167ffffffffffffffff811115611a4457611a43611e6c565b5b6040519080825280601f01601f191660200182016040528015611a765781602001600182028036833780820191505090505b509050600082602001820190505b600115611ad9578080600190039150507f3031323334353637383961626364656600000000000000000000000000000000600a86061a8153600a8581611acd57611acc6129a0565b5b04945060008503611a84575b819350505050919050565b60008060008303611afb5760008091509150611b13565b6001838581611b0d57611b0c6129a0565b5b05915091505b9250929050565b60008151905060006a636f6e736f6c652e6c6f679050602083016000808483855afa5050505050565b600080821215611b565781600003611b58565b815b9050919050565b600080600090507a184f03e93ff9f4daa797ed6e38ed64bf6a1f0100000000000000008310611bbd577a184f03e93ff9f4daa797ed6e38ed64bf6a1f0100000000000000008381611bb357611bb26129a0565b5b0492506040810190505b6d04ee2d6d415b85acef81000000008310611bfa576d04ee2d6d415b85acef81000000008381611bf057611bef6129a0565b5b0492506020810190505b662386f26fc100008310611c2957662386f26fc100008381611c1f57611c1e6129a0565b5b0492506010810190505b6305f5e1008310611c52576305f5e1008381611c4857611c476129a0565b5b0492506008810190505b6127108310611c77576127108381611c6d57611c6c6129a0565b5b0492506004810190505b60648310611c9a5760648381611c9057611c8f6129a0565b5b0492506002810190505b600a8310611ca9576001810190505b80915050919050565b6040518060c001604052806000800b81526020016000800b81526020016000800b81526020016000800b815260200160008152602001600081525090565b600081519050919050565b600082825260208201905092915050565b60005b83811015611d2a578082015181840152602081019050611d0f565b60008484015250505050565b6000601f19601f8301169050919050565b6000611d5282611cf0565b611d5c8185611cfb565b9350611d6c818560208601611d0c565b611d7581611d36565b840191505092915050565b60006020820190508181036000830152611d9a8184611d47565b905092915050565b6000604051905090565b600080fd5b600080fd5b6000819050919050565b611dc981611db6565b8114611dd457600080fd5b50565b600081359050611de681611dc0565b92915050565b6000819050919050565b611dff81611dec565b8114611e0a57600080fd5b50565b600081359050611e1c81611df6565b92915050565b60008060408385031215611e3957611e38611dac565b5b6000611e4785828601611dd7565b9250506020611e5885828601611e0d565b9150509250929050565b600080fd5b600080fd5b7f4e487b7100000000000000000000000000000000000000000000000000000000600052604160045260246000fd5b611ea482611d36565b810181811067ffffffffffffffff82111715611ec357611ec2611e6c565b5b80604052505050565b6000611ed6611da2565b9050611ee28282611e9b565b919050565b600067ffffffffffffffff821115611f0257611f01611e6c565b5b611f0b82611d36565b9050602081019050919050565b82818337600083830152505050565b6000611f3a611f3584611ee7565b611ecc565b905082815260208101848484011115611f5657611f55611e67565b5b611f61848285611f18565b509392505050565b600082601f830112611f7e57611f7d611e62565b5b8135611f8e848260208601611f27565b91505092915050565b60008160000b9050919050565b611fad81611f97565b8114611fb857600080fd5b50565b600081359050611fca81611fa4565b92915050565b60008060408385031215611fe757611fe6611dac565b5b600083013567ffffffffffffffff81111561200557612004611db1565b5b61201185828601611f69565b925050602061202285828601611fbb565b9150509250929050565b600073ffffffffffffffffffffffffffffffffffffffff82169050919050565b60006120578261202c565b9050919050565b6120678161204c565b82525050565b6000602082019050612082600083018461205e565b92915050565b60006020828403121561209e5761209d611dac565b5b600082013567ffffffffffffffff8111156120bc576120bb611db1565b5b6120c884828501611f69565b91505092915050565b6120da81611dec565b82525050565b60006020820190506120f560008301846120d1565b92915050565b61210481611f97565b82525050565b61211381611dec565b82525050565b60c08201600082015161212f60008501826120fb565b50602082015161214260208501826120fb565b50604082015161215560408501826120fb565b50606082015161216860608501826120fb565b50608082015161217b608085018261210a565b5060a082015161218e60a085018261210a565b50505050565b600060c0820190506121a96000830184612119565b92915050565b600080600080608085870312156121c9576121c8611dac565b5b60006121d787828801611fbb565b94505060206121e887828801611fbb565b93505060406121f987828801611fbb565b925050606061220a87828801611fbb565b91505092959194509250565b7f4e487b7100000000000000000000000000000000000000000000000000000000600052603260045260246000fd5b600081905092915050565b600061225b82611cf0565b6122658185612245565b9350612275818560208601611d0c565b80840191505092915050565b7f2300000000000000000000000000000000000000000000000000000000000000815250565b7f7c00000000000000000000000000000000000000000000000000000000000000815250565b60006122d9828a612250565b91506122e58289612250565b91506122f082612281565b6001820191506123008288612250565b915061230b82612281565b60018201915061231b8287612250565b915061232682612281565b6001820191506123368286612250565b915061234182612281565b6001820191506123518285612250565b915061235c82612281565b60018201915061236c8284612250565b9150612377826122a7565b60018201915081905098975050505050505050565b7f4e487b7100000000000000000000000000000000000000000000000000000000600052601160045260246000fd5b60006123c682611db6565b91507fffffffffffffffffffffffffffffffffffffffffffffffffffffffffffffffff82036123f8576123f761238c565b5b600182019050919050565b7f496e76616c696420766f74650000000000000000000000000000000000000000600082015250565b6000612439600c83611cfb565b915061244482612403565b602082019050919050565b600060208201905081810360008301526124688161242c565b9050919050565b600061247a82611dec565b915061248583611dec565b92508282039050818112600084121682821360008512151617156124ac576124ab61238c565b5b92915050565b60006124bd82611dec565b91506124c883611dec565b9250828201905082811215600083121683821260008412151617156124f0576124ef61238c565b5b92915050565b7f4e487b7100000000000000000000000000000000000000000000000000000000600052602260045260246000fd5b6000600282049050600182168061253d57607f821691505b6020821081036125505761254f6124f6565b5b50919050565b60008190508160005260206000209050919050565b60006020601f8301049050919050565b600082821b905092915050565b6000600883026125b87fffffffffffffffffffffffffffffffffffffffffffffffffffffffffffffffff8261257b565b6125c2868361257b565b95508019841693508086168417925050509392505050565b6000819050919050565b60006125ff6125fa6125f584611db6565b6125da565b611db6565b9050919050565b6000819050919050565b612619836125e4565b61262d61262582612606565b848454612588565b825550505050565b600090565b612642612635565b61264d818484612610565b505050565b5b818110156126715761266660008261263a565b600181019050612653565b5050565b601f8211156126b65761268781612556565b6126908461256b565b8101602085101561269f578190505b6126b36126ab8561256b565b830182612652565b50505b505050565b600082821c905092915050565b60006126d9600019846008026126bb565b1980831691505092915050565b60006126f283836126c8565b9150826002028217905092915050565b61270b82611cf0565b67ffffffffffffffff81111561272457612723611e6c565b5b61272e8254612525565b612739828285612675565b600060209050601f83116001811461276c576000841561275a578287015190505b61276485826126e6565b8655506127cc565b601f19841661277a86612556565b60005b828110156127a25784890151825560018201915060208501945060208101905061277d565b868310156127bf57848901516127bb601f8916826126c8565b8355505b6001600288020188555050505b505050505050565b600081546127e181612525565b6127eb8186612245565b94506001821660008114612806576001811461281b5761284e565b60ff198316865281151582028601935061284e565b61282485612556565b60005b8381101561284657815481890152600182019150602081019050612827565b838801955050505b50505092915050565b60006128638289612250565b915061286e82612281565b60018201915061287e82886127d4565b915061288982612281565b6001820191506128998287612250565b91506128a482612281565b6001820191506128b48286612250565b91506128bf82612281565b6001820191506128cf8285612250565b91506128da826122a7565b6001820191506128ea8284612250565b9150819050979650505050505050565b600061290682846127d4565b915081905092915050565b600061291d8284612250565b915081905092915050565b600061293382611dec565b915061293e83611dec565b925082820261294c81611dec565b91507f800000000000000000000000000000000000000000000000000000000000000084146000841216156129845761298361238c565b5b82820584148315176129995761299861238c565b5b5092915050565b7f4e487b7100000000000000000000000000000000000000000000000000000000600052601260045260246000fd5b60006129da82611dec565b91506129e583611dec565b9250826129f5576129f46129a0565b5b600160000383147f800000000000000000000000000000000000000000000000000000000000000083141615612a2e57612a2d61238c565b5b828205905092915050565b60006040820190508181036000830152612a538185611d47565b9050612a62602083018461205e565b9392505050565b6000612a758285612250565b9150612a818284612250565b9150819050939250505056fea2646970667358221220268623c14ce6db2d09cc765182e6a90571d6b1e102743ae1b13d352fc188bfcf64736f6c63430008120033",
			"opcodes": "PUSH1 0x80 PUSH1 0x40 MSTORE CALLVALUE DUP1 ISZERO PUSH3 0x11 JUMPI PUSH1 0x0 DUP1 REVERT JUMPDEST POP PUSH3 0x5E PUSH1 0x40 MLOAD DUP1 PUSH1 0x40 ADD PUSH1 0x40 MSTORE DUP1 PUSH1 0x1B DUP2 MSTORE PUSH1 0x20 ADD PUSH32 0x4F776E657220636F6E7472616374206465706C6F7965642062793A0000000000 DUP2 MSTORE POP CALLER PUSH3 0x22F PUSH1 0x20 SHL PUSH3 0x18EC OR PUSH1 0x20 SHR JUMP JUMPDEST CALLER PUSH1 0x0 DUP1 PUSH2 0x100 EXP DUP2 SLOAD DUP2 PUSH20 0xFFFFFFFFFFFFFFFFFFFFFFFFFFFFFFFFFFFFFFFF MUL NOT AND SWAP1 DUP4 PUSH20 0xFFFFFFFFFFFFFFFFFFFFFFFFFFFFFFFFFFFFFFFF AND MUL OR SWAP1 SSTORE POP PUSH1 0x0 DUP1 SLOAD SWAP1 PUSH2 0x100 EXP SWAP1 DIV PUSH20 0xFFFFFFFFFFFFFFFFFFFFFFFFFFFFFFFFFFFFFFFF AND PUSH20 0xFFFFFFFFFFFFFFFFFFFFFFFFFFFFFFFFFFFFFFFF AND PUSH1 0x0 PUSH20 0xFFFFFFFFFFFFFFFFFFFFFFFFFFFFFFFFFFFFFFFF AND PUSH32 0x342827C97908E5E2F71151C08502A66D44B6F758E3AC2F1DE95F02EB95F0A735 PUSH1 0x40 MLOAD PUSH1 0x40 MLOAD DUP1 SWAP2 SUB SWAP1 LOG3 PUSH1 0x5 PUSH1 0x40 MLOAD DUP1 PUSH1 0xC0 ADD PUSH1 0x40 MSTORE DUP1 PUSH1 0x10 PUSH1 0x0 SIGNEXTEND DUP2 MSTORE PUSH1 0x20 ADD PUSH1 0x1 PUSH1 0x0 SIGNEXTEND DUP2 MSTORE PUSH1 0x20 ADD PUSH1 0x10 PUSH1 0x0 SIGNEXTEND DUP2 MSTORE PUSH1 0x20 ADD PUSH1 0x19 PUSH1 0x0 SIGNEXTEND DUP2 MSTORE PUSH1 0x20 ADD PUSH1 0x0 DUP2 MSTORE PUSH1 0x20 ADD PUSH1 0x0 DUP2 MSTORE POP SWAP1 DUP1 PUSH1 0x1 DUP2 SLOAD ADD DUP1 DUP3 SSTORE DUP1 SWAP2 POP POP PUSH1 0x1 SWAP1 SUB SWAP1 PUSH1 0x0 MSTORE PUSH1 0x20 PUSH1 0x0 KECCAK256 SWAP1 PUSH1 0x3 MUL ADD PUSH1 0x0 SWAP1 SWAP2 SWAP1 SWAP2 SWAP1 SWAP2 POP PUSH1 0x0 DUP3 ADD MLOAD DUP2 PUSH1 0x0 ADD PUSH1 0x0 PUSH2 0x100 EXP DUP2 SLOAD DUP2 PUSH1 0xFF MUL NOT AND SWAP1 DUP4 PUSH1 0x0 SIGNEXTEND PUSH1 0xFF AND MUL OR SWAP1 SSTORE POP PUSH1 0x20 DUP3 ADD MLOAD DUP2 PUSH1 0x0 ADD PUSH1 0x1 PUSH2 0x100 EXP DUP2 SLOAD DUP2 PUSH1 0xFF MUL NOT AND SWAP1 DUP4 PUSH1 0x0 SIGNEXTEND PUSH1 0xFF AND MUL OR SWAP1 SSTORE POP PUSH1 0x40 DUP3 ADD MLOAD DUP2 PUSH1 0x0 ADD PUSH1 0x2 PUSH2 0x100 EXP DUP2 SLOAD DUP2 PUSH1 0xFF MUL NOT AND SWAP1 DUP4 PUSH1 0x0 SIGNEXTEND PUSH1 0xFF AND MUL OR SWAP1 SSTORE POP PUSH1 0x60 DUP3 ADD MLOAD DUP2 PUSH1 0x0 ADD PUSH1 0x3 PUSH2 0x100 EXP DUP2 SLOAD DUP2 PUSH1 0xFF MUL NOT AND SWAP1 DUP4 PUSH1 0x0 SIGNEXTEND PUSH1 0xFF AND MUL OR SWAP1 SSTORE POP PUSH1 0x80 DUP3 ADD MLOAD DUP2 PUSH1 0x1 ADD SSTORE PUSH1 0xA0 DUP3 ADD MLOAD DUP2 PUSH1 0x2 ADD SSTORE POP POP PUSH3 0x411 JUMP JUMPDEST PUSH3 0x2D1 DUP3 DUP3 PUSH1 0x40 MLOAD PUSH1 0x24 ADD PUSH3 0x248 SWAP3 SWAP2 SWAP1 PUSH3 0x3DD JUMP JUMPDEST PUSH1 0x40 MLOAD PUSH1 0x20 DUP2 DUP4 SUB SUB DUP2 MSTORE SWAP1 PUSH1 0x40 MSTORE PUSH32 0x319AF33300000000000000000000000000000000000000000000000000000000 PUSH28 0xFFFFFFFFFFFFFFFFFFFFFFFFFFFFFFFFFFFFFFFFFFFFFFFFFFFFFFFF NOT AND PUSH1 0x20 DUP3 ADD DUP1 MLOAD PUSH28 0xFFFFFFFFFFFFFFFFFFFFFFFFFFFFFFFFFFFFFFFFFFFFFFFFFFFFFFFF DUP4 DUP2 DUP4 AND OR DUP4 MSTORE POP POP POP POP PUSH3 0x2D5 PUSH1 0x20 SHL PUSH1 0x20 SHR JUMP JUMPDEST POP POP JUMP JUMPDEST PUSH1 0x0 DUP2 MLOAD SWAP1 POP PUSH1 0x0 PUSH11 0x636F6E736F6C652E6C6F67 SWAP1 POP PUSH1 0x20 DUP4 ADD PUSH1 0x0 DUP1 DUP5 DUP4 DUP6 GAS STATICCALL POP POP POP POP POP JUMP JUMPDEST PUSH1 0x0 DUP2 MLOAD SWAP1 POP SWAP2 SWAP1 POP JUMP JUMPDEST PUSH1 0x0 DUP3 DUP3 MSTORE PUSH1 0x20 DUP3 ADD SWAP1 POP SWAP3 SWAP2 POP POP JUMP JUMPDEST PUSH1 0x0 JUMPDEST DUP4 DUP2 LT ISZERO PUSH3 0x33A JUMPI DUP1 DUP3 ADD MLOAD DUP2 DUP5 ADD MSTORE PUSH1 0x20 DUP2 ADD SWAP1 POP PUSH3 0x31D JUMP JUMPDEST PUSH1 0x0 DUP5 DUP5 ADD MSTORE POP POP POP POP JUMP JUMPDEST PUSH1 0x0 PUSH1 0x1F NOT PUSH1 0x1F DUP4 ADD AND SWAP1 POP SWAP2 SWAP1 POP JUMP JUMPDEST PUSH1 0x0 PUSH3 0x364 DUP3 PUSH3 0x2FE JUMP JUMPDEST PUSH3 0x370 DUP2 DUP6 PUSH3 0x309 JUMP JUMPDEST SWAP4 POP PUSH3 0x382 DUP2 DUP6 PUSH1 0x20 DUP7 ADD PUSH3 0x31A JUMP JUMPDEST PUSH3 0x38D DUP2 PUSH3 0x346 JUMP JUMPDEST DUP5 ADD SWAP2 POP POP SWAP3 SWAP2 POP POP JUMP JUMPDEST PUSH1 0x0 PUSH20 0xFFFFFFFFFFFFFFFFFFFFFFFFFFFFFFFFFFFFFFFF DUP3 AND SWAP1 POP SWAP2 SWAP1 POP JUMP JUMPDEST PUSH1 0x0 PUSH3 0x3C5 DUP3 PUSH3 0x398 JUMP JUMPDEST SWAP1 POP SWAP2 SWAP1 POP JUMP JUMPDEST PUSH3 0x3D7 DUP2 PUSH3 0x3B8 JUMP JUMPDEST DUP3 MSTORE POP POP JUMP JUMPDEST PUSH1 0x0 PUSH1 0x40 DUP3 ADD SWAP1 POP DUP2 DUP2 SUB PUSH1 0x0 DUP4 ADD MSTORE PUSH3 0x3F9 DUP2 DUP6 PUSH3 0x357 JUMP JUMPDEST SWAP1 POP PUSH3 0x40A PUSH1 0x20 DUP4 ADD DUP5 PUSH3 0x3CC JUMP JUMPDEST SWAP4 SWAP3 POP POP POP JUMP JUMPDEST PUSH2 0x2AC3 DUP1 PUSH3 0x421 PUSH1 0x0 CODECOPY PUSH1 0x0 RETURN INVALID PUSH1 0x80 PUSH1 0x40 MSTORE PUSH1 0x4 CALLDATASIZE LT PUSH2 0xC2 JUMPI PUSH1 0x0 CALLDATALOAD PUSH1 0xE0 SHR DUP1 PUSH4 0x893D20E8 GT PUSH2 0x7F JUMPI DUP1 PUSH4 0xD0551F11 GT PUSH2 0x59 JUMPI DUP1 PUSH4 0xD0551F11 EQ PUSH2 0x220 JUMPI DUP1 PUSH4 0xD71FDD00 EQ PUSH2 0x23C JUMPI DUP1 PUSH4 0xE30EBAFD EQ PUSH2 0x267 JUMPI DUP1 PUSH4 0xF73E8912 EQ PUSH2 0x2A4 JUMPI PUSH2 0xC2 JUMP JUMPDEST DUP1 PUSH4 0x893D20E8 EQ PUSH2 0x18D JUMPI DUP1 PUSH4 0x8A0D56CE EQ PUSH2 0x1B8 JUMPI DUP1 PUSH4 0xB28B59ED EQ PUSH2 0x1F5 JUMPI PUSH2 0xC2 JUMP JUMPDEST DUP1 PUSH4 0xDC96015 EQ PUSH2 0xC7 JUMPI DUP1 PUSH4 0x33DB1A61 EQ PUSH2 0xF2 JUMPI DUP1 PUSH4 0x564A80F9 EQ PUSH2 0x10E JUMPI DUP1 PUSH4 0x5E44DAF3 EQ PUSH2 0x12A JUMPI DUP1 PUSH4 0x6121008C EQ PUSH2 0x146 JUMPI DUP1 PUSH4 0x8867A4C9 EQ PUSH2 0x162 JUMPI JUMPDEST PUSH1 0x0 DUP1 REVERT JUMPDEST CALLVALUE DUP1 ISZERO PUSH2 0xD3 JUMPI PUSH1 0x0 DUP1 REVERT JUMPDEST POP PUSH2 0xDC PUSH2 0x2C0 JUMP JUMPDEST PUSH1 0x40 MLOAD PUSH2 0xE9 SWAP2 SWAP1 PUSH2 0x1D80 JUMP JUMPDEST PUSH1 0x40 MLOAD DUP1 SWAP2 SUB SWAP1 RETURN JUMPDEST PUSH2 0x10C PUSH1 0x4 DUP1 CALLDATASIZE SUB DUP2 ADD SWAP1 PUSH2 0x107 SWAP2 SWAP1 PUSH2 0x1E22 JUMP JUMPDEST PUSH2 0x465 JUMP JUMPDEST STOP JUMPDEST PUSH2 0x128 PUSH1 0x4 DUP1 CALLDATASIZE SUB DUP2 ADD SWAP1 PUSH2 0x123 SWAP2 SWAP1 PUSH2 0x1FD0 JUMP JUMPDEST PUSH2 0x838 JUMP JUMPDEST STOP JUMPDEST PUSH2 0x144 PUSH1 0x4 DUP1 CALLDATASIZE SUB DUP2 ADD SWAP1 PUSH2 0x13F SWAP2 SWAP1 PUSH2 0x1E22 JUMP JUMPDEST PUSH2 0x8DD JUMP JUMPDEST STOP JUMPDEST PUSH2 0x160 PUSH1 0x4 DUP1 CALLDATASIZE SUB DUP2 ADD SWAP1 PUSH2 0x15B SWAP2 SWAP1 PUSH2 0x1FD0 JUMP JUMPDEST PUSH2 0xCB0 JUMP JUMPDEST STOP JUMPDEST CALLVALUE DUP1 ISZERO PUSH2 0x16E JUMPI PUSH1 0x0 DUP1 REVERT JUMPDEST POP PUSH2 0x177 PUSH2 0xD55 JUMP JUMPDEST PUSH1 0x40 MLOAD PUSH2 0x184 SWAP2 SWAP1 PUSH2 0x1D80 JUMP JUMPDEST PUSH1 0x40 MLOAD DUP1 SWAP2 SUB SWAP1 RETURN JUMPDEST CALLVALUE DUP1 ISZERO PUSH2 0x199 JUMPI PUSH1 0x0 DUP1 REVERT JUMPDEST POP PUSH2 0x1A2 PUSH2 0xE82 JUMP JUMPDEST PUSH1 0x40 MLOAD PUSH2 0x1AF SWAP2 SWAP1 PUSH2 0x206D JUMP JUMPDEST PUSH1 0x40 MLOAD DUP1 SWAP2 SUB SWAP1 RETURN JUMPDEST CALLVALUE DUP1 ISZERO PUSH2 0x1C4 JUMPI PUSH1 0x0 DUP1 REVERT JUMPDEST POP PUSH2 0x1DF PUSH1 0x4 DUP1 CALLDATASIZE SUB DUP2 ADD SWAP1 PUSH2 0x1DA SWAP2 SWAP1 PUSH2 0x2088 JUMP JUMPDEST PUSH2 0xEAB JUMP JUMPDEST PUSH1 0x40 MLOAD PUSH2 0x1EC SWAP2 SWAP1 PUSH2 0x20E0 JUMP JUMPDEST PUSH1 0x40 MLOAD DUP1 SWAP2 SUB SWAP1 RETURN JUMPDEST CALLVALUE DUP1 ISZERO PUSH2 0x201 JUMPI PUSH1 0x0 DUP1 REVERT JUMPDEST POP PUSH2 0x20A PUSH2 0x1002 JUMP JUMPDEST PUSH1 0x40 MLOAD PUSH2 0x217 SWAP2 SWAP1 PUSH2 0x1D80 JUMP JUMPDEST PUSH1 0x40 MLOAD DUP1 SWAP2 SUB SWAP1 RETURN JUMPDEST PUSH2 0x23A PUSH1 0x4 DUP1 CALLDATASIZE SUB DUP2 ADD SWAP1 PUSH2 0x235 SWAP2 SWAP1 PUSH2 0x1E22 JUMP JUMPDEST PUSH2 0x112F JUMP JUMPDEST STOP JUMPDEST CALLVALUE DUP1 ISZERO PUSH2 0x248 JUMPI PUSH1 0x0 DUP1 REVERT JUMPDEST POP PUSH2 0x251 PUSH2 0x1502 JUMP JUMPDEST PUSH1 0x40 MLOAD PUSH2 0x25E SWAP2 SWAP1 PUSH2 0x2194 JUMP JUMPDEST PUSH1 0x40 MLOAD DUP1 SWAP2 SUB SWAP1 RETURN JUMPDEST CALLVALUE DUP1 ISZERO PUSH2 0x273 JUMPI PUSH1 0x0 DUP1 REVERT JUMPDEST POP PUSH2 0x28E PUSH1 0x4 DUP1 CALLDATASIZE SUB DUP2 ADD SWAP1 PUSH2 0x289 SWAP2 SWAP1 PUSH2 0x2088 JUMP JUMPDEST PUSH2 0x1683 JUMP JUMPDEST PUSH1 0x40 MLOAD PUSH2 0x29B SWAP2 SWAP1 PUSH2 0x20E0 JUMP JUMPDEST PUSH1 0x40 MLOAD DUP1 SWAP2 SUB SWAP1 RETURN JUMPDEST PUSH2 0x2BE PUSH1 0x4 DUP1 CALLDATASIZE SUB DUP2 ADD SWAP1 PUSH2 0x2B9 SWAP2 SWAP1 PUSH2 0x21AF JUMP JUMPDEST PUSH2 0x17DA JUMP JUMPDEST STOP JUMPDEST PUSH1 0x60 PUSH1 0x0 JUMPDEST PUSH1 0x5 DUP1 SLOAD SWAP1 POP DUP2 LT ISZERO PUSH2 0x461 JUMPI DUP2 PUSH2 0x311 PUSH1 0x5 DUP4 DUP2 SLOAD DUP2 LT PUSH2 0x2EA JUMPI PUSH2 0x2E9 PUSH2 0x2216 JUMP JUMPDEST JUMPDEST SWAP1 PUSH1 0x0 MSTORE PUSH1 0x20 PUSH1 0x0 KECCAK256 SWAP1 PUSH1 0x3 MUL ADD PUSH1 0x0 ADD PUSH1 0x0 SWAP1 SLOAD SWAP1 PUSH2 0x100 EXP SWAP1 DIV PUSH1 0x0 SIGNEXTEND PUSH1 0x0 SIGNEXTEND PUSH2 0x1988 JUMP JUMPDEST PUSH2 0x34F PUSH1 0x5 DUP5 DUP2 SLOAD DUP2 LT PUSH2 0x328 JUMPI PUSH2 0x327 PUSH2 0x2216 JUMP JUMPDEST JUMPDEST SWAP1 PUSH1 0x0 MSTORE PUSH1 0x20 PUSH1 0x0 KECCAK256 SWAP1 PUSH1 0x3 MUL ADD PUSH1 0x0 ADD PUSH1 0x1 SWAP1 SLOAD SWAP1 PUSH2 0x100 EXP SWAP1 DIV PUSH1 0x0 SIGNEXTEND PUSH1 0x0 SIGNEXTEND PUSH2 0x1988 JUMP JUMPDEST PUSH2 0x38D PUSH1 0x5 DUP6 DUP2 SLOAD DUP2 LT PUSH2 0x366 JUMPI PUSH2 0x365 PUSH2 0x2216 JUMP JUMPDEST JUMPDEST SWAP1 PUSH1 0x0 MSTORE PUSH1 0x20 PUSH1 0x0 KECCAK256 SWAP1 PUSH1 0x3 MUL ADD PUSH1 0x0 ADD PUSH1 0x2 SWAP1 SLOAD SWAP1 PUSH2 0x100 EXP SWAP1 DIV PUSH1 0x0 SIGNEXTEND PUSH1 0x0 SIGNEXTEND PUSH2 0x1988 JUMP JUMPDEST PUSH2 0x3CB PUSH1 0x5 DUP7 DUP2 SLOAD DUP2 LT PUSH2 0x3A4 JUMPI PUSH2 0x3A3 PUSH2 0x2216 JUMP JUMPDEST JUMPDEST SWAP1 PUSH1 0x0 MSTORE PUSH1 0x20 PUSH1 0x0 KECCAK256 SWAP1 PUSH1 0x3 MUL ADD PUSH1 0x0 ADD PUSH1 0x3 SWAP1 SLOAD SWAP1 PUSH2 0x100 EXP SWAP1 DIV PUSH1 0x0 SIGNEXTEND PUSH1 0x0 SIGNEXTEND PUSH2 0x1988 JUMP JUMPDEST PUSH2 0x3F9 PUSH1 0x5 DUP8 DUP2 SLOAD DUP2 LT PUSH2 0x3E2 JUMPI PUSH2 0x3E1 PUSH2 0x2216 JUMP JUMPDEST JUMPDEST SWAP1 PUSH1 0x0 MSTORE PUSH1 0x20 PUSH1 0x0 KECCAK256 SWAP1 PUSH1 0x3 MUL ADD PUSH1 0x1 ADD SLOAD PUSH2 0x1988 JUMP JUMPDEST PUSH2 0x427 PUSH1 0x5 DUP9 DUP2 SLOAD DUP2 LT PUSH2 0x410 JUMPI PUSH2 0x40F PUSH2 0x2216 JUMP JUMPDEST JUMPDEST SWAP1 PUSH1 0x0 MSTORE PUSH1 0x20 PUSH1 0x0 KECCAK256 SWAP1 PUSH1 0x3 MUL ADD PUSH1 0x2 ADD SLOAD PUSH2 0x1988 JUMP JUMPDEST PUSH1 0x40 MLOAD PUSH1 0x20 ADD PUSH2 0x43D SWAP8 SWAP7 SWAP6 SWAP5 SWAP4 SWAP3 SWAP2 SWAP1 PUSH2 0x22CD JUMP JUMPDEST PUSH1 0x40 MLOAD PUSH1 0x20 DUP2 DUP4 SUB SUB DUP2 MSTORE SWAP1 PUSH1 0x40 MSTORE SWAP2 POP DUP1 DUP1 PUSH2 0x459 SWAP1 PUSH2 0x23BB JUMP JUMPDEST SWAP2 POP POP PUSH2 0x2C5 JUMP JUMPDEST POP SWAP1 JUMP JUMPDEST PUSH32 0xFFFFFFFFFFFFFFFFFFFFFFFFFFFFFFFFFFFFFFFFFFFFFFFFFFFFFFFFFFFFFFFF DUP2 SLT ISZERO PUSH2 0x4C8 JUMPI PUSH1 0x40 MLOAD PUSH32 0x8C379A000000000000000000000000000000000000000000000000000000000 DUP2 MSTORE PUSH1 0x4 ADD PUSH2 0x4BF SWAP1 PUSH2 0x244F JUMP JUMPDEST PUSH1 0x40 MLOAD DUP1 SWAP2 SUB SWAP1 REVERT JUMPDEST PUSH1 0x1 DUP2 SGT ISZERO PUSH2 0x50C JUMPI PUSH1 0x40 MLOAD PUSH32 0x8C379A000000000000000000000000000000000000000000000000000000000 DUP2 MSTORE PUSH1 0x4 ADD PUSH2 0x503 SWAP1 PUSH2 0x244F JUMP JUMPDEST PUSH1 0x40 MLOAD DUP1 SWAP2 SUB SWAP1 REVERT JUMPDEST PUSH1 0x0 PUSH1 0x2 DUP1 SLOAD SWAP1 POP GT ISZERO PUSH2 0x6FC JUMPI PUSH1 0x0 JUMPDEST PUSH1 0x2 DUP1 SLOAD SWAP1 POP DUP2 LT ISZERO PUSH2 0x6FA JUMPI CALLER PUSH20 0xFFFFFFFFFFFFFFFFFFFFFFFFFFFFFFFFFFFFFFFF AND PUSH1 0x2 DUP3 DUP2 SLOAD DUP2 LT PUSH2 0x555 JUMPI PUSH2 0x554 PUSH2 0x2216 JUMP JUMPDEST JUMPDEST SWAP1 PUSH1 0x0 MSTORE PUSH1 0x20 PUSH1 0x0 KECCAK256 SWAP1 PUSH1 0x3 MUL ADD PUSH1 0x0 ADD PUSH1 0x0 SWAP1 SLOAD SWAP1 PUSH2 0x100 EXP SWAP1 DIV PUSH20 0xFFFFFFFFFFFFFFFFFFFFFFFFFFFFFFFFFFFFFFFF AND PUSH20 0xFFFFFFFFFFFFFFFFFFFFFFFFFFFFFFFFFFFFFFFF AND SUB PUSH2 0x6E7 JUMPI PUSH1 0x2 DUP2 DUP2 SLOAD DUP2 LT PUSH2 0x5B6 JUMPI PUSH2 0x5B5 PUSH2 0x2216 JUMP JUMPDEST JUMPDEST SWAP1 PUSH1 0x0 MSTORE PUSH1 0x20 PUSH1 0x0 KECCAK256 SWAP1 PUSH1 0x3 MUL ADD PUSH1 0x1 ADD SLOAD PUSH1 0x4 PUSH1 0x1 DUP4 DUP2 SLOAD DUP2 LT PUSH2 0x5DE JUMPI PUSH2 0x5DD PUSH2 0x2216 JUMP JUMPDEST JUMPDEST SWAP1 PUSH1 0x0 MSTORE PUSH1 0x20 PUSH1 0x0 KECCAK256 SWAP1 PUSH1 0x3 MUL ADD PUSH1 0x2 ADD SLOAD DUP2 SLOAD DUP2 LT PUSH2 0x601 JUMPI PUSH2 0x600 PUSH2 0x2216 JUMP JUMPDEST JUMPDEST SWAP1 PUSH1 0x0 MSTORE PUSH1 0x20 PUSH1 0x0 KECCAK256 SWAP1 PUSH1 0x4 MUL ADD PUSH1 0x2 ADD PUSH1 0x0 DUP3 DUP3 SLOAD PUSH2 0x621 SWAP2 SWAP1 PUSH2 0x246F JUMP JUMPDEST SWAP3 POP POP DUP2 SWAP1 SSTORE POP PUSH1 0x1 PUSH1 0x4 PUSH1 0x1 DUP4 DUP2 SLOAD DUP2 LT PUSH2 0x640 JUMPI PUSH2 0x63F PUSH2 0x2216 JUMP JUMPDEST JUMPDEST SWAP1 PUSH1 0x0 MSTORE PUSH1 0x20 PUSH1 0x0 KECCAK256 SWAP1 PUSH1 0x3 MUL ADD PUSH1 0x2 ADD SLOAD DUP2 SLOAD DUP2 LT PUSH2 0x663 JUMPI PUSH2 0x662 PUSH2 0x2216 JUMP JUMPDEST JUMPDEST SWAP1 PUSH1 0x0 MSTORE PUSH1 0x20 PUSH1 0x0 KECCAK256 SWAP1 PUSH1 0x4 MUL ADD PUSH1 0x3 ADD PUSH1 0x0 DUP3 DUP3 SLOAD PUSH2 0x683 SWAP2 SWAP1 PUSH2 0x246F JUMP JUMPDEST SWAP3 POP POP DUP2 SWAP1 SSTORE POP PUSH1 0x2 DUP2 DUP2 SLOAD DUP2 LT PUSH2 0x69E JUMPI PUSH2 0x69D PUSH2 0x2216 JUMP JUMPDEST JUMPDEST SWAP1 PUSH1 0x0 MSTORE PUSH1 0x20 PUSH1 0x0 KECCAK256 SWAP1 PUSH1 0x3 MUL ADD PUSH1 0x0 DUP1 DUP3 ADD PUSH1 0x0 PUSH2 0x100 EXP DUP2 SLOAD SWAP1 PUSH20 0xFFFFFFFFFFFFFFFFFFFFFFFFFFFFFFFFFFFFFFFF MUL NOT AND SWAP1 SSTORE PUSH1 0x1 DUP3 ADD PUSH1 0x0 SWAP1 SSTORE PUSH1 0x2 DUP3 ADD PUSH1 0x0 SWAP1 SSTORE POP POP JUMPDEST DUP1 DUP1 PUSH2 0x6F2 SWAP1 PUSH2 0x23BB JUMP JUMPDEST SWAP2 POP POP PUSH2 0x51D JUMP JUMPDEST POP JUMPDEST PUSH1 0x0 PUSH1 0x40 MLOAD DUP1 PUSH1 0x60 ADD PUSH1 0x40 MSTORE DUP1 CALLER PUSH20 0xFFFFFFFFFFFFFFFFFFFFFFFFFFFFFFFFFFFFFFFF AND DUP2 MSTORE PUSH1 0x20 ADD DUP4 DUP2 MSTORE PUSH1 0x20 ADD DUP5 DUP2 MSTORE POP SWAP1 POP PUSH1 0x2 DUP2 SWAP1 DUP1 PUSH1 0x1 DUP2 SLOAD ADD DUP1 DUP3 SSTORE DUP1 SWAP2 POP POP PUSH1 0x1 SWAP1 SUB SWAP1 PUSH1 0x0 MSTORE PUSH1 0x20 PUSH1 0x0 KECCAK256 SWAP1 PUSH1 0x3 MUL ADD PUSH1 0x0 SWAP1 SWAP2 SWAP1 SWAP2 SWAP1 SWAP2 POP PUSH1 0x0 DUP3 ADD MLOAD DUP2 PUSH1 0x0 ADD PUSH1 0x0 PUSH2 0x100 EXP DUP2 SLOAD DUP2 PUSH20 0xFFFFFFFFFFFFFFFFFFFFFFFFFFFFFFFFFFFFFFFF MUL NOT AND SWAP1 DUP4 PUSH20 0xFFFFFFFFFFFFFFFFFFFFFFFFFFFFFFFFFFFFFFFF AND MUL OR SWAP1 SSTORE POP PUSH1 0x20 DUP3 ADD MLOAD DUP2 PUSH1 0x1 ADD SSTORE PUSH1 0x40 DUP3 ADD MLOAD DUP2 PUSH1 0x2 ADD SSTORE POP POP DUP2 PUSH1 0x4 DUP5 DUP2 SLOAD DUP2 LT PUSH2 0x7CF JUMPI PUSH2 0x7CE PUSH2 0x2216 JUMP JUMPDEST JUMPDEST SWAP1 PUSH1 0x0 MSTORE PUSH1 0x20 PUSH1 0x0 KECCAK256 SWAP1 PUSH1 0x4 MUL ADD PUSH1 0x2 ADD PUSH1 0x0 DUP3 DUP3 SLOAD PUSH2 0x7EF SWAP2 SWAP1 PUSH2 0x24B2 JUMP JUMPDEST SWAP3 POP POP DUP2 SWAP1 SSTORE POP PUSH1 0x1 PUSH1 0x4 DUP5 DUP2 SLOAD DUP2 LT PUSH2 0x80C JUMPI PUSH2 0x80B PUSH2 0x2216 JUMP JUMPDEST JUMPDEST SWAP1 PUSH1 0x0 MSTORE PUSH1 0x20 PUSH1 0x0 KECCAK256 SWAP1 PUSH1 0x4 MUL ADD PUSH1 0x3 ADD PUSH1 0x0 DUP3 DUP3 SLOAD PUSH2 0x82C SWAP2 SWAP1 PUSH2 0x24B2 JUMP JUMPDEST SWAP3 POP POP DUP2 SWAP1 SSTORE POP POP POP POP JUMP JUMPDEST PUSH1 0x4 PUSH1 0x40 MLOAD DUP1 PUSH1 0x80 ADD PUSH1 0x40 MSTORE DUP1 DUP5 DUP2 MSTORE PUSH1 0x20 ADD DUP4 PUSH1 0x0 SIGNEXTEND DUP2 MSTORE PUSH1 0x20 ADD PUSH1 0x0 DUP2 MSTORE PUSH1 0x20 ADD PUSH1 0x0 DUP2 MSTORE POP SWAP1 DUP1 PUSH1 0x1 DUP2 SLOAD ADD DUP1 DUP3 SSTORE DUP1 SWAP2 POP POP PUSH1 0x1 SWAP1 SUB SWAP1 PUSH1 0x0 MSTORE PUSH1 0x20 PUSH1 0x0 KECCAK256 SWAP1 PUSH1 0x4 MUL ADD PUSH1 0x0 SWAP1 SWAP2 SWAP1 SWAP2 SWAP1 SWAP2 POP PUSH1 0x0 DUP3 ADD MLOAD DUP2 PUSH1 0x0 ADD SWAP1 DUP2 PUSH2 0x89E SWAP2 SWAP1 PUSH2 0x2702 JUMP JUMPDEST POP PUSH1 0x20 DUP3 ADD MLOAD DUP2 PUSH1 0x1 ADD PUSH1 0x0 PUSH2 0x100 EXP DUP2 SLOAD DUP2 PUSH1 0xFF MUL NOT AND SWAP1 DUP4 PUSH1 0x0 SIGNEXTEND PUSH1 0xFF AND MUL OR SWAP1 SSTORE POP PUSH1 0x40 DUP3 ADD MLOAD DUP2 PUSH1 0x2 ADD SSTORE PUSH1 0x60 DUP3 ADD MLOAD DUP2 PUSH1 0x3 ADD SSTORE POP POP POP POP JUMP JUMPDEST PUSH32 0xFFFFFFFFFFFFFFFFFFFFFFFFFFFFFFFFFFFFFFFFFFFFFFFFFFFFFFFFFFFFFFFF DUP2 SLT ISZERO PUSH2 0x940 JUMPI PUSH1 0x40 MLOAD PUSH32 0x8C379A000000000000000000000000000000000000000000000000000000000 DUP2 MSTORE PUSH1 0x4 ADD PUSH2 0x937 SWAP1 PUSH2 0x244F JUMP JUMPDEST PUSH1 0x40 MLOAD DUP1 SWAP2 SUB SWAP1 REVERT JUMPDEST PUSH1 0x1 DUP2 SGT ISZERO PUSH2 0x984 JUMPI PUSH1 0x40 MLOAD PUSH32 0x8C379A000000000000000000000000000000000000000000000000000000000 DUP2 MSTORE PUSH1 0x4 ADD PUSH2 0x97B SWAP1 PUSH2 0x244F JUMP JUMPDEST PUSH1 0x40 MLOAD DUP1 SWAP2 SUB SWAP1 REVERT JUMPDEST PUSH1 0x0 PUSH1 0x1 DUP1 SLOAD SWAP1 POP GT ISZERO PUSH2 0xB74 JUMPI PUSH1 0x0 JUMPDEST PUSH1 0x1 DUP1 SLOAD SWAP1 POP DUP2 LT ISZERO PUSH2 0xB72 JUMPI CALLER PUSH20 0xFFFFFFFFFFFFFFFFFFFFFFFFFFFFFFFFFFFFFFFF AND PUSH1 0x1 DUP3 DUP2 SLOAD DUP2 LT PUSH2 0x9CD JUMPI PUSH2 0x9CC PUSH2 0x2216 JUMP JUMPDEST JUMPDEST SWAP1 PUSH1 0x0 MSTORE PUSH1 0x20 PUSH1 0x0 KECCAK256 SWAP1 PUSH1 0x3 MUL ADD PUSH1 0x0 ADD PUSH1 0x0 SWAP1 SLOAD SWAP1 PUSH2 0x100 EXP SWAP1 DIV PUSH20 0xFFFFFFFFFFFFFFFFFFFFFFFFFFFFFFFFFFFFFFFF AND PUSH20 0xFFFFFFFFFFFFFFFFFFFFFFFFFFFFFFFFFFFFFFFF AND SUB PUSH2 0xB5F JUMPI PUSH1 0x1 DUP2 DUP2 SLOAD DUP2 LT PUSH2 0xA2E JUMPI PUSH2 0xA2D PUSH2 0x2216 JUMP JUMPDEST JUMPDEST SWAP1 PUSH1 0x0 MSTORE PUSH1 0x20 PUSH1 0x0 KECCAK256 SWAP1 PUSH1 0x3 MUL ADD PUSH1 0x1 ADD SLOAD PUSH1 0x5 PUSH1 0x1 DUP4 DUP2 SLOAD DUP2 LT PUSH2 0xA56 JUMPI PUSH2 0xA55 PUSH2 0x2216 JUMP JUMPDEST JUMPDEST SWAP1 PUSH1 0x0 MSTORE PUSH1 0x20 PUSH1 0x0 KECCAK256 SWAP1 PUSH1 0x3 MUL ADD PUSH1 0x2 ADD SLOAD DUP2 SLOAD DUP2 LT PUSH2 0xA79 JUMPI PUSH2 0xA78 PUSH2 0x2216 JUMP JUMPDEST JUMPDEST SWAP1 PUSH1 0x0 MSTORE PUSH1 0x20 PUSH1 0x0 KECCAK256 SWAP1 PUSH1 0x3 MUL ADD PUSH1 0x1 ADD PUSH1 0x0 DUP3 DUP3 SLOAD PUSH2 0xA99 SWAP2 SWAP1 PUSH2 0x246F JUMP JUMPDEST SWAP3 POP POP DUP2 SWAP1 SSTORE POP PUSH1 0x1 PUSH1 0x5 PUSH1 0x1 DUP4 DUP2 SLOAD DUP2 LT PUSH2 0xAB8 JUMPI PUSH2 0xAB7 PUSH2 0x2216 JUMP JUMPDEST JUMPDEST SWAP1 PUSH1 0x0 MSTORE PUSH1 0x20 PUSH1 0x0 KECCAK256 SWAP1 PUSH1 0x3 MUL ADD PUSH1 0x2 ADD SLOAD DUP2 SLOAD DUP2 LT PUSH2 0xADB JUMPI PUSH2 0xADA PUSH2 0x2216 JUMP JUMPDEST JUMPDEST SWAP1 PUSH1 0x0 MSTORE PUSH1 0x20 PUSH1 0x0 KECCAK256 SWAP1 PUSH1 0x3 MUL ADD PUSH1 0x2 ADD PUSH1 0x0 DUP3 DUP3 SLOAD PUSH2 0xAFB SWAP2 SWAP1 PUSH2 0x246F JUMP JUMPDEST SWAP3 POP POP DUP2 SWAP1 SSTORE POP PUSH1 0x1 DUP2 DUP2 SLOAD DUP2 LT PUSH2 0xB16 JUMPI PUSH2 0xB15 PUSH2 0x2216 JUMP JUMPDEST JUMPDEST SWAP1 PUSH1 0x0 MSTORE PUSH1 0x20 PUSH1 0x0 KECCAK256 SWAP1 PUSH1 0x3 MUL ADD PUSH1 0x0 DUP1 DUP3 ADD PUSH1 0x0 PUSH2 0x100 EXP DUP2 SLOAD SWAP1 PUSH20 0xFFFFFFFFFFFFFFFFFFFFFFFFFFFFFFFFFFFFFFFF MUL NOT AND SWAP1 SSTORE PUSH1 0x1 DUP3 ADD PUSH1 0x0 SWAP1 SSTORE PUSH1 0x2 DUP3 ADD PUSH1 0x0 SWAP1 SSTORE POP POP JUMPDEST DUP1 DUP1 PUSH2 0xB6A SWAP1 PUSH2 0x23BB JUMP JUMPDEST SWAP2 POP POP PUSH2 0x995 JUMP JUMPDEST POP JUMPDEST PUSH1 0x0 PUSH1 0x40 MLOAD DUP1 PUSH1 0x60 ADD PUSH1 0x40 MSTORE DUP1 CALLER PUSH20 0xFFFFFFFFFFFFFFFFFFFFFFFFFFFFFFFFFFFFFFFF AND DUP2 MSTORE PUSH1 0x20 ADD DUP4 DUP2 MSTORE PUSH1 0x20 ADD DUP5 DUP2 MSTORE POP SWAP1 POP PUSH1 0x1 DUP2 SWAP1 DUP1 PUSH1 0x1 DUP2 SLOAD ADD DUP1 DUP3 SSTORE DUP1 SWAP2 POP POP PUSH1 0x1 SWAP1 SUB SWAP1 PUSH1 0x0 MSTORE PUSH1 0x20 PUSH1 0x0 KECCAK256 SWAP1 PUSH1 0x3 MUL ADD PUSH1 0x0 SWAP1 SWAP2 SWAP1 SWAP2 SWAP1 SWAP2 POP PUSH1 0x0 DUP3 ADD MLOAD DUP2 PUSH1 0x0 ADD PUSH1 0x0 PUSH2 0x100 EXP DUP2 SLOAD DUP2 PUSH20 0xFFFFFFFFFFFFFFFFFFFFFFFFFFFFFFFFFFFFFFFF MUL NOT AND SWAP1 DUP4 PUSH20 0xFFFFFFFFFFFFFFFFFFFFFFFFFFFFFFFFFFFFFFFF AND MUL OR SWAP1 SSTORE POP PUSH1 0x20 DUP3 ADD MLOAD DUP2 PUSH1 0x1 ADD SSTORE PUSH1 0x40 DUP3 ADD MLOAD DUP2 PUSH1 0x2 ADD SSTORE POP POP DUP2 PUSH1 0x5 DUP5 DUP2 SLOAD DUP2 LT PUSH2 0xC47 JUMPI PUSH2 0xC46 PUSH2 0x2216 JUMP JUMPDEST JUMPDEST SWAP1 PUSH1 0x0 MSTORE PUSH1 0x20 PUSH1 0x0 KECCAK256 SWAP1 PUSH1 0x3 MUL ADD PUSH1 0x1 ADD PUSH1 0x0 DUP3 DUP3 SLOAD PUSH2 0xC67 SWAP2 SWAP1 PUSH2 0x24B2 JUMP JUMPDEST SWAP3 POP POP DUP2 SWAP1 SSTORE POP PUSH1 0x1 PUSH1 0x5 DUP5 DUP2 SLOAD DUP2 LT PUSH2 0xC84 JUMPI PUSH2 0xC83 PUSH2 0x2216 JUMP JUMPDEST JUMPDEST SWAP1 PUSH1 0x0 MSTORE PUSH1 0x20 PUSH1 0x0 KECCAK256 SWAP1 PUSH1 0x3 MUL ADD PUSH1 0x2 ADD PUSH1 0x0 DUP3 DUP3 SLOAD PUSH2 0xCA4 SWAP2 SWAP1 PUSH2 0x24B2 JUMP JUMPDEST SWAP3 POP POP DUP2 SWAP1 SSTORE POP POP POP POP JUMP JUMPDEST PUSH1 0x6 PUSH1 0x40 MLOAD DUP1 PUSH1 0x80 ADD PUSH1 0x40 MSTORE DUP1 DUP5 DUP2 MSTORE PUSH1 0x20 ADD DUP4 PUSH1 0x0 SIGNEXTEND DUP2 MSTORE PUSH1 0x20 ADD PUSH1 0x0 DUP2 MSTORE PUSH1 0x20 ADD PUSH1 0x0 DUP2 MSTORE POP SWAP1 DUP1 PUSH1 0x1 DUP2 SLOAD ADD DUP1 DUP3 SSTORE DUP1 SWAP2 POP POP PUSH1 0x1 SWAP1 SUB SWAP1 PUSH1 0x0 MSTORE PUSH1 0x20 PUSH1 0x0 KECCAK256 SWAP1 PUSH1 0x4 MUL ADD PUSH1 0x0 SWAP1 SWAP2 SWAP1 SWAP2 SWAP1 SWAP2 POP PUSH1 0x0 DUP3 ADD MLOAD DUP2 PUSH1 0x0 ADD SWAP1 DUP2 PUSH2 0xD16 SWAP2 SWAP1 PUSH2 0x2702 JUMP JUMPDEST POP PUSH1 0x20 DUP3 ADD MLOAD DUP2 PUSH1 0x1 ADD PUSH1 0x0 PUSH2 0x100 EXP DUP2 SLOAD DUP2 PUSH1 0xFF MUL NOT AND SWAP1 DUP4 PUSH1 0x0 SIGNEXTEND PUSH1 0xFF AND MUL OR SWAP1 SSTORE POP PUSH1 0x40 DUP3 ADD MLOAD DUP2 PUSH1 0x2 ADD SSTORE PUSH1 0x60 DUP3 ADD MLOAD DUP2 PUSH1 0x3 ADD SSTORE POP POP POP POP JUMP JUMPDEST PUSH1 0x60 PUSH1 0x0 DUP1 PUSH1 0x4 DUP1 SLOAD SWAP1 POP GT ISZERO PUSH2 0xE7A JUMPI PUSH1 0x0 JUMPDEST PUSH1 0x4 DUP1 SLOAD SWAP1 POP DUP2 LT ISZERO PUSH2 0xE78 JUMPI PUSH2 0xD7F DUP2 PUSH2 0x1A16 JUMP JUMPDEST PUSH1 0x4 DUP3 DUP2 SLOAD DUP2 LT PUSH2 0xD93 JUMPI PUSH2 0xD92 PUSH2 0x2216 JUMP JUMPDEST JUMPDEST SWAP1 PUSH1 0x0 MSTORE PUSH1 0x20 PUSH1 0x0 KECCAK256 SWAP1 PUSH1 0x4 MUL ADD PUSH1 0x0 ADD PUSH2 0xDE2 PUSH1 0x4 DUP5 DUP2 SLOAD DUP2 LT PUSH2 0xDBB JUMPI PUSH2 0xDBA PUSH2 0x2216 JUMP JUMPDEST JUMPDEST SWAP1 PUSH1 0x0 MSTORE PUSH1 0x20 PUSH1 0x0 KECCAK256 SWAP1 PUSH1 0x4 MUL ADD PUSH1 0x1 ADD PUSH1 0x0 SWAP1 SLOAD SWAP1 PUSH2 0x100 EXP SWAP1 DIV PUSH1 0x0 SIGNEXTEND PUSH1 0x0 SIGNEXTEND PUSH2 0x1988 JUMP JUMPDEST PUSH2 0xE10 PUSH1 0x4 DUP6 DUP2 SLOAD DUP2 LT PUSH2 0xDF9 JUMPI PUSH2 0xDF8 PUSH2 0x2216 JUMP JUMPDEST JUMPDEST SWAP1 PUSH1 0x0 MSTORE PUSH1 0x20 PUSH1 0x0 KECCAK256 SWAP1 PUSH1 0x4 MUL ADD PUSH1 0x2 ADD SLOAD PUSH2 0x1988 JUMP JUMPDEST PUSH2 0xE3E PUSH1 0x4 DUP7 DUP2 SLOAD DUP2 LT PUSH2 0xE27 JUMPI PUSH2 0xE26 PUSH2 0x2216 JUMP JUMPDEST JUMPDEST SWAP1 PUSH1 0x0 MSTORE PUSH1 0x20 PUSH1 0x0 KECCAK256 SWAP1 PUSH1 0x4 MUL ADD PUSH1 0x3 ADD SLOAD PUSH2 0x1988 JUMP JUMPDEST DUP8 PUSH1 0x40 MLOAD PUSH1 0x20 ADD PUSH2 0xE54 SWAP7 SWAP6 SWAP5 SWAP4 SWAP3 SWAP2 SWAP1 PUSH2 0x2857 JUMP JUMPDEST PUSH1 0x40 MLOAD PUSH1 0x20 DUP2 DUP4 SUB SUB DUP2 MSTORE SWAP1 PUSH1 0x40 MSTORE SWAP3 POP DUP1 DUP1 PUSH2 0xE70 SWAP1 PUSH2 0x23BB JUMP JUMPDEST SWAP2 POP POP PUSH2 0xD69 JUMP JUMPDEST POP JUMPDEST PUSH1 0x0 SWAP1 POP POP SWAP1 JUMP JUMPDEST PUSH1 0x0 DUP1 PUSH1 0x0 SWAP1 SLOAD SWAP1 PUSH2 0x100 EXP SWAP1 DIV PUSH20 0xFFFFFFFFFFFFFFFFFFFFFFFFFFFFFFFFFFFFFFFF AND SWAP1 POP SWAP1 JUMP JUMPDEST PUSH1 0x0 DUP1 PUSH1 0x0 SWAP1 POP PUSH1 0x0 DUP1 JUMPDEST PUSH1 0x4 DUP1 SLOAD SWAP1 POP DUP2 LT ISZERO PUSH2 0xFF7 JUMPI PUSH1 0x4 DUP2 DUP2 SLOAD DUP2 LT PUSH2 0xED7 JUMPI PUSH2 0xED6 PUSH2 0x2216 JUMP JUMPDEST JUMPDEST SWAP1 PUSH1 0x0 MSTORE PUSH1 0x20 PUSH1 0x0 KECCAK256 SWAP1 PUSH1 0x4 MUL ADD PUSH1 0x0 ADD PUSH1 0x40 MLOAD PUSH1 0x20 ADD PUSH2 0xEF8 SWAP2 SWAP1 PUSH2 0x28FA JUMP JUMPDEST PUSH1 0x40 MLOAD PUSH1 0x20 DUP2 DUP4 SUB SUB DUP2 MSTORE SWAP1 PUSH1 0x40 MSTORE DUP1 MLOAD SWAP1 PUSH1 0x20 ADD KECCAK256 DUP6 PUSH1 0x40 MLOAD PUSH1 0x20 ADD PUSH2 0xF1F SWAP2 SWAP1 PUSH2 0x2911 JUMP JUMPDEST PUSH1 0x40 MLOAD PUSH1 0x20 DUP2 DUP4 SUB SUB DUP2 MSTORE SWAP1 PUSH1 0x40 MSTORE DUP1 MLOAD SWAP1 PUSH1 0x20 ADD KECCAK256 SUB PUSH2 0xFE4 JUMPI PUSH1 0x0 PUSH1 0x4 DUP3 DUP2 SLOAD DUP2 LT PUSH2 0xF50 JUMPI PUSH2 0xF4F PUSH2 0x2216 JUMP JUMPDEST JUMPDEST SWAP1 PUSH1 0x0 MSTORE PUSH1 0x20 PUSH1 0x0 KECCAK256 SWAP1 PUSH1 0x4 MUL ADD PUSH1 0x3 ADD SLOAD PUSH2 0x3E8 PUSH1 0x4 DUP5 DUP2 SLOAD DUP2 LT PUSH2 0xF79 JUMPI PUSH2 0xF78 PUSH2 0x2216 JUMP JUMPDEST JUMPDEST SWAP1 PUSH1 0x0 MSTORE PUSH1 0x20 PUSH1 0x0 KECCAK256 SWAP1 PUSH1 0x4 MUL ADD PUSH1 0x2 ADD SLOAD PUSH2 0xF95 SWAP2 SWAP1 PUSH2 0x2928 JUMP JUMPDEST PUSH2 0xF9F SWAP2 SWAP1 PUSH2 0x29CF JUMP JUMPDEST SWAP1 POP DUP3 DUP2 SGT ISZERO PUSH2 0xFE2 JUMPI PUSH1 0x4 DUP3 DUP2 SLOAD DUP2 LT PUSH2 0xFBD JUMPI PUSH2 0xFBC PUSH2 0x2216 JUMP JUMPDEST JUMPDEST SWAP1 PUSH1 0x0 MSTORE PUSH1 0x20 PUSH1 0x0 KECCAK256 SWAP1 PUSH1 0x4 MUL ADD PUSH1 0x1 ADD PUSH1 0x0 SWAP1 SLOAD SWAP1 PUSH2 0x100 EXP SWAP1 DIV PUSH1 0x0 SIGNEXTEND PUSH1 0x0 SIGNEXTEND SWAP4 POP JUMPDEST POP JUMPDEST DUP1 DUP1 PUSH2 0xFEF SWAP1 PUSH2 0x23BB JUMP JUMPDEST SWAP2 POP POP PUSH2 0xEB6 JUMP JUMPDEST POP DUP2 SWAP3 POP POP POP SWAP2 SWAP1 POP JUMP JUMPDEST PUSH1 0x60 PUSH1 0x0 DUP1 PUSH1 0x6 DUP1 SLOAD SWAP1 POP GT ISZERO PUSH2 0x1127 JUMPI PUSH1 0x0 JUMPDEST PUSH1 0x6 DUP1 SLOAD SWAP1 POP DUP2 LT ISZERO PUSH2 0x1125 JUMPI PUSH2 0x102C DUP2 PUSH2 0x1A16 JUMP JUMPDEST PUSH1 0x6 DUP3 DUP2 SLOAD DUP2 LT PUSH2 0x1040 JUMPI PUSH2 0x103F PUSH2 0x2216 JUMP JUMPDEST JUMPDEST SWAP1 PUSH1 0x0 MSTORE PUSH1 0x20 PUSH1 0x0 KECCAK256 SWAP1 PUSH1 0x4 MUL ADD PUSH1 0x0 ADD PUSH2 0x108F PUSH1 0x6 DUP5 DUP2 SLOAD DUP2 LT PUSH2 0x1068 JUMPI PUSH2 0x1067 PUSH2 0x2216 JUMP JUMPDEST JUMPDEST SWAP1 PUSH1 0x0 MSTORE PUSH1 0x20 PUSH1 0x0 KECCAK256 SWAP1 PUSH1 0x4 MUL ADD PUSH1 0x1 ADD PUSH1 0x0 SWAP1 SLOAD SWAP1 PUSH2 0x100 EXP SWAP1 DIV PUSH1 0x0 SIGNEXTEND PUSH1 0x0 SIGNEXTEND PUSH2 0x1988 JUMP JUMPDEST PUSH2 0x10BD PUSH1 0x6 DUP6 DUP2 SLOAD DUP2 LT PUSH2 0x10A6 JUMPI PUSH2 0x10A5 PUSH2 0x2216 JUMP JUMPDEST JUMPDEST SWAP1 PUSH1 0x0 MSTORE PUSH1 0x20 PUSH1 0x0 KECCAK256 SWAP1 PUSH1 0x4 MUL ADD PUSH1 0x2 ADD SLOAD PUSH2 0x1988 JUMP JUMPDEST PUSH2 0x10EB PUSH1 0x6 DUP7 DUP2 SLOAD DUP2 LT PUSH2 0x10D4 JUMPI PUSH2 0x10D3 PUSH2 0x2216 JUMP JUMPDEST JUMPDEST SWAP1 PUSH1 0x0 MSTORE PUSH1 0x20 PUSH1 0x0 KECCAK256 SWAP1 PUSH1 0x4 MUL ADD PUSH1 0x3 ADD SLOAD PUSH2 0x1988 JUMP JUMPDEST DUP8 PUSH1 0x40 MLOAD PUSH1 0x20 ADD PUSH2 0x1101 SWAP7 SWAP6 SWAP5 SWAP4 SWAP3 SWAP2 SWAP1 PUSH2 0x2857 JUMP JUMPDEST PUSH1 0x40 MLOAD PUSH1 0x20 DUP2 DUP4 SUB SUB DUP2 MSTORE SWAP1 PUSH1 0x40 MSTORE SWAP3 POP DUP1 DUP1 PUSH2 0x111D SWAP1 PUSH2 0x23BB JUMP JUMPDEST SWAP2 POP POP PUSH2 0x1016 JUMP JUMPDEST POP JUMPDEST PUSH1 0x0 SWAP1 POP POP SWAP1 JUMP JUMPDEST PUSH32 0xFFFFFFFFFFFFFFFFFFFFFFFFFFFFFFFFFFFFFFFFFFFFFFFFFFFFFFFFFFFFFFFF DUP2 SLT ISZERO PUSH2 0x1192 JUMPI PUSH1 0x40 MLOAD PUSH32 0x8C379A000000000000000000000000000000000000000000000000000000000 DUP2 MSTORE PUSH1 0x4 ADD PUSH2 0x1189 SWAP1 PUSH2 0x244F JUMP JUMPDEST PUSH1 0x40 MLOAD DUP1 SWAP2 SUB SWAP1 REVERT JUMPDEST PUSH1 0x1 DUP2 SGT ISZERO PUSH2 0x11D6 JUMPI PUSH1 0x40 MLOAD PUSH32 0x8C379A000000000000000000000000000000000000000000000000000000000 DUP2 MSTORE PUSH1 0x4 ADD PUSH2 0x11CD SWAP1 PUSH2 0x244F JUMP JUMPDEST PUSH1 0x40 MLOAD DUP1 SWAP2 SUB SWAP1 REVERT JUMPDEST PUSH1 0x0 PUSH1 0x3 DUP1 SLOAD SWAP1 POP GT ISZERO PUSH2 0x13C6 JUMPI PUSH1 0x0 JUMPDEST PUSH1 0x3 DUP1 SLOAD SWAP1 POP DUP2 LT ISZERO PUSH2 0x13C4 JUMPI CALLER PUSH20 0xFFFFFFFFFFFFFFFFFFFFFFFFFFFFFFFFFFFFFFFF AND PUSH1 0x3 DUP3 DUP2 SLOAD DUP2 LT PUSH2 0x121F JUMPI PUSH2 0x121E PUSH2 0x2216 JUMP JUMPDEST JUMPDEST SWAP1 PUSH1 0x0 MSTORE PUSH1 0x20 PUSH1 0x0 KECCAK256 SWAP1 PUSH1 0x3 MUL ADD PUSH1 0x0 ADD PUSH1 0x0 SWAP1 SLOAD SWAP1 PUSH2 0x100 EXP SWAP1 DIV PUSH20 0xFFFFFFFFFFFFFFFFFFFFFFFFFFFFFFFFFFFFFFFF AND PUSH20 0xFFFFFFFFFFFFFFFFFFFFFFFFFFFFFFFFFFFFFFFF AND SUB PUSH2 0x13B1 JUMPI PUSH1 0x3 DUP2 DUP2 SLOAD DUP2 LT PUSH2 0x1280 JUMPI PUSH2 0x127F PUSH2 0x2216 JUMP JUMPDEST JUMPDEST SWAP1 PUSH1 0x0 MSTORE PUSH1 0x20 PUSH1 0x0 KECCAK256 SWAP1 PUSH1 0x3 MUL ADD PUSH1 0x1 ADD SLOAD PUSH1 0x6 PUSH1 0x1 DUP4 DUP2 SLOAD DUP2 LT PUSH2 0x12A8 JUMPI PUSH2 0x12A7 PUSH2 0x2216 JUMP JUMPDEST JUMPDEST SWAP1 PUSH1 0x0 MSTORE PUSH1 0x20 PUSH1 0x0 KECCAK256 SWAP1 PUSH1 0x3 MUL ADD PUSH1 0x2 ADD SLOAD DUP2 SLOAD DUP2 LT PUSH2 0x12CB JUMPI PUSH2 0x12CA PUSH2 0x2216 JUMP JUMPDEST JUMPDEST SWAP1 PUSH1 0x0 MSTORE PUSH1 0x20 PUSH1 0x0 KECCAK256 SWAP1 PUSH1 0x4 MUL ADD PUSH1 0x2 ADD PUSH1 0x0 DUP3 DUP3 SLOAD PUSH2 0x12EB SWAP2 SWAP1 PUSH2 0x246F JUMP JUMPDEST SWAP3 POP POP DUP2 SWAP1 SSTORE POP PUSH1 0x1 PUSH1 0x6 PUSH1 0x1 DUP4 DUP2 SLOAD DUP2 LT PUSH2 0x130A JUMPI PUSH2 0x1309 PUSH2 0x2216 JUMP JUMPDEST JUMPDEST SWAP1 PUSH1 0x0 MSTORE PUSH1 0x20 PUSH1 0x0 KECCAK256 SWAP1 PUSH1 0x3 MUL ADD PUSH1 0x2 ADD SLOAD DUP2 SLOAD DUP2 LT PUSH2 0x132D JUMPI PUSH2 0x132C PUSH2 0x2216 JUMP JUMPDEST JUMPDEST SWAP1 PUSH1 0x0 MSTORE PUSH1 0x20 PUSH1 0x0 KECCAK256 SWAP1 PUSH1 0x4 MUL ADD PUSH1 0x3 ADD PUSH1 0x0 DUP3 DUP3 SLOAD PUSH2 0x134D SWAP2 SWAP1 PUSH2 0x246F JUMP JUMPDEST SWAP3 POP POP DUP2 SWAP1 SSTORE POP PUSH1 0x3 DUP2 DUP2 SLOAD DUP2 LT PUSH2 0x1368 JUMPI PUSH2 0x1367 PUSH2 0x2216 JUMP JUMPDEST JUMPDEST SWAP1 PUSH1 0x0 MSTORE PUSH1 0x20 PUSH1 0x0 KECCAK256 SWAP1 PUSH1 0x3 MUL ADD PUSH1 0x0 DUP1 DUP3 ADD PUSH1 0x0 PUSH2 0x100 EXP DUP2 SLOAD SWAP1 PUSH20 0xFFFFFFFFFFFFFFFFFFFFFFFFFFFFFFFFFFFFFFFF MUL NOT AND SWAP1 SSTORE PUSH1 0x1 DUP3 ADD PUSH1 0x0 SWAP1 SSTORE PUSH1 0x2 DUP3 ADD PUSH1 0x0 SWAP1 SSTORE POP POP JUMPDEST DUP1 DUP1 PUSH2 0x13BC SWAP1 PUSH2 0x23BB JUMP JUMPDEST SWAP2 POP POP PUSH2 0x11E7 JUMP JUMPDEST POP JUMPDEST PUSH1 0x0 PUSH1 0x40 MLOAD DUP1 PUSH1 0x60 ADD PUSH1 0x40 MSTORE DUP1 CALLER PUSH20 0xFFFFFFFFFFFFFFFFFFFFFFFFFFFFFFFFFFFFFFFF AND DUP2 MSTORE PUSH1 0x20 ADD DUP4 DUP2 MSTORE PUSH1 0x20 ADD DUP5 DUP2 MSTORE POP SWAP1 POP PUSH1 0x3 DUP2 SWAP1 DUP1 PUSH1 0x1 DUP2 SLOAD ADD DUP1 DUP3 SSTORE DUP1 SWAP2 POP POP PUSH1 0x1 SWAP1 SUB SWAP1 PUSH1 0x0 MSTORE PUSH1 0x20 PUSH1 0x0 KECCAK256 SWAP1 PUSH1 0x3 MUL ADD PUSH1 0x0 SWAP1 SWAP2 SWAP1 SWAP2 SWAP1 SWAP2 POP PUSH1 0x0 DUP3 ADD MLOAD DUP2 PUSH1 0x0 ADD PUSH1 0x0 PUSH2 0x100 EXP DUP2 SLOAD DUP2 PUSH20 0xFFFFFFFFFFFFFFFFFFFFFFFFFFFFFFFFFFFFFFFF MUL NOT AND SWAP1 DUP4 PUSH20 0xFFFFFFFFFFFFFFFFFFFFFFFFFFFFFFFFFFFFFFFF AND MUL OR SWAP1 SSTORE POP PUSH1 0x20 DUP3 ADD MLOAD DUP2 PUSH1 0x1 ADD SSTORE PUSH1 0x40 DUP3 ADD MLOAD DUP2 PUSH1 0x2 ADD SSTORE POP POP DUP2 PUSH1 0x6 DUP5 DUP2 SLOAD DUP2 LT PUSH2 0x1499 JUMPI PUSH2 0x1498 PUSH2 0x2216 JUMP JUMPDEST JUMPDEST SWAP1 PUSH1 0x0 MSTORE PUSH1 0x20 PUSH1 0x0 KECCAK256 SWAP1 PUSH1 0x4 MUL ADD PUSH1 0x2 ADD PUSH1 0x0 DUP3 DUP3 SLOAD PUSH2 0x14B9 SWAP2 SWAP1 PUSH2 0x24B2 JUMP JUMPDEST SWAP3 POP POP DUP2 SWAP1 SSTORE POP PUSH1 0x1 PUSH1 0x6 DUP5 DUP2 SLOAD DUP2 LT PUSH2 0x14D6 JUMPI PUSH2 0x14D5 PUSH2 0x2216 JUMP JUMPDEST JUMPDEST SWAP1 PUSH1 0x0 MSTORE PUSH1 0x20 PUSH1 0x0 KECCAK256 SWAP1 PUSH1 0x4 MUL ADD PUSH1 0x3 ADD PUSH1 0x0 DUP3 DUP3 SLOAD PUSH2 0x14F6 SWAP2 SWAP1 PUSH2 0x24B2 JUMP JUMPDEST SWAP3 POP POP DUP2 SWAP1 SSTORE POP POP POP POP JUMP JUMPDEST PUSH2 0x150A PUSH2 0x1CB2 JUMP JUMPDEST PUSH1 0x0 DUP1 PUSH1 0x0 PUSH1 0x5 DUP1 SLOAD SWAP1 POP GT ISZERO PUSH2 0x15C3 JUMPI PUSH1 0x0 JUMPDEST PUSH1 0x5 DUP1 SLOAD SWAP1 POP DUP2 LT ISZERO PUSH2 0x15C1 JUMPI PUSH1 0x0 DUP1 PUSH2 0x158F PUSH2 0x3E8 PUSH1 0x5 DUP6 DUP2 SLOAD DUP2 LT PUSH2 0x1548 JUMPI PUSH2 0x1547 PUSH2 0x2216 JUMP JUMPDEST JUMPDEST SWAP1 PUSH1 0x0 MSTORE PUSH1 0x20 PUSH1 0x0 KECCAK256 SWAP1 PUSH1 0x3 MUL ADD PUSH1 0x1 ADD SLOAD PUSH2 0x1564 SWAP2 SWAP1 PUSH2 0x2928 JUMP JUMPDEST PUSH1 0x5 DUP6 DUP2 SLOAD DUP2 LT PUSH2 0x1578 JUMPI PUSH2 0x1577 PUSH2 0x2216 JUMP JUMPDEST JUMPDEST SWAP1 PUSH1 0x0 MSTORE PUSH1 0x20 PUSH1 0x0 KECCAK256 SWAP1 PUSH1 0x3 MUL ADD PUSH1 0x2 ADD SLOAD PUSH2 0x1AE4 JUMP JUMPDEST SWAP2 POP SWAP2 POP DUP2 DUP1 ISZERO PUSH2 0x15A0 JUMPI POP DUP5 DUP2 SLT ISZERO JUMPDEST ISZERO PUSH2 0x15AC JUMPI DUP1 SWAP5 POP DUP3 SWAP4 POP JUMPDEST POP POP DUP1 DUP1 PUSH2 0x15B9 SWAP1 PUSH2 0x23BB JUMP JUMPDEST SWAP2 POP POP PUSH2 0x151E JUMP JUMPDEST POP JUMPDEST PUSH1 0x0 SWAP2 POP PUSH1 0x5 DUP2 DUP2 SLOAD DUP2 LT PUSH2 0x15DB JUMPI PUSH2 0x15DA PUSH2 0x2216 JUMP JUMPDEST JUMPDEST SWAP1 PUSH1 0x0 MSTORE PUSH1 0x20 PUSH1 0x0 KECCAK256 SWAP1 PUSH1 0x3 MUL ADD PUSH1 0x40 MLOAD DUP1 PUSH1 0xC0 ADD PUSH1 0x40 MSTORE SWAP1 DUP2 PUSH1 0x0 DUP3 ADD PUSH1 0x0 SWAP1 SLOAD SWAP1 PUSH2 0x100 EXP SWAP1 DIV PUSH1 0x0 SIGNEXTEND PUSH1 0x0 SIGNEXTEND PUSH1 0x0 SIGNEXTEND DUP2 MSTORE PUSH1 0x20 ADD PUSH1 0x0 DUP3 ADD PUSH1 0x1 SWAP1 SLOAD SWAP1 PUSH2 0x100 EXP SWAP1 DIV PUSH1 0x0 SIGNEXTEND PUSH1 0x0 SIGNEXTEND PUSH1 0x0 SIGNEXTEND DUP2 MSTORE PUSH1 0x20 ADD PUSH1 0x0 DUP3 ADD PUSH1 0x2 SWAP1 SLOAD SWAP1 PUSH2 0x100 EXP SWAP1 DIV PUSH1 0x0 SIGNEXTEND PUSH1 0x0 SIGNEXTEND PUSH1 0x0 SIGNEXTEND DUP2 MSTORE PUSH1 0x20 ADD PUSH1 0x0 DUP3 ADD PUSH1 0x3 SWAP1 SLOAD SWAP1 PUSH2 0x100 EXP SWAP1 DIV PUSH1 0x0 SIGNEXTEND PUSH1 0x0 SIGNEXTEND PUSH1 0x0 SIGNEXTEND DUP2 MSTORE PUSH1 0x20 ADD PUSH1 0x1 DUP3 ADD SLOAD DUP2 MSTORE PUSH1 0x20 ADD PUSH1 0x2 DUP3 ADD SLOAD DUP2 MSTORE POP POP SWAP3 POP POP POP SWAP1 JUMP JUMPDEST PUSH1 0x0 DUP1 PUSH1 0x0 SWAP1 POP PUSH1 0x0 DUP1 JUMPDEST PUSH1 0x6 DUP1 SLOAD SWAP1 POP DUP2 LT ISZERO PUSH2 0x17CF JUMPI PUSH1 0x6 DUP2 DUP2 SLOAD DUP2 LT PUSH2 0x16AF JUMPI PUSH2 0x16AE PUSH2 0x2216 JUMP JUMPDEST JUMPDEST SWAP1 PUSH1 0x0 MSTORE PUSH1 0x20 PUSH1 0x0 KECCAK256 SWAP1 PUSH1 0x4 MUL ADD PUSH1 0x0 ADD PUSH1 0x40 MLOAD PUSH1 0x20 ADD PUSH2 0x16D0 SWAP2 SWAP1 PUSH2 0x28FA JUMP JUMPDEST PUSH1 0x40 MLOAD PUSH1 0x20 DUP2 DUP4 SUB SUB DUP2 MSTORE SWAP1 PUSH1 0x40 MSTORE DUP1 MLOAD SWAP1 PUSH1 0x20 ADD KECCAK256 DUP6 PUSH1 0x40 MLOAD PUSH1 0x20 ADD PUSH2 0x16F7 SWAP2 SWAP1 PUSH2 0x2911 JUMP JUMPDEST PUSH1 0x40 MLOAD PUSH1 0x20 DUP2 DUP4 SUB SUB DUP2 MSTORE SWAP1 PUSH1 0x40 MSTORE DUP1 MLOAD SWAP1 PUSH1 0x20 ADD KECCAK256 SUB PUSH2 0x17BC JUMPI PUSH1 0x0 PUSH1 0x6 DUP3 DUP2 SLOAD DUP2 LT PUSH2 0x1728 JUMPI PUSH2 0x1727 PUSH2 0x2216 JUMP JUMPDEST JUMPDEST SWAP1 PUSH1 0x0 MSTORE PUSH1 0x20 PUSH1 0x0 KECCAK256 SWAP1 PUSH1 0x4 MUL ADD PUSH1 0x3 ADD SLOAD PUSH2 0x3E8 PUSH1 0x6 DUP5 DUP2 SLOAD DUP2 LT PUSH2 0x1751 JUMPI PUSH2 0x1750 PUSH2 0x2216 JUMP JUMPDEST JUMPDEST SWAP1 PUSH1 0x0 MSTORE PUSH1 0x20 PUSH1 0x0 KECCAK256 SWAP1 PUSH1 0x4 MUL ADD PUSH1 0x2 ADD SLOAD PUSH2 0x176D SWAP2 SWAP1 PUSH2 0x2928 JUMP JUMPDEST PUSH2 0x1777 SWAP2 SWAP1 PUSH2 0x29CF JUMP JUMPDEST SWAP1 POP DUP3 DUP2 SGT ISZERO PUSH2 0x17BA JUMPI PUSH1 0x6 DUP3 DUP2 SLOAD DUP2 LT PUSH2 0x1795 JUMPI PUSH2 0x1794 PUSH2 0x2216 JUMP JUMPDEST JUMPDEST SWAP1 PUSH1 0x0 MSTORE PUSH1 0x20 PUSH1 0x0 KECCAK256 SWAP1 PUSH1 0x4 MUL ADD PUSH1 0x1 ADD PUSH1 0x0 SWAP1 SLOAD SWAP1 PUSH2 0x100 EXP SWAP1 DIV PUSH1 0x0 SIGNEXTEND PUSH1 0x0 SIGNEXTEND SWAP4 POP JUMPDEST POP JUMPDEST DUP1 DUP1 PUSH2 0x17C7 SWAP1 PUSH2 0x23BB JUMP JUMPDEST SWAP2 POP POP PUSH2 0x168E JUMP JUMPDEST POP DUP2 SWAP3 POP POP POP SWAP2 SWAP1 POP JUMP JUMPDEST PUSH1 0x5 PUSH1 0x40 MLOAD DUP1 PUSH1 0xC0 ADD PUSH1 0x40 MSTORE DUP1 DUP7 PUSH1 0x0 SIGNEXTEND DUP2 MSTORE PUSH1 0x20 ADD DUP6 PUSH1 0x0 SIGNEXTEND DUP2 MSTORE PUSH1 0x20 ADD DUP5 PUSH1 0x0 SIGNEXTEND DUP2 MSTORE PUSH1 0x20 ADD DUP4 PUSH1 0x0 SIGNEXTEND DUP2 MSTORE PUSH1 0x20 ADD PUSH1 0x0 DUP2 MSTORE PUSH1 0x20 ADD PUSH1 0x0 DUP2 MSTORE POP SWAP1 DUP1 PUSH1 0x1 DUP2 SLOAD ADD DUP1 DUP3 SSTORE DUP1 SWAP2 POP POP PUSH1 0x1 SWAP1 SUB SWAP1 PUSH1 0x0 MSTORE PUSH1 0x20 PUSH1 0x0 KECCAK256 SWAP1 PUSH1 0x3 MUL ADD PUSH1 0x0 SWAP1 SWAP2 SWAP1 SWAP2 SWAP1 SWAP2 POP PUSH1 0x0 DUP3 ADD MLOAD DUP2 PUSH1 0x0 ADD PUSH1 0x0 PUSH2 0x100 EXP DUP2 SLOAD DUP2 PUSH1 0xFF MUL NOT AND SWAP1 DUP4 PUSH1 0x0 SIGNEXTEND PUSH1 0xFF AND MUL OR SWAP1 SSTORE POP PUSH1 0x20 DUP3 ADD MLOAD DUP2 PUSH1 0x0 ADD PUSH1 0x1 PUSH2 0x100 EXP DUP2 SLOAD DUP2 PUSH1 0xFF MUL NOT AND SWAP1 DUP4 PUSH1 0x0 SIGNEXTEND PUSH1 0xFF AND MUL OR SWAP1 SSTORE POP PUSH1 0x40 DUP3 ADD MLOAD DUP2 PUSH1 0x0 ADD PUSH1 0x2 PUSH2 0x100 EXP DUP2 SLOAD DUP2 PUSH1 0xFF MUL NOT AND SWAP1 DUP4 PUSH1 0x0 SIGNEXTEND PUSH1 0xFF AND MUL OR SWAP1 SSTORE POP PUSH1 0x60 DUP3 ADD MLOAD DUP2 PUSH1 0x0 ADD PUSH1 0x3 PUSH2 0x100 EXP DUP2 SLOAD DUP2 PUSH1 0xFF MUL NOT AND SWAP1 DUP4 PUSH1 0x0 SIGNEXTEND PUSH1 0xFF AND MUL OR SWAP1 SSTORE POP PUSH1 0x80 DUP3 ADD MLOAD DUP2 PUSH1 0x1 ADD SSTORE PUSH1 0xA0 DUP3 ADD MLOAD DUP2 PUSH1 0x2 ADD SSTORE POP POP POP POP POP POP JUMP JUMPDEST PUSH2 0x1984 DUP3 DUP3 PUSH1 0x40 MLOAD PUSH1 0x24 ADD PUSH2 0x1902 SWAP3 SWAP2 SWAP1 PUSH2 0x2A39 JUMP JUMPDEST PUSH1 0x40 MLOAD PUSH1 0x20 DUP2 DUP4 SUB SUB DUP2 MSTORE SWAP1 PUSH1 0x40 MSTORE PUSH32 0x319AF33300000000000000000000000000000000000000000000000000000000 PUSH28 0xFFFFFFFFFFFFFFFFFFFFFFFFFFFFFFFFFFFFFFFFFFFFFFFFFFFFFFFF NOT AND PUSH1 0x20 DUP3 ADD DUP1 MLOAD PUSH28 0xFFFFFFFFFFFFFFFFFFFFFFFFFFFFFFFFFFFFFFFFFFFFFFFFFFFFFFFF DUP4 DUP2 DUP4 AND OR DUP4 MSTORE POP POP POP POP PUSH2 0x1B1A JUMP JUMPDEST POP POP JUMP JUMPDEST PUSH1 0x60 PUSH1 0x0 DUP3 SLT PUSH2 0x19A7 JUMPI PUSH1 0x40 MLOAD DUP1 PUSH1 0x20 ADD PUSH1 0x40 MSTORE DUP1 PUSH1 0x0 DUP2 MSTORE POP PUSH2 0x19DE JUMP JUMPDEST PUSH1 0x40 MLOAD DUP1 PUSH1 0x40 ADD PUSH1 0x40 MSTORE DUP1 PUSH1 0x1 DUP2 MSTORE PUSH1 0x20 ADD PUSH32 0x2D00000000000000000000000000000000000000000000000000000000000000 DUP2 MSTORE POP JUMPDEST PUSH2 0x19EF PUSH2 0x19EA DUP5 PUSH2 0x1B43 JUMP JUMPDEST PUSH2 0x1A16 JUMP JUMPDEST PUSH1 0x40 MLOAD PUSH1 0x20 ADD PUSH2 0x1A00 SWAP3 SWAP2 SWAP1 PUSH2 0x2A69 JUMP JUMPDEST PUSH1 0x40 MLOAD PUSH1 0x20 DUP2 DUP4 SUB SUB DUP2 MSTORE SWAP1 PUSH1 0x40 MSTORE SWAP1 POP SWAP2 SWAP1 POP JUMP JUMPDEST PUSH1 0x60 PUSH1 0x0 PUSH1 0x1 PUSH2 0x1A25 DUP5 PUSH2 0x1B5F JUMP JUMPDEST ADD SWAP1 POP PUSH1 0x0 DUP2 PUSH8 0xFFFFFFFFFFFFFFFF DUP2 GT ISZERO PUSH2 0x1A44 JUMPI PUSH2 0x1A43 PUSH2 0x1E6C JUMP JUMPDEST JUMPDEST PUSH1 0x40 MLOAD SWAP1 DUP1 DUP3 MSTORE DUP1 PUSH1 0x1F ADD PUSH1 0x1F NOT AND PUSH1 0x20 ADD DUP3 ADD PUSH1 0x40 MSTORE DUP1 ISZERO PUSH2 0x1A76 JUMPI DUP2 PUSH1 0x20 ADD PUSH1 0x1 DUP3 MUL DUP1 CALLDATASIZE DUP4 CALLDATACOPY DUP1 DUP3 ADD SWAP2 POP POP SWAP1 POP JUMPDEST POP SWAP1 POP PUSH1 0x0 DUP3 PUSH1 0x20 ADD DUP3 ADD SWAP1 POP JUMPDEST PUSH1 0x1 ISZERO PUSH2 0x1AD9 JUMPI DUP1 DUP1 PUSH1 0x1 SWAP1 SUB SWAP2 POP POP PUSH32 0x3031323334353637383961626364656600000000000000000000000000000000 PUSH1 0xA DUP7 MOD BYTE DUP2 MSTORE8 PUSH1 0xA DUP6 DUP2 PUSH2 0x1ACD JUMPI PUSH2 0x1ACC PUSH2 0x29A0 JUMP JUMPDEST JUMPDEST DIV SWAP5 POP PUSH1 0x0 DUP6 SUB PUSH2 0x1A84 JUMPI JUMPDEST DUP2 SWAP4 POP POP POP POP SWAP2 SWAP1 POP JUMP JUMPDEST PUSH1 0x0 DUP1 PUSH1 0x0 DUP4 SUB PUSH2 0x1AFB JUMPI PUSH1 0x0 DUP1 SWAP2 POP SWAP2 POP PUSH2 0x1B13 JUMP JUMPDEST PUSH1 0x1 DUP4 DUP6 DUP2 PUSH2 0x1B0D JUMPI PUSH2 0x1B0C PUSH2 0x29A0 JUMP JUMPDEST JUMPDEST SDIV SWAP2 POP SWAP2 POP JUMPDEST SWAP3 POP SWAP3 SWAP1 POP JUMP JUMPDEST PUSH1 0x0 DUP2 MLOAD SWAP1 POP PUSH1 0x0 PUSH11 0x636F6E736F6C652E6C6F67 SWAP1 POP PUSH1 0x20 DUP4 ADD PUSH1 0x0 DUP1 DUP5 DUP4 DUP6 GAS STATICCALL POP POP POP POP POP JUMP JUMPDEST PUSH1 0x0 DUP1 DUP3 SLT ISZERO PUSH2 0x1B56 JUMPI DUP2 PUSH1 0x0 SUB PUSH2 0x1B58 JUMP JUMPDEST DUP2 JUMPDEST SWAP1 POP SWAP2 SWAP1 POP JUMP JUMPDEST PUSH1 0x0 DUP1 PUSH1 0x0 SWAP1 POP PUSH27 0x184F03E93FF9F4DAA797ED6E38ED64BF6A1F010000000000000000 DUP4 LT PUSH2 0x1BBD JUMPI PUSH27 0x184F03E93FF9F4DAA797ED6E38ED64BF6A1F010000000000000000 DUP4 DUP2 PUSH2 0x1BB3 JUMPI PUSH2 0x1BB2 PUSH2 0x29A0 JUMP JUMPDEST JUMPDEST DIV SWAP3 POP PUSH1 0x40 DUP2 ADD SWAP1 POP JUMPDEST PUSH14 0x4EE2D6D415B85ACEF8100000000 DUP4 LT PUSH2 0x1BFA JUMPI PUSH14 0x4EE2D6D415B85ACEF8100000000 DUP4 DUP2 PUSH2 0x1BF0 JUMPI PUSH2 0x1BEF PUSH2 0x29A0 JUMP JUMPDEST JUMPDEST DIV SWAP3 POP PUSH1 0x20 DUP2 ADD SWAP1 POP JUMPDEST PUSH7 0x2386F26FC10000 DUP4 LT PUSH2 0x1C29 JUMPI PUSH7 0x2386F26FC10000 DUP4 DUP2 PUSH2 0x1C1F JUMPI PUSH2 0x1C1E PUSH2 0x29A0 JUMP JUMPDEST JUMPDEST DIV SWAP3 POP PUSH1 0x10 DUP2 ADD SWAP1 POP JUMPDEST PUSH4 0x5F5E100 DUP4 LT PUSH2 0x1C52 JUMPI PUSH4 0x5F5E100 DUP4 DUP2 PUSH2 0x1C48 JUMPI PUSH2 0x1C47 PUSH2 0x29A0 JUMP JUMPDEST JUMPDEST DIV SWAP3 POP PUSH1 0x8 DUP2 ADD SWAP1 POP JUMPDEST PUSH2 0x2710 DUP4 LT PUSH2 0x1C77 JUMPI PUSH2 0x2710 DUP4 DUP2 PUSH2 0x1C6D JUMPI PUSH2 0x1C6C PUSH2 0x29A0 JUMP JUMPDEST JUMPDEST DIV SWAP3 POP PUSH1 0x4 DUP2 ADD SWAP1 POP JUMPDEST PUSH1 0x64 DUP4 LT PUSH2 0x1C9A JUMPI PUSH1 0x64 DUP4 DUP2 PUSH2 0x1C90 JUMPI PUSH2 0x1C8F PUSH2 0x29A0 JUMP JUMPDEST JUMPDEST DIV SWAP3 POP PUSH1 0x2 DUP2 ADD SWAP1 POP JUMPDEST PUSH1 0xA DUP4 LT PUSH2 0x1CA9 JUMPI PUSH1 0x1 DUP2 ADD SWAP1 POP JUMPDEST DUP1 SWAP2 POP POP SWAP2 SWAP1 POP JUMP JUMPDEST PUSH1 0x40 MLOAD DUP1 PUSH1 0xC0 ADD PUSH1 0x40 MSTORE DUP1 PUSH1 0x0 DUP1 SIGNEXTEND DUP2 MSTORE PUSH1 0x20 ADD PUSH1 0x0 DUP1 SIGNEXTEND DUP2 MSTORE PUSH1 0x20 ADD PUSH1 0x0 DUP1 SIGNEXTEND DUP2 MSTORE PUSH1 0x20 ADD PUSH1 0x0 DUP1 SIGNEXTEND DUP2 MSTORE PUSH1 0x20 ADD PUSH1 0x0 DUP2 MSTORE PUSH1 0x20 ADD PUSH1 0x0 DUP2 MSTORE POP SWAP1 JUMP JUMPDEST PUSH1 0x0 DUP2 MLOAD SWAP1 POP SWAP2 SWAP1 POP JUMP JUMPDEST PUSH1 0x0 DUP3 DUP3 MSTORE PUSH1 0x20 DUP3 ADD SWAP1 POP SWAP3 SWAP2 POP POP JUMP JUMPDEST PUSH1 0x0 JUMPDEST DUP4 DUP2 LT ISZERO PUSH2 0x1D2A JUMPI DUP1 DUP3 ADD MLOAD DUP2 DUP5 ADD MSTORE PUSH1 0x20 DUP2 ADD SWAP1 POP PUSH2 0x1D0F JUMP JUMPDEST PUSH1 0x0 DUP5 DUP5 ADD MSTORE POP POP POP POP JUMP JUMPDEST PUSH1 0x0 PUSH1 0x1F NOT PUSH1 0x1F DUP4 ADD AND SWAP1 POP SWAP2 SWAP1 POP JUMP JUMPDEST PUSH1 0x0 PUSH2 0x1D52 DUP3 PUSH2 0x1CF0 JUMP JUMPDEST PUSH2 0x1D5C DUP2 DUP6 PUSH2 0x1CFB JUMP JUMPDEST SWAP4 POP PUSH2 0x1D6C DUP2 DUP6 PUSH1 0x20 DUP7 ADD PUSH2 0x1D0C JUMP JUMPDEST PUSH2 0x1D75 DUP2 PUSH2 0x1D36 JUMP JUMPDEST DUP5 ADD SWAP2 POP POP SWAP3 SWAP2 POP POP JUMP JUMPDEST PUSH1 0x0 PUSH1 0x20 DUP3 ADD SWAP1 POP DUP2 DUP2 SUB PUSH1 0x0 DUP4 ADD MSTORE PUSH2 0x1D9A DUP2 DUP5 PUSH2 0x1D47 JUMP JUMPDEST SWAP1 POP SWAP3 SWAP2 POP POP JUMP JUMPDEST PUSH1 0x0 PUSH1 0x40 MLOAD SWAP1 POP SWAP1 JUMP JUMPDEST PUSH1 0x0 DUP1 REVERT JUMPDEST PUSH1 0x0 DUP1 REVERT JUMPDEST PUSH1 0x0 DUP2 SWAP1 POP SWAP2 SWAP1 POP JUMP JUMPDEST PUSH2 0x1DC9 DUP2 PUSH2 0x1DB6 JUMP JUMPDEST DUP2 EQ PUSH2 0x1DD4 JUMPI PUSH1 0x0 DUP1 REVERT JUMPDEST POP JUMP JUMPDEST PUSH1 0x0 DUP2 CALLDATALOAD SWAP1 POP PUSH2 0x1DE6 DUP2 PUSH2 0x1DC0 JUMP JUMPDEST SWAP3 SWAP2 POP POP JUMP JUMPDEST PUSH1 0x0 DUP2 SWAP1 POP SWAP2 SWAP1 POP JUMP JUMPDEST PUSH2 0x1DFF DUP2 PUSH2 0x1DEC JUMP JUMPDEST DUP2 EQ PUSH2 0x1E0A JUMPI PUSH1 0x0 DUP1 REVERT JUMPDEST POP JUMP JUMPDEST PUSH1 0x0 DUP2 CALLDATALOAD SWAP1 POP PUSH2 0x1E1C DUP2 PUSH2 0x1DF6 JUMP JUMPDEST SWAP3 SWAP2 POP POP JUMP JUMPDEST PUSH1 0x0 DUP1 PUSH1 0x40 DUP4 DUP6 SUB SLT ISZERO PUSH2 0x1E39 JUMPI PUSH2 0x1E38 PUSH2 0x1DAC JUMP JUMPDEST JUMPDEST PUSH1 0x0 PUSH2 0x1E47 DUP6 DUP3 DUP7 ADD PUSH2 0x1DD7 JUMP JUMPDEST SWAP3 POP POP PUSH1 0x20 PUSH2 0x1E58 DUP6 DUP3 DUP7 ADD PUSH2 0x1E0D JUMP JUMPDEST SWAP2 POP POP SWAP3 POP SWAP3 SWAP1 POP JUMP JUMPDEST PUSH1 0x0 DUP1 REVERT JUMPDEST PUSH1 0x0 DUP1 REVERT JUMPDEST PUSH32 0x4E487B7100000000000000000000000000000000000000000000000000000000 PUSH1 0x0 MSTORE PUSH1 0x41 PUSH1 0x4 MSTORE PUSH1 0x24 PUSH1 0x0 REVERT JUMPDEST PUSH2 0x1EA4 DUP3 PUSH2 0x1D36 JUMP JUMPDEST DUP2 ADD DUP2 DUP2 LT PUSH8 0xFFFFFFFFFFFFFFFF DUP3 GT OR ISZERO PUSH2 0x1EC3 JUMPI PUSH2 0x1EC2 PUSH2 0x1E6C JUMP JUMPDEST JUMPDEST DUP1 PUSH1 0x40 MSTORE POP POP POP JUMP JUMPDEST PUSH1 0x0 PUSH2 0x1ED6 PUSH2 0x1DA2 JUMP JUMPDEST SWAP1 POP PUSH2 0x1EE2 DUP3 DUP3 PUSH2 0x1E9B JUMP JUMPDEST SWAP2 SWAP1 POP JUMP JUMPDEST PUSH1 0x0 PUSH8 0xFFFFFFFFFFFFFFFF DUP3 GT ISZERO PUSH2 0x1F02 JUMPI PUSH2 0x1F01 PUSH2 0x1E6C JUMP JUMPDEST JUMPDEST PUSH2 0x1F0B DUP3 PUSH2 0x1D36 JUMP JUMPDEST SWAP1 POP PUSH1 0x20 DUP2 ADD SWAP1 POP SWAP2 SWAP1 POP JUMP JUMPDEST DUP3 DUP2 DUP4 CALLDATACOPY PUSH1 0x0 DUP4 DUP4 ADD MSTORE POP POP POP JUMP JUMPDEST PUSH1 0x0 PUSH2 0x1F3A PUSH2 0x1F35 DUP5 PUSH2 0x1EE7 JUMP JUMPDEST PUSH2 0x1ECC JUMP JUMPDEST SWAP1 POP DUP3 DUP2 MSTORE PUSH1 0x20 DUP2 ADD DUP5 DUP5 DUP5 ADD GT ISZERO PUSH2 0x1F56 JUMPI PUSH2 0x1F55 PUSH2 0x1E67 JUMP JUMPDEST JUMPDEST PUSH2 0x1F61 DUP5 DUP3 DUP6 PUSH2 0x1F18 JUMP JUMPDEST POP SWAP4 SWAP3 POP POP POP JUMP JUMPDEST PUSH1 0x0 DUP3 PUSH1 0x1F DUP4 ADD SLT PUSH2 0x1F7E JUMPI PUSH2 0x1F7D PUSH2 0x1E62 JUMP JUMPDEST JUMPDEST DUP2 CALLDATALOAD PUSH2 0x1F8E DUP5 DUP3 PUSH1 0x20 DUP7 ADD PUSH2 0x1F27 JUMP JUMPDEST SWAP2 POP POP SWAP3 SWAP2 POP POP JUMP JUMPDEST PUSH1 0x0 DUP2 PUSH1 0x0 SIGNEXTEND SWAP1 POP SWAP2 SWAP1 POP JUMP JUMPDEST PUSH2 0x1FAD DUP2 PUSH2 0x1F97 JUMP JUMPDEST DUP2 EQ PUSH2 0x1FB8 JUMPI PUSH1 0x0 DUP1 REVERT JUMPDEST POP JUMP JUMPDEST PUSH1 0x0 DUP2 CALLDATALOAD SWAP1 POP PUSH2 0x1FCA DUP2 PUSH2 0x1FA4 JUMP JUMPDEST SWAP3 SWAP2 POP POP JUMP JUMPDEST PUSH1 0x0 DUP1 PUSH1 0x40 DUP4 DUP6 SUB SLT ISZERO PUSH2 0x1FE7 JUMPI PUSH2 0x1FE6 PUSH2 0x1DAC JUMP JUMPDEST JUMPDEST PUSH1 0x0 DUP4 ADD CALLDATALOAD PUSH8 0xFFFFFFFFFFFFFFFF DUP2 GT ISZERO PUSH2 0x2005 JUMPI PUSH2 0x2004 PUSH2 0x1DB1 JUMP JUMPDEST JUMPDEST PUSH2 0x2011 DUP6 DUP3 DUP7 ADD PUSH2 0x1F69 JUMP JUMPDEST SWAP3 POP POP PUSH1 0x20 PUSH2 0x2022 DUP6 DUP3 DUP7 ADD PUSH2 0x1FBB JUMP JUMPDEST SWAP2 POP POP SWAP3 POP SWAP3 SWAP1 POP JUMP JUMPDEST PUSH1 0x0 PUSH20 0xFFFFFFFFFFFFFFFFFFFFFFFFFFFFFFFFFFFFFFFF DUP3 AND SWAP1 POP SWAP2 SWAP1 POP JUMP JUMPDEST PUSH1 0x0 PUSH2 0x2057 DUP3 PUSH2 0x202C JUMP JUMPDEST SWAP1 POP SWAP2 SWAP1 POP JUMP JUMPDEST PUSH2 0x2067 DUP2 PUSH2 0x204C JUMP JUMPDEST DUP3 MSTORE POP POP JUMP JUMPDEST PUSH1 0x0 PUSH1 0x20 DUP3 ADD SWAP1 POP PUSH2 0x2082 PUSH1 0x0 DUP4 ADD DUP5 PUSH2 0x205E JUMP JUMPDEST SWAP3 SWAP2 POP POP JUMP JUMPDEST PUSH1 0x0 PUSH1 0x20 DUP3 DUP5 SUB SLT ISZERO PUSH2 0x209E JUMPI PUSH2 0x209D PUSH2 0x1DAC JUMP JUMPDEST JUMPDEST PUSH1 0x0 DUP3 ADD CALLDATALOAD PUSH8 0xFFFFFFFFFFFFFFFF DUP2 GT ISZERO PUSH2 0x20BC JUMPI PUSH2 0x20BB PUSH2 0x1DB1 JUMP JUMPDEST JUMPDEST PUSH2 0x20C8 DUP5 DUP3 DUP6 ADD PUSH2 0x1F69 JUMP JUMPDEST SWAP2 POP POP SWAP3 SWAP2 POP POP JUMP JUMPDEST PUSH2 0x20DA DUP2 PUSH2 0x1DEC JUMP JUMPDEST DUP3 MSTORE POP POP JUMP JUMPDEST PUSH1 0x0 PUSH1 0x20 DUP3 ADD SWAP1 POP PUSH2 0x20F5 PUSH1 0x0 DUP4 ADD DUP5 PUSH2 0x20D1 JUMP JUMPDEST SWAP3 SWAP2 POP POP JUMP JUMPDEST PUSH2 0x2104 DUP2 PUSH2 0x1F97 JUMP JUMPDEST DUP3 MSTORE POP POP JUMP JUMPDEST PUSH2 0x2113 DUP2 PUSH2 0x1DEC JUMP JUMPDEST DUP3 MSTORE POP POP JUMP JUMPDEST PUSH1 0xC0 DUP3 ADD PUSH1 0x0 DUP3 ADD MLOAD PUSH2 0x212F PUSH1 0x0 DUP6 ADD DUP3 PUSH2 0x20FB JUMP JUMPDEST POP PUSH1 0x20 DUP3 ADD MLOAD PUSH2 0x2142 PUSH1 0x20 DUP6 ADD DUP3 PUSH2 0x20FB JUMP JUMPDEST POP PUSH1 0x40 DUP3 ADD MLOAD PUSH2 0x2155 PUSH1 0x40 DUP6 ADD DUP3 PUSH2 0x20FB JUMP JUMPDEST POP PUSH1 0x60 DUP3 ADD MLOAD PUSH2 0x2168 PUSH1 0x60 DUP6 ADD DUP3 PUSH2 0x20FB JUMP JUMPDEST POP PUSH1 0x80 DUP3 ADD MLOAD PUSH2 0x217B PUSH1 0x80 DUP6 ADD DUP3 PUSH2 0x210A JUMP JUMPDEST POP PUSH1 0xA0 DUP3 ADD MLOAD PUSH2 0x218E PUSH1 0xA0 DUP6 ADD DUP3 PUSH2 0x210A JUMP JUMPDEST POP POP POP POP JUMP JUMPDEST PUSH1 0x0 PUSH1 0xC0 DUP3 ADD SWAP1 POP PUSH2 0x21A9 PUSH1 0x0 DUP4 ADD DUP5 PUSH2 0x2119 JUMP JUMPDEST SWAP3 SWAP2 POP POP JUMP JUMPDEST PUSH1 0x0 DUP1 PUSH1 0x0 DUP1 PUSH1 0x80 DUP6 DUP8 SUB SLT ISZERO PUSH2 0x21C9 JUMPI PUSH2 0x21C8 PUSH2 0x1DAC JUMP JUMPDEST JUMPDEST PUSH1 0x0 PUSH2 0x21D7 DUP8 DUP3 DUP9 ADD PUSH2 0x1FBB JUMP JUMPDEST SWAP5 POP POP PUSH1 0x20 PUSH2 0x21E8 DUP8 DUP3 DUP9 ADD PUSH2 0x1FBB JUMP JUMPDEST SWAP4 POP POP PUSH1 0x40 PUSH2 0x21F9 DUP8 DUP3 DUP9 ADD PUSH2 0x1FBB JUMP JUMPDEST SWAP3 POP POP PUSH1 0x60 PUSH2 0x220A DUP8 DUP3 DUP9 ADD PUSH2 0x1FBB JUMP JUMPDEST SWAP2 POP POP SWAP3 SWAP6 SWAP2 SWAP5 POP SWAP3 POP JUMP JUMPDEST PUSH32 0x4E487B7100000000000000000000000000000000000000000000000000000000 PUSH1 0x0 MSTORE PUSH1 0x32 PUSH1 0x4 MSTORE PUSH1 0x24 PUSH1 0x0 REVERT JUMPDEST PUSH1 0x0 DUP2 SWAP1 POP SWAP3 SWAP2 POP POP JUMP JUMPDEST PUSH1 0x0 PUSH2 0x225B DUP3 PUSH2 0x1CF0 JUMP JUMPDEST PUSH2 0x2265 DUP2 DUP6 PUSH2 0x2245 JUMP JUMPDEST SWAP4 POP PUSH2 0x2275 DUP2 DUP6 PUSH1 0x20 DUP7 ADD PUSH2 0x1D0C JUMP JUMPDEST DUP1 DUP5 ADD SWAP2 POP POP SWAP3 SWAP2 POP POP JUMP JUMPDEST PUSH32 0x2300000000000000000000000000000000000000000000000000000000000000 DUP2 MSTORE POP JUMP JUMPDEST PUSH32 0x7C00000000000000000000000000000000000000000000000000000000000000 DUP2 MSTORE POP JUMP JUMPDEST PUSH1 0x0 PUSH2 0x22D9 DUP3 DUP11 PUSH2 0x2250 JUMP JUMPDEST SWAP2 POP PUSH2 0x22E5 DUP3 DUP10 PUSH2 0x2250 JUMP JUMPDEST SWAP2 POP PUSH2 0x22F0 DUP3 PUSH2 0x2281 JUMP JUMPDEST PUSH1 0x1 DUP3 ADD SWAP2 POP PUSH2 0x2300 DUP3 DUP9 PUSH2 0x2250 JUMP JUMPDEST SWAP2 POP PUSH2 0x230B DUP3 PUSH2 0x2281 JUMP JUMPDEST PUSH1 0x1 DUP3 ADD SWAP2 POP PUSH2 0x231B DUP3 DUP8 PUSH2 0x2250 JUMP JUMPDEST SWAP2 POP PUSH2 0x2326 DUP3 PUSH2 0x2281 JUMP JUMPDEST PUSH1 0x1 DUP3 ADD SWAP2 POP PUSH2 0x2336 DUP3 DUP7 PUSH2 0x2250 JUMP JUMPDEST SWAP2 POP PUSH2 0x2341 DUP3 PUSH2 0x2281 JUMP JUMPDEST PUSH1 0x1 DUP3 ADD SWAP2 POP PUSH2 0x2351 DUP3 DUP6 PUSH2 0x2250 JUMP JUMPDEST SWAP2 POP PUSH2 0x235C DUP3 PUSH2 0x2281 JUMP JUMPDEST PUSH1 0x1 DUP3 ADD SWAP2 POP PUSH2 0x236C DUP3 DUP5 PUSH2 0x2250 JUMP JUMPDEST SWAP2 POP PUSH2 0x2377 DUP3 PUSH2 0x22A7 JUMP JUMPDEST PUSH1 0x1 DUP3 ADD SWAP2 POP DUP2 SWAP1 POP SWAP9 SWAP8 POP POP POP POP POP POP POP POP JUMP JUMPDEST PUSH32 0x4E487B7100000000000000000000000000000000000000000000000000000000 PUSH1 0x0 MSTORE PUSH1 0x11 PUSH1 0x4 MSTORE PUSH1 0x24 PUSH1 0x0 REVERT JUMPDEST PUSH1 0x0 PUSH2 0x23C6 DUP3 PUSH2 0x1DB6 JUMP JUMPDEST SWAP2 POP PUSH32 0xFFFFFFFFFFFFFFFFFFFFFFFFFFFFFFFFFFFFFFFFFFFFFFFFFFFFFFFFFFFFFFFF DUP3 SUB PUSH2 0x23F8 JUMPI PUSH2 0x23F7 PUSH2 0x238C JUMP JUMPDEST JUMPDEST PUSH1 0x1 DUP3 ADD SWAP1 POP SWAP2 SWAP1 POP JUMP JUMPDEST PUSH32 0x496E76616C696420766F74650000000000000000000000000000000000000000 PUSH1 0x0 DUP3 ADD MSTORE POP JUMP JUMPDEST PUSH1 0x0 PUSH2 0x2439 PUSH1 0xC DUP4 PUSH2 0x1CFB JUMP JUMPDEST SWAP2 POP PUSH2 0x2444 DUP3 PUSH2 0x2403 JUMP JUMPDEST PUSH1 0x20 DUP3 ADD SWAP1 POP SWAP2 SWAP1 POP JUMP JUMPDEST PUSH1 0x0 PUSH1 0x20 DUP3 ADD SWAP1 POP DUP2 DUP2 SUB PUSH1 0x0 DUP4 ADD MSTORE PUSH2 0x2468 DUP2 PUSH2 0x242C JUMP JUMPDEST SWAP1 POP SWAP2 SWAP1 POP JUMP JUMPDEST PUSH1 0x0 PUSH2 0x247A DUP3 PUSH2 0x1DEC JUMP JUMPDEST SWAP2 POP PUSH2 0x2485 DUP4 PUSH2 0x1DEC JUMP JUMPDEST SWAP3 POP DUP3 DUP3 SUB SWAP1 POP DUP2 DUP2 SLT PUSH1 0x0 DUP5 SLT AND DUP3 DUP3 SGT PUSH1 0x0 DUP6 SLT ISZERO AND OR ISZERO PUSH2 0x24AC JUMPI PUSH2 0x24AB PUSH2 0x238C JUMP JUMPDEST JUMPDEST SWAP3 SWAP2 POP POP JUMP JUMPDEST PUSH1 0x0 PUSH2 0x24BD DUP3 PUSH2 0x1DEC JUMP JUMPDEST SWAP2 POP PUSH2 0x24C8 DUP4 PUSH2 0x1DEC JUMP JUMPDEST SWAP3 POP DUP3 DUP3 ADD SWAP1 POP DUP3 DUP2 SLT ISZERO PUSH1 0x0 DUP4 SLT AND DUP4 DUP3 SLT PUSH1 0x0 DUP5 SLT ISZERO AND OR ISZERO PUSH2 0x24F0 JUMPI PUSH2 0x24EF PUSH2 0x238C JUMP JUMPDEST JUMPDEST SWAP3 SWAP2 POP POP JUMP JUMPDEST PUSH32 0x4E487B7100000000000000000000000000000000000000000000000000000000 PUSH1 0x0 MSTORE PUSH1 0x22 PUSH1 0x4 MSTORE PUSH1 0x24 PUSH1 0x0 REVERT JUMPDEST PUSH1 0x0 PUSH1 0x2 DUP3 DIV SWAP1 POP PUSH1 0x1 DUP3 AND DUP1 PUSH2 0x253D JUMPI PUSH1 0x7F DUP3 AND SWAP2 POP JUMPDEST PUSH1 0x20 DUP3 LT DUP2 SUB PUSH2 0x2550 JUMPI PUSH2 0x254F PUSH2 0x24F6 JUMP JUMPDEST JUMPDEST POP SWAP2 SWAP1 POP JUMP JUMPDEST PUSH1 0x0 DUP2 SWAP1 POP DUP2 PUSH1 0x0 MSTORE PUSH1 0x20 PUSH1 0x0 KECCAK256 SWAP1 POP SWAP2 SWAP1 POP JUMP JUMPDEST PUSH1 0x0 PUSH1 0x20 PUSH1 0x1F DUP4 ADD DIV SWAP1 POP SWAP2 SWAP1 POP JUMP JUMPDEST PUSH1 0x0 DUP3 DUP3 SHL SWAP1 POP SWAP3 SWAP2 POP POP JUMP JUMPDEST PUSH1 0x0 PUSH1 0x8 DUP4 MUL PUSH2 0x25B8 PUSH32 0xFFFFFFFFFFFFFFFFFFFFFFFFFFFFFFFFFFFFFFFFFFFFFFFFFFFFFFFFFFFFFFFF DUP3 PUSH2 0x257B JUMP JUMPDEST PUSH2 0x25C2 DUP7 DUP4 PUSH2 0x257B JUMP JUMPDEST SWAP6 POP DUP1 NOT DUP5 AND SWAP4 POP DUP1 DUP7 AND DUP5 OR SWAP3 POP POP POP SWAP4 SWAP3 POP POP POP JUMP JUMPDEST PUSH1 0x0 DUP2 SWAP1 POP SWAP2 SWAP1 POP JUMP JUMPDEST PUSH1 0x0 PUSH2 0x25FF PUSH2 0x25FA PUSH2 0x25F5 DUP5 PUSH2 0x1DB6 JUMP JUMPDEST PUSH2 0x25DA JUMP JUMPDEST PUSH2 0x1DB6 JUMP JUMPDEST SWAP1 POP SWAP2 SWAP1 POP JUMP JUMPDEST PUSH1 0x0 DUP2 SWAP1 POP SWAP2 SWAP1 POP JUMP JUMPDEST PUSH2 0x2619 DUP4 PUSH2 0x25E4 JUMP JUMPDEST PUSH2 0x262D PUSH2 0x2625 DUP3 PUSH2 0x2606 JUMP JUMPDEST DUP5 DUP5 SLOAD PUSH2 0x2588 JUMP JUMPDEST DUP3 SSTORE POP POP POP POP JUMP JUMPDEST PUSH1 0x0 SWAP1 JUMP JUMPDEST PUSH2 0x2642 PUSH2 0x2635 JUMP JUMPDEST PUSH2 0x264D DUP2 DUP5 DUP5 PUSH2 0x2610 JUMP JUMPDEST POP POP POP JUMP JUMPDEST JUMPDEST DUP2 DUP2 LT ISZERO PUSH2 0x2671 JUMPI PUSH2 0x2666 PUSH1 0x0 DUP3 PUSH2 0x263A JUMP JUMPDEST PUSH1 0x1 DUP2 ADD SWAP1 POP PUSH2 0x2653 JUMP JUMPDEST POP POP JUMP JUMPDEST PUSH1 0x1F DUP3 GT ISZERO PUSH2 0x26B6 JUMPI PUSH2 0x2687 DUP2 PUSH2 0x2556 JUMP JUMPDEST PUSH2 0x2690 DUP5 PUSH2 0x256B JUMP JUMPDEST DUP2 ADD PUSH1 0x20 DUP6 LT ISZERO PUSH2 0x269F JUMPI DUP2 SWAP1 POP JUMPDEST PUSH2 0x26B3 PUSH2 0x26AB DUP6 PUSH2 0x256B JUMP JUMPDEST DUP4 ADD DUP3 PUSH2 0x2652 JUMP JUMPDEST POP POP JUMPDEST POP POP POP JUMP JUMPDEST PUSH1 0x0 DUP3 DUP3 SHR SWAP1 POP SWAP3 SWAP2 POP POP JUMP JUMPDEST PUSH1 0x0 PUSH2 0x26D9 PUSH1 0x0 NOT DUP5 PUSH1 0x8 MUL PUSH2 0x26BB JUMP JUMPDEST NOT DUP1 DUP4 AND SWAP2 POP POP SWAP3 SWAP2 POP POP JUMP JUMPDEST PUSH1 0x0 PUSH2 0x26F2 DUP4 DUP4 PUSH2 0x26C8 JUMP JUMPDEST SWAP2 POP DUP3 PUSH1 0x2 MUL DUP3 OR SWAP1 POP SWAP3 SWAP2 POP POP JUMP JUMPDEST PUSH2 0x270B DUP3 PUSH2 0x1CF0 JUMP JUMPDEST PUSH8 0xFFFFFFFFFFFFFFFF DUP2 GT ISZERO PUSH2 0x2724 JUMPI PUSH2 0x2723 PUSH2 0x1E6C JUMP JUMPDEST JUMPDEST PUSH2 0x272E DUP3 SLOAD PUSH2 0x2525 JUMP JUMPDEST PUSH2 0x2739 DUP3 DUP3 DUP6 PUSH2 0x2675 JUMP JUMPDEST PUSH1 0x0 PUSH1 0x20 SWAP1 POP PUSH1 0x1F DUP4 GT PUSH1 0x1 DUP2 EQ PUSH2 0x276C JUMPI PUSH1 0x0 DUP5 ISZERO PUSH2 0x275A JUMPI DUP3 DUP8 ADD MLOAD SWAP1 POP JUMPDEST PUSH2 0x2764 DUP6 DUP3 PUSH2 0x26E6 JUMP JUMPDEST DUP7 SSTORE POP PUSH2 0x27CC JUMP JUMPDEST PUSH1 0x1F NOT DUP5 AND PUSH2 0x277A DUP7 PUSH2 0x2556 JUMP JUMPDEST PUSH1 0x0 JUMPDEST DUP3 DUP2 LT ISZERO PUSH2 0x27A2 JUMPI DUP5 DUP10 ADD MLOAD DUP3 SSTORE PUSH1 0x1 DUP3 ADD SWAP2 POP PUSH1 0x20 DUP6 ADD SWAP5 POP PUSH1 0x20 DUP2 ADD SWAP1 POP PUSH2 0x277D JUMP JUMPDEST DUP7 DUP4 LT ISZERO PUSH2 0x27BF JUMPI DUP5 DUP10 ADD MLOAD PUSH2 0x27BB PUSH1 0x1F DUP10 AND DUP3 PUSH2 0x26C8 JUMP JUMPDEST DUP4 SSTORE POP JUMPDEST PUSH1 0x1 PUSH1 0x2 DUP9 MUL ADD DUP9 SSTORE POP POP POP JUMPDEST POP POP POP POP POP POP JUMP JUMPDEST PUSH1 0x0 DUP2 SLOAD PUSH2 0x27E1 DUP2 PUSH2 0x2525 JUMP JUMPDEST PUSH2 0x27EB DUP2 DUP7 PUSH2 0x2245 JUMP JUMPDEST SWAP5 POP PUSH1 0x1 DUP3 AND PUSH1 0x0 DUP2 EQ PUSH2 0x2806 JUMPI PUSH1 0x1 DUP2 EQ PUSH2 0x281B JUMPI PUSH2 0x284E JUMP JUMPDEST PUSH1 0xFF NOT DUP4 AND DUP7 MSTORE DUP2 ISZERO ISZERO DUP3 MUL DUP7 ADD SWAP4 POP PUSH2 0x284E JUMP JUMPDEST PUSH2 0x2824 DUP6 PUSH2 0x2556 JUMP JUMPDEST PUSH1 0x0 JUMPDEST DUP4 DUP2 LT ISZERO PUSH2 0x2846 JUMPI DUP2 SLOAD DUP2 DUP10 ADD MSTORE PUSH1 0x1 DUP3 ADD SWAP2 POP PUSH1 0x20 DUP2 ADD SWAP1 POP PUSH2 0x2827 JUMP JUMPDEST DUP4 DUP9 ADD SWAP6 POP POP POP JUMPDEST POP POP POP SWAP3 SWAP2 POP POP JUMP JUMPDEST PUSH1 0x0 PUSH2 0x2863 DUP3 DUP10 PUSH2 0x2250 JUMP JUMPDEST SWAP2 POP PUSH2 0x286E DUP3 PUSH2 0x2281 JUMP JUMPDEST PUSH1 0x1 DUP3 ADD SWAP2 POP PUSH2 0x287E DUP3 DUP9 PUSH2 0x27D4 JUMP JUMPDEST SWAP2 POP PUSH2 0x2889 DUP3 PUSH2 0x2281 JUMP JUMPDEST PUSH1 0x1 DUP3 ADD SWAP2 POP PUSH2 0x2899 DUP3 DUP8 PUSH2 0x2250 JUMP JUMPDEST SWAP2 POP PUSH2 0x28A4 DUP3 PUSH2 0x2281 JUMP JUMPDEST PUSH1 0x1 DUP3 ADD SWAP2 POP PUSH2 0x28B4 DUP3 DUP7 PUSH2 0x2250 JUMP JUMPDEST SWAP2 POP PUSH2 0x28BF DUP3 PUSH2 0x2281 JUMP JUMPDEST PUSH1 0x1 DUP3 ADD SWAP2 POP PUSH2 0x28CF DUP3 DUP6 PUSH2 0x2250 JUMP JUMPDEST SWAP2 POP PUSH2 0x28DA DUP3 PUSH2 0x22A7 JUMP JUMPDEST PUSH1 0x1 DUP3 ADD SWAP2 POP PUSH2 0x28EA DUP3 DUP5 PUSH2 0x2250 JUMP JUMPDEST SWAP2 POP DUP2 SWAP1 POP SWAP8 SWAP7 POP POP POP POP POP POP POP JUMP JUMPDEST PUSH1 0x0 PUSH2 0x2906 DUP3 DUP5 PUSH2 0x27D4 JUMP JUMPDEST SWAP2 POP DUP2 SWAP1 POP SWAP3 SWAP2 POP POP JUMP JUMPDEST PUSH1 0x0 PUSH2 0x291D DUP3 DUP5 PUSH2 0x2250 JUMP JUMPDEST SWAP2 POP DUP2 SWAP1 POP SWAP3 SWAP2 POP POP JUMP JUMPDEST PUSH1 0x0 PUSH2 0x2933 DUP3 PUSH2 0x1DEC JUMP JUMPDEST SWAP2 POP PUSH2 0x293E DUP4 PUSH2 0x1DEC JUMP JUMPDEST SWAP3 POP DUP3 DUP3 MUL PUSH2 0x294C DUP2 PUSH2 0x1DEC JUMP JUMPDEST SWAP2 POP PUSH32 0x8000000000000000000000000000000000000000000000000000000000000000 DUP5 EQ PUSH1 0x0 DUP5 SLT AND ISZERO PUSH2 0x2984 JUMPI PUSH2 0x2983 PUSH2 0x238C JUMP JUMPDEST JUMPDEST DUP3 DUP3 SDIV DUP5 EQ DUP4 ISZERO OR PUSH2 0x2999 JUMPI PUSH2 0x2998 PUSH2 0x238C JUMP JUMPDEST JUMPDEST POP SWAP3 SWAP2 POP POP JUMP JUMPDEST PUSH32 0x4E487B7100000000000000000000000000000000000000000000000000000000 PUSH1 0x0 MSTORE PUSH1 0x12 PUSH1 0x4 MSTORE PUSH1 0x24 PUSH1 0x0 REVERT JUMPDEST PUSH1 0x0 PUSH2 0x29DA DUP3 PUSH2 0x1DEC JUMP JUMPDEST SWAP2 POP PUSH2 0x29E5 DUP4 PUSH2 0x1DEC JUMP JUMPDEST SWAP3 POP DUP3 PUSH2 0x29F5 JUMPI PUSH2 0x29F4 PUSH2 0x29A0 JUMP JUMPDEST JUMPDEST PUSH1 0x1 PUSH1 0x0 SUB DUP4 EQ PUSH32 0x8000000000000000000000000000000000000000000000000000000000000000 DUP4 EQ AND ISZERO PUSH2 0x2A2E JUMPI PUSH2 0x2A2D PUSH2 0x238C JUMP JUMPDEST JUMPDEST DUP3 DUP3 SDIV SWAP1 POP SWAP3 SWAP2 POP POP JUMP JUMPDEST PUSH1 0x0 PUSH1 0x40 DUP3 ADD SWAP1 POP DUP2 DUP2 SUB PUSH1 0x0 DUP4 ADD MSTORE PUSH2 0x2A53 DUP2 DUP6 PUSH2 0x1D47 JUMP JUMPDEST SWAP1 POP PUSH2 0x2A62 PUSH1 0x20 DUP4 ADD DUP5 PUSH2 0x205E JUMP JUMPDEST SWAP4 SWAP3 POP POP POP JUMP JUMPDEST PUSH1 0x0 PUSH2 0x2A75 DUP3 DUP6 PUSH2 0x2250 JUMP JUMPDEST SWAP2 POP PUSH2 0x2A81 DUP3 DUP5 PUSH2 0x2250 JUMP JUMPDEST SWAP2 POP DUP2 SWAP1 POP SWAP4 SWAP3 POP POP POP JUMP INVALID LOG2 PUSH5 0x6970667358 0x22 SLT KECCAK256 0x26 DUP7 0x23 0xC1 0x4C 0xE6 0xDB 0x2D MULMOD 0xCC PUSH23 0x5182E6A90571D6B1E102743AE1B13D352FC188BFCF6473 PUSH16 0x6C634300081200330000000000000000 "
		},
		"gasEstimates": {
			"creation": {
				"codeDepositCost": "2189400",
				"executionCost": "infinite",
				"totalCost": "infinite"
			},
			"external": {
				"getCurrentTaxes()": "infinite",
				"getCustomTaxes()": "infinite",
				"getOwner()": "2545",
				"getProductTax(string)": "infinite",
				"getProductTaxes()": "infinite",
				"getTax(string)": "infinite",
				"getVotes()": "infinite",
				"proposeCustomTaxes(string,int8)": "infinite",
				"proposeProductTaxes(string,int8)": "infinite",
				"proposeStandardTaxes(int8,int8,int8,int8)": "infinite",
				"vote(uint256,int256)": "infinite",
				"voteCustom(uint256,int256)": "infinite",
				"voteProduct(uint256,int256)": "infinite"
			}
		},
		"methodIdentifiers": {
			"getCurrentTaxes()": "d71fdd00",
			"getCustomTaxes()": "8867a4c9",
			"getOwner()": "893d20e8",
			"getProductTax(string)": "e30ebafd",
			"getProductTaxes()": "b28b59ed",
			"getTax(string)": "8a0d56ce",
			"getVotes()": "0dc96015",
			"proposeCustomTaxes(string,int8)": "564a80f9",
			"proposeProductTaxes(string,int8)": "6121008c",
			"proposeStandardTaxes(int8,int8,int8,int8)": "f73e8912",
			"vote(uint256,int256)": "5e44daf3",
			"voteCustom(uint256,int256)": "33db1a61",
			"voteProduct(uint256,int256)": "d0551f11"
		}
	},
	"abi": [
		{
			"inputs": [],
			"stateMutability": "nonpayable",
			"type": "constructor"
		},
		{
			"anonymous": false,
			"inputs": [
				{
					"indexed": true,
					"internalType": "address",
					"name": "oldOwner",
					"type": "address"
				},
				{
					"indexed": true,
					"internalType": "address",
					"name": "newOwner",
					"type": "address"
				}
			],
			"name": "OwnerSet",
			"type": "event"
		},
		{
			"inputs": [],
			"name": "getCurrentTaxes",
			"outputs": [
				{
					"components": [
						{
							"internalType": "int8",
							"name": "PIT",
							"type": "int8"
						},
						{
							"internalType": "int8",
							"name": "CIT",
							"type": "int8"
						},
						{
							"internalType": "int8",
							"name": "VAT",
							"type": "int8"
						},
						{
							"internalType": "int8",
							"name": "Health",
							"type": "int8"
						},
						{
							"internalType": "int256",
							"name": "votes",
							"type": "int256"
						},
						{
							"internalType": "int256",
							"name": "total",
							"type": "int256"
						}
					],
					"internalType": "struct Taxes.cStandardTaxesProp",
					"name": "taxes",
					"type": "tuple"
				}
			],
			"stateMutability": "view",
			"type": "function"
		},
		{
			"inputs": [],
			"name": "getCustomTaxes",
			"outputs": [
				{
					"internalType": "string",
					"name": "taxes",
					"type": "string"
				}
			],
			"stateMutability": "view",
			"type": "function"
		},
		{
			"inputs": [],
			"name": "getOwner",
			"outputs": [
				{
					"internalType": "address",
					"name": "",
					"type": "address"
				}
			],
			"stateMutability": "view",
			"type": "function"
		},
		{
			"inputs": [
				{
					"internalType": "string",
					"name": "productID",
					"type": "string"
				}
			],
			"name": "getProductTax",
			"outputs": [
				{
					"internalType": "int256",
					"name": "",
					"type": "int256"
				}
			],
			"stateMutability": "view",
			"type": "function"
		},
		{
			"inputs": [],
			"name": "getProductTaxes",
			"outputs": [
				{
					"internalType": "string",
					"name": "taxes",
					"type": "string"
				}
			],
			"stateMutability": "view",
			"type": "function"
		},
		{
			"inputs": [
				{
					"internalType": "string",
					"name": "companyID",
					"type": "string"
				}
			],
			"name": "getTax",
			"outputs": [
				{
					"internalType": "int256",
					"name": "",
					"type": "int256"
				}
			],
			"stateMutability": "view",
			"type": "function"
		},
		{
			"inputs": [],
			"name": "getVotes",
			"outputs": [
				{
					"internalType": "string",
					"name": "v",
					"type": "string"
				}
			],
			"stateMutability": "view",
			"type": "function"
		},
		{
			"inputs": [
				{
					"internalType": "string",
					"name": "companyID",
					"type": "string"
				},
				{
					"internalType": "int8",
					"name": "tax",
					"type": "int8"
				}
			],
			"name": "proposeCustomTaxes",
			"outputs": [],
			"stateMutability": "payable",
			"type": "function"
		},
		{
			"inputs": [
				{
					"internalType": "string",
					"name": "productID",
					"type": "string"
				},
				{
					"internalType": "int8",
					"name": "tax",
					"type": "int8"
				}
			],
			"name": "proposeProductTaxes",
			"outputs": [],
			"stateMutability": "payable",
			"type": "function"
		},
		{
			"inputs": [
				{
					"internalType": "int8",
					"name": "PIT",
					"type": "int8"
				},
				{
					"internalType": "int8",
					"name": "CIT",
					"type": "int8"
				},
				{
					"internalType": "int8",
					"name": "VAT",
					"type": "int8"
				},
				{
					"internalType": "int8",
					"name": "Health",
					"type": "int8"
				}
			],
			"name": "proposeStandardTaxes",
			"outputs": [],
			"stateMutability": "payable",
			"type": "function"
		},
		{
			"inputs": [
				{
					"internalType": "uint256",
					"name": "id",
					"type": "uint256"
				},
				{
					"internalType": "int256",
					"name": "v",
					"type": "int256"
				}
			],
			"name": "vote",
			"outputs": [],
			"stateMutability": "payable",
			"type": "function"
		},
		{
			"inputs": [
				{
					"internalType": "uint256",
					"name": "id",
					"type": "uint256"
				},
				{
					"internalType": "int256",
					"name": "v",
					"type": "int256"
				}
			],
			"name": "voteCustom",
			"outputs": [],
			"stateMutability": "payable",
			"type": "function"
		},
		{
			"inputs": [
				{
					"internalType": "uint256",
					"name": "id",
					"type": "uint256"
				},
				{
					"internalType": "int256",
					"name": "v",
					"type": "int256"
				}
			],
			"name": "voteProduct",
			"outputs": [],
			"stateMutability": "payable",
			"type": "function"
		}
	]
}