{
	"data": {
		"bytecode": {
			"linkReferences": {},
			"object": "60806040523480156200001157600080fd5b506200005e6040518060400160405280601b81526020017f4f776e657220636f6e7472616374206465706c6f7965642062793a0000000000815250336200022f60201b620012891760201c565b336000806101000a81548173ffffffffffffffffffffffffffffffffffffffff021916908373ffffffffffffffffffffffffffffffffffffffff16021790555060008054906101000a900473ffffffffffffffffffffffffffffffffffffffff1673ffffffffffffffffffffffffffffffffffffffff16600073ffffffffffffffffffffffffffffffffffffffff167f342827c97908e5e2f71151c08502a66d44b6f758e3ac2f1de95f02eb95f0a73560405160405180910390a360046040518060c00160405280601060000b8152602001600160000b8152602001601060000b8152602001601960000b8152602001600081526020016000815250908060018154018082558091505060019003906000526020600020906003020160009091909190915060008201518160000160006101000a81548160ff021916908360000b60ff16021790555060208201518160000160016101000a81548160ff021916908360000b60ff16021790555060408201518160000160026101000a81548160ff021916908360000b60ff16021790555060608201518160000160036101000a81548160ff021916908360000b60ff1602179055506080820151816001015560a08201518160020155505062000411565b620002d1828260405160240162000248929190620003dd565b6040516020818303038152906040527f319af333000000000000000000000000000000000000000000000000000000007bffffffffffffffffffffffffffffffffffffffffffffffffffffffff19166020820180517bffffffffffffffffffffffffffffffffffffffffffffffffffffffff8381831617835250505050620002d560201b60201c565b5050565b60008151905060006a636f6e736f6c652e6c6f679050602083016000808483855afa5050505050565b600081519050919050565b600082825260208201905092915050565b60005b838110156200033a5780820151818401526020810190506200031d565b60008484015250505050565b6000601f19601f8301169050919050565b60006200036482620002fe565b62000370818562000309565b9350620003828185602086016200031a565b6200038d8162000346565b840191505092915050565b600073ffffffffffffffffffffffffffffffffffffffff82169050919050565b6000620003c58262000398565b9050919050565b620003d781620003b8565b82525050565b60006040820190508181036000830152620003f9818562000357565b90506200040a6020830184620003cc565b9392505050565b61250980620004216000396000f3fe6080604052600436106100915760003560e01c8063893d20e811610059578063893d20e8146101405780638a0d56ce1461016b578063a6f9dae1146101a8578063d71fdd00146101d1578063f73e8912146101fc57610091565b80630dc960151461009657806333db1a61146100c1578063564a80f9146100dd5780635e44daf3146100f95780638867a4c914610115575b600080fd5b3480156100a257600080fd5b506100ab610218565b6040516100b8919061171d565b60405180910390f35b6100db60048036038101906100d691906117bf565b6103bd565b005b6100f760048036038101906100f2919061196d565b610790565b005b610113600480360381019061010e91906117bf565b610835565b005b34801561012157600080fd5b5061012a610c08565b604051610137919061171d565b60405180910390f35b34801561014c57600080fd5b50610155610d2b565b6040516101629190611a0a565b60405180910390f35b34801561017757600080fd5b50610192600480360381019061018d9190611a25565b610d54565b60405161019f9190611a7d565b60405180910390f35b3480156101b457600080fd5b506101cf60048036038101906101ca9190611ac4565b610eab565b005b3480156101dd57600080fd5b506101e6610ff6565b6040516101f39190611b8a565b60405180910390f35b61021660048036038101906102119190611ba5565b611177565b005b606060005b6004805490508110156103b957816102696004838154811061024257610241611c0c565b5b906000526020600020906003020160000160009054906101000a900460000b60000b611325565b6102a7600484815481106102805761027f611c0c565b5b906000526020600020906003020160000160019054906101000a900460000b60000b611325565b6102e5600485815481106102be576102bd611c0c565b5b906000526020600020906003020160000160029054906101000a900460000b60000b611325565b610323600486815481106102fc576102fb611c0c565b5b906000526020600020906003020160000160039054906101000a900460000b60000b611325565b6103516004878154811061033a57610339611c0c565b5b906000526020600020906003020160010154611325565b61037f6004888154811061036857610367611c0c565b5b906000526020600020906003020160020154611325565b6040516020016103959796959493929190611cc3565b604051602081830303815290604052915080806103b190611db1565b91505061021d565b5090565b7fffffffffffffffffffffffffffffffffffffffffffffffffffffffffffffffff811215610420576040517f08c379a000000000000000000000000000000000000000000000000000000000815260040161041790611e45565b60405180910390fd5b6001811315610464576040517f08c379a000000000000000000000000000000000000000000000000000000000815260040161045b90611e45565b60405180910390fd5b600060028054905011156106545760005b600280549050811015610652573373ffffffffffffffffffffffffffffffffffffffff16600282815481106104ad576104ac611c0c565b5b906000526020600020906003020160000160009054906101000a900473ffffffffffffffffffffffffffffffffffffffff1673ffffffffffffffffffffffffffffffffffffffff160361063f576002818154811061050e5761050d611c0c565b5b90600052602060002090600302016001015460036001838154811061053657610535611c0c565b5b9060005260206000209060030201600201548154811061055957610558611c0c565b5b906000526020600020906004020160020160008282546105799190611e65565b92505081905550600160036001838154811061059857610597611c0c565b5b906000526020600020906003020160020154815481106105bb576105ba611c0c565b5b906000526020600020906004020160030160008282546105db9190611e65565b92505081905550600281815481106105f6576105f5611c0c565b5b9060005260206000209060030201600080820160006101000a81549073ffffffffffffffffffffffffffffffffffffffff02191690556001820160009055600282016000905550505b808061064a90611db1565b915050610475565b505b600060405180606001604052803373ffffffffffffffffffffffffffffffffffffffff168152602001838152602001848152509050600281908060018154018082558091505060019003906000526020600020906003020160009091909190915060008201518160000160006101000a81548173ffffffffffffffffffffffffffffffffffffffff021916908373ffffffffffffffffffffffffffffffffffffffff16021790555060208201518160010155604082015181600201555050816003848154811061072757610726611c0c565b5b906000526020600020906004020160020160008282546107479190611ea8565b9250508190555060016003848154811061076457610763611c0c565b5b906000526020600020906004020160030160008282546107849190611ea8565b92505081905550505050565b600360405180608001604052808481526020018360000b8152602001600081526020016000815250908060018154018082558091505060019003906000526020600020906004020160009091909190915060008201518160000190816107f691906120f8565b5060208201518160010160006101000a81548160ff021916908360000b60ff160217905550604082015181600201556060820151816003015550505050565b7fffffffffffffffffffffffffffffffffffffffffffffffffffffffffffffffff811215610898576040517f08c379a000000000000000000000000000000000000000000000000000000000815260040161088f90611e45565b60405180910390fd5b60018113156108dc576040517f08c379a00000000000000000000000000000000000000000000000000000000081526004016108d390611e45565b60405180910390fd5b60006001805490501115610acc5760005b600180549050811015610aca573373ffffffffffffffffffffffffffffffffffffffff166001828154811061092557610924611c0c565b5b906000526020600020906003020160000160009054906101000a900473ffffffffffffffffffffffffffffffffffffffff1673ffffffffffffffffffffffffffffffffffffffff1603610ab7576001818154811061098657610985611c0c565b5b9060005260206000209060030201600101546004600183815481106109ae576109ad611c0c565b5b906000526020600020906003020160020154815481106109d1576109d0611c0c565b5b906000526020600020906003020160010160008282546109f19190611e65565b925050819055506001600460018381548110610a1057610a0f611c0c565b5b90600052602060002090600302016002015481548110610a3357610a32611c0c565b5b90600052602060002090600302016002016000828254610a539190611e65565b9250508190555060018181548110610a6e57610a6d611c0c565b5b9060005260206000209060030201600080820160006101000a81549073ffffffffffffffffffffffffffffffffffffffff02191690556001820160009055600282016000905550505b8080610ac290611db1565b9150506108ed565b505b600060405180606001604052803373ffffffffffffffffffffffffffffffffffffffff168152602001838152602001848152509050600181908060018154018082558091505060019003906000526020600020906003020160009091909190915060008201518160000160006101000a81548173ffffffffffffffffffffffffffffffffffffffff021916908373ffffffffffffffffffffffffffffffffffffffff160217905550602082015181600101556040820151816002015550508160048481548110610b9f57610b9e611c0c565b5b90600052602060002090600302016001016000828254610bbf9190611ea8565b92505081905550600160048481548110610bdc57610bdb611c0c565b5b90600052602060002090600302016002016000828254610bfc9190611ea8565b92505081905550505050565b60606000806003805490501115610d235760005b600380549050811015610d215760038181548110610c3d57610c3c611c0c565b5b9060005260206000209060040201600001610c8c60038381548110610c6557610c64611c0c565b5b906000526020600020906004020160010160009054906101000a900460000b60000b611325565b610cba60038481548110610ca357610ca2611c0c565b5b906000526020600020906004020160020154611325565b610ce860038581548110610cd157610cd0611c0c565b5b906000526020600020906004020160030154611325565b86604051602001610cfd95949392919061224d565b60405160208183030381529060405292508080610d1990611db1565b915050610c1c565b505b600090505090565b60008060009054906101000a900473ffffffffffffffffffffffffffffffffffffffff16905090565b600080600090506000805b600380549050811015610ea05760038181548110610d8057610d7f611c0c565b5b9060005260206000209060040201600001604051602001610da191906122d4565b6040516020818303038152906040528051906020012085604051602001610dc891906122eb565b6040516020818303038152906040528051906020012003610e8d57600060038281548110610df957610df8611c0c565b5b9060005260206000209060040201600301546103e860038481548110610e2257610e21611c0c565b5b906000526020600020906004020160020154610e3e9190612302565b610e4891906123a9565b905082811315610e8b5760038281548110610e6657610e65611c0c565b5b906000526020600020906004020160010160009054906101000a900460000b60000b93505b505b8080610e9890611db1565b915050610d5f565b508192505050919050565b60008054906101000a900473ffffffffffffffffffffffffffffffffffffffff1673ffffffffffffffffffffffffffffffffffffffff163373ffffffffffffffffffffffffffffffffffffffff1614610f39576040517f08c379a0000000000000000000000000000000000000000000000000000000008152600401610f309061245f565b60405180910390fd5b8073ffffffffffffffffffffffffffffffffffffffff1660008054906101000a900473ffffffffffffffffffffffffffffffffffffffff1673ffffffffffffffffffffffffffffffffffffffff167f342827c97908e5e2f71151c08502a66d44b6f758e3ac2f1de95f02eb95f0a73560405160405180910390a3806000806101000a81548173ffffffffffffffffffffffffffffffffffffffff021916908373ffffffffffffffffffffffffffffffffffffffff16021790555050565b610ffe61164f565b600080600060048054905011156110b75760005b6004805490508110156110b5576000806110836103e86004858154811061103c5761103b611c0c565b5b9060005260206000209060030201600101546110589190612302565b6004858154811061106c5761106b611c0c565b5b9060005260206000209060030201600201546113b3565b915091508180156110945750848112155b156110a0578094508293505b505080806110ad90611db1565b915050611012565b505b60009150600481815481106110cf576110ce611c0c565b5b90600052602060002090600302016040518060c00160405290816000820160009054906101000a900460000b60000b60000b81526020016000820160019054906101000a900460000b60000b60000b81526020016000820160029054906101000a900460000b60000b60000b81526020016000820160039054906101000a900460000b60000b60000b8152602001600182015481526020016002820154815250509250505090565b60046040518060c001604052808660000b81526020018560000b81526020018460000b81526020018360000b8152602001600081526020016000815250908060018154018082558091505060019003906000526020600020906003020160009091909190915060008201518160000160006101000a81548160ff021916908360000b60ff16021790555060208201518160000160016101000a81548160ff021916908360000b60ff16021790555060408201518160000160026101000a81548160ff021916908360000b60ff16021790555060608201518160000160036101000a81548160ff021916908360000b60ff1602179055506080820151816001015560a08201518160020155505050505050565b611321828260405160240161129f92919061247f565b6040516020818303038152906040527f319af333000000000000000000000000000000000000000000000000000000007bffffffffffffffffffffffffffffffffffffffffffffffffffffffff19166020820180517bffffffffffffffffffffffffffffffffffffffffffffffffffffffff83818316178352505050506113e9565b5050565b606060008212611344576040518060200160405280600081525061137b565b6040518060400160405280600181526020017f2d000000000000000000000000000000000000000000000000000000000000008152505b61138c61138784611412565b61142e565b60405160200161139d9291906124af565b6040516020818303038152906040529050919050565b600080600083036113ca57600080915091506113e2565b60018385816113dc576113db61237a565b5b05915091505b9250929050565b60008151905060006a636f6e736f6c652e6c6f679050602083016000808483855afa5050505050565b6000808212156114255781600003611427565b815b9050919050565b60606000600161143d846114fc565b01905060008167ffffffffffffffff81111561145c5761145b611809565b5b6040519080825280601f01601f19166020018201604052801561148e5781602001600182028036833780820191505090505b509050600082602001820190505b6001156114f1578080600190039150507f3031323334353637383961626364656600000000000000000000000000000000600a86061a8153600a85816114e5576114e461237a565b5b0494506000850361149c575b819350505050919050565b600080600090507a184f03e93ff9f4daa797ed6e38ed64bf6a1f010000000000000000831061155a577a184f03e93ff9f4daa797ed6e38ed64bf6a1f01000000000000000083816115505761154f61237a565b5b0492506040810190505b6d04ee2d6d415b85acef81000000008310611597576d04ee2d6d415b85acef8100000000838161158d5761158c61237a565b5b0492506020810190505b662386f26fc1000083106115c657662386f26fc1000083816115bc576115bb61237a565b5b0492506010810190505b6305f5e10083106115ef576305f5e10083816115e5576115e461237a565b5b0492506008810190505b612710831061161457612710838161160a5761160961237a565b5b0492506004810190505b60648310611637576064838161162d5761162c61237a565b5b0492506002810190505b600a8310611646576001810190505b80915050919050565b6040518060c001604052806000800b81526020016000800b81526020016000800b81526020016000800b815260200160008152602001600081525090565b600081519050919050565b600082825260208201905092915050565b60005b838110156116c75780820151818401526020810190506116ac565b60008484015250505050565b6000601f19601f8301169050919050565b60006116ef8261168d565b6116f98185611698565b93506117098185602086016116a9565b611712816116d3565b840191505092915050565b6000602082019050818103600083015261173781846116e4565b905092915050565b6000604051905090565b600080fd5b600080fd5b6000819050919050565b61176681611753565b811461177157600080fd5b50565b6000813590506117838161175d565b92915050565b6000819050919050565b61179c81611789565b81146117a757600080fd5b50565b6000813590506117b981611793565b92915050565b600080604083850312156117d6576117d5611749565b5b60006117e485828601611774565b92505060206117f5858286016117aa565b9150509250929050565b600080fd5b600080fd5b7f4e487b7100000000000000000000000000000000000000000000000000000000600052604160045260246000fd5b611841826116d3565b810181811067ffffffffffffffff821117156118605761185f611809565b5b80604052505050565b600061187361173f565b905061187f8282611838565b919050565b600067ffffffffffffffff82111561189f5761189e611809565b5b6118a8826116d3565b9050602081019050919050565b82818337600083830152505050565b60006118d76118d284611884565b611869565b9050828152602081018484840111156118f3576118f2611804565b5b6118fe8482856118b5565b509392505050565b600082601f83011261191b5761191a6117ff565b5b813561192b8482602086016118c4565b91505092915050565b60008160000b9050919050565b61194a81611934565b811461195557600080fd5b50565b60008135905061196781611941565b92915050565b6000806040838503121561198457611983611749565b5b600083013567ffffffffffffffff8111156119a2576119a161174e565b5b6119ae85828601611906565b92505060206119bf85828601611958565b9150509250929050565b600073ffffffffffffffffffffffffffffffffffffffff82169050919050565b60006119f4826119c9565b9050919050565b611a04816119e9565b82525050565b6000602082019050611a1f60008301846119fb565b92915050565b600060208284031215611a3b57611a3a611749565b5b600082013567ffffffffffffffff811115611a5957611a5861174e565b5b611a6584828501611906565b91505092915050565b611a7781611789565b82525050565b6000602082019050611a926000830184611a6e565b92915050565b611aa1816119e9565b8114611aac57600080fd5b50565b600081359050611abe81611a98565b92915050565b600060208284031215611ada57611ad9611749565b5b6000611ae884828501611aaf565b91505092915050565b611afa81611934565b82525050565b611b0981611789565b82525050565b60c082016000820151611b256000850182611af1565b506020820151611b386020850182611af1565b506040820151611b4b6040850182611af1565b506060820151611b5e6060850182611af1565b506080820151611b716080850182611b00565b5060a0820151611b8460a0850182611b00565b50505050565b600060c082019050611b9f6000830184611b0f565b92915050565b60008060008060808587031215611bbf57611bbe611749565b5b6000611bcd87828801611958565b9450506020611bde87828801611958565b9350506040611bef87828801611958565b9250506060611c0087828801611958565b91505092959194509250565b7f4e487b7100000000000000000000000000000000000000000000000000000000600052603260045260246000fd5b600081905092915050565b6000611c518261168d565b611c5b8185611c3b565b9350611c6b8185602086016116a9565b80840191505092915050565b7f2300000000000000000000000000000000000000000000000000000000000000815250565b7f7c00000000000000000000000000000000000000000000000000000000000000815250565b6000611ccf828a611c46565b9150611cdb8289611c46565b9150611ce682611c77565b600182019150611cf68288611c46565b9150611d0182611c77565b600182019150611d118287611c46565b9150611d1c82611c77565b600182019150611d2c8286611c46565b9150611d3782611c77565b600182019150611d478285611c46565b9150611d5282611c77565b600182019150611d628284611c46565b9150611d6d82611c9d565b60018201915081905098975050505050505050565b7f4e487b7100000000000000000000000000000000000000000000000000000000600052601160045260246000fd5b6000611dbc82611753565b91507fffffffffffffffffffffffffffffffffffffffffffffffffffffffffffffffff8203611dee57611ded611d82565b5b600182019050919050565b7f496e76616c696420766f74650000000000000000000000000000000000000000600082015250565b6000611e2f600c83611698565b9150611e3a82611df9565b602082019050919050565b60006020820190508181036000830152611e5e81611e22565b9050919050565b6000611e7082611789565b9150611e7b83611789565b9250828203905081811260008412168282136000851215161715611ea257611ea1611d82565b5b92915050565b6000611eb382611789565b9150611ebe83611789565b925082820190508281121560008312168382126000841215161715611ee657611ee5611d82565b5b92915050565b7f4e487b7100000000000000000000000000000000000000000000000000000000600052602260045260246000fd5b60006002820490506001821680611f3357607f821691505b602082108103611f4657611f45611eec565b5b50919050565b60008190508160005260206000209050919050565b60006020601f8301049050919050565b600082821b905092915050565b600060088302611fae7fffffffffffffffffffffffffffffffffffffffffffffffffffffffffffffffff82611f71565b611fb88683611f71565b95508019841693508086168417925050509392505050565b6000819050919050565b6000611ff5611ff0611feb84611753565b611fd0565b611753565b9050919050565b6000819050919050565b61200f83611fda565b61202361201b82611ffc565b848454611f7e565b825550505050565b600090565b61203861202b565b612043818484612006565b505050565b5b818110156120675761205c600082612030565b600181019050612049565b5050565b601f8211156120ac5761207d81611f4c565b61208684611f61565b81016020851015612095578190505b6120a96120a185611f61565b830182612048565b50505b505050565b600082821c905092915050565b60006120cf600019846008026120b1565b1980831691505092915050565b60006120e883836120be565b9150826002028217905092915050565b6121018261168d565b67ffffffffffffffff81111561211a57612119611809565b5b6121248254611f1b565b61212f82828561206b565b600060209050601f8311600181146121625760008415612150578287015190505b61215a85826120dc565b8655506121c2565b601f19841661217086611f4c565b60005b8281101561219857848901518255600182019150602085019450602081019050612173565b868310156121b557848901516121b1601f8916826120be565b8355505b6001600288020188555050505b505050505050565b600081546121d781611f1b565b6121e18186611c3b565b945060018216600081146121fc576001811461221157612244565b60ff1983168652811515820286019350612244565b61221a85611f4c565b60005b8381101561223c5781548189015260018201915060208101905061221d565b838801955050505b50505092915050565b600061225982886121ca565b915061226482611c77565b6001820191506122748287611c46565b915061227f82611c77565b60018201915061228f8286611c46565b915061229a82611c77565b6001820191506122aa8285611c46565b91506122b582611c9d565b6001820191506122c58284611c46565b91508190509695505050505050565b60006122e082846121ca565b915081905092915050565b60006122f78284611c46565b915081905092915050565b600061230d82611789565b915061231883611789565b925082820261232681611789565b91507f8000000000000000000000000000000000000000000000000000000000000000841460008412161561235e5761235d611d82565b5b828205841483151761237357612372611d82565b5b5092915050565b7f4e487b7100000000000000000000000000000000000000000000000000000000600052601260045260246000fd5b60006123b482611789565b91506123bf83611789565b9250826123cf576123ce61237a565b5b600160000383147f80000000000000000000000000000000000000000000000000000000000000008314161561240857612407611d82565b5b828205905092915050565b7f43616c6c6572206973206e6f74206f776e657200000000000000000000000000600082015250565b6000612449601383611698565b915061245482612413565b602082019050919050565b600060208201905081810360008301526124788161243c565b9050919050565b6000604082019050818103600083015261249981856116e4565b90506124a860208301846119fb565b9392505050565b60006124bb8285611c46565b91506124c78284611c46565b9150819050939250505056fea2646970667358221220477d4f283b9ab5c173f95f7f5473c778dcc677870d8b76ad4d35152f16b7d65264736f6c63430008120033",
			"opcodes": "PUSH1 0x80 PUSH1 0x40 MSTORE CALLVALUE DUP1 ISZERO PUSH3 0x11 JUMPI PUSH1 0x0 DUP1 REVERT JUMPDEST POP PUSH3 0x5E PUSH1 0x40 MLOAD DUP1 PUSH1 0x40 ADD PUSH1 0x40 MSTORE DUP1 PUSH1 0x1B DUP2 MSTORE PUSH1 0x20 ADD PUSH32 0x4F776E657220636F6E7472616374206465706C6F7965642062793A0000000000 DUP2 MSTORE POP CALLER PUSH3 0x22F PUSH1 0x20 SHL PUSH3 0x1289 OR PUSH1 0x20 SHR JUMP JUMPDEST CALLER PUSH1 0x0 DUP1 PUSH2 0x100 EXP DUP2 SLOAD DUP2 PUSH20 0xFFFFFFFFFFFFFFFFFFFFFFFFFFFFFFFFFFFFFFFF MUL NOT AND SWAP1 DUP4 PUSH20 0xFFFFFFFFFFFFFFFFFFFFFFFFFFFFFFFFFFFFFFFF AND MUL OR SWAP1 SSTORE POP PUSH1 0x0 DUP1 SLOAD SWAP1 PUSH2 0x100 EXP SWAP1 DIV PUSH20 0xFFFFFFFFFFFFFFFFFFFFFFFFFFFFFFFFFFFFFFFF AND PUSH20 0xFFFFFFFFFFFFFFFFFFFFFFFFFFFFFFFFFFFFFFFF AND PUSH1 0x0 PUSH20 0xFFFFFFFFFFFFFFFFFFFFFFFFFFFFFFFFFFFFFFFF AND PUSH32 0x342827C97908E5E2F71151C08502A66D44B6F758E3AC2F1DE95F02EB95F0A735 PUSH1 0x40 MLOAD PUSH1 0x40 MLOAD DUP1 SWAP2 SUB SWAP1 LOG3 PUSH1 0x4 PUSH1 0x40 MLOAD DUP1 PUSH1 0xC0 ADD PUSH1 0x40 MSTORE DUP1 PUSH1 0x10 PUSH1 0x0 SIGNEXTEND DUP2 MSTORE PUSH1 0x20 ADD PUSH1 0x1 PUSH1 0x0 SIGNEXTEND DUP2 MSTORE PUSH1 0x20 ADD PUSH1 0x10 PUSH1 0x0 SIGNEXTEND DUP2 MSTORE PUSH1 0x20 ADD PUSH1 0x19 PUSH1 0x0 SIGNEXTEND DUP2 MSTORE PUSH1 0x20 ADD PUSH1 0x0 DUP2 MSTORE PUSH1 0x20 ADD PUSH1 0x0 DUP2 MSTORE POP SWAP1 DUP1 PUSH1 0x1 DUP2 SLOAD ADD DUP1 DUP3 SSTORE DUP1 SWAP2 POP POP PUSH1 0x1 SWAP1 SUB SWAP1 PUSH1 0x0 MSTORE PUSH1 0x20 PUSH1 0x0 KECCAK256 SWAP1 PUSH1 0x3 MUL ADD PUSH1 0x0 SWAP1 SWAP2 SWAP1 SWAP2 SWAP1 SWAP2 POP PUSH1 0x0 DUP3 ADD MLOAD DUP2 PUSH1 0x0 ADD PUSH1 0x0 PUSH2 0x100 EXP DUP2 SLOAD DUP2 PUSH1 0xFF MUL NOT AND SWAP1 DUP4 PUSH1 0x0 SIGNEXTEND PUSH1 0xFF AND MUL OR SWAP1 SSTORE POP PUSH1 0x20 DUP3 ADD MLOAD DUP2 PUSH1 0x0 ADD PUSH1 0x1 PUSH2 0x100 EXP DUP2 SLOAD DUP2 PUSH1 0xFF MUL NOT AND SWAP1 DUP4 PUSH1 0x0 SIGNEXTEND PUSH1 0xFF AND MUL OR SWAP1 SSTORE POP PUSH1 0x40 DUP3 ADD MLOAD DUP2 PUSH1 0x0 ADD PUSH1 0x2 PUSH2 0x100 EXP DUP2 SLOAD DUP2 PUSH1 0xFF MUL NOT AND SWAP1 DUP4 PUSH1 0x0 SIGNEXTEND PUSH1 0xFF AND MUL OR SWAP1 SSTORE POP PUSH1 0x60 DUP3 ADD MLOAD DUP2 PUSH1 0x0 ADD PUSH1 0x3 PUSH2 0x100 EXP DUP2 SLOAD DUP2 PUSH1 0xFF MUL NOT AND SWAP1 DUP4 PUSH1 0x0 SIGNEXTEND PUSH1 0xFF AND MUL OR SWAP1 SSTORE POP PUSH1 0x80 DUP3 ADD MLOAD DUP2 PUSH1 0x1 ADD SSTORE PUSH1 0xA0 DUP3 ADD MLOAD DUP2 PUSH1 0x2 ADD SSTORE POP POP PUSH3 0x411 JUMP JUMPDEST PUSH3 0x2D1 DUP3 DUP3 PUSH1 0x40 MLOAD PUSH1 0x24 ADD PUSH3 0x248 SWAP3 SWAP2 SWAP1 PUSH3 0x3DD JUMP JUMPDEST PUSH1 0x40 MLOAD PUSH1 0x20 DUP2 DUP4 SUB SUB DUP2 MSTORE SWAP1 PUSH1 0x40 MSTORE PUSH32 0x319AF33300000000000000000000000000000000000000000000000000000000 PUSH28 0xFFFFFFFFFFFFFFFFFFFFFFFFFFFFFFFFFFFFFFFFFFFFFFFFFFFFFFFF NOT AND PUSH1 0x20 DUP3 ADD DUP1 MLOAD PUSH28 0xFFFFFFFFFFFFFFFFFFFFFFFFFFFFFFFFFFFFFFFFFFFFFFFFFFFFFFFF DUP4 DUP2 DUP4 AND OR DUP4 MSTORE POP POP POP POP PUSH3 0x2D5 PUSH1 0x20 SHL PUSH1 0x20 SHR JUMP JUMPDEST POP POP JUMP JUMPDEST PUSH1 0x0 DUP2 MLOAD SWAP1 POP PUSH1 0x0 PUSH11 0x636F6E736F6C652E6C6F67 SWAP1 POP PUSH1 0x20 DUP4 ADD PUSH1 0x0 DUP1 DUP5 DUP4 DUP6 GAS STATICCALL POP POP POP POP POP JUMP JUMPDEST PUSH1 0x0 DUP2 MLOAD SWAP1 POP SWAP2 SWAP1 POP JUMP JUMPDEST PUSH1 0x0 DUP3 DUP3 MSTORE PUSH1 0x20 DUP3 ADD SWAP1 POP SWAP3 SWAP2 POP POP JUMP JUMPDEST PUSH1 0x0 JUMPDEST DUP4 DUP2 LT ISZERO PUSH3 0x33A JUMPI DUP1 DUP3 ADD MLOAD DUP2 DUP5 ADD MSTORE PUSH1 0x20 DUP2 ADD SWAP1 POP PUSH3 0x31D JUMP JUMPDEST PUSH1 0x0 DUP5 DUP5 ADD MSTORE POP POP POP POP JUMP JUMPDEST PUSH1 0x0 PUSH1 0x1F NOT PUSH1 0x1F DUP4 ADD AND SWAP1 POP SWAP2 SWAP1 POP JUMP JUMPDEST PUSH1 0x0 PUSH3 0x364 DUP3 PUSH3 0x2FE JUMP JUMPDEST PUSH3 0x370 DUP2 DUP6 PUSH3 0x309 JUMP JUMPDEST SWAP4 POP PUSH3 0x382 DUP2 DUP6 PUSH1 0x20 DUP7 ADD PUSH3 0x31A JUMP JUMPDEST PUSH3 0x38D DUP2 PUSH3 0x346 JUMP JUMPDEST DUP5 ADD SWAP2 POP POP SWAP3 SWAP2 POP POP JUMP JUMPDEST PUSH1 0x0 PUSH20 0xFFFFFFFFFFFFFFFFFFFFFFFFFFFFFFFFFFFFFFFF DUP3 AND SWAP1 POP SWAP2 SWAP1 POP JUMP JUMPDEST PUSH1 0x0 PUSH3 0x3C5 DUP3 PUSH3 0x398 JUMP JUMPDEST SWAP1 POP SWAP2 SWAP1 POP JUMP JUMPDEST PUSH3 0x3D7 DUP2 PUSH3 0x3B8 JUMP JUMPDEST DUP3 MSTORE POP POP JUMP JUMPDEST PUSH1 0x0 PUSH1 0x40 DUP3 ADD SWAP1 POP DUP2 DUP2 SUB PUSH1 0x0 DUP4 ADD MSTORE PUSH3 0x3F9 DUP2 DUP6 PUSH3 0x357 JUMP JUMPDEST SWAP1 POP PUSH3 0x40A PUSH1 0x20 DUP4 ADD DUP5 PUSH3 0x3CC JUMP JUMPDEST SWAP4 SWAP3 POP POP POP JUMP JUMPDEST PUSH2 0x2509 DUP1 PUSH3 0x421 PUSH1 0x0 CODECOPY PUSH1 0x0 RETURN INVALID PUSH1 0x80 PUSH1 0x40 MSTORE PUSH1 0x4 CALLDATASIZE LT PUSH2 0x91 JUMPI PUSH1 0x0 CALLDATALOAD PUSH1 0xE0 SHR DUP1 PUSH4 0x893D20E8 GT PUSH2 0x59 JUMPI DUP1 PUSH4 0x893D20E8 EQ PUSH2 0x140 JUMPI DUP1 PUSH4 0x8A0D56CE EQ PUSH2 0x16B JUMPI DUP1 PUSH4 0xA6F9DAE1 EQ PUSH2 0x1A8 JUMPI DUP1 PUSH4 0xD71FDD00 EQ PUSH2 0x1D1 JUMPI DUP1 PUSH4 0xF73E8912 EQ PUSH2 0x1FC JUMPI PUSH2 0x91 JUMP JUMPDEST DUP1 PUSH4 0xDC96015 EQ PUSH2 0x96 JUMPI DUP1 PUSH4 0x33DB1A61 EQ PUSH2 0xC1 JUMPI DUP1 PUSH4 0x564A80F9 EQ PUSH2 0xDD JUMPI DUP1 PUSH4 0x5E44DAF3 EQ PUSH2 0xF9 JUMPI DUP1 PUSH4 0x8867A4C9 EQ PUSH2 0x115 JUMPI JUMPDEST PUSH1 0x0 DUP1 REVERT JUMPDEST CALLVALUE DUP1 ISZERO PUSH2 0xA2 JUMPI PUSH1 0x0 DUP1 REVERT JUMPDEST POP PUSH2 0xAB PUSH2 0x218 JUMP JUMPDEST PUSH1 0x40 MLOAD PUSH2 0xB8 SWAP2 SWAP1 PUSH2 0x171D JUMP JUMPDEST PUSH1 0x40 MLOAD DUP1 SWAP2 SUB SWAP1 RETURN JUMPDEST PUSH2 0xDB PUSH1 0x4 DUP1 CALLDATASIZE SUB DUP2 ADD SWAP1 PUSH2 0xD6 SWAP2 SWAP1 PUSH2 0x17BF JUMP JUMPDEST PUSH2 0x3BD JUMP JUMPDEST STOP JUMPDEST PUSH2 0xF7 PUSH1 0x4 DUP1 CALLDATASIZE SUB DUP2 ADD SWAP1 PUSH2 0xF2 SWAP2 SWAP1 PUSH2 0x196D JUMP JUMPDEST PUSH2 0x790 JUMP JUMPDEST STOP JUMPDEST PUSH2 0x113 PUSH1 0x4 DUP1 CALLDATASIZE SUB DUP2 ADD SWAP1 PUSH2 0x10E SWAP2 SWAP1 PUSH2 0x17BF JUMP JUMPDEST PUSH2 0x835 JUMP JUMPDEST STOP JUMPDEST CALLVALUE DUP1 ISZERO PUSH2 0x121 JUMPI PUSH1 0x0 DUP1 REVERT JUMPDEST POP PUSH2 0x12A PUSH2 0xC08 JUMP JUMPDEST PUSH1 0x40 MLOAD PUSH2 0x137 SWAP2 SWAP1 PUSH2 0x171D JUMP JUMPDEST PUSH1 0x40 MLOAD DUP1 SWAP2 SUB SWAP1 RETURN JUMPDEST CALLVALUE DUP1 ISZERO PUSH2 0x14C JUMPI PUSH1 0x0 DUP1 REVERT JUMPDEST POP PUSH2 0x155 PUSH2 0xD2B JUMP JUMPDEST PUSH1 0x40 MLOAD PUSH2 0x162 SWAP2 SWAP1 PUSH2 0x1A0A JUMP JUMPDEST PUSH1 0x40 MLOAD DUP1 SWAP2 SUB SWAP1 RETURN JUMPDEST CALLVALUE DUP1 ISZERO PUSH2 0x177 JUMPI PUSH1 0x0 DUP1 REVERT JUMPDEST POP PUSH2 0x192 PUSH1 0x4 DUP1 CALLDATASIZE SUB DUP2 ADD SWAP1 PUSH2 0x18D SWAP2 SWAP1 PUSH2 0x1A25 JUMP JUMPDEST PUSH2 0xD54 JUMP JUMPDEST PUSH1 0x40 MLOAD PUSH2 0x19F SWAP2 SWAP1 PUSH2 0x1A7D JUMP JUMPDEST PUSH1 0x40 MLOAD DUP1 SWAP2 SUB SWAP1 RETURN JUMPDEST CALLVALUE DUP1 ISZERO PUSH2 0x1B4 JUMPI PUSH1 0x0 DUP1 REVERT JUMPDEST POP PUSH2 0x1CF PUSH1 0x4 DUP1 CALLDATASIZE SUB DUP2 ADD SWAP1 PUSH2 0x1CA SWAP2 SWAP1 PUSH2 0x1AC4 JUMP JUMPDEST PUSH2 0xEAB JUMP JUMPDEST STOP JUMPDEST CALLVALUE DUP1 ISZERO PUSH2 0x1DD JUMPI PUSH1 0x0 DUP1 REVERT JUMPDEST POP PUSH2 0x1E6 PUSH2 0xFF6 JUMP JUMPDEST PUSH1 0x40 MLOAD PUSH2 0x1F3 SWAP2 SWAP1 PUSH2 0x1B8A JUMP JUMPDEST PUSH1 0x40 MLOAD DUP1 SWAP2 SUB SWAP1 RETURN JUMPDEST PUSH2 0x216 PUSH1 0x4 DUP1 CALLDATASIZE SUB DUP2 ADD SWAP1 PUSH2 0x211 SWAP2 SWAP1 PUSH2 0x1BA5 JUMP JUMPDEST PUSH2 0x1177 JUMP JUMPDEST STOP JUMPDEST PUSH1 0x60 PUSH1 0x0 JUMPDEST PUSH1 0x4 DUP1 SLOAD SWAP1 POP DUP2 LT ISZERO PUSH2 0x3B9 JUMPI DUP2 PUSH2 0x269 PUSH1 0x4 DUP4 DUP2 SLOAD DUP2 LT PUSH2 0x242 JUMPI PUSH2 0x241 PUSH2 0x1C0C JUMP JUMPDEST JUMPDEST SWAP1 PUSH1 0x0 MSTORE PUSH1 0x20 PUSH1 0x0 KECCAK256 SWAP1 PUSH1 0x3 MUL ADD PUSH1 0x0 ADD PUSH1 0x0 SWAP1 SLOAD SWAP1 PUSH2 0x100 EXP SWAP1 DIV PUSH1 0x0 SIGNEXTEND PUSH1 0x0 SIGNEXTEND PUSH2 0x1325 JUMP JUMPDEST PUSH2 0x2A7 PUSH1 0x4 DUP5 DUP2 SLOAD DUP2 LT PUSH2 0x280 JUMPI PUSH2 0x27F PUSH2 0x1C0C JUMP JUMPDEST JUMPDEST SWAP1 PUSH1 0x0 MSTORE PUSH1 0x20 PUSH1 0x0 KECCAK256 SWAP1 PUSH1 0x3 MUL ADD PUSH1 0x0 ADD PUSH1 0x1 SWAP1 SLOAD SWAP1 PUSH2 0x100 EXP SWAP1 DIV PUSH1 0x0 SIGNEXTEND PUSH1 0x0 SIGNEXTEND PUSH2 0x1325 JUMP JUMPDEST PUSH2 0x2E5 PUSH1 0x4 DUP6 DUP2 SLOAD DUP2 LT PUSH2 0x2BE JUMPI PUSH2 0x2BD PUSH2 0x1C0C JUMP JUMPDEST JUMPDEST SWAP1 PUSH1 0x0 MSTORE PUSH1 0x20 PUSH1 0x0 KECCAK256 SWAP1 PUSH1 0x3 MUL ADD PUSH1 0x0 ADD PUSH1 0x2 SWAP1 SLOAD SWAP1 PUSH2 0x100 EXP SWAP1 DIV PUSH1 0x0 SIGNEXTEND PUSH1 0x0 SIGNEXTEND PUSH2 0x1325 JUMP JUMPDEST PUSH2 0x323 PUSH1 0x4 DUP7 DUP2 SLOAD DUP2 LT PUSH2 0x2FC JUMPI PUSH2 0x2FB PUSH2 0x1C0C JUMP JUMPDEST JUMPDEST SWAP1 PUSH1 0x0 MSTORE PUSH1 0x20 PUSH1 0x0 KECCAK256 SWAP1 PUSH1 0x3 MUL ADD PUSH1 0x0 ADD PUSH1 0x3 SWAP1 SLOAD SWAP1 PUSH2 0x100 EXP SWAP1 DIV PUSH1 0x0 SIGNEXTEND PUSH1 0x0 SIGNEXTEND PUSH2 0x1325 JUMP JUMPDEST PUSH2 0x351 PUSH1 0x4 DUP8 DUP2 SLOAD DUP2 LT PUSH2 0x33A JUMPI PUSH2 0x339 PUSH2 0x1C0C JUMP JUMPDEST JUMPDEST SWAP1 PUSH1 0x0 MSTORE PUSH1 0x20 PUSH1 0x0 KECCAK256 SWAP1 PUSH1 0x3 MUL ADD PUSH1 0x1 ADD SLOAD PUSH2 0x1325 JUMP JUMPDEST PUSH2 0x37F PUSH1 0x4 DUP9 DUP2 SLOAD DUP2 LT PUSH2 0x368 JUMPI PUSH2 0x367 PUSH2 0x1C0C JUMP JUMPDEST JUMPDEST SWAP1 PUSH1 0x0 MSTORE PUSH1 0x20 PUSH1 0x0 KECCAK256 SWAP1 PUSH1 0x3 MUL ADD PUSH1 0x2 ADD SLOAD PUSH2 0x1325 JUMP JUMPDEST PUSH1 0x40 MLOAD PUSH1 0x20 ADD PUSH2 0x395 SWAP8 SWAP7 SWAP6 SWAP5 SWAP4 SWAP3 SWAP2 SWAP1 PUSH2 0x1CC3 JUMP JUMPDEST PUSH1 0x40 MLOAD PUSH1 0x20 DUP2 DUP4 SUB SUB DUP2 MSTORE SWAP1 PUSH1 0x40 MSTORE SWAP2 POP DUP1 DUP1 PUSH2 0x3B1 SWAP1 PUSH2 0x1DB1 JUMP JUMPDEST SWAP2 POP POP PUSH2 0x21D JUMP JUMPDEST POP SWAP1 JUMP JUMPDEST PUSH32 0xFFFFFFFFFFFFFFFFFFFFFFFFFFFFFFFFFFFFFFFFFFFFFFFFFFFFFFFFFFFFFFFF DUP2 SLT ISZERO PUSH2 0x420 JUMPI PUSH1 0x40 MLOAD PUSH32 0x8C379A000000000000000000000000000000000000000000000000000000000 DUP2 MSTORE PUSH1 0x4 ADD PUSH2 0x417 SWAP1 PUSH2 0x1E45 JUMP JUMPDEST PUSH1 0x40 MLOAD DUP1 SWAP2 SUB SWAP1 REVERT JUMPDEST PUSH1 0x1 DUP2 SGT ISZERO PUSH2 0x464 JUMPI PUSH1 0x40 MLOAD PUSH32 0x8C379A000000000000000000000000000000000000000000000000000000000 DUP2 MSTORE PUSH1 0x4 ADD PUSH2 0x45B SWAP1 PUSH2 0x1E45 JUMP JUMPDEST PUSH1 0x40 MLOAD DUP1 SWAP2 SUB SWAP1 REVERT JUMPDEST PUSH1 0x0 PUSH1 0x2 DUP1 SLOAD SWAP1 POP GT ISZERO PUSH2 0x654 JUMPI PUSH1 0x0 JUMPDEST PUSH1 0x2 DUP1 SLOAD SWAP1 POP DUP2 LT ISZERO PUSH2 0x652 JUMPI CALLER PUSH20 0xFFFFFFFFFFFFFFFFFFFFFFFFFFFFFFFFFFFFFFFF AND PUSH1 0x2 DUP3 DUP2 SLOAD DUP2 LT PUSH2 0x4AD JUMPI PUSH2 0x4AC PUSH2 0x1C0C JUMP JUMPDEST JUMPDEST SWAP1 PUSH1 0x0 MSTORE PUSH1 0x20 PUSH1 0x0 KECCAK256 SWAP1 PUSH1 0x3 MUL ADD PUSH1 0x0 ADD PUSH1 0x0 SWAP1 SLOAD SWAP1 PUSH2 0x100 EXP SWAP1 DIV PUSH20 0xFFFFFFFFFFFFFFFFFFFFFFFFFFFFFFFFFFFFFFFF AND PUSH20 0xFFFFFFFFFFFFFFFFFFFFFFFFFFFFFFFFFFFFFFFF AND SUB PUSH2 0x63F JUMPI PUSH1 0x2 DUP2 DUP2 SLOAD DUP2 LT PUSH2 0x50E JUMPI PUSH2 0x50D PUSH2 0x1C0C JUMP JUMPDEST JUMPDEST SWAP1 PUSH1 0x0 MSTORE PUSH1 0x20 PUSH1 0x0 KECCAK256 SWAP1 PUSH1 0x3 MUL ADD PUSH1 0x1 ADD SLOAD PUSH1 0x3 PUSH1 0x1 DUP4 DUP2 SLOAD DUP2 LT PUSH2 0x536 JUMPI PUSH2 0x535 PUSH2 0x1C0C JUMP JUMPDEST JUMPDEST SWAP1 PUSH1 0x0 MSTORE PUSH1 0x20 PUSH1 0x0 KECCAK256 SWAP1 PUSH1 0x3 MUL ADD PUSH1 0x2 ADD SLOAD DUP2 SLOAD DUP2 LT PUSH2 0x559 JUMPI PUSH2 0x558 PUSH2 0x1C0C JUMP JUMPDEST JUMPDEST SWAP1 PUSH1 0x0 MSTORE PUSH1 0x20 PUSH1 0x0 KECCAK256 SWAP1 PUSH1 0x4 MUL ADD PUSH1 0x2 ADD PUSH1 0x0 DUP3 DUP3 SLOAD PUSH2 0x579 SWAP2 SWAP1 PUSH2 0x1E65 JUMP JUMPDEST SWAP3 POP POP DUP2 SWAP1 SSTORE POP PUSH1 0x1 PUSH1 0x3 PUSH1 0x1 DUP4 DUP2 SLOAD DUP2 LT PUSH2 0x598 JUMPI PUSH2 0x597 PUSH2 0x1C0C JUMP JUMPDEST JUMPDEST SWAP1 PUSH1 0x0 MSTORE PUSH1 0x20 PUSH1 0x0 KECCAK256 SWAP1 PUSH1 0x3 MUL ADD PUSH1 0x2 ADD SLOAD DUP2 SLOAD DUP2 LT PUSH2 0x5BB JUMPI PUSH2 0x5BA PUSH2 0x1C0C JUMP JUMPDEST JUMPDEST SWAP1 PUSH1 0x0 MSTORE PUSH1 0x20 PUSH1 0x0 KECCAK256 SWAP1 PUSH1 0x4 MUL ADD PUSH1 0x3 ADD PUSH1 0x0 DUP3 DUP3 SLOAD PUSH2 0x5DB SWAP2 SWAP1 PUSH2 0x1E65 JUMP JUMPDEST SWAP3 POP POP DUP2 SWAP1 SSTORE POP PUSH1 0x2 DUP2 DUP2 SLOAD DUP2 LT PUSH2 0x5F6 JUMPI PUSH2 0x5F5 PUSH2 0x1C0C JUMP JUMPDEST JUMPDEST SWAP1 PUSH1 0x0 MSTORE PUSH1 0x20 PUSH1 0x0 KECCAK256 SWAP1 PUSH1 0x3 MUL ADD PUSH1 0x0 DUP1 DUP3 ADD PUSH1 0x0 PUSH2 0x100 EXP DUP2 SLOAD SWAP1 PUSH20 0xFFFFFFFFFFFFFFFFFFFFFFFFFFFFFFFFFFFFFFFF MUL NOT AND SWAP1 SSTORE PUSH1 0x1 DUP3 ADD PUSH1 0x0 SWAP1 SSTORE PUSH1 0x2 DUP3 ADD PUSH1 0x0 SWAP1 SSTORE POP POP JUMPDEST DUP1 DUP1 PUSH2 0x64A SWAP1 PUSH2 0x1DB1 JUMP JUMPDEST SWAP2 POP POP PUSH2 0x475 JUMP JUMPDEST POP JUMPDEST PUSH1 0x0 PUSH1 0x40 MLOAD DUP1 PUSH1 0x60 ADD PUSH1 0x40 MSTORE DUP1 CALLER PUSH20 0xFFFFFFFFFFFFFFFFFFFFFFFFFFFFFFFFFFFFFFFF AND DUP2 MSTORE PUSH1 0x20 ADD DUP4 DUP2 MSTORE PUSH1 0x20 ADD DUP5 DUP2 MSTORE POP SWAP1 POP PUSH1 0x2 DUP2 SWAP1 DUP1 PUSH1 0x1 DUP2 SLOAD ADD DUP1 DUP3 SSTORE DUP1 SWAP2 POP POP PUSH1 0x1 SWAP1 SUB SWAP1 PUSH1 0x0 MSTORE PUSH1 0x20 PUSH1 0x0 KECCAK256 SWAP1 PUSH1 0x3 MUL ADD PUSH1 0x0 SWAP1 SWAP2 SWAP1 SWAP2 SWAP1 SWAP2 POP PUSH1 0x0 DUP3 ADD MLOAD DUP2 PUSH1 0x0 ADD PUSH1 0x0 PUSH2 0x100 EXP DUP2 SLOAD DUP2 PUSH20 0xFFFFFFFFFFFFFFFFFFFFFFFFFFFFFFFFFFFFFFFF MUL NOT AND SWAP1 DUP4 PUSH20 0xFFFFFFFFFFFFFFFFFFFFFFFFFFFFFFFFFFFFFFFF AND MUL OR SWAP1 SSTORE POP PUSH1 0x20 DUP3 ADD MLOAD DUP2 PUSH1 0x1 ADD SSTORE PUSH1 0x40 DUP3 ADD MLOAD DUP2 PUSH1 0x2 ADD SSTORE POP POP DUP2 PUSH1 0x3 DUP5 DUP2 SLOAD DUP2 LT PUSH2 0x727 JUMPI PUSH2 0x726 PUSH2 0x1C0C JUMP JUMPDEST JUMPDEST SWAP1 PUSH1 0x0 MSTORE PUSH1 0x20 PUSH1 0x0 KECCAK256 SWAP1 PUSH1 0x4 MUL ADD PUSH1 0x2 ADD PUSH1 0x0 DUP3 DUP3 SLOAD PUSH2 0x747 SWAP2 SWAP1 PUSH2 0x1EA8 JUMP JUMPDEST SWAP3 POP POP DUP2 SWAP1 SSTORE POP PUSH1 0x1 PUSH1 0x3 DUP5 DUP2 SLOAD DUP2 LT PUSH2 0x764 JUMPI PUSH2 0x763 PUSH2 0x1C0C JUMP JUMPDEST JUMPDEST SWAP1 PUSH1 0x0 MSTORE PUSH1 0x20 PUSH1 0x0 KECCAK256 SWAP1 PUSH1 0x4 MUL ADD PUSH1 0x3 ADD PUSH1 0x0 DUP3 DUP3 SLOAD PUSH2 0x784 SWAP2 SWAP1 PUSH2 0x1EA8 JUMP JUMPDEST SWAP3 POP POP DUP2 SWAP1 SSTORE POP POP POP POP JUMP JUMPDEST PUSH1 0x3 PUSH1 0x40 MLOAD DUP1 PUSH1 0x80 ADD PUSH1 0x40 MSTORE DUP1 DUP5 DUP2 MSTORE PUSH1 0x20 ADD DUP4 PUSH1 0x0 SIGNEXTEND DUP2 MSTORE PUSH1 0x20 ADD PUSH1 0x0 DUP2 MSTORE PUSH1 0x20 ADD PUSH1 0x0 DUP2 MSTORE POP SWAP1 DUP1 PUSH1 0x1 DUP2 SLOAD ADD DUP1 DUP3 SSTORE DUP1 SWAP2 POP POP PUSH1 0x1 SWAP1 SUB SWAP1 PUSH1 0x0 MSTORE PUSH1 0x20 PUSH1 0x0 KECCAK256 SWAP1 PUSH1 0x4 MUL ADD PUSH1 0x0 SWAP1 SWAP2 SWAP1 SWAP2 SWAP1 SWAP2 POP PUSH1 0x0 DUP3 ADD MLOAD DUP2 PUSH1 0x0 ADD SWAP1 DUP2 PUSH2 0x7F6 SWAP2 SWAP1 PUSH2 0x20F8 JUMP JUMPDEST POP PUSH1 0x20 DUP3 ADD MLOAD DUP2 PUSH1 0x1 ADD PUSH1 0x0 PUSH2 0x100 EXP DUP2 SLOAD DUP2 PUSH1 0xFF MUL NOT AND SWAP1 DUP4 PUSH1 0x0 SIGNEXTEND PUSH1 0xFF AND MUL OR SWAP1 SSTORE POP PUSH1 0x40 DUP3 ADD MLOAD DUP2 PUSH1 0x2 ADD SSTORE PUSH1 0x60 DUP3 ADD MLOAD DUP2 PUSH1 0x3 ADD SSTORE POP POP POP POP JUMP JUMPDEST PUSH32 0xFFFFFFFFFFFFFFFFFFFFFFFFFFFFFFFFFFFFFFFFFFFFFFFFFFFFFFFFFFFFFFFF DUP2 SLT ISZERO PUSH2 0x898 JUMPI PUSH1 0x40 MLOAD PUSH32 0x8C379A000000000000000000000000000000000000000000000000000000000 DUP2 MSTORE PUSH1 0x4 ADD PUSH2 0x88F SWAP1 PUSH2 0x1E45 JUMP JUMPDEST PUSH1 0x40 MLOAD DUP1 SWAP2 SUB SWAP1 REVERT JUMPDEST PUSH1 0x1 DUP2 SGT ISZERO PUSH2 0x8DC JUMPI PUSH1 0x40 MLOAD PUSH32 0x8C379A000000000000000000000000000000000000000000000000000000000 DUP2 MSTORE PUSH1 0x4 ADD PUSH2 0x8D3 SWAP1 PUSH2 0x1E45 JUMP JUMPDEST PUSH1 0x40 MLOAD DUP1 SWAP2 SUB SWAP1 REVERT JUMPDEST PUSH1 0x0 PUSH1 0x1 DUP1 SLOAD SWAP1 POP GT ISZERO PUSH2 0xACC JUMPI PUSH1 0x0 JUMPDEST PUSH1 0x1 DUP1 SLOAD SWAP1 POP DUP2 LT ISZERO PUSH2 0xACA JUMPI CALLER PUSH20 0xFFFFFFFFFFFFFFFFFFFFFFFFFFFFFFFFFFFFFFFF AND PUSH1 0x1 DUP3 DUP2 SLOAD DUP2 LT PUSH2 0x925 JUMPI PUSH2 0x924 PUSH2 0x1C0C JUMP JUMPDEST JUMPDEST SWAP1 PUSH1 0x0 MSTORE PUSH1 0x20 PUSH1 0x0 KECCAK256 SWAP1 PUSH1 0x3 MUL ADD PUSH1 0x0 ADD PUSH1 0x0 SWAP1 SLOAD SWAP1 PUSH2 0x100 EXP SWAP1 DIV PUSH20 0xFFFFFFFFFFFFFFFFFFFFFFFFFFFFFFFFFFFFFFFF AND PUSH20 0xFFFFFFFFFFFFFFFFFFFFFFFFFFFFFFFFFFFFFFFF AND SUB PUSH2 0xAB7 JUMPI PUSH1 0x1 DUP2 DUP2 SLOAD DUP2 LT PUSH2 0x986 JUMPI PUSH2 0x985 PUSH2 0x1C0C JUMP JUMPDEST JUMPDEST SWAP1 PUSH1 0x0 MSTORE PUSH1 0x20 PUSH1 0x0 KECCAK256 SWAP1 PUSH1 0x3 MUL ADD PUSH1 0x1 ADD SLOAD PUSH1 0x4 PUSH1 0x1 DUP4 DUP2 SLOAD DUP2 LT PUSH2 0x9AE JUMPI PUSH2 0x9AD PUSH2 0x1C0C JUMP JUMPDEST JUMPDEST SWAP1 PUSH1 0x0 MSTORE PUSH1 0x20 PUSH1 0x0 KECCAK256 SWAP1 PUSH1 0x3 MUL ADD PUSH1 0x2 ADD SLOAD DUP2 SLOAD DUP2 LT PUSH2 0x9D1 JUMPI PUSH2 0x9D0 PUSH2 0x1C0C JUMP JUMPDEST JUMPDEST SWAP1 PUSH1 0x0 MSTORE PUSH1 0x20 PUSH1 0x0 KECCAK256 SWAP1 PUSH1 0x3 MUL ADD PUSH1 0x1 ADD PUSH1 0x0 DUP3 DUP3 SLOAD PUSH2 0x9F1 SWAP2 SWAP1 PUSH2 0x1E65 JUMP JUMPDEST SWAP3 POP POP DUP2 SWAP1 SSTORE POP PUSH1 0x1 PUSH1 0x4 PUSH1 0x1 DUP4 DUP2 SLOAD DUP2 LT PUSH2 0xA10 JUMPI PUSH2 0xA0F PUSH2 0x1C0C JUMP JUMPDEST JUMPDEST SWAP1 PUSH1 0x0 MSTORE PUSH1 0x20 PUSH1 0x0 KECCAK256 SWAP1 PUSH1 0x3 MUL ADD PUSH1 0x2 ADD SLOAD DUP2 SLOAD DUP2 LT PUSH2 0xA33 JUMPI PUSH2 0xA32 PUSH2 0x1C0C JUMP JUMPDEST JUMPDEST SWAP1 PUSH1 0x0 MSTORE PUSH1 0x20 PUSH1 0x0 KECCAK256 SWAP1 PUSH1 0x3 MUL ADD PUSH1 0x2 ADD PUSH1 0x0 DUP3 DUP3 SLOAD PUSH2 0xA53 SWAP2 SWAP1 PUSH2 0x1E65 JUMP JUMPDEST SWAP3 POP POP DUP2 SWAP1 SSTORE POP PUSH1 0x1 DUP2 DUP2 SLOAD DUP2 LT PUSH2 0xA6E JUMPI PUSH2 0xA6D PUSH2 0x1C0C JUMP JUMPDEST JUMPDEST SWAP1 PUSH1 0x0 MSTORE PUSH1 0x20 PUSH1 0x0 KECCAK256 SWAP1 PUSH1 0x3 MUL ADD PUSH1 0x0 DUP1 DUP3 ADD PUSH1 0x0 PUSH2 0x100 EXP DUP2 SLOAD SWAP1 PUSH20 0xFFFFFFFFFFFFFFFFFFFFFFFFFFFFFFFFFFFFFFFF MUL NOT AND SWAP1 SSTORE PUSH1 0x1 DUP3 ADD PUSH1 0x0 SWAP1 SSTORE PUSH1 0x2 DUP3 ADD PUSH1 0x0 SWAP1 SSTORE POP POP JUMPDEST DUP1 DUP1 PUSH2 0xAC2 SWAP1 PUSH2 0x1DB1 JUMP JUMPDEST SWAP2 POP POP PUSH2 0x8ED JUMP JUMPDEST POP JUMPDEST PUSH1 0x0 PUSH1 0x40 MLOAD DUP1 PUSH1 0x60 ADD PUSH1 0x40 MSTORE DUP1 CALLER PUSH20 0xFFFFFFFFFFFFFFFFFFFFFFFFFFFFFFFFFFFFFFFF AND DUP2 MSTORE PUSH1 0x20 ADD DUP4 DUP2 MSTORE PUSH1 0x20 ADD DUP5 DUP2 MSTORE POP SWAP1 POP PUSH1 0x1 DUP2 SWAP1 DUP1 PUSH1 0x1 DUP2 SLOAD ADD DUP1 DUP3 SSTORE DUP1 SWAP2 POP POP PUSH1 0x1 SWAP1 SUB SWAP1 PUSH1 0x0 MSTORE PUSH1 0x20 PUSH1 0x0 KECCAK256 SWAP1 PUSH1 0x3 MUL ADD PUSH1 0x0 SWAP1 SWAP2 SWAP1 SWAP2 SWAP1 SWAP2 POP PUSH1 0x0 DUP3 ADD MLOAD DUP2 PUSH1 0x0 ADD PUSH1 0x0 PUSH2 0x100 EXP DUP2 SLOAD DUP2 PUSH20 0xFFFFFFFFFFFFFFFFFFFFFFFFFFFFFFFFFFFFFFFF MUL NOT AND SWAP1 DUP4 PUSH20 0xFFFFFFFFFFFFFFFFFFFFFFFFFFFFFFFFFFFFFFFF AND MUL OR SWAP1 SSTORE POP PUSH1 0x20 DUP3 ADD MLOAD DUP2 PUSH1 0x1 ADD SSTORE PUSH1 0x40 DUP3 ADD MLOAD DUP2 PUSH1 0x2 ADD SSTORE POP POP DUP2 PUSH1 0x4 DUP5 DUP2 SLOAD DUP2 LT PUSH2 0xB9F JUMPI PUSH2 0xB9E PUSH2 0x1C0C JUMP JUMPDEST JUMPDEST SWAP1 PUSH1 0x0 MSTORE PUSH1 0x20 PUSH1 0x0 KECCAK256 SWAP1 PUSH1 0x3 MUL ADD PUSH1 0x1 ADD PUSH1 0x0 DUP3 DUP3 SLOAD PUSH2 0xBBF SWAP2 SWAP1 PUSH2 0x1EA8 JUMP JUMPDEST SWAP3 POP POP DUP2 SWAP1 SSTORE POP PUSH1 0x1 PUSH1 0x4 DUP5 DUP2 SLOAD DUP2 LT PUSH2 0xBDC JUMPI PUSH2 0xBDB PUSH2 0x1C0C JUMP JUMPDEST JUMPDEST SWAP1 PUSH1 0x0 MSTORE PUSH1 0x20 PUSH1 0x0 KECCAK256 SWAP1 PUSH1 0x3 MUL ADD PUSH1 0x2 ADD PUSH1 0x0 DUP3 DUP3 SLOAD PUSH2 0xBFC SWAP2 SWAP1 PUSH2 0x1EA8 JUMP JUMPDEST SWAP3 POP POP DUP2 SWAP1 SSTORE POP POP POP POP JUMP JUMPDEST PUSH1 0x60 PUSH1 0x0 DUP1 PUSH1 0x3 DUP1 SLOAD SWAP1 POP GT ISZERO PUSH2 0xD23 JUMPI PUSH1 0x0 JUMPDEST PUSH1 0x3 DUP1 SLOAD SWAP1 POP DUP2 LT ISZERO PUSH2 0xD21 JUMPI PUSH1 0x3 DUP2 DUP2 SLOAD DUP2 LT PUSH2 0xC3D JUMPI PUSH2 0xC3C PUSH2 0x1C0C JUMP JUMPDEST JUMPDEST SWAP1 PUSH1 0x0 MSTORE PUSH1 0x20 PUSH1 0x0 KECCAK256 SWAP1 PUSH1 0x4 MUL ADD PUSH1 0x0 ADD PUSH2 0xC8C PUSH1 0x3 DUP4 DUP2 SLOAD DUP2 LT PUSH2 0xC65 JUMPI PUSH2 0xC64 PUSH2 0x1C0C JUMP JUMPDEST JUMPDEST SWAP1 PUSH1 0x0 MSTORE PUSH1 0x20 PUSH1 0x0 KECCAK256 SWAP1 PUSH1 0x4 MUL ADD PUSH1 0x1 ADD PUSH1 0x0 SWAP1 SLOAD SWAP1 PUSH2 0x100 EXP SWAP1 DIV PUSH1 0x0 SIGNEXTEND PUSH1 0x0 SIGNEXTEND PUSH2 0x1325 JUMP JUMPDEST PUSH2 0xCBA PUSH1 0x3 DUP5 DUP2 SLOAD DUP2 LT PUSH2 0xCA3 JUMPI PUSH2 0xCA2 PUSH2 0x1C0C JUMP JUMPDEST JUMPDEST SWAP1 PUSH1 0x0 MSTORE PUSH1 0x20 PUSH1 0x0 KECCAK256 SWAP1 PUSH1 0x4 MUL ADD PUSH1 0x2 ADD SLOAD PUSH2 0x1325 JUMP JUMPDEST PUSH2 0xCE8 PUSH1 0x3 DUP6 DUP2 SLOAD DUP2 LT PUSH2 0xCD1 JUMPI PUSH2 0xCD0 PUSH2 0x1C0C JUMP JUMPDEST JUMPDEST SWAP1 PUSH1 0x0 MSTORE PUSH1 0x20 PUSH1 0x0 KECCAK256 SWAP1 PUSH1 0x4 MUL ADD PUSH1 0x3 ADD SLOAD PUSH2 0x1325 JUMP JUMPDEST DUP7 PUSH1 0x40 MLOAD PUSH1 0x20 ADD PUSH2 0xCFD SWAP6 SWAP5 SWAP4 SWAP3 SWAP2 SWAP1 PUSH2 0x224D JUMP JUMPDEST PUSH1 0x40 MLOAD PUSH1 0x20 DUP2 DUP4 SUB SUB DUP2 MSTORE SWAP1 PUSH1 0x40 MSTORE SWAP3 POP DUP1 DUP1 PUSH2 0xD19 SWAP1 PUSH2 0x1DB1 JUMP JUMPDEST SWAP2 POP POP PUSH2 0xC1C JUMP JUMPDEST POP JUMPDEST PUSH1 0x0 SWAP1 POP POP SWAP1 JUMP JUMPDEST PUSH1 0x0 DUP1 PUSH1 0x0 SWAP1 SLOAD SWAP1 PUSH2 0x100 EXP SWAP1 DIV PUSH20 0xFFFFFFFFFFFFFFFFFFFFFFFFFFFFFFFFFFFFFFFF AND SWAP1 POP SWAP1 JUMP JUMPDEST PUSH1 0x0 DUP1 PUSH1 0x0 SWAP1 POP PUSH1 0x0 DUP1 JUMPDEST PUSH1 0x3 DUP1 SLOAD SWAP1 POP DUP2 LT ISZERO PUSH2 0xEA0 JUMPI PUSH1 0x3 DUP2 DUP2 SLOAD DUP2 LT PUSH2 0xD80 JUMPI PUSH2 0xD7F PUSH2 0x1C0C JUMP JUMPDEST JUMPDEST SWAP1 PUSH1 0x0 MSTORE PUSH1 0x20 PUSH1 0x0 KECCAK256 SWAP1 PUSH1 0x4 MUL ADD PUSH1 0x0 ADD PUSH1 0x40 MLOAD PUSH1 0x20 ADD PUSH2 0xDA1 SWAP2 SWAP1 PUSH2 0x22D4 JUMP JUMPDEST PUSH1 0x40 MLOAD PUSH1 0x20 DUP2 DUP4 SUB SUB DUP2 MSTORE SWAP1 PUSH1 0x40 MSTORE DUP1 MLOAD SWAP1 PUSH1 0x20 ADD KECCAK256 DUP6 PUSH1 0x40 MLOAD PUSH1 0x20 ADD PUSH2 0xDC8 SWAP2 SWAP1 PUSH2 0x22EB JUMP JUMPDEST PUSH1 0x40 MLOAD PUSH1 0x20 DUP2 DUP4 SUB SUB DUP2 MSTORE SWAP1 PUSH1 0x40 MSTORE DUP1 MLOAD SWAP1 PUSH1 0x20 ADD KECCAK256 SUB PUSH2 0xE8D JUMPI PUSH1 0x0 PUSH1 0x3 DUP3 DUP2 SLOAD DUP2 LT PUSH2 0xDF9 JUMPI PUSH2 0xDF8 PUSH2 0x1C0C JUMP JUMPDEST JUMPDEST SWAP1 PUSH1 0x0 MSTORE PUSH1 0x20 PUSH1 0x0 KECCAK256 SWAP1 PUSH1 0x4 MUL ADD PUSH1 0x3 ADD SLOAD PUSH2 0x3E8 PUSH1 0x3 DUP5 DUP2 SLOAD DUP2 LT PUSH2 0xE22 JUMPI PUSH2 0xE21 PUSH2 0x1C0C JUMP JUMPDEST JUMPDEST SWAP1 PUSH1 0x0 MSTORE PUSH1 0x20 PUSH1 0x0 KECCAK256 SWAP1 PUSH1 0x4 MUL ADD PUSH1 0x2 ADD SLOAD PUSH2 0xE3E SWAP2 SWAP1 PUSH2 0x2302 JUMP JUMPDEST PUSH2 0xE48 SWAP2 SWAP1 PUSH2 0x23A9 JUMP JUMPDEST SWAP1 POP DUP3 DUP2 SGT ISZERO PUSH2 0xE8B JUMPI PUSH1 0x3 DUP3 DUP2 SLOAD DUP2 LT PUSH2 0xE66 JUMPI PUSH2 0xE65 PUSH2 0x1C0C JUMP JUMPDEST JUMPDEST SWAP1 PUSH1 0x0 MSTORE PUSH1 0x20 PUSH1 0x0 KECCAK256 SWAP1 PUSH1 0x4 MUL ADD PUSH1 0x1 ADD PUSH1 0x0 SWAP1 SLOAD SWAP1 PUSH2 0x100 EXP SWAP1 DIV PUSH1 0x0 SIGNEXTEND PUSH1 0x0 SIGNEXTEND SWAP4 POP JUMPDEST POP JUMPDEST DUP1 DUP1 PUSH2 0xE98 SWAP1 PUSH2 0x1DB1 JUMP JUMPDEST SWAP2 POP POP PUSH2 0xD5F JUMP JUMPDEST POP DUP2 SWAP3 POP POP POP SWAP2 SWAP1 POP JUMP JUMPDEST PUSH1 0x0 DUP1 SLOAD SWAP1 PUSH2 0x100 EXP SWAP1 DIV PUSH20 0xFFFFFFFFFFFFFFFFFFFFFFFFFFFFFFFFFFFFFFFF AND PUSH20 0xFFFFFFFFFFFFFFFFFFFFFFFFFFFFFFFFFFFFFFFF AND CALLER PUSH20 0xFFFFFFFFFFFFFFFFFFFFFFFFFFFFFFFFFFFFFFFF AND EQ PUSH2 0xF39 JUMPI PUSH1 0x40 MLOAD PUSH32 0x8C379A000000000000000000000000000000000000000000000000000000000 DUP2 MSTORE PUSH1 0x4 ADD PUSH2 0xF30 SWAP1 PUSH2 0x245F JUMP JUMPDEST PUSH1 0x40 MLOAD DUP1 SWAP2 SUB SWAP1 REVERT JUMPDEST DUP1 PUSH20 0xFFFFFFFFFFFFFFFFFFFFFFFFFFFFFFFFFFFFFFFF AND PUSH1 0x0 DUP1 SLOAD SWAP1 PUSH2 0x100 EXP SWAP1 DIV PUSH20 0xFFFFFFFFFFFFFFFFFFFFFFFFFFFFFFFFFFFFFFFF AND PUSH20 0xFFFFFFFFFFFFFFFFFFFFFFFFFFFFFFFFFFFFFFFF AND PUSH32 0x342827C97908E5E2F71151C08502A66D44B6F758E3AC2F1DE95F02EB95F0A735 PUSH1 0x40 MLOAD PUSH1 0x40 MLOAD DUP1 SWAP2 SUB SWAP1 LOG3 DUP1 PUSH1 0x0 DUP1 PUSH2 0x100 EXP DUP2 SLOAD DUP2 PUSH20 0xFFFFFFFFFFFFFFFFFFFFFFFFFFFFFFFFFFFFFFFF MUL NOT AND SWAP1 DUP4 PUSH20 0xFFFFFFFFFFFFFFFFFFFFFFFFFFFFFFFFFFFFFFFF AND MUL OR SWAP1 SSTORE POP POP JUMP JUMPDEST PUSH2 0xFFE PUSH2 0x164F JUMP JUMPDEST PUSH1 0x0 DUP1 PUSH1 0x0 PUSH1 0x4 DUP1 SLOAD SWAP1 POP GT ISZERO PUSH2 0x10B7 JUMPI PUSH1 0x0 JUMPDEST PUSH1 0x4 DUP1 SLOAD SWAP1 POP DUP2 LT ISZERO PUSH2 0x10B5 JUMPI PUSH1 0x0 DUP1 PUSH2 0x1083 PUSH2 0x3E8 PUSH1 0x4 DUP6 DUP2 SLOAD DUP2 LT PUSH2 0x103C JUMPI PUSH2 0x103B PUSH2 0x1C0C JUMP JUMPDEST JUMPDEST SWAP1 PUSH1 0x0 MSTORE PUSH1 0x20 PUSH1 0x0 KECCAK256 SWAP1 PUSH1 0x3 MUL ADD PUSH1 0x1 ADD SLOAD PUSH2 0x1058 SWAP2 SWAP1 PUSH2 0x2302 JUMP JUMPDEST PUSH1 0x4 DUP6 DUP2 SLOAD DUP2 LT PUSH2 0x106C JUMPI PUSH2 0x106B PUSH2 0x1C0C JUMP JUMPDEST JUMPDEST SWAP1 PUSH1 0x0 MSTORE PUSH1 0x20 PUSH1 0x0 KECCAK256 SWAP1 PUSH1 0x3 MUL ADD PUSH1 0x2 ADD SLOAD PUSH2 0x13B3 JUMP JUMPDEST SWAP2 POP SWAP2 POP DUP2 DUP1 ISZERO PUSH2 0x1094 JUMPI POP DUP5 DUP2 SLT ISZERO JUMPDEST ISZERO PUSH2 0x10A0 JUMPI DUP1 SWAP5 POP DUP3 SWAP4 POP JUMPDEST POP POP DUP1 DUP1 PUSH2 0x10AD SWAP1 PUSH2 0x1DB1 JUMP JUMPDEST SWAP2 POP POP PUSH2 0x1012 JUMP JUMPDEST POP JUMPDEST PUSH1 0x0 SWAP2 POP PUSH1 0x4 DUP2 DUP2 SLOAD DUP2 LT PUSH2 0x10CF JUMPI PUSH2 0x10CE PUSH2 0x1C0C JUMP JUMPDEST JUMPDEST SWAP1 PUSH1 0x0 MSTORE PUSH1 0x20 PUSH1 0x0 KECCAK256 SWAP1 PUSH1 0x3 MUL ADD PUSH1 0x40 MLOAD DUP1 PUSH1 0xC0 ADD PUSH1 0x40 MSTORE SWAP1 DUP2 PUSH1 0x0 DUP3 ADD PUSH1 0x0 SWAP1 SLOAD SWAP1 PUSH2 0x100 EXP SWAP1 DIV PUSH1 0x0 SIGNEXTEND PUSH1 0x0 SIGNEXTEND PUSH1 0x0 SIGNEXTEND DUP2 MSTORE PUSH1 0x20 ADD PUSH1 0x0 DUP3 ADD PUSH1 0x1 SWAP1 SLOAD SWAP1 PUSH2 0x100 EXP SWAP1 DIV PUSH1 0x0 SIGNEXTEND PUSH1 0x0 SIGNEXTEND PUSH1 0x0 SIGNEXTEND DUP2 MSTORE PUSH1 0x20 ADD PUSH1 0x0 DUP3 ADD PUSH1 0x2 SWAP1 SLOAD SWAP1 PUSH2 0x100 EXP SWAP1 DIV PUSH1 0x0 SIGNEXTEND PUSH1 0x0 SIGNEXTEND PUSH1 0x0 SIGNEXTEND DUP2 MSTORE PUSH1 0x20 ADD PUSH1 0x0 DUP3 ADD PUSH1 0x3 SWAP1 SLOAD SWAP1 PUSH2 0x100 EXP SWAP1 DIV PUSH1 0x0 SIGNEXTEND PUSH1 0x0 SIGNEXTEND PUSH1 0x0 SIGNEXTEND DUP2 MSTORE PUSH1 0x20 ADD PUSH1 0x1 DUP3 ADD SLOAD DUP2 MSTORE PUSH1 0x20 ADD PUSH1 0x2 DUP3 ADD SLOAD DUP2 MSTORE POP POP SWAP3 POP POP POP SWAP1 JUMP JUMPDEST PUSH1 0x4 PUSH1 0x40 MLOAD DUP1 PUSH1 0xC0 ADD PUSH1 0x40 MSTORE DUP1 DUP7 PUSH1 0x0 SIGNEXTEND DUP2 MSTORE PUSH1 0x20 ADD DUP6 PUSH1 0x0 SIGNEXTEND DUP2 MSTORE PUSH1 0x20 ADD DUP5 PUSH1 0x0 SIGNEXTEND DUP2 MSTORE PUSH1 0x20 ADD DUP4 PUSH1 0x0 SIGNEXTEND DUP2 MSTORE PUSH1 0x20 ADD PUSH1 0x0 DUP2 MSTORE PUSH1 0x20 ADD PUSH1 0x0 DUP2 MSTORE POP SWAP1 DUP1 PUSH1 0x1 DUP2 SLOAD ADD DUP1 DUP3 SSTORE DUP1 SWAP2 POP POP PUSH1 0x1 SWAP1 SUB SWAP1 PUSH1 0x0 MSTORE PUSH1 0x20 PUSH1 0x0 KECCAK256 SWAP1 PUSH1 0x3 MUL ADD PUSH1 0x0 SWAP1 SWAP2 SWAP1 SWAP2 SWAP1 SWAP2 POP PUSH1 0x0 DUP3 ADD MLOAD DUP2 PUSH1 0x0 ADD PUSH1 0x0 PUSH2 0x100 EXP DUP2 SLOAD DUP2 PUSH1 0xFF MUL NOT AND SWAP1 DUP4 PUSH1 0x0 SIGNEXTEND PUSH1 0xFF AND MUL OR SWAP1 SSTORE POP PUSH1 0x20 DUP3 ADD MLOAD DUP2 PUSH1 0x0 ADD PUSH1 0x1 PUSH2 0x100 EXP DUP2 SLOAD DUP2 PUSH1 0xFF MUL NOT AND SWAP1 DUP4 PUSH1 0x0 SIGNEXTEND PUSH1 0xFF AND MUL OR SWAP1 SSTORE POP PUSH1 0x40 DUP3 ADD MLOAD DUP2 PUSH1 0x0 ADD PUSH1 0x2 PUSH2 0x100 EXP DUP2 SLOAD DUP2 PUSH1 0xFF MUL NOT AND SWAP1 DUP4 PUSH1 0x0 SIGNEXTEND PUSH1 0xFF AND MUL OR SWAP1 SSTORE POP PUSH1 0x60 DUP3 ADD MLOAD DUP2 PUSH1 0x0 ADD PUSH1 0x3 PUSH2 0x100 EXP DUP2 SLOAD DUP2 PUSH1 0xFF MUL NOT AND SWAP1 DUP4 PUSH1 0x0 SIGNEXTEND PUSH1 0xFF AND MUL OR SWAP1 SSTORE POP PUSH1 0x80 DUP3 ADD MLOAD DUP2 PUSH1 0x1 ADD SSTORE PUSH1 0xA0 DUP3 ADD MLOAD DUP2 PUSH1 0x2 ADD SSTORE POP POP POP POP POP POP JUMP JUMPDEST PUSH2 0x1321 DUP3 DUP3 PUSH1 0x40 MLOAD PUSH1 0x24 ADD PUSH2 0x129F SWAP3 SWAP2 SWAP1 PUSH2 0x247F JUMP JUMPDEST PUSH1 0x40 MLOAD PUSH1 0x20 DUP2 DUP4 SUB SUB DUP2 MSTORE SWAP1 PUSH1 0x40 MSTORE PUSH32 0x319AF33300000000000000000000000000000000000000000000000000000000 PUSH28 0xFFFFFFFFFFFFFFFFFFFFFFFFFFFFFFFFFFFFFFFFFFFFFFFFFFFFFFFF NOT AND PUSH1 0x20 DUP3 ADD DUP1 MLOAD PUSH28 0xFFFFFFFFFFFFFFFFFFFFFFFFFFFFFFFFFFFFFFFFFFFFFFFFFFFFFFFF DUP4 DUP2 DUP4 AND OR DUP4 MSTORE POP POP POP POP PUSH2 0x13E9 JUMP JUMPDEST POP POP JUMP JUMPDEST PUSH1 0x60 PUSH1 0x0 DUP3 SLT PUSH2 0x1344 JUMPI PUSH1 0x40 MLOAD DUP1 PUSH1 0x20 ADD PUSH1 0x40 MSTORE DUP1 PUSH1 0x0 DUP2 MSTORE POP PUSH2 0x137B JUMP JUMPDEST PUSH1 0x40 MLOAD DUP1 PUSH1 0x40 ADD PUSH1 0x40 MSTORE DUP1 PUSH1 0x1 DUP2 MSTORE PUSH1 0x20 ADD PUSH32 0x2D00000000000000000000000000000000000000000000000000000000000000 DUP2 MSTORE POP JUMPDEST PUSH2 0x138C PUSH2 0x1387 DUP5 PUSH2 0x1412 JUMP JUMPDEST PUSH2 0x142E JUMP JUMPDEST PUSH1 0x40 MLOAD PUSH1 0x20 ADD PUSH2 0x139D SWAP3 SWAP2 SWAP1 PUSH2 0x24AF JUMP JUMPDEST PUSH1 0x40 MLOAD PUSH1 0x20 DUP2 DUP4 SUB SUB DUP2 MSTORE SWAP1 PUSH1 0x40 MSTORE SWAP1 POP SWAP2 SWAP1 POP JUMP JUMPDEST PUSH1 0x0 DUP1 PUSH1 0x0 DUP4 SUB PUSH2 0x13CA JUMPI PUSH1 0x0 DUP1 SWAP2 POP SWAP2 POP PUSH2 0x13E2 JUMP JUMPDEST PUSH1 0x1 DUP4 DUP6 DUP2 PUSH2 0x13DC JUMPI PUSH2 0x13DB PUSH2 0x237A JUMP JUMPDEST JUMPDEST SDIV SWAP2 POP SWAP2 POP JUMPDEST SWAP3 POP SWAP3 SWAP1 POP JUMP JUMPDEST PUSH1 0x0 DUP2 MLOAD SWAP1 POP PUSH1 0x0 PUSH11 0x636F6E736F6C652E6C6F67 SWAP1 POP PUSH1 0x20 DUP4 ADD PUSH1 0x0 DUP1 DUP5 DUP4 DUP6 GAS STATICCALL POP POP POP POP POP JUMP JUMPDEST PUSH1 0x0 DUP1 DUP3 SLT ISZERO PUSH2 0x1425 JUMPI DUP2 PUSH1 0x0 SUB PUSH2 0x1427 JUMP JUMPDEST DUP2 JUMPDEST SWAP1 POP SWAP2 SWAP1 POP JUMP JUMPDEST PUSH1 0x60 PUSH1 0x0 PUSH1 0x1 PUSH2 0x143D DUP5 PUSH2 0x14FC JUMP JUMPDEST ADD SWAP1 POP PUSH1 0x0 DUP2 PUSH8 0xFFFFFFFFFFFFFFFF DUP2 GT ISZERO PUSH2 0x145C JUMPI PUSH2 0x145B PUSH2 0x1809 JUMP JUMPDEST JUMPDEST PUSH1 0x40 MLOAD SWAP1 DUP1 DUP3 MSTORE DUP1 PUSH1 0x1F ADD PUSH1 0x1F NOT AND PUSH1 0x20 ADD DUP3 ADD PUSH1 0x40 MSTORE DUP1 ISZERO PUSH2 0x148E JUMPI DUP2 PUSH1 0x20 ADD PUSH1 0x1 DUP3 MUL DUP1 CALLDATASIZE DUP4 CALLDATACOPY DUP1 DUP3 ADD SWAP2 POP POP SWAP1 POP JUMPDEST POP SWAP1 POP PUSH1 0x0 DUP3 PUSH1 0x20 ADD DUP3 ADD SWAP1 POP JUMPDEST PUSH1 0x1 ISZERO PUSH2 0x14F1 JUMPI DUP1 DUP1 PUSH1 0x1 SWAP1 SUB SWAP2 POP POP PUSH32 0x3031323334353637383961626364656600000000000000000000000000000000 PUSH1 0xA DUP7 MOD BYTE DUP2 MSTORE8 PUSH1 0xA DUP6 DUP2 PUSH2 0x14E5 JUMPI PUSH2 0x14E4 PUSH2 0x237A JUMP JUMPDEST JUMPDEST DIV SWAP5 POP PUSH1 0x0 DUP6 SUB PUSH2 0x149C JUMPI JUMPDEST DUP2 SWAP4 POP POP POP POP SWAP2 SWAP1 POP JUMP JUMPDEST PUSH1 0x0 DUP1 PUSH1 0x0 SWAP1 POP PUSH27 0x184F03E93FF9F4DAA797ED6E38ED64BF6A1F010000000000000000 DUP4 LT PUSH2 0x155A JUMPI PUSH27 0x184F03E93FF9F4DAA797ED6E38ED64BF6A1F010000000000000000 DUP4 DUP2 PUSH2 0x1550 JUMPI PUSH2 0x154F PUSH2 0x237A JUMP JUMPDEST JUMPDEST DIV SWAP3 POP PUSH1 0x40 DUP2 ADD SWAP1 POP JUMPDEST PUSH14 0x4EE2D6D415B85ACEF8100000000 DUP4 LT PUSH2 0x1597 JUMPI PUSH14 0x4EE2D6D415B85ACEF8100000000 DUP4 DUP2 PUSH2 0x158D JUMPI PUSH2 0x158C PUSH2 0x237A JUMP JUMPDEST JUMPDEST DIV SWAP3 POP PUSH1 0x20 DUP2 ADD SWAP1 POP JUMPDEST PUSH7 0x2386F26FC10000 DUP4 LT PUSH2 0x15C6 JUMPI PUSH7 0x2386F26FC10000 DUP4 DUP2 PUSH2 0x15BC JUMPI PUSH2 0x15BB PUSH2 0x237A JUMP JUMPDEST JUMPDEST DIV SWAP3 POP PUSH1 0x10 DUP2 ADD SWAP1 POP JUMPDEST PUSH4 0x5F5E100 DUP4 LT PUSH2 0x15EF JUMPI PUSH4 0x5F5E100 DUP4 DUP2 PUSH2 0x15E5 JUMPI PUSH2 0x15E4 PUSH2 0x237A JUMP JUMPDEST JUMPDEST DIV SWAP3 POP PUSH1 0x8 DUP2 ADD SWAP1 POP JUMPDEST PUSH2 0x2710 DUP4 LT PUSH2 0x1614 JUMPI PUSH2 0x2710 DUP4 DUP2 PUSH2 0x160A JUMPI PUSH2 0x1609 PUSH2 0x237A JUMP JUMPDEST JUMPDEST DIV SWAP3 POP PUSH1 0x4 DUP2 ADD SWAP1 POP JUMPDEST PUSH1 0x64 DUP4 LT PUSH2 0x1637 JUMPI PUSH1 0x64 DUP4 DUP2 PUSH2 0x162D JUMPI PUSH2 0x162C PUSH2 0x237A JUMP JUMPDEST JUMPDEST DIV SWAP3 POP PUSH1 0x2 DUP2 ADD SWAP1 POP JUMPDEST PUSH1 0xA DUP4 LT PUSH2 0x1646 JUMPI PUSH1 0x1 DUP2 ADD SWAP1 POP JUMPDEST DUP1 SWAP2 POP POP SWAP2 SWAP1 POP JUMP JUMPDEST PUSH1 0x40 MLOAD DUP1 PUSH1 0xC0 ADD PUSH1 0x40 MSTORE DUP1 PUSH1 0x0 DUP1 SIGNEXTEND DUP2 MSTORE PUSH1 0x20 ADD PUSH1 0x0 DUP1 SIGNEXTEND DUP2 MSTORE PUSH1 0x20 ADD PUSH1 0x0 DUP1 SIGNEXTEND DUP2 MSTORE PUSH1 0x20 ADD PUSH1 0x0 DUP1 SIGNEXTEND DUP2 MSTORE PUSH1 0x20 ADD PUSH1 0x0 DUP2 MSTORE PUSH1 0x20 ADD PUSH1 0x0 DUP2 MSTORE POP SWAP1 JUMP JUMPDEST PUSH1 0x0 DUP2 MLOAD SWAP1 POP SWAP2 SWAP1 POP JUMP JUMPDEST PUSH1 0x0 DUP3 DUP3 MSTORE PUSH1 0x20 DUP3 ADD SWAP1 POP SWAP3 SWAP2 POP POP JUMP JUMPDEST PUSH1 0x0 JUMPDEST DUP4 DUP2 LT ISZERO PUSH2 0x16C7 JUMPI DUP1 DUP3 ADD MLOAD DUP2 DUP5 ADD MSTORE PUSH1 0x20 DUP2 ADD SWAP1 POP PUSH2 0x16AC JUMP JUMPDEST PUSH1 0x0 DUP5 DUP5 ADD MSTORE POP POP POP POP JUMP JUMPDEST PUSH1 0x0 PUSH1 0x1F NOT PUSH1 0x1F DUP4 ADD AND SWAP1 POP SWAP2 SWAP1 POP JUMP JUMPDEST PUSH1 0x0 PUSH2 0x16EF DUP3 PUSH2 0x168D JUMP JUMPDEST PUSH2 0x16F9 DUP2 DUP6 PUSH2 0x1698 JUMP JUMPDEST SWAP4 POP PUSH2 0x1709 DUP2 DUP6 PUSH1 0x20 DUP7 ADD PUSH2 0x16A9 JUMP JUMPDEST PUSH2 0x1712 DUP2 PUSH2 0x16D3 JUMP JUMPDEST DUP5 ADD SWAP2 POP POP SWAP3 SWAP2 POP POP JUMP JUMPDEST PUSH1 0x0 PUSH1 0x20 DUP3 ADD SWAP1 POP DUP2 DUP2 SUB PUSH1 0x0 DUP4 ADD MSTORE PUSH2 0x1737 DUP2 DUP5 PUSH2 0x16E4 JUMP JUMPDEST SWAP1 POP SWAP3 SWAP2 POP POP JUMP JUMPDEST PUSH1 0x0 PUSH1 0x40 MLOAD SWAP1 POP SWAP1 JUMP JUMPDEST PUSH1 0x0 DUP1 REVERT JUMPDEST PUSH1 0x0 DUP1 REVERT JUMPDEST PUSH1 0x0 DUP2 SWAP1 POP SWAP2 SWAP1 POP JUMP JUMPDEST PUSH2 0x1766 DUP2 PUSH2 0x1753 JUMP JUMPDEST DUP2 EQ PUSH2 0x1771 JUMPI PUSH1 0x0 DUP1 REVERT JUMPDEST POP JUMP JUMPDEST PUSH1 0x0 DUP2 CALLDATALOAD SWAP1 POP PUSH2 0x1783 DUP2 PUSH2 0x175D JUMP JUMPDEST SWAP3 SWAP2 POP POP JUMP JUMPDEST PUSH1 0x0 DUP2 SWAP1 POP SWAP2 SWAP1 POP JUMP JUMPDEST PUSH2 0x179C DUP2 PUSH2 0x1789 JUMP JUMPDEST DUP2 EQ PUSH2 0x17A7 JUMPI PUSH1 0x0 DUP1 REVERT JUMPDEST POP JUMP JUMPDEST PUSH1 0x0 DUP2 CALLDATALOAD SWAP1 POP PUSH2 0x17B9 DUP2 PUSH2 0x1793 JUMP JUMPDEST SWAP3 SWAP2 POP POP JUMP JUMPDEST PUSH1 0x0 DUP1 PUSH1 0x40 DUP4 DUP6 SUB SLT ISZERO PUSH2 0x17D6 JUMPI PUSH2 0x17D5 PUSH2 0x1749 JUMP JUMPDEST JUMPDEST PUSH1 0x0 PUSH2 0x17E4 DUP6 DUP3 DUP7 ADD PUSH2 0x1774 JUMP JUMPDEST SWAP3 POP POP PUSH1 0x20 PUSH2 0x17F5 DUP6 DUP3 DUP7 ADD PUSH2 0x17AA JUMP JUMPDEST SWAP2 POP POP SWAP3 POP SWAP3 SWAP1 POP JUMP JUMPDEST PUSH1 0x0 DUP1 REVERT JUMPDEST PUSH1 0x0 DUP1 REVERT JUMPDEST PUSH32 0x4E487B7100000000000000000000000000000000000000000000000000000000 PUSH1 0x0 MSTORE PUSH1 0x41 PUSH1 0x4 MSTORE PUSH1 0x24 PUSH1 0x0 REVERT JUMPDEST PUSH2 0x1841 DUP3 PUSH2 0x16D3 JUMP JUMPDEST DUP2 ADD DUP2 DUP2 LT PUSH8 0xFFFFFFFFFFFFFFFF DUP3 GT OR ISZERO PUSH2 0x1860 JUMPI PUSH2 0x185F PUSH2 0x1809 JUMP JUMPDEST JUMPDEST DUP1 PUSH1 0x40 MSTORE POP POP POP JUMP JUMPDEST PUSH1 0x0 PUSH2 0x1873 PUSH2 0x173F JUMP JUMPDEST SWAP1 POP PUSH2 0x187F DUP3 DUP3 PUSH2 0x1838 JUMP JUMPDEST SWAP2 SWAP1 POP JUMP JUMPDEST PUSH1 0x0 PUSH8 0xFFFFFFFFFFFFFFFF DUP3 GT ISZERO PUSH2 0x189F JUMPI PUSH2 0x189E PUSH2 0x1809 JUMP JUMPDEST JUMPDEST PUSH2 0x18A8 DUP3 PUSH2 0x16D3 JUMP JUMPDEST SWAP1 POP PUSH1 0x20 DUP2 ADD SWAP1 POP SWAP2 SWAP1 POP JUMP JUMPDEST DUP3 DUP2 DUP4 CALLDATACOPY PUSH1 0x0 DUP4 DUP4 ADD MSTORE POP POP POP JUMP JUMPDEST PUSH1 0x0 PUSH2 0x18D7 PUSH2 0x18D2 DUP5 PUSH2 0x1884 JUMP JUMPDEST PUSH2 0x1869 JUMP JUMPDEST SWAP1 POP DUP3 DUP2 MSTORE PUSH1 0x20 DUP2 ADD DUP5 DUP5 DUP5 ADD GT ISZERO PUSH2 0x18F3 JUMPI PUSH2 0x18F2 PUSH2 0x1804 JUMP JUMPDEST JUMPDEST PUSH2 0x18FE DUP5 DUP3 DUP6 PUSH2 0x18B5 JUMP JUMPDEST POP SWAP4 SWAP3 POP POP POP JUMP JUMPDEST PUSH1 0x0 DUP3 PUSH1 0x1F DUP4 ADD SLT PUSH2 0x191B JUMPI PUSH2 0x191A PUSH2 0x17FF JUMP JUMPDEST JUMPDEST DUP2 CALLDATALOAD PUSH2 0x192B DUP5 DUP3 PUSH1 0x20 DUP7 ADD PUSH2 0x18C4 JUMP JUMPDEST SWAP2 POP POP SWAP3 SWAP2 POP POP JUMP JUMPDEST PUSH1 0x0 DUP2 PUSH1 0x0 SIGNEXTEND SWAP1 POP SWAP2 SWAP1 POP JUMP JUMPDEST PUSH2 0x194A DUP2 PUSH2 0x1934 JUMP JUMPDEST DUP2 EQ PUSH2 0x1955 JUMPI PUSH1 0x0 DUP1 REVERT JUMPDEST POP JUMP JUMPDEST PUSH1 0x0 DUP2 CALLDATALOAD SWAP1 POP PUSH2 0x1967 DUP2 PUSH2 0x1941 JUMP JUMPDEST SWAP3 SWAP2 POP POP JUMP JUMPDEST PUSH1 0x0 DUP1 PUSH1 0x40 DUP4 DUP6 SUB SLT ISZERO PUSH2 0x1984 JUMPI PUSH2 0x1983 PUSH2 0x1749 JUMP JUMPDEST JUMPDEST PUSH1 0x0 DUP4 ADD CALLDATALOAD PUSH8 0xFFFFFFFFFFFFFFFF DUP2 GT ISZERO PUSH2 0x19A2 JUMPI PUSH2 0x19A1 PUSH2 0x174E JUMP JUMPDEST JUMPDEST PUSH2 0x19AE DUP6 DUP3 DUP7 ADD PUSH2 0x1906 JUMP JUMPDEST SWAP3 POP POP PUSH1 0x20 PUSH2 0x19BF DUP6 DUP3 DUP7 ADD PUSH2 0x1958 JUMP JUMPDEST SWAP2 POP POP SWAP3 POP SWAP3 SWAP1 POP JUMP JUMPDEST PUSH1 0x0 PUSH20 0xFFFFFFFFFFFFFFFFFFFFFFFFFFFFFFFFFFFFFFFF DUP3 AND SWAP1 POP SWAP2 SWAP1 POP JUMP JUMPDEST PUSH1 0x0 PUSH2 0x19F4 DUP3 PUSH2 0x19C9 JUMP JUMPDEST SWAP1 POP SWAP2 SWAP1 POP JUMP JUMPDEST PUSH2 0x1A04 DUP2 PUSH2 0x19E9 JUMP JUMPDEST DUP3 MSTORE POP POP JUMP JUMPDEST PUSH1 0x0 PUSH1 0x20 DUP3 ADD SWAP1 POP PUSH2 0x1A1F PUSH1 0x0 DUP4 ADD DUP5 PUSH2 0x19FB JUMP JUMPDEST SWAP3 SWAP2 POP POP JUMP JUMPDEST PUSH1 0x0 PUSH1 0x20 DUP3 DUP5 SUB SLT ISZERO PUSH2 0x1A3B JUMPI PUSH2 0x1A3A PUSH2 0x1749 JUMP JUMPDEST JUMPDEST PUSH1 0x0 DUP3 ADD CALLDATALOAD PUSH8 0xFFFFFFFFFFFFFFFF DUP2 GT ISZERO PUSH2 0x1A59 JUMPI PUSH2 0x1A58 PUSH2 0x174E JUMP JUMPDEST JUMPDEST PUSH2 0x1A65 DUP5 DUP3 DUP6 ADD PUSH2 0x1906 JUMP JUMPDEST SWAP2 POP POP SWAP3 SWAP2 POP POP JUMP JUMPDEST PUSH2 0x1A77 DUP2 PUSH2 0x1789 JUMP JUMPDEST DUP3 MSTORE POP POP JUMP JUMPDEST PUSH1 0x0 PUSH1 0x20 DUP3 ADD SWAP1 POP PUSH2 0x1A92 PUSH1 0x0 DUP4 ADD DUP5 PUSH2 0x1A6E JUMP JUMPDEST SWAP3 SWAP2 POP POP JUMP JUMPDEST PUSH2 0x1AA1 DUP2 PUSH2 0x19E9 JUMP JUMPDEST DUP2 EQ PUSH2 0x1AAC JUMPI PUSH1 0x0 DUP1 REVERT JUMPDEST POP JUMP JUMPDEST PUSH1 0x0 DUP2 CALLDATALOAD SWAP1 POP PUSH2 0x1ABE DUP2 PUSH2 0x1A98 JUMP JUMPDEST SWAP3 SWAP2 POP POP JUMP JUMPDEST PUSH1 0x0 PUSH1 0x20 DUP3 DUP5 SUB SLT ISZERO PUSH2 0x1ADA JUMPI PUSH2 0x1AD9 PUSH2 0x1749 JUMP JUMPDEST JUMPDEST PUSH1 0x0 PUSH2 0x1AE8 DUP5 DUP3 DUP6 ADD PUSH2 0x1AAF JUMP JUMPDEST SWAP2 POP POP SWAP3 SWAP2 POP POP JUMP JUMPDEST PUSH2 0x1AFA DUP2 PUSH2 0x1934 JUMP JUMPDEST DUP3 MSTORE POP POP JUMP JUMPDEST PUSH2 0x1B09 DUP2 PUSH2 0x1789 JUMP JUMPDEST DUP3 MSTORE POP POP JUMP JUMPDEST PUSH1 0xC0 DUP3 ADD PUSH1 0x0 DUP3 ADD MLOAD PUSH2 0x1B25 PUSH1 0x0 DUP6 ADD DUP3 PUSH2 0x1AF1 JUMP JUMPDEST POP PUSH1 0x20 DUP3 ADD MLOAD PUSH2 0x1B38 PUSH1 0x20 DUP6 ADD DUP3 PUSH2 0x1AF1 JUMP JUMPDEST POP PUSH1 0x40 DUP3 ADD MLOAD PUSH2 0x1B4B PUSH1 0x40 DUP6 ADD DUP3 PUSH2 0x1AF1 JUMP JUMPDEST POP PUSH1 0x60 DUP3 ADD MLOAD PUSH2 0x1B5E PUSH1 0x60 DUP6 ADD DUP3 PUSH2 0x1AF1 JUMP JUMPDEST POP PUSH1 0x80 DUP3 ADD MLOAD PUSH2 0x1B71 PUSH1 0x80 DUP6 ADD DUP3 PUSH2 0x1B00 JUMP JUMPDEST POP PUSH1 0xA0 DUP3 ADD MLOAD PUSH2 0x1B84 PUSH1 0xA0 DUP6 ADD DUP3 PUSH2 0x1B00 JUMP JUMPDEST POP POP POP POP JUMP JUMPDEST PUSH1 0x0 PUSH1 0xC0 DUP3 ADD SWAP1 POP PUSH2 0x1B9F PUSH1 0x0 DUP4 ADD DUP5 PUSH2 0x1B0F JUMP JUMPDEST SWAP3 SWAP2 POP POP JUMP JUMPDEST PUSH1 0x0 DUP1 PUSH1 0x0 DUP1 PUSH1 0x80 DUP6 DUP8 SUB SLT ISZERO PUSH2 0x1BBF JUMPI PUSH2 0x1BBE PUSH2 0x1749 JUMP JUMPDEST JUMPDEST PUSH1 0x0 PUSH2 0x1BCD DUP8 DUP3 DUP9 ADD PUSH2 0x1958 JUMP JUMPDEST SWAP5 POP POP PUSH1 0x20 PUSH2 0x1BDE DUP8 DUP3 DUP9 ADD PUSH2 0x1958 JUMP JUMPDEST SWAP4 POP POP PUSH1 0x40 PUSH2 0x1BEF DUP8 DUP3 DUP9 ADD PUSH2 0x1958 JUMP JUMPDEST SWAP3 POP POP PUSH1 0x60 PUSH2 0x1C00 DUP8 DUP3 DUP9 ADD PUSH2 0x1958 JUMP JUMPDEST SWAP2 POP POP SWAP3 SWAP6 SWAP2 SWAP5 POP SWAP3 POP JUMP JUMPDEST PUSH32 0x4E487B7100000000000000000000000000000000000000000000000000000000 PUSH1 0x0 MSTORE PUSH1 0x32 PUSH1 0x4 MSTORE PUSH1 0x24 PUSH1 0x0 REVERT JUMPDEST PUSH1 0x0 DUP2 SWAP1 POP SWAP3 SWAP2 POP POP JUMP JUMPDEST PUSH1 0x0 PUSH2 0x1C51 DUP3 PUSH2 0x168D JUMP JUMPDEST PUSH2 0x1C5B DUP2 DUP6 PUSH2 0x1C3B JUMP JUMPDEST SWAP4 POP PUSH2 0x1C6B DUP2 DUP6 PUSH1 0x20 DUP7 ADD PUSH2 0x16A9 JUMP JUMPDEST DUP1 DUP5 ADD SWAP2 POP POP SWAP3 SWAP2 POP POP JUMP JUMPDEST PUSH32 0x2300000000000000000000000000000000000000000000000000000000000000 DUP2 MSTORE POP JUMP JUMPDEST PUSH32 0x7C00000000000000000000000000000000000000000000000000000000000000 DUP2 MSTORE POP JUMP JUMPDEST PUSH1 0x0 PUSH2 0x1CCF DUP3 DUP11 PUSH2 0x1C46 JUMP JUMPDEST SWAP2 POP PUSH2 0x1CDB DUP3 DUP10 PUSH2 0x1C46 JUMP JUMPDEST SWAP2 POP PUSH2 0x1CE6 DUP3 PUSH2 0x1C77 JUMP JUMPDEST PUSH1 0x1 DUP3 ADD SWAP2 POP PUSH2 0x1CF6 DUP3 DUP9 PUSH2 0x1C46 JUMP JUMPDEST SWAP2 POP PUSH2 0x1D01 DUP3 PUSH2 0x1C77 JUMP JUMPDEST PUSH1 0x1 DUP3 ADD SWAP2 POP PUSH2 0x1D11 DUP3 DUP8 PUSH2 0x1C46 JUMP JUMPDEST SWAP2 POP PUSH2 0x1D1C DUP3 PUSH2 0x1C77 JUMP JUMPDEST PUSH1 0x1 DUP3 ADD SWAP2 POP PUSH2 0x1D2C DUP3 DUP7 PUSH2 0x1C46 JUMP JUMPDEST SWAP2 POP PUSH2 0x1D37 DUP3 PUSH2 0x1C77 JUMP JUMPDEST PUSH1 0x1 DUP3 ADD SWAP2 POP PUSH2 0x1D47 DUP3 DUP6 PUSH2 0x1C46 JUMP JUMPDEST SWAP2 POP PUSH2 0x1D52 DUP3 PUSH2 0x1C77 JUMP JUMPDEST PUSH1 0x1 DUP3 ADD SWAP2 POP PUSH2 0x1D62 DUP3 DUP5 PUSH2 0x1C46 JUMP JUMPDEST SWAP2 POP PUSH2 0x1D6D DUP3 PUSH2 0x1C9D JUMP JUMPDEST PUSH1 0x1 DUP3 ADD SWAP2 POP DUP2 SWAP1 POP SWAP9 SWAP8 POP POP POP POP POP POP POP POP JUMP JUMPDEST PUSH32 0x4E487B7100000000000000000000000000000000000000000000000000000000 PUSH1 0x0 MSTORE PUSH1 0x11 PUSH1 0x4 MSTORE PUSH1 0x24 PUSH1 0x0 REVERT JUMPDEST PUSH1 0x0 PUSH2 0x1DBC DUP3 PUSH2 0x1753 JUMP JUMPDEST SWAP2 POP PUSH32 0xFFFFFFFFFFFFFFFFFFFFFFFFFFFFFFFFFFFFFFFFFFFFFFFFFFFFFFFFFFFFFFFF DUP3 SUB PUSH2 0x1DEE JUMPI PUSH2 0x1DED PUSH2 0x1D82 JUMP JUMPDEST JUMPDEST PUSH1 0x1 DUP3 ADD SWAP1 POP SWAP2 SWAP1 POP JUMP JUMPDEST PUSH32 0x496E76616C696420766F74650000000000000000000000000000000000000000 PUSH1 0x0 DUP3 ADD MSTORE POP JUMP JUMPDEST PUSH1 0x0 PUSH2 0x1E2F PUSH1 0xC DUP4 PUSH2 0x1698 JUMP JUMPDEST SWAP2 POP PUSH2 0x1E3A DUP3 PUSH2 0x1DF9 JUMP JUMPDEST PUSH1 0x20 DUP3 ADD SWAP1 POP SWAP2 SWAP1 POP JUMP JUMPDEST PUSH1 0x0 PUSH1 0x20 DUP3 ADD SWAP1 POP DUP2 DUP2 SUB PUSH1 0x0 DUP4 ADD MSTORE PUSH2 0x1E5E DUP2 PUSH2 0x1E22 JUMP JUMPDEST SWAP1 POP SWAP2 SWAP1 POP JUMP JUMPDEST PUSH1 0x0 PUSH2 0x1E70 DUP3 PUSH2 0x1789 JUMP JUMPDEST SWAP2 POP PUSH2 0x1E7B DUP4 PUSH2 0x1789 JUMP JUMPDEST SWAP3 POP DUP3 DUP3 SUB SWAP1 POP DUP2 DUP2 SLT PUSH1 0x0 DUP5 SLT AND DUP3 DUP3 SGT PUSH1 0x0 DUP6 SLT ISZERO AND OR ISZERO PUSH2 0x1EA2 JUMPI PUSH2 0x1EA1 PUSH2 0x1D82 JUMP JUMPDEST JUMPDEST SWAP3 SWAP2 POP POP JUMP JUMPDEST PUSH1 0x0 PUSH2 0x1EB3 DUP3 PUSH2 0x1789 JUMP JUMPDEST SWAP2 POP PUSH2 0x1EBE DUP4 PUSH2 0x1789 JUMP JUMPDEST SWAP3 POP DUP3 DUP3 ADD SWAP1 POP DUP3 DUP2 SLT ISZERO PUSH1 0x0 DUP4 SLT AND DUP4 DUP3 SLT PUSH1 0x0 DUP5 SLT ISZERO AND OR ISZERO PUSH2 0x1EE6 JUMPI PUSH2 0x1EE5 PUSH2 0x1D82 JUMP JUMPDEST JUMPDEST SWAP3 SWAP2 POP POP JUMP JUMPDEST PUSH32 0x4E487B7100000000000000000000000000000000000000000000000000000000 PUSH1 0x0 MSTORE PUSH1 0x22 PUSH1 0x4 MSTORE PUSH1 0x24 PUSH1 0x0 REVERT JUMPDEST PUSH1 0x0 PUSH1 0x2 DUP3 DIV SWAP1 POP PUSH1 0x1 DUP3 AND DUP1 PUSH2 0x1F33 JUMPI PUSH1 0x7F DUP3 AND SWAP2 POP JUMPDEST PUSH1 0x20 DUP3 LT DUP2 SUB PUSH2 0x1F46 JUMPI PUSH2 0x1F45 PUSH2 0x1EEC JUMP JUMPDEST JUMPDEST POP SWAP2 SWAP1 POP JUMP JUMPDEST PUSH1 0x0 DUP2 SWAP1 POP DUP2 PUSH1 0x0 MSTORE PUSH1 0x20 PUSH1 0x0 KECCAK256 SWAP1 POP SWAP2 SWAP1 POP JUMP JUMPDEST PUSH1 0x0 PUSH1 0x20 PUSH1 0x1F DUP4 ADD DIV SWAP1 POP SWAP2 SWAP1 POP JUMP JUMPDEST PUSH1 0x0 DUP3 DUP3 SHL SWAP1 POP SWAP3 SWAP2 POP POP JUMP JUMPDEST PUSH1 0x0 PUSH1 0x8 DUP4 MUL PUSH2 0x1FAE PUSH32 0xFFFFFFFFFFFFFFFFFFFFFFFFFFFFFFFFFFFFFFFFFFFFFFFFFFFFFFFFFFFFFFFF DUP3 PUSH2 0x1F71 JUMP JUMPDEST PUSH2 0x1FB8 DUP7 DUP4 PUSH2 0x1F71 JUMP JUMPDEST SWAP6 POP DUP1 NOT DUP5 AND SWAP4 POP DUP1 DUP7 AND DUP5 OR SWAP3 POP POP POP SWAP4 SWAP3 POP POP POP JUMP JUMPDEST PUSH1 0x0 DUP2 SWAP1 POP SWAP2 SWAP1 POP JUMP JUMPDEST PUSH1 0x0 PUSH2 0x1FF5 PUSH2 0x1FF0 PUSH2 0x1FEB DUP5 PUSH2 0x1753 JUMP JUMPDEST PUSH2 0x1FD0 JUMP JUMPDEST PUSH2 0x1753 JUMP JUMPDEST SWAP1 POP SWAP2 SWAP1 POP JUMP JUMPDEST PUSH1 0x0 DUP2 SWAP1 POP SWAP2 SWAP1 POP JUMP JUMPDEST PUSH2 0x200F DUP4 PUSH2 0x1FDA JUMP JUMPDEST PUSH2 0x2023 PUSH2 0x201B DUP3 PUSH2 0x1FFC JUMP JUMPDEST DUP5 DUP5 SLOAD PUSH2 0x1F7E JUMP JUMPDEST DUP3 SSTORE POP POP POP POP JUMP JUMPDEST PUSH1 0x0 SWAP1 JUMP JUMPDEST PUSH2 0x2038 PUSH2 0x202B JUMP JUMPDEST PUSH2 0x2043 DUP2 DUP5 DUP5 PUSH2 0x2006 JUMP JUMPDEST POP POP POP JUMP JUMPDEST JUMPDEST DUP2 DUP2 LT ISZERO PUSH2 0x2067 JUMPI PUSH2 0x205C PUSH1 0x0 DUP3 PUSH2 0x2030 JUMP JUMPDEST PUSH1 0x1 DUP2 ADD SWAP1 POP PUSH2 0x2049 JUMP JUMPDEST POP POP JUMP JUMPDEST PUSH1 0x1F DUP3 GT ISZERO PUSH2 0x20AC JUMPI PUSH2 0x207D DUP2 PUSH2 0x1F4C JUMP JUMPDEST PUSH2 0x2086 DUP5 PUSH2 0x1F61 JUMP JUMPDEST DUP2 ADD PUSH1 0x20 DUP6 LT ISZERO PUSH2 0x2095 JUMPI DUP2 SWAP1 POP JUMPDEST PUSH2 0x20A9 PUSH2 0x20A1 DUP6 PUSH2 0x1F61 JUMP JUMPDEST DUP4 ADD DUP3 PUSH2 0x2048 JUMP JUMPDEST POP POP JUMPDEST POP POP POP JUMP JUMPDEST PUSH1 0x0 DUP3 DUP3 SHR SWAP1 POP SWAP3 SWAP2 POP POP JUMP JUMPDEST PUSH1 0x0 PUSH2 0x20CF PUSH1 0x0 NOT DUP5 PUSH1 0x8 MUL PUSH2 0x20B1 JUMP JUMPDEST NOT DUP1 DUP4 AND SWAP2 POP POP SWAP3 SWAP2 POP POP JUMP JUMPDEST PUSH1 0x0 PUSH2 0x20E8 DUP4 DUP4 PUSH2 0x20BE JUMP JUMPDEST SWAP2 POP DUP3 PUSH1 0x2 MUL DUP3 OR SWAP1 POP SWAP3 SWAP2 POP POP JUMP JUMPDEST PUSH2 0x2101 DUP3 PUSH2 0x168D JUMP JUMPDEST PUSH8 0xFFFFFFFFFFFFFFFF DUP2 GT ISZERO PUSH2 0x211A JUMPI PUSH2 0x2119 PUSH2 0x1809 JUMP JUMPDEST JUMPDEST PUSH2 0x2124 DUP3 SLOAD PUSH2 0x1F1B JUMP JUMPDEST PUSH2 0x212F DUP3 DUP3 DUP6 PUSH2 0x206B JUMP JUMPDEST PUSH1 0x0 PUSH1 0x20 SWAP1 POP PUSH1 0x1F DUP4 GT PUSH1 0x1 DUP2 EQ PUSH2 0x2162 JUMPI PUSH1 0x0 DUP5 ISZERO PUSH2 0x2150 JUMPI DUP3 DUP8 ADD MLOAD SWAP1 POP JUMPDEST PUSH2 0x215A DUP6 DUP3 PUSH2 0x20DC JUMP JUMPDEST DUP7 SSTORE POP PUSH2 0x21C2 JUMP JUMPDEST PUSH1 0x1F NOT DUP5 AND PUSH2 0x2170 DUP7 PUSH2 0x1F4C JUMP JUMPDEST PUSH1 0x0 JUMPDEST DUP3 DUP2 LT ISZERO PUSH2 0x2198 JUMPI DUP5 DUP10 ADD MLOAD DUP3 SSTORE PUSH1 0x1 DUP3 ADD SWAP2 POP PUSH1 0x20 DUP6 ADD SWAP5 POP PUSH1 0x20 DUP2 ADD SWAP1 POP PUSH2 0x2173 JUMP JUMPDEST DUP7 DUP4 LT ISZERO PUSH2 0x21B5 JUMPI DUP5 DUP10 ADD MLOAD PUSH2 0x21B1 PUSH1 0x1F DUP10 AND DUP3 PUSH2 0x20BE JUMP JUMPDEST DUP4 SSTORE POP JUMPDEST PUSH1 0x1 PUSH1 0x2 DUP9 MUL ADD DUP9 SSTORE POP POP POP JUMPDEST POP POP POP POP POP POP JUMP JUMPDEST PUSH1 0x0 DUP2 SLOAD PUSH2 0x21D7 DUP2 PUSH2 0x1F1B JUMP JUMPDEST PUSH2 0x21E1 DUP2 DUP7 PUSH2 0x1C3B JUMP JUMPDEST SWAP5 POP PUSH1 0x1 DUP3 AND PUSH1 0x0 DUP2 EQ PUSH2 0x21FC JUMPI PUSH1 0x1 DUP2 EQ PUSH2 0x2211 JUMPI PUSH2 0x2244 JUMP JUMPDEST PUSH1 0xFF NOT DUP4 AND DUP7 MSTORE DUP2 ISZERO ISZERO DUP3 MUL DUP7 ADD SWAP4 POP PUSH2 0x2244 JUMP JUMPDEST PUSH2 0x221A DUP6 PUSH2 0x1F4C JUMP JUMPDEST PUSH1 0x0 JUMPDEST DUP4 DUP2 LT ISZERO PUSH2 0x223C JUMPI DUP2 SLOAD DUP2 DUP10 ADD MSTORE PUSH1 0x1 DUP3 ADD SWAP2 POP PUSH1 0x20 DUP2 ADD SWAP1 POP PUSH2 0x221D JUMP JUMPDEST DUP4 DUP9 ADD SWAP6 POP POP POP JUMPDEST POP POP POP SWAP3 SWAP2 POP POP JUMP JUMPDEST PUSH1 0x0 PUSH2 0x2259 DUP3 DUP9 PUSH2 0x21CA JUMP JUMPDEST SWAP2 POP PUSH2 0x2264 DUP3 PUSH2 0x1C77 JUMP JUMPDEST PUSH1 0x1 DUP3 ADD SWAP2 POP PUSH2 0x2274 DUP3 DUP8 PUSH2 0x1C46 JUMP JUMPDEST SWAP2 POP PUSH2 0x227F DUP3 PUSH2 0x1C77 JUMP JUMPDEST PUSH1 0x1 DUP3 ADD SWAP2 POP PUSH2 0x228F DUP3 DUP7 PUSH2 0x1C46 JUMP JUMPDEST SWAP2 POP PUSH2 0x229A DUP3 PUSH2 0x1C77 JUMP JUMPDEST PUSH1 0x1 DUP3 ADD SWAP2 POP PUSH2 0x22AA DUP3 DUP6 PUSH2 0x1C46 JUMP JUMPDEST SWAP2 POP PUSH2 0x22B5 DUP3 PUSH2 0x1C9D JUMP JUMPDEST PUSH1 0x1 DUP3 ADD SWAP2 POP PUSH2 0x22C5 DUP3 DUP5 PUSH2 0x1C46 JUMP JUMPDEST SWAP2 POP DUP2 SWAP1 POP SWAP7 SWAP6 POP POP POP POP POP POP JUMP JUMPDEST PUSH1 0x0 PUSH2 0x22E0 DUP3 DUP5 PUSH2 0x21CA JUMP JUMPDEST SWAP2 POP DUP2 SWAP1 POP SWAP3 SWAP2 POP POP JUMP JUMPDEST PUSH1 0x0 PUSH2 0x22F7 DUP3 DUP5 PUSH2 0x1C46 JUMP JUMPDEST SWAP2 POP DUP2 SWAP1 POP SWAP3 SWAP2 POP POP JUMP JUMPDEST PUSH1 0x0 PUSH2 0x230D DUP3 PUSH2 0x1789 JUMP JUMPDEST SWAP2 POP PUSH2 0x2318 DUP4 PUSH2 0x1789 JUMP JUMPDEST SWAP3 POP DUP3 DUP3 MUL PUSH2 0x2326 DUP2 PUSH2 0x1789 JUMP JUMPDEST SWAP2 POP PUSH32 0x8000000000000000000000000000000000000000000000000000000000000000 DUP5 EQ PUSH1 0x0 DUP5 SLT AND ISZERO PUSH2 0x235E JUMPI PUSH2 0x235D PUSH2 0x1D82 JUMP JUMPDEST JUMPDEST DUP3 DUP3 SDIV DUP5 EQ DUP4 ISZERO OR PUSH2 0x2373 JUMPI PUSH2 0x2372 PUSH2 0x1D82 JUMP JUMPDEST JUMPDEST POP SWAP3 SWAP2 POP POP JUMP JUMPDEST PUSH32 0x4E487B7100000000000000000000000000000000000000000000000000000000 PUSH1 0x0 MSTORE PUSH1 0x12 PUSH1 0x4 MSTORE PUSH1 0x24 PUSH1 0x0 REVERT JUMPDEST PUSH1 0x0 PUSH2 0x23B4 DUP3 PUSH2 0x1789 JUMP JUMPDEST SWAP2 POP PUSH2 0x23BF DUP4 PUSH2 0x1789 JUMP JUMPDEST SWAP3 POP DUP3 PUSH2 0x23CF JUMPI PUSH2 0x23CE PUSH2 0x237A JUMP JUMPDEST JUMPDEST PUSH1 0x1 PUSH1 0x0 SUB DUP4 EQ PUSH32 0x8000000000000000000000000000000000000000000000000000000000000000 DUP4 EQ AND ISZERO PUSH2 0x2408 JUMPI PUSH2 0x2407 PUSH2 0x1D82 JUMP JUMPDEST JUMPDEST DUP3 DUP3 SDIV SWAP1 POP SWAP3 SWAP2 POP POP JUMP JUMPDEST PUSH32 0x43616C6C6572206973206E6F74206F776E657200000000000000000000000000 PUSH1 0x0 DUP3 ADD MSTORE POP JUMP JUMPDEST PUSH1 0x0 PUSH2 0x2449 PUSH1 0x13 DUP4 PUSH2 0x1698 JUMP JUMPDEST SWAP2 POP PUSH2 0x2454 DUP3 PUSH2 0x2413 JUMP JUMPDEST PUSH1 0x20 DUP3 ADD SWAP1 POP SWAP2 SWAP1 POP JUMP JUMPDEST PUSH1 0x0 PUSH1 0x20 DUP3 ADD SWAP1 POP DUP2 DUP2 SUB PUSH1 0x0 DUP4 ADD MSTORE PUSH2 0x2478 DUP2 PUSH2 0x243C JUMP JUMPDEST SWAP1 POP SWAP2 SWAP1 POP JUMP JUMPDEST PUSH1 0x0 PUSH1 0x40 DUP3 ADD SWAP1 POP DUP2 DUP2 SUB PUSH1 0x0 DUP4 ADD MSTORE PUSH2 0x2499 DUP2 DUP6 PUSH2 0x16E4 JUMP JUMPDEST SWAP1 POP PUSH2 0x24A8 PUSH1 0x20 DUP4 ADD DUP5 PUSH2 0x19FB JUMP JUMPDEST SWAP4 SWAP3 POP POP POP JUMP JUMPDEST PUSH1 0x0 PUSH2 0x24BB DUP3 DUP6 PUSH2 0x1C46 JUMP JUMPDEST SWAP2 POP PUSH2 0x24C7 DUP3 DUP5 PUSH2 0x1C46 JUMP JUMPDEST SWAP2 POP DUP2 SWAP1 POP SWAP4 SWAP3 POP POP POP JUMP INVALID LOG2 PUSH5 0x6970667358 0x22 SLT KECCAK256 SELFBALANCE PUSH30 0x4F283B9AB5C173F95F7F5473C778DCC677870D8B76AD4D35152F16B7D652 PUSH5 0x736F6C6343 STOP ADDMOD SLT STOP CALLER "
		},
		"gasEstimates": {
			"creation": {
				"codeDepositCost": "1896200",
				"executionCost": "infinite",
				"totalCost": "infinite"
			},
			"external": {
				"changeOwner(address)": "30611",
				"getCurrentTaxes()": "infinite",
				"getCustomTaxes()": "infinite",
				"getOwner()": "2522",
				"getTax(string)": "infinite",
				"getVotes()": "infinite",
				"proposeCustomTaxes(string,int8)": "infinite",
				"proposeStandardTaxes(int8,int8,int8,int8)": "infinite",
				"vote(uint256,int256)": "infinite",
				"voteCustom(uint256,int256)": "infinite"
			}
		},
		"methodIdentifiers": {
			"changeOwner(address)": "a6f9dae1",
			"getCurrentTaxes()": "d71fdd00",
			"getCustomTaxes()": "8867a4c9",
			"getOwner()": "893d20e8",
			"getTax(string)": "8a0d56ce",
			"getVotes()": "0dc96015",
			"proposeCustomTaxes(string,int8)": "564a80f9",
			"proposeStandardTaxes(int8,int8,int8,int8)": "f73e8912",
			"vote(uint256,int256)": "5e44daf3",
			"voteCustom(uint256,int256)": "33db1a61"
		}
	},
	"abi": [
		{
			"inputs": [],
			"stateMutability": "nonpayable",
			"type": "constructor"
		},
		{
			"anonymous": false,
			"inputs": [
				{
					"indexed": true,
					"internalType": "address",
					"name": "oldOwner",
					"type": "address"
				},
				{
					"indexed": true,
					"internalType": "address",
					"name": "newOwner",
					"type": "address"
				}
			],
			"name": "OwnerSet",
			"type": "event"
		},
		{
			"inputs": [
				{
					"internalType": "address",
					"name": "newOwner",
					"type": "address"
				}
			],
			"name": "changeOwner",
			"outputs": [],
			"stateMutability": "nonpayable",
			"type": "function"
		},
		{
			"inputs": [],
			"name": "getCurrentTaxes",
			"outputs": [
				{
					"components": [
						{
							"internalType": "int8",
							"name": "PIT",
							"type": "int8"
						},
						{
							"internalType": "int8",
							"name": "CIT",
							"type": "int8"
						},
						{
							"internalType": "int8",
							"name": "VAT",
							"type": "int8"
						},
						{
							"internalType": "int8",
							"name": "Health",
							"type": "int8"
						},
						{
							"internalType": "int256",
							"name": "votes",
							"type": "int256"
						},
						{
							"internalType": "int256",
							"name": "total",
							"type": "int256"
						}
					],
					"internalType": "struct Taxes.cStandardTaxesProp",
					"name": "taxes",
					"type": "tuple"
				}
			],
			"stateMutability": "view",
			"type": "function"
		},
		{
			"inputs": [],
			"name": "getCustomTaxes",
			"outputs": [
				{
					"internalType": "string",
					"name": "taxes",
					"type": "string"
				}
			],
			"stateMutability": "view",
			"type": "function"
		},
		{
			"inputs": [],
			"name": "getOwner",
			"outputs": [
				{
					"internalType": "address",
					"name": "",
					"type": "address"
				}
			],
			"stateMutability": "view",
			"type": "function"
		},
		{
			"inputs": [
				{
					"internalType": "string",
					"name": "companyID",
					"type": "string"
				}
			],
			"name": "getTax",
			"outputs": [
				{
					"internalType": "int256",
					"name": "",
					"type": "int256"
				}
			],
			"stateMutability": "view",
			"type": "function"
		},
		{
			"inputs": [],
			"name": "getVotes",
			"outputs": [
				{
					"internalType": "string",
					"name": "v",
					"type": "string"
				}
			],
			"stateMutability": "view",
			"type": "function"
		},
		{
			"inputs": [
				{
					"internalType": "string",
					"name": "companyID",
					"type": "string"
				},
				{
					"internalType": "int8",
					"name": "tax",
					"type": "int8"
				}
			],
			"name": "proposeCustomTaxes",
			"outputs": [],
			"stateMutability": "payable",
			"type": "function"
		},
		{
			"inputs": [
				{
					"internalType": "int8",
					"name": "PIT",
					"type": "int8"
				},
				{
					"internalType": "int8",
					"name": "CIT",
					"type": "int8"
				},
				{
					"internalType": "int8",
					"name": "VAT",
					"type": "int8"
				},
				{
					"internalType": "int8",
					"name": "Health",
					"type": "int8"
				}
			],
			"name": "proposeStandardTaxes",
			"outputs": [],
			"stateMutability": "payable",
			"type": "function"
		},
		{
			"inputs": [
				{
					"internalType": "uint256",
					"name": "id",
					"type": "uint256"
				},
				{
					"internalType": "int256",
					"name": "v",
					"type": "int256"
				}
			],
			"name": "vote",
			"outputs": [],
			"stateMutability": "payable",
			"type": "function"
		},
		{
			"inputs": [
				{
					"internalType": "uint256",
					"name": "id",
					"type": "uint256"
				},
				{
					"internalType": "int256",
					"name": "v",
					"type": "int256"
				}
			],
			"name": "voteCustom",
			"outputs": [],
			"stateMutability": "payable",
			"type": "function"
		}
	]
}