{
	"data": {
		"bytecode": {
			"linkReferences": {},
			"object": "60806040525f600355348015610013575f80fd5b5060405161395d38038061395d83398181016040528101906100359190610318565b61007a6040518060400160405280601b81526020017f4f776e657220636f6e7472616374206465706c6f7965642062793a0000000000815250336101b960201b60201c565b335f806101000a81548173ffffffffffffffffffffffffffffffffffffffff021916908373ffffffffffffffffffffffffffffffffffffffff1602179055505f8054906101000a900473ffffffffffffffffffffffffffffffffffffffff1673ffffffffffffffffffffffffffffffffffffffff165f73ffffffffffffffffffffffffffffffffffffffff167f342827c97908e5e2f71151c08502a66d44b6f758e3ac2f1de95f02eb95f0a73560405160405180910390a38160045f6101000a81548173ffffffffffffffffffffffffffffffffffffffff021916908373ffffffffffffffffffffffffffffffffffffffff1602179055508060055f6101000a81548173ffffffffffffffffffffffffffffffffffffffff021916908373ffffffffffffffffffffffffffffffffffffffff160217905550505061044a565b61025782826040516024016101cf9291906103ef565b6040516020818303038152906040527f319af333000000000000000000000000000000000000000000000000000000007bffffffffffffffffffffffffffffffffffffffffffffffffffffffff19166020820180517bffffffffffffffffffffffffffffffffffffffffffffffffffffffff838183161783525050505061025b60201b60201c565b5050565b61027c8161027761027f60201b611dd91761029e60201b60201c565b60201c565b50565b5f6a636f6e736f6c652e6c6f6790505f80835160208501845afa505050565b6102b060201b6120ec17819050919050565b6102b861041d565b565b5f80fd5b5f73ffffffffffffffffffffffffffffffffffffffff82169050919050565b5f6102e7826102be565b9050919050565b6102f7816102dd565b8114610301575f80fd5b50565b5f81519050610312816102ee565b92915050565b5f806040838503121561032e5761032d6102ba565b5b5f61033b85828601610304565b925050602061034c85828601610304565b9150509250929050565b5f81519050919050565b5f82825260208201905092915050565b5f5b8381101561038d578082015181840152602081019050610372565b5f8484015250505050565b5f601f19601f8301169050919050565b5f6103b282610356565b6103bc8185610360565b93506103cc818560208601610370565b6103d581610398565b840191505092915050565b6103e9816102dd565b82525050565b5f6040820190508181035f83015261040781856103a8565b905061041660208301846103e0565b9392505050565b7f4e487b71000000000000000000000000000000000000000000000000000000005f52605160045260245ffd5b613506806104575f395ff3fe6080604052600436106100c1575f3560e01c80636475f4fe1161007e578063a6f9dae111610058578063a6f9dae11461025d578063c1c1a37714610285578063c3b53ba4146102b5578063e715463c146102f1576100c1565b80636475f4fe146101cd5780638349166f146101f7578063893d20e814610233576100c1565b80631d31245c146100c55780631f88e5a9146100e157806320b7c3171461011d5780633ec559c6146101395780634cef38f9146101755780636192e3e814610191575b5f80fd5b6100df60048036038101906100da9190612464565b61032d565b005b3480156100ec575f80fd5b506101076004803603810190610102919061251c565b6105cb565b6040516101149190612764565b60405180910390f35b610137600480360381019061013291906127ae565b610905565b005b348015610144575f80fd5b5061015f600480360381019061015a91906127fe565b610e92565b60405161016c9190612871565b60405180910390f35b61018f600480360381019061018a9190612891565b61104c565b005b34801561019c575f80fd5b506101b760048036038101906101b2919061251c565b6115de565b6040516101c49190612871565b60405180910390f35b3480156101d8575f80fd5b506101e161175d565b6040516101ee9190612920565b60405180910390f35b348015610202575f80fd5b5061021d6004803603810190610218919061251c565b611769565b60405161022a9190612871565b60405180910390f35b34801561023e575f80fd5b50610247611843565b6040516102549190612978565b60405180910390f35b348015610268575f80fd5b50610283600480360381019061027e91906129bb565b61186a565b005b61029f600480360381019061029a91906129e6565b6119b2565b6040516102ac9190612920565b60405180910390f35b3480156102c0575f80fd5b506102db60048036038101906102d691906127fe565b611cc8565b6040516102e89190612871565b60405180910390f35b3480156102fc575f80fd5b50610317600480360381019061031291906127fe565b611ce8565b6040516103249190612920565b60405180910390f35b60045f9054906101000a900473ffffffffffffffffffffffffffffffffffffffff1673ffffffffffffffffffffffffffffffffffffffff16639f8a13d7336040518263ffffffff1660e01b81526004016103879190612978565b602060405180830381865afa1580156103a2573d5f803e3d5ffd5b505050506040513d601f19601f820116820180604052508101906103c69190612aef565b610405576040517f08c379a00000000000000000000000000000000000000000000000000000000081526004016103fc90612b64565b60405180910390fd5b5f6040518060e001604052806002878154811061042557610424612b82565b5b905f5260205f20015f8154811061043f5761043e612b82565b5b905f5260205f2090600702015f01805461045890612bdc565b80601f016020809104026020016040519081016040528092919081815260200182805461048490612bdc565b80156104cf5780601f106104a6576101008083540402835291602001916104cf565b820191905f5260205f20905b8154815290600101906020018083116104b257829003601f168201915b505050505081526020018581526020018481526020018381526020015f81526020015f81526020014281525090506002858154811061051157610510612b82565b5b905f5260205f200181908060018154018082558091505060019003905f5260205f2090600702015f909190919091505f820151815f0190816105539190612da9565b5060208201518160010190816105699190612da9565b5060408201518160020190805190602001906105869291906120f6565b5060608201518160030190805190602001906105a39291906120f6565b506080820151816004015560a0820151816005015560c0820151816006015550505050505050565b6105d361214d565b600283815481106105e7576105e6612b82565b5b905f5260205f2001828154811061060157610600612b82565b5b905f5260205f2090600702016040518060e00160405290815f8201805461062790612bdc565b80601f016020809104026020016040519081016040528092919081815260200182805461065390612bdc565b801561069e5780601f106106755761010080835404028352916020019161069e565b820191905f5260205f20905b81548152906001019060200180831161068157829003601f168201915b505050505081526020016001820180546106b790612bdc565b80601f01602080910402602001604051908101604052809291908181526020018280546106e390612bdc565b801561072e5780601f106107055761010080835404028352916020019161072e565b820191905f5260205f20905b81548152906001019060200180831161071157829003601f168201915b5050505050815260200160028201805480602002602001604051908101604052809291908181526020015f905b82821015610803578382905f5260205f2001805461077890612bdc565b80601f01602080910402602001604051908101604052809291908181526020018280546107a490612bdc565b80156107ef5780601f106107c6576101008083540402835291602001916107ef565b820191905f5260205f20905b8154815290600101906020018083116107d257829003601f168201915b50505050508152602001906001019061075b565b50505050815260200160038201805480602002602001604051908101604052809291908181526020015f905b828210156108d7578382905f5260205f2001805461084c90612bdc565b80601f016020809104026020016040519081016040528092919081815260200182805461087890612bdc565b80156108c35780601f1061089a576101008083540402835291602001916108c3565b820191905f5260205f20905b8154815290600101906020018083116108a657829003601f168201915b50505050508152602001906001019061082f565b5050505081526020016004820154815260200160058201548152602001600682015481525050905092915050565b7fffffffffffffffffffffffffffffffffffffffffffffffffffffffffffffffff811215610968576040517f08c379a000000000000000000000000000000000000000000000000000000000815260040161095f90612ec2565b60405180910390fd5b60018113156109ac576040517f08c379a00000000000000000000000000000000000000000000000000000000081526004016109a390612ec2565b60405180910390fd5b60045f9054906101000a900473ffffffffffffffffffffffffffffffffffffffff1673ffffffffffffffffffffffffffffffffffffffff16639f8a13d7336040518263ffffffff1660e01b8152600401610a069190612978565b602060405180830381865afa158015610a21573d5f803e3d5ffd5b505050506040513d601f19601f82011682018060405250810190610a459190612aef565b610a84576040517f08c379a0000000000000000000000000000000000000000000000000000000008152600401610a7b90612b64565b60405180910390fd5b5f5b60018481548110610a9a57610a99612b82565b5b905f5260205f200180549050811015610d15573373ffffffffffffffffffffffffffffffffffffffff1660018581548110610ad857610ad7612b82565b5b905f5260205f20018281548110610af257610af1612b82565b5b905f5260205f2090600302015f015f9054906101000a900473ffffffffffffffffffffffffffffffffffffffff1673ffffffffffffffffffffffffffffffffffffffff1603610d085760018481548110610b4f57610b4e612b82565b5b905f5260205f20018181548110610b6957610b68612b82565b5b905f5260205f2090600302016002015460028581548110610b8d57610b8c612b82565b5b905f5260205f200160018681548110610ba957610ba8612b82565b5b905f5260205f20018381548110610bc357610bc2612b82565b5b905f5260205f2090600302016001015481548110610be457610be3612b82565b5b905f5260205f2090600702016004015f828254610c019190612f0d565b9250508190555060028481548110610c1c57610c1b612b82565b5b905f5260205f200160018581548110610c3857610c37612b82565b5b905f5260205f20018281548110610c5257610c51612b82565b5b905f5260205f2090600302016001015481548110610c7357610c72612b82565b5b905f5260205f2090600702016005015f815480929190610c9290612f4d565b919050555060018481548110610cab57610caa612b82565b5b905f5260205f20018181548110610cc557610cc4612b82565b5b905f5260205f2090600302015f8082015f6101000a81549073ffffffffffffffffffffffffffffffffffffffff0219169055600182015f9055600282015f905550505b8080600101915050610a86565b505f60405180606001604052803373ffffffffffffffffffffffffffffffffffffffff16815260200184815260200183815250905060018481548110610d5e57610d5d612b82565b5b905f5260205f200181908060018154018082558091505060019003905f5260205f2090600302015f909190919091505f820151815f015f6101000a81548173ffffffffffffffffffffffffffffffffffffffff021916908373ffffffffffffffffffffffffffffffffffffffff160217905550602082015181600101556040820151816002015550508160028581548110610dfc57610dfb612b82565b5b905f5260205f20018481548110610e1657610e15612b82565b5b905f5260205f2090600702016004015f828254610e339190612f74565b9250508190555060028481548110610e4e57610e4d612b82565b5b905f5260205f20018381548110610e6857610e67612b82565b5b905f5260205f2090600702016005015f815480929190610e8790612fb5565b919050555050505050565b60605f5b60028381548110610eaa57610ea9612b82565b5b905f5260205f20018054905081101561104657610ec681611df8565b60028481548110610eda57610ed9612b82565b5b905f5260205f20018281548110610ef457610ef3612b82565b5b905f5260205f2090600702015f0160028581548110610f1657610f15612b82565b5b905f5260205f20018381548110610f3057610f2f612b82565b5b905f5260205f209060070201600101610f8560028781548110610f5657610f55612b82565b5b905f5260205f20018581548110610f7057610f6f612b82565b5b905f5260205f20906007020160060154611df8565b610fcb60028881548110610f9c57610f9b612b82565b5b905f5260205f20018681548110610fb657610fb5612b82565b5b905f5260205f20906007020160040154611ec2565b61101160028981548110610fe257610fe1612b82565b5b905f5260205f20018781548110610ffc57610ffb612b82565b5b905f5260205f20906007020160050154611df8565b876040516020016110289796959493929190613102565b60405160208183030381529060405291508080600101915050610e96565b50919050565b60045f9054906101000a900473ffffffffffffffffffffffffffffffffffffffff1673ffffffffffffffffffffffffffffffffffffffff16639f8a13d7336040518263ffffffff1660e01b81526004016110a69190612978565b602060405180830381865afa1580156110c1573d5f803e3d5ffd5b505050506040513d601f19601f820116820180604052508101906110e59190612aef565b611124576040517f08c379a000000000000000000000000000000000000000000000000000000000815260040161111b90612b64565b60405180910390fd5b5f6040518060e001604052806002878154811061114457611143612b82565b5b905f5260205f2001858154811061115e5761115d612b82565b5b905f5260205f2090600702015f01805461117790612bdc565b80601f01602080910402602001604051908101604052809291908181526020018280546111a390612bdc565b80156111ee5780601f106111c5576101008083540402835291602001916111ee565b820191905f5260205f20905b8154815290600101906020018083116111d157829003601f168201915b505050505081526020016002878154811061120c5761120b612b82565b5b905f5260205f2001858154811061122657611225612b82565b5b905f5260205f209060070201600101805461124090612bdc565b80601f016020809104026020016040519081016040528092919081815260200182805461126c90612bdc565b80156112b75780601f1061128e576101008083540402835291602001916112b7565b820191905f5260205f20905b81548152906001019060200180831161129a57829003601f168201915b50505050508152602001600287815481106112d5576112d4612b82565b5b905f5260205f200185815481106112ef576112ee612b82565b5b905f5260205f209060070201600201805480602002602001604051908101604052809291908181526020015f905b828210156113c5578382905f5260205f2001805461133a90612bdc565b80601f016020809104026020016040519081016040528092919081815260200182805461136690612bdc565b80156113b15780601f10611388576101008083540402835291602001916113b1565b820191905f5260205f20905b81548152906001019060200180831161139457829003601f168201915b50505050508152602001906001019061131d565b505050508152602001600287815481106113e2576113e1612b82565b5b905f5260205f200185815481106113fc576113fb612b82565b5b905f5260205f209060070201600301805480602002602001604051908101604052809291908181526020015f905b828210156114d2578382905f5260205f2001805461144790612bdc565b80601f016020809104026020016040519081016040528092919081815260200182805461147390612bdc565b80156114be5780601f10611495576101008083540402835291602001916114be565b820191905f5260205f20905b8154815290600101906020018083116114a157829003601f168201915b50505050508152602001906001019061142a565b5050505081526020015f81526020015f8152602001428152509050818160400151858151811061150557611504612b82565b5b60200260200101819052506002858154811061152457611523612b82565b5b905f5260205f200181908060018154018082558091505060019003905f5260205f2090600702015f909190919091505f820151815f0190816115669190612da9565b50602082015181600101908161157c9190612da9565b5060408201518160020190805190602001906115999291906120f6565b5060608201518160030190805190602001906115b69291906120f6565b506080820151816004015560a0820151816005015560c0820151816006015550505050505050565b60606115e982611df8565b600284815481106115fd576115fc612b82565b5b905f5260205f2001838154811061161757611616612b82565b5b905f5260205f2090600702015f016002858154811061163957611638612b82565b5b905f5260205f2001848154811061165357611652612b82565b5b905f5260205f209060070201600101604051602001611674939291906131c0565b60405160208183030381529060405290505f5b6002848154811061169b5761169a612b82565b5b905f5260205f200183815481106116b5576116b4612b82565b5b905f5260205f209060070201600201805490508110156117565781600285815481106116e4576116e3612b82565b5b905f5260205f200184815481106116fe576116fd612b82565b5b905f5260205f209060070201600201828154811061171f5761171e612b82565b5b905f5260205f200160405160200161173892919061320e565b60405160208183030381529060405291508080600101915050611687565b5092915050565b5f600280549050905090565b60605f5b6002848154811061178157611780612b82565b5b905f5260205f2001838154811061179b5761179a612b82565b5b905f5260205f2090600702016003018054905081101561183c57600284815481106117c9576117c8612b82565b5b905f5260205f200183815481106117e3576117e2612b82565b5b905f5260205f209060070201600301818154811061180457611803612b82565b5b905f5260205f20018260405160200161181e929190613240565b6040516020818303038152906040529150808060010191505061176d565b5092915050565b5f805f9054906101000a900473ffffffffffffffffffffffffffffffffffffffff16905090565b5f8054906101000a900473ffffffffffffffffffffffffffffffffffffffff1673ffffffffffffffffffffffffffffffffffffffff163373ffffffffffffffffffffffffffffffffffffffff16146118f7576040517f08c379a00000000000000000000000000000000000000000000000000000000081526004016118ee906132bc565b60405180910390fd5b8073ffffffffffffffffffffffffffffffffffffffff165f8054906101000a900473ffffffffffffffffffffffffffffffffffffffff1673ffffffffffffffffffffffffffffffffffffffff167f342827c97908e5e2f71151c08502a66d44b6f758e3ac2f1de95f02eb95f0a73560405160405180910390a3805f806101000a81548173ffffffffffffffffffffffffffffffffffffffff021916908373ffffffffffffffffffffffffffffffffffffffff16021790555050565b5f60045f9054906101000a900473ffffffffffffffffffffffffffffffffffffffff1673ffffffffffffffffffffffffffffffffffffffff16639f8a13d7336040518263ffffffff1660e01b8152600401611a0d9190612978565b602060405180830381865afa158015611a28573d5f803e3d5ffd5b505050506040513d601f19601f82011682018060405250810190611a4c9190612aef565b611a8b576040517f08c379a0000000000000000000000000000000000000000000000000000000008152600401611a8290612b64565b60405180910390fd5b600a845111611acf576040517f08c379a0000000000000000000000000000000000000000000000000000000008152600401611ac690613324565b60405180910390fd5b6004855111611b13576040517f08c379a0000000000000000000000000000000000000000000000000000000008152600401611b0a9061338c565b60405180910390fd5b5f6040518060e001604052808781526020018681526020018581526020018481526020015f81526020015f8152602001428152509050600260018160018154018082558091505003905f5260205f20505060026001600280549050611b7891906133aa565b81548110611b8957611b88612b82565b5b905f5260205f200181908060018154018082558091505060019003905f5260205f2090600702015f909190919091505f820151815f019081611bcb9190612da9565b506020820151816001019081611be19190612da9565b506040820151816002019080519060200190611bfe9291906120f6565b506060820151816003019080519060200190611c1b9291906120f6565b506080820151816004015560a0820151816005015560c08201518160060155505060035f815480929190611c4e90612fb5565b91905055506001808160018154018082558091505003905f5260205f2050506001600280549050611c7f91906133aa565b7ffe55c2349d62da6a9f59944b4bec1e721fb08faf486fb6758bded48f8a70ad1960405160405180910390a26001600280549050611cbd91906133aa565b915050949350505050565b60605f611cd483611ce8565b9050611ce083826115de565b915050919050565b5f805f90505f5b60028481548110611d0357611d02612b82565b5b905f5260205f200180549050811015611dd2575f80611da961271060028881548110611d3257611d31612b82565b5b905f5260205f20018581548110611d4c57611d4b612b82565b5b905f5260205f20906007020160040154611d6691906133dd565b60028881548110611d7a57611d79612b82565b5b905f5260205f20018581548110611d9457611d93612b82565b5b905f5260205f20906007020160050154611f4e565b91509150818015611dba5750838112155b15611dc3578294505b50508080600101915050611cef565b5050919050565b5f6a636f6e736f6c652e6c6f6790505f80835160208501845afa505050565b60605f6001611e0684611f81565b0190505f8167ffffffffffffffff811115611e2457611e2361225e565b5b6040519080825280601f01601f191660200182016040528015611e565781602001600182028036833780820191505090505b5090505f82602001820190505b600115611eb7578080600190039150507f3031323334353637383961626364656600000000000000000000000000000000600a86061a8153600a8581611eac57611eab613453565b5b0494505f8503611e63575b819350505050919050565b60605f8212611edf5760405180602001604052805f815250611f16565b6040518060400160405280600181526020017f2d000000000000000000000000000000000000000000000000000000000000008152505b611f27611f22846120d2565b611df8565b604051602001611f38929190613480565b6040516020818303038152906040529050919050565b5f805f8303611f62575f8091509150611f7a565b6001838581611f7457611f73613453565b5b05915091505b9250929050565b5f805f90507a184f03e93ff9f4daa797ed6e38ed64bf6a1f0100000000000000008310611fdd577a184f03e93ff9f4daa797ed6e38ed64bf6a1f0100000000000000008381611fd357611fd2613453565b5b0492506040810190505b6d04ee2d6d415b85acef8100000000831061201a576d04ee2d6d415b85acef810000000083816120105761200f613453565b5b0492506020810190505b662386f26fc10000831061204957662386f26fc10000838161203f5761203e613453565b5b0492506010810190505b6305f5e1008310612072576305f5e100838161206857612067613453565b5b0492506008810190505b612710831061209757612710838161208d5761208c613453565b5b0492506004810190505b606483106120ba57606483816120b0576120af613453565b5b0492506002810190505b600a83106120c9576001810190505b80915050919050565b5f808212156120e357815f036120e5565b815b9050919050565b6120f46134a3565b565b828054828255905f5260205f2090810192821561213c579160200282015b8281111561213b57825182908161212b9190612da9565b5091602001919060010190612114565b5b5090506121499190612187565b5090565b6040518060e00160405280606081526020016060815260200160608152602001606081526020015f81526020015f81526020015f81525090565b5b808211156121a6575f818161219d91906121aa565b50600101612188565b5090565b5080546121b690612bdc565b5f825580601f106121c757506121e4565b601f0160209004905f5260205f20908101906121e391906121e7565b5b50565b5b808211156121fe575f815f9055506001016121e8565b5090565b5f604051905090565b5f80fd5b5f80fd5b5f819050919050565b61222581612213565b811461222f575f80fd5b50565b5f813590506122408161221c565b92915050565b5f80fd5b5f80fd5b5f601f19601f8301169050919050565b7f4e487b71000000000000000000000000000000000000000000000000000000005f52604160045260245ffd5b6122948261224e565b810181811067ffffffffffffffff821117156122b3576122b261225e565b5b80604052505050565b5f6122c5612202565b90506122d1828261228b565b919050565b5f67ffffffffffffffff8211156122f0576122ef61225e565b5b6122f98261224e565b9050602081019050919050565b828183375f83830152505050565b5f612326612321846122d6565b6122bc565b9050828152602081018484840111156123425761234161224a565b5b61234d848285612306565b509392505050565b5f82601f83011261236957612368612246565b5b8135612379848260208601612314565b91505092915050565b5f67ffffffffffffffff82111561239c5761239b61225e565b5b602082029050602081019050919050565b5f80fd5b5f6123c36123be84612382565b6122bc565b905080838252602082019050602084028301858111156123e6576123e56123ad565b5b835b8181101561242d57803567ffffffffffffffff81111561240b5761240a612246565b5b8086016124188982612355565b855260208501945050506020810190506123e8565b5050509392505050565b5f82601f83011261244b5761244a612246565b5b813561245b8482602086016123b1565b91505092915050565b5f805f806080858703121561247c5761247b61220b565b5b5f61248987828801612232565b945050602085013567ffffffffffffffff8111156124aa576124a961220f565b5b6124b687828801612355565b935050604085013567ffffffffffffffff8111156124d7576124d661220f565b5b6124e387828801612437565b925050606085013567ffffffffffffffff8111156125045761250361220f565b5b61251087828801612437565b91505092959194509250565b5f80604083850312156125325761253161220b565b5b5f61253f85828601612232565b925050602061255085828601612232565b9150509250929050565b5f81519050919050565b5f82825260208201905092915050565b5f5b83811015612591578082015181840152602081019050612576565b5f8484015250505050565b5f6125a68261255a565b6125b08185612564565b93506125c0818560208601612574565b6125c98161224e565b840191505092915050565b5f81519050919050565b5f82825260208201905092915050565b5f819050602082019050919050565b5f612608838361259c565b905092915050565b5f602082019050919050565b5f612626826125d4565b61263081856125de565b935083602082028501612642856125ee565b805f5b8581101561267d578484038952815161265e85826125fd565b945061266983612610565b925060208a01995050600181019050612645565b50829750879550505050505092915050565b5f819050919050565b6126a18161268f565b82525050565b6126b081612213565b82525050565b5f60e083015f8301518482035f8601526126d0828261259c565b915050602083015184820360208601526126ea828261259c565b91505060408301518482036040860152612704828261261c565b9150506060830151848203606086015261271e828261261c565b91505060808301516127336080860182612698565b5060a083015161274660a08601826126a7565b5060c083015161275960c08601826126a7565b508091505092915050565b5f6020820190508181035f83015261277c81846126b6565b905092915050565b61278d8161268f565b8114612797575f80fd5b50565b5f813590506127a881612784565b92915050565b5f805f606084860312156127c5576127c461220b565b5b5f6127d286828701612232565b93505060206127e386828701612232565b92505060406127f48682870161279a565b9150509250925092565b5f602082840312156128135761281261220b565b5b5f61282084828501612232565b91505092915050565b5f82825260208201905092915050565b5f6128438261255a565b61284d8185612829565b935061285d818560208601612574565b6128668161224e565b840191505092915050565b5f6020820190508181035f8301526128898184612839565b905092915050565b5f805f80608085870312156128a9576128a861220b565b5b5f6128b687828801612232565b94505060206128c787828801612232565b93505060406128d887828801612232565b925050606085013567ffffffffffffffff8111156128f9576128f861220f565b5b61290587828801612355565b91505092959194509250565b61291a81612213565b82525050565b5f6020820190506129335f830184612911565b92915050565b5f73ffffffffffffffffffffffffffffffffffffffff82169050919050565b5f61296282612939565b9050919050565b61297281612958565b82525050565b5f60208201905061298b5f830184612969565b92915050565b61299a81612958565b81146129a4575f80fd5b50565b5f813590506129b581612991565b92915050565b5f602082840312156129d0576129cf61220b565b5b5f6129dd848285016129a7565b91505092915050565b5f805f80608085870312156129fe576129fd61220b565b5b5f85013567ffffffffffffffff811115612a1b57612a1a61220f565b5b612a2787828801612355565b945050602085013567ffffffffffffffff811115612a4857612a4761220f565b5b612a5487828801612355565b935050604085013567ffffffffffffffff811115612a7557612a7461220f565b5b612a8187828801612437565b925050606085013567ffffffffffffffff811115612aa257612aa161220f565b5b612aae87828801612437565b91505092959194509250565b5f8115159050919050565b612ace81612aba565b8114612ad8575f80fd5b50565b5f81519050612ae981612ac5565b92915050565b5f60208284031215612b0457612b0361220b565b5b5f612b1184828501612adb565b91505092915050565b7f4e4f545f415f434954495a454e000000000000000000000000000000000000005f82015250565b5f612b4e600d83612829565b9150612b5982612b1a565b602082019050919050565b5f6020820190508181035f830152612b7b81612b42565b9050919050565b7f4e487b71000000000000000000000000000000000000000000000000000000005f52603260045260245ffd5b7f4e487b71000000000000000000000000000000000000000000000000000000005f52602260045260245ffd5b5f6002820490506001821680612bf357607f821691505b602082108103612c0657612c05612baf565b5b50919050565b5f819050815f5260205f209050919050565b5f6020601f8301049050919050565b5f82821b905092915050565b5f60088302612c687fffffffffffffffffffffffffffffffffffffffffffffffffffffffffffffffff82612c2d565b612c728683612c2d565b95508019841693508086168417925050509392505050565b5f819050919050565b5f612cad612ca8612ca384612213565b612c8a565b612213565b9050919050565b5f819050919050565b612cc683612c93565b612cda612cd282612cb4565b848454612c39565b825550505050565b5f90565b612cee612ce2565b612cf9818484612cbd565b505050565b5b81811015612d1c57612d115f82612ce6565b600181019050612cff565b5050565b601f821115612d6157612d3281612c0c565b612d3b84612c1e565b81016020851015612d4a578190505b612d5e612d5685612c1e565b830182612cfe565b50505b505050565b5f82821c905092915050565b5f612d815f1984600802612d66565b1980831691505092915050565b5f612d998383612d72565b9150826002028217905092915050565b612db28261255a565b67ffffffffffffffff811115612dcb57612dca61225e565b5b612dd58254612bdc565b612de0828285612d20565b5f60209050601f831160018114612e11575f8415612dff578287015190505b612e098582612d8e565b865550612e70565b601f198416612e1f86612c0c565b5f5b82811015612e4657848901518255600182019150602085019450602081019050612e21565b86831015612e635784890151612e5f601f891682612d72565b8355505b6001600288020188555050505b505050505050565b7f496e76616c696420766f746500000000000000000000000000000000000000005f82015250565b5f612eac600c83612829565b9150612eb782612e78565b602082019050919050565b5f6020820190508181035f830152612ed981612ea0565b9050919050565b7f4e487b71000000000000000000000000000000000000000000000000000000005f52601160045260245ffd5b5f612f178261268f565b9150612f228361268f565b925082820390508181125f8412168282135f851215161715612f4757612f46612ee0565b5b92915050565b5f612f5782612213565b91505f8203612f6957612f68612ee0565b5b600182039050919050565b5f612f7e8261268f565b9150612f898361268f565b92508282019050828112155f8312168382125f841215161715612faf57612fae612ee0565b5b92915050565b5f612fbf82612213565b91507fffffffffffffffffffffffffffffffffffffffffffffffffffffffffffffffff8203612ff157612ff0612ee0565b5b600182019050919050565b5f81905092915050565b5f6130108261255a565b61301a8185612ffc565b935061302a818560208601612574565b80840191505092915050565b7f2300000000000000000000000000000000000000000000000000000000000000815250565b5f815461306881612bdc565b6130728186612ffc565b9450600182165f811461308c57600181146130a1576130d3565b60ff19831686528115158202860193506130d3565b6130aa85612c0c565b5f5b838110156130cb578154818901526001820191506020810190506130ac565b838801955050505b50505092915050565b7f7c00000000000000000000000000000000000000000000000000000000000000815250565b5f61310d828a613006565b915061311882613036565b600182019150613128828961305c565b915061313382613036565b600182019150613143828861305c565b915061314e82613036565b60018201915061315e8287613006565b915061316982613036565b6001820191506131798286613006565b915061318482613036565b6001820191506131948285613006565b915061319f826130dc565b6001820191506131af8284613006565b915081905098975050505050505050565b5f6131cb8286613006565b91506131d682613036565b6001820191506131e6828561305c565b91506131f182613036565b600182019150613201828461305c565b9150819050949350505050565b5f6132198285613006565b915061322482613036565b600182019150613234828461305c565b91508190509392505050565b5f61324b828561305c565b915061325682613036565b6001820191506132668284613006565b91508190509392505050565b7f43616c6c6572206973206e6f74206f776e6572000000000000000000000000005f82015250565b5f6132a6601383612829565b91506132b182613272565b602082019050919050565b5f6020820190508181035f8301526132d38161329a565b9050919050565b7f5465787420746f20736d616c6c000000000000000000000000000000000000005f82015250565b5f61330e600d83612829565b9150613319826132da565b602082019050919050565b5f6020820190508181035f83015261333b81613302565b9050919050565b7f5465787420746f6f20736d616c6c0000000000000000000000000000000000005f82015250565b5f613376600e83612829565b915061338182613342565b602082019050919050565b5f6020820190508181035f8301526133a38161336a565b9050919050565b5f6133b482612213565b91506133bf83612213565b92508282039050818111156133d7576133d6612ee0565b5b92915050565b5f6133e78261268f565b91506133f28361268f565b92508282026134008161268f565b91507f800000000000000000000000000000000000000000000000000000000000000084145f8412161561343757613436612ee0565b5b828205841483151761344c5761344b612ee0565b5b5092915050565b7f4e487b71000000000000000000000000000000000000000000000000000000005f52601260045260245ffd5b5f61348b8285613006565b91506134978284613006565b91508190509392505050565b7f4e487b71000000000000000000000000000000000000000000000000000000005f52605160045260245ffdfea26469706673582212206579df5bd8b7405d1f244feee318404f0d649b5260d858328e8e101680a00d7d64736f6c634300081a0033",
			"opcodes": "PUSH1 0x80 PUSH1 0x40 MSTORE PUSH0 PUSH1 0x3 SSTORE CALLVALUE DUP1 ISZERO PUSH2 0x13 JUMPI PUSH0 DUP1 REVERT JUMPDEST POP PUSH1 0x40 MLOAD PUSH2 0x395D CODESIZE SUB DUP1 PUSH2 0x395D DUP4 CODECOPY DUP2 DUP2 ADD PUSH1 0x40 MSTORE DUP2 ADD SWAP1 PUSH2 0x35 SWAP2 SWAP1 PUSH2 0x318 JUMP JUMPDEST PUSH2 0x7A PUSH1 0x40 MLOAD DUP1 PUSH1 0x40 ADD PUSH1 0x40 MSTORE DUP1 PUSH1 0x1B DUP2 MSTORE PUSH1 0x20 ADD PUSH32 0x4F776E657220636F6E7472616374206465706C6F7965642062793A0000000000 DUP2 MSTORE POP CALLER PUSH2 0x1B9 PUSH1 0x20 SHL PUSH1 0x20 SHR JUMP JUMPDEST CALLER PUSH0 DUP1 PUSH2 0x100 EXP DUP2 SLOAD DUP2 PUSH20 0xFFFFFFFFFFFFFFFFFFFFFFFFFFFFFFFFFFFFFFFF MUL NOT AND SWAP1 DUP4 PUSH20 0xFFFFFFFFFFFFFFFFFFFFFFFFFFFFFFFFFFFFFFFF AND MUL OR SWAP1 SSTORE POP PUSH0 DUP1 SLOAD SWAP1 PUSH2 0x100 EXP SWAP1 DIV PUSH20 0xFFFFFFFFFFFFFFFFFFFFFFFFFFFFFFFFFFFFFFFF AND PUSH20 0xFFFFFFFFFFFFFFFFFFFFFFFFFFFFFFFFFFFFFFFF AND PUSH0 PUSH20 0xFFFFFFFFFFFFFFFFFFFFFFFFFFFFFFFFFFFFFFFF AND PUSH32 0x342827C97908E5E2F71151C08502A66D44B6F758E3AC2F1DE95F02EB95F0A735 PUSH1 0x40 MLOAD PUSH1 0x40 MLOAD DUP1 SWAP2 SUB SWAP1 LOG3 DUP2 PUSH1 0x4 PUSH0 PUSH2 0x100 EXP DUP2 SLOAD DUP2 PUSH20 0xFFFFFFFFFFFFFFFFFFFFFFFFFFFFFFFFFFFFFFFF MUL NOT AND SWAP1 DUP4 PUSH20 0xFFFFFFFFFFFFFFFFFFFFFFFFFFFFFFFFFFFFFFFF AND MUL OR SWAP1 SSTORE POP DUP1 PUSH1 0x5 PUSH0 PUSH2 0x100 EXP DUP2 SLOAD DUP2 PUSH20 0xFFFFFFFFFFFFFFFFFFFFFFFFFFFFFFFFFFFFFFFF MUL NOT AND SWAP1 DUP4 PUSH20 0xFFFFFFFFFFFFFFFFFFFFFFFFFFFFFFFFFFFFFFFF AND MUL OR SWAP1 SSTORE POP POP POP PUSH2 0x44A JUMP JUMPDEST PUSH2 0x257 DUP3 DUP3 PUSH1 0x40 MLOAD PUSH1 0x24 ADD PUSH2 0x1CF SWAP3 SWAP2 SWAP1 PUSH2 0x3EF JUMP JUMPDEST PUSH1 0x40 MLOAD PUSH1 0x20 DUP2 DUP4 SUB SUB DUP2 MSTORE SWAP1 PUSH1 0x40 MSTORE PUSH32 0x319AF33300000000000000000000000000000000000000000000000000000000 PUSH28 0xFFFFFFFFFFFFFFFFFFFFFFFFFFFFFFFFFFFFFFFFFFFFFFFFFFFFFFFF NOT AND PUSH1 0x20 DUP3 ADD DUP1 MLOAD PUSH28 0xFFFFFFFFFFFFFFFFFFFFFFFFFFFFFFFFFFFFFFFFFFFFFFFFFFFFFFFF DUP4 DUP2 DUP4 AND OR DUP4 MSTORE POP POP POP POP PUSH2 0x25B PUSH1 0x20 SHL PUSH1 0x20 SHR JUMP JUMPDEST POP POP JUMP JUMPDEST PUSH2 0x27C DUP2 PUSH2 0x277 PUSH2 0x27F PUSH1 0x20 SHL PUSH2 0x1DD9 OR PUSH2 0x29E PUSH1 0x20 SHL PUSH1 0x20 SHR JUMP JUMPDEST PUSH1 0x20 SHR JUMP JUMPDEST POP JUMP JUMPDEST PUSH0 PUSH11 0x636F6E736F6C652E6C6F67 SWAP1 POP PUSH0 DUP1 DUP4 MLOAD PUSH1 0x20 DUP6 ADD DUP5 GAS STATICCALL POP POP POP JUMP JUMPDEST PUSH2 0x2B0 PUSH1 0x20 SHL PUSH2 0x20EC OR DUP2 SWAP1 POP SWAP2 SWAP1 POP JUMP JUMPDEST PUSH2 0x2B8 PUSH2 0x41D JUMP JUMPDEST JUMP JUMPDEST PUSH0 DUP1 REVERT JUMPDEST PUSH0 PUSH20 0xFFFFFFFFFFFFFFFFFFFFFFFFFFFFFFFFFFFFFFFF DUP3 AND SWAP1 POP SWAP2 SWAP1 POP JUMP JUMPDEST PUSH0 PUSH2 0x2E7 DUP3 PUSH2 0x2BE JUMP JUMPDEST SWAP1 POP SWAP2 SWAP1 POP JUMP JUMPDEST PUSH2 0x2F7 DUP2 PUSH2 0x2DD JUMP JUMPDEST DUP2 EQ PUSH2 0x301 JUMPI PUSH0 DUP1 REVERT JUMPDEST POP JUMP JUMPDEST PUSH0 DUP2 MLOAD SWAP1 POP PUSH2 0x312 DUP2 PUSH2 0x2EE JUMP JUMPDEST SWAP3 SWAP2 POP POP JUMP JUMPDEST PUSH0 DUP1 PUSH1 0x40 DUP4 DUP6 SUB SLT ISZERO PUSH2 0x32E JUMPI PUSH2 0x32D PUSH2 0x2BA JUMP JUMPDEST JUMPDEST PUSH0 PUSH2 0x33B DUP6 DUP3 DUP7 ADD PUSH2 0x304 JUMP JUMPDEST SWAP3 POP POP PUSH1 0x20 PUSH2 0x34C DUP6 DUP3 DUP7 ADD PUSH2 0x304 JUMP JUMPDEST SWAP2 POP POP SWAP3 POP SWAP3 SWAP1 POP JUMP JUMPDEST PUSH0 DUP2 MLOAD SWAP1 POP SWAP2 SWAP1 POP JUMP JUMPDEST PUSH0 DUP3 DUP3 MSTORE PUSH1 0x20 DUP3 ADD SWAP1 POP SWAP3 SWAP2 POP POP JUMP JUMPDEST PUSH0 JUMPDEST DUP4 DUP2 LT ISZERO PUSH2 0x38D JUMPI DUP1 DUP3 ADD MLOAD DUP2 DUP5 ADD MSTORE PUSH1 0x20 DUP2 ADD SWAP1 POP PUSH2 0x372 JUMP JUMPDEST PUSH0 DUP5 DUP5 ADD MSTORE POP POP POP POP JUMP JUMPDEST PUSH0 PUSH1 0x1F NOT PUSH1 0x1F DUP4 ADD AND SWAP1 POP SWAP2 SWAP1 POP JUMP JUMPDEST PUSH0 PUSH2 0x3B2 DUP3 PUSH2 0x356 JUMP JUMPDEST PUSH2 0x3BC DUP2 DUP6 PUSH2 0x360 JUMP JUMPDEST SWAP4 POP PUSH2 0x3CC DUP2 DUP6 PUSH1 0x20 DUP7 ADD PUSH2 0x370 JUMP JUMPDEST PUSH2 0x3D5 DUP2 PUSH2 0x398 JUMP JUMPDEST DUP5 ADD SWAP2 POP POP SWAP3 SWAP2 POP POP JUMP JUMPDEST PUSH2 0x3E9 DUP2 PUSH2 0x2DD JUMP JUMPDEST DUP3 MSTORE POP POP JUMP JUMPDEST PUSH0 PUSH1 0x40 DUP3 ADD SWAP1 POP DUP2 DUP2 SUB PUSH0 DUP4 ADD MSTORE PUSH2 0x407 DUP2 DUP6 PUSH2 0x3A8 JUMP JUMPDEST SWAP1 POP PUSH2 0x416 PUSH1 0x20 DUP4 ADD DUP5 PUSH2 0x3E0 JUMP JUMPDEST SWAP4 SWAP3 POP POP POP JUMP JUMPDEST PUSH32 0x4E487B7100000000000000000000000000000000000000000000000000000000 PUSH0 MSTORE PUSH1 0x51 PUSH1 0x4 MSTORE PUSH1 0x24 PUSH0 REVERT JUMPDEST PUSH2 0x3506 DUP1 PUSH2 0x457 PUSH0 CODECOPY PUSH0 RETURN INVALID PUSH1 0x80 PUSH1 0x40 MSTORE PUSH1 0x4 CALLDATASIZE LT PUSH2 0xC1 JUMPI PUSH0 CALLDATALOAD PUSH1 0xE0 SHR DUP1 PUSH4 0x6475F4FE GT PUSH2 0x7E JUMPI DUP1 PUSH4 0xA6F9DAE1 GT PUSH2 0x58 JUMPI DUP1 PUSH4 0xA6F9DAE1 EQ PUSH2 0x25D JUMPI DUP1 PUSH4 0xC1C1A377 EQ PUSH2 0x285 JUMPI DUP1 PUSH4 0xC3B53BA4 EQ PUSH2 0x2B5 JUMPI DUP1 PUSH4 0xE715463C EQ PUSH2 0x2F1 JUMPI PUSH2 0xC1 JUMP JUMPDEST DUP1 PUSH4 0x6475F4FE EQ PUSH2 0x1CD JUMPI DUP1 PUSH4 0x8349166F EQ PUSH2 0x1F7 JUMPI DUP1 PUSH4 0x893D20E8 EQ PUSH2 0x233 JUMPI PUSH2 0xC1 JUMP JUMPDEST DUP1 PUSH4 0x1D31245C EQ PUSH2 0xC5 JUMPI DUP1 PUSH4 0x1F88E5A9 EQ PUSH2 0xE1 JUMPI DUP1 PUSH4 0x20B7C317 EQ PUSH2 0x11D JUMPI DUP1 PUSH4 0x3EC559C6 EQ PUSH2 0x139 JUMPI DUP1 PUSH4 0x4CEF38F9 EQ PUSH2 0x175 JUMPI DUP1 PUSH4 0x6192E3E8 EQ PUSH2 0x191 JUMPI JUMPDEST PUSH0 DUP1 REVERT JUMPDEST PUSH2 0xDF PUSH1 0x4 DUP1 CALLDATASIZE SUB DUP2 ADD SWAP1 PUSH2 0xDA SWAP2 SWAP1 PUSH2 0x2464 JUMP JUMPDEST PUSH2 0x32D JUMP JUMPDEST STOP JUMPDEST CALLVALUE DUP1 ISZERO PUSH2 0xEC JUMPI PUSH0 DUP1 REVERT JUMPDEST POP PUSH2 0x107 PUSH1 0x4 DUP1 CALLDATASIZE SUB DUP2 ADD SWAP1 PUSH2 0x102 SWAP2 SWAP1 PUSH2 0x251C JUMP JUMPDEST PUSH2 0x5CB JUMP JUMPDEST PUSH1 0x40 MLOAD PUSH2 0x114 SWAP2 SWAP1 PUSH2 0x2764 JUMP JUMPDEST PUSH1 0x40 MLOAD DUP1 SWAP2 SUB SWAP1 RETURN JUMPDEST PUSH2 0x137 PUSH1 0x4 DUP1 CALLDATASIZE SUB DUP2 ADD SWAP1 PUSH2 0x132 SWAP2 SWAP1 PUSH2 0x27AE JUMP JUMPDEST PUSH2 0x905 JUMP JUMPDEST STOP JUMPDEST CALLVALUE DUP1 ISZERO PUSH2 0x144 JUMPI PUSH0 DUP1 REVERT JUMPDEST POP PUSH2 0x15F PUSH1 0x4 DUP1 CALLDATASIZE SUB DUP2 ADD SWAP1 PUSH2 0x15A SWAP2 SWAP1 PUSH2 0x27FE JUMP JUMPDEST PUSH2 0xE92 JUMP JUMPDEST PUSH1 0x40 MLOAD PUSH2 0x16C SWAP2 SWAP1 PUSH2 0x2871 JUMP JUMPDEST PUSH1 0x40 MLOAD DUP1 SWAP2 SUB SWAP1 RETURN JUMPDEST PUSH2 0x18F PUSH1 0x4 DUP1 CALLDATASIZE SUB DUP2 ADD SWAP1 PUSH2 0x18A SWAP2 SWAP1 PUSH2 0x2891 JUMP JUMPDEST PUSH2 0x104C JUMP JUMPDEST STOP JUMPDEST CALLVALUE DUP1 ISZERO PUSH2 0x19C JUMPI PUSH0 DUP1 REVERT JUMPDEST POP PUSH2 0x1B7 PUSH1 0x4 DUP1 CALLDATASIZE SUB DUP2 ADD SWAP1 PUSH2 0x1B2 SWAP2 SWAP1 PUSH2 0x251C JUMP JUMPDEST PUSH2 0x15DE JUMP JUMPDEST PUSH1 0x40 MLOAD PUSH2 0x1C4 SWAP2 SWAP1 PUSH2 0x2871 JUMP JUMPDEST PUSH1 0x40 MLOAD DUP1 SWAP2 SUB SWAP1 RETURN JUMPDEST CALLVALUE DUP1 ISZERO PUSH2 0x1D8 JUMPI PUSH0 DUP1 REVERT JUMPDEST POP PUSH2 0x1E1 PUSH2 0x175D JUMP JUMPDEST PUSH1 0x40 MLOAD PUSH2 0x1EE SWAP2 SWAP1 PUSH2 0x2920 JUMP JUMPDEST PUSH1 0x40 MLOAD DUP1 SWAP2 SUB SWAP1 RETURN JUMPDEST CALLVALUE DUP1 ISZERO PUSH2 0x202 JUMPI PUSH0 DUP1 REVERT JUMPDEST POP PUSH2 0x21D PUSH1 0x4 DUP1 CALLDATASIZE SUB DUP2 ADD SWAP1 PUSH2 0x218 SWAP2 SWAP1 PUSH2 0x251C JUMP JUMPDEST PUSH2 0x1769 JUMP JUMPDEST PUSH1 0x40 MLOAD PUSH2 0x22A SWAP2 SWAP1 PUSH2 0x2871 JUMP JUMPDEST PUSH1 0x40 MLOAD DUP1 SWAP2 SUB SWAP1 RETURN JUMPDEST CALLVALUE DUP1 ISZERO PUSH2 0x23E JUMPI PUSH0 DUP1 REVERT JUMPDEST POP PUSH2 0x247 PUSH2 0x1843 JUMP JUMPDEST PUSH1 0x40 MLOAD PUSH2 0x254 SWAP2 SWAP1 PUSH2 0x2978 JUMP JUMPDEST PUSH1 0x40 MLOAD DUP1 SWAP2 SUB SWAP1 RETURN JUMPDEST CALLVALUE DUP1 ISZERO PUSH2 0x268 JUMPI PUSH0 DUP1 REVERT JUMPDEST POP PUSH2 0x283 PUSH1 0x4 DUP1 CALLDATASIZE SUB DUP2 ADD SWAP1 PUSH2 0x27E SWAP2 SWAP1 PUSH2 0x29BB JUMP JUMPDEST PUSH2 0x186A JUMP JUMPDEST STOP JUMPDEST PUSH2 0x29F PUSH1 0x4 DUP1 CALLDATASIZE SUB DUP2 ADD SWAP1 PUSH2 0x29A SWAP2 SWAP1 PUSH2 0x29E6 JUMP JUMPDEST PUSH2 0x19B2 JUMP JUMPDEST PUSH1 0x40 MLOAD PUSH2 0x2AC SWAP2 SWAP1 PUSH2 0x2920 JUMP JUMPDEST PUSH1 0x40 MLOAD DUP1 SWAP2 SUB SWAP1 RETURN JUMPDEST CALLVALUE DUP1 ISZERO PUSH2 0x2C0 JUMPI PUSH0 DUP1 REVERT JUMPDEST POP PUSH2 0x2DB PUSH1 0x4 DUP1 CALLDATASIZE SUB DUP2 ADD SWAP1 PUSH2 0x2D6 SWAP2 SWAP1 PUSH2 0x27FE JUMP JUMPDEST PUSH2 0x1CC8 JUMP JUMPDEST PUSH1 0x40 MLOAD PUSH2 0x2E8 SWAP2 SWAP1 PUSH2 0x2871 JUMP JUMPDEST PUSH1 0x40 MLOAD DUP1 SWAP2 SUB SWAP1 RETURN JUMPDEST CALLVALUE DUP1 ISZERO PUSH2 0x2FC JUMPI PUSH0 DUP1 REVERT JUMPDEST POP PUSH2 0x317 PUSH1 0x4 DUP1 CALLDATASIZE SUB DUP2 ADD SWAP1 PUSH2 0x312 SWAP2 SWAP1 PUSH2 0x27FE JUMP JUMPDEST PUSH2 0x1CE8 JUMP JUMPDEST PUSH1 0x40 MLOAD PUSH2 0x324 SWAP2 SWAP1 PUSH2 0x2920 JUMP JUMPDEST PUSH1 0x40 MLOAD DUP1 SWAP2 SUB SWAP1 RETURN JUMPDEST PUSH1 0x4 PUSH0 SWAP1 SLOAD SWAP1 PUSH2 0x100 EXP SWAP1 DIV PUSH20 0xFFFFFFFFFFFFFFFFFFFFFFFFFFFFFFFFFFFFFFFF AND PUSH20 0xFFFFFFFFFFFFFFFFFFFFFFFFFFFFFFFFFFFFFFFF AND PUSH4 0x9F8A13D7 CALLER PUSH1 0x40 MLOAD DUP3 PUSH4 0xFFFFFFFF AND PUSH1 0xE0 SHL DUP2 MSTORE PUSH1 0x4 ADD PUSH2 0x387 SWAP2 SWAP1 PUSH2 0x2978 JUMP JUMPDEST PUSH1 0x20 PUSH1 0x40 MLOAD DUP1 DUP4 SUB DUP2 DUP7 GAS STATICCALL ISZERO DUP1 ISZERO PUSH2 0x3A2 JUMPI RETURNDATASIZE PUSH0 DUP1 RETURNDATACOPY RETURNDATASIZE PUSH0 REVERT JUMPDEST POP POP POP POP PUSH1 0x40 MLOAD RETURNDATASIZE PUSH1 0x1F NOT PUSH1 0x1F DUP3 ADD AND DUP3 ADD DUP1 PUSH1 0x40 MSTORE POP DUP2 ADD SWAP1 PUSH2 0x3C6 SWAP2 SWAP1 PUSH2 0x2AEF JUMP JUMPDEST PUSH2 0x405 JUMPI PUSH1 0x40 MLOAD PUSH32 0x8C379A000000000000000000000000000000000000000000000000000000000 DUP2 MSTORE PUSH1 0x4 ADD PUSH2 0x3FC SWAP1 PUSH2 0x2B64 JUMP JUMPDEST PUSH1 0x40 MLOAD DUP1 SWAP2 SUB SWAP1 REVERT JUMPDEST PUSH0 PUSH1 0x40 MLOAD DUP1 PUSH1 0xE0 ADD PUSH1 0x40 MSTORE DUP1 PUSH1 0x2 DUP8 DUP2 SLOAD DUP2 LT PUSH2 0x425 JUMPI PUSH2 0x424 PUSH2 0x2B82 JUMP JUMPDEST JUMPDEST SWAP1 PUSH0 MSTORE PUSH1 0x20 PUSH0 KECCAK256 ADD PUSH0 DUP2 SLOAD DUP2 LT PUSH2 0x43F JUMPI PUSH2 0x43E PUSH2 0x2B82 JUMP JUMPDEST JUMPDEST SWAP1 PUSH0 MSTORE PUSH1 0x20 PUSH0 KECCAK256 SWAP1 PUSH1 0x7 MUL ADD PUSH0 ADD DUP1 SLOAD PUSH2 0x458 SWAP1 PUSH2 0x2BDC JUMP JUMPDEST DUP1 PUSH1 0x1F ADD PUSH1 0x20 DUP1 SWAP2 DIV MUL PUSH1 0x20 ADD PUSH1 0x40 MLOAD SWAP1 DUP2 ADD PUSH1 0x40 MSTORE DUP1 SWAP3 SWAP2 SWAP1 DUP2 DUP2 MSTORE PUSH1 0x20 ADD DUP3 DUP1 SLOAD PUSH2 0x484 SWAP1 PUSH2 0x2BDC JUMP JUMPDEST DUP1 ISZERO PUSH2 0x4CF JUMPI DUP1 PUSH1 0x1F LT PUSH2 0x4A6 JUMPI PUSH2 0x100 DUP1 DUP4 SLOAD DIV MUL DUP4 MSTORE SWAP2 PUSH1 0x20 ADD SWAP2 PUSH2 0x4CF JUMP JUMPDEST DUP3 ADD SWAP2 SWAP1 PUSH0 MSTORE PUSH1 0x20 PUSH0 KECCAK256 SWAP1 JUMPDEST DUP2 SLOAD DUP2 MSTORE SWAP1 PUSH1 0x1 ADD SWAP1 PUSH1 0x20 ADD DUP1 DUP4 GT PUSH2 0x4B2 JUMPI DUP3 SWAP1 SUB PUSH1 0x1F AND DUP3 ADD SWAP2 JUMPDEST POP POP POP POP POP DUP2 MSTORE PUSH1 0x20 ADD DUP6 DUP2 MSTORE PUSH1 0x20 ADD DUP5 DUP2 MSTORE PUSH1 0x20 ADD DUP4 DUP2 MSTORE PUSH1 0x20 ADD PUSH0 DUP2 MSTORE PUSH1 0x20 ADD PUSH0 DUP2 MSTORE PUSH1 0x20 ADD TIMESTAMP DUP2 MSTORE POP SWAP1 POP PUSH1 0x2 DUP6 DUP2 SLOAD DUP2 LT PUSH2 0x511 JUMPI PUSH2 0x510 PUSH2 0x2B82 JUMP JUMPDEST JUMPDEST SWAP1 PUSH0 MSTORE PUSH1 0x20 PUSH0 KECCAK256 ADD DUP2 SWAP1 DUP1 PUSH1 0x1 DUP2 SLOAD ADD DUP1 DUP3 SSTORE DUP1 SWAP2 POP POP PUSH1 0x1 SWAP1 SUB SWAP1 PUSH0 MSTORE PUSH1 0x20 PUSH0 KECCAK256 SWAP1 PUSH1 0x7 MUL ADD PUSH0 SWAP1 SWAP2 SWAP1 SWAP2 SWAP1 SWAP2 POP PUSH0 DUP3 ADD MLOAD DUP2 PUSH0 ADD SWAP1 DUP2 PUSH2 0x553 SWAP2 SWAP1 PUSH2 0x2DA9 JUMP JUMPDEST POP PUSH1 0x20 DUP3 ADD MLOAD DUP2 PUSH1 0x1 ADD SWAP1 DUP2 PUSH2 0x569 SWAP2 SWAP1 PUSH2 0x2DA9 JUMP JUMPDEST POP PUSH1 0x40 DUP3 ADD MLOAD DUP2 PUSH1 0x2 ADD SWAP1 DUP1 MLOAD SWAP1 PUSH1 0x20 ADD SWAP1 PUSH2 0x586 SWAP3 SWAP2 SWAP1 PUSH2 0x20F6 JUMP JUMPDEST POP PUSH1 0x60 DUP3 ADD MLOAD DUP2 PUSH1 0x3 ADD SWAP1 DUP1 MLOAD SWAP1 PUSH1 0x20 ADD SWAP1 PUSH2 0x5A3 SWAP3 SWAP2 SWAP1 PUSH2 0x20F6 JUMP JUMPDEST POP PUSH1 0x80 DUP3 ADD MLOAD DUP2 PUSH1 0x4 ADD SSTORE PUSH1 0xA0 DUP3 ADD MLOAD DUP2 PUSH1 0x5 ADD SSTORE PUSH1 0xC0 DUP3 ADD MLOAD DUP2 PUSH1 0x6 ADD SSTORE POP POP POP POP POP POP POP JUMP JUMPDEST PUSH2 0x5D3 PUSH2 0x214D JUMP JUMPDEST PUSH1 0x2 DUP4 DUP2 SLOAD DUP2 LT PUSH2 0x5E7 JUMPI PUSH2 0x5E6 PUSH2 0x2B82 JUMP JUMPDEST JUMPDEST SWAP1 PUSH0 MSTORE PUSH1 0x20 PUSH0 KECCAK256 ADD DUP3 DUP2 SLOAD DUP2 LT PUSH2 0x601 JUMPI PUSH2 0x600 PUSH2 0x2B82 JUMP JUMPDEST JUMPDEST SWAP1 PUSH0 MSTORE PUSH1 0x20 PUSH0 KECCAK256 SWAP1 PUSH1 0x7 MUL ADD PUSH1 0x40 MLOAD DUP1 PUSH1 0xE0 ADD PUSH1 0x40 MSTORE SWAP1 DUP2 PUSH0 DUP3 ADD DUP1 SLOAD PUSH2 0x627 SWAP1 PUSH2 0x2BDC JUMP JUMPDEST DUP1 PUSH1 0x1F ADD PUSH1 0x20 DUP1 SWAP2 DIV MUL PUSH1 0x20 ADD PUSH1 0x40 MLOAD SWAP1 DUP2 ADD PUSH1 0x40 MSTORE DUP1 SWAP3 SWAP2 SWAP1 DUP2 DUP2 MSTORE PUSH1 0x20 ADD DUP3 DUP1 SLOAD PUSH2 0x653 SWAP1 PUSH2 0x2BDC JUMP JUMPDEST DUP1 ISZERO PUSH2 0x69E JUMPI DUP1 PUSH1 0x1F LT PUSH2 0x675 JUMPI PUSH2 0x100 DUP1 DUP4 SLOAD DIV MUL DUP4 MSTORE SWAP2 PUSH1 0x20 ADD SWAP2 PUSH2 0x69E JUMP JUMPDEST DUP3 ADD SWAP2 SWAP1 PUSH0 MSTORE PUSH1 0x20 PUSH0 KECCAK256 SWAP1 JUMPDEST DUP2 SLOAD DUP2 MSTORE SWAP1 PUSH1 0x1 ADD SWAP1 PUSH1 0x20 ADD DUP1 DUP4 GT PUSH2 0x681 JUMPI DUP3 SWAP1 SUB PUSH1 0x1F AND DUP3 ADD SWAP2 JUMPDEST POP POP POP POP POP DUP2 MSTORE PUSH1 0x20 ADD PUSH1 0x1 DUP3 ADD DUP1 SLOAD PUSH2 0x6B7 SWAP1 PUSH2 0x2BDC JUMP JUMPDEST DUP1 PUSH1 0x1F ADD PUSH1 0x20 DUP1 SWAP2 DIV MUL PUSH1 0x20 ADD PUSH1 0x40 MLOAD SWAP1 DUP2 ADD PUSH1 0x40 MSTORE DUP1 SWAP3 SWAP2 SWAP1 DUP2 DUP2 MSTORE PUSH1 0x20 ADD DUP3 DUP1 SLOAD PUSH2 0x6E3 SWAP1 PUSH2 0x2BDC JUMP JUMPDEST DUP1 ISZERO PUSH2 0x72E JUMPI DUP1 PUSH1 0x1F LT PUSH2 0x705 JUMPI PUSH2 0x100 DUP1 DUP4 SLOAD DIV MUL DUP4 MSTORE SWAP2 PUSH1 0x20 ADD SWAP2 PUSH2 0x72E JUMP JUMPDEST DUP3 ADD SWAP2 SWAP1 PUSH0 MSTORE PUSH1 0x20 PUSH0 KECCAK256 SWAP1 JUMPDEST DUP2 SLOAD DUP2 MSTORE SWAP1 PUSH1 0x1 ADD SWAP1 PUSH1 0x20 ADD DUP1 DUP4 GT PUSH2 0x711 JUMPI DUP3 SWAP1 SUB PUSH1 0x1F AND DUP3 ADD SWAP2 JUMPDEST POP POP POP POP POP DUP2 MSTORE PUSH1 0x20 ADD PUSH1 0x2 DUP3 ADD DUP1 SLOAD DUP1 PUSH1 0x20 MUL PUSH1 0x20 ADD PUSH1 0x40 MLOAD SWAP1 DUP2 ADD PUSH1 0x40 MSTORE DUP1 SWAP3 SWAP2 SWAP1 DUP2 DUP2 MSTORE PUSH1 0x20 ADD PUSH0 SWAP1 JUMPDEST DUP3 DUP3 LT ISZERO PUSH2 0x803 JUMPI DUP4 DUP3 SWAP1 PUSH0 MSTORE PUSH1 0x20 PUSH0 KECCAK256 ADD DUP1 SLOAD PUSH2 0x778 SWAP1 PUSH2 0x2BDC JUMP JUMPDEST DUP1 PUSH1 0x1F ADD PUSH1 0x20 DUP1 SWAP2 DIV MUL PUSH1 0x20 ADD PUSH1 0x40 MLOAD SWAP1 DUP2 ADD PUSH1 0x40 MSTORE DUP1 SWAP3 SWAP2 SWAP1 DUP2 DUP2 MSTORE PUSH1 0x20 ADD DUP3 DUP1 SLOAD PUSH2 0x7A4 SWAP1 PUSH2 0x2BDC JUMP JUMPDEST DUP1 ISZERO PUSH2 0x7EF JUMPI DUP1 PUSH1 0x1F LT PUSH2 0x7C6 JUMPI PUSH2 0x100 DUP1 DUP4 SLOAD DIV MUL DUP4 MSTORE SWAP2 PUSH1 0x20 ADD SWAP2 PUSH2 0x7EF JUMP JUMPDEST DUP3 ADD SWAP2 SWAP1 PUSH0 MSTORE PUSH1 0x20 PUSH0 KECCAK256 SWAP1 JUMPDEST DUP2 SLOAD DUP2 MSTORE SWAP1 PUSH1 0x1 ADD SWAP1 PUSH1 0x20 ADD DUP1 DUP4 GT PUSH2 0x7D2 JUMPI DUP3 SWAP1 SUB PUSH1 0x1F AND DUP3 ADD SWAP2 JUMPDEST POP POP POP POP POP DUP2 MSTORE PUSH1 0x20 ADD SWAP1 PUSH1 0x1 ADD SWAP1 PUSH2 0x75B JUMP JUMPDEST POP POP POP POP DUP2 MSTORE PUSH1 0x20 ADD PUSH1 0x3 DUP3 ADD DUP1 SLOAD DUP1 PUSH1 0x20 MUL PUSH1 0x20 ADD PUSH1 0x40 MLOAD SWAP1 DUP2 ADD PUSH1 0x40 MSTORE DUP1 SWAP3 SWAP2 SWAP1 DUP2 DUP2 MSTORE PUSH1 0x20 ADD PUSH0 SWAP1 JUMPDEST DUP3 DUP3 LT ISZERO PUSH2 0x8D7 JUMPI DUP4 DUP3 SWAP1 PUSH0 MSTORE PUSH1 0x20 PUSH0 KECCAK256 ADD DUP1 SLOAD PUSH2 0x84C SWAP1 PUSH2 0x2BDC JUMP JUMPDEST DUP1 PUSH1 0x1F ADD PUSH1 0x20 DUP1 SWAP2 DIV MUL PUSH1 0x20 ADD PUSH1 0x40 MLOAD SWAP1 DUP2 ADD PUSH1 0x40 MSTORE DUP1 SWAP3 SWAP2 SWAP1 DUP2 DUP2 MSTORE PUSH1 0x20 ADD DUP3 DUP1 SLOAD PUSH2 0x878 SWAP1 PUSH2 0x2BDC JUMP JUMPDEST DUP1 ISZERO PUSH2 0x8C3 JUMPI DUP1 PUSH1 0x1F LT PUSH2 0x89A JUMPI PUSH2 0x100 DUP1 DUP4 SLOAD DIV MUL DUP4 MSTORE SWAP2 PUSH1 0x20 ADD SWAP2 PUSH2 0x8C3 JUMP JUMPDEST DUP3 ADD SWAP2 SWAP1 PUSH0 MSTORE PUSH1 0x20 PUSH0 KECCAK256 SWAP1 JUMPDEST DUP2 SLOAD DUP2 MSTORE SWAP1 PUSH1 0x1 ADD SWAP1 PUSH1 0x20 ADD DUP1 DUP4 GT PUSH2 0x8A6 JUMPI DUP3 SWAP1 SUB PUSH1 0x1F AND DUP3 ADD SWAP2 JUMPDEST POP POP POP POP POP DUP2 MSTORE PUSH1 0x20 ADD SWAP1 PUSH1 0x1 ADD SWAP1 PUSH2 0x82F JUMP JUMPDEST POP POP POP POP DUP2 MSTORE PUSH1 0x20 ADD PUSH1 0x4 DUP3 ADD SLOAD DUP2 MSTORE PUSH1 0x20 ADD PUSH1 0x5 DUP3 ADD SLOAD DUP2 MSTORE PUSH1 0x20 ADD PUSH1 0x6 DUP3 ADD SLOAD DUP2 MSTORE POP POP SWAP1 POP SWAP3 SWAP2 POP POP JUMP JUMPDEST PUSH32 0xFFFFFFFFFFFFFFFFFFFFFFFFFFFFFFFFFFFFFFFFFFFFFFFFFFFFFFFFFFFFFFFF DUP2 SLT ISZERO PUSH2 0x968 JUMPI PUSH1 0x40 MLOAD PUSH32 0x8C379A000000000000000000000000000000000000000000000000000000000 DUP2 MSTORE PUSH1 0x4 ADD PUSH2 0x95F SWAP1 PUSH2 0x2EC2 JUMP JUMPDEST PUSH1 0x40 MLOAD DUP1 SWAP2 SUB SWAP1 REVERT JUMPDEST PUSH1 0x1 DUP2 SGT ISZERO PUSH2 0x9AC JUMPI PUSH1 0x40 MLOAD PUSH32 0x8C379A000000000000000000000000000000000000000000000000000000000 DUP2 MSTORE PUSH1 0x4 ADD PUSH2 0x9A3 SWAP1 PUSH2 0x2EC2 JUMP JUMPDEST PUSH1 0x40 MLOAD DUP1 SWAP2 SUB SWAP1 REVERT JUMPDEST PUSH1 0x4 PUSH0 SWAP1 SLOAD SWAP1 PUSH2 0x100 EXP SWAP1 DIV PUSH20 0xFFFFFFFFFFFFFFFFFFFFFFFFFFFFFFFFFFFFFFFF AND PUSH20 0xFFFFFFFFFFFFFFFFFFFFFFFFFFFFFFFFFFFFFFFF AND PUSH4 0x9F8A13D7 CALLER PUSH1 0x40 MLOAD DUP3 PUSH4 0xFFFFFFFF AND PUSH1 0xE0 SHL DUP2 MSTORE PUSH1 0x4 ADD PUSH2 0xA06 SWAP2 SWAP1 PUSH2 0x2978 JUMP JUMPDEST PUSH1 0x20 PUSH1 0x40 MLOAD DUP1 DUP4 SUB DUP2 DUP7 GAS STATICCALL ISZERO DUP1 ISZERO PUSH2 0xA21 JUMPI RETURNDATASIZE PUSH0 DUP1 RETURNDATACOPY RETURNDATASIZE PUSH0 REVERT JUMPDEST POP POP POP POP PUSH1 0x40 MLOAD RETURNDATASIZE PUSH1 0x1F NOT PUSH1 0x1F DUP3 ADD AND DUP3 ADD DUP1 PUSH1 0x40 MSTORE POP DUP2 ADD SWAP1 PUSH2 0xA45 SWAP2 SWAP1 PUSH2 0x2AEF JUMP JUMPDEST PUSH2 0xA84 JUMPI PUSH1 0x40 MLOAD PUSH32 0x8C379A000000000000000000000000000000000000000000000000000000000 DUP2 MSTORE PUSH1 0x4 ADD PUSH2 0xA7B SWAP1 PUSH2 0x2B64 JUMP JUMPDEST PUSH1 0x40 MLOAD DUP1 SWAP2 SUB SWAP1 REVERT JUMPDEST PUSH0 JUMPDEST PUSH1 0x1 DUP5 DUP2 SLOAD DUP2 LT PUSH2 0xA9A JUMPI PUSH2 0xA99 PUSH2 0x2B82 JUMP JUMPDEST JUMPDEST SWAP1 PUSH0 MSTORE PUSH1 0x20 PUSH0 KECCAK256 ADD DUP1 SLOAD SWAP1 POP DUP2 LT ISZERO PUSH2 0xD15 JUMPI CALLER PUSH20 0xFFFFFFFFFFFFFFFFFFFFFFFFFFFFFFFFFFFFFFFF AND PUSH1 0x1 DUP6 DUP2 SLOAD DUP2 LT PUSH2 0xAD8 JUMPI PUSH2 0xAD7 PUSH2 0x2B82 JUMP JUMPDEST JUMPDEST SWAP1 PUSH0 MSTORE PUSH1 0x20 PUSH0 KECCAK256 ADD DUP3 DUP2 SLOAD DUP2 LT PUSH2 0xAF2 JUMPI PUSH2 0xAF1 PUSH2 0x2B82 JUMP JUMPDEST JUMPDEST SWAP1 PUSH0 MSTORE PUSH1 0x20 PUSH0 KECCAK256 SWAP1 PUSH1 0x3 MUL ADD PUSH0 ADD PUSH0 SWAP1 SLOAD SWAP1 PUSH2 0x100 EXP SWAP1 DIV PUSH20 0xFFFFFFFFFFFFFFFFFFFFFFFFFFFFFFFFFFFFFFFF AND PUSH20 0xFFFFFFFFFFFFFFFFFFFFFFFFFFFFFFFFFFFFFFFF AND SUB PUSH2 0xD08 JUMPI PUSH1 0x1 DUP5 DUP2 SLOAD DUP2 LT PUSH2 0xB4F JUMPI PUSH2 0xB4E PUSH2 0x2B82 JUMP JUMPDEST JUMPDEST SWAP1 PUSH0 MSTORE PUSH1 0x20 PUSH0 KECCAK256 ADD DUP2 DUP2 SLOAD DUP2 LT PUSH2 0xB69 JUMPI PUSH2 0xB68 PUSH2 0x2B82 JUMP JUMPDEST JUMPDEST SWAP1 PUSH0 MSTORE PUSH1 0x20 PUSH0 KECCAK256 SWAP1 PUSH1 0x3 MUL ADD PUSH1 0x2 ADD SLOAD PUSH1 0x2 DUP6 DUP2 SLOAD DUP2 LT PUSH2 0xB8D JUMPI PUSH2 0xB8C PUSH2 0x2B82 JUMP JUMPDEST JUMPDEST SWAP1 PUSH0 MSTORE PUSH1 0x20 PUSH0 KECCAK256 ADD PUSH1 0x1 DUP7 DUP2 SLOAD DUP2 LT PUSH2 0xBA9 JUMPI PUSH2 0xBA8 PUSH2 0x2B82 JUMP JUMPDEST JUMPDEST SWAP1 PUSH0 MSTORE PUSH1 0x20 PUSH0 KECCAK256 ADD DUP4 DUP2 SLOAD DUP2 LT PUSH2 0xBC3 JUMPI PUSH2 0xBC2 PUSH2 0x2B82 JUMP JUMPDEST JUMPDEST SWAP1 PUSH0 MSTORE PUSH1 0x20 PUSH0 KECCAK256 SWAP1 PUSH1 0x3 MUL ADD PUSH1 0x1 ADD SLOAD DUP2 SLOAD DUP2 LT PUSH2 0xBE4 JUMPI PUSH2 0xBE3 PUSH2 0x2B82 JUMP JUMPDEST JUMPDEST SWAP1 PUSH0 MSTORE PUSH1 0x20 PUSH0 KECCAK256 SWAP1 PUSH1 0x7 MUL ADD PUSH1 0x4 ADD PUSH0 DUP3 DUP3 SLOAD PUSH2 0xC01 SWAP2 SWAP1 PUSH2 0x2F0D JUMP JUMPDEST SWAP3 POP POP DUP2 SWAP1 SSTORE POP PUSH1 0x2 DUP5 DUP2 SLOAD DUP2 LT PUSH2 0xC1C JUMPI PUSH2 0xC1B PUSH2 0x2B82 JUMP JUMPDEST JUMPDEST SWAP1 PUSH0 MSTORE PUSH1 0x20 PUSH0 KECCAK256 ADD PUSH1 0x1 DUP6 DUP2 SLOAD DUP2 LT PUSH2 0xC38 JUMPI PUSH2 0xC37 PUSH2 0x2B82 JUMP JUMPDEST JUMPDEST SWAP1 PUSH0 MSTORE PUSH1 0x20 PUSH0 KECCAK256 ADD DUP3 DUP2 SLOAD DUP2 LT PUSH2 0xC52 JUMPI PUSH2 0xC51 PUSH2 0x2B82 JUMP JUMPDEST JUMPDEST SWAP1 PUSH0 MSTORE PUSH1 0x20 PUSH0 KECCAK256 SWAP1 PUSH1 0x3 MUL ADD PUSH1 0x1 ADD SLOAD DUP2 SLOAD DUP2 LT PUSH2 0xC73 JUMPI PUSH2 0xC72 PUSH2 0x2B82 JUMP JUMPDEST JUMPDEST SWAP1 PUSH0 MSTORE PUSH1 0x20 PUSH0 KECCAK256 SWAP1 PUSH1 0x7 MUL ADD PUSH1 0x5 ADD PUSH0 DUP2 SLOAD DUP1 SWAP3 SWAP2 SWAP1 PUSH2 0xC92 SWAP1 PUSH2 0x2F4D JUMP JUMPDEST SWAP2 SWAP1 POP SSTORE POP PUSH1 0x1 DUP5 DUP2 SLOAD DUP2 LT PUSH2 0xCAB JUMPI PUSH2 0xCAA PUSH2 0x2B82 JUMP JUMPDEST JUMPDEST SWAP1 PUSH0 MSTORE PUSH1 0x20 PUSH0 KECCAK256 ADD DUP2 DUP2 SLOAD DUP2 LT PUSH2 0xCC5 JUMPI PUSH2 0xCC4 PUSH2 0x2B82 JUMP JUMPDEST JUMPDEST SWAP1 PUSH0 MSTORE PUSH1 0x20 PUSH0 KECCAK256 SWAP1 PUSH1 0x3 MUL ADD PUSH0 DUP1 DUP3 ADD PUSH0 PUSH2 0x100 EXP DUP2 SLOAD SWAP1 PUSH20 0xFFFFFFFFFFFFFFFFFFFFFFFFFFFFFFFFFFFFFFFF MUL NOT AND SWAP1 SSTORE PUSH1 0x1 DUP3 ADD PUSH0 SWAP1 SSTORE PUSH1 0x2 DUP3 ADD PUSH0 SWAP1 SSTORE POP POP JUMPDEST DUP1 DUP1 PUSH1 0x1 ADD SWAP2 POP POP PUSH2 0xA86 JUMP JUMPDEST POP PUSH0 PUSH1 0x40 MLOAD DUP1 PUSH1 0x60 ADD PUSH1 0x40 MSTORE DUP1 CALLER PUSH20 0xFFFFFFFFFFFFFFFFFFFFFFFFFFFFFFFFFFFFFFFF AND DUP2 MSTORE PUSH1 0x20 ADD DUP5 DUP2 MSTORE PUSH1 0x20 ADD DUP4 DUP2 MSTORE POP SWAP1 POP PUSH1 0x1 DUP5 DUP2 SLOAD DUP2 LT PUSH2 0xD5E JUMPI PUSH2 0xD5D PUSH2 0x2B82 JUMP JUMPDEST JUMPDEST SWAP1 PUSH0 MSTORE PUSH1 0x20 PUSH0 KECCAK256 ADD DUP2 SWAP1 DUP1 PUSH1 0x1 DUP2 SLOAD ADD DUP1 DUP3 SSTORE DUP1 SWAP2 POP POP PUSH1 0x1 SWAP1 SUB SWAP1 PUSH0 MSTORE PUSH1 0x20 PUSH0 KECCAK256 SWAP1 PUSH1 0x3 MUL ADD PUSH0 SWAP1 SWAP2 SWAP1 SWAP2 SWAP1 SWAP2 POP PUSH0 DUP3 ADD MLOAD DUP2 PUSH0 ADD PUSH0 PUSH2 0x100 EXP DUP2 SLOAD DUP2 PUSH20 0xFFFFFFFFFFFFFFFFFFFFFFFFFFFFFFFFFFFFFFFF MUL NOT AND SWAP1 DUP4 PUSH20 0xFFFFFFFFFFFFFFFFFFFFFFFFFFFFFFFFFFFFFFFF AND MUL OR SWAP1 SSTORE POP PUSH1 0x20 DUP3 ADD MLOAD DUP2 PUSH1 0x1 ADD SSTORE PUSH1 0x40 DUP3 ADD MLOAD DUP2 PUSH1 0x2 ADD SSTORE POP POP DUP2 PUSH1 0x2 DUP6 DUP2 SLOAD DUP2 LT PUSH2 0xDFC JUMPI PUSH2 0xDFB PUSH2 0x2B82 JUMP JUMPDEST JUMPDEST SWAP1 PUSH0 MSTORE PUSH1 0x20 PUSH0 KECCAK256 ADD DUP5 DUP2 SLOAD DUP2 LT PUSH2 0xE16 JUMPI PUSH2 0xE15 PUSH2 0x2B82 JUMP JUMPDEST JUMPDEST SWAP1 PUSH0 MSTORE PUSH1 0x20 PUSH0 KECCAK256 SWAP1 PUSH1 0x7 MUL ADD PUSH1 0x4 ADD PUSH0 DUP3 DUP3 SLOAD PUSH2 0xE33 SWAP2 SWAP1 PUSH2 0x2F74 JUMP JUMPDEST SWAP3 POP POP DUP2 SWAP1 SSTORE POP PUSH1 0x2 DUP5 DUP2 SLOAD DUP2 LT PUSH2 0xE4E JUMPI PUSH2 0xE4D PUSH2 0x2B82 JUMP JUMPDEST JUMPDEST SWAP1 PUSH0 MSTORE PUSH1 0x20 PUSH0 KECCAK256 ADD DUP4 DUP2 SLOAD DUP2 LT PUSH2 0xE68 JUMPI PUSH2 0xE67 PUSH2 0x2B82 JUMP JUMPDEST JUMPDEST SWAP1 PUSH0 MSTORE PUSH1 0x20 PUSH0 KECCAK256 SWAP1 PUSH1 0x7 MUL ADD PUSH1 0x5 ADD PUSH0 DUP2 SLOAD DUP1 SWAP3 SWAP2 SWAP1 PUSH2 0xE87 SWAP1 PUSH2 0x2FB5 JUMP JUMPDEST SWAP2 SWAP1 POP SSTORE POP POP POP POP POP JUMP JUMPDEST PUSH1 0x60 PUSH0 JUMPDEST PUSH1 0x2 DUP4 DUP2 SLOAD DUP2 LT PUSH2 0xEAA JUMPI PUSH2 0xEA9 PUSH2 0x2B82 JUMP JUMPDEST JUMPDEST SWAP1 PUSH0 MSTORE PUSH1 0x20 PUSH0 KECCAK256 ADD DUP1 SLOAD SWAP1 POP DUP2 LT ISZERO PUSH2 0x1046 JUMPI PUSH2 0xEC6 DUP2 PUSH2 0x1DF8 JUMP JUMPDEST PUSH1 0x2 DUP5 DUP2 SLOAD DUP2 LT PUSH2 0xEDA JUMPI PUSH2 0xED9 PUSH2 0x2B82 JUMP JUMPDEST JUMPDEST SWAP1 PUSH0 MSTORE PUSH1 0x20 PUSH0 KECCAK256 ADD DUP3 DUP2 SLOAD DUP2 LT PUSH2 0xEF4 JUMPI PUSH2 0xEF3 PUSH2 0x2B82 JUMP JUMPDEST JUMPDEST SWAP1 PUSH0 MSTORE PUSH1 0x20 PUSH0 KECCAK256 SWAP1 PUSH1 0x7 MUL ADD PUSH0 ADD PUSH1 0x2 DUP6 DUP2 SLOAD DUP2 LT PUSH2 0xF16 JUMPI PUSH2 0xF15 PUSH2 0x2B82 JUMP JUMPDEST JUMPDEST SWAP1 PUSH0 MSTORE PUSH1 0x20 PUSH0 KECCAK256 ADD DUP4 DUP2 SLOAD DUP2 LT PUSH2 0xF30 JUMPI PUSH2 0xF2F PUSH2 0x2B82 JUMP JUMPDEST JUMPDEST SWAP1 PUSH0 MSTORE PUSH1 0x20 PUSH0 KECCAK256 SWAP1 PUSH1 0x7 MUL ADD PUSH1 0x1 ADD PUSH2 0xF85 PUSH1 0x2 DUP8 DUP2 SLOAD DUP2 LT PUSH2 0xF56 JUMPI PUSH2 0xF55 PUSH2 0x2B82 JUMP JUMPDEST JUMPDEST SWAP1 PUSH0 MSTORE PUSH1 0x20 PUSH0 KECCAK256 ADD DUP6 DUP2 SLOAD DUP2 LT PUSH2 0xF70 JUMPI PUSH2 0xF6F PUSH2 0x2B82 JUMP JUMPDEST JUMPDEST SWAP1 PUSH0 MSTORE PUSH1 0x20 PUSH0 KECCAK256 SWAP1 PUSH1 0x7 MUL ADD PUSH1 0x6 ADD SLOAD PUSH2 0x1DF8 JUMP JUMPDEST PUSH2 0xFCB PUSH1 0x2 DUP9 DUP2 SLOAD DUP2 LT PUSH2 0xF9C JUMPI PUSH2 0xF9B PUSH2 0x2B82 JUMP JUMPDEST JUMPDEST SWAP1 PUSH0 MSTORE PUSH1 0x20 PUSH0 KECCAK256 ADD DUP7 DUP2 SLOAD DUP2 LT PUSH2 0xFB6 JUMPI PUSH2 0xFB5 PUSH2 0x2B82 JUMP JUMPDEST JUMPDEST SWAP1 PUSH0 MSTORE PUSH1 0x20 PUSH0 KECCAK256 SWAP1 PUSH1 0x7 MUL ADD PUSH1 0x4 ADD SLOAD PUSH2 0x1EC2 JUMP JUMPDEST PUSH2 0x1011 PUSH1 0x2 DUP10 DUP2 SLOAD DUP2 LT PUSH2 0xFE2 JUMPI PUSH2 0xFE1 PUSH2 0x2B82 JUMP JUMPDEST JUMPDEST SWAP1 PUSH0 MSTORE PUSH1 0x20 PUSH0 KECCAK256 ADD DUP8 DUP2 SLOAD DUP2 LT PUSH2 0xFFC JUMPI PUSH2 0xFFB PUSH2 0x2B82 JUMP JUMPDEST JUMPDEST SWAP1 PUSH0 MSTORE PUSH1 0x20 PUSH0 KECCAK256 SWAP1 PUSH1 0x7 MUL ADD PUSH1 0x5 ADD SLOAD PUSH2 0x1DF8 JUMP JUMPDEST DUP8 PUSH1 0x40 MLOAD PUSH1 0x20 ADD PUSH2 0x1028 SWAP8 SWAP7 SWAP6 SWAP5 SWAP4 SWAP3 SWAP2 SWAP1 PUSH2 0x3102 JUMP JUMPDEST PUSH1 0x40 MLOAD PUSH1 0x20 DUP2 DUP4 SUB SUB DUP2 MSTORE SWAP1 PUSH1 0x40 MSTORE SWAP2 POP DUP1 DUP1 PUSH1 0x1 ADD SWAP2 POP POP PUSH2 0xE96 JUMP JUMPDEST POP SWAP2 SWAP1 POP JUMP JUMPDEST PUSH1 0x4 PUSH0 SWAP1 SLOAD SWAP1 PUSH2 0x100 EXP SWAP1 DIV PUSH20 0xFFFFFFFFFFFFFFFFFFFFFFFFFFFFFFFFFFFFFFFF AND PUSH20 0xFFFFFFFFFFFFFFFFFFFFFFFFFFFFFFFFFFFFFFFF AND PUSH4 0x9F8A13D7 CALLER PUSH1 0x40 MLOAD DUP3 PUSH4 0xFFFFFFFF AND PUSH1 0xE0 SHL DUP2 MSTORE PUSH1 0x4 ADD PUSH2 0x10A6 SWAP2 SWAP1 PUSH2 0x2978 JUMP JUMPDEST PUSH1 0x20 PUSH1 0x40 MLOAD DUP1 DUP4 SUB DUP2 DUP7 GAS STATICCALL ISZERO DUP1 ISZERO PUSH2 0x10C1 JUMPI RETURNDATASIZE PUSH0 DUP1 RETURNDATACOPY RETURNDATASIZE PUSH0 REVERT JUMPDEST POP POP POP POP PUSH1 0x40 MLOAD RETURNDATASIZE PUSH1 0x1F NOT PUSH1 0x1F DUP3 ADD AND DUP3 ADD DUP1 PUSH1 0x40 MSTORE POP DUP2 ADD SWAP1 PUSH2 0x10E5 SWAP2 SWAP1 PUSH2 0x2AEF JUMP JUMPDEST PUSH2 0x1124 JUMPI PUSH1 0x40 MLOAD PUSH32 0x8C379A000000000000000000000000000000000000000000000000000000000 DUP2 MSTORE PUSH1 0x4 ADD PUSH2 0x111B SWAP1 PUSH2 0x2B64 JUMP JUMPDEST PUSH1 0x40 MLOAD DUP1 SWAP2 SUB SWAP1 REVERT JUMPDEST PUSH0 PUSH1 0x40 MLOAD DUP1 PUSH1 0xE0 ADD PUSH1 0x40 MSTORE DUP1 PUSH1 0x2 DUP8 DUP2 SLOAD DUP2 LT PUSH2 0x1144 JUMPI PUSH2 0x1143 PUSH2 0x2B82 JUMP JUMPDEST JUMPDEST SWAP1 PUSH0 MSTORE PUSH1 0x20 PUSH0 KECCAK256 ADD DUP6 DUP2 SLOAD DUP2 LT PUSH2 0x115E JUMPI PUSH2 0x115D PUSH2 0x2B82 JUMP JUMPDEST JUMPDEST SWAP1 PUSH0 MSTORE PUSH1 0x20 PUSH0 KECCAK256 SWAP1 PUSH1 0x7 MUL ADD PUSH0 ADD DUP1 SLOAD PUSH2 0x1177 SWAP1 PUSH2 0x2BDC JUMP JUMPDEST DUP1 PUSH1 0x1F ADD PUSH1 0x20 DUP1 SWAP2 DIV MUL PUSH1 0x20 ADD PUSH1 0x40 MLOAD SWAP1 DUP2 ADD PUSH1 0x40 MSTORE DUP1 SWAP3 SWAP2 SWAP1 DUP2 DUP2 MSTORE PUSH1 0x20 ADD DUP3 DUP1 SLOAD PUSH2 0x11A3 SWAP1 PUSH2 0x2BDC JUMP JUMPDEST DUP1 ISZERO PUSH2 0x11EE JUMPI DUP1 PUSH1 0x1F LT PUSH2 0x11C5 JUMPI PUSH2 0x100 DUP1 DUP4 SLOAD DIV MUL DUP4 MSTORE SWAP2 PUSH1 0x20 ADD SWAP2 PUSH2 0x11EE JUMP JUMPDEST DUP3 ADD SWAP2 SWAP1 PUSH0 MSTORE PUSH1 0x20 PUSH0 KECCAK256 SWAP1 JUMPDEST DUP2 SLOAD DUP2 MSTORE SWAP1 PUSH1 0x1 ADD SWAP1 PUSH1 0x20 ADD DUP1 DUP4 GT PUSH2 0x11D1 JUMPI DUP3 SWAP1 SUB PUSH1 0x1F AND DUP3 ADD SWAP2 JUMPDEST POP POP POP POP POP DUP2 MSTORE PUSH1 0x20 ADD PUSH1 0x2 DUP8 DUP2 SLOAD DUP2 LT PUSH2 0x120C JUMPI PUSH2 0x120B PUSH2 0x2B82 JUMP JUMPDEST JUMPDEST SWAP1 PUSH0 MSTORE PUSH1 0x20 PUSH0 KECCAK256 ADD DUP6 DUP2 SLOAD DUP2 LT PUSH2 0x1226 JUMPI PUSH2 0x1225 PUSH2 0x2B82 JUMP JUMPDEST JUMPDEST SWAP1 PUSH0 MSTORE PUSH1 0x20 PUSH0 KECCAK256 SWAP1 PUSH1 0x7 MUL ADD PUSH1 0x1 ADD DUP1 SLOAD PUSH2 0x1240 SWAP1 PUSH2 0x2BDC JUMP JUMPDEST DUP1 PUSH1 0x1F ADD PUSH1 0x20 DUP1 SWAP2 DIV MUL PUSH1 0x20 ADD PUSH1 0x40 MLOAD SWAP1 DUP2 ADD PUSH1 0x40 MSTORE DUP1 SWAP3 SWAP2 SWAP1 DUP2 DUP2 MSTORE PUSH1 0x20 ADD DUP3 DUP1 SLOAD PUSH2 0x126C SWAP1 PUSH2 0x2BDC JUMP JUMPDEST DUP1 ISZERO PUSH2 0x12B7 JUMPI DUP1 PUSH1 0x1F LT PUSH2 0x128E JUMPI PUSH2 0x100 DUP1 DUP4 SLOAD DIV MUL DUP4 MSTORE SWAP2 PUSH1 0x20 ADD SWAP2 PUSH2 0x12B7 JUMP JUMPDEST DUP3 ADD SWAP2 SWAP1 PUSH0 MSTORE PUSH1 0x20 PUSH0 KECCAK256 SWAP1 JUMPDEST DUP2 SLOAD DUP2 MSTORE SWAP1 PUSH1 0x1 ADD SWAP1 PUSH1 0x20 ADD DUP1 DUP4 GT PUSH2 0x129A JUMPI DUP3 SWAP1 SUB PUSH1 0x1F AND DUP3 ADD SWAP2 JUMPDEST POP POP POP POP POP DUP2 MSTORE PUSH1 0x20 ADD PUSH1 0x2 DUP8 DUP2 SLOAD DUP2 LT PUSH2 0x12D5 JUMPI PUSH2 0x12D4 PUSH2 0x2B82 JUMP JUMPDEST JUMPDEST SWAP1 PUSH0 MSTORE PUSH1 0x20 PUSH0 KECCAK256 ADD DUP6 DUP2 SLOAD DUP2 LT PUSH2 0x12EF JUMPI PUSH2 0x12EE PUSH2 0x2B82 JUMP JUMPDEST JUMPDEST SWAP1 PUSH0 MSTORE PUSH1 0x20 PUSH0 KECCAK256 SWAP1 PUSH1 0x7 MUL ADD PUSH1 0x2 ADD DUP1 SLOAD DUP1 PUSH1 0x20 MUL PUSH1 0x20 ADD PUSH1 0x40 MLOAD SWAP1 DUP2 ADD PUSH1 0x40 MSTORE DUP1 SWAP3 SWAP2 SWAP1 DUP2 DUP2 MSTORE PUSH1 0x20 ADD PUSH0 SWAP1 JUMPDEST DUP3 DUP3 LT ISZERO PUSH2 0x13C5 JUMPI DUP4 DUP3 SWAP1 PUSH0 MSTORE PUSH1 0x20 PUSH0 KECCAK256 ADD DUP1 SLOAD PUSH2 0x133A SWAP1 PUSH2 0x2BDC JUMP JUMPDEST DUP1 PUSH1 0x1F ADD PUSH1 0x20 DUP1 SWAP2 DIV MUL PUSH1 0x20 ADD PUSH1 0x40 MLOAD SWAP1 DUP2 ADD PUSH1 0x40 MSTORE DUP1 SWAP3 SWAP2 SWAP1 DUP2 DUP2 MSTORE PUSH1 0x20 ADD DUP3 DUP1 SLOAD PUSH2 0x1366 SWAP1 PUSH2 0x2BDC JUMP JUMPDEST DUP1 ISZERO PUSH2 0x13B1 JUMPI DUP1 PUSH1 0x1F LT PUSH2 0x1388 JUMPI PUSH2 0x100 DUP1 DUP4 SLOAD DIV MUL DUP4 MSTORE SWAP2 PUSH1 0x20 ADD SWAP2 PUSH2 0x13B1 JUMP JUMPDEST DUP3 ADD SWAP2 SWAP1 PUSH0 MSTORE PUSH1 0x20 PUSH0 KECCAK256 SWAP1 JUMPDEST DUP2 SLOAD DUP2 MSTORE SWAP1 PUSH1 0x1 ADD SWAP1 PUSH1 0x20 ADD DUP1 DUP4 GT PUSH2 0x1394 JUMPI DUP3 SWAP1 SUB PUSH1 0x1F AND DUP3 ADD SWAP2 JUMPDEST POP POP POP POP POP DUP2 MSTORE PUSH1 0x20 ADD SWAP1 PUSH1 0x1 ADD SWAP1 PUSH2 0x131D JUMP JUMPDEST POP POP POP POP DUP2 MSTORE PUSH1 0x20 ADD PUSH1 0x2 DUP8 DUP2 SLOAD DUP2 LT PUSH2 0x13E2 JUMPI PUSH2 0x13E1 PUSH2 0x2B82 JUMP JUMPDEST JUMPDEST SWAP1 PUSH0 MSTORE PUSH1 0x20 PUSH0 KECCAK256 ADD DUP6 DUP2 SLOAD DUP2 LT PUSH2 0x13FC JUMPI PUSH2 0x13FB PUSH2 0x2B82 JUMP JUMPDEST JUMPDEST SWAP1 PUSH0 MSTORE PUSH1 0x20 PUSH0 KECCAK256 SWAP1 PUSH1 0x7 MUL ADD PUSH1 0x3 ADD DUP1 SLOAD DUP1 PUSH1 0x20 MUL PUSH1 0x20 ADD PUSH1 0x40 MLOAD SWAP1 DUP2 ADD PUSH1 0x40 MSTORE DUP1 SWAP3 SWAP2 SWAP1 DUP2 DUP2 MSTORE PUSH1 0x20 ADD PUSH0 SWAP1 JUMPDEST DUP3 DUP3 LT ISZERO PUSH2 0x14D2 JUMPI DUP4 DUP3 SWAP1 PUSH0 MSTORE PUSH1 0x20 PUSH0 KECCAK256 ADD DUP1 SLOAD PUSH2 0x1447 SWAP1 PUSH2 0x2BDC JUMP JUMPDEST DUP1 PUSH1 0x1F ADD PUSH1 0x20 DUP1 SWAP2 DIV MUL PUSH1 0x20 ADD PUSH1 0x40 MLOAD SWAP1 DUP2 ADD PUSH1 0x40 MSTORE DUP1 SWAP3 SWAP2 SWAP1 DUP2 DUP2 MSTORE PUSH1 0x20 ADD DUP3 DUP1 SLOAD PUSH2 0x1473 SWAP1 PUSH2 0x2BDC JUMP JUMPDEST DUP1 ISZERO PUSH2 0x14BE JUMPI DUP1 PUSH1 0x1F LT PUSH2 0x1495 JUMPI PUSH2 0x100 DUP1 DUP4 SLOAD DIV MUL DUP4 MSTORE SWAP2 PUSH1 0x20 ADD SWAP2 PUSH2 0x14BE JUMP JUMPDEST DUP3 ADD SWAP2 SWAP1 PUSH0 MSTORE PUSH1 0x20 PUSH0 KECCAK256 SWAP1 JUMPDEST DUP2 SLOAD DUP2 MSTORE SWAP1 PUSH1 0x1 ADD SWAP1 PUSH1 0x20 ADD DUP1 DUP4 GT PUSH2 0x14A1 JUMPI DUP3 SWAP1 SUB PUSH1 0x1F AND DUP3 ADD SWAP2 JUMPDEST POP POP POP POP POP DUP2 MSTORE PUSH1 0x20 ADD SWAP1 PUSH1 0x1 ADD SWAP1 PUSH2 0x142A JUMP JUMPDEST POP POP POP POP DUP2 MSTORE PUSH1 0x20 ADD PUSH0 DUP2 MSTORE PUSH1 0x20 ADD PUSH0 DUP2 MSTORE PUSH1 0x20 ADD TIMESTAMP DUP2 MSTORE POP SWAP1 POP DUP2 DUP2 PUSH1 0x40 ADD MLOAD DUP6 DUP2 MLOAD DUP2 LT PUSH2 0x1505 JUMPI PUSH2 0x1504 PUSH2 0x2B82 JUMP JUMPDEST JUMPDEST PUSH1 0x20 MUL PUSH1 0x20 ADD ADD DUP2 SWAP1 MSTORE POP PUSH1 0x2 DUP6 DUP2 SLOAD DUP2 LT PUSH2 0x1524 JUMPI PUSH2 0x1523 PUSH2 0x2B82 JUMP JUMPDEST JUMPDEST SWAP1 PUSH0 MSTORE PUSH1 0x20 PUSH0 KECCAK256 ADD DUP2 SWAP1 DUP1 PUSH1 0x1 DUP2 SLOAD ADD DUP1 DUP3 SSTORE DUP1 SWAP2 POP POP PUSH1 0x1 SWAP1 SUB SWAP1 PUSH0 MSTORE PUSH1 0x20 PUSH0 KECCAK256 SWAP1 PUSH1 0x7 MUL ADD PUSH0 SWAP1 SWAP2 SWAP1 SWAP2 SWAP1 SWAP2 POP PUSH0 DUP3 ADD MLOAD DUP2 PUSH0 ADD SWAP1 DUP2 PUSH2 0x1566 SWAP2 SWAP1 PUSH2 0x2DA9 JUMP JUMPDEST POP PUSH1 0x20 DUP3 ADD MLOAD DUP2 PUSH1 0x1 ADD SWAP1 DUP2 PUSH2 0x157C SWAP2 SWAP1 PUSH2 0x2DA9 JUMP JUMPDEST POP PUSH1 0x40 DUP3 ADD MLOAD DUP2 PUSH1 0x2 ADD SWAP1 DUP1 MLOAD SWAP1 PUSH1 0x20 ADD SWAP1 PUSH2 0x1599 SWAP3 SWAP2 SWAP1 PUSH2 0x20F6 JUMP JUMPDEST POP PUSH1 0x60 DUP3 ADD MLOAD DUP2 PUSH1 0x3 ADD SWAP1 DUP1 MLOAD SWAP1 PUSH1 0x20 ADD SWAP1 PUSH2 0x15B6 SWAP3 SWAP2 SWAP1 PUSH2 0x20F6 JUMP JUMPDEST POP PUSH1 0x80 DUP3 ADD MLOAD DUP2 PUSH1 0x4 ADD SSTORE PUSH1 0xA0 DUP3 ADD MLOAD DUP2 PUSH1 0x5 ADD SSTORE PUSH1 0xC0 DUP3 ADD MLOAD DUP2 PUSH1 0x6 ADD SSTORE POP POP POP POP POP POP POP JUMP JUMPDEST PUSH1 0x60 PUSH2 0x15E9 DUP3 PUSH2 0x1DF8 JUMP JUMPDEST PUSH1 0x2 DUP5 DUP2 SLOAD DUP2 LT PUSH2 0x15FD JUMPI PUSH2 0x15FC PUSH2 0x2B82 JUMP JUMPDEST JUMPDEST SWAP1 PUSH0 MSTORE PUSH1 0x20 PUSH0 KECCAK256 ADD DUP4 DUP2 SLOAD DUP2 LT PUSH2 0x1617 JUMPI PUSH2 0x1616 PUSH2 0x2B82 JUMP JUMPDEST JUMPDEST SWAP1 PUSH0 MSTORE PUSH1 0x20 PUSH0 KECCAK256 SWAP1 PUSH1 0x7 MUL ADD PUSH0 ADD PUSH1 0x2 DUP6 DUP2 SLOAD DUP2 LT PUSH2 0x1639 JUMPI PUSH2 0x1638 PUSH2 0x2B82 JUMP JUMPDEST JUMPDEST SWAP1 PUSH0 MSTORE PUSH1 0x20 PUSH0 KECCAK256 ADD DUP5 DUP2 SLOAD DUP2 LT PUSH2 0x1653 JUMPI PUSH2 0x1652 PUSH2 0x2B82 JUMP JUMPDEST JUMPDEST SWAP1 PUSH0 MSTORE PUSH1 0x20 PUSH0 KECCAK256 SWAP1 PUSH1 0x7 MUL ADD PUSH1 0x1 ADD PUSH1 0x40 MLOAD PUSH1 0x20 ADD PUSH2 0x1674 SWAP4 SWAP3 SWAP2 SWAP1 PUSH2 0x31C0 JUMP JUMPDEST PUSH1 0x40 MLOAD PUSH1 0x20 DUP2 DUP4 SUB SUB DUP2 MSTORE SWAP1 PUSH1 0x40 MSTORE SWAP1 POP PUSH0 JUMPDEST PUSH1 0x2 DUP5 DUP2 SLOAD DUP2 LT PUSH2 0x169B JUMPI PUSH2 0x169A PUSH2 0x2B82 JUMP JUMPDEST JUMPDEST SWAP1 PUSH0 MSTORE PUSH1 0x20 PUSH0 KECCAK256 ADD DUP4 DUP2 SLOAD DUP2 LT PUSH2 0x16B5 JUMPI PUSH2 0x16B4 PUSH2 0x2B82 JUMP JUMPDEST JUMPDEST SWAP1 PUSH0 MSTORE PUSH1 0x20 PUSH0 KECCAK256 SWAP1 PUSH1 0x7 MUL ADD PUSH1 0x2 ADD DUP1 SLOAD SWAP1 POP DUP2 LT ISZERO PUSH2 0x1756 JUMPI DUP2 PUSH1 0x2 DUP6 DUP2 SLOAD DUP2 LT PUSH2 0x16E4 JUMPI PUSH2 0x16E3 PUSH2 0x2B82 JUMP JUMPDEST JUMPDEST SWAP1 PUSH0 MSTORE PUSH1 0x20 PUSH0 KECCAK256 ADD DUP5 DUP2 SLOAD DUP2 LT PUSH2 0x16FE JUMPI PUSH2 0x16FD PUSH2 0x2B82 JUMP JUMPDEST JUMPDEST SWAP1 PUSH0 MSTORE PUSH1 0x20 PUSH0 KECCAK256 SWAP1 PUSH1 0x7 MUL ADD PUSH1 0x2 ADD DUP3 DUP2 SLOAD DUP2 LT PUSH2 0x171F JUMPI PUSH2 0x171E PUSH2 0x2B82 JUMP JUMPDEST JUMPDEST SWAP1 PUSH0 MSTORE PUSH1 0x20 PUSH0 KECCAK256 ADD PUSH1 0x40 MLOAD PUSH1 0x20 ADD PUSH2 0x1738 SWAP3 SWAP2 SWAP1 PUSH2 0x320E JUMP JUMPDEST PUSH1 0x40 MLOAD PUSH1 0x20 DUP2 DUP4 SUB SUB DUP2 MSTORE SWAP1 PUSH1 0x40 MSTORE SWAP2 POP DUP1 DUP1 PUSH1 0x1 ADD SWAP2 POP POP PUSH2 0x1687 JUMP JUMPDEST POP SWAP3 SWAP2 POP POP JUMP JUMPDEST PUSH0 PUSH1 0x2 DUP1 SLOAD SWAP1 POP SWAP1 POP SWAP1 JUMP JUMPDEST PUSH1 0x60 PUSH0 JUMPDEST PUSH1 0x2 DUP5 DUP2 SLOAD DUP2 LT PUSH2 0x1781 JUMPI PUSH2 0x1780 PUSH2 0x2B82 JUMP JUMPDEST JUMPDEST SWAP1 PUSH0 MSTORE PUSH1 0x20 PUSH0 KECCAK256 ADD DUP4 DUP2 SLOAD DUP2 LT PUSH2 0x179B JUMPI PUSH2 0x179A PUSH2 0x2B82 JUMP JUMPDEST JUMPDEST SWAP1 PUSH0 MSTORE PUSH1 0x20 PUSH0 KECCAK256 SWAP1 PUSH1 0x7 MUL ADD PUSH1 0x3 ADD DUP1 SLOAD SWAP1 POP DUP2 LT ISZERO PUSH2 0x183C JUMPI PUSH1 0x2 DUP5 DUP2 SLOAD DUP2 LT PUSH2 0x17C9 JUMPI PUSH2 0x17C8 PUSH2 0x2B82 JUMP JUMPDEST JUMPDEST SWAP1 PUSH0 MSTORE PUSH1 0x20 PUSH0 KECCAK256 ADD DUP4 DUP2 SLOAD DUP2 LT PUSH2 0x17E3 JUMPI PUSH2 0x17E2 PUSH2 0x2B82 JUMP JUMPDEST JUMPDEST SWAP1 PUSH0 MSTORE PUSH1 0x20 PUSH0 KECCAK256 SWAP1 PUSH1 0x7 MUL ADD PUSH1 0x3 ADD DUP2 DUP2 SLOAD DUP2 LT PUSH2 0x1804 JUMPI PUSH2 0x1803 PUSH2 0x2B82 JUMP JUMPDEST JUMPDEST SWAP1 PUSH0 MSTORE PUSH1 0x20 PUSH0 KECCAK256 ADD DUP3 PUSH1 0x40 MLOAD PUSH1 0x20 ADD PUSH2 0x181E SWAP3 SWAP2 SWAP1 PUSH2 0x3240 JUMP JUMPDEST PUSH1 0x40 MLOAD PUSH1 0x20 DUP2 DUP4 SUB SUB DUP2 MSTORE SWAP1 PUSH1 0x40 MSTORE SWAP2 POP DUP1 DUP1 PUSH1 0x1 ADD SWAP2 POP POP PUSH2 0x176D JUMP JUMPDEST POP SWAP3 SWAP2 POP POP JUMP JUMPDEST PUSH0 DUP1 PUSH0 SWAP1 SLOAD SWAP1 PUSH2 0x100 EXP SWAP1 DIV PUSH20 0xFFFFFFFFFFFFFFFFFFFFFFFFFFFFFFFFFFFFFFFF AND SWAP1 POP SWAP1 JUMP JUMPDEST PUSH0 DUP1 SLOAD SWAP1 PUSH2 0x100 EXP SWAP1 DIV PUSH20 0xFFFFFFFFFFFFFFFFFFFFFFFFFFFFFFFFFFFFFFFF AND PUSH20 0xFFFFFFFFFFFFFFFFFFFFFFFFFFFFFFFFFFFFFFFF AND CALLER PUSH20 0xFFFFFFFFFFFFFFFFFFFFFFFFFFFFFFFFFFFFFFFF AND EQ PUSH2 0x18F7 JUMPI PUSH1 0x40 MLOAD PUSH32 0x8C379A000000000000000000000000000000000000000000000000000000000 DUP2 MSTORE PUSH1 0x4 ADD PUSH2 0x18EE SWAP1 PUSH2 0x32BC JUMP JUMPDEST PUSH1 0x40 MLOAD DUP1 SWAP2 SUB SWAP1 REVERT JUMPDEST DUP1 PUSH20 0xFFFFFFFFFFFFFFFFFFFFFFFFFFFFFFFFFFFFFFFF AND PUSH0 DUP1 SLOAD SWAP1 PUSH2 0x100 EXP SWAP1 DIV PUSH20 0xFFFFFFFFFFFFFFFFFFFFFFFFFFFFFFFFFFFFFFFF AND PUSH20 0xFFFFFFFFFFFFFFFFFFFFFFFFFFFFFFFFFFFFFFFF AND PUSH32 0x342827C97908E5E2F71151C08502A66D44B6F758E3AC2F1DE95F02EB95F0A735 PUSH1 0x40 MLOAD PUSH1 0x40 MLOAD DUP1 SWAP2 SUB SWAP1 LOG3 DUP1 PUSH0 DUP1 PUSH2 0x100 EXP DUP2 SLOAD DUP2 PUSH20 0xFFFFFFFFFFFFFFFFFFFFFFFFFFFFFFFFFFFFFFFF MUL NOT AND SWAP1 DUP4 PUSH20 0xFFFFFFFFFFFFFFFFFFFFFFFFFFFFFFFFFFFFFFFF AND MUL OR SWAP1 SSTORE POP POP JUMP JUMPDEST PUSH0 PUSH1 0x4 PUSH0 SWAP1 SLOAD SWAP1 PUSH2 0x100 EXP SWAP1 DIV PUSH20 0xFFFFFFFFFFFFFFFFFFFFFFFFFFFFFFFFFFFFFFFF AND PUSH20 0xFFFFFFFFFFFFFFFFFFFFFFFFFFFFFFFFFFFFFFFF AND PUSH4 0x9F8A13D7 CALLER PUSH1 0x40 MLOAD DUP3 PUSH4 0xFFFFFFFF AND PUSH1 0xE0 SHL DUP2 MSTORE PUSH1 0x4 ADD PUSH2 0x1A0D SWAP2 SWAP1 PUSH2 0x2978 JUMP JUMPDEST PUSH1 0x20 PUSH1 0x40 MLOAD DUP1 DUP4 SUB DUP2 DUP7 GAS STATICCALL ISZERO DUP1 ISZERO PUSH2 0x1A28 JUMPI RETURNDATASIZE PUSH0 DUP1 RETURNDATACOPY RETURNDATASIZE PUSH0 REVERT JUMPDEST POP POP POP POP PUSH1 0x40 MLOAD RETURNDATASIZE PUSH1 0x1F NOT PUSH1 0x1F DUP3 ADD AND DUP3 ADD DUP1 PUSH1 0x40 MSTORE POP DUP2 ADD SWAP1 PUSH2 0x1A4C SWAP2 SWAP1 PUSH2 0x2AEF JUMP JUMPDEST PUSH2 0x1A8B JUMPI PUSH1 0x40 MLOAD PUSH32 0x8C379A000000000000000000000000000000000000000000000000000000000 DUP2 MSTORE PUSH1 0x4 ADD PUSH2 0x1A82 SWAP1 PUSH2 0x2B64 JUMP JUMPDEST PUSH1 0x40 MLOAD DUP1 SWAP2 SUB SWAP1 REVERT JUMPDEST PUSH1 0xA DUP5 MLOAD GT PUSH2 0x1ACF JUMPI PUSH1 0x40 MLOAD PUSH32 0x8C379A000000000000000000000000000000000000000000000000000000000 DUP2 MSTORE PUSH1 0x4 ADD PUSH2 0x1AC6 SWAP1 PUSH2 0x3324 JUMP JUMPDEST PUSH1 0x40 MLOAD DUP1 SWAP2 SUB SWAP1 REVERT JUMPDEST PUSH1 0x4 DUP6 MLOAD GT PUSH2 0x1B13 JUMPI PUSH1 0x40 MLOAD PUSH32 0x8C379A000000000000000000000000000000000000000000000000000000000 DUP2 MSTORE PUSH1 0x4 ADD PUSH2 0x1B0A SWAP1 PUSH2 0x338C JUMP JUMPDEST PUSH1 0x40 MLOAD DUP1 SWAP2 SUB SWAP1 REVERT JUMPDEST PUSH0 PUSH1 0x40 MLOAD DUP1 PUSH1 0xE0 ADD PUSH1 0x40 MSTORE DUP1 DUP8 DUP2 MSTORE PUSH1 0x20 ADD DUP7 DUP2 MSTORE PUSH1 0x20 ADD DUP6 DUP2 MSTORE PUSH1 0x20 ADD DUP5 DUP2 MSTORE PUSH1 0x20 ADD PUSH0 DUP2 MSTORE PUSH1 0x20 ADD PUSH0 DUP2 MSTORE PUSH1 0x20 ADD TIMESTAMP DUP2 MSTORE POP SWAP1 POP PUSH1 0x2 PUSH1 0x1 DUP2 PUSH1 0x1 DUP2 SLOAD ADD DUP1 DUP3 SSTORE DUP1 SWAP2 POP POP SUB SWAP1 PUSH0 MSTORE PUSH1 0x20 PUSH0 KECCAK256 POP POP PUSH1 0x2 PUSH1 0x1 PUSH1 0x2 DUP1 SLOAD SWAP1 POP PUSH2 0x1B78 SWAP2 SWAP1 PUSH2 0x33AA JUMP JUMPDEST DUP2 SLOAD DUP2 LT PUSH2 0x1B89 JUMPI PUSH2 0x1B88 PUSH2 0x2B82 JUMP JUMPDEST JUMPDEST SWAP1 PUSH0 MSTORE PUSH1 0x20 PUSH0 KECCAK256 ADD DUP2 SWAP1 DUP1 PUSH1 0x1 DUP2 SLOAD ADD DUP1 DUP3 SSTORE DUP1 SWAP2 POP POP PUSH1 0x1 SWAP1 SUB SWAP1 PUSH0 MSTORE PUSH1 0x20 PUSH0 KECCAK256 SWAP1 PUSH1 0x7 MUL ADD PUSH0 SWAP1 SWAP2 SWAP1 SWAP2 SWAP1 SWAP2 POP PUSH0 DUP3 ADD MLOAD DUP2 PUSH0 ADD SWAP1 DUP2 PUSH2 0x1BCB SWAP2 SWAP1 PUSH2 0x2DA9 JUMP JUMPDEST POP PUSH1 0x20 DUP3 ADD MLOAD DUP2 PUSH1 0x1 ADD SWAP1 DUP2 PUSH2 0x1BE1 SWAP2 SWAP1 PUSH2 0x2DA9 JUMP JUMPDEST POP PUSH1 0x40 DUP3 ADD MLOAD DUP2 PUSH1 0x2 ADD SWAP1 DUP1 MLOAD SWAP1 PUSH1 0x20 ADD SWAP1 PUSH2 0x1BFE SWAP3 SWAP2 SWAP1 PUSH2 0x20F6 JUMP JUMPDEST POP PUSH1 0x60 DUP3 ADD MLOAD DUP2 PUSH1 0x3 ADD SWAP1 DUP1 MLOAD SWAP1 PUSH1 0x20 ADD SWAP1 PUSH2 0x1C1B SWAP3 SWAP2 SWAP1 PUSH2 0x20F6 JUMP JUMPDEST POP PUSH1 0x80 DUP3 ADD MLOAD DUP2 PUSH1 0x4 ADD SSTORE PUSH1 0xA0 DUP3 ADD MLOAD DUP2 PUSH1 0x5 ADD SSTORE PUSH1 0xC0 DUP3 ADD MLOAD DUP2 PUSH1 0x6 ADD SSTORE POP POP PUSH1 0x3 PUSH0 DUP2 SLOAD DUP1 SWAP3 SWAP2 SWAP1 PUSH2 0x1C4E SWAP1 PUSH2 0x2FB5 JUMP JUMPDEST SWAP2 SWAP1 POP SSTORE POP PUSH1 0x1 DUP1 DUP2 PUSH1 0x1 DUP2 SLOAD ADD DUP1 DUP3 SSTORE DUP1 SWAP2 POP POP SUB SWAP1 PUSH0 MSTORE PUSH1 0x20 PUSH0 KECCAK256 POP POP PUSH1 0x1 PUSH1 0x2 DUP1 SLOAD SWAP1 POP PUSH2 0x1C7F SWAP2 SWAP1 PUSH2 0x33AA JUMP JUMPDEST PUSH32 0xFE55C2349D62DA6A9F59944B4BEC1E721FB08FAF486FB6758BDED48F8A70AD19 PUSH1 0x40 MLOAD PUSH1 0x40 MLOAD DUP1 SWAP2 SUB SWAP1 LOG2 PUSH1 0x1 PUSH1 0x2 DUP1 SLOAD SWAP1 POP PUSH2 0x1CBD SWAP2 SWAP1 PUSH2 0x33AA JUMP JUMPDEST SWAP2 POP POP SWAP5 SWAP4 POP POP POP POP JUMP JUMPDEST PUSH1 0x60 PUSH0 PUSH2 0x1CD4 DUP4 PUSH2 0x1CE8 JUMP JUMPDEST SWAP1 POP PUSH2 0x1CE0 DUP4 DUP3 PUSH2 0x15DE JUMP JUMPDEST SWAP2 POP POP SWAP2 SWAP1 POP JUMP JUMPDEST PUSH0 DUP1 PUSH0 SWAP1 POP PUSH0 JUMPDEST PUSH1 0x2 DUP5 DUP2 SLOAD DUP2 LT PUSH2 0x1D03 JUMPI PUSH2 0x1D02 PUSH2 0x2B82 JUMP JUMPDEST JUMPDEST SWAP1 PUSH0 MSTORE PUSH1 0x20 PUSH0 KECCAK256 ADD DUP1 SLOAD SWAP1 POP DUP2 LT ISZERO PUSH2 0x1DD2 JUMPI PUSH0 DUP1 PUSH2 0x1DA9 PUSH2 0x2710 PUSH1 0x2 DUP9 DUP2 SLOAD DUP2 LT PUSH2 0x1D32 JUMPI PUSH2 0x1D31 PUSH2 0x2B82 JUMP JUMPDEST JUMPDEST SWAP1 PUSH0 MSTORE PUSH1 0x20 PUSH0 KECCAK256 ADD DUP6 DUP2 SLOAD DUP2 LT PUSH2 0x1D4C JUMPI PUSH2 0x1D4B PUSH2 0x2B82 JUMP JUMPDEST JUMPDEST SWAP1 PUSH0 MSTORE PUSH1 0x20 PUSH0 KECCAK256 SWAP1 PUSH1 0x7 MUL ADD PUSH1 0x4 ADD SLOAD PUSH2 0x1D66 SWAP2 SWAP1 PUSH2 0x33DD JUMP JUMPDEST PUSH1 0x2 DUP9 DUP2 SLOAD DUP2 LT PUSH2 0x1D7A JUMPI PUSH2 0x1D79 PUSH2 0x2B82 JUMP JUMPDEST JUMPDEST SWAP1 PUSH0 MSTORE PUSH1 0x20 PUSH0 KECCAK256 ADD DUP6 DUP2 SLOAD DUP2 LT PUSH2 0x1D94 JUMPI PUSH2 0x1D93 PUSH2 0x2B82 JUMP JUMPDEST JUMPDEST SWAP1 PUSH0 MSTORE PUSH1 0x20 PUSH0 KECCAK256 SWAP1 PUSH1 0x7 MUL ADD PUSH1 0x5 ADD SLOAD PUSH2 0x1F4E JUMP JUMPDEST SWAP2 POP SWAP2 POP DUP2 DUP1 ISZERO PUSH2 0x1DBA JUMPI POP DUP4 DUP2 SLT ISZERO JUMPDEST ISZERO PUSH2 0x1DC3 JUMPI DUP3 SWAP5 POP JUMPDEST POP POP DUP1 DUP1 PUSH1 0x1 ADD SWAP2 POP POP PUSH2 0x1CEF JUMP JUMPDEST POP POP SWAP2 SWAP1 POP JUMP JUMPDEST PUSH0 PUSH11 0x636F6E736F6C652E6C6F67 SWAP1 POP PUSH0 DUP1 DUP4 MLOAD PUSH1 0x20 DUP6 ADD DUP5 GAS STATICCALL POP POP POP JUMP JUMPDEST PUSH1 0x60 PUSH0 PUSH1 0x1 PUSH2 0x1E06 DUP5 PUSH2 0x1F81 JUMP JUMPDEST ADD SWAP1 POP PUSH0 DUP2 PUSH8 0xFFFFFFFFFFFFFFFF DUP2 GT ISZERO PUSH2 0x1E24 JUMPI PUSH2 0x1E23 PUSH2 0x225E JUMP JUMPDEST JUMPDEST PUSH1 0x40 MLOAD SWAP1 DUP1 DUP3 MSTORE DUP1 PUSH1 0x1F ADD PUSH1 0x1F NOT AND PUSH1 0x20 ADD DUP3 ADD PUSH1 0x40 MSTORE DUP1 ISZERO PUSH2 0x1E56 JUMPI DUP2 PUSH1 0x20 ADD PUSH1 0x1 DUP3 MUL DUP1 CALLDATASIZE DUP4 CALLDATACOPY DUP1 DUP3 ADD SWAP2 POP POP SWAP1 POP JUMPDEST POP SWAP1 POP PUSH0 DUP3 PUSH1 0x20 ADD DUP3 ADD SWAP1 POP JUMPDEST PUSH1 0x1 ISZERO PUSH2 0x1EB7 JUMPI DUP1 DUP1 PUSH1 0x1 SWAP1 SUB SWAP2 POP POP PUSH32 0x3031323334353637383961626364656600000000000000000000000000000000 PUSH1 0xA DUP7 MOD BYTE DUP2 MSTORE8 PUSH1 0xA DUP6 DUP2 PUSH2 0x1EAC JUMPI PUSH2 0x1EAB PUSH2 0x3453 JUMP JUMPDEST JUMPDEST DIV SWAP5 POP PUSH0 DUP6 SUB PUSH2 0x1E63 JUMPI JUMPDEST DUP2 SWAP4 POP POP POP POP SWAP2 SWAP1 POP JUMP JUMPDEST PUSH1 0x60 PUSH0 DUP3 SLT PUSH2 0x1EDF JUMPI PUSH1 0x40 MLOAD DUP1 PUSH1 0x20 ADD PUSH1 0x40 MSTORE DUP1 PUSH0 DUP2 MSTORE POP PUSH2 0x1F16 JUMP JUMPDEST PUSH1 0x40 MLOAD DUP1 PUSH1 0x40 ADD PUSH1 0x40 MSTORE DUP1 PUSH1 0x1 DUP2 MSTORE PUSH1 0x20 ADD PUSH32 0x2D00000000000000000000000000000000000000000000000000000000000000 DUP2 MSTORE POP JUMPDEST PUSH2 0x1F27 PUSH2 0x1F22 DUP5 PUSH2 0x20D2 JUMP JUMPDEST PUSH2 0x1DF8 JUMP JUMPDEST PUSH1 0x40 MLOAD PUSH1 0x20 ADD PUSH2 0x1F38 SWAP3 SWAP2 SWAP1 PUSH2 0x3480 JUMP JUMPDEST PUSH1 0x40 MLOAD PUSH1 0x20 DUP2 DUP4 SUB SUB DUP2 MSTORE SWAP1 PUSH1 0x40 MSTORE SWAP1 POP SWAP2 SWAP1 POP JUMP JUMPDEST PUSH0 DUP1 PUSH0 DUP4 SUB PUSH2 0x1F62 JUMPI PUSH0 DUP1 SWAP2 POP SWAP2 POP PUSH2 0x1F7A JUMP JUMPDEST PUSH1 0x1 DUP4 DUP6 DUP2 PUSH2 0x1F74 JUMPI PUSH2 0x1F73 PUSH2 0x3453 JUMP JUMPDEST JUMPDEST SDIV SWAP2 POP SWAP2 POP JUMPDEST SWAP3 POP SWAP3 SWAP1 POP JUMP JUMPDEST PUSH0 DUP1 PUSH0 SWAP1 POP PUSH27 0x184F03E93FF9F4DAA797ED6E38ED64BF6A1F010000000000000000 DUP4 LT PUSH2 0x1FDD JUMPI PUSH27 0x184F03E93FF9F4DAA797ED6E38ED64BF6A1F010000000000000000 DUP4 DUP2 PUSH2 0x1FD3 JUMPI PUSH2 0x1FD2 PUSH2 0x3453 JUMP JUMPDEST JUMPDEST DIV SWAP3 POP PUSH1 0x40 DUP2 ADD SWAP1 POP JUMPDEST PUSH14 0x4EE2D6D415B85ACEF8100000000 DUP4 LT PUSH2 0x201A JUMPI PUSH14 0x4EE2D6D415B85ACEF8100000000 DUP4 DUP2 PUSH2 0x2010 JUMPI PUSH2 0x200F PUSH2 0x3453 JUMP JUMPDEST JUMPDEST DIV SWAP3 POP PUSH1 0x20 DUP2 ADD SWAP1 POP JUMPDEST PUSH7 0x2386F26FC10000 DUP4 LT PUSH2 0x2049 JUMPI PUSH7 0x2386F26FC10000 DUP4 DUP2 PUSH2 0x203F JUMPI PUSH2 0x203E PUSH2 0x3453 JUMP JUMPDEST JUMPDEST DIV SWAP3 POP PUSH1 0x10 DUP2 ADD SWAP1 POP JUMPDEST PUSH4 0x5F5E100 DUP4 LT PUSH2 0x2072 JUMPI PUSH4 0x5F5E100 DUP4 DUP2 PUSH2 0x2068 JUMPI PUSH2 0x2067 PUSH2 0x3453 JUMP JUMPDEST JUMPDEST DIV SWAP3 POP PUSH1 0x8 DUP2 ADD SWAP1 POP JUMPDEST PUSH2 0x2710 DUP4 LT PUSH2 0x2097 JUMPI PUSH2 0x2710 DUP4 DUP2 PUSH2 0x208D JUMPI PUSH2 0x208C PUSH2 0x3453 JUMP JUMPDEST JUMPDEST DIV SWAP3 POP PUSH1 0x4 DUP2 ADD SWAP1 POP JUMPDEST PUSH1 0x64 DUP4 LT PUSH2 0x20BA JUMPI PUSH1 0x64 DUP4 DUP2 PUSH2 0x20B0 JUMPI PUSH2 0x20AF PUSH2 0x3453 JUMP JUMPDEST JUMPDEST DIV SWAP3 POP PUSH1 0x2 DUP2 ADD SWAP1 POP JUMPDEST PUSH1 0xA DUP4 LT PUSH2 0x20C9 JUMPI PUSH1 0x1 DUP2 ADD SWAP1 POP JUMPDEST DUP1 SWAP2 POP POP SWAP2 SWAP1 POP JUMP JUMPDEST PUSH0 DUP1 DUP3 SLT ISZERO PUSH2 0x20E3 JUMPI DUP2 PUSH0 SUB PUSH2 0x20E5 JUMP JUMPDEST DUP2 JUMPDEST SWAP1 POP SWAP2 SWAP1 POP JUMP JUMPDEST PUSH2 0x20F4 PUSH2 0x34A3 JUMP JUMPDEST JUMP JUMPDEST DUP3 DUP1 SLOAD DUP3 DUP3 SSTORE SWAP1 PUSH0 MSTORE PUSH1 0x20 PUSH0 KECCAK256 SWAP1 DUP2 ADD SWAP3 DUP3 ISZERO PUSH2 0x213C JUMPI SWAP2 PUSH1 0x20 MUL DUP3 ADD JUMPDEST DUP3 DUP2 GT ISZERO PUSH2 0x213B JUMPI DUP3 MLOAD DUP3 SWAP1 DUP2 PUSH2 0x212B SWAP2 SWAP1 PUSH2 0x2DA9 JUMP JUMPDEST POP SWAP2 PUSH1 0x20 ADD SWAP2 SWAP1 PUSH1 0x1 ADD SWAP1 PUSH2 0x2114 JUMP JUMPDEST JUMPDEST POP SWAP1 POP PUSH2 0x2149 SWAP2 SWAP1 PUSH2 0x2187 JUMP JUMPDEST POP SWAP1 JUMP JUMPDEST PUSH1 0x40 MLOAD DUP1 PUSH1 0xE0 ADD PUSH1 0x40 MSTORE DUP1 PUSH1 0x60 DUP2 MSTORE PUSH1 0x20 ADD PUSH1 0x60 DUP2 MSTORE PUSH1 0x20 ADD PUSH1 0x60 DUP2 MSTORE PUSH1 0x20 ADD PUSH1 0x60 DUP2 MSTORE PUSH1 0x20 ADD PUSH0 DUP2 MSTORE PUSH1 0x20 ADD PUSH0 DUP2 MSTORE PUSH1 0x20 ADD PUSH0 DUP2 MSTORE POP SWAP1 JUMP JUMPDEST JUMPDEST DUP1 DUP3 GT ISZERO PUSH2 0x21A6 JUMPI PUSH0 DUP2 DUP2 PUSH2 0x219D SWAP2 SWAP1 PUSH2 0x21AA JUMP JUMPDEST POP PUSH1 0x1 ADD PUSH2 0x2188 JUMP JUMPDEST POP SWAP1 JUMP JUMPDEST POP DUP1 SLOAD PUSH2 0x21B6 SWAP1 PUSH2 0x2BDC JUMP JUMPDEST PUSH0 DUP3 SSTORE DUP1 PUSH1 0x1F LT PUSH2 0x21C7 JUMPI POP PUSH2 0x21E4 JUMP JUMPDEST PUSH1 0x1F ADD PUSH1 0x20 SWAP1 DIV SWAP1 PUSH0 MSTORE PUSH1 0x20 PUSH0 KECCAK256 SWAP1 DUP2 ADD SWAP1 PUSH2 0x21E3 SWAP2 SWAP1 PUSH2 0x21E7 JUMP JUMPDEST JUMPDEST POP JUMP JUMPDEST JUMPDEST DUP1 DUP3 GT ISZERO PUSH2 0x21FE JUMPI PUSH0 DUP2 PUSH0 SWAP1 SSTORE POP PUSH1 0x1 ADD PUSH2 0x21E8 JUMP JUMPDEST POP SWAP1 JUMP JUMPDEST PUSH0 PUSH1 0x40 MLOAD SWAP1 POP SWAP1 JUMP JUMPDEST PUSH0 DUP1 REVERT JUMPDEST PUSH0 DUP1 REVERT JUMPDEST PUSH0 DUP2 SWAP1 POP SWAP2 SWAP1 POP JUMP JUMPDEST PUSH2 0x2225 DUP2 PUSH2 0x2213 JUMP JUMPDEST DUP2 EQ PUSH2 0x222F JUMPI PUSH0 DUP1 REVERT JUMPDEST POP JUMP JUMPDEST PUSH0 DUP2 CALLDATALOAD SWAP1 POP PUSH2 0x2240 DUP2 PUSH2 0x221C JUMP JUMPDEST SWAP3 SWAP2 POP POP JUMP JUMPDEST PUSH0 DUP1 REVERT JUMPDEST PUSH0 DUP1 REVERT JUMPDEST PUSH0 PUSH1 0x1F NOT PUSH1 0x1F DUP4 ADD AND SWAP1 POP SWAP2 SWAP1 POP JUMP JUMPDEST PUSH32 0x4E487B7100000000000000000000000000000000000000000000000000000000 PUSH0 MSTORE PUSH1 0x41 PUSH1 0x4 MSTORE PUSH1 0x24 PUSH0 REVERT JUMPDEST PUSH2 0x2294 DUP3 PUSH2 0x224E JUMP JUMPDEST DUP2 ADD DUP2 DUP2 LT PUSH8 0xFFFFFFFFFFFFFFFF DUP3 GT OR ISZERO PUSH2 0x22B3 JUMPI PUSH2 0x22B2 PUSH2 0x225E JUMP JUMPDEST JUMPDEST DUP1 PUSH1 0x40 MSTORE POP POP POP JUMP JUMPDEST PUSH0 PUSH2 0x22C5 PUSH2 0x2202 JUMP JUMPDEST SWAP1 POP PUSH2 0x22D1 DUP3 DUP3 PUSH2 0x228B JUMP JUMPDEST SWAP2 SWAP1 POP JUMP JUMPDEST PUSH0 PUSH8 0xFFFFFFFFFFFFFFFF DUP3 GT ISZERO PUSH2 0x22F0 JUMPI PUSH2 0x22EF PUSH2 0x225E JUMP JUMPDEST JUMPDEST PUSH2 0x22F9 DUP3 PUSH2 0x224E JUMP JUMPDEST SWAP1 POP PUSH1 0x20 DUP2 ADD SWAP1 POP SWAP2 SWAP1 POP JUMP JUMPDEST DUP3 DUP2 DUP4 CALLDATACOPY PUSH0 DUP4 DUP4 ADD MSTORE POP POP POP JUMP JUMPDEST PUSH0 PUSH2 0x2326 PUSH2 0x2321 DUP5 PUSH2 0x22D6 JUMP JUMPDEST PUSH2 0x22BC JUMP JUMPDEST SWAP1 POP DUP3 DUP2 MSTORE PUSH1 0x20 DUP2 ADD DUP5 DUP5 DUP5 ADD GT ISZERO PUSH2 0x2342 JUMPI PUSH2 0x2341 PUSH2 0x224A JUMP JUMPDEST JUMPDEST PUSH2 0x234D DUP5 DUP3 DUP6 PUSH2 0x2306 JUMP JUMPDEST POP SWAP4 SWAP3 POP POP POP JUMP JUMPDEST PUSH0 DUP3 PUSH1 0x1F DUP4 ADD SLT PUSH2 0x2369 JUMPI PUSH2 0x2368 PUSH2 0x2246 JUMP JUMPDEST JUMPDEST DUP2 CALLDATALOAD PUSH2 0x2379 DUP5 DUP3 PUSH1 0x20 DUP7 ADD PUSH2 0x2314 JUMP JUMPDEST SWAP2 POP POP SWAP3 SWAP2 POP POP JUMP JUMPDEST PUSH0 PUSH8 0xFFFFFFFFFFFFFFFF DUP3 GT ISZERO PUSH2 0x239C JUMPI PUSH2 0x239B PUSH2 0x225E JUMP JUMPDEST JUMPDEST PUSH1 0x20 DUP3 MUL SWAP1 POP PUSH1 0x20 DUP2 ADD SWAP1 POP SWAP2 SWAP1 POP JUMP JUMPDEST PUSH0 DUP1 REVERT JUMPDEST PUSH0 PUSH2 0x23C3 PUSH2 0x23BE DUP5 PUSH2 0x2382 JUMP JUMPDEST PUSH2 0x22BC JUMP JUMPDEST SWAP1 POP DUP1 DUP4 DUP3 MSTORE PUSH1 0x20 DUP3 ADD SWAP1 POP PUSH1 0x20 DUP5 MUL DUP4 ADD DUP6 DUP2 GT ISZERO PUSH2 0x23E6 JUMPI PUSH2 0x23E5 PUSH2 0x23AD JUMP JUMPDEST JUMPDEST DUP4 JUMPDEST DUP2 DUP2 LT ISZERO PUSH2 0x242D JUMPI DUP1 CALLDATALOAD PUSH8 0xFFFFFFFFFFFFFFFF DUP2 GT ISZERO PUSH2 0x240B JUMPI PUSH2 0x240A PUSH2 0x2246 JUMP JUMPDEST JUMPDEST DUP1 DUP7 ADD PUSH2 0x2418 DUP10 DUP3 PUSH2 0x2355 JUMP JUMPDEST DUP6 MSTORE PUSH1 0x20 DUP6 ADD SWAP5 POP POP POP PUSH1 0x20 DUP2 ADD SWAP1 POP PUSH2 0x23E8 JUMP JUMPDEST POP POP POP SWAP4 SWAP3 POP POP POP JUMP JUMPDEST PUSH0 DUP3 PUSH1 0x1F DUP4 ADD SLT PUSH2 0x244B JUMPI PUSH2 0x244A PUSH2 0x2246 JUMP JUMPDEST JUMPDEST DUP2 CALLDATALOAD PUSH2 0x245B DUP5 DUP3 PUSH1 0x20 DUP7 ADD PUSH2 0x23B1 JUMP JUMPDEST SWAP2 POP POP SWAP3 SWAP2 POP POP JUMP JUMPDEST PUSH0 DUP1 PUSH0 DUP1 PUSH1 0x80 DUP6 DUP8 SUB SLT ISZERO PUSH2 0x247C JUMPI PUSH2 0x247B PUSH2 0x220B JUMP JUMPDEST JUMPDEST PUSH0 PUSH2 0x2489 DUP8 DUP3 DUP9 ADD PUSH2 0x2232 JUMP JUMPDEST SWAP5 POP POP PUSH1 0x20 DUP6 ADD CALLDATALOAD PUSH8 0xFFFFFFFFFFFFFFFF DUP2 GT ISZERO PUSH2 0x24AA JUMPI PUSH2 0x24A9 PUSH2 0x220F JUMP JUMPDEST JUMPDEST PUSH2 0x24B6 DUP8 DUP3 DUP9 ADD PUSH2 0x2355 JUMP JUMPDEST SWAP4 POP POP PUSH1 0x40 DUP6 ADD CALLDATALOAD PUSH8 0xFFFFFFFFFFFFFFFF DUP2 GT ISZERO PUSH2 0x24D7 JUMPI PUSH2 0x24D6 PUSH2 0x220F JUMP JUMPDEST JUMPDEST PUSH2 0x24E3 DUP8 DUP3 DUP9 ADD PUSH2 0x2437 JUMP JUMPDEST SWAP3 POP POP PUSH1 0x60 DUP6 ADD CALLDATALOAD PUSH8 0xFFFFFFFFFFFFFFFF DUP2 GT ISZERO PUSH2 0x2504 JUMPI PUSH2 0x2503 PUSH2 0x220F JUMP JUMPDEST JUMPDEST PUSH2 0x2510 DUP8 DUP3 DUP9 ADD PUSH2 0x2437 JUMP JUMPDEST SWAP2 POP POP SWAP3 SWAP6 SWAP2 SWAP5 POP SWAP3 POP JUMP JUMPDEST PUSH0 DUP1 PUSH1 0x40 DUP4 DUP6 SUB SLT ISZERO PUSH2 0x2532 JUMPI PUSH2 0x2531 PUSH2 0x220B JUMP JUMPDEST JUMPDEST PUSH0 PUSH2 0x253F DUP6 DUP3 DUP7 ADD PUSH2 0x2232 JUMP JUMPDEST SWAP3 POP POP PUSH1 0x20 PUSH2 0x2550 DUP6 DUP3 DUP7 ADD PUSH2 0x2232 JUMP JUMPDEST SWAP2 POP POP SWAP3 POP SWAP3 SWAP1 POP JUMP JUMPDEST PUSH0 DUP2 MLOAD SWAP1 POP SWAP2 SWAP1 POP JUMP JUMPDEST PUSH0 DUP3 DUP3 MSTORE PUSH1 0x20 DUP3 ADD SWAP1 POP SWAP3 SWAP2 POP POP JUMP JUMPDEST PUSH0 JUMPDEST DUP4 DUP2 LT ISZERO PUSH2 0x2591 JUMPI DUP1 DUP3 ADD MLOAD DUP2 DUP5 ADD MSTORE PUSH1 0x20 DUP2 ADD SWAP1 POP PUSH2 0x2576 JUMP JUMPDEST PUSH0 DUP5 DUP5 ADD MSTORE POP POP POP POP JUMP JUMPDEST PUSH0 PUSH2 0x25A6 DUP3 PUSH2 0x255A JUMP JUMPDEST PUSH2 0x25B0 DUP2 DUP6 PUSH2 0x2564 JUMP JUMPDEST SWAP4 POP PUSH2 0x25C0 DUP2 DUP6 PUSH1 0x20 DUP7 ADD PUSH2 0x2574 JUMP JUMPDEST PUSH2 0x25C9 DUP2 PUSH2 0x224E JUMP JUMPDEST DUP5 ADD SWAP2 POP POP SWAP3 SWAP2 POP POP JUMP JUMPDEST PUSH0 DUP2 MLOAD SWAP1 POP SWAP2 SWAP1 POP JUMP JUMPDEST PUSH0 DUP3 DUP3 MSTORE PUSH1 0x20 DUP3 ADD SWAP1 POP SWAP3 SWAP2 POP POP JUMP JUMPDEST PUSH0 DUP2 SWAP1 POP PUSH1 0x20 DUP3 ADD SWAP1 POP SWAP2 SWAP1 POP JUMP JUMPDEST PUSH0 PUSH2 0x2608 DUP4 DUP4 PUSH2 0x259C JUMP JUMPDEST SWAP1 POP SWAP3 SWAP2 POP POP JUMP JUMPDEST PUSH0 PUSH1 0x20 DUP3 ADD SWAP1 POP SWAP2 SWAP1 POP JUMP JUMPDEST PUSH0 PUSH2 0x2626 DUP3 PUSH2 0x25D4 JUMP JUMPDEST PUSH2 0x2630 DUP2 DUP6 PUSH2 0x25DE JUMP JUMPDEST SWAP4 POP DUP4 PUSH1 0x20 DUP3 MUL DUP6 ADD PUSH2 0x2642 DUP6 PUSH2 0x25EE JUMP JUMPDEST DUP1 PUSH0 JUMPDEST DUP6 DUP2 LT ISZERO PUSH2 0x267D JUMPI DUP5 DUP5 SUB DUP10 MSTORE DUP2 MLOAD PUSH2 0x265E DUP6 DUP3 PUSH2 0x25FD JUMP JUMPDEST SWAP5 POP PUSH2 0x2669 DUP4 PUSH2 0x2610 JUMP JUMPDEST SWAP3 POP PUSH1 0x20 DUP11 ADD SWAP10 POP POP PUSH1 0x1 DUP2 ADD SWAP1 POP PUSH2 0x2645 JUMP JUMPDEST POP DUP3 SWAP8 POP DUP8 SWAP6 POP POP POP POP POP POP SWAP3 SWAP2 POP POP JUMP JUMPDEST PUSH0 DUP2 SWAP1 POP SWAP2 SWAP1 POP JUMP JUMPDEST PUSH2 0x26A1 DUP2 PUSH2 0x268F JUMP JUMPDEST DUP3 MSTORE POP POP JUMP JUMPDEST PUSH2 0x26B0 DUP2 PUSH2 0x2213 JUMP JUMPDEST DUP3 MSTORE POP POP JUMP JUMPDEST PUSH0 PUSH1 0xE0 DUP4 ADD PUSH0 DUP4 ADD MLOAD DUP5 DUP3 SUB PUSH0 DUP7 ADD MSTORE PUSH2 0x26D0 DUP3 DUP3 PUSH2 0x259C JUMP JUMPDEST SWAP2 POP POP PUSH1 0x20 DUP4 ADD MLOAD DUP5 DUP3 SUB PUSH1 0x20 DUP7 ADD MSTORE PUSH2 0x26EA DUP3 DUP3 PUSH2 0x259C JUMP JUMPDEST SWAP2 POP POP PUSH1 0x40 DUP4 ADD MLOAD DUP5 DUP3 SUB PUSH1 0x40 DUP7 ADD MSTORE PUSH2 0x2704 DUP3 DUP3 PUSH2 0x261C JUMP JUMPDEST SWAP2 POP POP PUSH1 0x60 DUP4 ADD MLOAD DUP5 DUP3 SUB PUSH1 0x60 DUP7 ADD MSTORE PUSH2 0x271E DUP3 DUP3 PUSH2 0x261C JUMP JUMPDEST SWAP2 POP POP PUSH1 0x80 DUP4 ADD MLOAD PUSH2 0x2733 PUSH1 0x80 DUP7 ADD DUP3 PUSH2 0x2698 JUMP JUMPDEST POP PUSH1 0xA0 DUP4 ADD MLOAD PUSH2 0x2746 PUSH1 0xA0 DUP7 ADD DUP3 PUSH2 0x26A7 JUMP JUMPDEST POP PUSH1 0xC0 DUP4 ADD MLOAD PUSH2 0x2759 PUSH1 0xC0 DUP7 ADD DUP3 PUSH2 0x26A7 JUMP JUMPDEST POP DUP1 SWAP2 POP POP SWAP3 SWAP2 POP POP JUMP JUMPDEST PUSH0 PUSH1 0x20 DUP3 ADD SWAP1 POP DUP2 DUP2 SUB PUSH0 DUP4 ADD MSTORE PUSH2 0x277C DUP2 DUP5 PUSH2 0x26B6 JUMP JUMPDEST SWAP1 POP SWAP3 SWAP2 POP POP JUMP JUMPDEST PUSH2 0x278D DUP2 PUSH2 0x268F JUMP JUMPDEST DUP2 EQ PUSH2 0x2797 JUMPI PUSH0 DUP1 REVERT JUMPDEST POP JUMP JUMPDEST PUSH0 DUP2 CALLDATALOAD SWAP1 POP PUSH2 0x27A8 DUP2 PUSH2 0x2784 JUMP JUMPDEST SWAP3 SWAP2 POP POP JUMP JUMPDEST PUSH0 DUP1 PUSH0 PUSH1 0x60 DUP5 DUP7 SUB SLT ISZERO PUSH2 0x27C5 JUMPI PUSH2 0x27C4 PUSH2 0x220B JUMP JUMPDEST JUMPDEST PUSH0 PUSH2 0x27D2 DUP7 DUP3 DUP8 ADD PUSH2 0x2232 JUMP JUMPDEST SWAP4 POP POP PUSH1 0x20 PUSH2 0x27E3 DUP7 DUP3 DUP8 ADD PUSH2 0x2232 JUMP JUMPDEST SWAP3 POP POP PUSH1 0x40 PUSH2 0x27F4 DUP7 DUP3 DUP8 ADD PUSH2 0x279A JUMP JUMPDEST SWAP2 POP POP SWAP3 POP SWAP3 POP SWAP3 JUMP JUMPDEST PUSH0 PUSH1 0x20 DUP3 DUP5 SUB SLT ISZERO PUSH2 0x2813 JUMPI PUSH2 0x2812 PUSH2 0x220B JUMP JUMPDEST JUMPDEST PUSH0 PUSH2 0x2820 DUP5 DUP3 DUP6 ADD PUSH2 0x2232 JUMP JUMPDEST SWAP2 POP POP SWAP3 SWAP2 POP POP JUMP JUMPDEST PUSH0 DUP3 DUP3 MSTORE PUSH1 0x20 DUP3 ADD SWAP1 POP SWAP3 SWAP2 POP POP JUMP JUMPDEST PUSH0 PUSH2 0x2843 DUP3 PUSH2 0x255A JUMP JUMPDEST PUSH2 0x284D DUP2 DUP6 PUSH2 0x2829 JUMP JUMPDEST SWAP4 POP PUSH2 0x285D DUP2 DUP6 PUSH1 0x20 DUP7 ADD PUSH2 0x2574 JUMP JUMPDEST PUSH2 0x2866 DUP2 PUSH2 0x224E JUMP JUMPDEST DUP5 ADD SWAP2 POP POP SWAP3 SWAP2 POP POP JUMP JUMPDEST PUSH0 PUSH1 0x20 DUP3 ADD SWAP1 POP DUP2 DUP2 SUB PUSH0 DUP4 ADD MSTORE PUSH2 0x2889 DUP2 DUP5 PUSH2 0x2839 JUMP JUMPDEST SWAP1 POP SWAP3 SWAP2 POP POP JUMP JUMPDEST PUSH0 DUP1 PUSH0 DUP1 PUSH1 0x80 DUP6 DUP8 SUB SLT ISZERO PUSH2 0x28A9 JUMPI PUSH2 0x28A8 PUSH2 0x220B JUMP JUMPDEST JUMPDEST PUSH0 PUSH2 0x28B6 DUP8 DUP3 DUP9 ADD PUSH2 0x2232 JUMP JUMPDEST SWAP5 POP POP PUSH1 0x20 PUSH2 0x28C7 DUP8 DUP3 DUP9 ADD PUSH2 0x2232 JUMP JUMPDEST SWAP4 POP POP PUSH1 0x40 PUSH2 0x28D8 DUP8 DUP3 DUP9 ADD PUSH2 0x2232 JUMP JUMPDEST SWAP3 POP POP PUSH1 0x60 DUP6 ADD CALLDATALOAD PUSH8 0xFFFFFFFFFFFFFFFF DUP2 GT ISZERO PUSH2 0x28F9 JUMPI PUSH2 0x28F8 PUSH2 0x220F JUMP JUMPDEST JUMPDEST PUSH2 0x2905 DUP8 DUP3 DUP9 ADD PUSH2 0x2355 JUMP JUMPDEST SWAP2 POP POP SWAP3 SWAP6 SWAP2 SWAP5 POP SWAP3 POP JUMP JUMPDEST PUSH2 0x291A DUP2 PUSH2 0x2213 JUMP JUMPDEST DUP3 MSTORE POP POP JUMP JUMPDEST PUSH0 PUSH1 0x20 DUP3 ADD SWAP1 POP PUSH2 0x2933 PUSH0 DUP4 ADD DUP5 PUSH2 0x2911 JUMP JUMPDEST SWAP3 SWAP2 POP POP JUMP JUMPDEST PUSH0 PUSH20 0xFFFFFFFFFFFFFFFFFFFFFFFFFFFFFFFFFFFFFFFF DUP3 AND SWAP1 POP SWAP2 SWAP1 POP JUMP JUMPDEST PUSH0 PUSH2 0x2962 DUP3 PUSH2 0x2939 JUMP JUMPDEST SWAP1 POP SWAP2 SWAP1 POP JUMP JUMPDEST PUSH2 0x2972 DUP2 PUSH2 0x2958 JUMP JUMPDEST DUP3 MSTORE POP POP JUMP JUMPDEST PUSH0 PUSH1 0x20 DUP3 ADD SWAP1 POP PUSH2 0x298B PUSH0 DUP4 ADD DUP5 PUSH2 0x2969 JUMP JUMPDEST SWAP3 SWAP2 POP POP JUMP JUMPDEST PUSH2 0x299A DUP2 PUSH2 0x2958 JUMP JUMPDEST DUP2 EQ PUSH2 0x29A4 JUMPI PUSH0 DUP1 REVERT JUMPDEST POP JUMP JUMPDEST PUSH0 DUP2 CALLDATALOAD SWAP1 POP PUSH2 0x29B5 DUP2 PUSH2 0x2991 JUMP JUMPDEST SWAP3 SWAP2 POP POP JUMP JUMPDEST PUSH0 PUSH1 0x20 DUP3 DUP5 SUB SLT ISZERO PUSH2 0x29D0 JUMPI PUSH2 0x29CF PUSH2 0x220B JUMP JUMPDEST JUMPDEST PUSH0 PUSH2 0x29DD DUP5 DUP3 DUP6 ADD PUSH2 0x29A7 JUMP JUMPDEST SWAP2 POP POP SWAP3 SWAP2 POP POP JUMP JUMPDEST PUSH0 DUP1 PUSH0 DUP1 PUSH1 0x80 DUP6 DUP8 SUB SLT ISZERO PUSH2 0x29FE JUMPI PUSH2 0x29FD PUSH2 0x220B JUMP JUMPDEST JUMPDEST PUSH0 DUP6 ADD CALLDATALOAD PUSH8 0xFFFFFFFFFFFFFFFF DUP2 GT ISZERO PUSH2 0x2A1B JUMPI PUSH2 0x2A1A PUSH2 0x220F JUMP JUMPDEST JUMPDEST PUSH2 0x2A27 DUP8 DUP3 DUP9 ADD PUSH2 0x2355 JUMP JUMPDEST SWAP5 POP POP PUSH1 0x20 DUP6 ADD CALLDATALOAD PUSH8 0xFFFFFFFFFFFFFFFF DUP2 GT ISZERO PUSH2 0x2A48 JUMPI PUSH2 0x2A47 PUSH2 0x220F JUMP JUMPDEST JUMPDEST PUSH2 0x2A54 DUP8 DUP3 DUP9 ADD PUSH2 0x2355 JUMP JUMPDEST SWAP4 POP POP PUSH1 0x40 DUP6 ADD CALLDATALOAD PUSH8 0xFFFFFFFFFFFFFFFF DUP2 GT ISZERO PUSH2 0x2A75 JUMPI PUSH2 0x2A74 PUSH2 0x220F JUMP JUMPDEST JUMPDEST PUSH2 0x2A81 DUP8 DUP3 DUP9 ADD PUSH2 0x2437 JUMP JUMPDEST SWAP3 POP POP PUSH1 0x60 DUP6 ADD CALLDATALOAD PUSH8 0xFFFFFFFFFFFFFFFF DUP2 GT ISZERO PUSH2 0x2AA2 JUMPI PUSH2 0x2AA1 PUSH2 0x220F JUMP JUMPDEST JUMPDEST PUSH2 0x2AAE DUP8 DUP3 DUP9 ADD PUSH2 0x2437 JUMP JUMPDEST SWAP2 POP POP SWAP3 SWAP6 SWAP2 SWAP5 POP SWAP3 POP JUMP JUMPDEST PUSH0 DUP2 ISZERO ISZERO SWAP1 POP SWAP2 SWAP1 POP JUMP JUMPDEST PUSH2 0x2ACE DUP2 PUSH2 0x2ABA JUMP JUMPDEST DUP2 EQ PUSH2 0x2AD8 JUMPI PUSH0 DUP1 REVERT JUMPDEST POP JUMP JUMPDEST PUSH0 DUP2 MLOAD SWAP1 POP PUSH2 0x2AE9 DUP2 PUSH2 0x2AC5 JUMP JUMPDEST SWAP3 SWAP2 POP POP JUMP JUMPDEST PUSH0 PUSH1 0x20 DUP3 DUP5 SUB SLT ISZERO PUSH2 0x2B04 JUMPI PUSH2 0x2B03 PUSH2 0x220B JUMP JUMPDEST JUMPDEST PUSH0 PUSH2 0x2B11 DUP5 DUP3 DUP6 ADD PUSH2 0x2ADB JUMP JUMPDEST SWAP2 POP POP SWAP3 SWAP2 POP POP JUMP JUMPDEST PUSH32 0x4E4F545F415F434954495A454E00000000000000000000000000000000000000 PUSH0 DUP3 ADD MSTORE POP JUMP JUMPDEST PUSH0 PUSH2 0x2B4E PUSH1 0xD DUP4 PUSH2 0x2829 JUMP JUMPDEST SWAP2 POP PUSH2 0x2B59 DUP3 PUSH2 0x2B1A JUMP JUMPDEST PUSH1 0x20 DUP3 ADD SWAP1 POP SWAP2 SWAP1 POP JUMP JUMPDEST PUSH0 PUSH1 0x20 DUP3 ADD SWAP1 POP DUP2 DUP2 SUB PUSH0 DUP4 ADD MSTORE PUSH2 0x2B7B DUP2 PUSH2 0x2B42 JUMP JUMPDEST SWAP1 POP SWAP2 SWAP1 POP JUMP JUMPDEST PUSH32 0x4E487B7100000000000000000000000000000000000000000000000000000000 PUSH0 MSTORE PUSH1 0x32 PUSH1 0x4 MSTORE PUSH1 0x24 PUSH0 REVERT JUMPDEST PUSH32 0x4E487B7100000000000000000000000000000000000000000000000000000000 PUSH0 MSTORE PUSH1 0x22 PUSH1 0x4 MSTORE PUSH1 0x24 PUSH0 REVERT JUMPDEST PUSH0 PUSH1 0x2 DUP3 DIV SWAP1 POP PUSH1 0x1 DUP3 AND DUP1 PUSH2 0x2BF3 JUMPI PUSH1 0x7F DUP3 AND SWAP2 POP JUMPDEST PUSH1 0x20 DUP3 LT DUP2 SUB PUSH2 0x2C06 JUMPI PUSH2 0x2C05 PUSH2 0x2BAF JUMP JUMPDEST JUMPDEST POP SWAP2 SWAP1 POP JUMP JUMPDEST PUSH0 DUP2 SWAP1 POP DUP2 PUSH0 MSTORE PUSH1 0x20 PUSH0 KECCAK256 SWAP1 POP SWAP2 SWAP1 POP JUMP JUMPDEST PUSH0 PUSH1 0x20 PUSH1 0x1F DUP4 ADD DIV SWAP1 POP SWAP2 SWAP1 POP JUMP JUMPDEST PUSH0 DUP3 DUP3 SHL SWAP1 POP SWAP3 SWAP2 POP POP JUMP JUMPDEST PUSH0 PUSH1 0x8 DUP4 MUL PUSH2 0x2C68 PUSH32 0xFFFFFFFFFFFFFFFFFFFFFFFFFFFFFFFFFFFFFFFFFFFFFFFFFFFFFFFFFFFFFFFF DUP3 PUSH2 0x2C2D JUMP JUMPDEST PUSH2 0x2C72 DUP7 DUP4 PUSH2 0x2C2D JUMP JUMPDEST SWAP6 POP DUP1 NOT DUP5 AND SWAP4 POP DUP1 DUP7 AND DUP5 OR SWAP3 POP POP POP SWAP4 SWAP3 POP POP POP JUMP JUMPDEST PUSH0 DUP2 SWAP1 POP SWAP2 SWAP1 POP JUMP JUMPDEST PUSH0 PUSH2 0x2CAD PUSH2 0x2CA8 PUSH2 0x2CA3 DUP5 PUSH2 0x2213 JUMP JUMPDEST PUSH2 0x2C8A JUMP JUMPDEST PUSH2 0x2213 JUMP JUMPDEST SWAP1 POP SWAP2 SWAP1 POP JUMP JUMPDEST PUSH0 DUP2 SWAP1 POP SWAP2 SWAP1 POP JUMP JUMPDEST PUSH2 0x2CC6 DUP4 PUSH2 0x2C93 JUMP JUMPDEST PUSH2 0x2CDA PUSH2 0x2CD2 DUP3 PUSH2 0x2CB4 JUMP JUMPDEST DUP5 DUP5 SLOAD PUSH2 0x2C39 JUMP JUMPDEST DUP3 SSTORE POP POP POP POP JUMP JUMPDEST PUSH0 SWAP1 JUMP JUMPDEST PUSH2 0x2CEE PUSH2 0x2CE2 JUMP JUMPDEST PUSH2 0x2CF9 DUP2 DUP5 DUP5 PUSH2 0x2CBD JUMP JUMPDEST POP POP POP JUMP JUMPDEST JUMPDEST DUP2 DUP2 LT ISZERO PUSH2 0x2D1C JUMPI PUSH2 0x2D11 PUSH0 DUP3 PUSH2 0x2CE6 JUMP JUMPDEST PUSH1 0x1 DUP2 ADD SWAP1 POP PUSH2 0x2CFF JUMP JUMPDEST POP POP JUMP JUMPDEST PUSH1 0x1F DUP3 GT ISZERO PUSH2 0x2D61 JUMPI PUSH2 0x2D32 DUP2 PUSH2 0x2C0C JUMP JUMPDEST PUSH2 0x2D3B DUP5 PUSH2 0x2C1E JUMP JUMPDEST DUP2 ADD PUSH1 0x20 DUP6 LT ISZERO PUSH2 0x2D4A JUMPI DUP2 SWAP1 POP JUMPDEST PUSH2 0x2D5E PUSH2 0x2D56 DUP6 PUSH2 0x2C1E JUMP JUMPDEST DUP4 ADD DUP3 PUSH2 0x2CFE JUMP JUMPDEST POP POP JUMPDEST POP POP POP JUMP JUMPDEST PUSH0 DUP3 DUP3 SHR SWAP1 POP SWAP3 SWAP2 POP POP JUMP JUMPDEST PUSH0 PUSH2 0x2D81 PUSH0 NOT DUP5 PUSH1 0x8 MUL PUSH2 0x2D66 JUMP JUMPDEST NOT DUP1 DUP4 AND SWAP2 POP POP SWAP3 SWAP2 POP POP JUMP JUMPDEST PUSH0 PUSH2 0x2D99 DUP4 DUP4 PUSH2 0x2D72 JUMP JUMPDEST SWAP2 POP DUP3 PUSH1 0x2 MUL DUP3 OR SWAP1 POP SWAP3 SWAP2 POP POP JUMP JUMPDEST PUSH2 0x2DB2 DUP3 PUSH2 0x255A JUMP JUMPDEST PUSH8 0xFFFFFFFFFFFFFFFF DUP2 GT ISZERO PUSH2 0x2DCB JUMPI PUSH2 0x2DCA PUSH2 0x225E JUMP JUMPDEST JUMPDEST PUSH2 0x2DD5 DUP3 SLOAD PUSH2 0x2BDC JUMP JUMPDEST PUSH2 0x2DE0 DUP3 DUP3 DUP6 PUSH2 0x2D20 JUMP JUMPDEST PUSH0 PUSH1 0x20 SWAP1 POP PUSH1 0x1F DUP4 GT PUSH1 0x1 DUP2 EQ PUSH2 0x2E11 JUMPI PUSH0 DUP5 ISZERO PUSH2 0x2DFF JUMPI DUP3 DUP8 ADD MLOAD SWAP1 POP JUMPDEST PUSH2 0x2E09 DUP6 DUP3 PUSH2 0x2D8E JUMP JUMPDEST DUP7 SSTORE POP PUSH2 0x2E70 JUMP JUMPDEST PUSH1 0x1F NOT DUP5 AND PUSH2 0x2E1F DUP7 PUSH2 0x2C0C JUMP JUMPDEST PUSH0 JUMPDEST DUP3 DUP2 LT ISZERO PUSH2 0x2E46 JUMPI DUP5 DUP10 ADD MLOAD DUP3 SSTORE PUSH1 0x1 DUP3 ADD SWAP2 POP PUSH1 0x20 DUP6 ADD SWAP5 POP PUSH1 0x20 DUP2 ADD SWAP1 POP PUSH2 0x2E21 JUMP JUMPDEST DUP7 DUP4 LT ISZERO PUSH2 0x2E63 JUMPI DUP5 DUP10 ADD MLOAD PUSH2 0x2E5F PUSH1 0x1F DUP10 AND DUP3 PUSH2 0x2D72 JUMP JUMPDEST DUP4 SSTORE POP JUMPDEST PUSH1 0x1 PUSH1 0x2 DUP9 MUL ADD DUP9 SSTORE POP POP POP JUMPDEST POP POP POP POP POP POP JUMP JUMPDEST PUSH32 0x496E76616C696420766F74650000000000000000000000000000000000000000 PUSH0 DUP3 ADD MSTORE POP JUMP JUMPDEST PUSH0 PUSH2 0x2EAC PUSH1 0xC DUP4 PUSH2 0x2829 JUMP JUMPDEST SWAP2 POP PUSH2 0x2EB7 DUP3 PUSH2 0x2E78 JUMP JUMPDEST PUSH1 0x20 DUP3 ADD SWAP1 POP SWAP2 SWAP1 POP JUMP JUMPDEST PUSH0 PUSH1 0x20 DUP3 ADD SWAP1 POP DUP2 DUP2 SUB PUSH0 DUP4 ADD MSTORE PUSH2 0x2ED9 DUP2 PUSH2 0x2EA0 JUMP JUMPDEST SWAP1 POP SWAP2 SWAP1 POP JUMP JUMPDEST PUSH32 0x4E487B7100000000000000000000000000000000000000000000000000000000 PUSH0 MSTORE PUSH1 0x11 PUSH1 0x4 MSTORE PUSH1 0x24 PUSH0 REVERT JUMPDEST PUSH0 PUSH2 0x2F17 DUP3 PUSH2 0x268F JUMP JUMPDEST SWAP2 POP PUSH2 0x2F22 DUP4 PUSH2 0x268F JUMP JUMPDEST SWAP3 POP DUP3 DUP3 SUB SWAP1 POP DUP2 DUP2 SLT PUSH0 DUP5 SLT AND DUP3 DUP3 SGT PUSH0 DUP6 SLT ISZERO AND OR ISZERO PUSH2 0x2F47 JUMPI PUSH2 0x2F46 PUSH2 0x2EE0 JUMP JUMPDEST JUMPDEST SWAP3 SWAP2 POP POP JUMP JUMPDEST PUSH0 PUSH2 0x2F57 DUP3 PUSH2 0x2213 JUMP JUMPDEST SWAP2 POP PUSH0 DUP3 SUB PUSH2 0x2F69 JUMPI PUSH2 0x2F68 PUSH2 0x2EE0 JUMP JUMPDEST JUMPDEST PUSH1 0x1 DUP3 SUB SWAP1 POP SWAP2 SWAP1 POP JUMP JUMPDEST PUSH0 PUSH2 0x2F7E DUP3 PUSH2 0x268F JUMP JUMPDEST SWAP2 POP PUSH2 0x2F89 DUP4 PUSH2 0x268F JUMP JUMPDEST SWAP3 POP DUP3 DUP3 ADD SWAP1 POP DUP3 DUP2 SLT ISZERO PUSH0 DUP4 SLT AND DUP4 DUP3 SLT PUSH0 DUP5 SLT ISZERO AND OR ISZERO PUSH2 0x2FAF JUMPI PUSH2 0x2FAE PUSH2 0x2EE0 JUMP JUMPDEST JUMPDEST SWAP3 SWAP2 POP POP JUMP JUMPDEST PUSH0 PUSH2 0x2FBF DUP3 PUSH2 0x2213 JUMP JUMPDEST SWAP2 POP PUSH32 0xFFFFFFFFFFFFFFFFFFFFFFFFFFFFFFFFFFFFFFFFFFFFFFFFFFFFFFFFFFFFFFFF DUP3 SUB PUSH2 0x2FF1 JUMPI PUSH2 0x2FF0 PUSH2 0x2EE0 JUMP JUMPDEST JUMPDEST PUSH1 0x1 DUP3 ADD SWAP1 POP SWAP2 SWAP1 POP JUMP JUMPDEST PUSH0 DUP2 SWAP1 POP SWAP3 SWAP2 POP POP JUMP JUMPDEST PUSH0 PUSH2 0x3010 DUP3 PUSH2 0x255A JUMP JUMPDEST PUSH2 0x301A DUP2 DUP6 PUSH2 0x2FFC JUMP JUMPDEST SWAP4 POP PUSH2 0x302A DUP2 DUP6 PUSH1 0x20 DUP7 ADD PUSH2 0x2574 JUMP JUMPDEST DUP1 DUP5 ADD SWAP2 POP POP SWAP3 SWAP2 POP POP JUMP JUMPDEST PUSH32 0x2300000000000000000000000000000000000000000000000000000000000000 DUP2 MSTORE POP JUMP JUMPDEST PUSH0 DUP2 SLOAD PUSH2 0x3068 DUP2 PUSH2 0x2BDC JUMP JUMPDEST PUSH2 0x3072 DUP2 DUP7 PUSH2 0x2FFC JUMP JUMPDEST SWAP5 POP PUSH1 0x1 DUP3 AND PUSH0 DUP2 EQ PUSH2 0x308C JUMPI PUSH1 0x1 DUP2 EQ PUSH2 0x30A1 JUMPI PUSH2 0x30D3 JUMP JUMPDEST PUSH1 0xFF NOT DUP4 AND DUP7 MSTORE DUP2 ISZERO ISZERO DUP3 MUL DUP7 ADD SWAP4 POP PUSH2 0x30D3 JUMP JUMPDEST PUSH2 0x30AA DUP6 PUSH2 0x2C0C JUMP JUMPDEST PUSH0 JUMPDEST DUP4 DUP2 LT ISZERO PUSH2 0x30CB JUMPI DUP2 SLOAD DUP2 DUP10 ADD MSTORE PUSH1 0x1 DUP3 ADD SWAP2 POP PUSH1 0x20 DUP2 ADD SWAP1 POP PUSH2 0x30AC JUMP JUMPDEST DUP4 DUP9 ADD SWAP6 POP POP POP JUMPDEST POP POP POP SWAP3 SWAP2 POP POP JUMP JUMPDEST PUSH32 0x7C00000000000000000000000000000000000000000000000000000000000000 DUP2 MSTORE POP JUMP JUMPDEST PUSH0 PUSH2 0x310D DUP3 DUP11 PUSH2 0x3006 JUMP JUMPDEST SWAP2 POP PUSH2 0x3118 DUP3 PUSH2 0x3036 JUMP JUMPDEST PUSH1 0x1 DUP3 ADD SWAP2 POP PUSH2 0x3128 DUP3 DUP10 PUSH2 0x305C JUMP JUMPDEST SWAP2 POP PUSH2 0x3133 DUP3 PUSH2 0x3036 JUMP JUMPDEST PUSH1 0x1 DUP3 ADD SWAP2 POP PUSH2 0x3143 DUP3 DUP9 PUSH2 0x305C JUMP JUMPDEST SWAP2 POP PUSH2 0x314E DUP3 PUSH2 0x3036 JUMP JUMPDEST PUSH1 0x1 DUP3 ADD SWAP2 POP PUSH2 0x315E DUP3 DUP8 PUSH2 0x3006 JUMP JUMPDEST SWAP2 POP PUSH2 0x3169 DUP3 PUSH2 0x3036 JUMP JUMPDEST PUSH1 0x1 DUP3 ADD SWAP2 POP PUSH2 0x3179 DUP3 DUP7 PUSH2 0x3006 JUMP JUMPDEST SWAP2 POP PUSH2 0x3184 DUP3 PUSH2 0x3036 JUMP JUMPDEST PUSH1 0x1 DUP3 ADD SWAP2 POP PUSH2 0x3194 DUP3 DUP6 PUSH2 0x3006 JUMP JUMPDEST SWAP2 POP PUSH2 0x319F DUP3 PUSH2 0x30DC JUMP JUMPDEST PUSH1 0x1 DUP3 ADD SWAP2 POP PUSH2 0x31AF DUP3 DUP5 PUSH2 0x3006 JUMP JUMPDEST SWAP2 POP DUP2 SWAP1 POP SWAP9 SWAP8 POP POP POP POP POP POP POP POP JUMP JUMPDEST PUSH0 PUSH2 0x31CB DUP3 DUP7 PUSH2 0x3006 JUMP JUMPDEST SWAP2 POP PUSH2 0x31D6 DUP3 PUSH2 0x3036 JUMP JUMPDEST PUSH1 0x1 DUP3 ADD SWAP2 POP PUSH2 0x31E6 DUP3 DUP6 PUSH2 0x305C JUMP JUMPDEST SWAP2 POP PUSH2 0x31F1 DUP3 PUSH2 0x3036 JUMP JUMPDEST PUSH1 0x1 DUP3 ADD SWAP2 POP PUSH2 0x3201 DUP3 DUP5 PUSH2 0x305C JUMP JUMPDEST SWAP2 POP DUP2 SWAP1 POP SWAP5 SWAP4 POP POP POP POP JUMP JUMPDEST PUSH0 PUSH2 0x3219 DUP3 DUP6 PUSH2 0x3006 JUMP JUMPDEST SWAP2 POP PUSH2 0x3224 DUP3 PUSH2 0x3036 JUMP JUMPDEST PUSH1 0x1 DUP3 ADD SWAP2 POP PUSH2 0x3234 DUP3 DUP5 PUSH2 0x305C JUMP JUMPDEST SWAP2 POP DUP2 SWAP1 POP SWAP4 SWAP3 POP POP POP JUMP JUMPDEST PUSH0 PUSH2 0x324B DUP3 DUP6 PUSH2 0x305C JUMP JUMPDEST SWAP2 POP PUSH2 0x3256 DUP3 PUSH2 0x3036 JUMP JUMPDEST PUSH1 0x1 DUP3 ADD SWAP2 POP PUSH2 0x3266 DUP3 DUP5 PUSH2 0x3006 JUMP JUMPDEST SWAP2 POP DUP2 SWAP1 POP SWAP4 SWAP3 POP POP POP JUMP JUMPDEST PUSH32 0x43616C6C6572206973206E6F74206F776E657200000000000000000000000000 PUSH0 DUP3 ADD MSTORE POP JUMP JUMPDEST PUSH0 PUSH2 0x32A6 PUSH1 0x13 DUP4 PUSH2 0x2829 JUMP JUMPDEST SWAP2 POP PUSH2 0x32B1 DUP3 PUSH2 0x3272 JUMP JUMPDEST PUSH1 0x20 DUP3 ADD SWAP1 POP SWAP2 SWAP1 POP JUMP JUMPDEST PUSH0 PUSH1 0x20 DUP3 ADD SWAP1 POP DUP2 DUP2 SUB PUSH0 DUP4 ADD MSTORE PUSH2 0x32D3 DUP2 PUSH2 0x329A JUMP JUMPDEST SWAP1 POP SWAP2 SWAP1 POP JUMP JUMPDEST PUSH32 0x5465787420746F20736D616C6C00000000000000000000000000000000000000 PUSH0 DUP3 ADD MSTORE POP JUMP JUMPDEST PUSH0 PUSH2 0x330E PUSH1 0xD DUP4 PUSH2 0x2829 JUMP JUMPDEST SWAP2 POP PUSH2 0x3319 DUP3 PUSH2 0x32DA JUMP JUMPDEST PUSH1 0x20 DUP3 ADD SWAP1 POP SWAP2 SWAP1 POP JUMP JUMPDEST PUSH0 PUSH1 0x20 DUP3 ADD SWAP1 POP DUP2 DUP2 SUB PUSH0 DUP4 ADD MSTORE PUSH2 0x333B DUP2 PUSH2 0x3302 JUMP JUMPDEST SWAP1 POP SWAP2 SWAP1 POP JUMP JUMPDEST PUSH32 0x5465787420746F6F20736D616C6C000000000000000000000000000000000000 PUSH0 DUP3 ADD MSTORE POP JUMP JUMPDEST PUSH0 PUSH2 0x3376 PUSH1 0xE DUP4 PUSH2 0x2829 JUMP JUMPDEST SWAP2 POP PUSH2 0x3381 DUP3 PUSH2 0x3342 JUMP JUMPDEST PUSH1 0x20 DUP3 ADD SWAP1 POP SWAP2 SWAP1 POP JUMP JUMPDEST PUSH0 PUSH1 0x20 DUP3 ADD SWAP1 POP DUP2 DUP2 SUB PUSH0 DUP4 ADD MSTORE PUSH2 0x33A3 DUP2 PUSH2 0x336A JUMP JUMPDEST SWAP1 POP SWAP2 SWAP1 POP JUMP JUMPDEST PUSH0 PUSH2 0x33B4 DUP3 PUSH2 0x2213 JUMP JUMPDEST SWAP2 POP PUSH2 0x33BF DUP4 PUSH2 0x2213 JUMP JUMPDEST SWAP3 POP DUP3 DUP3 SUB SWAP1 POP DUP2 DUP2 GT ISZERO PUSH2 0x33D7 JUMPI PUSH2 0x33D6 PUSH2 0x2EE0 JUMP JUMPDEST JUMPDEST SWAP3 SWAP2 POP POP JUMP JUMPDEST PUSH0 PUSH2 0x33E7 DUP3 PUSH2 0x268F JUMP JUMPDEST SWAP2 POP PUSH2 0x33F2 DUP4 PUSH2 0x268F JUMP JUMPDEST SWAP3 POP DUP3 DUP3 MUL PUSH2 0x3400 DUP2 PUSH2 0x268F JUMP JUMPDEST SWAP2 POP PUSH32 0x8000000000000000000000000000000000000000000000000000000000000000 DUP5 EQ PUSH0 DUP5 SLT AND ISZERO PUSH2 0x3437 JUMPI PUSH2 0x3436 PUSH2 0x2EE0 JUMP JUMPDEST JUMPDEST DUP3 DUP3 SDIV DUP5 EQ DUP4 ISZERO OR PUSH2 0x344C JUMPI PUSH2 0x344B PUSH2 0x2EE0 JUMP JUMPDEST JUMPDEST POP SWAP3 SWAP2 POP POP JUMP JUMPDEST PUSH32 0x4E487B7100000000000000000000000000000000000000000000000000000000 PUSH0 MSTORE PUSH1 0x12 PUSH1 0x4 MSTORE PUSH1 0x24 PUSH0 REVERT JUMPDEST PUSH0 PUSH2 0x348B DUP3 DUP6 PUSH2 0x3006 JUMP JUMPDEST SWAP2 POP PUSH2 0x3497 DUP3 DUP5 PUSH2 0x3006 JUMP JUMPDEST SWAP2 POP DUP2 SWAP1 POP SWAP4 SWAP3 POP POP POP JUMP JUMPDEST PUSH32 0x4E487B7100000000000000000000000000000000000000000000000000000000 PUSH0 MSTORE PUSH1 0x51 PUSH1 0x4 MSTORE PUSH1 0x24 PUSH0 REVERT INVALID LOG2 PUSH5 0x6970667358 0x22 SLT KECCAK256 PUSH6 0x79DF5BD8B740 TSTORE 0x1F 0x24 0x4F 0xEE 0xE3 XOR BLOCKHASH 0x4F 0xD PUSH5 0x9B5260D858 ORIGIN DUP15 DUP15 LT AND DUP1 LOG0 0xD PUSH30 0x64736F6C634300081A003300000000000000000000000000000000000000 "
		},
		"gasEstimates": {
			"creation": {
				"codeDepositCost": "2714800",
				"executionCost": "infinite",
				"totalCost": "infinite"
			},
			"external": {
				"changeOwner(address)": "30580",
				"createLaw(string,string,string[],string[])": "infinite",
				"getCurrentVersion(uint256)": "infinite",
				"getDocuments(uint256,uint256)": "infinite",
				"getLaw(uint256)": "infinite",
				"getLaw(uint256,uint256)": "infinite",
				"getLawCount()": "2463",
				"getOwner()": "2582",
				"getRevision(uint256,uint256)": "infinite",
				"getRevisions(uint256)": "infinite",
				"proposeArticleEdit(uint256,uint256,uint256,string)": "infinite",
				"proposeEdit(uint256,string,string[],string[])": "infinite",
				"vote(uint256,uint256,int256)": "infinite"
			}
		},
		"methodIdentifiers": {
			"changeOwner(address)": "a6f9dae1",
			"createLaw(string,string,string[],string[])": "c1c1a377",
			"getCurrentVersion(uint256)": "e715463c",
			"getDocuments(uint256,uint256)": "8349166f",
			"getLaw(uint256)": "c3b53ba4",
			"getLaw(uint256,uint256)": "1f88e5a9",
			"getLawCount()": "6475f4fe",
			"getOwner()": "893d20e8",
			"getRevision(uint256,uint256)": "6192e3e8",
			"getRevisions(uint256)": "3ec559c6",
			"proposeArticleEdit(uint256,uint256,uint256,string)": "4cef38f9",
			"proposeEdit(uint256,string,string[],string[])": "1d31245c",
			"vote(uint256,uint256,int256)": "20b7c317"
		}
	},
	"abi": [
		{
			"inputs": [
				{
					"internalType": "address",
					"name": "personsContract",
					"type": "address"
				},
				{
					"internalType": "address",
					"name": "tokensContract",
					"type": "address"
				}
			],
			"stateMutability": "nonpayable",
			"type": "constructor"
		},
		{
			"anonymous": false,
			"inputs": [
				{
					"indexed": true,
					"internalType": "uint256",
					"name": "id",
					"type": "uint256"
				}
			],
			"name": "LawCreated",
			"type": "event"
		},
		{
			"anonymous": false,
			"inputs": [
				{
					"indexed": true,
					"internalType": "address",
					"name": "oldOwner",
					"type": "address"
				},
				{
					"indexed": true,
					"internalType": "address",
					"name": "newOwner",
					"type": "address"
				}
			],
			"name": "OwnerSet",
			"type": "event"
		},
		{
			"inputs": [
				{
					"internalType": "address",
					"name": "newOwner",
					"type": "address"
				}
			],
			"name": "changeOwner",
			"outputs": [],
			"stateMutability": "nonpayable",
			"type": "function"
		},
		{
			"inputs": [
				{
					"internalType": "string",
					"name": "title",
					"type": "string"
				},
				{
					"internalType": "string",
					"name": "law",
					"type": "string"
				},
				{
					"internalType": "string[]",
					"name": "articles",
					"type": "string[]"
				},
				{
					"internalType": "string[]",
					"name": "documents",
					"type": "string[]"
				}
			],
			"name": "createLaw",
			"outputs": [
				{
					"internalType": "uint256",
					"name": "",
					"type": "uint256"
				}
			],
			"stateMutability": "payable",
			"type": "function"
		},
		{
			"inputs": [
				{
					"internalType": "uint256",
					"name": "id",
					"type": "uint256"
				}
			],
			"name": "getCurrentVersion",
			"outputs": [
				{
					"internalType": "uint256",
					"name": "version",
					"type": "uint256"
				}
			],
			"stateMutability": "view",
			"type": "function"
		},
		{
			"inputs": [
				{
					"internalType": "uint256",
					"name": "id",
					"type": "uint256"
				},
				{
					"internalType": "uint256",
					"name": "version",
					"type": "uint256"
				}
			],
			"name": "getDocuments",
			"outputs": [
				{
					"internalType": "string",
					"name": "documents",
					"type": "string"
				}
			],
			"stateMutability": "view",
			"type": "function"
		},
		{
			"inputs": [
				{
					"internalType": "uint256",
					"name": "id",
					"type": "uint256"
				},
				{
					"internalType": "uint256",
					"name": "version",
					"type": "uint256"
				}
			],
			"name": "getLaw",
			"outputs": [
				{
					"components": [
						{
							"internalType": "string",
							"name": "title",
							"type": "string"
						},
						{
							"internalType": "string",
							"name": "law",
							"type": "string"
						},
						{
							"internalType": "string[]",
							"name": "articles",
							"type": "string[]"
						},
						{
							"internalType": "string[]",
							"name": "documents",
							"type": "string[]"
						},
						{
							"internalType": "int256",
							"name": "votes",
							"type": "int256"
						},
						{
							"internalType": "uint256",
							"name": "total",
							"type": "uint256"
						},
						{
							"internalType": "uint256",
							"name": "version",
							"type": "uint256"
						}
					],
					"internalType": "struct Laws.cLaws",
					"name": "L",
					"type": "tuple"
				}
			],
			"stateMutability": "view",
			"type": "function"
		},
		{
			"inputs": [
				{
					"internalType": "uint256",
					"name": "id",
					"type": "uint256"
				}
			],
			"name": "getLaw",
			"outputs": [
				{
					"internalType": "string",
					"name": "law",
					"type": "string"
				}
			],
			"stateMutability": "view",
			"type": "function"
		},
		{
			"inputs": [],
			"name": "getLawCount",
			"outputs": [
				{
					"internalType": "uint256",
					"name": "count",
					"type": "uint256"
				}
			],
			"stateMutability": "view",
			"type": "function"
		},
		{
			"inputs": [],
			"name": "getOwner",
			"outputs": [
				{
					"internalType": "address",
					"name": "",
					"type": "address"
				}
			],
			"stateMutability": "view",
			"type": "function"
		},
		{
			"inputs": [
				{
					"internalType": "uint256",
					"name": "id",
					"type": "uint256"
				},
				{
					"internalType": "uint256",
					"name": "version",
					"type": "uint256"
				}
			],
			"name": "getRevision",
			"outputs": [
				{
					"internalType": "string",
					"name": "revision",
					"type": "string"
				}
			],
			"stateMutability": "view",
			"type": "function"
		},
		{
			"inputs": [
				{
					"internalType": "uint256",
					"name": "id",
					"type": "uint256"
				}
			],
			"name": "getRevisions",
			"outputs": [
				{
					"internalType": "string",
					"name": "revisions",
					"type": "string"
				}
			],
			"stateMutability": "view",
			"type": "function"
		},
		{
			"inputs": [
				{
					"internalType": "uint256",
					"name": "id",
					"type": "uint256"
				},
				{
					"internalType": "uint256",
					"name": "articleId",
					"type": "uint256"
				},
				{
					"internalType": "uint256",
					"name": "version",
					"type": "uint256"
				},
				{
					"internalType": "string",
					"name": "article",
					"type": "string"
				}
			],
			"name": "proposeArticleEdit",
			"outputs": [],
			"stateMutability": "payable",
			"type": "function"
		},
		{
			"inputs": [
				{
					"internalType": "uint256",
					"name": "id",
					"type": "uint256"
				},
				{
					"internalType": "string",
					"name": "law",
					"type": "string"
				},
				{
					"internalType": "string[]",
					"name": "articles",
					"type": "string[]"
				},
				{
					"internalType": "string[]",
					"name": "documents",
					"type": "string[]"
				}
			],
			"name": "proposeEdit",
			"outputs": [],
			"stateMutability": "payable",
			"type": "function"
		},
		{
			"inputs": [
				{
					"internalType": "uint256",
					"name": "id",
					"type": "uint256"
				},
				{
					"internalType": "uint256",
					"name": "version",
					"type": "uint256"
				},
				{
					"internalType": "int256",
					"name": "v",
					"type": "int256"
				}
			],
			"name": "vote",
			"outputs": [],
			"stateMutability": "payable",
			"type": "function"
		}
	]
}