{
	"auth.sol": {
		"Auth": {
			"abi": [
				{
					"inputs": [],
					"stateMutability": "nonpayable",
					"type": "constructor"
				},
				{
					"anonymous": false,
					"inputs": [
						{
							"indexed": false,
							"internalType": "address",
							"name": "UID",
							"type": "address"
						}
					],
					"name": "accountCreated",
					"type": "event"
				},
				{
					"anonymous": false,
					"inputs": [
						{
							"indexed": false,
							"internalType": "bytes32",
							"name": "session",
							"type": "bytes32"
						}
					],
					"name": "loggedIn",
					"type": "event"
				},
				{
					"inputs": [
						{
							"internalType": "address",
							"name": "UID",
							"type": "address"
						},
						{
							"internalType": "string",
							"name": "pass",
							"type": "string"
						}
					],
					"name": "authenthicate",
					"outputs": [
						{
							"internalType": "bytes32",
							"name": "",
							"type": "bytes32"
						}
					],
					"stateMutability": "payable",
					"type": "function"
				},
				{
					"inputs": [
						{
							"internalType": "bytes32",
							"name": "session",
							"type": "bytes32"
						}
					],
					"name": "checkLogin",
					"outputs": [],
					"stateMutability": "view",
					"type": "function"
				},
				{
					"inputs": [
						{
							"internalType": "string",
							"name": "fullName",
							"type": "string"
						},
						{
							"internalType": "string",
							"name": "SSN",
							"type": "string"
						},
						{
							"internalType": "string",
							"name": "homeAddress",
							"type": "string"
						},
						{
							"internalType": "string",
							"name": "pass",
							"type": "string"
						},
						{
							"internalType": "uint8",
							"name": "accountType",
							"type": "uint8"
						},
						{
							"internalType": "string",
							"name": "phone",
							"type": "string"
						},
						{
							"internalType": "address",
							"name": "addr",
							"type": "address"
						},
						{
							"internalType": "string",
							"name": "companyCode",
							"type": "string"
						}
					],
					"name": "createAccount",
					"outputs": [
						{
							"internalType": "address",
							"name": "",
							"type": "address"
						}
					],
					"stateMutability": "payable",
					"type": "function"
				},
				{
					"inputs": [
						{
							"internalType": "address",
							"name": "UID",
							"type": "address"
						}
					],
					"name": "deleteUser",
					"outputs": [],
					"stateMutability": "payable",
					"type": "function"
				},
				{
					"inputs": [
						{
							"internalType": "string",
							"name": "fullName",
							"type": "string"
						},
						{
							"internalType": "string",
							"name": "homeAddress",
							"type": "string"
						},
						{
							"internalType": "string",
							"name": "phone",
							"type": "string"
						},
						{
							"internalType": "address",
							"name": "blockAccount",
							"type": "address"
						},
						{
							"internalType": "string",
							"name": "companyCode",
							"type": "string"
						},
						{
							"internalType": "bytes32",
							"name": "session",
							"type": "bytes32"
						}
					],
					"name": "editUser",
					"outputs": [],
					"stateMutability": "payable",
					"type": "function"
				},
				{
					"inputs": [],
					"name": "getPopulation",
					"outputs": [
						{
							"internalType": "uint256",
							"name": "",
							"type": "uint256"
						}
					],
					"stateMutability": "view",
					"type": "function"
				},
				{
					"inputs": [
						{
							"internalType": "address",
							"name": "UID",
							"type": "address"
						},
						{
							"internalType": "string",
							"name": "pass",
							"type": "string"
						}
					],
					"name": "getUser",
					"outputs": [
						{
							"components": [
								{
									"internalType": "string",
									"name": "fullName",
									"type": "string"
								},
								{
									"internalType": "string",
									"name": "SSN",
									"type": "string"
								},
								{
									"internalType": "string",
									"name": "homeAddress",
									"type": "string"
								},
								{
									"internalType": "string",
									"name": "pass",
									"type": "string"
								},
								{
									"internalType": "string",
									"name": "phone",
									"type": "string"
								},
								{
									"internalType": "uint8",
									"name": "accountType",
									"type": "uint8"
								},
								{
									"internalType": "string",
									"name": "companyCode",
									"type": "string"
								},
								{
									"internalType": "address",
									"name": "blockAccount",
									"type": "address"
								},
								{
									"internalType": "bytes32",
									"name": "UID",
									"type": "bytes32"
								},
								{
									"internalType": "bytes32",
									"name": "session",
									"type": "bytes32"
								}
							],
							"internalType": "struct Auth.person",
							"name": "",
							"type": "tuple"
						}
					],
					"stateMutability": "view",
					"type": "function"
				}
			],
			"devdoc": {
				"kind": "dev",
				"methods": {},
				"version": 1
			},
			"evm": {
				"assembly": "    /* \"auth.sol\":133:6944  contract Auth {... */\n  mstore(0x40, 0x80)\n    /* \"auth.sol\":194:195  0 */\n  0x00\n    /* \"auth.sol\":173:195  uint8 ACC_PERSONAL = 0 */\n  dup1\n  exp(0x0100, 0x14)\n  dup2\n  sload\n  dup2\n  0xff\n  mul\n  not\n  and\n  swap1\n  dup4\n  0xff\n  and\n  mul\n  or\n  swap1\n  sstore\n  pop\n    /* \"auth.sol\":229:230  1 */\n  0x01\n    /* \"auth.sol\":201:230  uint8 ACC_LIMITED_COMPANY = 1 */\n  0x00\n  exp(0x0100, 0x15)\n  dup2\n  sload\n  dup2\n  0xff\n  mul\n  not\n  and\n  swap1\n  dup4\n  0xff\n  and\n  mul\n  or\n  swap1\n  sstore\n  pop\n    /* \"auth.sol\":262:263  2 */\n  0x02\n    /* \"auth.sol\":236:263  uint8 ACC_SHARE_COMPANY = 2 */\n  0x00\n  exp(0x0100, 0x16)\n  dup2\n  sload\n  dup2\n  0xff\n  mul\n  not\n  and\n  swap1\n  dup4\n  0xff\n  and\n  mul\n  or\n  swap1\n  sstore\n  pop\n    /* \"auth.sol\":300:301  3 */\n  0x03\n    /* \"auth.sol\":269:301  uint8 ACC_INDIVIDUAL_COMPANY = 3 */\n  0x00\n  exp(0x0100, 0x17)\n  dup2\n  sload\n  dup2\n  0xff\n  mul\n  not\n  and\n  swap1\n  dup4\n  0xff\n  and\n  mul\n  or\n  swap1\n  sstore\n  pop\n    /* \"auth.sol\":334:335  4 */\n  0x04\n    /* \"auth.sol\":307:335  uint8 ACC_FOREIGN_BRANCH = 4 */\n  0x00\n  exp(0x0100, 0x18)\n  dup2\n  sload\n  dup2\n  0xff\n  mul\n  not\n  and\n  swap1\n  dup4\n  0xff\n  and\n  mul\n  or\n  swap1\n  sstore\n  pop\n    /* \"auth.sol\":762:890  constructor() {... */\n  callvalue\n  dup1\n  iszero\n  tag_1\n  jumpi\n  0x00\n  dup1\n  revert\ntag_1:\n  pop\n    /* \"auth.sol\":794:804  msg.sender */\n  caller\n    /* \"auth.sol\":786:791  owner */\n  0x00\n  dup1\n    /* \"auth.sol\":786:804  owner = msg.sender */\n  0x0100\n  exp\n  dup2\n  sload\n  dup2\n  0xffffffffffffffffffffffffffffffffffffffff\n  mul\n  not\n  and\n  swap1\n  dup4\n  0xffffffffffffffffffffffffffffffffffffffff\n  and\n  mul\n  or\n  swap1\n  sstore\n  pop\n    /* \"auth.sol\":133:6944  contract Auth {... */\n  dataSize(sub_0)\n  dup1\n  dataOffset(sub_0)\n  0x00\n  codecopy\n  0x00\n  return\nstop\n\nsub_0: assembly {\n        /* \"auth.sol\":133:6944  contract Auth {... */\n      mstore(0x40, 0x80)\n      jumpi(tag_1, lt(calldatasize, 0x04))\n      shr(0xe0, calldataload(0x00))\n      dup1\n      0xb2eee5a2\n      gt\n      tag_9\n      jumpi\n      dup1\n      0xb2eee5a2\n      eq\n      tag_5\n      jumpi\n      dup1\n      0xc1144afa\n      eq\n      tag_6\n      jumpi\n      dup1\n      0xdd64e4ad\n      eq\n      tag_7\n      jumpi\n      dup1\n      0xdeb12746\n      eq\n      tag_8\n      jumpi\n      jump(tag_1)\n    tag_9:\n      dup1\n      0x0ec83856\n      eq\n      tag_2\n      jumpi\n      dup1\n      0x2b4ae7bd\n      eq\n      tag_3\n      jumpi\n      dup1\n      0x5c60f226\n      eq\n      tag_4\n      jumpi\n    tag_1:\n      0x00\n      dup1\n      revert\n        /* \"auth.sol\":6711:6846  function checkLogin(bytes32 session) public view {... */\n    tag_2:\n      callvalue\n      dup1\n      iszero\n      tag_10\n      jumpi\n      0x00\n      dup1\n      revert\n    tag_10:\n      pop\n      tag_11\n      0x04\n      dup1\n      calldatasize\n      sub\n      dup2\n      add\n      swap1\n      tag_12\n      swap2\n      swap1\n      tag_13\n      jump\t// in\n    tag_12:\n      tag_14\n      jump\t// in\n    tag_11:\n      stop\n        /* \"auth.sol\":6852:6941  function getPopulation() public view returns (uint256) {... */\n    tag_3:\n      callvalue\n      dup1\n      iszero\n      tag_15\n      jumpi\n      0x00\n      dup1\n      revert\n    tag_15:\n      pop\n      tag_16\n      tag_17\n      jump\t// in\n    tag_16:\n      mload(0x40)\n      tag_18\n      swap2\n      swap1\n      tag_19\n      jump\t// in\n    tag_18:\n      mload(0x40)\n      dup1\n      swap2\n      sub\n      swap1\n      return\n        /* \"auth.sol\":3252:3378  function deleteUser(address UID) public payable {... */\n    tag_4:\n      tag_20\n      0x04\n      dup1\n      calldatasize\n      sub\n      dup2\n      add\n      swap1\n      tag_21\n      swap2\n      swap1\n      tag_22\n      jump\t// in\n    tag_21:\n      tag_23\n      jump\t// in\n    tag_20:\n      stop\n        /* \"auth.sol\":6200:6705  function authenthicate(address UID, string memory pass) public payable returns(bytes32) {... */\n    tag_5:\n      tag_24\n      0x04\n      dup1\n      calldatasize\n      sub\n      dup2\n      add\n      swap1\n      tag_25\n      swap2\n      swap1\n      tag_26\n      jump\t// in\n    tag_25:\n      tag_27\n      jump\t// in\n    tag_24:\n      mload(0x40)\n      tag_28\n      swap2\n      swap1\n      tag_29\n      jump\t// in\n    tag_28:\n      mload(0x40)\n      dup1\n      swap2\n      sub\n      swap1\n      return\n        /* \"auth.sol\":5428:6008  function editUser(string memory fullName, string memory homeAddress, string memory phone, address blockAccount, string memory companyCode, bytes32 session) public payable... */\n    tag_6:\n      tag_30\n      0x04\n      dup1\n      calldatasize\n      sub\n      dup2\n      add\n      swap1\n      tag_31\n      swap2\n      swap1\n      tag_32\n      jump\t// in\n    tag_31:\n      tag_33\n      jump\t// in\n    tag_30:\n      stop\n        /* \"auth.sol\":999:3246  function createAccount(string memory fullName, string memory SSN, string memory homeAddress, string memory pass, uint8 accountType, string memory phone, address addr, string memory companyCode) public payable returns (address)... */\n    tag_7:\n      tag_34\n      0x04\n      dup1\n      calldatasize\n      sub\n      dup2\n      add\n      swap1\n      tag_35\n      swap2\n      swap1\n      tag_36\n      jump\t// in\n    tag_35:\n      tag_37\n      jump\t// in\n    tag_34:\n      mload(0x40)\n      tag_38\n      swap2\n      swap1\n      tag_39\n      jump\t// in\n    tag_38:\n      mload(0x40)\n      dup1\n      swap2\n      sub\n      swap1\n      return\n        /* \"auth.sol\":3384:5422  function getUser(address UID, string memory pass) public view returns(person memory)... */\n    tag_8:\n      callvalue\n      dup1\n      iszero\n      tag_40\n      jumpi\n      0x00\n      dup1\n      revert\n    tag_40:\n      pop\n      tag_41\n      0x04\n      dup1\n      calldatasize\n      sub\n      dup2\n      add\n      swap1\n      tag_42\n      swap2\n      swap1\n      tag_26\n      jump\t// in\n    tag_42:\n      tag_43\n      jump\t// in\n    tag_41:\n      mload(0x40)\n      tag_44\n      swap2\n      swap1\n      tag_45\n      jump\t// in\n    tag_44:\n      mload(0x40)\n      dup1\n      swap2\n      sub\n      swap1\n      return\n        /* \"auth.sol\":6711:6846  function checkLogin(bytes32 session) public view {... */\n    tag_14:\n        /* \"auth.sol\":6809:6816  session */\n      dup1\n        /* \"auth.sol\":6778:6785  persons */\n      0x02\n        /* \"auth.sol\":6778:6797  persons[msg.sender] */\n      0x00\n        /* \"auth.sol\":6786:6796  msg.sender */\n      caller\n        /* \"auth.sol\":6778:6797  persons[msg.sender] */\n      0xffffffffffffffffffffffffffffffffffffffff\n      and\n      0xffffffffffffffffffffffffffffffffffffffff\n      and\n      dup2\n      mstore\n      0x20\n      add\n      swap1\n      dup2\n      mstore\n      0x20\n      add\n      0x00\n      keccak256\n        /* \"auth.sol\":6778:6805  persons[msg.sender].session */\n      0x09\n      add\n      sload\n        /* \"auth.sol\":6778:6816  persons[msg.sender].session == session */\n      eq\n        /* \"auth.sol\":6770:6839  require(persons[msg.sender].session == session, \"Not authenthicated\") */\n      tag_47\n      jumpi\n      mload(0x40)\n      0x08c379a000000000000000000000000000000000000000000000000000000000\n      dup2\n      mstore\n      0x04\n      add\n      tag_48\n      swap1\n      tag_49\n      jump\t// in\n    tag_48:\n      mload(0x40)\n      dup1\n      swap2\n      sub\n      swap1\n      revert\n    tag_47:\n        /* \"auth.sol\":6711:6846  function checkLogin(bytes32 session) public view {... */\n      pop\n      jump\t// out\n        /* \"auth.sol\":6852:6941  function getPopulation() public view returns (uint256) {... */\n    tag_17:\n        /* \"auth.sol\":6898:6905  uint256 */\n      0x00\n        /* \"auth.sol\":6924:6934  population */\n      sload(0x01)\n        /* \"auth.sol\":6917:6934  return population */\n      swap1\n      pop\n        /* \"auth.sol\":6852:6941  function getPopulation() public view returns (uint256) {... */\n      swap1\n      jump\t// out\n        /* \"auth.sol\":3252:3378  function deleteUser(address UID) public payable {... */\n    tag_23:\n        /* \"auth.sol\":3310:3319  isOwner() */\n      tag_52\n        /* \"auth.sol\":3310:3317  isOwner */\n      tag_53\n        /* \"auth.sol\":3310:3319  isOwner() */\n      jump\t// in\n    tag_52:\n        /* \"auth.sol\":3337:3344  persons */\n      0x02\n        /* \"auth.sol\":3337:3349  persons[UID] */\n      0x00\n        /* \"auth.sol\":3345:3348  UID */\n      dup3\n        /* \"auth.sol\":3337:3349  persons[UID] */\n      0xffffffffffffffffffffffffffffffffffffffff\n      and\n      0xffffffffffffffffffffffffffffffffffffffff\n      and\n      dup2\n      mstore\n      0x20\n      add\n      swap1\n      dup2\n      mstore\n      0x20\n      add\n      0x00\n      keccak256\n      0x00\n        /* \"auth.sol\":3330:3349  delete persons[UID] */\n      dup1\n      dup3\n      add\n      0x00\n      tag_54\n      swap2\n      swap1\n      tag_55\n      jump\t// in\n    tag_54:\n      0x01\n      dup3\n      add\n      0x00\n      tag_56\n      swap2\n      swap1\n      tag_55\n      jump\t// in\n    tag_56:\n      0x02\n      dup3\n      add\n      0x00\n      tag_57\n      swap2\n      swap1\n      tag_55\n      jump\t// in\n    tag_57:\n      0x03\n      dup3\n      add\n      0x00\n      tag_58\n      swap2\n      swap1\n      tag_55\n      jump\t// in\n    tag_58:\n      0x04\n      dup3\n      add\n      0x00\n      tag_59\n      swap2\n      swap1\n      tag_55\n      jump\t// in\n    tag_59:\n      0x05\n      dup3\n      add\n      exp(0x0100, 0x00)\n      dup2\n      sload\n      swap1\n      0xff\n      mul\n      not\n      and\n      swap1\n      sstore\n      0x06\n      dup3\n      add\n      0x00\n      tag_60\n      swap2\n      swap1\n      tag_55\n      jump\t// in\n    tag_60:\n      0x07\n      dup3\n      add\n      exp(0x0100, 0x00)\n      dup2\n      sload\n      swap1\n      0xffffffffffffffffffffffffffffffffffffffff\n      mul\n      not\n      and\n      swap1\n      sstore\n      0x08\n      dup3\n      add\n      0x00\n      swap1\n      sstore\n      0x09\n      dup3\n      add\n      0x00\n      swap1\n      sstore\n      pop\n      pop\n        /* \"auth.sol\":3359:3369  population */\n      0x01\n      0x00\n        /* \"auth.sol\":3359:3371  population-- */\n      dup2\n      sload\n      dup1\n      swap3\n      swap2\n      swap1\n      tag_61\n      swap1\n      tag_62\n      jump\t// in\n    tag_61:\n      swap2\n      swap1\n      pop\n      sstore\n      pop\n        /* \"auth.sol\":3252:3378  function deleteUser(address UID) public payable {... */\n      pop\n      jump\t// out\n        /* \"auth.sol\":6200:6705  function authenthicate(address UID, string memory pass) public payable returns(bytes32) {... */\n    tag_27:\n        /* \"auth.sol\":6279:6286  bytes32 */\n      0x00\n        /* \"auth.sol\":6354:6364  msg.sender */\n      caller\n        /* \"auth.sol\":6325:6364  persons[UID].blockAccount == msg.sender */\n      0xffffffffffffffffffffffffffffffffffffffff\n      and\n        /* \"auth.sol\":6325:6332  persons */\n      0x02\n        /* \"auth.sol\":6325:6337  persons[UID] */\n      0x00\n        /* \"auth.sol\":6333:6336  UID */\n      dup6\n        /* \"auth.sol\":6325:6337  persons[UID] */\n      0xffffffffffffffffffffffffffffffffffffffff\n      and\n      0xffffffffffffffffffffffffffffffffffffffff\n      and\n      dup2\n      mstore\n      0x20\n      add\n      swap1\n      dup2\n      mstore\n      0x20\n      add\n      0x00\n      keccak256\n        /* \"auth.sol\":6325:6350  persons[UID].blockAccount */\n      0x07\n      add\n      0x00\n      swap1\n      sload\n      swap1\n      0x0100\n      exp\n      swap1\n      div\n      0xffffffffffffffffffffffffffffffffffffffff\n      and\n        /* \"auth.sol\":6325:6364  persons[UID].blockAccount == msg.sender */\n      0xffffffffffffffffffffffffffffffffffffffff\n      and\n      eq\n        /* \"auth.sol\":6324:6403  (persons[UID].blockAccount == msg.sender) && (compare(pass, persons[UID].pass)) */\n      dup1\n      iszero\n      tag_64\n      jumpi\n      pop\n        /* \"auth.sol\":6370:6402  compare(pass, persons[UID].pass) */\n      tag_65\n        /* \"auth.sol\":6378:6382  pass */\n      dup3\n        /* \"auth.sol\":6384:6391  persons */\n      0x02\n        /* \"auth.sol\":6384:6396  persons[UID] */\n      0x00\n        /* \"auth.sol\":6392:6395  UID */\n      dup7\n        /* \"auth.sol\":6384:6396  persons[UID] */\n      0xffffffffffffffffffffffffffffffffffffffff\n      and\n      0xffffffffffffffffffffffffffffffffffffffff\n      and\n      dup2\n      mstore\n      0x20\n      add\n      swap1\n      dup2\n      mstore\n      0x20\n      add\n      0x00\n      keccak256\n        /* \"auth.sol\":6384:6401  persons[UID].pass */\n      0x03\n      add\n        /* \"auth.sol\":6370:6402  compare(pass, persons[UID].pass) */\n      dup1\n      sload\n      tag_66\n      swap1\n      tag_67\n      jump\t// in\n    tag_66:\n      dup1\n      0x1f\n      add\n      0x20\n      dup1\n      swap2\n      div\n      mul\n      0x20\n      add\n      mload(0x40)\n      swap1\n      dup2\n      add\n      0x40\n      mstore\n      dup1\n      swap3\n      swap2\n      swap1\n      dup2\n      dup2\n      mstore\n      0x20\n      add\n      dup3\n      dup1\n      sload\n      tag_68\n      swap1\n      tag_67\n      jump\t// in\n    tag_68:\n      dup1\n      iszero\n      tag_69\n      jumpi\n      dup1\n      0x1f\n      lt\n      tag_70\n      jumpi\n      0x0100\n      dup1\n      dup4\n      sload\n      div\n      mul\n      dup4\n      mstore\n      swap2\n      0x20\n      add\n      swap2\n      jump(tag_69)\n    tag_70:\n      dup3\n      add\n      swap2\n      swap1\n      0x00\n      mstore\n      keccak256(0x00, 0x20)\n      swap1\n    tag_71:\n      dup2\n      sload\n      dup2\n      mstore\n      swap1\n      0x01\n      add\n      swap1\n      0x20\n      add\n      dup1\n      dup4\n      gt\n      tag_71\n      jumpi\n      dup3\n      swap1\n      sub\n      0x1f\n      and\n      dup3\n      add\n      swap2\n    tag_69:\n      pop\n      pop\n      pop\n      pop\n      pop\n        /* \"auth.sol\":6370:6377  compare */\n      tag_72\n        /* \"auth.sol\":6370:6402  compare(pass, persons[UID].pass) */\n      jump\t// in\n    tag_65:\n        /* \"auth.sol\":6324:6403  (persons[UID].blockAccount == msg.sender) && (compare(pass, persons[UID].pass)) */\n    tag_64:\n        /* \"auth.sol\":6442:6449  persons */\n      0x02\n        /* \"auth.sol\":6442:6454  persons[UID] */\n      0x00\n        /* \"auth.sol\":6450:6453  UID */\n      dup6\n        /* \"auth.sol\":6442:6454  persons[UID] */\n      0xffffffffffffffffffffffffffffffffffffffff\n      and\n      0xffffffffffffffffffffffffffffffffffffffff\n      and\n      dup2\n      mstore\n      0x20\n      add\n      swap1\n      dup2\n      mstore\n      0x20\n      add\n      0x00\n      keccak256\n        /* \"auth.sol\":6442:6459  persons[UID].pass */\n      0x03\n      add\n        /* \"auth.sol\":6405:6460  string.concat(\"Incorrect password p\",persons[UID].pass) */\n      add(0x20, mload(0x40))\n      tag_73\n      swap2\n      swap1\n      tag_74\n      jump\t// in\n    tag_73:\n      mload(0x40)\n      0x20\n      dup2\n      dup4\n      sub\n      sub\n      dup2\n      mstore\n      swap1\n      0x40\n      mstore\n        /* \"auth.sol\":6316:6461  require((persons[UID].blockAccount == msg.sender) && (compare(pass, persons[UID].pass)), string.concat(\"Incorrect password p\",persons[UID].pass)) */\n      swap1\n      tag_75\n      jumpi\n      mload(0x40)\n      0x08c379a000000000000000000000000000000000000000000000000000000000\n      dup2\n      mstore\n      0x04\n      add\n      tag_76\n      swap2\n      swap1\n      tag_77\n      jump\t// in\n    tag_76:\n      mload(0x40)\n      dup1\n      swap2\n      sub\n      swap1\n      revert\n    tag_75:\n      pop\n        /* \"auth.sol\":6536:6540  pass */\n      dup2\n        /* \"auth.sol\":6565:6568  UID */\n      dup4\n        /* \"auth.sol\":6548:6569  abi.encodePacked(UID) */\n      add(0x20, mload(0x40))\n      tag_78\n      swap2\n      swap1\n      tag_79\n      jump\t// in\n    tag_78:\n      mload(0x40)\n      0x20\n      dup2\n      dup4\n      sub\n      sub\n      dup2\n      mstore\n      swap1\n      0x40\n      mstore\n        /* \"auth.sol\":6572:6605  Strings.toString(block.timestamp) */\n      tag_80\n        /* \"auth.sol\":6589:6604  block.timestamp */\n      timestamp\n        /* \"auth.sol\":6572:6588  Strings.toString */\n      tag_81\n        /* \"auth.sol\":6572:6605  Strings.toString(block.timestamp) */\n      jump\t// in\n    tag_80:\n        /* \"auth.sol\":6522:6606  string.concat(pass,string(abi.encodePacked(UID)), Strings.toString(block.timestamp)) */\n      add(0x20, mload(0x40))\n      tag_82\n      swap4\n      swap3\n      swap2\n      swap1\n      tag_83\n      jump\t// in\n    tag_82:\n      mload(0x40)\n      0x20\n      dup2\n      dup4\n      sub\n      sub\n      dup2\n      mstore\n      swap1\n      0x40\n      mstore\n        /* \"auth.sol\":6505:6607  abi.encodePacked(string.concat(pass,string(abi.encodePacked(UID)), Strings.toString(block.timestamp))) */\n      add(0x20, mload(0x40))\n      tag_84\n      swap2\n      swap1\n      tag_85\n      jump\t// in\n    tag_84:\n      mload(0x40)\n      0x20\n      dup2\n      dup4\n      sub\n      sub\n      dup2\n      mstore\n      swap1\n      0x40\n      mstore\n        /* \"auth.sol\":6495:6608  keccak256(abi.encodePacked(string.concat(pass,string(abi.encodePacked(UID)), Strings.toString(block.timestamp)))) */\n      dup1\n      mload\n      swap1\n      0x20\n      add\n      keccak256\n        /* \"auth.sol\":6472:6479  persons */\n      0x02\n        /* \"auth.sol\":6472:6484  persons[UID] */\n      0x00\n        /* \"auth.sol\":6480:6483  UID */\n      dup6\n        /* \"auth.sol\":6472:6484  persons[UID] */\n      0xffffffffffffffffffffffffffffffffffffffff\n      and\n      0xffffffffffffffffffffffffffffffffffffffff\n      and\n      dup2\n      mstore\n      0x20\n      add\n      swap1\n      dup2\n      mstore\n      0x20\n      add\n      0x00\n      keccak256\n        /* \"auth.sol\":6472:6492  persons[UID].session */\n      0x09\n      add\n        /* \"auth.sol\":6472:6608  persons[UID].session = keccak256(abi.encodePacked(string.concat(pass,string(abi.encodePacked(UID)), Strings.toString(block.timestamp)))) */\n      dup2\n      swap1\n      sstore\n      pop\n        /* \"auth.sol\":6631:6661  loggedIn(persons[UID].session) */\n      0x64e77de958dc791103ea3e91568baec95379923c83744bccc6b42a9a66423c9c\n        /* \"auth.sol\":6640:6647  persons */\n      0x02\n        /* \"auth.sol\":6640:6652  persons[UID] */\n      0x00\n        /* \"auth.sol\":6648:6651  UID */\n      dup6\n        /* \"auth.sol\":6640:6652  persons[UID] */\n      0xffffffffffffffffffffffffffffffffffffffff\n      and\n      0xffffffffffffffffffffffffffffffffffffffff\n      and\n      dup2\n      mstore\n      0x20\n      add\n      swap1\n      dup2\n      mstore\n      0x20\n      add\n      0x00\n      keccak256\n        /* \"auth.sol\":6640:6660  persons[UID].session */\n      0x09\n      add\n      sload\n        /* \"auth.sol\":6631:6661  loggedIn(persons[UID].session) */\n      mload(0x40)\n      tag_86\n      swap2\n      swap1\n      tag_29\n      jump\t// in\n    tag_86:\n      mload(0x40)\n      dup1\n      swap2\n      sub\n      swap1\n      log1\n        /* \"auth.sol\":6678:6685  persons */\n      0x02\n        /* \"auth.sol\":6678:6690  persons[UID] */\n      0x00\n        /* \"auth.sol\":6686:6689  UID */\n      dup5\n        /* \"auth.sol\":6678:6690  persons[UID] */\n      0xffffffffffffffffffffffffffffffffffffffff\n      and\n      0xffffffffffffffffffffffffffffffffffffffff\n      and\n      dup2\n      mstore\n      0x20\n      add\n      swap1\n      dup2\n      mstore\n      0x20\n      add\n      0x00\n      keccak256\n        /* \"auth.sol\":6678:6698  persons[UID].session */\n      0x09\n      add\n      sload\n        /* \"auth.sol\":6671:6698  return persons[UID].session */\n      swap1\n      pop\n        /* \"auth.sol\":6200:6705  function authenthicate(address UID, string memory pass) public payable returns(bytes32) {... */\n      swap3\n      swap2\n      pop\n      pop\n      jump\t// out\n        /* \"auth.sol\":5428:6008  function editUser(string memory fullName, string memory homeAddress, string memory phone, address blockAccount, string memory companyCode, bytes32 session) public payable... */\n    tag_33:\n        /* \"auth.sol\":5614:5633  checkLogin(session) */\n      tag_88\n        /* \"auth.sol\":5625:5632  session */\n      dup2\n        /* \"auth.sol\":5614:5624  checkLogin */\n      tag_14\n        /* \"auth.sol\":5614:5633  checkLogin(session) */\n      jump\t// in\n    tag_88:\n        /* \"auth.sol\":5643:5654  address UID */\n      0x00\n        /* \"auth.sol\":5657:5667  msg.sender */\n      caller\n        /* \"auth.sol\":5643:5667  address UID = msg.sender */\n      swap1\n      pop\n        /* \"auth.sol\":5712:5722  msg.sender */\n      caller\n        /* \"auth.sol\":5683:5722  persons[UID].blockAccount != msg.sender */\n      0xffffffffffffffffffffffffffffffffffffffff\n      and\n        /* \"auth.sol\":5683:5690  persons */\n      0x02\n        /* \"auth.sol\":5683:5695  persons[UID] */\n      0x00\n        /* \"auth.sol\":5691:5694  UID */\n      dup4\n        /* \"auth.sol\":5683:5695  persons[UID] */\n      0xffffffffffffffffffffffffffffffffffffffff\n      and\n      0xffffffffffffffffffffffffffffffffffffffff\n      and\n      dup2\n      mstore\n      0x20\n      add\n      swap1\n      dup2\n      mstore\n      0x20\n      add\n      0x00\n      keccak256\n        /* \"auth.sol\":5683:5708  persons[UID].blockAccount */\n      0x07\n      add\n      0x00\n      swap1\n      sload\n      swap1\n      0x0100\n      exp\n      swap1\n      div\n      0xffffffffffffffffffffffffffffffffffffffff\n      and\n        /* \"auth.sol\":5683:5722  persons[UID].blockAccount != msg.sender */\n      0xffffffffffffffffffffffffffffffffffffffff\n      and\n      eq\n        /* \"auth.sol\":5678:5999  if ((persons[UID].blockAccount != msg.sender))    ... */\n      tag_89\n      jumpi\n        /* \"auth.sol\":5777:5785  fullName */\n      dup7\n        /* \"auth.sol\":5753:5760  persons */\n      0x02\n        /* \"auth.sol\":5753:5765  persons[UID] */\n      0x00\n        /* \"auth.sol\":5761:5764  UID */\n      dup4\n        /* \"auth.sol\":5753:5765  persons[UID] */\n      0xffffffffffffffffffffffffffffffffffffffff\n      and\n      0xffffffffffffffffffffffffffffffffffffffff\n      and\n      dup2\n      mstore\n      0x20\n      add\n      swap1\n      dup2\n      mstore\n      0x20\n      add\n      0x00\n      keccak256\n        /* \"auth.sol\":5753:5774  persons[UID].fullName */\n      0x00\n      add\n        /* \"auth.sol\":5753:5785  persons[UID].fullName = fullName */\n      swap1\n      dup2\n      tag_90\n      swap2\n      swap1\n      tag_91\n      jump\t// in\n    tag_90:\n      pop\n        /* \"auth.sol\":5827:5838  homeAddress */\n      dup6\n        /* \"auth.sol\":5800:5807  persons */\n      0x02\n        /* \"auth.sol\":5800:5812  persons[UID] */\n      0x00\n        /* \"auth.sol\":5808:5811  UID */\n      dup4\n        /* \"auth.sol\":5800:5812  persons[UID] */\n      0xffffffffffffffffffffffffffffffffffffffff\n      and\n      0xffffffffffffffffffffffffffffffffffffffff\n      and\n      dup2\n      mstore\n      0x20\n      add\n      swap1\n      dup2\n      mstore\n      0x20\n      add\n      0x00\n      keccak256\n        /* \"auth.sol\":5800:5824  persons[UID].homeAddress */\n      0x02\n      add\n        /* \"auth.sol\":5800:5838  persons[UID].homeAddress = homeAddress */\n      swap1\n      dup2\n      tag_92\n      swap2\n      swap1\n      tag_91\n      jump\t// in\n    tag_92:\n      pop\n        /* \"auth.sol\":5874:5879  phone */\n      dup5\n        /* \"auth.sol\":5853:5860  persons */\n      0x02\n        /* \"auth.sol\":5853:5865  persons[UID] */\n      0x00\n        /* \"auth.sol\":5861:5864  UID */\n      dup4\n        /* \"auth.sol\":5853:5865  persons[UID] */\n      0xffffffffffffffffffffffffffffffffffffffff\n      and\n      0xffffffffffffffffffffffffffffffffffffffff\n      and\n      dup2\n      mstore\n      0x20\n      add\n      swap1\n      dup2\n      mstore\n      0x20\n      add\n      0x00\n      keccak256\n        /* \"auth.sol\":5853:5871  persons[UID].phone */\n      0x04\n      add\n        /* \"auth.sol\":5853:5879  persons[UID].phone = phone */\n      swap1\n      dup2\n      tag_93\n      swap2\n      swap1\n      tag_91\n      jump\t// in\n    tag_93:\n      pop\n        /* \"auth.sol\":5922:5934  blockAccount */\n      dup4\n        /* \"auth.sol\":5894:5901  persons */\n      0x02\n        /* \"auth.sol\":5894:5906  persons[UID] */\n      0x00\n        /* \"auth.sol\":5902:5905  UID */\n      dup4\n        /* \"auth.sol\":5894:5906  persons[UID] */\n      0xffffffffffffffffffffffffffffffffffffffff\n      and\n      0xffffffffffffffffffffffffffffffffffffffff\n      and\n      dup2\n      mstore\n      0x20\n      add\n      swap1\n      dup2\n      mstore\n      0x20\n      add\n      0x00\n      keccak256\n        /* \"auth.sol\":5894:5919  persons[UID].blockAccount */\n      0x07\n      add\n      0x00\n        /* \"auth.sol\":5894:5934  persons[UID].blockAccount = blockAccount */\n      0x0100\n      exp\n      dup2\n      sload\n      dup2\n      0xffffffffffffffffffffffffffffffffffffffff\n      mul\n      not\n      and\n      swap1\n      dup4\n      0xffffffffffffffffffffffffffffffffffffffff\n      and\n      mul\n      or\n      swap1\n      sstore\n      pop\n        /* \"auth.sol\":5976:5987  companyCode */\n      dup3\n        /* \"auth.sol\":5949:5956  persons */\n      0x02\n        /* \"auth.sol\":5949:5961  persons[UID] */\n      0x00\n        /* \"auth.sol\":5957:5960  UID */\n      dup4\n        /* \"auth.sol\":5949:5961  persons[UID] */\n      0xffffffffffffffffffffffffffffffffffffffff\n      and\n      0xffffffffffffffffffffffffffffffffffffffff\n      and\n      dup2\n      mstore\n      0x20\n      add\n      swap1\n      dup2\n      mstore\n      0x20\n      add\n      0x00\n      keccak256\n        /* \"auth.sol\":5949:5973  persons[UID].companyCode */\n      0x06\n      add\n        /* \"auth.sol\":5949:5987  persons[UID].companyCode = companyCode */\n      swap1\n      dup2\n      tag_94\n      swap2\n      swap1\n      tag_91\n      jump\t// in\n    tag_94:\n      pop\n        /* \"auth.sol\":5678:5999  if ((persons[UID].blockAccount != msg.sender))    ... */\n    tag_89:\n        /* \"auth.sol\":5603:6008  {... */\n      pop\n        /* \"auth.sol\":5428:6008  function editUser(string memory fullName, string memory homeAddress, string memory phone, address blockAccount, string memory companyCode, bytes32 session) public payable... */\n      pop\n      pop\n      pop\n      pop\n      pop\n      pop\n      jump\t// out\n        /* \"auth.sol\":999:3246  function createAccount(string memory fullName, string memory SSN, string memory homeAddress, string memory pass, uint8 accountType, string memory phone, address addr, string memory companyCode) public payable returns (address)... */\n    tag_37:\n        /* \"auth.sol\":1217:1224  address */\n      0x00\n        /* \"auth.sol\":1240:1249  isOwner() */\n      tag_96\n        /* \"auth.sol\":1240:1247  isOwner */\n      tag_53\n        /* \"auth.sol\":1240:1249  isOwner() */\n      jump\t// in\n    tag_96:\n        /* \"auth.sol\":1283:1284  5 */\n      0x05\n        /* \"auth.sol\":1268:1279  accountType */\n      dup6\n        /* \"auth.sol\":1268:1284  accountType <= 5 */\n      0xff\n      and\n      gt\n      iszero\n        /* \"auth.sol\":1260:1309  require(accountType <= 5, \"Invalid company type\") */\n      tag_97\n      jumpi\n      mload(0x40)\n      0x08c379a000000000000000000000000000000000000000000000000000000000\n      dup2\n      mstore\n      0x04\n      add\n      tag_98\n      swap1\n      tag_99\n      jump\t// in\n    tag_98:\n      mload(0x40)\n      dup1\n      swap2\n      sub\n      swap1\n      revert\n    tag_97:\n        /* \"auth.sol\":1348:1350  13 */\n      0x0d\n        /* \"auth.sol\":1333:1336  SSN */\n      dup9\n        /* \"auth.sol\":1327:1344  bytes(SSN).length */\n      mload\n        /* \"auth.sol\":1327:1350  bytes(SSN).length == 13 */\n      eq\n        /* \"auth.sol\":1383:1386  SSN */\n      dup9\n        /* \"auth.sol\":1352:1387  string.concat(\"Invalid SSN : \",SSN) */\n      add(0x20, mload(0x40))\n      tag_100\n      swap2\n      swap1\n      tag_101\n      jump\t// in\n    tag_100:\n      mload(0x40)\n      0x20\n      dup2\n      dup4\n      sub\n      sub\n      dup2\n      mstore\n      swap1\n      0x40\n      mstore\n        /* \"auth.sol\":1319:1388  require(bytes(SSN).length == 13, string.concat(\"Invalid SSN : \",SSN)) */\n      swap1\n      tag_102\n      jumpi\n      mload(0x40)\n      0x08c379a000000000000000000000000000000000000000000000000000000000\n      dup2\n      mstore\n      0x04\n      add\n      tag_103\n      swap2\n      swap1\n      tag_77\n      jump\t// in\n    tag_103:\n      mload(0x40)\n      dup1\n      swap2\n      sub\n      swap1\n      revert\n    tag_102:\n      pop\n        /* \"auth.sol\":1431:1432  6 */\n      0x06\n        /* \"auth.sol\":1412:1420  fullName */\n      dup10\n        /* \"auth.sol\":1406:1428  bytes(fullName).length */\n      mload\n        /* \"auth.sol\":1406:1432  bytes(fullName).length > 6 */\n      gt\n        /* \"auth.sol\":1398:1449  require(bytes(fullName).length > 6, \"Invalid name\") */\n      tag_104\n      jumpi\n      mload(0x40)\n      0x08c379a000000000000000000000000000000000000000000000000000000000\n      dup2\n      mstore\n      0x04\n      add\n      tag_105\n      swap1\n      tag_106\n      jump\t// in\n    tag_105:\n      mload(0x40)\n      dup1\n      swap2\n      sub\n      swap1\n      revert\n    tag_104:\n        /* \"auth.sol\":1495:1497  10 */\n      0x0a\n        /* \"auth.sol\":1473:1484  homeAddress */\n      dup8\n        /* \"auth.sol\":1467:1492  bytes(homeAddress).length */\n      mload\n        /* \"auth.sol\":1467:1497  bytes(homeAddress).length > 10 */\n      gt\n        /* \"auth.sol\":1459:1517  require(bytes(homeAddress).length > 10, \"Invalid address\") */\n      tag_107\n      jumpi\n      mload(0x40)\n      0x08c379a000000000000000000000000000000000000000000000000000000000\n      dup2\n      mstore\n      0x04\n      add\n      tag_108\n      swap1\n      tag_109\n      jump\t// in\n    tag_108:\n      mload(0x40)\n      dup1\n      swap2\n      sub\n      swap1\n      revert\n    tag_107:\n        /* \"auth.sol\":1556:1557  8 */\n      0x08\n        /* \"auth.sol\":1541:1545  pass */\n      dup7\n        /* \"auth.sol\":1535:1553  bytes(pass).length */\n      mload\n        /* \"auth.sol\":1535:1557  bytes(pass).length > 8 */\n      gt\n        /* \"auth.sol\":1527:1580  require(bytes(pass).length > 8, \"Password too short\") */\n      tag_110\n      jumpi\n      mload(0x40)\n      0x08c379a000000000000000000000000000000000000000000000000000000000\n      dup2\n      mstore\n      0x04\n      add\n      tag_111\n      swap1\n      tag_112\n      jump\t// in\n    tag_111:\n      mload(0x40)\n      dup1\n      swap2\n      sub\n      swap1\n      revert\n    tag_110:\n        /* \"auth.sol\":1620:1621  6 */\n      0x06\n        /* \"auth.sol\":1604:1609  phone */\n      dup5\n        /* \"auth.sol\":1598:1617  bytes(phone).length */\n      mload\n        /* \"auth.sol\":1598:1621  bytes(phone).length > 6 */\n      gt\n        /* \"auth.sol\":1590:1648  require(bytes(phone).length > 6, \"Phone number too short\") */\n      tag_113\n      jumpi\n      mload(0x40)\n      0x08c379a000000000000000000000000000000000000000000000000000000000\n      dup2\n      mstore\n      0x04\n      add\n      tag_114\n      swap1\n      tag_115\n      jump\t// in\n    tag_114:\n      mload(0x40)\n      dup1\n      swap2\n      sub\n      swap1\n      revert\n    tag_113:\n        /* \"auth.sol\":1658:1669  address UID */\n      0x00\n        /* \"auth.sol\":1672:1682  msg.sender */\n      caller\n        /* \"auth.sol\":1658:1682  address UID = msg.sender */\n      swap1\n      pop\n        /* \"auth.sol\":1692:1704  bytes32 UID2 */\n      0x00\n        /* \"auth.sol\":1748:1756  fullName */\n      dup11\n        /* \"auth.sol\":1757:1760  SSN */\n      dup11\n        /* \"auth.sol\":1761:1790  Strings.toString(accountType) */\n      tag_116\n        /* \"auth.sol\":1778:1789  accountType */\n      dup10\n        /* \"auth.sol\":1761:1790  Strings.toString(accountType) */\n      0xff\n      and\n        /* \"auth.sol\":1761:1777  Strings.toString */\n      tag_81\n        /* \"auth.sol\":1761:1790  Strings.toString(accountType) */\n      jump\t// in\n    tag_116:\n        /* \"auth.sol\":1791:1802  homeAddress */\n      dup12\n        /* \"auth.sol\":1803:1807  pass */\n      dup12\n        /* \"auth.sol\":1808:1813  phone */\n      dup11\n        /* \"auth.sol\":1734:1814  string.concat(fullName,SSN,Strings.toString(accountType),homeAddress,pass,phone) */\n      add(0x20, mload(0x40))\n      tag_117\n      swap7\n      swap6\n      swap5\n      swap4\n      swap3\n      swap2\n      swap1\n      tag_118\n      jump\t// in\n    tag_117:\n      mload(0x40)\n      0x20\n      dup2\n      dup4\n      sub\n      sub\n      dup2\n      mstore\n      swap1\n      0x40\n      mstore\n        /* \"auth.sol\":1717:1815  abi.encodePacked(string.concat(fullName,SSN,Strings.toString(accountType),homeAddress,pass,phone)) */\n      add(0x20, mload(0x40))\n      tag_119\n      swap2\n      swap1\n      tag_85\n      jump\t// in\n    tag_119:\n      mload(0x40)\n      0x20\n      dup2\n      dup4\n      sub\n      sub\n      dup2\n      mstore\n      swap1\n      0x40\n      mstore\n        /* \"auth.sol\":1707:1816  keccak256(abi.encodePacked(string.concat(fullName,SSN,Strings.toString(accountType),homeAddress,pass,phone))) */\n      dup1\n      mload\n      swap1\n      0x20\n      add\n      keccak256\n        /* \"auth.sol\":1692:1816  bytes32 UID2 = keccak256(abi.encodePacked(string.concat(fullName,SSN,Strings.toString(accountType),homeAddress,pass,phone))) */\n      swap1\n      pop\n        /* \"auth.sol\":1871:1872  0 */\n      0x00\n        /* \"auth.sol\":1856:1867  accountType */\n      dup8\n        /* \"auth.sol\":1856:1872  accountType == 0 */\n      0xff\n      and\n      sub\n        /* \"auth.sol\":1852:3164  if (accountType == 0)... */\n      tag_120\n      jumpi\n        /* \"auth.sol\":1911:2615  person({... */\n      mload(0x40)\n      dup1\n      0x0140\n      add\n      0x40\n      mstore\n      dup1\n        /* \"auth.sol\":1954:1960  cypher */\n      linkerSymbol(\"0394c467ed0fdd19c4eccf25096e0ad40f7a8f3a2ecaa74fa8ac0ce31535a80b\")\n        /* \"auth.sol\":1954:1968  cypher.encrypt */\n      0x015cfec7\n        /* \"auth.sol\":1975:1983  fullName */\n      dup15\n        /* \"auth.sol\":1992:1996  pass */\n      dup13\n        /* \"auth.sol\":1954:1998  cypher.encrypt(bytes(fullName), bytes(pass)) */\n      mload(0x40)\n      dup4\n      0xffffffff\n      and\n      0xe0\n      shl\n      dup2\n      mstore\n      0x04\n      add\n      tag_121\n      swap3\n      swap2\n      swap1\n      tag_122\n      jump\t// in\n    tag_121:\n      0x00\n      mload(0x40)\n      dup1\n      dup4\n      sub\n      dup2\n      dup7\n      gas\n      delegatecall\n      iszero\n      dup1\n      iszero\n      tag_124\n      jumpi\n      returndatasize\n      0x00\n      dup1\n      returndatacopy\n      revert(0x00, returndatasize)\n    tag_124:\n      pop\n      pop\n      pop\n      pop\n      mload(0x40)\n      returndatasize\n      0x00\n      dup3\n      returndatacopy\n      returndatasize\n      not(0x1f)\n      0x1f\n      dup3\n      add\n      and\n      dup3\n      add\n      dup1\n      0x40\n      mstore\n      pop\n      dup2\n      add\n      swap1\n      tag_125\n      swap2\n      swap1\n      tag_126\n      jump\t// in\n    tag_125:\n        /* \"auth.sol\":1911:2615  person({... */\n      dup2\n      mstore\n      0x20\n      add\n        /* \"auth.sol\":2030:2036  cypher */\n      linkerSymbol(\"0394c467ed0fdd19c4eccf25096e0ad40f7a8f3a2ecaa74fa8ac0ce31535a80b\")\n        /* \"auth.sol\":2030:2044  cypher.encrypt */\n      0x015cfec7\n        /* \"auth.sol\":2051:2054  SSN */\n      dup14\n        /* \"auth.sol\":2063:2067  pass */\n      dup13\n        /* \"auth.sol\":2030:2069  cypher.encrypt(bytes(SSN), bytes(pass)) */\n      mload(0x40)\n      dup4\n      0xffffffff\n      and\n      0xe0\n      shl\n      dup2\n      mstore\n      0x04\n      add\n      tag_127\n      swap3\n      swap2\n      swap1\n      tag_122\n      jump\t// in\n    tag_127:\n      0x00\n      mload(0x40)\n      dup1\n      dup4\n      sub\n      dup2\n      dup7\n      gas\n      delegatecall\n      iszero\n      dup1\n      iszero\n      tag_129\n      jumpi\n      returndatasize\n      0x00\n      dup1\n      returndatacopy\n      revert(0x00, returndatasize)\n    tag_129:\n      pop\n      pop\n      pop\n      pop\n      mload(0x40)\n      returndatasize\n      0x00\n      dup3\n      returndatacopy\n      returndatasize\n      not(0x1f)\n      0x1f\n      dup3\n      add\n      and\n      dup3\n      add\n      dup1\n      0x40\n      mstore\n      pop\n      dup2\n      add\n      swap1\n      tag_130\n      swap2\n      swap1\n      tag_126\n      jump\t// in\n    tag_130:\n        /* \"auth.sol\":1911:2615  person({... */\n      dup2\n      mstore\n      0x20\n      add\n        /* \"auth.sol\":2109:2115  cypher */\n      linkerSymbol(\"0394c467ed0fdd19c4eccf25096e0ad40f7a8f3a2ecaa74fa8ac0ce31535a80b\")\n        /* \"auth.sol\":2109:2123  cypher.encrypt */\n      0x015cfec7\n        /* \"auth.sol\":2130:2141  homeAddress */\n      dup13\n        /* \"auth.sol\":2150:2154  pass */\n      dup13\n        /* \"auth.sol\":2109:2156  cypher.encrypt(bytes(homeAddress), bytes(pass)) */\n      mload(0x40)\n      dup4\n      0xffffffff\n      and\n      0xe0\n      shl\n      dup2\n      mstore\n      0x04\n      add\n      tag_131\n      swap3\n      swap2\n      swap1\n      tag_122\n      jump\t// in\n    tag_131:\n      0x00\n      mload(0x40)\n      dup1\n      dup4\n      sub\n      dup2\n      dup7\n      gas\n      delegatecall\n      iszero\n      dup1\n      iszero\n      tag_133\n      jumpi\n      returndatasize\n      0x00\n      dup1\n      returndatacopy\n      revert(0x00, returndatasize)\n    tag_133:\n      pop\n      pop\n      pop\n      pop\n      mload(0x40)\n      returndatasize\n      0x00\n      dup3\n      returndatacopy\n      returndatasize\n      not(0x1f)\n      0x1f\n      dup3\n      add\n      and\n      dup3\n      add\n      dup1\n      0x40\n      mstore\n      pop\n      dup2\n      add\n      swap1\n      tag_134\n      swap2\n      swap1\n      tag_126\n      jump\t// in\n    tag_134:\n        /* \"auth.sol\":1911:2615  person({... */\n      dup2\n      mstore\n      0x20\n      add\n        /* \"auth.sol\":2182:2245  Strings.toHexString(uint256(keccak256(abi.encodePacked(pass)))) */\n      tag_135\n        /* \"auth.sol\":2237:2241  pass */\n      dup11\n        /* \"auth.sol\":2220:2242  abi.encodePacked(pass) */\n      add(0x20, mload(0x40))\n      tag_136\n      swap2\n      swap1\n      tag_85\n      jump\t// in\n    tag_136:\n      mload(0x40)\n      0x20\n      dup2\n      dup4\n      sub\n      sub\n      dup2\n      mstore\n      swap1\n      0x40\n      mstore\n        /* \"auth.sol\":2210:2243  keccak256(abi.encodePacked(pass)) */\n      dup1\n      mload\n      swap1\n      0x20\n      add\n      keccak256\n        /* \"auth.sol\":2202:2244  uint256(keccak256(abi.encodePacked(pass))) */\n      0x00\n      shr\n        /* \"auth.sol\":2182:2201  Strings.toHexString */\n      tag_137\n        /* \"auth.sol\":2182:2245  Strings.toHexString(uint256(keccak256(abi.encodePacked(pass)))) */\n      jump\t// in\n    tag_135:\n        /* \"auth.sol\":1911:2615  person({... */\n      dup2\n      mstore\n      0x20\n      add\n        /* \"auth.sol\":2278:2284  cypher */\n      linkerSymbol(\"0394c467ed0fdd19c4eccf25096e0ad40f7a8f3a2ecaa74fa8ac0ce31535a80b\")\n        /* \"auth.sol\":2278:2292  cypher.encrypt */\n      0x015cfec7\n        /* \"auth.sol\":2299:2304  phone */\n      dup10\n        /* \"auth.sol\":2313:2317  pass */\n      dup13\n        /* \"auth.sol\":2278:2319  cypher.encrypt(bytes(phone), bytes(pass)) */\n      mload(0x40)\n      dup4\n      0xffffffff\n      and\n      0xe0\n      shl\n      dup2\n      mstore\n      0x04\n      add\n      tag_138\n      swap3\n      swap2\n      swap1\n      tag_122\n      jump\t// in\n    tag_138:\n      0x00\n      mload(0x40)\n      dup1\n      dup4\n      sub\n      dup2\n      dup7\n      gas\n      delegatecall\n      iszero\n      dup1\n      iszero\n      tag_140\n      jumpi\n      returndatasize\n      0x00\n      dup1\n      returndatacopy\n      revert(0x00, returndatasize)\n    tag_140:\n      pop\n      pop\n      pop\n      pop\n      mload(0x40)\n      returndatasize\n      0x00\n      dup3\n      returndatacopy\n      returndatasize\n      not(0x1f)\n      0x1f\n      dup3\n      add\n      and\n      dup3\n      add\n      dup1\n      0x40\n      mstore\n      pop\n      dup2\n      add\n      swap1\n      tag_141\n      swap2\n      swap1\n      tag_126\n      jump\t// in\n    tag_141:\n        /* \"auth.sol\":1911:2615  person({... */\n      dup2\n      mstore\n      0x20\n      add\n        /* \"auth.sol\":2351:2362  accountType */\n      dup9\n        /* \"auth.sol\":1911:2615  person({... */\n      0xff\n      and\n      dup2\n      mstore\n      0x20\n      add\n      mload(0x40)\n      dup1\n      0x40\n      add\n      0x40\n      mstore\n      dup1\n      0x01\n      dup2\n      mstore\n      0x20\n      add\n      0x3000000000000000000000000000000000000000000000000000000000000000\n      dup2\n      mstore\n      pop\n      dup2\n      mstore\n      0x20\n      add\n        /* \"auth.sol\":2395:2399  addr */\n      dup7\n        /* \"auth.sol\":1911:2615  person({... */\n      0xffffffffffffffffffffffffffffffffffffffff\n      and\n      dup2\n      mstore\n      0x20\n      add\n        /* \"auth.sol\":2422:2426  UID2 */\n      dup3\n        /* \"auth.sol\":1911:2615  person({... */\n      dup2\n      mstore\n      0x20\n      add\n        /* \"auth.sol\":2528:2532  pass */\n      dup10\n        /* \"auth.sol\":2557:2560  UID */\n      dup5\n        /* \"auth.sol\":2540:2561  abi.encodePacked(UID) */\n      add(0x20, mload(0x40))\n      tag_142\n      swap2\n      swap1\n      tag_79\n      jump\t// in\n    tag_142:\n      mload(0x40)\n      0x20\n      dup2\n      dup4\n      sub\n      sub\n      dup2\n      mstore\n      swap1\n      0x40\n      mstore\n        /* \"auth.sol\":2564:2597  Strings.toString(block.timestamp) */\n      tag_143\n        /* \"auth.sol\":2581:2596  block.timestamp */\n      timestamp\n        /* \"auth.sol\":2564:2580  Strings.toString */\n      tag_81\n        /* \"auth.sol\":2564:2597  Strings.toString(block.timestamp) */\n      jump\t// in\n    tag_143:\n        /* \"auth.sol\":2514:2598  string.concat(pass,string(abi.encodePacked(UID)), Strings.toString(block.timestamp)) */\n      add(0x20, mload(0x40))\n      tag_144\n      swap4\n      swap3\n      swap2\n      swap1\n      tag_83\n      jump\t// in\n    tag_144:\n      mload(0x40)\n      0x20\n      dup2\n      dup4\n      sub\n      sub\n      dup2\n      mstore\n      swap1\n      0x40\n      mstore\n        /* \"auth.sol\":2497:2599  abi.encodePacked(string.concat(pass,string(abi.encodePacked(UID)), Strings.toString(block.timestamp))) */\n      add(0x20, mload(0x40))\n      tag_145\n      swap2\n      swap1\n      tag_85\n      jump\t// in\n    tag_145:\n      mload(0x40)\n      0x20\n      dup2\n      dup4\n      sub\n      sub\n      dup2\n      mstore\n      swap1\n      0x40\n      mstore\n        /* \"auth.sol\":2487:2600  keccak256(abi.encodePacked(string.concat(pass,string(abi.encodePacked(UID)), Strings.toString(block.timestamp)))) */\n      dup1\n      mload\n      swap1\n      0x20\n      add\n      keccak256\n        /* \"auth.sol\":1911:2615  person({... */\n      dup2\n      mstore\n      pop\n        /* \"auth.sol\":1896:1903  persons */\n      0x02\n        /* \"auth.sol\":1896:1908  persons[UID] */\n      0x00\n        /* \"auth.sol\":1904:1907  UID */\n      dup5\n        /* \"auth.sol\":1896:1908  persons[UID] */\n      0xffffffffffffffffffffffffffffffffffffffff\n      and\n      0xffffffffffffffffffffffffffffffffffffffff\n      and\n      dup2\n      mstore\n      0x20\n      add\n      swap1\n      dup2\n      mstore\n      0x20\n      add\n      0x00\n      keccak256\n        /* \"auth.sol\":1896:2615  persons[UID] = person({... */\n      0x00\n      dup3\n      add\n      mload\n      dup2\n      0x00\n      add\n      swap1\n      dup2\n      tag_146\n      swap2\n      swap1\n      tag_91\n      jump\t// in\n    tag_146:\n      pop\n      0x20\n      dup3\n      add\n      mload\n      dup2\n      0x01\n      add\n      swap1\n      dup2\n      tag_147\n      swap2\n      swap1\n      tag_91\n      jump\t// in\n    tag_147:\n      pop\n      0x40\n      dup3\n      add\n      mload\n      dup2\n      0x02\n      add\n      swap1\n      dup2\n      tag_148\n      swap2\n      swap1\n      tag_91\n      jump\t// in\n    tag_148:\n      pop\n      0x60\n      dup3\n      add\n      mload\n      dup2\n      0x03\n      add\n      swap1\n      dup2\n      tag_149\n      swap2\n      swap1\n      tag_91\n      jump\t// in\n    tag_149:\n      pop\n      0x80\n      dup3\n      add\n      mload\n      dup2\n      0x04\n      add\n      swap1\n      dup2\n      tag_150\n      swap2\n      swap1\n      tag_91\n      jump\t// in\n    tag_150:\n      pop\n      0xa0\n      dup3\n      add\n      mload\n      dup2\n      0x05\n      add\n      exp(0x0100, 0x00)\n      dup2\n      sload\n      dup2\n      0xff\n      mul\n      not\n      and\n      swap1\n      dup4\n      0xff\n      and\n      mul\n      or\n      swap1\n      sstore\n      pop\n      0xc0\n      dup3\n      add\n      mload\n      dup2\n      0x06\n      add\n      swap1\n      dup2\n      tag_151\n      swap2\n      swap1\n      tag_91\n      jump\t// in\n    tag_151:\n      pop\n      0xe0\n      dup3\n      add\n      mload\n      dup2\n      0x07\n      add\n      exp(0x0100, 0x00)\n      dup2\n      sload\n      dup2\n      0xffffffffffffffffffffffffffffffffffffffff\n      mul\n      not\n      and\n      swap1\n      dup4\n      0xffffffffffffffffffffffffffffffffffffffff\n      and\n      mul\n      or\n      swap1\n      sstore\n      pop\n      0x0100\n      dup3\n      add\n      mload\n      dup2\n      0x08\n      add\n      sstore\n      0x0120\n      dup3\n      add\n      mload\n      dup2\n      0x09\n      add\n      sstore\n      swap1\n      pop\n      pop\n        /* \"auth.sol\":1852:3164  if (accountType == 0)... */\n      jump(tag_152)\n    tag_120:\n        /* \"auth.sol\":2677:3153  person({... */\n      mload(0x40)\n      dup1\n      0x0140\n      add\n      0x40\n      mstore\n      dup1\n        /* \"auth.sol\":2713:2721  fullName */\n      dup13\n        /* \"auth.sol\":2677:3153  person({... */\n      dup2\n      mstore\n      0x20\n      add\n        /* \"auth.sol\":2745:2748  SSN */\n      dup12\n        /* \"auth.sol\":2677:3153  person({... */\n      dup2\n      mstore\n      0x20\n      add\n        /* \"auth.sol\":2780:2791  homeAddress */\n      dup11\n        /* \"auth.sol\":2677:3153  person({... */\n      dup2\n      mstore\n      0x20\n      add\n        /* \"auth.sol\":2816:2820  pass */\n      dup10\n        /* \"auth.sol\":2677:3153  person({... */\n      dup2\n      mstore\n      0x20\n      add\n        /* \"auth.sol\":2846:2851  phone */\n      dup8\n        /* \"auth.sol\":2677:3153  person({... */\n      dup2\n      mstore\n      0x20\n      add\n        /* \"auth.sol\":2882:2893  accountType */\n      dup9\n        /* \"auth.sol\":2677:3153  person({... */\n      0xff\n      and\n      dup2\n      mstore\n      0x20\n      add\n        /* \"auth.sol\":2987:2998  companyCode */\n      dup6\n        /* \"auth.sol\":2677:3153  person({... */\n      dup2\n      mstore\n      0x20\n      add\n        /* \"auth.sol\":2926:2930  addr */\n      dup7\n        /* \"auth.sol\":2677:3153  person({... */\n      0xffffffffffffffffffffffffffffffffffffffff\n      and\n      dup2\n      mstore\n      0x20\n      add\n        /* \"auth.sol\":2953:2957  UID2 */\n      dup3\n        /* \"auth.sol\":2677:3153  person({... */\n      dup2\n      mstore\n      0x20\n      add\n        /* \"auth.sol\":3066:3070  pass */\n      dup10\n        /* \"auth.sol\":3095:3098  UID */\n      dup5\n        /* \"auth.sol\":3078:3099  abi.encodePacked(UID) */\n      add(0x20, mload(0x40))\n      tag_153\n      swap2\n      swap1\n      tag_79\n      jump\t// in\n    tag_153:\n      mload(0x40)\n      0x20\n      dup2\n      dup4\n      sub\n      sub\n      dup2\n      mstore\n      swap1\n      0x40\n      mstore\n        /* \"auth.sol\":3102:3135  Strings.toString(block.timestamp) */\n      tag_154\n        /* \"auth.sol\":3119:3134  block.timestamp */\n      timestamp\n        /* \"auth.sol\":3102:3118  Strings.toString */\n      tag_81\n        /* \"auth.sol\":3102:3135  Strings.toString(block.timestamp) */\n      jump\t// in\n    tag_154:\n        /* \"auth.sol\":3052:3136  string.concat(pass,string(abi.encodePacked(UID)), Strings.toString(block.timestamp)) */\n      add(0x20, mload(0x40))\n      tag_155\n      swap4\n      swap3\n      swap2\n      swap1\n      tag_83\n      jump\t// in\n    tag_155:\n      mload(0x40)\n      0x20\n      dup2\n      dup4\n      sub\n      sub\n      dup2\n      mstore\n      swap1\n      0x40\n      mstore\n        /* \"auth.sol\":3035:3137  abi.encodePacked(string.concat(pass,string(abi.encodePacked(UID)), Strings.toString(block.timestamp))) */\n      add(0x20, mload(0x40))\n      tag_156\n      swap2\n      swap1\n      tag_85\n      jump\t// in\n    tag_156:\n      mload(0x40)\n      0x20\n      dup2\n      dup4\n      sub\n      sub\n      dup2\n      mstore\n      swap1\n      0x40\n      mstore\n        /* \"auth.sol\":3025:3138  keccak256(abi.encodePacked(string.concat(pass,string(abi.encodePacked(UID)), Strings.toString(block.timestamp)))) */\n      dup1\n      mload\n      swap1\n      0x20\n      add\n      keccak256\n        /* \"auth.sol\":2677:3153  person({... */\n      dup2\n      mstore\n      pop\n        /* \"auth.sol\":2662:2669  persons */\n      0x02\n        /* \"auth.sol\":2662:2674  persons[UID] */\n      0x00\n        /* \"auth.sol\":2670:2673  UID */\n      dup5\n        /* \"auth.sol\":2662:2674  persons[UID] */\n      0xffffffffffffffffffffffffffffffffffffffff\n      and\n      0xffffffffffffffffffffffffffffffffffffffff\n      and\n      dup2\n      mstore\n      0x20\n      add\n      swap1\n      dup2\n      mstore\n      0x20\n      add\n      0x00\n      keccak256\n        /* \"auth.sol\":2662:3153  persons[UID] = person({... */\n      0x00\n      dup3\n      add\n      mload\n      dup2\n      0x00\n      add\n      swap1\n      dup2\n      tag_157\n      swap2\n      swap1\n      tag_91\n      jump\t// in\n    tag_157:\n      pop\n      0x20\n      dup3\n      add\n      mload\n      dup2\n      0x01\n      add\n      swap1\n      dup2\n      tag_158\n      swap2\n      swap1\n      tag_91\n      jump\t// in\n    tag_158:\n      pop\n      0x40\n      dup3\n      add\n      mload\n      dup2\n      0x02\n      add\n      swap1\n      dup2\n      tag_159\n      swap2\n      swap1\n      tag_91\n      jump\t// in\n    tag_159:\n      pop\n      0x60\n      dup3\n      add\n      mload\n      dup2\n      0x03\n      add\n      swap1\n      dup2\n      tag_160\n      swap2\n      swap1\n      tag_91\n      jump\t// in\n    tag_160:\n      pop\n      0x80\n      dup3\n      add\n      mload\n      dup2\n      0x04\n      add\n      swap1\n      dup2\n      tag_161\n      swap2\n      swap1\n      tag_91\n      jump\t// in\n    tag_161:\n      pop\n      0xa0\n      dup3\n      add\n      mload\n      dup2\n      0x05\n      add\n      exp(0x0100, 0x00)\n      dup2\n      sload\n      dup2\n      0xff\n      mul\n      not\n      and\n      swap1\n      dup4\n      0xff\n      and\n      mul\n      or\n      swap1\n      sstore\n      pop\n      0xc0\n      dup3\n      add\n      mload\n      dup2\n      0x06\n      add\n      swap1\n      dup2\n      tag_162\n      swap2\n      swap1\n      tag_91\n      jump\t// in\n    tag_162:\n      pop\n      0xe0\n      dup3\n      add\n      mload\n      dup2\n      0x07\n      add\n      exp(0x0100, 0x00)\n      dup2\n      sload\n      dup2\n      0xffffffffffffffffffffffffffffffffffffffff\n      mul\n      not\n      and\n      swap1\n      dup4\n      0xffffffffffffffffffffffffffffffffffffffff\n      and\n      mul\n      or\n      swap1\n      sstore\n      pop\n      0x0100\n      dup3\n      add\n      mload\n      dup2\n      0x08\n      add\n      sstore\n      0x0120\n      dup3\n      add\n      mload\n      dup2\n      0x09\n      add\n      sstore\n      swap1\n      pop\n      pop\n        /* \"auth.sol\":1852:3164  if (accountType == 0)... */\n    tag_152:\n        /* \"auth.sol\":3173:3183  population */\n      0x01\n      0x00\n        /* \"auth.sol\":3173:3185  population++ */\n      dup2\n      sload\n      dup1\n      swap3\n      swap2\n      swap1\n      tag_163\n      swap1\n      tag_164\n      jump\t// in\n    tag_163:\n      swap2\n      swap1\n      pop\n      sstore\n      pop\n        /* \"auth.sol\":3200:3219  accountCreated(UID) */\n      0x903b7ac47b7da7b36fedec2c9eae9fe8e1daf2406a8e7a3f077db196b45a7ef8\n        /* \"auth.sol\":3215:3218  UID */\n      dup3\n        /* \"auth.sol\":3200:3219  accountCreated(UID) */\n      mload(0x40)\n      tag_165\n      swap2\n      swap1\n      tag_39\n      jump\t// in\n    tag_165:\n      mload(0x40)\n      dup1\n      swap2\n      sub\n      swap1\n      log1\n        /* \"auth.sol\":3236:3239  UID */\n      dup2\n        /* \"auth.sol\":3229:3239  return UID */\n      swap3\n      pop\n      pop\n      pop\n        /* \"auth.sol\":999:3246  function createAccount(string memory fullName, string memory SSN, string memory homeAddress, string memory pass, uint8 accountType, string memory phone, address addr, string memory companyCode) public payable returns (address)... */\n      swap9\n      swap8\n      pop\n      pop\n      pop\n      pop\n      pop\n      pop\n      pop\n      pop\n      jump\t// out\n        /* \"auth.sol\":3384:5422  function getUser(address UID, string memory pass) public view returns(person memory)... */\n    tag_43:\n        /* \"auth.sol\":3454:3467  person memory */\n      tag_166\n      tag_167\n      jump\t// in\n    tag_166:\n        /* \"auth.sol\":3483:3511  person memory censoredPerson */\n      tag_169\n      tag_167\n      jump\t// in\n    tag_169:\n        /* \"auth.sol\":3556:3566  msg.sender */\n      caller\n        /* \"auth.sol\":3527:3566  persons[UID].blockAccount != msg.sender */\n      0xffffffffffffffffffffffffffffffffffffffff\n      and\n        /* \"auth.sol\":3527:3534  persons */\n      0x02\n        /* \"auth.sol\":3527:3539  persons[UID] */\n      0x00\n        /* \"auth.sol\":3535:3538  UID */\n      dup7\n        /* \"auth.sol\":3527:3539  persons[UID] */\n      0xffffffffffffffffffffffffffffffffffffffff\n      and\n      0xffffffffffffffffffffffffffffffffffffffff\n      and\n      dup2\n      mstore\n      0x20\n      add\n      swap1\n      dup2\n      mstore\n      0x20\n      add\n      0x00\n      keccak256\n        /* \"auth.sol\":3527:3552  persons[UID].blockAccount */\n      0x07\n      add\n      0x00\n      swap1\n      sload\n      swap1\n      0x0100\n      exp\n      swap1\n      div\n      0xffffffffffffffffffffffffffffffffffffffff\n      and\n        /* \"auth.sol\":3527:3566  persons[UID].blockAccount != msg.sender */\n      0xffffffffffffffffffffffffffffffffffffffff\n      and\n      eq\n        /* \"auth.sol\":3523:4800  if (persons[UID].blockAccount != msg.sender)... */\n      tag_170\n      jumpi\n        /* \"auth.sol\":3607:4046  person({... */\n      mload(0x40)\n      dup1\n      0x0140\n      add\n      0x40\n      mstore\n      dup1\n      mload(0x40)\n      dup1\n      0x40\n      add\n      0x40\n      mstore\n      dup1\n      0x0b\n      dup2\n      mstore\n      0x20\n      add\n      0x2a2a2a2a2a2a2a2a2a2a2a000000000000000000000000000000000000000000\n      dup2\n      mstore\n      pop\n      dup2\n      mstore\n      0x20\n      add\n      mload(0x40)\n      dup1\n      0x40\n      add\n      0x40\n      mstore\n      dup1\n      0x06\n      dup2\n      mstore\n      0x20\n      add\n      0x2a2a2a2a2a2a0000000000000000000000000000000000000000000000000000\n      dup2\n      mstore\n      pop\n      dup2\n      mstore\n      0x20\n      add\n      mload(0x40)\n      dup1\n      0x40\n      add\n      0x40\n      mstore\n      dup1\n      0x0a\n      dup2\n      mstore\n      0x20\n      add\n      0x2a2a2a2a2a2a2a2a2a2a00000000000000000000000000000000000000000000\n      dup2\n      mstore\n      pop\n      dup2\n      mstore\n      0x20\n      add\n      mload(0x40)\n      dup1\n      0x40\n      add\n      0x40\n      mstore\n      dup1\n      0x07\n      dup2\n      mstore\n      0x20\n      add\n      0x2a2a2a2a2a2a2a00000000000000000000000000000000000000000000000000\n      dup2\n      mstore\n      pop\n      dup2\n      mstore\n      0x20\n      add\n      mload(0x40)\n      dup1\n      0x40\n      add\n      0x40\n      mstore\n      dup1\n      0x08\n      dup2\n      mstore\n      0x20\n      add\n      0x2a2a2a2a2a2a2a2a000000000000000000000000000000000000000000000000\n      dup2\n      mstore\n      pop\n      dup2\n      mstore\n      0x20\n      add\n        /* \"auth.sol\":3829:3836  persons */\n      0x02\n        /* \"auth.sol\":3829:3841  persons[UID] */\n      0x00\n        /* \"auth.sol\":3837:3840  UID */\n      dup8\n        /* \"auth.sol\":3829:3841  persons[UID] */\n      0xffffffffffffffffffffffffffffffffffffffff\n      and\n      0xffffffffffffffffffffffffffffffffffffffff\n      and\n      dup2\n      mstore\n      0x20\n      add\n      swap1\n      dup2\n      mstore\n      0x20\n      add\n      0x00\n      keccak256\n        /* \"auth.sol\":3829:3853  persons[UID].accountType */\n      0x05\n      add\n      0x00\n      swap1\n      sload\n      swap1\n      0x0100\n      exp\n      swap1\n      div\n      0xff\n      and\n        /* \"auth.sol\":3607:4046  person({... */\n      0xff\n      and\n      dup2\n      mstore\n      0x20\n      add\n        /* \"auth.sol\":3966:3973  persons */\n      0x02\n        /* \"auth.sol\":3966:3978  persons[UID] */\n      0x00\n        /* \"auth.sol\":3974:3977  UID */\n      dup8\n        /* \"auth.sol\":3966:3978  persons[UID] */\n      0xffffffffffffffffffffffffffffffffffffffff\n      and\n      0xffffffffffffffffffffffffffffffffffffffff\n      and\n      dup2\n      mstore\n      0x20\n      add\n      swap1\n      dup2\n      mstore\n      0x20\n      add\n      0x00\n      keccak256\n        /* \"auth.sol\":3966:3990  persons[UID].companyCode */\n      0x06\n      add\n        /* \"auth.sol\":3607:4046  person({... */\n      dup1\n      sload\n      tag_171\n      swap1\n      tag_67\n      jump\t// in\n    tag_171:\n      dup1\n      0x1f\n      add\n      0x20\n      dup1\n      swap2\n      div\n      mul\n      0x20\n      add\n      mload(0x40)\n      swap1\n      dup2\n      add\n      0x40\n      mstore\n      dup1\n      swap3\n      swap2\n      swap1\n      dup2\n      dup2\n      mstore\n      0x20\n      add\n      dup3\n      dup1\n      sload\n      tag_172\n      swap1\n      tag_67\n      jump\t// in\n    tag_172:\n      dup1\n      iszero\n      tag_173\n      jumpi\n      dup1\n      0x1f\n      lt\n      tag_174\n      jumpi\n      0x0100\n      dup1\n      dup4\n      sload\n      div\n      mul\n      dup4\n      mstore\n      swap2\n      0x20\n      add\n      swap2\n      jump(tag_173)\n    tag_174:\n      dup3\n      add\n      swap2\n      swap1\n      0x00\n      mstore\n      keccak256(0x00, 0x20)\n      swap1\n    tag_175:\n      dup2\n      sload\n      dup2\n      mstore\n      swap1\n      0x01\n      add\n      swap1\n      0x20\n      add\n      dup1\n      dup4\n      gt\n      tag_175\n      jumpi\n      dup3\n      swap1\n      sub\n      0x1f\n      and\n      dup3\n      add\n      swap2\n    tag_173:\n      pop\n      pop\n      pop\n      pop\n      pop\n      dup2\n      mstore\n      0x20\n      add\n        /* \"auth.sol\":3884:3894  msg.sender */\n      caller\n        /* \"auth.sol\":3607:4046  person({... */\n      0xffffffffffffffffffffffffffffffffffffffff\n      and\n      dup2\n      mstore\n      0x20\n      add\n        /* \"auth.sol\":3918:3925  persons */\n      0x02\n        /* \"auth.sol\":3918:3930  persons[UID] */\n      0x00\n        /* \"auth.sol\":3926:3929  UID */\n      dup8\n        /* \"auth.sol\":3918:3930  persons[UID] */\n      0xffffffffffffffffffffffffffffffffffffffff\n      and\n      0xffffffffffffffffffffffffffffffffffffffff\n      and\n      dup2\n      mstore\n      0x20\n      add\n      swap1\n      dup2\n      mstore\n      0x20\n      add\n      0x00\n      keccak256\n        /* \"auth.sol\":3918:3934  persons[UID].UID */\n      0x08\n      add\n      sload\n        /* \"auth.sol\":3607:4046  person({... */\n      dup2\n      mstore\n      0x20\n      add\n      0x2a2a2a2a2a2a2a2a2a2a2a000000000000000000000000000000000000000000\n      dup2\n      mstore\n      pop\n        /* \"auth.sol\":3590:4046  censoredPerson = person({... */\n      swap1\n      pop\n        /* \"auth.sol\":3523:4800  if (persons[UID].blockAccount != msg.sender)... */\n      jump(tag_176)\n    tag_170:\n        /* \"auth.sol\":4110:4778  person({... */\n      mload(0x40)\n      dup1\n      0x0140\n      add\n      0x40\n      mstore\n      dup1\n        /* \"auth.sol\":4153:4159  cypher */\n      linkerSymbol(\"0394c467ed0fdd19c4eccf25096e0ad40f7a8f3a2ecaa74fa8ac0ce31535a80b\")\n        /* \"auth.sol\":4153:4167  cypher.encrypt */\n      0x015cfec7\n        /* \"auth.sol\":4174:4181  persons */\n      0x02\n        /* \"auth.sol\":4174:4186  persons[UID] */\n      0x00\n        /* \"auth.sol\":4182:4185  UID */\n      dup10\n        /* \"auth.sol\":4174:4186  persons[UID] */\n      0xffffffffffffffffffffffffffffffffffffffff\n      and\n      0xffffffffffffffffffffffffffffffffffffffff\n      and\n      dup2\n      mstore\n      0x20\n      add\n      swap1\n      dup2\n      mstore\n      0x20\n      add\n      0x00\n      keccak256\n        /* \"auth.sol\":4174:4195  persons[UID].fullName */\n      0x00\n      add\n        /* \"auth.sol\":4204:4208  pass */\n      dup8\n        /* \"auth.sol\":4153:4210  cypher.encrypt(bytes(persons[UID].fullName), bytes(pass)) */\n      mload(0x40)\n      dup4\n      0xffffffff\n      and\n      0xe0\n      shl\n      dup2\n      mstore\n      0x04\n      add\n      tag_177\n      swap3\n      swap2\n      swap1\n      tag_178\n      jump\t// in\n    tag_177:\n      0x00\n      mload(0x40)\n      dup1\n      dup4\n      sub\n      dup2\n      dup7\n      gas\n      delegatecall\n      iszero\n      dup1\n      iszero\n      tag_180\n      jumpi\n      returndatasize\n      0x00\n      dup1\n      returndatacopy\n      revert(0x00, returndatasize)\n    tag_180:\n      pop\n      pop\n      pop\n      pop\n      mload(0x40)\n      returndatasize\n      0x00\n      dup3\n      returndatacopy\n      returndatasize\n      not(0x1f)\n      0x1f\n      dup3\n      add\n      and\n      dup3\n      add\n      dup1\n      0x40\n      mstore\n      pop\n      dup2\n      add\n      swap1\n      tag_181\n      swap2\n      swap1\n      tag_126\n      jump\t// in\n    tag_181:\n        /* \"auth.sol\":4110:4778  person({... */\n      dup2\n      mstore\n      0x20\n      add\n        /* \"auth.sol\":4242:4248  cypher */\n      linkerSymbol(\"0394c467ed0fdd19c4eccf25096e0ad40f7a8f3a2ecaa74fa8ac0ce31535a80b\")\n        /* \"auth.sol\":4242:4256  cypher.encrypt */\n      0x015cfec7\n        /* \"auth.sol\":4263:4270  persons */\n      0x02\n        /* \"auth.sol\":4263:4275  persons[UID] */\n      0x00\n        /* \"auth.sol\":4271:4274  UID */\n      dup10\n        /* \"auth.sol\":4263:4275  persons[UID] */\n      0xffffffffffffffffffffffffffffffffffffffff\n      and\n      0xffffffffffffffffffffffffffffffffffffffff\n      and\n      dup2\n      mstore\n      0x20\n      add\n      swap1\n      dup2\n      mstore\n      0x20\n      add\n      0x00\n      keccak256\n        /* \"auth.sol\":4263:4279  persons[UID].SSN */\n      0x01\n      add\n        /* \"auth.sol\":4288:4292  pass */\n      dup8\n        /* \"auth.sol\":4242:4294  cypher.encrypt(bytes(persons[UID].SSN), bytes(pass)) */\n      mload(0x40)\n      dup4\n      0xffffffff\n      and\n      0xe0\n      shl\n      dup2\n      mstore\n      0x04\n      add\n      tag_182\n      swap3\n      swap2\n      swap1\n      tag_178\n      jump\t// in\n    tag_182:\n      0x00\n      mload(0x40)\n      dup1\n      dup4\n      sub\n      dup2\n      dup7\n      gas\n      delegatecall\n      iszero\n      dup1\n      iszero\n      tag_184\n      jumpi\n      returndatasize\n      0x00\n      dup1\n      returndatacopy\n      revert(0x00, returndatasize)\n    tag_184:\n      pop\n      pop\n      pop\n      pop\n      mload(0x40)\n      returndatasize\n      0x00\n      dup3\n      returndatacopy\n      returndatasize\n      not(0x1f)\n      0x1f\n      dup3\n      add\n      and\n      dup3\n      add\n      dup1\n      0x40\n      mstore\n      pop\n      dup2\n      add\n      swap1\n      tag_185\n      swap2\n      swap1\n      tag_126\n      jump\t// in\n    tag_185:\n        /* \"auth.sol\":4110:4778  person({... */\n      dup2\n      mstore\n      0x20\n      add\n        /* \"auth.sol\":4334:4340  cypher */\n      linkerSymbol(\"0394c467ed0fdd19c4eccf25096e0ad40f7a8f3a2ecaa74fa8ac0ce31535a80b\")\n        /* \"auth.sol\":4334:4348  cypher.encrypt */\n      0x015cfec7\n        /* \"auth.sol\":4355:4362  persons */\n      0x02\n        /* \"auth.sol\":4355:4367  persons[UID] */\n      0x00\n        /* \"auth.sol\":4363:4366  UID */\n      dup10\n        /* \"auth.sol\":4355:4367  persons[UID] */\n      0xffffffffffffffffffffffffffffffffffffffff\n      and\n      0xffffffffffffffffffffffffffffffffffffffff\n      and\n      dup2\n      mstore\n      0x20\n      add\n      swap1\n      dup2\n      mstore\n      0x20\n      add\n      0x00\n      keccak256\n        /* \"auth.sol\":4355:4379  persons[UID].homeAddress */\n      0x02\n      add\n        /* \"auth.sol\":4388:4392  pass */\n      dup8\n        /* \"auth.sol\":4334:4394  cypher.encrypt(bytes(persons[UID].homeAddress), bytes(pass)) */\n      mload(0x40)\n      dup4\n      0xffffffff\n      and\n      0xe0\n      shl\n      dup2\n      mstore\n      0x04\n      add\n      tag_186\n      swap3\n      swap2\n      swap1\n      tag_178\n      jump\t// in\n    tag_186:\n      0x00\n      mload(0x40)\n      dup1\n      dup4\n      sub\n      dup2\n      dup7\n      gas\n      delegatecall\n      iszero\n      dup1\n      iszero\n      tag_188\n      jumpi\n      returndatasize\n      0x00\n      dup1\n      returndatacopy\n      revert(0x00, returndatasize)\n    tag_188:\n      pop\n      pop\n      pop\n      pop\n      mload(0x40)\n      returndatasize\n      0x00\n      dup3\n      returndatacopy\n      returndatasize\n      not(0x1f)\n      0x1f\n      dup3\n      add\n      and\n      dup3\n      add\n      dup1\n      0x40\n      mstore\n      pop\n      dup2\n      add\n      swap1\n      tag_189\n      swap2\n      swap1\n      tag_126\n      jump\t// in\n    tag_189:\n        /* \"auth.sol\":4110:4778  person({... */\n      dup2\n      mstore\n      0x20\n      add\n      mload(0x40)\n      dup1\n      0x40\n      add\n      0x40\n      mstore\n      dup1\n      0x05\n      dup2\n      mstore\n      0x20\n      add\n      0x2a2a2a2a2a000000000000000000000000000000000000000000000000000000\n      dup2\n      mstore\n      pop\n      dup2\n      mstore\n      0x20\n      add\n        /* \"auth.sol\":4460:4466  cypher */\n      linkerSymbol(\"0394c467ed0fdd19c4eccf25096e0ad40f7a8f3a2ecaa74fa8ac0ce31535a80b\")\n        /* \"auth.sol\":4460:4474  cypher.encrypt */\n      0x015cfec7\n        /* \"auth.sol\":4481:4488  persons */\n      0x02\n        /* \"auth.sol\":4481:4493  persons[UID] */\n      0x00\n        /* \"auth.sol\":4489:4492  UID */\n      dup10\n        /* \"auth.sol\":4481:4493  persons[UID] */\n      0xffffffffffffffffffffffffffffffffffffffff\n      and\n      0xffffffffffffffffffffffffffffffffffffffff\n      and\n      dup2\n      mstore\n      0x20\n      add\n      swap1\n      dup2\n      mstore\n      0x20\n      add\n      0x00\n      keccak256\n        /* \"auth.sol\":4481:4499  persons[UID].phone */\n      0x04\n      add\n        /* \"auth.sol\":4508:4512  pass */\n      dup8\n        /* \"auth.sol\":4460:4514  cypher.encrypt(bytes(persons[UID].phone), bytes(pass)) */\n      mload(0x40)\n      dup4\n      0xffffffff\n      and\n      0xe0\n      shl\n      dup2\n      mstore\n      0x04\n      add\n      tag_190\n      swap3\n      swap2\n      swap1\n      tag_178\n      jump\t// in\n    tag_190:\n      0x00\n      mload(0x40)\n      dup1\n      dup4\n      sub\n      dup2\n      dup7\n      gas\n      delegatecall\n      iszero\n      dup1\n      iszero\n      tag_192\n      jumpi\n      returndatasize\n      0x00\n      dup1\n      returndatacopy\n      revert(0x00, returndatasize)\n    tag_192:\n      pop\n      pop\n      pop\n      pop\n      mload(0x40)\n      returndatasize\n      0x00\n      dup3\n      returndatacopy\n      returndatasize\n      not(0x1f)\n      0x1f\n      dup3\n      add\n      and\n      dup3\n      add\n      dup1\n      0x40\n      mstore\n      pop\n      dup2\n      add\n      swap1\n      tag_193\n      swap2\n      swap1\n      tag_126\n      jump\t// in\n    tag_193:\n        /* \"auth.sol\":4110:4778  person({... */\n      dup2\n      mstore\n      0x20\n      add\n        /* \"auth.sol\":4546:4553  persons */\n      0x02\n        /* \"auth.sol\":4546:4558  persons[UID] */\n      0x00\n        /* \"auth.sol\":4554:4557  UID */\n      dup8\n        /* \"auth.sol\":4546:4558  persons[UID] */\n      0xffffffffffffffffffffffffffffffffffffffff\n      and\n      0xffffffffffffffffffffffffffffffffffffffff\n      and\n      dup2\n      mstore\n      0x20\n      add\n      swap1\n      dup2\n      mstore\n      0x20\n      add\n      0x00\n      keccak256\n        /* \"auth.sol\":4546:4570  persons[UID].accountType */\n      0x05\n      add\n      0x00\n      swap1\n      sload\n      swap1\n      0x0100\n      exp\n      swap1\n      div\n      0xff\n      and\n        /* \"auth.sol\":4110:4778  person({... */\n      0xff\n      and\n      dup2\n      mstore\n      0x20\n      add\n        /* \"auth.sol\":4698:4705  persons */\n      0x02\n        /* \"auth.sol\":4698:4710  persons[UID] */\n      0x00\n        /* \"auth.sol\":4706:4709  UID */\n      dup8\n        /* \"auth.sol\":4698:4710  persons[UID] */\n      0xffffffffffffffffffffffffffffffffffffffff\n      and\n      0xffffffffffffffffffffffffffffffffffffffff\n      and\n      dup2\n      mstore\n      0x20\n      add\n      swap1\n      dup2\n      mstore\n      0x20\n      add\n      0x00\n      keccak256\n        /* \"auth.sol\":4698:4722  persons[UID].companyCode */\n      0x06\n      add\n        /* \"auth.sol\":4110:4778  person({... */\n      dup1\n      sload\n      tag_194\n      swap1\n      tag_67\n      jump\t// in\n    tag_194:\n      dup1\n      0x1f\n      add\n      0x20\n      dup1\n      swap2\n      div\n      mul\n      0x20\n      add\n      mload(0x40)\n      swap1\n      dup2\n      add\n      0x40\n      mstore\n      dup1\n      swap3\n      swap2\n      swap1\n      dup2\n      dup2\n      mstore\n      0x20\n      add\n      dup3\n      dup1\n      sload\n      tag_195\n      swap1\n      tag_67\n      jump\t// in\n    tag_195:\n      dup1\n      iszero\n      tag_196\n      jumpi\n      dup1\n      0x1f\n      lt\n      tag_197\n      jumpi\n      0x0100\n      dup1\n      dup4\n      sload\n      div\n      mul\n      dup4\n      mstore\n      swap2\n      0x20\n      add\n      swap2\n      jump(tag_196)\n    tag_197:\n      dup3\n      add\n      swap2\n      swap1\n      0x00\n      mstore\n      keccak256(0x00, 0x20)\n      swap1\n    tag_198:\n      dup2\n      sload\n      dup2\n      mstore\n      swap1\n      0x01\n      add\n      swap1\n      0x20\n      add\n      dup1\n      dup4\n      gt\n      tag_198\n      jumpi\n      dup3\n      swap1\n      sub\n      0x1f\n      and\n      dup3\n      add\n      swap2\n    tag_196:\n      pop\n      pop\n      pop\n      pop\n      pop\n      dup2\n      mstore\n      0x20\n      add\n        /* \"auth.sol\":4603:4610  persons */\n      0x02\n        /* \"auth.sol\":4603:4615  persons[UID] */\n      0x00\n        /* \"auth.sol\":4611:4614  UID */\n      dup8\n        /* \"auth.sol\":4603:4615  persons[UID] */\n      0xffffffffffffffffffffffffffffffffffffffff\n      and\n      0xffffffffffffffffffffffffffffffffffffffff\n      and\n      dup2\n      mstore\n      0x20\n      add\n      swap1\n      dup2\n      mstore\n      0x20\n      add\n      0x00\n      keccak256\n        /* \"auth.sol\":4603:4628  persons[UID].blockAccount */\n      0x07\n      add\n      0x00\n      swap1\n      sload\n      swap1\n      0x0100\n      exp\n      swap1\n      div\n      0xffffffffffffffffffffffffffffffffffffffff\n      and\n        /* \"auth.sol\":4110:4778  person({... */\n      0xffffffffffffffffffffffffffffffffffffffff\n      and\n      dup2\n      mstore\n      0x20\n      add\n        /* \"auth.sol\":4651:4658  persons */\n      0x02\n        /* \"auth.sol\":4651:4663  persons[UID] */\n      0x00\n        /* \"auth.sol\":4659:4662  UID */\n      dup8\n        /* \"auth.sol\":4651:4663  persons[UID] */\n      0xffffffffffffffffffffffffffffffffffffffff\n      and\n      0xffffffffffffffffffffffffffffffffffffffff\n      and\n      dup2\n      mstore\n      0x20\n      add\n      swap1\n      dup2\n      mstore\n      0x20\n      add\n      0x00\n      keccak256\n        /* \"auth.sol\":4651:4667  persons[UID].UID */\n      0x08\n      add\n      sload\n        /* \"auth.sol\":4110:4778  person({... */\n      dup2\n      mstore\n      0x20\n      add\n      0x2a2a2a2a2a2a2a2a2a2a2a2a0000000000000000000000000000000000000000\n      dup2\n      mstore\n      pop\n        /* \"auth.sol\":4093:4778  censoredPerson = person({... */\n      swap1\n      pop\n        /* \"auth.sol\":3523:4800  if (persons[UID].blockAccount != msg.sender)... */\n    tag_176:\n        /* \"auth.sol\":4841:4842  0 */\n      0x00\n        /* \"auth.sol\":4814:4821  persons */\n      0x02\n        /* \"auth.sol\":4814:4826  persons[UID] */\n      0x00\n        /* \"auth.sol\":4822:4825  UID */\n      dup7\n        /* \"auth.sol\":4814:4826  persons[UID] */\n      0xffffffffffffffffffffffffffffffffffffffff\n      and\n      0xffffffffffffffffffffffffffffffffffffffff\n      and\n      dup2\n      mstore\n      0x20\n      add\n      swap1\n      dup2\n      mstore\n      0x20\n      add\n      0x00\n      keccak256\n        /* \"auth.sol\":4814:4838  persons[UID].accountType */\n      0x05\n      add\n      0x00\n      swap1\n      sload\n      swap1\n      0x0100\n      exp\n      swap1\n      div\n      0xff\n      and\n        /* \"auth.sol\":4814:4842  persons[UID].accountType > 0 */\n      0xff\n      and\n      gt\n        /* \"auth.sol\":4810:5384  if (persons[UID].accountType > 0)... */\n      iszero\n      tag_199\n      jumpi\n        /* \"auth.sol\":4883:5373  person({... */\n      mload(0x40)\n      dup1\n      0x0140\n      add\n      0x40\n      mstore\n      dup1\n        /* \"auth.sol\":4918:4925  persons */\n      0x02\n        /* \"auth.sol\":4918:4930  persons[UID] */\n      0x00\n        /* \"auth.sol\":4926:4929  UID */\n      dup8\n        /* \"auth.sol\":4918:4930  persons[UID] */\n      0xffffffffffffffffffffffffffffffffffffffff\n      and\n      0xffffffffffffffffffffffffffffffffffffffff\n      and\n      dup2\n      mstore\n      0x20\n      add\n      swap1\n      dup2\n      mstore\n      0x20\n      add\n      0x00\n      keccak256\n        /* \"auth.sol\":4918:4939  persons[UID].fullName */\n      0x00\n      add\n        /* \"auth.sol\":4883:5373  person({... */\n      dup1\n      sload\n      tag_200\n      swap1\n      tag_67\n      jump\t// in\n    tag_200:\n      dup1\n      0x1f\n      add\n      0x20\n      dup1\n      swap2\n      div\n      mul\n      0x20\n      add\n      mload(0x40)\n      swap1\n      dup2\n      add\n      0x40\n      mstore\n      dup1\n      swap3\n      swap2\n      swap1\n      dup2\n      dup2\n      mstore\n      0x20\n      add\n      dup3\n      dup1\n      sload\n      tag_201\n      swap1\n      tag_67\n      jump\t// in\n    tag_201:\n      dup1\n      iszero\n      tag_202\n      jumpi\n      dup1\n      0x1f\n      lt\n      tag_203\n      jumpi\n      0x0100\n      dup1\n      dup4\n      sload\n      div\n      mul\n      dup4\n      mstore\n      swap2\n      0x20\n      add\n      swap2\n      jump(tag_202)\n    tag_203:\n      dup3\n      add\n      swap2\n      swap1\n      0x00\n      mstore\n      keccak256(0x00, 0x20)\n      swap1\n    tag_204:\n      dup2\n      sload\n      dup2\n      mstore\n      swap1\n      0x01\n      add\n      swap1\n      0x20\n      add\n      dup1\n      dup4\n      gt\n      tag_204\n      jumpi\n      dup3\n      swap1\n      sub\n      0x1f\n      and\n      dup3\n      add\n      swap2\n    tag_202:\n      pop\n      pop\n      pop\n      pop\n      pop\n      dup2\n      mstore\n      0x20\n      add\n        /* \"auth.sol\":4963:4970  persons */\n      0x02\n        /* \"auth.sol\":4963:4975  persons[UID] */\n      0x00\n        /* \"auth.sol\":4971:4974  UID */\n      dup8\n        /* \"auth.sol\":4963:4975  persons[UID] */\n      0xffffffffffffffffffffffffffffffffffffffff\n      and\n      0xffffffffffffffffffffffffffffffffffffffff\n      and\n      dup2\n      mstore\n      0x20\n      add\n      swap1\n      dup2\n      mstore\n      0x20\n      add\n      0x00\n      keccak256\n        /* \"auth.sol\":4963:4979  persons[UID].SSN */\n      0x01\n      add\n        /* \"auth.sol\":4883:5373  person({... */\n      dup1\n      sload\n      tag_205\n      swap1\n      tag_67\n      jump\t// in\n    tag_205:\n      dup1\n      0x1f\n      add\n      0x20\n      dup1\n      swap2\n      div\n      mul\n      0x20\n      add\n      mload(0x40)\n      swap1\n      dup2\n      add\n      0x40\n      mstore\n      dup1\n      swap3\n      swap2\n      swap1\n      dup2\n      dup2\n      mstore\n      0x20\n      add\n      dup3\n      dup1\n      sload\n      tag_206\n      swap1\n      tag_67\n      jump\t// in\n    tag_206:\n      dup1\n      iszero\n      tag_207\n      jumpi\n      dup1\n      0x1f\n      lt\n      tag_208\n      jumpi\n      0x0100\n      dup1\n      dup4\n      sload\n      div\n      mul\n      dup4\n      mstore\n      swap2\n      0x20\n      add\n      swap2\n      jump(tag_207)\n    tag_208:\n      dup3\n      add\n      swap2\n      swap1\n      0x00\n      mstore\n      keccak256(0x00, 0x20)\n      swap1\n    tag_209:\n      dup2\n      sload\n      dup2\n      mstore\n      swap1\n      0x01\n      add\n      swap1\n      0x20\n      add\n      dup1\n      dup4\n      gt\n      tag_209\n      jumpi\n      dup3\n      swap1\n      sub\n      0x1f\n      and\n      dup3\n      add\n      swap2\n    tag_207:\n      pop\n      pop\n      pop\n      pop\n      pop\n      dup2\n      mstore\n      0x20\n      add\n        /* \"auth.sol\":5010:5017  persons */\n      0x02\n        /* \"auth.sol\":5010:5022  persons[UID] */\n      0x00\n        /* \"auth.sol\":5018:5021  UID */\n      dup8\n        /* \"auth.sol\":5010:5022  persons[UID] */\n      0xffffffffffffffffffffffffffffffffffffffff\n      and\n      0xffffffffffffffffffffffffffffffffffffffff\n      and\n      dup2\n      mstore\n      0x20\n      add\n      swap1\n      dup2\n      mstore\n      0x20\n      add\n      0x00\n      keccak256\n        /* \"auth.sol\":5010:5034  persons[UID].homeAddress */\n      0x02\n      add\n        /* \"auth.sol\":4883:5373  person({... */\n      dup1\n      sload\n      tag_210\n      swap1\n      tag_67\n      jump\t// in\n    tag_210:\n      dup1\n      0x1f\n      add\n      0x20\n      dup1\n      swap2\n      div\n      mul\n      0x20\n      add\n      mload(0x40)\n      swap1\n      dup2\n      add\n      0x40\n      mstore\n      dup1\n      swap3\n      swap2\n      swap1\n      dup2\n      dup2\n      mstore\n      0x20\n      add\n      dup3\n      dup1\n      sload\n      tag_211\n      swap1\n      tag_67\n      jump\t// in\n    tag_211:\n      dup1\n      iszero\n      tag_212\n      jumpi\n      dup1\n      0x1f\n      lt\n      tag_213\n      jumpi\n      0x0100\n      dup1\n      dup4\n      sload\n      div\n      mul\n      dup4\n      mstore\n      swap2\n      0x20\n      add\n      swap2\n      jump(tag_212)\n    tag_213:\n      dup3\n      add\n      swap2\n      swap1\n      0x00\n      mstore\n      keccak256(0x00, 0x20)\n      swap1\n    tag_214:\n      dup2\n      sload\n      dup2\n      mstore\n      swap1\n      0x01\n      add\n      swap1\n      0x20\n      add\n      dup1\n      dup4\n      gt\n      tag_214\n      jumpi\n      dup3\n      swap1\n      sub\n      0x1f\n      and\n      dup3\n      add\n      swap2\n    tag_212:\n      pop\n      pop\n      pop\n      pop\n      pop\n      dup2\n      mstore\n      0x20\n      add\n      mload(0x40)\n      dup1\n      0x40\n      add\n      0x40\n      mstore\n      dup1\n      0x07\n      dup2\n      mstore\n      0x20\n      add\n      0x2a2a2a2a2a2a2a00000000000000000000000000000000000000000000000000\n      dup2\n      mstore\n      pop\n      dup2\n      mstore\n      0x20\n      add\n        /* \"auth.sol\":5092:5099  persons */\n      0x02\n        /* \"auth.sol\":5092:5104  persons[UID] */\n      0x00\n        /* \"auth.sol\":5100:5103  UID */\n      dup8\n        /* \"auth.sol\":5092:5104  persons[UID] */\n      0xffffffffffffffffffffffffffffffffffffffff\n      and\n      0xffffffffffffffffffffffffffffffffffffffff\n      and\n      dup2\n      mstore\n      0x20\n      add\n      swap1\n      dup2\n      mstore\n      0x20\n      add\n      0x00\n      keccak256\n        /* \"auth.sol\":5092:5110  persons[UID].phone */\n      0x04\n      add\n        /* \"auth.sol\":4883:5373  person({... */\n      dup1\n      sload\n      tag_215\n      swap1\n      tag_67\n      jump\t// in\n    tag_215:\n      dup1\n      0x1f\n      add\n      0x20\n      dup1\n      swap2\n      div\n      mul\n      0x20\n      add\n      mload(0x40)\n      swap1\n      dup2\n      add\n      0x40\n      mstore\n      dup1\n      swap3\n      swap2\n      swap1\n      dup2\n      dup2\n      mstore\n      0x20\n      add\n      dup3\n      dup1\n      sload\n      tag_216\n      swap1\n      tag_67\n      jump\t// in\n    tag_216:\n      dup1\n      iszero\n      tag_217\n      jumpi\n      dup1\n      0x1f\n      lt\n      tag_218\n      jumpi\n      0x0100\n      dup1\n      dup4\n      sload\n      div\n      mul\n      dup4\n      mstore\n      swap2\n      0x20\n      add\n      swap2\n      jump(tag_217)\n    tag_218:\n      dup3\n      add\n      swap2\n      swap1\n      0x00\n      mstore\n      keccak256(0x00, 0x20)\n      swap1\n    tag_219:\n      dup2\n      sload\n      dup2\n      mstore\n      swap1\n      0x01\n      add\n      swap1\n      0x20\n      add\n      dup1\n      dup4\n      gt\n      tag_219\n      jumpi\n      dup3\n      swap1\n      sub\n      0x1f\n      and\n      dup3\n      add\n      swap2\n    tag_217:\n      pop\n      pop\n      pop\n      pop\n      pop\n      dup2\n      mstore\n      0x20\n      add\n        /* \"auth.sol\":5141:5148  persons */\n      0x02\n        /* \"auth.sol\":5141:5153  persons[UID] */\n      0x00\n        /* \"auth.sol\":5149:5152  UID */\n      dup8\n        /* \"auth.sol\":5141:5153  persons[UID] */\n      0xffffffffffffffffffffffffffffffffffffffff\n      and\n      0xffffffffffffffffffffffffffffffffffffffff\n      and\n      dup2\n      mstore\n      0x20\n      add\n      swap1\n      dup2\n      mstore\n      0x20\n      add\n      0x00\n      keccak256\n        /* \"auth.sol\":5141:5165  persons[UID].accountType */\n      0x05\n      add\n      0x00\n      swap1\n      sload\n      swap1\n      0x0100\n      exp\n      swap1\n      div\n      0xff\n      and\n        /* \"auth.sol\":4883:5373  person({... */\n      0xff\n      and\n      dup2\n      mstore\n      0x20\n      add\n        /* \"auth.sol\":5292:5299  persons */\n      0x02\n        /* \"auth.sol\":5292:5304  persons[UID] */\n      0x00\n        /* \"auth.sol\":5300:5303  UID */\n      dup8\n        /* \"auth.sol\":5292:5304  persons[UID] */\n      0xffffffffffffffffffffffffffffffffffffffff\n      and\n      0xffffffffffffffffffffffffffffffffffffffff\n      and\n      dup2\n      mstore\n      0x20\n      add\n      swap1\n      dup2\n      mstore\n      0x20\n      add\n      0x00\n      keccak256\n        /* \"auth.sol\":5292:5316  persons[UID].companyCode */\n      0x06\n      add\n        /* \"auth.sol\":4883:5373  person({... */\n      dup1\n      sload\n      tag_220\n      swap1\n      tag_67\n      jump\t// in\n    tag_220:\n      dup1\n      0x1f\n      add\n      0x20\n      dup1\n      swap2\n      div\n      mul\n      0x20\n      add\n      mload(0x40)\n      swap1\n      dup2\n      add\n      0x40\n      mstore\n      dup1\n      swap3\n      swap2\n      swap1\n      dup2\n      dup2\n      mstore\n      0x20\n      add\n      dup3\n      dup1\n      sload\n      tag_221\n      swap1\n      tag_67\n      jump\t// in\n    tag_221:\n      dup1\n      iszero\n      tag_222\n      jumpi\n      dup1\n      0x1f\n      lt\n      tag_223\n      jumpi\n      0x0100\n      dup1\n      dup4\n      sload\n      div\n      mul\n      dup4\n      mstore\n      swap2\n      0x20\n      add\n      swap2\n      jump(tag_222)\n    tag_223:\n      dup3\n      add\n      swap2\n      swap1\n      0x00\n      mstore\n      keccak256(0x00, 0x20)\n      swap1\n    tag_224:\n      dup2\n      sload\n      dup2\n      mstore\n      swap1\n      0x01\n      add\n      swap1\n      0x20\n      add\n      dup1\n      dup4\n      gt\n      tag_224\n      jumpi\n      dup3\n      swap1\n      sub\n      0x1f\n      and\n      dup3\n      add\n      swap2\n    tag_222:\n      pop\n      pop\n      pop\n      pop\n      pop\n      dup2\n      mstore\n      0x20\n      add\n        /* \"auth.sol\":5196:5203  persons */\n      0x02\n        /* \"auth.sol\":5196:5208  persons[UID] */\n      0x00\n        /* \"auth.sol\":5204:5207  UID */\n      dup8\n        /* \"auth.sol\":5196:5208  persons[UID] */\n      0xffffffffffffffffffffffffffffffffffffffff\n      and\n      0xffffffffffffffffffffffffffffffffffffffff\n      and\n      dup2\n      mstore\n      0x20\n      add\n      swap1\n      dup2\n      mstore\n      0x20\n      add\n      0x00\n      keccak256\n        /* \"auth.sol\":5196:5221  persons[UID].blockAccount */\n      0x07\n      add\n      0x00\n      swap1\n      sload\n      swap1\n      0x0100\n      exp\n      swap1\n      div\n      0xffffffffffffffffffffffffffffffffffffffff\n      and\n        /* \"auth.sol\":4883:5373  person({... */\n      0xffffffffffffffffffffffffffffffffffffffff\n      and\n      dup2\n      mstore\n      0x20\n      add\n        /* \"auth.sol\":5245:5252  persons */\n      0x02\n        /* \"auth.sol\":5245:5257  persons[UID] */\n      0x00\n        /* \"auth.sol\":5253:5256  UID */\n      dup8\n        /* \"auth.sol\":5245:5257  persons[UID] */\n      0xffffffffffffffffffffffffffffffffffffffff\n      and\n      0xffffffffffffffffffffffffffffffffffffffff\n      and\n      dup2\n      mstore\n      0x20\n      add\n      swap1\n      dup2\n      mstore\n      0x20\n      add\n      0x00\n      keccak256\n        /* \"auth.sol\":5245:5261  persons[UID].UID */\n      0x08\n      add\n      sload\n        /* \"auth.sol\":4883:5373  person({... */\n      dup2\n      mstore\n      0x20\n      add\n      0x2a2a2a2a2a2a2a2a2a2a2a2a2a00000000000000000000000000000000000000\n      dup2\n      mstore\n      pop\n        /* \"auth.sol\":4866:5373  censoredPerson = person({... */\n      swap1\n      pop\n        /* \"auth.sol\":4810:5384  if (persons[UID].accountType > 0)... */\n    tag_199:\n        /* \"auth.sol\":5401:5415  censoredPerson */\n      dup1\n        /* \"auth.sol\":5394:5415  return censoredPerson */\n      swap2\n      pop\n      pop\n        /* \"auth.sol\":3384:5422  function getUser(address UID, string memory pass) public view returns(person memory)... */\n      swap3\n      swap2\n      pop\n      pop\n      jump\t// out\n        /* \"auth.sol\":896:993  function isOwner() internal view... */\n    tag_53:\n        /* \"auth.sol\":960:970  msg.sender */\n      caller\n        /* \"auth.sol\":951:970  owner == msg.sender */\n      0xffffffffffffffffffffffffffffffffffffffff\n      and\n        /* \"auth.sol\":951:956  owner */\n      0x00\n      dup1\n      sload\n      swap1\n      0x0100\n      exp\n      swap1\n      div\n      0xffffffffffffffffffffffffffffffffffffffff\n      and\n        /* \"auth.sol\":951:970  owner == msg.sender */\n      0xffffffffffffffffffffffffffffffffffffffff\n      and\n      eq\n        /* \"auth.sol\":943:986  require(owner == msg.sender, \"Not allowed\") */\n      tag_226\n      jumpi\n      mload(0x40)\n      0x08c379a000000000000000000000000000000000000000000000000000000000\n      dup2\n      mstore\n      0x04\n      add\n      tag_227\n      swap1\n      tag_228\n      jump\t// in\n    tag_227:\n      mload(0x40)\n      dup1\n      swap2\n      sub\n      swap1\n      revert\n    tag_226:\n        /* \"auth.sol\":896:993  function isOwner() internal view... */\n      jump\t// out\n        /* \"auth.sol\":6015:6194  function compare(string memory str1, string memory str2) private pure returns (bool) {... */\n    tag_72:\n        /* \"auth.sol\":6094:6098  bool */\n      0x00\n        /* \"auth.sol\":6181:6185  str2 */\n      dup2\n        /* \"auth.sol\":6164:6186  abi.encodePacked(str2) */\n      add(0x20, mload(0x40))\n      tag_230\n      swap2\n      swap1\n      tag_85\n      jump\t// in\n    tag_230:\n      mload(0x40)\n      0x20\n      dup2\n      dup4\n      sub\n      sub\n      dup2\n      mstore\n      swap1\n      0x40\n      mstore\n        /* \"auth.sol\":6154:6187  keccak256(abi.encodePacked(str2)) */\n      dup1\n      mload\n      swap1\n      0x20\n      add\n      keccak256\n        /* \"auth.sol\":6144:6148  str1 */\n      dup4\n        /* \"auth.sol\":6127:6149  abi.encodePacked(str1) */\n      add(0x20, mload(0x40))\n      tag_231\n      swap2\n      swap1\n      tag_85\n      jump\t// in\n    tag_231:\n      mload(0x40)\n      0x20\n      dup2\n      dup4\n      sub\n      sub\n      dup2\n      mstore\n      swap1\n      0x40\n      mstore\n        /* \"auth.sol\":6117:6150  keccak256(abi.encodePacked(str1)) */\n      dup1\n      mload\n      swap1\n      0x20\n      add\n      keccak256\n        /* \"auth.sol\":6117:6187  keccak256(abi.encodePacked(str1)) == keccak256(abi.encodePacked(str2)) */\n      eq\n        /* \"auth.sol\":6110:6187  return keccak256(abi.encodePacked(str1)) == keccak256(abi.encodePacked(str2)) */\n      swap1\n      pop\n        /* \"auth.sol\":6015:6194  function compare(string memory str1, string memory str2) private pure returns (bool) {... */\n      swap3\n      swap2\n      pop\n      pop\n      jump\t// out\n        /* \"OpenZeppelin.mod/Strings.sol\":447:1143  function toString(uint256 value) internal pure returns (string memory) {... */\n    tag_81:\n        /* \"OpenZeppelin.mod/Strings.sol\":503:516  string memory */\n      0x60\n        /* \"OpenZeppelin.mod/Strings.sol\":552:566  uint256 length */\n      0x00\n        /* \"OpenZeppelin.mod/Strings.sol\":589:590  1 */\n      0x01\n        /* \"OpenZeppelin.mod/Strings.sol\":569:586  Math.log10(value) */\n      tag_233\n        /* \"OpenZeppelin.mod/Strings.sol\":580:585  value */\n      dup5\n        /* \"OpenZeppelin.mod/Strings.sol\":569:579  Math.log10 */\n      tag_234\n        /* \"OpenZeppelin.mod/Strings.sol\":569:586  Math.log10(value) */\n      jump\t// in\n    tag_233:\n        /* \"OpenZeppelin.mod/Strings.sol\":569:590  Math.log10(value) + 1 */\n      add\n        /* \"OpenZeppelin.mod/Strings.sol\":552:590  uint256 length = Math.log10(value) + 1 */\n      swap1\n      pop\n        /* \"OpenZeppelin.mod/Strings.sol\":604:624  string memory buffer */\n      0x00\n        /* \"OpenZeppelin.mod/Strings.sol\":638:644  length */\n      dup2\n        /* \"OpenZeppelin.mod/Strings.sol\":627:645  new string(length) */\n      0xffffffffffffffff\n      dup2\n      gt\n      iszero\n      tag_235\n      jumpi\n      tag_236\n      tag_237\n      jump\t// in\n    tag_236:\n    tag_235:\n      mload(0x40)\n      swap1\n      dup1\n      dup3\n      mstore\n      dup1\n      0x1f\n      add\n      not(0x1f)\n      and\n      0x20\n      add\n      dup3\n      add\n      0x40\n      mstore\n      dup1\n      iszero\n      tag_238\n      jumpi\n      dup2\n      0x20\n      add\n      0x01\n      dup3\n      mul\n      dup1\n      calldatasize\n      dup4\n      calldatacopy\n      dup1\n      dup3\n      add\n      swap2\n      pop\n      pop\n      swap1\n      pop\n    tag_238:\n      pop\n        /* \"OpenZeppelin.mod/Strings.sol\":604:645  string memory buffer = new string(length) */\n      swap1\n      pop\n        /* \"OpenZeppelin.mod/Strings.sol\":659:670  uint256 ptr */\n      0x00\n        /* \"OpenZeppelin.mod/Strings.sol\":785:791  length */\n      dup3\n        /* \"OpenZeppelin.mod/Strings.sol\":781:783  32 */\n      0x20\n        /* \"OpenZeppelin.mod/Strings.sol\":777:792  add(32, length) */\n      add\n        /* \"OpenZeppelin.mod/Strings.sol\":769:775  buffer */\n      dup3\n        /* \"OpenZeppelin.mod/Strings.sol\":765:793  add(buffer, add(32, length)) */\n      add\n        /* \"OpenZeppelin.mod/Strings.sol\":758:793  ptr := add(buffer, add(32, length)) */\n      swap1\n      pop\n        /* \"OpenZeppelin.mod/Strings.sol\":820:1100  while (true) {... */\n    tag_239:\n        /* \"OpenZeppelin.mod/Strings.sol\":827:831  true */\n      0x01\n        /* \"OpenZeppelin.mod/Strings.sol\":820:1100  while (true) {... */\n      iszero\n      tag_240\n      jumpi\n        /* \"OpenZeppelin.mod/Strings.sol\":851:856  ptr-- */\n      dup1\n      dup1\n      0x01\n      swap1\n      sub\n      swap2\n      pop\n      pop\n        /* \"OpenZeppelin.mod/Strings.sol\":990:998  _SYMBOLS */\n      0x3031323334353637383961626364656600000000000000000000000000000000\n        /* \"OpenZeppelin.mod/Strings.sol\":985:987  10 */\n      0x0a\n        /* \"OpenZeppelin.mod/Strings.sol\":978:983  value */\n      dup7\n        /* \"OpenZeppelin.mod/Strings.sol\":974:988  mod(value, 10) */\n      mod\n        /* \"OpenZeppelin.mod/Strings.sol\":969:999  byte(mod(value, 10), _SYMBOLS) */\n      byte\n        /* \"OpenZeppelin.mod/Strings.sol\":964:967  ptr */\n      dup2\n        /* \"OpenZeppelin.mod/Strings.sol\":956:1000  mstore8(ptr, byte(mod(value, 10), _SYMBOLS)) */\n      mstore8\n        /* \"OpenZeppelin.mod/Strings.sol\":1044:1046  10 */\n      0x0a\n        /* \"OpenZeppelin.mod/Strings.sol\":1035:1046  value /= 10 */\n      dup6\n      dup2\n      tag_241\n      jumpi\n      tag_242\n      tag_243\n      jump\t// in\n    tag_242:\n    tag_241:\n      div\n      swap5\n      pop\n        /* \"OpenZeppelin.mod/Strings.sol\":1077:1078  0 */\n      0x00\n        /* \"OpenZeppelin.mod/Strings.sol\":1068:1073  value */\n      dup6\n        /* \"OpenZeppelin.mod/Strings.sol\":1068:1078  value == 0 */\n      sub\n        /* \"OpenZeppelin.mod/Strings.sol\":820:1100  while (true) {... */\n      tag_239\n        /* \"OpenZeppelin.mod/Strings.sol\":1064:1085  if (value == 0) break */\n      jumpi\n        /* \"OpenZeppelin.mod/Strings.sol\":820:1100  while (true) {... */\n    tag_240:\n        /* \"OpenZeppelin.mod/Strings.sol\":1120:1126  buffer */\n      dup2\n        /* \"OpenZeppelin.mod/Strings.sol\":1113:1126  return buffer */\n      swap4\n      pop\n      pop\n      pop\n      pop\n        /* \"OpenZeppelin.mod/Strings.sol\":447:1143  function toString(uint256 value) internal pure returns (string memory) {... */\n      swap2\n      swap1\n      pop\n      jump\t// out\n        /* \"OpenZeppelin.mod/Strings.sol\":1521:1695  function toHexString(uint256 value) internal pure returns (string memory) {... */\n    tag_137:\n        /* \"OpenZeppelin.mod/Strings.sol\":1580:1593  string memory */\n      0x60\n        /* \"OpenZeppelin.mod/Strings.sol\":1636:1678  toHexString(value, Math.log256(value) + 1) */\n      tag_246\n        /* \"OpenZeppelin.mod/Strings.sol\":1648:1653  value */\n      dup3\n        /* \"OpenZeppelin.mod/Strings.sol\":1676:1677  1 */\n      0x01\n        /* \"OpenZeppelin.mod/Strings.sol\":1655:1673  Math.log256(value) */\n      tag_247\n        /* \"OpenZeppelin.mod/Strings.sol\":1667:1672  value */\n      dup6\n        /* \"OpenZeppelin.mod/Strings.sol\":1655:1666  Math.log256 */\n      tag_248\n        /* \"OpenZeppelin.mod/Strings.sol\":1655:1673  Math.log256(value) */\n      jump\t// in\n    tag_247:\n        /* \"OpenZeppelin.mod/Strings.sol\":1655:1677  Math.log256(value) + 1 */\n      add\n        /* \"OpenZeppelin.mod/Strings.sol\":1636:1647  toHexString */\n      tag_249\n        /* \"OpenZeppelin.mod/Strings.sol\":1636:1678  toHexString(value, Math.log256(value) + 1) */\n      jump\t// in\n    tag_246:\n        /* \"OpenZeppelin.mod/Strings.sol\":1629:1678  return toHexString(value, Math.log256(value) + 1) */\n      swap1\n      pop\n        /* \"OpenZeppelin.mod/Strings.sol\":1521:1695  function toHexString(uint256 value) internal pure returns (string memory) {... */\n      swap2\n      swap1\n      pop\n      jump\t// out\n        /* \"OpenZeppelin.mod/math/Math.sol\":9889:10779  function log10(uint256 value) internal pure returns (uint256) {... */\n    tag_234:\n        /* \"OpenZeppelin.mod/math/Math.sol\":9942:9949  uint256 */\n      0x00\n        /* \"OpenZeppelin.mod/math/Math.sol\":9961:9975  uint256 result */\n      dup1\n        /* \"OpenZeppelin.mod/math/Math.sol\":9978:9979  0 */\n      0x00\n        /* \"OpenZeppelin.mod/math/Math.sol\":9961:9979  uint256 result = 0 */\n      swap1\n      pop\n        /* \"OpenZeppelin.mod/math/Math.sol\":10026:10032  10**64 */\n      0x184f03e93ff9f4daa797ed6e38ed64bf6a1f010000000000000000\n        /* \"OpenZeppelin.mod/math/Math.sol\":10017:10022  value */\n      dup4\n        /* \"OpenZeppelin.mod/math/Math.sol\":10017:10032  value >= 10**64 */\n      lt\n        /* \"OpenZeppelin.mod/math/Math.sol\":10013:10112  if (value >= 10**64) {... */\n      tag_251\n      jumpi\n        /* \"OpenZeppelin.mod/math/Math.sol\":10061:10067  10**64 */\n      0x184f03e93ff9f4daa797ed6e38ed64bf6a1f010000000000000000\n        /* \"OpenZeppelin.mod/math/Math.sol\":10052:10067  value /= 10**64 */\n      dup4\n      dup2\n      tag_252\n      jumpi\n      tag_253\n      tag_243\n      jump\t// in\n    tag_253:\n    tag_252:\n      div\n      swap3\n      pop\n        /* \"OpenZeppelin.mod/math/Math.sol\":10095:10097  64 */\n      0x40\n        /* \"OpenZeppelin.mod/math/Math.sol\":10085:10097  result += 64 */\n      dup2\n      add\n      swap1\n      pop\n        /* \"OpenZeppelin.mod/math/Math.sol\":10013:10112  if (value >= 10**64) {... */\n    tag_251:\n        /* \"OpenZeppelin.mod/math/Math.sol\":10138:10144  10**32 */\n      0x04ee2d6d415b85acef8100000000\n        /* \"OpenZeppelin.mod/math/Math.sol\":10129:10134  value */\n      dup4\n        /* \"OpenZeppelin.mod/math/Math.sol\":10129:10144  value >= 10**32 */\n      lt\n        /* \"OpenZeppelin.mod/math/Math.sol\":10125:10224  if (value >= 10**32) {... */\n      tag_254\n      jumpi\n        /* \"OpenZeppelin.mod/math/Math.sol\":10173:10179  10**32 */\n      0x04ee2d6d415b85acef8100000000\n        /* \"OpenZeppelin.mod/math/Math.sol\":10164:10179  value /= 10**32 */\n      dup4\n      dup2\n      tag_255\n      jumpi\n      tag_256\n      tag_243\n      jump\t// in\n    tag_256:\n    tag_255:\n      div\n      swap3\n      pop\n        /* \"OpenZeppelin.mod/math/Math.sol\":10207:10209  32 */\n      0x20\n        /* \"OpenZeppelin.mod/math/Math.sol\":10197:10209  result += 32 */\n      dup2\n      add\n      swap1\n      pop\n        /* \"OpenZeppelin.mod/math/Math.sol\":10125:10224  if (value >= 10**32) {... */\n    tag_254:\n        /* \"OpenZeppelin.mod/math/Math.sol\":10250:10256  10**16 */\n      0x2386f26fc10000\n        /* \"OpenZeppelin.mod/math/Math.sol\":10241:10246  value */\n      dup4\n        /* \"OpenZeppelin.mod/math/Math.sol\":10241:10256  value >= 10**16 */\n      lt\n        /* \"OpenZeppelin.mod/math/Math.sol\":10237:10336  if (value >= 10**16) {... */\n      tag_257\n      jumpi\n        /* \"OpenZeppelin.mod/math/Math.sol\":10285:10291  10**16 */\n      0x2386f26fc10000\n        /* \"OpenZeppelin.mod/math/Math.sol\":10276:10291  value /= 10**16 */\n      dup4\n      dup2\n      tag_258\n      jumpi\n      tag_259\n      tag_243\n      jump\t// in\n    tag_259:\n    tag_258:\n      div\n      swap3\n      pop\n        /* \"OpenZeppelin.mod/math/Math.sol\":10319:10321  16 */\n      0x10\n        /* \"OpenZeppelin.mod/math/Math.sol\":10309:10321  result += 16 */\n      dup2\n      add\n      swap1\n      pop\n        /* \"OpenZeppelin.mod/math/Math.sol\":10237:10336  if (value >= 10**16) {... */\n    tag_257:\n        /* \"OpenZeppelin.mod/math/Math.sol\":10362:10367  10**8 */\n      0x05f5e100\n        /* \"OpenZeppelin.mod/math/Math.sol\":10353:10358  value */\n      dup4\n        /* \"OpenZeppelin.mod/math/Math.sol\":10353:10367  value >= 10**8 */\n      lt\n        /* \"OpenZeppelin.mod/math/Math.sol\":10349:10445  if (value >= 10**8) {... */\n      tag_260\n      jumpi\n        /* \"OpenZeppelin.mod/math/Math.sol\":10396:10401  10**8 */\n      0x05f5e100\n        /* \"OpenZeppelin.mod/math/Math.sol\":10387:10401  value /= 10**8 */\n      dup4\n      dup2\n      tag_261\n      jumpi\n      tag_262\n      tag_243\n      jump\t// in\n    tag_262:\n    tag_261:\n      div\n      swap3\n      pop\n        /* \"OpenZeppelin.mod/math/Math.sol\":10429:10430  8 */\n      0x08\n        /* \"OpenZeppelin.mod/math/Math.sol\":10419:10430  result += 8 */\n      dup2\n      add\n      swap1\n      pop\n        /* \"OpenZeppelin.mod/math/Math.sol\":10349:10445  if (value >= 10**8) {... */\n    tag_260:\n        /* \"OpenZeppelin.mod/math/Math.sol\":10471:10476  10**4 */\n      0x2710\n        /* \"OpenZeppelin.mod/math/Math.sol\":10462:10467  value */\n      dup4\n        /* \"OpenZeppelin.mod/math/Math.sol\":10462:10476  value >= 10**4 */\n      lt\n        /* \"OpenZeppelin.mod/math/Math.sol\":10458:10554  if (value >= 10**4) {... */\n      tag_263\n      jumpi\n        /* \"OpenZeppelin.mod/math/Math.sol\":10505:10510  10**4 */\n      0x2710\n        /* \"OpenZeppelin.mod/math/Math.sol\":10496:10510  value /= 10**4 */\n      dup4\n      dup2\n      tag_264\n      jumpi\n      tag_265\n      tag_243\n      jump\t// in\n    tag_265:\n    tag_264:\n      div\n      swap3\n      pop\n        /* \"OpenZeppelin.mod/math/Math.sol\":10538:10539  4 */\n      0x04\n        /* \"OpenZeppelin.mod/math/Math.sol\":10528:10539  result += 4 */\n      dup2\n      add\n      swap1\n      pop\n        /* \"OpenZeppelin.mod/math/Math.sol\":10458:10554  if (value >= 10**4) {... */\n    tag_263:\n        /* \"OpenZeppelin.mod/math/Math.sol\":10580:10585  10**2 */\n      0x64\n        /* \"OpenZeppelin.mod/math/Math.sol\":10571:10576  value */\n      dup4\n        /* \"OpenZeppelin.mod/math/Math.sol\":10571:10585  value >= 10**2 */\n      lt\n        /* \"OpenZeppelin.mod/math/Math.sol\":10567:10663  if (value >= 10**2) {... */\n      tag_266\n      jumpi\n        /* \"OpenZeppelin.mod/math/Math.sol\":10614:10619  10**2 */\n      0x64\n        /* \"OpenZeppelin.mod/math/Math.sol\":10605:10619  value /= 10**2 */\n      dup4\n      dup2\n      tag_267\n      jumpi\n      tag_268\n      tag_243\n      jump\t// in\n    tag_268:\n    tag_267:\n      div\n      swap3\n      pop\n        /* \"OpenZeppelin.mod/math/Math.sol\":10647:10648  2 */\n      0x02\n        /* \"OpenZeppelin.mod/math/Math.sol\":10637:10648  result += 2 */\n      dup2\n      add\n      swap1\n      pop\n        /* \"OpenZeppelin.mod/math/Math.sol\":10567:10663  if (value >= 10**2) {... */\n    tag_266:\n        /* \"OpenZeppelin.mod/math/Math.sol\":10689:10694  10**1 */\n      0x0a\n        /* \"OpenZeppelin.mod/math/Math.sol\":10680:10685  value */\n      dup4\n        /* \"OpenZeppelin.mod/math/Math.sol\":10680:10694  value >= 10**1 */\n      lt\n        /* \"OpenZeppelin.mod/math/Math.sol\":10676:10740  if (value >= 10**1) {... */\n      tag_269\n      jumpi\n        /* \"OpenZeppelin.mod/math/Math.sol\":10724:10725  1 */\n      0x01\n        /* \"OpenZeppelin.mod/math/Math.sol\":10714:10725  result += 1 */\n      dup2\n      add\n      swap1\n      pop\n        /* \"OpenZeppelin.mod/math/Math.sol\":10676:10740  if (value >= 10**1) {... */\n    tag_269:\n        /* \"OpenZeppelin.mod/math/Math.sol\":10766:10772  result */\n      dup1\n        /* \"OpenZeppelin.mod/math/Math.sol\":10759:10772  return result */\n      swap2\n      pop\n      pop\n        /* \"OpenZeppelin.mod/math/Math.sol\":9889:10779  function log10(uint256 value) internal pure returns (uint256) {... */\n      swap2\n      swap1\n      pop\n      jump\t// out\n        /* \"OpenZeppelin.mod/math/Math.sol\":11430:12093  function log256(uint256 value) internal pure returns (uint256) {... */\n    tag_248:\n        /* \"OpenZeppelin.mod/math/Math.sol\":11484:11491  uint256 */\n      0x00\n        /* \"OpenZeppelin.mod/math/Math.sol\":11503:11517  uint256 result */\n      dup1\n        /* \"OpenZeppelin.mod/math/Math.sol\":11520:11521  0 */\n      0x00\n        /* \"OpenZeppelin.mod/math/Math.sol\":11503:11521  uint256 result = 0 */\n      swap1\n      pop\n        /* \"OpenZeppelin.mod/math/Math.sol\":11574:11575  0 */\n      0x00\n        /* \"OpenZeppelin.mod/math/Math.sol\":11568:11571  128 */\n      0x80\n        /* \"OpenZeppelin.mod/math/Math.sol\":11559:11564  value */\n      dup5\n        /* \"OpenZeppelin.mod/math/Math.sol\":11559:11571  value >> 128 */\n      swap1\n      shr\n        /* \"OpenZeppelin.mod/math/Math.sol\":11559:11575  value >> 128 > 0 */\n      gt\n        /* \"OpenZeppelin.mod/math/Math.sol\":11555:11653  if (value >> 128 > 0) {... */\n      iszero\n      tag_271\n      jumpi\n        /* \"OpenZeppelin.mod/math/Math.sol\":11605:11608  128 */\n      0x80\n        /* \"OpenZeppelin.mod/math/Math.sol\":11595:11608  value >>= 128 */\n      dup4\n      swap1\n      shr\n      swap3\n      pop\n        /* \"OpenZeppelin.mod/math/Math.sol\":11636:11638  16 */\n      0x10\n        /* \"OpenZeppelin.mod/math/Math.sol\":11626:11638  result += 16 */\n      dup2\n      add\n      swap1\n      pop\n        /* \"OpenZeppelin.mod/math/Math.sol\":11555:11653  if (value >> 128 > 0) {... */\n    tag_271:\n        /* \"OpenZeppelin.mod/math/Math.sol\":11684:11685  0 */\n      0x00\n        /* \"OpenZeppelin.mod/math/Math.sol\":11679:11681  64 */\n      0x40\n        /* \"OpenZeppelin.mod/math/Math.sol\":11670:11675  value */\n      dup5\n        /* \"OpenZeppelin.mod/math/Math.sol\":11670:11681  value >> 64 */\n      swap1\n      shr\n        /* \"OpenZeppelin.mod/math/Math.sol\":11670:11685  value >> 64 > 0 */\n      gt\n        /* \"OpenZeppelin.mod/math/Math.sol\":11666:11761  if (value >> 64 > 0) {... */\n      iszero\n      tag_272\n      jumpi\n        /* \"OpenZeppelin.mod/math/Math.sol\":11715:11717  64 */\n      0x40\n        /* \"OpenZeppelin.mod/math/Math.sol\":11705:11717  value >>= 64 */\n      dup4\n      swap1\n      shr\n      swap3\n      pop\n        /* \"OpenZeppelin.mod/math/Math.sol\":11745:11746  8 */\n      0x08\n        /* \"OpenZeppelin.mod/math/Math.sol\":11735:11746  result += 8 */\n      dup2\n      add\n      swap1\n      pop\n        /* \"OpenZeppelin.mod/math/Math.sol\":11666:11761  if (value >> 64 > 0) {... */\n    tag_272:\n        /* \"OpenZeppelin.mod/math/Math.sol\":11792:11793  0 */\n      0x00\n        /* \"OpenZeppelin.mod/math/Math.sol\":11787:11789  32 */\n      0x20\n        /* \"OpenZeppelin.mod/math/Math.sol\":11778:11783  value */\n      dup5\n        /* \"OpenZeppelin.mod/math/Math.sol\":11778:11789  value >> 32 */\n      swap1\n      shr\n        /* \"OpenZeppelin.mod/math/Math.sol\":11778:11793  value >> 32 > 0 */\n      gt\n        /* \"OpenZeppelin.mod/math/Math.sol\":11774:11869  if (value >> 32 > 0) {... */\n      iszero\n      tag_273\n      jumpi\n        /* \"OpenZeppelin.mod/math/Math.sol\":11823:11825  32 */\n      0x20\n        /* \"OpenZeppelin.mod/math/Math.sol\":11813:11825  value >>= 32 */\n      dup4\n      swap1\n      shr\n      swap3\n      pop\n        /* \"OpenZeppelin.mod/math/Math.sol\":11853:11854  4 */\n      0x04\n        /* \"OpenZeppelin.mod/math/Math.sol\":11843:11854  result += 4 */\n      dup2\n      add\n      swap1\n      pop\n        /* \"OpenZeppelin.mod/math/Math.sol\":11774:11869  if (value >> 32 > 0) {... */\n    tag_273:\n        /* \"OpenZeppelin.mod/math/Math.sol\":11900:11901  0 */\n      0x00\n        /* \"OpenZeppelin.mod/math/Math.sol\":11895:11897  16 */\n      0x10\n        /* \"OpenZeppelin.mod/math/Math.sol\":11886:11891  value */\n      dup5\n        /* \"OpenZeppelin.mod/math/Math.sol\":11886:11897  value >> 16 */\n      swap1\n      shr\n        /* \"OpenZeppelin.mod/math/Math.sol\":11886:11901  value >> 16 > 0 */\n      gt\n        /* \"OpenZeppelin.mod/math/Math.sol\":11882:11977  if (value >> 16 > 0) {... */\n      iszero\n      tag_274\n      jumpi\n        /* \"OpenZeppelin.mod/math/Math.sol\":11931:11933  16 */\n      0x10\n        /* \"OpenZeppelin.mod/math/Math.sol\":11921:11933  value >>= 16 */\n      dup4\n      swap1\n      shr\n      swap3\n      pop\n        /* \"OpenZeppelin.mod/math/Math.sol\":11961:11962  2 */\n      0x02\n        /* \"OpenZeppelin.mod/math/Math.sol\":11951:11962  result += 2 */\n      dup2\n      add\n      swap1\n      pop\n        /* \"OpenZeppelin.mod/math/Math.sol\":11882:11977  if (value >> 16 > 0) {... */\n    tag_274:\n        /* \"OpenZeppelin.mod/math/Math.sol\":12007:12008  0 */\n      0x00\n        /* \"OpenZeppelin.mod/math/Math.sol\":12003:12004  8 */\n      0x08\n        /* \"OpenZeppelin.mod/math/Math.sol\":11994:11999  value */\n      dup5\n        /* \"OpenZeppelin.mod/math/Math.sol\":11994:12004  value >> 8 */\n      swap1\n      shr\n        /* \"OpenZeppelin.mod/math/Math.sol\":11994:12008  value >> 8 > 0 */\n      gt\n        /* \"OpenZeppelin.mod/math/Math.sol\":11990:12054  if (value >> 8 > 0) {... */\n      iszero\n      tag_275\n      jumpi\n        /* \"OpenZeppelin.mod/math/Math.sol\":12038:12039  1 */\n      0x01\n        /* \"OpenZeppelin.mod/math/Math.sol\":12028:12039  result += 1 */\n      dup2\n      add\n      swap1\n      pop\n        /* \"OpenZeppelin.mod/math/Math.sol\":11990:12054  if (value >> 8 > 0) {... */\n    tag_275:\n        /* \"OpenZeppelin.mod/math/Math.sol\":12080:12086  result */\n      dup1\n        /* \"OpenZeppelin.mod/math/Math.sol\":12073:12086  return result */\n      swap2\n      pop\n      pop\n        /* \"OpenZeppelin.mod/math/Math.sol\":11430:12093  function log256(uint256 value) internal pure returns (uint256) {... */\n      swap2\n      swap1\n      pop\n      jump\t// out\n        /* \"OpenZeppelin.mod/Strings.sol\":1818:2255  function toHexString(uint256 value, uint256 length) internal pure returns (string memory) {... */\n    tag_249:\n        /* \"OpenZeppelin.mod/Strings.sol\":1893:1906  string memory */\n      0x60\n        /* \"OpenZeppelin.mod/Strings.sol\":1918:1937  bytes memory buffer */\n      0x00\n        /* \"OpenZeppelin.mod/Strings.sol\":1963:1964  2 */\n      0x02\n        /* \"OpenZeppelin.mod/Strings.sol\":1954:1960  length */\n      dup4\n        /* \"OpenZeppelin.mod/Strings.sol\":1950:1951  2 */\n      0x02\n        /* \"OpenZeppelin.mod/Strings.sol\":1950:1960  2 * length */\n      tag_277\n      swap2\n      swap1\n      tag_278\n      jump\t// in\n    tag_277:\n        /* \"OpenZeppelin.mod/Strings.sol\":1950:1964  2 * length + 2 */\n      tag_279\n      swap2\n      swap1\n      tag_280\n      jump\t// in\n    tag_279:\n        /* \"OpenZeppelin.mod/Strings.sol\":1940:1965  new bytes(2 * length + 2) */\n      0xffffffffffffffff\n      dup2\n      gt\n      iszero\n      tag_281\n      jumpi\n      tag_282\n      tag_237\n      jump\t// in\n    tag_282:\n    tag_281:\n      mload(0x40)\n      swap1\n      dup1\n      dup3\n      mstore\n      dup1\n      0x1f\n      add\n      not(0x1f)\n      and\n      0x20\n      add\n      dup3\n      add\n      0x40\n      mstore\n      dup1\n      iszero\n      tag_283\n      jumpi\n      dup2\n      0x20\n      add\n      0x01\n      dup3\n      mul\n      dup1\n      calldatasize\n      dup4\n      calldatacopy\n      dup1\n      dup3\n      add\n      swap2\n      pop\n      pop\n      swap1\n      pop\n    tag_283:\n      pop\n        /* \"OpenZeppelin.mod/Strings.sol\":1918:1965  bytes memory buffer = new bytes(2 * length + 2) */\n      swap1\n      pop\n        /* \"OpenZeppelin.mod/Strings.sol\":1975:1990  buffer[0] = \"0\" */\n      0x3000000000000000000000000000000000000000000000000000000000000000\n        /* \"OpenZeppelin.mod/Strings.sol\":1975:1981  buffer */\n      dup2\n        /* \"OpenZeppelin.mod/Strings.sol\":1982:1983  0 */\n      0x00\n        /* \"OpenZeppelin.mod/Strings.sol\":1975:1984  buffer[0] */\n      dup2\n      mload\n      dup2\n      lt\n      tag_284\n      jumpi\n      tag_285\n      tag_286\n      jump\t// in\n    tag_285:\n    tag_284:\n      0x20\n      add\n      add\n        /* \"OpenZeppelin.mod/Strings.sol\":1975:1990  buffer[0] = \"0\" */\n      swap1\n      not(0xffffffffffffffffffffffffffffffffffffffffffffffffffffffffffffff)\n      and\n      swap1\n      dup2\n      0x00\n      byte\n      swap1\n      mstore8\n      pop\n        /* \"OpenZeppelin.mod/Strings.sol\":2000:2015  buffer[1] = \"x\" */\n      0x7800000000000000000000000000000000000000000000000000000000000000\n        /* \"OpenZeppelin.mod/Strings.sol\":2000:2006  buffer */\n      dup2\n        /* \"OpenZeppelin.mod/Strings.sol\":2007:2008  1 */\n      0x01\n        /* \"OpenZeppelin.mod/Strings.sol\":2000:2009  buffer[1] */\n      dup2\n      mload\n      dup2\n      lt\n      tag_287\n      jumpi\n      tag_288\n      tag_286\n      jump\t// in\n    tag_288:\n    tag_287:\n      0x20\n      add\n      add\n        /* \"OpenZeppelin.mod/Strings.sol\":2000:2015  buffer[1] = \"x\" */\n      swap1\n      not(0xffffffffffffffffffffffffffffffffffffffffffffffffffffffffffffff)\n      and\n      swap1\n      dup2\n      0x00\n      byte\n      swap1\n      mstore8\n      pop\n        /* \"OpenZeppelin.mod/Strings.sol\":2030:2039  uint256 i */\n      0x00\n        /* \"OpenZeppelin.mod/Strings.sol\":2055:2056  1 */\n      0x01\n        /* \"OpenZeppelin.mod/Strings.sol\":2046:2052  length */\n      dup5\n        /* \"OpenZeppelin.mod/Strings.sol\":2042:2043  2 */\n      0x02\n        /* \"OpenZeppelin.mod/Strings.sol\":2042:2052  2 * length */\n      tag_292\n      swap2\n      swap1\n      tag_278\n      jump\t// in\n    tag_292:\n        /* \"OpenZeppelin.mod/Strings.sol\":2042:2056  2 * length + 1 */\n      tag_293\n      swap2\n      swap1\n      tag_280\n      jump\t// in\n    tag_293:\n        /* \"OpenZeppelin.mod/Strings.sol\":2030:2056  uint256 i = 2 * length + 1 */\n      swap1\n      pop\n        /* \"OpenZeppelin.mod/Strings.sol\":2025:2153  for (uint256 i = 2 * length + 1; i > 1; --i) {... */\n    tag_289:\n        /* \"OpenZeppelin.mod/Strings.sol\":2062:2063  1 */\n      0x01\n        /* \"OpenZeppelin.mod/Strings.sol\":2058:2059  i */\n      dup2\n        /* \"OpenZeppelin.mod/Strings.sol\":2058:2063  i > 1 */\n      gt\n        /* \"OpenZeppelin.mod/Strings.sol\":2025:2153  for (uint256 i = 2 * length + 1; i > 1; --i) {... */\n      iszero\n      tag_290\n      jumpi\n        /* \"OpenZeppelin.mod/Strings.sol\":2096:2104  _SYMBOLS */\n      0x3031323334353637383961626364656600000000000000000000000000000000\n        /* \"OpenZeppelin.mod/Strings.sol\":2113:2116  0xf */\n      0x0f\n        /* \"OpenZeppelin.mod/Strings.sol\":2105:2110  value */\n      dup7\n        /* \"OpenZeppelin.mod/Strings.sol\":2105:2116  value & 0xf */\n      and\n        /* \"OpenZeppelin.mod/Strings.sol\":2096:2117  _SYMBOLS[value & 0xf] */\n      0x10\n      dup2\n      lt\n      tag_294\n      jumpi\n      tag_295\n      tag_286\n      jump\t// in\n    tag_295:\n    tag_294:\n      byte\n      0xf8\n      shl\n        /* \"OpenZeppelin.mod/Strings.sol\":2084:2090  buffer */\n      dup3\n        /* \"OpenZeppelin.mod/Strings.sol\":2091:2092  i */\n      dup3\n        /* \"OpenZeppelin.mod/Strings.sol\":2084:2093  buffer[i] */\n      dup2\n      mload\n      dup2\n      lt\n      tag_296\n      jumpi\n      tag_297\n      tag_286\n      jump\t// in\n    tag_297:\n    tag_296:\n      0x20\n      add\n      add\n        /* \"OpenZeppelin.mod/Strings.sol\":2084:2117  buffer[i] = _SYMBOLS[value & 0xf] */\n      swap1\n      not(0xffffffffffffffffffffffffffffffffffffffffffffffffffffffffffffff)\n      and\n      swap1\n      dup2\n      0x00\n      byte\n      swap1\n      mstore8\n      pop\n        /* \"OpenZeppelin.mod/Strings.sol\":2141:2142  4 */\n      0x04\n        /* \"OpenZeppelin.mod/Strings.sol\":2131:2142  value >>= 4 */\n      dup6\n      swap1\n      shr\n      swap5\n      pop\n        /* \"OpenZeppelin.mod/Strings.sol\":2065:2068  --i */\n      dup1\n      tag_298\n      swap1\n      tag_62\n      jump\t// in\n    tag_298:\n      swap1\n      pop\n        /* \"OpenZeppelin.mod/Strings.sol\":2025:2153  for (uint256 i = 2 * length + 1; i > 1; --i) {... */\n      jump(tag_289)\n    tag_290:\n      pop\n        /* \"OpenZeppelin.mod/Strings.sol\":2179:2180  0 */\n      0x00\n        /* \"OpenZeppelin.mod/Strings.sol\":2170:2175  value */\n      dup5\n        /* \"OpenZeppelin.mod/Strings.sol\":2170:2180  value == 0 */\n      eq\n        /* \"OpenZeppelin.mod/Strings.sol\":2162:2217  require(value == 0, \"Strings: hex length insufficient\") */\n      tag_299\n      jumpi\n      mload(0x40)\n      0x08c379a000000000000000000000000000000000000000000000000000000000\n      dup2\n      mstore\n      0x04\n      add\n      tag_300\n      swap1\n      tag_301\n      jump\t// in\n    tag_300:\n      mload(0x40)\n      dup1\n      swap2\n      sub\n      swap1\n      revert\n    tag_299:\n        /* \"OpenZeppelin.mod/Strings.sol\":2241:2247  buffer */\n      dup1\n        /* \"OpenZeppelin.mod/Strings.sol\":2227:2248  return string(buffer) */\n      swap2\n      pop\n      pop\n        /* \"OpenZeppelin.mod/Strings.sol\":1818:2255  function toHexString(uint256 value, uint256 length) internal pure returns (string memory) {... */\n      swap3\n      swap2\n      pop\n      pop\n      jump\t// out\n    tag_55:\n      pop\n      dup1\n      sload\n      tag_302\n      swap1\n      tag_67\n      jump\t// in\n    tag_302:\n      0x00\n      dup3\n      sstore\n      dup1\n      0x1f\n      lt\n      tag_304\n      jumpi\n      pop\n      jump(tag_303)\n    tag_304:\n      0x1f\n      add\n      0x20\n      swap1\n      div\n      swap1\n      0x00\n      mstore\n      keccak256(0x00, 0x20)\n      swap1\n      dup2\n      add\n      swap1\n      tag_305\n      swap2\n      swap1\n      tag_306\n      jump\t// in\n    tag_305:\n    tag_303:\n      pop\n      jump\t// out\n    tag_167:\n      mload(0x40)\n      dup1\n      0x0140\n      add\n      0x40\n      mstore\n      dup1\n      0x60\n      dup2\n      mstore\n      0x20\n      add\n      0x60\n      dup2\n      mstore\n      0x20\n      add\n      0x60\n      dup2\n      mstore\n      0x20\n      add\n      0x60\n      dup2\n      mstore\n      0x20\n      add\n      0x60\n      dup2\n      mstore\n      0x20\n      add\n      and(0xff, 0x00)\n      dup2\n      mstore\n      0x20\n      add\n      0x60\n      dup2\n      mstore\n      0x20\n      add\n      and(0xffffffffffffffffffffffffffffffffffffffff, 0x00)\n      dup2\n      mstore\n      0x20\n      add\n      0x00\n      dup1\n      not\n      and\n      dup2\n      mstore\n      0x20\n      add\n      0x00\n      dup1\n      not\n      and\n      dup2\n      mstore\n      pop\n      swap1\n      jump\t// out\n    tag_306:\n    tag_307:\n      dup1\n      dup3\n      gt\n      iszero\n      tag_308\n      jumpi\n      0x00\n      dup2\n      0x00\n      swap1\n      sstore\n      pop\n      0x01\n      add\n      jump(tag_307)\n    tag_308:\n      pop\n      swap1\n      jump\t// out\n        /* \"#utility.yul\":7:82   */\n    tag_309:\n        /* \"#utility.yul\":40:46   */\n      0x00\n        /* \"#utility.yul\":73:75   */\n      0x40\n        /* \"#utility.yul\":67:76   */\n      mload\n        /* \"#utility.yul\":57:76   */\n      swap1\n      pop\n        /* \"#utility.yul\":7:82   */\n      swap1\n      jump\t// out\n        /* \"#utility.yul\":88:205   */\n    tag_310:\n        /* \"#utility.yul\":197:198   */\n      0x00\n        /* \"#utility.yul\":194:195   */\n      dup1\n        /* \"#utility.yul\":187:199   */\n      revert\n        /* \"#utility.yul\":211:328   */\n    tag_311:\n        /* \"#utility.yul\":320:321   */\n      0x00\n        /* \"#utility.yul\":317:318   */\n      dup1\n        /* \"#utility.yul\":310:322   */\n      revert\n        /* \"#utility.yul\":334:411   */\n    tag_312:\n        /* \"#utility.yul\":371:378   */\n      0x00\n        /* \"#utility.yul\":400:405   */\n      dup2\n        /* \"#utility.yul\":389:405   */\n      swap1\n      pop\n        /* \"#utility.yul\":334:411   */\n      swap2\n      swap1\n      pop\n      jump\t// out\n        /* \"#utility.yul\":417:539   */\n    tag_313:\n        /* \"#utility.yul\":490:514   */\n      tag_401\n        /* \"#utility.yul\":508:513   */\n      dup2\n        /* \"#utility.yul\":490:514   */\n      tag_312\n      jump\t// in\n    tag_401:\n        /* \"#utility.yul\":483:488   */\n      dup2\n        /* \"#utility.yul\":480:515   */\n      eq\n        /* \"#utility.yul\":470:533   */\n      tag_402\n      jumpi\n        /* \"#utility.yul\":529:530   */\n      0x00\n        /* \"#utility.yul\":526:527   */\n      dup1\n        /* \"#utility.yul\":519:531   */\n      revert\n        /* \"#utility.yul\":470:533   */\n    tag_402:\n        /* \"#utility.yul\":417:539   */\n      pop\n      jump\t// out\n        /* \"#utility.yul\":545:684   */\n    tag_314:\n        /* \"#utility.yul\":591:596   */\n      0x00\n        /* \"#utility.yul\":629:635   */\n      dup2\n        /* \"#utility.yul\":616:636   */\n      calldataload\n        /* \"#utility.yul\":607:636   */\n      swap1\n      pop\n        /* \"#utility.yul\":645:678   */\n      tag_404\n        /* \"#utility.yul\":672:677   */\n      dup2\n        /* \"#utility.yul\":645:678   */\n      tag_313\n      jump\t// in\n    tag_404:\n        /* \"#utility.yul\":545:684   */\n      swap3\n      swap2\n      pop\n      pop\n      jump\t// out\n        /* \"#utility.yul\":690:1019   */\n    tag_13:\n        /* \"#utility.yul\":749:755   */\n      0x00\n        /* \"#utility.yul\":798:800   */\n      0x20\n        /* \"#utility.yul\":786:795   */\n      dup3\n        /* \"#utility.yul\":777:784   */\n      dup5\n        /* \"#utility.yul\":773:796   */\n      sub\n        /* \"#utility.yul\":769:801   */\n      slt\n        /* \"#utility.yul\":766:885   */\n      iszero\n      tag_406\n      jumpi\n        /* \"#utility.yul\":804:883   */\n      tag_407\n      tag_310\n      jump\t// in\n    tag_407:\n        /* \"#utility.yul\":766:885   */\n    tag_406:\n        /* \"#utility.yul\":924:925   */\n      0x00\n        /* \"#utility.yul\":949:1002   */\n      tag_408\n        /* \"#utility.yul\":994:1001   */\n      dup5\n        /* \"#utility.yul\":985:991   */\n      dup3\n        /* \"#utility.yul\":974:983   */\n      dup6\n        /* \"#utility.yul\":970:992   */\n      add\n        /* \"#utility.yul\":949:1002   */\n      tag_314\n      jump\t// in\n    tag_408:\n        /* \"#utility.yul\":939:1002   */\n      swap2\n      pop\n        /* \"#utility.yul\":895:1012   */\n      pop\n        /* \"#utility.yul\":690:1019   */\n      swap3\n      swap2\n      pop\n      pop\n      jump\t// out\n        /* \"#utility.yul\":1025:1102   */\n    tag_315:\n        /* \"#utility.yul\":1062:1069   */\n      0x00\n        /* \"#utility.yul\":1091:1096   */\n      dup2\n        /* \"#utility.yul\":1080:1096   */\n      swap1\n      pop\n        /* \"#utility.yul\":1025:1102   */\n      swap2\n      swap1\n      pop\n      jump\t// out\n        /* \"#utility.yul\":1108:1226   */\n    tag_316:\n        /* \"#utility.yul\":1195:1219   */\n      tag_411\n        /* \"#utility.yul\":1213:1218   */\n      dup2\n        /* \"#utility.yul\":1195:1219   */\n      tag_315\n      jump\t// in\n    tag_411:\n        /* \"#utility.yul\":1190:1193   */\n      dup3\n        /* \"#utility.yul\":1183:1220   */\n      mstore\n        /* \"#utility.yul\":1108:1226   */\n      pop\n      pop\n      jump\t// out\n        /* \"#utility.yul\":1232:1454   */\n    tag_19:\n        /* \"#utility.yul\":1325:1329   */\n      0x00\n        /* \"#utility.yul\":1363:1365   */\n      0x20\n        /* \"#utility.yul\":1352:1361   */\n      dup3\n        /* \"#utility.yul\":1348:1366   */\n      add\n        /* \"#utility.yul\":1340:1366   */\n      swap1\n      pop\n        /* \"#utility.yul\":1376:1447   */\n      tag_413\n        /* \"#utility.yul\":1444:1445   */\n      0x00\n        /* \"#utility.yul\":1433:1442   */\n      dup4\n        /* \"#utility.yul\":1429:1446   */\n      add\n        /* \"#utility.yul\":1420:1426   */\n      dup5\n        /* \"#utility.yul\":1376:1447   */\n      tag_316\n      jump\t// in\n    tag_413:\n        /* \"#utility.yul\":1232:1454   */\n      swap3\n      swap2\n      pop\n      pop\n      jump\t// out\n        /* \"#utility.yul\":1460:1586   */\n    tag_317:\n        /* \"#utility.yul\":1497:1504   */\n      0x00\n        /* \"#utility.yul\":1537:1579   */\n      0xffffffffffffffffffffffffffffffffffffffff\n        /* \"#utility.yul\":1530:1535   */\n      dup3\n        /* \"#utility.yul\":1526:1580   */\n      and\n        /* \"#utility.yul\":1515:1580   */\n      swap1\n      pop\n        /* \"#utility.yul\":1460:1586   */\n      swap2\n      swap1\n      pop\n      jump\t// out\n        /* \"#utility.yul\":1592:1688   */\n    tag_318:\n        /* \"#utility.yul\":1629:1636   */\n      0x00\n        /* \"#utility.yul\":1658:1682   */\n      tag_416\n        /* \"#utility.yul\":1676:1681   */\n      dup3\n        /* \"#utility.yul\":1658:1682   */\n      tag_317\n      jump\t// in\n    tag_416:\n        /* \"#utility.yul\":1647:1682   */\n      swap1\n      pop\n        /* \"#utility.yul\":1592:1688   */\n      swap2\n      swap1\n      pop\n      jump\t// out\n        /* \"#utility.yul\":1694:1816   */\n    tag_319:\n        /* \"#utility.yul\":1767:1791   */\n      tag_418\n        /* \"#utility.yul\":1785:1790   */\n      dup2\n        /* \"#utility.yul\":1767:1791   */\n      tag_318\n      jump\t// in\n    tag_418:\n        /* \"#utility.yul\":1760:1765   */\n      dup2\n        /* \"#utility.yul\":1757:1792   */\n      eq\n        /* \"#utility.yul\":1747:1810   */\n      tag_419\n      jumpi\n        /* \"#utility.yul\":1806:1807   */\n      0x00\n        /* \"#utility.yul\":1803:1804   */\n      dup1\n        /* \"#utility.yul\":1796:1808   */\n      revert\n        /* \"#utility.yul\":1747:1810   */\n    tag_419:\n        /* \"#utility.yul\":1694:1816   */\n      pop\n      jump\t// out\n        /* \"#utility.yul\":1822:1961   */\n    tag_320:\n        /* \"#utility.yul\":1868:1873   */\n      0x00\n        /* \"#utility.yul\":1906:1912   */\n      dup2\n        /* \"#utility.yul\":1893:1913   */\n      calldataload\n        /* \"#utility.yul\":1884:1913   */\n      swap1\n      pop\n        /* \"#utility.yul\":1922:1955   */\n      tag_421\n        /* \"#utility.yul\":1949:1954   */\n      dup2\n        /* \"#utility.yul\":1922:1955   */\n      tag_319\n      jump\t// in\n    tag_421:\n        /* \"#utility.yul\":1822:1961   */\n      swap3\n      swap2\n      pop\n      pop\n      jump\t// out\n        /* \"#utility.yul\":1967:2296   */\n    tag_22:\n        /* \"#utility.yul\":2026:2032   */\n      0x00\n        /* \"#utility.yul\":2075:2077   */\n      0x20\n        /* \"#utility.yul\":2063:2072   */\n      dup3\n        /* \"#utility.yul\":2054:2061   */\n      dup5\n        /* \"#utility.yul\":2050:2073   */\n      sub\n        /* \"#utility.yul\":2046:2078   */\n      slt\n        /* \"#utility.yul\":2043:2162   */\n      iszero\n      tag_423\n      jumpi\n        /* \"#utility.yul\":2081:2160   */\n      tag_424\n      tag_310\n      jump\t// in\n    tag_424:\n        /* \"#utility.yul\":2043:2162   */\n    tag_423:\n        /* \"#utility.yul\":2201:2202   */\n      0x00\n        /* \"#utility.yul\":2226:2279   */\n      tag_425\n        /* \"#utility.yul\":2271:2278   */\n      dup5\n        /* \"#utility.yul\":2262:2268   */\n      dup3\n        /* \"#utility.yul\":2251:2260   */\n      dup6\n        /* \"#utility.yul\":2247:2269   */\n      add\n        /* \"#utility.yul\":2226:2279   */\n      tag_320\n      jump\t// in\n    tag_425:\n        /* \"#utility.yul\":2216:2279   */\n      swap2\n      pop\n        /* \"#utility.yul\":2172:2289   */\n      pop\n        /* \"#utility.yul\":1967:2296   */\n      swap3\n      swap2\n      pop\n      pop\n      jump\t// out\n        /* \"#utility.yul\":2302:2419   */\n    tag_321:\n        /* \"#utility.yul\":2411:2412   */\n      0x00\n        /* \"#utility.yul\":2408:2409   */\n      dup1\n        /* \"#utility.yul\":2401:2413   */\n      revert\n        /* \"#utility.yul\":2425:2542   */\n    tag_322:\n        /* \"#utility.yul\":2534:2535   */\n      0x00\n        /* \"#utility.yul\":2531:2532   */\n      dup1\n        /* \"#utility.yul\":2524:2536   */\n      revert\n        /* \"#utility.yul\":2548:2650   */\n    tag_323:\n        /* \"#utility.yul\":2589:2595   */\n      0x00\n        /* \"#utility.yul\":2640:2642   */\n      0x1f\n        /* \"#utility.yul\":2636:2643   */\n      not\n        /* \"#utility.yul\":2631:2633   */\n      0x1f\n        /* \"#utility.yul\":2624:2629   */\n      dup4\n        /* \"#utility.yul\":2620:2634   */\n      add\n        /* \"#utility.yul\":2616:2644   */\n      and\n        /* \"#utility.yul\":2606:2644   */\n      swap1\n      pop\n        /* \"#utility.yul\":2548:2650   */\n      swap2\n      swap1\n      pop\n      jump\t// out\n        /* \"#utility.yul\":2656:2836   */\n    tag_237:\n        /* \"#utility.yul\":2704:2781   */\n      0x4e487b7100000000000000000000000000000000000000000000000000000000\n        /* \"#utility.yul\":2701:2702   */\n      0x00\n        /* \"#utility.yul\":2694:2782   */\n      mstore\n        /* \"#utility.yul\":2801:2805   */\n      0x41\n        /* \"#utility.yul\":2798:2799   */\n      0x04\n        /* \"#utility.yul\":2791:2806   */\n      mstore\n        /* \"#utility.yul\":2825:2829   */\n      0x24\n        /* \"#utility.yul\":2822:2823   */\n      0x00\n        /* \"#utility.yul\":2815:2830   */\n      revert\n        /* \"#utility.yul\":2842:3123   */\n    tag_324:\n        /* \"#utility.yul\":2925:2952   */\n      tag_431\n        /* \"#utility.yul\":2947:2951   */\n      dup3\n        /* \"#utility.yul\":2925:2952   */\n      tag_323\n      jump\t// in\n    tag_431:\n        /* \"#utility.yul\":2917:2923   */\n      dup2\n        /* \"#utility.yul\":2913:2953   */\n      add\n        /* \"#utility.yul\":3055:3061   */\n      dup2\n        /* \"#utility.yul\":3043:3053   */\n      dup2\n        /* \"#utility.yul\":3040:3062   */\n      lt\n        /* \"#utility.yul\":3019:3037   */\n      0xffffffffffffffff\n        /* \"#utility.yul\":3007:3017   */\n      dup3\n        /* \"#utility.yul\":3004:3038   */\n      gt\n        /* \"#utility.yul\":3001:3063   */\n      or\n        /* \"#utility.yul\":2998:3086   */\n      iszero\n      tag_432\n      jumpi\n        /* \"#utility.yul\":3066:3084   */\n      tag_433\n      tag_237\n      jump\t// in\n    tag_433:\n        /* \"#utility.yul\":2998:3086   */\n    tag_432:\n        /* \"#utility.yul\":3106:3116   */\n      dup1\n        /* \"#utility.yul\":3102:3104   */\n      0x40\n        /* \"#utility.yul\":3095:3117   */\n      mstore\n        /* \"#utility.yul\":2885:3123   */\n      pop\n        /* \"#utility.yul\":2842:3123   */\n      pop\n      pop\n      jump\t// out\n        /* \"#utility.yul\":3129:3258   */\n    tag_325:\n        /* \"#utility.yul\":3163:3169   */\n      0x00\n        /* \"#utility.yul\":3190:3210   */\n      tag_435\n      tag_309\n      jump\t// in\n    tag_435:\n        /* \"#utility.yul\":3180:3210   */\n      swap1\n      pop\n        /* \"#utility.yul\":3219:3252   */\n      tag_436\n        /* \"#utility.yul\":3247:3251   */\n      dup3\n        /* \"#utility.yul\":3239:3245   */\n      dup3\n        /* \"#utility.yul\":3219:3252   */\n      tag_324\n      jump\t// in\n    tag_436:\n        /* \"#utility.yul\":3129:3258   */\n      swap2\n      swap1\n      pop\n      jump\t// out\n        /* \"#utility.yul\":3264:3572   */\n    tag_326:\n        /* \"#utility.yul\":3326:3330   */\n      0x00\n        /* \"#utility.yul\":3416:3434   */\n      0xffffffffffffffff\n        /* \"#utility.yul\":3408:3414   */\n      dup3\n        /* \"#utility.yul\":3405:3435   */\n      gt\n        /* \"#utility.yul\":3402:3458   */\n      iszero\n      tag_438\n      jumpi\n        /* \"#utility.yul\":3438:3456   */\n      tag_439\n      tag_237\n      jump\t// in\n    tag_439:\n        /* \"#utility.yul\":3402:3458   */\n    tag_438:\n        /* \"#utility.yul\":3476:3505   */\n      tag_440\n        /* \"#utility.yul\":3498:3504   */\n      dup3\n        /* \"#utility.yul\":3476:3505   */\n      tag_323\n      jump\t// in\n    tag_440:\n        /* \"#utility.yul\":3468:3505   */\n      swap1\n      pop\n        /* \"#utility.yul\":3560:3564   */\n      0x20\n        /* \"#utility.yul\":3554:3558   */\n      dup2\n        /* \"#utility.yul\":3550:3565   */\n      add\n        /* \"#utility.yul\":3542:3565   */\n      swap1\n      pop\n        /* \"#utility.yul\":3264:3572   */\n      swap2\n      swap1\n      pop\n      jump\t// out\n        /* \"#utility.yul\":3578:3724   */\n    tag_327:\n        /* \"#utility.yul\":3675:3681   */\n      dup3\n        /* \"#utility.yul\":3670:3673   */\n      dup2\n        /* \"#utility.yul\":3665:3668   */\n      dup4\n        /* \"#utility.yul\":3652:3682   */\n      calldatacopy\n        /* \"#utility.yul\":3716:3717   */\n      0x00\n        /* \"#utility.yul\":3707:3713   */\n      dup4\n        /* \"#utility.yul\":3702:3705   */\n      dup4\n        /* \"#utility.yul\":3698:3714   */\n      add\n        /* \"#utility.yul\":3691:3718   */\n      mstore\n        /* \"#utility.yul\":3578:3724   */\n      pop\n      pop\n      pop\n      jump\t// out\n        /* \"#utility.yul\":3730:4155   */\n    tag_328:\n        /* \"#utility.yul\":3808:3813   */\n      0x00\n        /* \"#utility.yul\":3833:3899   */\n      tag_443\n        /* \"#utility.yul\":3849:3898   */\n      tag_444\n        /* \"#utility.yul\":3891:3897   */\n      dup5\n        /* \"#utility.yul\":3849:3898   */\n      tag_326\n      jump\t// in\n    tag_444:\n        /* \"#utility.yul\":3833:3899   */\n      tag_325\n      jump\t// in\n    tag_443:\n        /* \"#utility.yul\":3824:3899   */\n      swap1\n      pop\n        /* \"#utility.yul\":3922:3928   */\n      dup3\n        /* \"#utility.yul\":3915:3920   */\n      dup2\n        /* \"#utility.yul\":3908:3929   */\n      mstore\n        /* \"#utility.yul\":3960:3964   */\n      0x20\n        /* \"#utility.yul\":3953:3958   */\n      dup2\n        /* \"#utility.yul\":3949:3965   */\n      add\n        /* \"#utility.yul\":3998:4001   */\n      dup5\n        /* \"#utility.yul\":3989:3995   */\n      dup5\n        /* \"#utility.yul\":3984:3987   */\n      dup5\n        /* \"#utility.yul\":3980:3996   */\n      add\n        /* \"#utility.yul\":3977:4002   */\n      gt\n        /* \"#utility.yul\":3974:4086   */\n      iszero\n      tag_445\n      jumpi\n        /* \"#utility.yul\":4005:4084   */\n      tag_446\n      tag_322\n      jump\t// in\n    tag_446:\n        /* \"#utility.yul\":3974:4086   */\n    tag_445:\n        /* \"#utility.yul\":4095:4149   */\n      tag_447\n        /* \"#utility.yul\":4142:4148   */\n      dup5\n        /* \"#utility.yul\":4137:4140   */\n      dup3\n        /* \"#utility.yul\":4132:4135   */\n      dup6\n        /* \"#utility.yul\":4095:4149   */\n      tag_327\n      jump\t// in\n    tag_447:\n        /* \"#utility.yul\":3814:4155   */\n      pop\n        /* \"#utility.yul\":3730:4155   */\n      swap4\n      swap3\n      pop\n      pop\n      pop\n      jump\t// out\n        /* \"#utility.yul\":4175:4515   */\n    tag_329:\n        /* \"#utility.yul\":4231:4236   */\n      0x00\n        /* \"#utility.yul\":4280:4283   */\n      dup3\n        /* \"#utility.yul\":4273:4277   */\n      0x1f\n        /* \"#utility.yul\":4265:4271   */\n      dup4\n        /* \"#utility.yul\":4261:4278   */\n      add\n        /* \"#utility.yul\":4257:4284   */\n      slt\n        /* \"#utility.yul\":4247:4369   */\n      tag_449\n      jumpi\n        /* \"#utility.yul\":4288:4367   */\n      tag_450\n      tag_321\n      jump\t// in\n    tag_450:\n        /* \"#utility.yul\":4247:4369   */\n    tag_449:\n        /* \"#utility.yul\":4405:4411   */\n      dup2\n        /* \"#utility.yul\":4392:4412   */\n      calldataload\n        /* \"#utility.yul\":4430:4509   */\n      tag_451\n        /* \"#utility.yul\":4505:4508   */\n      dup5\n        /* \"#utility.yul\":4497:4503   */\n      dup3\n        /* \"#utility.yul\":4490:4494   */\n      0x20\n        /* \"#utility.yul\":4482:4488   */\n      dup7\n        /* \"#utility.yul\":4478:4495   */\n      add\n        /* \"#utility.yul\":4430:4509   */\n      tag_328\n      jump\t// in\n    tag_451:\n        /* \"#utility.yul\":4421:4509   */\n      swap2\n      pop\n        /* \"#utility.yul\":4237:4515   */\n      pop\n        /* \"#utility.yul\":4175:4515   */\n      swap3\n      swap2\n      pop\n      pop\n      jump\t// out\n        /* \"#utility.yul\":4521:5175   */\n    tag_26:\n        /* \"#utility.yul\":4599:4605   */\n      0x00\n        /* \"#utility.yul\":4607:4613   */\n      dup1\n        /* \"#utility.yul\":4656:4658   */\n      0x40\n        /* \"#utility.yul\":4644:4653   */\n      dup4\n        /* \"#utility.yul\":4635:4642   */\n      dup6\n        /* \"#utility.yul\":4631:4654   */\n      sub\n        /* \"#utility.yul\":4627:4659   */\n      slt\n        /* \"#utility.yul\":4624:4743   */\n      iszero\n      tag_453\n      jumpi\n        /* \"#utility.yul\":4662:4741   */\n      tag_454\n      tag_310\n      jump\t// in\n    tag_454:\n        /* \"#utility.yul\":4624:4743   */\n    tag_453:\n        /* \"#utility.yul\":4782:4783   */\n      0x00\n        /* \"#utility.yul\":4807:4860   */\n      tag_455\n        /* \"#utility.yul\":4852:4859   */\n      dup6\n        /* \"#utility.yul\":4843:4849   */\n      dup3\n        /* \"#utility.yul\":4832:4841   */\n      dup7\n        /* \"#utility.yul\":4828:4850   */\n      add\n        /* \"#utility.yul\":4807:4860   */\n      tag_320\n      jump\t// in\n    tag_455:\n        /* \"#utility.yul\":4797:4860   */\n      swap3\n      pop\n        /* \"#utility.yul\":4753:4870   */\n      pop\n        /* \"#utility.yul\":4937:4939   */\n      0x20\n        /* \"#utility.yul\":4926:4935   */\n      dup4\n        /* \"#utility.yul\":4922:4940   */\n      add\n        /* \"#utility.yul\":4909:4941   */\n      calldataload\n        /* \"#utility.yul\":4968:4986   */\n      0xffffffffffffffff\n        /* \"#utility.yul\":4960:4966   */\n      dup2\n        /* \"#utility.yul\":4957:4987   */\n      gt\n        /* \"#utility.yul\":4954:5071   */\n      iszero\n      tag_456\n      jumpi\n        /* \"#utility.yul\":4990:5069   */\n      tag_457\n      tag_311\n      jump\t// in\n    tag_457:\n        /* \"#utility.yul\":4954:5071   */\n    tag_456:\n        /* \"#utility.yul\":5095:5158   */\n      tag_458\n        /* \"#utility.yul\":5150:5157   */\n      dup6\n        /* \"#utility.yul\":5141:5147   */\n      dup3\n        /* \"#utility.yul\":5130:5139   */\n      dup7\n        /* \"#utility.yul\":5126:5148   */\n      add\n        /* \"#utility.yul\":5095:5158   */\n      tag_329\n      jump\t// in\n    tag_458:\n        /* \"#utility.yul\":5085:5158   */\n      swap2\n      pop\n        /* \"#utility.yul\":4880:5168   */\n      pop\n        /* \"#utility.yul\":4521:5175   */\n      swap3\n      pop\n      swap3\n      swap1\n      pop\n      jump\t// out\n        /* \"#utility.yul\":5181:5299   */\n    tag_330:\n        /* \"#utility.yul\":5268:5292   */\n      tag_460\n        /* \"#utility.yul\":5286:5291   */\n      dup2\n        /* \"#utility.yul\":5268:5292   */\n      tag_312\n      jump\t// in\n    tag_460:\n        /* \"#utility.yul\":5263:5266   */\n      dup3\n        /* \"#utility.yul\":5256:5293   */\n      mstore\n        /* \"#utility.yul\":5181:5299   */\n      pop\n      pop\n      jump\t// out\n        /* \"#utility.yul\":5305:5527   */\n    tag_29:\n        /* \"#utility.yul\":5398:5402   */\n      0x00\n        /* \"#utility.yul\":5436:5438   */\n      0x20\n        /* \"#utility.yul\":5425:5434   */\n      dup3\n        /* \"#utility.yul\":5421:5439   */\n      add\n        /* \"#utility.yul\":5413:5439   */\n      swap1\n      pop\n        /* \"#utility.yul\":5449:5520   */\n      tag_462\n        /* \"#utility.yul\":5517:5518   */\n      0x00\n        /* \"#utility.yul\":5506:5515   */\n      dup4\n        /* \"#utility.yul\":5502:5519   */\n      add\n        /* \"#utility.yul\":5493:5499   */\n      dup5\n        /* \"#utility.yul\":5449:5520   */\n      tag_330\n      jump\t// in\n    tag_462:\n        /* \"#utility.yul\":5305:5527   */\n      swap3\n      swap2\n      pop\n      pop\n      jump\t// out\n        /* \"#utility.yul\":5533:7310   */\n    tag_32:\n        /* \"#utility.yul\":5677:5683   */\n      0x00\n        /* \"#utility.yul\":5685:5691   */\n      dup1\n        /* \"#utility.yul\":5693:5699   */\n      0x00\n        /* \"#utility.yul\":5701:5707   */\n      dup1\n        /* \"#utility.yul\":5709:5715   */\n      0x00\n        /* \"#utility.yul\":5717:5723   */\n      dup1\n        /* \"#utility.yul\":5766:5769   */\n      0xc0\n        /* \"#utility.yul\":5754:5763   */\n      dup8\n        /* \"#utility.yul\":5745:5752   */\n      dup10\n        /* \"#utility.yul\":5741:5764   */\n      sub\n        /* \"#utility.yul\":5737:5770   */\n      slt\n        /* \"#utility.yul\":5734:5854   */\n      iszero\n      tag_464\n      jumpi\n        /* \"#utility.yul\":5773:5852   */\n      tag_465\n      tag_310\n      jump\t// in\n    tag_465:\n        /* \"#utility.yul\":5734:5854   */\n    tag_464:\n        /* \"#utility.yul\":5921:5922   */\n      0x00\n        /* \"#utility.yul\":5910:5919   */\n      dup8\n        /* \"#utility.yul\":5906:5923   */\n      add\n        /* \"#utility.yul\":5893:5924   */\n      calldataload\n        /* \"#utility.yul\":5951:5969   */\n      0xffffffffffffffff\n        /* \"#utility.yul\":5943:5949   */\n      dup2\n        /* \"#utility.yul\":5940:5970   */\n      gt\n        /* \"#utility.yul\":5937:6054   */\n      iszero\n      tag_466\n      jumpi\n        /* \"#utility.yul\":5973:6052   */\n      tag_467\n      tag_311\n      jump\t// in\n    tag_467:\n        /* \"#utility.yul\":5937:6054   */\n    tag_466:\n        /* \"#utility.yul\":6078:6141   */\n      tag_468\n        /* \"#utility.yul\":6133:6140   */\n      dup10\n        /* \"#utility.yul\":6124:6130   */\n      dup3\n        /* \"#utility.yul\":6113:6122   */\n      dup11\n        /* \"#utility.yul\":6109:6131   */\n      add\n        /* \"#utility.yul\":6078:6141   */\n      tag_329\n      jump\t// in\n    tag_468:\n        /* \"#utility.yul\":6068:6141   */\n      swap7\n      pop\n        /* \"#utility.yul\":5864:6151   */\n      pop\n        /* \"#utility.yul\":6218:6220   */\n      0x20\n        /* \"#utility.yul\":6207:6216   */\n      dup8\n        /* \"#utility.yul\":6203:6221   */\n      add\n        /* \"#utility.yul\":6190:6222   */\n      calldataload\n        /* \"#utility.yul\":6249:6267   */\n      0xffffffffffffffff\n        /* \"#utility.yul\":6241:6247   */\n      dup2\n        /* \"#utility.yul\":6238:6268   */\n      gt\n        /* \"#utility.yul\":6235:6352   */\n      iszero\n      tag_469\n      jumpi\n        /* \"#utility.yul\":6271:6350   */\n      tag_470\n      tag_311\n      jump\t// in\n    tag_470:\n        /* \"#utility.yul\":6235:6352   */\n    tag_469:\n        /* \"#utility.yul\":6376:6439   */\n      tag_471\n        /* \"#utility.yul\":6431:6438   */\n      dup10\n        /* \"#utility.yul\":6422:6428   */\n      dup3\n        /* \"#utility.yul\":6411:6420   */\n      dup11\n        /* \"#utility.yul\":6407:6429   */\n      add\n        /* \"#utility.yul\":6376:6439   */\n      tag_329\n      jump\t// in\n    tag_471:\n        /* \"#utility.yul\":6366:6439   */\n      swap6\n      pop\n        /* \"#utility.yul\":6161:6449   */\n      pop\n        /* \"#utility.yul\":6516:6518   */\n      0x40\n        /* \"#utility.yul\":6505:6514   */\n      dup8\n        /* \"#utility.yul\":6501:6519   */\n      add\n        /* \"#utility.yul\":6488:6520   */\n      calldataload\n        /* \"#utility.yul\":6547:6565   */\n      0xffffffffffffffff\n        /* \"#utility.yul\":6539:6545   */\n      dup2\n        /* \"#utility.yul\":6536:6566   */\n      gt\n        /* \"#utility.yul\":6533:6650   */\n      iszero\n      tag_472\n      jumpi\n        /* \"#utility.yul\":6569:6648   */\n      tag_473\n      tag_311\n      jump\t// in\n    tag_473:\n        /* \"#utility.yul\":6533:6650   */\n    tag_472:\n        /* \"#utility.yul\":6674:6737   */\n      tag_474\n        /* \"#utility.yul\":6729:6736   */\n      dup10\n        /* \"#utility.yul\":6720:6726   */\n      dup3\n        /* \"#utility.yul\":6709:6718   */\n      dup11\n        /* \"#utility.yul\":6705:6727   */\n      add\n        /* \"#utility.yul\":6674:6737   */\n      tag_329\n      jump\t// in\n    tag_474:\n        /* \"#utility.yul\":6664:6737   */\n      swap5\n      pop\n        /* \"#utility.yul\":6459:6747   */\n      pop\n        /* \"#utility.yul\":6786:6788   */\n      0x60\n        /* \"#utility.yul\":6812:6865   */\n      tag_475\n        /* \"#utility.yul\":6857:6864   */\n      dup10\n        /* \"#utility.yul\":6848:6854   */\n      dup3\n        /* \"#utility.yul\":6837:6846   */\n      dup11\n        /* \"#utility.yul\":6833:6855   */\n      add\n        /* \"#utility.yul\":6812:6865   */\n      tag_320\n      jump\t// in\n    tag_475:\n        /* \"#utility.yul\":6802:6865   */\n      swap4\n      pop\n        /* \"#utility.yul\":6757:6875   */\n      pop\n        /* \"#utility.yul\":6942:6945   */\n      0x80\n        /* \"#utility.yul\":6931:6940   */\n      dup8\n        /* \"#utility.yul\":6927:6946   */\n      add\n        /* \"#utility.yul\":6914:6947   */\n      calldataload\n        /* \"#utility.yul\":6974:6992   */\n      0xffffffffffffffff\n        /* \"#utility.yul\":6966:6972   */\n      dup2\n        /* \"#utility.yul\":6963:6993   */\n      gt\n        /* \"#utility.yul\":6960:7077   */\n      iszero\n      tag_476\n      jumpi\n        /* \"#utility.yul\":6996:7075   */\n      tag_477\n      tag_311\n      jump\t// in\n    tag_477:\n        /* \"#utility.yul\":6960:7077   */\n    tag_476:\n        /* \"#utility.yul\":7101:7164   */\n      tag_478\n        /* \"#utility.yul\":7156:7163   */\n      dup10\n        /* \"#utility.yul\":7147:7153   */\n      dup3\n        /* \"#utility.yul\":7136:7145   */\n      dup11\n        /* \"#utility.yul\":7132:7154   */\n      add\n        /* \"#utility.yul\":7101:7164   */\n      tag_329\n      jump\t// in\n    tag_478:\n        /* \"#utility.yul\":7091:7164   */\n      swap3\n      pop\n        /* \"#utility.yul\":6885:7174   */\n      pop\n        /* \"#utility.yul\":7213:7216   */\n      0xa0\n        /* \"#utility.yul\":7240:7293   */\n      tag_479\n        /* \"#utility.yul\":7285:7292   */\n      dup10\n        /* \"#utility.yul\":7276:7282   */\n      dup3\n        /* \"#utility.yul\":7265:7274   */\n      dup11\n        /* \"#utility.yul\":7261:7283   */\n      add\n        /* \"#utility.yul\":7240:7293   */\n      tag_314\n      jump\t// in\n    tag_479:\n        /* \"#utility.yul\":7230:7293   */\n      swap2\n      pop\n        /* \"#utility.yul\":7184:7303   */\n      pop\n        /* \"#utility.yul\":5533:7310   */\n      swap3\n      swap6\n      pop\n      swap3\n      swap6\n      pop\n      swap3\n      swap6\n      jump\t// out\n        /* \"#utility.yul\":7316:7402   */\n    tag_331:\n        /* \"#utility.yul\":7351:7358   */\n      0x00\n        /* \"#utility.yul\":7391:7395   */\n      0xff\n        /* \"#utility.yul\":7384:7389   */\n      dup3\n        /* \"#utility.yul\":7380:7396   */\n      and\n        /* \"#utility.yul\":7369:7396   */\n      swap1\n      pop\n        /* \"#utility.yul\":7316:7402   */\n      swap2\n      swap1\n      pop\n      jump\t// out\n        /* \"#utility.yul\":7408:7526   */\n    tag_332:\n        /* \"#utility.yul\":7479:7501   */\n      tag_482\n        /* \"#utility.yul\":7495:7500   */\n      dup2\n        /* \"#utility.yul\":7479:7501   */\n      tag_331\n      jump\t// in\n    tag_482:\n        /* \"#utility.yul\":7472:7477   */\n      dup2\n        /* \"#utility.yul\":7469:7502   */\n      eq\n        /* \"#utility.yul\":7459:7520   */\n      tag_483\n      jumpi\n        /* \"#utility.yul\":7516:7517   */\n      0x00\n        /* \"#utility.yul\":7513:7514   */\n      dup1\n        /* \"#utility.yul\":7506:7518   */\n      revert\n        /* \"#utility.yul\":7459:7520   */\n    tag_483:\n        /* \"#utility.yul\":7408:7526   */\n      pop\n      jump\t// out\n        /* \"#utility.yul\":7532:7667   */\n    tag_333:\n        /* \"#utility.yul\":7576:7581   */\n      0x00\n        /* \"#utility.yul\":7614:7620   */\n      dup2\n        /* \"#utility.yul\":7601:7621   */\n      calldataload\n        /* \"#utility.yul\":7592:7621   */\n      swap1\n      pop\n        /* \"#utility.yul\":7630:7661   */\n      tag_485\n        /* \"#utility.yul\":7655:7660   */\n      dup2\n        /* \"#utility.yul\":7630:7661   */\n      tag_332\n      jump\t// in\n    tag_485:\n        /* \"#utility.yul\":7532:7667   */\n      swap3\n      swap2\n      pop\n      pop\n      jump\t// out\n        /* \"#utility.yul\":7673:10098   */\n    tag_36:\n        /* \"#utility.yul\":7853:7859   */\n      0x00\n        /* \"#utility.yul\":7861:7867   */\n      dup1\n        /* \"#utility.yul\":7869:7875   */\n      0x00\n        /* \"#utility.yul\":7877:7883   */\n      dup1\n        /* \"#utility.yul\":7885:7891   */\n      0x00\n        /* \"#utility.yul\":7893:7899   */\n      dup1\n        /* \"#utility.yul\":7901:7907   */\n      0x00\n        /* \"#utility.yul\":7909:7915   */\n      dup1\n        /* \"#utility.yul\":7958:7961   */\n      0x0100\n        /* \"#utility.yul\":7946:7955   */\n      dup10\n        /* \"#utility.yul\":7937:7944   */\n      dup12\n        /* \"#utility.yul\":7933:7956   */\n      sub\n        /* \"#utility.yul\":7929:7962   */\n      slt\n        /* \"#utility.yul\":7926:8046   */\n      iszero\n      tag_487\n      jumpi\n        /* \"#utility.yul\":7965:8044   */\n      tag_488\n      tag_310\n      jump\t// in\n    tag_488:\n        /* \"#utility.yul\":7926:8046   */\n    tag_487:\n        /* \"#utility.yul\":8113:8114   */\n      0x00\n        /* \"#utility.yul\":8102:8111   */\n      dup10\n        /* \"#utility.yul\":8098:8115   */\n      add\n        /* \"#utility.yul\":8085:8116   */\n      calldataload\n        /* \"#utility.yul\":8143:8161   */\n      0xffffffffffffffff\n        /* \"#utility.yul\":8135:8141   */\n      dup2\n        /* \"#utility.yul\":8132:8162   */\n      gt\n        /* \"#utility.yul\":8129:8246   */\n      iszero\n      tag_489\n      jumpi\n        /* \"#utility.yul\":8165:8244   */\n      tag_490\n      tag_311\n      jump\t// in\n    tag_490:\n        /* \"#utility.yul\":8129:8246   */\n    tag_489:\n        /* \"#utility.yul\":8270:8333   */\n      tag_491\n        /* \"#utility.yul\":8325:8332   */\n      dup12\n        /* \"#utility.yul\":8316:8322   */\n      dup3\n        /* \"#utility.yul\":8305:8314   */\n      dup13\n        /* \"#utility.yul\":8301:8323   */\n      add\n        /* \"#utility.yul\":8270:8333   */\n      tag_329\n      jump\t// in\n    tag_491:\n        /* \"#utility.yul\":8260:8333   */\n      swap9\n      pop\n        /* \"#utility.yul\":8056:8343   */\n      pop\n        /* \"#utility.yul\":8410:8412   */\n      0x20\n        /* \"#utility.yul\":8399:8408   */\n      dup10\n        /* \"#utility.yul\":8395:8413   */\n      add\n        /* \"#utility.yul\":8382:8414   */\n      calldataload\n        /* \"#utility.yul\":8441:8459   */\n      0xffffffffffffffff\n        /* \"#utility.yul\":8433:8439   */\n      dup2\n        /* \"#utility.yul\":8430:8460   */\n      gt\n        /* \"#utility.yul\":8427:8544   */\n      iszero\n      tag_492\n      jumpi\n        /* \"#utility.yul\":8463:8542   */\n      tag_493\n      tag_311\n      jump\t// in\n    tag_493:\n        /* \"#utility.yul\":8427:8544   */\n    tag_492:\n        /* \"#utility.yul\":8568:8631   */\n      tag_494\n        /* \"#utility.yul\":8623:8630   */\n      dup12\n        /* \"#utility.yul\":8614:8620   */\n      dup3\n        /* \"#utility.yul\":8603:8612   */\n      dup13\n        /* \"#utility.yul\":8599:8621   */\n      add\n        /* \"#utility.yul\":8568:8631   */\n      tag_329\n      jump\t// in\n    tag_494:\n        /* \"#utility.yul\":8558:8631   */\n      swap8\n      pop\n        /* \"#utility.yul\":8353:8641   */\n      pop\n        /* \"#utility.yul\":8708:8710   */\n      0x40\n        /* \"#utility.yul\":8697:8706   */\n      dup10\n        /* \"#utility.yul\":8693:8711   */\n      add\n        /* \"#utility.yul\":8680:8712   */\n      calldataload\n        /* \"#utility.yul\":8739:8757   */\n      0xffffffffffffffff\n        /* \"#utility.yul\":8731:8737   */\n      dup2\n        /* \"#utility.yul\":8728:8758   */\n      gt\n        /* \"#utility.yul\":8725:8842   */\n      iszero\n      tag_495\n      jumpi\n        /* \"#utility.yul\":8761:8840   */\n      tag_496\n      tag_311\n      jump\t// in\n    tag_496:\n        /* \"#utility.yul\":8725:8842   */\n    tag_495:\n        /* \"#utility.yul\":8866:8929   */\n      tag_497\n        /* \"#utility.yul\":8921:8928   */\n      dup12\n        /* \"#utility.yul\":8912:8918   */\n      dup3\n        /* \"#utility.yul\":8901:8910   */\n      dup13\n        /* \"#utility.yul\":8897:8919   */\n      add\n        /* \"#utility.yul\":8866:8929   */\n      tag_329\n      jump\t// in\n    tag_497:\n        /* \"#utility.yul\":8856:8929   */\n      swap7\n      pop\n        /* \"#utility.yul\":8651:8939   */\n      pop\n        /* \"#utility.yul\":9006:9008   */\n      0x60\n        /* \"#utility.yul\":8995:9004   */\n      dup10\n        /* \"#utility.yul\":8991:9009   */\n      add\n        /* \"#utility.yul\":8978:9010   */\n      calldataload\n        /* \"#utility.yul\":9037:9055   */\n      0xffffffffffffffff\n        /* \"#utility.yul\":9029:9035   */\n      dup2\n        /* \"#utility.yul\":9026:9056   */\n      gt\n        /* \"#utility.yul\":9023:9140   */\n      iszero\n      tag_498\n      jumpi\n        /* \"#utility.yul\":9059:9138   */\n      tag_499\n      tag_311\n      jump\t// in\n    tag_499:\n        /* \"#utility.yul\":9023:9140   */\n    tag_498:\n        /* \"#utility.yul\":9164:9227   */\n      tag_500\n        /* \"#utility.yul\":9219:9226   */\n      dup12\n        /* \"#utility.yul\":9210:9216   */\n      dup3\n        /* \"#utility.yul\":9199:9208   */\n      dup13\n        /* \"#utility.yul\":9195:9217   */\n      add\n        /* \"#utility.yul\":9164:9227   */\n      tag_329\n      jump\t// in\n    tag_500:\n        /* \"#utility.yul\":9154:9227   */\n      swap6\n      pop\n        /* \"#utility.yul\":8949:9237   */\n      pop\n        /* \"#utility.yul\":9276:9279   */\n      0x80\n        /* \"#utility.yul\":9303:9354   */\n      tag_501\n        /* \"#utility.yul\":9346:9353   */\n      dup12\n        /* \"#utility.yul\":9337:9343   */\n      dup3\n        /* \"#utility.yul\":9326:9335   */\n      dup13\n        /* \"#utility.yul\":9322:9344   */\n      add\n        /* \"#utility.yul\":9303:9354   */\n      tag_333\n      jump\t// in\n    tag_501:\n        /* \"#utility.yul\":9293:9354   */\n      swap5\n      pop\n        /* \"#utility.yul\":9247:9364   */\n      pop\n        /* \"#utility.yul\":9431:9434   */\n      0xa0\n        /* \"#utility.yul\":9420:9429   */\n      dup10\n        /* \"#utility.yul\":9416:9435   */\n      add\n        /* \"#utility.yul\":9403:9436   */\n      calldataload\n        /* \"#utility.yul\":9463:9481   */\n      0xffffffffffffffff\n        /* \"#utility.yul\":9455:9461   */\n      dup2\n        /* \"#utility.yul\":9452:9482   */\n      gt\n        /* \"#utility.yul\":9449:9566   */\n      iszero\n      tag_502\n      jumpi\n        /* \"#utility.yul\":9485:9564   */\n      tag_503\n      tag_311\n      jump\t// in\n    tag_503:\n        /* \"#utility.yul\":9449:9566   */\n    tag_502:\n        /* \"#utility.yul\":9590:9653   */\n      tag_504\n        /* \"#utility.yul\":9645:9652   */\n      dup12\n        /* \"#utility.yul\":9636:9642   */\n      dup3\n        /* \"#utility.yul\":9625:9634   */\n      dup13\n        /* \"#utility.yul\":9621:9643   */\n      add\n        /* \"#utility.yul\":9590:9653   */\n      tag_329\n      jump\t// in\n    tag_504:\n        /* \"#utility.yul\":9580:9653   */\n      swap4\n      pop\n        /* \"#utility.yul\":9374:9663   */\n      pop\n        /* \"#utility.yul\":9702:9705   */\n      0xc0\n        /* \"#utility.yul\":9729:9782   */\n      tag_505\n        /* \"#utility.yul\":9774:9781   */\n      dup12\n        /* \"#utility.yul\":9765:9771   */\n      dup3\n        /* \"#utility.yul\":9754:9763   */\n      dup13\n        /* \"#utility.yul\":9750:9772   */\n      add\n        /* \"#utility.yul\":9729:9782   */\n      tag_320\n      jump\t// in\n    tag_505:\n        /* \"#utility.yul\":9719:9782   */\n      swap3\n      pop\n        /* \"#utility.yul\":9673:9792   */\n      pop\n        /* \"#utility.yul\":9859:9862   */\n      0xe0\n        /* \"#utility.yul\":9848:9857   */\n      dup10\n        /* \"#utility.yul\":9844:9863   */\n      add\n        /* \"#utility.yul\":9831:9864   */\n      calldataload\n        /* \"#utility.yul\":9891:9909   */\n      0xffffffffffffffff\n        /* \"#utility.yul\":9883:9889   */\n      dup2\n        /* \"#utility.yul\":9880:9910   */\n      gt\n        /* \"#utility.yul\":9877:9994   */\n      iszero\n      tag_506\n      jumpi\n        /* \"#utility.yul\":9913:9992   */\n      tag_507\n      tag_311\n      jump\t// in\n    tag_507:\n        /* \"#utility.yul\":9877:9994   */\n    tag_506:\n        /* \"#utility.yul\":10018:10081   */\n      tag_508\n        /* \"#utility.yul\":10073:10080   */\n      dup12\n        /* \"#utility.yul\":10064:10070   */\n      dup3\n        /* \"#utility.yul\":10053:10062   */\n      dup13\n        /* \"#utility.yul\":10049:10071   */\n      add\n        /* \"#utility.yul\":10018:10081   */\n      tag_329\n      jump\t// in\n    tag_508:\n        /* \"#utility.yul\":10008:10081   */\n      swap2\n      pop\n        /* \"#utility.yul\":9802:10091   */\n      pop\n        /* \"#utility.yul\":7673:10098   */\n      swap3\n      swap6\n      swap9\n      pop\n      swap3\n      swap6\n      swap9\n      swap1\n      swap4\n      swap7\n      pop\n      jump\t// out\n        /* \"#utility.yul\":10104:10222   */\n    tag_334:\n        /* \"#utility.yul\":10191:10215   */\n      tag_510\n        /* \"#utility.yul\":10209:10214   */\n      dup2\n        /* \"#utility.yul\":10191:10215   */\n      tag_318\n      jump\t// in\n    tag_510:\n        /* \"#utility.yul\":10186:10189   */\n      dup3\n        /* \"#utility.yul\":10179:10216   */\n      mstore\n        /* \"#utility.yul\":10104:10222   */\n      pop\n      pop\n      jump\t// out\n        /* \"#utility.yul\":10228:10450   */\n    tag_39:\n        /* \"#utility.yul\":10321:10325   */\n      0x00\n        /* \"#utility.yul\":10359:10361   */\n      0x20\n        /* \"#utility.yul\":10348:10357   */\n      dup3\n        /* \"#utility.yul\":10344:10362   */\n      add\n        /* \"#utility.yul\":10336:10362   */\n      swap1\n      pop\n        /* \"#utility.yul\":10372:10443   */\n      tag_512\n        /* \"#utility.yul\":10440:10441   */\n      0x00\n        /* \"#utility.yul\":10429:10438   */\n      dup4\n        /* \"#utility.yul\":10425:10442   */\n      add\n        /* \"#utility.yul\":10416:10422   */\n      dup5\n        /* \"#utility.yul\":10372:10443   */\n      tag_334\n      jump\t// in\n    tag_512:\n        /* \"#utility.yul\":10228:10450   */\n      swap3\n      swap2\n      pop\n      pop\n      jump\t// out\n        /* \"#utility.yul\":10456:10555   */\n    tag_335:\n        /* \"#utility.yul\":10508:10514   */\n      0x00\n        /* \"#utility.yul\":10542:10547   */\n      dup2\n        /* \"#utility.yul\":10536:10548   */\n      mload\n        /* \"#utility.yul\":10526:10548   */\n      swap1\n      pop\n        /* \"#utility.yul\":10456:10555   */\n      swap2\n      swap1\n      pop\n      jump\t// out\n        /* \"#utility.yul\":10561:10720   */\n    tag_336:\n        /* \"#utility.yul\":10635:10646   */\n      0x00\n        /* \"#utility.yul\":10669:10675   */\n      dup3\n        /* \"#utility.yul\":10664:10667   */\n      dup3\n        /* \"#utility.yul\":10657:10676   */\n      mstore\n        /* \"#utility.yul\":10709:10713   */\n      0x20\n        /* \"#utility.yul\":10704:10707   */\n      dup3\n        /* \"#utility.yul\":10700:10714   */\n      add\n        /* \"#utility.yul\":10685:10714   */\n      swap1\n      pop\n        /* \"#utility.yul\":10561:10720   */\n      swap3\n      swap2\n      pop\n      pop\n      jump\t// out\n        /* \"#utility.yul\":10726:10972   */\n    tag_337:\n        /* \"#utility.yul\":10807:10808   */\n      0x00\n        /* \"#utility.yul\":10817:10930   */\n    tag_516:\n        /* \"#utility.yul\":10831:10837   */\n      dup4\n        /* \"#utility.yul\":10828:10829   */\n      dup2\n        /* \"#utility.yul\":10825:10838   */\n      lt\n        /* \"#utility.yul\":10817:10930   */\n      iszero\n      tag_518\n      jumpi\n        /* \"#utility.yul\":10916:10917   */\n      dup1\n        /* \"#utility.yul\":10911:10914   */\n      dup3\n        /* \"#utility.yul\":10907:10918   */\n      add\n        /* \"#utility.yul\":10901:10919   */\n      mload\n        /* \"#utility.yul\":10897:10898   */\n      dup2\n        /* \"#utility.yul\":10892:10895   */\n      dup5\n        /* \"#utility.yul\":10888:10899   */\n      add\n        /* \"#utility.yul\":10881:10920   */\n      mstore\n        /* \"#utility.yul\":10853:10855   */\n      0x20\n        /* \"#utility.yul\":10850:10851   */\n      dup2\n        /* \"#utility.yul\":10846:10856   */\n      add\n        /* \"#utility.yul\":10841:10856   */\n      swap1\n      pop\n        /* \"#utility.yul\":10817:10930   */\n      jump(tag_516)\n    tag_518:\n        /* \"#utility.yul\":10964:10965   */\n      0x00\n        /* \"#utility.yul\":10955:10961   */\n      dup5\n        /* \"#utility.yul\":10950:10953   */\n      dup5\n        /* \"#utility.yul\":10946:10962   */\n      add\n        /* \"#utility.yul\":10939:10966   */\n      mstore\n        /* \"#utility.yul\":10788:10972   */\n      pop\n        /* \"#utility.yul\":10726:10972   */\n      pop\n      pop\n      pop\n      jump\t// out\n        /* \"#utility.yul\":10978:11335   */\n    tag_338:\n        /* \"#utility.yul\":11056:11059   */\n      0x00\n        /* \"#utility.yul\":11084:11123   */\n      tag_520\n        /* \"#utility.yul\":11117:11122   */\n      dup3\n        /* \"#utility.yul\":11084:11123   */\n      tag_335\n      jump\t// in\n    tag_520:\n        /* \"#utility.yul\":11139:11200   */\n      tag_521\n        /* \"#utility.yul\":11193:11199   */\n      dup2\n        /* \"#utility.yul\":11188:11191   */\n      dup6\n        /* \"#utility.yul\":11139:11200   */\n      tag_336\n      jump\t// in\n    tag_521:\n        /* \"#utility.yul\":11132:11200   */\n      swap4\n      pop\n        /* \"#utility.yul\":11209:11274   */\n      tag_522\n        /* \"#utility.yul\":11267:11273   */\n      dup2\n        /* \"#utility.yul\":11262:11265   */\n      dup6\n        /* \"#utility.yul\":11255:11259   */\n      0x20\n        /* \"#utility.yul\":11248:11253   */\n      dup7\n        /* \"#utility.yul\":11244:11260   */\n      add\n        /* \"#utility.yul\":11209:11274   */\n      tag_337\n      jump\t// in\n    tag_522:\n        /* \"#utility.yul\":11299:11328   */\n      tag_523\n        /* \"#utility.yul\":11321:11327   */\n      dup2\n        /* \"#utility.yul\":11299:11328   */\n      tag_323\n      jump\t// in\n    tag_523:\n        /* \"#utility.yul\":11294:11297   */\n      dup5\n        /* \"#utility.yul\":11290:11329   */\n      add\n        /* \"#utility.yul\":11283:11329   */\n      swap2\n      pop\n        /* \"#utility.yul\":11060:11335   */\n      pop\n        /* \"#utility.yul\":10978:11335   */\n      swap3\n      swap2\n      pop\n      pop\n      jump\t// out\n        /* \"#utility.yul\":11341:11443   */\n    tag_339:\n        /* \"#utility.yul\":11414:11436   */\n      tag_525\n        /* \"#utility.yul\":11430:11435   */\n      dup2\n        /* \"#utility.yul\":11414:11436   */\n      tag_331\n      jump\t// in\n    tag_525:\n        /* \"#utility.yul\":11409:11412   */\n      dup3\n        /* \"#utility.yul\":11402:11437   */\n      mstore\n        /* \"#utility.yul\":11341:11443   */\n      pop\n      pop\n      jump\t// out\n        /* \"#utility.yul\":11449:11557   */\n    tag_340:\n        /* \"#utility.yul\":11526:11550   */\n      tag_527\n        /* \"#utility.yul\":11544:11549   */\n      dup2\n        /* \"#utility.yul\":11526:11550   */\n      tag_318\n      jump\t// in\n    tag_527:\n        /* \"#utility.yul\":11521:11524   */\n      dup3\n        /* \"#utility.yul\":11514:11551   */\n      mstore\n        /* \"#utility.yul\":11449:11557   */\n      pop\n      pop\n      jump\t// out\n        /* \"#utility.yul\":11563:11671   */\n    tag_341:\n        /* \"#utility.yul\":11640:11664   */\n      tag_529\n        /* \"#utility.yul\":11658:11663   */\n      dup2\n        /* \"#utility.yul\":11640:11664   */\n      tag_312\n      jump\t// in\n    tag_529:\n        /* \"#utility.yul\":11635:11638   */\n      dup3\n        /* \"#utility.yul\":11628:11665   */\n      mstore\n        /* \"#utility.yul\":11563:11671   */\n      pop\n      pop\n      jump\t// out\n        /* \"#utility.yul\":11725:14117   */\n    tag_342:\n        /* \"#utility.yul\":11842:11845   */\n      0x00\n        /* \"#utility.yul\":11878:11884   */\n      0x0140\n        /* \"#utility.yul\":11873:11876   */\n      dup4\n        /* \"#utility.yul\":11869:11885   */\n      add\n        /* \"#utility.yul\":11971:11975   */\n      0x00\n        /* \"#utility.yul\":11964:11969   */\n      dup4\n        /* \"#utility.yul\":11960:11976   */\n      add\n        /* \"#utility.yul\":11954:11977   */\n      mload\n        /* \"#utility.yul\":12024:12027   */\n      dup5\n        /* \"#utility.yul\":12018:12022   */\n      dup3\n        /* \"#utility.yul\":12014:12028   */\n      sub\n        /* \"#utility.yul\":12007:12011   */\n      0x00\n        /* \"#utility.yul\":12002:12005   */\n      dup7\n        /* \"#utility.yul\":11998:12012   */\n      add\n        /* \"#utility.yul\":11991:12029   */\n      mstore\n        /* \"#utility.yul\":12050:12123   */\n      tag_531\n        /* \"#utility.yul\":12118:12122   */\n      dup3\n        /* \"#utility.yul\":12104:12116   */\n      dup3\n        /* \"#utility.yul\":12050:12123   */\n      tag_338\n      jump\t// in\n    tag_531:\n        /* \"#utility.yul\":12042:12123   */\n      swap2\n      pop\n        /* \"#utility.yul\":11895:12134   */\n      pop\n        /* \"#utility.yul\":12215:12219   */\n      0x20\n        /* \"#utility.yul\":12208:12213   */\n      dup4\n        /* \"#utility.yul\":12204:12220   */\n      add\n        /* \"#utility.yul\":12198:12221   */\n      mload\n        /* \"#utility.yul\":12268:12271   */\n      dup5\n        /* \"#utility.yul\":12262:12266   */\n      dup3\n        /* \"#utility.yul\":12258:12272   */\n      sub\n        /* \"#utility.yul\":12251:12255   */\n      0x20\n        /* \"#utility.yul\":12246:12249   */\n      dup7\n        /* \"#utility.yul\":12242:12256   */\n      add\n        /* \"#utility.yul\":12235:12273   */\n      mstore\n        /* \"#utility.yul\":12294:12367   */\n      tag_532\n        /* \"#utility.yul\":12362:12366   */\n      dup3\n        /* \"#utility.yul\":12348:12360   */\n      dup3\n        /* \"#utility.yul\":12294:12367   */\n      tag_338\n      jump\t// in\n    tag_532:\n        /* \"#utility.yul\":12286:12367   */\n      swap2\n      pop\n        /* \"#utility.yul\":12144:12378   */\n      pop\n        /* \"#utility.yul\":12467:12471   */\n      0x40\n        /* \"#utility.yul\":12460:12465   */\n      dup4\n        /* \"#utility.yul\":12456:12472   */\n      add\n        /* \"#utility.yul\":12450:12473   */\n      mload\n        /* \"#utility.yul\":12520:12523   */\n      dup5\n        /* \"#utility.yul\":12514:12518   */\n      dup3\n        /* \"#utility.yul\":12510:12524   */\n      sub\n        /* \"#utility.yul\":12503:12507   */\n      0x40\n        /* \"#utility.yul\":12498:12501   */\n      dup7\n        /* \"#utility.yul\":12494:12508   */\n      add\n        /* \"#utility.yul\":12487:12525   */\n      mstore\n        /* \"#utility.yul\":12546:12619   */\n      tag_533\n        /* \"#utility.yul\":12614:12618   */\n      dup3\n        /* \"#utility.yul\":12600:12612   */\n      dup3\n        /* \"#utility.yul\":12546:12619   */\n      tag_338\n      jump\t// in\n    tag_533:\n        /* \"#utility.yul\":12538:12619   */\n      swap2\n      pop\n        /* \"#utility.yul\":12388:12630   */\n      pop\n        /* \"#utility.yul\":12712:12716   */\n      0x60\n        /* \"#utility.yul\":12705:12710   */\n      dup4\n        /* \"#utility.yul\":12701:12717   */\n      add\n        /* \"#utility.yul\":12695:12718   */\n      mload\n        /* \"#utility.yul\":12765:12768   */\n      dup5\n        /* \"#utility.yul\":12759:12763   */\n      dup3\n        /* \"#utility.yul\":12755:12769   */\n      sub\n        /* \"#utility.yul\":12748:12752   */\n      0x60\n        /* \"#utility.yul\":12743:12746   */\n      dup7\n        /* \"#utility.yul\":12739:12753   */\n      add\n        /* \"#utility.yul\":12732:12770   */\n      mstore\n        /* \"#utility.yul\":12791:12864   */\n      tag_534\n        /* \"#utility.yul\":12859:12863   */\n      dup3\n        /* \"#utility.yul\":12845:12857   */\n      dup3\n        /* \"#utility.yul\":12791:12864   */\n      tag_338\n      jump\t// in\n    tag_534:\n        /* \"#utility.yul\":12783:12864   */\n      swap2\n      pop\n        /* \"#utility.yul\":12640:12875   */\n      pop\n        /* \"#utility.yul\":12958:12962   */\n      0x80\n        /* \"#utility.yul\":12951:12956   */\n      dup4\n        /* \"#utility.yul\":12947:12963   */\n      add\n        /* \"#utility.yul\":12941:12964   */\n      mload\n        /* \"#utility.yul\":13011:13014   */\n      dup5\n        /* \"#utility.yul\":13005:13009   */\n      dup3\n        /* \"#utility.yul\":13001:13015   */\n      sub\n        /* \"#utility.yul\":12994:12998   */\n      0x80\n        /* \"#utility.yul\":12989:12992   */\n      dup7\n        /* \"#utility.yul\":12985:12999   */\n      add\n        /* \"#utility.yul\":12978:13016   */\n      mstore\n        /* \"#utility.yul\":13037:13110   */\n      tag_535\n        /* \"#utility.yul\":13105:13109   */\n      dup3\n        /* \"#utility.yul\":13091:13103   */\n      dup3\n        /* \"#utility.yul\":13037:13110   */\n      tag_338\n      jump\t// in\n    tag_535:\n        /* \"#utility.yul\":13029:13110   */\n      swap2\n      pop\n        /* \"#utility.yul\":12885:13121   */\n      pop\n        /* \"#utility.yul\":13210:13214   */\n      0xa0\n        /* \"#utility.yul\":13203:13208   */\n      dup4\n        /* \"#utility.yul\":13199:13215   */\n      add\n        /* \"#utility.yul\":13193:13216   */\n      mload\n        /* \"#utility.yul\":13229:13288   */\n      tag_536\n        /* \"#utility.yul\":13282:13286   */\n      0xa0\n        /* \"#utility.yul\":13277:13280   */\n      dup7\n        /* \"#utility.yul\":13273:13287   */\n      add\n        /* \"#utility.yul\":13259:13271   */\n      dup3\n        /* \"#utility.yul\":13229:13288   */\n      tag_339\n      jump\t// in\n    tag_536:\n        /* \"#utility.yul\":13131:13298   */\n      pop\n        /* \"#utility.yul\":13387:13391   */\n      0xc0\n        /* \"#utility.yul\":13380:13385   */\n      dup4\n        /* \"#utility.yul\":13376:13392   */\n      add\n        /* \"#utility.yul\":13370:13393   */\n      mload\n        /* \"#utility.yul\":13440:13443   */\n      dup5\n        /* \"#utility.yul\":13434:13438   */\n      dup3\n        /* \"#utility.yul\":13430:13444   */\n      sub\n        /* \"#utility.yul\":13423:13427   */\n      0xc0\n        /* \"#utility.yul\":13418:13421   */\n      dup7\n        /* \"#utility.yul\":13414:13428   */\n      add\n        /* \"#utility.yul\":13407:13445   */\n      mstore\n        /* \"#utility.yul\":13466:13539   */\n      tag_537\n        /* \"#utility.yul\":13534:13538   */\n      dup3\n        /* \"#utility.yul\":13520:13532   */\n      dup3\n        /* \"#utility.yul\":13466:13539   */\n      tag_338\n      jump\t// in\n    tag_537:\n        /* \"#utility.yul\":13458:13539   */\n      swap2\n      pop\n        /* \"#utility.yul\":13308:13550   */\n      pop\n        /* \"#utility.yul\":13640:13644   */\n      0xe0\n        /* \"#utility.yul\":13633:13638   */\n      dup4\n        /* \"#utility.yul\":13629:13645   */\n      add\n        /* \"#utility.yul\":13623:13646   */\n      mload\n        /* \"#utility.yul\":13659:13722   */\n      tag_538\n        /* \"#utility.yul\":13716:13720   */\n      0xe0\n        /* \"#utility.yul\":13711:13714   */\n      dup7\n        /* \"#utility.yul\":13707:13721   */\n      add\n        /* \"#utility.yul\":13693:13705   */\n      dup3\n        /* \"#utility.yul\":13659:13722   */\n      tag_340\n      jump\t// in\n    tag_538:\n        /* \"#utility.yul\":13560:13732   */\n      pop\n        /* \"#utility.yul\":13813:13819   */\n      0x0100\n        /* \"#utility.yul\":13806:13811   */\n      dup4\n        /* \"#utility.yul\":13802:13820   */\n      add\n        /* \"#utility.yul\":13796:13821   */\n      mload\n        /* \"#utility.yul\":13834:13899   */\n      tag_539\n        /* \"#utility.yul\":13891:13897   */\n      0x0100\n        /* \"#utility.yul\":13886:13889   */\n      dup7\n        /* \"#utility.yul\":13882:13898   */\n      add\n        /* \"#utility.yul\":13868:13880   */\n      dup3\n        /* \"#utility.yul\":13834:13899   */\n      tag_341\n      jump\t// in\n    tag_539:\n        /* \"#utility.yul\":13742:13909   */\n      pop\n        /* \"#utility.yul\":13994:14000   */\n      0x0120\n        /* \"#utility.yul\":13987:13992   */\n      dup4\n        /* \"#utility.yul\":13983:14001   */\n      add\n        /* \"#utility.yul\":13977:14002   */\n      mload\n        /* \"#utility.yul\":14015:14080   */\n      tag_540\n        /* \"#utility.yul\":14072:14078   */\n      0x0120\n        /* \"#utility.yul\":14067:14070   */\n      dup7\n        /* \"#utility.yul\":14063:14079   */\n      add\n        /* \"#utility.yul\":14049:14061   */\n      dup3\n        /* \"#utility.yul\":14015:14080   */\n      tag_341\n      jump\t// in\n    tag_540:\n        /* \"#utility.yul\":13919:14090   */\n      pop\n        /* \"#utility.yul\":14107:14111   */\n      dup1\n        /* \"#utility.yul\":14100:14111   */\n      swap2\n      pop\n        /* \"#utility.yul\":11847:14117   */\n      pop\n        /* \"#utility.yul\":11725:14117   */\n      swap3\n      swap2\n      pop\n      pop\n      jump\t// out\n        /* \"#utility.yul\":14123:14492   */\n    tag_45:\n        /* \"#utility.yul\":14264:14268   */\n      0x00\n        /* \"#utility.yul\":14302:14304   */\n      0x20\n        /* \"#utility.yul\":14291:14300   */\n      dup3\n        /* \"#utility.yul\":14287:14305   */\n      add\n        /* \"#utility.yul\":14279:14305   */\n      swap1\n      pop\n        /* \"#utility.yul\":14351:14360   */\n      dup2\n        /* \"#utility.yul\":14345:14349   */\n      dup2\n        /* \"#utility.yul\":14341:14361   */\n      sub\n        /* \"#utility.yul\":14337:14338   */\n      0x00\n        /* \"#utility.yul\":14326:14335   */\n      dup4\n        /* \"#utility.yul\":14322:14339   */\n      add\n        /* \"#utility.yul\":14315:14362   */\n      mstore\n        /* \"#utility.yul\":14379:14485   */\n      tag_542\n        /* \"#utility.yul\":14480:14484   */\n      dup2\n        /* \"#utility.yul\":14471:14477   */\n      dup5\n        /* \"#utility.yul\":14379:14485   */\n      tag_342\n      jump\t// in\n    tag_542:\n        /* \"#utility.yul\":14371:14485   */\n      swap1\n      pop\n        /* \"#utility.yul\":14123:14492   */\n      swap3\n      swap2\n      pop\n      pop\n      jump\t// out\n        /* \"#utility.yul\":14498:14667   */\n    tag_343:\n        /* \"#utility.yul\":14582:14593   */\n      0x00\n        /* \"#utility.yul\":14616:14622   */\n      dup3\n        /* \"#utility.yul\":14611:14614   */\n      dup3\n        /* \"#utility.yul\":14604:14623   */\n      mstore\n        /* \"#utility.yul\":14656:14660   */\n      0x20\n        /* \"#utility.yul\":14651:14654   */\n      dup3\n        /* \"#utility.yul\":14647:14661   */\n      add\n        /* \"#utility.yul\":14632:14661   */\n      swap1\n      pop\n        /* \"#utility.yul\":14498:14667   */\n      swap3\n      swap2\n      pop\n      pop\n      jump\t// out\n        /* \"#utility.yul\":14673:14841   */\n    tag_344:\n        /* \"#utility.yul\":14813:14833   */\n      0x4e6f742061757468656e74686963617465640000000000000000000000000000\n        /* \"#utility.yul\":14809:14810   */\n      0x00\n        /* \"#utility.yul\":14801:14807   */\n      dup3\n        /* \"#utility.yul\":14797:14811   */\n      add\n        /* \"#utility.yul\":14790:14834   */\n      mstore\n        /* \"#utility.yul\":14673:14841   */\n      pop\n      jump\t// out\n        /* \"#utility.yul\":14847:15213   */\n    tag_345:\n        /* \"#utility.yul\":14989:14992   */\n      0x00\n        /* \"#utility.yul\":15010:15077   */\n      tag_546\n        /* \"#utility.yul\":15074:15076   */\n      0x12\n        /* \"#utility.yul\":15069:15072   */\n      dup4\n        /* \"#utility.yul\":15010:15077   */\n      tag_343\n      jump\t// in\n    tag_546:\n        /* \"#utility.yul\":15003:15077   */\n      swap2\n      pop\n        /* \"#utility.yul\":15086:15179   */\n      tag_547\n        /* \"#utility.yul\":15175:15178   */\n      dup3\n        /* \"#utility.yul\":15086:15179   */\n      tag_344\n      jump\t// in\n    tag_547:\n        /* \"#utility.yul\":15204:15206   */\n      0x20\n        /* \"#utility.yul\":15199:15202   */\n      dup3\n        /* \"#utility.yul\":15195:15207   */\n      add\n        /* \"#utility.yul\":15188:15207   */\n      swap1\n      pop\n        /* \"#utility.yul\":14847:15213   */\n      swap2\n      swap1\n      pop\n      jump\t// out\n        /* \"#utility.yul\":15219:15638   */\n    tag_49:\n        /* \"#utility.yul\":15385:15389   */\n      0x00\n        /* \"#utility.yul\":15423:15425   */\n      0x20\n        /* \"#utility.yul\":15412:15421   */\n      dup3\n        /* \"#utility.yul\":15408:15426   */\n      add\n        /* \"#utility.yul\":15400:15426   */\n      swap1\n      pop\n        /* \"#utility.yul\":15472:15481   */\n      dup2\n        /* \"#utility.yul\":15466:15470   */\n      dup2\n        /* \"#utility.yul\":15462:15482   */\n      sub\n        /* \"#utility.yul\":15458:15459   */\n      0x00\n        /* \"#utility.yul\":15447:15456   */\n      dup4\n        /* \"#utility.yul\":15443:15460   */\n      add\n        /* \"#utility.yul\":15436:15483   */\n      mstore\n        /* \"#utility.yul\":15500:15631   */\n      tag_549\n        /* \"#utility.yul\":15626:15630   */\n      dup2\n        /* \"#utility.yul\":15500:15631   */\n      tag_345\n      jump\t// in\n    tag_549:\n        /* \"#utility.yul\":15492:15631   */\n      swap1\n      pop\n        /* \"#utility.yul\":15219:15638   */\n      swap2\n      swap1\n      pop\n      jump\t// out\n        /* \"#utility.yul\":15644:15824   */\n    tag_346:\n        /* \"#utility.yul\":15692:15769   */\n      0x4e487b7100000000000000000000000000000000000000000000000000000000\n        /* \"#utility.yul\":15689:15690   */\n      0x00\n        /* \"#utility.yul\":15682:15770   */\n      mstore\n        /* \"#utility.yul\":15789:15793   */\n      0x11\n        /* \"#utility.yul\":15786:15787   */\n      0x04\n        /* \"#utility.yul\":15779:15794   */\n      mstore\n        /* \"#utility.yul\":15813:15817   */\n      0x24\n        /* \"#utility.yul\":15810:15811   */\n      0x00\n        /* \"#utility.yul\":15803:15818   */\n      revert\n        /* \"#utility.yul\":15830:16001   */\n    tag_62:\n        /* \"#utility.yul\":15869:15872   */\n      0x00\n        /* \"#utility.yul\":15892:15916   */\n      tag_552\n        /* \"#utility.yul\":15910:15915   */\n      dup3\n        /* \"#utility.yul\":15892:15916   */\n      tag_315\n      jump\t// in\n    tag_552:\n        /* \"#utility.yul\":15883:15916   */\n      swap2\n      pop\n        /* \"#utility.yul\":15938:15942   */\n      0x00\n        /* \"#utility.yul\":15931:15936   */\n      dup3\n        /* \"#utility.yul\":15928:15943   */\n      sub\n        /* \"#utility.yul\":15925:15966   */\n      tag_553\n      jumpi\n        /* \"#utility.yul\":15946:15964   */\n      tag_554\n      tag_346\n      jump\t// in\n    tag_554:\n        /* \"#utility.yul\":15925:15966   */\n    tag_553:\n        /* \"#utility.yul\":15993:15994   */\n      0x01\n        /* \"#utility.yul\":15986:15991   */\n      dup3\n        /* \"#utility.yul\":15982:15995   */\n      sub\n        /* \"#utility.yul\":15975:15995   */\n      swap1\n      pop\n        /* \"#utility.yul\":15830:16001   */\n      swap2\n      swap1\n      pop\n      jump\t// out\n        /* \"#utility.yul\":16007:16187   */\n    tag_347:\n        /* \"#utility.yul\":16055:16132   */\n      0x4e487b7100000000000000000000000000000000000000000000000000000000\n        /* \"#utility.yul\":16052:16053   */\n      0x00\n        /* \"#utility.yul\":16045:16133   */\n      mstore\n        /* \"#utility.yul\":16152:16156   */\n      0x22\n        /* \"#utility.yul\":16149:16150   */\n      0x04\n        /* \"#utility.yul\":16142:16157   */\n      mstore\n        /* \"#utility.yul\":16176:16180   */\n      0x24\n        /* \"#utility.yul\":16173:16174   */\n      0x00\n        /* \"#utility.yul\":16166:16181   */\n      revert\n        /* \"#utility.yul\":16193:16513   */\n    tag_67:\n        /* \"#utility.yul\":16237:16243   */\n      0x00\n        /* \"#utility.yul\":16274:16275   */\n      0x02\n        /* \"#utility.yul\":16268:16272   */\n      dup3\n        /* \"#utility.yul\":16264:16276   */\n      div\n        /* \"#utility.yul\":16254:16276   */\n      swap1\n      pop\n        /* \"#utility.yul\":16321:16322   */\n      0x01\n        /* \"#utility.yul\":16315:16319   */\n      dup3\n        /* \"#utility.yul\":16311:16323   */\n      and\n        /* \"#utility.yul\":16342:16360   */\n      dup1\n        /* \"#utility.yul\":16332:16413   */\n      tag_557\n      jumpi\n        /* \"#utility.yul\":16398:16402   */\n      0x7f\n        /* \"#utility.yul\":16390:16396   */\n      dup3\n        /* \"#utility.yul\":16386:16403   */\n      and\n        /* \"#utility.yul\":16376:16403   */\n      swap2\n      pop\n        /* \"#utility.yul\":16332:16413   */\n    tag_557:\n        /* \"#utility.yul\":16460:16462   */\n      0x20\n        /* \"#utility.yul\":16452:16458   */\n      dup3\n        /* \"#utility.yul\":16449:16463   */\n      lt\n        /* \"#utility.yul\":16429:16447   */\n      dup2\n        /* \"#utility.yul\":16426:16464   */\n      sub\n        /* \"#utility.yul\":16423:16507   */\n      tag_558\n      jumpi\n        /* \"#utility.yul\":16479:16497   */\n      tag_559\n      tag_347\n      jump\t// in\n    tag_559:\n        /* \"#utility.yul\":16423:16507   */\n    tag_558:\n        /* \"#utility.yul\":16244:16513   */\n      pop\n        /* \"#utility.yul\":16193:16513   */\n      swap2\n      swap1\n      pop\n      jump\t// out\n        /* \"#utility.yul\":16519:16717   */\n    tag_348:\n        /* \"#utility.yul\":16688:16710   */\n      0x496e636f72726563742070617373776f72642070000000000000000000000000\n        /* \"#utility.yul\":16683:16686   */\n      dup2\n        /* \"#utility.yul\":16676:16711   */\n      mstore\n        /* \"#utility.yul\":16519:16717   */\n      pop\n      jump\t// out\n        /* \"#utility.yul\":16723:16871   */\n    tag_349:\n        /* \"#utility.yul\":16825:16836   */\n      0x00\n        /* \"#utility.yul\":16862:16865   */\n      dup2\n        /* \"#utility.yul\":16847:16865   */\n      swap1\n      pop\n        /* \"#utility.yul\":16723:16871   */\n      swap3\n      swap2\n      pop\n      pop\n      jump\t// out\n        /* \"#utility.yul\":16877:17018   */\n    tag_350:\n        /* \"#utility.yul\":16926:16930   */\n      0x00\n        /* \"#utility.yul\":16949:16952   */\n      dup2\n        /* \"#utility.yul\":16941:16952   */\n      swap1\n      pop\n        /* \"#utility.yul\":16972:16975   */\n      dup2\n        /* \"#utility.yul\":16969:16970   */\n      0x00\n        /* \"#utility.yul\":16962:16976   */\n      mstore\n        /* \"#utility.yul\":17006:17010   */\n      0x20\n        /* \"#utility.yul\":17003:17004   */\n      0x00\n        /* \"#utility.yul\":16993:17011   */\n      keccak256\n        /* \"#utility.yul\":16985:17011   */\n      swap1\n      pop\n        /* \"#utility.yul\":16877:17018   */\n      swap2\n      swap1\n      pop\n      jump\t// out\n        /* \"#utility.yul\":17048:17922   */\n    tag_351:\n        /* \"#utility.yul\":17151:17154   */\n      0x00\n        /* \"#utility.yul\":17188:17193   */\n      dup2\n        /* \"#utility.yul\":17182:17194   */\n      sload\n        /* \"#utility.yul\":17217:17253   */\n      tag_564\n        /* \"#utility.yul\":17243:17252   */\n      dup2\n        /* \"#utility.yul\":17217:17253   */\n      tag_67\n      jump\t// in\n    tag_564:\n        /* \"#utility.yul\":17269:17358   */\n      tag_565\n        /* \"#utility.yul\":17351:17357   */\n      dup2\n        /* \"#utility.yul\":17346:17349   */\n      dup7\n        /* \"#utility.yul\":17269:17358   */\n      tag_349\n      jump\t// in\n    tag_565:\n        /* \"#utility.yul\":17262:17358   */\n      swap5\n      pop\n        /* \"#utility.yul\":17389:17390   */\n      0x01\n        /* \"#utility.yul\":17378:17387   */\n      dup3\n        /* \"#utility.yul\":17374:17391   */\n      and\n        /* \"#utility.yul\":17405:17406   */\n      0x00\n        /* \"#utility.yul\":17400:17566   */\n      dup2\n      eq\n      tag_567\n      jumpi\n        /* \"#utility.yul\":17580:17581   */\n      0x01\n        /* \"#utility.yul\":17575:17916   */\n      dup2\n      eq\n      tag_568\n      jumpi\n        /* \"#utility.yul\":17367:17916   */\n      jump(tag_566)\n        /* \"#utility.yul\":17400:17566   */\n    tag_567:\n        /* \"#utility.yul\":17484:17488   */\n      0xff\n        /* \"#utility.yul\":17480:17489   */\n      not\n        /* \"#utility.yul\":17469:17478   */\n      dup4\n        /* \"#utility.yul\":17465:17490   */\n      and\n        /* \"#utility.yul\":17460:17463   */\n      dup7\n        /* \"#utility.yul\":17453:17491   */\n      mstore\n        /* \"#utility.yul\":17546:17552   */\n      dup2\n        /* \"#utility.yul\":17539:17553   */\n      iszero\n        /* \"#utility.yul\":17532:17554   */\n      iszero\n        /* \"#utility.yul\":17524:17530   */\n      dup3\n        /* \"#utility.yul\":17520:17555   */\n      mul\n        /* \"#utility.yul\":17515:17518   */\n      dup7\n        /* \"#utility.yul\":17511:17556   */\n      add\n        /* \"#utility.yul\":17504:17556   */\n      swap4\n      pop\n        /* \"#utility.yul\":17400:17566   */\n      jump(tag_566)\n        /* \"#utility.yul\":17575:17916   */\n    tag_568:\n        /* \"#utility.yul\":17642:17680   */\n      tag_569\n        /* \"#utility.yul\":17674:17679   */\n      dup6\n        /* \"#utility.yul\":17642:17680   */\n      tag_350\n      jump\t// in\n    tag_569:\n        /* \"#utility.yul\":17702:17703   */\n      0x00\n        /* \"#utility.yul\":17716:17870   */\n    tag_570:\n        /* \"#utility.yul\":17730:17736   */\n      dup4\n        /* \"#utility.yul\":17727:17728   */\n      dup2\n        /* \"#utility.yul\":17724:17737   */\n      lt\n        /* \"#utility.yul\":17716:17870   */\n      iszero\n      tag_572\n      jumpi\n        /* \"#utility.yul\":17804:17811   */\n      dup2\n        /* \"#utility.yul\":17798:17812   */\n      sload\n        /* \"#utility.yul\":17794:17795   */\n      dup2\n        /* \"#utility.yul\":17789:17792   */\n      dup10\n        /* \"#utility.yul\":17785:17796   */\n      add\n        /* \"#utility.yul\":17778:17813   */\n      mstore\n        /* \"#utility.yul\":17854:17855   */\n      0x01\n        /* \"#utility.yul\":17845:17852   */\n      dup3\n        /* \"#utility.yul\":17841:17856   */\n      add\n        /* \"#utility.yul\":17830:17856   */\n      swap2\n      pop\n        /* \"#utility.yul\":17752:17756   */\n      0x20\n        /* \"#utility.yul\":17749:17750   */\n      dup2\n        /* \"#utility.yul\":17745:17757   */\n      add\n        /* \"#utility.yul\":17740:17757   */\n      swap1\n      pop\n        /* \"#utility.yul\":17716:17870   */\n      jump(tag_570)\n    tag_572:\n        /* \"#utility.yul\":17899:17905   */\n      dup4\n        /* \"#utility.yul\":17894:17897   */\n      dup9\n        /* \"#utility.yul\":17890:17906   */\n      add\n        /* \"#utility.yul\":17883:17906   */\n      swap6\n      pop\n        /* \"#utility.yul\":17582:17916   */\n      pop\n      pop\n        /* \"#utility.yul\":17367:17916   */\n    tag_566:\n      pop\n        /* \"#utility.yul\":17155:17922   */\n      pop\n      pop\n        /* \"#utility.yul\":17048:17922   */\n      swap3\n      swap2\n      pop\n      pop\n      jump\t// out\n        /* \"#utility.yul\":17928:18464   */\n    tag_74:\n        /* \"#utility.yul\":18148:18151   */\n      0x00\n        /* \"#utility.yul\":18163:18301   */\n      tag_574\n        /* \"#utility.yul\":18297:18300   */\n      dup3\n        /* \"#utility.yul\":18163:18301   */\n      tag_348\n      jump\t// in\n    tag_574:\n        /* \"#utility.yul\":18326:18328   */\n      0x14\n        /* \"#utility.yul\":18321:18324   */\n      dup3\n        /* \"#utility.yul\":18317:18329   */\n      add\n        /* \"#utility.yul\":18310:18329   */\n      swap2\n      pop\n        /* \"#utility.yul\":18346:18438   */\n      tag_575\n        /* \"#utility.yul\":18434:18437   */\n      dup3\n        /* \"#utility.yul\":18425:18431   */\n      dup5\n        /* \"#utility.yul\":18346:18438   */\n      tag_351\n      jump\t// in\n    tag_575:\n        /* \"#utility.yul\":18339:18438   */\n      swap2\n      pop\n        /* \"#utility.yul\":18455:18458   */\n      dup2\n        /* \"#utility.yul\":18448:18458   */\n      swap1\n      pop\n        /* \"#utility.yul\":17928:18464   */\n      swap3\n      swap2\n      pop\n      pop\n      jump\t// out\n        /* \"#utility.yul\":18470:18847   */\n    tag_352:\n        /* \"#utility.yul\":18558:18561   */\n      0x00\n        /* \"#utility.yul\":18586:18625   */\n      tag_577\n        /* \"#utility.yul\":18619:18624   */\n      dup3\n        /* \"#utility.yul\":18586:18625   */\n      tag_335\n      jump\t// in\n    tag_577:\n        /* \"#utility.yul\":18641:18712   */\n      tag_578\n        /* \"#utility.yul\":18705:18711   */\n      dup2\n        /* \"#utility.yul\":18700:18703   */\n      dup6\n        /* \"#utility.yul\":18641:18712   */\n      tag_343\n      jump\t// in\n    tag_578:\n        /* \"#utility.yul\":18634:18712   */\n      swap4\n      pop\n        /* \"#utility.yul\":18721:18786   */\n      tag_579\n        /* \"#utility.yul\":18779:18785   */\n      dup2\n        /* \"#utility.yul\":18774:18777   */\n      dup6\n        /* \"#utility.yul\":18767:18771   */\n      0x20\n        /* \"#utility.yul\":18760:18765   */\n      dup7\n        /* \"#utility.yul\":18756:18772   */\n      add\n        /* \"#utility.yul\":18721:18786   */\n      tag_337\n      jump\t// in\n    tag_579:\n        /* \"#utility.yul\":18811:18840   */\n      tag_580\n        /* \"#utility.yul\":18833:18839   */\n      dup2\n        /* \"#utility.yul\":18811:18840   */\n      tag_323\n      jump\t// in\n    tag_580:\n        /* \"#utility.yul\":18806:18809   */\n      dup5\n        /* \"#utility.yul\":18802:18841   */\n      add\n        /* \"#utility.yul\":18795:18841   */\n      swap2\n      pop\n        /* \"#utility.yul\":18562:18847   */\n      pop\n        /* \"#utility.yul\":18470:18847   */\n      swap3\n      swap2\n      pop\n      pop\n      jump\t// out\n        /* \"#utility.yul\":18853:19166   */\n    tag_77:\n        /* \"#utility.yul\":18966:18970   */\n      0x00\n        /* \"#utility.yul\":19004:19006   */\n      0x20\n        /* \"#utility.yul\":18993:19002   */\n      dup3\n        /* \"#utility.yul\":18989:19007   */\n      add\n        /* \"#utility.yul\":18981:19007   */\n      swap1\n      pop\n        /* \"#utility.yul\":19053:19062   */\n      dup2\n        /* \"#utility.yul\":19047:19051   */\n      dup2\n        /* \"#utility.yul\":19043:19063   */\n      sub\n        /* \"#utility.yul\":19039:19040   */\n      0x00\n        /* \"#utility.yul\":19028:19037   */\n      dup4\n        /* \"#utility.yul\":19024:19041   */\n      add\n        /* \"#utility.yul\":19017:19064   */\n      mstore\n        /* \"#utility.yul\":19081:19159   */\n      tag_582\n        /* \"#utility.yul\":19154:19158   */\n      dup2\n        /* \"#utility.yul\":19145:19151   */\n      dup5\n        /* \"#utility.yul\":19081:19159   */\n      tag_352\n      jump\t// in\n    tag_582:\n        /* \"#utility.yul\":19073:19159   */\n      swap1\n      pop\n        /* \"#utility.yul\":18853:19166   */\n      swap3\n      swap2\n      pop\n      pop\n      jump\t// out\n        /* \"#utility.yul\":19172:19266   */\n    tag_353:\n        /* \"#utility.yul\":19205:19213   */\n      0x00\n        /* \"#utility.yul\":19253:19258   */\n      dup2\n        /* \"#utility.yul\":19249:19251   */\n      0x60\n        /* \"#utility.yul\":19245:19259   */\n      shl\n        /* \"#utility.yul\":19224:19259   */\n      swap1\n      pop\n        /* \"#utility.yul\":19172:19266   */\n      swap2\n      swap1\n      pop\n      jump\t// out\n        /* \"#utility.yul\":19272:19366   */\n    tag_354:\n        /* \"#utility.yul\":19311:19318   */\n      0x00\n        /* \"#utility.yul\":19340:19360   */\n      tag_585\n        /* \"#utility.yul\":19354:19359   */\n      dup3\n        /* \"#utility.yul\":19340:19360   */\n      tag_353\n      jump\t// in\n    tag_585:\n        /* \"#utility.yul\":19329:19360   */\n      swap1\n      pop\n        /* \"#utility.yul\":19272:19366   */\n      swap2\n      swap1\n      pop\n      jump\t// out\n        /* \"#utility.yul\":19372:19472   */\n    tag_355:\n        /* \"#utility.yul\":19411:19418   */\n      0x00\n        /* \"#utility.yul\":19440:19466   */\n      tag_587\n        /* \"#utility.yul\":19460:19465   */\n      dup3\n        /* \"#utility.yul\":19440:19466   */\n      tag_354\n      jump\t// in\n    tag_587:\n        /* \"#utility.yul\":19429:19466   */\n      swap1\n      pop\n        /* \"#utility.yul\":19372:19472   */\n      swap2\n      swap1\n      pop\n      jump\t// out\n        /* \"#utility.yul\":19478:19635   */\n    tag_356:\n        /* \"#utility.yul\":19583:19628   */\n      tag_589\n        /* \"#utility.yul\":19603:19627   */\n      tag_590\n        /* \"#utility.yul\":19621:19626   */\n      dup3\n        /* \"#utility.yul\":19603:19627   */\n      tag_318\n      jump\t// in\n    tag_590:\n        /* \"#utility.yul\":19583:19628   */\n      tag_355\n      jump\t// in\n    tag_589:\n        /* \"#utility.yul\":19578:19581   */\n      dup3\n        /* \"#utility.yul\":19571:19629   */\n      mstore\n        /* \"#utility.yul\":19478:19635   */\n      pop\n      pop\n      jump\t// out\n        /* \"#utility.yul\":19641:19897   */\n    tag_79:\n        /* \"#utility.yul\":19753:19756   */\n      0x00\n        /* \"#utility.yul\":19768:19843   */\n      tag_592\n        /* \"#utility.yul\":19839:19842   */\n      dup3\n        /* \"#utility.yul\":19830:19836   */\n      dup5\n        /* \"#utility.yul\":19768:19843   */\n      tag_356\n      jump\t// in\n    tag_592:\n        /* \"#utility.yul\":19868:19870   */\n      0x14\n        /* \"#utility.yul\":19863:19866   */\n      dup3\n        /* \"#utility.yul\":19859:19871   */\n      add\n        /* \"#utility.yul\":19852:19871   */\n      swap2\n      pop\n        /* \"#utility.yul\":19888:19891   */\n      dup2\n        /* \"#utility.yul\":19881:19891   */\n      swap1\n      pop\n        /* \"#utility.yul\":19641:19897   */\n      swap3\n      swap2\n      pop\n      pop\n      jump\t// out\n        /* \"#utility.yul\":19903:20293   */\n    tag_357:\n        /* \"#utility.yul\":20009:20012   */\n      0x00\n        /* \"#utility.yul\":20037:20076   */\n      tag_594\n        /* \"#utility.yul\":20070:20075   */\n      dup3\n        /* \"#utility.yul\":20037:20076   */\n      tag_335\n      jump\t// in\n    tag_594:\n        /* \"#utility.yul\":20092:20181   */\n      tag_595\n        /* \"#utility.yul\":20174:20180   */\n      dup2\n        /* \"#utility.yul\":20169:20172   */\n      dup6\n        /* \"#utility.yul\":20092:20181   */\n      tag_349\n      jump\t// in\n    tag_595:\n        /* \"#utility.yul\":20085:20181   */\n      swap4\n      pop\n        /* \"#utility.yul\":20190:20255   */\n      tag_596\n        /* \"#utility.yul\":20248:20254   */\n      dup2\n        /* \"#utility.yul\":20243:20246   */\n      dup6\n        /* \"#utility.yul\":20236:20240   */\n      0x20\n        /* \"#utility.yul\":20229:20234   */\n      dup7\n        /* \"#utility.yul\":20225:20241   */\n      add\n        /* \"#utility.yul\":20190:20255   */\n      tag_337\n      jump\t// in\n    tag_596:\n        /* \"#utility.yul\":20280:20286   */\n      dup1\n        /* \"#utility.yul\":20275:20278   */\n      dup5\n        /* \"#utility.yul\":20271:20287   */\n      add\n        /* \"#utility.yul\":20264:20287   */\n      swap2\n      pop\n        /* \"#utility.yul\":20013:20293   */\n      pop\n        /* \"#utility.yul\":19903:20293   */\n      swap3\n      swap2\n      pop\n      pop\n      jump\t// out\n        /* \"#utility.yul\":20299:20894   */\n    tag_83:\n        /* \"#utility.yul\":20527:20530   */\n      0x00\n        /* \"#utility.yul\":20549:20644   */\n      tag_598\n        /* \"#utility.yul\":20640:20643   */\n      dup3\n        /* \"#utility.yul\":20631:20637   */\n      dup7\n        /* \"#utility.yul\":20549:20644   */\n      tag_357\n      jump\t// in\n    tag_598:\n        /* \"#utility.yul\":20542:20644   */\n      swap2\n      pop\n        /* \"#utility.yul\":20661:20756   */\n      tag_599\n        /* \"#utility.yul\":20752:20755   */\n      dup3\n        /* \"#utility.yul\":20743:20749   */\n      dup6\n        /* \"#utility.yul\":20661:20756   */\n      tag_357\n      jump\t// in\n    tag_599:\n        /* \"#utility.yul\":20654:20756   */\n      swap2\n      pop\n        /* \"#utility.yul\":20773:20868   */\n      tag_600\n        /* \"#utility.yul\":20864:20867   */\n      dup3\n        /* \"#utility.yul\":20855:20861   */\n      dup5\n        /* \"#utility.yul\":20773:20868   */\n      tag_357\n      jump\t// in\n    tag_600:\n        /* \"#utility.yul\":20766:20868   */\n      swap2\n      pop\n        /* \"#utility.yul\":20885:20888   */\n      dup2\n        /* \"#utility.yul\":20878:20888   */\n      swap1\n      pop\n        /* \"#utility.yul\":20299:20894   */\n      swap5\n      swap4\n      pop\n      pop\n      pop\n      pop\n      jump\t// out\n        /* \"#utility.yul\":20900:21175   */\n    tag_85:\n        /* \"#utility.yul\":21032:21035   */\n      0x00\n        /* \"#utility.yul\":21054:21149   */\n      tag_602\n        /* \"#utility.yul\":21145:21148   */\n      dup3\n        /* \"#utility.yul\":21136:21142   */\n      dup5\n        /* \"#utility.yul\":21054:21149   */\n      tag_357\n      jump\t// in\n    tag_602:\n        /* \"#utility.yul\":21047:21149   */\n      swap2\n      pop\n        /* \"#utility.yul\":21166:21169   */\n      dup2\n        /* \"#utility.yul\":21159:21169   */\n      swap1\n      pop\n        /* \"#utility.yul\":20900:21175   */\n      swap3\n      swap2\n      pop\n      pop\n      jump\t// out\n        /* \"#utility.yul\":21181:21274   */\n    tag_358:\n        /* \"#utility.yul\":21218:21224   */\n      0x00\n        /* \"#utility.yul\":21265:21267   */\n      0x20\n        /* \"#utility.yul\":21260:21262   */\n      0x1f\n        /* \"#utility.yul\":21253:21258   */\n      dup4\n        /* \"#utility.yul\":21249:21263   */\n      add\n        /* \"#utility.yul\":21245:21268   */\n      div\n        /* \"#utility.yul\":21235:21268   */\n      swap1\n      pop\n        /* \"#utility.yul\":21181:21274   */\n      swap2\n      swap1\n      pop\n      jump\t// out\n        /* \"#utility.yul\":21280:21387   */\n    tag_359:\n        /* \"#utility.yul\":21324:21332   */\n      0x00\n        /* \"#utility.yul\":21374:21379   */\n      dup3\n        /* \"#utility.yul\":21368:21372   */\n      dup3\n        /* \"#utility.yul\":21364:21380   */\n      shl\n        /* \"#utility.yul\":21343:21380   */\n      swap1\n      pop\n        /* \"#utility.yul\":21280:21387   */\n      swap3\n      swap2\n      pop\n      pop\n      jump\t// out\n        /* \"#utility.yul\":21393:21786   */\n    tag_360:\n        /* \"#utility.yul\":21462:21468   */\n      0x00\n        /* \"#utility.yul\":21512:21513   */\n      0x08\n        /* \"#utility.yul\":21500:21510   */\n      dup4\n        /* \"#utility.yul\":21496:21514   */\n      mul\n        /* \"#utility.yul\":21535:21632   */\n      tag_606\n        /* \"#utility.yul\":21565:21631   */\n      0xffffffffffffffffffffffffffffffffffffffffffffffffffffffffffffffff\n        /* \"#utility.yul\":21554:21563   */\n      dup3\n        /* \"#utility.yul\":21535:21632   */\n      tag_359\n      jump\t// in\n    tag_606:\n        /* \"#utility.yul\":21653:21692   */\n      tag_607\n        /* \"#utility.yul\":21683:21691   */\n      dup7\n        /* \"#utility.yul\":21672:21681   */\n      dup4\n        /* \"#utility.yul\":21653:21692   */\n      tag_359\n      jump\t// in\n    tag_607:\n        /* \"#utility.yul\":21641:21692   */\n      swap6\n      pop\n        /* \"#utility.yul\":21725:21729   */\n      dup1\n        /* \"#utility.yul\":21721:21730   */\n      not\n        /* \"#utility.yul\":21714:21719   */\n      dup5\n        /* \"#utility.yul\":21710:21731   */\n      and\n        /* \"#utility.yul\":21701:21731   */\n      swap4\n      pop\n        /* \"#utility.yul\":21774:21778   */\n      dup1\n        /* \"#utility.yul\":21764:21772   */\n      dup7\n        /* \"#utility.yul\":21760:21779   */\n      and\n        /* \"#utility.yul\":21753:21758   */\n      dup5\n        /* \"#utility.yul\":21750:21780   */\n      or\n        /* \"#utility.yul\":21740:21780   */\n      swap3\n      pop\n        /* \"#utility.yul\":21469:21786   */\n      pop\n      pop\n        /* \"#utility.yul\":21393:21786   */\n      swap4\n      swap3\n      pop\n      pop\n      pop\n      jump\t// out\n        /* \"#utility.yul\":21792:21852   */\n    tag_361:\n        /* \"#utility.yul\":21820:21823   */\n      0x00\n        /* \"#utility.yul\":21841:21846   */\n      dup2\n        /* \"#utility.yul\":21834:21846   */\n      swap1\n      pop\n        /* \"#utility.yul\":21792:21852   */\n      swap2\n      swap1\n      pop\n      jump\t// out\n        /* \"#utility.yul\":21858:22000   */\n    tag_362:\n        /* \"#utility.yul\":21908:21917   */\n      0x00\n        /* \"#utility.yul\":21941:21994   */\n      tag_610\n        /* \"#utility.yul\":21959:21993   */\n      tag_611\n        /* \"#utility.yul\":21968:21992   */\n      tag_612\n        /* \"#utility.yul\":21986:21991   */\n      dup5\n        /* \"#utility.yul\":21968:21992   */\n      tag_315\n      jump\t// in\n    tag_612:\n        /* \"#utility.yul\":21959:21993   */\n      tag_361\n      jump\t// in\n    tag_611:\n        /* \"#utility.yul\":21941:21994   */\n      tag_315\n      jump\t// in\n    tag_610:\n        /* \"#utility.yul\":21928:21994   */\n      swap1\n      pop\n        /* \"#utility.yul\":21858:22000   */\n      swap2\n      swap1\n      pop\n      jump\t// out\n        /* \"#utility.yul\":22006:22081   */\n    tag_363:\n        /* \"#utility.yul\":22049:22052   */\n      0x00\n        /* \"#utility.yul\":22070:22075   */\n      dup2\n        /* \"#utility.yul\":22063:22075   */\n      swap1\n      pop\n        /* \"#utility.yul\":22006:22081   */\n      swap2\n      swap1\n      pop\n      jump\t// out\n        /* \"#utility.yul\":22087:22356   */\n    tag_364:\n        /* \"#utility.yul\":22197:22236   */\n      tag_615\n        /* \"#utility.yul\":22228:22235   */\n      dup4\n        /* \"#utility.yul\":22197:22236   */\n      tag_362\n      jump\t// in\n    tag_615:\n        /* \"#utility.yul\":22258:22349   */\n      tag_616\n        /* \"#utility.yul\":22307:22348   */\n      tag_617\n        /* \"#utility.yul\":22331:22347   */\n      dup3\n        /* \"#utility.yul\":22307:22348   */\n      tag_363\n      jump\t// in\n    tag_617:\n        /* \"#utility.yul\":22299:22305   */\n      dup5\n        /* \"#utility.yul\":22292:22296   */\n      dup5\n        /* \"#utility.yul\":22286:22297   */\n      sload\n        /* \"#utility.yul\":22258:22349   */\n      tag_360\n      jump\t// in\n    tag_616:\n        /* \"#utility.yul\":22252:22256   */\n      dup3\n        /* \"#utility.yul\":22245:22350   */\n      sstore\n        /* \"#utility.yul\":22163:22356   */\n      pop\n        /* \"#utility.yul\":22087:22356   */\n      pop\n      pop\n      pop\n      jump\t// out\n        /* \"#utility.yul\":22362:22435   */\n    tag_365:\n        /* \"#utility.yul\":22407:22410   */\n      0x00\n        /* \"#utility.yul\":22362:22435   */\n      swap1\n      jump\t// out\n        /* \"#utility.yul\":22441:22630   */\n    tag_366:\n        /* \"#utility.yul\":22518:22550   */\n      tag_620\n      tag_365\n      jump\t// in\n    tag_620:\n        /* \"#utility.yul\":22559:22624   */\n      tag_621\n        /* \"#utility.yul\":22617:22623   */\n      dup2\n        /* \"#utility.yul\":22609:22615   */\n      dup5\n        /* \"#utility.yul\":22603:22607   */\n      dup5\n        /* \"#utility.yul\":22559:22624   */\n      tag_364\n      jump\t// in\n    tag_621:\n        /* \"#utility.yul\":22494:22630   */\n      pop\n        /* \"#utility.yul\":22441:22630   */\n      pop\n      pop\n      jump\t// out\n        /* \"#utility.yul\":22636:22822   */\n    tag_367:\n        /* \"#utility.yul\":22696:22816   */\n    tag_623:\n        /* \"#utility.yul\":22713:22716   */\n      dup2\n        /* \"#utility.yul\":22706:22711   */\n      dup2\n        /* \"#utility.yul\":22703:22717   */\n      lt\n        /* \"#utility.yul\":22696:22816   */\n      iszero\n      tag_625\n      jumpi\n        /* \"#utility.yul\":22767:22806   */\n      tag_626\n        /* \"#utility.yul\":22804:22805   */\n      0x00\n        /* \"#utility.yul\":22797:22802   */\n      dup3\n        /* \"#utility.yul\":22767:22806   */\n      tag_366\n      jump\t// in\n    tag_626:\n        /* \"#utility.yul\":22740:22741   */\n      0x01\n        /* \"#utility.yul\":22733:22738   */\n      dup2\n        /* \"#utility.yul\":22729:22742   */\n      add\n        /* \"#utility.yul\":22720:22742   */\n      swap1\n      pop\n        /* \"#utility.yul\":22696:22816   */\n      jump(tag_623)\n    tag_625:\n        /* \"#utility.yul\":22636:22822   */\n      pop\n      pop\n      jump\t// out\n        /* \"#utility.yul\":22828:23371   */\n    tag_368:\n        /* \"#utility.yul\":22929:22931   */\n      0x1f\n        /* \"#utility.yul\":22924:22927   */\n      dup3\n        /* \"#utility.yul\":22921:22932   */\n      gt\n        /* \"#utility.yul\":22918:23364   */\n      iszero\n      tag_628\n      jumpi\n        /* \"#utility.yul\":22963:23001   */\n      tag_629\n        /* \"#utility.yul\":22995:23000   */\n      dup2\n        /* \"#utility.yul\":22963:23001   */\n      tag_350\n      jump\t// in\n    tag_629:\n        /* \"#utility.yul\":23047:23076   */\n      tag_630\n        /* \"#utility.yul\":23065:23075   */\n      dup5\n        /* \"#utility.yul\":23047:23076   */\n      tag_358\n      jump\t// in\n    tag_630:\n        /* \"#utility.yul\":23037:23045   */\n      dup2\n        /* \"#utility.yul\":23033:23077   */\n      add\n        /* \"#utility.yul\":23230:23232   */\n      0x20\n        /* \"#utility.yul\":23218:23228   */\n      dup6\n        /* \"#utility.yul\":23215:23233   */\n      lt\n        /* \"#utility.yul\":23212:23261   */\n      iszero\n      tag_631\n      jumpi\n        /* \"#utility.yul\":23251:23259   */\n      dup2\n        /* \"#utility.yul\":23236:23259   */\n      swap1\n      pop\n        /* \"#utility.yul\":23212:23261   */\n    tag_631:\n        /* \"#utility.yul\":23274:23354   */\n      tag_632\n        /* \"#utility.yul\":23330:23352   */\n      tag_633\n        /* \"#utility.yul\":23348:23351   */\n      dup6\n        /* \"#utility.yul\":23330:23352   */\n      tag_358\n      jump\t// in\n    tag_633:\n        /* \"#utility.yul\":23320:23328   */\n      dup4\n        /* \"#utility.yul\":23316:23353   */\n      add\n        /* \"#utility.yul\":23303:23314   */\n      dup3\n        /* \"#utility.yul\":23274:23354   */\n      tag_367\n      jump\t// in\n    tag_632:\n        /* \"#utility.yul\":22933:23364   */\n      pop\n      pop\n        /* \"#utility.yul\":22918:23364   */\n    tag_628:\n        /* \"#utility.yul\":22828:23371   */\n      pop\n      pop\n      pop\n      jump\t// out\n        /* \"#utility.yul\":23377:23494   */\n    tag_369:\n        /* \"#utility.yul\":23431:23439   */\n      0x00\n        /* \"#utility.yul\":23481:23486   */\n      dup3\n        /* \"#utility.yul\":23475:23479   */\n      dup3\n        /* \"#utility.yul\":23471:23487   */\n      shr\n        /* \"#utility.yul\":23450:23487   */\n      swap1\n      pop\n        /* \"#utility.yul\":23377:23494   */\n      swap3\n      swap2\n      pop\n      pop\n      jump\t// out\n        /* \"#utility.yul\":23500:23669   */\n    tag_370:\n        /* \"#utility.yul\":23544:23550   */\n      0x00\n        /* \"#utility.yul\":23577:23628   */\n      tag_636\n        /* \"#utility.yul\":23625:23626   */\n      0x00\n        /* \"#utility.yul\":23621:23627   */\n      not\n        /* \"#utility.yul\":23613:23618   */\n      dup5\n        /* \"#utility.yul\":23610:23611   */\n      0x08\n        /* \"#utility.yul\":23606:23619   */\n      mul\n        /* \"#utility.yul\":23577:23628   */\n      tag_369\n      jump\t// in\n    tag_636:\n        /* \"#utility.yul\":23573:23629   */\n      not\n        /* \"#utility.yul\":23658:23662   */\n      dup1\n        /* \"#utility.yul\":23652:23656   */\n      dup4\n        /* \"#utility.yul\":23648:23663   */\n      and\n        /* \"#utility.yul\":23638:23663   */\n      swap2\n      pop\n        /* \"#utility.yul\":23551:23669   */\n      pop\n        /* \"#utility.yul\":23500:23669   */\n      swap3\n      swap2\n      pop\n      pop\n      jump\t// out\n        /* \"#utility.yul\":23674:23969   */\n    tag_371:\n        /* \"#utility.yul\":23750:23754   */\n      0x00\n        /* \"#utility.yul\":23896:23925   */\n      tag_638\n        /* \"#utility.yul\":23921:23924   */\n      dup4\n        /* \"#utility.yul\":23915:23919   */\n      dup4\n        /* \"#utility.yul\":23896:23925   */\n      tag_370\n      jump\t// in\n    tag_638:\n        /* \"#utility.yul\":23888:23925   */\n      swap2\n      pop\n        /* \"#utility.yul\":23958:23961   */\n      dup3\n        /* \"#utility.yul\":23955:23956   */\n      0x02\n        /* \"#utility.yul\":23951:23962   */\n      mul\n        /* \"#utility.yul\":23945:23949   */\n      dup3\n        /* \"#utility.yul\":23942:23963   */\n      or\n        /* \"#utility.yul\":23934:23963   */\n      swap1\n      pop\n        /* \"#utility.yul\":23674:23969   */\n      swap3\n      swap2\n      pop\n      pop\n      jump\t// out\n        /* \"#utility.yul\":23974:25369   */\n    tag_91:\n        /* \"#utility.yul\":24091:24128   */\n      tag_640\n        /* \"#utility.yul\":24124:24127   */\n      dup3\n        /* \"#utility.yul\":24091:24128   */\n      tag_335\n      jump\t// in\n    tag_640:\n        /* \"#utility.yul\":24193:24211   */\n      0xffffffffffffffff\n        /* \"#utility.yul\":24185:24191   */\n      dup2\n        /* \"#utility.yul\":24182:24212   */\n      gt\n        /* \"#utility.yul\":24179:24235   */\n      iszero\n      tag_641\n      jumpi\n        /* \"#utility.yul\":24215:24233   */\n      tag_642\n      tag_237\n      jump\t// in\n    tag_642:\n        /* \"#utility.yul\":24179:24235   */\n    tag_641:\n        /* \"#utility.yul\":24259:24297   */\n      tag_643\n        /* \"#utility.yul\":24291:24295   */\n      dup3\n        /* \"#utility.yul\":24285:24296   */\n      sload\n        /* \"#utility.yul\":24259:24297   */\n      tag_67\n      jump\t// in\n    tag_643:\n        /* \"#utility.yul\":24344:24411   */\n      tag_644\n        /* \"#utility.yul\":24404:24410   */\n      dup3\n        /* \"#utility.yul\":24396:24402   */\n      dup3\n        /* \"#utility.yul\":24390:24394   */\n      dup6\n        /* \"#utility.yul\":24344:24411   */\n      tag_368\n      jump\t// in\n    tag_644:\n        /* \"#utility.yul\":24438:24439   */\n      0x00\n        /* \"#utility.yul\":24462:24466   */\n      0x20\n        /* \"#utility.yul\":24449:24466   */\n      swap1\n      pop\n        /* \"#utility.yul\":24494:24496   */\n      0x1f\n        /* \"#utility.yul\":24486:24492   */\n      dup4\n        /* \"#utility.yul\":24483:24497   */\n      gt\n        /* \"#utility.yul\":24511:24512   */\n      0x01\n        /* \"#utility.yul\":24506:25124   */\n      dup2\n      eq\n      tag_646\n      jumpi\n        /* \"#utility.yul\":25168:25169   */\n      0x00\n        /* \"#utility.yul\":25185:25191   */\n      dup5\n        /* \"#utility.yul\":25182:25259   */\n      iszero\n      tag_647\n      jumpi\n        /* \"#utility.yul\":25234:25243   */\n      dup3\n        /* \"#utility.yul\":25229:25232   */\n      dup8\n        /* \"#utility.yul\":25225:25244   */\n      add\n        /* \"#utility.yul\":25219:25245   */\n      mload\n        /* \"#utility.yul\":25210:25245   */\n      swap1\n      pop\n        /* \"#utility.yul\":25182:25259   */\n    tag_647:\n        /* \"#utility.yul\":25285:25352   */\n      tag_648\n        /* \"#utility.yul\":25345:25351   */\n      dup6\n        /* \"#utility.yul\":25338:25343   */\n      dup3\n        /* \"#utility.yul\":25285:25352   */\n      tag_371\n      jump\t// in\n    tag_648:\n        /* \"#utility.yul\":25279:25283   */\n      dup7\n        /* \"#utility.yul\":25272:25353   */\n      sstore\n        /* \"#utility.yul\":25141:25363   */\n      pop\n        /* \"#utility.yul\":24476:25363   */\n      jump(tag_645)\n        /* \"#utility.yul\":24506:25124   */\n    tag_646:\n        /* \"#utility.yul\":24558:24562   */\n      0x1f\n        /* \"#utility.yul\":24554:24563   */\n      not\n        /* \"#utility.yul\":24546:24552   */\n      dup5\n        /* \"#utility.yul\":24542:24564   */\n      and\n        /* \"#utility.yul\":24592:24629   */\n      tag_649\n        /* \"#utility.yul\":24624:24628   */\n      dup7\n        /* \"#utility.yul\":24592:24629   */\n      tag_350\n      jump\t// in\n    tag_649:\n        /* \"#utility.yul\":24651:24652   */\n      0x00\n        /* \"#utility.yul\":24665:24873   */\n    tag_650:\n        /* \"#utility.yul\":24679:24686   */\n      dup3\n        /* \"#utility.yul\":24676:24677   */\n      dup2\n        /* \"#utility.yul\":24673:24687   */\n      lt\n        /* \"#utility.yul\":24665:24873   */\n      iszero\n      tag_652\n      jumpi\n        /* \"#utility.yul\":24758:24767   */\n      dup5\n        /* \"#utility.yul\":24753:24756   */\n      dup10\n        /* \"#utility.yul\":24749:24768   */\n      add\n        /* \"#utility.yul\":24743:24769   */\n      mload\n        /* \"#utility.yul\":24735:24741   */\n      dup3\n        /* \"#utility.yul\":24728:24770   */\n      sstore\n        /* \"#utility.yul\":24809:24810   */\n      0x01\n        /* \"#utility.yul\":24801:24807   */\n      dup3\n        /* \"#utility.yul\":24797:24811   */\n      add\n        /* \"#utility.yul\":24787:24811   */\n      swap2\n      pop\n        /* \"#utility.yul\":24856:24858   */\n      0x20\n        /* \"#utility.yul\":24845:24854   */\n      dup6\n        /* \"#utility.yul\":24841:24859   */\n      add\n        /* \"#utility.yul\":24828:24859   */\n      swap5\n      pop\n        /* \"#utility.yul\":24702:24706   */\n      0x20\n        /* \"#utility.yul\":24699:24700   */\n      dup2\n        /* \"#utility.yul\":24695:24707   */\n      add\n        /* \"#utility.yul\":24690:24707   */\n      swap1\n      pop\n        /* \"#utility.yul\":24665:24873   */\n      jump(tag_650)\n    tag_652:\n        /* \"#utility.yul\":24901:24907   */\n      dup7\n        /* \"#utility.yul\":24892:24899   */\n      dup4\n        /* \"#utility.yul\":24889:24908   */\n      lt\n        /* \"#utility.yul\":24886:25065   */\n      iszero\n      tag_653\n      jumpi\n        /* \"#utility.yul\":24959:24968   */\n      dup5\n        /* \"#utility.yul\":24954:24957   */\n      dup10\n        /* \"#utility.yul\":24950:24969   */\n      add\n        /* \"#utility.yul\":24944:24970   */\n      mload\n        /* \"#utility.yul\":25002:25050   */\n      tag_654\n        /* \"#utility.yul\":25044:25048   */\n      0x1f\n        /* \"#utility.yul\":25036:25042   */\n      dup10\n        /* \"#utility.yul\":25032:25049   */\n      and\n        /* \"#utility.yul\":25021:25030   */\n      dup3\n        /* \"#utility.yul\":25002:25050   */\n      tag_370\n      jump\t// in\n    tag_654:\n        /* \"#utility.yul\":24994:25000   */\n      dup4\n        /* \"#utility.yul\":24987:25051   */\n      sstore\n        /* \"#utility.yul\":24909:25065   */\n      pop\n        /* \"#utility.yul\":24886:25065   */\n    tag_653:\n        /* \"#utility.yul\":25111:25112   */\n      0x01\n        /* \"#utility.yul\":25107:25108   */\n      0x02\n        /* \"#utility.yul\":25099:25105   */\n      dup9\n        /* \"#utility.yul\":25095:25109   */\n      mul\n        /* \"#utility.yul\":25091:25113   */\n      add\n        /* \"#utility.yul\":25085:25089   */\n      dup9\n        /* \"#utility.yul\":25078:25114   */\n      sstore\n        /* \"#utility.yul\":24513:25124   */\n      pop\n      pop\n      pop\n        /* \"#utility.yul\":24476:25363   */\n    tag_645:\n      pop\n        /* \"#utility.yul\":24066:25369   */\n      pop\n      pop\n      pop\n        /* \"#utility.yul\":23974:25369   */\n      pop\n      pop\n      jump\t// out\n        /* \"#utility.yul\":25375:25545   */\n    tag_372:\n        /* \"#utility.yul\":25515:25537   */\n      0x496e76616c696420636f6d70616e792074797065000000000000000000000000\n        /* \"#utility.yul\":25511:25512   */\n      0x00\n        /* \"#utility.yul\":25503:25509   */\n      dup3\n        /* \"#utility.yul\":25499:25513   */\n      add\n        /* \"#utility.yul\":25492:25538   */\n      mstore\n        /* \"#utility.yul\":25375:25545   */\n      pop\n      jump\t// out\n        /* \"#utility.yul\":25551:25917   */\n    tag_373:\n        /* \"#utility.yul\":25693:25696   */\n      0x00\n        /* \"#utility.yul\":25714:25781   */\n      tag_657\n        /* \"#utility.yul\":25778:25780   */\n      0x14\n        /* \"#utility.yul\":25773:25776   */\n      dup4\n        /* \"#utility.yul\":25714:25781   */\n      tag_343\n      jump\t// in\n    tag_657:\n        /* \"#utility.yul\":25707:25781   */\n      swap2\n      pop\n        /* \"#utility.yul\":25790:25883   */\n      tag_658\n        /* \"#utility.yul\":25879:25882   */\n      dup3\n        /* \"#utility.yul\":25790:25883   */\n      tag_372\n      jump\t// in\n    tag_658:\n        /* \"#utility.yul\":25908:25910   */\n      0x20\n        /* \"#utility.yul\":25903:25906   */\n      dup3\n        /* \"#utility.yul\":25899:25911   */\n      add\n        /* \"#utility.yul\":25892:25911   */\n      swap1\n      pop\n        /* \"#utility.yul\":25551:25917   */\n      swap2\n      swap1\n      pop\n      jump\t// out\n        /* \"#utility.yul\":25923:26342   */\n    tag_99:\n        /* \"#utility.yul\":26089:26093   */\n      0x00\n        /* \"#utility.yul\":26127:26129   */\n      0x20\n        /* \"#utility.yul\":26116:26125   */\n      dup3\n        /* \"#utility.yul\":26112:26130   */\n      add\n        /* \"#utility.yul\":26104:26130   */\n      swap1\n      pop\n        /* \"#utility.yul\":26176:26185   */\n      dup2\n        /* \"#utility.yul\":26170:26174   */\n      dup2\n        /* \"#utility.yul\":26166:26186   */\n      sub\n        /* \"#utility.yul\":26162:26163   */\n      0x00\n        /* \"#utility.yul\":26151:26160   */\n      dup4\n        /* \"#utility.yul\":26147:26164   */\n      add\n        /* \"#utility.yul\":26140:26187   */\n      mstore\n        /* \"#utility.yul\":26204:26335   */\n      tag_660\n        /* \"#utility.yul\":26330:26334   */\n      dup2\n        /* \"#utility.yul\":26204:26335   */\n      tag_373\n      jump\t// in\n    tag_660:\n        /* \"#utility.yul\":26196:26335   */\n      swap1\n      pop\n        /* \"#utility.yul\":25923:26342   */\n      swap2\n      swap1\n      pop\n      jump\t// out\n        /* \"#utility.yul\":26348:26540   */\n    tag_374:\n        /* \"#utility.yul\":26517:26533   */\n      0x496e76616c69642053534e203a20000000000000000000000000000000000000\n        /* \"#utility.yul\":26512:26515   */\n      dup2\n        /* \"#utility.yul\":26505:26534   */\n      mstore\n        /* \"#utility.yul\":26348:26540   */\n      pop\n      jump\t// out\n        /* \"#utility.yul\":26546:27088   */\n    tag_101:\n        /* \"#utility.yul\":26769:26772   */\n      0x00\n        /* \"#utility.yul\":26784:26922   */\n      tag_663\n        /* \"#utility.yul\":26918:26921   */\n      dup3\n        /* \"#utility.yul\":26784:26922   */\n      tag_374\n      jump\t// in\n    tag_663:\n        /* \"#utility.yul\":26947:26949   */\n      0x0e\n        /* \"#utility.yul\":26942:26945   */\n      dup3\n        /* \"#utility.yul\":26938:26950   */\n      add\n        /* \"#utility.yul\":26931:26950   */\n      swap2\n      pop\n        /* \"#utility.yul\":26967:27062   */\n      tag_664\n        /* \"#utility.yul\":27058:27061   */\n      dup3\n        /* \"#utility.yul\":27049:27055   */\n      dup5\n        /* \"#utility.yul\":26967:27062   */\n      tag_357\n      jump\t// in\n    tag_664:\n        /* \"#utility.yul\":26960:27062   */\n      swap2\n      pop\n        /* \"#utility.yul\":27079:27082   */\n      dup2\n        /* \"#utility.yul\":27072:27082   */\n      swap1\n      pop\n        /* \"#utility.yul\":26546:27088   */\n      swap3\n      swap2\n      pop\n      pop\n      jump\t// out\n        /* \"#utility.yul\":27094:27256   */\n    tag_375:\n        /* \"#utility.yul\":27234:27248   */\n      0x496e76616c6964206e616d650000000000000000000000000000000000000000\n        /* \"#utility.yul\":27230:27231   */\n      0x00\n        /* \"#utility.yul\":27222:27228   */\n      dup3\n        /* \"#utility.yul\":27218:27232   */\n      add\n        /* \"#utility.yul\":27211:27249   */\n      mstore\n        /* \"#utility.yul\":27094:27256   */\n      pop\n      jump\t// out\n        /* \"#utility.yul\":27262:27628   */\n    tag_376:\n        /* \"#utility.yul\":27404:27407   */\n      0x00\n        /* \"#utility.yul\":27425:27492   */\n      tag_667\n        /* \"#utility.yul\":27489:27491   */\n      0x0c\n        /* \"#utility.yul\":27484:27487   */\n      dup4\n        /* \"#utility.yul\":27425:27492   */\n      tag_343\n      jump\t// in\n    tag_667:\n        /* \"#utility.yul\":27418:27492   */\n      swap2\n      pop\n        /* \"#utility.yul\":27501:27594   */\n      tag_668\n        /* \"#utility.yul\":27590:27593   */\n      dup3\n        /* \"#utility.yul\":27501:27594   */\n      tag_375\n      jump\t// in\n    tag_668:\n        /* \"#utility.yul\":27619:27621   */\n      0x20\n        /* \"#utility.yul\":27614:27617   */\n      dup3\n        /* \"#utility.yul\":27610:27622   */\n      add\n        /* \"#utility.yul\":27603:27622   */\n      swap1\n      pop\n        /* \"#utility.yul\":27262:27628   */\n      swap2\n      swap1\n      pop\n      jump\t// out\n        /* \"#utility.yul\":27634:28053   */\n    tag_106:\n        /* \"#utility.yul\":27800:27804   */\n      0x00\n        /* \"#utility.yul\":27838:27840   */\n      0x20\n        /* \"#utility.yul\":27827:27836   */\n      dup3\n        /* \"#utility.yul\":27823:27841   */\n      add\n        /* \"#utility.yul\":27815:27841   */\n      swap1\n      pop\n        /* \"#utility.yul\":27887:27896   */\n      dup2\n        /* \"#utility.yul\":27881:27885   */\n      dup2\n        /* \"#utility.yul\":27877:27897   */\n      sub\n        /* \"#utility.yul\":27873:27874   */\n      0x00\n        /* \"#utility.yul\":27862:27871   */\n      dup4\n        /* \"#utility.yul\":27858:27875   */\n      add\n        /* \"#utility.yul\":27851:27898   */\n      mstore\n        /* \"#utility.yul\":27915:28046   */\n      tag_670\n        /* \"#utility.yul\":28041:28045   */\n      dup2\n        /* \"#utility.yul\":27915:28046   */\n      tag_376\n      jump\t// in\n    tag_670:\n        /* \"#utility.yul\":27907:28046   */\n      swap1\n      pop\n        /* \"#utility.yul\":27634:28053   */\n      swap2\n      swap1\n      pop\n      jump\t// out\n        /* \"#utility.yul\":28059:28224   */\n    tag_377:\n        /* \"#utility.yul\":28199:28216   */\n      0x496e76616c696420616464726573730000000000000000000000000000000000\n        /* \"#utility.yul\":28195:28196   */\n      0x00\n        /* \"#utility.yul\":28187:28193   */\n      dup3\n        /* \"#utility.yul\":28183:28197   */\n      add\n        /* \"#utility.yul\":28176:28217   */\n      mstore\n        /* \"#utility.yul\":28059:28224   */\n      pop\n      jump\t// out\n        /* \"#utility.yul\":28230:28596   */\n    tag_378:\n        /* \"#utility.yul\":28372:28375   */\n      0x00\n        /* \"#utility.yul\":28393:28460   */\n      tag_673\n        /* \"#utility.yul\":28457:28459   */\n      0x0f\n        /* \"#utility.yul\":28452:28455   */\n      dup4\n        /* \"#utility.yul\":28393:28460   */\n      tag_343\n      jump\t// in\n    tag_673:\n        /* \"#utility.yul\":28386:28460   */\n      swap2\n      pop\n        /* \"#utility.yul\":28469:28562   */\n      tag_674\n        /* \"#utility.yul\":28558:28561   */\n      dup3\n        /* \"#utility.yul\":28469:28562   */\n      tag_377\n      jump\t// in\n    tag_674:\n        /* \"#utility.yul\":28587:28589   */\n      0x20\n        /* \"#utility.yul\":28582:28585   */\n      dup3\n        /* \"#utility.yul\":28578:28590   */\n      add\n        /* \"#utility.yul\":28571:28590   */\n      swap1\n      pop\n        /* \"#utility.yul\":28230:28596   */\n      swap2\n      swap1\n      pop\n      jump\t// out\n        /* \"#utility.yul\":28602:29021   */\n    tag_109:\n        /* \"#utility.yul\":28768:28772   */\n      0x00\n        /* \"#utility.yul\":28806:28808   */\n      0x20\n        /* \"#utility.yul\":28795:28804   */\n      dup3\n        /* \"#utility.yul\":28791:28809   */\n      add\n        /* \"#utility.yul\":28783:28809   */\n      swap1\n      pop\n        /* \"#utility.yul\":28855:28864   */\n      dup2\n        /* \"#utility.yul\":28849:28853   */\n      dup2\n        /* \"#utility.yul\":28845:28865   */\n      sub\n        /* \"#utility.yul\":28841:28842   */\n      0x00\n        /* \"#utility.yul\":28830:28839   */\n      dup4\n        /* \"#utility.yul\":28826:28843   */\n      add\n        /* \"#utility.yul\":28819:28866   */\n      mstore\n        /* \"#utility.yul\":28883:29014   */\n      tag_676\n        /* \"#utility.yul\":29009:29013   */\n      dup2\n        /* \"#utility.yul\":28883:29014   */\n      tag_378\n      jump\t// in\n    tag_676:\n        /* \"#utility.yul\":28875:29014   */\n      swap1\n      pop\n        /* \"#utility.yul\":28602:29021   */\n      swap2\n      swap1\n      pop\n      jump\t// out\n        /* \"#utility.yul\":29027:29195   */\n    tag_379:\n        /* \"#utility.yul\":29167:29187   */\n      0x50617373776f726420746f6f2073686f72740000000000000000000000000000\n        /* \"#utility.yul\":29163:29164   */\n      0x00\n        /* \"#utility.yul\":29155:29161   */\n      dup3\n        /* \"#utility.yul\":29151:29165   */\n      add\n        /* \"#utility.yul\":29144:29188   */\n      mstore\n        /* \"#utility.yul\":29027:29195   */\n      pop\n      jump\t// out\n        /* \"#utility.yul\":29201:29567   */\n    tag_380:\n        /* \"#utility.yul\":29343:29346   */\n      0x00\n        /* \"#utility.yul\":29364:29431   */\n      tag_679\n        /* \"#utility.yul\":29428:29430   */\n      0x12\n        /* \"#utility.yul\":29423:29426   */\n      dup4\n        /* \"#utility.yul\":29364:29431   */\n      tag_343\n      jump\t// in\n    tag_679:\n        /* \"#utility.yul\":29357:29431   */\n      swap2\n      pop\n        /* \"#utility.yul\":29440:29533   */\n      tag_680\n        /* \"#utility.yul\":29529:29532   */\n      dup3\n        /* \"#utility.yul\":29440:29533   */\n      tag_379\n      jump\t// in\n    tag_680:\n        /* \"#utility.yul\":29558:29560   */\n      0x20\n        /* \"#utility.yul\":29553:29556   */\n      dup3\n        /* \"#utility.yul\":29549:29561   */\n      add\n        /* \"#utility.yul\":29542:29561   */\n      swap1\n      pop\n        /* \"#utility.yul\":29201:29567   */\n      swap2\n      swap1\n      pop\n      jump\t// out\n        /* \"#utility.yul\":29573:29992   */\n    tag_112:\n        /* \"#utility.yul\":29739:29743   */\n      0x00\n        /* \"#utility.yul\":29777:29779   */\n      0x20\n        /* \"#utility.yul\":29766:29775   */\n      dup3\n        /* \"#utility.yul\":29762:29780   */\n      add\n        /* \"#utility.yul\":29754:29780   */\n      swap1\n      pop\n        /* \"#utility.yul\":29826:29835   */\n      dup2\n        /* \"#utility.yul\":29820:29824   */\n      dup2\n        /* \"#utility.yul\":29816:29836   */\n      sub\n        /* \"#utility.yul\":29812:29813   */\n      0x00\n        /* \"#utility.yul\":29801:29810   */\n      dup4\n        /* \"#utility.yul\":29797:29814   */\n      add\n        /* \"#utility.yul\":29790:29837   */\n      mstore\n        /* \"#utility.yul\":29854:29985   */\n      tag_682\n        /* \"#utility.yul\":29980:29984   */\n      dup2\n        /* \"#utility.yul\":29854:29985   */\n      tag_380\n      jump\t// in\n    tag_682:\n        /* \"#utility.yul\":29846:29985   */\n      swap1\n      pop\n        /* \"#utility.yul\":29573:29992   */\n      swap2\n      swap1\n      pop\n      jump\t// out\n        /* \"#utility.yul\":29998:30170   */\n    tag_381:\n        /* \"#utility.yul\":30138:30162   */\n      0x50686f6e65206e756d62657220746f6f2073686f727400000000000000000000\n        /* \"#utility.yul\":30134:30135   */\n      0x00\n        /* \"#utility.yul\":30126:30132   */\n      dup3\n        /* \"#utility.yul\":30122:30136   */\n      add\n        /* \"#utility.yul\":30115:30163   */\n      mstore\n        /* \"#utility.yul\":29998:30170   */\n      pop\n      jump\t// out\n        /* \"#utility.yul\":30176:30542   */\n    tag_382:\n        /* \"#utility.yul\":30318:30321   */\n      0x00\n        /* \"#utility.yul\":30339:30406   */\n      tag_685\n        /* \"#utility.yul\":30403:30405   */\n      0x16\n        /* \"#utility.yul\":30398:30401   */\n      dup4\n        /* \"#utility.yul\":30339:30406   */\n      tag_343\n      jump\t// in\n    tag_685:\n        /* \"#utility.yul\":30332:30406   */\n      swap2\n      pop\n        /* \"#utility.yul\":30415:30508   */\n      tag_686\n        /* \"#utility.yul\":30504:30507   */\n      dup3\n        /* \"#utility.yul\":30415:30508   */\n      tag_381\n      jump\t// in\n    tag_686:\n        /* \"#utility.yul\":30533:30535   */\n      0x20\n        /* \"#utility.yul\":30528:30531   */\n      dup3\n        /* \"#utility.yul\":30524:30536   */\n      add\n        /* \"#utility.yul\":30517:30536   */\n      swap1\n      pop\n        /* \"#utility.yul\":30176:30542   */\n      swap2\n      swap1\n      pop\n      jump\t// out\n        /* \"#utility.yul\":30548:30967   */\n    tag_115:\n        /* \"#utility.yul\":30714:30718   */\n      0x00\n        /* \"#utility.yul\":30752:30754   */\n      0x20\n        /* \"#utility.yul\":30741:30750   */\n      dup3\n        /* \"#utility.yul\":30737:30755   */\n      add\n        /* \"#utility.yul\":30729:30755   */\n      swap1\n      pop\n        /* \"#utility.yul\":30801:30810   */\n      dup2\n        /* \"#utility.yul\":30795:30799   */\n      dup2\n        /* \"#utility.yul\":30791:30811   */\n      sub\n        /* \"#utility.yul\":30787:30788   */\n      0x00\n        /* \"#utility.yul\":30776:30785   */\n      dup4\n        /* \"#utility.yul\":30772:30789   */\n      add\n        /* \"#utility.yul\":30765:30812   */\n      mstore\n        /* \"#utility.yul\":30829:30960   */\n      tag_688\n        /* \"#utility.yul\":30955:30959   */\n      dup2\n        /* \"#utility.yul\":30829:30960   */\n      tag_382\n      jump\t// in\n    tag_688:\n        /* \"#utility.yul\":30821:30960   */\n      swap1\n      pop\n        /* \"#utility.yul\":30548:30967   */\n      swap2\n      swap1\n      pop\n      jump\t// out\n        /* \"#utility.yul\":30973:32048   */\n    tag_118:\n        /* \"#utility.yul\":31345:31348   */\n      0x00\n        /* \"#utility.yul\":31367:31462   */\n      tag_690\n        /* \"#utility.yul\":31458:31461   */\n      dup3\n        /* \"#utility.yul\":31449:31455   */\n      dup10\n        /* \"#utility.yul\":31367:31462   */\n      tag_357\n      jump\t// in\n    tag_690:\n        /* \"#utility.yul\":31360:31462   */\n      swap2\n      pop\n        /* \"#utility.yul\":31479:31574   */\n      tag_691\n        /* \"#utility.yul\":31570:31573   */\n      dup3\n        /* \"#utility.yul\":31561:31567   */\n      dup9\n        /* \"#utility.yul\":31479:31574   */\n      tag_357\n      jump\t// in\n    tag_691:\n        /* \"#utility.yul\":31472:31574   */\n      swap2\n      pop\n        /* \"#utility.yul\":31591:31686   */\n      tag_692\n        /* \"#utility.yul\":31682:31685   */\n      dup3\n        /* \"#utility.yul\":31673:31679   */\n      dup8\n        /* \"#utility.yul\":31591:31686   */\n      tag_357\n      jump\t// in\n    tag_692:\n        /* \"#utility.yul\":31584:31686   */\n      swap2\n      pop\n        /* \"#utility.yul\":31703:31798   */\n      tag_693\n        /* \"#utility.yul\":31794:31797   */\n      dup3\n        /* \"#utility.yul\":31785:31791   */\n      dup7\n        /* \"#utility.yul\":31703:31798   */\n      tag_357\n      jump\t// in\n    tag_693:\n        /* \"#utility.yul\":31696:31798   */\n      swap2\n      pop\n        /* \"#utility.yul\":31815:31910   */\n      tag_694\n        /* \"#utility.yul\":31906:31909   */\n      dup3\n        /* \"#utility.yul\":31897:31903   */\n      dup6\n        /* \"#utility.yul\":31815:31910   */\n      tag_357\n      jump\t// in\n    tag_694:\n        /* \"#utility.yul\":31808:31910   */\n      swap2\n      pop\n        /* \"#utility.yul\":31927:32022   */\n      tag_695\n        /* \"#utility.yul\":32018:32021   */\n      dup3\n        /* \"#utility.yul\":32009:32015   */\n      dup5\n        /* \"#utility.yul\":31927:32022   */\n      tag_357\n      jump\t// in\n    tag_695:\n        /* \"#utility.yul\":31920:32022   */\n      swap2\n      pop\n        /* \"#utility.yul\":32039:32042   */\n      dup2\n        /* \"#utility.yul\":32032:32042   */\n      swap1\n      pop\n        /* \"#utility.yul\":30973:32048   */\n      swap8\n      swap7\n      pop\n      pop\n      pop\n      pop\n      pop\n      pop\n      pop\n      jump\t// out\n        /* \"#utility.yul\":32054:32152   */\n    tag_383:\n        /* \"#utility.yul\":32105:32111   */\n      0x00\n        /* \"#utility.yul\":32139:32144   */\n      dup2\n        /* \"#utility.yul\":32133:32145   */\n      mload\n        /* \"#utility.yul\":32123:32145   */\n      swap1\n      pop\n        /* \"#utility.yul\":32054:32152   */\n      swap2\n      swap1\n      pop\n      jump\t// out\n        /* \"#utility.yul\":32158:32334   */\n    tag_384:\n        /* \"#utility.yul\":32249:32260   */\n      0x00\n        /* \"#utility.yul\":32283:32289   */\n      dup3\n        /* \"#utility.yul\":32278:32281   */\n      dup3\n        /* \"#utility.yul\":32271:32290   */\n      mstore\n        /* \"#utility.yul\":32323:32327   */\n      0x20\n        /* \"#utility.yul\":32318:32321   */\n      dup3\n        /* \"#utility.yul\":32314:32328   */\n      add\n        /* \"#utility.yul\":32299:32328   */\n      swap1\n      pop\n        /* \"#utility.yul\":32158:32334   */\n      swap3\n      swap2\n      pop\n      pop\n      jump\t// out\n        /* \"#utility.yul\":32340:32729   */\n    tag_385:\n        /* \"#utility.yul\":32434:32437   */\n      0x00\n        /* \"#utility.yul\":32462:32500   */\n      tag_699\n        /* \"#utility.yul\":32494:32499   */\n      dup3\n        /* \"#utility.yul\":32462:32500   */\n      tag_383\n      jump\t// in\n    tag_699:\n        /* \"#utility.yul\":32516:32594   */\n      tag_700\n        /* \"#utility.yul\":32587:32593   */\n      dup2\n        /* \"#utility.yul\":32582:32585   */\n      dup6\n        /* \"#utility.yul\":32516:32594   */\n      tag_384\n      jump\t// in\n    tag_700:\n        /* \"#utility.yul\":32509:32594   */\n      swap4\n      pop\n        /* \"#utility.yul\":32603:32668   */\n      tag_701\n        /* \"#utility.yul\":32661:32667   */\n      dup2\n        /* \"#utility.yul\":32656:32659   */\n      dup6\n        /* \"#utility.yul\":32649:32653   */\n      0x20\n        /* \"#utility.yul\":32642:32647   */\n      dup7\n        /* \"#utility.yul\":32638:32654   */\n      add\n        /* \"#utility.yul\":32603:32668   */\n      tag_337\n      jump\t// in\n    tag_701:\n        /* \"#utility.yul\":32693:32722   */\n      tag_702\n        /* \"#utility.yul\":32715:32721   */\n      dup2\n        /* \"#utility.yul\":32693:32722   */\n      tag_323\n      jump\t// in\n    tag_702:\n        /* \"#utility.yul\":32688:32691   */\n      dup5\n        /* \"#utility.yul\":32684:32723   */\n      add\n        /* \"#utility.yul\":32677:32723   */\n      swap2\n      pop\n        /* \"#utility.yul\":32438:32729   */\n      pop\n        /* \"#utility.yul\":32340:32729   */\n      swap3\n      swap2\n      pop\n      pop\n      jump\t// out\n        /* \"#utility.yul\":32735:33265   */\n    tag_122:\n        /* \"#utility.yul\":32900:32904   */\n      0x00\n        /* \"#utility.yul\":32938:32940   */\n      0x40\n        /* \"#utility.yul\":32927:32936   */\n      dup3\n        /* \"#utility.yul\":32923:32941   */\n      add\n        /* \"#utility.yul\":32915:32941   */\n      swap1\n      pop\n        /* \"#utility.yul\":32987:32996   */\n      dup2\n        /* \"#utility.yul\":32981:32985   */\n      dup2\n        /* \"#utility.yul\":32977:32997   */\n      sub\n        /* \"#utility.yul\":32973:32974   */\n      0x00\n        /* \"#utility.yul\":32962:32971   */\n      dup4\n        /* \"#utility.yul\":32958:32975   */\n      add\n        /* \"#utility.yul\":32951:32998   */\n      mstore\n        /* \"#utility.yul\":33015:33099   */\n      tag_704\n        /* \"#utility.yul\":33094:33098   */\n      dup2\n        /* \"#utility.yul\":33085:33091   */\n      dup6\n        /* \"#utility.yul\":33015:33099   */\n      tag_385\n      jump\t// in\n    tag_704:\n        /* \"#utility.yul\":33007:33099   */\n      swap1\n      pop\n        /* \"#utility.yul\":33146:33155   */\n      dup2\n        /* \"#utility.yul\":33140:33144   */\n      dup2\n        /* \"#utility.yul\":33136:33156   */\n      sub\n        /* \"#utility.yul\":33131:33133   */\n      0x20\n        /* \"#utility.yul\":33120:33129   */\n      dup4\n        /* \"#utility.yul\":33116:33134   */\n      add\n        /* \"#utility.yul\":33109:33157   */\n      mstore\n        /* \"#utility.yul\":33174:33258   */\n      tag_705\n        /* \"#utility.yul\":33253:33257   */\n      dup2\n        /* \"#utility.yul\":33244:33250   */\n      dup5\n        /* \"#utility.yul\":33174:33258   */\n      tag_385\n      jump\t// in\n    tag_705:\n        /* \"#utility.yul\":33166:33258   */\n      swap1\n      pop\n        /* \"#utility.yul\":32735:33265   */\n      swap4\n      swap3\n      pop\n      pop\n      pop\n      jump\t// out\n        /* \"#utility.yul\":33271:33578   */\n    tag_386:\n        /* \"#utility.yul\":33332:33336   */\n      0x00\n        /* \"#utility.yul\":33422:33440   */\n      0xffffffffffffffff\n        /* \"#utility.yul\":33414:33420   */\n      dup3\n        /* \"#utility.yul\":33411:33441   */\n      gt\n        /* \"#utility.yul\":33408:33464   */\n      iszero\n      tag_707\n      jumpi\n        /* \"#utility.yul\":33444:33462   */\n      tag_708\n      tag_237\n      jump\t// in\n    tag_708:\n        /* \"#utility.yul\":33408:33464   */\n    tag_707:\n        /* \"#utility.yul\":33482:33511   */\n      tag_709\n        /* \"#utility.yul\":33504:33510   */\n      dup3\n        /* \"#utility.yul\":33482:33511   */\n      tag_323\n      jump\t// in\n    tag_709:\n        /* \"#utility.yul\":33474:33511   */\n      swap1\n      pop\n        /* \"#utility.yul\":33566:33570   */\n      0x20\n        /* \"#utility.yul\":33560:33564   */\n      dup2\n        /* \"#utility.yul\":33556:33571   */\n      add\n        /* \"#utility.yul\":33548:33571   */\n      swap1\n      pop\n        /* \"#utility.yul\":33271:33578   */\n      swap2\n      swap1\n      pop\n      jump\t// out\n        /* \"#utility.yul\":33584:34016   */\n    tag_387:\n        /* \"#utility.yul\":33672:33677   */\n      0x00\n        /* \"#utility.yul\":33697:33762   */\n      tag_711\n        /* \"#utility.yul\":33713:33761   */\n      tag_712\n        /* \"#utility.yul\":33754:33760   */\n      dup5\n        /* \"#utility.yul\":33713:33761   */\n      tag_386\n      jump\t// in\n    tag_712:\n        /* \"#utility.yul\":33697:33762   */\n      tag_325\n      jump\t// in\n    tag_711:\n        /* \"#utility.yul\":33688:33762   */\n      swap1\n      pop\n        /* \"#utility.yul\":33785:33791   */\n      dup3\n        /* \"#utility.yul\":33778:33783   */\n      dup2\n        /* \"#utility.yul\":33771:33792   */\n      mstore\n        /* \"#utility.yul\":33823:33827   */\n      0x20\n        /* \"#utility.yul\":33816:33821   */\n      dup2\n        /* \"#utility.yul\":33812:33828   */\n      add\n        /* \"#utility.yul\":33861:33864   */\n      dup5\n        /* \"#utility.yul\":33852:33858   */\n      dup5\n        /* \"#utility.yul\":33847:33850   */\n      dup5\n        /* \"#utility.yul\":33843:33859   */\n      add\n        /* \"#utility.yul\":33840:33865   */\n      gt\n        /* \"#utility.yul\":33837:33949   */\n      iszero\n      tag_713\n      jumpi\n        /* \"#utility.yul\":33868:33947   */\n      tag_714\n      tag_322\n      jump\t// in\n    tag_714:\n        /* \"#utility.yul\":33837:33949   */\n    tag_713:\n        /* \"#utility.yul\":33958:34010   */\n      tag_715\n        /* \"#utility.yul\":34003:34009   */\n      dup5\n        /* \"#utility.yul\":33998:34001   */\n      dup3\n        /* \"#utility.yul\":33993:33996   */\n      dup6\n        /* \"#utility.yul\":33958:34010   */\n      tag_337\n      jump\t// in\n    tag_715:\n        /* \"#utility.yul\":33678:34016   */\n      pop\n        /* \"#utility.yul\":33584:34016   */\n      swap4\n      swap3\n      pop\n      pop\n      pop\n      jump\t// out\n        /* \"#utility.yul\":34035:34388   */\n    tag_388:\n        /* \"#utility.yul\":34101:34106   */\n      0x00\n        /* \"#utility.yul\":34150:34153   */\n      dup3\n        /* \"#utility.yul\":34143:34147   */\n      0x1f\n        /* \"#utility.yul\":34135:34141   */\n      dup4\n        /* \"#utility.yul\":34131:34148   */\n      add\n        /* \"#utility.yul\":34127:34154   */\n      slt\n        /* \"#utility.yul\":34117:34239   */\n      tag_717\n      jumpi\n        /* \"#utility.yul\":34158:34237   */\n      tag_718\n      tag_321\n      jump\t// in\n    tag_718:\n        /* \"#utility.yul\":34117:34239   */\n    tag_717:\n        /* \"#utility.yul\":34268:34274   */\n      dup2\n        /* \"#utility.yul\":34262:34275   */\n      mload\n        /* \"#utility.yul\":34293:34382   */\n      tag_719\n        /* \"#utility.yul\":34378:34381   */\n      dup5\n        /* \"#utility.yul\":34370:34376   */\n      dup3\n        /* \"#utility.yul\":34363:34367   */\n      0x20\n        /* \"#utility.yul\":34355:34361   */\n      dup7\n        /* \"#utility.yul\":34351:34368   */\n      add\n        /* \"#utility.yul\":34293:34382   */\n      tag_387\n      jump\t// in\n    tag_719:\n        /* \"#utility.yul\":34284:34382   */\n      swap2\n      pop\n        /* \"#utility.yul\":34107:34388   */\n      pop\n        /* \"#utility.yul\":34035:34388   */\n      swap3\n      swap2\n      pop\n      pop\n      jump\t// out\n        /* \"#utility.yul\":34394:34916   */\n    tag_126:\n        /* \"#utility.yul\":34473:34479   */\n      0x00\n        /* \"#utility.yul\":34522:34524   */\n      0x20\n        /* \"#utility.yul\":34510:34519   */\n      dup3\n        /* \"#utility.yul\":34501:34508   */\n      dup5\n        /* \"#utility.yul\":34497:34520   */\n      sub\n        /* \"#utility.yul\":34493:34525   */\n      slt\n        /* \"#utility.yul\":34490:34609   */\n      iszero\n      tag_721\n      jumpi\n        /* \"#utility.yul\":34528:34607   */\n      tag_722\n      tag_310\n      jump\t// in\n    tag_722:\n        /* \"#utility.yul\":34490:34609   */\n    tag_721:\n        /* \"#utility.yul\":34669:34670   */\n      0x00\n        /* \"#utility.yul\":34658:34667   */\n      dup3\n        /* \"#utility.yul\":34654:34671   */\n      add\n        /* \"#utility.yul\":34648:34672   */\n      mload\n        /* \"#utility.yul\":34699:34717   */\n      0xffffffffffffffff\n        /* \"#utility.yul\":34691:34697   */\n      dup2\n        /* \"#utility.yul\":34688:34718   */\n      gt\n        /* \"#utility.yul\":34685:34802   */\n      iszero\n      tag_723\n      jumpi\n        /* \"#utility.yul\":34721:34800   */\n      tag_724\n      tag_311\n      jump\t// in\n    tag_724:\n        /* \"#utility.yul\":34685:34802   */\n    tag_723:\n        /* \"#utility.yul\":34826:34899   */\n      tag_725\n        /* \"#utility.yul\":34891:34898   */\n      dup5\n        /* \"#utility.yul\":34882:34888   */\n      dup3\n        /* \"#utility.yul\":34871:34880   */\n      dup6\n        /* \"#utility.yul\":34867:34889   */\n      add\n        /* \"#utility.yul\":34826:34899   */\n      tag_388\n      jump\t// in\n    tag_725:\n        /* \"#utility.yul\":34816:34899   */\n      swap2\n      pop\n        /* \"#utility.yul\":34619:34909   */\n      pop\n        /* \"#utility.yul\":34394:34916   */\n      swap3\n      swap2\n      pop\n      pop\n      jump\t// out\n        /* \"#utility.yul\":34922:35155   */\n    tag_164:\n        /* \"#utility.yul\":34961:34964   */\n      0x00\n        /* \"#utility.yul\":34984:35008   */\n      tag_727\n        /* \"#utility.yul\":35002:35007   */\n      dup3\n        /* \"#utility.yul\":34984:35008   */\n      tag_315\n      jump\t// in\n    tag_727:\n        /* \"#utility.yul\":34975:35008   */\n      swap2\n      pop\n        /* \"#utility.yul\":35030:35096   */\n      0xffffffffffffffffffffffffffffffffffffffffffffffffffffffffffffffff\n        /* \"#utility.yul\":35023:35028   */\n      dup3\n        /* \"#utility.yul\":35020:35097   */\n      sub\n        /* \"#utility.yul\":35017:35120   */\n      tag_728\n      jumpi\n        /* \"#utility.yul\":35100:35118   */\n      tag_729\n      tag_346\n      jump\t// in\n    tag_729:\n        /* \"#utility.yul\":35017:35120   */\n    tag_728:\n        /* \"#utility.yul\":35147:35148   */\n      0x01\n        /* \"#utility.yul\":35140:35145   */\n      dup3\n        /* \"#utility.yul\":35136:35149   */\n      add\n        /* \"#utility.yul\":35129:35149   */\n      swap1\n      pop\n        /* \"#utility.yul\":34922:35155   */\n      swap2\n      swap1\n      pop\n      jump\t// out\n        /* \"#utility.yul\":35161:35305   */\n    tag_389:\n        /* \"#utility.yul\":35213:35217   */\n      0x00\n        /* \"#utility.yul\":35236:35239   */\n      dup2\n        /* \"#utility.yul\":35228:35239   */\n      swap1\n      pop\n        /* \"#utility.yul\":35259:35262   */\n      dup2\n        /* \"#utility.yul\":35256:35257   */\n      0x00\n        /* \"#utility.yul\":35249:35263   */\n      mstore\n        /* \"#utility.yul\":35293:35297   */\n      0x20\n        /* \"#utility.yul\":35290:35291   */\n      0x00\n        /* \"#utility.yul\":35280:35298   */\n      keccak256\n        /* \"#utility.yul\":35272:35298   */\n      swap1\n      pop\n        /* \"#utility.yul\":35161:35305   */\n      swap2\n      swap1\n      pop\n      jump\t// out\n        /* \"#utility.yul\":35333:36184   */\n    tag_390:\n        /* \"#utility.yul\":35428:35431   */\n      0x00\n        /* \"#utility.yul\":35465:35470   */\n      dup2\n        /* \"#utility.yul\":35459:35471   */\n      sload\n        /* \"#utility.yul\":35494:35530   */\n      tag_732\n        /* \"#utility.yul\":35520:35529   */\n      dup2\n        /* \"#utility.yul\":35494:35530   */\n      tag_67\n      jump\t// in\n    tag_732:\n        /* \"#utility.yul\":35546:35624   */\n      tag_733\n        /* \"#utility.yul\":35617:35623   */\n      dup2\n        /* \"#utility.yul\":35612:35615   */\n      dup7\n        /* \"#utility.yul\":35546:35624   */\n      tag_384\n      jump\t// in\n    tag_733:\n        /* \"#utility.yul\":35539:35624   */\n      swap5\n      pop\n        /* \"#utility.yul\":35655:35656   */\n      0x01\n        /* \"#utility.yul\":35644:35653   */\n      dup3\n        /* \"#utility.yul\":35640:35657   */\n      and\n        /* \"#utility.yul\":35671:35672   */\n      0x00\n        /* \"#utility.yul\":35666:35830   */\n      dup2\n      eq\n      tag_735\n      jumpi\n        /* \"#utility.yul\":35844:35845   */\n      0x01\n        /* \"#utility.yul\":35839:36178   */\n      dup2\n      eq\n      tag_736\n      jumpi\n        /* \"#utility.yul\":35633:36178   */\n      jump(tag_734)\n        /* \"#utility.yul\":35666:35830   */\n    tag_735:\n        /* \"#utility.yul\":35750:35754   */\n      0xff\n        /* \"#utility.yul\":35746:35755   */\n      not\n        /* \"#utility.yul\":35735:35744   */\n      dup4\n        /* \"#utility.yul\":35731:35756   */\n      and\n        /* \"#utility.yul\":35726:35729   */\n      dup7\n        /* \"#utility.yul\":35719:35757   */\n      mstore\n        /* \"#utility.yul\":35810:35816   */\n      dup2\n        /* \"#utility.yul\":35803:35817   */\n      iszero\n        /* \"#utility.yul\":35796:35818   */\n      iszero\n        /* \"#utility.yul\":35790:35794   */\n      0x20\n        /* \"#utility.yul\":35786:35819   */\n      mul\n        /* \"#utility.yul\":35781:35784   */\n      dup7\n        /* \"#utility.yul\":35777:35820   */\n      add\n        /* \"#utility.yul\":35770:35820   */\n      swap4\n      pop\n        /* \"#utility.yul\":35666:35830   */\n      jump(tag_734)\n        /* \"#utility.yul\":35839:36178   */\n    tag_736:\n        /* \"#utility.yul\":35906:35947   */\n      tag_737\n        /* \"#utility.yul\":35941:35946   */\n      dup6\n        /* \"#utility.yul\":35906:35947   */\n      tag_389\n      jump\t// in\n    tag_737:\n        /* \"#utility.yul\":35969:35970   */\n      0x00\n        /* \"#utility.yul\":35983:36137   */\n    tag_738:\n        /* \"#utility.yul\":35997:36003   */\n      dup4\n        /* \"#utility.yul\":35994:35995   */\n      dup2\n        /* \"#utility.yul\":35991:36004   */\n      lt\n        /* \"#utility.yul\":35983:36137   */\n      iszero\n      tag_740\n      jumpi\n        /* \"#utility.yul\":36071:36078   */\n      dup2\n        /* \"#utility.yul\":36065:36079   */\n      sload\n        /* \"#utility.yul\":36061:36062   */\n      dup2\n        /* \"#utility.yul\":36056:36059   */\n      dup10\n        /* \"#utility.yul\":36052:36063   */\n      add\n        /* \"#utility.yul\":36045:36080   */\n      mstore\n        /* \"#utility.yul\":36121:36122   */\n      0x01\n        /* \"#utility.yul\":36112:36119   */\n      dup3\n        /* \"#utility.yul\":36108:36123   */\n      add\n        /* \"#utility.yul\":36097:36123   */\n      swap2\n      pop\n        /* \"#utility.yul\":36019:36023   */\n      0x20\n        /* \"#utility.yul\":36016:36017   */\n      dup2\n        /* \"#utility.yul\":36012:36024   */\n      add\n        /* \"#utility.yul\":36007:36024   */\n      swap1\n      pop\n        /* \"#utility.yul\":35983:36137   */\n      jump(tag_738)\n    tag_740:\n        /* \"#utility.yul\":36166:36167   */\n      dup1\n        /* \"#utility.yul\":36161:36164   */\n      dup9\n        /* \"#utility.yul\":36157:36168   */\n      add\n        /* \"#utility.yul\":36150:36168   */\n      swap6\n      pop\n        /* \"#utility.yul\":35846:36178   */\n      pop\n      pop\n        /* \"#utility.yul\":35633:36178   */\n    tag_734:\n      pop\n        /* \"#utility.yul\":35432:36184   */\n      pop\n      pop\n        /* \"#utility.yul\":35333:36184   */\n      swap3\n      swap2\n      pop\n      pop\n      jump\t// out\n        /* \"#utility.yul\":36190:36722   */\n    tag_178:\n        /* \"#utility.yul\":36356:36360   */\n      0x00\n        /* \"#utility.yul\":36394:36396   */\n      0x40\n        /* \"#utility.yul\":36383:36392   */\n      dup3\n        /* \"#utility.yul\":36379:36397   */\n      add\n        /* \"#utility.yul\":36371:36397   */\n      swap1\n      pop\n        /* \"#utility.yul\":36443:36452   */\n      dup2\n        /* \"#utility.yul\":36437:36441   */\n      dup2\n        /* \"#utility.yul\":36433:36453   */\n      sub\n        /* \"#utility.yul\":36429:36430   */\n      0x00\n        /* \"#utility.yul\":36418:36427   */\n      dup4\n        /* \"#utility.yul\":36414:36431   */\n      add\n        /* \"#utility.yul\":36407:36454   */\n      mstore\n        /* \"#utility.yul\":36471:36556   */\n      tag_742\n        /* \"#utility.yul\":36551:36555   */\n      dup2\n        /* \"#utility.yul\":36542:36548   */\n      dup6\n        /* \"#utility.yul\":36471:36556   */\n      tag_390\n      jump\t// in\n    tag_742:\n        /* \"#utility.yul\":36463:36556   */\n      swap1\n      pop\n        /* \"#utility.yul\":36603:36612   */\n      dup2\n        /* \"#utility.yul\":36597:36601   */\n      dup2\n        /* \"#utility.yul\":36593:36613   */\n      sub\n        /* \"#utility.yul\":36588:36590   */\n      0x20\n        /* \"#utility.yul\":36577:36586   */\n      dup4\n        /* \"#utility.yul\":36573:36591   */\n      add\n        /* \"#utility.yul\":36566:36614   */\n      mstore\n        /* \"#utility.yul\":36631:36715   */\n      tag_743\n        /* \"#utility.yul\":36710:36714   */\n      dup2\n        /* \"#utility.yul\":36701:36707   */\n      dup5\n        /* \"#utility.yul\":36631:36715   */\n      tag_385\n      jump\t// in\n    tag_743:\n        /* \"#utility.yul\":36623:36715   */\n      swap1\n      pop\n        /* \"#utility.yul\":36190:36722   */\n      swap4\n      swap3\n      pop\n      pop\n      pop\n      jump\t// out\n        /* \"#utility.yul\":36728:36889   */\n    tag_391:\n        /* \"#utility.yul\":36868:36881   */\n      0x4e6f7420616c6c6f776564000000000000000000000000000000000000000000\n        /* \"#utility.yul\":36864:36865   */\n      0x00\n        /* \"#utility.yul\":36856:36862   */\n      dup3\n        /* \"#utility.yul\":36852:36866   */\n      add\n        /* \"#utility.yul\":36845:36882   */\n      mstore\n        /* \"#utility.yul\":36728:36889   */\n      pop\n      jump\t// out\n        /* \"#utility.yul\":36895:37261   */\n    tag_392:\n        /* \"#utility.yul\":37037:37040   */\n      0x00\n        /* \"#utility.yul\":37058:37125   */\n      tag_746\n        /* \"#utility.yul\":37122:37124   */\n      0x0b\n        /* \"#utility.yul\":37117:37120   */\n      dup4\n        /* \"#utility.yul\":37058:37125   */\n      tag_343\n      jump\t// in\n    tag_746:\n        /* \"#utility.yul\":37051:37125   */\n      swap2\n      pop\n        /* \"#utility.yul\":37134:37227   */\n      tag_747\n        /* \"#utility.yul\":37223:37226   */\n      dup3\n        /* \"#utility.yul\":37134:37227   */\n      tag_391\n      jump\t// in\n    tag_747:\n        /* \"#utility.yul\":37252:37254   */\n      0x20\n        /* \"#utility.yul\":37247:37250   */\n      dup3\n        /* \"#utility.yul\":37243:37255   */\n      add\n        /* \"#utility.yul\":37236:37255   */\n      swap1\n      pop\n        /* \"#utility.yul\":36895:37261   */\n      swap2\n      swap1\n      pop\n      jump\t// out\n        /* \"#utility.yul\":37267:37686   */\n    tag_228:\n        /* \"#utility.yul\":37433:37437   */\n      0x00\n        /* \"#utility.yul\":37471:37473   */\n      0x20\n        /* \"#utility.yul\":37460:37469   */\n      dup3\n        /* \"#utility.yul\":37456:37474   */\n      add\n        /* \"#utility.yul\":37448:37474   */\n      swap1\n      pop\n        /* \"#utility.yul\":37520:37529   */\n      dup2\n        /* \"#utility.yul\":37514:37518   */\n      dup2\n        /* \"#utility.yul\":37510:37530   */\n      sub\n        /* \"#utility.yul\":37506:37507   */\n      0x00\n        /* \"#utility.yul\":37495:37504   */\n      dup4\n        /* \"#utility.yul\":37491:37508   */\n      add\n        /* \"#utility.yul\":37484:37531   */\n      mstore\n        /* \"#utility.yul\":37548:37679   */\n      tag_749\n        /* \"#utility.yul\":37674:37678   */\n      dup2\n        /* \"#utility.yul\":37548:37679   */\n      tag_392\n      jump\t// in\n    tag_749:\n        /* \"#utility.yul\":37540:37679   */\n      swap1\n      pop\n        /* \"#utility.yul\":37267:37686   */\n      swap2\n      swap1\n      pop\n      jump\t// out\n        /* \"#utility.yul\":37692:37872   */\n    tag_243:\n        /* \"#utility.yul\":37740:37817   */\n      0x4e487b7100000000000000000000000000000000000000000000000000000000\n        /* \"#utility.yul\":37737:37738   */\n      0x00\n        /* \"#utility.yul\":37730:37818   */\n      mstore\n        /* \"#utility.yul\":37837:37841   */\n      0x12\n        /* \"#utility.yul\":37834:37835   */\n      0x04\n        /* \"#utility.yul\":37827:37842   */\n      mstore\n        /* \"#utility.yul\":37861:37865   */\n      0x24\n        /* \"#utility.yul\":37858:37859   */\n      0x00\n        /* \"#utility.yul\":37851:37866   */\n      revert\n        /* \"#utility.yul\":37878:38288   */\n    tag_278:\n        /* \"#utility.yul\":37918:37925   */\n      0x00\n        /* \"#utility.yul\":37941:37961   */\n      tag_752\n        /* \"#utility.yul\":37959:37960   */\n      dup3\n        /* \"#utility.yul\":37941:37961   */\n      tag_315\n      jump\t// in\n    tag_752:\n        /* \"#utility.yul\":37936:37961   */\n      swap2\n      pop\n        /* \"#utility.yul\":37975:37995   */\n      tag_753\n        /* \"#utility.yul\":37993:37994   */\n      dup4\n        /* \"#utility.yul\":37975:37995   */\n      tag_315\n      jump\t// in\n    tag_753:\n        /* \"#utility.yul\":37970:37995   */\n      swap3\n      pop\n        /* \"#utility.yul\":38030:38031   */\n      dup3\n        /* \"#utility.yul\":38027:38028   */\n      dup3\n        /* \"#utility.yul\":38023:38032   */\n      mul\n        /* \"#utility.yul\":38052:38082   */\n      tag_754\n        /* \"#utility.yul\":38070:38081   */\n      dup2\n        /* \"#utility.yul\":38052:38082   */\n      tag_315\n      jump\t// in\n    tag_754:\n        /* \"#utility.yul\":38041:38082   */\n      swap2\n      pop\n        /* \"#utility.yul\":38231:38232   */\n      dup3\n        /* \"#utility.yul\":38222:38229   */\n      dup3\n        /* \"#utility.yul\":38218:38233   */\n      div\n        /* \"#utility.yul\":38215:38216   */\n      dup5\n        /* \"#utility.yul\":38212:38234   */\n      eq\n        /* \"#utility.yul\":38192:38193   */\n      dup4\n        /* \"#utility.yul\":38185:38194   */\n      iszero\n        /* \"#utility.yul\":38165:38248   */\n      or\n        /* \"#utility.yul\":38142:38281   */\n      tag_755\n      jumpi\n        /* \"#utility.yul\":38261:38279   */\n      tag_756\n      tag_346\n      jump\t// in\n    tag_756:\n        /* \"#utility.yul\":38142:38281   */\n    tag_755:\n        /* \"#utility.yul\":37926:38288   */\n      pop\n        /* \"#utility.yul\":37878:38288   */\n      swap3\n      swap2\n      pop\n      pop\n      jump\t// out\n        /* \"#utility.yul\":38294:38485   */\n    tag_280:\n        /* \"#utility.yul\":38334:38337   */\n      0x00\n        /* \"#utility.yul\":38353:38373   */\n      tag_758\n        /* \"#utility.yul\":38371:38372   */\n      dup3\n        /* \"#utility.yul\":38353:38373   */\n      tag_315\n      jump\t// in\n    tag_758:\n        /* \"#utility.yul\":38348:38373   */\n      swap2\n      pop\n        /* \"#utility.yul\":38387:38407   */\n      tag_759\n        /* \"#utility.yul\":38405:38406   */\n      dup4\n        /* \"#utility.yul\":38387:38407   */\n      tag_315\n      jump\t// in\n    tag_759:\n        /* \"#utility.yul\":38382:38407   */\n      swap3\n      pop\n        /* \"#utility.yul\":38430:38431   */\n      dup3\n        /* \"#utility.yul\":38427:38428   */\n      dup3\n        /* \"#utility.yul\":38423:38432   */\n      add\n        /* \"#utility.yul\":38416:38432   */\n      swap1\n      pop\n        /* \"#utility.yul\":38451:38454   */\n      dup1\n        /* \"#utility.yul\":38448:38449   */\n      dup3\n        /* \"#utility.yul\":38445:38455   */\n      gt\n        /* \"#utility.yul\":38442:38478   */\n      iszero\n      tag_760\n      jumpi\n        /* \"#utility.yul\":38458:38476   */\n      tag_761\n      tag_346\n      jump\t// in\n    tag_761:\n        /* \"#utility.yul\":38442:38478   */\n    tag_760:\n        /* \"#utility.yul\":38294:38485   */\n      swap3\n      swap2\n      pop\n      pop\n      jump\t// out\n        /* \"#utility.yul\":38491:38671   */\n    tag_286:\n        /* \"#utility.yul\":38539:38616   */\n      0x4e487b7100000000000000000000000000000000000000000000000000000000\n        /* \"#utility.yul\":38536:38537   */\n      0x00\n        /* \"#utility.yul\":38529:38617   */\n      mstore\n        /* \"#utility.yul\":38636:38640   */\n      0x32\n        /* \"#utility.yul\":38633:38634   */\n      0x04\n        /* \"#utility.yul\":38626:38641   */\n      mstore\n        /* \"#utility.yul\":38660:38664   */\n      0x24\n        /* \"#utility.yul\":38657:38658   */\n      0x00\n        /* \"#utility.yul\":38650:38665   */\n      revert\n        /* \"#utility.yul\":38677:38859   */\n    tag_393:\n        /* \"#utility.yul\":38817:38851   */\n      0x537472696e67733a20686578206c656e67746820696e73756666696369656e74\n        /* \"#utility.yul\":38813:38814   */\n      0x00\n        /* \"#utility.yul\":38805:38811   */\n      dup3\n        /* \"#utility.yul\":38801:38815   */\n      add\n        /* \"#utility.yul\":38794:38852   */\n      mstore\n        /* \"#utility.yul\":38677:38859   */\n      pop\n      jump\t// out\n        /* \"#utility.yul\":38865:39231   */\n    tag_394:\n        /* \"#utility.yul\":39007:39010   */\n      0x00\n        /* \"#utility.yul\":39028:39095   */\n      tag_765\n        /* \"#utility.yul\":39092:39094   */\n      0x20\n        /* \"#utility.yul\":39087:39090   */\n      dup4\n        /* \"#utility.yul\":39028:39095   */\n      tag_343\n      jump\t// in\n    tag_765:\n        /* \"#utility.yul\":39021:39095   */\n      swap2\n      pop\n        /* \"#utility.yul\":39104:39197   */\n      tag_766\n        /* \"#utility.yul\":39193:39196   */\n      dup3\n        /* \"#utility.yul\":39104:39197   */\n      tag_393\n      jump\t// in\n    tag_766:\n        /* \"#utility.yul\":39222:39224   */\n      0x20\n        /* \"#utility.yul\":39217:39220   */\n      dup3\n        /* \"#utility.yul\":39213:39225   */\n      add\n        /* \"#utility.yul\":39206:39225   */\n      swap1\n      pop\n        /* \"#utility.yul\":38865:39231   */\n      swap2\n      swap1\n      pop\n      jump\t// out\n        /* \"#utility.yul\":39237:39656   */\n    tag_301:\n        /* \"#utility.yul\":39403:39407   */\n      0x00\n        /* \"#utility.yul\":39441:39443   */\n      0x20\n        /* \"#utility.yul\":39430:39439   */\n      dup3\n        /* \"#utility.yul\":39426:39444   */\n      add\n        /* \"#utility.yul\":39418:39444   */\n      swap1\n      pop\n        /* \"#utility.yul\":39490:39499   */\n      dup2\n        /* \"#utility.yul\":39484:39488   */\n      dup2\n        /* \"#utility.yul\":39480:39500   */\n      sub\n        /* \"#utility.yul\":39476:39477   */\n      0x00\n        /* \"#utility.yul\":39465:39474   */\n      dup4\n        /* \"#utility.yul\":39461:39478   */\n      add\n        /* \"#utility.yul\":39454:39501   */\n      mstore\n        /* \"#utility.yul\":39518:39649   */\n      tag_768\n        /* \"#utility.yul\":39644:39648   */\n      dup2\n        /* \"#utility.yul\":39518:39649   */\n      tag_394\n      jump\t// in\n    tag_768:\n        /* \"#utility.yul\":39510:39649   */\n      swap1\n      pop\n        /* \"#utility.yul\":39237:39656   */\n      swap2\n      swap1\n      pop\n      jump\t// out\n\n    auxdata: 0xa2646970667358221220af3833667ede4a282e22ca0295b56b3e4a3cd7987b63eaa924ec7ed03bc9a12664736f6c63430008120033\n}\n",
				"bytecode": {
					"linkReferences": {
						"cypher.sol": {
							"cypher": [
								{
									"length": 20,
									"start": 3178
								},
								{
									"length": 20,
									"start": 3310
								},
								{
									"length": 20,
									"start": 3442
								},
								{
									"length": 20,
									"start": 3629
								},
								{
									"length": 20,
									"start": 5859
								},
								{
									"length": 20,
									"start": 6056
								},
								{
									"length": 20,
									"start": 6253
								},
								{
									"length": 20,
									"start": 6509
								}
							]
						}
					},
					"object": "608060405260008060146101000a81548160ff021916908360ff1602179055506001600060156101000a81548160ff021916908360ff1602179055506002600060166101000a81548160ff021916908360ff1602179055506003600060176101000a81548160ff021916908360ff1602179055506004600060186101000a81548160ff021916908360ff16021790555034801561009b57600080fd5b50336000806101000a81548173ffffffffffffffffffffffffffffffffffffffff021916908373ffffffffffffffffffffffffffffffffffffffff160217905550613c9d806100eb6000396000f3fe6080604052600436106100705760003560e01c8063b2eee5a21161004e578063b2eee5a2146100e5578063c1144afa14610115578063dd64e4ad14610131578063deb127461461016157610070565b80630ec83856146100755780632b4ae7bd1461009e5780635c60f226146100c9575b600080fd5b34801561008157600080fd5b5061009c60048036038101906100979190612868565b61019e565b005b3480156100aa57600080fd5b506100b3610225565b6040516100c091906128ae565b60405180910390f35b6100e360048036038101906100de9190612927565b61022f565b005b6100ff60048036038101906100fa9190612a9a565b61033f565b60405161010c9190612b05565b60405180910390f35b61012f600480360381019061012a9190612b20565b6106cc565b005b61014b60048036038101906101469190612c56565b61093a565b6040516101589190612dc3565b60405180910390f35b34801561016d57600080fd5b5061018860048036038101906101839190612a9a565b61125b565b6040516101959190612f87565b60405180910390f35b80600260003373ffffffffffffffffffffffffffffffffffffffff1673ffffffffffffffffffffffffffffffffffffffff1681526020019081526020016000206009015414610222576040517f08c379a000000000000000000000000000000000000000000000000000000000815260040161021990613006565b60405180910390fd5b50565b6000600154905090565b61023761215b565b600260008273ffffffffffffffffffffffffffffffffffffffff1673ffffffffffffffffffffffffffffffffffffffff16815260200190815260200160002060008082016000610287919061274f565b600182016000610297919061274f565b6002820160006102a7919061274f565b6003820160006102b7919061274f565b6004820160006102c7919061274f565b6005820160006101000a81549060ff02191690556006820160006102eb919061274f565b6007820160006101000a81549073ffffffffffffffffffffffffffffffffffffffff02191690556008820160009055600982016000905550506001600081548092919061033790613055565b919050555050565b60003373ffffffffffffffffffffffffffffffffffffffff16600260008573ffffffffffffffffffffffffffffffffffffffff1673ffffffffffffffffffffffffffffffffffffffff16815260200190815260200160002060070160009054906101000a900473ffffffffffffffffffffffffffffffffffffffff1673ffffffffffffffffffffffffffffffffffffffff161480156104ae57506104ad82600260008673ffffffffffffffffffffffffffffffffffffffff1673ffffffffffffffffffffffffffffffffffffffff168152602001908152602001600020600301805461042a906130ad565b80601f0160208091040260200160405190810160405280929190818152602001828054610456906130ad565b80156104a35780601f10610478576101008083540402835291602001916104a3565b820191906000526020600020905b81548152906001019060200180831161048657829003601f168201915b50505050506121eb565b5b600260008573ffffffffffffffffffffffffffffffffffffffff1673ffffffffffffffffffffffffffffffffffffffff16815260200190815260200160002060030160405160200161050091906131a7565b60405160208183030381529060405290610550576040517f08c379a00000000000000000000000000000000000000000000000000000000081526004016105479190613206565b60405180910390fd5b5081836040516020016105639190613270565b60405160208183030381529060405261057b42612244565b60405160200161058d939291906132bc565b6040516020818303038152906040526040516020016105ac91906132ed565b60405160208183030381529060405280519060200120600260008573ffffffffffffffffffffffffffffffffffffffff1673ffffffffffffffffffffffffffffffffffffffff168152602001908152602001600020600901819055507f64e77de958dc791103ea3e91568baec95379923c83744bccc6b42a9a66423c9c600260008573ffffffffffffffffffffffffffffffffffffffff1673ffffffffffffffffffffffffffffffffffffffff168152602001908152602001600020600901546040516106799190612b05565b60405180910390a1600260008473ffffffffffffffffffffffffffffffffffffffff1673ffffffffffffffffffffffffffffffffffffffff16815260200190815260200160002060090154905092915050565b6106d58161019e565b60003390503373ffffffffffffffffffffffffffffffffffffffff16600260008373ffffffffffffffffffffffffffffffffffffffff1673ffffffffffffffffffffffffffffffffffffffff16815260200190815260200160002060070160009054906101000a900473ffffffffffffffffffffffffffffffffffffffff1673ffffffffffffffffffffffffffffffffffffffff16146109315786600260008373ffffffffffffffffffffffffffffffffffffffff1673ffffffffffffffffffffffffffffffffffffffff16815260200190815260200160002060000190816107be919061349b565b5085600260008373ffffffffffffffffffffffffffffffffffffffff1673ffffffffffffffffffffffffffffffffffffffff168152602001908152602001600020600201908161080e919061349b565b5084600260008373ffffffffffffffffffffffffffffffffffffffff1673ffffffffffffffffffffffffffffffffffffffff168152602001908152602001600020600401908161085e919061349b565b5083600260008373ffffffffffffffffffffffffffffffffffffffff1673ffffffffffffffffffffffffffffffffffffffff16815260200190815260200160002060070160006101000a81548173ffffffffffffffffffffffffffffffffffffffff021916908373ffffffffffffffffffffffffffffffffffffffff16021790555082600260008373ffffffffffffffffffffffffffffffffffffffff1673ffffffffffffffffffffffffffffffffffffffff168152602001908152602001600020600601908161092f919061349b565b505b50505050505050565b600061094461215b565b60058560ff16111561098b576040517f08c379a0000000000000000000000000000000000000000000000000000000008152600401610982906135b9565b60405180910390fd5b600d885114886040516020016109a191906135ff565b604051602081830303815290604052906109f1576040517f08c379a00000000000000000000000000000000000000000000000000000000081526004016109e89190613206565b60405180910390fd5b506006895111610a36576040517f08c379a0000000000000000000000000000000000000000000000000000000008152600401610a2d90613671565b60405180910390fd5b600a875111610a7a576040517f08c379a0000000000000000000000000000000000000000000000000000000008152600401610a71906136dd565b60405180910390fd5b6008865111610abe576040517f08c379a0000000000000000000000000000000000000000000000000000000008152600401610ab590613749565b60405180910390fd5b6006845111610b02576040517f08c379a0000000000000000000000000000000000000000000000000000000008152600401610af9906137b5565b60405180910390fd5b600033905060008a8a610b178960ff16612244565b8b8b8a604051602001610b2f969594939291906137d5565b604051602081830303815290604052604051602001610b4e91906132ed565b60405160208183030381529060405280519060200120905060008760ff1603610fe75760405180610140016040528073__$0394c467ed0fdd19c4eccf25096e0ad40f$__63015cfec78e8c6040518363ffffffff1660e01b8152600401610bb6929190613882565b600060405180830381865af4158015610bd3573d6000803e3d6000fd5b505050506040513d6000823e3d601f19601f82011682018060405250810190610bfc919061395a565b815260200173__$0394c467ed0fdd19c4eccf25096e0ad40f$__63015cfec78d8c6040518363ffffffff1660e01b8152600401610c3a929190613882565b600060405180830381865af4158015610c57573d6000803e3d6000fd5b505050506040513d6000823e3d601f19601f82011682018060405250810190610c80919061395a565b815260200173__$0394c467ed0fdd19c4eccf25096e0ad40f$__63015cfec78c8c6040518363ffffffff1660e01b8152600401610cbe929190613882565b600060405180830381865af4158015610cdb573d6000803e3d6000fd5b505050506040513d6000823e3d601f19601f82011682018060405250810190610d04919061395a565b8152602001610d3b8a604051602001610d1d91906132ed565b6040516020818303038152906040528051906020012060001c612312565b815260200173__$0394c467ed0fdd19c4eccf25096e0ad40f$__63015cfec7898c6040518363ffffffff1660e01b8152600401610d79929190613882565b600060405180830381865af4158015610d96573d6000803e3d6000fd5b505050506040513d6000823e3d601f19601f82011682018060405250810190610dbf919061395a565b81526020018860ff1681526020016040518060400160405280600181526020017f300000000000000000000000000000000000000000000000000000000000000081525081526020018673ffffffffffffffffffffffffffffffffffffffff1681526020018281526020018984604051602001610e3c9190613270565b604051602081830303815290604052610e5442612244565b604051602001610e66939291906132bc565b604051602081830303815290604052604051602001610e8591906132ed565b60405160208183030381529060405280519060200120815250600260008473ffffffffffffffffffffffffffffffffffffffff1673ffffffffffffffffffffffffffffffffffffffff1681526020019081526020016000206000820151816000019081610ef2919061349b565b506020820151816001019081610f08919061349b565b506040820151816002019081610f1e919061349b565b506060820151816003019081610f34919061349b565b506080820151816004019081610f4a919061349b565b5060a08201518160050160006101000a81548160ff021916908360ff16021790555060c0820151816006019081610f81919061349b565b5060e08201518160070160006101000a81548173ffffffffffffffffffffffffffffffffffffffff021916908373ffffffffffffffffffffffffffffffffffffffff160217905550610100820151816008015561012082015181600901559050506111fb565b6040518061014001604052808c81526020018b81526020018a81526020018981526020018781526020018860ff1681526020018581526020018673ffffffffffffffffffffffffffffffffffffffff16815260200182815260200189846040516020016110549190613270565b60405160208183030381529060405261106c42612244565b60405160200161107e939291906132bc565b60405160208183030381529060405260405160200161109d91906132ed565b60405160208183030381529060405280519060200120815250600260008473ffffffffffffffffffffffffffffffffffffffff1673ffffffffffffffffffffffffffffffffffffffff168152602001908152602001600020600082015181600001908161110a919061349b565b506020820151816001019081611120919061349b565b506040820151816002019081611136919061349b565b50606082015181600301908161114c919061349b565b506080820151816004019081611162919061349b565b5060a08201518160050160006101000a81548160ff021916908360ff16021790555060c0820151816006019081611199919061349b565b5060e08201518160070160006101000a81548173ffffffffffffffffffffffffffffffffffffffff021916908373ffffffffffffffffffffffffffffffffffffffff160217905550610100820151816008015561012082015181600901559050505b6001600081548092919061120e906139a3565b91905055507f903b7ac47b7da7b36fedec2c9eae9fe8e1daf2406a8e7a3f077db196b45a7ef8826040516112429190612dc3565b60405180910390a1819250505098975050505050505050565b61126361278f565b61126b61278f565b3373ffffffffffffffffffffffffffffffffffffffff16600260008673ffffffffffffffffffffffffffffffffffffffff1673ffffffffffffffffffffffffffffffffffffffff16815260200190815260200160002060070160009054906101000a900473ffffffffffffffffffffffffffffffffffffffff1673ffffffffffffffffffffffffffffffffffffffff16146115ea576040518061014001604052806040518060400160405280600b81526020017f2a2a2a2a2a2a2a2a2a2a2a00000000000000000000000000000000000000000081525081526020016040518060400160405280600681526020017f2a2a2a2a2a2a000000000000000000000000000000000000000000000000000081525081526020016040518060400160405280600a81526020017f2a2a2a2a2a2a2a2a2a2a0000000000000000000000000000000000000000000081525081526020016040518060400160405280600781526020017f2a2a2a2a2a2a2a0000000000000000000000000000000000000000000000000081525081526020016040518060400160405280600881526020017f2a2a2a2a2a2a2a2a0000000000000000000000000000000000000000000000008152508152602001600260008773ffffffffffffffffffffffffffffffffffffffff1673ffffffffffffffffffffffffffffffffffffffff16815260200190815260200160002060050160009054906101000a900460ff1660ff168152602001600260008773ffffffffffffffffffffffffffffffffffffffff1673ffffffffffffffffffffffffffffffffffffffff16815260200190815260200160002060060180546114d8906130ad565b80601f0160208091040260200160405190810160405280929190818152602001828054611504906130ad565b80156115515780601f1061152657610100808354040283529160200191611551565b820191906000526020600020905b81548152906001019060200180831161153457829003601f168201915b505050505081526020013373ffffffffffffffffffffffffffffffffffffffff168152602001600260008773ffffffffffffffffffffffffffffffffffffffff1673ffffffffffffffffffffffffffffffffffffffff1681526020019081526020016000206008015481526020017f2a2a2a2a2a2a2a2a2a2a2a0000000000000000000000000000000000000000008152509050611b5a565b60405180610140016040528073__$0394c467ed0fdd19c4eccf25096e0ad40f$__63015cfec7600260008973ffffffffffffffffffffffffffffffffffffffff1673ffffffffffffffffffffffffffffffffffffffff168152602001908152602001600020600001876040518363ffffffff1660e01b8152600401611670929190613a84565b600060405180830381865af415801561168d573d6000803e3d6000fd5b505050506040513d6000823e3d601f19601f820116820180604052508101906116b6919061395a565b815260200173__$0394c467ed0fdd19c4eccf25096e0ad40f$__63015cfec7600260008973ffffffffffffffffffffffffffffffffffffffff1673ffffffffffffffffffffffffffffffffffffffff168152602001908152602001600020600101876040518363ffffffff1660e01b8152600401611735929190613a84565b600060405180830381865af4158015611752573d6000803e3d6000fd5b505050506040513d6000823e3d601f19601f8201168201806040525081019061177b919061395a565b815260200173__$0394c467ed0fdd19c4eccf25096e0ad40f$__63015cfec7600260008973ffffffffffffffffffffffffffffffffffffffff1673ffffffffffffffffffffffffffffffffffffffff168152602001908152602001600020600201876040518363ffffffff1660e01b81526004016117fa929190613a84565b600060405180830381865af4158015611817573d6000803e3d6000fd5b505050506040513d6000823e3d601f19601f82011682018060405250810190611840919061395a565b81526020016040518060400160405280600581526020017f2a2a2a2a2a000000000000000000000000000000000000000000000000000000815250815260200173__$0394c467ed0fdd19c4eccf25096e0ad40f$__63015cfec7600260008973ffffffffffffffffffffffffffffffffffffffff1673ffffffffffffffffffffffffffffffffffffffff168152602001908152602001600020600401876040518363ffffffff1660e01b81526004016118fa929190613a84565b600060405180830381865af4158015611917573d6000803e3d6000fd5b505050506040513d6000823e3d601f19601f82011682018060405250810190611940919061395a565b8152602001600260008773ffffffffffffffffffffffffffffffffffffffff1673ffffffffffffffffffffffffffffffffffffffff16815260200190815260200160002060050160009054906101000a900460ff1660ff168152602001600260008773ffffffffffffffffffffffffffffffffffffffff1673ffffffffffffffffffffffffffffffffffffffff16815260200190815260200160002060060180546119ea906130ad565b80601f0160208091040260200160405190810160405280929190818152602001828054611a16906130ad565b8015611a635780601f10611a3857610100808354040283529160200191611a63565b820191906000526020600020905b815481529060010190602001808311611a4657829003601f168201915b50505050508152602001600260008773ffffffffffffffffffffffffffffffffffffffff1673ffffffffffffffffffffffffffffffffffffffff16815260200190815260200160002060070160009054906101000a900473ffffffffffffffffffffffffffffffffffffffff1673ffffffffffffffffffffffffffffffffffffffff168152602001600260008773ffffffffffffffffffffffffffffffffffffffff1673ffffffffffffffffffffffffffffffffffffffff1681526020019081526020016000206008015481526020017f2a2a2a2a2a2a2a2a2a2a2a2a000000000000000000000000000000000000000081525090505b6000600260008673ffffffffffffffffffffffffffffffffffffffff1673ffffffffffffffffffffffffffffffffffffffff16815260200190815260200160002060050160009054906101000a900460ff1660ff16111561215157604051806101400160405280600260008773ffffffffffffffffffffffffffffffffffffffff1673ffffffffffffffffffffffffffffffffffffffff1681526020019081526020016000206000018054611c0e906130ad565b80601f0160208091040260200160405190810160405280929190818152602001828054611c3a906130ad565b8015611c875780601f10611c5c57610100808354040283529160200191611c87565b820191906000526020600020905b815481529060010190602001808311611c6a57829003601f168201915b50505050508152602001600260008773ffffffffffffffffffffffffffffffffffffffff1673ffffffffffffffffffffffffffffffffffffffff1681526020019081526020016000206001018054611cde906130ad565b80601f0160208091040260200160405190810160405280929190818152602001828054611d0a906130ad565b8015611d575780601f10611d2c57610100808354040283529160200191611d57565b820191906000526020600020905b815481529060010190602001808311611d3a57829003601f168201915b50505050508152602001600260008773ffffffffffffffffffffffffffffffffffffffff1673ffffffffffffffffffffffffffffffffffffffff1681526020019081526020016000206002018054611dae906130ad565b80601f0160208091040260200160405190810160405280929190818152602001828054611dda906130ad565b8015611e275780601f10611dfc57610100808354040283529160200191611e27565b820191906000526020600020905b815481529060010190602001808311611e0a57829003601f168201915b505050505081526020016040518060400160405280600781526020017f2a2a2a2a2a2a2a000000000000000000000000000000000000000000000000008152508152602001600260008773ffffffffffffffffffffffffffffffffffffffff1673ffffffffffffffffffffffffffffffffffffffff1681526020019081526020016000206004018054611eb9906130ad565b80601f0160208091040260200160405190810160405280929190818152602001828054611ee5906130ad565b8015611f325780601f10611f0757610100808354040283529160200191611f32565b820191906000526020600020905b815481529060010190602001808311611f1557829003601f168201915b50505050508152602001600260008773ffffffffffffffffffffffffffffffffffffffff1673ffffffffffffffffffffffffffffffffffffffff16815260200190815260200160002060050160009054906101000a900460ff1660ff168152602001600260008773ffffffffffffffffffffffffffffffffffffffff1673ffffffffffffffffffffffffffffffffffffffff1681526020019081526020016000206006018054611fe1906130ad565b80601f016020809104026020016040519081016040528092919081815260200182805461200d906130ad565b801561205a5780601f1061202f5761010080835404028352916020019161205a565b820191906000526020600020905b81548152906001019060200180831161203d57829003601f168201915b50505050508152602001600260008773ffffffffffffffffffffffffffffffffffffffff1673ffffffffffffffffffffffffffffffffffffffff16815260200190815260200160002060070160009054906101000a900473ffffffffffffffffffffffffffffffffffffffff1673ffffffffffffffffffffffffffffffffffffffff168152602001600260008773ffffffffffffffffffffffffffffffffffffffff1673ffffffffffffffffffffffffffffffffffffffff1681526020019081526020016000206008015481526020017f2a2a2a2a2a2a2a2a2a2a2a2a2a0000000000000000000000000000000000000081525090505b8091505092915050565b3373ffffffffffffffffffffffffffffffffffffffff1660008054906101000a900473ffffffffffffffffffffffffffffffffffffffff1673ffffffffffffffffffffffffffffffffffffffff16146121e9576040517f08c379a00000000000000000000000000000000000000000000000000000000081526004016121e090613b07565b60405180910390fd5b565b6000816040516020016121fe91906132ed565b604051602081830303815290604052805190602001208360405160200161222591906132ed565b6040516020818303038152906040528051906020012014905092915050565b60606000600161225384612330565b01905060008167ffffffffffffffff8111156122725761227161296f565b5b6040519080825280601f01601f1916602001820160405280156122a45781602001600182028036833780820191505090505b509050600082602001820190505b600115612307578080600190039150507f3031323334353637383961626364656600000000000000000000000000000000600a86061a8153600a85816122fb576122fa613b27565b5b049450600085036122b2575b819350505050919050565b606061232982600161232385612483565b01612513565b9050919050565b600080600090507a184f03e93ff9f4daa797ed6e38ed64bf6a1f010000000000000000831061238e577a184f03e93ff9f4daa797ed6e38ed64bf6a1f010000000000000000838161238457612383613b27565b5b0492506040810190505b6d04ee2d6d415b85acef810000000083106123cb576d04ee2d6d415b85acef810000000083816123c1576123c0613b27565b5b0492506020810190505b662386f26fc1000083106123fa57662386f26fc1000083816123f0576123ef613b27565b5b0492506010810190505b6305f5e1008310612423576305f5e100838161241957612418613b27565b5b0492506008810190505b612710831061244857612710838161243e5761243d613b27565b5b0492506004810190505b6064831061246b576064838161246157612460613b27565b5b0492506002810190505b600a831061247a576001810190505b80915050919050565b600080600090506000608084901c11156124a557608083901c92506010810190505b6000604084901c11156124c057604083901c92506008810190505b6000602084901c11156124db57602083901c92506004810190505b6000601084901c11156124f657601083901c92506002810190505b6000600884901c111561250a576001810190505b80915050919050565b6060600060028360026125269190613b56565b6125309190613b98565b67ffffffffffffffff8111156125495761254861296f565b5b6040519080825280601f01601f19166020018201604052801561257b5781602001600182028036833780820191505090505b5090507f3000000000000000000000000000000000000000000000000000000000000000816000815181106125b3576125b2613bcc565b5b60200101907effffffffffffffffffffffffffffffffffffffffffffffffffffffffffffff1916908160001a9053507f78000000000000000000000000000000000000000000000000000000000000008160018151811061261757612616613bcc565b5b60200101907effffffffffffffffffffffffffffffffffffffffffffffffffffffffffffff1916908160001a905350600060018460026126579190613b56565b6126619190613b98565b90505b6001811115612701577f3031323334353637383961626364656600000000000000000000000000000000600f8616601081106126a3576126a2613bcc565b5b1a60f81b8282815181106126ba576126b9613bcc565b5b60200101907effffffffffffffffffffffffffffffffffffffffffffffffffffffffffffff1916908160001a905350600485901c9450806126fa90613055565b9050612664565b5060008414612745576040517f08c379a000000000000000000000000000000000000000000000000000000000815260040161273c90613c47565b60405180910390fd5b8091505092915050565b50805461275b906130ad565b6000825580601f1061276d575061278c565b601f01602090049060005260206000209081019061278b9190612801565b5b50565b6040518061014001604052806060815260200160608152602001606081526020016060815260200160608152602001600060ff16815260200160608152602001600073ffffffffffffffffffffffffffffffffffffffff16815260200160008019168152602001600080191681525090565b5b8082111561281a576000816000905550600101612802565b5090565b6000604051905090565b600080fd5b600080fd5b6000819050919050565b61284581612832565b811461285057600080fd5b50565b6000813590506128628161283c565b92915050565b60006020828403121561287e5761287d612828565b5b600061288c84828501612853565b91505092915050565b6000819050919050565b6128a881612895565b82525050565b60006020820190506128c3600083018461289f565b92915050565b600073ffffffffffffffffffffffffffffffffffffffff82169050919050565b60006128f4826128c9565b9050919050565b612904816128e9565b811461290f57600080fd5b50565b600081359050612921816128fb565b92915050565b60006020828403121561293d5761293c612828565b5b600061294b84828501612912565b91505092915050565b600080fd5b600080fd5b6000601f19601f8301169050919050565b7f4e487b7100000000000000000000000000000000000000000000000000000000600052604160045260246000fd5b6129a78261295e565b810181811067ffffffffffffffff821117156129c6576129c561296f565b5b80604052505050565b60006129d961281e565b90506129e5828261299e565b919050565b600067ffffffffffffffff821115612a0557612a0461296f565b5b612a0e8261295e565b9050602081019050919050565b82818337600083830152505050565b6000612a3d612a38846129ea565b6129cf565b905082815260208101848484011115612a5957612a58612959565b5b612a64848285612a1b565b509392505050565b600082601f830112612a8157612a80612954565b5b8135612a91848260208601612a2a565b91505092915050565b60008060408385031215612ab157612ab0612828565b5b6000612abf85828601612912565b925050602083013567ffffffffffffffff811115612ae057612adf61282d565b5b612aec85828601612a6c565b9150509250929050565b612aff81612832565b82525050565b6000602082019050612b1a6000830184612af6565b92915050565b60008060008060008060c08789031215612b3d57612b3c612828565b5b600087013567ffffffffffffffff811115612b5b57612b5a61282d565b5b612b6789828a01612a6c565b965050602087013567ffffffffffffffff811115612b8857612b8761282d565b5b612b9489828a01612a6c565b955050604087013567ffffffffffffffff811115612bb557612bb461282d565b5b612bc189828a01612a6c565b9450506060612bd289828a01612912565b935050608087013567ffffffffffffffff811115612bf357612bf261282d565b5b612bff89828a01612a6c565b92505060a0612c1089828a01612853565b9150509295509295509295565b600060ff82169050919050565b612c3381612c1d565b8114612c3e57600080fd5b50565b600081359050612c5081612c2a565b92915050565b600080600080600080600080610100898b031215612c7757612c76612828565b5b600089013567ffffffffffffffff811115612c9557612c9461282d565b5b612ca18b828c01612a6c565b985050602089013567ffffffffffffffff811115612cc257612cc161282d565b5b612cce8b828c01612a6c565b975050604089013567ffffffffffffffff811115612cef57612cee61282d565b5b612cfb8b828c01612a6c565b965050606089013567ffffffffffffffff811115612d1c57612d1b61282d565b5b612d288b828c01612a6c565b9550506080612d398b828c01612c41565b94505060a089013567ffffffffffffffff811115612d5a57612d5961282d565b5b612d668b828c01612a6c565b93505060c0612d778b828c01612912565b92505060e089013567ffffffffffffffff811115612d9857612d9761282d565b5b612da48b828c01612a6c565b9150509295985092959890939650565b612dbd816128e9565b82525050565b6000602082019050612dd86000830184612db4565b92915050565b600081519050919050565b600082825260208201905092915050565b60005b83811015612e18578082015181840152602081019050612dfd565b60008484015250505050565b6000612e2f82612dde565b612e398185612de9565b9350612e49818560208601612dfa565b612e528161295e565b840191505092915050565b612e6681612c1d565b82525050565b612e75816128e9565b82525050565b612e8481612832565b82525050565b6000610140830160008301518482036000860152612ea88282612e24565b91505060208301518482036020860152612ec28282612e24565b91505060408301518482036040860152612edc8282612e24565b91505060608301518482036060860152612ef68282612e24565b91505060808301518482036080860152612f108282612e24565b91505060a0830151612f2560a0860182612e5d565b5060c083015184820360c0860152612f3d8282612e24565b91505060e0830151612f5260e0860182612e6c565b50610100830151612f67610100860182612e7b565b50610120830151612f7c610120860182612e7b565b508091505092915050565b60006020820190508181036000830152612fa18184612e8a565b905092915050565b600082825260208201905092915050565b7f4e6f742061757468656e74686963617465640000000000000000000000000000600082015250565b6000612ff0601283612fa9565b9150612ffb82612fba565b602082019050919050565b6000602082019050818103600083015261301f81612fe3565b9050919050565b7f4e487b7100000000000000000000000000000000000000000000000000000000600052601160045260246000fd5b600061306082612895565b91506000820361307357613072613026565b5b600182039050919050565b7f4e487b7100000000000000000000000000000000000000000000000000000000600052602260045260246000fd5b600060028204905060018216806130c557607f821691505b6020821081036130d8576130d761307e565b5b50919050565b7f496e636f72726563742070617373776f72642070000000000000000000000000815250565b600081905092915050565b60008190508160005260206000209050919050565b60008154613131816130ad565b61313b8186613104565b94506001821660008114613156576001811461316b5761319e565b60ff198316865281151582028601935061319e565b6131748561310f565b60005b8381101561319657815481890152600182019150602081019050613177565b838801955050505b50505092915050565b60006131b2826130de565b6014820191506131c28284613124565b915081905092915050565b60006131d882612dde565b6131e28185612fa9565b93506131f2818560208601612dfa565b6131fb8161295e565b840191505092915050565b6000602082019050818103600083015261322081846131cd565b905092915050565b60008160601b9050919050565b600061324082613228565b9050919050565b600061325282613235565b9050919050565b61326a613265826128e9565b613247565b82525050565b600061327c8284613259565b60148201915081905092915050565b600061329682612dde565b6132a08185613104565b93506132b0818560208601612dfa565b80840191505092915050565b60006132c8828661328b565b91506132d4828561328b565b91506132e0828461328b565b9150819050949350505050565b60006132f9828461328b565b915081905092915050565b60006020601f8301049050919050565b600082821b905092915050565b6000600883026133517fffffffffffffffffffffffffffffffffffffffffffffffffffffffffffffffff82613314565b61335b8683613314565b95508019841693508086168417925050509392505050565b6000819050919050565b600061339861339361338e84612895565b613373565b612895565b9050919050565b6000819050919050565b6133b28361337d565b6133c66133be8261339f565b848454613321565b825550505050565b600090565b6133db6133ce565b6133e68184846133a9565b505050565b5b8181101561340a576133ff6000826133d3565b6001810190506133ec565b5050565b601f82111561344f576134208161310f565b61342984613304565b81016020851015613438578190505b61344c61344485613304565b8301826133eb565b50505b505050565b600082821c905092915050565b600061347260001984600802613454565b1980831691505092915050565b600061348b8383613461565b9150826002028217905092915050565b6134a482612dde565b67ffffffffffffffff8111156134bd576134bc61296f565b5b6134c782546130ad565b6134d282828561340e565b600060209050601f83116001811461350557600084156134f3578287015190505b6134fd858261347f565b865550613565565b601f1984166135138661310f565b60005b8281101561353b57848901518255600182019150602085019450602081019050613516565b868310156135585784890151613554601f891682613461565b8355505b6001600288020188555050505b505050505050565b7f496e76616c696420636f6d70616e792074797065000000000000000000000000600082015250565b60006135a3601483612fa9565b91506135ae8261356d565b602082019050919050565b600060208201905081810360008301526135d281613596565b9050919050565b7f496e76616c69642053534e203a20000000000000000000000000000000000000815250565b600061360a826135d9565b600e8201915061361a828461328b565b915081905092915050565b7f496e76616c6964206e616d650000000000000000000000000000000000000000600082015250565b600061365b600c83612fa9565b915061366682613625565b602082019050919050565b6000602082019050818103600083015261368a8161364e565b9050919050565b7f496e76616c696420616464726573730000000000000000000000000000000000600082015250565b60006136c7600f83612fa9565b91506136d282613691565b602082019050919050565b600060208201905081810360008301526136f6816136ba565b9050919050565b7f50617373776f726420746f6f2073686f72740000000000000000000000000000600082015250565b6000613733601283612fa9565b915061373e826136fd565b602082019050919050565b6000602082019050818103600083015261376281613726565b9050919050565b7f50686f6e65206e756d62657220746f6f2073686f727400000000000000000000600082015250565b600061379f601683612fa9565b91506137aa82613769565b602082019050919050565b600060208201905081810360008301526137ce81613792565b9050919050565b60006137e1828961328b565b91506137ed828861328b565b91506137f9828761328b565b9150613805828661328b565b9150613811828561328b565b915061381d828461328b565b9150819050979650505050505050565b600081519050919050565b600082825260208201905092915050565b60006138548261382d565b61385e8185613838565b935061386e818560208601612dfa565b6138778161295e565b840191505092915050565b6000604082019050818103600083015261389c8185613849565b905081810360208301526138b08184613849565b90509392505050565b600067ffffffffffffffff8211156138d4576138d361296f565b5b6138dd8261295e565b9050602081019050919050565b60006138fd6138f8846138b9565b6129cf565b90508281526020810184848401111561391957613918612959565b5b613924848285612dfa565b509392505050565b600082601f83011261394157613940612954565b5b81516139518482602086016138ea565b91505092915050565b6000602082840312156139705761396f612828565b5b600082015167ffffffffffffffff81111561398e5761398d61282d565b5b61399a8482850161392c565b91505092915050565b60006139ae82612895565b91507fffffffffffffffffffffffffffffffffffffffffffffffffffffffffffffffff82036139e0576139df613026565b5b600182019050919050565b60008190508160005260206000209050919050565b60008154613a0d816130ad565b613a178186613838565b94506001821660008114613a325760018114613a4857613a7b565b60ff198316865281151560200286019350613a7b565b613a51856139eb565b60005b83811015613a7357815481890152600182019150602081019050613a54565b808801955050505b50505092915050565b60006040820190508181036000830152613a9e8185613a00565b90508181036020830152613ab28184613849565b90509392505050565b7f4e6f7420616c6c6f776564000000000000000000000000000000000000000000600082015250565b6000613af1600b83612fa9565b9150613afc82613abb565b602082019050919050565b60006020820190508181036000830152613b2081613ae4565b9050919050565b7f4e487b7100000000000000000000000000000000000000000000000000000000600052601260045260246000fd5b6000613b6182612895565b9150613b6c83612895565b9250828202613b7a81612895565b91508282048414831517613b9157613b90613026565b5b5092915050565b6000613ba382612895565b9150613bae83612895565b9250828201905080821115613bc657613bc5613026565b5b92915050565b7f4e487b7100000000000000000000000000000000000000000000000000000000600052603260045260246000fd5b7f537472696e67733a20686578206c656e67746820696e73756666696369656e74600082015250565b6000613c31602083612fa9565b9150613c3c82613bfb565b602082019050919050565b60006020820190508181036000830152613c6081613c24565b905091905056fea2646970667358221220af3833667ede4a282e22ca0295b56b3e4a3cd7987b63eaa924ec7ed03bc9a12664736f6c63430008120033",
					"opcodes": "PUSH1 0x80 PUSH1 0x40 MSTORE PUSH1 0x0 DUP1 PUSH1 0x14 PUSH2 0x100 EXP DUP2 SLOAD DUP2 PUSH1 0xFF MUL NOT AND SWAP1 DUP4 PUSH1 0xFF AND MUL OR SWAP1 SSTORE POP PUSH1 0x1 PUSH1 0x0 PUSH1 0x15 PUSH2 0x100 EXP DUP2 SLOAD DUP2 PUSH1 0xFF MUL NOT AND SWAP1 DUP4 PUSH1 0xFF AND MUL OR SWAP1 SSTORE POP PUSH1 0x2 PUSH1 0x0 PUSH1 0x16 PUSH2 0x100 EXP DUP2 SLOAD DUP2 PUSH1 0xFF MUL NOT AND SWAP1 DUP4 PUSH1 0xFF AND MUL OR SWAP1 SSTORE POP PUSH1 0x3 PUSH1 0x0 PUSH1 0x17 PUSH2 0x100 EXP DUP2 SLOAD DUP2 PUSH1 0xFF MUL NOT AND SWAP1 DUP4 PUSH1 0xFF AND MUL OR SWAP1 SSTORE POP PUSH1 0x4 PUSH1 0x0 PUSH1 0x18 PUSH2 0x100 EXP DUP2 SLOAD DUP2 PUSH1 0xFF MUL NOT AND SWAP1 DUP4 PUSH1 0xFF AND MUL OR SWAP1 SSTORE POP CALLVALUE DUP1 ISZERO PUSH2 0x9B JUMPI PUSH1 0x0 DUP1 REVERT JUMPDEST POP CALLER PUSH1 0x0 DUP1 PUSH2 0x100 EXP DUP2 SLOAD DUP2 PUSH20 0xFFFFFFFFFFFFFFFFFFFFFFFFFFFFFFFFFFFFFFFF MUL NOT AND SWAP1 DUP4 PUSH20 0xFFFFFFFFFFFFFFFFFFFFFFFFFFFFFFFFFFFFFFFF AND MUL OR SWAP1 SSTORE POP PUSH2 0x3C9D DUP1 PUSH2 0xEB PUSH1 0x0 CODECOPY PUSH1 0x0 RETURN INVALID PUSH1 0x80 PUSH1 0x40 MSTORE PUSH1 0x4 CALLDATASIZE LT PUSH2 0x70 JUMPI PUSH1 0x0 CALLDATALOAD PUSH1 0xE0 SHR DUP1 PUSH4 0xB2EEE5A2 GT PUSH2 0x4E JUMPI DUP1 PUSH4 0xB2EEE5A2 EQ PUSH2 0xE5 JUMPI DUP1 PUSH4 0xC1144AFA EQ PUSH2 0x115 JUMPI DUP1 PUSH4 0xDD64E4AD EQ PUSH2 0x131 JUMPI DUP1 PUSH4 0xDEB12746 EQ PUSH2 0x161 JUMPI PUSH2 0x70 JUMP JUMPDEST DUP1 PUSH4 0xEC83856 EQ PUSH2 0x75 JUMPI DUP1 PUSH4 0x2B4AE7BD EQ PUSH2 0x9E JUMPI DUP1 PUSH4 0x5C60F226 EQ PUSH2 0xC9 JUMPI JUMPDEST PUSH1 0x0 DUP1 REVERT JUMPDEST CALLVALUE DUP1 ISZERO PUSH2 0x81 JUMPI PUSH1 0x0 DUP1 REVERT JUMPDEST POP PUSH2 0x9C PUSH1 0x4 DUP1 CALLDATASIZE SUB DUP2 ADD SWAP1 PUSH2 0x97 SWAP2 SWAP1 PUSH2 0x2868 JUMP JUMPDEST PUSH2 0x19E JUMP JUMPDEST STOP JUMPDEST CALLVALUE DUP1 ISZERO PUSH2 0xAA JUMPI PUSH1 0x0 DUP1 REVERT JUMPDEST POP PUSH2 0xB3 PUSH2 0x225 JUMP JUMPDEST PUSH1 0x40 MLOAD PUSH2 0xC0 SWAP2 SWAP1 PUSH2 0x28AE JUMP JUMPDEST PUSH1 0x40 MLOAD DUP1 SWAP2 SUB SWAP1 RETURN JUMPDEST PUSH2 0xE3 PUSH1 0x4 DUP1 CALLDATASIZE SUB DUP2 ADD SWAP1 PUSH2 0xDE SWAP2 SWAP1 PUSH2 0x2927 JUMP JUMPDEST PUSH2 0x22F JUMP JUMPDEST STOP JUMPDEST PUSH2 0xFF PUSH1 0x4 DUP1 CALLDATASIZE SUB DUP2 ADD SWAP1 PUSH2 0xFA SWAP2 SWAP1 PUSH2 0x2A9A JUMP JUMPDEST PUSH2 0x33F JUMP JUMPDEST PUSH1 0x40 MLOAD PUSH2 0x10C SWAP2 SWAP1 PUSH2 0x2B05 JUMP JUMPDEST PUSH1 0x40 MLOAD DUP1 SWAP2 SUB SWAP1 RETURN JUMPDEST PUSH2 0x12F PUSH1 0x4 DUP1 CALLDATASIZE SUB DUP2 ADD SWAP1 PUSH2 0x12A SWAP2 SWAP1 PUSH2 0x2B20 JUMP JUMPDEST PUSH2 0x6CC JUMP JUMPDEST STOP JUMPDEST PUSH2 0x14B PUSH1 0x4 DUP1 CALLDATASIZE SUB DUP2 ADD SWAP1 PUSH2 0x146 SWAP2 SWAP1 PUSH2 0x2C56 JUMP JUMPDEST PUSH2 0x93A JUMP JUMPDEST PUSH1 0x40 MLOAD PUSH2 0x158 SWAP2 SWAP1 PUSH2 0x2DC3 JUMP JUMPDEST PUSH1 0x40 MLOAD DUP1 SWAP2 SUB SWAP1 RETURN JUMPDEST CALLVALUE DUP1 ISZERO PUSH2 0x16D JUMPI PUSH1 0x0 DUP1 REVERT JUMPDEST POP PUSH2 0x188 PUSH1 0x4 DUP1 CALLDATASIZE SUB DUP2 ADD SWAP1 PUSH2 0x183 SWAP2 SWAP1 PUSH2 0x2A9A JUMP JUMPDEST PUSH2 0x125B JUMP JUMPDEST PUSH1 0x40 MLOAD PUSH2 0x195 SWAP2 SWAP1 PUSH2 0x2F87 JUMP JUMPDEST PUSH1 0x40 MLOAD DUP1 SWAP2 SUB SWAP1 RETURN JUMPDEST DUP1 PUSH1 0x2 PUSH1 0x0 CALLER PUSH20 0xFFFFFFFFFFFFFFFFFFFFFFFFFFFFFFFFFFFFFFFF AND PUSH20 0xFFFFFFFFFFFFFFFFFFFFFFFFFFFFFFFFFFFFFFFF AND DUP2 MSTORE PUSH1 0x20 ADD SWAP1 DUP2 MSTORE PUSH1 0x20 ADD PUSH1 0x0 KECCAK256 PUSH1 0x9 ADD SLOAD EQ PUSH2 0x222 JUMPI PUSH1 0x40 MLOAD PUSH32 0x8C379A000000000000000000000000000000000000000000000000000000000 DUP2 MSTORE PUSH1 0x4 ADD PUSH2 0x219 SWAP1 PUSH2 0x3006 JUMP JUMPDEST PUSH1 0x40 MLOAD DUP1 SWAP2 SUB SWAP1 REVERT JUMPDEST POP JUMP JUMPDEST PUSH1 0x0 PUSH1 0x1 SLOAD SWAP1 POP SWAP1 JUMP JUMPDEST PUSH2 0x237 PUSH2 0x215B JUMP JUMPDEST PUSH1 0x2 PUSH1 0x0 DUP3 PUSH20 0xFFFFFFFFFFFFFFFFFFFFFFFFFFFFFFFFFFFFFFFF AND PUSH20 0xFFFFFFFFFFFFFFFFFFFFFFFFFFFFFFFFFFFFFFFF AND DUP2 MSTORE PUSH1 0x20 ADD SWAP1 DUP2 MSTORE PUSH1 0x20 ADD PUSH1 0x0 KECCAK256 PUSH1 0x0 DUP1 DUP3 ADD PUSH1 0x0 PUSH2 0x287 SWAP2 SWAP1 PUSH2 0x274F JUMP JUMPDEST PUSH1 0x1 DUP3 ADD PUSH1 0x0 PUSH2 0x297 SWAP2 SWAP1 PUSH2 0x274F JUMP JUMPDEST PUSH1 0x2 DUP3 ADD PUSH1 0x0 PUSH2 0x2A7 SWAP2 SWAP1 PUSH2 0x274F JUMP JUMPDEST PUSH1 0x3 DUP3 ADD PUSH1 0x0 PUSH2 0x2B7 SWAP2 SWAP1 PUSH2 0x274F JUMP JUMPDEST PUSH1 0x4 DUP3 ADD PUSH1 0x0 PUSH2 0x2C7 SWAP2 SWAP1 PUSH2 0x274F JUMP JUMPDEST PUSH1 0x5 DUP3 ADD PUSH1 0x0 PUSH2 0x100 EXP DUP2 SLOAD SWAP1 PUSH1 0xFF MUL NOT AND SWAP1 SSTORE PUSH1 0x6 DUP3 ADD PUSH1 0x0 PUSH2 0x2EB SWAP2 SWAP1 PUSH2 0x274F JUMP JUMPDEST PUSH1 0x7 DUP3 ADD PUSH1 0x0 PUSH2 0x100 EXP DUP2 SLOAD SWAP1 PUSH20 0xFFFFFFFFFFFFFFFFFFFFFFFFFFFFFFFFFFFFFFFF MUL NOT AND SWAP1 SSTORE PUSH1 0x8 DUP3 ADD PUSH1 0x0 SWAP1 SSTORE PUSH1 0x9 DUP3 ADD PUSH1 0x0 SWAP1 SSTORE POP POP PUSH1 0x1 PUSH1 0x0 DUP2 SLOAD DUP1 SWAP3 SWAP2 SWAP1 PUSH2 0x337 SWAP1 PUSH2 0x3055 JUMP JUMPDEST SWAP2 SWAP1 POP SSTORE POP POP JUMP JUMPDEST PUSH1 0x0 CALLER PUSH20 0xFFFFFFFFFFFFFFFFFFFFFFFFFFFFFFFFFFFFFFFF AND PUSH1 0x2 PUSH1 0x0 DUP6 PUSH20 0xFFFFFFFFFFFFFFFFFFFFFFFFFFFFFFFFFFFFFFFF AND PUSH20 0xFFFFFFFFFFFFFFFFFFFFFFFFFFFFFFFFFFFFFFFF AND DUP2 MSTORE PUSH1 0x20 ADD SWAP1 DUP2 MSTORE PUSH1 0x20 ADD PUSH1 0x0 KECCAK256 PUSH1 0x7 ADD PUSH1 0x0 SWAP1 SLOAD SWAP1 PUSH2 0x100 EXP SWAP1 DIV PUSH20 0xFFFFFFFFFFFFFFFFFFFFFFFFFFFFFFFFFFFFFFFF AND PUSH20 0xFFFFFFFFFFFFFFFFFFFFFFFFFFFFFFFFFFFFFFFF AND EQ DUP1 ISZERO PUSH2 0x4AE JUMPI POP PUSH2 0x4AD DUP3 PUSH1 0x2 PUSH1 0x0 DUP7 PUSH20 0xFFFFFFFFFFFFFFFFFFFFFFFFFFFFFFFFFFFFFFFF AND PUSH20 0xFFFFFFFFFFFFFFFFFFFFFFFFFFFFFFFFFFFFFFFF AND DUP2 MSTORE PUSH1 0x20 ADD SWAP1 DUP2 MSTORE PUSH1 0x20 ADD PUSH1 0x0 KECCAK256 PUSH1 0x3 ADD DUP1 SLOAD PUSH2 0x42A SWAP1 PUSH2 0x30AD JUMP JUMPDEST DUP1 PUSH1 0x1F ADD PUSH1 0x20 DUP1 SWAP2 DIV MUL PUSH1 0x20 ADD PUSH1 0x40 MLOAD SWAP1 DUP2 ADD PUSH1 0x40 MSTORE DUP1 SWAP3 SWAP2 SWAP1 DUP2 DUP2 MSTORE PUSH1 0x20 ADD DUP3 DUP1 SLOAD PUSH2 0x456 SWAP1 PUSH2 0x30AD JUMP JUMPDEST DUP1 ISZERO PUSH2 0x4A3 JUMPI DUP1 PUSH1 0x1F LT PUSH2 0x478 JUMPI PUSH2 0x100 DUP1 DUP4 SLOAD DIV MUL DUP4 MSTORE SWAP2 PUSH1 0x20 ADD SWAP2 PUSH2 0x4A3 JUMP JUMPDEST DUP3 ADD SWAP2 SWAP1 PUSH1 0x0 MSTORE PUSH1 0x20 PUSH1 0x0 KECCAK256 SWAP1 JUMPDEST DUP2 SLOAD DUP2 MSTORE SWAP1 PUSH1 0x1 ADD SWAP1 PUSH1 0x20 ADD DUP1 DUP4 GT PUSH2 0x486 JUMPI DUP3 SWAP1 SUB PUSH1 0x1F AND DUP3 ADD SWAP2 JUMPDEST POP POP POP POP POP PUSH2 0x21EB JUMP JUMPDEST JUMPDEST PUSH1 0x2 PUSH1 0x0 DUP6 PUSH20 0xFFFFFFFFFFFFFFFFFFFFFFFFFFFFFFFFFFFFFFFF AND PUSH20 0xFFFFFFFFFFFFFFFFFFFFFFFFFFFFFFFFFFFFFFFF AND DUP2 MSTORE PUSH1 0x20 ADD SWAP1 DUP2 MSTORE PUSH1 0x20 ADD PUSH1 0x0 KECCAK256 PUSH1 0x3 ADD PUSH1 0x40 MLOAD PUSH1 0x20 ADD PUSH2 0x500 SWAP2 SWAP1 PUSH2 0x31A7 JUMP JUMPDEST PUSH1 0x40 MLOAD PUSH1 0x20 DUP2 DUP4 SUB SUB DUP2 MSTORE SWAP1 PUSH1 0x40 MSTORE SWAP1 PUSH2 0x550 JUMPI PUSH1 0x40 MLOAD PUSH32 0x8C379A000000000000000000000000000000000000000000000000000000000 DUP2 MSTORE PUSH1 0x4 ADD PUSH2 0x547 SWAP2 SWAP1 PUSH2 0x3206 JUMP JUMPDEST PUSH1 0x40 MLOAD DUP1 SWAP2 SUB SWAP1 REVERT JUMPDEST POP DUP2 DUP4 PUSH1 0x40 MLOAD PUSH1 0x20 ADD PUSH2 0x563 SWAP2 SWAP1 PUSH2 0x3270 JUMP JUMPDEST PUSH1 0x40 MLOAD PUSH1 0x20 DUP2 DUP4 SUB SUB DUP2 MSTORE SWAP1 PUSH1 0x40 MSTORE PUSH2 0x57B TIMESTAMP PUSH2 0x2244 JUMP JUMPDEST PUSH1 0x40 MLOAD PUSH1 0x20 ADD PUSH2 0x58D SWAP4 SWAP3 SWAP2 SWAP1 PUSH2 0x32BC JUMP JUMPDEST PUSH1 0x40 MLOAD PUSH1 0x20 DUP2 DUP4 SUB SUB DUP2 MSTORE SWAP1 PUSH1 0x40 MSTORE PUSH1 0x40 MLOAD PUSH1 0x20 ADD PUSH2 0x5AC SWAP2 SWAP1 PUSH2 0x32ED JUMP JUMPDEST PUSH1 0x40 MLOAD PUSH1 0x20 DUP2 DUP4 SUB SUB DUP2 MSTORE SWAP1 PUSH1 0x40 MSTORE DUP1 MLOAD SWAP1 PUSH1 0x20 ADD KECCAK256 PUSH1 0x2 PUSH1 0x0 DUP6 PUSH20 0xFFFFFFFFFFFFFFFFFFFFFFFFFFFFFFFFFFFFFFFF AND PUSH20 0xFFFFFFFFFFFFFFFFFFFFFFFFFFFFFFFFFFFFFFFF AND DUP2 MSTORE PUSH1 0x20 ADD SWAP1 DUP2 MSTORE PUSH1 0x20 ADD PUSH1 0x0 KECCAK256 PUSH1 0x9 ADD DUP2 SWAP1 SSTORE POP PUSH32 0x64E77DE958DC791103EA3E91568BAEC95379923C83744BCCC6B42A9A66423C9C PUSH1 0x2 PUSH1 0x0 DUP6 PUSH20 0xFFFFFFFFFFFFFFFFFFFFFFFFFFFFFFFFFFFFFFFF AND PUSH20 0xFFFFFFFFFFFFFFFFFFFFFFFFFFFFFFFFFFFFFFFF AND DUP2 MSTORE PUSH1 0x20 ADD SWAP1 DUP2 MSTORE PUSH1 0x20 ADD PUSH1 0x0 KECCAK256 PUSH1 0x9 ADD SLOAD PUSH1 0x40 MLOAD PUSH2 0x679 SWAP2 SWAP1 PUSH2 0x2B05 JUMP JUMPDEST PUSH1 0x40 MLOAD DUP1 SWAP2 SUB SWAP1 LOG1 PUSH1 0x2 PUSH1 0x0 DUP5 PUSH20 0xFFFFFFFFFFFFFFFFFFFFFFFFFFFFFFFFFFFFFFFF AND PUSH20 0xFFFFFFFFFFFFFFFFFFFFFFFFFFFFFFFFFFFFFFFF AND DUP2 MSTORE PUSH1 0x20 ADD SWAP1 DUP2 MSTORE PUSH1 0x20 ADD PUSH1 0x0 KECCAK256 PUSH1 0x9 ADD SLOAD SWAP1 POP SWAP3 SWAP2 POP POP JUMP JUMPDEST PUSH2 0x6D5 DUP2 PUSH2 0x19E JUMP JUMPDEST PUSH1 0x0 CALLER SWAP1 POP CALLER PUSH20 0xFFFFFFFFFFFFFFFFFFFFFFFFFFFFFFFFFFFFFFFF AND PUSH1 0x2 PUSH1 0x0 DUP4 PUSH20 0xFFFFFFFFFFFFFFFFFFFFFFFFFFFFFFFFFFFFFFFF AND PUSH20 0xFFFFFFFFFFFFFFFFFFFFFFFFFFFFFFFFFFFFFFFF AND DUP2 MSTORE PUSH1 0x20 ADD SWAP1 DUP2 MSTORE PUSH1 0x20 ADD PUSH1 0x0 KECCAK256 PUSH1 0x7 ADD PUSH1 0x0 SWAP1 SLOAD SWAP1 PUSH2 0x100 EXP SWAP1 DIV PUSH20 0xFFFFFFFFFFFFFFFFFFFFFFFFFFFFFFFFFFFFFFFF AND PUSH20 0xFFFFFFFFFFFFFFFFFFFFFFFFFFFFFFFFFFFFFFFF AND EQ PUSH2 0x931 JUMPI DUP7 PUSH1 0x2 PUSH1 0x0 DUP4 PUSH20 0xFFFFFFFFFFFFFFFFFFFFFFFFFFFFFFFFFFFFFFFF AND PUSH20 0xFFFFFFFFFFFFFFFFFFFFFFFFFFFFFFFFFFFFFFFF AND DUP2 MSTORE PUSH1 0x20 ADD SWAP1 DUP2 MSTORE PUSH1 0x20 ADD PUSH1 0x0 KECCAK256 PUSH1 0x0 ADD SWAP1 DUP2 PUSH2 0x7BE SWAP2 SWAP1 PUSH2 0x349B JUMP JUMPDEST POP DUP6 PUSH1 0x2 PUSH1 0x0 DUP4 PUSH20 0xFFFFFFFFFFFFFFFFFFFFFFFFFFFFFFFFFFFFFFFF AND PUSH20 0xFFFFFFFFFFFFFFFFFFFFFFFFFFFFFFFFFFFFFFFF AND DUP2 MSTORE PUSH1 0x20 ADD SWAP1 DUP2 MSTORE PUSH1 0x20 ADD PUSH1 0x0 KECCAK256 PUSH1 0x2 ADD SWAP1 DUP2 PUSH2 0x80E SWAP2 SWAP1 PUSH2 0x349B JUMP JUMPDEST POP DUP5 PUSH1 0x2 PUSH1 0x0 DUP4 PUSH20 0xFFFFFFFFFFFFFFFFFFFFFFFFFFFFFFFFFFFFFFFF AND PUSH20 0xFFFFFFFFFFFFFFFFFFFFFFFFFFFFFFFFFFFFFFFF AND DUP2 MSTORE PUSH1 0x20 ADD SWAP1 DUP2 MSTORE PUSH1 0x20 ADD PUSH1 0x0 KECCAK256 PUSH1 0x4 ADD SWAP1 DUP2 PUSH2 0x85E SWAP2 SWAP1 PUSH2 0x349B JUMP JUMPDEST POP DUP4 PUSH1 0x2 PUSH1 0x0 DUP4 PUSH20 0xFFFFFFFFFFFFFFFFFFFFFFFFFFFFFFFFFFFFFFFF AND PUSH20 0xFFFFFFFFFFFFFFFFFFFFFFFFFFFFFFFFFFFFFFFF AND DUP2 MSTORE PUSH1 0x20 ADD SWAP1 DUP2 MSTORE PUSH1 0x20 ADD PUSH1 0x0 KECCAK256 PUSH1 0x7 ADD PUSH1 0x0 PUSH2 0x100 EXP DUP2 SLOAD DUP2 PUSH20 0xFFFFFFFFFFFFFFFFFFFFFFFFFFFFFFFFFFFFFFFF MUL NOT AND SWAP1 DUP4 PUSH20 0xFFFFFFFFFFFFFFFFFFFFFFFFFFFFFFFFFFFFFFFF AND MUL OR SWAP1 SSTORE POP DUP3 PUSH1 0x2 PUSH1 0x0 DUP4 PUSH20 0xFFFFFFFFFFFFFFFFFFFFFFFFFFFFFFFFFFFFFFFF AND PUSH20 0xFFFFFFFFFFFFFFFFFFFFFFFFFFFFFFFFFFFFFFFF AND DUP2 MSTORE PUSH1 0x20 ADD SWAP1 DUP2 MSTORE PUSH1 0x20 ADD PUSH1 0x0 KECCAK256 PUSH1 0x6 ADD SWAP1 DUP2 PUSH2 0x92F SWAP2 SWAP1 PUSH2 0x349B JUMP JUMPDEST POP JUMPDEST POP POP POP POP POP POP POP JUMP JUMPDEST PUSH1 0x0 PUSH2 0x944 PUSH2 0x215B JUMP JUMPDEST PUSH1 0x5 DUP6 PUSH1 0xFF AND GT ISZERO PUSH2 0x98B JUMPI PUSH1 0x40 MLOAD PUSH32 0x8C379A000000000000000000000000000000000000000000000000000000000 DUP2 MSTORE PUSH1 0x4 ADD PUSH2 0x982 SWAP1 PUSH2 0x35B9 JUMP JUMPDEST PUSH1 0x40 MLOAD DUP1 SWAP2 SUB SWAP1 REVERT JUMPDEST PUSH1 0xD DUP9 MLOAD EQ DUP9 PUSH1 0x40 MLOAD PUSH1 0x20 ADD PUSH2 0x9A1 SWAP2 SWAP1 PUSH2 0x35FF JUMP JUMPDEST PUSH1 0x40 MLOAD PUSH1 0x20 DUP2 DUP4 SUB SUB DUP2 MSTORE SWAP1 PUSH1 0x40 MSTORE SWAP1 PUSH2 0x9F1 JUMPI PUSH1 0x40 MLOAD PUSH32 0x8C379A000000000000000000000000000000000000000000000000000000000 DUP2 MSTORE PUSH1 0x4 ADD PUSH2 0x9E8 SWAP2 SWAP1 PUSH2 0x3206 JUMP JUMPDEST PUSH1 0x40 MLOAD DUP1 SWAP2 SUB SWAP1 REVERT JUMPDEST POP PUSH1 0x6 DUP10 MLOAD GT PUSH2 0xA36 JUMPI PUSH1 0x40 MLOAD PUSH32 0x8C379A000000000000000000000000000000000000000000000000000000000 DUP2 MSTORE PUSH1 0x4 ADD PUSH2 0xA2D SWAP1 PUSH2 0x3671 JUMP JUMPDEST PUSH1 0x40 MLOAD DUP1 SWAP2 SUB SWAP1 REVERT JUMPDEST PUSH1 0xA DUP8 MLOAD GT PUSH2 0xA7A JUMPI PUSH1 0x40 MLOAD PUSH32 0x8C379A000000000000000000000000000000000000000000000000000000000 DUP2 MSTORE PUSH1 0x4 ADD PUSH2 0xA71 SWAP1 PUSH2 0x36DD JUMP JUMPDEST PUSH1 0x40 MLOAD DUP1 SWAP2 SUB SWAP1 REVERT JUMPDEST PUSH1 0x8 DUP7 MLOAD GT PUSH2 0xABE JUMPI PUSH1 0x40 MLOAD PUSH32 0x8C379A000000000000000000000000000000000000000000000000000000000 DUP2 MSTORE PUSH1 0x4 ADD PUSH2 0xAB5 SWAP1 PUSH2 0x3749 JUMP JUMPDEST PUSH1 0x40 MLOAD DUP1 SWAP2 SUB SWAP1 REVERT JUMPDEST PUSH1 0x6 DUP5 MLOAD GT PUSH2 0xB02 JUMPI PUSH1 0x40 MLOAD PUSH32 0x8C379A000000000000000000000000000000000000000000000000000000000 DUP2 MSTORE PUSH1 0x4 ADD PUSH2 0xAF9 SWAP1 PUSH2 0x37B5 JUMP JUMPDEST PUSH1 0x40 MLOAD DUP1 SWAP2 SUB SWAP1 REVERT JUMPDEST PUSH1 0x0 CALLER SWAP1 POP PUSH1 0x0 DUP11 DUP11 PUSH2 0xB17 DUP10 PUSH1 0xFF AND PUSH2 0x2244 JUMP JUMPDEST DUP12 DUP12 DUP11 PUSH1 0x40 MLOAD PUSH1 0x20 ADD PUSH2 0xB2F SWAP7 SWAP6 SWAP5 SWAP4 SWAP3 SWAP2 SWAP1 PUSH2 0x37D5 JUMP JUMPDEST PUSH1 0x40 MLOAD PUSH1 0x20 DUP2 DUP4 SUB SUB DUP2 MSTORE SWAP1 PUSH1 0x40 MSTORE PUSH1 0x40 MLOAD PUSH1 0x20 ADD PUSH2 0xB4E SWAP2 SWAP1 PUSH2 0x32ED JUMP JUMPDEST PUSH1 0x40 MLOAD PUSH1 0x20 DUP2 DUP4 SUB SUB DUP2 MSTORE SWAP1 PUSH1 0x40 MSTORE DUP1 MLOAD SWAP1 PUSH1 0x20 ADD KECCAK256 SWAP1 POP PUSH1 0x0 DUP8 PUSH1 0xFF AND SUB PUSH2 0xFE7 JUMPI PUSH1 0x40 MLOAD DUP1 PUSH2 0x140 ADD PUSH1 0x40 MSTORE DUP1 PUSH20 0x0 PUSH4 0x15CFEC7 DUP15 DUP13 PUSH1 0x40 MLOAD DUP4 PUSH4 0xFFFFFFFF AND PUSH1 0xE0 SHL DUP2 MSTORE PUSH1 0x4 ADD PUSH2 0xBB6 SWAP3 SWAP2 SWAP1 PUSH2 0x3882 JUMP JUMPDEST PUSH1 0x0 PUSH1 0x40 MLOAD DUP1 DUP4 SUB DUP2 DUP7 GAS DELEGATECALL ISZERO DUP1 ISZERO PUSH2 0xBD3 JUMPI RETURNDATASIZE PUSH1 0x0 DUP1 RETURNDATACOPY RETURNDATASIZE PUSH1 0x0 REVERT JUMPDEST POP POP POP POP PUSH1 0x40 MLOAD RETURNDATASIZE PUSH1 0x0 DUP3 RETURNDATACOPY RETURNDATASIZE PUSH1 0x1F NOT PUSH1 0x1F DUP3 ADD AND DUP3 ADD DUP1 PUSH1 0x40 MSTORE POP DUP2 ADD SWAP1 PUSH2 0xBFC SWAP2 SWAP1 PUSH2 0x395A JUMP JUMPDEST DUP2 MSTORE PUSH1 0x20 ADD PUSH20 0x0 PUSH4 0x15CFEC7 DUP14 DUP13 PUSH1 0x40 MLOAD DUP4 PUSH4 0xFFFFFFFF AND PUSH1 0xE0 SHL DUP2 MSTORE PUSH1 0x4 ADD PUSH2 0xC3A SWAP3 SWAP2 SWAP1 PUSH2 0x3882 JUMP JUMPDEST PUSH1 0x0 PUSH1 0x40 MLOAD DUP1 DUP4 SUB DUP2 DUP7 GAS DELEGATECALL ISZERO DUP1 ISZERO PUSH2 0xC57 JUMPI RETURNDATASIZE PUSH1 0x0 DUP1 RETURNDATACOPY RETURNDATASIZE PUSH1 0x0 REVERT JUMPDEST POP POP POP POP PUSH1 0x40 MLOAD RETURNDATASIZE PUSH1 0x0 DUP3 RETURNDATACOPY RETURNDATASIZE PUSH1 0x1F NOT PUSH1 0x1F DUP3 ADD AND DUP3 ADD DUP1 PUSH1 0x40 MSTORE POP DUP2 ADD SWAP1 PUSH2 0xC80 SWAP2 SWAP1 PUSH2 0x395A JUMP JUMPDEST DUP2 MSTORE PUSH1 0x20 ADD PUSH20 0x0 PUSH4 0x15CFEC7 DUP13 DUP13 PUSH1 0x40 MLOAD DUP4 PUSH4 0xFFFFFFFF AND PUSH1 0xE0 SHL DUP2 MSTORE PUSH1 0x4 ADD PUSH2 0xCBE SWAP3 SWAP2 SWAP1 PUSH2 0x3882 JUMP JUMPDEST PUSH1 0x0 PUSH1 0x40 MLOAD DUP1 DUP4 SUB DUP2 DUP7 GAS DELEGATECALL ISZERO DUP1 ISZERO PUSH2 0xCDB JUMPI RETURNDATASIZE PUSH1 0x0 DUP1 RETURNDATACOPY RETURNDATASIZE PUSH1 0x0 REVERT JUMPDEST POP POP POP POP PUSH1 0x40 MLOAD RETURNDATASIZE PUSH1 0x0 DUP3 RETURNDATACOPY RETURNDATASIZE PUSH1 0x1F NOT PUSH1 0x1F DUP3 ADD AND DUP3 ADD DUP1 PUSH1 0x40 MSTORE POP DUP2 ADD SWAP1 PUSH2 0xD04 SWAP2 SWAP1 PUSH2 0x395A JUMP JUMPDEST DUP2 MSTORE PUSH1 0x20 ADD PUSH2 0xD3B DUP11 PUSH1 0x40 MLOAD PUSH1 0x20 ADD PUSH2 0xD1D SWAP2 SWAP1 PUSH2 0x32ED JUMP JUMPDEST PUSH1 0x40 MLOAD PUSH1 0x20 DUP2 DUP4 SUB SUB DUP2 MSTORE SWAP1 PUSH1 0x40 MSTORE DUP1 MLOAD SWAP1 PUSH1 0x20 ADD KECCAK256 PUSH1 0x0 SHR PUSH2 0x2312 JUMP JUMPDEST DUP2 MSTORE PUSH1 0x20 ADD PUSH20 0x0 PUSH4 0x15CFEC7 DUP10 DUP13 PUSH1 0x40 MLOAD DUP4 PUSH4 0xFFFFFFFF AND PUSH1 0xE0 SHL DUP2 MSTORE PUSH1 0x4 ADD PUSH2 0xD79 SWAP3 SWAP2 SWAP1 PUSH2 0x3882 JUMP JUMPDEST PUSH1 0x0 PUSH1 0x40 MLOAD DUP1 DUP4 SUB DUP2 DUP7 GAS DELEGATECALL ISZERO DUP1 ISZERO PUSH2 0xD96 JUMPI RETURNDATASIZE PUSH1 0x0 DUP1 RETURNDATACOPY RETURNDATASIZE PUSH1 0x0 REVERT JUMPDEST POP POP POP POP PUSH1 0x40 MLOAD RETURNDATASIZE PUSH1 0x0 DUP3 RETURNDATACOPY RETURNDATASIZE PUSH1 0x1F NOT PUSH1 0x1F DUP3 ADD AND DUP3 ADD DUP1 PUSH1 0x40 MSTORE POP DUP2 ADD SWAP1 PUSH2 0xDBF SWAP2 SWAP1 PUSH2 0x395A JUMP JUMPDEST DUP2 MSTORE PUSH1 0x20 ADD DUP9 PUSH1 0xFF AND DUP2 MSTORE PUSH1 0x20 ADD PUSH1 0x40 MLOAD DUP1 PUSH1 0x40 ADD PUSH1 0x40 MSTORE DUP1 PUSH1 0x1 DUP2 MSTORE PUSH1 0x20 ADD PUSH32 0x3000000000000000000000000000000000000000000000000000000000000000 DUP2 MSTORE POP DUP2 MSTORE PUSH1 0x20 ADD DUP7 PUSH20 0xFFFFFFFFFFFFFFFFFFFFFFFFFFFFFFFFFFFFFFFF AND DUP2 MSTORE PUSH1 0x20 ADD DUP3 DUP2 MSTORE PUSH1 0x20 ADD DUP10 DUP5 PUSH1 0x40 MLOAD PUSH1 0x20 ADD PUSH2 0xE3C SWAP2 SWAP1 PUSH2 0x3270 JUMP JUMPDEST PUSH1 0x40 MLOAD PUSH1 0x20 DUP2 DUP4 SUB SUB DUP2 MSTORE SWAP1 PUSH1 0x40 MSTORE PUSH2 0xE54 TIMESTAMP PUSH2 0x2244 JUMP JUMPDEST PUSH1 0x40 MLOAD PUSH1 0x20 ADD PUSH2 0xE66 SWAP4 SWAP3 SWAP2 SWAP1 PUSH2 0x32BC JUMP JUMPDEST PUSH1 0x40 MLOAD PUSH1 0x20 DUP2 DUP4 SUB SUB DUP2 MSTORE SWAP1 PUSH1 0x40 MSTORE PUSH1 0x40 MLOAD PUSH1 0x20 ADD PUSH2 0xE85 SWAP2 SWAP1 PUSH2 0x32ED JUMP JUMPDEST PUSH1 0x40 MLOAD PUSH1 0x20 DUP2 DUP4 SUB SUB DUP2 MSTORE SWAP1 PUSH1 0x40 MSTORE DUP1 MLOAD SWAP1 PUSH1 0x20 ADD KECCAK256 DUP2 MSTORE POP PUSH1 0x2 PUSH1 0x0 DUP5 PUSH20 0xFFFFFFFFFFFFFFFFFFFFFFFFFFFFFFFFFFFFFFFF AND PUSH20 0xFFFFFFFFFFFFFFFFFFFFFFFFFFFFFFFFFFFFFFFF AND DUP2 MSTORE PUSH1 0x20 ADD SWAP1 DUP2 MSTORE PUSH1 0x20 ADD PUSH1 0x0 KECCAK256 PUSH1 0x0 DUP3 ADD MLOAD DUP2 PUSH1 0x0 ADD SWAP1 DUP2 PUSH2 0xEF2 SWAP2 SWAP1 PUSH2 0x349B JUMP JUMPDEST POP PUSH1 0x20 DUP3 ADD MLOAD DUP2 PUSH1 0x1 ADD SWAP1 DUP2 PUSH2 0xF08 SWAP2 SWAP1 PUSH2 0x349B JUMP JUMPDEST POP PUSH1 0x40 DUP3 ADD MLOAD DUP2 PUSH1 0x2 ADD SWAP1 DUP2 PUSH2 0xF1E SWAP2 SWAP1 PUSH2 0x349B JUMP JUMPDEST POP PUSH1 0x60 DUP3 ADD MLOAD DUP2 PUSH1 0x3 ADD SWAP1 DUP2 PUSH2 0xF34 SWAP2 SWAP1 PUSH2 0x349B JUMP JUMPDEST POP PUSH1 0x80 DUP3 ADD MLOAD DUP2 PUSH1 0x4 ADD SWAP1 DUP2 PUSH2 0xF4A SWAP2 SWAP1 PUSH2 0x349B JUMP JUMPDEST POP PUSH1 0xA0 DUP3 ADD MLOAD DUP2 PUSH1 0x5 ADD PUSH1 0x0 PUSH2 0x100 EXP DUP2 SLOAD DUP2 PUSH1 0xFF MUL NOT AND SWAP1 DUP4 PUSH1 0xFF AND MUL OR SWAP1 SSTORE POP PUSH1 0xC0 DUP3 ADD MLOAD DUP2 PUSH1 0x6 ADD SWAP1 DUP2 PUSH2 0xF81 SWAP2 SWAP1 PUSH2 0x349B JUMP JUMPDEST POP PUSH1 0xE0 DUP3 ADD MLOAD DUP2 PUSH1 0x7 ADD PUSH1 0x0 PUSH2 0x100 EXP DUP2 SLOAD DUP2 PUSH20 0xFFFFFFFFFFFFFFFFFFFFFFFFFFFFFFFFFFFFFFFF MUL NOT AND SWAP1 DUP4 PUSH20 0xFFFFFFFFFFFFFFFFFFFFFFFFFFFFFFFFFFFFFFFF AND MUL OR SWAP1 SSTORE POP PUSH2 0x100 DUP3 ADD MLOAD DUP2 PUSH1 0x8 ADD SSTORE PUSH2 0x120 DUP3 ADD MLOAD DUP2 PUSH1 0x9 ADD SSTORE SWAP1 POP POP PUSH2 0x11FB JUMP JUMPDEST PUSH1 0x40 MLOAD DUP1 PUSH2 0x140 ADD PUSH1 0x40 MSTORE DUP1 DUP13 DUP2 MSTORE PUSH1 0x20 ADD DUP12 DUP2 MSTORE PUSH1 0x20 ADD DUP11 DUP2 MSTORE PUSH1 0x20 ADD DUP10 DUP2 MSTORE PUSH1 0x20 ADD DUP8 DUP2 MSTORE PUSH1 0x20 ADD DUP9 PUSH1 0xFF AND DUP2 MSTORE PUSH1 0x20 ADD DUP6 DUP2 MSTORE PUSH1 0x20 ADD DUP7 PUSH20 0xFFFFFFFFFFFFFFFFFFFFFFFFFFFFFFFFFFFFFFFF AND DUP2 MSTORE PUSH1 0x20 ADD DUP3 DUP2 MSTORE PUSH1 0x20 ADD DUP10 DUP5 PUSH1 0x40 MLOAD PUSH1 0x20 ADD PUSH2 0x1054 SWAP2 SWAP1 PUSH2 0x3270 JUMP JUMPDEST PUSH1 0x40 MLOAD PUSH1 0x20 DUP2 DUP4 SUB SUB DUP2 MSTORE SWAP1 PUSH1 0x40 MSTORE PUSH2 0x106C TIMESTAMP PUSH2 0x2244 JUMP JUMPDEST PUSH1 0x40 MLOAD PUSH1 0x20 ADD PUSH2 0x107E SWAP4 SWAP3 SWAP2 SWAP1 PUSH2 0x32BC JUMP JUMPDEST PUSH1 0x40 MLOAD PUSH1 0x20 DUP2 DUP4 SUB SUB DUP2 MSTORE SWAP1 PUSH1 0x40 MSTORE PUSH1 0x40 MLOAD PUSH1 0x20 ADD PUSH2 0x109D SWAP2 SWAP1 PUSH2 0x32ED JUMP JUMPDEST PUSH1 0x40 MLOAD PUSH1 0x20 DUP2 DUP4 SUB SUB DUP2 MSTORE SWAP1 PUSH1 0x40 MSTORE DUP1 MLOAD SWAP1 PUSH1 0x20 ADD KECCAK256 DUP2 MSTORE POP PUSH1 0x2 PUSH1 0x0 DUP5 PUSH20 0xFFFFFFFFFFFFFFFFFFFFFFFFFFFFFFFFFFFFFFFF AND PUSH20 0xFFFFFFFFFFFFFFFFFFFFFFFFFFFFFFFFFFFFFFFF AND DUP2 MSTORE PUSH1 0x20 ADD SWAP1 DUP2 MSTORE PUSH1 0x20 ADD PUSH1 0x0 KECCAK256 PUSH1 0x0 DUP3 ADD MLOAD DUP2 PUSH1 0x0 ADD SWAP1 DUP2 PUSH2 0x110A SWAP2 SWAP1 PUSH2 0x349B JUMP JUMPDEST POP PUSH1 0x20 DUP3 ADD MLOAD DUP2 PUSH1 0x1 ADD SWAP1 DUP2 PUSH2 0x1120 SWAP2 SWAP1 PUSH2 0x349B JUMP JUMPDEST POP PUSH1 0x40 DUP3 ADD MLOAD DUP2 PUSH1 0x2 ADD SWAP1 DUP2 PUSH2 0x1136 SWAP2 SWAP1 PUSH2 0x349B JUMP JUMPDEST POP PUSH1 0x60 DUP3 ADD MLOAD DUP2 PUSH1 0x3 ADD SWAP1 DUP2 PUSH2 0x114C SWAP2 SWAP1 PUSH2 0x349B JUMP JUMPDEST POP PUSH1 0x80 DUP3 ADD MLOAD DUP2 PUSH1 0x4 ADD SWAP1 DUP2 PUSH2 0x1162 SWAP2 SWAP1 PUSH2 0x349B JUMP JUMPDEST POP PUSH1 0xA0 DUP3 ADD MLOAD DUP2 PUSH1 0x5 ADD PUSH1 0x0 PUSH2 0x100 EXP DUP2 SLOAD DUP2 PUSH1 0xFF MUL NOT AND SWAP1 DUP4 PUSH1 0xFF AND MUL OR SWAP1 SSTORE POP PUSH1 0xC0 DUP3 ADD MLOAD DUP2 PUSH1 0x6 ADD SWAP1 DUP2 PUSH2 0x1199 SWAP2 SWAP1 PUSH2 0x349B JUMP JUMPDEST POP PUSH1 0xE0 DUP3 ADD MLOAD DUP2 PUSH1 0x7 ADD PUSH1 0x0 PUSH2 0x100 EXP DUP2 SLOAD DUP2 PUSH20 0xFFFFFFFFFFFFFFFFFFFFFFFFFFFFFFFFFFFFFFFF MUL NOT AND SWAP1 DUP4 PUSH20 0xFFFFFFFFFFFFFFFFFFFFFFFFFFFFFFFFFFFFFFFF AND MUL OR SWAP1 SSTORE POP PUSH2 0x100 DUP3 ADD MLOAD DUP2 PUSH1 0x8 ADD SSTORE PUSH2 0x120 DUP3 ADD MLOAD DUP2 PUSH1 0x9 ADD SSTORE SWAP1 POP POP JUMPDEST PUSH1 0x1 PUSH1 0x0 DUP2 SLOAD DUP1 SWAP3 SWAP2 SWAP1 PUSH2 0x120E SWAP1 PUSH2 0x39A3 JUMP JUMPDEST SWAP2 SWAP1 POP SSTORE POP PUSH32 0x903B7AC47B7DA7B36FEDEC2C9EAE9FE8E1DAF2406A8E7A3F077DB196B45A7EF8 DUP3 PUSH1 0x40 MLOAD PUSH2 0x1242 SWAP2 SWAP1 PUSH2 0x2DC3 JUMP JUMPDEST PUSH1 0x40 MLOAD DUP1 SWAP2 SUB SWAP1 LOG1 DUP2 SWAP3 POP POP POP SWAP9 SWAP8 POP POP POP POP POP POP POP POP JUMP JUMPDEST PUSH2 0x1263 PUSH2 0x278F JUMP JUMPDEST PUSH2 0x126B PUSH2 0x278F JUMP JUMPDEST CALLER PUSH20 0xFFFFFFFFFFFFFFFFFFFFFFFFFFFFFFFFFFFFFFFF AND PUSH1 0x2 PUSH1 0x0 DUP7 PUSH20 0xFFFFFFFFFFFFFFFFFFFFFFFFFFFFFFFFFFFFFFFF AND PUSH20 0xFFFFFFFFFFFFFFFFFFFFFFFFFFFFFFFFFFFFFFFF AND DUP2 MSTORE PUSH1 0x20 ADD SWAP1 DUP2 MSTORE PUSH1 0x20 ADD PUSH1 0x0 KECCAK256 PUSH1 0x7 ADD PUSH1 0x0 SWAP1 SLOAD SWAP1 PUSH2 0x100 EXP SWAP1 DIV PUSH20 0xFFFFFFFFFFFFFFFFFFFFFFFFFFFFFFFFFFFFFFFF AND PUSH20 0xFFFFFFFFFFFFFFFFFFFFFFFFFFFFFFFFFFFFFFFF AND EQ PUSH2 0x15EA JUMPI PUSH1 0x40 MLOAD DUP1 PUSH2 0x140 ADD PUSH1 0x40 MSTORE DUP1 PUSH1 0x40 MLOAD DUP1 PUSH1 0x40 ADD PUSH1 0x40 MSTORE DUP1 PUSH1 0xB DUP2 MSTORE PUSH1 0x20 ADD PUSH32 0x2A2A2A2A2A2A2A2A2A2A2A000000000000000000000000000000000000000000 DUP2 MSTORE POP DUP2 MSTORE PUSH1 0x20 ADD PUSH1 0x40 MLOAD DUP1 PUSH1 0x40 ADD PUSH1 0x40 MSTORE DUP1 PUSH1 0x6 DUP2 MSTORE PUSH1 0x20 ADD PUSH32 0x2A2A2A2A2A2A0000000000000000000000000000000000000000000000000000 DUP2 MSTORE POP DUP2 MSTORE PUSH1 0x20 ADD PUSH1 0x40 MLOAD DUP1 PUSH1 0x40 ADD PUSH1 0x40 MSTORE DUP1 PUSH1 0xA DUP2 MSTORE PUSH1 0x20 ADD PUSH32 0x2A2A2A2A2A2A2A2A2A2A00000000000000000000000000000000000000000000 DUP2 MSTORE POP DUP2 MSTORE PUSH1 0x20 ADD PUSH1 0x40 MLOAD DUP1 PUSH1 0x40 ADD PUSH1 0x40 MSTORE DUP1 PUSH1 0x7 DUP2 MSTORE PUSH1 0x20 ADD PUSH32 0x2A2A2A2A2A2A2A00000000000000000000000000000000000000000000000000 DUP2 MSTORE POP DUP2 MSTORE PUSH1 0x20 ADD PUSH1 0x40 MLOAD DUP1 PUSH1 0x40 ADD PUSH1 0x40 MSTORE DUP1 PUSH1 0x8 DUP2 MSTORE PUSH1 0x20 ADD PUSH32 0x2A2A2A2A2A2A2A2A000000000000000000000000000000000000000000000000 DUP2 MSTORE POP DUP2 MSTORE PUSH1 0x20 ADD PUSH1 0x2 PUSH1 0x0 DUP8 PUSH20 0xFFFFFFFFFFFFFFFFFFFFFFFFFFFFFFFFFFFFFFFF AND PUSH20 0xFFFFFFFFFFFFFFFFFFFFFFFFFFFFFFFFFFFFFFFF AND DUP2 MSTORE PUSH1 0x20 ADD SWAP1 DUP2 MSTORE PUSH1 0x20 ADD PUSH1 0x0 KECCAK256 PUSH1 0x5 ADD PUSH1 0x0 SWAP1 SLOAD SWAP1 PUSH2 0x100 EXP SWAP1 DIV PUSH1 0xFF AND PUSH1 0xFF AND DUP2 MSTORE PUSH1 0x20 ADD PUSH1 0x2 PUSH1 0x0 DUP8 PUSH20 0xFFFFFFFFFFFFFFFFFFFFFFFFFFFFFFFFFFFFFFFF AND PUSH20 0xFFFFFFFFFFFFFFFFFFFFFFFFFFFFFFFFFFFFFFFF AND DUP2 MSTORE PUSH1 0x20 ADD SWAP1 DUP2 MSTORE PUSH1 0x20 ADD PUSH1 0x0 KECCAK256 PUSH1 0x6 ADD DUP1 SLOAD PUSH2 0x14D8 SWAP1 PUSH2 0x30AD JUMP JUMPDEST DUP1 PUSH1 0x1F ADD PUSH1 0x20 DUP1 SWAP2 DIV MUL PUSH1 0x20 ADD PUSH1 0x40 MLOAD SWAP1 DUP2 ADD PUSH1 0x40 MSTORE DUP1 SWAP3 SWAP2 SWAP1 DUP2 DUP2 MSTORE PUSH1 0x20 ADD DUP3 DUP1 SLOAD PUSH2 0x1504 SWAP1 PUSH2 0x30AD JUMP JUMPDEST DUP1 ISZERO PUSH2 0x1551 JUMPI DUP1 PUSH1 0x1F LT PUSH2 0x1526 JUMPI PUSH2 0x100 DUP1 DUP4 SLOAD DIV MUL DUP4 MSTORE SWAP2 PUSH1 0x20 ADD SWAP2 PUSH2 0x1551 JUMP JUMPDEST DUP3 ADD SWAP2 SWAP1 PUSH1 0x0 MSTORE PUSH1 0x20 PUSH1 0x0 KECCAK256 SWAP1 JUMPDEST DUP2 SLOAD DUP2 MSTORE SWAP1 PUSH1 0x1 ADD SWAP1 PUSH1 0x20 ADD DUP1 DUP4 GT PUSH2 0x1534 JUMPI DUP3 SWAP1 SUB PUSH1 0x1F AND DUP3 ADD SWAP2 JUMPDEST POP POP POP POP POP DUP2 MSTORE PUSH1 0x20 ADD CALLER PUSH20 0xFFFFFFFFFFFFFFFFFFFFFFFFFFFFFFFFFFFFFFFF AND DUP2 MSTORE PUSH1 0x20 ADD PUSH1 0x2 PUSH1 0x0 DUP8 PUSH20 0xFFFFFFFFFFFFFFFFFFFFFFFFFFFFFFFFFFFFFFFF AND PUSH20 0xFFFFFFFFFFFFFFFFFFFFFFFFFFFFFFFFFFFFFFFF AND DUP2 MSTORE PUSH1 0x20 ADD SWAP1 DUP2 MSTORE PUSH1 0x20 ADD PUSH1 0x0 KECCAK256 PUSH1 0x8 ADD SLOAD DUP2 MSTORE PUSH1 0x20 ADD PUSH32 0x2A2A2A2A2A2A2A2A2A2A2A000000000000000000000000000000000000000000 DUP2 MSTORE POP SWAP1 POP PUSH2 0x1B5A JUMP JUMPDEST PUSH1 0x40 MLOAD DUP1 PUSH2 0x140 ADD PUSH1 0x40 MSTORE DUP1 PUSH20 0x0 PUSH4 0x15CFEC7 PUSH1 0x2 PUSH1 0x0 DUP10 PUSH20 0xFFFFFFFFFFFFFFFFFFFFFFFFFFFFFFFFFFFFFFFF AND PUSH20 0xFFFFFFFFFFFFFFFFFFFFFFFFFFFFFFFFFFFFFFFF AND DUP2 MSTORE PUSH1 0x20 ADD SWAP1 DUP2 MSTORE PUSH1 0x20 ADD PUSH1 0x0 KECCAK256 PUSH1 0x0 ADD DUP8 PUSH1 0x40 MLOAD DUP4 PUSH4 0xFFFFFFFF AND PUSH1 0xE0 SHL DUP2 MSTORE PUSH1 0x4 ADD PUSH2 0x1670 SWAP3 SWAP2 SWAP1 PUSH2 0x3A84 JUMP JUMPDEST PUSH1 0x0 PUSH1 0x40 MLOAD DUP1 DUP4 SUB DUP2 DUP7 GAS DELEGATECALL ISZERO DUP1 ISZERO PUSH2 0x168D JUMPI RETURNDATASIZE PUSH1 0x0 DUP1 RETURNDATACOPY RETURNDATASIZE PUSH1 0x0 REVERT JUMPDEST POP POP POP POP PUSH1 0x40 MLOAD RETURNDATASIZE PUSH1 0x0 DUP3 RETURNDATACOPY RETURNDATASIZE PUSH1 0x1F NOT PUSH1 0x1F DUP3 ADD AND DUP3 ADD DUP1 PUSH1 0x40 MSTORE POP DUP2 ADD SWAP1 PUSH2 0x16B6 SWAP2 SWAP1 PUSH2 0x395A JUMP JUMPDEST DUP2 MSTORE PUSH1 0x20 ADD PUSH20 0x0 PUSH4 0x15CFEC7 PUSH1 0x2 PUSH1 0x0 DUP10 PUSH20 0xFFFFFFFFFFFFFFFFFFFFFFFFFFFFFFFFFFFFFFFF AND PUSH20 0xFFFFFFFFFFFFFFFFFFFFFFFFFFFFFFFFFFFFFFFF AND DUP2 MSTORE PUSH1 0x20 ADD SWAP1 DUP2 MSTORE PUSH1 0x20 ADD PUSH1 0x0 KECCAK256 PUSH1 0x1 ADD DUP8 PUSH1 0x40 MLOAD DUP4 PUSH4 0xFFFFFFFF AND PUSH1 0xE0 SHL DUP2 MSTORE PUSH1 0x4 ADD PUSH2 0x1735 SWAP3 SWAP2 SWAP1 PUSH2 0x3A84 JUMP JUMPDEST PUSH1 0x0 PUSH1 0x40 MLOAD DUP1 DUP4 SUB DUP2 DUP7 GAS DELEGATECALL ISZERO DUP1 ISZERO PUSH2 0x1752 JUMPI RETURNDATASIZE PUSH1 0x0 DUP1 RETURNDATACOPY RETURNDATASIZE PUSH1 0x0 REVERT JUMPDEST POP POP POP POP PUSH1 0x40 MLOAD RETURNDATASIZE PUSH1 0x0 DUP3 RETURNDATACOPY RETURNDATASIZE PUSH1 0x1F NOT PUSH1 0x1F DUP3 ADD AND DUP3 ADD DUP1 PUSH1 0x40 MSTORE POP DUP2 ADD SWAP1 PUSH2 0x177B SWAP2 SWAP1 PUSH2 0x395A JUMP JUMPDEST DUP2 MSTORE PUSH1 0x20 ADD PUSH20 0x0 PUSH4 0x15CFEC7 PUSH1 0x2 PUSH1 0x0 DUP10 PUSH20 0xFFFFFFFFFFFFFFFFFFFFFFFFFFFFFFFFFFFFFFFF AND PUSH20 0xFFFFFFFFFFFFFFFFFFFFFFFFFFFFFFFFFFFFFFFF AND DUP2 MSTORE PUSH1 0x20 ADD SWAP1 DUP2 MSTORE PUSH1 0x20 ADD PUSH1 0x0 KECCAK256 PUSH1 0x2 ADD DUP8 PUSH1 0x40 MLOAD DUP4 PUSH4 0xFFFFFFFF AND PUSH1 0xE0 SHL DUP2 MSTORE PUSH1 0x4 ADD PUSH2 0x17FA SWAP3 SWAP2 SWAP1 PUSH2 0x3A84 JUMP JUMPDEST PUSH1 0x0 PUSH1 0x40 MLOAD DUP1 DUP4 SUB DUP2 DUP7 GAS DELEGATECALL ISZERO DUP1 ISZERO PUSH2 0x1817 JUMPI RETURNDATASIZE PUSH1 0x0 DUP1 RETURNDATACOPY RETURNDATASIZE PUSH1 0x0 REVERT JUMPDEST POP POP POP POP PUSH1 0x40 MLOAD RETURNDATASIZE PUSH1 0x0 DUP3 RETURNDATACOPY RETURNDATASIZE PUSH1 0x1F NOT PUSH1 0x1F DUP3 ADD AND DUP3 ADD DUP1 PUSH1 0x40 MSTORE POP DUP2 ADD SWAP1 PUSH2 0x1840 SWAP2 SWAP1 PUSH2 0x395A JUMP JUMPDEST DUP2 MSTORE PUSH1 0x20 ADD PUSH1 0x40 MLOAD DUP1 PUSH1 0x40 ADD PUSH1 0x40 MSTORE DUP1 PUSH1 0x5 DUP2 MSTORE PUSH1 0x20 ADD PUSH32 0x2A2A2A2A2A000000000000000000000000000000000000000000000000000000 DUP2 MSTORE POP DUP2 MSTORE PUSH1 0x20 ADD PUSH20 0x0 PUSH4 0x15CFEC7 PUSH1 0x2 PUSH1 0x0 DUP10 PUSH20 0xFFFFFFFFFFFFFFFFFFFFFFFFFFFFFFFFFFFFFFFF AND PUSH20 0xFFFFFFFFFFFFFFFFFFFFFFFFFFFFFFFFFFFFFFFF AND DUP2 MSTORE PUSH1 0x20 ADD SWAP1 DUP2 MSTORE PUSH1 0x20 ADD PUSH1 0x0 KECCAK256 PUSH1 0x4 ADD DUP8 PUSH1 0x40 MLOAD DUP4 PUSH4 0xFFFFFFFF AND PUSH1 0xE0 SHL DUP2 MSTORE PUSH1 0x4 ADD PUSH2 0x18FA SWAP3 SWAP2 SWAP1 PUSH2 0x3A84 JUMP JUMPDEST PUSH1 0x0 PUSH1 0x40 MLOAD DUP1 DUP4 SUB DUP2 DUP7 GAS DELEGATECALL ISZERO DUP1 ISZERO PUSH2 0x1917 JUMPI RETURNDATASIZE PUSH1 0x0 DUP1 RETURNDATACOPY RETURNDATASIZE PUSH1 0x0 REVERT JUMPDEST POP POP POP POP PUSH1 0x40 MLOAD RETURNDATASIZE PUSH1 0x0 DUP3 RETURNDATACOPY RETURNDATASIZE PUSH1 0x1F NOT PUSH1 0x1F DUP3 ADD AND DUP3 ADD DUP1 PUSH1 0x40 MSTORE POP DUP2 ADD SWAP1 PUSH2 0x1940 SWAP2 SWAP1 PUSH2 0x395A JUMP JUMPDEST DUP2 MSTORE PUSH1 0x20 ADD PUSH1 0x2 PUSH1 0x0 DUP8 PUSH20 0xFFFFFFFFFFFFFFFFFFFFFFFFFFFFFFFFFFFFFFFF AND PUSH20 0xFFFFFFFFFFFFFFFFFFFFFFFFFFFFFFFFFFFFFFFF AND DUP2 MSTORE PUSH1 0x20 ADD SWAP1 DUP2 MSTORE PUSH1 0x20 ADD PUSH1 0x0 KECCAK256 PUSH1 0x5 ADD PUSH1 0x0 SWAP1 SLOAD SWAP1 PUSH2 0x100 EXP SWAP1 DIV PUSH1 0xFF AND PUSH1 0xFF AND DUP2 MSTORE PUSH1 0x20 ADD PUSH1 0x2 PUSH1 0x0 DUP8 PUSH20 0xFFFFFFFFFFFFFFFFFFFFFFFFFFFFFFFFFFFFFFFF AND PUSH20 0xFFFFFFFFFFFFFFFFFFFFFFFFFFFFFFFFFFFFFFFF AND DUP2 MSTORE PUSH1 0x20 ADD SWAP1 DUP2 MSTORE PUSH1 0x20 ADD PUSH1 0x0 KECCAK256 PUSH1 0x6 ADD DUP1 SLOAD PUSH2 0x19EA SWAP1 PUSH2 0x30AD JUMP JUMPDEST DUP1 PUSH1 0x1F ADD PUSH1 0x20 DUP1 SWAP2 DIV MUL PUSH1 0x20 ADD PUSH1 0x40 MLOAD SWAP1 DUP2 ADD PUSH1 0x40 MSTORE DUP1 SWAP3 SWAP2 SWAP1 DUP2 DUP2 MSTORE PUSH1 0x20 ADD DUP3 DUP1 SLOAD PUSH2 0x1A16 SWAP1 PUSH2 0x30AD JUMP JUMPDEST DUP1 ISZERO PUSH2 0x1A63 JUMPI DUP1 PUSH1 0x1F LT PUSH2 0x1A38 JUMPI PUSH2 0x100 DUP1 DUP4 SLOAD DIV MUL DUP4 MSTORE SWAP2 PUSH1 0x20 ADD SWAP2 PUSH2 0x1A63 JUMP JUMPDEST DUP3 ADD SWAP2 SWAP1 PUSH1 0x0 MSTORE PUSH1 0x20 PUSH1 0x0 KECCAK256 SWAP1 JUMPDEST DUP2 SLOAD DUP2 MSTORE SWAP1 PUSH1 0x1 ADD SWAP1 PUSH1 0x20 ADD DUP1 DUP4 GT PUSH2 0x1A46 JUMPI DUP3 SWAP1 SUB PUSH1 0x1F AND DUP3 ADD SWAP2 JUMPDEST POP POP POP POP POP DUP2 MSTORE PUSH1 0x20 ADD PUSH1 0x2 PUSH1 0x0 DUP8 PUSH20 0xFFFFFFFFFFFFFFFFFFFFFFFFFFFFFFFFFFFFFFFF AND PUSH20 0xFFFFFFFFFFFFFFFFFFFFFFFFFFFFFFFFFFFFFFFF AND DUP2 MSTORE PUSH1 0x20 ADD SWAP1 DUP2 MSTORE PUSH1 0x20 ADD PUSH1 0x0 KECCAK256 PUSH1 0x7 ADD PUSH1 0x0 SWAP1 SLOAD SWAP1 PUSH2 0x100 EXP SWAP1 DIV PUSH20 0xFFFFFFFFFFFFFFFFFFFFFFFFFFFFFFFFFFFFFFFF AND PUSH20 0xFFFFFFFFFFFFFFFFFFFFFFFFFFFFFFFFFFFFFFFF AND DUP2 MSTORE PUSH1 0x20 ADD PUSH1 0x2 PUSH1 0x0 DUP8 PUSH20 0xFFFFFFFFFFFFFFFFFFFFFFFFFFFFFFFFFFFFFFFF AND PUSH20 0xFFFFFFFFFFFFFFFFFFFFFFFFFFFFFFFFFFFFFFFF AND DUP2 MSTORE PUSH1 0x20 ADD SWAP1 DUP2 MSTORE PUSH1 0x20 ADD PUSH1 0x0 KECCAK256 PUSH1 0x8 ADD SLOAD DUP2 MSTORE PUSH1 0x20 ADD PUSH32 0x2A2A2A2A2A2A2A2A2A2A2A2A0000000000000000000000000000000000000000 DUP2 MSTORE POP SWAP1 POP JUMPDEST PUSH1 0x0 PUSH1 0x2 PUSH1 0x0 DUP7 PUSH20 0xFFFFFFFFFFFFFFFFFFFFFFFFFFFFFFFFFFFFFFFF AND PUSH20 0xFFFFFFFFFFFFFFFFFFFFFFFFFFFFFFFFFFFFFFFF AND DUP2 MSTORE PUSH1 0x20 ADD SWAP1 DUP2 MSTORE PUSH1 0x20 ADD PUSH1 0x0 KECCAK256 PUSH1 0x5 ADD PUSH1 0x0 SWAP1 SLOAD SWAP1 PUSH2 0x100 EXP SWAP1 DIV PUSH1 0xFF AND PUSH1 0xFF AND GT ISZERO PUSH2 0x2151 JUMPI PUSH1 0x40 MLOAD DUP1 PUSH2 0x140 ADD PUSH1 0x40 MSTORE DUP1 PUSH1 0x2 PUSH1 0x0 DUP8 PUSH20 0xFFFFFFFFFFFFFFFFFFFFFFFFFFFFFFFFFFFFFFFF AND PUSH20 0xFFFFFFFFFFFFFFFFFFFFFFFFFFFFFFFFFFFFFFFF AND DUP2 MSTORE PUSH1 0x20 ADD SWAP1 DUP2 MSTORE PUSH1 0x20 ADD PUSH1 0x0 KECCAK256 PUSH1 0x0 ADD DUP1 SLOAD PUSH2 0x1C0E SWAP1 PUSH2 0x30AD JUMP JUMPDEST DUP1 PUSH1 0x1F ADD PUSH1 0x20 DUP1 SWAP2 DIV MUL PUSH1 0x20 ADD PUSH1 0x40 MLOAD SWAP1 DUP2 ADD PUSH1 0x40 MSTORE DUP1 SWAP3 SWAP2 SWAP1 DUP2 DUP2 MSTORE PUSH1 0x20 ADD DUP3 DUP1 SLOAD PUSH2 0x1C3A SWAP1 PUSH2 0x30AD JUMP JUMPDEST DUP1 ISZERO PUSH2 0x1C87 JUMPI DUP1 PUSH1 0x1F LT PUSH2 0x1C5C JUMPI PUSH2 0x100 DUP1 DUP4 SLOAD DIV MUL DUP4 MSTORE SWAP2 PUSH1 0x20 ADD SWAP2 PUSH2 0x1C87 JUMP JUMPDEST DUP3 ADD SWAP2 SWAP1 PUSH1 0x0 MSTORE PUSH1 0x20 PUSH1 0x0 KECCAK256 SWAP1 JUMPDEST DUP2 SLOAD DUP2 MSTORE SWAP1 PUSH1 0x1 ADD SWAP1 PUSH1 0x20 ADD DUP1 DUP4 GT PUSH2 0x1C6A JUMPI DUP3 SWAP1 SUB PUSH1 0x1F AND DUP3 ADD SWAP2 JUMPDEST POP POP POP POP POP DUP2 MSTORE PUSH1 0x20 ADD PUSH1 0x2 PUSH1 0x0 DUP8 PUSH20 0xFFFFFFFFFFFFFFFFFFFFFFFFFFFFFFFFFFFFFFFF AND PUSH20 0xFFFFFFFFFFFFFFFFFFFFFFFFFFFFFFFFFFFFFFFF AND DUP2 MSTORE PUSH1 0x20 ADD SWAP1 DUP2 MSTORE PUSH1 0x20 ADD PUSH1 0x0 KECCAK256 PUSH1 0x1 ADD DUP1 SLOAD PUSH2 0x1CDE SWAP1 PUSH2 0x30AD JUMP JUMPDEST DUP1 PUSH1 0x1F ADD PUSH1 0x20 DUP1 SWAP2 DIV MUL PUSH1 0x20 ADD PUSH1 0x40 MLOAD SWAP1 DUP2 ADD PUSH1 0x40 MSTORE DUP1 SWAP3 SWAP2 SWAP1 DUP2 DUP2 MSTORE PUSH1 0x20 ADD DUP3 DUP1 SLOAD PUSH2 0x1D0A SWAP1 PUSH2 0x30AD JUMP JUMPDEST DUP1 ISZERO PUSH2 0x1D57 JUMPI DUP1 PUSH1 0x1F LT PUSH2 0x1D2C JUMPI PUSH2 0x100 DUP1 DUP4 SLOAD DIV MUL DUP4 MSTORE SWAP2 PUSH1 0x20 ADD SWAP2 PUSH2 0x1D57 JUMP JUMPDEST DUP3 ADD SWAP2 SWAP1 PUSH1 0x0 MSTORE PUSH1 0x20 PUSH1 0x0 KECCAK256 SWAP1 JUMPDEST DUP2 SLOAD DUP2 MSTORE SWAP1 PUSH1 0x1 ADD SWAP1 PUSH1 0x20 ADD DUP1 DUP4 GT PUSH2 0x1D3A JUMPI DUP3 SWAP1 SUB PUSH1 0x1F AND DUP3 ADD SWAP2 JUMPDEST POP POP POP POP POP DUP2 MSTORE PUSH1 0x20 ADD PUSH1 0x2 PUSH1 0x0 DUP8 PUSH20 0xFFFFFFFFFFFFFFFFFFFFFFFFFFFFFFFFFFFFFFFF AND PUSH20 0xFFFFFFFFFFFFFFFFFFFFFFFFFFFFFFFFFFFFFFFF AND DUP2 MSTORE PUSH1 0x20 ADD SWAP1 DUP2 MSTORE PUSH1 0x20 ADD PUSH1 0x0 KECCAK256 PUSH1 0x2 ADD DUP1 SLOAD PUSH2 0x1DAE SWAP1 PUSH2 0x30AD JUMP JUMPDEST DUP1 PUSH1 0x1F ADD PUSH1 0x20 DUP1 SWAP2 DIV MUL PUSH1 0x20 ADD PUSH1 0x40 MLOAD SWAP1 DUP2 ADD PUSH1 0x40 MSTORE DUP1 SWAP3 SWAP2 SWAP1 DUP2 DUP2 MSTORE PUSH1 0x20 ADD DUP3 DUP1 SLOAD PUSH2 0x1DDA SWAP1 PUSH2 0x30AD JUMP JUMPDEST DUP1 ISZERO PUSH2 0x1E27 JUMPI DUP1 PUSH1 0x1F LT PUSH2 0x1DFC JUMPI PUSH2 0x100 DUP1 DUP4 SLOAD DIV MUL DUP4 MSTORE SWAP2 PUSH1 0x20 ADD SWAP2 PUSH2 0x1E27 JUMP JUMPDEST DUP3 ADD SWAP2 SWAP1 PUSH1 0x0 MSTORE PUSH1 0x20 PUSH1 0x0 KECCAK256 SWAP1 JUMPDEST DUP2 SLOAD DUP2 MSTORE SWAP1 PUSH1 0x1 ADD SWAP1 PUSH1 0x20 ADD DUP1 DUP4 GT PUSH2 0x1E0A JUMPI DUP3 SWAP1 SUB PUSH1 0x1F AND DUP3 ADD SWAP2 JUMPDEST POP POP POP POP POP DUP2 MSTORE PUSH1 0x20 ADD PUSH1 0x40 MLOAD DUP1 PUSH1 0x40 ADD PUSH1 0x40 MSTORE DUP1 PUSH1 0x7 DUP2 MSTORE PUSH1 0x20 ADD PUSH32 0x2A2A2A2A2A2A2A00000000000000000000000000000000000000000000000000 DUP2 MSTORE POP DUP2 MSTORE PUSH1 0x20 ADD PUSH1 0x2 PUSH1 0x0 DUP8 PUSH20 0xFFFFFFFFFFFFFFFFFFFFFFFFFFFFFFFFFFFFFFFF AND PUSH20 0xFFFFFFFFFFFFFFFFFFFFFFFFFFFFFFFFFFFFFFFF AND DUP2 MSTORE PUSH1 0x20 ADD SWAP1 DUP2 MSTORE PUSH1 0x20 ADD PUSH1 0x0 KECCAK256 PUSH1 0x4 ADD DUP1 SLOAD PUSH2 0x1EB9 SWAP1 PUSH2 0x30AD JUMP JUMPDEST DUP1 PUSH1 0x1F ADD PUSH1 0x20 DUP1 SWAP2 DIV MUL PUSH1 0x20 ADD PUSH1 0x40 MLOAD SWAP1 DUP2 ADD PUSH1 0x40 MSTORE DUP1 SWAP3 SWAP2 SWAP1 DUP2 DUP2 MSTORE PUSH1 0x20 ADD DUP3 DUP1 SLOAD PUSH2 0x1EE5 SWAP1 PUSH2 0x30AD JUMP JUMPDEST DUP1 ISZERO PUSH2 0x1F32 JUMPI DUP1 PUSH1 0x1F LT PUSH2 0x1F07 JUMPI PUSH2 0x100 DUP1 DUP4 SLOAD DIV MUL DUP4 MSTORE SWAP2 PUSH1 0x20 ADD SWAP2 PUSH2 0x1F32 JUMP JUMPDEST DUP3 ADD SWAP2 SWAP1 PUSH1 0x0 MSTORE PUSH1 0x20 PUSH1 0x0 KECCAK256 SWAP1 JUMPDEST DUP2 SLOAD DUP2 MSTORE SWAP1 PUSH1 0x1 ADD SWAP1 PUSH1 0x20 ADD DUP1 DUP4 GT PUSH2 0x1F15 JUMPI DUP3 SWAP1 SUB PUSH1 0x1F AND DUP3 ADD SWAP2 JUMPDEST POP POP POP POP POP DUP2 MSTORE PUSH1 0x20 ADD PUSH1 0x2 PUSH1 0x0 DUP8 PUSH20 0xFFFFFFFFFFFFFFFFFFFFFFFFFFFFFFFFFFFFFFFF AND PUSH20 0xFFFFFFFFFFFFFFFFFFFFFFFFFFFFFFFFFFFFFFFF AND DUP2 MSTORE PUSH1 0x20 ADD SWAP1 DUP2 MSTORE PUSH1 0x20 ADD PUSH1 0x0 KECCAK256 PUSH1 0x5 ADD PUSH1 0x0 SWAP1 SLOAD SWAP1 PUSH2 0x100 EXP SWAP1 DIV PUSH1 0xFF AND PUSH1 0xFF AND DUP2 MSTORE PUSH1 0x20 ADD PUSH1 0x2 PUSH1 0x0 DUP8 PUSH20 0xFFFFFFFFFFFFFFFFFFFFFFFFFFFFFFFFFFFFFFFF AND PUSH20 0xFFFFFFFFFFFFFFFFFFFFFFFFFFFFFFFFFFFFFFFF AND DUP2 MSTORE PUSH1 0x20 ADD SWAP1 DUP2 MSTORE PUSH1 0x20 ADD PUSH1 0x0 KECCAK256 PUSH1 0x6 ADD DUP1 SLOAD PUSH2 0x1FE1 SWAP1 PUSH2 0x30AD JUMP JUMPDEST DUP1 PUSH1 0x1F ADD PUSH1 0x20 DUP1 SWAP2 DIV MUL PUSH1 0x20 ADD PUSH1 0x40 MLOAD SWAP1 DUP2 ADD PUSH1 0x40 MSTORE DUP1 SWAP3 SWAP2 SWAP1 DUP2 DUP2 MSTORE PUSH1 0x20 ADD DUP3 DUP1 SLOAD PUSH2 0x200D SWAP1 PUSH2 0x30AD JUMP JUMPDEST DUP1 ISZERO PUSH2 0x205A JUMPI DUP1 PUSH1 0x1F LT PUSH2 0x202F JUMPI PUSH2 0x100 DUP1 DUP4 SLOAD DIV MUL DUP4 MSTORE SWAP2 PUSH1 0x20 ADD SWAP2 PUSH2 0x205A JUMP JUMPDEST DUP3 ADD SWAP2 SWAP1 PUSH1 0x0 MSTORE PUSH1 0x20 PUSH1 0x0 KECCAK256 SWAP1 JUMPDEST DUP2 SLOAD DUP2 MSTORE SWAP1 PUSH1 0x1 ADD SWAP1 PUSH1 0x20 ADD DUP1 DUP4 GT PUSH2 0x203D JUMPI DUP3 SWAP1 SUB PUSH1 0x1F AND DUP3 ADD SWAP2 JUMPDEST POP POP POP POP POP DUP2 MSTORE PUSH1 0x20 ADD PUSH1 0x2 PUSH1 0x0 DUP8 PUSH20 0xFFFFFFFFFFFFFFFFFFFFFFFFFFFFFFFFFFFFFFFF AND PUSH20 0xFFFFFFFFFFFFFFFFFFFFFFFFFFFFFFFFFFFFFFFF AND DUP2 MSTORE PUSH1 0x20 ADD SWAP1 DUP2 MSTORE PUSH1 0x20 ADD PUSH1 0x0 KECCAK256 PUSH1 0x7 ADD PUSH1 0x0 SWAP1 SLOAD SWAP1 PUSH2 0x100 EXP SWAP1 DIV PUSH20 0xFFFFFFFFFFFFFFFFFFFFFFFFFFFFFFFFFFFFFFFF AND PUSH20 0xFFFFFFFFFFFFFFFFFFFFFFFFFFFFFFFFFFFFFFFF AND DUP2 MSTORE PUSH1 0x20 ADD PUSH1 0x2 PUSH1 0x0 DUP8 PUSH20 0xFFFFFFFFFFFFFFFFFFFFFFFFFFFFFFFFFFFFFFFF AND PUSH20 0xFFFFFFFFFFFFFFFFFFFFFFFFFFFFFFFFFFFFFFFF AND DUP2 MSTORE PUSH1 0x20 ADD SWAP1 DUP2 MSTORE PUSH1 0x20 ADD PUSH1 0x0 KECCAK256 PUSH1 0x8 ADD SLOAD DUP2 MSTORE PUSH1 0x20 ADD PUSH32 0x2A2A2A2A2A2A2A2A2A2A2A2A2A00000000000000000000000000000000000000 DUP2 MSTORE POP SWAP1 POP JUMPDEST DUP1 SWAP2 POP POP SWAP3 SWAP2 POP POP JUMP JUMPDEST CALLER PUSH20 0xFFFFFFFFFFFFFFFFFFFFFFFFFFFFFFFFFFFFFFFF AND PUSH1 0x0 DUP1 SLOAD SWAP1 PUSH2 0x100 EXP SWAP1 DIV PUSH20 0xFFFFFFFFFFFFFFFFFFFFFFFFFFFFFFFFFFFFFFFF AND PUSH20 0xFFFFFFFFFFFFFFFFFFFFFFFFFFFFFFFFFFFFFFFF AND EQ PUSH2 0x21E9 JUMPI PUSH1 0x40 MLOAD PUSH32 0x8C379A000000000000000000000000000000000000000000000000000000000 DUP2 MSTORE PUSH1 0x4 ADD PUSH2 0x21E0 SWAP1 PUSH2 0x3B07 JUMP JUMPDEST PUSH1 0x40 MLOAD DUP1 SWAP2 SUB SWAP1 REVERT JUMPDEST JUMP JUMPDEST PUSH1 0x0 DUP2 PUSH1 0x40 MLOAD PUSH1 0x20 ADD PUSH2 0x21FE SWAP2 SWAP1 PUSH2 0x32ED JUMP JUMPDEST PUSH1 0x40 MLOAD PUSH1 0x20 DUP2 DUP4 SUB SUB DUP2 MSTORE SWAP1 PUSH1 0x40 MSTORE DUP1 MLOAD SWAP1 PUSH1 0x20 ADD KECCAK256 DUP4 PUSH1 0x40 MLOAD PUSH1 0x20 ADD PUSH2 0x2225 SWAP2 SWAP1 PUSH2 0x32ED JUMP JUMPDEST PUSH1 0x40 MLOAD PUSH1 0x20 DUP2 DUP4 SUB SUB DUP2 MSTORE SWAP1 PUSH1 0x40 MSTORE DUP1 MLOAD SWAP1 PUSH1 0x20 ADD KECCAK256 EQ SWAP1 POP SWAP3 SWAP2 POP POP JUMP JUMPDEST PUSH1 0x60 PUSH1 0x0 PUSH1 0x1 PUSH2 0x2253 DUP5 PUSH2 0x2330 JUMP JUMPDEST ADD SWAP1 POP PUSH1 0x0 DUP2 PUSH8 0xFFFFFFFFFFFFFFFF DUP2 GT ISZERO PUSH2 0x2272 JUMPI PUSH2 0x2271 PUSH2 0x296F JUMP JUMPDEST JUMPDEST PUSH1 0x40 MLOAD SWAP1 DUP1 DUP3 MSTORE DUP1 PUSH1 0x1F ADD PUSH1 0x1F NOT AND PUSH1 0x20 ADD DUP3 ADD PUSH1 0x40 MSTORE DUP1 ISZERO PUSH2 0x22A4 JUMPI DUP2 PUSH1 0x20 ADD PUSH1 0x1 DUP3 MUL DUP1 CALLDATASIZE DUP4 CALLDATACOPY DUP1 DUP3 ADD SWAP2 POP POP SWAP1 POP JUMPDEST POP SWAP1 POP PUSH1 0x0 DUP3 PUSH1 0x20 ADD DUP3 ADD SWAP1 POP JUMPDEST PUSH1 0x1 ISZERO PUSH2 0x2307 JUMPI DUP1 DUP1 PUSH1 0x1 SWAP1 SUB SWAP2 POP POP PUSH32 0x3031323334353637383961626364656600000000000000000000000000000000 PUSH1 0xA DUP7 MOD BYTE DUP2 MSTORE8 PUSH1 0xA DUP6 DUP2 PUSH2 0x22FB JUMPI PUSH2 0x22FA PUSH2 0x3B27 JUMP JUMPDEST JUMPDEST DIV SWAP5 POP PUSH1 0x0 DUP6 SUB PUSH2 0x22B2 JUMPI JUMPDEST DUP2 SWAP4 POP POP POP POP SWAP2 SWAP1 POP JUMP JUMPDEST PUSH1 0x60 PUSH2 0x2329 DUP3 PUSH1 0x1 PUSH2 0x2323 DUP6 PUSH2 0x2483 JUMP JUMPDEST ADD PUSH2 0x2513 JUMP JUMPDEST SWAP1 POP SWAP2 SWAP1 POP JUMP JUMPDEST PUSH1 0x0 DUP1 PUSH1 0x0 SWAP1 POP PUSH27 0x184F03E93FF9F4DAA797ED6E38ED64BF6A1F010000000000000000 DUP4 LT PUSH2 0x238E JUMPI PUSH27 0x184F03E93FF9F4DAA797ED6E38ED64BF6A1F010000000000000000 DUP4 DUP2 PUSH2 0x2384 JUMPI PUSH2 0x2383 PUSH2 0x3B27 JUMP JUMPDEST JUMPDEST DIV SWAP3 POP PUSH1 0x40 DUP2 ADD SWAP1 POP JUMPDEST PUSH14 0x4EE2D6D415B85ACEF8100000000 DUP4 LT PUSH2 0x23CB JUMPI PUSH14 0x4EE2D6D415B85ACEF8100000000 DUP4 DUP2 PUSH2 0x23C1 JUMPI PUSH2 0x23C0 PUSH2 0x3B27 JUMP JUMPDEST JUMPDEST DIV SWAP3 POP PUSH1 0x20 DUP2 ADD SWAP1 POP JUMPDEST PUSH7 0x2386F26FC10000 DUP4 LT PUSH2 0x23FA JUMPI PUSH7 0x2386F26FC10000 DUP4 DUP2 PUSH2 0x23F0 JUMPI PUSH2 0x23EF PUSH2 0x3B27 JUMP JUMPDEST JUMPDEST DIV SWAP3 POP PUSH1 0x10 DUP2 ADD SWAP1 POP JUMPDEST PUSH4 0x5F5E100 DUP4 LT PUSH2 0x2423 JUMPI PUSH4 0x5F5E100 DUP4 DUP2 PUSH2 0x2419 JUMPI PUSH2 0x2418 PUSH2 0x3B27 JUMP JUMPDEST JUMPDEST DIV SWAP3 POP PUSH1 0x8 DUP2 ADD SWAP1 POP JUMPDEST PUSH2 0x2710 DUP4 LT PUSH2 0x2448 JUMPI PUSH2 0x2710 DUP4 DUP2 PUSH2 0x243E JUMPI PUSH2 0x243D PUSH2 0x3B27 JUMP JUMPDEST JUMPDEST DIV SWAP3 POP PUSH1 0x4 DUP2 ADD SWAP1 POP JUMPDEST PUSH1 0x64 DUP4 LT PUSH2 0x246B JUMPI PUSH1 0x64 DUP4 DUP2 PUSH2 0x2461 JUMPI PUSH2 0x2460 PUSH2 0x3B27 JUMP JUMPDEST JUMPDEST DIV SWAP3 POP PUSH1 0x2 DUP2 ADD SWAP1 POP JUMPDEST PUSH1 0xA DUP4 LT PUSH2 0x247A JUMPI PUSH1 0x1 DUP2 ADD SWAP1 POP JUMPDEST DUP1 SWAP2 POP POP SWAP2 SWAP1 POP JUMP JUMPDEST PUSH1 0x0 DUP1 PUSH1 0x0 SWAP1 POP PUSH1 0x0 PUSH1 0x80 DUP5 SWAP1 SHR GT ISZERO PUSH2 0x24A5 JUMPI PUSH1 0x80 DUP4 SWAP1 SHR SWAP3 POP PUSH1 0x10 DUP2 ADD SWAP1 POP JUMPDEST PUSH1 0x0 PUSH1 0x40 DUP5 SWAP1 SHR GT ISZERO PUSH2 0x24C0 JUMPI PUSH1 0x40 DUP4 SWAP1 SHR SWAP3 POP PUSH1 0x8 DUP2 ADD SWAP1 POP JUMPDEST PUSH1 0x0 PUSH1 0x20 DUP5 SWAP1 SHR GT ISZERO PUSH2 0x24DB JUMPI PUSH1 0x20 DUP4 SWAP1 SHR SWAP3 POP PUSH1 0x4 DUP2 ADD SWAP1 POP JUMPDEST PUSH1 0x0 PUSH1 0x10 DUP5 SWAP1 SHR GT ISZERO PUSH2 0x24F6 JUMPI PUSH1 0x10 DUP4 SWAP1 SHR SWAP3 POP PUSH1 0x2 DUP2 ADD SWAP1 POP JUMPDEST PUSH1 0x0 PUSH1 0x8 DUP5 SWAP1 SHR GT ISZERO PUSH2 0x250A JUMPI PUSH1 0x1 DUP2 ADD SWAP1 POP JUMPDEST DUP1 SWAP2 POP POP SWAP2 SWAP1 POP JUMP JUMPDEST PUSH1 0x60 PUSH1 0x0 PUSH1 0x2 DUP4 PUSH1 0x2 PUSH2 0x2526 SWAP2 SWAP1 PUSH2 0x3B56 JUMP JUMPDEST PUSH2 0x2530 SWAP2 SWAP1 PUSH2 0x3B98 JUMP JUMPDEST PUSH8 0xFFFFFFFFFFFFFFFF DUP2 GT ISZERO PUSH2 0x2549 JUMPI PUSH2 0x2548 PUSH2 0x296F JUMP JUMPDEST JUMPDEST PUSH1 0x40 MLOAD SWAP1 DUP1 DUP3 MSTORE DUP1 PUSH1 0x1F ADD PUSH1 0x1F NOT AND PUSH1 0x20 ADD DUP3 ADD PUSH1 0x40 MSTORE DUP1 ISZERO PUSH2 0x257B JUMPI DUP2 PUSH1 0x20 ADD PUSH1 0x1 DUP3 MUL DUP1 CALLDATASIZE DUP4 CALLDATACOPY DUP1 DUP3 ADD SWAP2 POP POP SWAP1 POP JUMPDEST POP SWAP1 POP PUSH32 0x3000000000000000000000000000000000000000000000000000000000000000 DUP2 PUSH1 0x0 DUP2 MLOAD DUP2 LT PUSH2 0x25B3 JUMPI PUSH2 0x25B2 PUSH2 0x3BCC JUMP JUMPDEST JUMPDEST PUSH1 0x20 ADD ADD SWAP1 PUSH31 0xFFFFFFFFFFFFFFFFFFFFFFFFFFFFFFFFFFFFFFFFFFFFFFFFFFFFFFFFFFFFFF NOT AND SWAP1 DUP2 PUSH1 0x0 BYTE SWAP1 MSTORE8 POP PUSH32 0x7800000000000000000000000000000000000000000000000000000000000000 DUP2 PUSH1 0x1 DUP2 MLOAD DUP2 LT PUSH2 0x2617 JUMPI PUSH2 0x2616 PUSH2 0x3BCC JUMP JUMPDEST JUMPDEST PUSH1 0x20 ADD ADD SWAP1 PUSH31 0xFFFFFFFFFFFFFFFFFFFFFFFFFFFFFFFFFFFFFFFFFFFFFFFFFFFFFFFFFFFFFF NOT AND SWAP1 DUP2 PUSH1 0x0 BYTE SWAP1 MSTORE8 POP PUSH1 0x0 PUSH1 0x1 DUP5 PUSH1 0x2 PUSH2 0x2657 SWAP2 SWAP1 PUSH2 0x3B56 JUMP JUMPDEST PUSH2 0x2661 SWAP2 SWAP1 PUSH2 0x3B98 JUMP JUMPDEST SWAP1 POP JUMPDEST PUSH1 0x1 DUP2 GT ISZERO PUSH2 0x2701 JUMPI PUSH32 0x3031323334353637383961626364656600000000000000000000000000000000 PUSH1 0xF DUP7 AND PUSH1 0x10 DUP2 LT PUSH2 0x26A3 JUMPI PUSH2 0x26A2 PUSH2 0x3BCC JUMP JUMPDEST JUMPDEST BYTE PUSH1 0xF8 SHL DUP3 DUP3 DUP2 MLOAD DUP2 LT PUSH2 0x26BA JUMPI PUSH2 0x26B9 PUSH2 0x3BCC JUMP JUMPDEST JUMPDEST PUSH1 0x20 ADD ADD SWAP1 PUSH31 0xFFFFFFFFFFFFFFFFFFFFFFFFFFFFFFFFFFFFFFFFFFFFFFFFFFFFFFFFFFFFFF NOT AND SWAP1 DUP2 PUSH1 0x0 BYTE SWAP1 MSTORE8 POP PUSH1 0x4 DUP6 SWAP1 SHR SWAP5 POP DUP1 PUSH2 0x26FA SWAP1 PUSH2 0x3055 JUMP JUMPDEST SWAP1 POP PUSH2 0x2664 JUMP JUMPDEST POP PUSH1 0x0 DUP5 EQ PUSH2 0x2745 JUMPI PUSH1 0x40 MLOAD PUSH32 0x8C379A000000000000000000000000000000000000000000000000000000000 DUP2 MSTORE PUSH1 0x4 ADD PUSH2 0x273C SWAP1 PUSH2 0x3C47 JUMP JUMPDEST PUSH1 0x40 MLOAD DUP1 SWAP2 SUB SWAP1 REVERT JUMPDEST DUP1 SWAP2 POP POP SWAP3 SWAP2 POP POP JUMP JUMPDEST POP DUP1 SLOAD PUSH2 0x275B SWAP1 PUSH2 0x30AD JUMP JUMPDEST PUSH1 0x0 DUP3 SSTORE DUP1 PUSH1 0x1F LT PUSH2 0x276D JUMPI POP PUSH2 0x278C JUMP JUMPDEST PUSH1 0x1F ADD PUSH1 0x20 SWAP1 DIV SWAP1 PUSH1 0x0 MSTORE PUSH1 0x20 PUSH1 0x0 KECCAK256 SWAP1 DUP2 ADD SWAP1 PUSH2 0x278B SWAP2 SWAP1 PUSH2 0x2801 JUMP JUMPDEST JUMPDEST POP JUMP JUMPDEST PUSH1 0x40 MLOAD DUP1 PUSH2 0x140 ADD PUSH1 0x40 MSTORE DUP1 PUSH1 0x60 DUP2 MSTORE PUSH1 0x20 ADD PUSH1 0x60 DUP2 MSTORE PUSH1 0x20 ADD PUSH1 0x60 DUP2 MSTORE PUSH1 0x20 ADD PUSH1 0x60 DUP2 MSTORE PUSH1 0x20 ADD PUSH1 0x60 DUP2 MSTORE PUSH1 0x20 ADD PUSH1 0x0 PUSH1 0xFF AND DUP2 MSTORE PUSH1 0x20 ADD PUSH1 0x60 DUP2 MSTORE PUSH1 0x20 ADD PUSH1 0x0 PUSH20 0xFFFFFFFFFFFFFFFFFFFFFFFFFFFFFFFFFFFFFFFF AND DUP2 MSTORE PUSH1 0x20 ADD PUSH1 0x0 DUP1 NOT AND DUP2 MSTORE PUSH1 0x20 ADD PUSH1 0x0 DUP1 NOT AND DUP2 MSTORE POP SWAP1 JUMP JUMPDEST JUMPDEST DUP1 DUP3 GT ISZERO PUSH2 0x281A JUMPI PUSH1 0x0 DUP2 PUSH1 0x0 SWAP1 SSTORE POP PUSH1 0x1 ADD PUSH2 0x2802 JUMP JUMPDEST POP SWAP1 JUMP JUMPDEST PUSH1 0x0 PUSH1 0x40 MLOAD SWAP1 POP SWAP1 JUMP JUMPDEST PUSH1 0x0 DUP1 REVERT JUMPDEST PUSH1 0x0 DUP1 REVERT JUMPDEST PUSH1 0x0 DUP2 SWAP1 POP SWAP2 SWAP1 POP JUMP JUMPDEST PUSH2 0x2845 DUP2 PUSH2 0x2832 JUMP JUMPDEST DUP2 EQ PUSH2 0x2850 JUMPI PUSH1 0x0 DUP1 REVERT JUMPDEST POP JUMP JUMPDEST PUSH1 0x0 DUP2 CALLDATALOAD SWAP1 POP PUSH2 0x2862 DUP2 PUSH2 0x283C JUMP JUMPDEST SWAP3 SWAP2 POP POP JUMP JUMPDEST PUSH1 0x0 PUSH1 0x20 DUP3 DUP5 SUB SLT ISZERO PUSH2 0x287E JUMPI PUSH2 0x287D PUSH2 0x2828 JUMP JUMPDEST JUMPDEST PUSH1 0x0 PUSH2 0x288C DUP5 DUP3 DUP6 ADD PUSH2 0x2853 JUMP JUMPDEST SWAP2 POP POP SWAP3 SWAP2 POP POP JUMP JUMPDEST PUSH1 0x0 DUP2 SWAP1 POP SWAP2 SWAP1 POP JUMP JUMPDEST PUSH2 0x28A8 DUP2 PUSH2 0x2895 JUMP JUMPDEST DUP3 MSTORE POP POP JUMP JUMPDEST PUSH1 0x0 PUSH1 0x20 DUP3 ADD SWAP1 POP PUSH2 0x28C3 PUSH1 0x0 DUP4 ADD DUP5 PUSH2 0x289F JUMP JUMPDEST SWAP3 SWAP2 POP POP JUMP JUMPDEST PUSH1 0x0 PUSH20 0xFFFFFFFFFFFFFFFFFFFFFFFFFFFFFFFFFFFFFFFF DUP3 AND SWAP1 POP SWAP2 SWAP1 POP JUMP JUMPDEST PUSH1 0x0 PUSH2 0x28F4 DUP3 PUSH2 0x28C9 JUMP JUMPDEST SWAP1 POP SWAP2 SWAP1 POP JUMP JUMPDEST PUSH2 0x2904 DUP2 PUSH2 0x28E9 JUMP JUMPDEST DUP2 EQ PUSH2 0x290F JUMPI PUSH1 0x0 DUP1 REVERT JUMPDEST POP JUMP JUMPDEST PUSH1 0x0 DUP2 CALLDATALOAD SWAP1 POP PUSH2 0x2921 DUP2 PUSH2 0x28FB JUMP JUMPDEST SWAP3 SWAP2 POP POP JUMP JUMPDEST PUSH1 0x0 PUSH1 0x20 DUP3 DUP5 SUB SLT ISZERO PUSH2 0x293D JUMPI PUSH2 0x293C PUSH2 0x2828 JUMP JUMPDEST JUMPDEST PUSH1 0x0 PUSH2 0x294B DUP5 DUP3 DUP6 ADD PUSH2 0x2912 JUMP JUMPDEST SWAP2 POP POP SWAP3 SWAP2 POP POP JUMP JUMPDEST PUSH1 0x0 DUP1 REVERT JUMPDEST PUSH1 0x0 DUP1 REVERT JUMPDEST PUSH1 0x0 PUSH1 0x1F NOT PUSH1 0x1F DUP4 ADD AND SWAP1 POP SWAP2 SWAP1 POP JUMP JUMPDEST PUSH32 0x4E487B7100000000000000000000000000000000000000000000000000000000 PUSH1 0x0 MSTORE PUSH1 0x41 PUSH1 0x4 MSTORE PUSH1 0x24 PUSH1 0x0 REVERT JUMPDEST PUSH2 0x29A7 DUP3 PUSH2 0x295E JUMP JUMPDEST DUP2 ADD DUP2 DUP2 LT PUSH8 0xFFFFFFFFFFFFFFFF DUP3 GT OR ISZERO PUSH2 0x29C6 JUMPI PUSH2 0x29C5 PUSH2 0x296F JUMP JUMPDEST JUMPDEST DUP1 PUSH1 0x40 MSTORE POP POP POP JUMP JUMPDEST PUSH1 0x0 PUSH2 0x29D9 PUSH2 0x281E JUMP JUMPDEST SWAP1 POP PUSH2 0x29E5 DUP3 DUP3 PUSH2 0x299E JUMP JUMPDEST SWAP2 SWAP1 POP JUMP JUMPDEST PUSH1 0x0 PUSH8 0xFFFFFFFFFFFFFFFF DUP3 GT ISZERO PUSH2 0x2A05 JUMPI PUSH2 0x2A04 PUSH2 0x296F JUMP JUMPDEST JUMPDEST PUSH2 0x2A0E DUP3 PUSH2 0x295E JUMP JUMPDEST SWAP1 POP PUSH1 0x20 DUP2 ADD SWAP1 POP SWAP2 SWAP1 POP JUMP JUMPDEST DUP3 DUP2 DUP4 CALLDATACOPY PUSH1 0x0 DUP4 DUP4 ADD MSTORE POP POP POP JUMP JUMPDEST PUSH1 0x0 PUSH2 0x2A3D PUSH2 0x2A38 DUP5 PUSH2 0x29EA JUMP JUMPDEST PUSH2 0x29CF JUMP JUMPDEST SWAP1 POP DUP3 DUP2 MSTORE PUSH1 0x20 DUP2 ADD DUP5 DUP5 DUP5 ADD GT ISZERO PUSH2 0x2A59 JUMPI PUSH2 0x2A58 PUSH2 0x2959 JUMP JUMPDEST JUMPDEST PUSH2 0x2A64 DUP5 DUP3 DUP6 PUSH2 0x2A1B JUMP JUMPDEST POP SWAP4 SWAP3 POP POP POP JUMP JUMPDEST PUSH1 0x0 DUP3 PUSH1 0x1F DUP4 ADD SLT PUSH2 0x2A81 JUMPI PUSH2 0x2A80 PUSH2 0x2954 JUMP JUMPDEST JUMPDEST DUP2 CALLDATALOAD PUSH2 0x2A91 DUP5 DUP3 PUSH1 0x20 DUP7 ADD PUSH2 0x2A2A JUMP JUMPDEST SWAP2 POP POP SWAP3 SWAP2 POP POP JUMP JUMPDEST PUSH1 0x0 DUP1 PUSH1 0x40 DUP4 DUP6 SUB SLT ISZERO PUSH2 0x2AB1 JUMPI PUSH2 0x2AB0 PUSH2 0x2828 JUMP JUMPDEST JUMPDEST PUSH1 0x0 PUSH2 0x2ABF DUP6 DUP3 DUP7 ADD PUSH2 0x2912 JUMP JUMPDEST SWAP3 POP POP PUSH1 0x20 DUP4 ADD CALLDATALOAD PUSH8 0xFFFFFFFFFFFFFFFF DUP2 GT ISZERO PUSH2 0x2AE0 JUMPI PUSH2 0x2ADF PUSH2 0x282D JUMP JUMPDEST JUMPDEST PUSH2 0x2AEC DUP6 DUP3 DUP7 ADD PUSH2 0x2A6C JUMP JUMPDEST SWAP2 POP POP SWAP3 POP SWAP3 SWAP1 POP JUMP JUMPDEST PUSH2 0x2AFF DUP2 PUSH2 0x2832 JUMP JUMPDEST DUP3 MSTORE POP POP JUMP JUMPDEST PUSH1 0x0 PUSH1 0x20 DUP3 ADD SWAP1 POP PUSH2 0x2B1A PUSH1 0x0 DUP4 ADD DUP5 PUSH2 0x2AF6 JUMP JUMPDEST SWAP3 SWAP2 POP POP JUMP JUMPDEST PUSH1 0x0 DUP1 PUSH1 0x0 DUP1 PUSH1 0x0 DUP1 PUSH1 0xC0 DUP8 DUP10 SUB SLT ISZERO PUSH2 0x2B3D JUMPI PUSH2 0x2B3C PUSH2 0x2828 JUMP JUMPDEST JUMPDEST PUSH1 0x0 DUP8 ADD CALLDATALOAD PUSH8 0xFFFFFFFFFFFFFFFF DUP2 GT ISZERO PUSH2 0x2B5B JUMPI PUSH2 0x2B5A PUSH2 0x282D JUMP JUMPDEST JUMPDEST PUSH2 0x2B67 DUP10 DUP3 DUP11 ADD PUSH2 0x2A6C JUMP JUMPDEST SWAP7 POP POP PUSH1 0x20 DUP8 ADD CALLDATALOAD PUSH8 0xFFFFFFFFFFFFFFFF DUP2 GT ISZERO PUSH2 0x2B88 JUMPI PUSH2 0x2B87 PUSH2 0x282D JUMP JUMPDEST JUMPDEST PUSH2 0x2B94 DUP10 DUP3 DUP11 ADD PUSH2 0x2A6C JUMP JUMPDEST SWAP6 POP POP PUSH1 0x40 DUP8 ADD CALLDATALOAD PUSH8 0xFFFFFFFFFFFFFFFF DUP2 GT ISZERO PUSH2 0x2BB5 JUMPI PUSH2 0x2BB4 PUSH2 0x282D JUMP JUMPDEST JUMPDEST PUSH2 0x2BC1 DUP10 DUP3 DUP11 ADD PUSH2 0x2A6C JUMP JUMPDEST SWAP5 POP POP PUSH1 0x60 PUSH2 0x2BD2 DUP10 DUP3 DUP11 ADD PUSH2 0x2912 JUMP JUMPDEST SWAP4 POP POP PUSH1 0x80 DUP8 ADD CALLDATALOAD PUSH8 0xFFFFFFFFFFFFFFFF DUP2 GT ISZERO PUSH2 0x2BF3 JUMPI PUSH2 0x2BF2 PUSH2 0x282D JUMP JUMPDEST JUMPDEST PUSH2 0x2BFF DUP10 DUP3 DUP11 ADD PUSH2 0x2A6C JUMP JUMPDEST SWAP3 POP POP PUSH1 0xA0 PUSH2 0x2C10 DUP10 DUP3 DUP11 ADD PUSH2 0x2853 JUMP JUMPDEST SWAP2 POP POP SWAP3 SWAP6 POP SWAP3 SWAP6 POP SWAP3 SWAP6 JUMP JUMPDEST PUSH1 0x0 PUSH1 0xFF DUP3 AND SWAP1 POP SWAP2 SWAP1 POP JUMP JUMPDEST PUSH2 0x2C33 DUP2 PUSH2 0x2C1D JUMP JUMPDEST DUP2 EQ PUSH2 0x2C3E JUMPI PUSH1 0x0 DUP1 REVERT JUMPDEST POP JUMP JUMPDEST PUSH1 0x0 DUP2 CALLDATALOAD SWAP1 POP PUSH2 0x2C50 DUP2 PUSH2 0x2C2A JUMP JUMPDEST SWAP3 SWAP2 POP POP JUMP JUMPDEST PUSH1 0x0 DUP1 PUSH1 0x0 DUP1 PUSH1 0x0 DUP1 PUSH1 0x0 DUP1 PUSH2 0x100 DUP10 DUP12 SUB SLT ISZERO PUSH2 0x2C77 JUMPI PUSH2 0x2C76 PUSH2 0x2828 JUMP JUMPDEST JUMPDEST PUSH1 0x0 DUP10 ADD CALLDATALOAD PUSH8 0xFFFFFFFFFFFFFFFF DUP2 GT ISZERO PUSH2 0x2C95 JUMPI PUSH2 0x2C94 PUSH2 0x282D JUMP JUMPDEST JUMPDEST PUSH2 0x2CA1 DUP12 DUP3 DUP13 ADD PUSH2 0x2A6C JUMP JUMPDEST SWAP9 POP POP PUSH1 0x20 DUP10 ADD CALLDATALOAD PUSH8 0xFFFFFFFFFFFFFFFF DUP2 GT ISZERO PUSH2 0x2CC2 JUMPI PUSH2 0x2CC1 PUSH2 0x282D JUMP JUMPDEST JUMPDEST PUSH2 0x2CCE DUP12 DUP3 DUP13 ADD PUSH2 0x2A6C JUMP JUMPDEST SWAP8 POP POP PUSH1 0x40 DUP10 ADD CALLDATALOAD PUSH8 0xFFFFFFFFFFFFFFFF DUP2 GT ISZERO PUSH2 0x2CEF JUMPI PUSH2 0x2CEE PUSH2 0x282D JUMP JUMPDEST JUMPDEST PUSH2 0x2CFB DUP12 DUP3 DUP13 ADD PUSH2 0x2A6C JUMP JUMPDEST SWAP7 POP POP PUSH1 0x60 DUP10 ADD CALLDATALOAD PUSH8 0xFFFFFFFFFFFFFFFF DUP2 GT ISZERO PUSH2 0x2D1C JUMPI PUSH2 0x2D1B PUSH2 0x282D JUMP JUMPDEST JUMPDEST PUSH2 0x2D28 DUP12 DUP3 DUP13 ADD PUSH2 0x2A6C JUMP JUMPDEST SWAP6 POP POP PUSH1 0x80 PUSH2 0x2D39 DUP12 DUP3 DUP13 ADD PUSH2 0x2C41 JUMP JUMPDEST SWAP5 POP POP PUSH1 0xA0 DUP10 ADD CALLDATALOAD PUSH8 0xFFFFFFFFFFFFFFFF DUP2 GT ISZERO PUSH2 0x2D5A JUMPI PUSH2 0x2D59 PUSH2 0x282D JUMP JUMPDEST JUMPDEST PUSH2 0x2D66 DUP12 DUP3 DUP13 ADD PUSH2 0x2A6C JUMP JUMPDEST SWAP4 POP POP PUSH1 0xC0 PUSH2 0x2D77 DUP12 DUP3 DUP13 ADD PUSH2 0x2912 JUMP JUMPDEST SWAP3 POP POP PUSH1 0xE0 DUP10 ADD CALLDATALOAD PUSH8 0xFFFFFFFFFFFFFFFF DUP2 GT ISZERO PUSH2 0x2D98 JUMPI PUSH2 0x2D97 PUSH2 0x282D JUMP JUMPDEST JUMPDEST PUSH2 0x2DA4 DUP12 DUP3 DUP13 ADD PUSH2 0x2A6C JUMP JUMPDEST SWAP2 POP POP SWAP3 SWAP6 SWAP9 POP SWAP3 SWAP6 SWAP9 SWAP1 SWAP4 SWAP7 POP JUMP JUMPDEST PUSH2 0x2DBD DUP2 PUSH2 0x28E9 JUMP JUMPDEST DUP3 MSTORE POP POP JUMP JUMPDEST PUSH1 0x0 PUSH1 0x20 DUP3 ADD SWAP1 POP PUSH2 0x2DD8 PUSH1 0x0 DUP4 ADD DUP5 PUSH2 0x2DB4 JUMP JUMPDEST SWAP3 SWAP2 POP POP JUMP JUMPDEST PUSH1 0x0 DUP2 MLOAD SWAP1 POP SWAP2 SWAP1 POP JUMP JUMPDEST PUSH1 0x0 DUP3 DUP3 MSTORE PUSH1 0x20 DUP3 ADD SWAP1 POP SWAP3 SWAP2 POP POP JUMP JUMPDEST PUSH1 0x0 JUMPDEST DUP4 DUP2 LT ISZERO PUSH2 0x2E18 JUMPI DUP1 DUP3 ADD MLOAD DUP2 DUP5 ADD MSTORE PUSH1 0x20 DUP2 ADD SWAP1 POP PUSH2 0x2DFD JUMP JUMPDEST PUSH1 0x0 DUP5 DUP5 ADD MSTORE POP POP POP POP JUMP JUMPDEST PUSH1 0x0 PUSH2 0x2E2F DUP3 PUSH2 0x2DDE JUMP JUMPDEST PUSH2 0x2E39 DUP2 DUP6 PUSH2 0x2DE9 JUMP JUMPDEST SWAP4 POP PUSH2 0x2E49 DUP2 DUP6 PUSH1 0x20 DUP7 ADD PUSH2 0x2DFA JUMP JUMPDEST PUSH2 0x2E52 DUP2 PUSH2 0x295E JUMP JUMPDEST DUP5 ADD SWAP2 POP POP SWAP3 SWAP2 POP POP JUMP JUMPDEST PUSH2 0x2E66 DUP2 PUSH2 0x2C1D JUMP JUMPDEST DUP3 MSTORE POP POP JUMP JUMPDEST PUSH2 0x2E75 DUP2 PUSH2 0x28E9 JUMP JUMPDEST DUP3 MSTORE POP POP JUMP JUMPDEST PUSH2 0x2E84 DUP2 PUSH2 0x2832 JUMP JUMPDEST DUP3 MSTORE POP POP JUMP JUMPDEST PUSH1 0x0 PUSH2 0x140 DUP4 ADD PUSH1 0x0 DUP4 ADD MLOAD DUP5 DUP3 SUB PUSH1 0x0 DUP7 ADD MSTORE PUSH2 0x2EA8 DUP3 DUP3 PUSH2 0x2E24 JUMP JUMPDEST SWAP2 POP POP PUSH1 0x20 DUP4 ADD MLOAD DUP5 DUP3 SUB PUSH1 0x20 DUP7 ADD MSTORE PUSH2 0x2EC2 DUP3 DUP3 PUSH2 0x2E24 JUMP JUMPDEST SWAP2 POP POP PUSH1 0x40 DUP4 ADD MLOAD DUP5 DUP3 SUB PUSH1 0x40 DUP7 ADD MSTORE PUSH2 0x2EDC DUP3 DUP3 PUSH2 0x2E24 JUMP JUMPDEST SWAP2 POP POP PUSH1 0x60 DUP4 ADD MLOAD DUP5 DUP3 SUB PUSH1 0x60 DUP7 ADD MSTORE PUSH2 0x2EF6 DUP3 DUP3 PUSH2 0x2E24 JUMP JUMPDEST SWAP2 POP POP PUSH1 0x80 DUP4 ADD MLOAD DUP5 DUP3 SUB PUSH1 0x80 DUP7 ADD MSTORE PUSH2 0x2F10 DUP3 DUP3 PUSH2 0x2E24 JUMP JUMPDEST SWAP2 POP POP PUSH1 0xA0 DUP4 ADD MLOAD PUSH2 0x2F25 PUSH1 0xA0 DUP7 ADD DUP3 PUSH2 0x2E5D JUMP JUMPDEST POP PUSH1 0xC0 DUP4 ADD MLOAD DUP5 DUP3 SUB PUSH1 0xC0 DUP7 ADD MSTORE PUSH2 0x2F3D DUP3 DUP3 PUSH2 0x2E24 JUMP JUMPDEST SWAP2 POP POP PUSH1 0xE0 DUP4 ADD MLOAD PUSH2 0x2F52 PUSH1 0xE0 DUP7 ADD DUP3 PUSH2 0x2E6C JUMP JUMPDEST POP PUSH2 0x100 DUP4 ADD MLOAD PUSH2 0x2F67 PUSH2 0x100 DUP7 ADD DUP3 PUSH2 0x2E7B JUMP JUMPDEST POP PUSH2 0x120 DUP4 ADD MLOAD PUSH2 0x2F7C PUSH2 0x120 DUP7 ADD DUP3 PUSH2 0x2E7B JUMP JUMPDEST POP DUP1 SWAP2 POP POP SWAP3 SWAP2 POP POP JUMP JUMPDEST PUSH1 0x0 PUSH1 0x20 DUP3 ADD SWAP1 POP DUP2 DUP2 SUB PUSH1 0x0 DUP4 ADD MSTORE PUSH2 0x2FA1 DUP2 DUP5 PUSH2 0x2E8A JUMP JUMPDEST SWAP1 POP SWAP3 SWAP2 POP POP JUMP JUMPDEST PUSH1 0x0 DUP3 DUP3 MSTORE PUSH1 0x20 DUP3 ADD SWAP1 POP SWAP3 SWAP2 POP POP JUMP JUMPDEST PUSH32 0x4E6F742061757468656E74686963617465640000000000000000000000000000 PUSH1 0x0 DUP3 ADD MSTORE POP JUMP JUMPDEST PUSH1 0x0 PUSH2 0x2FF0 PUSH1 0x12 DUP4 PUSH2 0x2FA9 JUMP JUMPDEST SWAP2 POP PUSH2 0x2FFB DUP3 PUSH2 0x2FBA JUMP JUMPDEST PUSH1 0x20 DUP3 ADD SWAP1 POP SWAP2 SWAP1 POP JUMP JUMPDEST PUSH1 0x0 PUSH1 0x20 DUP3 ADD SWAP1 POP DUP2 DUP2 SUB PUSH1 0x0 DUP4 ADD MSTORE PUSH2 0x301F DUP2 PUSH2 0x2FE3 JUMP JUMPDEST SWAP1 POP SWAP2 SWAP1 POP JUMP JUMPDEST PUSH32 0x4E487B7100000000000000000000000000000000000000000000000000000000 PUSH1 0x0 MSTORE PUSH1 0x11 PUSH1 0x4 MSTORE PUSH1 0x24 PUSH1 0x0 REVERT JUMPDEST PUSH1 0x0 PUSH2 0x3060 DUP3 PUSH2 0x2895 JUMP JUMPDEST SWAP2 POP PUSH1 0x0 DUP3 SUB PUSH2 0x3073 JUMPI PUSH2 0x3072 PUSH2 0x3026 JUMP JUMPDEST JUMPDEST PUSH1 0x1 DUP3 SUB SWAP1 POP SWAP2 SWAP1 POP JUMP JUMPDEST PUSH32 0x4E487B7100000000000000000000000000000000000000000000000000000000 PUSH1 0x0 MSTORE PUSH1 0x22 PUSH1 0x4 MSTORE PUSH1 0x24 PUSH1 0x0 REVERT JUMPDEST PUSH1 0x0 PUSH1 0x2 DUP3 DIV SWAP1 POP PUSH1 0x1 DUP3 AND DUP1 PUSH2 0x30C5 JUMPI PUSH1 0x7F DUP3 AND SWAP2 POP JUMPDEST PUSH1 0x20 DUP3 LT DUP2 SUB PUSH2 0x30D8 JUMPI PUSH2 0x30D7 PUSH2 0x307E JUMP JUMPDEST JUMPDEST POP SWAP2 SWAP1 POP JUMP JUMPDEST PUSH32 0x496E636F72726563742070617373776F72642070000000000000000000000000 DUP2 MSTORE POP JUMP JUMPDEST PUSH1 0x0 DUP2 SWAP1 POP SWAP3 SWAP2 POP POP JUMP JUMPDEST PUSH1 0x0 DUP2 SWAP1 POP DUP2 PUSH1 0x0 MSTORE PUSH1 0x20 PUSH1 0x0 KECCAK256 SWAP1 POP SWAP2 SWAP1 POP JUMP JUMPDEST PUSH1 0x0 DUP2 SLOAD PUSH2 0x3131 DUP2 PUSH2 0x30AD JUMP JUMPDEST PUSH2 0x313B DUP2 DUP7 PUSH2 0x3104 JUMP JUMPDEST SWAP5 POP PUSH1 0x1 DUP3 AND PUSH1 0x0 DUP2 EQ PUSH2 0x3156 JUMPI PUSH1 0x1 DUP2 EQ PUSH2 0x316B JUMPI PUSH2 0x319E JUMP JUMPDEST PUSH1 0xFF NOT DUP4 AND DUP7 MSTORE DUP2 ISZERO ISZERO DUP3 MUL DUP7 ADD SWAP4 POP PUSH2 0x319E JUMP JUMPDEST PUSH2 0x3174 DUP6 PUSH2 0x310F JUMP JUMPDEST PUSH1 0x0 JUMPDEST DUP4 DUP2 LT ISZERO PUSH2 0x3196 JUMPI DUP2 SLOAD DUP2 DUP10 ADD MSTORE PUSH1 0x1 DUP3 ADD SWAP2 POP PUSH1 0x20 DUP2 ADD SWAP1 POP PUSH2 0x3177 JUMP JUMPDEST DUP4 DUP9 ADD SWAP6 POP POP POP JUMPDEST POP POP POP SWAP3 SWAP2 POP POP JUMP JUMPDEST PUSH1 0x0 PUSH2 0x31B2 DUP3 PUSH2 0x30DE JUMP JUMPDEST PUSH1 0x14 DUP3 ADD SWAP2 POP PUSH2 0x31C2 DUP3 DUP5 PUSH2 0x3124 JUMP JUMPDEST SWAP2 POP DUP2 SWAP1 POP SWAP3 SWAP2 POP POP JUMP JUMPDEST PUSH1 0x0 PUSH2 0x31D8 DUP3 PUSH2 0x2DDE JUMP JUMPDEST PUSH2 0x31E2 DUP2 DUP6 PUSH2 0x2FA9 JUMP JUMPDEST SWAP4 POP PUSH2 0x31F2 DUP2 DUP6 PUSH1 0x20 DUP7 ADD PUSH2 0x2DFA JUMP JUMPDEST PUSH2 0x31FB DUP2 PUSH2 0x295E JUMP JUMPDEST DUP5 ADD SWAP2 POP POP SWAP3 SWAP2 POP POP JUMP JUMPDEST PUSH1 0x0 PUSH1 0x20 DUP3 ADD SWAP1 POP DUP2 DUP2 SUB PUSH1 0x0 DUP4 ADD MSTORE PUSH2 0x3220 DUP2 DUP5 PUSH2 0x31CD JUMP JUMPDEST SWAP1 POP SWAP3 SWAP2 POP POP JUMP JUMPDEST PUSH1 0x0 DUP2 PUSH1 0x60 SHL SWAP1 POP SWAP2 SWAP1 POP JUMP JUMPDEST PUSH1 0x0 PUSH2 0x3240 DUP3 PUSH2 0x3228 JUMP JUMPDEST SWAP1 POP SWAP2 SWAP1 POP JUMP JUMPDEST PUSH1 0x0 PUSH2 0x3252 DUP3 PUSH2 0x3235 JUMP JUMPDEST SWAP1 POP SWAP2 SWAP1 POP JUMP JUMPDEST PUSH2 0x326A PUSH2 0x3265 DUP3 PUSH2 0x28E9 JUMP JUMPDEST PUSH2 0x3247 JUMP JUMPDEST DUP3 MSTORE POP POP JUMP JUMPDEST PUSH1 0x0 PUSH2 0x327C DUP3 DUP5 PUSH2 0x3259 JUMP JUMPDEST PUSH1 0x14 DUP3 ADD SWAP2 POP DUP2 SWAP1 POP SWAP3 SWAP2 POP POP JUMP JUMPDEST PUSH1 0x0 PUSH2 0x3296 DUP3 PUSH2 0x2DDE JUMP JUMPDEST PUSH2 0x32A0 DUP2 DUP6 PUSH2 0x3104 JUMP JUMPDEST SWAP4 POP PUSH2 0x32B0 DUP2 DUP6 PUSH1 0x20 DUP7 ADD PUSH2 0x2DFA JUMP JUMPDEST DUP1 DUP5 ADD SWAP2 POP POP SWAP3 SWAP2 POP POP JUMP JUMPDEST PUSH1 0x0 PUSH2 0x32C8 DUP3 DUP7 PUSH2 0x328B JUMP JUMPDEST SWAP2 POP PUSH2 0x32D4 DUP3 DUP6 PUSH2 0x328B JUMP JUMPDEST SWAP2 POP PUSH2 0x32E0 DUP3 DUP5 PUSH2 0x328B JUMP JUMPDEST SWAP2 POP DUP2 SWAP1 POP SWAP5 SWAP4 POP POP POP POP JUMP JUMPDEST PUSH1 0x0 PUSH2 0x32F9 DUP3 DUP5 PUSH2 0x328B JUMP JUMPDEST SWAP2 POP DUP2 SWAP1 POP SWAP3 SWAP2 POP POP JUMP JUMPDEST PUSH1 0x0 PUSH1 0x20 PUSH1 0x1F DUP4 ADD DIV SWAP1 POP SWAP2 SWAP1 POP JUMP JUMPDEST PUSH1 0x0 DUP3 DUP3 SHL SWAP1 POP SWAP3 SWAP2 POP POP JUMP JUMPDEST PUSH1 0x0 PUSH1 0x8 DUP4 MUL PUSH2 0x3351 PUSH32 0xFFFFFFFFFFFFFFFFFFFFFFFFFFFFFFFFFFFFFFFFFFFFFFFFFFFFFFFFFFFFFFFF DUP3 PUSH2 0x3314 JUMP JUMPDEST PUSH2 0x335B DUP7 DUP4 PUSH2 0x3314 JUMP JUMPDEST SWAP6 POP DUP1 NOT DUP5 AND SWAP4 POP DUP1 DUP7 AND DUP5 OR SWAP3 POP POP POP SWAP4 SWAP3 POP POP POP JUMP JUMPDEST PUSH1 0x0 DUP2 SWAP1 POP SWAP2 SWAP1 POP JUMP JUMPDEST PUSH1 0x0 PUSH2 0x3398 PUSH2 0x3393 PUSH2 0x338E DUP5 PUSH2 0x2895 JUMP JUMPDEST PUSH2 0x3373 JUMP JUMPDEST PUSH2 0x2895 JUMP JUMPDEST SWAP1 POP SWAP2 SWAP1 POP JUMP JUMPDEST PUSH1 0x0 DUP2 SWAP1 POP SWAP2 SWAP1 POP JUMP JUMPDEST PUSH2 0x33B2 DUP4 PUSH2 0x337D JUMP JUMPDEST PUSH2 0x33C6 PUSH2 0x33BE DUP3 PUSH2 0x339F JUMP JUMPDEST DUP5 DUP5 SLOAD PUSH2 0x3321 JUMP JUMPDEST DUP3 SSTORE POP POP POP POP JUMP JUMPDEST PUSH1 0x0 SWAP1 JUMP JUMPDEST PUSH2 0x33DB PUSH2 0x33CE JUMP JUMPDEST PUSH2 0x33E6 DUP2 DUP5 DUP5 PUSH2 0x33A9 JUMP JUMPDEST POP POP POP JUMP JUMPDEST JUMPDEST DUP2 DUP2 LT ISZERO PUSH2 0x340A JUMPI PUSH2 0x33FF PUSH1 0x0 DUP3 PUSH2 0x33D3 JUMP JUMPDEST PUSH1 0x1 DUP2 ADD SWAP1 POP PUSH2 0x33EC JUMP JUMPDEST POP POP JUMP JUMPDEST PUSH1 0x1F DUP3 GT ISZERO PUSH2 0x344F JUMPI PUSH2 0x3420 DUP2 PUSH2 0x310F JUMP JUMPDEST PUSH2 0x3429 DUP5 PUSH2 0x3304 JUMP JUMPDEST DUP2 ADD PUSH1 0x20 DUP6 LT ISZERO PUSH2 0x3438 JUMPI DUP2 SWAP1 POP JUMPDEST PUSH2 0x344C PUSH2 0x3444 DUP6 PUSH2 0x3304 JUMP JUMPDEST DUP4 ADD DUP3 PUSH2 0x33EB JUMP JUMPDEST POP POP JUMPDEST POP POP POP JUMP JUMPDEST PUSH1 0x0 DUP3 DUP3 SHR SWAP1 POP SWAP3 SWAP2 POP POP JUMP JUMPDEST PUSH1 0x0 PUSH2 0x3472 PUSH1 0x0 NOT DUP5 PUSH1 0x8 MUL PUSH2 0x3454 JUMP JUMPDEST NOT DUP1 DUP4 AND SWAP2 POP POP SWAP3 SWAP2 POP POP JUMP JUMPDEST PUSH1 0x0 PUSH2 0x348B DUP4 DUP4 PUSH2 0x3461 JUMP JUMPDEST SWAP2 POP DUP3 PUSH1 0x2 MUL DUP3 OR SWAP1 POP SWAP3 SWAP2 POP POP JUMP JUMPDEST PUSH2 0x34A4 DUP3 PUSH2 0x2DDE JUMP JUMPDEST PUSH8 0xFFFFFFFFFFFFFFFF DUP2 GT ISZERO PUSH2 0x34BD JUMPI PUSH2 0x34BC PUSH2 0x296F JUMP JUMPDEST JUMPDEST PUSH2 0x34C7 DUP3 SLOAD PUSH2 0x30AD JUMP JUMPDEST PUSH2 0x34D2 DUP3 DUP3 DUP6 PUSH2 0x340E JUMP JUMPDEST PUSH1 0x0 PUSH1 0x20 SWAP1 POP PUSH1 0x1F DUP4 GT PUSH1 0x1 DUP2 EQ PUSH2 0x3505 JUMPI PUSH1 0x0 DUP5 ISZERO PUSH2 0x34F3 JUMPI DUP3 DUP8 ADD MLOAD SWAP1 POP JUMPDEST PUSH2 0x34FD DUP6 DUP3 PUSH2 0x347F JUMP JUMPDEST DUP7 SSTORE POP PUSH2 0x3565 JUMP JUMPDEST PUSH1 0x1F NOT DUP5 AND PUSH2 0x3513 DUP7 PUSH2 0x310F JUMP JUMPDEST PUSH1 0x0 JUMPDEST DUP3 DUP2 LT ISZERO PUSH2 0x353B JUMPI DUP5 DUP10 ADD MLOAD DUP3 SSTORE PUSH1 0x1 DUP3 ADD SWAP2 POP PUSH1 0x20 DUP6 ADD SWAP5 POP PUSH1 0x20 DUP2 ADD SWAP1 POP PUSH2 0x3516 JUMP JUMPDEST DUP7 DUP4 LT ISZERO PUSH2 0x3558 JUMPI DUP5 DUP10 ADD MLOAD PUSH2 0x3554 PUSH1 0x1F DUP10 AND DUP3 PUSH2 0x3461 JUMP JUMPDEST DUP4 SSTORE POP JUMPDEST PUSH1 0x1 PUSH1 0x2 DUP9 MUL ADD DUP9 SSTORE POP POP POP JUMPDEST POP POP POP POP POP POP JUMP JUMPDEST PUSH32 0x496E76616C696420636F6D70616E792074797065000000000000000000000000 PUSH1 0x0 DUP3 ADD MSTORE POP JUMP JUMPDEST PUSH1 0x0 PUSH2 0x35A3 PUSH1 0x14 DUP4 PUSH2 0x2FA9 JUMP JUMPDEST SWAP2 POP PUSH2 0x35AE DUP3 PUSH2 0x356D JUMP JUMPDEST PUSH1 0x20 DUP3 ADD SWAP1 POP SWAP2 SWAP1 POP JUMP JUMPDEST PUSH1 0x0 PUSH1 0x20 DUP3 ADD SWAP1 POP DUP2 DUP2 SUB PUSH1 0x0 DUP4 ADD MSTORE PUSH2 0x35D2 DUP2 PUSH2 0x3596 JUMP JUMPDEST SWAP1 POP SWAP2 SWAP1 POP JUMP JUMPDEST PUSH32 0x496E76616C69642053534E203A20000000000000000000000000000000000000 DUP2 MSTORE POP JUMP JUMPDEST PUSH1 0x0 PUSH2 0x360A DUP3 PUSH2 0x35D9 JUMP JUMPDEST PUSH1 0xE DUP3 ADD SWAP2 POP PUSH2 0x361A DUP3 DUP5 PUSH2 0x328B JUMP JUMPDEST SWAP2 POP DUP2 SWAP1 POP SWAP3 SWAP2 POP POP JUMP JUMPDEST PUSH32 0x496E76616C6964206E616D650000000000000000000000000000000000000000 PUSH1 0x0 DUP3 ADD MSTORE POP JUMP JUMPDEST PUSH1 0x0 PUSH2 0x365B PUSH1 0xC DUP4 PUSH2 0x2FA9 JUMP JUMPDEST SWAP2 POP PUSH2 0x3666 DUP3 PUSH2 0x3625 JUMP JUMPDEST PUSH1 0x20 DUP3 ADD SWAP1 POP SWAP2 SWAP1 POP JUMP JUMPDEST PUSH1 0x0 PUSH1 0x20 DUP3 ADD SWAP1 POP DUP2 DUP2 SUB PUSH1 0x0 DUP4 ADD MSTORE PUSH2 0x368A DUP2 PUSH2 0x364E JUMP JUMPDEST SWAP1 POP SWAP2 SWAP1 POP JUMP JUMPDEST PUSH32 0x496E76616C696420616464726573730000000000000000000000000000000000 PUSH1 0x0 DUP3 ADD MSTORE POP JUMP JUMPDEST PUSH1 0x0 PUSH2 0x36C7 PUSH1 0xF DUP4 PUSH2 0x2FA9 JUMP JUMPDEST SWAP2 POP PUSH2 0x36D2 DUP3 PUSH2 0x3691 JUMP JUMPDEST PUSH1 0x20 DUP3 ADD SWAP1 POP SWAP2 SWAP1 POP JUMP JUMPDEST PUSH1 0x0 PUSH1 0x20 DUP3 ADD SWAP1 POP DUP2 DUP2 SUB PUSH1 0x0 DUP4 ADD MSTORE PUSH2 0x36F6 DUP2 PUSH2 0x36BA JUMP JUMPDEST SWAP1 POP SWAP2 SWAP1 POP JUMP JUMPDEST PUSH32 0x50617373776F726420746F6F2073686F72740000000000000000000000000000 PUSH1 0x0 DUP3 ADD MSTORE POP JUMP JUMPDEST PUSH1 0x0 PUSH2 0x3733 PUSH1 0x12 DUP4 PUSH2 0x2FA9 JUMP JUMPDEST SWAP2 POP PUSH2 0x373E DUP3 PUSH2 0x36FD JUMP JUMPDEST PUSH1 0x20 DUP3 ADD SWAP1 POP SWAP2 SWAP1 POP JUMP JUMPDEST PUSH1 0x0 PUSH1 0x20 DUP3 ADD SWAP1 POP DUP2 DUP2 SUB PUSH1 0x0 DUP4 ADD MSTORE PUSH2 0x3762 DUP2 PUSH2 0x3726 JUMP JUMPDEST SWAP1 POP SWAP2 SWAP1 POP JUMP JUMPDEST PUSH32 0x50686F6E65206E756D62657220746F6F2073686F727400000000000000000000 PUSH1 0x0 DUP3 ADD MSTORE POP JUMP JUMPDEST PUSH1 0x0 PUSH2 0x379F PUSH1 0x16 DUP4 PUSH2 0x2FA9 JUMP JUMPDEST SWAP2 POP PUSH2 0x37AA DUP3 PUSH2 0x3769 JUMP JUMPDEST PUSH1 0x20 DUP3 ADD SWAP1 POP SWAP2 SWAP1 POP JUMP JUMPDEST PUSH1 0x0 PUSH1 0x20 DUP3 ADD SWAP1 POP DUP2 DUP2 SUB PUSH1 0x0 DUP4 ADD MSTORE PUSH2 0x37CE DUP2 PUSH2 0x3792 JUMP JUMPDEST SWAP1 POP SWAP2 SWAP1 POP JUMP JUMPDEST PUSH1 0x0 PUSH2 0x37E1 DUP3 DUP10 PUSH2 0x328B JUMP JUMPDEST SWAP2 POP PUSH2 0x37ED DUP3 DUP9 PUSH2 0x328B JUMP JUMPDEST SWAP2 POP PUSH2 0x37F9 DUP3 DUP8 PUSH2 0x328B JUMP JUMPDEST SWAP2 POP PUSH2 0x3805 DUP3 DUP7 PUSH2 0x328B JUMP JUMPDEST SWAP2 POP PUSH2 0x3811 DUP3 DUP6 PUSH2 0x328B JUMP JUMPDEST SWAP2 POP PUSH2 0x381D DUP3 DUP5 PUSH2 0x328B JUMP JUMPDEST SWAP2 POP DUP2 SWAP1 POP SWAP8 SWAP7 POP POP POP POP POP POP POP JUMP JUMPDEST PUSH1 0x0 DUP2 MLOAD SWAP1 POP SWAP2 SWAP1 POP JUMP JUMPDEST PUSH1 0x0 DUP3 DUP3 MSTORE PUSH1 0x20 DUP3 ADD SWAP1 POP SWAP3 SWAP2 POP POP JUMP JUMPDEST PUSH1 0x0 PUSH2 0x3854 DUP3 PUSH2 0x382D JUMP JUMPDEST PUSH2 0x385E DUP2 DUP6 PUSH2 0x3838 JUMP JUMPDEST SWAP4 POP PUSH2 0x386E DUP2 DUP6 PUSH1 0x20 DUP7 ADD PUSH2 0x2DFA JUMP JUMPDEST PUSH2 0x3877 DUP2 PUSH2 0x295E JUMP JUMPDEST DUP5 ADD SWAP2 POP POP SWAP3 SWAP2 POP POP JUMP JUMPDEST PUSH1 0x0 PUSH1 0x40 DUP3 ADD SWAP1 POP DUP2 DUP2 SUB PUSH1 0x0 DUP4 ADD MSTORE PUSH2 0x389C DUP2 DUP6 PUSH2 0x3849 JUMP JUMPDEST SWAP1 POP DUP2 DUP2 SUB PUSH1 0x20 DUP4 ADD MSTORE PUSH2 0x38B0 DUP2 DUP5 PUSH2 0x3849 JUMP JUMPDEST SWAP1 POP SWAP4 SWAP3 POP POP POP JUMP JUMPDEST PUSH1 0x0 PUSH8 0xFFFFFFFFFFFFFFFF DUP3 GT ISZERO PUSH2 0x38D4 JUMPI PUSH2 0x38D3 PUSH2 0x296F JUMP JUMPDEST JUMPDEST PUSH2 0x38DD DUP3 PUSH2 0x295E JUMP JUMPDEST SWAP1 POP PUSH1 0x20 DUP2 ADD SWAP1 POP SWAP2 SWAP1 POP JUMP JUMPDEST PUSH1 0x0 PUSH2 0x38FD PUSH2 0x38F8 DUP5 PUSH2 0x38B9 JUMP JUMPDEST PUSH2 0x29CF JUMP JUMPDEST SWAP1 POP DUP3 DUP2 MSTORE PUSH1 0x20 DUP2 ADD DUP5 DUP5 DUP5 ADD GT ISZERO PUSH2 0x3919 JUMPI PUSH2 0x3918 PUSH2 0x2959 JUMP JUMPDEST JUMPDEST PUSH2 0x3924 DUP5 DUP3 DUP6 PUSH2 0x2DFA JUMP JUMPDEST POP SWAP4 SWAP3 POP POP POP JUMP JUMPDEST PUSH1 0x0 DUP3 PUSH1 0x1F DUP4 ADD SLT PUSH2 0x3941 JUMPI PUSH2 0x3940 PUSH2 0x2954 JUMP JUMPDEST JUMPDEST DUP2 MLOAD PUSH2 0x3951 DUP5 DUP3 PUSH1 0x20 DUP7 ADD PUSH2 0x38EA JUMP JUMPDEST SWAP2 POP POP SWAP3 SWAP2 POP POP JUMP JUMPDEST PUSH1 0x0 PUSH1 0x20 DUP3 DUP5 SUB SLT ISZERO PUSH2 0x3970 JUMPI PUSH2 0x396F PUSH2 0x2828 JUMP JUMPDEST JUMPDEST PUSH1 0x0 DUP3 ADD MLOAD PUSH8 0xFFFFFFFFFFFFFFFF DUP2 GT ISZERO PUSH2 0x398E JUMPI PUSH2 0x398D PUSH2 0x282D JUMP JUMPDEST JUMPDEST PUSH2 0x399A DUP5 DUP3 DUP6 ADD PUSH2 0x392C JUMP JUMPDEST SWAP2 POP POP SWAP3 SWAP2 POP POP JUMP JUMPDEST PUSH1 0x0 PUSH2 0x39AE DUP3 PUSH2 0x2895 JUMP JUMPDEST SWAP2 POP PUSH32 0xFFFFFFFFFFFFFFFFFFFFFFFFFFFFFFFFFFFFFFFFFFFFFFFFFFFFFFFFFFFFFFFF DUP3 SUB PUSH2 0x39E0 JUMPI PUSH2 0x39DF PUSH2 0x3026 JUMP JUMPDEST JUMPDEST PUSH1 0x1 DUP3 ADD SWAP1 POP SWAP2 SWAP1 POP JUMP JUMPDEST PUSH1 0x0 DUP2 SWAP1 POP DUP2 PUSH1 0x0 MSTORE PUSH1 0x20 PUSH1 0x0 KECCAK256 SWAP1 POP SWAP2 SWAP1 POP JUMP JUMPDEST PUSH1 0x0 DUP2 SLOAD PUSH2 0x3A0D DUP2 PUSH2 0x30AD JUMP JUMPDEST PUSH2 0x3A17 DUP2 DUP7 PUSH2 0x3838 JUMP JUMPDEST SWAP5 POP PUSH1 0x1 DUP3 AND PUSH1 0x0 DUP2 EQ PUSH2 0x3A32 JUMPI PUSH1 0x1 DUP2 EQ PUSH2 0x3A48 JUMPI PUSH2 0x3A7B JUMP JUMPDEST PUSH1 0xFF NOT DUP4 AND DUP7 MSTORE DUP2 ISZERO ISZERO PUSH1 0x20 MUL DUP7 ADD SWAP4 POP PUSH2 0x3A7B JUMP JUMPDEST PUSH2 0x3A51 DUP6 PUSH2 0x39EB JUMP JUMPDEST PUSH1 0x0 JUMPDEST DUP4 DUP2 LT ISZERO PUSH2 0x3A73 JUMPI DUP2 SLOAD DUP2 DUP10 ADD MSTORE PUSH1 0x1 DUP3 ADD SWAP2 POP PUSH1 0x20 DUP2 ADD SWAP1 POP PUSH2 0x3A54 JUMP JUMPDEST DUP1 DUP9 ADD SWAP6 POP POP POP JUMPDEST POP POP POP SWAP3 SWAP2 POP POP JUMP JUMPDEST PUSH1 0x0 PUSH1 0x40 DUP3 ADD SWAP1 POP DUP2 DUP2 SUB PUSH1 0x0 DUP4 ADD MSTORE PUSH2 0x3A9E DUP2 DUP6 PUSH2 0x3A00 JUMP JUMPDEST SWAP1 POP DUP2 DUP2 SUB PUSH1 0x20 DUP4 ADD MSTORE PUSH2 0x3AB2 DUP2 DUP5 PUSH2 0x3849 JUMP JUMPDEST SWAP1 POP SWAP4 SWAP3 POP POP POP JUMP JUMPDEST PUSH32 0x4E6F7420616C6C6F776564000000000000000000000000000000000000000000 PUSH1 0x0 DUP3 ADD MSTORE POP JUMP JUMPDEST PUSH1 0x0 PUSH2 0x3AF1 PUSH1 0xB DUP4 PUSH2 0x2FA9 JUMP JUMPDEST SWAP2 POP PUSH2 0x3AFC DUP3 PUSH2 0x3ABB JUMP JUMPDEST PUSH1 0x20 DUP3 ADD SWAP1 POP SWAP2 SWAP1 POP JUMP JUMPDEST PUSH1 0x0 PUSH1 0x20 DUP3 ADD SWAP1 POP DUP2 DUP2 SUB PUSH1 0x0 DUP4 ADD MSTORE PUSH2 0x3B20 DUP2 PUSH2 0x3AE4 JUMP JUMPDEST SWAP1 POP SWAP2 SWAP1 POP JUMP JUMPDEST PUSH32 0x4E487B7100000000000000000000000000000000000000000000000000000000 PUSH1 0x0 MSTORE PUSH1 0x12 PUSH1 0x4 MSTORE PUSH1 0x24 PUSH1 0x0 REVERT JUMPDEST PUSH1 0x0 PUSH2 0x3B61 DUP3 PUSH2 0x2895 JUMP JUMPDEST SWAP2 POP PUSH2 0x3B6C DUP4 PUSH2 0x2895 JUMP JUMPDEST SWAP3 POP DUP3 DUP3 MUL PUSH2 0x3B7A DUP2 PUSH2 0x2895 JUMP JUMPDEST SWAP2 POP DUP3 DUP3 DIV DUP5 EQ DUP4 ISZERO OR PUSH2 0x3B91 JUMPI PUSH2 0x3B90 PUSH2 0x3026 JUMP JUMPDEST JUMPDEST POP SWAP3 SWAP2 POP POP JUMP JUMPDEST PUSH1 0x0 PUSH2 0x3BA3 DUP3 PUSH2 0x2895 JUMP JUMPDEST SWAP2 POP PUSH2 0x3BAE DUP4 PUSH2 0x2895 JUMP JUMPDEST SWAP3 POP DUP3 DUP3 ADD SWAP1 POP DUP1 DUP3 GT ISZERO PUSH2 0x3BC6 JUMPI PUSH2 0x3BC5 PUSH2 0x3026 JUMP JUMPDEST JUMPDEST SWAP3 SWAP2 POP POP JUMP JUMPDEST PUSH32 0x4E487B7100000000000000000000000000000000000000000000000000000000 PUSH1 0x0 MSTORE PUSH1 0x32 PUSH1 0x4 MSTORE PUSH1 0x24 PUSH1 0x0 REVERT JUMPDEST PUSH32 0x537472696E67733A20686578206C656E67746820696E73756666696369656E74 PUSH1 0x0 DUP3 ADD MSTORE POP JUMP JUMPDEST PUSH1 0x0 PUSH2 0x3C31 PUSH1 0x20 DUP4 PUSH2 0x2FA9 JUMP JUMPDEST SWAP2 POP PUSH2 0x3C3C DUP3 PUSH2 0x3BFB JUMP JUMPDEST PUSH1 0x20 DUP3 ADD SWAP1 POP SWAP2 SWAP1 POP JUMP JUMPDEST PUSH1 0x0 PUSH1 0x20 DUP3 ADD SWAP1 POP DUP2 DUP2 SUB PUSH1 0x0 DUP4 ADD MSTORE PUSH2 0x3C60 DUP2 PUSH2 0x3C24 JUMP JUMPDEST SWAP1 POP SWAP2 SWAP1 POP JUMP INVALID LOG2 PUSH5 0x6970667358 0x22 SLT KECCAK256 0xAF CODESIZE CALLER PUSH7 0x7EDE4A282E22CA MUL SWAP6 0xB5 PUSH12 0x3E4A3CD7987B63EAA924EC7E 0xD0 EXTCODESIZE 0xC9 LOG1 0x26 PUSH5 0x736F6C6343 STOP ADDMOD SLT STOP CALLER "
				},
				"gasEstimates": {
					"creation": {
						"codeDepositCost": "3103400",
						"executionCost": "149271",
						"totalCost": "3252671"
					},
					"external": {
						"authenthicate(address,string)": "infinite",
						"checkLogin(bytes32)": "2912",
						"createAccount(string,string,string,string,uint8,string,address,string)": "infinite",
						"deleteUser(address)": "infinite",
						"editUser(string,string,string,address,string,bytes32)": "infinite",
						"getPopulation()": "2460",
						"getUser(address,string)": "infinite"
					},
					"internal": {
						"compare(string memory,string memory)": "infinite",
						"isOwner()": "infinite"
					}
				},
				"methodIdentifiers": {
					"authenthicate(address,string)": "b2eee5a2",
					"checkLogin(bytes32)": "0ec83856",
					"createAccount(string,string,string,string,uint8,string,address,string)": "dd64e4ad",
					"deleteUser(address)": "5c60f226",
					"editUser(string,string,string,address,string,bytes32)": "c1144afa",
					"getPopulation()": "2b4ae7bd",
					"getUser(address,string)": "deb12746"
				}
			},
			"storageLayout": {
				"storage": [
					{
						"astId": 1204,
						"contract": "auth.sol:Auth",
						"label": "owner",
						"offset": 0,
						"slot": "0",
						"type": "t_address"
					},
					{
						"astId": 1207,
						"contract": "auth.sol:Auth",
						"label": "ACC_PERSONAL",
						"offset": 20,
						"slot": "0",
						"type": "t_uint8"
					},
					{
						"astId": 1210,
						"contract": "auth.sol:Auth",
						"label": "ACC_LIMITED_COMPANY",
						"offset": 21,
						"slot": "0",
						"type": "t_uint8"
					},
					{
						"astId": 1213,
						"contract": "auth.sol:Auth",
						"label": "ACC_SHARE_COMPANY",
						"offset": 22,
						"slot": "0",
						"type": "t_uint8"
					},
					{
						"astId": 1216,
						"contract": "auth.sol:Auth",
						"label": "ACC_INDIVIDUAL_COMPANY",
						"offset": 23,
						"slot": "0",
						"type": "t_uint8"
					},
					{
						"astId": 1219,
						"contract": "auth.sol:Auth",
						"label": "ACC_FOREIGN_BRANCH",
						"offset": 24,
						"slot": "0",
						"type": "t_uint8"
					},
					{
						"astId": 1250,
						"contract": "auth.sol:Auth",
						"label": "population",
						"offset": 0,
						"slot": "1",
						"type": "t_uint256"
					},
					{
						"astId": 1255,
						"contract": "auth.sol:Auth",
						"label": "persons",
						"offset": 0,
						"slot": "2",
						"type": "t_mapping(t_address,t_struct(person)1240_storage)"
					}
				],
				"types": {
					"t_address": {
						"encoding": "inplace",
						"label": "address",
						"numberOfBytes": "20"
					},
					"t_bytes32": {
						"encoding": "inplace",
						"label": "bytes32",
						"numberOfBytes": "32"
					},
					"t_mapping(t_address,t_struct(person)1240_storage)": {
						"encoding": "mapping",
						"key": "t_address",
						"label": "mapping(address => struct Auth.person)",
						"numberOfBytes": "32",
						"value": "t_struct(person)1240_storage"
					},
					"t_string_storage": {
						"encoding": "bytes",
						"label": "string",
						"numberOfBytes": "32"
					},
					"t_struct(person)1240_storage": {
						"encoding": "inplace",
						"label": "struct Auth.person",
						"members": [
							{
								"astId": 1221,
								"contract": "auth.sol:Auth",
								"label": "fullName",
								"offset": 0,
								"slot": "0",
								"type": "t_string_storage"
							},
							{
								"astId": 1223,
								"contract": "auth.sol:Auth",
								"label": "SSN",
								"offset": 0,
								"slot": "1",
								"type": "t_string_storage"
							},
							{
								"astId": 1225,
								"contract": "auth.sol:Auth",
								"label": "homeAddress",
								"offset": 0,
								"slot": "2",
								"type": "t_string_storage"
							},
							{
								"astId": 1227,
								"contract": "auth.sol:Auth",
								"label": "pass",
								"offset": 0,
								"slot": "3",
								"type": "t_string_storage"
							},
							{
								"astId": 1229,
								"contract": "auth.sol:Auth",
								"label": "phone",
								"offset": 0,
								"slot": "4",
								"type": "t_string_storage"
							},
							{
								"astId": 1231,
								"contract": "auth.sol:Auth",
								"label": "accountType",
								"offset": 0,
								"slot": "5",
								"type": "t_uint8"
							},
							{
								"astId": 1233,
								"contract": "auth.sol:Auth",
								"label": "companyCode",
								"offset": 0,
								"slot": "6",
								"type": "t_string_storage"
							},
							{
								"astId": 1235,
								"contract": "auth.sol:Auth",
								"label": "blockAccount",
								"offset": 0,
								"slot": "7",
								"type": "t_address"
							},
							{
								"astId": 1237,
								"contract": "auth.sol:Auth",
								"label": "UID",
								"offset": 0,
								"slot": "8",
								"type": "t_bytes32"
							},
							{
								"astId": 1239,
								"contract": "auth.sol:Auth",
								"label": "session",
								"offset": 0,
								"slot": "9",
								"type": "t_bytes32"
							}
						],
						"numberOfBytes": "320"
					},
					"t_uint256": {
						"encoding": "inplace",
						"label": "uint256",
						"numberOfBytes": "32"
					},
					"t_uint8": {
						"encoding": "inplace",
						"label": "uint8",
						"numberOfBytes": "1"
					}
				}
			},
			"userdoc": {
				"kind": "user",
				"methods": {},
				"version": 1
			}
		}
	}
}