{
	"auth.sol": {
		"Auth": {
			"abi": [
				{
					"inputs": [],
					"stateMutability": "nonpayable",
					"type": "constructor"
				},
				{
					"inputs": [
						{
							"internalType": "string",
							"name": "str1",
							"type": "string"
						},
						{
							"internalType": "string",
							"name": "str2",
							"type": "string"
						}
					],
					"name": "compare",
					"outputs": [
						{
							"internalType": "bool",
							"name": "",
							"type": "bool"
						}
					],
					"stateMutability": "pure",
					"type": "function"
				},
				{
					"inputs": [
						{
							"internalType": "string",
							"name": "fullName",
							"type": "string"
						},
						{
							"internalType": "string",
							"name": "SSN",
							"type": "string"
						},
						{
							"internalType": "string",
							"name": "homeAddress",
							"type": "string"
						},
						{
							"internalType": "string",
							"name": "pass",
							"type": "string"
						},
						{
							"internalType": "uint8",
							"name": "accountType",
							"type": "uint8"
						},
						{
							"internalType": "string",
							"name": "phone",
							"type": "string"
						},
						{
							"internalType": "address",
							"name": "addr",
							"type": "address"
						}
					],
					"name": "createAccount",
					"outputs": [],
					"stateMutability": "payable",
					"type": "function"
				},
				{
					"inputs": [
						{
							"internalType": "bytes32",
							"name": "UID",
							"type": "bytes32"
						},
						{
							"internalType": "string",
							"name": "fullName",
							"type": "string"
						},
						{
							"internalType": "string",
							"name": "homeAddress",
							"type": "string"
						},
						{
							"internalType": "string",
							"name": "phone",
							"type": "string"
						},
						{
							"internalType": "address",
							"name": "blockAccount",
							"type": "address"
						},
						{
							"internalType": "string",
							"name": "pass",
							"type": "string"
						}
					],
					"name": "editUser",
					"outputs": [],
					"stateMutability": "payable",
					"type": "function"
				},
				{
					"inputs": [
						{
							"internalType": "bytes32",
							"name": "UID",
							"type": "bytes32"
						},
						{
							"internalType": "string",
							"name": "pass",
							"type": "string"
						}
					],
					"name": "getUser",
					"outputs": [
						{
							"components": [
								{
									"internalType": "string",
									"name": "fullName",
									"type": "string"
								},
								{
									"internalType": "string",
									"name": "SSN",
									"type": "string"
								},
								{
									"internalType": "string",
									"name": "homeAddress",
									"type": "string"
								},
								{
									"internalType": "string",
									"name": "pass",
									"type": "string"
								},
								{
									"internalType": "string",
									"name": "phone",
									"type": "string"
								},
								{
									"internalType": "uint8",
									"name": "accountType",
									"type": "uint8"
								},
								{
									"internalType": "address",
									"name": "blockAccount",
									"type": "address"
								},
								{
									"internalType": "bytes32",
									"name": "UID",
									"type": "bytes32"
								}
							],
							"internalType": "struct Auth.person",
							"name": "",
							"type": "tuple"
						}
					],
					"stateMutability": "view",
					"type": "function"
				}
			],
			"devdoc": {
				"kind": "dev",
				"methods": {},
				"version": 1
			},
			"evm": {
				"assembly": "    /* \"auth.sol\":133:5039  contract Auth {... */\n  mstore(0x40, 0x80)\n    /* \"auth.sol\":194:195  0 */\n  0x00\n    /* \"auth.sol\":173:195  uint8 ACC_PERSONAL = 0 */\n  dup1\n  exp(0x0100, 0x14)\n  dup2\n  sload\n  dup2\n  0xff\n  mul\n  not\n  and\n  swap1\n  dup4\n  0xff\n  and\n  mul\n  or\n  swap1\n  sstore\n  pop\n    /* \"auth.sol\":229:230  1 */\n  0x01\n    /* \"auth.sol\":201:230  uint8 ACC_LIMITED_COMPANY = 1 */\n  0x00\n  exp(0x0100, 0x15)\n  dup2\n  sload\n  dup2\n  0xff\n  mul\n  not\n  and\n  swap1\n  dup4\n  0xff\n  and\n  mul\n  or\n  swap1\n  sstore\n  pop\n    /* \"auth.sol\":262:263  2 */\n  0x02\n    /* \"auth.sol\":236:263  uint8 ACC_SHARE_COMPANY = 2 */\n  0x00\n  exp(0x0100, 0x16)\n  dup2\n  sload\n  dup2\n  0xff\n  mul\n  not\n  and\n  swap1\n  dup4\n  0xff\n  and\n  mul\n  or\n  swap1\n  sstore\n  pop\n    /* \"auth.sol\":300:301  3 */\n  0x03\n    /* \"auth.sol\":269:301  uint8 ACC_INDIVIDUAL_COMPANY = 3 */\n  0x00\n  exp(0x0100, 0x17)\n  dup2\n  sload\n  dup2\n  0xff\n  mul\n  not\n  and\n  swap1\n  dup4\n  0xff\n  and\n  mul\n  or\n  swap1\n  sstore\n  pop\n    /* \"auth.sol\":334:335  4 */\n  0x04\n    /* \"auth.sol\":307:335  uint8 ACC_FOREIGN_BRANCH = 4 */\n  0x00\n  exp(0x0100, 0x18)\n  dup2\n  sload\n  dup2\n  0xff\n  mul\n  not\n  and\n  swap1\n  dup4\n  0xff\n  and\n  mul\n  or\n  swap1\n  sstore\n  pop\n    /* \"auth.sol\":608:736  constructor() {... */\n  callvalue\n  dup1\n  iszero\n  tag_1\n  jumpi\n  0x00\n  dup1\n  revert\ntag_1:\n  pop\n    /* \"auth.sol\":640:650  msg.sender */\n  caller\n    /* \"auth.sol\":632:637  owner */\n  0x00\n  dup1\n    /* \"auth.sol\":632:650  owner = msg.sender */\n  0x0100\n  exp\n  dup2\n  sload\n  dup2\n  0xffffffffffffffffffffffffffffffffffffffff\n  mul\n  not\n  and\n  swap1\n  dup4\n  0xffffffffffffffffffffffffffffffffffffffff\n  and\n  mul\n  or\n  swap1\n  sstore\n  pop\n    /* \"auth.sol\":133:5039  contract Auth {... */\n  dataSize(sub_0)\n  dup1\n  dataOffset(sub_0)\n  0x00\n  codecopy\n  0x00\n  return\nstop\n\nsub_0: assembly {\n        /* \"auth.sol\":133:5039  contract Auth {... */\n      mstore(0x40, 0x80)\n      jumpi(tag_1, lt(calldatasize, 0x04))\n      shr(0xe0, calldataload(0x00))\n      dup1\n      0x131c4f\n      eq\n      tag_2\n      jumpi\n      dup1\n      0x3a96fdd7\n      eq\n      tag_3\n      jumpi\n      dup1\n      0x56bbe303\n      eq\n      tag_4\n      jumpi\n      dup1\n      0xeefb8ab1\n      eq\n      tag_5\n      jumpi\n    tag_1:\n      0x00\n      dup1\n      revert\n        /* \"auth.sol\":2571:4313  function getUser(bytes32 UID, string memory pass) public view returns(person memory)... */\n    tag_2:\n      callvalue\n      dup1\n      iszero\n      tag_6\n      jumpi\n      0x00\n      dup1\n      revert\n    tag_6:\n      pop\n      tag_7\n      0x04\n      dup1\n      calldatasize\n      sub\n      dup2\n      add\n      swap1\n      tag_8\n      swap2\n      swap1\n      tag_9\n      jump\t// in\n    tag_8:\n      tag_10\n      jump\t// in\n    tag_7:\n      mload(0x40)\n      tag_11\n      swap2\n      swap1\n      tag_12\n      jump\t// in\n    tag_11:\n      mload(0x40)\n      dup1\n      swap2\n      sub\n      swap1\n      return\n        /* \"auth.sol\":4858:5036  function compare(string memory str1, string memory str2) public pure returns (bool) {... */\n    tag_3:\n      callvalue\n      dup1\n      iszero\n      tag_13\n      jumpi\n      0x00\n      dup1\n      revert\n    tag_13:\n      pop\n      tag_14\n      0x04\n      dup1\n      calldatasize\n      sub\n      dup2\n      add\n      swap1\n      tag_15\n      swap2\n      swap1\n      tag_16\n      jump\t// in\n    tag_15:\n      tag_17\n      jump\t// in\n    tag_14:\n      mload(0x40)\n      tag_18\n      swap2\n      swap1\n      tag_19\n      jump\t// in\n    tag_18:\n      mload(0x40)\n      dup1\n      swap2\n      sub\n      swap1\n      return\n        /* \"auth.sol\":4319:4851  function editUser(bytes32 UID, string memory fullName, string memory homeAddress, string memory phone, address blockAccount, string memory pass) public payable... */\n    tag_4:\n      tag_20\n      0x04\n      dup1\n      calldatasize\n      sub\n      dup2\n      add\n      swap1\n      tag_21\n      swap2\n      swap1\n      tag_22\n      jump\t// in\n    tag_21:\n      tag_23\n      jump\t// in\n    tag_20:\n      stop\n        /* \"auth.sol\":845:2565  function createAccount(string memory fullName, string memory SSN, string memory homeAddress, string memory pass, uint8 accountType, string memory phone, address addr) public payable... */\n    tag_5:\n      tag_24\n      0x04\n      dup1\n      calldatasize\n      sub\n      dup2\n      add\n      swap1\n      tag_25\n      swap2\n      swap1\n      tag_26\n      jump\t// in\n    tag_25:\n      tag_27\n      jump\t// in\n    tag_24:\n      stop\n        /* \"auth.sol\":2571:4313  function getUser(bytes32 UID, string memory pass) public view returns(person memory)... */\n    tag_10:\n        /* \"auth.sol\":2641:2654  person memory */\n      tag_28\n      tag_29\n      jump\t// in\n    tag_28:\n        /* \"auth.sol\":2670:2698  person memory censoredPerson */\n      tag_31\n      tag_29\n      jump\t// in\n    tag_31:\n        /* \"auth.sol\":2750:2760  msg.sender */\n      caller\n        /* \"auth.sol\":2721:2760  persons[UID].blockAccount != msg.sender */\n      0xffffffffffffffffffffffffffffffffffffffff\n      and\n        /* \"auth.sol\":2721:2728  persons */\n      0x01\n        /* \"auth.sol\":2721:2733  persons[UID] */\n      0x00\n        /* \"auth.sol\":2729:2732  UID */\n      dup7\n        /* \"auth.sol\":2721:2733  persons[UID] */\n      dup2\n      mstore\n      0x20\n      add\n      swap1\n      dup2\n      mstore\n      0x20\n      add\n      0x00\n      keccak256\n        /* \"auth.sol\":2721:2746  persons[UID].blockAccount */\n      0x05\n      add\n      0x01\n      swap1\n      sload\n      swap1\n      0x0100\n      exp\n      swap1\n      div\n      0xffffffffffffffffffffffffffffffffffffffff\n      and\n        /* \"auth.sol\":2721:2760  persons[UID].blockAccount != msg.sender */\n      0xffffffffffffffffffffffffffffffffffffffff\n      and\n      eq\n        /* \"auth.sol\":2717:3788  if (persons[UID].blockAccount != msg.sender)... */\n      tag_32\n      jumpi\n        /* \"auth.sol\":2801:3143  person({... */\n      mload(0x40)\n      dup1\n      0x0100\n      add\n      0x40\n      mstore\n      dup1\n      mload(0x40)\n      dup1\n      0x40\n      add\n      0x40\n      mstore\n      dup1\n      0x0b\n      dup2\n      mstore\n      0x20\n      add\n      0x2a2a2a2a2a2a2a2a2a2a2a000000000000000000000000000000000000000000\n      dup2\n      mstore\n      pop\n      dup2\n      mstore\n      0x20\n      add\n      mload(0x40)\n      dup1\n      0x40\n      add\n      0x40\n      mstore\n      dup1\n      0x06\n      dup2\n      mstore\n      0x20\n      add\n      0x2a2a2a2a2a2a0000000000000000000000000000000000000000000000000000\n      dup2\n      mstore\n      pop\n      dup2\n      mstore\n      0x20\n      add\n      mload(0x40)\n      dup1\n      0x40\n      add\n      0x40\n      mstore\n      dup1\n      0x0a\n      dup2\n      mstore\n      0x20\n      add\n      0x2a2a2a2a2a2a2a2a2a2a00000000000000000000000000000000000000000000\n      dup2\n      mstore\n      pop\n      dup2\n      mstore\n      0x20\n      add\n      mload(0x40)\n      dup1\n      0x40\n      add\n      0x40\n      mstore\n      dup1\n      0x07\n      dup2\n      mstore\n      0x20\n      add\n      0x2a2a2a2a2a2a2a00000000000000000000000000000000000000000000000000\n      dup2\n      mstore\n      pop\n      dup2\n      mstore\n      0x20\n      add\n      mload(0x40)\n      dup1\n      0x40\n      add\n      0x40\n      mstore\n      dup1\n      0x08\n      dup2\n      mstore\n      0x20\n      add\n      0x2a2a2a2a2a2a2a2a000000000000000000000000000000000000000000000000\n      dup2\n      mstore\n      pop\n      dup2\n      mstore\n      0x20\n      add\n        /* \"auth.sol\":3023:3030  persons */\n      0x01\n        /* \"auth.sol\":3023:3035  persons[UID] */\n      0x00\n        /* \"auth.sol\":3031:3034  UID */\n      dup8\n        /* \"auth.sol\":3023:3035  persons[UID] */\n      dup2\n      mstore\n      0x20\n      add\n      swap1\n      dup2\n      mstore\n      0x20\n      add\n      0x00\n      keccak256\n        /* \"auth.sol\":3023:3047  persons[UID].accountType */\n      0x05\n      add\n      0x00\n      swap1\n      sload\n      swap1\n      0x0100\n      exp\n      swap1\n      div\n      0xff\n      and\n        /* \"auth.sol\":2801:3143  person({... */\n      0xff\n      and\n      dup2\n      mstore\n      0x20\n      add\n        /* \"auth.sol\":3078:3088  msg.sender */\n      caller\n        /* \"auth.sol\":2801:3143  person({... */\n      0xffffffffffffffffffffffffffffffffffffffff\n      and\n      dup2\n      mstore\n      0x20\n      add\n        /* \"auth.sol\":3112:3119  persons */\n      0x01\n        /* \"auth.sol\":3112:3124  persons[UID] */\n      0x00\n        /* \"auth.sol\":3120:3123  UID */\n      dup8\n        /* \"auth.sol\":3112:3124  persons[UID] */\n      dup2\n      mstore\n      0x20\n      add\n      swap1\n      dup2\n      mstore\n      0x20\n      add\n      0x00\n      keccak256\n        /* \"auth.sol\":3112:3128  persons[UID].UID */\n      0x06\n      add\n      sload\n        /* \"auth.sol\":2801:3143  person({... */\n      dup2\n      mstore\n      pop\n        /* \"auth.sol\":2784:3143  censoredPerson = person({... */\n      swap1\n      pop\n        /* \"auth.sol\":2717:3788  if (persons[UID].blockAccount != msg.sender)... */\n      jump(tag_33)\n    tag_32:\n        /* \"auth.sol\":3207:3766  person({... */\n      mload(0x40)\n      dup1\n      0x0100\n      add\n      0x40\n      mstore\n      dup1\n        /* \"auth.sol\":3250:3256  cypher */\n      linkerSymbol(\"0394c467ed0fdd19c4eccf25096e0ad40f7a8f3a2ecaa74fa8ac0ce31535a80b\")\n        /* \"auth.sol\":3250:3264  cypher.encrypt */\n      0x015cfec7\n        /* \"auth.sol\":3271:3278  persons */\n      0x01\n        /* \"auth.sol\":3271:3283  persons[UID] */\n      0x00\n        /* \"auth.sol\":3279:3282  UID */\n      dup10\n        /* \"auth.sol\":3271:3283  persons[UID] */\n      dup2\n      mstore\n      0x20\n      add\n      swap1\n      dup2\n      mstore\n      0x20\n      add\n      0x00\n      keccak256\n        /* \"auth.sol\":3271:3292  persons[UID].fullName */\n      0x00\n      add\n        /* \"auth.sol\":3301:3305  pass */\n      dup8\n        /* \"auth.sol\":3250:3307  cypher.encrypt(bytes(persons[UID].fullName), bytes(pass)) */\n      mload(0x40)\n      dup4\n      0xffffffff\n      and\n      0xe0\n      shl\n      dup2\n      mstore\n      0x04\n      add\n      tag_34\n      swap3\n      swap2\n      swap1\n      tag_35\n      jump\t// in\n    tag_34:\n      0x00\n      mload(0x40)\n      dup1\n      dup4\n      sub\n      dup2\n      dup7\n      gas\n      delegatecall\n      iszero\n      dup1\n      iszero\n      tag_37\n      jumpi\n      returndatasize\n      0x00\n      dup1\n      returndatacopy\n      revert(0x00, returndatasize)\n    tag_37:\n      pop\n      pop\n      pop\n      pop\n      mload(0x40)\n      returndatasize\n      0x00\n      dup3\n      returndatacopy\n      returndatasize\n      not(0x1f)\n      0x1f\n      dup3\n      add\n      and\n      dup3\n      add\n      dup1\n      0x40\n      mstore\n      pop\n      dup2\n      add\n      swap1\n      tag_38\n      swap2\n      swap1\n      tag_39\n      jump\t// in\n    tag_38:\n        /* \"auth.sol\":3207:3766  person({... */\n      dup2\n      mstore\n      0x20\n      add\n        /* \"auth.sol\":3339:3345  cypher */\n      linkerSymbol(\"0394c467ed0fdd19c4eccf25096e0ad40f7a8f3a2ecaa74fa8ac0ce31535a80b\")\n        /* \"auth.sol\":3339:3353  cypher.encrypt */\n      0x015cfec7\n        /* \"auth.sol\":3360:3367  persons */\n      0x01\n        /* \"auth.sol\":3360:3372  persons[UID] */\n      0x00\n        /* \"auth.sol\":3368:3371  UID */\n      dup10\n        /* \"auth.sol\":3360:3372  persons[UID] */\n      dup2\n      mstore\n      0x20\n      add\n      swap1\n      dup2\n      mstore\n      0x20\n      add\n      0x00\n      keccak256\n        /* \"auth.sol\":3360:3376  persons[UID].SSN */\n      0x01\n      add\n        /* \"auth.sol\":3385:3389  pass */\n      dup8\n        /* \"auth.sol\":3339:3391  cypher.encrypt(bytes(persons[UID].SSN), bytes(pass)) */\n      mload(0x40)\n      dup4\n      0xffffffff\n      and\n      0xe0\n      shl\n      dup2\n      mstore\n      0x04\n      add\n      tag_40\n      swap3\n      swap2\n      swap1\n      tag_35\n      jump\t// in\n    tag_40:\n      0x00\n      mload(0x40)\n      dup1\n      dup4\n      sub\n      dup2\n      dup7\n      gas\n      delegatecall\n      iszero\n      dup1\n      iszero\n      tag_42\n      jumpi\n      returndatasize\n      0x00\n      dup1\n      returndatacopy\n      revert(0x00, returndatasize)\n    tag_42:\n      pop\n      pop\n      pop\n      pop\n      mload(0x40)\n      returndatasize\n      0x00\n      dup3\n      returndatacopy\n      returndatasize\n      not(0x1f)\n      0x1f\n      dup3\n      add\n      and\n      dup3\n      add\n      dup1\n      0x40\n      mstore\n      pop\n      dup2\n      add\n      swap1\n      tag_43\n      swap2\n      swap1\n      tag_39\n      jump\t// in\n    tag_43:\n        /* \"auth.sol\":3207:3766  person({... */\n      dup2\n      mstore\n      0x20\n      add\n        /* \"auth.sol\":3431:3437  cypher */\n      linkerSymbol(\"0394c467ed0fdd19c4eccf25096e0ad40f7a8f3a2ecaa74fa8ac0ce31535a80b\")\n        /* \"auth.sol\":3431:3445  cypher.encrypt */\n      0x015cfec7\n        /* \"auth.sol\":3452:3459  persons */\n      0x01\n        /* \"auth.sol\":3452:3464  persons[UID] */\n      0x00\n        /* \"auth.sol\":3460:3463  UID */\n      dup10\n        /* \"auth.sol\":3452:3464  persons[UID] */\n      dup2\n      mstore\n      0x20\n      add\n      swap1\n      dup2\n      mstore\n      0x20\n      add\n      0x00\n      keccak256\n        /* \"auth.sol\":3452:3476  persons[UID].homeAddress */\n      0x02\n      add\n        /* \"auth.sol\":3485:3489  pass */\n      dup8\n        /* \"auth.sol\":3431:3491  cypher.encrypt(bytes(persons[UID].homeAddress), bytes(pass)) */\n      mload(0x40)\n      dup4\n      0xffffffff\n      and\n      0xe0\n      shl\n      dup2\n      mstore\n      0x04\n      add\n      tag_44\n      swap3\n      swap2\n      swap1\n      tag_35\n      jump\t// in\n    tag_44:\n      0x00\n      mload(0x40)\n      dup1\n      dup4\n      sub\n      dup2\n      dup7\n      gas\n      delegatecall\n      iszero\n      dup1\n      iszero\n      tag_46\n      jumpi\n      returndatasize\n      0x00\n      dup1\n      returndatacopy\n      revert(0x00, returndatasize)\n    tag_46:\n      pop\n      pop\n      pop\n      pop\n      mload(0x40)\n      returndatasize\n      0x00\n      dup3\n      returndatacopy\n      returndatasize\n      not(0x1f)\n      0x1f\n      dup3\n      add\n      and\n      dup3\n      add\n      dup1\n      0x40\n      mstore\n      pop\n      dup2\n      add\n      swap1\n      tag_47\n      swap2\n      swap1\n      tag_39\n      jump\t// in\n    tag_47:\n        /* \"auth.sol\":3207:3766  person({... */\n      dup2\n      mstore\n      0x20\n      add\n      mload(0x40)\n      dup1\n      0x40\n      add\n      0x40\n      mstore\n      dup1\n      0x05\n      dup2\n      mstore\n      0x20\n      add\n      0x2a2a2a2a2a000000000000000000000000000000000000000000000000000000\n      dup2\n      mstore\n      pop\n      dup2\n      mstore\n      0x20\n      add\n        /* \"auth.sol\":3557:3563  cypher */\n      linkerSymbol(\"0394c467ed0fdd19c4eccf25096e0ad40f7a8f3a2ecaa74fa8ac0ce31535a80b\")\n        /* \"auth.sol\":3557:3571  cypher.encrypt */\n      0x015cfec7\n        /* \"auth.sol\":3578:3585  persons */\n      0x01\n        /* \"auth.sol\":3578:3590  persons[UID] */\n      0x00\n        /* \"auth.sol\":3586:3589  UID */\n      dup10\n        /* \"auth.sol\":3578:3590  persons[UID] */\n      dup2\n      mstore\n      0x20\n      add\n      swap1\n      dup2\n      mstore\n      0x20\n      add\n      0x00\n      keccak256\n        /* \"auth.sol\":3578:3596  persons[UID].phone */\n      0x04\n      add\n        /* \"auth.sol\":3605:3609  pass */\n      dup8\n        /* \"auth.sol\":3557:3611  cypher.encrypt(bytes(persons[UID].phone), bytes(pass)) */\n      mload(0x40)\n      dup4\n      0xffffffff\n      and\n      0xe0\n      shl\n      dup2\n      mstore\n      0x04\n      add\n      tag_48\n      swap3\n      swap2\n      swap1\n      tag_35\n      jump\t// in\n    tag_48:\n      0x00\n      mload(0x40)\n      dup1\n      dup4\n      sub\n      dup2\n      dup7\n      gas\n      delegatecall\n      iszero\n      dup1\n      iszero\n      tag_50\n      jumpi\n      returndatasize\n      0x00\n      dup1\n      returndatacopy\n      revert(0x00, returndatasize)\n    tag_50:\n      pop\n      pop\n      pop\n      pop\n      mload(0x40)\n      returndatasize\n      0x00\n      dup3\n      returndatacopy\n      returndatasize\n      not(0x1f)\n      0x1f\n      dup3\n      add\n      and\n      dup3\n      add\n      dup1\n      0x40\n      mstore\n      pop\n      dup2\n      add\n      swap1\n      tag_51\n      swap2\n      swap1\n      tag_39\n      jump\t// in\n    tag_51:\n        /* \"auth.sol\":3207:3766  person({... */\n      dup2\n      mstore\n      0x20\n      add\n        /* \"auth.sol\":3643:3650  persons */\n      0x01\n        /* \"auth.sol\":3643:3655  persons[UID] */\n      0x00\n        /* \"auth.sol\":3651:3654  UID */\n      dup8\n        /* \"auth.sol\":3643:3655  persons[UID] */\n      dup2\n      mstore\n      0x20\n      add\n      swap1\n      dup2\n      mstore\n      0x20\n      add\n      0x00\n      keccak256\n        /* \"auth.sol\":3643:3667  persons[UID].accountType */\n      0x05\n      add\n      0x00\n      swap1\n      sload\n      swap1\n      0x0100\n      exp\n      swap1\n      div\n      0xff\n      and\n        /* \"auth.sol\":3207:3766  person({... */\n      0xff\n      and\n      dup2\n      mstore\n      0x20\n      add\n        /* \"auth.sol\":3700:3707  persons */\n      0x01\n        /* \"auth.sol\":3700:3712  persons[UID] */\n      0x00\n        /* \"auth.sol\":3708:3711  UID */\n      dup8\n        /* \"auth.sol\":3700:3712  persons[UID] */\n      dup2\n      mstore\n      0x20\n      add\n      swap1\n      dup2\n      mstore\n      0x20\n      add\n      0x00\n      keccak256\n        /* \"auth.sol\":3700:3725  persons[UID].blockAccount */\n      0x05\n      add\n      0x01\n      swap1\n      sload\n      swap1\n      0x0100\n      exp\n      swap1\n      div\n      0xffffffffffffffffffffffffffffffffffffffff\n      and\n        /* \"auth.sol\":3207:3766  person({... */\n      0xffffffffffffffffffffffffffffffffffffffff\n      and\n      dup2\n      mstore\n      0x20\n      add\n        /* \"auth.sol\":3748:3751  UID */\n      dup6\n        /* \"auth.sol\":3207:3766  person({... */\n      dup2\n      mstore\n      pop\n        /* \"auth.sol\":3190:3766  censoredPerson = person({... */\n      swap1\n      pop\n        /* \"auth.sol\":2717:3788  if (persons[UID].blockAccount != msg.sender)... */\n    tag_33:\n        /* \"auth.sol\":3830:3831  0 */\n      0x00\n        /* \"auth.sol\":3803:3810  persons */\n      0x01\n        /* \"auth.sol\":3803:3815  persons[UID] */\n      0x00\n        /* \"auth.sol\":3811:3814  UID */\n      dup7\n        /* \"auth.sol\":3803:3815  persons[UID] */\n      dup2\n      mstore\n      0x20\n      add\n      swap1\n      dup2\n      mstore\n      0x20\n      add\n      0x00\n      keccak256\n        /* \"auth.sol\":3803:3827  persons[UID].accountType */\n      0x05\n      add\n      0x00\n      swap1\n      sload\n      swap1\n      0x0100\n      exp\n      swap1\n      div\n      0xff\n      and\n        /* \"auth.sol\":3803:3831  persons[UID].accountType > 0 */\n      0xff\n      and\n      gt\n        /* \"auth.sol\":3799:4276  if (persons[UID].accountType > 0)... */\n      iszero\n      tag_52\n      jumpi\n        /* \"auth.sol\":3872:4265  person({... */\n      mload(0x40)\n      dup1\n      0x0100\n      add\n      0x40\n      mstore\n      dup1\n        /* \"auth.sol\":3907:3914  persons */\n      0x01\n        /* \"auth.sol\":3907:3919  persons[UID] */\n      0x00\n        /* \"auth.sol\":3915:3918  UID */\n      dup8\n        /* \"auth.sol\":3907:3919  persons[UID] */\n      dup2\n      mstore\n      0x20\n      add\n      swap1\n      dup2\n      mstore\n      0x20\n      add\n      0x00\n      keccak256\n        /* \"auth.sol\":3907:3928  persons[UID].fullName */\n      0x00\n      add\n        /* \"auth.sol\":3872:4265  person({... */\n      dup1\n      sload\n      tag_53\n      swap1\n      tag_54\n      jump\t// in\n    tag_53:\n      dup1\n      0x1f\n      add\n      0x20\n      dup1\n      swap2\n      div\n      mul\n      0x20\n      add\n      mload(0x40)\n      swap1\n      dup2\n      add\n      0x40\n      mstore\n      dup1\n      swap3\n      swap2\n      swap1\n      dup2\n      dup2\n      mstore\n      0x20\n      add\n      dup3\n      dup1\n      sload\n      tag_55\n      swap1\n      tag_54\n      jump\t// in\n    tag_55:\n      dup1\n      iszero\n      tag_56\n      jumpi\n      dup1\n      0x1f\n      lt\n      tag_57\n      jumpi\n      0x0100\n      dup1\n      dup4\n      sload\n      div\n      mul\n      dup4\n      mstore\n      swap2\n      0x20\n      add\n      swap2\n      jump(tag_56)\n    tag_57:\n      dup3\n      add\n      swap2\n      swap1\n      0x00\n      mstore\n      keccak256(0x00, 0x20)\n      swap1\n    tag_58:\n      dup2\n      sload\n      dup2\n      mstore\n      swap1\n      0x01\n      add\n      swap1\n      0x20\n      add\n      dup1\n      dup4\n      gt\n      tag_58\n      jumpi\n      dup3\n      swap1\n      sub\n      0x1f\n      and\n      dup3\n      add\n      swap2\n    tag_56:\n      pop\n      pop\n      pop\n      pop\n      pop\n      dup2\n      mstore\n      0x20\n      add\n        /* \"auth.sol\":3952:3959  persons */\n      0x01\n        /* \"auth.sol\":3952:3964  persons[UID] */\n      0x00\n        /* \"auth.sol\":3960:3963  UID */\n      dup8\n        /* \"auth.sol\":3952:3964  persons[UID] */\n      dup2\n      mstore\n      0x20\n      add\n      swap1\n      dup2\n      mstore\n      0x20\n      add\n      0x00\n      keccak256\n        /* \"auth.sol\":3952:3968  persons[UID].SSN */\n      0x01\n      add\n        /* \"auth.sol\":3872:4265  person({... */\n      dup1\n      sload\n      tag_59\n      swap1\n      tag_54\n      jump\t// in\n    tag_59:\n      dup1\n      0x1f\n      add\n      0x20\n      dup1\n      swap2\n      div\n      mul\n      0x20\n      add\n      mload(0x40)\n      swap1\n      dup2\n      add\n      0x40\n      mstore\n      dup1\n      swap3\n      swap2\n      swap1\n      dup2\n      dup2\n      mstore\n      0x20\n      add\n      dup3\n      dup1\n      sload\n      tag_60\n      swap1\n      tag_54\n      jump\t// in\n    tag_60:\n      dup1\n      iszero\n      tag_61\n      jumpi\n      dup1\n      0x1f\n      lt\n      tag_62\n      jumpi\n      0x0100\n      dup1\n      dup4\n      sload\n      div\n      mul\n      dup4\n      mstore\n      swap2\n      0x20\n      add\n      swap2\n      jump(tag_61)\n    tag_62:\n      dup3\n      add\n      swap2\n      swap1\n      0x00\n      mstore\n      keccak256(0x00, 0x20)\n      swap1\n    tag_63:\n      dup2\n      sload\n      dup2\n      mstore\n      swap1\n      0x01\n      add\n      swap1\n      0x20\n      add\n      dup1\n      dup4\n      gt\n      tag_63\n      jumpi\n      dup3\n      swap1\n      sub\n      0x1f\n      and\n      dup3\n      add\n      swap2\n    tag_61:\n      pop\n      pop\n      pop\n      pop\n      pop\n      dup2\n      mstore\n      0x20\n      add\n        /* \"auth.sol\":3999:4006  persons */\n      0x01\n        /* \"auth.sol\":3999:4011  persons[UID] */\n      0x00\n        /* \"auth.sol\":4007:4010  UID */\n      dup8\n        /* \"auth.sol\":3999:4011  persons[UID] */\n      dup2\n      mstore\n      0x20\n      add\n      swap1\n      dup2\n      mstore\n      0x20\n      add\n      0x00\n      keccak256\n        /* \"auth.sol\":3999:4023  persons[UID].homeAddress */\n      0x02\n      add\n        /* \"auth.sol\":3872:4265  person({... */\n      dup1\n      sload\n      tag_64\n      swap1\n      tag_54\n      jump\t// in\n    tag_64:\n      dup1\n      0x1f\n      add\n      0x20\n      dup1\n      swap2\n      div\n      mul\n      0x20\n      add\n      mload(0x40)\n      swap1\n      dup2\n      add\n      0x40\n      mstore\n      dup1\n      swap3\n      swap2\n      swap1\n      dup2\n      dup2\n      mstore\n      0x20\n      add\n      dup3\n      dup1\n      sload\n      tag_65\n      swap1\n      tag_54\n      jump\t// in\n    tag_65:\n      dup1\n      iszero\n      tag_66\n      jumpi\n      dup1\n      0x1f\n      lt\n      tag_67\n      jumpi\n      0x0100\n      dup1\n      dup4\n      sload\n      div\n      mul\n      dup4\n      mstore\n      swap2\n      0x20\n      add\n      swap2\n      jump(tag_66)\n    tag_67:\n      dup3\n      add\n      swap2\n      swap1\n      0x00\n      mstore\n      keccak256(0x00, 0x20)\n      swap1\n    tag_68:\n      dup2\n      sload\n      dup2\n      mstore\n      swap1\n      0x01\n      add\n      swap1\n      0x20\n      add\n      dup1\n      dup4\n      gt\n      tag_68\n      jumpi\n      dup3\n      swap1\n      sub\n      0x1f\n      and\n      dup3\n      add\n      swap2\n    tag_66:\n      pop\n      pop\n      pop\n      pop\n      pop\n      dup2\n      mstore\n      0x20\n      add\n      mload(0x40)\n      dup1\n      0x40\n      add\n      0x40\n      mstore\n      dup1\n      0x07\n      dup2\n      mstore\n      0x20\n      add\n      0x2a2a2a2a2a2a2a00000000000000000000000000000000000000000000000000\n      dup2\n      mstore\n      pop\n      dup2\n      mstore\n      0x20\n      add\n        /* \"auth.sol\":4081:4088  persons */\n      0x01\n        /* \"auth.sol\":4081:4093  persons[UID] */\n      0x00\n        /* \"auth.sol\":4089:4092  UID */\n      dup8\n        /* \"auth.sol\":4081:4093  persons[UID] */\n      dup2\n      mstore\n      0x20\n      add\n      swap1\n      dup2\n      mstore\n      0x20\n      add\n      0x00\n      keccak256\n        /* \"auth.sol\":4081:4099  persons[UID].phone */\n      0x04\n      add\n        /* \"auth.sol\":3872:4265  person({... */\n      dup1\n      sload\n      tag_69\n      swap1\n      tag_54\n      jump\t// in\n    tag_69:\n      dup1\n      0x1f\n      add\n      0x20\n      dup1\n      swap2\n      div\n      mul\n      0x20\n      add\n      mload(0x40)\n      swap1\n      dup2\n      add\n      0x40\n      mstore\n      dup1\n      swap3\n      swap2\n      swap1\n      dup2\n      dup2\n      mstore\n      0x20\n      add\n      dup3\n      dup1\n      sload\n      tag_70\n      swap1\n      tag_54\n      jump\t// in\n    tag_70:\n      dup1\n      iszero\n      tag_71\n      jumpi\n      dup1\n      0x1f\n      lt\n      tag_72\n      jumpi\n      0x0100\n      dup1\n      dup4\n      sload\n      div\n      mul\n      dup4\n      mstore\n      swap2\n      0x20\n      add\n      swap2\n      jump(tag_71)\n    tag_72:\n      dup3\n      add\n      swap2\n      swap1\n      0x00\n      mstore\n      keccak256(0x00, 0x20)\n      swap1\n    tag_73:\n      dup2\n      sload\n      dup2\n      mstore\n      swap1\n      0x01\n      add\n      swap1\n      0x20\n      add\n      dup1\n      dup4\n      gt\n      tag_73\n      jumpi\n      dup3\n      swap1\n      sub\n      0x1f\n      and\n      dup3\n      add\n      swap2\n    tag_71:\n      pop\n      pop\n      pop\n      pop\n      pop\n      dup2\n      mstore\n      0x20\n      add\n        /* \"auth.sol\":4130:4137  persons */\n      0x01\n        /* \"auth.sol\":4130:4142  persons[UID] */\n      0x00\n        /* \"auth.sol\":4138:4141  UID */\n      dup8\n        /* \"auth.sol\":4130:4142  persons[UID] */\n      dup2\n      mstore\n      0x20\n      add\n      swap1\n      dup2\n      mstore\n      0x20\n      add\n      0x00\n      keccak256\n        /* \"auth.sol\":4130:4154  persons[UID].accountType */\n      0x05\n      add\n      0x00\n      swap1\n      sload\n      swap1\n      0x0100\n      exp\n      swap1\n      div\n      0xff\n      and\n        /* \"auth.sol\":3872:4265  person({... */\n      0xff\n      and\n      dup2\n      mstore\n      0x20\n      add\n        /* \"auth.sol\":4185:4192  persons */\n      0x01\n        /* \"auth.sol\":4185:4197  persons[UID] */\n      0x00\n        /* \"auth.sol\":4193:4196  UID */\n      dup8\n        /* \"auth.sol\":4185:4197  persons[UID] */\n      dup2\n      mstore\n      0x20\n      add\n      swap1\n      dup2\n      mstore\n      0x20\n      add\n      0x00\n      keccak256\n        /* \"auth.sol\":4185:4210  persons[UID].blockAccount */\n      0x05\n      add\n      0x01\n      swap1\n      sload\n      swap1\n      0x0100\n      exp\n      swap1\n      div\n      0xffffffffffffffffffffffffffffffffffffffff\n      and\n        /* \"auth.sol\":3872:4265  person({... */\n      0xffffffffffffffffffffffffffffffffffffffff\n      and\n      dup2\n      mstore\n      0x20\n      add\n        /* \"auth.sol\":4234:4241  persons */\n      0x01\n        /* \"auth.sol\":4234:4246  persons[UID] */\n      0x00\n        /* \"auth.sol\":4242:4245  UID */\n      dup8\n        /* \"auth.sol\":4234:4246  persons[UID] */\n      dup2\n      mstore\n      0x20\n      add\n      swap1\n      dup2\n      mstore\n      0x20\n      add\n      0x00\n      keccak256\n        /* \"auth.sol\":4234:4250  persons[UID].UID */\n      0x06\n      add\n      sload\n        /* \"auth.sol\":3872:4265  person({... */\n      dup2\n      mstore\n      pop\n        /* \"auth.sol\":3855:4265  censoredPerson = person({... */\n      swap1\n      pop\n        /* \"auth.sol\":3799:4276  if (persons[UID].accountType > 0)... */\n    tag_52:\n        /* \"auth.sol\":4292:4306  censoredPerson */\n      dup1\n        /* \"auth.sol\":4285:4306  return censoredPerson */\n      swap2\n      pop\n      pop\n        /* \"auth.sol\":2571:4313  function getUser(bytes32 UID, string memory pass) public view returns(person memory)... */\n      swap3\n      swap2\n      pop\n      pop\n      jump\t// out\n        /* \"auth.sol\":4858:5036  function compare(string memory str1, string memory str2) public pure returns (bool) {... */\n    tag_17:\n        /* \"auth.sol\":4936:4940  bool */\n      0x00\n        /* \"auth.sol\":5023:5027  str2 */\n      dup2\n        /* \"auth.sol\":5006:5028  abi.encodePacked(str2) */\n      add(0x20, mload(0x40))\n      tag_75\n      swap2\n      swap1\n      tag_76\n      jump\t// in\n    tag_75:\n      mload(0x40)\n      0x20\n      dup2\n      dup4\n      sub\n      sub\n      dup2\n      mstore\n      swap1\n      0x40\n      mstore\n        /* \"auth.sol\":4996:5029  keccak256(abi.encodePacked(str2)) */\n      dup1\n      mload\n      swap1\n      0x20\n      add\n      keccak256\n        /* \"auth.sol\":4986:4990  str1 */\n      dup4\n        /* \"auth.sol\":4969:4991  abi.encodePacked(str1) */\n      add(0x20, mload(0x40))\n      tag_77\n      swap2\n      swap1\n      tag_76\n      jump\t// in\n    tag_77:\n      mload(0x40)\n      0x20\n      dup2\n      dup4\n      sub\n      sub\n      dup2\n      mstore\n      swap1\n      0x40\n      mstore\n        /* \"auth.sol\":4959:4992  keccak256(abi.encodePacked(str1)) */\n      dup1\n      mload\n      swap1\n      0x20\n      add\n      keccak256\n        /* \"auth.sol\":4959:5029  keccak256(abi.encodePacked(str1)) == keccak256(abi.encodePacked(str2)) */\n      eq\n        /* \"auth.sol\":4952:5029  return keccak256(abi.encodePacked(str1)) == keccak256(abi.encodePacked(str2)) */\n      swap1\n      pop\n        /* \"auth.sol\":4858:5036  function compare(string memory str1, string memory str2) public pure returns (bool) {... */\n      swap3\n      swap2\n      pop\n      pop\n      jump\t// out\n        /* \"auth.sol\":4319:4851  function editUser(bytes32 UID, string memory fullName, string memory homeAddress, string memory phone, address blockAccount, string memory pass) public payable... */\n    tag_23:\n        /* \"auth.sol\":4528:4538  msg.sender */\n      caller\n        /* \"auth.sol\":4499:4538  persons[UID].blockAccount != msg.sender */\n      0xffffffffffffffffffffffffffffffffffffffff\n      and\n        /* \"auth.sol\":4499:4506  persons */\n      0x01\n        /* \"auth.sol\":4499:4511  persons[UID] */\n      0x00\n        /* \"auth.sol\":4507:4510  UID */\n      dup9\n        /* \"auth.sol\":4499:4511  persons[UID] */\n      dup2\n      mstore\n      0x20\n      add\n      swap1\n      dup2\n      mstore\n      0x20\n      add\n      0x00\n      keccak256\n        /* \"auth.sol\":4499:4524  persons[UID].blockAccount */\n      0x05\n      add\n      0x01\n      swap1\n      sload\n      swap1\n      0x0100\n      exp\n      swap1\n      div\n      0xffffffffffffffffffffffffffffffffffffffff\n      and\n        /* \"auth.sol\":4499:4538  persons[UID].blockAccount != msg.sender */\n      0xffffffffffffffffffffffffffffffffffffffff\n      and\n      eq\n      iszero\n        /* \"auth.sol\":4498:4619  (persons[UID].blockAccount != msg.sender) && (compare(pass, string(abi.encodePacked(keccak256(abi.encodePacked(pass)))))) */\n      dup1\n      iszero\n      tag_79\n      jumpi\n      pop\n        /* \"auth.sol\":4544:4618  compare(pass, string(abi.encodePacked(keccak256(abi.encodePacked(pass))))) */\n      tag_80\n        /* \"auth.sol\":4552:4556  pass */\n      dup2\n        /* \"auth.sol\":4609:4613  pass */\n      dup3\n        /* \"auth.sol\":4592:4614  abi.encodePacked(pass) */\n      add(0x20, mload(0x40))\n      tag_81\n      swap2\n      swap1\n      tag_76\n      jump\t// in\n    tag_81:\n      mload(0x40)\n      0x20\n      dup2\n      dup4\n      sub\n      sub\n      dup2\n      mstore\n      swap1\n      0x40\n      mstore\n        /* \"auth.sol\":4582:4615  keccak256(abi.encodePacked(pass)) */\n      dup1\n      mload\n      swap1\n      0x20\n      add\n      keccak256\n        /* \"auth.sol\":4565:4616  abi.encodePacked(keccak256(abi.encodePacked(pass))) */\n      add(0x20, mload(0x40))\n      tag_82\n      swap2\n      swap1\n      tag_83\n      jump\t// in\n    tag_82:\n      mload(0x40)\n      0x20\n      dup2\n      dup4\n      sub\n      sub\n      dup2\n      mstore\n      swap1\n      0x40\n      mstore\n        /* \"auth.sol\":4544:4551  compare */\n      tag_17\n        /* \"auth.sol\":4544:4618  compare(pass, string(abi.encodePacked(keccak256(abi.encodePacked(pass))))) */\n      jump\t// in\n    tag_80:\n        /* \"auth.sol\":4498:4619  (persons[UID].blockAccount != msg.sender) && (compare(pass, string(abi.encodePacked(keccak256(abi.encodePacked(pass)))))) */\n    tag_79:\n        /* \"auth.sol\":4494:4842  if ((persons[UID].blockAccount != msg.sender) && (compare(pass, string(abi.encodePacked(keccak256(abi.encodePacked(pass)))))))    ... */\n      iszero\n      tag_84\n      jumpi\n        /* \"auth.sol\":4673:4681  fullName */\n      dup5\n        /* \"auth.sol\":4649:4656  persons */\n      0x01\n        /* \"auth.sol\":4649:4661  persons[UID] */\n      0x00\n        /* \"auth.sol\":4657:4660  UID */\n      dup9\n        /* \"auth.sol\":4649:4661  persons[UID] */\n      dup2\n      mstore\n      0x20\n      add\n      swap1\n      dup2\n      mstore\n      0x20\n      add\n      0x00\n      keccak256\n        /* \"auth.sol\":4649:4670  persons[UID].fullName */\n      0x00\n      add\n        /* \"auth.sol\":4649:4681  persons[UID].fullName = fullName */\n      swap1\n      dup2\n      tag_85\n      swap2\n      swap1\n      tag_86\n      jump\t// in\n    tag_85:\n      pop\n        /* \"auth.sol\":4723:4734  homeAddress */\n      dup4\n        /* \"auth.sol\":4696:4703  persons */\n      0x01\n        /* \"auth.sol\":4696:4708  persons[UID] */\n      0x00\n        /* \"auth.sol\":4704:4707  UID */\n      dup9\n        /* \"auth.sol\":4696:4708  persons[UID] */\n      dup2\n      mstore\n      0x20\n      add\n      swap1\n      dup2\n      mstore\n      0x20\n      add\n      0x00\n      keccak256\n        /* \"auth.sol\":4696:4720  persons[UID].homeAddress */\n      0x02\n      add\n        /* \"auth.sol\":4696:4734  persons[UID].homeAddress = homeAddress */\n      swap1\n      dup2\n      tag_87\n      swap2\n      swap1\n      tag_86\n      jump\t// in\n    tag_87:\n      pop\n        /* \"auth.sol\":4770:4775  phone */\n      dup3\n        /* \"auth.sol\":4749:4756  persons */\n      0x01\n        /* \"auth.sol\":4749:4761  persons[UID] */\n      0x00\n        /* \"auth.sol\":4757:4760  UID */\n      dup9\n        /* \"auth.sol\":4749:4761  persons[UID] */\n      dup2\n      mstore\n      0x20\n      add\n      swap1\n      dup2\n      mstore\n      0x20\n      add\n      0x00\n      keccak256\n        /* \"auth.sol\":4749:4767  persons[UID].phone */\n      0x04\n      add\n        /* \"auth.sol\":4749:4775  persons[UID].phone = phone */\n      swap1\n      dup2\n      tag_88\n      swap2\n      swap1\n      tag_86\n      jump\t// in\n    tag_88:\n      pop\n        /* \"auth.sol\":4818:4830  blockAccount */\n      dup2\n        /* \"auth.sol\":4790:4797  persons */\n      0x01\n        /* \"auth.sol\":4790:4802  persons[UID] */\n      0x00\n        /* \"auth.sol\":4798:4801  UID */\n      dup9\n        /* \"auth.sol\":4790:4802  persons[UID] */\n      dup2\n      mstore\n      0x20\n      add\n      swap1\n      dup2\n      mstore\n      0x20\n      add\n      0x00\n      keccak256\n        /* \"auth.sol\":4790:4815  persons[UID].blockAccount */\n      0x05\n      add\n      0x01\n        /* \"auth.sol\":4790:4830  persons[UID].blockAccount = blockAccount */\n      0x0100\n      exp\n      dup2\n      sload\n      dup2\n      0xffffffffffffffffffffffffffffffffffffffff\n      mul\n      not\n      and\n      swap1\n      dup4\n      0xffffffffffffffffffffffffffffffffffffffff\n      and\n      mul\n      or\n      swap1\n      sstore\n      pop\n        /* \"auth.sol\":4494:4842  if ((persons[UID].blockAccount != msg.sender) && (compare(pass, string(abi.encodePacked(keccak256(abi.encodePacked(pass)))))))    ... */\n    tag_84:\n        /* \"auth.sol\":4319:4851  function editUser(bytes32 UID, string memory fullName, string memory homeAddress, string memory phone, address blockAccount, string memory pass) public payable... */\n      pop\n      pop\n      pop\n      pop\n      pop\n      pop\n      jump\t// out\n        /* \"auth.sol\":845:2565  function createAccount(string memory fullName, string memory SSN, string memory homeAddress, string memory pass, uint8 accountType, string memory phone, address addr) public payable... */\n    tag_27:\n        /* \"auth.sol\":1041:1050  isOwner() */\n      tag_90\n        /* \"auth.sol\":1041:1048  isOwner */\n      tag_91\n        /* \"auth.sol\":1041:1050  isOwner() */\n      jump\t// in\n    tag_90:\n        /* \"auth.sol\":1085:1086  5 */\n      0x05\n        /* \"auth.sol\":1070:1081  accountType */\n      dup4\n        /* \"auth.sol\":1070:1086  accountType <= 5 */\n      0xff\n      and\n      gt\n      iszero\n        /* \"auth.sol\":1062:1111  require(accountType <= 5, \"Invalid company type\") */\n      tag_92\n      jumpi\n      mload(0x40)\n      0x08c379a000000000000000000000000000000000000000000000000000000000\n      dup2\n      mstore\n      0x04\n      add\n      tag_93\n      swap1\n      tag_94\n      jump\t// in\n    tag_93:\n      mload(0x40)\n      dup1\n      swap2\n      sub\n      swap1\n      revert\n    tag_92:\n        /* \"auth.sol\":1150:1152  13 */\n      0x0d\n        /* \"auth.sol\":1135:1138  SSN */\n      dup7\n        /* \"auth.sol\":1129:1146  bytes(SSN).length */\n      mload\n        /* \"auth.sol\":1129:1152  bytes(SSN).length == 13 */\n      eq\n        /* \"auth.sol\":1121:1168  require(bytes(SSN).length == 13, \"Invalid SSN\") */\n      tag_95\n      jumpi\n      mload(0x40)\n      0x08c379a000000000000000000000000000000000000000000000000000000000\n      dup2\n      mstore\n      0x04\n      add\n      tag_96\n      swap1\n      tag_97\n      jump\t// in\n    tag_96:\n      mload(0x40)\n      dup1\n      swap2\n      sub\n      swap1\n      revert\n    tag_95:\n        /* \"auth.sol\":1211:1212  6 */\n      0x06\n        /* \"auth.sol\":1192:1200  fullName */\n      dup8\n        /* \"auth.sol\":1186:1208  bytes(fullName).length */\n      mload\n        /* \"auth.sol\":1186:1212  bytes(fullName).length > 6 */\n      gt\n        /* \"auth.sol\":1178:1229  require(bytes(fullName).length > 6, \"Invalid name\") */\n      tag_98\n      jumpi\n      mload(0x40)\n      0x08c379a000000000000000000000000000000000000000000000000000000000\n      dup2\n      mstore\n      0x04\n      add\n      tag_99\n      swap1\n      tag_100\n      jump\t// in\n    tag_99:\n      mload(0x40)\n      dup1\n      swap2\n      sub\n      swap1\n      revert\n    tag_98:\n        /* \"auth.sol\":1275:1277  10 */\n      0x0a\n        /* \"auth.sol\":1253:1264  homeAddress */\n      dup6\n        /* \"auth.sol\":1247:1272  bytes(homeAddress).length */\n      mload\n        /* \"auth.sol\":1247:1277  bytes(homeAddress).length > 10 */\n      gt\n        /* \"auth.sol\":1239:1297  require(bytes(homeAddress).length > 10, \"Invalid address\") */\n      tag_101\n      jumpi\n      mload(0x40)\n      0x08c379a000000000000000000000000000000000000000000000000000000000\n      dup2\n      mstore\n      0x04\n      add\n      tag_102\n      swap1\n      tag_103\n      jump\t// in\n    tag_102:\n      mload(0x40)\n      dup1\n      swap2\n      sub\n      swap1\n      revert\n    tag_101:\n        /* \"auth.sol\":1336:1337  8 */\n      0x08\n        /* \"auth.sol\":1321:1325  pass */\n      dup5\n        /* \"auth.sol\":1315:1333  bytes(pass).length */\n      mload\n        /* \"auth.sol\":1315:1337  bytes(pass).length > 8 */\n      gt\n        /* \"auth.sol\":1307:1360  require(bytes(pass).length > 8, \"Password too short\") */\n      tag_104\n      jumpi\n      mload(0x40)\n      0x08c379a000000000000000000000000000000000000000000000000000000000\n      dup2\n      mstore\n      0x04\n      add\n      tag_105\n      swap1\n      tag_106\n      jump\t// in\n    tag_105:\n      mload(0x40)\n      dup1\n      swap2\n      sub\n      swap1\n      revert\n    tag_104:\n        /* \"auth.sol\":1400:1401  6 */\n      0x06\n        /* \"auth.sol\":1384:1389  phone */\n      dup3\n        /* \"auth.sol\":1378:1397  bytes(phone).length */\n      mload\n        /* \"auth.sol\":1378:1401  bytes(phone).length > 6 */\n      gt\n        /* \"auth.sol\":1370:1428  require(bytes(phone).length > 6, \"Phone number too short\") */\n      tag_107\n      jumpi\n      mload(0x40)\n      0x08c379a000000000000000000000000000000000000000000000000000000000\n      dup2\n      mstore\n      0x04\n      add\n      tag_108\n      swap1\n      tag_109\n      jump\t// in\n    tag_108:\n      mload(0x40)\n      dup1\n      swap2\n      sub\n      swap1\n      revert\n    tag_107:\n        /* \"auth.sol\":1438:1449  bytes32 UID */\n      0x00\n        /* \"auth.sol\":1493:1501  fullName */\n      dup8\n        /* \"auth.sol\":1502:1505  SSN */\n      dup8\n        /* \"auth.sol\":1506:1535  Strings.toString(accountType) */\n      tag_110\n        /* \"auth.sol\":1523:1534  accountType */\n      dup7\n        /* \"auth.sol\":1506:1535  Strings.toString(accountType) */\n      0xff\n      and\n        /* \"auth.sol\":1506:1522  Strings.toString */\n      tag_111\n        /* \"auth.sol\":1506:1535  Strings.toString(accountType) */\n      jump\t// in\n    tag_110:\n        /* \"auth.sol\":1536:1547  homeAddress */\n      dup9\n        /* \"auth.sol\":1548:1552  pass */\n      dup9\n        /* \"auth.sol\":1553:1558  phone */\n      dup8\n        /* \"auth.sol\":1479:1559  string.concat(fullName,SSN,Strings.toString(accountType),homeAddress,pass,phone) */\n      add(0x20, mload(0x40))\n      tag_112\n      swap7\n      swap6\n      swap5\n      swap4\n      swap3\n      swap2\n      swap1\n      tag_113\n      jump\t// in\n    tag_112:\n      mload(0x40)\n      0x20\n      dup2\n      dup4\n      sub\n      sub\n      dup2\n      mstore\n      swap1\n      0x40\n      mstore\n        /* \"auth.sol\":1462:1560  abi.encodePacked(string.concat(fullName,SSN,Strings.toString(accountType),homeAddress,pass,phone)) */\n      add(0x20, mload(0x40))\n      tag_114\n      swap2\n      swap1\n      tag_76\n      jump\t// in\n    tag_114:\n      mload(0x40)\n      0x20\n      dup2\n      dup4\n      sub\n      sub\n      dup2\n      mstore\n      swap1\n      0x40\n      mstore\n        /* \"auth.sol\":1452:1561  keccak256(abi.encodePacked(string.concat(fullName,SSN,Strings.toString(accountType),homeAddress,pass,phone))) */\n      dup1\n      mload\n      swap1\n      0x20\n      add\n      keccak256\n        /* \"auth.sol\":1438:1561  bytes32 UID = keccak256(abi.encodePacked(string.concat(fullName,SSN,Strings.toString(accountType),homeAddress,pass,phone))) */\n      swap1\n      pop\n        /* \"auth.sol\":1616:1617  0 */\n      0x00\n        /* \"auth.sol\":1601:1612  accountType */\n      dup5\n        /* \"auth.sol\":1601:1617  accountType == 0 */\n      0xff\n      and\n      sub\n        /* \"auth.sol\":1597:2559  if (accountType == 0)... */\n      tag_115\n      jumpi\n        /* \"auth.sol\":1656:2181  person({... */\n      mload(0x40)\n      dup1\n      0x0100\n      add\n      0x40\n      mstore\n      dup1\n        /* \"auth.sol\":1699:1705  cypher */\n      linkerSymbol(\"0394c467ed0fdd19c4eccf25096e0ad40f7a8f3a2ecaa74fa8ac0ce31535a80b\")\n        /* \"auth.sol\":1699:1713  cypher.encrypt */\n      0x015cfec7\n        /* \"auth.sol\":1720:1728  fullName */\n      dup12\n        /* \"auth.sol\":1737:1741  pass */\n      dup10\n        /* \"auth.sol\":1699:1743  cypher.encrypt(bytes(fullName), bytes(pass)) */\n      mload(0x40)\n      dup4\n      0xffffffff\n      and\n      0xe0\n      shl\n      dup2\n      mstore\n      0x04\n      add\n      tag_116\n      swap3\n      swap2\n      swap1\n      tag_117\n      jump\t// in\n    tag_116:\n      0x00\n      mload(0x40)\n      dup1\n      dup4\n      sub\n      dup2\n      dup7\n      gas\n      delegatecall\n      iszero\n      dup1\n      iszero\n      tag_119\n      jumpi\n      returndatasize\n      0x00\n      dup1\n      returndatacopy\n      revert(0x00, returndatasize)\n    tag_119:\n      pop\n      pop\n      pop\n      pop\n      mload(0x40)\n      returndatasize\n      0x00\n      dup3\n      returndatacopy\n      returndatasize\n      not(0x1f)\n      0x1f\n      dup3\n      add\n      and\n      dup3\n      add\n      dup1\n      0x40\n      mstore\n      pop\n      dup2\n      add\n      swap1\n      tag_120\n      swap2\n      swap1\n      tag_39\n      jump\t// in\n    tag_120:\n        /* \"auth.sol\":1656:2181  person({... */\n      dup2\n      mstore\n      0x20\n      add\n        /* \"auth.sol\":1775:1781  cypher */\n      linkerSymbol(\"0394c467ed0fdd19c4eccf25096e0ad40f7a8f3a2ecaa74fa8ac0ce31535a80b\")\n        /* \"auth.sol\":1775:1789  cypher.encrypt */\n      0x015cfec7\n        /* \"auth.sol\":1796:1799  SSN */\n      dup11\n        /* \"auth.sol\":1808:1812  pass */\n      dup10\n        /* \"auth.sol\":1775:1814  cypher.encrypt(bytes(SSN), bytes(pass)) */\n      mload(0x40)\n      dup4\n      0xffffffff\n      and\n      0xe0\n      shl\n      dup2\n      mstore\n      0x04\n      add\n      tag_121\n      swap3\n      swap2\n      swap1\n      tag_117\n      jump\t// in\n    tag_121:\n      0x00\n      mload(0x40)\n      dup1\n      dup4\n      sub\n      dup2\n      dup7\n      gas\n      delegatecall\n      iszero\n      dup1\n      iszero\n      tag_123\n      jumpi\n      returndatasize\n      0x00\n      dup1\n      returndatacopy\n      revert(0x00, returndatasize)\n    tag_123:\n      pop\n      pop\n      pop\n      pop\n      mload(0x40)\n      returndatasize\n      0x00\n      dup3\n      returndatacopy\n      returndatasize\n      not(0x1f)\n      0x1f\n      dup3\n      add\n      and\n      dup3\n      add\n      dup1\n      0x40\n      mstore\n      pop\n      dup2\n      add\n      swap1\n      tag_124\n      swap2\n      swap1\n      tag_39\n      jump\t// in\n    tag_124:\n        /* \"auth.sol\":1656:2181  person({... */\n      dup2\n      mstore\n      0x20\n      add\n        /* \"auth.sol\":1854:1860  cypher */\n      linkerSymbol(\"0394c467ed0fdd19c4eccf25096e0ad40f7a8f3a2ecaa74fa8ac0ce31535a80b\")\n        /* \"auth.sol\":1854:1868  cypher.encrypt */\n      0x015cfec7\n        /* \"auth.sol\":1875:1886  homeAddress */\n      dup10\n        /* \"auth.sol\":1895:1899  pass */\n      dup10\n        /* \"auth.sol\":1854:1901  cypher.encrypt(bytes(homeAddress), bytes(pass)) */\n      mload(0x40)\n      dup4\n      0xffffffff\n      and\n      0xe0\n      shl\n      dup2\n      mstore\n      0x04\n      add\n      tag_125\n      swap3\n      swap2\n      swap1\n      tag_117\n      jump\t// in\n    tag_125:\n      0x00\n      mload(0x40)\n      dup1\n      dup4\n      sub\n      dup2\n      dup7\n      gas\n      delegatecall\n      iszero\n      dup1\n      iszero\n      tag_127\n      jumpi\n      returndatasize\n      0x00\n      dup1\n      returndatacopy\n      revert(0x00, returndatasize)\n    tag_127:\n      pop\n      pop\n      pop\n      pop\n      mload(0x40)\n      returndatasize\n      0x00\n      dup3\n      returndatacopy\n      returndatasize\n      not(0x1f)\n      0x1f\n      dup3\n      add\n      and\n      dup3\n      add\n      dup1\n      0x40\n      mstore\n      pop\n      dup2\n      add\n      swap1\n      tag_128\n      swap2\n      swap1\n      tag_39\n      jump\t// in\n    tag_128:\n        /* \"auth.sol\":1656:2181  person({... */\n      dup2\n      mstore\n      0x20\n      add\n        /* \"auth.sol\":1978:1982  pass */\n      dup7\n        /* \"auth.sol\":1961:1983  abi.encodePacked(pass) */\n      add(0x20, mload(0x40))\n      tag_129\n      swap2\n      swap1\n      tag_76\n      jump\t// in\n    tag_129:\n      mload(0x40)\n      0x20\n      dup2\n      dup4\n      sub\n      sub\n      dup2\n      mstore\n      swap1\n      0x40\n      mstore\n        /* \"auth.sol\":1951:1984  keccak256(abi.encodePacked(pass)) */\n      dup1\n      mload\n      swap1\n      0x20\n      add\n      keccak256\n        /* \"auth.sol\":1934:1985  abi.encodePacked(keccak256(abi.encodePacked(pass))) */\n      add(0x20, mload(0x40))\n      tag_130\n      swap2\n      swap1\n      tag_83\n      jump\t// in\n    tag_130:\n      mload(0x40)\n      0x20\n      dup2\n      dup4\n      sub\n      sub\n      dup2\n      mstore\n      swap1\n      0x40\n      mstore\n        /* \"auth.sol\":1656:2181  person({... */\n      dup2\n      mstore\n      0x20\n      add\n        /* \"auth.sol\":2019:2025  cypher */\n      linkerSymbol(\"0394c467ed0fdd19c4eccf25096e0ad40f7a8f3a2ecaa74fa8ac0ce31535a80b\")\n        /* \"auth.sol\":2019:2033  cypher.encrypt */\n      0x015cfec7\n        /* \"auth.sol\":2040:2045  phone */\n      dup7\n        /* \"auth.sol\":2054:2058  pass */\n      dup10\n        /* \"auth.sol\":2019:2060  cypher.encrypt(bytes(phone), bytes(pass)) */\n      mload(0x40)\n      dup4\n      0xffffffff\n      and\n      0xe0\n      shl\n      dup2\n      mstore\n      0x04\n      add\n      tag_131\n      swap3\n      swap2\n      swap1\n      tag_117\n      jump\t// in\n    tag_131:\n      0x00\n      mload(0x40)\n      dup1\n      dup4\n      sub\n      dup2\n      dup7\n      gas\n      delegatecall\n      iszero\n      dup1\n      iszero\n      tag_133\n      jumpi\n      returndatasize\n      0x00\n      dup1\n      returndatacopy\n      revert(0x00, returndatasize)\n    tag_133:\n      pop\n      pop\n      pop\n      pop\n      mload(0x40)\n      returndatasize\n      0x00\n      dup3\n      returndatacopy\n      returndatasize\n      not(0x1f)\n      0x1f\n      dup3\n      add\n      and\n      dup3\n      add\n      dup1\n      0x40\n      mstore\n      pop\n      dup2\n      add\n      swap1\n      tag_134\n      swap2\n      swap1\n      tag_39\n      jump\t// in\n    tag_134:\n        /* \"auth.sol\":1656:2181  person({... */\n      dup2\n      mstore\n      0x20\n      add\n        /* \"auth.sol\":2092:2103  accountType */\n      dup6\n        /* \"auth.sol\":1656:2181  person({... */\n      0xff\n      and\n      dup2\n      mstore\n      0x20\n      add\n        /* \"auth.sol\":2136:2140  addr */\n      dup4\n        /* \"auth.sol\":1656:2181  person({... */\n      0xffffffffffffffffffffffffffffffffffffffff\n      and\n      dup2\n      mstore\n      0x20\n      add\n        /* \"auth.sol\":2163:2166  UID */\n      dup3\n        /* \"auth.sol\":1656:2181  person({... */\n      dup2\n      mstore\n      pop\n        /* \"auth.sol\":1641:1648  persons */\n      0x01\n        /* \"auth.sol\":1641:1653  persons[UID] */\n      0x00\n        /* \"auth.sol\":1649:1652  UID */\n      dup4\n        /* \"auth.sol\":1641:1653  persons[UID] */\n      dup2\n      mstore\n      0x20\n      add\n      swap1\n      dup2\n      mstore\n      0x20\n      add\n      0x00\n      keccak256\n        /* \"auth.sol\":1641:2181  persons[UID] = person({... */\n      0x00\n      dup3\n      add\n      mload\n      dup2\n      0x00\n      add\n      swap1\n      dup2\n      tag_135\n      swap2\n      swap1\n      tag_86\n      jump\t// in\n    tag_135:\n      pop\n      0x20\n      dup3\n      add\n      mload\n      dup2\n      0x01\n      add\n      swap1\n      dup2\n      tag_136\n      swap2\n      swap1\n      tag_86\n      jump\t// in\n    tag_136:\n      pop\n      0x40\n      dup3\n      add\n      mload\n      dup2\n      0x02\n      add\n      swap1\n      dup2\n      tag_137\n      swap2\n      swap1\n      tag_86\n      jump\t// in\n    tag_137:\n      pop\n      0x60\n      dup3\n      add\n      mload\n      dup2\n      0x03\n      add\n      swap1\n      dup2\n      tag_138\n      swap2\n      swap1\n      tag_86\n      jump\t// in\n    tag_138:\n      pop\n      0x80\n      dup3\n      add\n      mload\n      dup2\n      0x04\n      add\n      swap1\n      dup2\n      tag_139\n      swap2\n      swap1\n      tag_86\n      jump\t// in\n    tag_139:\n      pop\n      0xa0\n      dup3\n      add\n      mload\n      dup2\n      0x05\n      add\n      exp(0x0100, 0x00)\n      dup2\n      sload\n      dup2\n      0xff\n      mul\n      not\n      and\n      swap1\n      dup4\n      0xff\n      and\n      mul\n      or\n      swap1\n      sstore\n      pop\n      0xc0\n      dup3\n      add\n      mload\n      dup2\n      0x05\n      add\n      exp(0x0100, 0x01)\n      dup2\n      sload\n      dup2\n      0xffffffffffffffffffffffffffffffffffffffff\n      mul\n      not\n      and\n      swap1\n      dup4\n      0xffffffffffffffffffffffffffffffffffffffff\n      and\n      mul\n      or\n      swap1\n      sstore\n      pop\n      0xe0\n      dup3\n      add\n      mload\n      dup2\n      0x06\n      add\n      sstore\n      swap1\n      pop\n      pop\n        /* \"auth.sol\":1597:2559  if (accountType == 0)... */\n      jump(tag_140)\n    tag_115:\n        /* \"auth.sol\":2243:2548  person({... */\n      mload(0x40)\n      dup1\n      0x0100\n      add\n      0x40\n      mstore\n      dup1\n        /* \"auth.sol\":2279:2287  fullName */\n      dup10\n        /* \"auth.sol\":2243:2548  person({... */\n      dup2\n      mstore\n      0x20\n      add\n        /* \"auth.sol\":2311:2314  SSN */\n      dup9\n        /* \"auth.sol\":2243:2548  person({... */\n      dup2\n      mstore\n      0x20\n      add\n        /* \"auth.sol\":2346:2357  homeAddress */\n      dup8\n        /* \"auth.sol\":2243:2548  person({... */\n      dup2\n      mstore\n      0x20\n      add\n        /* \"auth.sol\":2382:2386  pass */\n      dup7\n        /* \"auth.sol\":2243:2548  person({... */\n      dup2\n      mstore\n      0x20\n      add\n        /* \"auth.sol\":2412:2417  phone */\n      dup5\n        /* \"auth.sol\":2243:2548  person({... */\n      dup2\n      mstore\n      0x20\n      add\n        /* \"auth.sol\":2448:2459  accountType */\n      dup6\n        /* \"auth.sol\":2243:2548  person({... */\n      0xff\n      and\n      dup2\n      mstore\n      0x20\n      add\n        /* \"auth.sol\":2492:2496  addr */\n      dup4\n        /* \"auth.sol\":2243:2548  person({... */\n      0xffffffffffffffffffffffffffffffffffffffff\n      and\n      dup2\n      mstore\n      0x20\n      add\n        /* \"auth.sol\":2519:2522  UID */\n      dup3\n        /* \"auth.sol\":2243:2548  person({... */\n      dup2\n      mstore\n      pop\n        /* \"auth.sol\":2228:2235  persons */\n      0x01\n        /* \"auth.sol\":2228:2240  persons[UID] */\n      0x00\n        /* \"auth.sol\":2236:2239  UID */\n      dup4\n        /* \"auth.sol\":2228:2240  persons[UID] */\n      dup2\n      mstore\n      0x20\n      add\n      swap1\n      dup2\n      mstore\n      0x20\n      add\n      0x00\n      keccak256\n        /* \"auth.sol\":2228:2548  persons[UID] = person({... */\n      0x00\n      dup3\n      add\n      mload\n      dup2\n      0x00\n      add\n      swap1\n      dup2\n      tag_141\n      swap2\n      swap1\n      tag_86\n      jump\t// in\n    tag_141:\n      pop\n      0x20\n      dup3\n      add\n      mload\n      dup2\n      0x01\n      add\n      swap1\n      dup2\n      tag_142\n      swap2\n      swap1\n      tag_86\n      jump\t// in\n    tag_142:\n      pop\n      0x40\n      dup3\n      add\n      mload\n      dup2\n      0x02\n      add\n      swap1\n      dup2\n      tag_143\n      swap2\n      swap1\n      tag_86\n      jump\t// in\n    tag_143:\n      pop\n      0x60\n      dup3\n      add\n      mload\n      dup2\n      0x03\n      add\n      swap1\n      dup2\n      tag_144\n      swap2\n      swap1\n      tag_86\n      jump\t// in\n    tag_144:\n      pop\n      0x80\n      dup3\n      add\n      mload\n      dup2\n      0x04\n      add\n      swap1\n      dup2\n      tag_145\n      swap2\n      swap1\n      tag_86\n      jump\t// in\n    tag_145:\n      pop\n      0xa0\n      dup3\n      add\n      mload\n      dup2\n      0x05\n      add\n      exp(0x0100, 0x00)\n      dup2\n      sload\n      dup2\n      0xff\n      mul\n      not\n      and\n      swap1\n      dup4\n      0xff\n      and\n      mul\n      or\n      swap1\n      sstore\n      pop\n      0xc0\n      dup3\n      add\n      mload\n      dup2\n      0x05\n      add\n      exp(0x0100, 0x01)\n      dup2\n      sload\n      dup2\n      0xffffffffffffffffffffffffffffffffffffffff\n      mul\n      not\n      and\n      swap1\n      dup4\n      0xffffffffffffffffffffffffffffffffffffffff\n      and\n      mul\n      or\n      swap1\n      sstore\n      pop\n      0xe0\n      dup3\n      add\n      mload\n      dup2\n      0x06\n      add\n      sstore\n      swap1\n      pop\n      pop\n        /* \"auth.sol\":1597:2559  if (accountType == 0)... */\n    tag_140:\n        /* \"auth.sol\":1031:2565  {... */\n      pop\n        /* \"auth.sol\":845:2565  function createAccount(string memory fullName, string memory SSN, string memory homeAddress, string memory pass, uint8 accountType, string memory phone, address addr) public payable... */\n      pop\n      pop\n      pop\n      pop\n      pop\n      pop\n      pop\n      jump\t// out\n        /* \"auth.sol\":742:839  function isOwner() internal view... */\n    tag_91:\n        /* \"auth.sol\":806:816  msg.sender */\n      caller\n        /* \"auth.sol\":797:816  owner == msg.sender */\n      0xffffffffffffffffffffffffffffffffffffffff\n      and\n        /* \"auth.sol\":797:802  owner */\n      0x00\n      dup1\n      sload\n      swap1\n      0x0100\n      exp\n      swap1\n      div\n      0xffffffffffffffffffffffffffffffffffffffff\n      and\n        /* \"auth.sol\":797:816  owner == msg.sender */\n      0xffffffffffffffffffffffffffffffffffffffff\n      and\n      eq\n        /* \"auth.sol\":789:832  require(owner == msg.sender, \"Not allowed\") */\n      tag_147\n      jumpi\n      mload(0x40)\n      0x08c379a000000000000000000000000000000000000000000000000000000000\n      dup2\n      mstore\n      0x04\n      add\n      tag_148\n      swap1\n      tag_149\n      jump\t// in\n    tag_148:\n      mload(0x40)\n      dup1\n      swap2\n      sub\n      swap1\n      revert\n    tag_147:\n        /* \"auth.sol\":742:839  function isOwner() internal view... */\n      jump\t// out\n        /* \"OpenZeppelin.mod/Strings.sol\":447:1143  function toString(uint256 value) internal pure returns (string memory) {... */\n    tag_111:\n        /* \"OpenZeppelin.mod/Strings.sol\":503:516  string memory */\n      0x60\n        /* \"OpenZeppelin.mod/Strings.sol\":552:566  uint256 length */\n      0x00\n        /* \"OpenZeppelin.mod/Strings.sol\":589:590  1 */\n      0x01\n        /* \"OpenZeppelin.mod/Strings.sol\":569:586  Math.log10(value) */\n      tag_151\n        /* \"OpenZeppelin.mod/Strings.sol\":580:585  value */\n      dup5\n        /* \"OpenZeppelin.mod/Strings.sol\":569:579  Math.log10 */\n      tag_152\n        /* \"OpenZeppelin.mod/Strings.sol\":569:586  Math.log10(value) */\n      jump\t// in\n    tag_151:\n        /* \"OpenZeppelin.mod/Strings.sol\":569:590  Math.log10(value) + 1 */\n      add\n        /* \"OpenZeppelin.mod/Strings.sol\":552:590  uint256 length = Math.log10(value) + 1 */\n      swap1\n      pop\n        /* \"OpenZeppelin.mod/Strings.sol\":604:624  string memory buffer */\n      0x00\n        /* \"OpenZeppelin.mod/Strings.sol\":638:644  length */\n      dup2\n        /* \"OpenZeppelin.mod/Strings.sol\":627:645  new string(length) */\n      0xffffffffffffffff\n      dup2\n      gt\n      iszero\n      tag_153\n      jumpi\n      tag_154\n      tag_155\n      jump\t// in\n    tag_154:\n    tag_153:\n      mload(0x40)\n      swap1\n      dup1\n      dup3\n      mstore\n      dup1\n      0x1f\n      add\n      not(0x1f)\n      and\n      0x20\n      add\n      dup3\n      add\n      0x40\n      mstore\n      dup1\n      iszero\n      tag_156\n      jumpi\n      dup2\n      0x20\n      add\n      0x01\n      dup3\n      mul\n      dup1\n      calldatasize\n      dup4\n      calldatacopy\n      dup1\n      dup3\n      add\n      swap2\n      pop\n      pop\n      swap1\n      pop\n    tag_156:\n      pop\n        /* \"OpenZeppelin.mod/Strings.sol\":604:645  string memory buffer = new string(length) */\n      swap1\n      pop\n        /* \"OpenZeppelin.mod/Strings.sol\":659:670  uint256 ptr */\n      0x00\n        /* \"OpenZeppelin.mod/Strings.sol\":785:791  length */\n      dup3\n        /* \"OpenZeppelin.mod/Strings.sol\":781:783  32 */\n      0x20\n        /* \"OpenZeppelin.mod/Strings.sol\":777:792  add(32, length) */\n      add\n        /* \"OpenZeppelin.mod/Strings.sol\":769:775  buffer */\n      dup3\n        /* \"OpenZeppelin.mod/Strings.sol\":765:793  add(buffer, add(32, length)) */\n      add\n        /* \"OpenZeppelin.mod/Strings.sol\":758:793  ptr := add(buffer, add(32, length)) */\n      swap1\n      pop\n        /* \"OpenZeppelin.mod/Strings.sol\":820:1100  while (true) {... */\n    tag_157:\n        /* \"OpenZeppelin.mod/Strings.sol\":827:831  true */\n      0x01\n        /* \"OpenZeppelin.mod/Strings.sol\":820:1100  while (true) {... */\n      iszero\n      tag_158\n      jumpi\n        /* \"OpenZeppelin.mod/Strings.sol\":851:856  ptr-- */\n      dup1\n      dup1\n      0x01\n      swap1\n      sub\n      swap2\n      pop\n      pop\n        /* \"OpenZeppelin.mod/Strings.sol\":990:998  _SYMBOLS */\n      0x3031323334353637383961626364656600000000000000000000000000000000\n        /* \"OpenZeppelin.mod/Strings.sol\":985:987  10 */\n      0x0a\n        /* \"OpenZeppelin.mod/Strings.sol\":978:983  value */\n      dup7\n        /* \"OpenZeppelin.mod/Strings.sol\":974:988  mod(value, 10) */\n      mod\n        /* \"OpenZeppelin.mod/Strings.sol\":969:999  byte(mod(value, 10), _SYMBOLS) */\n      byte\n        /* \"OpenZeppelin.mod/Strings.sol\":964:967  ptr */\n      dup2\n        /* \"OpenZeppelin.mod/Strings.sol\":956:1000  mstore8(ptr, byte(mod(value, 10), _SYMBOLS)) */\n      mstore8\n        /* \"OpenZeppelin.mod/Strings.sol\":1044:1046  10 */\n      0x0a\n        /* \"OpenZeppelin.mod/Strings.sol\":1035:1046  value /= 10 */\n      dup6\n      dup2\n      tag_159\n      jumpi\n      tag_160\n      tag_161\n      jump\t// in\n    tag_160:\n    tag_159:\n      div\n      swap5\n      pop\n        /* \"OpenZeppelin.mod/Strings.sol\":1077:1078  0 */\n      0x00\n        /* \"OpenZeppelin.mod/Strings.sol\":1068:1073  value */\n      dup6\n        /* \"OpenZeppelin.mod/Strings.sol\":1068:1078  value == 0 */\n      sub\n        /* \"OpenZeppelin.mod/Strings.sol\":820:1100  while (true) {... */\n      tag_157\n        /* \"OpenZeppelin.mod/Strings.sol\":1064:1085  if (value == 0) break */\n      jumpi\n        /* \"OpenZeppelin.mod/Strings.sol\":820:1100  while (true) {... */\n    tag_158:\n        /* \"OpenZeppelin.mod/Strings.sol\":1120:1126  buffer */\n      dup2\n        /* \"OpenZeppelin.mod/Strings.sol\":1113:1126  return buffer */\n      swap4\n      pop\n      pop\n      pop\n      pop\n        /* \"OpenZeppelin.mod/Strings.sol\":447:1143  function toString(uint256 value) internal pure returns (string memory) {... */\n      swap2\n      swap1\n      pop\n      jump\t// out\n        /* \"OpenZeppelin.mod/math/Math.sol\":9889:10779  function log10(uint256 value) internal pure returns (uint256) {... */\n    tag_152:\n        /* \"OpenZeppelin.mod/math/Math.sol\":9942:9949  uint256 */\n      0x00\n        /* \"OpenZeppelin.mod/math/Math.sol\":9961:9975  uint256 result */\n      dup1\n        /* \"OpenZeppelin.mod/math/Math.sol\":9978:9979  0 */\n      0x00\n        /* \"OpenZeppelin.mod/math/Math.sol\":9961:9979  uint256 result = 0 */\n      swap1\n      pop\n        /* \"OpenZeppelin.mod/math/Math.sol\":10026:10032  10**64 */\n      0x184f03e93ff9f4daa797ed6e38ed64bf6a1f010000000000000000\n        /* \"OpenZeppelin.mod/math/Math.sol\":10017:10022  value */\n      dup4\n        /* \"OpenZeppelin.mod/math/Math.sol\":10017:10032  value >= 10**64 */\n      lt\n        /* \"OpenZeppelin.mod/math/Math.sol\":10013:10112  if (value >= 10**64) {... */\n      tag_164\n      jumpi\n        /* \"OpenZeppelin.mod/math/Math.sol\":10061:10067  10**64 */\n      0x184f03e93ff9f4daa797ed6e38ed64bf6a1f010000000000000000\n        /* \"OpenZeppelin.mod/math/Math.sol\":10052:10067  value /= 10**64 */\n      dup4\n      dup2\n      tag_165\n      jumpi\n      tag_166\n      tag_161\n      jump\t// in\n    tag_166:\n    tag_165:\n      div\n      swap3\n      pop\n        /* \"OpenZeppelin.mod/math/Math.sol\":10095:10097  64 */\n      0x40\n        /* \"OpenZeppelin.mod/math/Math.sol\":10085:10097  result += 64 */\n      dup2\n      add\n      swap1\n      pop\n        /* \"OpenZeppelin.mod/math/Math.sol\":10013:10112  if (value >= 10**64) {... */\n    tag_164:\n        /* \"OpenZeppelin.mod/math/Math.sol\":10138:10144  10**32 */\n      0x04ee2d6d415b85acef8100000000\n        /* \"OpenZeppelin.mod/math/Math.sol\":10129:10134  value */\n      dup4\n        /* \"OpenZeppelin.mod/math/Math.sol\":10129:10144  value >= 10**32 */\n      lt\n        /* \"OpenZeppelin.mod/math/Math.sol\":10125:10224  if (value >= 10**32) {... */\n      tag_167\n      jumpi\n        /* \"OpenZeppelin.mod/math/Math.sol\":10173:10179  10**32 */\n      0x04ee2d6d415b85acef8100000000\n        /* \"OpenZeppelin.mod/math/Math.sol\":10164:10179  value /= 10**32 */\n      dup4\n      dup2\n      tag_168\n      jumpi\n      tag_169\n      tag_161\n      jump\t// in\n    tag_169:\n    tag_168:\n      div\n      swap3\n      pop\n        /* \"OpenZeppelin.mod/math/Math.sol\":10207:10209  32 */\n      0x20\n        /* \"OpenZeppelin.mod/math/Math.sol\":10197:10209  result += 32 */\n      dup2\n      add\n      swap1\n      pop\n        /* \"OpenZeppelin.mod/math/Math.sol\":10125:10224  if (value >= 10**32) {... */\n    tag_167:\n        /* \"OpenZeppelin.mod/math/Math.sol\":10250:10256  10**16 */\n      0x2386f26fc10000\n        /* \"OpenZeppelin.mod/math/Math.sol\":10241:10246  value */\n      dup4\n        /* \"OpenZeppelin.mod/math/Math.sol\":10241:10256  value >= 10**16 */\n      lt\n        /* \"OpenZeppelin.mod/math/Math.sol\":10237:10336  if (value >= 10**16) {... */\n      tag_170\n      jumpi\n        /* \"OpenZeppelin.mod/math/Math.sol\":10285:10291  10**16 */\n      0x2386f26fc10000\n        /* \"OpenZeppelin.mod/math/Math.sol\":10276:10291  value /= 10**16 */\n      dup4\n      dup2\n      tag_171\n      jumpi\n      tag_172\n      tag_161\n      jump\t// in\n    tag_172:\n    tag_171:\n      div\n      swap3\n      pop\n        /* \"OpenZeppelin.mod/math/Math.sol\":10319:10321  16 */\n      0x10\n        /* \"OpenZeppelin.mod/math/Math.sol\":10309:10321  result += 16 */\n      dup2\n      add\n      swap1\n      pop\n        /* \"OpenZeppelin.mod/math/Math.sol\":10237:10336  if (value >= 10**16) {... */\n    tag_170:\n        /* \"OpenZeppelin.mod/math/Math.sol\":10362:10367  10**8 */\n      0x05f5e100\n        /* \"OpenZeppelin.mod/math/Math.sol\":10353:10358  value */\n      dup4\n        /* \"OpenZeppelin.mod/math/Math.sol\":10353:10367  value >= 10**8 */\n      lt\n        /* \"OpenZeppelin.mod/math/Math.sol\":10349:10445  if (value >= 10**8) {... */\n      tag_173\n      jumpi\n        /* \"OpenZeppelin.mod/math/Math.sol\":10396:10401  10**8 */\n      0x05f5e100\n        /* \"OpenZeppelin.mod/math/Math.sol\":10387:10401  value /= 10**8 */\n      dup4\n      dup2\n      tag_174\n      jumpi\n      tag_175\n      tag_161\n      jump\t// in\n    tag_175:\n    tag_174:\n      div\n      swap3\n      pop\n        /* \"OpenZeppelin.mod/math/Math.sol\":10429:10430  8 */\n      0x08\n        /* \"OpenZeppelin.mod/math/Math.sol\":10419:10430  result += 8 */\n      dup2\n      add\n      swap1\n      pop\n        /* \"OpenZeppelin.mod/math/Math.sol\":10349:10445  if (value >= 10**8) {... */\n    tag_173:\n        /* \"OpenZeppelin.mod/math/Math.sol\":10471:10476  10**4 */\n      0x2710\n        /* \"OpenZeppelin.mod/math/Math.sol\":10462:10467  value */\n      dup4\n        /* \"OpenZeppelin.mod/math/Math.sol\":10462:10476  value >= 10**4 */\n      lt\n        /* \"OpenZeppelin.mod/math/Math.sol\":10458:10554  if (value >= 10**4) {... */\n      tag_176\n      jumpi\n        /* \"OpenZeppelin.mod/math/Math.sol\":10505:10510  10**4 */\n      0x2710\n        /* \"OpenZeppelin.mod/math/Math.sol\":10496:10510  value /= 10**4 */\n      dup4\n      dup2\n      tag_177\n      jumpi\n      tag_178\n      tag_161\n      jump\t// in\n    tag_178:\n    tag_177:\n      div\n      swap3\n      pop\n        /* \"OpenZeppelin.mod/math/Math.sol\":10538:10539  4 */\n      0x04\n        /* \"OpenZeppelin.mod/math/Math.sol\":10528:10539  result += 4 */\n      dup2\n      add\n      swap1\n      pop\n        /* \"OpenZeppelin.mod/math/Math.sol\":10458:10554  if (value >= 10**4) {... */\n    tag_176:\n        /* \"OpenZeppelin.mod/math/Math.sol\":10580:10585  10**2 */\n      0x64\n        /* \"OpenZeppelin.mod/math/Math.sol\":10571:10576  value */\n      dup4\n        /* \"OpenZeppelin.mod/math/Math.sol\":10571:10585  value >= 10**2 */\n      lt\n        /* \"OpenZeppelin.mod/math/Math.sol\":10567:10663  if (value >= 10**2) {... */\n      tag_179\n      jumpi\n        /* \"OpenZeppelin.mod/math/Math.sol\":10614:10619  10**2 */\n      0x64\n        /* \"OpenZeppelin.mod/math/Math.sol\":10605:10619  value /= 10**2 */\n      dup4\n      dup2\n      tag_180\n      jumpi\n      tag_181\n      tag_161\n      jump\t// in\n    tag_181:\n    tag_180:\n      div\n      swap3\n      pop\n        /* \"OpenZeppelin.mod/math/Math.sol\":10647:10648  2 */\n      0x02\n        /* \"OpenZeppelin.mod/math/Math.sol\":10637:10648  result += 2 */\n      dup2\n      add\n      swap1\n      pop\n        /* \"OpenZeppelin.mod/math/Math.sol\":10567:10663  if (value >= 10**2) {... */\n    tag_179:\n        /* \"OpenZeppelin.mod/math/Math.sol\":10689:10694  10**1 */\n      0x0a\n        /* \"OpenZeppelin.mod/math/Math.sol\":10680:10685  value */\n      dup4\n        /* \"OpenZeppelin.mod/math/Math.sol\":10680:10694  value >= 10**1 */\n      lt\n        /* \"OpenZeppelin.mod/math/Math.sol\":10676:10740  if (value >= 10**1) {... */\n      tag_182\n      jumpi\n        /* \"OpenZeppelin.mod/math/Math.sol\":10724:10725  1 */\n      0x01\n        /* \"OpenZeppelin.mod/math/Math.sol\":10714:10725  result += 1 */\n      dup2\n      add\n      swap1\n      pop\n        /* \"OpenZeppelin.mod/math/Math.sol\":10676:10740  if (value >= 10**1) {... */\n    tag_182:\n        /* \"OpenZeppelin.mod/math/Math.sol\":10766:10772  result */\n      dup1\n        /* \"OpenZeppelin.mod/math/Math.sol\":10759:10772  return result */\n      swap2\n      pop\n      pop\n        /* \"OpenZeppelin.mod/math/Math.sol\":9889:10779  function log10(uint256 value) internal pure returns (uint256) {... */\n      swap2\n      swap1\n      pop\n      jump\t// out\n    tag_29:\n      mload(0x40)\n      dup1\n      0x0100\n      add\n      0x40\n      mstore\n      dup1\n      0x60\n      dup2\n      mstore\n      0x20\n      add\n      0x60\n      dup2\n      mstore\n      0x20\n      add\n      0x60\n      dup2\n      mstore\n      0x20\n      add\n      0x60\n      dup2\n      mstore\n      0x20\n      add\n      0x60\n      dup2\n      mstore\n      0x20\n      add\n      and(0xff, 0x00)\n      dup2\n      mstore\n      0x20\n      add\n      and(0xffffffffffffffffffffffffffffffffffffffff, 0x00)\n      dup2\n      mstore\n      0x20\n      add\n      0x00\n      dup1\n      not\n      and\n      dup2\n      mstore\n      pop\n      swap1\n      jump\t// out\n        /* \"#utility.yul\":7:82   */\n    tag_183:\n        /* \"#utility.yul\":40:46   */\n      0x00\n        /* \"#utility.yul\":73:75   */\n      0x40\n        /* \"#utility.yul\":67:76   */\n      mload\n        /* \"#utility.yul\":57:76   */\n      swap1\n      pop\n        /* \"#utility.yul\":7:82   */\n      swap1\n      jump\t// out\n        /* \"#utility.yul\":88:205   */\n    tag_184:\n        /* \"#utility.yul\":197:198   */\n      0x00\n        /* \"#utility.yul\":194:195   */\n      dup1\n        /* \"#utility.yul\":187:199   */\n      revert\n        /* \"#utility.yul\":211:328   */\n    tag_185:\n        /* \"#utility.yul\":320:321   */\n      0x00\n        /* \"#utility.yul\":317:318   */\n      dup1\n        /* \"#utility.yul\":310:322   */\n      revert\n        /* \"#utility.yul\":334:411   */\n    tag_186:\n        /* \"#utility.yul\":371:378   */\n      0x00\n        /* \"#utility.yul\":400:405   */\n      dup2\n        /* \"#utility.yul\":389:405   */\n      swap1\n      pop\n        /* \"#utility.yul\":334:411   */\n      swap2\n      swap1\n      pop\n      jump\t// out\n        /* \"#utility.yul\":417:539   */\n    tag_187:\n        /* \"#utility.yul\":490:514   */\n      tag_265\n        /* \"#utility.yul\":508:513   */\n      dup2\n        /* \"#utility.yul\":490:514   */\n      tag_186\n      jump\t// in\n    tag_265:\n        /* \"#utility.yul\":483:488   */\n      dup2\n        /* \"#utility.yul\":480:515   */\n      eq\n        /* \"#utility.yul\":470:533   */\n      tag_266\n      jumpi\n        /* \"#utility.yul\":529:530   */\n      0x00\n        /* \"#utility.yul\":526:527   */\n      dup1\n        /* \"#utility.yul\":519:531   */\n      revert\n        /* \"#utility.yul\":470:533   */\n    tag_266:\n        /* \"#utility.yul\":417:539   */\n      pop\n      jump\t// out\n        /* \"#utility.yul\":545:684   */\n    tag_188:\n        /* \"#utility.yul\":591:596   */\n      0x00\n        /* \"#utility.yul\":629:635   */\n      dup2\n        /* \"#utility.yul\":616:636   */\n      calldataload\n        /* \"#utility.yul\":607:636   */\n      swap1\n      pop\n        /* \"#utility.yul\":645:678   */\n      tag_268\n        /* \"#utility.yul\":672:677   */\n      dup2\n        /* \"#utility.yul\":645:678   */\n      tag_187\n      jump\t// in\n    tag_268:\n        /* \"#utility.yul\":545:684   */\n      swap3\n      swap2\n      pop\n      pop\n      jump\t// out\n        /* \"#utility.yul\":690:807   */\n    tag_189:\n        /* \"#utility.yul\":799:800   */\n      0x00\n        /* \"#utility.yul\":796:797   */\n      dup1\n        /* \"#utility.yul\":789:801   */\n      revert\n        /* \"#utility.yul\":813:930   */\n    tag_190:\n        /* \"#utility.yul\":922:923   */\n      0x00\n        /* \"#utility.yul\":919:920   */\n      dup1\n        /* \"#utility.yul\":912:924   */\n      revert\n        /* \"#utility.yul\":936:1038   */\n    tag_191:\n        /* \"#utility.yul\":977:983   */\n      0x00\n        /* \"#utility.yul\":1028:1030   */\n      0x1f\n        /* \"#utility.yul\":1024:1031   */\n      not\n        /* \"#utility.yul\":1019:1021   */\n      0x1f\n        /* \"#utility.yul\":1012:1017   */\n      dup4\n        /* \"#utility.yul\":1008:1022   */\n      add\n        /* \"#utility.yul\":1004:1032   */\n      and\n        /* \"#utility.yul\":994:1032   */\n      swap1\n      pop\n        /* \"#utility.yul\":936:1038   */\n      swap2\n      swap1\n      pop\n      jump\t// out\n        /* \"#utility.yul\":1044:1224   */\n    tag_155:\n        /* \"#utility.yul\":1092:1169   */\n      0x4e487b7100000000000000000000000000000000000000000000000000000000\n        /* \"#utility.yul\":1089:1090   */\n      0x00\n        /* \"#utility.yul\":1082:1170   */\n      mstore\n        /* \"#utility.yul\":1189:1193   */\n      0x41\n        /* \"#utility.yul\":1186:1187   */\n      0x04\n        /* \"#utility.yul\":1179:1194   */\n      mstore\n        /* \"#utility.yul\":1213:1217   */\n      0x24\n        /* \"#utility.yul\":1210:1211   */\n      0x00\n        /* \"#utility.yul\":1203:1218   */\n      revert\n        /* \"#utility.yul\":1230:1511   */\n    tag_192:\n        /* \"#utility.yul\":1313:1340   */\n      tag_274\n        /* \"#utility.yul\":1335:1339   */\n      dup3\n        /* \"#utility.yul\":1313:1340   */\n      tag_191\n      jump\t// in\n    tag_274:\n        /* \"#utility.yul\":1305:1311   */\n      dup2\n        /* \"#utility.yul\":1301:1341   */\n      add\n        /* \"#utility.yul\":1443:1449   */\n      dup2\n        /* \"#utility.yul\":1431:1441   */\n      dup2\n        /* \"#utility.yul\":1428:1450   */\n      lt\n        /* \"#utility.yul\":1407:1425   */\n      0xffffffffffffffff\n        /* \"#utility.yul\":1395:1405   */\n      dup3\n        /* \"#utility.yul\":1392:1426   */\n      gt\n        /* \"#utility.yul\":1389:1451   */\n      or\n        /* \"#utility.yul\":1386:1474   */\n      iszero\n      tag_275\n      jumpi\n        /* \"#utility.yul\":1454:1472   */\n      tag_276\n      tag_155\n      jump\t// in\n    tag_276:\n        /* \"#utility.yul\":1386:1474   */\n    tag_275:\n        /* \"#utility.yul\":1494:1504   */\n      dup1\n        /* \"#utility.yul\":1490:1492   */\n      0x40\n        /* \"#utility.yul\":1483:1505   */\n      mstore\n        /* \"#utility.yul\":1273:1511   */\n      pop\n        /* \"#utility.yul\":1230:1511   */\n      pop\n      pop\n      jump\t// out\n        /* \"#utility.yul\":1517:1646   */\n    tag_193:\n        /* \"#utility.yul\":1551:1557   */\n      0x00\n        /* \"#utility.yul\":1578:1598   */\n      tag_278\n      tag_183\n      jump\t// in\n    tag_278:\n        /* \"#utility.yul\":1568:1598   */\n      swap1\n      pop\n        /* \"#utility.yul\":1607:1640   */\n      tag_279\n        /* \"#utility.yul\":1635:1639   */\n      dup3\n        /* \"#utility.yul\":1627:1633   */\n      dup3\n        /* \"#utility.yul\":1607:1640   */\n      tag_192\n      jump\t// in\n    tag_279:\n        /* \"#utility.yul\":1517:1646   */\n      swap2\n      swap1\n      pop\n      jump\t// out\n        /* \"#utility.yul\":1652:1960   */\n    tag_194:\n        /* \"#utility.yul\":1714:1718   */\n      0x00\n        /* \"#utility.yul\":1804:1822   */\n      0xffffffffffffffff\n        /* \"#utility.yul\":1796:1802   */\n      dup3\n        /* \"#utility.yul\":1793:1823   */\n      gt\n        /* \"#utility.yul\":1790:1846   */\n      iszero\n      tag_281\n      jumpi\n        /* \"#utility.yul\":1826:1844   */\n      tag_282\n      tag_155\n      jump\t// in\n    tag_282:\n        /* \"#utility.yul\":1790:1846   */\n    tag_281:\n        /* \"#utility.yul\":1864:1893   */\n      tag_283\n        /* \"#utility.yul\":1886:1892   */\n      dup3\n        /* \"#utility.yul\":1864:1893   */\n      tag_191\n      jump\t// in\n    tag_283:\n        /* \"#utility.yul\":1856:1893   */\n      swap1\n      pop\n        /* \"#utility.yul\":1948:1952   */\n      0x20\n        /* \"#utility.yul\":1942:1946   */\n      dup2\n        /* \"#utility.yul\":1938:1953   */\n      add\n        /* \"#utility.yul\":1930:1953   */\n      swap1\n      pop\n        /* \"#utility.yul\":1652:1960   */\n      swap2\n      swap1\n      pop\n      jump\t// out\n        /* \"#utility.yul\":1966:2112   */\n    tag_195:\n        /* \"#utility.yul\":2063:2069   */\n      dup3\n        /* \"#utility.yul\":2058:2061   */\n      dup2\n        /* \"#utility.yul\":2053:2056   */\n      dup4\n        /* \"#utility.yul\":2040:2070   */\n      calldatacopy\n        /* \"#utility.yul\":2104:2105   */\n      0x00\n        /* \"#utility.yul\":2095:2101   */\n      dup4\n        /* \"#utility.yul\":2090:2093   */\n      dup4\n        /* \"#utility.yul\":2086:2102   */\n      add\n        /* \"#utility.yul\":2079:2106   */\n      mstore\n        /* \"#utility.yul\":1966:2112   */\n      pop\n      pop\n      pop\n      jump\t// out\n        /* \"#utility.yul\":2118:2543   */\n    tag_196:\n        /* \"#utility.yul\":2196:2201   */\n      0x00\n        /* \"#utility.yul\":2221:2287   */\n      tag_286\n        /* \"#utility.yul\":2237:2286   */\n      tag_287\n        /* \"#utility.yul\":2279:2285   */\n      dup5\n        /* \"#utility.yul\":2237:2286   */\n      tag_194\n      jump\t// in\n    tag_287:\n        /* \"#utility.yul\":2221:2287   */\n      tag_193\n      jump\t// in\n    tag_286:\n        /* \"#utility.yul\":2212:2287   */\n      swap1\n      pop\n        /* \"#utility.yul\":2310:2316   */\n      dup3\n        /* \"#utility.yul\":2303:2308   */\n      dup2\n        /* \"#utility.yul\":2296:2317   */\n      mstore\n        /* \"#utility.yul\":2348:2352   */\n      0x20\n        /* \"#utility.yul\":2341:2346   */\n      dup2\n        /* \"#utility.yul\":2337:2353   */\n      add\n        /* \"#utility.yul\":2386:2389   */\n      dup5\n        /* \"#utility.yul\":2377:2383   */\n      dup5\n        /* \"#utility.yul\":2372:2375   */\n      dup5\n        /* \"#utility.yul\":2368:2384   */\n      add\n        /* \"#utility.yul\":2365:2390   */\n      gt\n        /* \"#utility.yul\":2362:2474   */\n      iszero\n      tag_288\n      jumpi\n        /* \"#utility.yul\":2393:2472   */\n      tag_289\n      tag_190\n      jump\t// in\n    tag_289:\n        /* \"#utility.yul\":2362:2474   */\n    tag_288:\n        /* \"#utility.yul\":2483:2537   */\n      tag_290\n        /* \"#utility.yul\":2530:2536   */\n      dup5\n        /* \"#utility.yul\":2525:2528   */\n      dup3\n        /* \"#utility.yul\":2520:2523   */\n      dup6\n        /* \"#utility.yul\":2483:2537   */\n      tag_195\n      jump\t// in\n    tag_290:\n        /* \"#utility.yul\":2202:2543   */\n      pop\n        /* \"#utility.yul\":2118:2543   */\n      swap4\n      swap3\n      pop\n      pop\n      pop\n      jump\t// out\n        /* \"#utility.yul\":2563:2903   */\n    tag_197:\n        /* \"#utility.yul\":2619:2624   */\n      0x00\n        /* \"#utility.yul\":2668:2671   */\n      dup3\n        /* \"#utility.yul\":2661:2665   */\n      0x1f\n        /* \"#utility.yul\":2653:2659   */\n      dup4\n        /* \"#utility.yul\":2649:2666   */\n      add\n        /* \"#utility.yul\":2645:2672   */\n      slt\n        /* \"#utility.yul\":2635:2757   */\n      tag_292\n      jumpi\n        /* \"#utility.yul\":2676:2755   */\n      tag_293\n      tag_189\n      jump\t// in\n    tag_293:\n        /* \"#utility.yul\":2635:2757   */\n    tag_292:\n        /* \"#utility.yul\":2793:2799   */\n      dup2\n        /* \"#utility.yul\":2780:2800   */\n      calldataload\n        /* \"#utility.yul\":2818:2897   */\n      tag_294\n        /* \"#utility.yul\":2893:2896   */\n      dup5\n        /* \"#utility.yul\":2885:2891   */\n      dup3\n        /* \"#utility.yul\":2878:2882   */\n      0x20\n        /* \"#utility.yul\":2870:2876   */\n      dup7\n        /* \"#utility.yul\":2866:2883   */\n      add\n        /* \"#utility.yul\":2818:2897   */\n      tag_196\n      jump\t// in\n    tag_294:\n        /* \"#utility.yul\":2809:2897   */\n      swap2\n      pop\n        /* \"#utility.yul\":2625:2903   */\n      pop\n        /* \"#utility.yul\":2563:2903   */\n      swap3\n      swap2\n      pop\n      pop\n      jump\t// out\n        /* \"#utility.yul\":2909:3563   */\n    tag_9:\n        /* \"#utility.yul\":2987:2993   */\n      0x00\n        /* \"#utility.yul\":2995:3001   */\n      dup1\n        /* \"#utility.yul\":3044:3046   */\n      0x40\n        /* \"#utility.yul\":3032:3041   */\n      dup4\n        /* \"#utility.yul\":3023:3030   */\n      dup6\n        /* \"#utility.yul\":3019:3042   */\n      sub\n        /* \"#utility.yul\":3015:3047   */\n      slt\n        /* \"#utility.yul\":3012:3131   */\n      iszero\n      tag_296\n      jumpi\n        /* \"#utility.yul\":3050:3129   */\n      tag_297\n      tag_184\n      jump\t// in\n    tag_297:\n        /* \"#utility.yul\":3012:3131   */\n    tag_296:\n        /* \"#utility.yul\":3170:3171   */\n      0x00\n        /* \"#utility.yul\":3195:3248   */\n      tag_298\n        /* \"#utility.yul\":3240:3247   */\n      dup6\n        /* \"#utility.yul\":3231:3237   */\n      dup3\n        /* \"#utility.yul\":3220:3229   */\n      dup7\n        /* \"#utility.yul\":3216:3238   */\n      add\n        /* \"#utility.yul\":3195:3248   */\n      tag_188\n      jump\t// in\n    tag_298:\n        /* \"#utility.yul\":3185:3248   */\n      swap3\n      pop\n        /* \"#utility.yul\":3141:3258   */\n      pop\n        /* \"#utility.yul\":3325:3327   */\n      0x20\n        /* \"#utility.yul\":3314:3323   */\n      dup4\n        /* \"#utility.yul\":3310:3328   */\n      add\n        /* \"#utility.yul\":3297:3329   */\n      calldataload\n        /* \"#utility.yul\":3356:3374   */\n      0xffffffffffffffff\n        /* \"#utility.yul\":3348:3354   */\n      dup2\n        /* \"#utility.yul\":3345:3375   */\n      gt\n        /* \"#utility.yul\":3342:3459   */\n      iszero\n      tag_299\n      jumpi\n        /* \"#utility.yul\":3378:3457   */\n      tag_300\n      tag_185\n      jump\t// in\n    tag_300:\n        /* \"#utility.yul\":3342:3459   */\n    tag_299:\n        /* \"#utility.yul\":3483:3546   */\n      tag_301\n        /* \"#utility.yul\":3538:3545   */\n      dup6\n        /* \"#utility.yul\":3529:3535   */\n      dup3\n        /* \"#utility.yul\":3518:3527   */\n      dup7\n        /* \"#utility.yul\":3514:3536   */\n      add\n        /* \"#utility.yul\":3483:3546   */\n      tag_197\n      jump\t// in\n    tag_301:\n        /* \"#utility.yul\":3473:3546   */\n      swap2\n      pop\n        /* \"#utility.yul\":3268:3556   */\n      pop\n        /* \"#utility.yul\":2909:3563   */\n      swap3\n      pop\n      swap3\n      swap1\n      pop\n      jump\t// out\n        /* \"#utility.yul\":3569:3668   */\n    tag_198:\n        /* \"#utility.yul\":3621:3627   */\n      0x00\n        /* \"#utility.yul\":3655:3660   */\n      dup2\n        /* \"#utility.yul\":3649:3661   */\n      mload\n        /* \"#utility.yul\":3639:3661   */\n      swap1\n      pop\n        /* \"#utility.yul\":3569:3668   */\n      swap2\n      swap1\n      pop\n      jump\t// out\n        /* \"#utility.yul\":3674:3833   */\n    tag_199:\n        /* \"#utility.yul\":3748:3759   */\n      0x00\n        /* \"#utility.yul\":3782:3788   */\n      dup3\n        /* \"#utility.yul\":3777:3780   */\n      dup3\n        /* \"#utility.yul\":3770:3789   */\n      mstore\n        /* \"#utility.yul\":3822:3826   */\n      0x20\n        /* \"#utility.yul\":3817:3820   */\n      dup3\n        /* \"#utility.yul\":3813:3827   */\n      add\n        /* \"#utility.yul\":3798:3827   */\n      swap1\n      pop\n        /* \"#utility.yul\":3674:3833   */\n      swap3\n      swap2\n      pop\n      pop\n      jump\t// out\n        /* \"#utility.yul\":3839:4085   */\n    tag_200:\n        /* \"#utility.yul\":3920:3921   */\n      0x00\n        /* \"#utility.yul\":3930:4043   */\n    tag_305:\n        /* \"#utility.yul\":3944:3950   */\n      dup4\n        /* \"#utility.yul\":3941:3942   */\n      dup2\n        /* \"#utility.yul\":3938:3951   */\n      lt\n        /* \"#utility.yul\":3930:4043   */\n      iszero\n      tag_307\n      jumpi\n        /* \"#utility.yul\":4029:4030   */\n      dup1\n        /* \"#utility.yul\":4024:4027   */\n      dup3\n        /* \"#utility.yul\":4020:4031   */\n      add\n        /* \"#utility.yul\":4014:4032   */\n      mload\n        /* \"#utility.yul\":4010:4011   */\n      dup2\n        /* \"#utility.yul\":4005:4008   */\n      dup5\n        /* \"#utility.yul\":4001:4012   */\n      add\n        /* \"#utility.yul\":3994:4033   */\n      mstore\n        /* \"#utility.yul\":3966:3968   */\n      0x20\n        /* \"#utility.yul\":3963:3964   */\n      dup2\n        /* \"#utility.yul\":3959:3969   */\n      add\n        /* \"#utility.yul\":3954:3969   */\n      swap1\n      pop\n        /* \"#utility.yul\":3930:4043   */\n      jump(tag_305)\n    tag_307:\n        /* \"#utility.yul\":4077:4078   */\n      0x00\n        /* \"#utility.yul\":4068:4074   */\n      dup5\n        /* \"#utility.yul\":4063:4066   */\n      dup5\n        /* \"#utility.yul\":4059:4075   */\n      add\n        /* \"#utility.yul\":4052:4079   */\n      mstore\n        /* \"#utility.yul\":3901:4085   */\n      pop\n        /* \"#utility.yul\":3839:4085   */\n      pop\n      pop\n      pop\n      jump\t// out\n        /* \"#utility.yul\":4091:4448   */\n    tag_201:\n        /* \"#utility.yul\":4169:4172   */\n      0x00\n        /* \"#utility.yul\":4197:4236   */\n      tag_309\n        /* \"#utility.yul\":4230:4235   */\n      dup3\n        /* \"#utility.yul\":4197:4236   */\n      tag_198\n      jump\t// in\n    tag_309:\n        /* \"#utility.yul\":4252:4313   */\n      tag_310\n        /* \"#utility.yul\":4306:4312   */\n      dup2\n        /* \"#utility.yul\":4301:4304   */\n      dup6\n        /* \"#utility.yul\":4252:4313   */\n      tag_199\n      jump\t// in\n    tag_310:\n        /* \"#utility.yul\":4245:4313   */\n      swap4\n      pop\n        /* \"#utility.yul\":4322:4387   */\n      tag_311\n        /* \"#utility.yul\":4380:4386   */\n      dup2\n        /* \"#utility.yul\":4375:4378   */\n      dup6\n        /* \"#utility.yul\":4368:4372   */\n      0x20\n        /* \"#utility.yul\":4361:4366   */\n      dup7\n        /* \"#utility.yul\":4357:4373   */\n      add\n        /* \"#utility.yul\":4322:4387   */\n      tag_200\n      jump\t// in\n    tag_311:\n        /* \"#utility.yul\":4412:4441   */\n      tag_312\n        /* \"#utility.yul\":4434:4440   */\n      dup2\n        /* \"#utility.yul\":4412:4441   */\n      tag_191\n      jump\t// in\n    tag_312:\n        /* \"#utility.yul\":4407:4410   */\n      dup5\n        /* \"#utility.yul\":4403:4442   */\n      add\n        /* \"#utility.yul\":4396:4442   */\n      swap2\n      pop\n        /* \"#utility.yul\":4173:4448   */\n      pop\n        /* \"#utility.yul\":4091:4448   */\n      swap3\n      swap2\n      pop\n      pop\n      jump\t// out\n        /* \"#utility.yul\":4454:4540   */\n    tag_202:\n        /* \"#utility.yul\":4489:4496   */\n      0x00\n        /* \"#utility.yul\":4529:4533   */\n      0xff\n        /* \"#utility.yul\":4522:4527   */\n      dup3\n        /* \"#utility.yul\":4518:4534   */\n      and\n        /* \"#utility.yul\":4507:4534   */\n      swap1\n      pop\n        /* \"#utility.yul\":4454:4540   */\n      swap2\n      swap1\n      pop\n      jump\t// out\n        /* \"#utility.yul\":4546:4648   */\n    tag_203:\n        /* \"#utility.yul\":4619:4641   */\n      tag_315\n        /* \"#utility.yul\":4635:4640   */\n      dup2\n        /* \"#utility.yul\":4619:4641   */\n      tag_202\n      jump\t// in\n    tag_315:\n        /* \"#utility.yul\":4614:4617   */\n      dup3\n        /* \"#utility.yul\":4607:4642   */\n      mstore\n        /* \"#utility.yul\":4546:4648   */\n      pop\n      pop\n      jump\t// out\n        /* \"#utility.yul\":4654:4780   */\n    tag_204:\n        /* \"#utility.yul\":4691:4698   */\n      0x00\n        /* \"#utility.yul\":4731:4773   */\n      0xffffffffffffffffffffffffffffffffffffffff\n        /* \"#utility.yul\":4724:4729   */\n      dup3\n        /* \"#utility.yul\":4720:4774   */\n      and\n        /* \"#utility.yul\":4709:4774   */\n      swap1\n      pop\n        /* \"#utility.yul\":4654:4780   */\n      swap2\n      swap1\n      pop\n      jump\t// out\n        /* \"#utility.yul\":4786:4882   */\n    tag_205:\n        /* \"#utility.yul\":4823:4830   */\n      0x00\n        /* \"#utility.yul\":4852:4876   */\n      tag_318\n        /* \"#utility.yul\":4870:4875   */\n      dup3\n        /* \"#utility.yul\":4852:4876   */\n      tag_204\n      jump\t// in\n    tag_318:\n        /* \"#utility.yul\":4841:4876   */\n      swap1\n      pop\n        /* \"#utility.yul\":4786:4882   */\n      swap2\n      swap1\n      pop\n      jump\t// out\n        /* \"#utility.yul\":4888:4996   */\n    tag_206:\n        /* \"#utility.yul\":4965:4989   */\n      tag_320\n        /* \"#utility.yul\":4983:4988   */\n      dup2\n        /* \"#utility.yul\":4965:4989   */\n      tag_205\n      jump\t// in\n    tag_320:\n        /* \"#utility.yul\":4960:4963   */\n      dup3\n        /* \"#utility.yul\":4953:4990   */\n      mstore\n        /* \"#utility.yul\":4888:4996   */\n      pop\n      pop\n      jump\t// out\n        /* \"#utility.yul\":5002:5110   */\n    tag_207:\n        /* \"#utility.yul\":5079:5103   */\n      tag_322\n        /* \"#utility.yul\":5097:5102   */\n      dup2\n        /* \"#utility.yul\":5079:5103   */\n      tag_186\n      jump\t// in\n    tag_322:\n        /* \"#utility.yul\":5074:5077   */\n      dup3\n        /* \"#utility.yul\":5067:5104   */\n      mstore\n        /* \"#utility.yul\":5002:5110   */\n      pop\n      pop\n      jump\t// out\n        /* \"#utility.yul\":5164:7119   */\n    tag_208:\n        /* \"#utility.yul\":5281:5284   */\n      0x00\n        /* \"#utility.yul\":5317:5323   */\n      0x0100\n        /* \"#utility.yul\":5312:5315   */\n      dup4\n        /* \"#utility.yul\":5308:5324   */\n      add\n        /* \"#utility.yul\":5410:5414   */\n      0x00\n        /* \"#utility.yul\":5403:5408   */\n      dup4\n        /* \"#utility.yul\":5399:5415   */\n      add\n        /* \"#utility.yul\":5393:5416   */\n      mload\n        /* \"#utility.yul\":5463:5466   */\n      dup5\n        /* \"#utility.yul\":5457:5461   */\n      dup3\n        /* \"#utility.yul\":5453:5467   */\n      sub\n        /* \"#utility.yul\":5446:5450   */\n      0x00\n        /* \"#utility.yul\":5441:5444   */\n      dup7\n        /* \"#utility.yul\":5437:5451   */\n      add\n        /* \"#utility.yul\":5430:5468   */\n      mstore\n        /* \"#utility.yul\":5489:5562   */\n      tag_324\n        /* \"#utility.yul\":5557:5561   */\n      dup3\n        /* \"#utility.yul\":5543:5555   */\n      dup3\n        /* \"#utility.yul\":5489:5562   */\n      tag_201\n      jump\t// in\n    tag_324:\n        /* \"#utility.yul\":5481:5562   */\n      swap2\n      pop\n        /* \"#utility.yul\":5334:5573   */\n      pop\n        /* \"#utility.yul\":5654:5658   */\n      0x20\n        /* \"#utility.yul\":5647:5652   */\n      dup4\n        /* \"#utility.yul\":5643:5659   */\n      add\n        /* \"#utility.yul\":5637:5660   */\n      mload\n        /* \"#utility.yul\":5707:5710   */\n      dup5\n        /* \"#utility.yul\":5701:5705   */\n      dup3\n        /* \"#utility.yul\":5697:5711   */\n      sub\n        /* \"#utility.yul\":5690:5694   */\n      0x20\n        /* \"#utility.yul\":5685:5688   */\n      dup7\n        /* \"#utility.yul\":5681:5695   */\n      add\n        /* \"#utility.yul\":5674:5712   */\n      mstore\n        /* \"#utility.yul\":5733:5806   */\n      tag_325\n        /* \"#utility.yul\":5801:5805   */\n      dup3\n        /* \"#utility.yul\":5787:5799   */\n      dup3\n        /* \"#utility.yul\":5733:5806   */\n      tag_201\n      jump\t// in\n    tag_325:\n        /* \"#utility.yul\":5725:5806   */\n      swap2\n      pop\n        /* \"#utility.yul\":5583:5817   */\n      pop\n        /* \"#utility.yul\":5906:5910   */\n      0x40\n        /* \"#utility.yul\":5899:5904   */\n      dup4\n        /* \"#utility.yul\":5895:5911   */\n      add\n        /* \"#utility.yul\":5889:5912   */\n      mload\n        /* \"#utility.yul\":5959:5962   */\n      dup5\n        /* \"#utility.yul\":5953:5957   */\n      dup3\n        /* \"#utility.yul\":5949:5963   */\n      sub\n        /* \"#utility.yul\":5942:5946   */\n      0x40\n        /* \"#utility.yul\":5937:5940   */\n      dup7\n        /* \"#utility.yul\":5933:5947   */\n      add\n        /* \"#utility.yul\":5926:5964   */\n      mstore\n        /* \"#utility.yul\":5985:6058   */\n      tag_326\n        /* \"#utility.yul\":6053:6057   */\n      dup3\n        /* \"#utility.yul\":6039:6051   */\n      dup3\n        /* \"#utility.yul\":5985:6058   */\n      tag_201\n      jump\t// in\n    tag_326:\n        /* \"#utility.yul\":5977:6058   */\n      swap2\n      pop\n        /* \"#utility.yul\":5827:6069   */\n      pop\n        /* \"#utility.yul\":6151:6155   */\n      0x60\n        /* \"#utility.yul\":6144:6149   */\n      dup4\n        /* \"#utility.yul\":6140:6156   */\n      add\n        /* \"#utility.yul\":6134:6157   */\n      mload\n        /* \"#utility.yul\":6204:6207   */\n      dup5\n        /* \"#utility.yul\":6198:6202   */\n      dup3\n        /* \"#utility.yul\":6194:6208   */\n      sub\n        /* \"#utility.yul\":6187:6191   */\n      0x60\n        /* \"#utility.yul\":6182:6185   */\n      dup7\n        /* \"#utility.yul\":6178:6192   */\n      add\n        /* \"#utility.yul\":6171:6209   */\n      mstore\n        /* \"#utility.yul\":6230:6303   */\n      tag_327\n        /* \"#utility.yul\":6298:6302   */\n      dup3\n        /* \"#utility.yul\":6284:6296   */\n      dup3\n        /* \"#utility.yul\":6230:6303   */\n      tag_201\n      jump\t// in\n    tag_327:\n        /* \"#utility.yul\":6222:6303   */\n      swap2\n      pop\n        /* \"#utility.yul\":6079:6314   */\n      pop\n        /* \"#utility.yul\":6397:6401   */\n      0x80\n        /* \"#utility.yul\":6390:6395   */\n      dup4\n        /* \"#utility.yul\":6386:6402   */\n      add\n        /* \"#utility.yul\":6380:6403   */\n      mload\n        /* \"#utility.yul\":6450:6453   */\n      dup5\n        /* \"#utility.yul\":6444:6448   */\n      dup3\n        /* \"#utility.yul\":6440:6454   */\n      sub\n        /* \"#utility.yul\":6433:6437   */\n      0x80\n        /* \"#utility.yul\":6428:6431   */\n      dup7\n        /* \"#utility.yul\":6424:6438   */\n      add\n        /* \"#utility.yul\":6417:6455   */\n      mstore\n        /* \"#utility.yul\":6476:6549   */\n      tag_328\n        /* \"#utility.yul\":6544:6548   */\n      dup3\n        /* \"#utility.yul\":6530:6542   */\n      dup3\n        /* \"#utility.yul\":6476:6549   */\n      tag_201\n      jump\t// in\n    tag_328:\n        /* \"#utility.yul\":6468:6549   */\n      swap2\n      pop\n        /* \"#utility.yul\":6324:6560   */\n      pop\n        /* \"#utility.yul\":6649:6653   */\n      0xa0\n        /* \"#utility.yul\":6642:6647   */\n      dup4\n        /* \"#utility.yul\":6638:6654   */\n      add\n        /* \"#utility.yul\":6632:6655   */\n      mload\n        /* \"#utility.yul\":6668:6727   */\n      tag_329\n        /* \"#utility.yul\":6721:6725   */\n      0xa0\n        /* \"#utility.yul\":6716:6719   */\n      dup7\n        /* \"#utility.yul\":6712:6726   */\n      add\n        /* \"#utility.yul\":6698:6710   */\n      dup3\n        /* \"#utility.yul\":6668:6727   */\n      tag_203\n      jump\t// in\n    tag_329:\n        /* \"#utility.yul\":6570:6737   */\n      pop\n        /* \"#utility.yul\":6827:6831   */\n      0xc0\n        /* \"#utility.yul\":6820:6825   */\n      dup4\n        /* \"#utility.yul\":6816:6832   */\n      add\n        /* \"#utility.yul\":6810:6833   */\n      mload\n        /* \"#utility.yul\":6846:6909   */\n      tag_330\n        /* \"#utility.yul\":6903:6907   */\n      0xc0\n        /* \"#utility.yul\":6898:6901   */\n      dup7\n        /* \"#utility.yul\":6894:6908   */\n      add\n        /* \"#utility.yul\":6880:6892   */\n      dup3\n        /* \"#utility.yul\":6846:6909   */\n      tag_206\n      jump\t// in\n    tag_330:\n        /* \"#utility.yul\":6747:6919   */\n      pop\n        /* \"#utility.yul\":7000:7004   */\n      0xe0\n        /* \"#utility.yul\":6993:6998   */\n      dup4\n        /* \"#utility.yul\":6989:7005   */\n      add\n        /* \"#utility.yul\":6983:7006   */\n      mload\n        /* \"#utility.yul\":7019:7082   */\n      tag_331\n        /* \"#utility.yul\":7076:7080   */\n      0xe0\n        /* \"#utility.yul\":7071:7074   */\n      dup7\n        /* \"#utility.yul\":7067:7081   */\n      add\n        /* \"#utility.yul\":7053:7065   */\n      dup3\n        /* \"#utility.yul\":7019:7082   */\n      tag_207\n      jump\t// in\n    tag_331:\n        /* \"#utility.yul\":6929:7092   */\n      pop\n        /* \"#utility.yul\":7109:7113   */\n      dup1\n        /* \"#utility.yul\":7102:7113   */\n      swap2\n      pop\n        /* \"#utility.yul\":5286:7119   */\n      pop\n        /* \"#utility.yul\":5164:7119   */\n      swap3\n      swap2\n      pop\n      pop\n      jump\t// out\n        /* \"#utility.yul\":7125:7494   */\n    tag_12:\n        /* \"#utility.yul\":7266:7270   */\n      0x00\n        /* \"#utility.yul\":7304:7306   */\n      0x20\n        /* \"#utility.yul\":7293:7302   */\n      dup3\n        /* \"#utility.yul\":7289:7307   */\n      add\n        /* \"#utility.yul\":7281:7307   */\n      swap1\n      pop\n        /* \"#utility.yul\":7353:7362   */\n      dup2\n        /* \"#utility.yul\":7347:7351   */\n      dup2\n        /* \"#utility.yul\":7343:7363   */\n      sub\n        /* \"#utility.yul\":7339:7340   */\n      0x00\n        /* \"#utility.yul\":7328:7337   */\n      dup4\n        /* \"#utility.yul\":7324:7341   */\n      add\n        /* \"#utility.yul\":7317:7364   */\n      mstore\n        /* \"#utility.yul\":7381:7487   */\n      tag_333\n        /* \"#utility.yul\":7482:7486   */\n      dup2\n        /* \"#utility.yul\":7473:7479   */\n      dup5\n        /* \"#utility.yul\":7381:7487   */\n      tag_208\n      jump\t// in\n    tag_333:\n        /* \"#utility.yul\":7373:7487   */\n      swap1\n      pop\n        /* \"#utility.yul\":7125:7494   */\n      swap3\n      swap2\n      pop\n      pop\n      jump\t// out\n        /* \"#utility.yul\":7500:8334   */\n    tag_16:\n        /* \"#utility.yul\":7588:7594   */\n      0x00\n        /* \"#utility.yul\":7596:7602   */\n      dup1\n        /* \"#utility.yul\":7645:7647   */\n      0x40\n        /* \"#utility.yul\":7633:7642   */\n      dup4\n        /* \"#utility.yul\":7624:7631   */\n      dup6\n        /* \"#utility.yul\":7620:7643   */\n      sub\n        /* \"#utility.yul\":7616:7648   */\n      slt\n        /* \"#utility.yul\":7613:7732   */\n      iszero\n      tag_335\n      jumpi\n        /* \"#utility.yul\":7651:7730   */\n      tag_336\n      tag_184\n      jump\t// in\n    tag_336:\n        /* \"#utility.yul\":7613:7732   */\n    tag_335:\n        /* \"#utility.yul\":7799:7800   */\n      0x00\n        /* \"#utility.yul\":7788:7797   */\n      dup4\n        /* \"#utility.yul\":7784:7801   */\n      add\n        /* \"#utility.yul\":7771:7802   */\n      calldataload\n        /* \"#utility.yul\":7829:7847   */\n      0xffffffffffffffff\n        /* \"#utility.yul\":7821:7827   */\n      dup2\n        /* \"#utility.yul\":7818:7848   */\n      gt\n        /* \"#utility.yul\":7815:7932   */\n      iszero\n      tag_337\n      jumpi\n        /* \"#utility.yul\":7851:7930   */\n      tag_338\n      tag_185\n      jump\t// in\n    tag_338:\n        /* \"#utility.yul\":7815:7932   */\n    tag_337:\n        /* \"#utility.yul\":7956:8019   */\n      tag_339\n        /* \"#utility.yul\":8011:8018   */\n      dup6\n        /* \"#utility.yul\":8002:8008   */\n      dup3\n        /* \"#utility.yul\":7991:8000   */\n      dup7\n        /* \"#utility.yul\":7987:8009   */\n      add\n        /* \"#utility.yul\":7956:8019   */\n      tag_197\n      jump\t// in\n    tag_339:\n        /* \"#utility.yul\":7946:8019   */\n      swap3\n      pop\n        /* \"#utility.yul\":7742:8029   */\n      pop\n        /* \"#utility.yul\":8096:8098   */\n      0x20\n        /* \"#utility.yul\":8085:8094   */\n      dup4\n        /* \"#utility.yul\":8081:8099   */\n      add\n        /* \"#utility.yul\":8068:8100   */\n      calldataload\n        /* \"#utility.yul\":8127:8145   */\n      0xffffffffffffffff\n        /* \"#utility.yul\":8119:8125   */\n      dup2\n        /* \"#utility.yul\":8116:8146   */\n      gt\n        /* \"#utility.yul\":8113:8230   */\n      iszero\n      tag_340\n      jumpi\n        /* \"#utility.yul\":8149:8228   */\n      tag_341\n      tag_185\n      jump\t// in\n    tag_341:\n        /* \"#utility.yul\":8113:8230   */\n    tag_340:\n        /* \"#utility.yul\":8254:8317   */\n      tag_342\n        /* \"#utility.yul\":8309:8316   */\n      dup6\n        /* \"#utility.yul\":8300:8306   */\n      dup3\n        /* \"#utility.yul\":8289:8298   */\n      dup7\n        /* \"#utility.yul\":8285:8307   */\n      add\n        /* \"#utility.yul\":8254:8317   */\n      tag_197\n      jump\t// in\n    tag_342:\n        /* \"#utility.yul\":8244:8317   */\n      swap2\n      pop\n        /* \"#utility.yul\":8039:8327   */\n      pop\n        /* \"#utility.yul\":7500:8334   */\n      swap3\n      pop\n      swap3\n      swap1\n      pop\n      jump\t// out\n        /* \"#utility.yul\":8340:8430   */\n    tag_209:\n        /* \"#utility.yul\":8374:8381   */\n      0x00\n        /* \"#utility.yul\":8417:8422   */\n      dup2\n        /* \"#utility.yul\":8410:8423   */\n      iszero\n        /* \"#utility.yul\":8403:8424   */\n      iszero\n        /* \"#utility.yul\":8392:8424   */\n      swap1\n      pop\n        /* \"#utility.yul\":8340:8430   */\n      swap2\n      swap1\n      pop\n      jump\t// out\n        /* \"#utility.yul\":8436:8545   */\n    tag_210:\n        /* \"#utility.yul\":8517:8538   */\n      tag_345\n        /* \"#utility.yul\":8532:8537   */\n      dup2\n        /* \"#utility.yul\":8517:8538   */\n      tag_209\n      jump\t// in\n    tag_345:\n        /* \"#utility.yul\":8512:8515   */\n      dup3\n        /* \"#utility.yul\":8505:8539   */\n      mstore\n        /* \"#utility.yul\":8436:8545   */\n      pop\n      pop\n      jump\t// out\n        /* \"#utility.yul\":8551:8761   */\n    tag_19:\n        /* \"#utility.yul\":8638:8642   */\n      0x00\n        /* \"#utility.yul\":8676:8678   */\n      0x20\n        /* \"#utility.yul\":8665:8674   */\n      dup3\n        /* \"#utility.yul\":8661:8679   */\n      add\n        /* \"#utility.yul\":8653:8679   */\n      swap1\n      pop\n        /* \"#utility.yul\":8689:8754   */\n      tag_347\n        /* \"#utility.yul\":8751:8752   */\n      0x00\n        /* \"#utility.yul\":8740:8749   */\n      dup4\n        /* \"#utility.yul\":8736:8753   */\n      add\n        /* \"#utility.yul\":8727:8733   */\n      dup5\n        /* \"#utility.yul\":8689:8754   */\n      tag_210\n      jump\t// in\n    tag_347:\n        /* \"#utility.yul\":8551:8761   */\n      swap3\n      swap2\n      pop\n      pop\n      jump\t// out\n        /* \"#utility.yul\":8767:8889   */\n    tag_211:\n        /* \"#utility.yul\":8840:8864   */\n      tag_349\n        /* \"#utility.yul\":8858:8863   */\n      dup2\n        /* \"#utility.yul\":8840:8864   */\n      tag_205\n      jump\t// in\n    tag_349:\n        /* \"#utility.yul\":8833:8838   */\n      dup2\n        /* \"#utility.yul\":8830:8865   */\n      eq\n        /* \"#utility.yul\":8820:8883   */\n      tag_350\n      jumpi\n        /* \"#utility.yul\":8879:8880   */\n      0x00\n        /* \"#utility.yul\":8876:8877   */\n      dup1\n        /* \"#utility.yul\":8869:8881   */\n      revert\n        /* \"#utility.yul\":8820:8883   */\n    tag_350:\n        /* \"#utility.yul\":8767:8889   */\n      pop\n      jump\t// out\n        /* \"#utility.yul\":8895:9034   */\n    tag_212:\n        /* \"#utility.yul\":8941:8946   */\n      0x00\n        /* \"#utility.yul\":8979:8985   */\n      dup2\n        /* \"#utility.yul\":8966:8986   */\n      calldataload\n        /* \"#utility.yul\":8957:8986   */\n      swap1\n      pop\n        /* \"#utility.yul\":8995:9028   */\n      tag_352\n        /* \"#utility.yul\":9022:9027   */\n      dup2\n        /* \"#utility.yul\":8995:9028   */\n      tag_211\n      jump\t// in\n    tag_352:\n        /* \"#utility.yul\":8895:9034   */\n      swap3\n      swap2\n      pop\n      pop\n      jump\t// out\n        /* \"#utility.yul\":9040:10817   */\n    tag_22:\n        /* \"#utility.yul\":9184:9190   */\n      0x00\n        /* \"#utility.yul\":9192:9198   */\n      dup1\n        /* \"#utility.yul\":9200:9206   */\n      0x00\n        /* \"#utility.yul\":9208:9214   */\n      dup1\n        /* \"#utility.yul\":9216:9222   */\n      0x00\n        /* \"#utility.yul\":9224:9230   */\n      dup1\n        /* \"#utility.yul\":9273:9276   */\n      0xc0\n        /* \"#utility.yul\":9261:9270   */\n      dup8\n        /* \"#utility.yul\":9252:9259   */\n      dup10\n        /* \"#utility.yul\":9248:9271   */\n      sub\n        /* \"#utility.yul\":9244:9277   */\n      slt\n        /* \"#utility.yul\":9241:9361   */\n      iszero\n      tag_354\n      jumpi\n        /* \"#utility.yul\":9280:9359   */\n      tag_355\n      tag_184\n      jump\t// in\n    tag_355:\n        /* \"#utility.yul\":9241:9361   */\n    tag_354:\n        /* \"#utility.yul\":9400:9401   */\n      0x00\n        /* \"#utility.yul\":9425:9478   */\n      tag_356\n        /* \"#utility.yul\":9470:9477   */\n      dup10\n        /* \"#utility.yul\":9461:9467   */\n      dup3\n        /* \"#utility.yul\":9450:9459   */\n      dup11\n        /* \"#utility.yul\":9446:9468   */\n      add\n        /* \"#utility.yul\":9425:9478   */\n      tag_188\n      jump\t// in\n    tag_356:\n        /* \"#utility.yul\":9415:9478   */\n      swap7\n      pop\n        /* \"#utility.yul\":9371:9488   */\n      pop\n        /* \"#utility.yul\":9555:9557   */\n      0x20\n        /* \"#utility.yul\":9544:9553   */\n      dup8\n        /* \"#utility.yul\":9540:9558   */\n      add\n        /* \"#utility.yul\":9527:9559   */\n      calldataload\n        /* \"#utility.yul\":9586:9604   */\n      0xffffffffffffffff\n        /* \"#utility.yul\":9578:9584   */\n      dup2\n        /* \"#utility.yul\":9575:9605   */\n      gt\n        /* \"#utility.yul\":9572:9689   */\n      iszero\n      tag_357\n      jumpi\n        /* \"#utility.yul\":9608:9687   */\n      tag_358\n      tag_185\n      jump\t// in\n    tag_358:\n        /* \"#utility.yul\":9572:9689   */\n    tag_357:\n        /* \"#utility.yul\":9713:9776   */\n      tag_359\n        /* \"#utility.yul\":9768:9775   */\n      dup10\n        /* \"#utility.yul\":9759:9765   */\n      dup3\n        /* \"#utility.yul\":9748:9757   */\n      dup11\n        /* \"#utility.yul\":9744:9766   */\n      add\n        /* \"#utility.yul\":9713:9776   */\n      tag_197\n      jump\t// in\n    tag_359:\n        /* \"#utility.yul\":9703:9776   */\n      swap6\n      pop\n        /* \"#utility.yul\":9498:9786   */\n      pop\n        /* \"#utility.yul\":9853:9855   */\n      0x40\n        /* \"#utility.yul\":9842:9851   */\n      dup8\n        /* \"#utility.yul\":9838:9856   */\n      add\n        /* \"#utility.yul\":9825:9857   */\n      calldataload\n        /* \"#utility.yul\":9884:9902   */\n      0xffffffffffffffff\n        /* \"#utility.yul\":9876:9882   */\n      dup2\n        /* \"#utility.yul\":9873:9903   */\n      gt\n        /* \"#utility.yul\":9870:9987   */\n      iszero\n      tag_360\n      jumpi\n        /* \"#utility.yul\":9906:9985   */\n      tag_361\n      tag_185\n      jump\t// in\n    tag_361:\n        /* \"#utility.yul\":9870:9987   */\n    tag_360:\n        /* \"#utility.yul\":10011:10074   */\n      tag_362\n        /* \"#utility.yul\":10066:10073   */\n      dup10\n        /* \"#utility.yul\":10057:10063   */\n      dup3\n        /* \"#utility.yul\":10046:10055   */\n      dup11\n        /* \"#utility.yul\":10042:10064   */\n      add\n        /* \"#utility.yul\":10011:10074   */\n      tag_197\n      jump\t// in\n    tag_362:\n        /* \"#utility.yul\":10001:10074   */\n      swap5\n      pop\n        /* \"#utility.yul\":9796:10084   */\n      pop\n        /* \"#utility.yul\":10151:10153   */\n      0x60\n        /* \"#utility.yul\":10140:10149   */\n      dup8\n        /* \"#utility.yul\":10136:10154   */\n      add\n        /* \"#utility.yul\":10123:10155   */\n      calldataload\n        /* \"#utility.yul\":10182:10200   */\n      0xffffffffffffffff\n        /* \"#utility.yul\":10174:10180   */\n      dup2\n        /* \"#utility.yul\":10171:10201   */\n      gt\n        /* \"#utility.yul\":10168:10285   */\n      iszero\n      tag_363\n      jumpi\n        /* \"#utility.yul\":10204:10283   */\n      tag_364\n      tag_185\n      jump\t// in\n    tag_364:\n        /* \"#utility.yul\":10168:10285   */\n    tag_363:\n        /* \"#utility.yul\":10309:10372   */\n      tag_365\n        /* \"#utility.yul\":10364:10371   */\n      dup10\n        /* \"#utility.yul\":10355:10361   */\n      dup3\n        /* \"#utility.yul\":10344:10353   */\n      dup11\n        /* \"#utility.yul\":10340:10362   */\n      add\n        /* \"#utility.yul\":10309:10372   */\n      tag_197\n      jump\t// in\n    tag_365:\n        /* \"#utility.yul\":10299:10372   */\n      swap4\n      pop\n        /* \"#utility.yul\":10094:10382   */\n      pop\n        /* \"#utility.yul\":10421:10424   */\n      0x80\n        /* \"#utility.yul\":10448:10501   */\n      tag_366\n        /* \"#utility.yul\":10493:10500   */\n      dup10\n        /* \"#utility.yul\":10484:10490   */\n      dup3\n        /* \"#utility.yul\":10473:10482   */\n      dup11\n        /* \"#utility.yul\":10469:10491   */\n      add\n        /* \"#utility.yul\":10448:10501   */\n      tag_212\n      jump\t// in\n    tag_366:\n        /* \"#utility.yul\":10438:10501   */\n      swap3\n      pop\n        /* \"#utility.yul\":10392:10511   */\n      pop\n        /* \"#utility.yul\":10578:10581   */\n      0xa0\n        /* \"#utility.yul\":10567:10576   */\n      dup8\n        /* \"#utility.yul\":10563:10582   */\n      add\n        /* \"#utility.yul\":10550:10583   */\n      calldataload\n        /* \"#utility.yul\":10610:10628   */\n      0xffffffffffffffff\n        /* \"#utility.yul\":10602:10608   */\n      dup2\n        /* \"#utility.yul\":10599:10629   */\n      gt\n        /* \"#utility.yul\":10596:10713   */\n      iszero\n      tag_367\n      jumpi\n        /* \"#utility.yul\":10632:10711   */\n      tag_368\n      tag_185\n      jump\t// in\n    tag_368:\n        /* \"#utility.yul\":10596:10713   */\n    tag_367:\n        /* \"#utility.yul\":10737:10800   */\n      tag_369\n        /* \"#utility.yul\":10792:10799   */\n      dup10\n        /* \"#utility.yul\":10783:10789   */\n      dup3\n        /* \"#utility.yul\":10772:10781   */\n      dup11\n        /* \"#utility.yul\":10768:10790   */\n      add\n        /* \"#utility.yul\":10737:10800   */\n      tag_197\n      jump\t// in\n    tag_369:\n        /* \"#utility.yul\":10727:10800   */\n      swap2\n      pop\n        /* \"#utility.yul\":10521:10810   */\n      pop\n        /* \"#utility.yul\":9040:10817   */\n      swap3\n      swap6\n      pop\n      swap3\n      swap6\n      pop\n      swap3\n      swap6\n      jump\t// out\n        /* \"#utility.yul\":10823:10941   */\n    tag_213:\n        /* \"#utility.yul\":10894:10916   */\n      tag_371\n        /* \"#utility.yul\":10910:10915   */\n      dup2\n        /* \"#utility.yul\":10894:10916   */\n      tag_202\n      jump\t// in\n    tag_371:\n        /* \"#utility.yul\":10887:10892   */\n      dup2\n        /* \"#utility.yul\":10884:10917   */\n      eq\n        /* \"#utility.yul\":10874:10935   */\n      tag_372\n      jumpi\n        /* \"#utility.yul\":10931:10932   */\n      0x00\n        /* \"#utility.yul\":10928:10929   */\n      dup1\n        /* \"#utility.yul\":10921:10933   */\n      revert\n        /* \"#utility.yul\":10874:10935   */\n    tag_372:\n        /* \"#utility.yul\":10823:10941   */\n      pop\n      jump\t// out\n        /* \"#utility.yul\":10947:11082   */\n    tag_214:\n        /* \"#utility.yul\":10991:10996   */\n      0x00\n        /* \"#utility.yul\":11029:11035   */\n      dup2\n        /* \"#utility.yul\":11016:11036   */\n      calldataload\n        /* \"#utility.yul\":11007:11036   */\n      swap1\n      pop\n        /* \"#utility.yul\":11045:11076   */\n      tag_374\n        /* \"#utility.yul\":11070:11075   */\n      dup2\n        /* \"#utility.yul\":11045:11076   */\n      tag_213\n      jump\t// in\n    tag_374:\n        /* \"#utility.yul\":10947:11082   */\n      swap3\n      swap2\n      pop\n      pop\n      jump\t// out\n        /* \"#utility.yul\":11088:13187   */\n    tag_26:\n        /* \"#utility.yul\":11249:11255   */\n      0x00\n        /* \"#utility.yul\":11257:11263   */\n      dup1\n        /* \"#utility.yul\":11265:11271   */\n      0x00\n        /* \"#utility.yul\":11273:11279   */\n      dup1\n        /* \"#utility.yul\":11281:11287   */\n      0x00\n        /* \"#utility.yul\":11289:11295   */\n      dup1\n        /* \"#utility.yul\":11297:11303   */\n      0x00\n        /* \"#utility.yul\":11346:11349   */\n      0xe0\n        /* \"#utility.yul\":11334:11343   */\n      dup9\n        /* \"#utility.yul\":11325:11332   */\n      dup11\n        /* \"#utility.yul\":11321:11344   */\n      sub\n        /* \"#utility.yul\":11317:11350   */\n      slt\n        /* \"#utility.yul\":11314:11434   */\n      iszero\n      tag_376\n      jumpi\n        /* \"#utility.yul\":11353:11432   */\n      tag_377\n      tag_184\n      jump\t// in\n    tag_377:\n        /* \"#utility.yul\":11314:11434   */\n    tag_376:\n        /* \"#utility.yul\":11501:11502   */\n      0x00\n        /* \"#utility.yul\":11490:11499   */\n      dup9\n        /* \"#utility.yul\":11486:11503   */\n      add\n        /* \"#utility.yul\":11473:11504   */\n      calldataload\n        /* \"#utility.yul\":11531:11549   */\n      0xffffffffffffffff\n        /* \"#utility.yul\":11523:11529   */\n      dup2\n        /* \"#utility.yul\":11520:11550   */\n      gt\n        /* \"#utility.yul\":11517:11634   */\n      iszero\n      tag_378\n      jumpi\n        /* \"#utility.yul\":11553:11632   */\n      tag_379\n      tag_185\n      jump\t// in\n    tag_379:\n        /* \"#utility.yul\":11517:11634   */\n    tag_378:\n        /* \"#utility.yul\":11658:11721   */\n      tag_380\n        /* \"#utility.yul\":11713:11720   */\n      dup11\n        /* \"#utility.yul\":11704:11710   */\n      dup3\n        /* \"#utility.yul\":11693:11702   */\n      dup12\n        /* \"#utility.yul\":11689:11711   */\n      add\n        /* \"#utility.yul\":11658:11721   */\n      tag_197\n      jump\t// in\n    tag_380:\n        /* \"#utility.yul\":11648:11721   */\n      swap8\n      pop\n        /* \"#utility.yul\":11444:11731   */\n      pop\n        /* \"#utility.yul\":11798:11800   */\n      0x20\n        /* \"#utility.yul\":11787:11796   */\n      dup9\n        /* \"#utility.yul\":11783:11801   */\n      add\n        /* \"#utility.yul\":11770:11802   */\n      calldataload\n        /* \"#utility.yul\":11829:11847   */\n      0xffffffffffffffff\n        /* \"#utility.yul\":11821:11827   */\n      dup2\n        /* \"#utility.yul\":11818:11848   */\n      gt\n        /* \"#utility.yul\":11815:11932   */\n      iszero\n      tag_381\n      jumpi\n        /* \"#utility.yul\":11851:11930   */\n      tag_382\n      tag_185\n      jump\t// in\n    tag_382:\n        /* \"#utility.yul\":11815:11932   */\n    tag_381:\n        /* \"#utility.yul\":11956:12019   */\n      tag_383\n        /* \"#utility.yul\":12011:12018   */\n      dup11\n        /* \"#utility.yul\":12002:12008   */\n      dup3\n        /* \"#utility.yul\":11991:12000   */\n      dup12\n        /* \"#utility.yul\":11987:12009   */\n      add\n        /* \"#utility.yul\":11956:12019   */\n      tag_197\n      jump\t// in\n    tag_383:\n        /* \"#utility.yul\":11946:12019   */\n      swap7\n      pop\n        /* \"#utility.yul\":11741:12029   */\n      pop\n        /* \"#utility.yul\":12096:12098   */\n      0x40\n        /* \"#utility.yul\":12085:12094   */\n      dup9\n        /* \"#utility.yul\":12081:12099   */\n      add\n        /* \"#utility.yul\":12068:12100   */\n      calldataload\n        /* \"#utility.yul\":12127:12145   */\n      0xffffffffffffffff\n        /* \"#utility.yul\":12119:12125   */\n      dup2\n        /* \"#utility.yul\":12116:12146   */\n      gt\n        /* \"#utility.yul\":12113:12230   */\n      iszero\n      tag_384\n      jumpi\n        /* \"#utility.yul\":12149:12228   */\n      tag_385\n      tag_185\n      jump\t// in\n    tag_385:\n        /* \"#utility.yul\":12113:12230   */\n    tag_384:\n        /* \"#utility.yul\":12254:12317   */\n      tag_386\n        /* \"#utility.yul\":12309:12316   */\n      dup11\n        /* \"#utility.yul\":12300:12306   */\n      dup3\n        /* \"#utility.yul\":12289:12298   */\n      dup12\n        /* \"#utility.yul\":12285:12307   */\n      add\n        /* \"#utility.yul\":12254:12317   */\n      tag_197\n      jump\t// in\n    tag_386:\n        /* \"#utility.yul\":12244:12317   */\n      swap6\n      pop\n        /* \"#utility.yul\":12039:12327   */\n      pop\n        /* \"#utility.yul\":12394:12396   */\n      0x60\n        /* \"#utility.yul\":12383:12392   */\n      dup9\n        /* \"#utility.yul\":12379:12397   */\n      add\n        /* \"#utility.yul\":12366:12398   */\n      calldataload\n        /* \"#utility.yul\":12425:12443   */\n      0xffffffffffffffff\n        /* \"#utility.yul\":12417:12423   */\n      dup2\n        /* \"#utility.yul\":12414:12444   */\n      gt\n        /* \"#utility.yul\":12411:12528   */\n      iszero\n      tag_387\n      jumpi\n        /* \"#utility.yul\":12447:12526   */\n      tag_388\n      tag_185\n      jump\t// in\n    tag_388:\n        /* \"#utility.yul\":12411:12528   */\n    tag_387:\n        /* \"#utility.yul\":12552:12615   */\n      tag_389\n        /* \"#utility.yul\":12607:12614   */\n      dup11\n        /* \"#utility.yul\":12598:12604   */\n      dup3\n        /* \"#utility.yul\":12587:12596   */\n      dup12\n        /* \"#utility.yul\":12583:12605   */\n      add\n        /* \"#utility.yul\":12552:12615   */\n      tag_197\n      jump\t// in\n    tag_389:\n        /* \"#utility.yul\":12542:12615   */\n      swap5\n      pop\n        /* \"#utility.yul\":12337:12625   */\n      pop\n        /* \"#utility.yul\":12664:12667   */\n      0x80\n        /* \"#utility.yul\":12691:12742   */\n      tag_390\n        /* \"#utility.yul\":12734:12741   */\n      dup11\n        /* \"#utility.yul\":12725:12731   */\n      dup3\n        /* \"#utility.yul\":12714:12723   */\n      dup12\n        /* \"#utility.yul\":12710:12732   */\n      add\n        /* \"#utility.yul\":12691:12742   */\n      tag_214\n      jump\t// in\n    tag_390:\n        /* \"#utility.yul\":12681:12742   */\n      swap4\n      pop\n        /* \"#utility.yul\":12635:12752   */\n      pop\n        /* \"#utility.yul\":12819:12822   */\n      0xa0\n        /* \"#utility.yul\":12808:12817   */\n      dup9\n        /* \"#utility.yul\":12804:12823   */\n      add\n        /* \"#utility.yul\":12791:12824   */\n      calldataload\n        /* \"#utility.yul\":12851:12869   */\n      0xffffffffffffffff\n        /* \"#utility.yul\":12843:12849   */\n      dup2\n        /* \"#utility.yul\":12840:12870   */\n      gt\n        /* \"#utility.yul\":12837:12954   */\n      iszero\n      tag_391\n      jumpi\n        /* \"#utility.yul\":12873:12952   */\n      tag_392\n      tag_185\n      jump\t// in\n    tag_392:\n        /* \"#utility.yul\":12837:12954   */\n    tag_391:\n        /* \"#utility.yul\":12978:13041   */\n      tag_393\n        /* \"#utility.yul\":13033:13040   */\n      dup11\n        /* \"#utility.yul\":13024:13030   */\n      dup3\n        /* \"#utility.yul\":13013:13022   */\n      dup12\n        /* \"#utility.yul\":13009:13031   */\n      add\n        /* \"#utility.yul\":12978:13041   */\n      tag_197\n      jump\t// in\n    tag_393:\n        /* \"#utility.yul\":12968:13041   */\n      swap3\n      pop\n        /* \"#utility.yul\":12762:13051   */\n      pop\n        /* \"#utility.yul\":13090:13093   */\n      0xc0\n        /* \"#utility.yul\":13117:13170   */\n      tag_394\n        /* \"#utility.yul\":13162:13169   */\n      dup11\n        /* \"#utility.yul\":13153:13159   */\n      dup3\n        /* \"#utility.yul\":13142:13151   */\n      dup12\n        /* \"#utility.yul\":13138:13160   */\n      add\n        /* \"#utility.yul\":13117:13170   */\n      tag_212\n      jump\t// in\n    tag_394:\n        /* \"#utility.yul\":13107:13170   */\n      swap2\n      pop\n        /* \"#utility.yul\":13061:13180   */\n      pop\n        /* \"#utility.yul\":11088:13187   */\n      swap3\n      swap6\n      swap9\n      swap2\n      swap5\n      swap8\n      pop\n      swap3\n      swap6\n      pop\n      jump\t// out\n        /* \"#utility.yul\":13193:13373   */\n    tag_215:\n        /* \"#utility.yul\":13241:13318   */\n      0x4e487b7100000000000000000000000000000000000000000000000000000000\n        /* \"#utility.yul\":13238:13239   */\n      0x00\n        /* \"#utility.yul\":13231:13319   */\n      mstore\n        /* \"#utility.yul\":13338:13342   */\n      0x22\n        /* \"#utility.yul\":13335:13336   */\n      0x04\n        /* \"#utility.yul\":13328:13343   */\n      mstore\n        /* \"#utility.yul\":13362:13366   */\n      0x24\n        /* \"#utility.yul\":13359:13360   */\n      0x00\n        /* \"#utility.yul\":13352:13367   */\n      revert\n        /* \"#utility.yul\":13379:13699   */\n    tag_54:\n        /* \"#utility.yul\":13423:13429   */\n      0x00\n        /* \"#utility.yul\":13460:13461   */\n      0x02\n        /* \"#utility.yul\":13454:13458   */\n      dup3\n        /* \"#utility.yul\":13450:13462   */\n      div\n        /* \"#utility.yul\":13440:13462   */\n      swap1\n      pop\n        /* \"#utility.yul\":13507:13508   */\n      0x01\n        /* \"#utility.yul\":13501:13505   */\n      dup3\n        /* \"#utility.yul\":13497:13509   */\n      and\n        /* \"#utility.yul\":13528:13546   */\n      dup1\n        /* \"#utility.yul\":13518:13599   */\n      tag_397\n      jumpi\n        /* \"#utility.yul\":13584:13588   */\n      0x7f\n        /* \"#utility.yul\":13576:13582   */\n      dup3\n        /* \"#utility.yul\":13572:13589   */\n      and\n        /* \"#utility.yul\":13562:13589   */\n      swap2\n      pop\n        /* \"#utility.yul\":13518:13599   */\n    tag_397:\n        /* \"#utility.yul\":13646:13648   */\n      0x20\n        /* \"#utility.yul\":13638:13644   */\n      dup3\n        /* \"#utility.yul\":13635:13649   */\n      lt\n        /* \"#utility.yul\":13615:13633   */\n      dup2\n        /* \"#utility.yul\":13612:13650   */\n      sub\n        /* \"#utility.yul\":13609:13693   */\n      tag_398\n      jumpi\n        /* \"#utility.yul\":13665:13683   */\n      tag_399\n      tag_215\n      jump\t// in\n    tag_399:\n        /* \"#utility.yul\":13609:13693   */\n    tag_398:\n        /* \"#utility.yul\":13430:13699   */\n      pop\n        /* \"#utility.yul\":13379:13699   */\n      swap2\n      swap1\n      pop\n      jump\t// out\n        /* \"#utility.yul\":13705:13881   */\n    tag_216:\n        /* \"#utility.yul\":13796:13807   */\n      0x00\n        /* \"#utility.yul\":13830:13836   */\n      dup3\n        /* \"#utility.yul\":13825:13828   */\n      dup3\n        /* \"#utility.yul\":13818:13837   */\n      mstore\n        /* \"#utility.yul\":13870:13874   */\n      0x20\n        /* \"#utility.yul\":13865:13868   */\n      dup3\n        /* \"#utility.yul\":13861:13875   */\n      add\n        /* \"#utility.yul\":13846:13875   */\n      swap1\n      pop\n        /* \"#utility.yul\":13705:13881   */\n      swap3\n      swap2\n      pop\n      pop\n      jump\t// out\n        /* \"#utility.yul\":13887:14031   */\n    tag_217:\n        /* \"#utility.yul\":13939:13943   */\n      0x00\n        /* \"#utility.yul\":13962:13965   */\n      dup2\n        /* \"#utility.yul\":13954:13965   */\n      swap1\n      pop\n        /* \"#utility.yul\":13985:13988   */\n      dup2\n        /* \"#utility.yul\":13982:13983   */\n      0x00\n        /* \"#utility.yul\":13975:13989   */\n      mstore\n        /* \"#utility.yul\":14019:14023   */\n      0x20\n        /* \"#utility.yul\":14016:14017   */\n      0x00\n        /* \"#utility.yul\":14006:14024   */\n      keccak256\n        /* \"#utility.yul\":13998:14024   */\n      swap1\n      pop\n        /* \"#utility.yul\":13887:14031   */\n      swap2\n      swap1\n      pop\n      jump\t// out\n        /* \"#utility.yul\":14059:14910   */\n    tag_218:\n        /* \"#utility.yul\":14154:14157   */\n      0x00\n        /* \"#utility.yul\":14191:14196   */\n      dup2\n        /* \"#utility.yul\":14185:14197   */\n      sload\n        /* \"#utility.yul\":14220:14256   */\n      tag_403\n        /* \"#utility.yul\":14246:14255   */\n      dup2\n        /* \"#utility.yul\":14220:14256   */\n      tag_54\n      jump\t// in\n    tag_403:\n        /* \"#utility.yul\":14272:14350   */\n      tag_404\n        /* \"#utility.yul\":14343:14349   */\n      dup2\n        /* \"#utility.yul\":14338:14341   */\n      dup7\n        /* \"#utility.yul\":14272:14350   */\n      tag_216\n      jump\t// in\n    tag_404:\n        /* \"#utility.yul\":14265:14350   */\n      swap5\n      pop\n        /* \"#utility.yul\":14381:14382   */\n      0x01\n        /* \"#utility.yul\":14370:14379   */\n      dup3\n        /* \"#utility.yul\":14366:14383   */\n      and\n        /* \"#utility.yul\":14397:14398   */\n      0x00\n        /* \"#utility.yul\":14392:14556   */\n      dup2\n      eq\n      tag_406\n      jumpi\n        /* \"#utility.yul\":14570:14571   */\n      0x01\n        /* \"#utility.yul\":14565:14904   */\n      dup2\n      eq\n      tag_407\n      jumpi\n        /* \"#utility.yul\":14359:14904   */\n      jump(tag_405)\n        /* \"#utility.yul\":14392:14556   */\n    tag_406:\n        /* \"#utility.yul\":14476:14480   */\n      0xff\n        /* \"#utility.yul\":14472:14481   */\n      not\n        /* \"#utility.yul\":14461:14470   */\n      dup4\n        /* \"#utility.yul\":14457:14482   */\n      and\n        /* \"#utility.yul\":14452:14455   */\n      dup7\n        /* \"#utility.yul\":14445:14483   */\n      mstore\n        /* \"#utility.yul\":14536:14542   */\n      dup2\n        /* \"#utility.yul\":14529:14543   */\n      iszero\n        /* \"#utility.yul\":14522:14544   */\n      iszero\n        /* \"#utility.yul\":14516:14520   */\n      0x20\n        /* \"#utility.yul\":14512:14545   */\n      mul\n        /* \"#utility.yul\":14507:14510   */\n      dup7\n        /* \"#utility.yul\":14503:14546   */\n      add\n        /* \"#utility.yul\":14496:14546   */\n      swap4\n      pop\n        /* \"#utility.yul\":14392:14556   */\n      jump(tag_405)\n        /* \"#utility.yul\":14565:14904   */\n    tag_407:\n        /* \"#utility.yul\":14632:14673   */\n      tag_408\n        /* \"#utility.yul\":14667:14672   */\n      dup6\n        /* \"#utility.yul\":14632:14673   */\n      tag_217\n      jump\t// in\n    tag_408:\n        /* \"#utility.yul\":14695:14696   */\n      0x00\n        /* \"#utility.yul\":14709:14863   */\n    tag_409:\n        /* \"#utility.yul\":14723:14729   */\n      dup4\n        /* \"#utility.yul\":14720:14721   */\n      dup2\n        /* \"#utility.yul\":14717:14730   */\n      lt\n        /* \"#utility.yul\":14709:14863   */\n      iszero\n      tag_411\n      jumpi\n        /* \"#utility.yul\":14797:14804   */\n      dup2\n        /* \"#utility.yul\":14791:14805   */\n      sload\n        /* \"#utility.yul\":14787:14788   */\n      dup2\n        /* \"#utility.yul\":14782:14785   */\n      dup10\n        /* \"#utility.yul\":14778:14789   */\n      add\n        /* \"#utility.yul\":14771:14806   */\n      mstore\n        /* \"#utility.yul\":14847:14848   */\n      0x01\n        /* \"#utility.yul\":14838:14845   */\n      dup3\n        /* \"#utility.yul\":14834:14849   */\n      add\n        /* \"#utility.yul\":14823:14849   */\n      swap2\n      pop\n        /* \"#utility.yul\":14745:14749   */\n      0x20\n        /* \"#utility.yul\":14742:14743   */\n      dup2\n        /* \"#utility.yul\":14738:14750   */\n      add\n        /* \"#utility.yul\":14733:14750   */\n      swap1\n      pop\n        /* \"#utility.yul\":14709:14863   */\n      jump(tag_409)\n    tag_411:\n        /* \"#utility.yul\":14892:14893   */\n      dup1\n        /* \"#utility.yul\":14887:14890   */\n      dup9\n        /* \"#utility.yul\":14883:14894   */\n      add\n        /* \"#utility.yul\":14876:14894   */\n      swap6\n      pop\n        /* \"#utility.yul\":14572:14904   */\n      pop\n      pop\n        /* \"#utility.yul\":14359:14904   */\n    tag_405:\n      pop\n        /* \"#utility.yul\":14158:14910   */\n      pop\n      pop\n        /* \"#utility.yul\":14059:14910   */\n      swap3\n      swap2\n      pop\n      pop\n      jump\t// out\n        /* \"#utility.yul\":14916:15014   */\n    tag_219:\n        /* \"#utility.yul\":14967:14973   */\n      0x00\n        /* \"#utility.yul\":15001:15006   */\n      dup2\n        /* \"#utility.yul\":14995:15007   */\n      mload\n        /* \"#utility.yul\":14985:15007   */\n      swap1\n      pop\n        /* \"#utility.yul\":14916:15014   */\n      swap2\n      swap1\n      pop\n      jump\t// out\n        /* \"#utility.yul\":15020:15409   */\n    tag_220:\n        /* \"#utility.yul\":15114:15117   */\n      0x00\n        /* \"#utility.yul\":15142:15180   */\n      tag_414\n        /* \"#utility.yul\":15174:15179   */\n      dup3\n        /* \"#utility.yul\":15142:15180   */\n      tag_219\n      jump\t// in\n    tag_414:\n        /* \"#utility.yul\":15196:15274   */\n      tag_415\n        /* \"#utility.yul\":15267:15273   */\n      dup2\n        /* \"#utility.yul\":15262:15265   */\n      dup6\n        /* \"#utility.yul\":15196:15274   */\n      tag_216\n      jump\t// in\n    tag_415:\n        /* \"#utility.yul\":15189:15274   */\n      swap4\n      pop\n        /* \"#utility.yul\":15283:15348   */\n      tag_416\n        /* \"#utility.yul\":15341:15347   */\n      dup2\n        /* \"#utility.yul\":15336:15339   */\n      dup6\n        /* \"#utility.yul\":15329:15333   */\n      0x20\n        /* \"#utility.yul\":15322:15327   */\n      dup7\n        /* \"#utility.yul\":15318:15334   */\n      add\n        /* \"#utility.yul\":15283:15348   */\n      tag_200\n      jump\t// in\n    tag_416:\n        /* \"#utility.yul\":15373:15402   */\n      tag_417\n        /* \"#utility.yul\":15395:15401   */\n      dup2\n        /* \"#utility.yul\":15373:15402   */\n      tag_191\n      jump\t// in\n    tag_417:\n        /* \"#utility.yul\":15368:15371   */\n      dup5\n        /* \"#utility.yul\":15364:15403   */\n      add\n        /* \"#utility.yul\":15357:15403   */\n      swap2\n      pop\n        /* \"#utility.yul\":15118:15409   */\n      pop\n        /* \"#utility.yul\":15020:15409   */\n      swap3\n      swap2\n      pop\n      pop\n      jump\t// out\n        /* \"#utility.yul\":15415:15947   */\n    tag_35:\n        /* \"#utility.yul\":15581:15585   */\n      0x00\n        /* \"#utility.yul\":15619:15621   */\n      0x40\n        /* \"#utility.yul\":15608:15617   */\n      dup3\n        /* \"#utility.yul\":15604:15622   */\n      add\n        /* \"#utility.yul\":15596:15622   */\n      swap1\n      pop\n        /* \"#utility.yul\":15668:15677   */\n      dup2\n        /* \"#utility.yul\":15662:15666   */\n      dup2\n        /* \"#utility.yul\":15658:15678   */\n      sub\n        /* \"#utility.yul\":15654:15655   */\n      0x00\n        /* \"#utility.yul\":15643:15652   */\n      dup4\n        /* \"#utility.yul\":15639:15656   */\n      add\n        /* \"#utility.yul\":15632:15679   */\n      mstore\n        /* \"#utility.yul\":15696:15781   */\n      tag_419\n        /* \"#utility.yul\":15776:15780   */\n      dup2\n        /* \"#utility.yul\":15767:15773   */\n      dup6\n        /* \"#utility.yul\":15696:15781   */\n      tag_218\n      jump\t// in\n    tag_419:\n        /* \"#utility.yul\":15688:15781   */\n      swap1\n      pop\n        /* \"#utility.yul\":15828:15837   */\n      dup2\n        /* \"#utility.yul\":15822:15826   */\n      dup2\n        /* \"#utility.yul\":15818:15838   */\n      sub\n        /* \"#utility.yul\":15813:15815   */\n      0x20\n        /* \"#utility.yul\":15802:15811   */\n      dup4\n        /* \"#utility.yul\":15798:15816   */\n      add\n        /* \"#utility.yul\":15791:15839   */\n      mstore\n        /* \"#utility.yul\":15856:15940   */\n      tag_420\n        /* \"#utility.yul\":15935:15939   */\n      dup2\n        /* \"#utility.yul\":15926:15932   */\n      dup5\n        /* \"#utility.yul\":15856:15940   */\n      tag_220\n      jump\t// in\n    tag_420:\n        /* \"#utility.yul\":15848:15940   */\n      swap1\n      pop\n        /* \"#utility.yul\":15415:15947   */\n      swap4\n      swap3\n      pop\n      pop\n      pop\n      jump\t// out\n        /* \"#utility.yul\":15953:16260   */\n    tag_221:\n        /* \"#utility.yul\":16014:16018   */\n      0x00\n        /* \"#utility.yul\":16104:16122   */\n      0xffffffffffffffff\n        /* \"#utility.yul\":16096:16102   */\n      dup3\n        /* \"#utility.yul\":16093:16123   */\n      gt\n        /* \"#utility.yul\":16090:16146   */\n      iszero\n      tag_422\n      jumpi\n        /* \"#utility.yul\":16126:16144   */\n      tag_423\n      tag_155\n      jump\t// in\n    tag_423:\n        /* \"#utility.yul\":16090:16146   */\n    tag_422:\n        /* \"#utility.yul\":16164:16193   */\n      tag_424\n        /* \"#utility.yul\":16186:16192   */\n      dup3\n        /* \"#utility.yul\":16164:16193   */\n      tag_191\n      jump\t// in\n    tag_424:\n        /* \"#utility.yul\":16156:16193   */\n      swap1\n      pop\n        /* \"#utility.yul\":16248:16252   */\n      0x20\n        /* \"#utility.yul\":16242:16246   */\n      dup2\n        /* \"#utility.yul\":16238:16253   */\n      add\n        /* \"#utility.yul\":16230:16253   */\n      swap1\n      pop\n        /* \"#utility.yul\":15953:16260   */\n      swap2\n      swap1\n      pop\n      jump\t// out\n        /* \"#utility.yul\":16266:16698   */\n    tag_222:\n        /* \"#utility.yul\":16354:16359   */\n      0x00\n        /* \"#utility.yul\":16379:16444   */\n      tag_426\n        /* \"#utility.yul\":16395:16443   */\n      tag_427\n        /* \"#utility.yul\":16436:16442   */\n      dup5\n        /* \"#utility.yul\":16395:16443   */\n      tag_221\n      jump\t// in\n    tag_427:\n        /* \"#utility.yul\":16379:16444   */\n      tag_193\n      jump\t// in\n    tag_426:\n        /* \"#utility.yul\":16370:16444   */\n      swap1\n      pop\n        /* \"#utility.yul\":16467:16473   */\n      dup3\n        /* \"#utility.yul\":16460:16465   */\n      dup2\n        /* \"#utility.yul\":16453:16474   */\n      mstore\n        /* \"#utility.yul\":16505:16509   */\n      0x20\n        /* \"#utility.yul\":16498:16503   */\n      dup2\n        /* \"#utility.yul\":16494:16510   */\n      add\n        /* \"#utility.yul\":16543:16546   */\n      dup5\n        /* \"#utility.yul\":16534:16540   */\n      dup5\n        /* \"#utility.yul\":16529:16532   */\n      dup5\n        /* \"#utility.yul\":16525:16541   */\n      add\n        /* \"#utility.yul\":16522:16547   */\n      gt\n        /* \"#utility.yul\":16519:16631   */\n      iszero\n      tag_428\n      jumpi\n        /* \"#utility.yul\":16550:16629   */\n      tag_429\n      tag_190\n      jump\t// in\n    tag_429:\n        /* \"#utility.yul\":16519:16631   */\n    tag_428:\n        /* \"#utility.yul\":16640:16692   */\n      tag_430\n        /* \"#utility.yul\":16685:16691   */\n      dup5\n        /* \"#utility.yul\":16680:16683   */\n      dup3\n        /* \"#utility.yul\":16675:16678   */\n      dup6\n        /* \"#utility.yul\":16640:16692   */\n      tag_200\n      jump\t// in\n    tag_430:\n        /* \"#utility.yul\":16360:16698   */\n      pop\n        /* \"#utility.yul\":16266:16698   */\n      swap4\n      swap3\n      pop\n      pop\n      pop\n      jump\t// out\n        /* \"#utility.yul\":16717:17070   */\n    tag_223:\n        /* \"#utility.yul\":16783:16788   */\n      0x00\n        /* \"#utility.yul\":16832:16835   */\n      dup3\n        /* \"#utility.yul\":16825:16829   */\n      0x1f\n        /* \"#utility.yul\":16817:16823   */\n      dup4\n        /* \"#utility.yul\":16813:16830   */\n      add\n        /* \"#utility.yul\":16809:16836   */\n      slt\n        /* \"#utility.yul\":16799:16921   */\n      tag_432\n      jumpi\n        /* \"#utility.yul\":16840:16919   */\n      tag_433\n      tag_189\n      jump\t// in\n    tag_433:\n        /* \"#utility.yul\":16799:16921   */\n    tag_432:\n        /* \"#utility.yul\":16950:16956   */\n      dup2\n        /* \"#utility.yul\":16944:16957   */\n      mload\n        /* \"#utility.yul\":16975:17064   */\n      tag_434\n        /* \"#utility.yul\":17060:17063   */\n      dup5\n        /* \"#utility.yul\":17052:17058   */\n      dup3\n        /* \"#utility.yul\":17045:17049   */\n      0x20\n        /* \"#utility.yul\":17037:17043   */\n      dup7\n        /* \"#utility.yul\":17033:17050   */\n      add\n        /* \"#utility.yul\":16975:17064   */\n      tag_222\n      jump\t// in\n    tag_434:\n        /* \"#utility.yul\":16966:17064   */\n      swap2\n      pop\n        /* \"#utility.yul\":16789:17070   */\n      pop\n        /* \"#utility.yul\":16717:17070   */\n      swap3\n      swap2\n      pop\n      pop\n      jump\t// out\n        /* \"#utility.yul\":17076:17598   */\n    tag_39:\n        /* \"#utility.yul\":17155:17161   */\n      0x00\n        /* \"#utility.yul\":17204:17206   */\n      0x20\n        /* \"#utility.yul\":17192:17201   */\n      dup3\n        /* \"#utility.yul\":17183:17190   */\n      dup5\n        /* \"#utility.yul\":17179:17202   */\n      sub\n        /* \"#utility.yul\":17175:17207   */\n      slt\n        /* \"#utility.yul\":17172:17291   */\n      iszero\n      tag_436\n      jumpi\n        /* \"#utility.yul\":17210:17289   */\n      tag_437\n      tag_184\n      jump\t// in\n    tag_437:\n        /* \"#utility.yul\":17172:17291   */\n    tag_436:\n        /* \"#utility.yul\":17351:17352   */\n      0x00\n        /* \"#utility.yul\":17340:17349   */\n      dup3\n        /* \"#utility.yul\":17336:17353   */\n      add\n        /* \"#utility.yul\":17330:17354   */\n      mload\n        /* \"#utility.yul\":17381:17399   */\n      0xffffffffffffffff\n        /* \"#utility.yul\":17373:17379   */\n      dup2\n        /* \"#utility.yul\":17370:17400   */\n      gt\n        /* \"#utility.yul\":17367:17484   */\n      iszero\n      tag_438\n      jumpi\n        /* \"#utility.yul\":17403:17482   */\n      tag_439\n      tag_185\n      jump\t// in\n    tag_439:\n        /* \"#utility.yul\":17367:17484   */\n    tag_438:\n        /* \"#utility.yul\":17508:17581   */\n      tag_440\n        /* \"#utility.yul\":17573:17580   */\n      dup5\n        /* \"#utility.yul\":17564:17570   */\n      dup3\n        /* \"#utility.yul\":17553:17562   */\n      dup6\n        /* \"#utility.yul\":17549:17571   */\n      add\n        /* \"#utility.yul\":17508:17581   */\n      tag_223\n      jump\t// in\n    tag_440:\n        /* \"#utility.yul\":17498:17581   */\n      swap2\n      pop\n        /* \"#utility.yul\":17301:17591   */\n      pop\n        /* \"#utility.yul\":17076:17598   */\n      swap3\n      swap2\n      pop\n      pop\n      jump\t// out\n        /* \"#utility.yul\":17604:17752   */\n    tag_224:\n        /* \"#utility.yul\":17706:17717   */\n      0x00\n        /* \"#utility.yul\":17743:17746   */\n      dup2\n        /* \"#utility.yul\":17728:17746   */\n      swap1\n      pop\n        /* \"#utility.yul\":17604:17752   */\n      swap3\n      swap2\n      pop\n      pop\n      jump\t// out\n        /* \"#utility.yul\":17758:18148   */\n    tag_225:\n        /* \"#utility.yul\":17864:17867   */\n      0x00\n        /* \"#utility.yul\":17892:17931   */\n      tag_443\n        /* \"#utility.yul\":17925:17930   */\n      dup3\n        /* \"#utility.yul\":17892:17931   */\n      tag_198\n      jump\t// in\n    tag_443:\n        /* \"#utility.yul\":17947:18036   */\n      tag_444\n        /* \"#utility.yul\":18029:18035   */\n      dup2\n        /* \"#utility.yul\":18024:18027   */\n      dup6\n        /* \"#utility.yul\":17947:18036   */\n      tag_224\n      jump\t// in\n    tag_444:\n        /* \"#utility.yul\":17940:18036   */\n      swap4\n      pop\n        /* \"#utility.yul\":18045:18110   */\n      tag_445\n        /* \"#utility.yul\":18103:18109   */\n      dup2\n        /* \"#utility.yul\":18098:18101   */\n      dup6\n        /* \"#utility.yul\":18091:18095   */\n      0x20\n        /* \"#utility.yul\":18084:18089   */\n      dup7\n        /* \"#utility.yul\":18080:18096   */\n      add\n        /* \"#utility.yul\":18045:18110   */\n      tag_200\n      jump\t// in\n    tag_445:\n        /* \"#utility.yul\":18135:18141   */\n      dup1\n        /* \"#utility.yul\":18130:18133   */\n      dup5\n        /* \"#utility.yul\":18126:18142   */\n      add\n        /* \"#utility.yul\":18119:18142   */\n      swap2\n      pop\n        /* \"#utility.yul\":17868:18148   */\n      pop\n        /* \"#utility.yul\":17758:18148   */\n      swap3\n      swap2\n      pop\n      pop\n      jump\t// out\n        /* \"#utility.yul\":18154:18429   */\n    tag_76:\n        /* \"#utility.yul\":18286:18289   */\n      0x00\n        /* \"#utility.yul\":18308:18403   */\n      tag_447\n        /* \"#utility.yul\":18399:18402   */\n      dup3\n        /* \"#utility.yul\":18390:18396   */\n      dup5\n        /* \"#utility.yul\":18308:18403   */\n      tag_225\n      jump\t// in\n    tag_447:\n        /* \"#utility.yul\":18301:18403   */\n      swap2\n      pop\n        /* \"#utility.yul\":18420:18423   */\n      dup2\n        /* \"#utility.yul\":18413:18423   */\n      swap1\n      pop\n        /* \"#utility.yul\":18154:18429   */\n      swap3\n      swap2\n      pop\n      pop\n      jump\t// out\n        /* \"#utility.yul\":18435:18514   */\n    tag_226:\n        /* \"#utility.yul\":18474:18481   */\n      0x00\n        /* \"#utility.yul\":18503:18508   */\n      dup2\n        /* \"#utility.yul\":18492:18508   */\n      swap1\n      pop\n        /* \"#utility.yul\":18435:18514   */\n      swap2\n      swap1\n      pop\n      jump\t// out\n        /* \"#utility.yul\":18520:18677   */\n    tag_227:\n        /* \"#utility.yul\":18625:18670   */\n      tag_450\n        /* \"#utility.yul\":18645:18669   */\n      tag_451\n        /* \"#utility.yul\":18663:18668   */\n      dup3\n        /* \"#utility.yul\":18645:18669   */\n      tag_186\n      jump\t// in\n    tag_451:\n        /* \"#utility.yul\":18625:18670   */\n      tag_226\n      jump\t// in\n    tag_450:\n        /* \"#utility.yul\":18620:18623   */\n      dup3\n        /* \"#utility.yul\":18613:18671   */\n      mstore\n        /* \"#utility.yul\":18520:18677   */\n      pop\n      pop\n      jump\t// out\n        /* \"#utility.yul\":18683:18939   */\n    tag_83:\n        /* \"#utility.yul\":18795:18798   */\n      0x00\n        /* \"#utility.yul\":18810:18885   */\n      tag_453\n        /* \"#utility.yul\":18881:18884   */\n      dup3\n        /* \"#utility.yul\":18872:18878   */\n      dup5\n        /* \"#utility.yul\":18810:18885   */\n      tag_227\n      jump\t// in\n    tag_453:\n        /* \"#utility.yul\":18910:18912   */\n      0x20\n        /* \"#utility.yul\":18905:18908   */\n      dup3\n        /* \"#utility.yul\":18901:18913   */\n      add\n        /* \"#utility.yul\":18894:18913   */\n      swap2\n      pop\n        /* \"#utility.yul\":18930:18933   */\n      dup2\n        /* \"#utility.yul\":18923:18933   */\n      swap1\n      pop\n        /* \"#utility.yul\":18683:18939   */\n      swap3\n      swap2\n      pop\n      pop\n      jump\t// out\n        /* \"#utility.yul\":18945:19086   */\n    tag_228:\n        /* \"#utility.yul\":18994:18998   */\n      0x00\n        /* \"#utility.yul\":19017:19020   */\n      dup2\n        /* \"#utility.yul\":19009:19020   */\n      swap1\n      pop\n        /* \"#utility.yul\":19040:19043   */\n      dup2\n        /* \"#utility.yul\":19037:19038   */\n      0x00\n        /* \"#utility.yul\":19030:19044   */\n      mstore\n        /* \"#utility.yul\":19074:19078   */\n      0x20\n        /* \"#utility.yul\":19071:19072   */\n      0x00\n        /* \"#utility.yul\":19061:19079   */\n      keccak256\n        /* \"#utility.yul\":19053:19079   */\n      swap1\n      pop\n        /* \"#utility.yul\":18945:19086   */\n      swap2\n      swap1\n      pop\n      jump\t// out\n        /* \"#utility.yul\":19092:19185   */\n    tag_229:\n        /* \"#utility.yul\":19129:19135   */\n      0x00\n        /* \"#utility.yul\":19176:19178   */\n      0x20\n        /* \"#utility.yul\":19171:19173   */\n      0x1f\n        /* \"#utility.yul\":19164:19169   */\n      dup4\n        /* \"#utility.yul\":19160:19174   */\n      add\n        /* \"#utility.yul\":19156:19179   */\n      div\n        /* \"#utility.yul\":19146:19179   */\n      swap1\n      pop\n        /* \"#utility.yul\":19092:19185   */\n      swap2\n      swap1\n      pop\n      jump\t// out\n        /* \"#utility.yul\":19191:19298   */\n    tag_230:\n        /* \"#utility.yul\":19235:19243   */\n      0x00\n        /* \"#utility.yul\":19285:19290   */\n      dup3\n        /* \"#utility.yul\":19279:19283   */\n      dup3\n        /* \"#utility.yul\":19275:19291   */\n      shl\n        /* \"#utility.yul\":19254:19291   */\n      swap1\n      pop\n        /* \"#utility.yul\":19191:19298   */\n      swap3\n      swap2\n      pop\n      pop\n      jump\t// out\n        /* \"#utility.yul\":19304:19697   */\n    tag_231:\n        /* \"#utility.yul\":19373:19379   */\n      0x00\n        /* \"#utility.yul\":19423:19424   */\n      0x08\n        /* \"#utility.yul\":19411:19421   */\n      dup4\n        /* \"#utility.yul\":19407:19425   */\n      mul\n        /* \"#utility.yul\":19446:19543   */\n      tag_458\n        /* \"#utility.yul\":19476:19542   */\n      0xffffffffffffffffffffffffffffffffffffffffffffffffffffffffffffffff\n        /* \"#utility.yul\":19465:19474   */\n      dup3\n        /* \"#utility.yul\":19446:19543   */\n      tag_230\n      jump\t// in\n    tag_458:\n        /* \"#utility.yul\":19564:19603   */\n      tag_459\n        /* \"#utility.yul\":19594:19602   */\n      dup7\n        /* \"#utility.yul\":19583:19592   */\n      dup4\n        /* \"#utility.yul\":19564:19603   */\n      tag_230\n      jump\t// in\n    tag_459:\n        /* \"#utility.yul\":19552:19603   */\n      swap6\n      pop\n        /* \"#utility.yul\":19636:19640   */\n      dup1\n        /* \"#utility.yul\":19632:19641   */\n      not\n        /* \"#utility.yul\":19625:19630   */\n      dup5\n        /* \"#utility.yul\":19621:19642   */\n      and\n        /* \"#utility.yul\":19612:19642   */\n      swap4\n      pop\n        /* \"#utility.yul\":19685:19689   */\n      dup1\n        /* \"#utility.yul\":19675:19683   */\n      dup7\n        /* \"#utility.yul\":19671:19690   */\n      and\n        /* \"#utility.yul\":19664:19669   */\n      dup5\n        /* \"#utility.yul\":19661:19691   */\n      or\n        /* \"#utility.yul\":19651:19691   */\n      swap3\n      pop\n        /* \"#utility.yul\":19380:19697   */\n      pop\n      pop\n        /* \"#utility.yul\":19304:19697   */\n      swap4\n      swap3\n      pop\n      pop\n      pop\n      jump\t// out\n        /* \"#utility.yul\":19703:19780   */\n    tag_232:\n        /* \"#utility.yul\":19740:19747   */\n      0x00\n        /* \"#utility.yul\":19769:19774   */\n      dup2\n        /* \"#utility.yul\":19758:19774   */\n      swap1\n      pop\n        /* \"#utility.yul\":19703:19780   */\n      swap2\n      swap1\n      pop\n      jump\t// out\n        /* \"#utility.yul\":19786:19846   */\n    tag_233:\n        /* \"#utility.yul\":19814:19817   */\n      0x00\n        /* \"#utility.yul\":19835:19840   */\n      dup2\n        /* \"#utility.yul\":19828:19840   */\n      swap1\n      pop\n        /* \"#utility.yul\":19786:19846   */\n      swap2\n      swap1\n      pop\n      jump\t// out\n        /* \"#utility.yul\":19852:19994   */\n    tag_234:\n        /* \"#utility.yul\":19902:19911   */\n      0x00\n        /* \"#utility.yul\":19935:19988   */\n      tag_463\n        /* \"#utility.yul\":19953:19987   */\n      tag_464\n        /* \"#utility.yul\":19962:19986   */\n      tag_465\n        /* \"#utility.yul\":19980:19985   */\n      dup5\n        /* \"#utility.yul\":19962:19986   */\n      tag_232\n      jump\t// in\n    tag_465:\n        /* \"#utility.yul\":19953:19987   */\n      tag_233\n      jump\t// in\n    tag_464:\n        /* \"#utility.yul\":19935:19988   */\n      tag_232\n      jump\t// in\n    tag_463:\n        /* \"#utility.yul\":19922:19988   */\n      swap1\n      pop\n        /* \"#utility.yul\":19852:19994   */\n      swap2\n      swap1\n      pop\n      jump\t// out\n        /* \"#utility.yul\":20000:20075   */\n    tag_235:\n        /* \"#utility.yul\":20043:20046   */\n      0x00\n        /* \"#utility.yul\":20064:20069   */\n      dup2\n        /* \"#utility.yul\":20057:20069   */\n      swap1\n      pop\n        /* \"#utility.yul\":20000:20075   */\n      swap2\n      swap1\n      pop\n      jump\t// out\n        /* \"#utility.yul\":20081:20350   */\n    tag_236:\n        /* \"#utility.yul\":20191:20230   */\n      tag_468\n        /* \"#utility.yul\":20222:20229   */\n      dup4\n        /* \"#utility.yul\":20191:20230   */\n      tag_234\n      jump\t// in\n    tag_468:\n        /* \"#utility.yul\":20252:20343   */\n      tag_469\n        /* \"#utility.yul\":20301:20342   */\n      tag_470\n        /* \"#utility.yul\":20325:20341   */\n      dup3\n        /* \"#utility.yul\":20301:20342   */\n      tag_235\n      jump\t// in\n    tag_470:\n        /* \"#utility.yul\":20293:20299   */\n      dup5\n        /* \"#utility.yul\":20286:20290   */\n      dup5\n        /* \"#utility.yul\":20280:20291   */\n      sload\n        /* \"#utility.yul\":20252:20343   */\n      tag_231\n      jump\t// in\n    tag_469:\n        /* \"#utility.yul\":20246:20250   */\n      dup3\n        /* \"#utility.yul\":20239:20344   */\n      sstore\n        /* \"#utility.yul\":20157:20350   */\n      pop\n        /* \"#utility.yul\":20081:20350   */\n      pop\n      pop\n      pop\n      jump\t// out\n        /* \"#utility.yul\":20356:20429   */\n    tag_237:\n        /* \"#utility.yul\":20401:20404   */\n      0x00\n        /* \"#utility.yul\":20356:20429   */\n      swap1\n      jump\t// out\n        /* \"#utility.yul\":20435:20624   */\n    tag_238:\n        /* \"#utility.yul\":20512:20544   */\n      tag_473\n      tag_237\n      jump\t// in\n    tag_473:\n        /* \"#utility.yul\":20553:20618   */\n      tag_474\n        /* \"#utility.yul\":20611:20617   */\n      dup2\n        /* \"#utility.yul\":20603:20609   */\n      dup5\n        /* \"#utility.yul\":20597:20601   */\n      dup5\n        /* \"#utility.yul\":20553:20618   */\n      tag_236\n      jump\t// in\n    tag_474:\n        /* \"#utility.yul\":20488:20624   */\n      pop\n        /* \"#utility.yul\":20435:20624   */\n      pop\n      pop\n      jump\t// out\n        /* \"#utility.yul\":20630:20816   */\n    tag_239:\n        /* \"#utility.yul\":20690:20810   */\n    tag_476:\n        /* \"#utility.yul\":20707:20710   */\n      dup2\n        /* \"#utility.yul\":20700:20705   */\n      dup2\n        /* \"#utility.yul\":20697:20711   */\n      lt\n        /* \"#utility.yul\":20690:20810   */\n      iszero\n      tag_478\n      jumpi\n        /* \"#utility.yul\":20761:20800   */\n      tag_479\n        /* \"#utility.yul\":20798:20799   */\n      0x00\n        /* \"#utility.yul\":20791:20796   */\n      dup3\n        /* \"#utility.yul\":20761:20800   */\n      tag_238\n      jump\t// in\n    tag_479:\n        /* \"#utility.yul\":20734:20735   */\n      0x01\n        /* \"#utility.yul\":20727:20732   */\n      dup2\n        /* \"#utility.yul\":20723:20736   */\n      add\n        /* \"#utility.yul\":20714:20736   */\n      swap1\n      pop\n        /* \"#utility.yul\":20690:20810   */\n      jump(tag_476)\n    tag_478:\n        /* \"#utility.yul\":20630:20816   */\n      pop\n      pop\n      jump\t// out\n        /* \"#utility.yul\":20822:21365   */\n    tag_240:\n        /* \"#utility.yul\":20923:20925   */\n      0x1f\n        /* \"#utility.yul\":20918:20921   */\n      dup3\n        /* \"#utility.yul\":20915:20926   */\n      gt\n        /* \"#utility.yul\":20912:21358   */\n      iszero\n      tag_481\n      jumpi\n        /* \"#utility.yul\":20957:20995   */\n      tag_482\n        /* \"#utility.yul\":20989:20994   */\n      dup2\n        /* \"#utility.yul\":20957:20995   */\n      tag_228\n      jump\t// in\n    tag_482:\n        /* \"#utility.yul\":21041:21070   */\n      tag_483\n        /* \"#utility.yul\":21059:21069   */\n      dup5\n        /* \"#utility.yul\":21041:21070   */\n      tag_229\n      jump\t// in\n    tag_483:\n        /* \"#utility.yul\":21031:21039   */\n      dup2\n        /* \"#utility.yul\":21027:21071   */\n      add\n        /* \"#utility.yul\":21224:21226   */\n      0x20\n        /* \"#utility.yul\":21212:21222   */\n      dup6\n        /* \"#utility.yul\":21209:21227   */\n      lt\n        /* \"#utility.yul\":21206:21255   */\n      iszero\n      tag_484\n      jumpi\n        /* \"#utility.yul\":21245:21253   */\n      dup2\n        /* \"#utility.yul\":21230:21253   */\n      swap1\n      pop\n        /* \"#utility.yul\":21206:21255   */\n    tag_484:\n        /* \"#utility.yul\":21268:21348   */\n      tag_485\n        /* \"#utility.yul\":21324:21346   */\n      tag_486\n        /* \"#utility.yul\":21342:21345   */\n      dup6\n        /* \"#utility.yul\":21324:21346   */\n      tag_229\n      jump\t// in\n    tag_486:\n        /* \"#utility.yul\":21314:21322   */\n      dup4\n        /* \"#utility.yul\":21310:21347   */\n      add\n        /* \"#utility.yul\":21297:21308   */\n      dup3\n        /* \"#utility.yul\":21268:21348   */\n      tag_239\n      jump\t// in\n    tag_485:\n        /* \"#utility.yul\":20927:21358   */\n      pop\n      pop\n        /* \"#utility.yul\":20912:21358   */\n    tag_481:\n        /* \"#utility.yul\":20822:21365   */\n      pop\n      pop\n      pop\n      jump\t// out\n        /* \"#utility.yul\":21371:21488   */\n    tag_241:\n        /* \"#utility.yul\":21425:21433   */\n      0x00\n        /* \"#utility.yul\":21475:21480   */\n      dup3\n        /* \"#utility.yul\":21469:21473   */\n      dup3\n        /* \"#utility.yul\":21465:21481   */\n      shr\n        /* \"#utility.yul\":21444:21481   */\n      swap1\n      pop\n        /* \"#utility.yul\":21371:21488   */\n      swap3\n      swap2\n      pop\n      pop\n      jump\t// out\n        /* \"#utility.yul\":21494:21663   */\n    tag_242:\n        /* \"#utility.yul\":21538:21544   */\n      0x00\n        /* \"#utility.yul\":21571:21622   */\n      tag_489\n        /* \"#utility.yul\":21619:21620   */\n      0x00\n        /* \"#utility.yul\":21615:21621   */\n      not\n        /* \"#utility.yul\":21607:21612   */\n      dup5\n        /* \"#utility.yul\":21604:21605   */\n      0x08\n        /* \"#utility.yul\":21600:21613   */\n      mul\n        /* \"#utility.yul\":21571:21622   */\n      tag_241\n      jump\t// in\n    tag_489:\n        /* \"#utility.yul\":21567:21623   */\n      not\n        /* \"#utility.yul\":21652:21656   */\n      dup1\n        /* \"#utility.yul\":21646:21650   */\n      dup4\n        /* \"#utility.yul\":21642:21657   */\n      and\n        /* \"#utility.yul\":21632:21657   */\n      swap2\n      pop\n        /* \"#utility.yul\":21545:21663   */\n      pop\n        /* \"#utility.yul\":21494:21663   */\n      swap3\n      swap2\n      pop\n      pop\n      jump\t// out\n        /* \"#utility.yul\":21668:21963   */\n    tag_243:\n        /* \"#utility.yul\":21744:21748   */\n      0x00\n        /* \"#utility.yul\":21890:21919   */\n      tag_491\n        /* \"#utility.yul\":21915:21918   */\n      dup4\n        /* \"#utility.yul\":21909:21913   */\n      dup4\n        /* \"#utility.yul\":21890:21919   */\n      tag_242\n      jump\t// in\n    tag_491:\n        /* \"#utility.yul\":21882:21919   */\n      swap2\n      pop\n        /* \"#utility.yul\":21952:21955   */\n      dup3\n        /* \"#utility.yul\":21949:21950   */\n      0x02\n        /* \"#utility.yul\":21945:21956   */\n      mul\n        /* \"#utility.yul\":21939:21943   */\n      dup3\n        /* \"#utility.yul\":21936:21957   */\n      or\n        /* \"#utility.yul\":21928:21957   */\n      swap1\n      pop\n        /* \"#utility.yul\":21668:21963   */\n      swap3\n      swap2\n      pop\n      pop\n      jump\t// out\n        /* \"#utility.yul\":21968:23363   */\n    tag_86:\n        /* \"#utility.yul\":22085:22122   */\n      tag_493\n        /* \"#utility.yul\":22118:22121   */\n      dup3\n        /* \"#utility.yul\":22085:22122   */\n      tag_198\n      jump\t// in\n    tag_493:\n        /* \"#utility.yul\":22187:22205   */\n      0xffffffffffffffff\n        /* \"#utility.yul\":22179:22185   */\n      dup2\n        /* \"#utility.yul\":22176:22206   */\n      gt\n        /* \"#utility.yul\":22173:22229   */\n      iszero\n      tag_494\n      jumpi\n        /* \"#utility.yul\":22209:22227   */\n      tag_495\n      tag_155\n      jump\t// in\n    tag_495:\n        /* \"#utility.yul\":22173:22229   */\n    tag_494:\n        /* \"#utility.yul\":22253:22291   */\n      tag_496\n        /* \"#utility.yul\":22285:22289   */\n      dup3\n        /* \"#utility.yul\":22279:22290   */\n      sload\n        /* \"#utility.yul\":22253:22291   */\n      tag_54\n      jump\t// in\n    tag_496:\n        /* \"#utility.yul\":22338:22405   */\n      tag_497\n        /* \"#utility.yul\":22398:22404   */\n      dup3\n        /* \"#utility.yul\":22390:22396   */\n      dup3\n        /* \"#utility.yul\":22384:22388   */\n      dup6\n        /* \"#utility.yul\":22338:22405   */\n      tag_240\n      jump\t// in\n    tag_497:\n        /* \"#utility.yul\":22432:22433   */\n      0x00\n        /* \"#utility.yul\":22456:22460   */\n      0x20\n        /* \"#utility.yul\":22443:22460   */\n      swap1\n      pop\n        /* \"#utility.yul\":22488:22490   */\n      0x1f\n        /* \"#utility.yul\":22480:22486   */\n      dup4\n        /* \"#utility.yul\":22477:22491   */\n      gt\n        /* \"#utility.yul\":22505:22506   */\n      0x01\n        /* \"#utility.yul\":22500:23118   */\n      dup2\n      eq\n      tag_499\n      jumpi\n        /* \"#utility.yul\":23162:23163   */\n      0x00\n        /* \"#utility.yul\":23179:23185   */\n      dup5\n        /* \"#utility.yul\":23176:23253   */\n      iszero\n      tag_500\n      jumpi\n        /* \"#utility.yul\":23228:23237   */\n      dup3\n        /* \"#utility.yul\":23223:23226   */\n      dup8\n        /* \"#utility.yul\":23219:23238   */\n      add\n        /* \"#utility.yul\":23213:23239   */\n      mload\n        /* \"#utility.yul\":23204:23239   */\n      swap1\n      pop\n        /* \"#utility.yul\":23176:23253   */\n    tag_500:\n        /* \"#utility.yul\":23279:23346   */\n      tag_501\n        /* \"#utility.yul\":23339:23345   */\n      dup6\n        /* \"#utility.yul\":23332:23337   */\n      dup3\n        /* \"#utility.yul\":23279:23346   */\n      tag_243\n      jump\t// in\n    tag_501:\n        /* \"#utility.yul\":23273:23277   */\n      dup7\n        /* \"#utility.yul\":23266:23347   */\n      sstore\n        /* \"#utility.yul\":23135:23357   */\n      pop\n        /* \"#utility.yul\":22470:23357   */\n      jump(tag_498)\n        /* \"#utility.yul\":22500:23118   */\n    tag_499:\n        /* \"#utility.yul\":22552:22556   */\n      0x1f\n        /* \"#utility.yul\":22548:22557   */\n      not\n        /* \"#utility.yul\":22540:22546   */\n      dup5\n        /* \"#utility.yul\":22536:22558   */\n      and\n        /* \"#utility.yul\":22586:22623   */\n      tag_502\n        /* \"#utility.yul\":22618:22622   */\n      dup7\n        /* \"#utility.yul\":22586:22623   */\n      tag_228\n      jump\t// in\n    tag_502:\n        /* \"#utility.yul\":22645:22646   */\n      0x00\n        /* \"#utility.yul\":22659:22867   */\n    tag_503:\n        /* \"#utility.yul\":22673:22680   */\n      dup3\n        /* \"#utility.yul\":22670:22671   */\n      dup2\n        /* \"#utility.yul\":22667:22681   */\n      lt\n        /* \"#utility.yul\":22659:22867   */\n      iszero\n      tag_505\n      jumpi\n        /* \"#utility.yul\":22752:22761   */\n      dup5\n        /* \"#utility.yul\":22747:22750   */\n      dup10\n        /* \"#utility.yul\":22743:22762   */\n      add\n        /* \"#utility.yul\":22737:22763   */\n      mload\n        /* \"#utility.yul\":22729:22735   */\n      dup3\n        /* \"#utility.yul\":22722:22764   */\n      sstore\n        /* \"#utility.yul\":22803:22804   */\n      0x01\n        /* \"#utility.yul\":22795:22801   */\n      dup3\n        /* \"#utility.yul\":22791:22805   */\n      add\n        /* \"#utility.yul\":22781:22805   */\n      swap2\n      pop\n        /* \"#utility.yul\":22850:22852   */\n      0x20\n        /* \"#utility.yul\":22839:22848   */\n      dup6\n        /* \"#utility.yul\":22835:22853   */\n      add\n        /* \"#utility.yul\":22822:22853   */\n      swap5\n      pop\n        /* \"#utility.yul\":22696:22700   */\n      0x20\n        /* \"#utility.yul\":22693:22694   */\n      dup2\n        /* \"#utility.yul\":22689:22701   */\n      add\n        /* \"#utility.yul\":22684:22701   */\n      swap1\n      pop\n        /* \"#utility.yul\":22659:22867   */\n      jump(tag_503)\n    tag_505:\n        /* \"#utility.yul\":22895:22901   */\n      dup7\n        /* \"#utility.yul\":22886:22893   */\n      dup4\n        /* \"#utility.yul\":22883:22902   */\n      lt\n        /* \"#utility.yul\":22880:23059   */\n      iszero\n      tag_506\n      jumpi\n        /* \"#utility.yul\":22953:22962   */\n      dup5\n        /* \"#utility.yul\":22948:22951   */\n      dup10\n        /* \"#utility.yul\":22944:22963   */\n      add\n        /* \"#utility.yul\":22938:22964   */\n      mload\n        /* \"#utility.yul\":22996:23044   */\n      tag_507\n        /* \"#utility.yul\":23038:23042   */\n      0x1f\n        /* \"#utility.yul\":23030:23036   */\n      dup10\n        /* \"#utility.yul\":23026:23043   */\n      and\n        /* \"#utility.yul\":23015:23024   */\n      dup3\n        /* \"#utility.yul\":22996:23044   */\n      tag_242\n      jump\t// in\n    tag_507:\n        /* \"#utility.yul\":22988:22994   */\n      dup4\n        /* \"#utility.yul\":22981:23045   */\n      sstore\n        /* \"#utility.yul\":22903:23059   */\n      pop\n        /* \"#utility.yul\":22880:23059   */\n    tag_506:\n        /* \"#utility.yul\":23105:23106   */\n      0x01\n        /* \"#utility.yul\":23101:23102   */\n      0x02\n        /* \"#utility.yul\":23093:23099   */\n      dup9\n        /* \"#utility.yul\":23089:23103   */\n      mul\n        /* \"#utility.yul\":23085:23107   */\n      add\n        /* \"#utility.yul\":23079:23083   */\n      dup9\n        /* \"#utility.yul\":23072:23108   */\n      sstore\n        /* \"#utility.yul\":22507:23118   */\n      pop\n      pop\n      pop\n        /* \"#utility.yul\":22470:23357   */\n    tag_498:\n      pop\n        /* \"#utility.yul\":22060:23363   */\n      pop\n      pop\n      pop\n        /* \"#utility.yul\":21968:23363   */\n      pop\n      pop\n      jump\t// out\n        /* \"#utility.yul\":23369:23538   */\n    tag_244:\n        /* \"#utility.yul\":23453:23464   */\n      0x00\n        /* \"#utility.yul\":23487:23493   */\n      dup3\n        /* \"#utility.yul\":23482:23485   */\n      dup3\n        /* \"#utility.yul\":23475:23494   */\n      mstore\n        /* \"#utility.yul\":23527:23531   */\n      0x20\n        /* \"#utility.yul\":23522:23525   */\n      dup3\n        /* \"#utility.yul\":23518:23532   */\n      add\n        /* \"#utility.yul\":23503:23532   */\n      swap1\n      pop\n        /* \"#utility.yul\":23369:23538   */\n      swap3\n      swap2\n      pop\n      pop\n      jump\t// out\n        /* \"#utility.yul\":23544:23714   */\n    tag_245:\n        /* \"#utility.yul\":23684:23706   */\n      0x496e76616c696420636f6d70616e792074797065000000000000000000000000\n        /* \"#utility.yul\":23680:23681   */\n      0x00\n        /* \"#utility.yul\":23672:23678   */\n      dup3\n        /* \"#utility.yul\":23668:23682   */\n      add\n        /* \"#utility.yul\":23661:23707   */\n      mstore\n        /* \"#utility.yul\":23544:23714   */\n      pop\n      jump\t// out\n        /* \"#utility.yul\":23720:24086   */\n    tag_246:\n        /* \"#utility.yul\":23862:23865   */\n      0x00\n        /* \"#utility.yul\":23883:23950   */\n      tag_511\n        /* \"#utility.yul\":23947:23949   */\n      0x14\n        /* \"#utility.yul\":23942:23945   */\n      dup4\n        /* \"#utility.yul\":23883:23950   */\n      tag_244\n      jump\t// in\n    tag_511:\n        /* \"#utility.yul\":23876:23950   */\n      swap2\n      pop\n        /* \"#utility.yul\":23959:24052   */\n      tag_512\n        /* \"#utility.yul\":24048:24051   */\n      dup3\n        /* \"#utility.yul\":23959:24052   */\n      tag_245\n      jump\t// in\n    tag_512:\n        /* \"#utility.yul\":24077:24079   */\n      0x20\n        /* \"#utility.yul\":24072:24075   */\n      dup3\n        /* \"#utility.yul\":24068:24080   */\n      add\n        /* \"#utility.yul\":24061:24080   */\n      swap1\n      pop\n        /* \"#utility.yul\":23720:24086   */\n      swap2\n      swap1\n      pop\n      jump\t// out\n        /* \"#utility.yul\":24092:24511   */\n    tag_94:\n        /* \"#utility.yul\":24258:24262   */\n      0x00\n        /* \"#utility.yul\":24296:24298   */\n      0x20\n        /* \"#utility.yul\":24285:24294   */\n      dup3\n        /* \"#utility.yul\":24281:24299   */\n      add\n        /* \"#utility.yul\":24273:24299   */\n      swap1\n      pop\n        /* \"#utility.yul\":24345:24354   */\n      dup2\n        /* \"#utility.yul\":24339:24343   */\n      dup2\n        /* \"#utility.yul\":24335:24355   */\n      sub\n        /* \"#utility.yul\":24331:24332   */\n      0x00\n        /* \"#utility.yul\":24320:24329   */\n      dup4\n        /* \"#utility.yul\":24316:24333   */\n      add\n        /* \"#utility.yul\":24309:24356   */\n      mstore\n        /* \"#utility.yul\":24373:24504   */\n      tag_514\n        /* \"#utility.yul\":24499:24503   */\n      dup2\n        /* \"#utility.yul\":24373:24504   */\n      tag_246\n      jump\t// in\n    tag_514:\n        /* \"#utility.yul\":24365:24504   */\n      swap1\n      pop\n        /* \"#utility.yul\":24092:24511   */\n      swap2\n      swap1\n      pop\n      jump\t// out\n        /* \"#utility.yul\":24517:24678   */\n    tag_247:\n        /* \"#utility.yul\":24657:24670   */\n      0x496e76616c69642053534e000000000000000000000000000000000000000000\n        /* \"#utility.yul\":24653:24654   */\n      0x00\n        /* \"#utility.yul\":24645:24651   */\n      dup3\n        /* \"#utility.yul\":24641:24655   */\n      add\n        /* \"#utility.yul\":24634:24671   */\n      mstore\n        /* \"#utility.yul\":24517:24678   */\n      pop\n      jump\t// out\n        /* \"#utility.yul\":24684:25050   */\n    tag_248:\n        /* \"#utility.yul\":24826:24829   */\n      0x00\n        /* \"#utility.yul\":24847:24914   */\n      tag_517\n        /* \"#utility.yul\":24911:24913   */\n      0x0b\n        /* \"#utility.yul\":24906:24909   */\n      dup4\n        /* \"#utility.yul\":24847:24914   */\n      tag_244\n      jump\t// in\n    tag_517:\n        /* \"#utility.yul\":24840:24914   */\n      swap2\n      pop\n        /* \"#utility.yul\":24923:25016   */\n      tag_518\n        /* \"#utility.yul\":25012:25015   */\n      dup3\n        /* \"#utility.yul\":24923:25016   */\n      tag_247\n      jump\t// in\n    tag_518:\n        /* \"#utility.yul\":25041:25043   */\n      0x20\n        /* \"#utility.yul\":25036:25039   */\n      dup3\n        /* \"#utility.yul\":25032:25044   */\n      add\n        /* \"#utility.yul\":25025:25044   */\n      swap1\n      pop\n        /* \"#utility.yul\":24684:25050   */\n      swap2\n      swap1\n      pop\n      jump\t// out\n        /* \"#utility.yul\":25056:25475   */\n    tag_97:\n        /* \"#utility.yul\":25222:25226   */\n      0x00\n        /* \"#utility.yul\":25260:25262   */\n      0x20\n        /* \"#utility.yul\":25249:25258   */\n      dup3\n        /* \"#utility.yul\":25245:25263   */\n      add\n        /* \"#utility.yul\":25237:25263   */\n      swap1\n      pop\n        /* \"#utility.yul\":25309:25318   */\n      dup2\n        /* \"#utility.yul\":25303:25307   */\n      dup2\n        /* \"#utility.yul\":25299:25319   */\n      sub\n        /* \"#utility.yul\":25295:25296   */\n      0x00\n        /* \"#utility.yul\":25284:25293   */\n      dup4\n        /* \"#utility.yul\":25280:25297   */\n      add\n        /* \"#utility.yul\":25273:25320   */\n      mstore\n        /* \"#utility.yul\":25337:25468   */\n      tag_520\n        /* \"#utility.yul\":25463:25467   */\n      dup2\n        /* \"#utility.yul\":25337:25468   */\n      tag_248\n      jump\t// in\n    tag_520:\n        /* \"#utility.yul\":25329:25468   */\n      swap1\n      pop\n        /* \"#utility.yul\":25056:25475   */\n      swap2\n      swap1\n      pop\n      jump\t// out\n        /* \"#utility.yul\":25481:25643   */\n    tag_249:\n        /* \"#utility.yul\":25621:25635   */\n      0x496e76616c6964206e616d650000000000000000000000000000000000000000\n        /* \"#utility.yul\":25617:25618   */\n      0x00\n        /* \"#utility.yul\":25609:25615   */\n      dup3\n        /* \"#utility.yul\":25605:25619   */\n      add\n        /* \"#utility.yul\":25598:25636   */\n      mstore\n        /* \"#utility.yul\":25481:25643   */\n      pop\n      jump\t// out\n        /* \"#utility.yul\":25649:26015   */\n    tag_250:\n        /* \"#utility.yul\":25791:25794   */\n      0x00\n        /* \"#utility.yul\":25812:25879   */\n      tag_523\n        /* \"#utility.yul\":25876:25878   */\n      0x0c\n        /* \"#utility.yul\":25871:25874   */\n      dup4\n        /* \"#utility.yul\":25812:25879   */\n      tag_244\n      jump\t// in\n    tag_523:\n        /* \"#utility.yul\":25805:25879   */\n      swap2\n      pop\n        /* \"#utility.yul\":25888:25981   */\n      tag_524\n        /* \"#utility.yul\":25977:25980   */\n      dup3\n        /* \"#utility.yul\":25888:25981   */\n      tag_249\n      jump\t// in\n    tag_524:\n        /* \"#utility.yul\":26006:26008   */\n      0x20\n        /* \"#utility.yul\":26001:26004   */\n      dup3\n        /* \"#utility.yul\":25997:26009   */\n      add\n        /* \"#utility.yul\":25990:26009   */\n      swap1\n      pop\n        /* \"#utility.yul\":25649:26015   */\n      swap2\n      swap1\n      pop\n      jump\t// out\n        /* \"#utility.yul\":26021:26440   */\n    tag_100:\n        /* \"#utility.yul\":26187:26191   */\n      0x00\n        /* \"#utility.yul\":26225:26227   */\n      0x20\n        /* \"#utility.yul\":26214:26223   */\n      dup3\n        /* \"#utility.yul\":26210:26228   */\n      add\n        /* \"#utility.yul\":26202:26228   */\n      swap1\n      pop\n        /* \"#utility.yul\":26274:26283   */\n      dup2\n        /* \"#utility.yul\":26268:26272   */\n      dup2\n        /* \"#utility.yul\":26264:26284   */\n      sub\n        /* \"#utility.yul\":26260:26261   */\n      0x00\n        /* \"#utility.yul\":26249:26258   */\n      dup4\n        /* \"#utility.yul\":26245:26262   */\n      add\n        /* \"#utility.yul\":26238:26285   */\n      mstore\n        /* \"#utility.yul\":26302:26433   */\n      tag_526\n        /* \"#utility.yul\":26428:26432   */\n      dup2\n        /* \"#utility.yul\":26302:26433   */\n      tag_250\n      jump\t// in\n    tag_526:\n        /* \"#utility.yul\":26294:26433   */\n      swap1\n      pop\n        /* \"#utility.yul\":26021:26440   */\n      swap2\n      swap1\n      pop\n      jump\t// out\n        /* \"#utility.yul\":26446:26611   */\n    tag_251:\n        /* \"#utility.yul\":26586:26603   */\n      0x496e76616c696420616464726573730000000000000000000000000000000000\n        /* \"#utility.yul\":26582:26583   */\n      0x00\n        /* \"#utility.yul\":26574:26580   */\n      dup3\n        /* \"#utility.yul\":26570:26584   */\n      add\n        /* \"#utility.yul\":26563:26604   */\n      mstore\n        /* \"#utility.yul\":26446:26611   */\n      pop\n      jump\t// out\n        /* \"#utility.yul\":26617:26983   */\n    tag_252:\n        /* \"#utility.yul\":26759:26762   */\n      0x00\n        /* \"#utility.yul\":26780:26847   */\n      tag_529\n        /* \"#utility.yul\":26844:26846   */\n      0x0f\n        /* \"#utility.yul\":26839:26842   */\n      dup4\n        /* \"#utility.yul\":26780:26847   */\n      tag_244\n      jump\t// in\n    tag_529:\n        /* \"#utility.yul\":26773:26847   */\n      swap2\n      pop\n        /* \"#utility.yul\":26856:26949   */\n      tag_530\n        /* \"#utility.yul\":26945:26948   */\n      dup3\n        /* \"#utility.yul\":26856:26949   */\n      tag_251\n      jump\t// in\n    tag_530:\n        /* \"#utility.yul\":26974:26976   */\n      0x20\n        /* \"#utility.yul\":26969:26972   */\n      dup3\n        /* \"#utility.yul\":26965:26977   */\n      add\n        /* \"#utility.yul\":26958:26977   */\n      swap1\n      pop\n        /* \"#utility.yul\":26617:26983   */\n      swap2\n      swap1\n      pop\n      jump\t// out\n        /* \"#utility.yul\":26989:27408   */\n    tag_103:\n        /* \"#utility.yul\":27155:27159   */\n      0x00\n        /* \"#utility.yul\":27193:27195   */\n      0x20\n        /* \"#utility.yul\":27182:27191   */\n      dup3\n        /* \"#utility.yul\":27178:27196   */\n      add\n        /* \"#utility.yul\":27170:27196   */\n      swap1\n      pop\n        /* \"#utility.yul\":27242:27251   */\n      dup2\n        /* \"#utility.yul\":27236:27240   */\n      dup2\n        /* \"#utility.yul\":27232:27252   */\n      sub\n        /* \"#utility.yul\":27228:27229   */\n      0x00\n        /* \"#utility.yul\":27217:27226   */\n      dup4\n        /* \"#utility.yul\":27213:27230   */\n      add\n        /* \"#utility.yul\":27206:27253   */\n      mstore\n        /* \"#utility.yul\":27270:27401   */\n      tag_532\n        /* \"#utility.yul\":27396:27400   */\n      dup2\n        /* \"#utility.yul\":27270:27401   */\n      tag_252\n      jump\t// in\n    tag_532:\n        /* \"#utility.yul\":27262:27401   */\n      swap1\n      pop\n        /* \"#utility.yul\":26989:27408   */\n      swap2\n      swap1\n      pop\n      jump\t// out\n        /* \"#utility.yul\":27414:27582   */\n    tag_253:\n        /* \"#utility.yul\":27554:27574   */\n      0x50617373776f726420746f6f2073686f72740000000000000000000000000000\n        /* \"#utility.yul\":27550:27551   */\n      0x00\n        /* \"#utility.yul\":27542:27548   */\n      dup3\n        /* \"#utility.yul\":27538:27552   */\n      add\n        /* \"#utility.yul\":27531:27575   */\n      mstore\n        /* \"#utility.yul\":27414:27582   */\n      pop\n      jump\t// out\n        /* \"#utility.yul\":27588:27954   */\n    tag_254:\n        /* \"#utility.yul\":27730:27733   */\n      0x00\n        /* \"#utility.yul\":27751:27818   */\n      tag_535\n        /* \"#utility.yul\":27815:27817   */\n      0x12\n        /* \"#utility.yul\":27810:27813   */\n      dup4\n        /* \"#utility.yul\":27751:27818   */\n      tag_244\n      jump\t// in\n    tag_535:\n        /* \"#utility.yul\":27744:27818   */\n      swap2\n      pop\n        /* \"#utility.yul\":27827:27920   */\n      tag_536\n        /* \"#utility.yul\":27916:27919   */\n      dup3\n        /* \"#utility.yul\":27827:27920   */\n      tag_253\n      jump\t// in\n    tag_536:\n        /* \"#utility.yul\":27945:27947   */\n      0x20\n        /* \"#utility.yul\":27940:27943   */\n      dup3\n        /* \"#utility.yul\":27936:27948   */\n      add\n        /* \"#utility.yul\":27929:27948   */\n      swap1\n      pop\n        /* \"#utility.yul\":27588:27954   */\n      swap2\n      swap1\n      pop\n      jump\t// out\n        /* \"#utility.yul\":27960:28379   */\n    tag_106:\n        /* \"#utility.yul\":28126:28130   */\n      0x00\n        /* \"#utility.yul\":28164:28166   */\n      0x20\n        /* \"#utility.yul\":28153:28162   */\n      dup3\n        /* \"#utility.yul\":28149:28167   */\n      add\n        /* \"#utility.yul\":28141:28167   */\n      swap1\n      pop\n        /* \"#utility.yul\":28213:28222   */\n      dup2\n        /* \"#utility.yul\":28207:28211   */\n      dup2\n        /* \"#utility.yul\":28203:28223   */\n      sub\n        /* \"#utility.yul\":28199:28200   */\n      0x00\n        /* \"#utility.yul\":28188:28197   */\n      dup4\n        /* \"#utility.yul\":28184:28201   */\n      add\n        /* \"#utility.yul\":28177:28224   */\n      mstore\n        /* \"#utility.yul\":28241:28372   */\n      tag_538\n        /* \"#utility.yul\":28367:28371   */\n      dup2\n        /* \"#utility.yul\":28241:28372   */\n      tag_254\n      jump\t// in\n    tag_538:\n        /* \"#utility.yul\":28233:28372   */\n      swap1\n      pop\n        /* \"#utility.yul\":27960:28379   */\n      swap2\n      swap1\n      pop\n      jump\t// out\n        /* \"#utility.yul\":28385:28557   */\n    tag_255:\n        /* \"#utility.yul\":28525:28549   */\n      0x50686f6e65206e756d62657220746f6f2073686f727400000000000000000000\n        /* \"#utility.yul\":28521:28522   */\n      0x00\n        /* \"#utility.yul\":28513:28519   */\n      dup3\n        /* \"#utility.yul\":28509:28523   */\n      add\n        /* \"#utility.yul\":28502:28550   */\n      mstore\n        /* \"#utility.yul\":28385:28557   */\n      pop\n      jump\t// out\n        /* \"#utility.yul\":28563:28929   */\n    tag_256:\n        /* \"#utility.yul\":28705:28708   */\n      0x00\n        /* \"#utility.yul\":28726:28793   */\n      tag_541\n        /* \"#utility.yul\":28790:28792   */\n      0x16\n        /* \"#utility.yul\":28785:28788   */\n      dup4\n        /* \"#utility.yul\":28726:28793   */\n      tag_244\n      jump\t// in\n    tag_541:\n        /* \"#utility.yul\":28719:28793   */\n      swap2\n      pop\n        /* \"#utility.yul\":28802:28895   */\n      tag_542\n        /* \"#utility.yul\":28891:28894   */\n      dup3\n        /* \"#utility.yul\":28802:28895   */\n      tag_255\n      jump\t// in\n    tag_542:\n        /* \"#utility.yul\":28920:28922   */\n      0x20\n        /* \"#utility.yul\":28915:28918   */\n      dup3\n        /* \"#utility.yul\":28911:28923   */\n      add\n        /* \"#utility.yul\":28904:28923   */\n      swap1\n      pop\n        /* \"#utility.yul\":28563:28929   */\n      swap2\n      swap1\n      pop\n      jump\t// out\n        /* \"#utility.yul\":28935:29354   */\n    tag_109:\n        /* \"#utility.yul\":29101:29105   */\n      0x00\n        /* \"#utility.yul\":29139:29141   */\n      0x20\n        /* \"#utility.yul\":29128:29137   */\n      dup3\n        /* \"#utility.yul\":29124:29142   */\n      add\n        /* \"#utility.yul\":29116:29142   */\n      swap1\n      pop\n        /* \"#utility.yul\":29188:29197   */\n      dup2\n        /* \"#utility.yul\":29182:29186   */\n      dup2\n        /* \"#utility.yul\":29178:29198   */\n      sub\n        /* \"#utility.yul\":29174:29175   */\n      0x00\n        /* \"#utility.yul\":29163:29172   */\n      dup4\n        /* \"#utility.yul\":29159:29176   */\n      add\n        /* \"#utility.yul\":29152:29199   */\n      mstore\n        /* \"#utility.yul\":29216:29347   */\n      tag_544\n        /* \"#utility.yul\":29342:29346   */\n      dup2\n        /* \"#utility.yul\":29216:29347   */\n      tag_256\n      jump\t// in\n    tag_544:\n        /* \"#utility.yul\":29208:29347   */\n      swap1\n      pop\n        /* \"#utility.yul\":28935:29354   */\n      swap2\n      swap1\n      pop\n      jump\t// out\n        /* \"#utility.yul\":29360:30435   */\n    tag_113:\n        /* \"#utility.yul\":29732:29735   */\n      0x00\n        /* \"#utility.yul\":29754:29849   */\n      tag_546\n        /* \"#utility.yul\":29845:29848   */\n      dup3\n        /* \"#utility.yul\":29836:29842   */\n      dup10\n        /* \"#utility.yul\":29754:29849   */\n      tag_225\n      jump\t// in\n    tag_546:\n        /* \"#utility.yul\":29747:29849   */\n      swap2\n      pop\n        /* \"#utility.yul\":29866:29961   */\n      tag_547\n        /* \"#utility.yul\":29957:29960   */\n      dup3\n        /* \"#utility.yul\":29948:29954   */\n      dup9\n        /* \"#utility.yul\":29866:29961   */\n      tag_225\n      jump\t// in\n    tag_547:\n        /* \"#utility.yul\":29859:29961   */\n      swap2\n      pop\n        /* \"#utility.yul\":29978:30073   */\n      tag_548\n        /* \"#utility.yul\":30069:30072   */\n      dup3\n        /* \"#utility.yul\":30060:30066   */\n      dup8\n        /* \"#utility.yul\":29978:30073   */\n      tag_225\n      jump\t// in\n    tag_548:\n        /* \"#utility.yul\":29971:30073   */\n      swap2\n      pop\n        /* \"#utility.yul\":30090:30185   */\n      tag_549\n        /* \"#utility.yul\":30181:30184   */\n      dup3\n        /* \"#utility.yul\":30172:30178   */\n      dup7\n        /* \"#utility.yul\":30090:30185   */\n      tag_225\n      jump\t// in\n    tag_549:\n        /* \"#utility.yul\":30083:30185   */\n      swap2\n      pop\n        /* \"#utility.yul\":30202:30297   */\n      tag_550\n        /* \"#utility.yul\":30293:30296   */\n      dup3\n        /* \"#utility.yul\":30284:30290   */\n      dup6\n        /* \"#utility.yul\":30202:30297   */\n      tag_225\n      jump\t// in\n    tag_550:\n        /* \"#utility.yul\":30195:30297   */\n      swap2\n      pop\n        /* \"#utility.yul\":30314:30409   */\n      tag_551\n        /* \"#utility.yul\":30405:30408   */\n      dup3\n        /* \"#utility.yul\":30396:30402   */\n      dup5\n        /* \"#utility.yul\":30314:30409   */\n      tag_225\n      jump\t// in\n    tag_551:\n        /* \"#utility.yul\":30307:30409   */\n      swap2\n      pop\n        /* \"#utility.yul\":30426:30429   */\n      dup2\n        /* \"#utility.yul\":30419:30429   */\n      swap1\n      pop\n        /* \"#utility.yul\":29360:30435   */\n      swap8\n      swap7\n      pop\n      pop\n      pop\n      pop\n      pop\n      pop\n      pop\n      jump\t// out\n        /* \"#utility.yul\":30441:30971   */\n    tag_117:\n        /* \"#utility.yul\":30606:30610   */\n      0x00\n        /* \"#utility.yul\":30644:30646   */\n      0x40\n        /* \"#utility.yul\":30633:30642   */\n      dup3\n        /* \"#utility.yul\":30629:30647   */\n      add\n        /* \"#utility.yul\":30621:30647   */\n      swap1\n      pop\n        /* \"#utility.yul\":30693:30702   */\n      dup2\n        /* \"#utility.yul\":30687:30691   */\n      dup2\n        /* \"#utility.yul\":30683:30703   */\n      sub\n        /* \"#utility.yul\":30679:30680   */\n      0x00\n        /* \"#utility.yul\":30668:30677   */\n      dup4\n        /* \"#utility.yul\":30664:30681   */\n      add\n        /* \"#utility.yul\":30657:30704   */\n      mstore\n        /* \"#utility.yul\":30721:30805   */\n      tag_553\n        /* \"#utility.yul\":30800:30804   */\n      dup2\n        /* \"#utility.yul\":30791:30797   */\n      dup6\n        /* \"#utility.yul\":30721:30805   */\n      tag_220\n      jump\t// in\n    tag_553:\n        /* \"#utility.yul\":30713:30805   */\n      swap1\n      pop\n        /* \"#utility.yul\":30852:30861   */\n      dup2\n        /* \"#utility.yul\":30846:30850   */\n      dup2\n        /* \"#utility.yul\":30842:30862   */\n      sub\n        /* \"#utility.yul\":30837:30839   */\n      0x20\n        /* \"#utility.yul\":30826:30835   */\n      dup4\n        /* \"#utility.yul\":30822:30840   */\n      add\n        /* \"#utility.yul\":30815:30863   */\n      mstore\n        /* \"#utility.yul\":30880:30964   */\n      tag_554\n        /* \"#utility.yul\":30959:30963   */\n      dup2\n        /* \"#utility.yul\":30950:30956   */\n      dup5\n        /* \"#utility.yul\":30880:30964   */\n      tag_220\n      jump\t// in\n    tag_554:\n        /* \"#utility.yul\":30872:30964   */\n      swap1\n      pop\n        /* \"#utility.yul\":30441:30971   */\n      swap4\n      swap3\n      pop\n      pop\n      pop\n      jump\t// out\n        /* \"#utility.yul\":30977:31138   */\n    tag_257:\n        /* \"#utility.yul\":31117:31130   */\n      0x4e6f7420616c6c6f776564000000000000000000000000000000000000000000\n        /* \"#utility.yul\":31113:31114   */\n      0x00\n        /* \"#utility.yul\":31105:31111   */\n      dup3\n        /* \"#utility.yul\":31101:31115   */\n      add\n        /* \"#utility.yul\":31094:31131   */\n      mstore\n        /* \"#utility.yul\":30977:31138   */\n      pop\n      jump\t// out\n        /* \"#utility.yul\":31144:31510   */\n    tag_258:\n        /* \"#utility.yul\":31286:31289   */\n      0x00\n        /* \"#utility.yul\":31307:31374   */\n      tag_557\n        /* \"#utility.yul\":31371:31373   */\n      0x0b\n        /* \"#utility.yul\":31366:31369   */\n      dup4\n        /* \"#utility.yul\":31307:31374   */\n      tag_244\n      jump\t// in\n    tag_557:\n        /* \"#utility.yul\":31300:31374   */\n      swap2\n      pop\n        /* \"#utility.yul\":31383:31476   */\n      tag_558\n        /* \"#utility.yul\":31472:31475   */\n      dup3\n        /* \"#utility.yul\":31383:31476   */\n      tag_257\n      jump\t// in\n    tag_558:\n        /* \"#utility.yul\":31501:31503   */\n      0x20\n        /* \"#utility.yul\":31496:31499   */\n      dup3\n        /* \"#utility.yul\":31492:31504   */\n      add\n        /* \"#utility.yul\":31485:31504   */\n      swap1\n      pop\n        /* \"#utility.yul\":31144:31510   */\n      swap2\n      swap1\n      pop\n      jump\t// out\n        /* \"#utility.yul\":31516:31935   */\n    tag_149:\n        /* \"#utility.yul\":31682:31686   */\n      0x00\n        /* \"#utility.yul\":31720:31722   */\n      0x20\n        /* \"#utility.yul\":31709:31718   */\n      dup3\n        /* \"#utility.yul\":31705:31723   */\n      add\n        /* \"#utility.yul\":31697:31723   */\n      swap1\n      pop\n        /* \"#utility.yul\":31769:31778   */\n      dup2\n        /* \"#utility.yul\":31763:31767   */\n      dup2\n        /* \"#utility.yul\":31759:31779   */\n      sub\n        /* \"#utility.yul\":31755:31756   */\n      0x00\n        /* \"#utility.yul\":31744:31753   */\n      dup4\n        /* \"#utility.yul\":31740:31757   */\n      add\n        /* \"#utility.yul\":31733:31780   */\n      mstore\n        /* \"#utility.yul\":31797:31928   */\n      tag_560\n        /* \"#utility.yul\":31923:31927   */\n      dup2\n        /* \"#utility.yul\":31797:31928   */\n      tag_258\n      jump\t// in\n    tag_560:\n        /* \"#utility.yul\":31789:31928   */\n      swap1\n      pop\n        /* \"#utility.yul\":31516:31935   */\n      swap2\n      swap1\n      pop\n      jump\t// out\n        /* \"#utility.yul\":31941:32121   */\n    tag_161:\n        /* \"#utility.yul\":31989:32066   */\n      0x4e487b7100000000000000000000000000000000000000000000000000000000\n        /* \"#utility.yul\":31986:31987   */\n      0x00\n        /* \"#utility.yul\":31979:32067   */\n      mstore\n        /* \"#utility.yul\":32086:32090   */\n      0x12\n        /* \"#utility.yul\":32083:32084   */\n      0x04\n        /* \"#utility.yul\":32076:32091   */\n      mstore\n        /* \"#utility.yul\":32110:32114   */\n      0x24\n        /* \"#utility.yul\":32107:32108   */\n      0x00\n        /* \"#utility.yul\":32100:32115   */\n      revert\n\n    auxdata: 0xa2646970667358221220cb6ac1d7e928ad8e892e48ef92d47611a0bfd3093db600b3b6f7c3e168708ca664736f6c63430008120033\n}\n",
				"bytecode": {
					"linkReferences": {
						"cypher.sol": {
							"cypher": [
								{
									"length": 20,
									"start": 1027
								},
								{
									"length": 20,
									"start": 1180
								},
								{
									"length": 20,
									"start": 1333
								},
								{
									"length": 20,
									"start": 1545
								},
								{
									"length": 20,
									"start": 3792
								},
								{
									"length": 20,
									"start": 3924
								},
								{
									"length": 20,
									"start": 4056
								},
								{
									"length": 20,
									"start": 4263
								}
							]
						}
					},
					"object": "608060405260008060146101000a81548160ff021916908360ff1602179055506001600060156101000a81548160ff021916908360ff1602179055506002600060166101000a81548160ff021916908360ff1602179055506003600060176101000a81548160ff021916908360ff1602179055506004600060186101000a81548160ff021916908360ff16021790555034801561009b57600080fd5b50336000806101000a81548173ffffffffffffffffffffffffffffffffffffffff021916908373ffffffffffffffffffffffffffffffffffffffff16021790555061263d806100eb6000396000f3fe60806040526004361061003e5760003560e01c8062131c4f146100435780633a96fdd71461008057806356bbe303146100bd578063eefb8ab1146100d9575b600080fd5b34801561004f57600080fd5b5061006a60048036038101906100659190611758565b6100f5565b604051610077919061196b565b60405180910390f35b34801561008c57600080fd5b506100a760048036038101906100a2919061198d565b6109e5565b6040516100b49190611a20565b60405180910390f35b6100d760048036038101906100d29190611a67565b610a3e565b005b6100f360048036038101906100ee9190611b90565b610bca565b005b6100fd611567565b610105611567565b3373ffffffffffffffffffffffffffffffffffffffff166001600086815260200190815260200160002060050160019054906101000a900473ffffffffffffffffffffffffffffffffffffffff1673ffffffffffffffffffffffffffffffffffffffff161461030a576040518061010001604052806040518060400160405280600b81526020017f2a2a2a2a2a2a2a2a2a2a2a00000000000000000000000000000000000000000081525081526020016040518060400160405280600681526020017f2a2a2a2a2a2a000000000000000000000000000000000000000000000000000081525081526020016040518060400160405280600a81526020017f2a2a2a2a2a2a2a2a2a2a0000000000000000000000000000000000000000000081525081526020016040518060400160405280600781526020017f2a2a2a2a2a2a2a0000000000000000000000000000000000000000000000000081525081526020016040518060400160405280600881526020017f2a2a2a2a2a2a2a2a00000000000000000000000000000000000000000000000081525081526020016001600087815260200190815260200160002060050160009054906101000a900460ff1660ff1681526020013373ffffffffffffffffffffffffffffffffffffffff1681526020016001600087815260200190815260200160002060060154815250905061063a565b60405180610100016040528073__$0394c467ed0fdd19c4eccf25096e0ad40f$__63015cfec760016000898152602001908152602001600020600001876040518363ffffffff1660e01b8152600401610364929190611e0c565b600060405180830381865af4158015610381573d6000803e3d6000fd5b505050506040513d6000823e3d601f19601f820116820180604052508101906103aa9190611ee4565b815260200173__$0394c467ed0fdd19c4eccf25096e0ad40f$__63015cfec760016000898152602001908152602001600020600101876040518363ffffffff1660e01b81526004016103fd929190611e0c565b600060405180830381865af415801561041a573d6000803e3d6000fd5b505050506040513d6000823e3d601f19601f820116820180604052508101906104439190611ee4565b815260200173__$0394c467ed0fdd19c4eccf25096e0ad40f$__63015cfec760016000898152602001908152602001600020600201876040518363ffffffff1660e01b8152600401610496929190611e0c565b600060405180830381865af41580156104b3573d6000803e3d6000fd5b505050506040513d6000823e3d601f19601f820116820180604052508101906104dc9190611ee4565b81526020016040518060400160405280600581526020017f2a2a2a2a2a000000000000000000000000000000000000000000000000000000815250815260200173__$0394c467ed0fdd19c4eccf25096e0ad40f$__63015cfec760016000898152602001908152602001600020600401876040518363ffffffff1660e01b815260040161056a929190611e0c565b600060405180830381865af4158015610587573d6000803e3d6000fd5b505050506040513d6000823e3d601f19601f820116820180604052508101906105b09190611ee4565b81526020016001600087815260200190815260200160002060050160009054906101000a900460ff1660ff1681526020016001600087815260200190815260200160002060050160019054906101000a900473ffffffffffffffffffffffffffffffffffffffff1673ffffffffffffffffffffffffffffffffffffffff1681526020018581525090505b60006001600086815260200190815260200160002060050160009054906101000a900460ff1660ff1611156109db5760405180610100016040528060016000878152602001908152602001600020600001805461069690611ced565b80601f01602080910402602001604051908101604052809291908181526020018280546106c290611ced565b801561070f5780601f106106e45761010080835404028352916020019161070f565b820191906000526020600020905b8154815290600101906020018083116106f257829003601f168201915b5050505050815260200160016000878152602001908152602001600020600101805461073a90611ced565b80601f016020809104026020016040519081016040528092919081815260200182805461076690611ced565b80156107b35780601f10610788576101008083540402835291602001916107b3565b820191906000526020600020905b81548152906001019060200180831161079657829003601f168201915b505050505081526020016001600087815260200190815260200160002060020180546107de90611ced565b80601f016020809104026020016040519081016040528092919081815260200182805461080a90611ced565b80156108575780601f1061082c57610100808354040283529160200191610857565b820191906000526020600020905b81548152906001019060200180831161083a57829003601f168201915b505050505081526020016040518060400160405280600781526020017f2a2a2a2a2a2a2a0000000000000000000000000000000000000000000000000081525081526020016001600087815260200190815260200160002060040180546108bd90611ced565b80601f01602080910402602001604051908101604052809291908181526020018280546108e990611ced565b80156109365780601f1061090b57610100808354040283529160200191610936565b820191906000526020600020905b81548152906001019060200180831161091957829003601f168201915b505050505081526020016001600087815260200190815260200160002060050160009054906101000a900460ff1660ff1681526020016001600087815260200190815260200160002060050160019054906101000a900473ffffffffffffffffffffffffffffffffffffffff1673ffffffffffffffffffffffffffffffffffffffff168152602001600160008781526020019081526020016000206006015481525090505b8091505092915050565b6000816040516020016109f89190611f69565b6040516020818303038152906040528051906020012083604051602001610a1f9190611f69565b6040516020818303038152906040528051906020012014905092915050565b3373ffffffffffffffffffffffffffffffffffffffff166001600088815260200190815260200160002060050160019054906101000a900473ffffffffffffffffffffffffffffffffffffffff1673ffffffffffffffffffffffffffffffffffffffff1614158015610afb5750610afa8182604051602001610ac09190611f69565b60405160208183030381529060405280519060200120604051602001610ae69190611fa1565b6040516020818303038152906040526109e5565b5b15610bc25784600160008881526020019081526020016000206000019081610b239190612172565b5083600160008881526020019081526020016000206002019081610b479190612172565b5082600160008881526020019081526020016000206004019081610b6b9190612172565b50816001600088815260200190815260200160002060050160016101000a81548173ffffffffffffffffffffffffffffffffffffffff021916908373ffffffffffffffffffffffffffffffffffffffff1602179055505b505050505050565b610bd26112b6565b60058360ff161115610c19576040517f08c379a0000000000000000000000000000000000000000000000000000000008152600401610c10906122a1565b60405180910390fd5b600d865114610c5d576040517f08c379a0000000000000000000000000000000000000000000000000000000008152600401610c549061230d565b60405180910390fd5b6006875111610ca1576040517f08c379a0000000000000000000000000000000000000000000000000000000008152600401610c9890612379565b60405180910390fd5b600a855111610ce5576040517f08c379a0000000000000000000000000000000000000000000000000000000008152600401610cdc906123e5565b60405180910390fd5b6008845111610d29576040517f08c379a0000000000000000000000000000000000000000000000000000000008152600401610d2090612451565b60405180910390fd5b6006825111610d6d576040517f08c379a0000000000000000000000000000000000000000000000000000000008152600401610d64906124bd565b60405180910390fd5b60008787610d7d8660ff16611346565b888887604051602001610d95969594939291906124dd565b604051602081830303815290604052604051602001610db49190611f69565b60405160208183030381529060405280519060200120905060008460ff16036111625760405180610100016040528073__$0394c467ed0fdd19c4eccf25096e0ad40f$__63015cfec78b896040518363ffffffff1660e01b8152600401610e1c929190612535565b600060405180830381865af4158015610e39573d6000803e3d6000fd5b505050506040513d6000823e3d601f19601f82011682018060405250810190610e629190611ee4565b815260200173__$0394c467ed0fdd19c4eccf25096e0ad40f$__63015cfec78a896040518363ffffffff1660e01b8152600401610ea0929190612535565b600060405180830381865af4158015610ebd573d6000803e3d6000fd5b505050506040513d6000823e3d601f19601f82011682018060405250810190610ee69190611ee4565b815260200173__$0394c467ed0fdd19c4eccf25096e0ad40f$__63015cfec789896040518363ffffffff1660e01b8152600401610f24929190612535565b600060405180830381865af4158015610f41573d6000803e3d6000fd5b505050506040513d6000823e3d601f19601f82011682018060405250810190610f6a9190611ee4565b815260200186604051602001610f809190611f69565b60405160208183030381529060405280519060200120604051602001610fa69190611fa1565b604051602081830303815290604052815260200173__$0394c467ed0fdd19c4eccf25096e0ad40f$__63015cfec786896040518363ffffffff1660e01b8152600401610ff3929190612535565b600060405180830381865af4158015611010573d6000803e3d6000fd5b505050506040513d6000823e3d601f19601f820116820180604052508101906110399190611ee4565b81526020018560ff1681526020018373ffffffffffffffffffffffffffffffffffffffff1681526020018281525060016000838152602001908152602001600020600082015181600001908161108f9190612172565b5060208201518160010190816110a59190612172565b5060408201518160020190816110bb9190612172565b5060608201518160030190816110d19190612172565b5060808201518160040190816110e79190612172565b5060a08201518160050160006101000a81548160ff021916908360ff16021790555060c08201518160050160016101000a81548173ffffffffffffffffffffffffffffffffffffffff021916908373ffffffffffffffffffffffffffffffffffffffff16021790555060e082015181600601559050506112ac565b6040518061010001604052808981526020018881526020018781526020018681526020018481526020018560ff1681526020018373ffffffffffffffffffffffffffffffffffffffff168152602001828152506001600083815260200190815260200160002060008201518160000190816111dd9190612172565b5060208201518160010190816111f39190612172565b5060408201518160020190816112099190612172565b50606082015181600301908161121f9190612172565b5060808201518160040190816112359190612172565b5060a08201518160050160006101000a81548160ff021916908360ff16021790555060c08201518160050160016101000a81548173ffffffffffffffffffffffffffffffffffffffff021916908373ffffffffffffffffffffffffffffffffffffffff16021790555060e082015181600601559050505b5050505050505050565b3373ffffffffffffffffffffffffffffffffffffffff1660008054906101000a900473ffffffffffffffffffffffffffffffffffffffff1673ffffffffffffffffffffffffffffffffffffffff1614611344576040517f08c379a000000000000000000000000000000000000000000000000000000000815260040161133b906125b8565b60405180910390fd5b565b60606000600161135584611414565b01905060008167ffffffffffffffff8111156113745761137361162d565b5b6040519080825280601f01601f1916602001820160405280156113a65781602001600182028036833780820191505090505b509050600082602001820190505b600115611409578080600190039150507f3031323334353637383961626364656600000000000000000000000000000000600a86061a8153600a85816113fd576113fc6125d8565b5b049450600085036113b4575b819350505050919050565b600080600090507a184f03e93ff9f4daa797ed6e38ed64bf6a1f0100000000000000008310611472577a184f03e93ff9f4daa797ed6e38ed64bf6a1f0100000000000000008381611468576114676125d8565b5b0492506040810190505b6d04ee2d6d415b85acef810000000083106114af576d04ee2d6d415b85acef810000000083816114a5576114a46125d8565b5b0492506020810190505b662386f26fc1000083106114de57662386f26fc1000083816114d4576114d36125d8565b5b0492506010810190505b6305f5e1008310611507576305f5e10083816114fd576114fc6125d8565b5b0492506008810190505b612710831061152c576127108381611522576115216125d8565b5b0492506004810190505b6064831061154f5760648381611545576115446125d8565b5b0492506002810190505b600a831061155e576001810190505b80915050919050565b6040518061010001604052806060815260200160608152602001606081526020016060815260200160608152602001600060ff168152602001600073ffffffffffffffffffffffffffffffffffffffff168152602001600080191681525090565b6000604051905090565b600080fd5b600080fd5b6000819050919050565b6115ef816115dc565b81146115fa57600080fd5b50565b60008135905061160c816115e6565b92915050565b600080fd5b600080fd5b6000601f19601f8301169050919050565b7f4e487b7100000000000000000000000000000000000000000000000000000000600052604160045260246000fd5b6116658261161c565b810181811067ffffffffffffffff821117156116845761168361162d565b5b80604052505050565b60006116976115c8565b90506116a3828261165c565b919050565b600067ffffffffffffffff8211156116c3576116c261162d565b5b6116cc8261161c565b9050602081019050919050565b82818337600083830152505050565b60006116fb6116f6846116a8565b61168d565b90508281526020810184848401111561171757611716611617565b5b6117228482856116d9565b509392505050565b600082601f83011261173f5761173e611612565b5b813561174f8482602086016116e8565b91505092915050565b6000806040838503121561176f5761176e6115d2565b5b600061177d858286016115fd565b925050602083013567ffffffffffffffff81111561179e5761179d6115d7565b5b6117aa8582860161172a565b9150509250929050565b600081519050919050565b600082825260208201905092915050565b60005b838110156117ee5780820151818401526020810190506117d3565b60008484015250505050565b6000611805826117b4565b61180f81856117bf565b935061181f8185602086016117d0565b6118288161161c565b840191505092915050565b600060ff82169050919050565b61184981611833565b82525050565b600073ffffffffffffffffffffffffffffffffffffffff82169050919050565b600061187a8261184f565b9050919050565b61188a8161186f565b82525050565b611899816115dc565b82525050565b60006101008301600083015184820360008601526118bd82826117fa565b915050602083015184820360208601526118d782826117fa565b915050604083015184820360408601526118f182826117fa565b9150506060830151848203606086015261190b82826117fa565b9150506080830151848203608086015261192582826117fa565b91505060a083015161193a60a0860182611840565b5060c083015161194d60c0860182611881565b5060e083015161196060e0860182611890565b508091505092915050565b60006020820190508181036000830152611985818461189f565b905092915050565b600080604083850312156119a4576119a36115d2565b5b600083013567ffffffffffffffff8111156119c2576119c16115d7565b5b6119ce8582860161172a565b925050602083013567ffffffffffffffff8111156119ef576119ee6115d7565b5b6119fb8582860161172a565b9150509250929050565b60008115159050919050565b611a1a81611a05565b82525050565b6000602082019050611a356000830184611a11565b92915050565b611a448161186f565b8114611a4f57600080fd5b50565b600081359050611a6181611a3b565b92915050565b60008060008060008060c08789031215611a8457611a836115d2565b5b6000611a9289828a016115fd565b965050602087013567ffffffffffffffff811115611ab357611ab26115d7565b5b611abf89828a0161172a565b955050604087013567ffffffffffffffff811115611ae057611adf6115d7565b5b611aec89828a0161172a565b945050606087013567ffffffffffffffff811115611b0d57611b0c6115d7565b5b611b1989828a0161172a565b9350506080611b2a89828a01611a52565b92505060a087013567ffffffffffffffff811115611b4b57611b4a6115d7565b5b611b5789828a0161172a565b9150509295509295509295565b611b6d81611833565b8114611b7857600080fd5b50565b600081359050611b8a81611b64565b92915050565b600080600080600080600060e0888a031215611baf57611bae6115d2565b5b600088013567ffffffffffffffff811115611bcd57611bcc6115d7565b5b611bd98a828b0161172a565b975050602088013567ffffffffffffffff811115611bfa57611bf96115d7565b5b611c068a828b0161172a565b965050604088013567ffffffffffffffff811115611c2757611c266115d7565b5b611c338a828b0161172a565b955050606088013567ffffffffffffffff811115611c5457611c536115d7565b5b611c608a828b0161172a565b9450506080611c718a828b01611b7b565b93505060a088013567ffffffffffffffff811115611c9257611c916115d7565b5b611c9e8a828b0161172a565b92505060c0611caf8a828b01611a52565b91505092959891949750929550565b7f4e487b7100000000000000000000000000000000000000000000000000000000600052602260045260246000fd5b60006002820490506001821680611d0557607f821691505b602082108103611d1857611d17611cbe565b5b50919050565b600082825260208201905092915050565b60008190508160005260206000209050919050565b60008154611d5181611ced565b611d5b8186611d1e565b94506001821660008114611d765760018114611d8c57611dbf565b60ff198316865281151560200286019350611dbf565b611d9585611d2f565b60005b83811015611db757815481890152600182019150602081019050611d98565b808801955050505b50505092915050565b600081519050919050565b6000611dde82611dc8565b611de88185611d1e565b9350611df88185602086016117d0565b611e018161161c565b840191505092915050565b60006040820190508181036000830152611e268185611d44565b90508181036020830152611e3a8184611dd3565b90509392505050565b600067ffffffffffffffff821115611e5e57611e5d61162d565b5b611e678261161c565b9050602081019050919050565b6000611e87611e8284611e43565b61168d565b905082815260208101848484011115611ea357611ea2611617565b5b611eae8482856117d0565b509392505050565b600082601f830112611ecb57611eca611612565b5b8151611edb848260208601611e74565b91505092915050565b600060208284031215611efa57611ef96115d2565b5b600082015167ffffffffffffffff811115611f1857611f176115d7565b5b611f2484828501611eb6565b91505092915050565b600081905092915050565b6000611f43826117b4565b611f4d8185611f2d565b9350611f5d8185602086016117d0565b80840191505092915050565b6000611f758284611f38565b915081905092915050565b6000819050919050565b611f9b611f96826115dc565b611f80565b82525050565b6000611fad8284611f8a565b60208201915081905092915050565b60008190508160005260206000209050919050565b60006020601f8301049050919050565b600082821b905092915050565b60006008830261201e7fffffffffffffffffffffffffffffffffffffffffffffffffffffffffffffffff82611fe1565b6120288683611fe1565b95508019841693508086168417925050509392505050565b6000819050919050565b6000819050919050565b600061206f61206a61206584612040565b61204a565b612040565b9050919050565b6000819050919050565b61208983612054565b61209d61209582612076565b848454611fee565b825550505050565b600090565b6120b26120a5565b6120bd818484612080565b505050565b5b818110156120e1576120d66000826120aa565b6001810190506120c3565b5050565b601f821115612126576120f781611fbc565b61210084611fd1565b8101602085101561210f578190505b61212361211b85611fd1565b8301826120c2565b50505b505050565b600082821c905092915050565b60006121496000198460080261212b565b1980831691505092915050565b60006121628383612138565b9150826002028217905092915050565b61217b826117b4565b67ffffffffffffffff8111156121945761219361162d565b5b61219e8254611ced565b6121a98282856120e5565b600060209050601f8311600181146121dc57600084156121ca578287015190505b6121d48582612156565b86555061223c565b601f1984166121ea86611fbc565b60005b82811015612212578489015182556001820191506020850194506020810190506121ed565b8683101561222f578489015161222b601f891682612138565b8355505b6001600288020188555050505b505050505050565b600082825260208201905092915050565b7f496e76616c696420636f6d70616e792074797065000000000000000000000000600082015250565b600061228b601483612244565b915061229682612255565b602082019050919050565b600060208201905081810360008301526122ba8161227e565b9050919050565b7f496e76616c69642053534e000000000000000000000000000000000000000000600082015250565b60006122f7600b83612244565b9150612302826122c1565b602082019050919050565b60006020820190508181036000830152612326816122ea565b9050919050565b7f496e76616c6964206e616d650000000000000000000000000000000000000000600082015250565b6000612363600c83612244565b915061236e8261232d565b602082019050919050565b6000602082019050818103600083015261239281612356565b9050919050565b7f496e76616c696420616464726573730000000000000000000000000000000000600082015250565b60006123cf600f83612244565b91506123da82612399565b602082019050919050565b600060208201905081810360008301526123fe816123c2565b9050919050565b7f50617373776f726420746f6f2073686f72740000000000000000000000000000600082015250565b600061243b601283612244565b915061244682612405565b602082019050919050565b6000602082019050818103600083015261246a8161242e565b9050919050565b7f50686f6e65206e756d62657220746f6f2073686f727400000000000000000000600082015250565b60006124a7601683612244565b91506124b282612471565b602082019050919050565b600060208201905081810360008301526124d68161249a565b9050919050565b60006124e98289611f38565b91506124f58288611f38565b91506125018287611f38565b915061250d8286611f38565b91506125198285611f38565b91506125258284611f38565b9150819050979650505050505050565b6000604082019050818103600083015261254f8185611dd3565b905081810360208301526125638184611dd3565b90509392505050565b7f4e6f7420616c6c6f776564000000000000000000000000000000000000000000600082015250565b60006125a2600b83612244565b91506125ad8261256c565b602082019050919050565b600060208201905081810360008301526125d181612595565b9050919050565b7f4e487b7100000000000000000000000000000000000000000000000000000000600052601260045260246000fdfea2646970667358221220cb6ac1d7e928ad8e892e48ef92d47611a0bfd3093db600b3b6f7c3e168708ca664736f6c63430008120033",
					"opcodes": "PUSH1 0x80 PUSH1 0x40 MSTORE PUSH1 0x0 DUP1 PUSH1 0x14 PUSH2 0x100 EXP DUP2 SLOAD DUP2 PUSH1 0xFF MUL NOT AND SWAP1 DUP4 PUSH1 0xFF AND MUL OR SWAP1 SSTORE POP PUSH1 0x1 PUSH1 0x0 PUSH1 0x15 PUSH2 0x100 EXP DUP2 SLOAD DUP2 PUSH1 0xFF MUL NOT AND SWAP1 DUP4 PUSH1 0xFF AND MUL OR SWAP1 SSTORE POP PUSH1 0x2 PUSH1 0x0 PUSH1 0x16 PUSH2 0x100 EXP DUP2 SLOAD DUP2 PUSH1 0xFF MUL NOT AND SWAP1 DUP4 PUSH1 0xFF AND MUL OR SWAP1 SSTORE POP PUSH1 0x3 PUSH1 0x0 PUSH1 0x17 PUSH2 0x100 EXP DUP2 SLOAD DUP2 PUSH1 0xFF MUL NOT AND SWAP1 DUP4 PUSH1 0xFF AND MUL OR SWAP1 SSTORE POP PUSH1 0x4 PUSH1 0x0 PUSH1 0x18 PUSH2 0x100 EXP DUP2 SLOAD DUP2 PUSH1 0xFF MUL NOT AND SWAP1 DUP4 PUSH1 0xFF AND MUL OR SWAP1 SSTORE POP CALLVALUE DUP1 ISZERO PUSH2 0x9B JUMPI PUSH1 0x0 DUP1 REVERT JUMPDEST POP CALLER PUSH1 0x0 DUP1 PUSH2 0x100 EXP DUP2 SLOAD DUP2 PUSH20 0xFFFFFFFFFFFFFFFFFFFFFFFFFFFFFFFFFFFFFFFF MUL NOT AND SWAP1 DUP4 PUSH20 0xFFFFFFFFFFFFFFFFFFFFFFFFFFFFFFFFFFFFFFFF AND MUL OR SWAP1 SSTORE POP PUSH2 0x263D DUP1 PUSH2 0xEB PUSH1 0x0 CODECOPY PUSH1 0x0 RETURN INVALID PUSH1 0x80 PUSH1 0x40 MSTORE PUSH1 0x4 CALLDATASIZE LT PUSH2 0x3E JUMPI PUSH1 0x0 CALLDATALOAD PUSH1 0xE0 SHR DUP1 PUSH3 0x131C4F EQ PUSH2 0x43 JUMPI DUP1 PUSH4 0x3A96FDD7 EQ PUSH2 0x80 JUMPI DUP1 PUSH4 0x56BBE303 EQ PUSH2 0xBD JUMPI DUP1 PUSH4 0xEEFB8AB1 EQ PUSH2 0xD9 JUMPI JUMPDEST PUSH1 0x0 DUP1 REVERT JUMPDEST CALLVALUE DUP1 ISZERO PUSH2 0x4F JUMPI PUSH1 0x0 DUP1 REVERT JUMPDEST POP PUSH2 0x6A PUSH1 0x4 DUP1 CALLDATASIZE SUB DUP2 ADD SWAP1 PUSH2 0x65 SWAP2 SWAP1 PUSH2 0x1758 JUMP JUMPDEST PUSH2 0xF5 JUMP JUMPDEST PUSH1 0x40 MLOAD PUSH2 0x77 SWAP2 SWAP1 PUSH2 0x196B JUMP JUMPDEST PUSH1 0x40 MLOAD DUP1 SWAP2 SUB SWAP1 RETURN JUMPDEST CALLVALUE DUP1 ISZERO PUSH2 0x8C JUMPI PUSH1 0x0 DUP1 REVERT JUMPDEST POP PUSH2 0xA7 PUSH1 0x4 DUP1 CALLDATASIZE SUB DUP2 ADD SWAP1 PUSH2 0xA2 SWAP2 SWAP1 PUSH2 0x198D JUMP JUMPDEST PUSH2 0x9E5 JUMP JUMPDEST PUSH1 0x40 MLOAD PUSH2 0xB4 SWAP2 SWAP1 PUSH2 0x1A20 JUMP JUMPDEST PUSH1 0x40 MLOAD DUP1 SWAP2 SUB SWAP1 RETURN JUMPDEST PUSH2 0xD7 PUSH1 0x4 DUP1 CALLDATASIZE SUB DUP2 ADD SWAP1 PUSH2 0xD2 SWAP2 SWAP1 PUSH2 0x1A67 JUMP JUMPDEST PUSH2 0xA3E JUMP JUMPDEST STOP JUMPDEST PUSH2 0xF3 PUSH1 0x4 DUP1 CALLDATASIZE SUB DUP2 ADD SWAP1 PUSH2 0xEE SWAP2 SWAP1 PUSH2 0x1B90 JUMP JUMPDEST PUSH2 0xBCA JUMP JUMPDEST STOP JUMPDEST PUSH2 0xFD PUSH2 0x1567 JUMP JUMPDEST PUSH2 0x105 PUSH2 0x1567 JUMP JUMPDEST CALLER PUSH20 0xFFFFFFFFFFFFFFFFFFFFFFFFFFFFFFFFFFFFFFFF AND PUSH1 0x1 PUSH1 0x0 DUP7 DUP2 MSTORE PUSH1 0x20 ADD SWAP1 DUP2 MSTORE PUSH1 0x20 ADD PUSH1 0x0 KECCAK256 PUSH1 0x5 ADD PUSH1 0x1 SWAP1 SLOAD SWAP1 PUSH2 0x100 EXP SWAP1 DIV PUSH20 0xFFFFFFFFFFFFFFFFFFFFFFFFFFFFFFFFFFFFFFFF AND PUSH20 0xFFFFFFFFFFFFFFFFFFFFFFFFFFFFFFFFFFFFFFFF AND EQ PUSH2 0x30A JUMPI PUSH1 0x40 MLOAD DUP1 PUSH2 0x100 ADD PUSH1 0x40 MSTORE DUP1 PUSH1 0x40 MLOAD DUP1 PUSH1 0x40 ADD PUSH1 0x40 MSTORE DUP1 PUSH1 0xB DUP2 MSTORE PUSH1 0x20 ADD PUSH32 0x2A2A2A2A2A2A2A2A2A2A2A000000000000000000000000000000000000000000 DUP2 MSTORE POP DUP2 MSTORE PUSH1 0x20 ADD PUSH1 0x40 MLOAD DUP1 PUSH1 0x40 ADD PUSH1 0x40 MSTORE DUP1 PUSH1 0x6 DUP2 MSTORE PUSH1 0x20 ADD PUSH32 0x2A2A2A2A2A2A0000000000000000000000000000000000000000000000000000 DUP2 MSTORE POP DUP2 MSTORE PUSH1 0x20 ADD PUSH1 0x40 MLOAD DUP1 PUSH1 0x40 ADD PUSH1 0x40 MSTORE DUP1 PUSH1 0xA DUP2 MSTORE PUSH1 0x20 ADD PUSH32 0x2A2A2A2A2A2A2A2A2A2A00000000000000000000000000000000000000000000 DUP2 MSTORE POP DUP2 MSTORE PUSH1 0x20 ADD PUSH1 0x40 MLOAD DUP1 PUSH1 0x40 ADD PUSH1 0x40 MSTORE DUP1 PUSH1 0x7 DUP2 MSTORE PUSH1 0x20 ADD PUSH32 0x2A2A2A2A2A2A2A00000000000000000000000000000000000000000000000000 DUP2 MSTORE POP DUP2 MSTORE PUSH1 0x20 ADD PUSH1 0x40 MLOAD DUP1 PUSH1 0x40 ADD PUSH1 0x40 MSTORE DUP1 PUSH1 0x8 DUP2 MSTORE PUSH1 0x20 ADD PUSH32 0x2A2A2A2A2A2A2A2A000000000000000000000000000000000000000000000000 DUP2 MSTORE POP DUP2 MSTORE PUSH1 0x20 ADD PUSH1 0x1 PUSH1 0x0 DUP8 DUP2 MSTORE PUSH1 0x20 ADD SWAP1 DUP2 MSTORE PUSH1 0x20 ADD PUSH1 0x0 KECCAK256 PUSH1 0x5 ADD PUSH1 0x0 SWAP1 SLOAD SWAP1 PUSH2 0x100 EXP SWAP1 DIV PUSH1 0xFF AND PUSH1 0xFF AND DUP2 MSTORE PUSH1 0x20 ADD CALLER PUSH20 0xFFFFFFFFFFFFFFFFFFFFFFFFFFFFFFFFFFFFFFFF AND DUP2 MSTORE PUSH1 0x20 ADD PUSH1 0x1 PUSH1 0x0 DUP8 DUP2 MSTORE PUSH1 0x20 ADD SWAP1 DUP2 MSTORE PUSH1 0x20 ADD PUSH1 0x0 KECCAK256 PUSH1 0x6 ADD SLOAD DUP2 MSTORE POP SWAP1 POP PUSH2 0x63A JUMP JUMPDEST PUSH1 0x40 MLOAD DUP1 PUSH2 0x100 ADD PUSH1 0x40 MSTORE DUP1 PUSH20 0x0 PUSH4 0x15CFEC7 PUSH1 0x1 PUSH1 0x0 DUP10 DUP2 MSTORE PUSH1 0x20 ADD SWAP1 DUP2 MSTORE PUSH1 0x20 ADD PUSH1 0x0 KECCAK256 PUSH1 0x0 ADD DUP8 PUSH1 0x40 MLOAD DUP4 PUSH4 0xFFFFFFFF AND PUSH1 0xE0 SHL DUP2 MSTORE PUSH1 0x4 ADD PUSH2 0x364 SWAP3 SWAP2 SWAP1 PUSH2 0x1E0C JUMP JUMPDEST PUSH1 0x0 PUSH1 0x40 MLOAD DUP1 DUP4 SUB DUP2 DUP7 GAS DELEGATECALL ISZERO DUP1 ISZERO PUSH2 0x381 JUMPI RETURNDATASIZE PUSH1 0x0 DUP1 RETURNDATACOPY RETURNDATASIZE PUSH1 0x0 REVERT JUMPDEST POP POP POP POP PUSH1 0x40 MLOAD RETURNDATASIZE PUSH1 0x0 DUP3 RETURNDATACOPY RETURNDATASIZE PUSH1 0x1F NOT PUSH1 0x1F DUP3 ADD AND DUP3 ADD DUP1 PUSH1 0x40 MSTORE POP DUP2 ADD SWAP1 PUSH2 0x3AA SWAP2 SWAP1 PUSH2 0x1EE4 JUMP JUMPDEST DUP2 MSTORE PUSH1 0x20 ADD PUSH20 0x0 PUSH4 0x15CFEC7 PUSH1 0x1 PUSH1 0x0 DUP10 DUP2 MSTORE PUSH1 0x20 ADD SWAP1 DUP2 MSTORE PUSH1 0x20 ADD PUSH1 0x0 KECCAK256 PUSH1 0x1 ADD DUP8 PUSH1 0x40 MLOAD DUP4 PUSH4 0xFFFFFFFF AND PUSH1 0xE0 SHL DUP2 MSTORE PUSH1 0x4 ADD PUSH2 0x3FD SWAP3 SWAP2 SWAP1 PUSH2 0x1E0C JUMP JUMPDEST PUSH1 0x0 PUSH1 0x40 MLOAD DUP1 DUP4 SUB DUP2 DUP7 GAS DELEGATECALL ISZERO DUP1 ISZERO PUSH2 0x41A JUMPI RETURNDATASIZE PUSH1 0x0 DUP1 RETURNDATACOPY RETURNDATASIZE PUSH1 0x0 REVERT JUMPDEST POP POP POP POP PUSH1 0x40 MLOAD RETURNDATASIZE PUSH1 0x0 DUP3 RETURNDATACOPY RETURNDATASIZE PUSH1 0x1F NOT PUSH1 0x1F DUP3 ADD AND DUP3 ADD DUP1 PUSH1 0x40 MSTORE POP DUP2 ADD SWAP1 PUSH2 0x443 SWAP2 SWAP1 PUSH2 0x1EE4 JUMP JUMPDEST DUP2 MSTORE PUSH1 0x20 ADD PUSH20 0x0 PUSH4 0x15CFEC7 PUSH1 0x1 PUSH1 0x0 DUP10 DUP2 MSTORE PUSH1 0x20 ADD SWAP1 DUP2 MSTORE PUSH1 0x20 ADD PUSH1 0x0 KECCAK256 PUSH1 0x2 ADD DUP8 PUSH1 0x40 MLOAD DUP4 PUSH4 0xFFFFFFFF AND PUSH1 0xE0 SHL DUP2 MSTORE PUSH1 0x4 ADD PUSH2 0x496 SWAP3 SWAP2 SWAP1 PUSH2 0x1E0C JUMP JUMPDEST PUSH1 0x0 PUSH1 0x40 MLOAD DUP1 DUP4 SUB DUP2 DUP7 GAS DELEGATECALL ISZERO DUP1 ISZERO PUSH2 0x4B3 JUMPI RETURNDATASIZE PUSH1 0x0 DUP1 RETURNDATACOPY RETURNDATASIZE PUSH1 0x0 REVERT JUMPDEST POP POP POP POP PUSH1 0x40 MLOAD RETURNDATASIZE PUSH1 0x0 DUP3 RETURNDATACOPY RETURNDATASIZE PUSH1 0x1F NOT PUSH1 0x1F DUP3 ADD AND DUP3 ADD DUP1 PUSH1 0x40 MSTORE POP DUP2 ADD SWAP1 PUSH2 0x4DC SWAP2 SWAP1 PUSH2 0x1EE4 JUMP JUMPDEST DUP2 MSTORE PUSH1 0x20 ADD PUSH1 0x40 MLOAD DUP1 PUSH1 0x40 ADD PUSH1 0x40 MSTORE DUP1 PUSH1 0x5 DUP2 MSTORE PUSH1 0x20 ADD PUSH32 0x2A2A2A2A2A000000000000000000000000000000000000000000000000000000 DUP2 MSTORE POP DUP2 MSTORE PUSH1 0x20 ADD PUSH20 0x0 PUSH4 0x15CFEC7 PUSH1 0x1 PUSH1 0x0 DUP10 DUP2 MSTORE PUSH1 0x20 ADD SWAP1 DUP2 MSTORE PUSH1 0x20 ADD PUSH1 0x0 KECCAK256 PUSH1 0x4 ADD DUP8 PUSH1 0x40 MLOAD DUP4 PUSH4 0xFFFFFFFF AND PUSH1 0xE0 SHL DUP2 MSTORE PUSH1 0x4 ADD PUSH2 0x56A SWAP3 SWAP2 SWAP1 PUSH2 0x1E0C JUMP JUMPDEST PUSH1 0x0 PUSH1 0x40 MLOAD DUP1 DUP4 SUB DUP2 DUP7 GAS DELEGATECALL ISZERO DUP1 ISZERO PUSH2 0x587 JUMPI RETURNDATASIZE PUSH1 0x0 DUP1 RETURNDATACOPY RETURNDATASIZE PUSH1 0x0 REVERT JUMPDEST POP POP POP POP PUSH1 0x40 MLOAD RETURNDATASIZE PUSH1 0x0 DUP3 RETURNDATACOPY RETURNDATASIZE PUSH1 0x1F NOT PUSH1 0x1F DUP3 ADD AND DUP3 ADD DUP1 PUSH1 0x40 MSTORE POP DUP2 ADD SWAP1 PUSH2 0x5B0 SWAP2 SWAP1 PUSH2 0x1EE4 JUMP JUMPDEST DUP2 MSTORE PUSH1 0x20 ADD PUSH1 0x1 PUSH1 0x0 DUP8 DUP2 MSTORE PUSH1 0x20 ADD SWAP1 DUP2 MSTORE PUSH1 0x20 ADD PUSH1 0x0 KECCAK256 PUSH1 0x5 ADD PUSH1 0x0 SWAP1 SLOAD SWAP1 PUSH2 0x100 EXP SWAP1 DIV PUSH1 0xFF AND PUSH1 0xFF AND DUP2 MSTORE PUSH1 0x20 ADD PUSH1 0x1 PUSH1 0x0 DUP8 DUP2 MSTORE PUSH1 0x20 ADD SWAP1 DUP2 MSTORE PUSH1 0x20 ADD PUSH1 0x0 KECCAK256 PUSH1 0x5 ADD PUSH1 0x1 SWAP1 SLOAD SWAP1 PUSH2 0x100 EXP SWAP1 DIV PUSH20 0xFFFFFFFFFFFFFFFFFFFFFFFFFFFFFFFFFFFFFFFF AND PUSH20 0xFFFFFFFFFFFFFFFFFFFFFFFFFFFFFFFFFFFFFFFF AND DUP2 MSTORE PUSH1 0x20 ADD DUP6 DUP2 MSTORE POP SWAP1 POP JUMPDEST PUSH1 0x0 PUSH1 0x1 PUSH1 0x0 DUP7 DUP2 MSTORE PUSH1 0x20 ADD SWAP1 DUP2 MSTORE PUSH1 0x20 ADD PUSH1 0x0 KECCAK256 PUSH1 0x5 ADD PUSH1 0x0 SWAP1 SLOAD SWAP1 PUSH2 0x100 EXP SWAP1 DIV PUSH1 0xFF AND PUSH1 0xFF AND GT ISZERO PUSH2 0x9DB JUMPI PUSH1 0x40 MLOAD DUP1 PUSH2 0x100 ADD PUSH1 0x40 MSTORE DUP1 PUSH1 0x1 PUSH1 0x0 DUP8 DUP2 MSTORE PUSH1 0x20 ADD SWAP1 DUP2 MSTORE PUSH1 0x20 ADD PUSH1 0x0 KECCAK256 PUSH1 0x0 ADD DUP1 SLOAD PUSH2 0x696 SWAP1 PUSH2 0x1CED JUMP JUMPDEST DUP1 PUSH1 0x1F ADD PUSH1 0x20 DUP1 SWAP2 DIV MUL PUSH1 0x20 ADD PUSH1 0x40 MLOAD SWAP1 DUP2 ADD PUSH1 0x40 MSTORE DUP1 SWAP3 SWAP2 SWAP1 DUP2 DUP2 MSTORE PUSH1 0x20 ADD DUP3 DUP1 SLOAD PUSH2 0x6C2 SWAP1 PUSH2 0x1CED JUMP JUMPDEST DUP1 ISZERO PUSH2 0x70F JUMPI DUP1 PUSH1 0x1F LT PUSH2 0x6E4 JUMPI PUSH2 0x100 DUP1 DUP4 SLOAD DIV MUL DUP4 MSTORE SWAP2 PUSH1 0x20 ADD SWAP2 PUSH2 0x70F JUMP JUMPDEST DUP3 ADD SWAP2 SWAP1 PUSH1 0x0 MSTORE PUSH1 0x20 PUSH1 0x0 KECCAK256 SWAP1 JUMPDEST DUP2 SLOAD DUP2 MSTORE SWAP1 PUSH1 0x1 ADD SWAP1 PUSH1 0x20 ADD DUP1 DUP4 GT PUSH2 0x6F2 JUMPI DUP3 SWAP1 SUB PUSH1 0x1F AND DUP3 ADD SWAP2 JUMPDEST POP POP POP POP POP DUP2 MSTORE PUSH1 0x20 ADD PUSH1 0x1 PUSH1 0x0 DUP8 DUP2 MSTORE PUSH1 0x20 ADD SWAP1 DUP2 MSTORE PUSH1 0x20 ADD PUSH1 0x0 KECCAK256 PUSH1 0x1 ADD DUP1 SLOAD PUSH2 0x73A SWAP1 PUSH2 0x1CED JUMP JUMPDEST DUP1 PUSH1 0x1F ADD PUSH1 0x20 DUP1 SWAP2 DIV MUL PUSH1 0x20 ADD PUSH1 0x40 MLOAD SWAP1 DUP2 ADD PUSH1 0x40 MSTORE DUP1 SWAP3 SWAP2 SWAP1 DUP2 DUP2 MSTORE PUSH1 0x20 ADD DUP3 DUP1 SLOAD PUSH2 0x766 SWAP1 PUSH2 0x1CED JUMP JUMPDEST DUP1 ISZERO PUSH2 0x7B3 JUMPI DUP1 PUSH1 0x1F LT PUSH2 0x788 JUMPI PUSH2 0x100 DUP1 DUP4 SLOAD DIV MUL DUP4 MSTORE SWAP2 PUSH1 0x20 ADD SWAP2 PUSH2 0x7B3 JUMP JUMPDEST DUP3 ADD SWAP2 SWAP1 PUSH1 0x0 MSTORE PUSH1 0x20 PUSH1 0x0 KECCAK256 SWAP1 JUMPDEST DUP2 SLOAD DUP2 MSTORE SWAP1 PUSH1 0x1 ADD SWAP1 PUSH1 0x20 ADD DUP1 DUP4 GT PUSH2 0x796 JUMPI DUP3 SWAP1 SUB PUSH1 0x1F AND DUP3 ADD SWAP2 JUMPDEST POP POP POP POP POP DUP2 MSTORE PUSH1 0x20 ADD PUSH1 0x1 PUSH1 0x0 DUP8 DUP2 MSTORE PUSH1 0x20 ADD SWAP1 DUP2 MSTORE PUSH1 0x20 ADD PUSH1 0x0 KECCAK256 PUSH1 0x2 ADD DUP1 SLOAD PUSH2 0x7DE SWAP1 PUSH2 0x1CED JUMP JUMPDEST DUP1 PUSH1 0x1F ADD PUSH1 0x20 DUP1 SWAP2 DIV MUL PUSH1 0x20 ADD PUSH1 0x40 MLOAD SWAP1 DUP2 ADD PUSH1 0x40 MSTORE DUP1 SWAP3 SWAP2 SWAP1 DUP2 DUP2 MSTORE PUSH1 0x20 ADD DUP3 DUP1 SLOAD PUSH2 0x80A SWAP1 PUSH2 0x1CED JUMP JUMPDEST DUP1 ISZERO PUSH2 0x857 JUMPI DUP1 PUSH1 0x1F LT PUSH2 0x82C JUMPI PUSH2 0x100 DUP1 DUP4 SLOAD DIV MUL DUP4 MSTORE SWAP2 PUSH1 0x20 ADD SWAP2 PUSH2 0x857 JUMP JUMPDEST DUP3 ADD SWAP2 SWAP1 PUSH1 0x0 MSTORE PUSH1 0x20 PUSH1 0x0 KECCAK256 SWAP1 JUMPDEST DUP2 SLOAD DUP2 MSTORE SWAP1 PUSH1 0x1 ADD SWAP1 PUSH1 0x20 ADD DUP1 DUP4 GT PUSH2 0x83A JUMPI DUP3 SWAP1 SUB PUSH1 0x1F AND DUP3 ADD SWAP2 JUMPDEST POP POP POP POP POP DUP2 MSTORE PUSH1 0x20 ADD PUSH1 0x40 MLOAD DUP1 PUSH1 0x40 ADD PUSH1 0x40 MSTORE DUP1 PUSH1 0x7 DUP2 MSTORE PUSH1 0x20 ADD PUSH32 0x2A2A2A2A2A2A2A00000000000000000000000000000000000000000000000000 DUP2 MSTORE POP DUP2 MSTORE PUSH1 0x20 ADD PUSH1 0x1 PUSH1 0x0 DUP8 DUP2 MSTORE PUSH1 0x20 ADD SWAP1 DUP2 MSTORE PUSH1 0x20 ADD PUSH1 0x0 KECCAK256 PUSH1 0x4 ADD DUP1 SLOAD PUSH2 0x8BD SWAP1 PUSH2 0x1CED JUMP JUMPDEST DUP1 PUSH1 0x1F ADD PUSH1 0x20 DUP1 SWAP2 DIV MUL PUSH1 0x20 ADD PUSH1 0x40 MLOAD SWAP1 DUP2 ADD PUSH1 0x40 MSTORE DUP1 SWAP3 SWAP2 SWAP1 DUP2 DUP2 MSTORE PUSH1 0x20 ADD DUP3 DUP1 SLOAD PUSH2 0x8E9 SWAP1 PUSH2 0x1CED JUMP JUMPDEST DUP1 ISZERO PUSH2 0x936 JUMPI DUP1 PUSH1 0x1F LT PUSH2 0x90B JUMPI PUSH2 0x100 DUP1 DUP4 SLOAD DIV MUL DUP4 MSTORE SWAP2 PUSH1 0x20 ADD SWAP2 PUSH2 0x936 JUMP JUMPDEST DUP3 ADD SWAP2 SWAP1 PUSH1 0x0 MSTORE PUSH1 0x20 PUSH1 0x0 KECCAK256 SWAP1 JUMPDEST DUP2 SLOAD DUP2 MSTORE SWAP1 PUSH1 0x1 ADD SWAP1 PUSH1 0x20 ADD DUP1 DUP4 GT PUSH2 0x919 JUMPI DUP3 SWAP1 SUB PUSH1 0x1F AND DUP3 ADD SWAP2 JUMPDEST POP POP POP POP POP DUP2 MSTORE PUSH1 0x20 ADD PUSH1 0x1 PUSH1 0x0 DUP8 DUP2 MSTORE PUSH1 0x20 ADD SWAP1 DUP2 MSTORE PUSH1 0x20 ADD PUSH1 0x0 KECCAK256 PUSH1 0x5 ADD PUSH1 0x0 SWAP1 SLOAD SWAP1 PUSH2 0x100 EXP SWAP1 DIV PUSH1 0xFF AND PUSH1 0xFF AND DUP2 MSTORE PUSH1 0x20 ADD PUSH1 0x1 PUSH1 0x0 DUP8 DUP2 MSTORE PUSH1 0x20 ADD SWAP1 DUP2 MSTORE PUSH1 0x20 ADD PUSH1 0x0 KECCAK256 PUSH1 0x5 ADD PUSH1 0x1 SWAP1 SLOAD SWAP1 PUSH2 0x100 EXP SWAP1 DIV PUSH20 0xFFFFFFFFFFFFFFFFFFFFFFFFFFFFFFFFFFFFFFFF AND PUSH20 0xFFFFFFFFFFFFFFFFFFFFFFFFFFFFFFFFFFFFFFFF AND DUP2 MSTORE PUSH1 0x20 ADD PUSH1 0x1 PUSH1 0x0 DUP8 DUP2 MSTORE PUSH1 0x20 ADD SWAP1 DUP2 MSTORE PUSH1 0x20 ADD PUSH1 0x0 KECCAK256 PUSH1 0x6 ADD SLOAD DUP2 MSTORE POP SWAP1 POP JUMPDEST DUP1 SWAP2 POP POP SWAP3 SWAP2 POP POP JUMP JUMPDEST PUSH1 0x0 DUP2 PUSH1 0x40 MLOAD PUSH1 0x20 ADD PUSH2 0x9F8 SWAP2 SWAP1 PUSH2 0x1F69 JUMP JUMPDEST PUSH1 0x40 MLOAD PUSH1 0x20 DUP2 DUP4 SUB SUB DUP2 MSTORE SWAP1 PUSH1 0x40 MSTORE DUP1 MLOAD SWAP1 PUSH1 0x20 ADD KECCAK256 DUP4 PUSH1 0x40 MLOAD PUSH1 0x20 ADD PUSH2 0xA1F SWAP2 SWAP1 PUSH2 0x1F69 JUMP JUMPDEST PUSH1 0x40 MLOAD PUSH1 0x20 DUP2 DUP4 SUB SUB DUP2 MSTORE SWAP1 PUSH1 0x40 MSTORE DUP1 MLOAD SWAP1 PUSH1 0x20 ADD KECCAK256 EQ SWAP1 POP SWAP3 SWAP2 POP POP JUMP JUMPDEST CALLER PUSH20 0xFFFFFFFFFFFFFFFFFFFFFFFFFFFFFFFFFFFFFFFF AND PUSH1 0x1 PUSH1 0x0 DUP9 DUP2 MSTORE PUSH1 0x20 ADD SWAP1 DUP2 MSTORE PUSH1 0x20 ADD PUSH1 0x0 KECCAK256 PUSH1 0x5 ADD PUSH1 0x1 SWAP1 SLOAD SWAP1 PUSH2 0x100 EXP SWAP1 DIV PUSH20 0xFFFFFFFFFFFFFFFFFFFFFFFFFFFFFFFFFFFFFFFF AND PUSH20 0xFFFFFFFFFFFFFFFFFFFFFFFFFFFFFFFFFFFFFFFF AND EQ ISZERO DUP1 ISZERO PUSH2 0xAFB JUMPI POP PUSH2 0xAFA DUP2 DUP3 PUSH1 0x40 MLOAD PUSH1 0x20 ADD PUSH2 0xAC0 SWAP2 SWAP1 PUSH2 0x1F69 JUMP JUMPDEST PUSH1 0x40 MLOAD PUSH1 0x20 DUP2 DUP4 SUB SUB DUP2 MSTORE SWAP1 PUSH1 0x40 MSTORE DUP1 MLOAD SWAP1 PUSH1 0x20 ADD KECCAK256 PUSH1 0x40 MLOAD PUSH1 0x20 ADD PUSH2 0xAE6 SWAP2 SWAP1 PUSH2 0x1FA1 JUMP JUMPDEST PUSH1 0x40 MLOAD PUSH1 0x20 DUP2 DUP4 SUB SUB DUP2 MSTORE SWAP1 PUSH1 0x40 MSTORE PUSH2 0x9E5 JUMP JUMPDEST JUMPDEST ISZERO PUSH2 0xBC2 JUMPI DUP5 PUSH1 0x1 PUSH1 0x0 DUP9 DUP2 MSTORE PUSH1 0x20 ADD SWAP1 DUP2 MSTORE PUSH1 0x20 ADD PUSH1 0x0 KECCAK256 PUSH1 0x0 ADD SWAP1 DUP2 PUSH2 0xB23 SWAP2 SWAP1 PUSH2 0x2172 JUMP JUMPDEST POP DUP4 PUSH1 0x1 PUSH1 0x0 DUP9 DUP2 MSTORE PUSH1 0x20 ADD SWAP1 DUP2 MSTORE PUSH1 0x20 ADD PUSH1 0x0 KECCAK256 PUSH1 0x2 ADD SWAP1 DUP2 PUSH2 0xB47 SWAP2 SWAP1 PUSH2 0x2172 JUMP JUMPDEST POP DUP3 PUSH1 0x1 PUSH1 0x0 DUP9 DUP2 MSTORE PUSH1 0x20 ADD SWAP1 DUP2 MSTORE PUSH1 0x20 ADD PUSH1 0x0 KECCAK256 PUSH1 0x4 ADD SWAP1 DUP2 PUSH2 0xB6B SWAP2 SWAP1 PUSH2 0x2172 JUMP JUMPDEST POP DUP2 PUSH1 0x1 PUSH1 0x0 DUP9 DUP2 MSTORE PUSH1 0x20 ADD SWAP1 DUP2 MSTORE PUSH1 0x20 ADD PUSH1 0x0 KECCAK256 PUSH1 0x5 ADD PUSH1 0x1 PUSH2 0x100 EXP DUP2 SLOAD DUP2 PUSH20 0xFFFFFFFFFFFFFFFFFFFFFFFFFFFFFFFFFFFFFFFF MUL NOT AND SWAP1 DUP4 PUSH20 0xFFFFFFFFFFFFFFFFFFFFFFFFFFFFFFFFFFFFFFFF AND MUL OR SWAP1 SSTORE POP JUMPDEST POP POP POP POP POP POP JUMP JUMPDEST PUSH2 0xBD2 PUSH2 0x12B6 JUMP JUMPDEST PUSH1 0x5 DUP4 PUSH1 0xFF AND GT ISZERO PUSH2 0xC19 JUMPI PUSH1 0x40 MLOAD PUSH32 0x8C379A000000000000000000000000000000000000000000000000000000000 DUP2 MSTORE PUSH1 0x4 ADD PUSH2 0xC10 SWAP1 PUSH2 0x22A1 JUMP JUMPDEST PUSH1 0x40 MLOAD DUP1 SWAP2 SUB SWAP1 REVERT JUMPDEST PUSH1 0xD DUP7 MLOAD EQ PUSH2 0xC5D JUMPI PUSH1 0x40 MLOAD PUSH32 0x8C379A000000000000000000000000000000000000000000000000000000000 DUP2 MSTORE PUSH1 0x4 ADD PUSH2 0xC54 SWAP1 PUSH2 0x230D JUMP JUMPDEST PUSH1 0x40 MLOAD DUP1 SWAP2 SUB SWAP1 REVERT JUMPDEST PUSH1 0x6 DUP8 MLOAD GT PUSH2 0xCA1 JUMPI PUSH1 0x40 MLOAD PUSH32 0x8C379A000000000000000000000000000000000000000000000000000000000 DUP2 MSTORE PUSH1 0x4 ADD PUSH2 0xC98 SWAP1 PUSH2 0x2379 JUMP JUMPDEST PUSH1 0x40 MLOAD DUP1 SWAP2 SUB SWAP1 REVERT JUMPDEST PUSH1 0xA DUP6 MLOAD GT PUSH2 0xCE5 JUMPI PUSH1 0x40 MLOAD PUSH32 0x8C379A000000000000000000000000000000000000000000000000000000000 DUP2 MSTORE PUSH1 0x4 ADD PUSH2 0xCDC SWAP1 PUSH2 0x23E5 JUMP JUMPDEST PUSH1 0x40 MLOAD DUP1 SWAP2 SUB SWAP1 REVERT JUMPDEST PUSH1 0x8 DUP5 MLOAD GT PUSH2 0xD29 JUMPI PUSH1 0x40 MLOAD PUSH32 0x8C379A000000000000000000000000000000000000000000000000000000000 DUP2 MSTORE PUSH1 0x4 ADD PUSH2 0xD20 SWAP1 PUSH2 0x2451 JUMP JUMPDEST PUSH1 0x40 MLOAD DUP1 SWAP2 SUB SWAP1 REVERT JUMPDEST PUSH1 0x6 DUP3 MLOAD GT PUSH2 0xD6D JUMPI PUSH1 0x40 MLOAD PUSH32 0x8C379A000000000000000000000000000000000000000000000000000000000 DUP2 MSTORE PUSH1 0x4 ADD PUSH2 0xD64 SWAP1 PUSH2 0x24BD JUMP JUMPDEST PUSH1 0x40 MLOAD DUP1 SWAP2 SUB SWAP1 REVERT JUMPDEST PUSH1 0x0 DUP8 DUP8 PUSH2 0xD7D DUP7 PUSH1 0xFF AND PUSH2 0x1346 JUMP JUMPDEST DUP9 DUP9 DUP8 PUSH1 0x40 MLOAD PUSH1 0x20 ADD PUSH2 0xD95 SWAP7 SWAP6 SWAP5 SWAP4 SWAP3 SWAP2 SWAP1 PUSH2 0x24DD JUMP JUMPDEST PUSH1 0x40 MLOAD PUSH1 0x20 DUP2 DUP4 SUB SUB DUP2 MSTORE SWAP1 PUSH1 0x40 MSTORE PUSH1 0x40 MLOAD PUSH1 0x20 ADD PUSH2 0xDB4 SWAP2 SWAP1 PUSH2 0x1F69 JUMP JUMPDEST PUSH1 0x40 MLOAD PUSH1 0x20 DUP2 DUP4 SUB SUB DUP2 MSTORE SWAP1 PUSH1 0x40 MSTORE DUP1 MLOAD SWAP1 PUSH1 0x20 ADD KECCAK256 SWAP1 POP PUSH1 0x0 DUP5 PUSH1 0xFF AND SUB PUSH2 0x1162 JUMPI PUSH1 0x40 MLOAD DUP1 PUSH2 0x100 ADD PUSH1 0x40 MSTORE DUP1 PUSH20 0x0 PUSH4 0x15CFEC7 DUP12 DUP10 PUSH1 0x40 MLOAD DUP4 PUSH4 0xFFFFFFFF AND PUSH1 0xE0 SHL DUP2 MSTORE PUSH1 0x4 ADD PUSH2 0xE1C SWAP3 SWAP2 SWAP1 PUSH2 0x2535 JUMP JUMPDEST PUSH1 0x0 PUSH1 0x40 MLOAD DUP1 DUP4 SUB DUP2 DUP7 GAS DELEGATECALL ISZERO DUP1 ISZERO PUSH2 0xE39 JUMPI RETURNDATASIZE PUSH1 0x0 DUP1 RETURNDATACOPY RETURNDATASIZE PUSH1 0x0 REVERT JUMPDEST POP POP POP POP PUSH1 0x40 MLOAD RETURNDATASIZE PUSH1 0x0 DUP3 RETURNDATACOPY RETURNDATASIZE PUSH1 0x1F NOT PUSH1 0x1F DUP3 ADD AND DUP3 ADD DUP1 PUSH1 0x40 MSTORE POP DUP2 ADD SWAP1 PUSH2 0xE62 SWAP2 SWAP1 PUSH2 0x1EE4 JUMP JUMPDEST DUP2 MSTORE PUSH1 0x20 ADD PUSH20 0x0 PUSH4 0x15CFEC7 DUP11 DUP10 PUSH1 0x40 MLOAD DUP4 PUSH4 0xFFFFFFFF AND PUSH1 0xE0 SHL DUP2 MSTORE PUSH1 0x4 ADD PUSH2 0xEA0 SWAP3 SWAP2 SWAP1 PUSH2 0x2535 JUMP JUMPDEST PUSH1 0x0 PUSH1 0x40 MLOAD DUP1 DUP4 SUB DUP2 DUP7 GAS DELEGATECALL ISZERO DUP1 ISZERO PUSH2 0xEBD JUMPI RETURNDATASIZE PUSH1 0x0 DUP1 RETURNDATACOPY RETURNDATASIZE PUSH1 0x0 REVERT JUMPDEST POP POP POP POP PUSH1 0x40 MLOAD RETURNDATASIZE PUSH1 0x0 DUP3 RETURNDATACOPY RETURNDATASIZE PUSH1 0x1F NOT PUSH1 0x1F DUP3 ADD AND DUP3 ADD DUP1 PUSH1 0x40 MSTORE POP DUP2 ADD SWAP1 PUSH2 0xEE6 SWAP2 SWAP1 PUSH2 0x1EE4 JUMP JUMPDEST DUP2 MSTORE PUSH1 0x20 ADD PUSH20 0x0 PUSH4 0x15CFEC7 DUP10 DUP10 PUSH1 0x40 MLOAD DUP4 PUSH4 0xFFFFFFFF AND PUSH1 0xE0 SHL DUP2 MSTORE PUSH1 0x4 ADD PUSH2 0xF24 SWAP3 SWAP2 SWAP1 PUSH2 0x2535 JUMP JUMPDEST PUSH1 0x0 PUSH1 0x40 MLOAD DUP1 DUP4 SUB DUP2 DUP7 GAS DELEGATECALL ISZERO DUP1 ISZERO PUSH2 0xF41 JUMPI RETURNDATASIZE PUSH1 0x0 DUP1 RETURNDATACOPY RETURNDATASIZE PUSH1 0x0 REVERT JUMPDEST POP POP POP POP PUSH1 0x40 MLOAD RETURNDATASIZE PUSH1 0x0 DUP3 RETURNDATACOPY RETURNDATASIZE PUSH1 0x1F NOT PUSH1 0x1F DUP3 ADD AND DUP3 ADD DUP1 PUSH1 0x40 MSTORE POP DUP2 ADD SWAP1 PUSH2 0xF6A SWAP2 SWAP1 PUSH2 0x1EE4 JUMP JUMPDEST DUP2 MSTORE PUSH1 0x20 ADD DUP7 PUSH1 0x40 MLOAD PUSH1 0x20 ADD PUSH2 0xF80 SWAP2 SWAP1 PUSH2 0x1F69 JUMP JUMPDEST PUSH1 0x40 MLOAD PUSH1 0x20 DUP2 DUP4 SUB SUB DUP2 MSTORE SWAP1 PUSH1 0x40 MSTORE DUP1 MLOAD SWAP1 PUSH1 0x20 ADD KECCAK256 PUSH1 0x40 MLOAD PUSH1 0x20 ADD PUSH2 0xFA6 SWAP2 SWAP1 PUSH2 0x1FA1 JUMP JUMPDEST PUSH1 0x40 MLOAD PUSH1 0x20 DUP2 DUP4 SUB SUB DUP2 MSTORE SWAP1 PUSH1 0x40 MSTORE DUP2 MSTORE PUSH1 0x20 ADD PUSH20 0x0 PUSH4 0x15CFEC7 DUP7 DUP10 PUSH1 0x40 MLOAD DUP4 PUSH4 0xFFFFFFFF AND PUSH1 0xE0 SHL DUP2 MSTORE PUSH1 0x4 ADD PUSH2 0xFF3 SWAP3 SWAP2 SWAP1 PUSH2 0x2535 JUMP JUMPDEST PUSH1 0x0 PUSH1 0x40 MLOAD DUP1 DUP4 SUB DUP2 DUP7 GAS DELEGATECALL ISZERO DUP1 ISZERO PUSH2 0x1010 JUMPI RETURNDATASIZE PUSH1 0x0 DUP1 RETURNDATACOPY RETURNDATASIZE PUSH1 0x0 REVERT JUMPDEST POP POP POP POP PUSH1 0x40 MLOAD RETURNDATASIZE PUSH1 0x0 DUP3 RETURNDATACOPY RETURNDATASIZE PUSH1 0x1F NOT PUSH1 0x1F DUP3 ADD AND DUP3 ADD DUP1 PUSH1 0x40 MSTORE POP DUP2 ADD SWAP1 PUSH2 0x1039 SWAP2 SWAP1 PUSH2 0x1EE4 JUMP JUMPDEST DUP2 MSTORE PUSH1 0x20 ADD DUP6 PUSH1 0xFF AND DUP2 MSTORE PUSH1 0x20 ADD DUP4 PUSH20 0xFFFFFFFFFFFFFFFFFFFFFFFFFFFFFFFFFFFFFFFF AND DUP2 MSTORE PUSH1 0x20 ADD DUP3 DUP2 MSTORE POP PUSH1 0x1 PUSH1 0x0 DUP4 DUP2 MSTORE PUSH1 0x20 ADD SWAP1 DUP2 MSTORE PUSH1 0x20 ADD PUSH1 0x0 KECCAK256 PUSH1 0x0 DUP3 ADD MLOAD DUP2 PUSH1 0x0 ADD SWAP1 DUP2 PUSH2 0x108F SWAP2 SWAP1 PUSH2 0x2172 JUMP JUMPDEST POP PUSH1 0x20 DUP3 ADD MLOAD DUP2 PUSH1 0x1 ADD SWAP1 DUP2 PUSH2 0x10A5 SWAP2 SWAP1 PUSH2 0x2172 JUMP JUMPDEST POP PUSH1 0x40 DUP3 ADD MLOAD DUP2 PUSH1 0x2 ADD SWAP1 DUP2 PUSH2 0x10BB SWAP2 SWAP1 PUSH2 0x2172 JUMP JUMPDEST POP PUSH1 0x60 DUP3 ADD MLOAD DUP2 PUSH1 0x3 ADD SWAP1 DUP2 PUSH2 0x10D1 SWAP2 SWAP1 PUSH2 0x2172 JUMP JUMPDEST POP PUSH1 0x80 DUP3 ADD MLOAD DUP2 PUSH1 0x4 ADD SWAP1 DUP2 PUSH2 0x10E7 SWAP2 SWAP1 PUSH2 0x2172 JUMP JUMPDEST POP PUSH1 0xA0 DUP3 ADD MLOAD DUP2 PUSH1 0x5 ADD PUSH1 0x0 PUSH2 0x100 EXP DUP2 SLOAD DUP2 PUSH1 0xFF MUL NOT AND SWAP1 DUP4 PUSH1 0xFF AND MUL OR SWAP1 SSTORE POP PUSH1 0xC0 DUP3 ADD MLOAD DUP2 PUSH1 0x5 ADD PUSH1 0x1 PUSH2 0x100 EXP DUP2 SLOAD DUP2 PUSH20 0xFFFFFFFFFFFFFFFFFFFFFFFFFFFFFFFFFFFFFFFF MUL NOT AND SWAP1 DUP4 PUSH20 0xFFFFFFFFFFFFFFFFFFFFFFFFFFFFFFFFFFFFFFFF AND MUL OR SWAP1 SSTORE POP PUSH1 0xE0 DUP3 ADD MLOAD DUP2 PUSH1 0x6 ADD SSTORE SWAP1 POP POP PUSH2 0x12AC JUMP JUMPDEST PUSH1 0x40 MLOAD DUP1 PUSH2 0x100 ADD PUSH1 0x40 MSTORE DUP1 DUP10 DUP2 MSTORE PUSH1 0x20 ADD DUP9 DUP2 MSTORE PUSH1 0x20 ADD DUP8 DUP2 MSTORE PUSH1 0x20 ADD DUP7 DUP2 MSTORE PUSH1 0x20 ADD DUP5 DUP2 MSTORE PUSH1 0x20 ADD DUP6 PUSH1 0xFF AND DUP2 MSTORE PUSH1 0x20 ADD DUP4 PUSH20 0xFFFFFFFFFFFFFFFFFFFFFFFFFFFFFFFFFFFFFFFF AND DUP2 MSTORE PUSH1 0x20 ADD DUP3 DUP2 MSTORE POP PUSH1 0x1 PUSH1 0x0 DUP4 DUP2 MSTORE PUSH1 0x20 ADD SWAP1 DUP2 MSTORE PUSH1 0x20 ADD PUSH1 0x0 KECCAK256 PUSH1 0x0 DUP3 ADD MLOAD DUP2 PUSH1 0x0 ADD SWAP1 DUP2 PUSH2 0x11DD SWAP2 SWAP1 PUSH2 0x2172 JUMP JUMPDEST POP PUSH1 0x20 DUP3 ADD MLOAD DUP2 PUSH1 0x1 ADD SWAP1 DUP2 PUSH2 0x11F3 SWAP2 SWAP1 PUSH2 0x2172 JUMP JUMPDEST POP PUSH1 0x40 DUP3 ADD MLOAD DUP2 PUSH1 0x2 ADD SWAP1 DUP2 PUSH2 0x1209 SWAP2 SWAP1 PUSH2 0x2172 JUMP JUMPDEST POP PUSH1 0x60 DUP3 ADD MLOAD DUP2 PUSH1 0x3 ADD SWAP1 DUP2 PUSH2 0x121F SWAP2 SWAP1 PUSH2 0x2172 JUMP JUMPDEST POP PUSH1 0x80 DUP3 ADD MLOAD DUP2 PUSH1 0x4 ADD SWAP1 DUP2 PUSH2 0x1235 SWAP2 SWAP1 PUSH2 0x2172 JUMP JUMPDEST POP PUSH1 0xA0 DUP3 ADD MLOAD DUP2 PUSH1 0x5 ADD PUSH1 0x0 PUSH2 0x100 EXP DUP2 SLOAD DUP2 PUSH1 0xFF MUL NOT AND SWAP1 DUP4 PUSH1 0xFF AND MUL OR SWAP1 SSTORE POP PUSH1 0xC0 DUP3 ADD MLOAD DUP2 PUSH1 0x5 ADD PUSH1 0x1 PUSH2 0x100 EXP DUP2 SLOAD DUP2 PUSH20 0xFFFFFFFFFFFFFFFFFFFFFFFFFFFFFFFFFFFFFFFF MUL NOT AND SWAP1 DUP4 PUSH20 0xFFFFFFFFFFFFFFFFFFFFFFFFFFFFFFFFFFFFFFFF AND MUL OR SWAP1 SSTORE POP PUSH1 0xE0 DUP3 ADD MLOAD DUP2 PUSH1 0x6 ADD SSTORE SWAP1 POP POP JUMPDEST POP POP POP POP POP POP POP POP JUMP JUMPDEST CALLER PUSH20 0xFFFFFFFFFFFFFFFFFFFFFFFFFFFFFFFFFFFFFFFF AND PUSH1 0x0 DUP1 SLOAD SWAP1 PUSH2 0x100 EXP SWAP1 DIV PUSH20 0xFFFFFFFFFFFFFFFFFFFFFFFFFFFFFFFFFFFFFFFF AND PUSH20 0xFFFFFFFFFFFFFFFFFFFFFFFFFFFFFFFFFFFFFFFF AND EQ PUSH2 0x1344 JUMPI PUSH1 0x40 MLOAD PUSH32 0x8C379A000000000000000000000000000000000000000000000000000000000 DUP2 MSTORE PUSH1 0x4 ADD PUSH2 0x133B SWAP1 PUSH2 0x25B8 JUMP JUMPDEST PUSH1 0x40 MLOAD DUP1 SWAP2 SUB SWAP1 REVERT JUMPDEST JUMP JUMPDEST PUSH1 0x60 PUSH1 0x0 PUSH1 0x1 PUSH2 0x1355 DUP5 PUSH2 0x1414 JUMP JUMPDEST ADD SWAP1 POP PUSH1 0x0 DUP2 PUSH8 0xFFFFFFFFFFFFFFFF DUP2 GT ISZERO PUSH2 0x1374 JUMPI PUSH2 0x1373 PUSH2 0x162D JUMP JUMPDEST JUMPDEST PUSH1 0x40 MLOAD SWAP1 DUP1 DUP3 MSTORE DUP1 PUSH1 0x1F ADD PUSH1 0x1F NOT AND PUSH1 0x20 ADD DUP3 ADD PUSH1 0x40 MSTORE DUP1 ISZERO PUSH2 0x13A6 JUMPI DUP2 PUSH1 0x20 ADD PUSH1 0x1 DUP3 MUL DUP1 CALLDATASIZE DUP4 CALLDATACOPY DUP1 DUP3 ADD SWAP2 POP POP SWAP1 POP JUMPDEST POP SWAP1 POP PUSH1 0x0 DUP3 PUSH1 0x20 ADD DUP3 ADD SWAP1 POP JUMPDEST PUSH1 0x1 ISZERO PUSH2 0x1409 JUMPI DUP1 DUP1 PUSH1 0x1 SWAP1 SUB SWAP2 POP POP PUSH32 0x3031323334353637383961626364656600000000000000000000000000000000 PUSH1 0xA DUP7 MOD BYTE DUP2 MSTORE8 PUSH1 0xA DUP6 DUP2 PUSH2 0x13FD JUMPI PUSH2 0x13FC PUSH2 0x25D8 JUMP JUMPDEST JUMPDEST DIV SWAP5 POP PUSH1 0x0 DUP6 SUB PUSH2 0x13B4 JUMPI JUMPDEST DUP2 SWAP4 POP POP POP POP SWAP2 SWAP1 POP JUMP JUMPDEST PUSH1 0x0 DUP1 PUSH1 0x0 SWAP1 POP PUSH27 0x184F03E93FF9F4DAA797ED6E38ED64BF6A1F010000000000000000 DUP4 LT PUSH2 0x1472 JUMPI PUSH27 0x184F03E93FF9F4DAA797ED6E38ED64BF6A1F010000000000000000 DUP4 DUP2 PUSH2 0x1468 JUMPI PUSH2 0x1467 PUSH2 0x25D8 JUMP JUMPDEST JUMPDEST DIV SWAP3 POP PUSH1 0x40 DUP2 ADD SWAP1 POP JUMPDEST PUSH14 0x4EE2D6D415B85ACEF8100000000 DUP4 LT PUSH2 0x14AF JUMPI PUSH14 0x4EE2D6D415B85ACEF8100000000 DUP4 DUP2 PUSH2 0x14A5 JUMPI PUSH2 0x14A4 PUSH2 0x25D8 JUMP JUMPDEST JUMPDEST DIV SWAP3 POP PUSH1 0x20 DUP2 ADD SWAP1 POP JUMPDEST PUSH7 0x2386F26FC10000 DUP4 LT PUSH2 0x14DE JUMPI PUSH7 0x2386F26FC10000 DUP4 DUP2 PUSH2 0x14D4 JUMPI PUSH2 0x14D3 PUSH2 0x25D8 JUMP JUMPDEST JUMPDEST DIV SWAP3 POP PUSH1 0x10 DUP2 ADD SWAP1 POP JUMPDEST PUSH4 0x5F5E100 DUP4 LT PUSH2 0x1507 JUMPI PUSH4 0x5F5E100 DUP4 DUP2 PUSH2 0x14FD JUMPI PUSH2 0x14FC PUSH2 0x25D8 JUMP JUMPDEST JUMPDEST DIV SWAP3 POP PUSH1 0x8 DUP2 ADD SWAP1 POP JUMPDEST PUSH2 0x2710 DUP4 LT PUSH2 0x152C JUMPI PUSH2 0x2710 DUP4 DUP2 PUSH2 0x1522 JUMPI PUSH2 0x1521 PUSH2 0x25D8 JUMP JUMPDEST JUMPDEST DIV SWAP3 POP PUSH1 0x4 DUP2 ADD SWAP1 POP JUMPDEST PUSH1 0x64 DUP4 LT PUSH2 0x154F JUMPI PUSH1 0x64 DUP4 DUP2 PUSH2 0x1545 JUMPI PUSH2 0x1544 PUSH2 0x25D8 JUMP JUMPDEST JUMPDEST DIV SWAP3 POP PUSH1 0x2 DUP2 ADD SWAP1 POP JUMPDEST PUSH1 0xA DUP4 LT PUSH2 0x155E JUMPI PUSH1 0x1 DUP2 ADD SWAP1 POP JUMPDEST DUP1 SWAP2 POP POP SWAP2 SWAP1 POP JUMP JUMPDEST PUSH1 0x40 MLOAD DUP1 PUSH2 0x100 ADD PUSH1 0x40 MSTORE DUP1 PUSH1 0x60 DUP2 MSTORE PUSH1 0x20 ADD PUSH1 0x60 DUP2 MSTORE PUSH1 0x20 ADD PUSH1 0x60 DUP2 MSTORE PUSH1 0x20 ADD PUSH1 0x60 DUP2 MSTORE PUSH1 0x20 ADD PUSH1 0x60 DUP2 MSTORE PUSH1 0x20 ADD PUSH1 0x0 PUSH1 0xFF AND DUP2 MSTORE PUSH1 0x20 ADD PUSH1 0x0 PUSH20 0xFFFFFFFFFFFFFFFFFFFFFFFFFFFFFFFFFFFFFFFF AND DUP2 MSTORE PUSH1 0x20 ADD PUSH1 0x0 DUP1 NOT AND DUP2 MSTORE POP SWAP1 JUMP JUMPDEST PUSH1 0x0 PUSH1 0x40 MLOAD SWAP1 POP SWAP1 JUMP JUMPDEST PUSH1 0x0 DUP1 REVERT JUMPDEST PUSH1 0x0 DUP1 REVERT JUMPDEST PUSH1 0x0 DUP2 SWAP1 POP SWAP2 SWAP1 POP JUMP JUMPDEST PUSH2 0x15EF DUP2 PUSH2 0x15DC JUMP JUMPDEST DUP2 EQ PUSH2 0x15FA JUMPI PUSH1 0x0 DUP1 REVERT JUMPDEST POP JUMP JUMPDEST PUSH1 0x0 DUP2 CALLDATALOAD SWAP1 POP PUSH2 0x160C DUP2 PUSH2 0x15E6 JUMP JUMPDEST SWAP3 SWAP2 POP POP JUMP JUMPDEST PUSH1 0x0 DUP1 REVERT JUMPDEST PUSH1 0x0 DUP1 REVERT JUMPDEST PUSH1 0x0 PUSH1 0x1F NOT PUSH1 0x1F DUP4 ADD AND SWAP1 POP SWAP2 SWAP1 POP JUMP JUMPDEST PUSH32 0x4E487B7100000000000000000000000000000000000000000000000000000000 PUSH1 0x0 MSTORE PUSH1 0x41 PUSH1 0x4 MSTORE PUSH1 0x24 PUSH1 0x0 REVERT JUMPDEST PUSH2 0x1665 DUP3 PUSH2 0x161C JUMP JUMPDEST DUP2 ADD DUP2 DUP2 LT PUSH8 0xFFFFFFFFFFFFFFFF DUP3 GT OR ISZERO PUSH2 0x1684 JUMPI PUSH2 0x1683 PUSH2 0x162D JUMP JUMPDEST JUMPDEST DUP1 PUSH1 0x40 MSTORE POP POP POP JUMP JUMPDEST PUSH1 0x0 PUSH2 0x1697 PUSH2 0x15C8 JUMP JUMPDEST SWAP1 POP PUSH2 0x16A3 DUP3 DUP3 PUSH2 0x165C JUMP JUMPDEST SWAP2 SWAP1 POP JUMP JUMPDEST PUSH1 0x0 PUSH8 0xFFFFFFFFFFFFFFFF DUP3 GT ISZERO PUSH2 0x16C3 JUMPI PUSH2 0x16C2 PUSH2 0x162D JUMP JUMPDEST JUMPDEST PUSH2 0x16CC DUP3 PUSH2 0x161C JUMP JUMPDEST SWAP1 POP PUSH1 0x20 DUP2 ADD SWAP1 POP SWAP2 SWAP1 POP JUMP JUMPDEST DUP3 DUP2 DUP4 CALLDATACOPY PUSH1 0x0 DUP4 DUP4 ADD MSTORE POP POP POP JUMP JUMPDEST PUSH1 0x0 PUSH2 0x16FB PUSH2 0x16F6 DUP5 PUSH2 0x16A8 JUMP JUMPDEST PUSH2 0x168D JUMP JUMPDEST SWAP1 POP DUP3 DUP2 MSTORE PUSH1 0x20 DUP2 ADD DUP5 DUP5 DUP5 ADD GT ISZERO PUSH2 0x1717 JUMPI PUSH2 0x1716 PUSH2 0x1617 JUMP JUMPDEST JUMPDEST PUSH2 0x1722 DUP5 DUP3 DUP6 PUSH2 0x16D9 JUMP JUMPDEST POP SWAP4 SWAP3 POP POP POP JUMP JUMPDEST PUSH1 0x0 DUP3 PUSH1 0x1F DUP4 ADD SLT PUSH2 0x173F JUMPI PUSH2 0x173E PUSH2 0x1612 JUMP JUMPDEST JUMPDEST DUP2 CALLDATALOAD PUSH2 0x174F DUP5 DUP3 PUSH1 0x20 DUP7 ADD PUSH2 0x16E8 JUMP JUMPDEST SWAP2 POP POP SWAP3 SWAP2 POP POP JUMP JUMPDEST PUSH1 0x0 DUP1 PUSH1 0x40 DUP4 DUP6 SUB SLT ISZERO PUSH2 0x176F JUMPI PUSH2 0x176E PUSH2 0x15D2 JUMP JUMPDEST JUMPDEST PUSH1 0x0 PUSH2 0x177D DUP6 DUP3 DUP7 ADD PUSH2 0x15FD JUMP JUMPDEST SWAP3 POP POP PUSH1 0x20 DUP4 ADD CALLDATALOAD PUSH8 0xFFFFFFFFFFFFFFFF DUP2 GT ISZERO PUSH2 0x179E JUMPI PUSH2 0x179D PUSH2 0x15D7 JUMP JUMPDEST JUMPDEST PUSH2 0x17AA DUP6 DUP3 DUP7 ADD PUSH2 0x172A JUMP JUMPDEST SWAP2 POP POP SWAP3 POP SWAP3 SWAP1 POP JUMP JUMPDEST PUSH1 0x0 DUP2 MLOAD SWAP1 POP SWAP2 SWAP1 POP JUMP JUMPDEST PUSH1 0x0 DUP3 DUP3 MSTORE PUSH1 0x20 DUP3 ADD SWAP1 POP SWAP3 SWAP2 POP POP JUMP JUMPDEST PUSH1 0x0 JUMPDEST DUP4 DUP2 LT ISZERO PUSH2 0x17EE JUMPI DUP1 DUP3 ADD MLOAD DUP2 DUP5 ADD MSTORE PUSH1 0x20 DUP2 ADD SWAP1 POP PUSH2 0x17D3 JUMP JUMPDEST PUSH1 0x0 DUP5 DUP5 ADD MSTORE POP POP POP POP JUMP JUMPDEST PUSH1 0x0 PUSH2 0x1805 DUP3 PUSH2 0x17B4 JUMP JUMPDEST PUSH2 0x180F DUP2 DUP6 PUSH2 0x17BF JUMP JUMPDEST SWAP4 POP PUSH2 0x181F DUP2 DUP6 PUSH1 0x20 DUP7 ADD PUSH2 0x17D0 JUMP JUMPDEST PUSH2 0x1828 DUP2 PUSH2 0x161C JUMP JUMPDEST DUP5 ADD SWAP2 POP POP SWAP3 SWAP2 POP POP JUMP JUMPDEST PUSH1 0x0 PUSH1 0xFF DUP3 AND SWAP1 POP SWAP2 SWAP1 POP JUMP JUMPDEST PUSH2 0x1849 DUP2 PUSH2 0x1833 JUMP JUMPDEST DUP3 MSTORE POP POP JUMP JUMPDEST PUSH1 0x0 PUSH20 0xFFFFFFFFFFFFFFFFFFFFFFFFFFFFFFFFFFFFFFFF DUP3 AND SWAP1 POP SWAP2 SWAP1 POP JUMP JUMPDEST PUSH1 0x0 PUSH2 0x187A DUP3 PUSH2 0x184F JUMP JUMPDEST SWAP1 POP SWAP2 SWAP1 POP JUMP JUMPDEST PUSH2 0x188A DUP2 PUSH2 0x186F JUMP JUMPDEST DUP3 MSTORE POP POP JUMP JUMPDEST PUSH2 0x1899 DUP2 PUSH2 0x15DC JUMP JUMPDEST DUP3 MSTORE POP POP JUMP JUMPDEST PUSH1 0x0 PUSH2 0x100 DUP4 ADD PUSH1 0x0 DUP4 ADD MLOAD DUP5 DUP3 SUB PUSH1 0x0 DUP7 ADD MSTORE PUSH2 0x18BD DUP3 DUP3 PUSH2 0x17FA JUMP JUMPDEST SWAP2 POP POP PUSH1 0x20 DUP4 ADD MLOAD DUP5 DUP3 SUB PUSH1 0x20 DUP7 ADD MSTORE PUSH2 0x18D7 DUP3 DUP3 PUSH2 0x17FA JUMP JUMPDEST SWAP2 POP POP PUSH1 0x40 DUP4 ADD MLOAD DUP5 DUP3 SUB PUSH1 0x40 DUP7 ADD MSTORE PUSH2 0x18F1 DUP3 DUP3 PUSH2 0x17FA JUMP JUMPDEST SWAP2 POP POP PUSH1 0x60 DUP4 ADD MLOAD DUP5 DUP3 SUB PUSH1 0x60 DUP7 ADD MSTORE PUSH2 0x190B DUP3 DUP3 PUSH2 0x17FA JUMP JUMPDEST SWAP2 POP POP PUSH1 0x80 DUP4 ADD MLOAD DUP5 DUP3 SUB PUSH1 0x80 DUP7 ADD MSTORE PUSH2 0x1925 DUP3 DUP3 PUSH2 0x17FA JUMP JUMPDEST SWAP2 POP POP PUSH1 0xA0 DUP4 ADD MLOAD PUSH2 0x193A PUSH1 0xA0 DUP7 ADD DUP3 PUSH2 0x1840 JUMP JUMPDEST POP PUSH1 0xC0 DUP4 ADD MLOAD PUSH2 0x194D PUSH1 0xC0 DUP7 ADD DUP3 PUSH2 0x1881 JUMP JUMPDEST POP PUSH1 0xE0 DUP4 ADD MLOAD PUSH2 0x1960 PUSH1 0xE0 DUP7 ADD DUP3 PUSH2 0x1890 JUMP JUMPDEST POP DUP1 SWAP2 POP POP SWAP3 SWAP2 POP POP JUMP JUMPDEST PUSH1 0x0 PUSH1 0x20 DUP3 ADD SWAP1 POP DUP2 DUP2 SUB PUSH1 0x0 DUP4 ADD MSTORE PUSH2 0x1985 DUP2 DUP5 PUSH2 0x189F JUMP JUMPDEST SWAP1 POP SWAP3 SWAP2 POP POP JUMP JUMPDEST PUSH1 0x0 DUP1 PUSH1 0x40 DUP4 DUP6 SUB SLT ISZERO PUSH2 0x19A4 JUMPI PUSH2 0x19A3 PUSH2 0x15D2 JUMP JUMPDEST JUMPDEST PUSH1 0x0 DUP4 ADD CALLDATALOAD PUSH8 0xFFFFFFFFFFFFFFFF DUP2 GT ISZERO PUSH2 0x19C2 JUMPI PUSH2 0x19C1 PUSH2 0x15D7 JUMP JUMPDEST JUMPDEST PUSH2 0x19CE DUP6 DUP3 DUP7 ADD PUSH2 0x172A JUMP JUMPDEST SWAP3 POP POP PUSH1 0x20 DUP4 ADD CALLDATALOAD PUSH8 0xFFFFFFFFFFFFFFFF DUP2 GT ISZERO PUSH2 0x19EF JUMPI PUSH2 0x19EE PUSH2 0x15D7 JUMP JUMPDEST JUMPDEST PUSH2 0x19FB DUP6 DUP3 DUP7 ADD PUSH2 0x172A JUMP JUMPDEST SWAP2 POP POP SWAP3 POP SWAP3 SWAP1 POP JUMP JUMPDEST PUSH1 0x0 DUP2 ISZERO ISZERO SWAP1 POP SWAP2 SWAP1 POP JUMP JUMPDEST PUSH2 0x1A1A DUP2 PUSH2 0x1A05 JUMP JUMPDEST DUP3 MSTORE POP POP JUMP JUMPDEST PUSH1 0x0 PUSH1 0x20 DUP3 ADD SWAP1 POP PUSH2 0x1A35 PUSH1 0x0 DUP4 ADD DUP5 PUSH2 0x1A11 JUMP JUMPDEST SWAP3 SWAP2 POP POP JUMP JUMPDEST PUSH2 0x1A44 DUP2 PUSH2 0x186F JUMP JUMPDEST DUP2 EQ PUSH2 0x1A4F JUMPI PUSH1 0x0 DUP1 REVERT JUMPDEST POP JUMP JUMPDEST PUSH1 0x0 DUP2 CALLDATALOAD SWAP1 POP PUSH2 0x1A61 DUP2 PUSH2 0x1A3B JUMP JUMPDEST SWAP3 SWAP2 POP POP JUMP JUMPDEST PUSH1 0x0 DUP1 PUSH1 0x0 DUP1 PUSH1 0x0 DUP1 PUSH1 0xC0 DUP8 DUP10 SUB SLT ISZERO PUSH2 0x1A84 JUMPI PUSH2 0x1A83 PUSH2 0x15D2 JUMP JUMPDEST JUMPDEST PUSH1 0x0 PUSH2 0x1A92 DUP10 DUP3 DUP11 ADD PUSH2 0x15FD JUMP JUMPDEST SWAP7 POP POP PUSH1 0x20 DUP8 ADD CALLDATALOAD PUSH8 0xFFFFFFFFFFFFFFFF DUP2 GT ISZERO PUSH2 0x1AB3 JUMPI PUSH2 0x1AB2 PUSH2 0x15D7 JUMP JUMPDEST JUMPDEST PUSH2 0x1ABF DUP10 DUP3 DUP11 ADD PUSH2 0x172A JUMP JUMPDEST SWAP6 POP POP PUSH1 0x40 DUP8 ADD CALLDATALOAD PUSH8 0xFFFFFFFFFFFFFFFF DUP2 GT ISZERO PUSH2 0x1AE0 JUMPI PUSH2 0x1ADF PUSH2 0x15D7 JUMP JUMPDEST JUMPDEST PUSH2 0x1AEC DUP10 DUP3 DUP11 ADD PUSH2 0x172A JUMP JUMPDEST SWAP5 POP POP PUSH1 0x60 DUP8 ADD CALLDATALOAD PUSH8 0xFFFFFFFFFFFFFFFF DUP2 GT ISZERO PUSH2 0x1B0D JUMPI PUSH2 0x1B0C PUSH2 0x15D7 JUMP JUMPDEST JUMPDEST PUSH2 0x1B19 DUP10 DUP3 DUP11 ADD PUSH2 0x172A JUMP JUMPDEST SWAP4 POP POP PUSH1 0x80 PUSH2 0x1B2A DUP10 DUP3 DUP11 ADD PUSH2 0x1A52 JUMP JUMPDEST SWAP3 POP POP PUSH1 0xA0 DUP8 ADD CALLDATALOAD PUSH8 0xFFFFFFFFFFFFFFFF DUP2 GT ISZERO PUSH2 0x1B4B JUMPI PUSH2 0x1B4A PUSH2 0x15D7 JUMP JUMPDEST JUMPDEST PUSH2 0x1B57 DUP10 DUP3 DUP11 ADD PUSH2 0x172A JUMP JUMPDEST SWAP2 POP POP SWAP3 SWAP6 POP SWAP3 SWAP6 POP SWAP3 SWAP6 JUMP JUMPDEST PUSH2 0x1B6D DUP2 PUSH2 0x1833 JUMP JUMPDEST DUP2 EQ PUSH2 0x1B78 JUMPI PUSH1 0x0 DUP1 REVERT JUMPDEST POP JUMP JUMPDEST PUSH1 0x0 DUP2 CALLDATALOAD SWAP1 POP PUSH2 0x1B8A DUP2 PUSH2 0x1B64 JUMP JUMPDEST SWAP3 SWAP2 POP POP JUMP JUMPDEST PUSH1 0x0 DUP1 PUSH1 0x0 DUP1 PUSH1 0x0 DUP1 PUSH1 0x0 PUSH1 0xE0 DUP9 DUP11 SUB SLT ISZERO PUSH2 0x1BAF JUMPI PUSH2 0x1BAE PUSH2 0x15D2 JUMP JUMPDEST JUMPDEST PUSH1 0x0 DUP9 ADD CALLDATALOAD PUSH8 0xFFFFFFFFFFFFFFFF DUP2 GT ISZERO PUSH2 0x1BCD JUMPI PUSH2 0x1BCC PUSH2 0x15D7 JUMP JUMPDEST JUMPDEST PUSH2 0x1BD9 DUP11 DUP3 DUP12 ADD PUSH2 0x172A JUMP JUMPDEST SWAP8 POP POP PUSH1 0x20 DUP9 ADD CALLDATALOAD PUSH8 0xFFFFFFFFFFFFFFFF DUP2 GT ISZERO PUSH2 0x1BFA JUMPI PUSH2 0x1BF9 PUSH2 0x15D7 JUMP JUMPDEST JUMPDEST PUSH2 0x1C06 DUP11 DUP3 DUP12 ADD PUSH2 0x172A JUMP JUMPDEST SWAP7 POP POP PUSH1 0x40 DUP9 ADD CALLDATALOAD PUSH8 0xFFFFFFFFFFFFFFFF DUP2 GT ISZERO PUSH2 0x1C27 JUMPI PUSH2 0x1C26 PUSH2 0x15D7 JUMP JUMPDEST JUMPDEST PUSH2 0x1C33 DUP11 DUP3 DUP12 ADD PUSH2 0x172A JUMP JUMPDEST SWAP6 POP POP PUSH1 0x60 DUP9 ADD CALLDATALOAD PUSH8 0xFFFFFFFFFFFFFFFF DUP2 GT ISZERO PUSH2 0x1C54 JUMPI PUSH2 0x1C53 PUSH2 0x15D7 JUMP JUMPDEST JUMPDEST PUSH2 0x1C60 DUP11 DUP3 DUP12 ADD PUSH2 0x172A JUMP JUMPDEST SWAP5 POP POP PUSH1 0x80 PUSH2 0x1C71 DUP11 DUP3 DUP12 ADD PUSH2 0x1B7B JUMP JUMPDEST SWAP4 POP POP PUSH1 0xA0 DUP9 ADD CALLDATALOAD PUSH8 0xFFFFFFFFFFFFFFFF DUP2 GT ISZERO PUSH2 0x1C92 JUMPI PUSH2 0x1C91 PUSH2 0x15D7 JUMP JUMPDEST JUMPDEST PUSH2 0x1C9E DUP11 DUP3 DUP12 ADD PUSH2 0x172A JUMP JUMPDEST SWAP3 POP POP PUSH1 0xC0 PUSH2 0x1CAF DUP11 DUP3 DUP12 ADD PUSH2 0x1A52 JUMP JUMPDEST SWAP2 POP POP SWAP3 SWAP6 SWAP9 SWAP2 SWAP5 SWAP8 POP SWAP3 SWAP6 POP JUMP JUMPDEST PUSH32 0x4E487B7100000000000000000000000000000000000000000000000000000000 PUSH1 0x0 MSTORE PUSH1 0x22 PUSH1 0x4 MSTORE PUSH1 0x24 PUSH1 0x0 REVERT JUMPDEST PUSH1 0x0 PUSH1 0x2 DUP3 DIV SWAP1 POP PUSH1 0x1 DUP3 AND DUP1 PUSH2 0x1D05 JUMPI PUSH1 0x7F DUP3 AND SWAP2 POP JUMPDEST PUSH1 0x20 DUP3 LT DUP2 SUB PUSH2 0x1D18 JUMPI PUSH2 0x1D17 PUSH2 0x1CBE JUMP JUMPDEST JUMPDEST POP SWAP2 SWAP1 POP JUMP JUMPDEST PUSH1 0x0 DUP3 DUP3 MSTORE PUSH1 0x20 DUP3 ADD SWAP1 POP SWAP3 SWAP2 POP POP JUMP JUMPDEST PUSH1 0x0 DUP2 SWAP1 POP DUP2 PUSH1 0x0 MSTORE PUSH1 0x20 PUSH1 0x0 KECCAK256 SWAP1 POP SWAP2 SWAP1 POP JUMP JUMPDEST PUSH1 0x0 DUP2 SLOAD PUSH2 0x1D51 DUP2 PUSH2 0x1CED JUMP JUMPDEST PUSH2 0x1D5B DUP2 DUP7 PUSH2 0x1D1E JUMP JUMPDEST SWAP5 POP PUSH1 0x1 DUP3 AND PUSH1 0x0 DUP2 EQ PUSH2 0x1D76 JUMPI PUSH1 0x1 DUP2 EQ PUSH2 0x1D8C JUMPI PUSH2 0x1DBF JUMP JUMPDEST PUSH1 0xFF NOT DUP4 AND DUP7 MSTORE DUP2 ISZERO ISZERO PUSH1 0x20 MUL DUP7 ADD SWAP4 POP PUSH2 0x1DBF JUMP JUMPDEST PUSH2 0x1D95 DUP6 PUSH2 0x1D2F JUMP JUMPDEST PUSH1 0x0 JUMPDEST DUP4 DUP2 LT ISZERO PUSH2 0x1DB7 JUMPI DUP2 SLOAD DUP2 DUP10 ADD MSTORE PUSH1 0x1 DUP3 ADD SWAP2 POP PUSH1 0x20 DUP2 ADD SWAP1 POP PUSH2 0x1D98 JUMP JUMPDEST DUP1 DUP9 ADD SWAP6 POP POP POP JUMPDEST POP POP POP SWAP3 SWAP2 POP POP JUMP JUMPDEST PUSH1 0x0 DUP2 MLOAD SWAP1 POP SWAP2 SWAP1 POP JUMP JUMPDEST PUSH1 0x0 PUSH2 0x1DDE DUP3 PUSH2 0x1DC8 JUMP JUMPDEST PUSH2 0x1DE8 DUP2 DUP6 PUSH2 0x1D1E JUMP JUMPDEST SWAP4 POP PUSH2 0x1DF8 DUP2 DUP6 PUSH1 0x20 DUP7 ADD PUSH2 0x17D0 JUMP JUMPDEST PUSH2 0x1E01 DUP2 PUSH2 0x161C JUMP JUMPDEST DUP5 ADD SWAP2 POP POP SWAP3 SWAP2 POP POP JUMP JUMPDEST PUSH1 0x0 PUSH1 0x40 DUP3 ADD SWAP1 POP DUP2 DUP2 SUB PUSH1 0x0 DUP4 ADD MSTORE PUSH2 0x1E26 DUP2 DUP6 PUSH2 0x1D44 JUMP JUMPDEST SWAP1 POP DUP2 DUP2 SUB PUSH1 0x20 DUP4 ADD MSTORE PUSH2 0x1E3A DUP2 DUP5 PUSH2 0x1DD3 JUMP JUMPDEST SWAP1 POP SWAP4 SWAP3 POP POP POP JUMP JUMPDEST PUSH1 0x0 PUSH8 0xFFFFFFFFFFFFFFFF DUP3 GT ISZERO PUSH2 0x1E5E JUMPI PUSH2 0x1E5D PUSH2 0x162D JUMP JUMPDEST JUMPDEST PUSH2 0x1E67 DUP3 PUSH2 0x161C JUMP JUMPDEST SWAP1 POP PUSH1 0x20 DUP2 ADD SWAP1 POP SWAP2 SWAP1 POP JUMP JUMPDEST PUSH1 0x0 PUSH2 0x1E87 PUSH2 0x1E82 DUP5 PUSH2 0x1E43 JUMP JUMPDEST PUSH2 0x168D JUMP JUMPDEST SWAP1 POP DUP3 DUP2 MSTORE PUSH1 0x20 DUP2 ADD DUP5 DUP5 DUP5 ADD GT ISZERO PUSH2 0x1EA3 JUMPI PUSH2 0x1EA2 PUSH2 0x1617 JUMP JUMPDEST JUMPDEST PUSH2 0x1EAE DUP5 DUP3 DUP6 PUSH2 0x17D0 JUMP JUMPDEST POP SWAP4 SWAP3 POP POP POP JUMP JUMPDEST PUSH1 0x0 DUP3 PUSH1 0x1F DUP4 ADD SLT PUSH2 0x1ECB JUMPI PUSH2 0x1ECA PUSH2 0x1612 JUMP JUMPDEST JUMPDEST DUP2 MLOAD PUSH2 0x1EDB DUP5 DUP3 PUSH1 0x20 DUP7 ADD PUSH2 0x1E74 JUMP JUMPDEST SWAP2 POP POP SWAP3 SWAP2 POP POP JUMP JUMPDEST PUSH1 0x0 PUSH1 0x20 DUP3 DUP5 SUB SLT ISZERO PUSH2 0x1EFA JUMPI PUSH2 0x1EF9 PUSH2 0x15D2 JUMP JUMPDEST JUMPDEST PUSH1 0x0 DUP3 ADD MLOAD PUSH8 0xFFFFFFFFFFFFFFFF DUP2 GT ISZERO PUSH2 0x1F18 JUMPI PUSH2 0x1F17 PUSH2 0x15D7 JUMP JUMPDEST JUMPDEST PUSH2 0x1F24 DUP5 DUP3 DUP6 ADD PUSH2 0x1EB6 JUMP JUMPDEST SWAP2 POP POP SWAP3 SWAP2 POP POP JUMP JUMPDEST PUSH1 0x0 DUP2 SWAP1 POP SWAP3 SWAP2 POP POP JUMP JUMPDEST PUSH1 0x0 PUSH2 0x1F43 DUP3 PUSH2 0x17B4 JUMP JUMPDEST PUSH2 0x1F4D DUP2 DUP6 PUSH2 0x1F2D JUMP JUMPDEST SWAP4 POP PUSH2 0x1F5D DUP2 DUP6 PUSH1 0x20 DUP7 ADD PUSH2 0x17D0 JUMP JUMPDEST DUP1 DUP5 ADD SWAP2 POP POP SWAP3 SWAP2 POP POP JUMP JUMPDEST PUSH1 0x0 PUSH2 0x1F75 DUP3 DUP5 PUSH2 0x1F38 JUMP JUMPDEST SWAP2 POP DUP2 SWAP1 POP SWAP3 SWAP2 POP POP JUMP JUMPDEST PUSH1 0x0 DUP2 SWAP1 POP SWAP2 SWAP1 POP JUMP JUMPDEST PUSH2 0x1F9B PUSH2 0x1F96 DUP3 PUSH2 0x15DC JUMP JUMPDEST PUSH2 0x1F80 JUMP JUMPDEST DUP3 MSTORE POP POP JUMP JUMPDEST PUSH1 0x0 PUSH2 0x1FAD DUP3 DUP5 PUSH2 0x1F8A JUMP JUMPDEST PUSH1 0x20 DUP3 ADD SWAP2 POP DUP2 SWAP1 POP SWAP3 SWAP2 POP POP JUMP JUMPDEST PUSH1 0x0 DUP2 SWAP1 POP DUP2 PUSH1 0x0 MSTORE PUSH1 0x20 PUSH1 0x0 KECCAK256 SWAP1 POP SWAP2 SWAP1 POP JUMP JUMPDEST PUSH1 0x0 PUSH1 0x20 PUSH1 0x1F DUP4 ADD DIV SWAP1 POP SWAP2 SWAP1 POP JUMP JUMPDEST PUSH1 0x0 DUP3 DUP3 SHL SWAP1 POP SWAP3 SWAP2 POP POP JUMP JUMPDEST PUSH1 0x0 PUSH1 0x8 DUP4 MUL PUSH2 0x201E PUSH32 0xFFFFFFFFFFFFFFFFFFFFFFFFFFFFFFFFFFFFFFFFFFFFFFFFFFFFFFFFFFFFFFFF DUP3 PUSH2 0x1FE1 JUMP JUMPDEST PUSH2 0x2028 DUP7 DUP4 PUSH2 0x1FE1 JUMP JUMPDEST SWAP6 POP DUP1 NOT DUP5 AND SWAP4 POP DUP1 DUP7 AND DUP5 OR SWAP3 POP POP POP SWAP4 SWAP3 POP POP POP JUMP JUMPDEST PUSH1 0x0 DUP2 SWAP1 POP SWAP2 SWAP1 POP JUMP JUMPDEST PUSH1 0x0 DUP2 SWAP1 POP SWAP2 SWAP1 POP JUMP JUMPDEST PUSH1 0x0 PUSH2 0x206F PUSH2 0x206A PUSH2 0x2065 DUP5 PUSH2 0x2040 JUMP JUMPDEST PUSH2 0x204A JUMP JUMPDEST PUSH2 0x2040 JUMP JUMPDEST SWAP1 POP SWAP2 SWAP1 POP JUMP JUMPDEST PUSH1 0x0 DUP2 SWAP1 POP SWAP2 SWAP1 POP JUMP JUMPDEST PUSH2 0x2089 DUP4 PUSH2 0x2054 JUMP JUMPDEST PUSH2 0x209D PUSH2 0x2095 DUP3 PUSH2 0x2076 JUMP JUMPDEST DUP5 DUP5 SLOAD PUSH2 0x1FEE JUMP JUMPDEST DUP3 SSTORE POP POP POP POP JUMP JUMPDEST PUSH1 0x0 SWAP1 JUMP JUMPDEST PUSH2 0x20B2 PUSH2 0x20A5 JUMP JUMPDEST PUSH2 0x20BD DUP2 DUP5 DUP5 PUSH2 0x2080 JUMP JUMPDEST POP POP POP JUMP JUMPDEST JUMPDEST DUP2 DUP2 LT ISZERO PUSH2 0x20E1 JUMPI PUSH2 0x20D6 PUSH1 0x0 DUP3 PUSH2 0x20AA JUMP JUMPDEST PUSH1 0x1 DUP2 ADD SWAP1 POP PUSH2 0x20C3 JUMP JUMPDEST POP POP JUMP JUMPDEST PUSH1 0x1F DUP3 GT ISZERO PUSH2 0x2126 JUMPI PUSH2 0x20F7 DUP2 PUSH2 0x1FBC JUMP JUMPDEST PUSH2 0x2100 DUP5 PUSH2 0x1FD1 JUMP JUMPDEST DUP2 ADD PUSH1 0x20 DUP6 LT ISZERO PUSH2 0x210F JUMPI DUP2 SWAP1 POP JUMPDEST PUSH2 0x2123 PUSH2 0x211B DUP6 PUSH2 0x1FD1 JUMP JUMPDEST DUP4 ADD DUP3 PUSH2 0x20C2 JUMP JUMPDEST POP POP JUMPDEST POP POP POP JUMP JUMPDEST PUSH1 0x0 DUP3 DUP3 SHR SWAP1 POP SWAP3 SWAP2 POP POP JUMP JUMPDEST PUSH1 0x0 PUSH2 0x2149 PUSH1 0x0 NOT DUP5 PUSH1 0x8 MUL PUSH2 0x212B JUMP JUMPDEST NOT DUP1 DUP4 AND SWAP2 POP POP SWAP3 SWAP2 POP POP JUMP JUMPDEST PUSH1 0x0 PUSH2 0x2162 DUP4 DUP4 PUSH2 0x2138 JUMP JUMPDEST SWAP2 POP DUP3 PUSH1 0x2 MUL DUP3 OR SWAP1 POP SWAP3 SWAP2 POP POP JUMP JUMPDEST PUSH2 0x217B DUP3 PUSH2 0x17B4 JUMP JUMPDEST PUSH8 0xFFFFFFFFFFFFFFFF DUP2 GT ISZERO PUSH2 0x2194 JUMPI PUSH2 0x2193 PUSH2 0x162D JUMP JUMPDEST JUMPDEST PUSH2 0x219E DUP3 SLOAD PUSH2 0x1CED JUMP JUMPDEST PUSH2 0x21A9 DUP3 DUP3 DUP6 PUSH2 0x20E5 JUMP JUMPDEST PUSH1 0x0 PUSH1 0x20 SWAP1 POP PUSH1 0x1F DUP4 GT PUSH1 0x1 DUP2 EQ PUSH2 0x21DC JUMPI PUSH1 0x0 DUP5 ISZERO PUSH2 0x21CA JUMPI DUP3 DUP8 ADD MLOAD SWAP1 POP JUMPDEST PUSH2 0x21D4 DUP6 DUP3 PUSH2 0x2156 JUMP JUMPDEST DUP7 SSTORE POP PUSH2 0x223C JUMP JUMPDEST PUSH1 0x1F NOT DUP5 AND PUSH2 0x21EA DUP7 PUSH2 0x1FBC JUMP JUMPDEST PUSH1 0x0 JUMPDEST DUP3 DUP2 LT ISZERO PUSH2 0x2212 JUMPI DUP5 DUP10 ADD MLOAD DUP3 SSTORE PUSH1 0x1 DUP3 ADD SWAP2 POP PUSH1 0x20 DUP6 ADD SWAP5 POP PUSH1 0x20 DUP2 ADD SWAP1 POP PUSH2 0x21ED JUMP JUMPDEST DUP7 DUP4 LT ISZERO PUSH2 0x222F JUMPI DUP5 DUP10 ADD MLOAD PUSH2 0x222B PUSH1 0x1F DUP10 AND DUP3 PUSH2 0x2138 JUMP JUMPDEST DUP4 SSTORE POP JUMPDEST PUSH1 0x1 PUSH1 0x2 DUP9 MUL ADD DUP9 SSTORE POP POP POP JUMPDEST POP POP POP POP POP POP JUMP JUMPDEST PUSH1 0x0 DUP3 DUP3 MSTORE PUSH1 0x20 DUP3 ADD SWAP1 POP SWAP3 SWAP2 POP POP JUMP JUMPDEST PUSH32 0x496E76616C696420636F6D70616E792074797065000000000000000000000000 PUSH1 0x0 DUP3 ADD MSTORE POP JUMP JUMPDEST PUSH1 0x0 PUSH2 0x228B PUSH1 0x14 DUP4 PUSH2 0x2244 JUMP JUMPDEST SWAP2 POP PUSH2 0x2296 DUP3 PUSH2 0x2255 JUMP JUMPDEST PUSH1 0x20 DUP3 ADD SWAP1 POP SWAP2 SWAP1 POP JUMP JUMPDEST PUSH1 0x0 PUSH1 0x20 DUP3 ADD SWAP1 POP DUP2 DUP2 SUB PUSH1 0x0 DUP4 ADD MSTORE PUSH2 0x22BA DUP2 PUSH2 0x227E JUMP JUMPDEST SWAP1 POP SWAP2 SWAP1 POP JUMP JUMPDEST PUSH32 0x496E76616C69642053534E000000000000000000000000000000000000000000 PUSH1 0x0 DUP3 ADD MSTORE POP JUMP JUMPDEST PUSH1 0x0 PUSH2 0x22F7 PUSH1 0xB DUP4 PUSH2 0x2244 JUMP JUMPDEST SWAP2 POP PUSH2 0x2302 DUP3 PUSH2 0x22C1 JUMP JUMPDEST PUSH1 0x20 DUP3 ADD SWAP1 POP SWAP2 SWAP1 POP JUMP JUMPDEST PUSH1 0x0 PUSH1 0x20 DUP3 ADD SWAP1 POP DUP2 DUP2 SUB PUSH1 0x0 DUP4 ADD MSTORE PUSH2 0x2326 DUP2 PUSH2 0x22EA JUMP JUMPDEST SWAP1 POP SWAP2 SWAP1 POP JUMP JUMPDEST PUSH32 0x496E76616C6964206E616D650000000000000000000000000000000000000000 PUSH1 0x0 DUP3 ADD MSTORE POP JUMP JUMPDEST PUSH1 0x0 PUSH2 0x2363 PUSH1 0xC DUP4 PUSH2 0x2244 JUMP JUMPDEST SWAP2 POP PUSH2 0x236E DUP3 PUSH2 0x232D JUMP JUMPDEST PUSH1 0x20 DUP3 ADD SWAP1 POP SWAP2 SWAP1 POP JUMP JUMPDEST PUSH1 0x0 PUSH1 0x20 DUP3 ADD SWAP1 POP DUP2 DUP2 SUB PUSH1 0x0 DUP4 ADD MSTORE PUSH2 0x2392 DUP2 PUSH2 0x2356 JUMP JUMPDEST SWAP1 POP SWAP2 SWAP1 POP JUMP JUMPDEST PUSH32 0x496E76616C696420616464726573730000000000000000000000000000000000 PUSH1 0x0 DUP3 ADD MSTORE POP JUMP JUMPDEST PUSH1 0x0 PUSH2 0x23CF PUSH1 0xF DUP4 PUSH2 0x2244 JUMP JUMPDEST SWAP2 POP PUSH2 0x23DA DUP3 PUSH2 0x2399 JUMP JUMPDEST PUSH1 0x20 DUP3 ADD SWAP1 POP SWAP2 SWAP1 POP JUMP JUMPDEST PUSH1 0x0 PUSH1 0x20 DUP3 ADD SWAP1 POP DUP2 DUP2 SUB PUSH1 0x0 DUP4 ADD MSTORE PUSH2 0x23FE DUP2 PUSH2 0x23C2 JUMP JUMPDEST SWAP1 POP SWAP2 SWAP1 POP JUMP JUMPDEST PUSH32 0x50617373776F726420746F6F2073686F72740000000000000000000000000000 PUSH1 0x0 DUP3 ADD MSTORE POP JUMP JUMPDEST PUSH1 0x0 PUSH2 0x243B PUSH1 0x12 DUP4 PUSH2 0x2244 JUMP JUMPDEST SWAP2 POP PUSH2 0x2446 DUP3 PUSH2 0x2405 JUMP JUMPDEST PUSH1 0x20 DUP3 ADD SWAP1 POP SWAP2 SWAP1 POP JUMP JUMPDEST PUSH1 0x0 PUSH1 0x20 DUP3 ADD SWAP1 POP DUP2 DUP2 SUB PUSH1 0x0 DUP4 ADD MSTORE PUSH2 0x246A DUP2 PUSH2 0x242E JUMP JUMPDEST SWAP1 POP SWAP2 SWAP1 POP JUMP JUMPDEST PUSH32 0x50686F6E65206E756D62657220746F6F2073686F727400000000000000000000 PUSH1 0x0 DUP3 ADD MSTORE POP JUMP JUMPDEST PUSH1 0x0 PUSH2 0x24A7 PUSH1 0x16 DUP4 PUSH2 0x2244 JUMP JUMPDEST SWAP2 POP PUSH2 0x24B2 DUP3 PUSH2 0x2471 JUMP JUMPDEST PUSH1 0x20 DUP3 ADD SWAP1 POP SWAP2 SWAP1 POP JUMP JUMPDEST PUSH1 0x0 PUSH1 0x20 DUP3 ADD SWAP1 POP DUP2 DUP2 SUB PUSH1 0x0 DUP4 ADD MSTORE PUSH2 0x24D6 DUP2 PUSH2 0x249A JUMP JUMPDEST SWAP1 POP SWAP2 SWAP1 POP JUMP JUMPDEST PUSH1 0x0 PUSH2 0x24E9 DUP3 DUP10 PUSH2 0x1F38 JUMP JUMPDEST SWAP2 POP PUSH2 0x24F5 DUP3 DUP9 PUSH2 0x1F38 JUMP JUMPDEST SWAP2 POP PUSH2 0x2501 DUP3 DUP8 PUSH2 0x1F38 JUMP JUMPDEST SWAP2 POP PUSH2 0x250D DUP3 DUP7 PUSH2 0x1F38 JUMP JUMPDEST SWAP2 POP PUSH2 0x2519 DUP3 DUP6 PUSH2 0x1F38 JUMP JUMPDEST SWAP2 POP PUSH2 0x2525 DUP3 DUP5 PUSH2 0x1F38 JUMP JUMPDEST SWAP2 POP DUP2 SWAP1 POP SWAP8 SWAP7 POP POP POP POP POP POP POP JUMP JUMPDEST PUSH1 0x0 PUSH1 0x40 DUP3 ADD SWAP1 POP DUP2 DUP2 SUB PUSH1 0x0 DUP4 ADD MSTORE PUSH2 0x254F DUP2 DUP6 PUSH2 0x1DD3 JUMP JUMPDEST SWAP1 POP DUP2 DUP2 SUB PUSH1 0x20 DUP4 ADD MSTORE PUSH2 0x2563 DUP2 DUP5 PUSH2 0x1DD3 JUMP JUMPDEST SWAP1 POP SWAP4 SWAP3 POP POP POP JUMP JUMPDEST PUSH32 0x4E6F7420616C6C6F776564000000000000000000000000000000000000000000 PUSH1 0x0 DUP3 ADD MSTORE POP JUMP JUMPDEST PUSH1 0x0 PUSH2 0x25A2 PUSH1 0xB DUP4 PUSH2 0x2244 JUMP JUMPDEST SWAP2 POP PUSH2 0x25AD DUP3 PUSH2 0x256C JUMP JUMPDEST PUSH1 0x20 DUP3 ADD SWAP1 POP SWAP2 SWAP1 POP JUMP JUMPDEST PUSH1 0x0 PUSH1 0x20 DUP3 ADD SWAP1 POP DUP2 DUP2 SUB PUSH1 0x0 DUP4 ADD MSTORE PUSH2 0x25D1 DUP2 PUSH2 0x2595 JUMP JUMPDEST SWAP1 POP SWAP2 SWAP1 POP JUMP JUMPDEST PUSH32 0x4E487B7100000000000000000000000000000000000000000000000000000000 PUSH1 0x0 MSTORE PUSH1 0x12 PUSH1 0x4 MSTORE PUSH1 0x24 PUSH1 0x0 REVERT INVALID LOG2 PUSH5 0x6970667358 0x22 SLT KECCAK256 0xCB PUSH11 0xC1D7E928AD8E892E48EF92 0xD4 PUSH23 0x11A0BFD3093DB600B3B6F7C3E168708CA664736F6C6343 STOP ADDMOD SLT STOP CALLER "
				},
				"gasEstimates": {
					"creation": {
						"codeDepositCost": "1957800",
						"executionCost": "147920",
						"totalCost": "2105720"
					},
					"external": {
						"compare(string,string)": "infinite",
						"createAccount(string,string,string,string,uint8,string,address)": "infinite",
						"editUser(bytes32,string,string,string,address,string)": "infinite",
						"getUser(bytes32,string)": "infinite"
					},
					"internal": {
						"isOwner()": "infinite"
					}
				},
				"methodIdentifiers": {
					"compare(string,string)": "3a96fdd7",
					"createAccount(string,string,string,string,uint8,string,address)": "eefb8ab1",
					"editUser(bytes32,string,string,string,address,string)": "56bbe303",
					"getUser(bytes32,string)": "00131c4f"
				}
			},
			"storageLayout": {
				"storage": [
					{
						"astId": 1204,
						"contract": "auth.sol:Auth",
						"label": "owner",
						"offset": 0,
						"slot": "0",
						"type": "t_address"
					},
					{
						"astId": 1207,
						"contract": "auth.sol:Auth",
						"label": "ACC_PERSONAL",
						"offset": 20,
						"slot": "0",
						"type": "t_uint8"
					},
					{
						"astId": 1210,
						"contract": "auth.sol:Auth",
						"label": "ACC_LIMITED_COMPANY",
						"offset": 21,
						"slot": "0",
						"type": "t_uint8"
					},
					{
						"astId": 1213,
						"contract": "auth.sol:Auth",
						"label": "ACC_SHARE_COMPANY",
						"offset": 22,
						"slot": "0",
						"type": "t_uint8"
					},
					{
						"astId": 1216,
						"contract": "auth.sol:Auth",
						"label": "ACC_INDIVIDUAL_COMPANY",
						"offset": 23,
						"slot": "0",
						"type": "t_uint8"
					},
					{
						"astId": 1219,
						"contract": "auth.sol:Auth",
						"label": "ACC_FOREIGN_BRANCH",
						"offset": 24,
						"slot": "0",
						"type": "t_uint8"
					},
					{
						"astId": 1241,
						"contract": "auth.sol:Auth",
						"label": "persons",
						"offset": 0,
						"slot": "1",
						"type": "t_mapping(t_bytes32,t_struct(person)1236_storage)"
					}
				],
				"types": {
					"t_address": {
						"encoding": "inplace",
						"label": "address",
						"numberOfBytes": "20"
					},
					"t_bytes32": {
						"encoding": "inplace",
						"label": "bytes32",
						"numberOfBytes": "32"
					},
					"t_mapping(t_bytes32,t_struct(person)1236_storage)": {
						"encoding": "mapping",
						"key": "t_bytes32",
						"label": "mapping(bytes32 => struct Auth.person)",
						"numberOfBytes": "32",
						"value": "t_struct(person)1236_storage"
					},
					"t_string_storage": {
						"encoding": "bytes",
						"label": "string",
						"numberOfBytes": "32"
					},
					"t_struct(person)1236_storage": {
						"encoding": "inplace",
						"label": "struct Auth.person",
						"members": [
							{
								"astId": 1221,
								"contract": "auth.sol:Auth",
								"label": "fullName",
								"offset": 0,
								"slot": "0",
								"type": "t_string_storage"
							},
							{
								"astId": 1223,
								"contract": "auth.sol:Auth",
								"label": "SSN",
								"offset": 0,
								"slot": "1",
								"type": "t_string_storage"
							},
							{
								"astId": 1225,
								"contract": "auth.sol:Auth",
								"label": "homeAddress",
								"offset": 0,
								"slot": "2",
								"type": "t_string_storage"
							},
							{
								"astId": 1227,
								"contract": "auth.sol:Auth",
								"label": "pass",
								"offset": 0,
								"slot": "3",
								"type": "t_string_storage"
							},
							{
								"astId": 1229,
								"contract": "auth.sol:Auth",
								"label": "phone",
								"offset": 0,
								"slot": "4",
								"type": "t_string_storage"
							},
							{
								"astId": 1231,
								"contract": "auth.sol:Auth",
								"label": "accountType",
								"offset": 0,
								"slot": "5",
								"type": "t_uint8"
							},
							{
								"astId": 1233,
								"contract": "auth.sol:Auth",
								"label": "blockAccount",
								"offset": 1,
								"slot": "5",
								"type": "t_address"
							},
							{
								"astId": 1235,
								"contract": "auth.sol:Auth",
								"label": "UID",
								"offset": 0,
								"slot": "6",
								"type": "t_bytes32"
							}
						],
						"numberOfBytes": "224"
					},
					"t_uint8": {
						"encoding": "inplace",
						"label": "uint8",
						"numberOfBytes": "1"
					}
				}
			},
			"userdoc": {
				"kind": "user",
				"methods": {},
				"version": 1
			}
		}
	}
}