{
	"auth.sol": {
		"Auth": {
			"abi": [
				{
					"inputs": [],
					"stateMutability": "nonpayable",
					"type": "constructor"
				},
				{
					"inputs": [
						{
							"internalType": "string",
							"name": "fullName",
							"type": "string"
						},
						{
							"internalType": "string",
							"name": "SSN",
							"type": "string"
						},
						{
							"internalType": "string",
							"name": "homeAddress",
							"type": "string"
						},
						{
							"internalType": "string",
							"name": "pass",
							"type": "string"
						},
						{
							"internalType": "uint8",
							"name": "accountType",
							"type": "uint8"
						},
						{
							"internalType": "string",
							"name": "phone",
							"type": "string"
						},
						{
							"internalType": "address",
							"name": "addr",
							"type": "address"
						}
					],
					"name": "createAccount",
					"outputs": [],
					"stateMutability": "payable",
					"type": "function"
				},
				{
					"inputs": [
						{
							"internalType": "bytes32",
							"name": "UID",
							"type": "bytes32"
						}
					],
					"name": "getUser",
					"outputs": [
						{
							"components": [
								{
									"internalType": "string",
									"name": "fullName",
									"type": "string"
								},
								{
									"internalType": "string",
									"name": "SSN",
									"type": "string"
								},
								{
									"internalType": "string",
									"name": "homeAddress",
									"type": "string"
								},
								{
									"internalType": "string",
									"name": "pass",
									"type": "string"
								},
								{
									"internalType": "string",
									"name": "phone",
									"type": "string"
								},
								{
									"internalType": "uint8",
									"name": "accountType",
									"type": "uint8"
								},
								{
									"internalType": "address",
									"name": "blockAccount",
									"type": "address"
								},
								{
									"internalType": "bytes32",
									"name": "UID",
									"type": "bytes32"
								}
							],
							"internalType": "struct Auth.person",
							"name": "",
							"type": "tuple"
						}
					],
					"stateMutability": "view",
					"type": "function"
				}
			],
			"devdoc": {
				"kind": "dev",
				"methods": {},
				"version": 1
			},
			"evm": {
				"assembly": "    /* \"auth.sol\":112:2888  contract Auth {... */\n  mstore(0x40, 0x80)\n    /* \"auth.sol\":173:174  0 */\n  0x00\n    /* \"auth.sol\":152:174  uint8 ACC_PERSONAL = 0 */\n  dup1\n  exp(0x0100, 0x14)\n  dup2\n  sload\n  dup2\n  0xff\n  mul\n  not\n  and\n  swap1\n  dup4\n  0xff\n  and\n  mul\n  or\n  swap1\n  sstore\n  pop\n    /* \"auth.sol\":208:209  1 */\n  0x01\n    /* \"auth.sol\":180:209  uint8 ACC_LIMITED_COMPANY = 1 */\n  0x00\n  exp(0x0100, 0x15)\n  dup2\n  sload\n  dup2\n  0xff\n  mul\n  not\n  and\n  swap1\n  dup4\n  0xff\n  and\n  mul\n  or\n  swap1\n  sstore\n  pop\n    /* \"auth.sol\":241:242  2 */\n  0x02\n    /* \"auth.sol\":215:242  uint8 ACC_SHARE_COMPANY = 2 */\n  0x00\n  exp(0x0100, 0x16)\n  dup2\n  sload\n  dup2\n  0xff\n  mul\n  not\n  and\n  swap1\n  dup4\n  0xff\n  and\n  mul\n  or\n  swap1\n  sstore\n  pop\n    /* \"auth.sol\":279:280  3 */\n  0x03\n    /* \"auth.sol\":248:280  uint8 ACC_INDIVIDUAL_COMPANY = 3 */\n  0x00\n  exp(0x0100, 0x17)\n  dup2\n  sload\n  dup2\n  0xff\n  mul\n  not\n  and\n  swap1\n  dup4\n  0xff\n  and\n  mul\n  or\n  swap1\n  sstore\n  pop\n    /* \"auth.sol\":313:314  4 */\n  0x04\n    /* \"auth.sol\":286:314  uint8 ACC_FOREIGN_BRANCH = 4 */\n  0x00\n  exp(0x0100, 0x18)\n  dup2\n  sload\n  dup2\n  0xff\n  mul\n  not\n  and\n  swap1\n  dup4\n  0xff\n  and\n  mul\n  or\n  swap1\n  sstore\n  pop\n    /* \"auth.sol\":587:715  constructor() {... */\n  callvalue\n  dup1\n  iszero\n  tag_1\n  jumpi\n  0x00\n  dup1\n  revert\ntag_1:\n  pop\n    /* \"auth.sol\":619:629  msg.sender */\n  caller\n    /* \"auth.sol\":611:616  owner */\n  0x00\n  dup1\n    /* \"auth.sol\":611:629  owner = msg.sender */\n  0x0100\n  exp\n  dup2\n  sload\n  dup2\n  0xffffffffffffffffffffffffffffffffffffffff\n  mul\n  not\n  and\n  swap1\n  dup4\n  0xffffffffffffffffffffffffffffffffffffffff\n  and\n  mul\n  or\n  swap1\n  sstore\n  pop\n    /* \"auth.sol\":112:2888  contract Auth {... */\n  dataSize(sub_0)\n  dup1\n  dataOffset(sub_0)\n  0x00\n  codecopy\n  0x00\n  return\nstop\n\nsub_0: assembly {\n        /* \"auth.sol\":112:2888  contract Auth {... */\n      mstore(0x40, 0x80)\n      jumpi(tag_1, lt(calldatasize, 0x04))\n      shr(0xe0, calldataload(0x00))\n      dup1\n      0x6517579c\n      eq\n      tag_2\n      jumpi\n      dup1\n      0xeefb8ab1\n      eq\n      tag_3\n      jumpi\n    tag_1:\n      0x00\n      dup1\n      revert\n        /* \"auth.sol\":1915:2883  function getUser(bytes32 UID) public view returns(person memory)... */\n    tag_2:\n      callvalue\n      dup1\n      iszero\n      tag_4\n      jumpi\n      0x00\n      dup1\n      revert\n    tag_4:\n      pop\n      tag_5\n      0x04\n      dup1\n      calldatasize\n      sub\n      dup2\n      add\n      swap1\n      tag_6\n      swap2\n      swap1\n      tag_7\n      jump\t// in\n    tag_6:\n      tag_8\n      jump\t// in\n    tag_5:\n      mload(0x40)\n      tag_9\n      swap2\n      swap1\n      tag_10\n      jump\t// in\n    tag_9:\n      mload(0x40)\n      dup1\n      swap2\n      sub\n      swap1\n      return\n        /* \"auth.sol\":824:1909  function createAccount(string memory fullName, string memory SSN, string memory homeAddress, string memory pass, uint8 accountType, string memory phone, address addr) public payable... */\n    tag_3:\n      tag_11\n      0x04\n      dup1\n      calldatasize\n      sub\n      dup2\n      add\n      swap1\n      tag_12\n      swap2\n      swap1\n      tag_13\n      jump\t// in\n    tag_12:\n      tag_14\n      jump\t// in\n    tag_11:\n      stop\n        /* \"auth.sol\":1915:2883  function getUser(bytes32 UID) public view returns(person memory)... */\n    tag_8:\n        /* \"auth.sol\":1965:1978  person memory */\n      tag_15\n      tag_16\n      jump\t// in\n    tag_15:\n        /* \"auth.sol\":1994:2003  isOwner() */\n      tag_18\n        /* \"auth.sol\":1994:2001  isOwner */\n      tag_19\n        /* \"auth.sol\":1994:2003  isOwner() */\n      jump\t// in\n    tag_18:\n        /* \"auth.sol\":2013:2041  person memory censoredPerson */\n      0x00\n        /* \"auth.sol\":2044:2358  person({... */\n      mload(0x40)\n      dup1\n      0x0100\n      add\n      0x40\n      mstore\n      dup1\n        /* \"auth.sol\":2075:2082  persons */\n      0x01\n        /* \"auth.sol\":2075:2087  persons[UID] */\n      0x00\n        /* \"auth.sol\":2083:2086  UID */\n      dup7\n        /* \"auth.sol\":2075:2087  persons[UID] */\n      dup2\n      mstore\n      0x20\n      add\n      swap1\n      dup2\n      mstore\n      0x20\n      add\n      0x00\n      keccak256\n        /* \"auth.sol\":2075:2096  persons[UID].fullName */\n      0x00\n      add\n        /* \"auth.sol\":2044:2358  person({... */\n      dup1\n      sload\n      tag_20\n      swap1\n      tag_21\n      jump\t// in\n    tag_20:\n      dup1\n      0x1f\n      add\n      0x20\n      dup1\n      swap2\n      div\n      mul\n      0x20\n      add\n      mload(0x40)\n      swap1\n      dup2\n      add\n      0x40\n      mstore\n      dup1\n      swap3\n      swap2\n      swap1\n      dup2\n      dup2\n      mstore\n      0x20\n      add\n      dup3\n      dup1\n      sload\n      tag_22\n      swap1\n      tag_21\n      jump\t// in\n    tag_22:\n      dup1\n      iszero\n      tag_23\n      jumpi\n      dup1\n      0x1f\n      lt\n      tag_24\n      jumpi\n      0x0100\n      dup1\n      dup4\n      sload\n      div\n      mul\n      dup4\n      mstore\n      swap2\n      0x20\n      add\n      swap2\n      jump(tag_23)\n    tag_24:\n      dup3\n      add\n      swap2\n      swap1\n      0x00\n      mstore\n      keccak256(0x00, 0x20)\n      swap1\n    tag_25:\n      dup2\n      sload\n      dup2\n      mstore\n      swap1\n      0x01\n      add\n      swap1\n      0x20\n      add\n      dup1\n      dup4\n      gt\n      tag_25\n      jumpi\n      dup3\n      swap1\n      sub\n      0x1f\n      and\n      dup3\n      add\n      swap2\n    tag_23:\n      pop\n      pop\n      pop\n      pop\n      pop\n      dup2\n      mstore\n      0x20\n      add\n      mload(0x40)\n      dup1\n      0x40\n      add\n      0x40\n      mstore\n      dup1\n      0x06\n      dup2\n      mstore\n      0x20\n      add\n      0x2a2a2a2a2a2a0000000000000000000000000000000000000000000000000000\n      dup2\n      mstore\n      pop\n      dup2\n      mstore\n      0x20\n      add\n      mload(0x40)\n      dup1\n      0x40\n      add\n      0x40\n      mstore\n      dup1\n      0x0a\n      dup2\n      mstore\n      0x20\n      add\n      0x2a2a2a2a2a2a2a2a2a2a00000000000000000000000000000000000000000000\n      dup2\n      mstore\n      pop\n      dup2\n      mstore\n      0x20\n      add\n      mload(0x40)\n      dup1\n      0x40\n      add\n      0x40\n      mstore\n      dup1\n      0x07\n      dup2\n      mstore\n      0x20\n      add\n      0x2a2a2a2a2a2a2a00000000000000000000000000000000000000000000000000\n      dup2\n      mstore\n      pop\n      dup2\n      mstore\n      0x20\n      add\n      mload(0x40)\n      dup1\n      0x40\n      add\n      0x40\n      mstore\n      dup1\n      0x08\n      dup2\n      mstore\n      0x20\n      add\n      0x2a2a2a2a2a2a2a2a000000000000000000000000000000000000000000000000\n      dup2\n      mstore\n      pop\n      dup2\n      mstore\n      0x20\n      add\n        /* \"auth.sol\":2250:2257  persons */\n      0x01\n        /* \"auth.sol\":2250:2262  persons[UID] */\n      0x00\n        /* \"auth.sol\":2258:2261  UID */\n      dup7\n        /* \"auth.sol\":2250:2262  persons[UID] */\n      dup2\n      mstore\n      0x20\n      add\n      swap1\n      dup2\n      mstore\n      0x20\n      add\n      0x00\n      keccak256\n        /* \"auth.sol\":2250:2274  persons[UID].accountType */\n      0x05\n      add\n      0x00\n      swap1\n      sload\n      swap1\n      0x0100\n      exp\n      swap1\n      div\n      0xff\n      and\n        /* \"auth.sol\":2044:2358  person({... */\n      0xff\n      and\n      dup2\n      mstore\n      0x20\n      add\n        /* \"auth.sol\":2301:2311  msg.sender */\n      caller\n        /* \"auth.sol\":2044:2358  person({... */\n      0xffffffffffffffffffffffffffffffffffffffff\n      and\n      dup2\n      mstore\n      0x20\n      add\n        /* \"auth.sol\":2331:2338  persons */\n      0x01\n        /* \"auth.sol\":2331:2343  persons[UID] */\n      0x00\n        /* \"auth.sol\":2339:2342  UID */\n      dup7\n        /* \"auth.sol\":2331:2343  persons[UID] */\n      dup2\n      mstore\n      0x20\n      add\n      swap1\n      dup2\n      mstore\n      0x20\n      add\n      0x00\n      keccak256\n        /* \"auth.sol\":2331:2347  persons[UID].UID */\n      0x06\n      add\n      sload\n        /* \"auth.sol\":2044:2358  person({... */\n      dup2\n      mstore\n      pop\n        /* \"auth.sol\":2013:2358  person memory censoredPerson = person({... */\n      swap1\n      pop\n        /* \"auth.sol\":2400:2401  0 */\n      0x00\n        /* \"auth.sol\":2373:2380  persons */\n      0x01\n        /* \"auth.sol\":2373:2385  persons[UID] */\n      0x00\n        /* \"auth.sol\":2381:2384  UID */\n      dup6\n        /* \"auth.sol\":2373:2385  persons[UID] */\n      dup2\n      mstore\n      0x20\n      add\n      swap1\n      dup2\n      mstore\n      0x20\n      add\n      0x00\n      keccak256\n        /* \"auth.sol\":2373:2397  persons[UID].accountType */\n      0x05\n      add\n      0x00\n      swap1\n      sload\n      swap1\n      0x0100\n      exp\n      swap1\n      div\n      0xff\n      and\n        /* \"auth.sol\":2373:2401  persons[UID].accountType > 0 */\n      0xff\n      and\n      gt\n        /* \"auth.sol\":2369:2846  if (persons[UID].accountType > 0)... */\n      iszero\n      tag_26\n      jumpi\n        /* \"auth.sol\":2442:2835  person({... */\n      mload(0x40)\n      dup1\n      0x0100\n      add\n      0x40\n      mstore\n      dup1\n        /* \"auth.sol\":2477:2484  persons */\n      0x01\n        /* \"auth.sol\":2477:2489  persons[UID] */\n      0x00\n        /* \"auth.sol\":2485:2488  UID */\n      dup7\n        /* \"auth.sol\":2477:2489  persons[UID] */\n      dup2\n      mstore\n      0x20\n      add\n      swap1\n      dup2\n      mstore\n      0x20\n      add\n      0x00\n      keccak256\n        /* \"auth.sol\":2477:2498  persons[UID].fullName */\n      0x00\n      add\n        /* \"auth.sol\":2442:2835  person({... */\n      dup1\n      sload\n      tag_27\n      swap1\n      tag_21\n      jump\t// in\n    tag_27:\n      dup1\n      0x1f\n      add\n      0x20\n      dup1\n      swap2\n      div\n      mul\n      0x20\n      add\n      mload(0x40)\n      swap1\n      dup2\n      add\n      0x40\n      mstore\n      dup1\n      swap3\n      swap2\n      swap1\n      dup2\n      dup2\n      mstore\n      0x20\n      add\n      dup3\n      dup1\n      sload\n      tag_28\n      swap1\n      tag_21\n      jump\t// in\n    tag_28:\n      dup1\n      iszero\n      tag_29\n      jumpi\n      dup1\n      0x1f\n      lt\n      tag_30\n      jumpi\n      0x0100\n      dup1\n      dup4\n      sload\n      div\n      mul\n      dup4\n      mstore\n      swap2\n      0x20\n      add\n      swap2\n      jump(tag_29)\n    tag_30:\n      dup3\n      add\n      swap2\n      swap1\n      0x00\n      mstore\n      keccak256(0x00, 0x20)\n      swap1\n    tag_31:\n      dup2\n      sload\n      dup2\n      mstore\n      swap1\n      0x01\n      add\n      swap1\n      0x20\n      add\n      dup1\n      dup4\n      gt\n      tag_31\n      jumpi\n      dup3\n      swap1\n      sub\n      0x1f\n      and\n      dup3\n      add\n      swap2\n    tag_29:\n      pop\n      pop\n      pop\n      pop\n      pop\n      dup2\n      mstore\n      0x20\n      add\n        /* \"auth.sol\":2522:2529  persons */\n      0x01\n        /* \"auth.sol\":2522:2534  persons[UID] */\n      0x00\n        /* \"auth.sol\":2530:2533  UID */\n      dup7\n        /* \"auth.sol\":2522:2534  persons[UID] */\n      dup2\n      mstore\n      0x20\n      add\n      swap1\n      dup2\n      mstore\n      0x20\n      add\n      0x00\n      keccak256\n        /* \"auth.sol\":2522:2538  persons[UID].SSN */\n      0x01\n      add\n        /* \"auth.sol\":2442:2835  person({... */\n      dup1\n      sload\n      tag_32\n      swap1\n      tag_21\n      jump\t// in\n    tag_32:\n      dup1\n      0x1f\n      add\n      0x20\n      dup1\n      swap2\n      div\n      mul\n      0x20\n      add\n      mload(0x40)\n      swap1\n      dup2\n      add\n      0x40\n      mstore\n      dup1\n      swap3\n      swap2\n      swap1\n      dup2\n      dup2\n      mstore\n      0x20\n      add\n      dup3\n      dup1\n      sload\n      tag_33\n      swap1\n      tag_21\n      jump\t// in\n    tag_33:\n      dup1\n      iszero\n      tag_34\n      jumpi\n      dup1\n      0x1f\n      lt\n      tag_35\n      jumpi\n      0x0100\n      dup1\n      dup4\n      sload\n      div\n      mul\n      dup4\n      mstore\n      swap2\n      0x20\n      add\n      swap2\n      jump(tag_34)\n    tag_35:\n      dup3\n      add\n      swap2\n      swap1\n      0x00\n      mstore\n      keccak256(0x00, 0x20)\n      swap1\n    tag_36:\n      dup2\n      sload\n      dup2\n      mstore\n      swap1\n      0x01\n      add\n      swap1\n      0x20\n      add\n      dup1\n      dup4\n      gt\n      tag_36\n      jumpi\n      dup3\n      swap1\n      sub\n      0x1f\n      and\n      dup3\n      add\n      swap2\n    tag_34:\n      pop\n      pop\n      pop\n      pop\n      pop\n      dup2\n      mstore\n      0x20\n      add\n        /* \"auth.sol\":2569:2576  persons */\n      0x01\n        /* \"auth.sol\":2569:2581  persons[UID] */\n      0x00\n        /* \"auth.sol\":2577:2580  UID */\n      dup7\n        /* \"auth.sol\":2569:2581  persons[UID] */\n      dup2\n      mstore\n      0x20\n      add\n      swap1\n      dup2\n      mstore\n      0x20\n      add\n      0x00\n      keccak256\n        /* \"auth.sol\":2569:2593  persons[UID].homeAddress */\n      0x02\n      add\n        /* \"auth.sol\":2442:2835  person({... */\n      dup1\n      sload\n      tag_37\n      swap1\n      tag_21\n      jump\t// in\n    tag_37:\n      dup1\n      0x1f\n      add\n      0x20\n      dup1\n      swap2\n      div\n      mul\n      0x20\n      add\n      mload(0x40)\n      swap1\n      dup2\n      add\n      0x40\n      mstore\n      dup1\n      swap3\n      swap2\n      swap1\n      dup2\n      dup2\n      mstore\n      0x20\n      add\n      dup3\n      dup1\n      sload\n      tag_38\n      swap1\n      tag_21\n      jump\t// in\n    tag_38:\n      dup1\n      iszero\n      tag_39\n      jumpi\n      dup1\n      0x1f\n      lt\n      tag_40\n      jumpi\n      0x0100\n      dup1\n      dup4\n      sload\n      div\n      mul\n      dup4\n      mstore\n      swap2\n      0x20\n      add\n      swap2\n      jump(tag_39)\n    tag_40:\n      dup3\n      add\n      swap2\n      swap1\n      0x00\n      mstore\n      keccak256(0x00, 0x20)\n      swap1\n    tag_41:\n      dup2\n      sload\n      dup2\n      mstore\n      swap1\n      0x01\n      add\n      swap1\n      0x20\n      add\n      dup1\n      dup4\n      gt\n      tag_41\n      jumpi\n      dup3\n      swap1\n      sub\n      0x1f\n      and\n      dup3\n      add\n      swap2\n    tag_39:\n      pop\n      pop\n      pop\n      pop\n      pop\n      dup2\n      mstore\n      0x20\n      add\n      mload(0x40)\n      dup1\n      0x40\n      add\n      0x40\n      mstore\n      dup1\n      0x07\n      dup2\n      mstore\n      0x20\n      add\n      0x2a2a2a2a2a2a2a00000000000000000000000000000000000000000000000000\n      dup2\n      mstore\n      pop\n      dup2\n      mstore\n      0x20\n      add\n        /* \"auth.sol\":2651:2658  persons */\n      0x01\n        /* \"auth.sol\":2651:2663  persons[UID] */\n      0x00\n        /* \"auth.sol\":2659:2662  UID */\n      dup7\n        /* \"auth.sol\":2651:2663  persons[UID] */\n      dup2\n      mstore\n      0x20\n      add\n      swap1\n      dup2\n      mstore\n      0x20\n      add\n      0x00\n      keccak256\n        /* \"auth.sol\":2651:2669  persons[UID].phone */\n      0x04\n      add\n        /* \"auth.sol\":2442:2835  person({... */\n      dup1\n      sload\n      tag_42\n      swap1\n      tag_21\n      jump\t// in\n    tag_42:\n      dup1\n      0x1f\n      add\n      0x20\n      dup1\n      swap2\n      div\n      mul\n      0x20\n      add\n      mload(0x40)\n      swap1\n      dup2\n      add\n      0x40\n      mstore\n      dup1\n      swap3\n      swap2\n      swap1\n      dup2\n      dup2\n      mstore\n      0x20\n      add\n      dup3\n      dup1\n      sload\n      tag_43\n      swap1\n      tag_21\n      jump\t// in\n    tag_43:\n      dup1\n      iszero\n      tag_44\n      jumpi\n      dup1\n      0x1f\n      lt\n      tag_45\n      jumpi\n      0x0100\n      dup1\n      dup4\n      sload\n      div\n      mul\n      dup4\n      mstore\n      swap2\n      0x20\n      add\n      swap2\n      jump(tag_44)\n    tag_45:\n      dup3\n      add\n      swap2\n      swap1\n      0x00\n      mstore\n      keccak256(0x00, 0x20)\n      swap1\n    tag_46:\n      dup2\n      sload\n      dup2\n      mstore\n      swap1\n      0x01\n      add\n      swap1\n      0x20\n      add\n      dup1\n      dup4\n      gt\n      tag_46\n      jumpi\n      dup3\n      swap1\n      sub\n      0x1f\n      and\n      dup3\n      add\n      swap2\n    tag_44:\n      pop\n      pop\n      pop\n      pop\n      pop\n      dup2\n      mstore\n      0x20\n      add\n        /* \"auth.sol\":2700:2707  persons */\n      0x01\n        /* \"auth.sol\":2700:2712  persons[UID] */\n      0x00\n        /* \"auth.sol\":2708:2711  UID */\n      dup7\n        /* \"auth.sol\":2700:2712  persons[UID] */\n      dup2\n      mstore\n      0x20\n      add\n      swap1\n      dup2\n      mstore\n      0x20\n      add\n      0x00\n      keccak256\n        /* \"auth.sol\":2700:2724  persons[UID].accountType */\n      0x05\n      add\n      0x00\n      swap1\n      sload\n      swap1\n      0x0100\n      exp\n      swap1\n      div\n      0xff\n      and\n        /* \"auth.sol\":2442:2835  person({... */\n      0xff\n      and\n      dup2\n      mstore\n      0x20\n      add\n        /* \"auth.sol\":2755:2762  persons */\n      0x01\n        /* \"auth.sol\":2755:2767  persons[UID] */\n      0x00\n        /* \"auth.sol\":2763:2766  UID */\n      dup7\n        /* \"auth.sol\":2755:2767  persons[UID] */\n      dup2\n      mstore\n      0x20\n      add\n      swap1\n      dup2\n      mstore\n      0x20\n      add\n      0x00\n      keccak256\n        /* \"auth.sol\":2755:2780  persons[UID].blockAccount */\n      0x05\n      add\n      0x01\n      swap1\n      sload\n      swap1\n      0x0100\n      exp\n      swap1\n      div\n      0xffffffffffffffffffffffffffffffffffffffff\n      and\n        /* \"auth.sol\":2442:2835  person({... */\n      0xffffffffffffffffffffffffffffffffffffffff\n      and\n      dup2\n      mstore\n      0x20\n      add\n        /* \"auth.sol\":2804:2811  persons */\n      0x01\n        /* \"auth.sol\":2804:2816  persons[UID] */\n      0x00\n        /* \"auth.sol\":2812:2815  UID */\n      dup7\n        /* \"auth.sol\":2804:2816  persons[UID] */\n      dup2\n      mstore\n      0x20\n      add\n      swap1\n      dup2\n      mstore\n      0x20\n      add\n      0x00\n      keccak256\n        /* \"auth.sol\":2804:2820  persons[UID].UID */\n      0x06\n      add\n      sload\n        /* \"auth.sol\":2442:2835  person({... */\n      dup2\n      mstore\n      pop\n        /* \"auth.sol\":2425:2835  censoredPerson = person({... */\n      swap1\n      pop\n        /* \"auth.sol\":2369:2846  if (persons[UID].accountType > 0)... */\n    tag_26:\n        /* \"auth.sol\":2862:2876  censoredPerson */\n      dup1\n        /* \"auth.sol\":2855:2876  return censoredPerson */\n      swap2\n      pop\n      pop\n        /* \"auth.sol\":1915:2883  function getUser(bytes32 UID) public view returns(person memory)... */\n      swap2\n      swap1\n      pop\n      jump\t// out\n        /* \"auth.sol\":824:1909  function createAccount(string memory fullName, string memory SSN, string memory homeAddress, string memory pass, uint8 accountType, string memory phone, address addr) public payable... */\n    tag_14:\n        /* \"auth.sol\":1020:1029  isOwner() */\n      tag_48\n        /* \"auth.sol\":1020:1027  isOwner */\n      tag_19\n        /* \"auth.sol\":1020:1029  isOwner() */\n      jump\t// in\n    tag_48:\n        /* \"auth.sol\":1062:1063  5 */\n      0x05\n        /* \"auth.sol\":1047:1058  accountType */\n      dup4\n        /* \"auth.sol\":1047:1063  accountType <= 5 */\n      0xff\n      and\n      gt\n      iszero\n        /* \"auth.sol\":1039:1088  require(accountType <= 5, \"Invalid company type\") */\n      tag_49\n      jumpi\n      mload(0x40)\n      0x08c379a000000000000000000000000000000000000000000000000000000000\n      dup2\n      mstore\n      0x04\n      add\n      tag_50\n      swap1\n      tag_51\n      jump\t// in\n    tag_50:\n      mload(0x40)\n      dup1\n      swap2\n      sub\n      swap1\n      revert\n    tag_49:\n        /* \"auth.sol\":1127:1129  13 */\n      0x0d\n        /* \"auth.sol\":1112:1115  SSN */\n      dup7\n        /* \"auth.sol\":1106:1123  bytes(SSN).length */\n      mload\n        /* \"auth.sol\":1106:1129  bytes(SSN).length == 13 */\n      eq\n        /* \"auth.sol\":1098:1145  require(bytes(SSN).length == 13, \"Invalid SSN\") */\n      tag_52\n      jumpi\n      mload(0x40)\n      0x08c379a000000000000000000000000000000000000000000000000000000000\n      dup2\n      mstore\n      0x04\n      add\n      tag_53\n      swap1\n      tag_54\n      jump\t// in\n    tag_53:\n      mload(0x40)\n      dup1\n      swap2\n      sub\n      swap1\n      revert\n    tag_52:\n        /* \"auth.sol\":1188:1189  6 */\n      0x06\n        /* \"auth.sol\":1169:1177  fullName */\n      dup8\n        /* \"auth.sol\":1163:1185  bytes(fullName).length */\n      mload\n        /* \"auth.sol\":1163:1189  bytes(fullName).length > 6 */\n      gt\n        /* \"auth.sol\":1155:1206  require(bytes(fullName).length > 6, \"Invalid name\") */\n      tag_55\n      jumpi\n      mload(0x40)\n      0x08c379a000000000000000000000000000000000000000000000000000000000\n      dup2\n      mstore\n      0x04\n      add\n      tag_56\n      swap1\n      tag_57\n      jump\t// in\n    tag_56:\n      mload(0x40)\n      dup1\n      swap2\n      sub\n      swap1\n      revert\n    tag_55:\n        /* \"auth.sol\":1252:1254  10 */\n      0x0a\n        /* \"auth.sol\":1230:1241  homeAddress */\n      dup6\n        /* \"auth.sol\":1224:1249  bytes(homeAddress).length */\n      mload\n        /* \"auth.sol\":1224:1254  bytes(homeAddress).length > 10 */\n      gt\n        /* \"auth.sol\":1216:1274  require(bytes(homeAddress).length > 10, \"Invalid address\") */\n      tag_58\n      jumpi\n      mload(0x40)\n      0x08c379a000000000000000000000000000000000000000000000000000000000\n      dup2\n      mstore\n      0x04\n      add\n      tag_59\n      swap1\n      tag_60\n      jump\t// in\n    tag_59:\n      mload(0x40)\n      dup1\n      swap2\n      sub\n      swap1\n      revert\n    tag_58:\n        /* \"auth.sol\":1313:1314  8 */\n      0x08\n        /* \"auth.sol\":1298:1302  pass */\n      dup5\n        /* \"auth.sol\":1292:1310  bytes(pass).length */\n      mload\n        /* \"auth.sol\":1292:1314  bytes(pass).length > 8 */\n      gt\n        /* \"auth.sol\":1284:1337  require(bytes(pass).length > 8, \"Password too short\") */\n      tag_61\n      jumpi\n      mload(0x40)\n      0x08c379a000000000000000000000000000000000000000000000000000000000\n      dup2\n      mstore\n      0x04\n      add\n      tag_62\n      swap1\n      tag_63\n      jump\t// in\n    tag_62:\n      mload(0x40)\n      dup1\n      swap2\n      sub\n      swap1\n      revert\n    tag_61:\n        /* \"auth.sol\":1377:1378  6 */\n      0x06\n        /* \"auth.sol\":1361:1366  phone */\n      dup3\n        /* \"auth.sol\":1355:1374  bytes(phone).length */\n      mload\n        /* \"auth.sol\":1355:1378  bytes(phone).length > 6 */\n      gt\n        /* \"auth.sol\":1347:1405  require(bytes(phone).length > 6, \"Phone number too short\") */\n      tag_64\n      jumpi\n      mload(0x40)\n      0x08c379a000000000000000000000000000000000000000000000000000000000\n      dup2\n      mstore\n      0x04\n      add\n      tag_65\n      swap1\n      tag_66\n      jump\t// in\n    tag_65:\n      mload(0x40)\n      dup1\n      swap2\n      sub\n      swap1\n      revert\n    tag_64:\n        /* \"auth.sol\":1415:1426  bytes32 UID */\n      0x00\n        /* \"auth.sol\":1470:1478  fullName */\n      dup8\n        /* \"auth.sol\":1479:1482  SSN */\n      dup8\n        /* \"auth.sol\":1483:1512  Strings.toString(accountType) */\n      tag_67\n        /* \"auth.sol\":1500:1511  accountType */\n      dup7\n        /* \"auth.sol\":1483:1512  Strings.toString(accountType) */\n      0xff\n      and\n        /* \"auth.sol\":1483:1499  Strings.toString */\n      tag_68\n        /* \"auth.sol\":1483:1512  Strings.toString(accountType) */\n      jump\t// in\n    tag_67:\n        /* \"auth.sol\":1513:1524  homeAddress */\n      dup9\n        /* \"auth.sol\":1525:1529  pass */\n      dup9\n        /* \"auth.sol\":1530:1535  phone */\n      dup8\n        /* \"auth.sol\":1456:1536  string.concat(fullName,SSN,Strings.toString(accountType),homeAddress,pass,phone) */\n      add(0x20, mload(0x40))\n      tag_69\n      swap7\n      swap6\n      swap5\n      swap4\n      swap3\n      swap2\n      swap1\n      tag_70\n      jump\t// in\n    tag_69:\n      mload(0x40)\n      0x20\n      dup2\n      dup4\n      sub\n      sub\n      dup2\n      mstore\n      swap1\n      0x40\n      mstore\n        /* \"auth.sol\":1439:1537  abi.encodePacked(string.concat(fullName,SSN,Strings.toString(accountType),homeAddress,pass,phone)) */\n      add(0x20, mload(0x40))\n      tag_71\n      swap2\n      swap1\n      tag_72\n      jump\t// in\n    tag_71:\n      mload(0x40)\n      0x20\n      dup2\n      dup4\n      sub\n      sub\n      dup2\n      mstore\n      swap1\n      0x40\n      mstore\n        /* \"auth.sol\":1429:1538  keccak256(abi.encodePacked(string.concat(fullName,SSN,Strings.toString(accountType),homeAddress,pass,phone))) */\n      dup1\n      mload\n      swap1\n      0x20\n      add\n      keccak256\n        /* \"auth.sol\":1415:1538  bytes32 UID = keccak256(abi.encodePacked(string.concat(fullName,SSN,Strings.toString(accountType),homeAddress,pass,phone))) */\n      swap1\n      pop\n        /* \"auth.sol\":1589:1902  person({... */\n      mload(0x40)\n      dup1\n      0x0100\n      add\n      0x40\n      mstore\n      dup1\n        /* \"auth.sol\":1621:1629  fullName */\n      dup10\n        /* \"auth.sol\":1589:1902  person({... */\n      dup2\n      mstore\n      0x20\n      add\n        /* \"auth.sol\":1649:1652  SSN */\n      dup9\n        /* \"auth.sol\":1589:1902  person({... */\n      dup2\n      mstore\n      0x20\n      add\n        /* \"auth.sol\":1680:1691  homeAddress */\n      dup8\n        /* \"auth.sol\":1589:1902  person({... */\n      dup2\n      mstore\n      0x20\n      add\n        /* \"auth.sol\":1763:1767  pass */\n      dup7\n        /* \"auth.sol\":1746:1768  abi.encodePacked(pass) */\n      add(0x20, mload(0x40))\n      tag_73\n      swap2\n      swap1\n      tag_72\n      jump\t// in\n    tag_73:\n      mload(0x40)\n      0x20\n      dup2\n      dup4\n      sub\n      sub\n      dup2\n      mstore\n      swap1\n      0x40\n      mstore\n        /* \"auth.sol\":1736:1769  keccak256(abi.encodePacked(pass)) */\n      dup1\n      mload\n      swap1\n      0x20\n      add\n      keccak256\n        /* \"auth.sol\":1719:1770  abi.encodePacked(keccak256(abi.encodePacked(pass))) */\n      add(0x20, mload(0x40))\n      tag_74\n      swap2\n      swap1\n      tag_75\n      jump\t// in\n    tag_74:\n      mload(0x40)\n      0x20\n      dup2\n      dup4\n      sub\n      sub\n      dup2\n      mstore\n      swap1\n      0x40\n      mstore\n        /* \"auth.sol\":1589:1902  person({... */\n      dup2\n      mstore\n      0x20\n      add\n        /* \"auth.sol\":1793:1798  phone */\n      dup5\n        /* \"auth.sol\":1589:1902  person({... */\n      dup2\n      mstore\n      0x20\n      add\n        /* \"auth.sol\":1825:1836  accountType */\n      dup6\n        /* \"auth.sol\":1589:1902  person({... */\n      0xff\n      and\n      dup2\n      mstore\n      0x20\n      add\n        /* \"auth.sol\":1865:1869  addr */\n      dup4\n        /* \"auth.sol\":1589:1902  person({... */\n      0xffffffffffffffffffffffffffffffffffffffff\n      and\n      dup2\n      mstore\n      0x20\n      add\n        /* \"auth.sol\":1888:1891  UID */\n      dup3\n        /* \"auth.sol\":1589:1902  person({... */\n      dup2\n      mstore\n      pop\n        /* \"auth.sol\":1574:1581  persons */\n      0x01\n        /* \"auth.sol\":1574:1586  persons[UID] */\n      0x00\n        /* \"auth.sol\":1582:1585  UID */\n      dup4\n        /* \"auth.sol\":1574:1586  persons[UID] */\n      dup2\n      mstore\n      0x20\n      add\n      swap1\n      dup2\n      mstore\n      0x20\n      add\n      0x00\n      keccak256\n        /* \"auth.sol\":1574:1902  persons[UID] = person({... */\n      0x00\n      dup3\n      add\n      mload\n      dup2\n      0x00\n      add\n      swap1\n      dup2\n      tag_76\n      swap2\n      swap1\n      tag_77\n      jump\t// in\n    tag_76:\n      pop\n      0x20\n      dup3\n      add\n      mload\n      dup2\n      0x01\n      add\n      swap1\n      dup2\n      tag_78\n      swap2\n      swap1\n      tag_77\n      jump\t// in\n    tag_78:\n      pop\n      0x40\n      dup3\n      add\n      mload\n      dup2\n      0x02\n      add\n      swap1\n      dup2\n      tag_79\n      swap2\n      swap1\n      tag_77\n      jump\t// in\n    tag_79:\n      pop\n      0x60\n      dup3\n      add\n      mload\n      dup2\n      0x03\n      add\n      swap1\n      dup2\n      tag_80\n      swap2\n      swap1\n      tag_77\n      jump\t// in\n    tag_80:\n      pop\n      0x80\n      dup3\n      add\n      mload\n      dup2\n      0x04\n      add\n      swap1\n      dup2\n      tag_81\n      swap2\n      swap1\n      tag_77\n      jump\t// in\n    tag_81:\n      pop\n      0xa0\n      dup3\n      add\n      mload\n      dup2\n      0x05\n      add\n      exp(0x0100, 0x00)\n      dup2\n      sload\n      dup2\n      0xff\n      mul\n      not\n      and\n      swap1\n      dup4\n      0xff\n      and\n      mul\n      or\n      swap1\n      sstore\n      pop\n      0xc0\n      dup3\n      add\n      mload\n      dup2\n      0x05\n      add\n      exp(0x0100, 0x01)\n      dup2\n      sload\n      dup2\n      0xffffffffffffffffffffffffffffffffffffffff\n      mul\n      not\n      and\n      swap1\n      dup4\n      0xffffffffffffffffffffffffffffffffffffffff\n      and\n      mul\n      or\n      swap1\n      sstore\n      pop\n      0xe0\n      dup3\n      add\n      mload\n      dup2\n      0x06\n      add\n      sstore\n      swap1\n      pop\n      pop\n        /* \"auth.sol\":1010:1909  {... */\n      pop\n        /* \"auth.sol\":824:1909  function createAccount(string memory fullName, string memory SSN, string memory homeAddress, string memory pass, uint8 accountType, string memory phone, address addr) public payable... */\n      pop\n      pop\n      pop\n      pop\n      pop\n      pop\n      pop\n      jump\t// out\n        /* \"auth.sol\":721:818  function isOwner() internal view... */\n    tag_19:\n        /* \"auth.sol\":785:795  msg.sender */\n      caller\n        /* \"auth.sol\":776:795  owner == msg.sender */\n      0xffffffffffffffffffffffffffffffffffffffff\n      and\n        /* \"auth.sol\":776:781  owner */\n      0x00\n      dup1\n      sload\n      swap1\n      0x0100\n      exp\n      swap1\n      div\n      0xffffffffffffffffffffffffffffffffffffffff\n      and\n        /* \"auth.sol\":776:795  owner == msg.sender */\n      0xffffffffffffffffffffffffffffffffffffffff\n      and\n      eq\n        /* \"auth.sol\":768:811  require(owner == msg.sender, \"Not allowed\") */\n      tag_83\n      jumpi\n      mload(0x40)\n      0x08c379a000000000000000000000000000000000000000000000000000000000\n      dup2\n      mstore\n      0x04\n      add\n      tag_84\n      swap1\n      tag_85\n      jump\t// in\n    tag_84:\n      mload(0x40)\n      dup1\n      swap2\n      sub\n      swap1\n      revert\n    tag_83:\n        /* \"auth.sol\":721:818  function isOwner() internal view... */\n      jump\t// out\n        /* \"OpenZeppelin.mod/Strings.sol\":447:1143  function toString(uint256 value) internal pure returns (string memory) {... */\n    tag_68:\n        /* \"OpenZeppelin.mod/Strings.sol\":503:516  string memory */\n      0x60\n        /* \"OpenZeppelin.mod/Strings.sol\":552:566  uint256 length */\n      0x00\n        /* \"OpenZeppelin.mod/Strings.sol\":589:590  1 */\n      0x01\n        /* \"OpenZeppelin.mod/Strings.sol\":569:586  Math.log10(value) */\n      tag_87\n        /* \"OpenZeppelin.mod/Strings.sol\":580:585  value */\n      dup5\n        /* \"OpenZeppelin.mod/Strings.sol\":569:579  Math.log10 */\n      tag_88\n        /* \"OpenZeppelin.mod/Strings.sol\":569:586  Math.log10(value) */\n      jump\t// in\n    tag_87:\n        /* \"OpenZeppelin.mod/Strings.sol\":569:590  Math.log10(value) + 1 */\n      add\n        /* \"OpenZeppelin.mod/Strings.sol\":552:590  uint256 length = Math.log10(value) + 1 */\n      swap1\n      pop\n        /* \"OpenZeppelin.mod/Strings.sol\":604:624  string memory buffer */\n      0x00\n        /* \"OpenZeppelin.mod/Strings.sol\":638:644  length */\n      dup2\n        /* \"OpenZeppelin.mod/Strings.sol\":627:645  new string(length) */\n      0xffffffffffffffff\n      dup2\n      gt\n      iszero\n      tag_89\n      jumpi\n      tag_90\n      tag_91\n      jump\t// in\n    tag_90:\n    tag_89:\n      mload(0x40)\n      swap1\n      dup1\n      dup3\n      mstore\n      dup1\n      0x1f\n      add\n      not(0x1f)\n      and\n      0x20\n      add\n      dup3\n      add\n      0x40\n      mstore\n      dup1\n      iszero\n      tag_92\n      jumpi\n      dup2\n      0x20\n      add\n      0x01\n      dup3\n      mul\n      dup1\n      calldatasize\n      dup4\n      calldatacopy\n      dup1\n      dup3\n      add\n      swap2\n      pop\n      pop\n      swap1\n      pop\n    tag_92:\n      pop\n        /* \"OpenZeppelin.mod/Strings.sol\":604:645  string memory buffer = new string(length) */\n      swap1\n      pop\n        /* \"OpenZeppelin.mod/Strings.sol\":659:670  uint256 ptr */\n      0x00\n        /* \"OpenZeppelin.mod/Strings.sol\":785:791  length */\n      dup3\n        /* \"OpenZeppelin.mod/Strings.sol\":781:783  32 */\n      0x20\n        /* \"OpenZeppelin.mod/Strings.sol\":777:792  add(32, length) */\n      add\n        /* \"OpenZeppelin.mod/Strings.sol\":769:775  buffer */\n      dup3\n        /* \"OpenZeppelin.mod/Strings.sol\":765:793  add(buffer, add(32, length)) */\n      add\n        /* \"OpenZeppelin.mod/Strings.sol\":758:793  ptr := add(buffer, add(32, length)) */\n      swap1\n      pop\n        /* \"OpenZeppelin.mod/Strings.sol\":820:1100  while (true) {... */\n    tag_93:\n        /* \"OpenZeppelin.mod/Strings.sol\":827:831  true */\n      0x01\n        /* \"OpenZeppelin.mod/Strings.sol\":820:1100  while (true) {... */\n      iszero\n      tag_94\n      jumpi\n        /* \"OpenZeppelin.mod/Strings.sol\":851:856  ptr-- */\n      dup1\n      dup1\n      0x01\n      swap1\n      sub\n      swap2\n      pop\n      pop\n        /* \"OpenZeppelin.mod/Strings.sol\":990:998  _SYMBOLS */\n      0x3031323334353637383961626364656600000000000000000000000000000000\n        /* \"OpenZeppelin.mod/Strings.sol\":985:987  10 */\n      0x0a\n        /* \"OpenZeppelin.mod/Strings.sol\":978:983  value */\n      dup7\n        /* \"OpenZeppelin.mod/Strings.sol\":974:988  mod(value, 10) */\n      mod\n        /* \"OpenZeppelin.mod/Strings.sol\":969:999  byte(mod(value, 10), _SYMBOLS) */\n      byte\n        /* \"OpenZeppelin.mod/Strings.sol\":964:967  ptr */\n      dup2\n        /* \"OpenZeppelin.mod/Strings.sol\":956:1000  mstore8(ptr, byte(mod(value, 10), _SYMBOLS)) */\n      mstore8\n        /* \"OpenZeppelin.mod/Strings.sol\":1044:1046  10 */\n      0x0a\n        /* \"OpenZeppelin.mod/Strings.sol\":1035:1046  value /= 10 */\n      dup6\n      dup2\n      tag_95\n      jumpi\n      tag_96\n      tag_97\n      jump\t// in\n    tag_96:\n    tag_95:\n      div\n      swap5\n      pop\n        /* \"OpenZeppelin.mod/Strings.sol\":1077:1078  0 */\n      0x00\n        /* \"OpenZeppelin.mod/Strings.sol\":1068:1073  value */\n      dup6\n        /* \"OpenZeppelin.mod/Strings.sol\":1068:1078  value == 0 */\n      sub\n        /* \"OpenZeppelin.mod/Strings.sol\":820:1100  while (true) {... */\n      tag_93\n        /* \"OpenZeppelin.mod/Strings.sol\":1064:1085  if (value == 0) break */\n      jumpi\n        /* \"OpenZeppelin.mod/Strings.sol\":820:1100  while (true) {... */\n    tag_94:\n        /* \"OpenZeppelin.mod/Strings.sol\":1120:1126  buffer */\n      dup2\n        /* \"OpenZeppelin.mod/Strings.sol\":1113:1126  return buffer */\n      swap4\n      pop\n      pop\n      pop\n      pop\n        /* \"OpenZeppelin.mod/Strings.sol\":447:1143  function toString(uint256 value) internal pure returns (string memory) {... */\n      swap2\n      swap1\n      pop\n      jump\t// out\n        /* \"OpenZeppelin.mod/math/Math.sol\":9889:10779  function log10(uint256 value) internal pure returns (uint256) {... */\n    tag_88:\n        /* \"OpenZeppelin.mod/math/Math.sol\":9942:9949  uint256 */\n      0x00\n        /* \"OpenZeppelin.mod/math/Math.sol\":9961:9975  uint256 result */\n      dup1\n        /* \"OpenZeppelin.mod/math/Math.sol\":9978:9979  0 */\n      0x00\n        /* \"OpenZeppelin.mod/math/Math.sol\":9961:9979  uint256 result = 0 */\n      swap1\n      pop\n        /* \"OpenZeppelin.mod/math/Math.sol\":10026:10032  10**64 */\n      0x184f03e93ff9f4daa797ed6e38ed64bf6a1f010000000000000000\n        /* \"OpenZeppelin.mod/math/Math.sol\":10017:10022  value */\n      dup4\n        /* \"OpenZeppelin.mod/math/Math.sol\":10017:10032  value >= 10**64 */\n      lt\n        /* \"OpenZeppelin.mod/math/Math.sol\":10013:10112  if (value >= 10**64) {... */\n      tag_100\n      jumpi\n        /* \"OpenZeppelin.mod/math/Math.sol\":10061:10067  10**64 */\n      0x184f03e93ff9f4daa797ed6e38ed64bf6a1f010000000000000000\n        /* \"OpenZeppelin.mod/math/Math.sol\":10052:10067  value /= 10**64 */\n      dup4\n      dup2\n      tag_101\n      jumpi\n      tag_102\n      tag_97\n      jump\t// in\n    tag_102:\n    tag_101:\n      div\n      swap3\n      pop\n        /* \"OpenZeppelin.mod/math/Math.sol\":10095:10097  64 */\n      0x40\n        /* \"OpenZeppelin.mod/math/Math.sol\":10085:10097  result += 64 */\n      dup2\n      add\n      swap1\n      pop\n        /* \"OpenZeppelin.mod/math/Math.sol\":10013:10112  if (value >= 10**64) {... */\n    tag_100:\n        /* \"OpenZeppelin.mod/math/Math.sol\":10138:10144  10**32 */\n      0x04ee2d6d415b85acef8100000000\n        /* \"OpenZeppelin.mod/math/Math.sol\":10129:10134  value */\n      dup4\n        /* \"OpenZeppelin.mod/math/Math.sol\":10129:10144  value >= 10**32 */\n      lt\n        /* \"OpenZeppelin.mod/math/Math.sol\":10125:10224  if (value >= 10**32) {... */\n      tag_103\n      jumpi\n        /* \"OpenZeppelin.mod/math/Math.sol\":10173:10179  10**32 */\n      0x04ee2d6d415b85acef8100000000\n        /* \"OpenZeppelin.mod/math/Math.sol\":10164:10179  value /= 10**32 */\n      dup4\n      dup2\n      tag_104\n      jumpi\n      tag_105\n      tag_97\n      jump\t// in\n    tag_105:\n    tag_104:\n      div\n      swap3\n      pop\n        /* \"OpenZeppelin.mod/math/Math.sol\":10207:10209  32 */\n      0x20\n        /* \"OpenZeppelin.mod/math/Math.sol\":10197:10209  result += 32 */\n      dup2\n      add\n      swap1\n      pop\n        /* \"OpenZeppelin.mod/math/Math.sol\":10125:10224  if (value >= 10**32) {... */\n    tag_103:\n        /* \"OpenZeppelin.mod/math/Math.sol\":10250:10256  10**16 */\n      0x2386f26fc10000\n        /* \"OpenZeppelin.mod/math/Math.sol\":10241:10246  value */\n      dup4\n        /* \"OpenZeppelin.mod/math/Math.sol\":10241:10256  value >= 10**16 */\n      lt\n        /* \"OpenZeppelin.mod/math/Math.sol\":10237:10336  if (value >= 10**16) {... */\n      tag_106\n      jumpi\n        /* \"OpenZeppelin.mod/math/Math.sol\":10285:10291  10**16 */\n      0x2386f26fc10000\n        /* \"OpenZeppelin.mod/math/Math.sol\":10276:10291  value /= 10**16 */\n      dup4\n      dup2\n      tag_107\n      jumpi\n      tag_108\n      tag_97\n      jump\t// in\n    tag_108:\n    tag_107:\n      div\n      swap3\n      pop\n        /* \"OpenZeppelin.mod/math/Math.sol\":10319:10321  16 */\n      0x10\n        /* \"OpenZeppelin.mod/math/Math.sol\":10309:10321  result += 16 */\n      dup2\n      add\n      swap1\n      pop\n        /* \"OpenZeppelin.mod/math/Math.sol\":10237:10336  if (value >= 10**16) {... */\n    tag_106:\n        /* \"OpenZeppelin.mod/math/Math.sol\":10362:10367  10**8 */\n      0x05f5e100\n        /* \"OpenZeppelin.mod/math/Math.sol\":10353:10358  value */\n      dup4\n        /* \"OpenZeppelin.mod/math/Math.sol\":10353:10367  value >= 10**8 */\n      lt\n        /* \"OpenZeppelin.mod/math/Math.sol\":10349:10445  if (value >= 10**8) {... */\n      tag_109\n      jumpi\n        /* \"OpenZeppelin.mod/math/Math.sol\":10396:10401  10**8 */\n      0x05f5e100\n        /* \"OpenZeppelin.mod/math/Math.sol\":10387:10401  value /= 10**8 */\n      dup4\n      dup2\n      tag_110\n      jumpi\n      tag_111\n      tag_97\n      jump\t// in\n    tag_111:\n    tag_110:\n      div\n      swap3\n      pop\n        /* \"OpenZeppelin.mod/math/Math.sol\":10429:10430  8 */\n      0x08\n        /* \"OpenZeppelin.mod/math/Math.sol\":10419:10430  result += 8 */\n      dup2\n      add\n      swap1\n      pop\n        /* \"OpenZeppelin.mod/math/Math.sol\":10349:10445  if (value >= 10**8) {... */\n    tag_109:\n        /* \"OpenZeppelin.mod/math/Math.sol\":10471:10476  10**4 */\n      0x2710\n        /* \"OpenZeppelin.mod/math/Math.sol\":10462:10467  value */\n      dup4\n        /* \"OpenZeppelin.mod/math/Math.sol\":10462:10476  value >= 10**4 */\n      lt\n        /* \"OpenZeppelin.mod/math/Math.sol\":10458:10554  if (value >= 10**4) {... */\n      tag_112\n      jumpi\n        /* \"OpenZeppelin.mod/math/Math.sol\":10505:10510  10**4 */\n      0x2710\n        /* \"OpenZeppelin.mod/math/Math.sol\":10496:10510  value /= 10**4 */\n      dup4\n      dup2\n      tag_113\n      jumpi\n      tag_114\n      tag_97\n      jump\t// in\n    tag_114:\n    tag_113:\n      div\n      swap3\n      pop\n        /* \"OpenZeppelin.mod/math/Math.sol\":10538:10539  4 */\n      0x04\n        /* \"OpenZeppelin.mod/math/Math.sol\":10528:10539  result += 4 */\n      dup2\n      add\n      swap1\n      pop\n        /* \"OpenZeppelin.mod/math/Math.sol\":10458:10554  if (value >= 10**4) {... */\n    tag_112:\n        /* \"OpenZeppelin.mod/math/Math.sol\":10580:10585  10**2 */\n      0x64\n        /* \"OpenZeppelin.mod/math/Math.sol\":10571:10576  value */\n      dup4\n        /* \"OpenZeppelin.mod/math/Math.sol\":10571:10585  value >= 10**2 */\n      lt\n        /* \"OpenZeppelin.mod/math/Math.sol\":10567:10663  if (value >= 10**2) {... */\n      tag_115\n      jumpi\n        /* \"OpenZeppelin.mod/math/Math.sol\":10614:10619  10**2 */\n      0x64\n        /* \"OpenZeppelin.mod/math/Math.sol\":10605:10619  value /= 10**2 */\n      dup4\n      dup2\n      tag_116\n      jumpi\n      tag_117\n      tag_97\n      jump\t// in\n    tag_117:\n    tag_116:\n      div\n      swap3\n      pop\n        /* \"OpenZeppelin.mod/math/Math.sol\":10647:10648  2 */\n      0x02\n        /* \"OpenZeppelin.mod/math/Math.sol\":10637:10648  result += 2 */\n      dup2\n      add\n      swap1\n      pop\n        /* \"OpenZeppelin.mod/math/Math.sol\":10567:10663  if (value >= 10**2) {... */\n    tag_115:\n        /* \"OpenZeppelin.mod/math/Math.sol\":10689:10694  10**1 */\n      0x0a\n        /* \"OpenZeppelin.mod/math/Math.sol\":10680:10685  value */\n      dup4\n        /* \"OpenZeppelin.mod/math/Math.sol\":10680:10694  value >= 10**1 */\n      lt\n        /* \"OpenZeppelin.mod/math/Math.sol\":10676:10740  if (value >= 10**1) {... */\n      tag_118\n      jumpi\n        /* \"OpenZeppelin.mod/math/Math.sol\":10724:10725  1 */\n      0x01\n        /* \"OpenZeppelin.mod/math/Math.sol\":10714:10725  result += 1 */\n      dup2\n      add\n      swap1\n      pop\n        /* \"OpenZeppelin.mod/math/Math.sol\":10676:10740  if (value >= 10**1) {... */\n    tag_118:\n        /* \"OpenZeppelin.mod/math/Math.sol\":10766:10772  result */\n      dup1\n        /* \"OpenZeppelin.mod/math/Math.sol\":10759:10772  return result */\n      swap2\n      pop\n      pop\n        /* \"OpenZeppelin.mod/math/Math.sol\":9889:10779  function log10(uint256 value) internal pure returns (uint256) {... */\n      swap2\n      swap1\n      pop\n      jump\t// out\n    tag_16:\n      mload(0x40)\n      dup1\n      0x0100\n      add\n      0x40\n      mstore\n      dup1\n      0x60\n      dup2\n      mstore\n      0x20\n      add\n      0x60\n      dup2\n      mstore\n      0x20\n      add\n      0x60\n      dup2\n      mstore\n      0x20\n      add\n      0x60\n      dup2\n      mstore\n      0x20\n      add\n      0x60\n      dup2\n      mstore\n      0x20\n      add\n      and(0xff, 0x00)\n      dup2\n      mstore\n      0x20\n      add\n      and(0xffffffffffffffffffffffffffffffffffffffff, 0x00)\n      dup2\n      mstore\n      0x20\n      add\n      0x00\n      dup1\n      not\n      and\n      dup2\n      mstore\n      pop\n      swap1\n      jump\t// out\n        /* \"#utility.yul\":7:82   */\n    tag_119:\n        /* \"#utility.yul\":40:46   */\n      0x00\n        /* \"#utility.yul\":73:75   */\n      0x40\n        /* \"#utility.yul\":67:76   */\n      mload\n        /* \"#utility.yul\":57:76   */\n      swap1\n      pop\n        /* \"#utility.yul\":7:82   */\n      swap1\n      jump\t// out\n        /* \"#utility.yul\":88:205   */\n    tag_120:\n        /* \"#utility.yul\":197:198   */\n      0x00\n        /* \"#utility.yul\":194:195   */\n      dup1\n        /* \"#utility.yul\":187:199   */\n      revert\n        /* \"#utility.yul\":211:328   */\n    tag_121:\n        /* \"#utility.yul\":320:321   */\n      0x00\n        /* \"#utility.yul\":317:318   */\n      dup1\n        /* \"#utility.yul\":310:322   */\n      revert\n        /* \"#utility.yul\":334:411   */\n    tag_122:\n        /* \"#utility.yul\":371:378   */\n      0x00\n        /* \"#utility.yul\":400:405   */\n      dup2\n        /* \"#utility.yul\":389:405   */\n      swap1\n      pop\n        /* \"#utility.yul\":334:411   */\n      swap2\n      swap1\n      pop\n      jump\t// out\n        /* \"#utility.yul\":417:539   */\n    tag_123:\n        /* \"#utility.yul\":490:514   */\n      tag_191\n        /* \"#utility.yul\":508:513   */\n      dup2\n        /* \"#utility.yul\":490:514   */\n      tag_122\n      jump\t// in\n    tag_191:\n        /* \"#utility.yul\":483:488   */\n      dup2\n        /* \"#utility.yul\":480:515   */\n      eq\n        /* \"#utility.yul\":470:533   */\n      tag_192\n      jumpi\n        /* \"#utility.yul\":529:530   */\n      0x00\n        /* \"#utility.yul\":526:527   */\n      dup1\n        /* \"#utility.yul\":519:531   */\n      revert\n        /* \"#utility.yul\":470:533   */\n    tag_192:\n        /* \"#utility.yul\":417:539   */\n      pop\n      jump\t// out\n        /* \"#utility.yul\":545:684   */\n    tag_124:\n        /* \"#utility.yul\":591:596   */\n      0x00\n        /* \"#utility.yul\":629:635   */\n      dup2\n        /* \"#utility.yul\":616:636   */\n      calldataload\n        /* \"#utility.yul\":607:636   */\n      swap1\n      pop\n        /* \"#utility.yul\":645:678   */\n      tag_194\n        /* \"#utility.yul\":672:677   */\n      dup2\n        /* \"#utility.yul\":645:678   */\n      tag_123\n      jump\t// in\n    tag_194:\n        /* \"#utility.yul\":545:684   */\n      swap3\n      swap2\n      pop\n      pop\n      jump\t// out\n        /* \"#utility.yul\":690:1019   */\n    tag_7:\n        /* \"#utility.yul\":749:755   */\n      0x00\n        /* \"#utility.yul\":798:800   */\n      0x20\n        /* \"#utility.yul\":786:795   */\n      dup3\n        /* \"#utility.yul\":777:784   */\n      dup5\n        /* \"#utility.yul\":773:796   */\n      sub\n        /* \"#utility.yul\":769:801   */\n      slt\n        /* \"#utility.yul\":766:885   */\n      iszero\n      tag_196\n      jumpi\n        /* \"#utility.yul\":804:883   */\n      tag_197\n      tag_120\n      jump\t// in\n    tag_197:\n        /* \"#utility.yul\":766:885   */\n    tag_196:\n        /* \"#utility.yul\":924:925   */\n      0x00\n        /* \"#utility.yul\":949:1002   */\n      tag_198\n        /* \"#utility.yul\":994:1001   */\n      dup5\n        /* \"#utility.yul\":985:991   */\n      dup3\n        /* \"#utility.yul\":974:983   */\n      dup6\n        /* \"#utility.yul\":970:992   */\n      add\n        /* \"#utility.yul\":949:1002   */\n      tag_124\n      jump\t// in\n    tag_198:\n        /* \"#utility.yul\":939:1002   */\n      swap2\n      pop\n        /* \"#utility.yul\":895:1012   */\n      pop\n        /* \"#utility.yul\":690:1019   */\n      swap3\n      swap2\n      pop\n      pop\n      jump\t// out\n        /* \"#utility.yul\":1025:1124   */\n    tag_125:\n        /* \"#utility.yul\":1077:1083   */\n      0x00\n        /* \"#utility.yul\":1111:1116   */\n      dup2\n        /* \"#utility.yul\":1105:1117   */\n      mload\n        /* \"#utility.yul\":1095:1117   */\n      swap1\n      pop\n        /* \"#utility.yul\":1025:1124   */\n      swap2\n      swap1\n      pop\n      jump\t// out\n        /* \"#utility.yul\":1130:1289   */\n    tag_126:\n        /* \"#utility.yul\":1204:1215   */\n      0x00\n        /* \"#utility.yul\":1238:1244   */\n      dup3\n        /* \"#utility.yul\":1233:1236   */\n      dup3\n        /* \"#utility.yul\":1226:1245   */\n      mstore\n        /* \"#utility.yul\":1278:1282   */\n      0x20\n        /* \"#utility.yul\":1273:1276   */\n      dup3\n        /* \"#utility.yul\":1269:1283   */\n      add\n        /* \"#utility.yul\":1254:1283   */\n      swap1\n      pop\n        /* \"#utility.yul\":1130:1289   */\n      swap3\n      swap2\n      pop\n      pop\n      jump\t// out\n        /* \"#utility.yul\":1295:1541   */\n    tag_127:\n        /* \"#utility.yul\":1376:1377   */\n      0x00\n        /* \"#utility.yul\":1386:1499   */\n    tag_202:\n        /* \"#utility.yul\":1400:1406   */\n      dup4\n        /* \"#utility.yul\":1397:1398   */\n      dup2\n        /* \"#utility.yul\":1394:1407   */\n      lt\n        /* \"#utility.yul\":1386:1499   */\n      iszero\n      tag_204\n      jumpi\n        /* \"#utility.yul\":1485:1486   */\n      dup1\n        /* \"#utility.yul\":1480:1483   */\n      dup3\n        /* \"#utility.yul\":1476:1487   */\n      add\n        /* \"#utility.yul\":1470:1488   */\n      mload\n        /* \"#utility.yul\":1466:1467   */\n      dup2\n        /* \"#utility.yul\":1461:1464   */\n      dup5\n        /* \"#utility.yul\":1457:1468   */\n      add\n        /* \"#utility.yul\":1450:1489   */\n      mstore\n        /* \"#utility.yul\":1422:1424   */\n      0x20\n        /* \"#utility.yul\":1419:1420   */\n      dup2\n        /* \"#utility.yul\":1415:1425   */\n      add\n        /* \"#utility.yul\":1410:1425   */\n      swap1\n      pop\n        /* \"#utility.yul\":1386:1499   */\n      jump(tag_202)\n    tag_204:\n        /* \"#utility.yul\":1533:1534   */\n      0x00\n        /* \"#utility.yul\":1524:1530   */\n      dup5\n        /* \"#utility.yul\":1519:1522   */\n      dup5\n        /* \"#utility.yul\":1515:1531   */\n      add\n        /* \"#utility.yul\":1508:1535   */\n      mstore\n        /* \"#utility.yul\":1357:1541   */\n      pop\n        /* \"#utility.yul\":1295:1541   */\n      pop\n      pop\n      pop\n      jump\t// out\n        /* \"#utility.yul\":1547:1649   */\n    tag_128:\n        /* \"#utility.yul\":1588:1594   */\n      0x00\n        /* \"#utility.yul\":1639:1641   */\n      0x1f\n        /* \"#utility.yul\":1635:1642   */\n      not\n        /* \"#utility.yul\":1630:1632   */\n      0x1f\n        /* \"#utility.yul\":1623:1628   */\n      dup4\n        /* \"#utility.yul\":1619:1633   */\n      add\n        /* \"#utility.yul\":1615:1643   */\n      and\n        /* \"#utility.yul\":1605:1643   */\n      swap1\n      pop\n        /* \"#utility.yul\":1547:1649   */\n      swap2\n      swap1\n      pop\n      jump\t// out\n        /* \"#utility.yul\":1655:2012   */\n    tag_129:\n        /* \"#utility.yul\":1733:1736   */\n      0x00\n        /* \"#utility.yul\":1761:1800   */\n      tag_207\n        /* \"#utility.yul\":1794:1799   */\n      dup3\n        /* \"#utility.yul\":1761:1800   */\n      tag_125\n      jump\t// in\n    tag_207:\n        /* \"#utility.yul\":1816:1877   */\n      tag_208\n        /* \"#utility.yul\":1870:1876   */\n      dup2\n        /* \"#utility.yul\":1865:1868   */\n      dup6\n        /* \"#utility.yul\":1816:1877   */\n      tag_126\n      jump\t// in\n    tag_208:\n        /* \"#utility.yul\":1809:1877   */\n      swap4\n      pop\n        /* \"#utility.yul\":1886:1951   */\n      tag_209\n        /* \"#utility.yul\":1944:1950   */\n      dup2\n        /* \"#utility.yul\":1939:1942   */\n      dup6\n        /* \"#utility.yul\":1932:1936   */\n      0x20\n        /* \"#utility.yul\":1925:1930   */\n      dup7\n        /* \"#utility.yul\":1921:1937   */\n      add\n        /* \"#utility.yul\":1886:1951   */\n      tag_127\n      jump\t// in\n    tag_209:\n        /* \"#utility.yul\":1976:2005   */\n      tag_210\n        /* \"#utility.yul\":1998:2004   */\n      dup2\n        /* \"#utility.yul\":1976:2005   */\n      tag_128\n      jump\t// in\n    tag_210:\n        /* \"#utility.yul\":1971:1974   */\n      dup5\n        /* \"#utility.yul\":1967:2006   */\n      add\n        /* \"#utility.yul\":1960:2006   */\n      swap2\n      pop\n        /* \"#utility.yul\":1737:2012   */\n      pop\n        /* \"#utility.yul\":1655:2012   */\n      swap3\n      swap2\n      pop\n      pop\n      jump\t// out\n        /* \"#utility.yul\":2018:2104   */\n    tag_130:\n        /* \"#utility.yul\":2053:2060   */\n      0x00\n        /* \"#utility.yul\":2093:2097   */\n      0xff\n        /* \"#utility.yul\":2086:2091   */\n      dup3\n        /* \"#utility.yul\":2082:2098   */\n      and\n        /* \"#utility.yul\":2071:2098   */\n      swap1\n      pop\n        /* \"#utility.yul\":2018:2104   */\n      swap2\n      swap1\n      pop\n      jump\t// out\n        /* \"#utility.yul\":2110:2212   */\n    tag_131:\n        /* \"#utility.yul\":2183:2205   */\n      tag_213\n        /* \"#utility.yul\":2199:2204   */\n      dup2\n        /* \"#utility.yul\":2183:2205   */\n      tag_130\n      jump\t// in\n    tag_213:\n        /* \"#utility.yul\":2178:2181   */\n      dup3\n        /* \"#utility.yul\":2171:2206   */\n      mstore\n        /* \"#utility.yul\":2110:2212   */\n      pop\n      pop\n      jump\t// out\n        /* \"#utility.yul\":2218:2344   */\n    tag_132:\n        /* \"#utility.yul\":2255:2262   */\n      0x00\n        /* \"#utility.yul\":2295:2337   */\n      0xffffffffffffffffffffffffffffffffffffffff\n        /* \"#utility.yul\":2288:2293   */\n      dup3\n        /* \"#utility.yul\":2284:2338   */\n      and\n        /* \"#utility.yul\":2273:2338   */\n      swap1\n      pop\n        /* \"#utility.yul\":2218:2344   */\n      swap2\n      swap1\n      pop\n      jump\t// out\n        /* \"#utility.yul\":2350:2446   */\n    tag_133:\n        /* \"#utility.yul\":2387:2394   */\n      0x00\n        /* \"#utility.yul\":2416:2440   */\n      tag_216\n        /* \"#utility.yul\":2434:2439   */\n      dup3\n        /* \"#utility.yul\":2416:2440   */\n      tag_132\n      jump\t// in\n    tag_216:\n        /* \"#utility.yul\":2405:2440   */\n      swap1\n      pop\n        /* \"#utility.yul\":2350:2446   */\n      swap2\n      swap1\n      pop\n      jump\t// out\n        /* \"#utility.yul\":2452:2560   */\n    tag_134:\n        /* \"#utility.yul\":2529:2553   */\n      tag_218\n        /* \"#utility.yul\":2547:2552   */\n      dup2\n        /* \"#utility.yul\":2529:2553   */\n      tag_133\n      jump\t// in\n    tag_218:\n        /* \"#utility.yul\":2524:2527   */\n      dup3\n        /* \"#utility.yul\":2517:2554   */\n      mstore\n        /* \"#utility.yul\":2452:2560   */\n      pop\n      pop\n      jump\t// out\n        /* \"#utility.yul\":2566:2674   */\n    tag_135:\n        /* \"#utility.yul\":2643:2667   */\n      tag_220\n        /* \"#utility.yul\":2661:2666   */\n      dup2\n        /* \"#utility.yul\":2643:2667   */\n      tag_122\n      jump\t// in\n    tag_220:\n        /* \"#utility.yul\":2638:2641   */\n      dup3\n        /* \"#utility.yul\":2631:2668   */\n      mstore\n        /* \"#utility.yul\":2566:2674   */\n      pop\n      pop\n      jump\t// out\n        /* \"#utility.yul\":2728:4683   */\n    tag_136:\n        /* \"#utility.yul\":2845:2848   */\n      0x00\n        /* \"#utility.yul\":2881:2887   */\n      0x0100\n        /* \"#utility.yul\":2876:2879   */\n      dup4\n        /* \"#utility.yul\":2872:2888   */\n      add\n        /* \"#utility.yul\":2974:2978   */\n      0x00\n        /* \"#utility.yul\":2967:2972   */\n      dup4\n        /* \"#utility.yul\":2963:2979   */\n      add\n        /* \"#utility.yul\":2957:2980   */\n      mload\n        /* \"#utility.yul\":3027:3030   */\n      dup5\n        /* \"#utility.yul\":3021:3025   */\n      dup3\n        /* \"#utility.yul\":3017:3031   */\n      sub\n        /* \"#utility.yul\":3010:3014   */\n      0x00\n        /* \"#utility.yul\":3005:3008   */\n      dup7\n        /* \"#utility.yul\":3001:3015   */\n      add\n        /* \"#utility.yul\":2994:3032   */\n      mstore\n        /* \"#utility.yul\":3053:3126   */\n      tag_222\n        /* \"#utility.yul\":3121:3125   */\n      dup3\n        /* \"#utility.yul\":3107:3119   */\n      dup3\n        /* \"#utility.yul\":3053:3126   */\n      tag_129\n      jump\t// in\n    tag_222:\n        /* \"#utility.yul\":3045:3126   */\n      swap2\n      pop\n        /* \"#utility.yul\":2898:3137   */\n      pop\n        /* \"#utility.yul\":3218:3222   */\n      0x20\n        /* \"#utility.yul\":3211:3216   */\n      dup4\n        /* \"#utility.yul\":3207:3223   */\n      add\n        /* \"#utility.yul\":3201:3224   */\n      mload\n        /* \"#utility.yul\":3271:3274   */\n      dup5\n        /* \"#utility.yul\":3265:3269   */\n      dup3\n        /* \"#utility.yul\":3261:3275   */\n      sub\n        /* \"#utility.yul\":3254:3258   */\n      0x20\n        /* \"#utility.yul\":3249:3252   */\n      dup7\n        /* \"#utility.yul\":3245:3259   */\n      add\n        /* \"#utility.yul\":3238:3276   */\n      mstore\n        /* \"#utility.yul\":3297:3370   */\n      tag_223\n        /* \"#utility.yul\":3365:3369   */\n      dup3\n        /* \"#utility.yul\":3351:3363   */\n      dup3\n        /* \"#utility.yul\":3297:3370   */\n      tag_129\n      jump\t// in\n    tag_223:\n        /* \"#utility.yul\":3289:3370   */\n      swap2\n      pop\n        /* \"#utility.yul\":3147:3381   */\n      pop\n        /* \"#utility.yul\":3470:3474   */\n      0x40\n        /* \"#utility.yul\":3463:3468   */\n      dup4\n        /* \"#utility.yul\":3459:3475   */\n      add\n        /* \"#utility.yul\":3453:3476   */\n      mload\n        /* \"#utility.yul\":3523:3526   */\n      dup5\n        /* \"#utility.yul\":3517:3521   */\n      dup3\n        /* \"#utility.yul\":3513:3527   */\n      sub\n        /* \"#utility.yul\":3506:3510   */\n      0x40\n        /* \"#utility.yul\":3501:3504   */\n      dup7\n        /* \"#utility.yul\":3497:3511   */\n      add\n        /* \"#utility.yul\":3490:3528   */\n      mstore\n        /* \"#utility.yul\":3549:3622   */\n      tag_224\n        /* \"#utility.yul\":3617:3621   */\n      dup3\n        /* \"#utility.yul\":3603:3615   */\n      dup3\n        /* \"#utility.yul\":3549:3622   */\n      tag_129\n      jump\t// in\n    tag_224:\n        /* \"#utility.yul\":3541:3622   */\n      swap2\n      pop\n        /* \"#utility.yul\":3391:3633   */\n      pop\n        /* \"#utility.yul\":3715:3719   */\n      0x60\n        /* \"#utility.yul\":3708:3713   */\n      dup4\n        /* \"#utility.yul\":3704:3720   */\n      add\n        /* \"#utility.yul\":3698:3721   */\n      mload\n        /* \"#utility.yul\":3768:3771   */\n      dup5\n        /* \"#utility.yul\":3762:3766   */\n      dup3\n        /* \"#utility.yul\":3758:3772   */\n      sub\n        /* \"#utility.yul\":3751:3755   */\n      0x60\n        /* \"#utility.yul\":3746:3749   */\n      dup7\n        /* \"#utility.yul\":3742:3756   */\n      add\n        /* \"#utility.yul\":3735:3773   */\n      mstore\n        /* \"#utility.yul\":3794:3867   */\n      tag_225\n        /* \"#utility.yul\":3862:3866   */\n      dup3\n        /* \"#utility.yul\":3848:3860   */\n      dup3\n        /* \"#utility.yul\":3794:3867   */\n      tag_129\n      jump\t// in\n    tag_225:\n        /* \"#utility.yul\":3786:3867   */\n      swap2\n      pop\n        /* \"#utility.yul\":3643:3878   */\n      pop\n        /* \"#utility.yul\":3961:3965   */\n      0x80\n        /* \"#utility.yul\":3954:3959   */\n      dup4\n        /* \"#utility.yul\":3950:3966   */\n      add\n        /* \"#utility.yul\":3944:3967   */\n      mload\n        /* \"#utility.yul\":4014:4017   */\n      dup5\n        /* \"#utility.yul\":4008:4012   */\n      dup3\n        /* \"#utility.yul\":4004:4018   */\n      sub\n        /* \"#utility.yul\":3997:4001   */\n      0x80\n        /* \"#utility.yul\":3992:3995   */\n      dup7\n        /* \"#utility.yul\":3988:4002   */\n      add\n        /* \"#utility.yul\":3981:4019   */\n      mstore\n        /* \"#utility.yul\":4040:4113   */\n      tag_226\n        /* \"#utility.yul\":4108:4112   */\n      dup3\n        /* \"#utility.yul\":4094:4106   */\n      dup3\n        /* \"#utility.yul\":4040:4113   */\n      tag_129\n      jump\t// in\n    tag_226:\n        /* \"#utility.yul\":4032:4113   */\n      swap2\n      pop\n        /* \"#utility.yul\":3888:4124   */\n      pop\n        /* \"#utility.yul\":4213:4217   */\n      0xa0\n        /* \"#utility.yul\":4206:4211   */\n      dup4\n        /* \"#utility.yul\":4202:4218   */\n      add\n        /* \"#utility.yul\":4196:4219   */\n      mload\n        /* \"#utility.yul\":4232:4291   */\n      tag_227\n        /* \"#utility.yul\":4285:4289   */\n      0xa0\n        /* \"#utility.yul\":4280:4283   */\n      dup7\n        /* \"#utility.yul\":4276:4290   */\n      add\n        /* \"#utility.yul\":4262:4274   */\n      dup3\n        /* \"#utility.yul\":4232:4291   */\n      tag_131\n      jump\t// in\n    tag_227:\n        /* \"#utility.yul\":4134:4301   */\n      pop\n        /* \"#utility.yul\":4391:4395   */\n      0xc0\n        /* \"#utility.yul\":4384:4389   */\n      dup4\n        /* \"#utility.yul\":4380:4396   */\n      add\n        /* \"#utility.yul\":4374:4397   */\n      mload\n        /* \"#utility.yul\":4410:4473   */\n      tag_228\n        /* \"#utility.yul\":4467:4471   */\n      0xc0\n        /* \"#utility.yul\":4462:4465   */\n      dup7\n        /* \"#utility.yul\":4458:4472   */\n      add\n        /* \"#utility.yul\":4444:4456   */\n      dup3\n        /* \"#utility.yul\":4410:4473   */\n      tag_134\n      jump\t// in\n    tag_228:\n        /* \"#utility.yul\":4311:4483   */\n      pop\n        /* \"#utility.yul\":4564:4568   */\n      0xe0\n        /* \"#utility.yul\":4557:4562   */\n      dup4\n        /* \"#utility.yul\":4553:4569   */\n      add\n        /* \"#utility.yul\":4547:4570   */\n      mload\n        /* \"#utility.yul\":4583:4646   */\n      tag_229\n        /* \"#utility.yul\":4640:4644   */\n      0xe0\n        /* \"#utility.yul\":4635:4638   */\n      dup7\n        /* \"#utility.yul\":4631:4645   */\n      add\n        /* \"#utility.yul\":4617:4629   */\n      dup3\n        /* \"#utility.yul\":4583:4646   */\n      tag_135\n      jump\t// in\n    tag_229:\n        /* \"#utility.yul\":4493:4656   */\n      pop\n        /* \"#utility.yul\":4673:4677   */\n      dup1\n        /* \"#utility.yul\":4666:4677   */\n      swap2\n      pop\n        /* \"#utility.yul\":2850:4683   */\n      pop\n        /* \"#utility.yul\":2728:4683   */\n      swap3\n      swap2\n      pop\n      pop\n      jump\t// out\n        /* \"#utility.yul\":4689:5058   */\n    tag_10:\n        /* \"#utility.yul\":4830:4834   */\n      0x00\n        /* \"#utility.yul\":4868:4870   */\n      0x20\n        /* \"#utility.yul\":4857:4866   */\n      dup3\n        /* \"#utility.yul\":4853:4871   */\n      add\n        /* \"#utility.yul\":4845:4871   */\n      swap1\n      pop\n        /* \"#utility.yul\":4917:4926   */\n      dup2\n        /* \"#utility.yul\":4911:4915   */\n      dup2\n        /* \"#utility.yul\":4907:4927   */\n      sub\n        /* \"#utility.yul\":4903:4904   */\n      0x00\n        /* \"#utility.yul\":4892:4901   */\n      dup4\n        /* \"#utility.yul\":4888:4905   */\n      add\n        /* \"#utility.yul\":4881:4928   */\n      mstore\n        /* \"#utility.yul\":4945:5051   */\n      tag_231\n        /* \"#utility.yul\":5046:5050   */\n      dup2\n        /* \"#utility.yul\":5037:5043   */\n      dup5\n        /* \"#utility.yul\":4945:5051   */\n      tag_136\n      jump\t// in\n    tag_231:\n        /* \"#utility.yul\":4937:5051   */\n      swap1\n      pop\n        /* \"#utility.yul\":4689:5058   */\n      swap3\n      swap2\n      pop\n      pop\n      jump\t// out\n        /* \"#utility.yul\":5064:5181   */\n    tag_137:\n        /* \"#utility.yul\":5173:5174   */\n      0x00\n        /* \"#utility.yul\":5170:5171   */\n      dup1\n        /* \"#utility.yul\":5163:5175   */\n      revert\n        /* \"#utility.yul\":5187:5304   */\n    tag_138:\n        /* \"#utility.yul\":5296:5297   */\n      0x00\n        /* \"#utility.yul\":5293:5294   */\n      dup1\n        /* \"#utility.yul\":5286:5298   */\n      revert\n        /* \"#utility.yul\":5310:5490   */\n    tag_91:\n        /* \"#utility.yul\":5358:5435   */\n      0x4e487b7100000000000000000000000000000000000000000000000000000000\n        /* \"#utility.yul\":5355:5356   */\n      0x00\n        /* \"#utility.yul\":5348:5436   */\n      mstore\n        /* \"#utility.yul\":5455:5459   */\n      0x41\n        /* \"#utility.yul\":5452:5453   */\n      0x04\n        /* \"#utility.yul\":5445:5460   */\n      mstore\n        /* \"#utility.yul\":5479:5483   */\n      0x24\n        /* \"#utility.yul\":5476:5477   */\n      0x00\n        /* \"#utility.yul\":5469:5484   */\n      revert\n        /* \"#utility.yul\":5496:5777   */\n    tag_139:\n        /* \"#utility.yul\":5579:5606   */\n      tag_236\n        /* \"#utility.yul\":5601:5605   */\n      dup3\n        /* \"#utility.yul\":5579:5606   */\n      tag_128\n      jump\t// in\n    tag_236:\n        /* \"#utility.yul\":5571:5577   */\n      dup2\n        /* \"#utility.yul\":5567:5607   */\n      add\n        /* \"#utility.yul\":5709:5715   */\n      dup2\n        /* \"#utility.yul\":5697:5707   */\n      dup2\n        /* \"#utility.yul\":5694:5716   */\n      lt\n        /* \"#utility.yul\":5673:5691   */\n      0xffffffffffffffff\n        /* \"#utility.yul\":5661:5671   */\n      dup3\n        /* \"#utility.yul\":5658:5692   */\n      gt\n        /* \"#utility.yul\":5655:5717   */\n      or\n        /* \"#utility.yul\":5652:5740   */\n      iszero\n      tag_237\n      jumpi\n        /* \"#utility.yul\":5720:5738   */\n      tag_238\n      tag_91\n      jump\t// in\n    tag_238:\n        /* \"#utility.yul\":5652:5740   */\n    tag_237:\n        /* \"#utility.yul\":5760:5770   */\n      dup1\n        /* \"#utility.yul\":5756:5758   */\n      0x40\n        /* \"#utility.yul\":5749:5771   */\n      mstore\n        /* \"#utility.yul\":5539:5777   */\n      pop\n        /* \"#utility.yul\":5496:5777   */\n      pop\n      pop\n      jump\t// out\n        /* \"#utility.yul\":5783:5912   */\n    tag_140:\n        /* \"#utility.yul\":5817:5823   */\n      0x00\n        /* \"#utility.yul\":5844:5864   */\n      tag_240\n      tag_119\n      jump\t// in\n    tag_240:\n        /* \"#utility.yul\":5834:5864   */\n      swap1\n      pop\n        /* \"#utility.yul\":5873:5906   */\n      tag_241\n        /* \"#utility.yul\":5901:5905   */\n      dup3\n        /* \"#utility.yul\":5893:5899   */\n      dup3\n        /* \"#utility.yul\":5873:5906   */\n      tag_139\n      jump\t// in\n    tag_241:\n        /* \"#utility.yul\":5783:5912   */\n      swap2\n      swap1\n      pop\n      jump\t// out\n        /* \"#utility.yul\":5918:6226   */\n    tag_141:\n        /* \"#utility.yul\":5980:5984   */\n      0x00\n        /* \"#utility.yul\":6070:6088   */\n      0xffffffffffffffff\n        /* \"#utility.yul\":6062:6068   */\n      dup3\n        /* \"#utility.yul\":6059:6089   */\n      gt\n        /* \"#utility.yul\":6056:6112   */\n      iszero\n      tag_243\n      jumpi\n        /* \"#utility.yul\":6092:6110   */\n      tag_244\n      tag_91\n      jump\t// in\n    tag_244:\n        /* \"#utility.yul\":6056:6112   */\n    tag_243:\n        /* \"#utility.yul\":6130:6159   */\n      tag_245\n        /* \"#utility.yul\":6152:6158   */\n      dup3\n        /* \"#utility.yul\":6130:6159   */\n      tag_128\n      jump\t// in\n    tag_245:\n        /* \"#utility.yul\":6122:6159   */\n      swap1\n      pop\n        /* \"#utility.yul\":6214:6218   */\n      0x20\n        /* \"#utility.yul\":6208:6212   */\n      dup2\n        /* \"#utility.yul\":6204:6219   */\n      add\n        /* \"#utility.yul\":6196:6219   */\n      swap1\n      pop\n        /* \"#utility.yul\":5918:6226   */\n      swap2\n      swap1\n      pop\n      jump\t// out\n        /* \"#utility.yul\":6232:6378   */\n    tag_142:\n        /* \"#utility.yul\":6329:6335   */\n      dup3\n        /* \"#utility.yul\":6324:6327   */\n      dup2\n        /* \"#utility.yul\":6319:6322   */\n      dup4\n        /* \"#utility.yul\":6306:6336   */\n      calldatacopy\n        /* \"#utility.yul\":6370:6371   */\n      0x00\n        /* \"#utility.yul\":6361:6367   */\n      dup4\n        /* \"#utility.yul\":6356:6359   */\n      dup4\n        /* \"#utility.yul\":6352:6368   */\n      add\n        /* \"#utility.yul\":6345:6372   */\n      mstore\n        /* \"#utility.yul\":6232:6378   */\n      pop\n      pop\n      pop\n      jump\t// out\n        /* \"#utility.yul\":6384:6809   */\n    tag_143:\n        /* \"#utility.yul\":6462:6467   */\n      0x00\n        /* \"#utility.yul\":6487:6553   */\n      tag_248\n        /* \"#utility.yul\":6503:6552   */\n      tag_249\n        /* \"#utility.yul\":6545:6551   */\n      dup5\n        /* \"#utility.yul\":6503:6552   */\n      tag_141\n      jump\t// in\n    tag_249:\n        /* \"#utility.yul\":6487:6553   */\n      tag_140\n      jump\t// in\n    tag_248:\n        /* \"#utility.yul\":6478:6553   */\n      swap1\n      pop\n        /* \"#utility.yul\":6576:6582   */\n      dup3\n        /* \"#utility.yul\":6569:6574   */\n      dup2\n        /* \"#utility.yul\":6562:6583   */\n      mstore\n        /* \"#utility.yul\":6614:6618   */\n      0x20\n        /* \"#utility.yul\":6607:6612   */\n      dup2\n        /* \"#utility.yul\":6603:6619   */\n      add\n        /* \"#utility.yul\":6652:6655   */\n      dup5\n        /* \"#utility.yul\":6643:6649   */\n      dup5\n        /* \"#utility.yul\":6638:6641   */\n      dup5\n        /* \"#utility.yul\":6634:6650   */\n      add\n        /* \"#utility.yul\":6631:6656   */\n      gt\n        /* \"#utility.yul\":6628:6740   */\n      iszero\n      tag_250\n      jumpi\n        /* \"#utility.yul\":6659:6738   */\n      tag_251\n      tag_138\n      jump\t// in\n    tag_251:\n        /* \"#utility.yul\":6628:6740   */\n    tag_250:\n        /* \"#utility.yul\":6749:6803   */\n      tag_252\n        /* \"#utility.yul\":6796:6802   */\n      dup5\n        /* \"#utility.yul\":6791:6794   */\n      dup3\n        /* \"#utility.yul\":6786:6789   */\n      dup6\n        /* \"#utility.yul\":6749:6803   */\n      tag_142\n      jump\t// in\n    tag_252:\n        /* \"#utility.yul\":6468:6809   */\n      pop\n        /* \"#utility.yul\":6384:6809   */\n      swap4\n      swap3\n      pop\n      pop\n      pop\n      jump\t// out\n        /* \"#utility.yul\":6829:7169   */\n    tag_144:\n        /* \"#utility.yul\":6885:6890   */\n      0x00\n        /* \"#utility.yul\":6934:6937   */\n      dup3\n        /* \"#utility.yul\":6927:6931   */\n      0x1f\n        /* \"#utility.yul\":6919:6925   */\n      dup4\n        /* \"#utility.yul\":6915:6932   */\n      add\n        /* \"#utility.yul\":6911:6938   */\n      slt\n        /* \"#utility.yul\":6901:7023   */\n      tag_254\n      jumpi\n        /* \"#utility.yul\":6942:7021   */\n      tag_255\n      tag_137\n      jump\t// in\n    tag_255:\n        /* \"#utility.yul\":6901:7023   */\n    tag_254:\n        /* \"#utility.yul\":7059:7065   */\n      dup2\n        /* \"#utility.yul\":7046:7066   */\n      calldataload\n        /* \"#utility.yul\":7084:7163   */\n      tag_256\n        /* \"#utility.yul\":7159:7162   */\n      dup5\n        /* \"#utility.yul\":7151:7157   */\n      dup3\n        /* \"#utility.yul\":7144:7148   */\n      0x20\n        /* \"#utility.yul\":7136:7142   */\n      dup7\n        /* \"#utility.yul\":7132:7149   */\n      add\n        /* \"#utility.yul\":7084:7163   */\n      tag_143\n      jump\t// in\n    tag_256:\n        /* \"#utility.yul\":7075:7163   */\n      swap2\n      pop\n        /* \"#utility.yul\":6891:7169   */\n      pop\n        /* \"#utility.yul\":6829:7169   */\n      swap3\n      swap2\n      pop\n      pop\n      jump\t// out\n        /* \"#utility.yul\":7175:7293   */\n    tag_145:\n        /* \"#utility.yul\":7246:7268   */\n      tag_258\n        /* \"#utility.yul\":7262:7267   */\n      dup2\n        /* \"#utility.yul\":7246:7268   */\n      tag_130\n      jump\t// in\n    tag_258:\n        /* \"#utility.yul\":7239:7244   */\n      dup2\n        /* \"#utility.yul\":7236:7269   */\n      eq\n        /* \"#utility.yul\":7226:7287   */\n      tag_259\n      jumpi\n        /* \"#utility.yul\":7283:7284   */\n      0x00\n        /* \"#utility.yul\":7280:7281   */\n      dup1\n        /* \"#utility.yul\":7273:7285   */\n      revert\n        /* \"#utility.yul\":7226:7287   */\n    tag_259:\n        /* \"#utility.yul\":7175:7293   */\n      pop\n      jump\t// out\n        /* \"#utility.yul\":7299:7434   */\n    tag_146:\n        /* \"#utility.yul\":7343:7348   */\n      0x00\n        /* \"#utility.yul\":7381:7387   */\n      dup2\n        /* \"#utility.yul\":7368:7388   */\n      calldataload\n        /* \"#utility.yul\":7359:7388   */\n      swap1\n      pop\n        /* \"#utility.yul\":7397:7428   */\n      tag_261\n        /* \"#utility.yul\":7422:7427   */\n      dup2\n        /* \"#utility.yul\":7397:7428   */\n      tag_145\n      jump\t// in\n    tag_261:\n        /* \"#utility.yul\":7299:7434   */\n      swap3\n      swap2\n      pop\n      pop\n      jump\t// out\n        /* \"#utility.yul\":7440:7562   */\n    tag_147:\n        /* \"#utility.yul\":7513:7537   */\n      tag_263\n        /* \"#utility.yul\":7531:7536   */\n      dup2\n        /* \"#utility.yul\":7513:7537   */\n      tag_133\n      jump\t// in\n    tag_263:\n        /* \"#utility.yul\":7506:7511   */\n      dup2\n        /* \"#utility.yul\":7503:7538   */\n      eq\n        /* \"#utility.yul\":7493:7556   */\n      tag_264\n      jumpi\n        /* \"#utility.yul\":7552:7553   */\n      0x00\n        /* \"#utility.yul\":7549:7550   */\n      dup1\n        /* \"#utility.yul\":7542:7554   */\n      revert\n        /* \"#utility.yul\":7493:7556   */\n    tag_264:\n        /* \"#utility.yul\":7440:7562   */\n      pop\n      jump\t// out\n        /* \"#utility.yul\":7568:7707   */\n    tag_148:\n        /* \"#utility.yul\":7614:7619   */\n      0x00\n        /* \"#utility.yul\":7652:7658   */\n      dup2\n        /* \"#utility.yul\":7639:7659   */\n      calldataload\n        /* \"#utility.yul\":7630:7659   */\n      swap1\n      pop\n        /* \"#utility.yul\":7668:7701   */\n      tag_266\n        /* \"#utility.yul\":7695:7700   */\n      dup2\n        /* \"#utility.yul\":7668:7701   */\n      tag_147\n      jump\t// in\n    tag_266:\n        /* \"#utility.yul\":7568:7707   */\n      swap3\n      swap2\n      pop\n      pop\n      jump\t// out\n        /* \"#utility.yul\":7713:9812   */\n    tag_13:\n        /* \"#utility.yul\":7874:7880   */\n      0x00\n        /* \"#utility.yul\":7882:7888   */\n      dup1\n        /* \"#utility.yul\":7890:7896   */\n      0x00\n        /* \"#utility.yul\":7898:7904   */\n      dup1\n        /* \"#utility.yul\":7906:7912   */\n      0x00\n        /* \"#utility.yul\":7914:7920   */\n      dup1\n        /* \"#utility.yul\":7922:7928   */\n      0x00\n        /* \"#utility.yul\":7971:7974   */\n      0xe0\n        /* \"#utility.yul\":7959:7968   */\n      dup9\n        /* \"#utility.yul\":7950:7957   */\n      dup11\n        /* \"#utility.yul\":7946:7969   */\n      sub\n        /* \"#utility.yul\":7942:7975   */\n      slt\n        /* \"#utility.yul\":7939:8059   */\n      iszero\n      tag_268\n      jumpi\n        /* \"#utility.yul\":7978:8057   */\n      tag_269\n      tag_120\n      jump\t// in\n    tag_269:\n        /* \"#utility.yul\":7939:8059   */\n    tag_268:\n        /* \"#utility.yul\":8126:8127   */\n      0x00\n        /* \"#utility.yul\":8115:8124   */\n      dup9\n        /* \"#utility.yul\":8111:8128   */\n      add\n        /* \"#utility.yul\":8098:8129   */\n      calldataload\n        /* \"#utility.yul\":8156:8174   */\n      0xffffffffffffffff\n        /* \"#utility.yul\":8148:8154   */\n      dup2\n        /* \"#utility.yul\":8145:8175   */\n      gt\n        /* \"#utility.yul\":8142:8259   */\n      iszero\n      tag_270\n      jumpi\n        /* \"#utility.yul\":8178:8257   */\n      tag_271\n      tag_121\n      jump\t// in\n    tag_271:\n        /* \"#utility.yul\":8142:8259   */\n    tag_270:\n        /* \"#utility.yul\":8283:8346   */\n      tag_272\n        /* \"#utility.yul\":8338:8345   */\n      dup11\n        /* \"#utility.yul\":8329:8335   */\n      dup3\n        /* \"#utility.yul\":8318:8327   */\n      dup12\n        /* \"#utility.yul\":8314:8336   */\n      add\n        /* \"#utility.yul\":8283:8346   */\n      tag_144\n      jump\t// in\n    tag_272:\n        /* \"#utility.yul\":8273:8346   */\n      swap8\n      pop\n        /* \"#utility.yul\":8069:8356   */\n      pop\n        /* \"#utility.yul\":8423:8425   */\n      0x20\n        /* \"#utility.yul\":8412:8421   */\n      dup9\n        /* \"#utility.yul\":8408:8426   */\n      add\n        /* \"#utility.yul\":8395:8427   */\n      calldataload\n        /* \"#utility.yul\":8454:8472   */\n      0xffffffffffffffff\n        /* \"#utility.yul\":8446:8452   */\n      dup2\n        /* \"#utility.yul\":8443:8473   */\n      gt\n        /* \"#utility.yul\":8440:8557   */\n      iszero\n      tag_273\n      jumpi\n        /* \"#utility.yul\":8476:8555   */\n      tag_274\n      tag_121\n      jump\t// in\n    tag_274:\n        /* \"#utility.yul\":8440:8557   */\n    tag_273:\n        /* \"#utility.yul\":8581:8644   */\n      tag_275\n        /* \"#utility.yul\":8636:8643   */\n      dup11\n        /* \"#utility.yul\":8627:8633   */\n      dup3\n        /* \"#utility.yul\":8616:8625   */\n      dup12\n        /* \"#utility.yul\":8612:8634   */\n      add\n        /* \"#utility.yul\":8581:8644   */\n      tag_144\n      jump\t// in\n    tag_275:\n        /* \"#utility.yul\":8571:8644   */\n      swap7\n      pop\n        /* \"#utility.yul\":8366:8654   */\n      pop\n        /* \"#utility.yul\":8721:8723   */\n      0x40\n        /* \"#utility.yul\":8710:8719   */\n      dup9\n        /* \"#utility.yul\":8706:8724   */\n      add\n        /* \"#utility.yul\":8693:8725   */\n      calldataload\n        /* \"#utility.yul\":8752:8770   */\n      0xffffffffffffffff\n        /* \"#utility.yul\":8744:8750   */\n      dup2\n        /* \"#utility.yul\":8741:8771   */\n      gt\n        /* \"#utility.yul\":8738:8855   */\n      iszero\n      tag_276\n      jumpi\n        /* \"#utility.yul\":8774:8853   */\n      tag_277\n      tag_121\n      jump\t// in\n    tag_277:\n        /* \"#utility.yul\":8738:8855   */\n    tag_276:\n        /* \"#utility.yul\":8879:8942   */\n      tag_278\n        /* \"#utility.yul\":8934:8941   */\n      dup11\n        /* \"#utility.yul\":8925:8931   */\n      dup3\n        /* \"#utility.yul\":8914:8923   */\n      dup12\n        /* \"#utility.yul\":8910:8932   */\n      add\n        /* \"#utility.yul\":8879:8942   */\n      tag_144\n      jump\t// in\n    tag_278:\n        /* \"#utility.yul\":8869:8942   */\n      swap6\n      pop\n        /* \"#utility.yul\":8664:8952   */\n      pop\n        /* \"#utility.yul\":9019:9021   */\n      0x60\n        /* \"#utility.yul\":9008:9017   */\n      dup9\n        /* \"#utility.yul\":9004:9022   */\n      add\n        /* \"#utility.yul\":8991:9023   */\n      calldataload\n        /* \"#utility.yul\":9050:9068   */\n      0xffffffffffffffff\n        /* \"#utility.yul\":9042:9048   */\n      dup2\n        /* \"#utility.yul\":9039:9069   */\n      gt\n        /* \"#utility.yul\":9036:9153   */\n      iszero\n      tag_279\n      jumpi\n        /* \"#utility.yul\":9072:9151   */\n      tag_280\n      tag_121\n      jump\t// in\n    tag_280:\n        /* \"#utility.yul\":9036:9153   */\n    tag_279:\n        /* \"#utility.yul\":9177:9240   */\n      tag_281\n        /* \"#utility.yul\":9232:9239   */\n      dup11\n        /* \"#utility.yul\":9223:9229   */\n      dup3\n        /* \"#utility.yul\":9212:9221   */\n      dup12\n        /* \"#utility.yul\":9208:9230   */\n      add\n        /* \"#utility.yul\":9177:9240   */\n      tag_144\n      jump\t// in\n    tag_281:\n        /* \"#utility.yul\":9167:9240   */\n      swap5\n      pop\n        /* \"#utility.yul\":8962:9250   */\n      pop\n        /* \"#utility.yul\":9289:9292   */\n      0x80\n        /* \"#utility.yul\":9316:9367   */\n      tag_282\n        /* \"#utility.yul\":9359:9366   */\n      dup11\n        /* \"#utility.yul\":9350:9356   */\n      dup3\n        /* \"#utility.yul\":9339:9348   */\n      dup12\n        /* \"#utility.yul\":9335:9357   */\n      add\n        /* \"#utility.yul\":9316:9367   */\n      tag_146\n      jump\t// in\n    tag_282:\n        /* \"#utility.yul\":9306:9367   */\n      swap4\n      pop\n        /* \"#utility.yul\":9260:9377   */\n      pop\n        /* \"#utility.yul\":9444:9447   */\n      0xa0\n        /* \"#utility.yul\":9433:9442   */\n      dup9\n        /* \"#utility.yul\":9429:9448   */\n      add\n        /* \"#utility.yul\":9416:9449   */\n      calldataload\n        /* \"#utility.yul\":9476:9494   */\n      0xffffffffffffffff\n        /* \"#utility.yul\":9468:9474   */\n      dup2\n        /* \"#utility.yul\":9465:9495   */\n      gt\n        /* \"#utility.yul\":9462:9579   */\n      iszero\n      tag_283\n      jumpi\n        /* \"#utility.yul\":9498:9577   */\n      tag_284\n      tag_121\n      jump\t// in\n    tag_284:\n        /* \"#utility.yul\":9462:9579   */\n    tag_283:\n        /* \"#utility.yul\":9603:9666   */\n      tag_285\n        /* \"#utility.yul\":9658:9665   */\n      dup11\n        /* \"#utility.yul\":9649:9655   */\n      dup3\n        /* \"#utility.yul\":9638:9647   */\n      dup12\n        /* \"#utility.yul\":9634:9656   */\n      add\n        /* \"#utility.yul\":9603:9666   */\n      tag_144\n      jump\t// in\n    tag_285:\n        /* \"#utility.yul\":9593:9666   */\n      swap3\n      pop\n        /* \"#utility.yul\":9387:9676   */\n      pop\n        /* \"#utility.yul\":9715:9718   */\n      0xc0\n        /* \"#utility.yul\":9742:9795   */\n      tag_286\n        /* \"#utility.yul\":9787:9794   */\n      dup11\n        /* \"#utility.yul\":9778:9784   */\n      dup3\n        /* \"#utility.yul\":9767:9776   */\n      dup12\n        /* \"#utility.yul\":9763:9785   */\n      add\n        /* \"#utility.yul\":9742:9795   */\n      tag_148\n      jump\t// in\n    tag_286:\n        /* \"#utility.yul\":9732:9795   */\n      swap2\n      pop\n        /* \"#utility.yul\":9686:9805   */\n      pop\n        /* \"#utility.yul\":7713:9812   */\n      swap3\n      swap6\n      swap9\n      swap2\n      swap5\n      swap8\n      pop\n      swap3\n      swap6\n      pop\n      jump\t// out\n        /* \"#utility.yul\":9818:9998   */\n    tag_149:\n        /* \"#utility.yul\":9866:9943   */\n      0x4e487b7100000000000000000000000000000000000000000000000000000000\n        /* \"#utility.yul\":9863:9864   */\n      0x00\n        /* \"#utility.yul\":9856:9944   */\n      mstore\n        /* \"#utility.yul\":9963:9967   */\n      0x22\n        /* \"#utility.yul\":9960:9961   */\n      0x04\n        /* \"#utility.yul\":9953:9968   */\n      mstore\n        /* \"#utility.yul\":9987:9991   */\n      0x24\n        /* \"#utility.yul\":9984:9985   */\n      0x00\n        /* \"#utility.yul\":9977:9992   */\n      revert\n        /* \"#utility.yul\":10004:10324   */\n    tag_21:\n        /* \"#utility.yul\":10048:10054   */\n      0x00\n        /* \"#utility.yul\":10085:10086   */\n      0x02\n        /* \"#utility.yul\":10079:10083   */\n      dup3\n        /* \"#utility.yul\":10075:10087   */\n      div\n        /* \"#utility.yul\":10065:10087   */\n      swap1\n      pop\n        /* \"#utility.yul\":10132:10133   */\n      0x01\n        /* \"#utility.yul\":10126:10130   */\n      dup3\n        /* \"#utility.yul\":10122:10134   */\n      and\n        /* \"#utility.yul\":10153:10171   */\n      dup1\n        /* \"#utility.yul\":10143:10224   */\n      tag_289\n      jumpi\n        /* \"#utility.yul\":10209:10213   */\n      0x7f\n        /* \"#utility.yul\":10201:10207   */\n      dup3\n        /* \"#utility.yul\":10197:10214   */\n      and\n        /* \"#utility.yul\":10187:10214   */\n      swap2\n      pop\n        /* \"#utility.yul\":10143:10224   */\n    tag_289:\n        /* \"#utility.yul\":10271:10273   */\n      0x20\n        /* \"#utility.yul\":10263:10269   */\n      dup3\n        /* \"#utility.yul\":10260:10274   */\n      lt\n        /* \"#utility.yul\":10240:10258   */\n      dup2\n        /* \"#utility.yul\":10237:10275   */\n      sub\n        /* \"#utility.yul\":10234:10318   */\n      tag_290\n      jumpi\n        /* \"#utility.yul\":10290:10308   */\n      tag_291\n      tag_149\n      jump\t// in\n    tag_291:\n        /* \"#utility.yul\":10234:10318   */\n    tag_290:\n        /* \"#utility.yul\":10055:10324   */\n      pop\n        /* \"#utility.yul\":10004:10324   */\n      swap2\n      swap1\n      pop\n      jump\t// out\n        /* \"#utility.yul\":10330:10499   */\n    tag_150:\n        /* \"#utility.yul\":10414:10425   */\n      0x00\n        /* \"#utility.yul\":10448:10454   */\n      dup3\n        /* \"#utility.yul\":10443:10446   */\n      dup3\n        /* \"#utility.yul\":10436:10455   */\n      mstore\n        /* \"#utility.yul\":10488:10492   */\n      0x20\n        /* \"#utility.yul\":10483:10486   */\n      dup3\n        /* \"#utility.yul\":10479:10493   */\n      add\n        /* \"#utility.yul\":10464:10493   */\n      swap1\n      pop\n        /* \"#utility.yul\":10330:10499   */\n      swap3\n      swap2\n      pop\n      pop\n      jump\t// out\n        /* \"#utility.yul\":10505:10675   */\n    tag_151:\n        /* \"#utility.yul\":10645:10667   */\n      0x496e76616c696420636f6d70616e792074797065000000000000000000000000\n        /* \"#utility.yul\":10641:10642   */\n      0x00\n        /* \"#utility.yul\":10633:10639   */\n      dup3\n        /* \"#utility.yul\":10629:10643   */\n      add\n        /* \"#utility.yul\":10622:10668   */\n      mstore\n        /* \"#utility.yul\":10505:10675   */\n      pop\n      jump\t// out\n        /* \"#utility.yul\":10681:11047   */\n    tag_152:\n        /* \"#utility.yul\":10823:10826   */\n      0x00\n        /* \"#utility.yul\":10844:10911   */\n      tag_295\n        /* \"#utility.yul\":10908:10910   */\n      0x14\n        /* \"#utility.yul\":10903:10906   */\n      dup4\n        /* \"#utility.yul\":10844:10911   */\n      tag_150\n      jump\t// in\n    tag_295:\n        /* \"#utility.yul\":10837:10911   */\n      swap2\n      pop\n        /* \"#utility.yul\":10920:11013   */\n      tag_296\n        /* \"#utility.yul\":11009:11012   */\n      dup3\n        /* \"#utility.yul\":10920:11013   */\n      tag_151\n      jump\t// in\n    tag_296:\n        /* \"#utility.yul\":11038:11040   */\n      0x20\n        /* \"#utility.yul\":11033:11036   */\n      dup3\n        /* \"#utility.yul\":11029:11041   */\n      add\n        /* \"#utility.yul\":11022:11041   */\n      swap1\n      pop\n        /* \"#utility.yul\":10681:11047   */\n      swap2\n      swap1\n      pop\n      jump\t// out\n        /* \"#utility.yul\":11053:11472   */\n    tag_51:\n        /* \"#utility.yul\":11219:11223   */\n      0x00\n        /* \"#utility.yul\":11257:11259   */\n      0x20\n        /* \"#utility.yul\":11246:11255   */\n      dup3\n        /* \"#utility.yul\":11242:11260   */\n      add\n        /* \"#utility.yul\":11234:11260   */\n      swap1\n      pop\n        /* \"#utility.yul\":11306:11315   */\n      dup2\n        /* \"#utility.yul\":11300:11304   */\n      dup2\n        /* \"#utility.yul\":11296:11316   */\n      sub\n        /* \"#utility.yul\":11292:11293   */\n      0x00\n        /* \"#utility.yul\":11281:11290   */\n      dup4\n        /* \"#utility.yul\":11277:11294   */\n      add\n        /* \"#utility.yul\":11270:11317   */\n      mstore\n        /* \"#utility.yul\":11334:11465   */\n      tag_298\n        /* \"#utility.yul\":11460:11464   */\n      dup2\n        /* \"#utility.yul\":11334:11465   */\n      tag_152\n      jump\t// in\n    tag_298:\n        /* \"#utility.yul\":11326:11465   */\n      swap1\n      pop\n        /* \"#utility.yul\":11053:11472   */\n      swap2\n      swap1\n      pop\n      jump\t// out\n        /* \"#utility.yul\":11478:11639   */\n    tag_153:\n        /* \"#utility.yul\":11618:11631   */\n      0x496e76616c69642053534e000000000000000000000000000000000000000000\n        /* \"#utility.yul\":11614:11615   */\n      0x00\n        /* \"#utility.yul\":11606:11612   */\n      dup3\n        /* \"#utility.yul\":11602:11616   */\n      add\n        /* \"#utility.yul\":11595:11632   */\n      mstore\n        /* \"#utility.yul\":11478:11639   */\n      pop\n      jump\t// out\n        /* \"#utility.yul\":11645:12011   */\n    tag_154:\n        /* \"#utility.yul\":11787:11790   */\n      0x00\n        /* \"#utility.yul\":11808:11875   */\n      tag_301\n        /* \"#utility.yul\":11872:11874   */\n      0x0b\n        /* \"#utility.yul\":11867:11870   */\n      dup4\n        /* \"#utility.yul\":11808:11875   */\n      tag_150\n      jump\t// in\n    tag_301:\n        /* \"#utility.yul\":11801:11875   */\n      swap2\n      pop\n        /* \"#utility.yul\":11884:11977   */\n      tag_302\n        /* \"#utility.yul\":11973:11976   */\n      dup3\n        /* \"#utility.yul\":11884:11977   */\n      tag_153\n      jump\t// in\n    tag_302:\n        /* \"#utility.yul\":12002:12004   */\n      0x20\n        /* \"#utility.yul\":11997:12000   */\n      dup3\n        /* \"#utility.yul\":11993:12005   */\n      add\n        /* \"#utility.yul\":11986:12005   */\n      swap1\n      pop\n        /* \"#utility.yul\":11645:12011   */\n      swap2\n      swap1\n      pop\n      jump\t// out\n        /* \"#utility.yul\":12017:12436   */\n    tag_54:\n        /* \"#utility.yul\":12183:12187   */\n      0x00\n        /* \"#utility.yul\":12221:12223   */\n      0x20\n        /* \"#utility.yul\":12210:12219   */\n      dup3\n        /* \"#utility.yul\":12206:12224   */\n      add\n        /* \"#utility.yul\":12198:12224   */\n      swap1\n      pop\n        /* \"#utility.yul\":12270:12279   */\n      dup2\n        /* \"#utility.yul\":12264:12268   */\n      dup2\n        /* \"#utility.yul\":12260:12280   */\n      sub\n        /* \"#utility.yul\":12256:12257   */\n      0x00\n        /* \"#utility.yul\":12245:12254   */\n      dup4\n        /* \"#utility.yul\":12241:12258   */\n      add\n        /* \"#utility.yul\":12234:12281   */\n      mstore\n        /* \"#utility.yul\":12298:12429   */\n      tag_304\n        /* \"#utility.yul\":12424:12428   */\n      dup2\n        /* \"#utility.yul\":12298:12429   */\n      tag_154\n      jump\t// in\n    tag_304:\n        /* \"#utility.yul\":12290:12429   */\n      swap1\n      pop\n        /* \"#utility.yul\":12017:12436   */\n      swap2\n      swap1\n      pop\n      jump\t// out\n        /* \"#utility.yul\":12442:12604   */\n    tag_155:\n        /* \"#utility.yul\":12582:12596   */\n      0x496e76616c6964206e616d650000000000000000000000000000000000000000\n        /* \"#utility.yul\":12578:12579   */\n      0x00\n        /* \"#utility.yul\":12570:12576   */\n      dup3\n        /* \"#utility.yul\":12566:12580   */\n      add\n        /* \"#utility.yul\":12559:12597   */\n      mstore\n        /* \"#utility.yul\":12442:12604   */\n      pop\n      jump\t// out\n        /* \"#utility.yul\":12610:12976   */\n    tag_156:\n        /* \"#utility.yul\":12752:12755   */\n      0x00\n        /* \"#utility.yul\":12773:12840   */\n      tag_307\n        /* \"#utility.yul\":12837:12839   */\n      0x0c\n        /* \"#utility.yul\":12832:12835   */\n      dup4\n        /* \"#utility.yul\":12773:12840   */\n      tag_150\n      jump\t// in\n    tag_307:\n        /* \"#utility.yul\":12766:12840   */\n      swap2\n      pop\n        /* \"#utility.yul\":12849:12942   */\n      tag_308\n        /* \"#utility.yul\":12938:12941   */\n      dup3\n        /* \"#utility.yul\":12849:12942   */\n      tag_155\n      jump\t// in\n    tag_308:\n        /* \"#utility.yul\":12967:12969   */\n      0x20\n        /* \"#utility.yul\":12962:12965   */\n      dup3\n        /* \"#utility.yul\":12958:12970   */\n      add\n        /* \"#utility.yul\":12951:12970   */\n      swap1\n      pop\n        /* \"#utility.yul\":12610:12976   */\n      swap2\n      swap1\n      pop\n      jump\t// out\n        /* \"#utility.yul\":12982:13401   */\n    tag_57:\n        /* \"#utility.yul\":13148:13152   */\n      0x00\n        /* \"#utility.yul\":13186:13188   */\n      0x20\n        /* \"#utility.yul\":13175:13184   */\n      dup3\n        /* \"#utility.yul\":13171:13189   */\n      add\n        /* \"#utility.yul\":13163:13189   */\n      swap1\n      pop\n        /* \"#utility.yul\":13235:13244   */\n      dup2\n        /* \"#utility.yul\":13229:13233   */\n      dup2\n        /* \"#utility.yul\":13225:13245   */\n      sub\n        /* \"#utility.yul\":13221:13222   */\n      0x00\n        /* \"#utility.yul\":13210:13219   */\n      dup4\n        /* \"#utility.yul\":13206:13223   */\n      add\n        /* \"#utility.yul\":13199:13246   */\n      mstore\n        /* \"#utility.yul\":13263:13394   */\n      tag_310\n        /* \"#utility.yul\":13389:13393   */\n      dup2\n        /* \"#utility.yul\":13263:13394   */\n      tag_156\n      jump\t// in\n    tag_310:\n        /* \"#utility.yul\":13255:13394   */\n      swap1\n      pop\n        /* \"#utility.yul\":12982:13401   */\n      swap2\n      swap1\n      pop\n      jump\t// out\n        /* \"#utility.yul\":13407:13572   */\n    tag_157:\n        /* \"#utility.yul\":13547:13564   */\n      0x496e76616c696420616464726573730000000000000000000000000000000000\n        /* \"#utility.yul\":13543:13544   */\n      0x00\n        /* \"#utility.yul\":13535:13541   */\n      dup3\n        /* \"#utility.yul\":13531:13545   */\n      add\n        /* \"#utility.yul\":13524:13565   */\n      mstore\n        /* \"#utility.yul\":13407:13572   */\n      pop\n      jump\t// out\n        /* \"#utility.yul\":13578:13944   */\n    tag_158:\n        /* \"#utility.yul\":13720:13723   */\n      0x00\n        /* \"#utility.yul\":13741:13808   */\n      tag_313\n        /* \"#utility.yul\":13805:13807   */\n      0x0f\n        /* \"#utility.yul\":13800:13803   */\n      dup4\n        /* \"#utility.yul\":13741:13808   */\n      tag_150\n      jump\t// in\n    tag_313:\n        /* \"#utility.yul\":13734:13808   */\n      swap2\n      pop\n        /* \"#utility.yul\":13817:13910   */\n      tag_314\n        /* \"#utility.yul\":13906:13909   */\n      dup3\n        /* \"#utility.yul\":13817:13910   */\n      tag_157\n      jump\t// in\n    tag_314:\n        /* \"#utility.yul\":13935:13937   */\n      0x20\n        /* \"#utility.yul\":13930:13933   */\n      dup3\n        /* \"#utility.yul\":13926:13938   */\n      add\n        /* \"#utility.yul\":13919:13938   */\n      swap1\n      pop\n        /* \"#utility.yul\":13578:13944   */\n      swap2\n      swap1\n      pop\n      jump\t// out\n        /* \"#utility.yul\":13950:14369   */\n    tag_60:\n        /* \"#utility.yul\":14116:14120   */\n      0x00\n        /* \"#utility.yul\":14154:14156   */\n      0x20\n        /* \"#utility.yul\":14143:14152   */\n      dup3\n        /* \"#utility.yul\":14139:14157   */\n      add\n        /* \"#utility.yul\":14131:14157   */\n      swap1\n      pop\n        /* \"#utility.yul\":14203:14212   */\n      dup2\n        /* \"#utility.yul\":14197:14201   */\n      dup2\n        /* \"#utility.yul\":14193:14213   */\n      sub\n        /* \"#utility.yul\":14189:14190   */\n      0x00\n        /* \"#utility.yul\":14178:14187   */\n      dup4\n        /* \"#utility.yul\":14174:14191   */\n      add\n        /* \"#utility.yul\":14167:14214   */\n      mstore\n        /* \"#utility.yul\":14231:14362   */\n      tag_316\n        /* \"#utility.yul\":14357:14361   */\n      dup2\n        /* \"#utility.yul\":14231:14362   */\n      tag_158\n      jump\t// in\n    tag_316:\n        /* \"#utility.yul\":14223:14362   */\n      swap1\n      pop\n        /* \"#utility.yul\":13950:14369   */\n      swap2\n      swap1\n      pop\n      jump\t// out\n        /* \"#utility.yul\":14375:14543   */\n    tag_159:\n        /* \"#utility.yul\":14515:14535   */\n      0x50617373776f726420746f6f2073686f72740000000000000000000000000000\n        /* \"#utility.yul\":14511:14512   */\n      0x00\n        /* \"#utility.yul\":14503:14509   */\n      dup3\n        /* \"#utility.yul\":14499:14513   */\n      add\n        /* \"#utility.yul\":14492:14536   */\n      mstore\n        /* \"#utility.yul\":14375:14543   */\n      pop\n      jump\t// out\n        /* \"#utility.yul\":14549:14915   */\n    tag_160:\n        /* \"#utility.yul\":14691:14694   */\n      0x00\n        /* \"#utility.yul\":14712:14779   */\n      tag_319\n        /* \"#utility.yul\":14776:14778   */\n      0x12\n        /* \"#utility.yul\":14771:14774   */\n      dup4\n        /* \"#utility.yul\":14712:14779   */\n      tag_150\n      jump\t// in\n    tag_319:\n        /* \"#utility.yul\":14705:14779   */\n      swap2\n      pop\n        /* \"#utility.yul\":14788:14881   */\n      tag_320\n        /* \"#utility.yul\":14877:14880   */\n      dup3\n        /* \"#utility.yul\":14788:14881   */\n      tag_159\n      jump\t// in\n    tag_320:\n        /* \"#utility.yul\":14906:14908   */\n      0x20\n        /* \"#utility.yul\":14901:14904   */\n      dup3\n        /* \"#utility.yul\":14897:14909   */\n      add\n        /* \"#utility.yul\":14890:14909   */\n      swap1\n      pop\n        /* \"#utility.yul\":14549:14915   */\n      swap2\n      swap1\n      pop\n      jump\t// out\n        /* \"#utility.yul\":14921:15340   */\n    tag_63:\n        /* \"#utility.yul\":15087:15091   */\n      0x00\n        /* \"#utility.yul\":15125:15127   */\n      0x20\n        /* \"#utility.yul\":15114:15123   */\n      dup3\n        /* \"#utility.yul\":15110:15128   */\n      add\n        /* \"#utility.yul\":15102:15128   */\n      swap1\n      pop\n        /* \"#utility.yul\":15174:15183   */\n      dup2\n        /* \"#utility.yul\":15168:15172   */\n      dup2\n        /* \"#utility.yul\":15164:15184   */\n      sub\n        /* \"#utility.yul\":15160:15161   */\n      0x00\n        /* \"#utility.yul\":15149:15158   */\n      dup4\n        /* \"#utility.yul\":15145:15162   */\n      add\n        /* \"#utility.yul\":15138:15185   */\n      mstore\n        /* \"#utility.yul\":15202:15333   */\n      tag_322\n        /* \"#utility.yul\":15328:15332   */\n      dup2\n        /* \"#utility.yul\":15202:15333   */\n      tag_160\n      jump\t// in\n    tag_322:\n        /* \"#utility.yul\":15194:15333   */\n      swap1\n      pop\n        /* \"#utility.yul\":14921:15340   */\n      swap2\n      swap1\n      pop\n      jump\t// out\n        /* \"#utility.yul\":15346:15518   */\n    tag_161:\n        /* \"#utility.yul\":15486:15510   */\n      0x50686f6e65206e756d62657220746f6f2073686f727400000000000000000000\n        /* \"#utility.yul\":15482:15483   */\n      0x00\n        /* \"#utility.yul\":15474:15480   */\n      dup3\n        /* \"#utility.yul\":15470:15484   */\n      add\n        /* \"#utility.yul\":15463:15511   */\n      mstore\n        /* \"#utility.yul\":15346:15518   */\n      pop\n      jump\t// out\n        /* \"#utility.yul\":15524:15890   */\n    tag_162:\n        /* \"#utility.yul\":15666:15669   */\n      0x00\n        /* \"#utility.yul\":15687:15754   */\n      tag_325\n        /* \"#utility.yul\":15751:15753   */\n      0x16\n        /* \"#utility.yul\":15746:15749   */\n      dup4\n        /* \"#utility.yul\":15687:15754   */\n      tag_150\n      jump\t// in\n    tag_325:\n        /* \"#utility.yul\":15680:15754   */\n      swap2\n      pop\n        /* \"#utility.yul\":15763:15856   */\n      tag_326\n        /* \"#utility.yul\":15852:15855   */\n      dup3\n        /* \"#utility.yul\":15763:15856   */\n      tag_161\n      jump\t// in\n    tag_326:\n        /* \"#utility.yul\":15881:15883   */\n      0x20\n        /* \"#utility.yul\":15876:15879   */\n      dup3\n        /* \"#utility.yul\":15872:15884   */\n      add\n        /* \"#utility.yul\":15865:15884   */\n      swap1\n      pop\n        /* \"#utility.yul\":15524:15890   */\n      swap2\n      swap1\n      pop\n      jump\t// out\n        /* \"#utility.yul\":15896:16315   */\n    tag_66:\n        /* \"#utility.yul\":16062:16066   */\n      0x00\n        /* \"#utility.yul\":16100:16102   */\n      0x20\n        /* \"#utility.yul\":16089:16098   */\n      dup3\n        /* \"#utility.yul\":16085:16103   */\n      add\n        /* \"#utility.yul\":16077:16103   */\n      swap1\n      pop\n        /* \"#utility.yul\":16149:16158   */\n      dup2\n        /* \"#utility.yul\":16143:16147   */\n      dup2\n        /* \"#utility.yul\":16139:16159   */\n      sub\n        /* \"#utility.yul\":16135:16136   */\n      0x00\n        /* \"#utility.yul\":16124:16133   */\n      dup4\n        /* \"#utility.yul\":16120:16137   */\n      add\n        /* \"#utility.yul\":16113:16160   */\n      mstore\n        /* \"#utility.yul\":16177:16308   */\n      tag_328\n        /* \"#utility.yul\":16303:16307   */\n      dup2\n        /* \"#utility.yul\":16177:16308   */\n      tag_162\n      jump\t// in\n    tag_328:\n        /* \"#utility.yul\":16169:16308   */\n      swap1\n      pop\n        /* \"#utility.yul\":15896:16315   */\n      swap2\n      swap1\n      pop\n      jump\t// out\n        /* \"#utility.yul\":16321:16469   */\n    tag_163:\n        /* \"#utility.yul\":16423:16434   */\n      0x00\n        /* \"#utility.yul\":16460:16463   */\n      dup2\n        /* \"#utility.yul\":16445:16463   */\n      swap1\n      pop\n        /* \"#utility.yul\":16321:16469   */\n      swap3\n      swap2\n      pop\n      pop\n      jump\t// out\n        /* \"#utility.yul\":16475:16865   */\n    tag_164:\n        /* \"#utility.yul\":16581:16584   */\n      0x00\n        /* \"#utility.yul\":16609:16648   */\n      tag_331\n        /* \"#utility.yul\":16642:16647   */\n      dup3\n        /* \"#utility.yul\":16609:16648   */\n      tag_125\n      jump\t// in\n    tag_331:\n        /* \"#utility.yul\":16664:16753   */\n      tag_332\n        /* \"#utility.yul\":16746:16752   */\n      dup2\n        /* \"#utility.yul\":16741:16744   */\n      dup6\n        /* \"#utility.yul\":16664:16753   */\n      tag_163\n      jump\t// in\n    tag_332:\n        /* \"#utility.yul\":16657:16753   */\n      swap4\n      pop\n        /* \"#utility.yul\":16762:16827   */\n      tag_333\n        /* \"#utility.yul\":16820:16826   */\n      dup2\n        /* \"#utility.yul\":16815:16818   */\n      dup6\n        /* \"#utility.yul\":16808:16812   */\n      0x20\n        /* \"#utility.yul\":16801:16806   */\n      dup7\n        /* \"#utility.yul\":16797:16813   */\n      add\n        /* \"#utility.yul\":16762:16827   */\n      tag_127\n      jump\t// in\n    tag_333:\n        /* \"#utility.yul\":16852:16858   */\n      dup1\n        /* \"#utility.yul\":16847:16850   */\n      dup5\n        /* \"#utility.yul\":16843:16859   */\n      add\n        /* \"#utility.yul\":16836:16859   */\n      swap2\n      pop\n        /* \"#utility.yul\":16585:16865   */\n      pop\n        /* \"#utility.yul\":16475:16865   */\n      swap3\n      swap2\n      pop\n      pop\n      jump\t// out\n        /* \"#utility.yul\":16871:17946   */\n    tag_70:\n        /* \"#utility.yul\":17243:17246   */\n      0x00\n        /* \"#utility.yul\":17265:17360   */\n      tag_335\n        /* \"#utility.yul\":17356:17359   */\n      dup3\n        /* \"#utility.yul\":17347:17353   */\n      dup10\n        /* \"#utility.yul\":17265:17360   */\n      tag_164\n      jump\t// in\n    tag_335:\n        /* \"#utility.yul\":17258:17360   */\n      swap2\n      pop\n        /* \"#utility.yul\":17377:17472   */\n      tag_336\n        /* \"#utility.yul\":17468:17471   */\n      dup3\n        /* \"#utility.yul\":17459:17465   */\n      dup9\n        /* \"#utility.yul\":17377:17472   */\n      tag_164\n      jump\t// in\n    tag_336:\n        /* \"#utility.yul\":17370:17472   */\n      swap2\n      pop\n        /* \"#utility.yul\":17489:17584   */\n      tag_337\n        /* \"#utility.yul\":17580:17583   */\n      dup3\n        /* \"#utility.yul\":17571:17577   */\n      dup8\n        /* \"#utility.yul\":17489:17584   */\n      tag_164\n      jump\t// in\n    tag_337:\n        /* \"#utility.yul\":17482:17584   */\n      swap2\n      pop\n        /* \"#utility.yul\":17601:17696   */\n      tag_338\n        /* \"#utility.yul\":17692:17695   */\n      dup3\n        /* \"#utility.yul\":17683:17689   */\n      dup7\n        /* \"#utility.yul\":17601:17696   */\n      tag_164\n      jump\t// in\n    tag_338:\n        /* \"#utility.yul\":17594:17696   */\n      swap2\n      pop\n        /* \"#utility.yul\":17713:17808   */\n      tag_339\n        /* \"#utility.yul\":17804:17807   */\n      dup3\n        /* \"#utility.yul\":17795:17801   */\n      dup6\n        /* \"#utility.yul\":17713:17808   */\n      tag_164\n      jump\t// in\n    tag_339:\n        /* \"#utility.yul\":17706:17808   */\n      swap2\n      pop\n        /* \"#utility.yul\":17825:17920   */\n      tag_340\n        /* \"#utility.yul\":17916:17919   */\n      dup3\n        /* \"#utility.yul\":17907:17913   */\n      dup5\n        /* \"#utility.yul\":17825:17920   */\n      tag_164\n      jump\t// in\n    tag_340:\n        /* \"#utility.yul\":17818:17920   */\n      swap2\n      pop\n        /* \"#utility.yul\":17937:17940   */\n      dup2\n        /* \"#utility.yul\":17930:17940   */\n      swap1\n      pop\n        /* \"#utility.yul\":16871:17946   */\n      swap8\n      swap7\n      pop\n      pop\n      pop\n      pop\n      pop\n      pop\n      pop\n      jump\t// out\n        /* \"#utility.yul\":17952:18227   */\n    tag_72:\n        /* \"#utility.yul\":18084:18087   */\n      0x00\n        /* \"#utility.yul\":18106:18201   */\n      tag_342\n        /* \"#utility.yul\":18197:18200   */\n      dup3\n        /* \"#utility.yul\":18188:18194   */\n      dup5\n        /* \"#utility.yul\":18106:18201   */\n      tag_164\n      jump\t// in\n    tag_342:\n        /* \"#utility.yul\":18099:18201   */\n      swap2\n      pop\n        /* \"#utility.yul\":18218:18221   */\n      dup2\n        /* \"#utility.yul\":18211:18221   */\n      swap1\n      pop\n        /* \"#utility.yul\":17952:18227   */\n      swap3\n      swap2\n      pop\n      pop\n      jump\t// out\n        /* \"#utility.yul\":18233:18312   */\n    tag_165:\n        /* \"#utility.yul\":18272:18279   */\n      0x00\n        /* \"#utility.yul\":18301:18306   */\n      dup2\n        /* \"#utility.yul\":18290:18306   */\n      swap1\n      pop\n        /* \"#utility.yul\":18233:18312   */\n      swap2\n      swap1\n      pop\n      jump\t// out\n        /* \"#utility.yul\":18318:18475   */\n    tag_166:\n        /* \"#utility.yul\":18423:18468   */\n      tag_345\n        /* \"#utility.yul\":18443:18467   */\n      tag_346\n        /* \"#utility.yul\":18461:18466   */\n      dup3\n        /* \"#utility.yul\":18443:18467   */\n      tag_122\n      jump\t// in\n    tag_346:\n        /* \"#utility.yul\":18423:18468   */\n      tag_165\n      jump\t// in\n    tag_345:\n        /* \"#utility.yul\":18418:18421   */\n      dup3\n        /* \"#utility.yul\":18411:18469   */\n      mstore\n        /* \"#utility.yul\":18318:18475   */\n      pop\n      pop\n      jump\t// out\n        /* \"#utility.yul\":18481:18737   */\n    tag_75:\n        /* \"#utility.yul\":18593:18596   */\n      0x00\n        /* \"#utility.yul\":18608:18683   */\n      tag_348\n        /* \"#utility.yul\":18679:18682   */\n      dup3\n        /* \"#utility.yul\":18670:18676   */\n      dup5\n        /* \"#utility.yul\":18608:18683   */\n      tag_166\n      jump\t// in\n    tag_348:\n        /* \"#utility.yul\":18708:18710   */\n      0x20\n        /* \"#utility.yul\":18703:18706   */\n      dup3\n        /* \"#utility.yul\":18699:18711   */\n      add\n        /* \"#utility.yul\":18692:18711   */\n      swap2\n      pop\n        /* \"#utility.yul\":18728:18731   */\n      dup2\n        /* \"#utility.yul\":18721:18731   */\n      swap1\n      pop\n        /* \"#utility.yul\":18481:18737   */\n      swap3\n      swap2\n      pop\n      pop\n      jump\t// out\n        /* \"#utility.yul\":18743:18884   */\n    tag_167:\n        /* \"#utility.yul\":18792:18796   */\n      0x00\n        /* \"#utility.yul\":18815:18818   */\n      dup2\n        /* \"#utility.yul\":18807:18818   */\n      swap1\n      pop\n        /* \"#utility.yul\":18838:18841   */\n      dup2\n        /* \"#utility.yul\":18835:18836   */\n      0x00\n        /* \"#utility.yul\":18828:18842   */\n      mstore\n        /* \"#utility.yul\":18872:18876   */\n      0x20\n        /* \"#utility.yul\":18869:18870   */\n      0x00\n        /* \"#utility.yul\":18859:18877   */\n      keccak256\n        /* \"#utility.yul\":18851:18877   */\n      swap1\n      pop\n        /* \"#utility.yul\":18743:18884   */\n      swap2\n      swap1\n      pop\n      jump\t// out\n        /* \"#utility.yul\":18890:18983   */\n    tag_168:\n        /* \"#utility.yul\":18927:18933   */\n      0x00\n        /* \"#utility.yul\":18974:18976   */\n      0x20\n        /* \"#utility.yul\":18969:18971   */\n      0x1f\n        /* \"#utility.yul\":18962:18967   */\n      dup4\n        /* \"#utility.yul\":18958:18972   */\n      add\n        /* \"#utility.yul\":18954:18977   */\n      div\n        /* \"#utility.yul\":18944:18977   */\n      swap1\n      pop\n        /* \"#utility.yul\":18890:18983   */\n      swap2\n      swap1\n      pop\n      jump\t// out\n        /* \"#utility.yul\":18989:19096   */\n    tag_169:\n        /* \"#utility.yul\":19033:19041   */\n      0x00\n        /* \"#utility.yul\":19083:19088   */\n      dup3\n        /* \"#utility.yul\":19077:19081   */\n      dup3\n        /* \"#utility.yul\":19073:19089   */\n      shl\n        /* \"#utility.yul\":19052:19089   */\n      swap1\n      pop\n        /* \"#utility.yul\":18989:19096   */\n      swap3\n      swap2\n      pop\n      pop\n      jump\t// out\n        /* \"#utility.yul\":19102:19495   */\n    tag_170:\n        /* \"#utility.yul\":19171:19177   */\n      0x00\n        /* \"#utility.yul\":19221:19222   */\n      0x08\n        /* \"#utility.yul\":19209:19219   */\n      dup4\n        /* \"#utility.yul\":19205:19223   */\n      mul\n        /* \"#utility.yul\":19244:19341   */\n      tag_353\n        /* \"#utility.yul\":19274:19340   */\n      0xffffffffffffffffffffffffffffffffffffffffffffffffffffffffffffffff\n        /* \"#utility.yul\":19263:19272   */\n      dup3\n        /* \"#utility.yul\":19244:19341   */\n      tag_169\n      jump\t// in\n    tag_353:\n        /* \"#utility.yul\":19362:19401   */\n      tag_354\n        /* \"#utility.yul\":19392:19400   */\n      dup7\n        /* \"#utility.yul\":19381:19390   */\n      dup4\n        /* \"#utility.yul\":19362:19401   */\n      tag_169\n      jump\t// in\n    tag_354:\n        /* \"#utility.yul\":19350:19401   */\n      swap6\n      pop\n        /* \"#utility.yul\":19434:19438   */\n      dup1\n        /* \"#utility.yul\":19430:19439   */\n      not\n        /* \"#utility.yul\":19423:19428   */\n      dup5\n        /* \"#utility.yul\":19419:19440   */\n      and\n        /* \"#utility.yul\":19410:19440   */\n      swap4\n      pop\n        /* \"#utility.yul\":19483:19487   */\n      dup1\n        /* \"#utility.yul\":19473:19481   */\n      dup7\n        /* \"#utility.yul\":19469:19488   */\n      and\n        /* \"#utility.yul\":19462:19467   */\n      dup5\n        /* \"#utility.yul\":19459:19489   */\n      or\n        /* \"#utility.yul\":19449:19489   */\n      swap3\n      pop\n        /* \"#utility.yul\":19178:19495   */\n      pop\n      pop\n        /* \"#utility.yul\":19102:19495   */\n      swap4\n      swap3\n      pop\n      pop\n      pop\n      jump\t// out\n        /* \"#utility.yul\":19501:19578   */\n    tag_171:\n        /* \"#utility.yul\":19538:19545   */\n      0x00\n        /* \"#utility.yul\":19567:19572   */\n      dup2\n        /* \"#utility.yul\":19556:19572   */\n      swap1\n      pop\n        /* \"#utility.yul\":19501:19578   */\n      swap2\n      swap1\n      pop\n      jump\t// out\n        /* \"#utility.yul\":19584:19644   */\n    tag_172:\n        /* \"#utility.yul\":19612:19615   */\n      0x00\n        /* \"#utility.yul\":19633:19638   */\n      dup2\n        /* \"#utility.yul\":19626:19638   */\n      swap1\n      pop\n        /* \"#utility.yul\":19584:19644   */\n      swap2\n      swap1\n      pop\n      jump\t// out\n        /* \"#utility.yul\":19650:19792   */\n    tag_173:\n        /* \"#utility.yul\":19700:19709   */\n      0x00\n        /* \"#utility.yul\":19733:19786   */\n      tag_358\n        /* \"#utility.yul\":19751:19785   */\n      tag_359\n        /* \"#utility.yul\":19760:19784   */\n      tag_360\n        /* \"#utility.yul\":19778:19783   */\n      dup5\n        /* \"#utility.yul\":19760:19784   */\n      tag_171\n      jump\t// in\n    tag_360:\n        /* \"#utility.yul\":19751:19785   */\n      tag_172\n      jump\t// in\n    tag_359:\n        /* \"#utility.yul\":19733:19786   */\n      tag_171\n      jump\t// in\n    tag_358:\n        /* \"#utility.yul\":19720:19786   */\n      swap1\n      pop\n        /* \"#utility.yul\":19650:19792   */\n      swap2\n      swap1\n      pop\n      jump\t// out\n        /* \"#utility.yul\":19798:19873   */\n    tag_174:\n        /* \"#utility.yul\":19841:19844   */\n      0x00\n        /* \"#utility.yul\":19862:19867   */\n      dup2\n        /* \"#utility.yul\":19855:19867   */\n      swap1\n      pop\n        /* \"#utility.yul\":19798:19873   */\n      swap2\n      swap1\n      pop\n      jump\t// out\n        /* \"#utility.yul\":19879:20148   */\n    tag_175:\n        /* \"#utility.yul\":19989:20028   */\n      tag_363\n        /* \"#utility.yul\":20020:20027   */\n      dup4\n        /* \"#utility.yul\":19989:20028   */\n      tag_173\n      jump\t// in\n    tag_363:\n        /* \"#utility.yul\":20050:20141   */\n      tag_364\n        /* \"#utility.yul\":20099:20140   */\n      tag_365\n        /* \"#utility.yul\":20123:20139   */\n      dup3\n        /* \"#utility.yul\":20099:20140   */\n      tag_174\n      jump\t// in\n    tag_365:\n        /* \"#utility.yul\":20091:20097   */\n      dup5\n        /* \"#utility.yul\":20084:20088   */\n      dup5\n        /* \"#utility.yul\":20078:20089   */\n      sload\n        /* \"#utility.yul\":20050:20141   */\n      tag_170\n      jump\t// in\n    tag_364:\n        /* \"#utility.yul\":20044:20048   */\n      dup3\n        /* \"#utility.yul\":20037:20142   */\n      sstore\n        /* \"#utility.yul\":19955:20148   */\n      pop\n        /* \"#utility.yul\":19879:20148   */\n      pop\n      pop\n      pop\n      jump\t// out\n        /* \"#utility.yul\":20154:20227   */\n    tag_176:\n        /* \"#utility.yul\":20199:20202   */\n      0x00\n        /* \"#utility.yul\":20154:20227   */\n      swap1\n      jump\t// out\n        /* \"#utility.yul\":20233:20422   */\n    tag_177:\n        /* \"#utility.yul\":20310:20342   */\n      tag_368\n      tag_176\n      jump\t// in\n    tag_368:\n        /* \"#utility.yul\":20351:20416   */\n      tag_369\n        /* \"#utility.yul\":20409:20415   */\n      dup2\n        /* \"#utility.yul\":20401:20407   */\n      dup5\n        /* \"#utility.yul\":20395:20399   */\n      dup5\n        /* \"#utility.yul\":20351:20416   */\n      tag_175\n      jump\t// in\n    tag_369:\n        /* \"#utility.yul\":20286:20422   */\n      pop\n        /* \"#utility.yul\":20233:20422   */\n      pop\n      pop\n      jump\t// out\n        /* \"#utility.yul\":20428:20614   */\n    tag_178:\n        /* \"#utility.yul\":20488:20608   */\n    tag_371:\n        /* \"#utility.yul\":20505:20508   */\n      dup2\n        /* \"#utility.yul\":20498:20503   */\n      dup2\n        /* \"#utility.yul\":20495:20509   */\n      lt\n        /* \"#utility.yul\":20488:20608   */\n      iszero\n      tag_373\n      jumpi\n        /* \"#utility.yul\":20559:20598   */\n      tag_374\n        /* \"#utility.yul\":20596:20597   */\n      0x00\n        /* \"#utility.yul\":20589:20594   */\n      dup3\n        /* \"#utility.yul\":20559:20598   */\n      tag_177\n      jump\t// in\n    tag_374:\n        /* \"#utility.yul\":20532:20533   */\n      0x01\n        /* \"#utility.yul\":20525:20530   */\n      dup2\n        /* \"#utility.yul\":20521:20534   */\n      add\n        /* \"#utility.yul\":20512:20534   */\n      swap1\n      pop\n        /* \"#utility.yul\":20488:20608   */\n      jump(tag_371)\n    tag_373:\n        /* \"#utility.yul\":20428:20614   */\n      pop\n      pop\n      jump\t// out\n        /* \"#utility.yul\":20620:21163   */\n    tag_179:\n        /* \"#utility.yul\":20721:20723   */\n      0x1f\n        /* \"#utility.yul\":20716:20719   */\n      dup3\n        /* \"#utility.yul\":20713:20724   */\n      gt\n        /* \"#utility.yul\":20710:21156   */\n      iszero\n      tag_376\n      jumpi\n        /* \"#utility.yul\":20755:20793   */\n      tag_377\n        /* \"#utility.yul\":20787:20792   */\n      dup2\n        /* \"#utility.yul\":20755:20793   */\n      tag_167\n      jump\t// in\n    tag_377:\n        /* \"#utility.yul\":20839:20868   */\n      tag_378\n        /* \"#utility.yul\":20857:20867   */\n      dup5\n        /* \"#utility.yul\":20839:20868   */\n      tag_168\n      jump\t// in\n    tag_378:\n        /* \"#utility.yul\":20829:20837   */\n      dup2\n        /* \"#utility.yul\":20825:20869   */\n      add\n        /* \"#utility.yul\":21022:21024   */\n      0x20\n        /* \"#utility.yul\":21010:21020   */\n      dup6\n        /* \"#utility.yul\":21007:21025   */\n      lt\n        /* \"#utility.yul\":21004:21053   */\n      iszero\n      tag_379\n      jumpi\n        /* \"#utility.yul\":21043:21051   */\n      dup2\n        /* \"#utility.yul\":21028:21051   */\n      swap1\n      pop\n        /* \"#utility.yul\":21004:21053   */\n    tag_379:\n        /* \"#utility.yul\":21066:21146   */\n      tag_380\n        /* \"#utility.yul\":21122:21144   */\n      tag_381\n        /* \"#utility.yul\":21140:21143   */\n      dup6\n        /* \"#utility.yul\":21122:21144   */\n      tag_168\n      jump\t// in\n    tag_381:\n        /* \"#utility.yul\":21112:21120   */\n      dup4\n        /* \"#utility.yul\":21108:21145   */\n      add\n        /* \"#utility.yul\":21095:21106   */\n      dup3\n        /* \"#utility.yul\":21066:21146   */\n      tag_178\n      jump\t// in\n    tag_380:\n        /* \"#utility.yul\":20725:21156   */\n      pop\n      pop\n        /* \"#utility.yul\":20710:21156   */\n    tag_376:\n        /* \"#utility.yul\":20620:21163   */\n      pop\n      pop\n      pop\n      jump\t// out\n        /* \"#utility.yul\":21169:21286   */\n    tag_180:\n        /* \"#utility.yul\":21223:21231   */\n      0x00\n        /* \"#utility.yul\":21273:21278   */\n      dup3\n        /* \"#utility.yul\":21267:21271   */\n      dup3\n        /* \"#utility.yul\":21263:21279   */\n      shr\n        /* \"#utility.yul\":21242:21279   */\n      swap1\n      pop\n        /* \"#utility.yul\":21169:21286   */\n      swap3\n      swap2\n      pop\n      pop\n      jump\t// out\n        /* \"#utility.yul\":21292:21461   */\n    tag_181:\n        /* \"#utility.yul\":21336:21342   */\n      0x00\n        /* \"#utility.yul\":21369:21420   */\n      tag_384\n        /* \"#utility.yul\":21417:21418   */\n      0x00\n        /* \"#utility.yul\":21413:21419   */\n      not\n        /* \"#utility.yul\":21405:21410   */\n      dup5\n        /* \"#utility.yul\":21402:21403   */\n      0x08\n        /* \"#utility.yul\":21398:21411   */\n      mul\n        /* \"#utility.yul\":21369:21420   */\n      tag_180\n      jump\t// in\n    tag_384:\n        /* \"#utility.yul\":21365:21421   */\n      not\n        /* \"#utility.yul\":21450:21454   */\n      dup1\n        /* \"#utility.yul\":21444:21448   */\n      dup4\n        /* \"#utility.yul\":21440:21455   */\n      and\n        /* \"#utility.yul\":21430:21455   */\n      swap2\n      pop\n        /* \"#utility.yul\":21343:21461   */\n      pop\n        /* \"#utility.yul\":21292:21461   */\n      swap3\n      swap2\n      pop\n      pop\n      jump\t// out\n        /* \"#utility.yul\":21466:21761   */\n    tag_182:\n        /* \"#utility.yul\":21542:21546   */\n      0x00\n        /* \"#utility.yul\":21688:21717   */\n      tag_386\n        /* \"#utility.yul\":21713:21716   */\n      dup4\n        /* \"#utility.yul\":21707:21711   */\n      dup4\n        /* \"#utility.yul\":21688:21717   */\n      tag_181\n      jump\t// in\n    tag_386:\n        /* \"#utility.yul\":21680:21717   */\n      swap2\n      pop\n        /* \"#utility.yul\":21750:21753   */\n      dup3\n        /* \"#utility.yul\":21747:21748   */\n      0x02\n        /* \"#utility.yul\":21743:21754   */\n      mul\n        /* \"#utility.yul\":21737:21741   */\n      dup3\n        /* \"#utility.yul\":21734:21755   */\n      or\n        /* \"#utility.yul\":21726:21755   */\n      swap1\n      pop\n        /* \"#utility.yul\":21466:21761   */\n      swap3\n      swap2\n      pop\n      pop\n      jump\t// out\n        /* \"#utility.yul\":21766:23161   */\n    tag_77:\n        /* \"#utility.yul\":21883:21920   */\n      tag_388\n        /* \"#utility.yul\":21916:21919   */\n      dup3\n        /* \"#utility.yul\":21883:21920   */\n      tag_125\n      jump\t// in\n    tag_388:\n        /* \"#utility.yul\":21985:22003   */\n      0xffffffffffffffff\n        /* \"#utility.yul\":21977:21983   */\n      dup2\n        /* \"#utility.yul\":21974:22004   */\n      gt\n        /* \"#utility.yul\":21971:22027   */\n      iszero\n      tag_389\n      jumpi\n        /* \"#utility.yul\":22007:22025   */\n      tag_390\n      tag_91\n      jump\t// in\n    tag_390:\n        /* \"#utility.yul\":21971:22027   */\n    tag_389:\n        /* \"#utility.yul\":22051:22089   */\n      tag_391\n        /* \"#utility.yul\":22083:22087   */\n      dup3\n        /* \"#utility.yul\":22077:22088   */\n      sload\n        /* \"#utility.yul\":22051:22089   */\n      tag_21\n      jump\t// in\n    tag_391:\n        /* \"#utility.yul\":22136:22203   */\n      tag_392\n        /* \"#utility.yul\":22196:22202   */\n      dup3\n        /* \"#utility.yul\":22188:22194   */\n      dup3\n        /* \"#utility.yul\":22182:22186   */\n      dup6\n        /* \"#utility.yul\":22136:22203   */\n      tag_179\n      jump\t// in\n    tag_392:\n        /* \"#utility.yul\":22230:22231   */\n      0x00\n        /* \"#utility.yul\":22254:22258   */\n      0x20\n        /* \"#utility.yul\":22241:22258   */\n      swap1\n      pop\n        /* \"#utility.yul\":22286:22288   */\n      0x1f\n        /* \"#utility.yul\":22278:22284   */\n      dup4\n        /* \"#utility.yul\":22275:22289   */\n      gt\n        /* \"#utility.yul\":22303:22304   */\n      0x01\n        /* \"#utility.yul\":22298:22916   */\n      dup2\n      eq\n      tag_394\n      jumpi\n        /* \"#utility.yul\":22960:22961   */\n      0x00\n        /* \"#utility.yul\":22977:22983   */\n      dup5\n        /* \"#utility.yul\":22974:23051   */\n      iszero\n      tag_395\n      jumpi\n        /* \"#utility.yul\":23026:23035   */\n      dup3\n        /* \"#utility.yul\":23021:23024   */\n      dup8\n        /* \"#utility.yul\":23017:23036   */\n      add\n        /* \"#utility.yul\":23011:23037   */\n      mload\n        /* \"#utility.yul\":23002:23037   */\n      swap1\n      pop\n        /* \"#utility.yul\":22974:23051   */\n    tag_395:\n        /* \"#utility.yul\":23077:23144   */\n      tag_396\n        /* \"#utility.yul\":23137:23143   */\n      dup6\n        /* \"#utility.yul\":23130:23135   */\n      dup3\n        /* \"#utility.yul\":23077:23144   */\n      tag_182\n      jump\t// in\n    tag_396:\n        /* \"#utility.yul\":23071:23075   */\n      dup7\n        /* \"#utility.yul\":23064:23145   */\n      sstore\n        /* \"#utility.yul\":22933:23155   */\n      pop\n        /* \"#utility.yul\":22268:23155   */\n      jump(tag_393)\n        /* \"#utility.yul\":22298:22916   */\n    tag_394:\n        /* \"#utility.yul\":22350:22354   */\n      0x1f\n        /* \"#utility.yul\":22346:22355   */\n      not\n        /* \"#utility.yul\":22338:22344   */\n      dup5\n        /* \"#utility.yul\":22334:22356   */\n      and\n        /* \"#utility.yul\":22384:22421   */\n      tag_397\n        /* \"#utility.yul\":22416:22420   */\n      dup7\n        /* \"#utility.yul\":22384:22421   */\n      tag_167\n      jump\t// in\n    tag_397:\n        /* \"#utility.yul\":22443:22444   */\n      0x00\n        /* \"#utility.yul\":22457:22665   */\n    tag_398:\n        /* \"#utility.yul\":22471:22478   */\n      dup3\n        /* \"#utility.yul\":22468:22469   */\n      dup2\n        /* \"#utility.yul\":22465:22479   */\n      lt\n        /* \"#utility.yul\":22457:22665   */\n      iszero\n      tag_400\n      jumpi\n        /* \"#utility.yul\":22550:22559   */\n      dup5\n        /* \"#utility.yul\":22545:22548   */\n      dup10\n        /* \"#utility.yul\":22541:22560   */\n      add\n        /* \"#utility.yul\":22535:22561   */\n      mload\n        /* \"#utility.yul\":22527:22533   */\n      dup3\n        /* \"#utility.yul\":22520:22562   */\n      sstore\n        /* \"#utility.yul\":22601:22602   */\n      0x01\n        /* \"#utility.yul\":22593:22599   */\n      dup3\n        /* \"#utility.yul\":22589:22603   */\n      add\n        /* \"#utility.yul\":22579:22603   */\n      swap2\n      pop\n        /* \"#utility.yul\":22648:22650   */\n      0x20\n        /* \"#utility.yul\":22637:22646   */\n      dup6\n        /* \"#utility.yul\":22633:22651   */\n      add\n        /* \"#utility.yul\":22620:22651   */\n      swap5\n      pop\n        /* \"#utility.yul\":22494:22498   */\n      0x20\n        /* \"#utility.yul\":22491:22492   */\n      dup2\n        /* \"#utility.yul\":22487:22499   */\n      add\n        /* \"#utility.yul\":22482:22499   */\n      swap1\n      pop\n        /* \"#utility.yul\":22457:22665   */\n      jump(tag_398)\n    tag_400:\n        /* \"#utility.yul\":22693:22699   */\n      dup7\n        /* \"#utility.yul\":22684:22691   */\n      dup4\n        /* \"#utility.yul\":22681:22700   */\n      lt\n        /* \"#utility.yul\":22678:22857   */\n      iszero\n      tag_401\n      jumpi\n        /* \"#utility.yul\":22751:22760   */\n      dup5\n        /* \"#utility.yul\":22746:22749   */\n      dup10\n        /* \"#utility.yul\":22742:22761   */\n      add\n        /* \"#utility.yul\":22736:22762   */\n      mload\n        /* \"#utility.yul\":22794:22842   */\n      tag_402\n        /* \"#utility.yul\":22836:22840   */\n      0x1f\n        /* \"#utility.yul\":22828:22834   */\n      dup10\n        /* \"#utility.yul\":22824:22841   */\n      and\n        /* \"#utility.yul\":22813:22822   */\n      dup3\n        /* \"#utility.yul\":22794:22842   */\n      tag_181\n      jump\t// in\n    tag_402:\n        /* \"#utility.yul\":22786:22792   */\n      dup4\n        /* \"#utility.yul\":22779:22843   */\n      sstore\n        /* \"#utility.yul\":22701:22857   */\n      pop\n        /* \"#utility.yul\":22678:22857   */\n    tag_401:\n        /* \"#utility.yul\":22903:22904   */\n      0x01\n        /* \"#utility.yul\":22899:22900   */\n      0x02\n        /* \"#utility.yul\":22891:22897   */\n      dup9\n        /* \"#utility.yul\":22887:22901   */\n      mul\n        /* \"#utility.yul\":22883:22905   */\n      add\n        /* \"#utility.yul\":22877:22881   */\n      dup9\n        /* \"#utility.yul\":22870:22906   */\n      sstore\n        /* \"#utility.yul\":22305:22916   */\n      pop\n      pop\n      pop\n        /* \"#utility.yul\":22268:23155   */\n    tag_393:\n      pop\n        /* \"#utility.yul\":21858:23161   */\n      pop\n      pop\n      pop\n        /* \"#utility.yul\":21766:23161   */\n      pop\n      pop\n      jump\t// out\n        /* \"#utility.yul\":23167:23328   */\n    tag_183:\n        /* \"#utility.yul\":23307:23320   */\n      0x4e6f7420616c6c6f776564000000000000000000000000000000000000000000\n        /* \"#utility.yul\":23303:23304   */\n      0x00\n        /* \"#utility.yul\":23295:23301   */\n      dup3\n        /* \"#utility.yul\":23291:23305   */\n      add\n        /* \"#utility.yul\":23284:23321   */\n      mstore\n        /* \"#utility.yul\":23167:23328   */\n      pop\n      jump\t// out\n        /* \"#utility.yul\":23334:23700   */\n    tag_184:\n        /* \"#utility.yul\":23476:23479   */\n      0x00\n        /* \"#utility.yul\":23497:23564   */\n      tag_405\n        /* \"#utility.yul\":23561:23563   */\n      0x0b\n        /* \"#utility.yul\":23556:23559   */\n      dup4\n        /* \"#utility.yul\":23497:23564   */\n      tag_150\n      jump\t// in\n    tag_405:\n        /* \"#utility.yul\":23490:23564   */\n      swap2\n      pop\n        /* \"#utility.yul\":23573:23666   */\n      tag_406\n        /* \"#utility.yul\":23662:23665   */\n      dup3\n        /* \"#utility.yul\":23573:23666   */\n      tag_183\n      jump\t// in\n    tag_406:\n        /* \"#utility.yul\":23691:23693   */\n      0x20\n        /* \"#utility.yul\":23686:23689   */\n      dup3\n        /* \"#utility.yul\":23682:23694   */\n      add\n        /* \"#utility.yul\":23675:23694   */\n      swap1\n      pop\n        /* \"#utility.yul\":23334:23700   */\n      swap2\n      swap1\n      pop\n      jump\t// out\n        /* \"#utility.yul\":23706:24125   */\n    tag_85:\n        /* \"#utility.yul\":23872:23876   */\n      0x00\n        /* \"#utility.yul\":23910:23912   */\n      0x20\n        /* \"#utility.yul\":23899:23908   */\n      dup3\n        /* \"#utility.yul\":23895:23913   */\n      add\n        /* \"#utility.yul\":23887:23913   */\n      swap1\n      pop\n        /* \"#utility.yul\":23959:23968   */\n      dup2\n        /* \"#utility.yul\":23953:23957   */\n      dup2\n        /* \"#utility.yul\":23949:23969   */\n      sub\n        /* \"#utility.yul\":23945:23946   */\n      0x00\n        /* \"#utility.yul\":23934:23943   */\n      dup4\n        /* \"#utility.yul\":23930:23947   */\n      add\n        /* \"#utility.yul\":23923:23970   */\n      mstore\n        /* \"#utility.yul\":23987:24118   */\n      tag_408\n        /* \"#utility.yul\":24113:24117   */\n      dup2\n        /* \"#utility.yul\":23987:24118   */\n      tag_184\n      jump\t// in\n    tag_408:\n        /* \"#utility.yul\":23979:24118   */\n      swap1\n      pop\n        /* \"#utility.yul\":23706:24125   */\n      swap2\n      swap1\n      pop\n      jump\t// out\n        /* \"#utility.yul\":24131:24311   */\n    tag_97:\n        /* \"#utility.yul\":24179:24256   */\n      0x4e487b7100000000000000000000000000000000000000000000000000000000\n        /* \"#utility.yul\":24176:24177   */\n      0x00\n        /* \"#utility.yul\":24169:24257   */\n      mstore\n        /* \"#utility.yul\":24276:24280   */\n      0x12\n        /* \"#utility.yul\":24273:24274   */\n      0x04\n        /* \"#utility.yul\":24266:24281   */\n      mstore\n        /* \"#utility.yul\":24300:24304   */\n      0x24\n        /* \"#utility.yul\":24297:24298   */\n      0x00\n        /* \"#utility.yul\":24290:24305   */\n      revert\n\n    auxdata: 0xa2646970667358221220bbd1c050186248d7952309df348845ad12288aebe1a84855b0a5176ed1ac0b5d64736f6c63430008120033\n}\n",
				"bytecode": {
					"linkReferences": {},
					"object": "608060405260008060146101000a81548160ff021916908360ff1602179055506001600060156101000a81548160ff021916908360ff1602179055506002600060166101000a81548160ff021916908360ff1602179055506003600060176101000a81548160ff021916908360ff1602179055506004600060186101000a81548160ff021916908360ff16021790555034801561009b57600080fd5b50336000806101000a81548173ffffffffffffffffffffffffffffffffffffffff021916908373ffffffffffffffffffffffffffffffffffffffff160217905550611944806100eb6000396000f3fe6080604052600436106100295760003560e01c80636517579c1461002e578063eefb8ab11461006b575b600080fd5b34801561003a57600080fd5b5061005560048036038101906100509190610d39565b610087565b6040516100629190610f2e565b60405180910390f35b610085600480360381019061008091906110dd565b610643565b005b61008f610c8e565b6100976109dd565b60006040518061010001604052806001600086815260200190815260200160002060000180546100c69061123a565b80601f01602080910402602001604051908101604052809291908181526020018280546100f29061123a565b801561013f5780601f106101145761010080835404028352916020019161013f565b820191906000526020600020905b81548152906001019060200180831161012257829003601f168201915b505050505081526020016040518060400160405280600681526020017f2a2a2a2a2a2a000000000000000000000000000000000000000000000000000081525081526020016040518060400160405280600a81526020017f2a2a2a2a2a2a2a2a2a2a0000000000000000000000000000000000000000000081525081526020016040518060400160405280600781526020017f2a2a2a2a2a2a2a0000000000000000000000000000000000000000000000000081525081526020016040518060400160405280600881526020017f2a2a2a2a2a2a2a2a00000000000000000000000000000000000000000000000081525081526020016001600086815260200190815260200160002060050160009054906101000a900460ff1660ff1681526020013373ffffffffffffffffffffffffffffffffffffffff1681526020016001600086815260200190815260200160002060060154815250905060006001600085815260200190815260200160002060050160009054906101000a900460ff1660ff16111561063a576040518061010001604052806001600086815260200190815260200160002060000180546102f59061123a565b80601f01602080910402602001604051908101604052809291908181526020018280546103219061123a565b801561036e5780601f106103435761010080835404028352916020019161036e565b820191906000526020600020905b81548152906001019060200180831161035157829003601f168201915b505050505081526020016001600086815260200190815260200160002060010180546103999061123a565b80601f01602080910402602001604051908101604052809291908181526020018280546103c59061123a565b80156104125780601f106103e757610100808354040283529160200191610412565b820191906000526020600020905b8154815290600101906020018083116103f557829003601f168201915b5050505050815260200160016000868152602001908152602001600020600201805461043d9061123a565b80601f01602080910402602001604051908101604052809291908181526020018280546104699061123a565b80156104b65780601f1061048b576101008083540402835291602001916104b6565b820191906000526020600020905b81548152906001019060200180831161049957829003601f168201915b505050505081526020016040518060400160405280600781526020017f2a2a2a2a2a2a2a00000000000000000000000000000000000000000000000000815250815260200160016000868152602001908152602001600020600401805461051c9061123a565b80601f01602080910402602001604051908101604052809291908181526020018280546105489061123a565b80156105955780601f1061056a57610100808354040283529160200191610595565b820191906000526020600020905b81548152906001019060200180831161057857829003601f168201915b505050505081526020016001600086815260200190815260200160002060050160009054906101000a900460ff1660ff1681526020016001600086815260200190815260200160002060050160019054906101000a900473ffffffffffffffffffffffffffffffffffffffff1673ffffffffffffffffffffffffffffffffffffffff168152602001600160008681526020019081526020016000206006015481525090505b80915050919050565b61064b6109dd565b60058360ff161115610692576040517f08c379a0000000000000000000000000000000000000000000000000000000008152600401610689906112c8565b60405180910390fd5b600d8651146106d6576040517f08c379a00000000000000000000000000000000000000000000000000000000081526004016106cd90611334565b60405180910390fd5b600687511161071a576040517f08c379a0000000000000000000000000000000000000000000000000000000008152600401610711906113a0565b60405180910390fd5b600a85511161075e576040517f08c379a00000000000000000000000000000000000000000000000000000000081526004016107559061140c565b60405180910390fd5b60088451116107a2576040517f08c379a000000000000000000000000000000000000000000000000000000000815260040161079990611478565b60405180910390fd5b60068251116107e6576040517f08c379a00000000000000000000000000000000000000000000000000000000081526004016107dd906114e4565b60405180910390fd5b600087876107f68660ff16610a6d565b88888760405160200161080e96959493929190611540565b60405160208183030381529060405260405160200161082d9190611598565b604051602081830303815290604052805190602001209050604051806101000160405280898152602001888152602001878152602001866040516020016108749190611598565b6040516020818303038152906040528051906020012060405160200161089a91906115d0565b60405160208183030381529060405281526020018481526020018560ff1681526020018373ffffffffffffffffffffffffffffffffffffffff1681526020018281525060016000838152602001908152602001600020600082015181600001908161090591906117a1565b50602082015181600101908161091b91906117a1565b50604082015181600201908161093191906117a1565b50606082015181600301908161094791906117a1565b50608082015181600401908161095d91906117a1565b5060a08201518160050160006101000a81548160ff021916908360ff16021790555060c08201518160050160016101000a81548173ffffffffffffffffffffffffffffffffffffffff021916908373ffffffffffffffffffffffffffffffffffffffff16021790555060e082015181600601559050505050505050505050565b3373ffffffffffffffffffffffffffffffffffffffff1660008054906101000a900473ffffffffffffffffffffffffffffffffffffffff1673ffffffffffffffffffffffffffffffffffffffff1614610a6b576040517f08c379a0000000000000000000000000000000000000000000000000000000008152600401610a62906118bf565b60405180910390fd5b565b606060006001610a7c84610b3b565b01905060008167ffffffffffffffff811115610a9b57610a9a610f5a565b5b6040519080825280601f01601f191660200182016040528015610acd5781602001600182028036833780820191505090505b509050600082602001820190505b600115610b30578080600190039150507f3031323334353637383961626364656600000000000000000000000000000000600a86061a8153600a8581610b2457610b236118df565b5b04945060008503610adb575b819350505050919050565b600080600090507a184f03e93ff9f4daa797ed6e38ed64bf6a1f0100000000000000008310610b99577a184f03e93ff9f4daa797ed6e38ed64bf6a1f0100000000000000008381610b8f57610b8e6118df565b5b0492506040810190505b6d04ee2d6d415b85acef81000000008310610bd6576d04ee2d6d415b85acef81000000008381610bcc57610bcb6118df565b5b0492506020810190505b662386f26fc100008310610c0557662386f26fc100008381610bfb57610bfa6118df565b5b0492506010810190505b6305f5e1008310610c2e576305f5e1008381610c2457610c236118df565b5b0492506008810190505b6127108310610c53576127108381610c4957610c486118df565b5b0492506004810190505b60648310610c765760648381610c6c57610c6b6118df565b5b0492506002810190505b600a8310610c85576001810190505b80915050919050565b6040518061010001604052806060815260200160608152602001606081526020016060815260200160608152602001600060ff168152602001600073ffffffffffffffffffffffffffffffffffffffff168152602001600080191681525090565b6000604051905090565b600080fd5b600080fd5b6000819050919050565b610d1681610d03565b8114610d2157600080fd5b50565b600081359050610d3381610d0d565b92915050565b600060208284031215610d4f57610d4e610cf9565b5b6000610d5d84828501610d24565b91505092915050565b600081519050919050565b600082825260208201905092915050565b60005b83811015610da0578082015181840152602081019050610d85565b60008484015250505050565b6000601f19601f8301169050919050565b6000610dc882610d66565b610dd28185610d71565b9350610de2818560208601610d82565b610deb81610dac565b840191505092915050565b600060ff82169050919050565b610e0c81610df6565b82525050565b600073ffffffffffffffffffffffffffffffffffffffff82169050919050565b6000610e3d82610e12565b9050919050565b610e4d81610e32565b82525050565b610e5c81610d03565b82525050565b6000610100830160008301518482036000860152610e808282610dbd565b91505060208301518482036020860152610e9a8282610dbd565b91505060408301518482036040860152610eb48282610dbd565b91505060608301518482036060860152610ece8282610dbd565b91505060808301518482036080860152610ee88282610dbd565b91505060a0830151610efd60a0860182610e03565b5060c0830151610f1060c0860182610e44565b5060e0830151610f2360e0860182610e53565b508091505092915050565b60006020820190508181036000830152610f488184610e62565b905092915050565b600080fd5b600080fd5b7f4e487b7100000000000000000000000000000000000000000000000000000000600052604160045260246000fd5b610f9282610dac565b810181811067ffffffffffffffff82111715610fb157610fb0610f5a565b5b80604052505050565b6000610fc4610cef565b9050610fd08282610f89565b919050565b600067ffffffffffffffff821115610ff057610fef610f5a565b5b610ff982610dac565b9050602081019050919050565b82818337600083830152505050565b600061102861102384610fd5565b610fba565b90508281526020810184848401111561104457611043610f55565b5b61104f848285611006565b509392505050565b600082601f83011261106c5761106b610f50565b5b813561107c848260208601611015565b91505092915050565b61108e81610df6565b811461109957600080fd5b50565b6000813590506110ab81611085565b92915050565b6110ba81610e32565b81146110c557600080fd5b50565b6000813590506110d7816110b1565b92915050565b600080600080600080600060e0888a0312156110fc576110fb610cf9565b5b600088013567ffffffffffffffff81111561111a57611119610cfe565b5b6111268a828b01611057565b975050602088013567ffffffffffffffff81111561114757611146610cfe565b5b6111538a828b01611057565b965050604088013567ffffffffffffffff81111561117457611173610cfe565b5b6111808a828b01611057565b955050606088013567ffffffffffffffff8111156111a1576111a0610cfe565b5b6111ad8a828b01611057565b94505060806111be8a828b0161109c565b93505060a088013567ffffffffffffffff8111156111df576111de610cfe565b5b6111eb8a828b01611057565b92505060c06111fc8a828b016110c8565b91505092959891949750929550565b7f4e487b7100000000000000000000000000000000000000000000000000000000600052602260045260246000fd5b6000600282049050600182168061125257607f821691505b6020821081036112655761126461120b565b5b50919050565b600082825260208201905092915050565b7f496e76616c696420636f6d70616e792074797065000000000000000000000000600082015250565b60006112b260148361126b565b91506112bd8261127c565b602082019050919050565b600060208201905081810360008301526112e1816112a5565b9050919050565b7f496e76616c69642053534e000000000000000000000000000000000000000000600082015250565b600061131e600b8361126b565b9150611329826112e8565b602082019050919050565b6000602082019050818103600083015261134d81611311565b9050919050565b7f496e76616c6964206e616d650000000000000000000000000000000000000000600082015250565b600061138a600c8361126b565b915061139582611354565b602082019050919050565b600060208201905081810360008301526113b98161137d565b9050919050565b7f496e76616c696420616464726573730000000000000000000000000000000000600082015250565b60006113f6600f8361126b565b9150611401826113c0565b602082019050919050565b60006020820190508181036000830152611425816113e9565b9050919050565b7f50617373776f726420746f6f2073686f72740000000000000000000000000000600082015250565b600061146260128361126b565b915061146d8261142c565b602082019050919050565b6000602082019050818103600083015261149181611455565b9050919050565b7f50686f6e65206e756d62657220746f6f2073686f727400000000000000000000600082015250565b60006114ce60168361126b565b91506114d982611498565b602082019050919050565b600060208201905081810360008301526114fd816114c1565b9050919050565b600081905092915050565b600061151a82610d66565b6115248185611504565b9350611534818560208601610d82565b80840191505092915050565b600061154c828961150f565b9150611558828861150f565b9150611564828761150f565b9150611570828661150f565b915061157c828561150f565b9150611588828461150f565b9150819050979650505050505050565b60006115a4828461150f565b915081905092915050565b6000819050919050565b6115ca6115c582610d03565b6115af565b82525050565b60006115dc82846115b9565b60208201915081905092915050565b60008190508160005260206000209050919050565b60006020601f8301049050919050565b600082821b905092915050565b60006008830261164d7fffffffffffffffffffffffffffffffffffffffffffffffffffffffffffffffff82611610565b6116578683611610565b95508019841693508086168417925050509392505050565b6000819050919050565b6000819050919050565b600061169e6116996116948461166f565b611679565b61166f565b9050919050565b6000819050919050565b6116b883611683565b6116cc6116c4826116a5565b84845461161d565b825550505050565b600090565b6116e16116d4565b6116ec8184846116af565b505050565b5b81811015611710576117056000826116d9565b6001810190506116f2565b5050565b601f82111561175557611726816115eb565b61172f84611600565b8101602085101561173e578190505b61175261174a85611600565b8301826116f1565b50505b505050565b600082821c905092915050565b60006117786000198460080261175a565b1980831691505092915050565b60006117918383611767565b9150826002028217905092915050565b6117aa82610d66565b67ffffffffffffffff8111156117c3576117c2610f5a565b5b6117cd825461123a565b6117d8828285611714565b600060209050601f83116001811461180b57600084156117f9578287015190505b6118038582611785565b86555061186b565b601f198416611819866115eb565b60005b828110156118415784890151825560018201915060208501945060208101905061181c565b8683101561185e578489015161185a601f891682611767565b8355505b6001600288020188555050505b505050505050565b7f4e6f7420616c6c6f776564000000000000000000000000000000000000000000600082015250565b60006118a9600b8361126b565b91506118b482611873565b602082019050919050565b600060208201905081810360008301526118d88161189c565b9050919050565b7f4e487b7100000000000000000000000000000000000000000000000000000000600052601260045260246000fdfea2646970667358221220bbd1c050186248d7952309df348845ad12288aebe1a84855b0a5176ed1ac0b5d64736f6c63430008120033",
					"opcodes": "PUSH1 0x80 PUSH1 0x40 MSTORE PUSH1 0x0 DUP1 PUSH1 0x14 PUSH2 0x100 EXP DUP2 SLOAD DUP2 PUSH1 0xFF MUL NOT AND SWAP1 DUP4 PUSH1 0xFF AND MUL OR SWAP1 SSTORE POP PUSH1 0x1 PUSH1 0x0 PUSH1 0x15 PUSH2 0x100 EXP DUP2 SLOAD DUP2 PUSH1 0xFF MUL NOT AND SWAP1 DUP4 PUSH1 0xFF AND MUL OR SWAP1 SSTORE POP PUSH1 0x2 PUSH1 0x0 PUSH1 0x16 PUSH2 0x100 EXP DUP2 SLOAD DUP2 PUSH1 0xFF MUL NOT AND SWAP1 DUP4 PUSH1 0xFF AND MUL OR SWAP1 SSTORE POP PUSH1 0x3 PUSH1 0x0 PUSH1 0x17 PUSH2 0x100 EXP DUP2 SLOAD DUP2 PUSH1 0xFF MUL NOT AND SWAP1 DUP4 PUSH1 0xFF AND MUL OR SWAP1 SSTORE POP PUSH1 0x4 PUSH1 0x0 PUSH1 0x18 PUSH2 0x100 EXP DUP2 SLOAD DUP2 PUSH1 0xFF MUL NOT AND SWAP1 DUP4 PUSH1 0xFF AND MUL OR SWAP1 SSTORE POP CALLVALUE DUP1 ISZERO PUSH2 0x9B JUMPI PUSH1 0x0 DUP1 REVERT JUMPDEST POP CALLER PUSH1 0x0 DUP1 PUSH2 0x100 EXP DUP2 SLOAD DUP2 PUSH20 0xFFFFFFFFFFFFFFFFFFFFFFFFFFFFFFFFFFFFFFFF MUL NOT AND SWAP1 DUP4 PUSH20 0xFFFFFFFFFFFFFFFFFFFFFFFFFFFFFFFFFFFFFFFF AND MUL OR SWAP1 SSTORE POP PUSH2 0x1944 DUP1 PUSH2 0xEB PUSH1 0x0 CODECOPY PUSH1 0x0 RETURN INVALID PUSH1 0x80 PUSH1 0x40 MSTORE PUSH1 0x4 CALLDATASIZE LT PUSH2 0x29 JUMPI PUSH1 0x0 CALLDATALOAD PUSH1 0xE0 SHR DUP1 PUSH4 0x6517579C EQ PUSH2 0x2E JUMPI DUP1 PUSH4 0xEEFB8AB1 EQ PUSH2 0x6B JUMPI JUMPDEST PUSH1 0x0 DUP1 REVERT JUMPDEST CALLVALUE DUP1 ISZERO PUSH2 0x3A JUMPI PUSH1 0x0 DUP1 REVERT JUMPDEST POP PUSH2 0x55 PUSH1 0x4 DUP1 CALLDATASIZE SUB DUP2 ADD SWAP1 PUSH2 0x50 SWAP2 SWAP1 PUSH2 0xD39 JUMP JUMPDEST PUSH2 0x87 JUMP JUMPDEST PUSH1 0x40 MLOAD PUSH2 0x62 SWAP2 SWAP1 PUSH2 0xF2E JUMP JUMPDEST PUSH1 0x40 MLOAD DUP1 SWAP2 SUB SWAP1 RETURN JUMPDEST PUSH2 0x85 PUSH1 0x4 DUP1 CALLDATASIZE SUB DUP2 ADD SWAP1 PUSH2 0x80 SWAP2 SWAP1 PUSH2 0x10DD JUMP JUMPDEST PUSH2 0x643 JUMP JUMPDEST STOP JUMPDEST PUSH2 0x8F PUSH2 0xC8E JUMP JUMPDEST PUSH2 0x97 PUSH2 0x9DD JUMP JUMPDEST PUSH1 0x0 PUSH1 0x40 MLOAD DUP1 PUSH2 0x100 ADD PUSH1 0x40 MSTORE DUP1 PUSH1 0x1 PUSH1 0x0 DUP7 DUP2 MSTORE PUSH1 0x20 ADD SWAP1 DUP2 MSTORE PUSH1 0x20 ADD PUSH1 0x0 KECCAK256 PUSH1 0x0 ADD DUP1 SLOAD PUSH2 0xC6 SWAP1 PUSH2 0x123A JUMP JUMPDEST DUP1 PUSH1 0x1F ADD PUSH1 0x20 DUP1 SWAP2 DIV MUL PUSH1 0x20 ADD PUSH1 0x40 MLOAD SWAP1 DUP2 ADD PUSH1 0x40 MSTORE DUP1 SWAP3 SWAP2 SWAP1 DUP2 DUP2 MSTORE PUSH1 0x20 ADD DUP3 DUP1 SLOAD PUSH2 0xF2 SWAP1 PUSH2 0x123A JUMP JUMPDEST DUP1 ISZERO PUSH2 0x13F JUMPI DUP1 PUSH1 0x1F LT PUSH2 0x114 JUMPI PUSH2 0x100 DUP1 DUP4 SLOAD DIV MUL DUP4 MSTORE SWAP2 PUSH1 0x20 ADD SWAP2 PUSH2 0x13F JUMP JUMPDEST DUP3 ADD SWAP2 SWAP1 PUSH1 0x0 MSTORE PUSH1 0x20 PUSH1 0x0 KECCAK256 SWAP1 JUMPDEST DUP2 SLOAD DUP2 MSTORE SWAP1 PUSH1 0x1 ADD SWAP1 PUSH1 0x20 ADD DUP1 DUP4 GT PUSH2 0x122 JUMPI DUP3 SWAP1 SUB PUSH1 0x1F AND DUP3 ADD SWAP2 JUMPDEST POP POP POP POP POP DUP2 MSTORE PUSH1 0x20 ADD PUSH1 0x40 MLOAD DUP1 PUSH1 0x40 ADD PUSH1 0x40 MSTORE DUP1 PUSH1 0x6 DUP2 MSTORE PUSH1 0x20 ADD PUSH32 0x2A2A2A2A2A2A0000000000000000000000000000000000000000000000000000 DUP2 MSTORE POP DUP2 MSTORE PUSH1 0x20 ADD PUSH1 0x40 MLOAD DUP1 PUSH1 0x40 ADD PUSH1 0x40 MSTORE DUP1 PUSH1 0xA DUP2 MSTORE PUSH1 0x20 ADD PUSH32 0x2A2A2A2A2A2A2A2A2A2A00000000000000000000000000000000000000000000 DUP2 MSTORE POP DUP2 MSTORE PUSH1 0x20 ADD PUSH1 0x40 MLOAD DUP1 PUSH1 0x40 ADD PUSH1 0x40 MSTORE DUP1 PUSH1 0x7 DUP2 MSTORE PUSH1 0x20 ADD PUSH32 0x2A2A2A2A2A2A2A00000000000000000000000000000000000000000000000000 DUP2 MSTORE POP DUP2 MSTORE PUSH1 0x20 ADD PUSH1 0x40 MLOAD DUP1 PUSH1 0x40 ADD PUSH1 0x40 MSTORE DUP1 PUSH1 0x8 DUP2 MSTORE PUSH1 0x20 ADD PUSH32 0x2A2A2A2A2A2A2A2A000000000000000000000000000000000000000000000000 DUP2 MSTORE POP DUP2 MSTORE PUSH1 0x20 ADD PUSH1 0x1 PUSH1 0x0 DUP7 DUP2 MSTORE PUSH1 0x20 ADD SWAP1 DUP2 MSTORE PUSH1 0x20 ADD PUSH1 0x0 KECCAK256 PUSH1 0x5 ADD PUSH1 0x0 SWAP1 SLOAD SWAP1 PUSH2 0x100 EXP SWAP1 DIV PUSH1 0xFF AND PUSH1 0xFF AND DUP2 MSTORE PUSH1 0x20 ADD CALLER PUSH20 0xFFFFFFFFFFFFFFFFFFFFFFFFFFFFFFFFFFFFFFFF AND DUP2 MSTORE PUSH1 0x20 ADD PUSH1 0x1 PUSH1 0x0 DUP7 DUP2 MSTORE PUSH1 0x20 ADD SWAP1 DUP2 MSTORE PUSH1 0x20 ADD PUSH1 0x0 KECCAK256 PUSH1 0x6 ADD SLOAD DUP2 MSTORE POP SWAP1 POP PUSH1 0x0 PUSH1 0x1 PUSH1 0x0 DUP6 DUP2 MSTORE PUSH1 0x20 ADD SWAP1 DUP2 MSTORE PUSH1 0x20 ADD PUSH1 0x0 KECCAK256 PUSH1 0x5 ADD PUSH1 0x0 SWAP1 SLOAD SWAP1 PUSH2 0x100 EXP SWAP1 DIV PUSH1 0xFF AND PUSH1 0xFF AND GT ISZERO PUSH2 0x63A JUMPI PUSH1 0x40 MLOAD DUP1 PUSH2 0x100 ADD PUSH1 0x40 MSTORE DUP1 PUSH1 0x1 PUSH1 0x0 DUP7 DUP2 MSTORE PUSH1 0x20 ADD SWAP1 DUP2 MSTORE PUSH1 0x20 ADD PUSH1 0x0 KECCAK256 PUSH1 0x0 ADD DUP1 SLOAD PUSH2 0x2F5 SWAP1 PUSH2 0x123A JUMP JUMPDEST DUP1 PUSH1 0x1F ADD PUSH1 0x20 DUP1 SWAP2 DIV MUL PUSH1 0x20 ADD PUSH1 0x40 MLOAD SWAP1 DUP2 ADD PUSH1 0x40 MSTORE DUP1 SWAP3 SWAP2 SWAP1 DUP2 DUP2 MSTORE PUSH1 0x20 ADD DUP3 DUP1 SLOAD PUSH2 0x321 SWAP1 PUSH2 0x123A JUMP JUMPDEST DUP1 ISZERO PUSH2 0x36E JUMPI DUP1 PUSH1 0x1F LT PUSH2 0x343 JUMPI PUSH2 0x100 DUP1 DUP4 SLOAD DIV MUL DUP4 MSTORE SWAP2 PUSH1 0x20 ADD SWAP2 PUSH2 0x36E JUMP JUMPDEST DUP3 ADD SWAP2 SWAP1 PUSH1 0x0 MSTORE PUSH1 0x20 PUSH1 0x0 KECCAK256 SWAP1 JUMPDEST DUP2 SLOAD DUP2 MSTORE SWAP1 PUSH1 0x1 ADD SWAP1 PUSH1 0x20 ADD DUP1 DUP4 GT PUSH2 0x351 JUMPI DUP3 SWAP1 SUB PUSH1 0x1F AND DUP3 ADD SWAP2 JUMPDEST POP POP POP POP POP DUP2 MSTORE PUSH1 0x20 ADD PUSH1 0x1 PUSH1 0x0 DUP7 DUP2 MSTORE PUSH1 0x20 ADD SWAP1 DUP2 MSTORE PUSH1 0x20 ADD PUSH1 0x0 KECCAK256 PUSH1 0x1 ADD DUP1 SLOAD PUSH2 0x399 SWAP1 PUSH2 0x123A JUMP JUMPDEST DUP1 PUSH1 0x1F ADD PUSH1 0x20 DUP1 SWAP2 DIV MUL PUSH1 0x20 ADD PUSH1 0x40 MLOAD SWAP1 DUP2 ADD PUSH1 0x40 MSTORE DUP1 SWAP3 SWAP2 SWAP1 DUP2 DUP2 MSTORE PUSH1 0x20 ADD DUP3 DUP1 SLOAD PUSH2 0x3C5 SWAP1 PUSH2 0x123A JUMP JUMPDEST DUP1 ISZERO PUSH2 0x412 JUMPI DUP1 PUSH1 0x1F LT PUSH2 0x3E7 JUMPI PUSH2 0x100 DUP1 DUP4 SLOAD DIV MUL DUP4 MSTORE SWAP2 PUSH1 0x20 ADD SWAP2 PUSH2 0x412 JUMP JUMPDEST DUP3 ADD SWAP2 SWAP1 PUSH1 0x0 MSTORE PUSH1 0x20 PUSH1 0x0 KECCAK256 SWAP1 JUMPDEST DUP2 SLOAD DUP2 MSTORE SWAP1 PUSH1 0x1 ADD SWAP1 PUSH1 0x20 ADD DUP1 DUP4 GT PUSH2 0x3F5 JUMPI DUP3 SWAP1 SUB PUSH1 0x1F AND DUP3 ADD SWAP2 JUMPDEST POP POP POP POP POP DUP2 MSTORE PUSH1 0x20 ADD PUSH1 0x1 PUSH1 0x0 DUP7 DUP2 MSTORE PUSH1 0x20 ADD SWAP1 DUP2 MSTORE PUSH1 0x20 ADD PUSH1 0x0 KECCAK256 PUSH1 0x2 ADD DUP1 SLOAD PUSH2 0x43D SWAP1 PUSH2 0x123A JUMP JUMPDEST DUP1 PUSH1 0x1F ADD PUSH1 0x20 DUP1 SWAP2 DIV MUL PUSH1 0x20 ADD PUSH1 0x40 MLOAD SWAP1 DUP2 ADD PUSH1 0x40 MSTORE DUP1 SWAP3 SWAP2 SWAP1 DUP2 DUP2 MSTORE PUSH1 0x20 ADD DUP3 DUP1 SLOAD PUSH2 0x469 SWAP1 PUSH2 0x123A JUMP JUMPDEST DUP1 ISZERO PUSH2 0x4B6 JUMPI DUP1 PUSH1 0x1F LT PUSH2 0x48B JUMPI PUSH2 0x100 DUP1 DUP4 SLOAD DIV MUL DUP4 MSTORE SWAP2 PUSH1 0x20 ADD SWAP2 PUSH2 0x4B6 JUMP JUMPDEST DUP3 ADD SWAP2 SWAP1 PUSH1 0x0 MSTORE PUSH1 0x20 PUSH1 0x0 KECCAK256 SWAP1 JUMPDEST DUP2 SLOAD DUP2 MSTORE SWAP1 PUSH1 0x1 ADD SWAP1 PUSH1 0x20 ADD DUP1 DUP4 GT PUSH2 0x499 JUMPI DUP3 SWAP1 SUB PUSH1 0x1F AND DUP3 ADD SWAP2 JUMPDEST POP POP POP POP POP DUP2 MSTORE PUSH1 0x20 ADD PUSH1 0x40 MLOAD DUP1 PUSH1 0x40 ADD PUSH1 0x40 MSTORE DUP1 PUSH1 0x7 DUP2 MSTORE PUSH1 0x20 ADD PUSH32 0x2A2A2A2A2A2A2A00000000000000000000000000000000000000000000000000 DUP2 MSTORE POP DUP2 MSTORE PUSH1 0x20 ADD PUSH1 0x1 PUSH1 0x0 DUP7 DUP2 MSTORE PUSH1 0x20 ADD SWAP1 DUP2 MSTORE PUSH1 0x20 ADD PUSH1 0x0 KECCAK256 PUSH1 0x4 ADD DUP1 SLOAD PUSH2 0x51C SWAP1 PUSH2 0x123A JUMP JUMPDEST DUP1 PUSH1 0x1F ADD PUSH1 0x20 DUP1 SWAP2 DIV MUL PUSH1 0x20 ADD PUSH1 0x40 MLOAD SWAP1 DUP2 ADD PUSH1 0x40 MSTORE DUP1 SWAP3 SWAP2 SWAP1 DUP2 DUP2 MSTORE PUSH1 0x20 ADD DUP3 DUP1 SLOAD PUSH2 0x548 SWAP1 PUSH2 0x123A JUMP JUMPDEST DUP1 ISZERO PUSH2 0x595 JUMPI DUP1 PUSH1 0x1F LT PUSH2 0x56A JUMPI PUSH2 0x100 DUP1 DUP4 SLOAD DIV MUL DUP4 MSTORE SWAP2 PUSH1 0x20 ADD SWAP2 PUSH2 0x595 JUMP JUMPDEST DUP3 ADD SWAP2 SWAP1 PUSH1 0x0 MSTORE PUSH1 0x20 PUSH1 0x0 KECCAK256 SWAP1 JUMPDEST DUP2 SLOAD DUP2 MSTORE SWAP1 PUSH1 0x1 ADD SWAP1 PUSH1 0x20 ADD DUP1 DUP4 GT PUSH2 0x578 JUMPI DUP3 SWAP1 SUB PUSH1 0x1F AND DUP3 ADD SWAP2 JUMPDEST POP POP POP POP POP DUP2 MSTORE PUSH1 0x20 ADD PUSH1 0x1 PUSH1 0x0 DUP7 DUP2 MSTORE PUSH1 0x20 ADD SWAP1 DUP2 MSTORE PUSH1 0x20 ADD PUSH1 0x0 KECCAK256 PUSH1 0x5 ADD PUSH1 0x0 SWAP1 SLOAD SWAP1 PUSH2 0x100 EXP SWAP1 DIV PUSH1 0xFF AND PUSH1 0xFF AND DUP2 MSTORE PUSH1 0x20 ADD PUSH1 0x1 PUSH1 0x0 DUP7 DUP2 MSTORE PUSH1 0x20 ADD SWAP1 DUP2 MSTORE PUSH1 0x20 ADD PUSH1 0x0 KECCAK256 PUSH1 0x5 ADD PUSH1 0x1 SWAP1 SLOAD SWAP1 PUSH2 0x100 EXP SWAP1 DIV PUSH20 0xFFFFFFFFFFFFFFFFFFFFFFFFFFFFFFFFFFFFFFFF AND PUSH20 0xFFFFFFFFFFFFFFFFFFFFFFFFFFFFFFFFFFFFFFFF AND DUP2 MSTORE PUSH1 0x20 ADD PUSH1 0x1 PUSH1 0x0 DUP7 DUP2 MSTORE PUSH1 0x20 ADD SWAP1 DUP2 MSTORE PUSH1 0x20 ADD PUSH1 0x0 KECCAK256 PUSH1 0x6 ADD SLOAD DUP2 MSTORE POP SWAP1 POP JUMPDEST DUP1 SWAP2 POP POP SWAP2 SWAP1 POP JUMP JUMPDEST PUSH2 0x64B PUSH2 0x9DD JUMP JUMPDEST PUSH1 0x5 DUP4 PUSH1 0xFF AND GT ISZERO PUSH2 0x692 JUMPI PUSH1 0x40 MLOAD PUSH32 0x8C379A000000000000000000000000000000000000000000000000000000000 DUP2 MSTORE PUSH1 0x4 ADD PUSH2 0x689 SWAP1 PUSH2 0x12C8 JUMP JUMPDEST PUSH1 0x40 MLOAD DUP1 SWAP2 SUB SWAP1 REVERT JUMPDEST PUSH1 0xD DUP7 MLOAD EQ PUSH2 0x6D6 JUMPI PUSH1 0x40 MLOAD PUSH32 0x8C379A000000000000000000000000000000000000000000000000000000000 DUP2 MSTORE PUSH1 0x4 ADD PUSH2 0x6CD SWAP1 PUSH2 0x1334 JUMP JUMPDEST PUSH1 0x40 MLOAD DUP1 SWAP2 SUB SWAP1 REVERT JUMPDEST PUSH1 0x6 DUP8 MLOAD GT PUSH2 0x71A JUMPI PUSH1 0x40 MLOAD PUSH32 0x8C379A000000000000000000000000000000000000000000000000000000000 DUP2 MSTORE PUSH1 0x4 ADD PUSH2 0x711 SWAP1 PUSH2 0x13A0 JUMP JUMPDEST PUSH1 0x40 MLOAD DUP1 SWAP2 SUB SWAP1 REVERT JUMPDEST PUSH1 0xA DUP6 MLOAD GT PUSH2 0x75E JUMPI PUSH1 0x40 MLOAD PUSH32 0x8C379A000000000000000000000000000000000000000000000000000000000 DUP2 MSTORE PUSH1 0x4 ADD PUSH2 0x755 SWAP1 PUSH2 0x140C JUMP JUMPDEST PUSH1 0x40 MLOAD DUP1 SWAP2 SUB SWAP1 REVERT JUMPDEST PUSH1 0x8 DUP5 MLOAD GT PUSH2 0x7A2 JUMPI PUSH1 0x40 MLOAD PUSH32 0x8C379A000000000000000000000000000000000000000000000000000000000 DUP2 MSTORE PUSH1 0x4 ADD PUSH2 0x799 SWAP1 PUSH2 0x1478 JUMP JUMPDEST PUSH1 0x40 MLOAD DUP1 SWAP2 SUB SWAP1 REVERT JUMPDEST PUSH1 0x6 DUP3 MLOAD GT PUSH2 0x7E6 JUMPI PUSH1 0x40 MLOAD PUSH32 0x8C379A000000000000000000000000000000000000000000000000000000000 DUP2 MSTORE PUSH1 0x4 ADD PUSH2 0x7DD SWAP1 PUSH2 0x14E4 JUMP JUMPDEST PUSH1 0x40 MLOAD DUP1 SWAP2 SUB SWAP1 REVERT JUMPDEST PUSH1 0x0 DUP8 DUP8 PUSH2 0x7F6 DUP7 PUSH1 0xFF AND PUSH2 0xA6D JUMP JUMPDEST DUP9 DUP9 DUP8 PUSH1 0x40 MLOAD PUSH1 0x20 ADD PUSH2 0x80E SWAP7 SWAP6 SWAP5 SWAP4 SWAP3 SWAP2 SWAP1 PUSH2 0x1540 JUMP JUMPDEST PUSH1 0x40 MLOAD PUSH1 0x20 DUP2 DUP4 SUB SUB DUP2 MSTORE SWAP1 PUSH1 0x40 MSTORE PUSH1 0x40 MLOAD PUSH1 0x20 ADD PUSH2 0x82D SWAP2 SWAP1 PUSH2 0x1598 JUMP JUMPDEST PUSH1 0x40 MLOAD PUSH1 0x20 DUP2 DUP4 SUB SUB DUP2 MSTORE SWAP1 PUSH1 0x40 MSTORE DUP1 MLOAD SWAP1 PUSH1 0x20 ADD KECCAK256 SWAP1 POP PUSH1 0x40 MLOAD DUP1 PUSH2 0x100 ADD PUSH1 0x40 MSTORE DUP1 DUP10 DUP2 MSTORE PUSH1 0x20 ADD DUP9 DUP2 MSTORE PUSH1 0x20 ADD DUP8 DUP2 MSTORE PUSH1 0x20 ADD DUP7 PUSH1 0x40 MLOAD PUSH1 0x20 ADD PUSH2 0x874 SWAP2 SWAP1 PUSH2 0x1598 JUMP JUMPDEST PUSH1 0x40 MLOAD PUSH1 0x20 DUP2 DUP4 SUB SUB DUP2 MSTORE SWAP1 PUSH1 0x40 MSTORE DUP1 MLOAD SWAP1 PUSH1 0x20 ADD KECCAK256 PUSH1 0x40 MLOAD PUSH1 0x20 ADD PUSH2 0x89A SWAP2 SWAP1 PUSH2 0x15D0 JUMP JUMPDEST PUSH1 0x40 MLOAD PUSH1 0x20 DUP2 DUP4 SUB SUB DUP2 MSTORE SWAP1 PUSH1 0x40 MSTORE DUP2 MSTORE PUSH1 0x20 ADD DUP5 DUP2 MSTORE PUSH1 0x20 ADD DUP6 PUSH1 0xFF AND DUP2 MSTORE PUSH1 0x20 ADD DUP4 PUSH20 0xFFFFFFFFFFFFFFFFFFFFFFFFFFFFFFFFFFFFFFFF AND DUP2 MSTORE PUSH1 0x20 ADD DUP3 DUP2 MSTORE POP PUSH1 0x1 PUSH1 0x0 DUP4 DUP2 MSTORE PUSH1 0x20 ADD SWAP1 DUP2 MSTORE PUSH1 0x20 ADD PUSH1 0x0 KECCAK256 PUSH1 0x0 DUP3 ADD MLOAD DUP2 PUSH1 0x0 ADD SWAP1 DUP2 PUSH2 0x905 SWAP2 SWAP1 PUSH2 0x17A1 JUMP JUMPDEST POP PUSH1 0x20 DUP3 ADD MLOAD DUP2 PUSH1 0x1 ADD SWAP1 DUP2 PUSH2 0x91B SWAP2 SWAP1 PUSH2 0x17A1 JUMP JUMPDEST POP PUSH1 0x40 DUP3 ADD MLOAD DUP2 PUSH1 0x2 ADD SWAP1 DUP2 PUSH2 0x931 SWAP2 SWAP1 PUSH2 0x17A1 JUMP JUMPDEST POP PUSH1 0x60 DUP3 ADD MLOAD DUP2 PUSH1 0x3 ADD SWAP1 DUP2 PUSH2 0x947 SWAP2 SWAP1 PUSH2 0x17A1 JUMP JUMPDEST POP PUSH1 0x80 DUP3 ADD MLOAD DUP2 PUSH1 0x4 ADD SWAP1 DUP2 PUSH2 0x95D SWAP2 SWAP1 PUSH2 0x17A1 JUMP JUMPDEST POP PUSH1 0xA0 DUP3 ADD MLOAD DUP2 PUSH1 0x5 ADD PUSH1 0x0 PUSH2 0x100 EXP DUP2 SLOAD DUP2 PUSH1 0xFF MUL NOT AND SWAP1 DUP4 PUSH1 0xFF AND MUL OR SWAP1 SSTORE POP PUSH1 0xC0 DUP3 ADD MLOAD DUP2 PUSH1 0x5 ADD PUSH1 0x1 PUSH2 0x100 EXP DUP2 SLOAD DUP2 PUSH20 0xFFFFFFFFFFFFFFFFFFFFFFFFFFFFFFFFFFFFFFFF MUL NOT AND SWAP1 DUP4 PUSH20 0xFFFFFFFFFFFFFFFFFFFFFFFFFFFFFFFFFFFFFFFF AND MUL OR SWAP1 SSTORE POP PUSH1 0xE0 DUP3 ADD MLOAD DUP2 PUSH1 0x6 ADD SSTORE SWAP1 POP POP POP POP POP POP POP POP POP POP JUMP JUMPDEST CALLER PUSH20 0xFFFFFFFFFFFFFFFFFFFFFFFFFFFFFFFFFFFFFFFF AND PUSH1 0x0 DUP1 SLOAD SWAP1 PUSH2 0x100 EXP SWAP1 DIV PUSH20 0xFFFFFFFFFFFFFFFFFFFFFFFFFFFFFFFFFFFFFFFF AND PUSH20 0xFFFFFFFFFFFFFFFFFFFFFFFFFFFFFFFFFFFFFFFF AND EQ PUSH2 0xA6B JUMPI PUSH1 0x40 MLOAD PUSH32 0x8C379A000000000000000000000000000000000000000000000000000000000 DUP2 MSTORE PUSH1 0x4 ADD PUSH2 0xA62 SWAP1 PUSH2 0x18BF JUMP JUMPDEST PUSH1 0x40 MLOAD DUP1 SWAP2 SUB SWAP1 REVERT JUMPDEST JUMP JUMPDEST PUSH1 0x60 PUSH1 0x0 PUSH1 0x1 PUSH2 0xA7C DUP5 PUSH2 0xB3B JUMP JUMPDEST ADD SWAP1 POP PUSH1 0x0 DUP2 PUSH8 0xFFFFFFFFFFFFFFFF DUP2 GT ISZERO PUSH2 0xA9B JUMPI PUSH2 0xA9A PUSH2 0xF5A JUMP JUMPDEST JUMPDEST PUSH1 0x40 MLOAD SWAP1 DUP1 DUP3 MSTORE DUP1 PUSH1 0x1F ADD PUSH1 0x1F NOT AND PUSH1 0x20 ADD DUP3 ADD PUSH1 0x40 MSTORE DUP1 ISZERO PUSH2 0xACD JUMPI DUP2 PUSH1 0x20 ADD PUSH1 0x1 DUP3 MUL DUP1 CALLDATASIZE DUP4 CALLDATACOPY DUP1 DUP3 ADD SWAP2 POP POP SWAP1 POP JUMPDEST POP SWAP1 POP PUSH1 0x0 DUP3 PUSH1 0x20 ADD DUP3 ADD SWAP1 POP JUMPDEST PUSH1 0x1 ISZERO PUSH2 0xB30 JUMPI DUP1 DUP1 PUSH1 0x1 SWAP1 SUB SWAP2 POP POP PUSH32 0x3031323334353637383961626364656600000000000000000000000000000000 PUSH1 0xA DUP7 MOD BYTE DUP2 MSTORE8 PUSH1 0xA DUP6 DUP2 PUSH2 0xB24 JUMPI PUSH2 0xB23 PUSH2 0x18DF JUMP JUMPDEST JUMPDEST DIV SWAP5 POP PUSH1 0x0 DUP6 SUB PUSH2 0xADB JUMPI JUMPDEST DUP2 SWAP4 POP POP POP POP SWAP2 SWAP1 POP JUMP JUMPDEST PUSH1 0x0 DUP1 PUSH1 0x0 SWAP1 POP PUSH27 0x184F03E93FF9F4DAA797ED6E38ED64BF6A1F010000000000000000 DUP4 LT PUSH2 0xB99 JUMPI PUSH27 0x184F03E93FF9F4DAA797ED6E38ED64BF6A1F010000000000000000 DUP4 DUP2 PUSH2 0xB8F JUMPI PUSH2 0xB8E PUSH2 0x18DF JUMP JUMPDEST JUMPDEST DIV SWAP3 POP PUSH1 0x40 DUP2 ADD SWAP1 POP JUMPDEST PUSH14 0x4EE2D6D415B85ACEF8100000000 DUP4 LT PUSH2 0xBD6 JUMPI PUSH14 0x4EE2D6D415B85ACEF8100000000 DUP4 DUP2 PUSH2 0xBCC JUMPI PUSH2 0xBCB PUSH2 0x18DF JUMP JUMPDEST JUMPDEST DIV SWAP3 POP PUSH1 0x20 DUP2 ADD SWAP1 POP JUMPDEST PUSH7 0x2386F26FC10000 DUP4 LT PUSH2 0xC05 JUMPI PUSH7 0x2386F26FC10000 DUP4 DUP2 PUSH2 0xBFB JUMPI PUSH2 0xBFA PUSH2 0x18DF JUMP JUMPDEST JUMPDEST DIV SWAP3 POP PUSH1 0x10 DUP2 ADD SWAP1 POP JUMPDEST PUSH4 0x5F5E100 DUP4 LT PUSH2 0xC2E JUMPI PUSH4 0x5F5E100 DUP4 DUP2 PUSH2 0xC24 JUMPI PUSH2 0xC23 PUSH2 0x18DF JUMP JUMPDEST JUMPDEST DIV SWAP3 POP PUSH1 0x8 DUP2 ADD SWAP1 POP JUMPDEST PUSH2 0x2710 DUP4 LT PUSH2 0xC53 JUMPI PUSH2 0x2710 DUP4 DUP2 PUSH2 0xC49 JUMPI PUSH2 0xC48 PUSH2 0x18DF JUMP JUMPDEST JUMPDEST DIV SWAP3 POP PUSH1 0x4 DUP2 ADD SWAP1 POP JUMPDEST PUSH1 0x64 DUP4 LT PUSH2 0xC76 JUMPI PUSH1 0x64 DUP4 DUP2 PUSH2 0xC6C JUMPI PUSH2 0xC6B PUSH2 0x18DF JUMP JUMPDEST JUMPDEST DIV SWAP3 POP PUSH1 0x2 DUP2 ADD SWAP1 POP JUMPDEST PUSH1 0xA DUP4 LT PUSH2 0xC85 JUMPI PUSH1 0x1 DUP2 ADD SWAP1 POP JUMPDEST DUP1 SWAP2 POP POP SWAP2 SWAP1 POP JUMP JUMPDEST PUSH1 0x40 MLOAD DUP1 PUSH2 0x100 ADD PUSH1 0x40 MSTORE DUP1 PUSH1 0x60 DUP2 MSTORE PUSH1 0x20 ADD PUSH1 0x60 DUP2 MSTORE PUSH1 0x20 ADD PUSH1 0x60 DUP2 MSTORE PUSH1 0x20 ADD PUSH1 0x60 DUP2 MSTORE PUSH1 0x20 ADD PUSH1 0x60 DUP2 MSTORE PUSH1 0x20 ADD PUSH1 0x0 PUSH1 0xFF AND DUP2 MSTORE PUSH1 0x20 ADD PUSH1 0x0 PUSH20 0xFFFFFFFFFFFFFFFFFFFFFFFFFFFFFFFFFFFFFFFF AND DUP2 MSTORE PUSH1 0x20 ADD PUSH1 0x0 DUP1 NOT AND DUP2 MSTORE POP SWAP1 JUMP JUMPDEST PUSH1 0x0 PUSH1 0x40 MLOAD SWAP1 POP SWAP1 JUMP JUMPDEST PUSH1 0x0 DUP1 REVERT JUMPDEST PUSH1 0x0 DUP1 REVERT JUMPDEST PUSH1 0x0 DUP2 SWAP1 POP SWAP2 SWAP1 POP JUMP JUMPDEST PUSH2 0xD16 DUP2 PUSH2 0xD03 JUMP JUMPDEST DUP2 EQ PUSH2 0xD21 JUMPI PUSH1 0x0 DUP1 REVERT JUMPDEST POP JUMP JUMPDEST PUSH1 0x0 DUP2 CALLDATALOAD SWAP1 POP PUSH2 0xD33 DUP2 PUSH2 0xD0D JUMP JUMPDEST SWAP3 SWAP2 POP POP JUMP JUMPDEST PUSH1 0x0 PUSH1 0x20 DUP3 DUP5 SUB SLT ISZERO PUSH2 0xD4F JUMPI PUSH2 0xD4E PUSH2 0xCF9 JUMP JUMPDEST JUMPDEST PUSH1 0x0 PUSH2 0xD5D DUP5 DUP3 DUP6 ADD PUSH2 0xD24 JUMP JUMPDEST SWAP2 POP POP SWAP3 SWAP2 POP POP JUMP JUMPDEST PUSH1 0x0 DUP2 MLOAD SWAP1 POP SWAP2 SWAP1 POP JUMP JUMPDEST PUSH1 0x0 DUP3 DUP3 MSTORE PUSH1 0x20 DUP3 ADD SWAP1 POP SWAP3 SWAP2 POP POP JUMP JUMPDEST PUSH1 0x0 JUMPDEST DUP4 DUP2 LT ISZERO PUSH2 0xDA0 JUMPI DUP1 DUP3 ADD MLOAD DUP2 DUP5 ADD MSTORE PUSH1 0x20 DUP2 ADD SWAP1 POP PUSH2 0xD85 JUMP JUMPDEST PUSH1 0x0 DUP5 DUP5 ADD MSTORE POP POP POP POP JUMP JUMPDEST PUSH1 0x0 PUSH1 0x1F NOT PUSH1 0x1F DUP4 ADD AND SWAP1 POP SWAP2 SWAP1 POP JUMP JUMPDEST PUSH1 0x0 PUSH2 0xDC8 DUP3 PUSH2 0xD66 JUMP JUMPDEST PUSH2 0xDD2 DUP2 DUP6 PUSH2 0xD71 JUMP JUMPDEST SWAP4 POP PUSH2 0xDE2 DUP2 DUP6 PUSH1 0x20 DUP7 ADD PUSH2 0xD82 JUMP JUMPDEST PUSH2 0xDEB DUP2 PUSH2 0xDAC JUMP JUMPDEST DUP5 ADD SWAP2 POP POP SWAP3 SWAP2 POP POP JUMP JUMPDEST PUSH1 0x0 PUSH1 0xFF DUP3 AND SWAP1 POP SWAP2 SWAP1 POP JUMP JUMPDEST PUSH2 0xE0C DUP2 PUSH2 0xDF6 JUMP JUMPDEST DUP3 MSTORE POP POP JUMP JUMPDEST PUSH1 0x0 PUSH20 0xFFFFFFFFFFFFFFFFFFFFFFFFFFFFFFFFFFFFFFFF DUP3 AND SWAP1 POP SWAP2 SWAP1 POP JUMP JUMPDEST PUSH1 0x0 PUSH2 0xE3D DUP3 PUSH2 0xE12 JUMP JUMPDEST SWAP1 POP SWAP2 SWAP1 POP JUMP JUMPDEST PUSH2 0xE4D DUP2 PUSH2 0xE32 JUMP JUMPDEST DUP3 MSTORE POP POP JUMP JUMPDEST PUSH2 0xE5C DUP2 PUSH2 0xD03 JUMP JUMPDEST DUP3 MSTORE POP POP JUMP JUMPDEST PUSH1 0x0 PUSH2 0x100 DUP4 ADD PUSH1 0x0 DUP4 ADD MLOAD DUP5 DUP3 SUB PUSH1 0x0 DUP7 ADD MSTORE PUSH2 0xE80 DUP3 DUP3 PUSH2 0xDBD JUMP JUMPDEST SWAP2 POP POP PUSH1 0x20 DUP4 ADD MLOAD DUP5 DUP3 SUB PUSH1 0x20 DUP7 ADD MSTORE PUSH2 0xE9A DUP3 DUP3 PUSH2 0xDBD JUMP JUMPDEST SWAP2 POP POP PUSH1 0x40 DUP4 ADD MLOAD DUP5 DUP3 SUB PUSH1 0x40 DUP7 ADD MSTORE PUSH2 0xEB4 DUP3 DUP3 PUSH2 0xDBD JUMP JUMPDEST SWAP2 POP POP PUSH1 0x60 DUP4 ADD MLOAD DUP5 DUP3 SUB PUSH1 0x60 DUP7 ADD MSTORE PUSH2 0xECE DUP3 DUP3 PUSH2 0xDBD JUMP JUMPDEST SWAP2 POP POP PUSH1 0x80 DUP4 ADD MLOAD DUP5 DUP3 SUB PUSH1 0x80 DUP7 ADD MSTORE PUSH2 0xEE8 DUP3 DUP3 PUSH2 0xDBD JUMP JUMPDEST SWAP2 POP POP PUSH1 0xA0 DUP4 ADD MLOAD PUSH2 0xEFD PUSH1 0xA0 DUP7 ADD DUP3 PUSH2 0xE03 JUMP JUMPDEST POP PUSH1 0xC0 DUP4 ADD MLOAD PUSH2 0xF10 PUSH1 0xC0 DUP7 ADD DUP3 PUSH2 0xE44 JUMP JUMPDEST POP PUSH1 0xE0 DUP4 ADD MLOAD PUSH2 0xF23 PUSH1 0xE0 DUP7 ADD DUP3 PUSH2 0xE53 JUMP JUMPDEST POP DUP1 SWAP2 POP POP SWAP3 SWAP2 POP POP JUMP JUMPDEST PUSH1 0x0 PUSH1 0x20 DUP3 ADD SWAP1 POP DUP2 DUP2 SUB PUSH1 0x0 DUP4 ADD MSTORE PUSH2 0xF48 DUP2 DUP5 PUSH2 0xE62 JUMP JUMPDEST SWAP1 POP SWAP3 SWAP2 POP POP JUMP JUMPDEST PUSH1 0x0 DUP1 REVERT JUMPDEST PUSH1 0x0 DUP1 REVERT JUMPDEST PUSH32 0x4E487B7100000000000000000000000000000000000000000000000000000000 PUSH1 0x0 MSTORE PUSH1 0x41 PUSH1 0x4 MSTORE PUSH1 0x24 PUSH1 0x0 REVERT JUMPDEST PUSH2 0xF92 DUP3 PUSH2 0xDAC JUMP JUMPDEST DUP2 ADD DUP2 DUP2 LT PUSH8 0xFFFFFFFFFFFFFFFF DUP3 GT OR ISZERO PUSH2 0xFB1 JUMPI PUSH2 0xFB0 PUSH2 0xF5A JUMP JUMPDEST JUMPDEST DUP1 PUSH1 0x40 MSTORE POP POP POP JUMP JUMPDEST PUSH1 0x0 PUSH2 0xFC4 PUSH2 0xCEF JUMP JUMPDEST SWAP1 POP PUSH2 0xFD0 DUP3 DUP3 PUSH2 0xF89 JUMP JUMPDEST SWAP2 SWAP1 POP JUMP JUMPDEST PUSH1 0x0 PUSH8 0xFFFFFFFFFFFFFFFF DUP3 GT ISZERO PUSH2 0xFF0 JUMPI PUSH2 0xFEF PUSH2 0xF5A JUMP JUMPDEST JUMPDEST PUSH2 0xFF9 DUP3 PUSH2 0xDAC JUMP JUMPDEST SWAP1 POP PUSH1 0x20 DUP2 ADD SWAP1 POP SWAP2 SWAP1 POP JUMP JUMPDEST DUP3 DUP2 DUP4 CALLDATACOPY PUSH1 0x0 DUP4 DUP4 ADD MSTORE POP POP POP JUMP JUMPDEST PUSH1 0x0 PUSH2 0x1028 PUSH2 0x1023 DUP5 PUSH2 0xFD5 JUMP JUMPDEST PUSH2 0xFBA JUMP JUMPDEST SWAP1 POP DUP3 DUP2 MSTORE PUSH1 0x20 DUP2 ADD DUP5 DUP5 DUP5 ADD GT ISZERO PUSH2 0x1044 JUMPI PUSH2 0x1043 PUSH2 0xF55 JUMP JUMPDEST JUMPDEST PUSH2 0x104F DUP5 DUP3 DUP6 PUSH2 0x1006 JUMP JUMPDEST POP SWAP4 SWAP3 POP POP POP JUMP JUMPDEST PUSH1 0x0 DUP3 PUSH1 0x1F DUP4 ADD SLT PUSH2 0x106C JUMPI PUSH2 0x106B PUSH2 0xF50 JUMP JUMPDEST JUMPDEST DUP2 CALLDATALOAD PUSH2 0x107C DUP5 DUP3 PUSH1 0x20 DUP7 ADD PUSH2 0x1015 JUMP JUMPDEST SWAP2 POP POP SWAP3 SWAP2 POP POP JUMP JUMPDEST PUSH2 0x108E DUP2 PUSH2 0xDF6 JUMP JUMPDEST DUP2 EQ PUSH2 0x1099 JUMPI PUSH1 0x0 DUP1 REVERT JUMPDEST POP JUMP JUMPDEST PUSH1 0x0 DUP2 CALLDATALOAD SWAP1 POP PUSH2 0x10AB DUP2 PUSH2 0x1085 JUMP JUMPDEST SWAP3 SWAP2 POP POP JUMP JUMPDEST PUSH2 0x10BA DUP2 PUSH2 0xE32 JUMP JUMPDEST DUP2 EQ PUSH2 0x10C5 JUMPI PUSH1 0x0 DUP1 REVERT JUMPDEST POP JUMP JUMPDEST PUSH1 0x0 DUP2 CALLDATALOAD SWAP1 POP PUSH2 0x10D7 DUP2 PUSH2 0x10B1 JUMP JUMPDEST SWAP3 SWAP2 POP POP JUMP JUMPDEST PUSH1 0x0 DUP1 PUSH1 0x0 DUP1 PUSH1 0x0 DUP1 PUSH1 0x0 PUSH1 0xE0 DUP9 DUP11 SUB SLT ISZERO PUSH2 0x10FC JUMPI PUSH2 0x10FB PUSH2 0xCF9 JUMP JUMPDEST JUMPDEST PUSH1 0x0 DUP9 ADD CALLDATALOAD PUSH8 0xFFFFFFFFFFFFFFFF DUP2 GT ISZERO PUSH2 0x111A JUMPI PUSH2 0x1119 PUSH2 0xCFE JUMP JUMPDEST JUMPDEST PUSH2 0x1126 DUP11 DUP3 DUP12 ADD PUSH2 0x1057 JUMP JUMPDEST SWAP8 POP POP PUSH1 0x20 DUP9 ADD CALLDATALOAD PUSH8 0xFFFFFFFFFFFFFFFF DUP2 GT ISZERO PUSH2 0x1147 JUMPI PUSH2 0x1146 PUSH2 0xCFE JUMP JUMPDEST JUMPDEST PUSH2 0x1153 DUP11 DUP3 DUP12 ADD PUSH2 0x1057 JUMP JUMPDEST SWAP7 POP POP PUSH1 0x40 DUP9 ADD CALLDATALOAD PUSH8 0xFFFFFFFFFFFFFFFF DUP2 GT ISZERO PUSH2 0x1174 JUMPI PUSH2 0x1173 PUSH2 0xCFE JUMP JUMPDEST JUMPDEST PUSH2 0x1180 DUP11 DUP3 DUP12 ADD PUSH2 0x1057 JUMP JUMPDEST SWAP6 POP POP PUSH1 0x60 DUP9 ADD CALLDATALOAD PUSH8 0xFFFFFFFFFFFFFFFF DUP2 GT ISZERO PUSH2 0x11A1 JUMPI PUSH2 0x11A0 PUSH2 0xCFE JUMP JUMPDEST JUMPDEST PUSH2 0x11AD DUP11 DUP3 DUP12 ADD PUSH2 0x1057 JUMP JUMPDEST SWAP5 POP POP PUSH1 0x80 PUSH2 0x11BE DUP11 DUP3 DUP12 ADD PUSH2 0x109C JUMP JUMPDEST SWAP4 POP POP PUSH1 0xA0 DUP9 ADD CALLDATALOAD PUSH8 0xFFFFFFFFFFFFFFFF DUP2 GT ISZERO PUSH2 0x11DF JUMPI PUSH2 0x11DE PUSH2 0xCFE JUMP JUMPDEST JUMPDEST PUSH2 0x11EB DUP11 DUP3 DUP12 ADD PUSH2 0x1057 JUMP JUMPDEST SWAP3 POP POP PUSH1 0xC0 PUSH2 0x11FC DUP11 DUP3 DUP12 ADD PUSH2 0x10C8 JUMP JUMPDEST SWAP2 POP POP SWAP3 SWAP6 SWAP9 SWAP2 SWAP5 SWAP8 POP SWAP3 SWAP6 POP JUMP JUMPDEST PUSH32 0x4E487B7100000000000000000000000000000000000000000000000000000000 PUSH1 0x0 MSTORE PUSH1 0x22 PUSH1 0x4 MSTORE PUSH1 0x24 PUSH1 0x0 REVERT JUMPDEST PUSH1 0x0 PUSH1 0x2 DUP3 DIV SWAP1 POP PUSH1 0x1 DUP3 AND DUP1 PUSH2 0x1252 JUMPI PUSH1 0x7F DUP3 AND SWAP2 POP JUMPDEST PUSH1 0x20 DUP3 LT DUP2 SUB PUSH2 0x1265 JUMPI PUSH2 0x1264 PUSH2 0x120B JUMP JUMPDEST JUMPDEST POP SWAP2 SWAP1 POP JUMP JUMPDEST PUSH1 0x0 DUP3 DUP3 MSTORE PUSH1 0x20 DUP3 ADD SWAP1 POP SWAP3 SWAP2 POP POP JUMP JUMPDEST PUSH32 0x496E76616C696420636F6D70616E792074797065000000000000000000000000 PUSH1 0x0 DUP3 ADD MSTORE POP JUMP JUMPDEST PUSH1 0x0 PUSH2 0x12B2 PUSH1 0x14 DUP4 PUSH2 0x126B JUMP JUMPDEST SWAP2 POP PUSH2 0x12BD DUP3 PUSH2 0x127C JUMP JUMPDEST PUSH1 0x20 DUP3 ADD SWAP1 POP SWAP2 SWAP1 POP JUMP JUMPDEST PUSH1 0x0 PUSH1 0x20 DUP3 ADD SWAP1 POP DUP2 DUP2 SUB PUSH1 0x0 DUP4 ADD MSTORE PUSH2 0x12E1 DUP2 PUSH2 0x12A5 JUMP JUMPDEST SWAP1 POP SWAP2 SWAP1 POP JUMP JUMPDEST PUSH32 0x496E76616C69642053534E000000000000000000000000000000000000000000 PUSH1 0x0 DUP3 ADD MSTORE POP JUMP JUMPDEST PUSH1 0x0 PUSH2 0x131E PUSH1 0xB DUP4 PUSH2 0x126B JUMP JUMPDEST SWAP2 POP PUSH2 0x1329 DUP3 PUSH2 0x12E8 JUMP JUMPDEST PUSH1 0x20 DUP3 ADD SWAP1 POP SWAP2 SWAP1 POP JUMP JUMPDEST PUSH1 0x0 PUSH1 0x20 DUP3 ADD SWAP1 POP DUP2 DUP2 SUB PUSH1 0x0 DUP4 ADD MSTORE PUSH2 0x134D DUP2 PUSH2 0x1311 JUMP JUMPDEST SWAP1 POP SWAP2 SWAP1 POP JUMP JUMPDEST PUSH32 0x496E76616C6964206E616D650000000000000000000000000000000000000000 PUSH1 0x0 DUP3 ADD MSTORE POP JUMP JUMPDEST PUSH1 0x0 PUSH2 0x138A PUSH1 0xC DUP4 PUSH2 0x126B JUMP JUMPDEST SWAP2 POP PUSH2 0x1395 DUP3 PUSH2 0x1354 JUMP JUMPDEST PUSH1 0x20 DUP3 ADD SWAP1 POP SWAP2 SWAP1 POP JUMP JUMPDEST PUSH1 0x0 PUSH1 0x20 DUP3 ADD SWAP1 POP DUP2 DUP2 SUB PUSH1 0x0 DUP4 ADD MSTORE PUSH2 0x13B9 DUP2 PUSH2 0x137D JUMP JUMPDEST SWAP1 POP SWAP2 SWAP1 POP JUMP JUMPDEST PUSH32 0x496E76616C696420616464726573730000000000000000000000000000000000 PUSH1 0x0 DUP3 ADD MSTORE POP JUMP JUMPDEST PUSH1 0x0 PUSH2 0x13F6 PUSH1 0xF DUP4 PUSH2 0x126B JUMP JUMPDEST SWAP2 POP PUSH2 0x1401 DUP3 PUSH2 0x13C0 JUMP JUMPDEST PUSH1 0x20 DUP3 ADD SWAP1 POP SWAP2 SWAP1 POP JUMP JUMPDEST PUSH1 0x0 PUSH1 0x20 DUP3 ADD SWAP1 POP DUP2 DUP2 SUB PUSH1 0x0 DUP4 ADD MSTORE PUSH2 0x1425 DUP2 PUSH2 0x13E9 JUMP JUMPDEST SWAP1 POP SWAP2 SWAP1 POP JUMP JUMPDEST PUSH32 0x50617373776F726420746F6F2073686F72740000000000000000000000000000 PUSH1 0x0 DUP3 ADD MSTORE POP JUMP JUMPDEST PUSH1 0x0 PUSH2 0x1462 PUSH1 0x12 DUP4 PUSH2 0x126B JUMP JUMPDEST SWAP2 POP PUSH2 0x146D DUP3 PUSH2 0x142C JUMP JUMPDEST PUSH1 0x20 DUP3 ADD SWAP1 POP SWAP2 SWAP1 POP JUMP JUMPDEST PUSH1 0x0 PUSH1 0x20 DUP3 ADD SWAP1 POP DUP2 DUP2 SUB PUSH1 0x0 DUP4 ADD MSTORE PUSH2 0x1491 DUP2 PUSH2 0x1455 JUMP JUMPDEST SWAP1 POP SWAP2 SWAP1 POP JUMP JUMPDEST PUSH32 0x50686F6E65206E756D62657220746F6F2073686F727400000000000000000000 PUSH1 0x0 DUP3 ADD MSTORE POP JUMP JUMPDEST PUSH1 0x0 PUSH2 0x14CE PUSH1 0x16 DUP4 PUSH2 0x126B JUMP JUMPDEST SWAP2 POP PUSH2 0x14D9 DUP3 PUSH2 0x1498 JUMP JUMPDEST PUSH1 0x20 DUP3 ADD SWAP1 POP SWAP2 SWAP1 POP JUMP JUMPDEST PUSH1 0x0 PUSH1 0x20 DUP3 ADD SWAP1 POP DUP2 DUP2 SUB PUSH1 0x0 DUP4 ADD MSTORE PUSH2 0x14FD DUP2 PUSH2 0x14C1 JUMP JUMPDEST SWAP1 POP SWAP2 SWAP1 POP JUMP JUMPDEST PUSH1 0x0 DUP2 SWAP1 POP SWAP3 SWAP2 POP POP JUMP JUMPDEST PUSH1 0x0 PUSH2 0x151A DUP3 PUSH2 0xD66 JUMP JUMPDEST PUSH2 0x1524 DUP2 DUP6 PUSH2 0x1504 JUMP JUMPDEST SWAP4 POP PUSH2 0x1534 DUP2 DUP6 PUSH1 0x20 DUP7 ADD PUSH2 0xD82 JUMP JUMPDEST DUP1 DUP5 ADD SWAP2 POP POP SWAP3 SWAP2 POP POP JUMP JUMPDEST PUSH1 0x0 PUSH2 0x154C DUP3 DUP10 PUSH2 0x150F JUMP JUMPDEST SWAP2 POP PUSH2 0x1558 DUP3 DUP9 PUSH2 0x150F JUMP JUMPDEST SWAP2 POP PUSH2 0x1564 DUP3 DUP8 PUSH2 0x150F JUMP JUMPDEST SWAP2 POP PUSH2 0x1570 DUP3 DUP7 PUSH2 0x150F JUMP JUMPDEST SWAP2 POP PUSH2 0x157C DUP3 DUP6 PUSH2 0x150F JUMP JUMPDEST SWAP2 POP PUSH2 0x1588 DUP3 DUP5 PUSH2 0x150F JUMP JUMPDEST SWAP2 POP DUP2 SWAP1 POP SWAP8 SWAP7 POP POP POP POP POP POP POP JUMP JUMPDEST PUSH1 0x0 PUSH2 0x15A4 DUP3 DUP5 PUSH2 0x150F JUMP JUMPDEST SWAP2 POP DUP2 SWAP1 POP SWAP3 SWAP2 POP POP JUMP JUMPDEST PUSH1 0x0 DUP2 SWAP1 POP SWAP2 SWAP1 POP JUMP JUMPDEST PUSH2 0x15CA PUSH2 0x15C5 DUP3 PUSH2 0xD03 JUMP JUMPDEST PUSH2 0x15AF JUMP JUMPDEST DUP3 MSTORE POP POP JUMP JUMPDEST PUSH1 0x0 PUSH2 0x15DC DUP3 DUP5 PUSH2 0x15B9 JUMP JUMPDEST PUSH1 0x20 DUP3 ADD SWAP2 POP DUP2 SWAP1 POP SWAP3 SWAP2 POP POP JUMP JUMPDEST PUSH1 0x0 DUP2 SWAP1 POP DUP2 PUSH1 0x0 MSTORE PUSH1 0x20 PUSH1 0x0 KECCAK256 SWAP1 POP SWAP2 SWAP1 POP JUMP JUMPDEST PUSH1 0x0 PUSH1 0x20 PUSH1 0x1F DUP4 ADD DIV SWAP1 POP SWAP2 SWAP1 POP JUMP JUMPDEST PUSH1 0x0 DUP3 DUP3 SHL SWAP1 POP SWAP3 SWAP2 POP POP JUMP JUMPDEST PUSH1 0x0 PUSH1 0x8 DUP4 MUL PUSH2 0x164D PUSH32 0xFFFFFFFFFFFFFFFFFFFFFFFFFFFFFFFFFFFFFFFFFFFFFFFFFFFFFFFFFFFFFFFF DUP3 PUSH2 0x1610 JUMP JUMPDEST PUSH2 0x1657 DUP7 DUP4 PUSH2 0x1610 JUMP JUMPDEST SWAP6 POP DUP1 NOT DUP5 AND SWAP4 POP DUP1 DUP7 AND DUP5 OR SWAP3 POP POP POP SWAP4 SWAP3 POP POP POP JUMP JUMPDEST PUSH1 0x0 DUP2 SWAP1 POP SWAP2 SWAP1 POP JUMP JUMPDEST PUSH1 0x0 DUP2 SWAP1 POP SWAP2 SWAP1 POP JUMP JUMPDEST PUSH1 0x0 PUSH2 0x169E PUSH2 0x1699 PUSH2 0x1694 DUP5 PUSH2 0x166F JUMP JUMPDEST PUSH2 0x1679 JUMP JUMPDEST PUSH2 0x166F JUMP JUMPDEST SWAP1 POP SWAP2 SWAP1 POP JUMP JUMPDEST PUSH1 0x0 DUP2 SWAP1 POP SWAP2 SWAP1 POP JUMP JUMPDEST PUSH2 0x16B8 DUP4 PUSH2 0x1683 JUMP JUMPDEST PUSH2 0x16CC PUSH2 0x16C4 DUP3 PUSH2 0x16A5 JUMP JUMPDEST DUP5 DUP5 SLOAD PUSH2 0x161D JUMP JUMPDEST DUP3 SSTORE POP POP POP POP JUMP JUMPDEST PUSH1 0x0 SWAP1 JUMP JUMPDEST PUSH2 0x16E1 PUSH2 0x16D4 JUMP JUMPDEST PUSH2 0x16EC DUP2 DUP5 DUP5 PUSH2 0x16AF JUMP JUMPDEST POP POP POP JUMP JUMPDEST JUMPDEST DUP2 DUP2 LT ISZERO PUSH2 0x1710 JUMPI PUSH2 0x1705 PUSH1 0x0 DUP3 PUSH2 0x16D9 JUMP JUMPDEST PUSH1 0x1 DUP2 ADD SWAP1 POP PUSH2 0x16F2 JUMP JUMPDEST POP POP JUMP JUMPDEST PUSH1 0x1F DUP3 GT ISZERO PUSH2 0x1755 JUMPI PUSH2 0x1726 DUP2 PUSH2 0x15EB JUMP JUMPDEST PUSH2 0x172F DUP5 PUSH2 0x1600 JUMP JUMPDEST DUP2 ADD PUSH1 0x20 DUP6 LT ISZERO PUSH2 0x173E JUMPI DUP2 SWAP1 POP JUMPDEST PUSH2 0x1752 PUSH2 0x174A DUP6 PUSH2 0x1600 JUMP JUMPDEST DUP4 ADD DUP3 PUSH2 0x16F1 JUMP JUMPDEST POP POP JUMPDEST POP POP POP JUMP JUMPDEST PUSH1 0x0 DUP3 DUP3 SHR SWAP1 POP SWAP3 SWAP2 POP POP JUMP JUMPDEST PUSH1 0x0 PUSH2 0x1778 PUSH1 0x0 NOT DUP5 PUSH1 0x8 MUL PUSH2 0x175A JUMP JUMPDEST NOT DUP1 DUP4 AND SWAP2 POP POP SWAP3 SWAP2 POP POP JUMP JUMPDEST PUSH1 0x0 PUSH2 0x1791 DUP4 DUP4 PUSH2 0x1767 JUMP JUMPDEST SWAP2 POP DUP3 PUSH1 0x2 MUL DUP3 OR SWAP1 POP SWAP3 SWAP2 POP POP JUMP JUMPDEST PUSH2 0x17AA DUP3 PUSH2 0xD66 JUMP JUMPDEST PUSH8 0xFFFFFFFFFFFFFFFF DUP2 GT ISZERO PUSH2 0x17C3 JUMPI PUSH2 0x17C2 PUSH2 0xF5A JUMP JUMPDEST JUMPDEST PUSH2 0x17CD DUP3 SLOAD PUSH2 0x123A JUMP JUMPDEST PUSH2 0x17D8 DUP3 DUP3 DUP6 PUSH2 0x1714 JUMP JUMPDEST PUSH1 0x0 PUSH1 0x20 SWAP1 POP PUSH1 0x1F DUP4 GT PUSH1 0x1 DUP2 EQ PUSH2 0x180B JUMPI PUSH1 0x0 DUP5 ISZERO PUSH2 0x17F9 JUMPI DUP3 DUP8 ADD MLOAD SWAP1 POP JUMPDEST PUSH2 0x1803 DUP6 DUP3 PUSH2 0x1785 JUMP JUMPDEST DUP7 SSTORE POP PUSH2 0x186B JUMP JUMPDEST PUSH1 0x1F NOT DUP5 AND PUSH2 0x1819 DUP7 PUSH2 0x15EB JUMP JUMPDEST PUSH1 0x0 JUMPDEST DUP3 DUP2 LT ISZERO PUSH2 0x1841 JUMPI DUP5 DUP10 ADD MLOAD DUP3 SSTORE PUSH1 0x1 DUP3 ADD SWAP2 POP PUSH1 0x20 DUP6 ADD SWAP5 POP PUSH1 0x20 DUP2 ADD SWAP1 POP PUSH2 0x181C JUMP JUMPDEST DUP7 DUP4 LT ISZERO PUSH2 0x185E JUMPI DUP5 DUP10 ADD MLOAD PUSH2 0x185A PUSH1 0x1F DUP10 AND DUP3 PUSH2 0x1767 JUMP JUMPDEST DUP4 SSTORE POP JUMPDEST PUSH1 0x1 PUSH1 0x2 DUP9 MUL ADD DUP9 SSTORE POP POP POP JUMPDEST POP POP POP POP POP POP JUMP JUMPDEST PUSH32 0x4E6F7420616C6C6F776564000000000000000000000000000000000000000000 PUSH1 0x0 DUP3 ADD MSTORE POP JUMP JUMPDEST PUSH1 0x0 PUSH2 0x18A9 PUSH1 0xB DUP4 PUSH2 0x126B JUMP JUMPDEST SWAP2 POP PUSH2 0x18B4 DUP3 PUSH2 0x1873 JUMP JUMPDEST PUSH1 0x20 DUP3 ADD SWAP1 POP SWAP2 SWAP1 POP JUMP JUMPDEST PUSH1 0x0 PUSH1 0x20 DUP3 ADD SWAP1 POP DUP2 DUP2 SUB PUSH1 0x0 DUP4 ADD MSTORE PUSH2 0x18D8 DUP2 PUSH2 0x189C JUMP JUMPDEST SWAP1 POP SWAP2 SWAP1 POP JUMP JUMPDEST PUSH32 0x4E487B7100000000000000000000000000000000000000000000000000000000 PUSH1 0x0 MSTORE PUSH1 0x12 PUSH1 0x4 MSTORE PUSH1 0x24 PUSH1 0x0 REVERT INVALID LOG2 PUSH5 0x6970667358 0x22 SLT KECCAK256 0xBB 0xD1 0xC0 POP XOR PUSH3 0x48D795 0x23 MULMOD 0xDF CALLVALUE DUP9 GASLIMIT 0xAD SLT 0x28 DUP11 0xEB 0xE1 0xA8 BASEFEE SSTORE 0xB0 0xA5 OR PUSH15 0xD1AC0B5D64736F6C63430008120033 "
				},
				"gasEstimates": {
					"creation": {
						"codeDepositCost": "1293600",
						"executionCost": "147200",
						"totalCost": "1440800"
					},
					"external": {
						"createAccount(string,string,string,string,uint8,string,address)": "infinite",
						"getUser(bytes32)": "infinite"
					},
					"internal": {
						"isOwner()": "infinite"
					}
				},
				"methodIdentifiers": {
					"createAccount(string,string,string,string,uint8,string,address)": "eefb8ab1",
					"getUser(bytes32)": "6517579c"
				}
			},
			"storageLayout": {
				"storage": [
					{
						"astId": 1203,
						"contract": "auth.sol:Auth",
						"label": "owner",
						"offset": 0,
						"slot": "0",
						"type": "t_address"
					},
					{
						"astId": 1206,
						"contract": "auth.sol:Auth",
						"label": "ACC_PERSONAL",
						"offset": 20,
						"slot": "0",
						"type": "t_uint8"
					},
					{
						"astId": 1209,
						"contract": "auth.sol:Auth",
						"label": "ACC_LIMITED_COMPANY",
						"offset": 21,
						"slot": "0",
						"type": "t_uint8"
					},
					{
						"astId": 1212,
						"contract": "auth.sol:Auth",
						"label": "ACC_SHARE_COMPANY",
						"offset": 22,
						"slot": "0",
						"type": "t_uint8"
					},
					{
						"astId": 1215,
						"contract": "auth.sol:Auth",
						"label": "ACC_INDIVIDUAL_COMPANY",
						"offset": 23,
						"slot": "0",
						"type": "t_uint8"
					},
					{
						"astId": 1218,
						"contract": "auth.sol:Auth",
						"label": "ACC_FOREIGN_BRANCH",
						"offset": 24,
						"slot": "0",
						"type": "t_uint8"
					},
					{
						"astId": 1240,
						"contract": "auth.sol:Auth",
						"label": "persons",
						"offset": 0,
						"slot": "1",
						"type": "t_mapping(t_bytes32,t_struct(person)1235_storage)"
					}
				],
				"types": {
					"t_address": {
						"encoding": "inplace",
						"label": "address",
						"numberOfBytes": "20"
					},
					"t_bytes32": {
						"encoding": "inplace",
						"label": "bytes32",
						"numberOfBytes": "32"
					},
					"t_mapping(t_bytes32,t_struct(person)1235_storage)": {
						"encoding": "mapping",
						"key": "t_bytes32",
						"label": "mapping(bytes32 => struct Auth.person)",
						"numberOfBytes": "32",
						"value": "t_struct(person)1235_storage"
					},
					"t_string_storage": {
						"encoding": "bytes",
						"label": "string",
						"numberOfBytes": "32"
					},
					"t_struct(person)1235_storage": {
						"encoding": "inplace",
						"label": "struct Auth.person",
						"members": [
							{
								"astId": 1220,
								"contract": "auth.sol:Auth",
								"label": "fullName",
								"offset": 0,
								"slot": "0",
								"type": "t_string_storage"
							},
							{
								"astId": 1222,
								"contract": "auth.sol:Auth",
								"label": "SSN",
								"offset": 0,
								"slot": "1",
								"type": "t_string_storage"
							},
							{
								"astId": 1224,
								"contract": "auth.sol:Auth",
								"label": "homeAddress",
								"offset": 0,
								"slot": "2",
								"type": "t_string_storage"
							},
							{
								"astId": 1226,
								"contract": "auth.sol:Auth",
								"label": "pass",
								"offset": 0,
								"slot": "3",
								"type": "t_string_storage"
							},
							{
								"astId": 1228,
								"contract": "auth.sol:Auth",
								"label": "phone",
								"offset": 0,
								"slot": "4",
								"type": "t_string_storage"
							},
							{
								"astId": 1230,
								"contract": "auth.sol:Auth",
								"label": "accountType",
								"offset": 0,
								"slot": "5",
								"type": "t_uint8"
							},
							{
								"astId": 1232,
								"contract": "auth.sol:Auth",
								"label": "blockAccount",
								"offset": 1,
								"slot": "5",
								"type": "t_address"
							},
							{
								"astId": 1234,
								"contract": "auth.sol:Auth",
								"label": "UID",
								"offset": 0,
								"slot": "6",
								"type": "t_bytes32"
							}
						],
						"numberOfBytes": "224"
					},
					"t_uint8": {
						"encoding": "inplace",
						"label": "uint8",
						"numberOfBytes": "1"
					}
				}
			},
			"userdoc": {
				"kind": "user",
				"methods": {},
				"version": 1
			}
		}
	}
}