{
	"auth.sol": {
		"Auth": {
			"abi": [
				{
					"inputs": [],
					"stateMutability": "nonpayable",
					"type": "constructor"
				},
				{
					"anonymous": false,
					"inputs": [
						{
							"indexed": false,
							"internalType": "bytes32",
							"name": "UID",
							"type": "bytes32"
						}
					],
					"name": "accountCreated",
					"type": "event"
				},
				{
					"inputs": [
						{
							"internalType": "bytes32",
							"name": "UID",
							"type": "bytes32"
						},
						{
							"internalType": "string",
							"name": "pass",
							"type": "string"
						}
					],
					"name": "authenthicate",
					"outputs": [
						{
							"internalType": "bool",
							"name": "",
							"type": "bool"
						}
					],
					"stateMutability": "view",
					"type": "function"
				},
				{
					"inputs": [
						{
							"internalType": "string",
							"name": "fullName",
							"type": "string"
						},
						{
							"internalType": "string",
							"name": "SSN",
							"type": "string"
						},
						{
							"internalType": "string",
							"name": "homeAddress",
							"type": "string"
						},
						{
							"internalType": "string",
							"name": "pass",
							"type": "string"
						},
						{
							"internalType": "uint8",
							"name": "accountType",
							"type": "uint8"
						},
						{
							"internalType": "string",
							"name": "phone",
							"type": "string"
						},
						{
							"internalType": "address",
							"name": "addr",
							"type": "address"
						},
						{
							"internalType": "string",
							"name": "companyCode",
							"type": "string"
						}
					],
					"name": "createAccount",
					"outputs": [
						{
							"internalType": "bytes32",
							"name": "",
							"type": "bytes32"
						}
					],
					"stateMutability": "payable",
					"type": "function"
				},
				{
					"inputs": [
						{
							"internalType": "bytes32",
							"name": "UID",
							"type": "bytes32"
						},
						{
							"internalType": "string",
							"name": "fullName",
							"type": "string"
						},
						{
							"internalType": "string",
							"name": "homeAddress",
							"type": "string"
						},
						{
							"internalType": "string",
							"name": "phone",
							"type": "string"
						},
						{
							"internalType": "address",
							"name": "blockAccount",
							"type": "address"
						},
						{
							"internalType": "string",
							"name": "companyCode",
							"type": "string"
						},
						{
							"internalType": "string",
							"name": "pass",
							"type": "string"
						}
					],
					"name": "editUser",
					"outputs": [],
					"stateMutability": "payable",
					"type": "function"
				},
				{
					"inputs": [
						{
							"internalType": "bytes32",
							"name": "UID",
							"type": "bytes32"
						},
						{
							"internalType": "string",
							"name": "pass",
							"type": "string"
						}
					],
					"name": "getUser",
					"outputs": [
						{
							"components": [
								{
									"internalType": "string",
									"name": "fullName",
									"type": "string"
								},
								{
									"internalType": "string",
									"name": "SSN",
									"type": "string"
								},
								{
									"internalType": "string",
									"name": "homeAddress",
									"type": "string"
								},
								{
									"internalType": "string",
									"name": "pass",
									"type": "string"
								},
								{
									"internalType": "string",
									"name": "phone",
									"type": "string"
								},
								{
									"internalType": "uint8",
									"name": "accountType",
									"type": "uint8"
								},
								{
									"internalType": "string",
									"name": "companyCode",
									"type": "string"
								},
								{
									"internalType": "address",
									"name": "blockAccount",
									"type": "address"
								},
								{
									"internalType": "bytes32",
									"name": "UID",
									"type": "bytes32"
								}
							],
							"internalType": "struct Auth.person",
							"name": "",
							"type": "tuple"
						}
					],
					"stateMutability": "view",
					"type": "function"
				}
			],
			"devdoc": {
				"kind": "dev",
				"methods": {},
				"version": 1
			},
			"evm": {
				"assembly": "    /* \"auth.sol\":133:5782  contract Auth {... */\n  mstore(0x40, 0x80)\n    /* \"auth.sol\":194:195  0 */\n  0x00\n    /* \"auth.sol\":173:195  uint8 ACC_PERSONAL = 0 */\n  dup1\n  exp(0x0100, 0x14)\n  dup2\n  sload\n  dup2\n  0xff\n  mul\n  not\n  and\n  swap1\n  dup4\n  0xff\n  and\n  mul\n  or\n  swap1\n  sstore\n  pop\n    /* \"auth.sol\":229:230  1 */\n  0x01\n    /* \"auth.sol\":201:230  uint8 ACC_LIMITED_COMPANY = 1 */\n  0x00\n  exp(0x0100, 0x15)\n  dup2\n  sload\n  dup2\n  0xff\n  mul\n  not\n  and\n  swap1\n  dup4\n  0xff\n  and\n  mul\n  or\n  swap1\n  sstore\n  pop\n    /* \"auth.sol\":262:263  2 */\n  0x02\n    /* \"auth.sol\":236:263  uint8 ACC_SHARE_COMPANY = 2 */\n  0x00\n  exp(0x0100, 0x16)\n  dup2\n  sload\n  dup2\n  0xff\n  mul\n  not\n  and\n  swap1\n  dup4\n  0xff\n  and\n  mul\n  or\n  swap1\n  sstore\n  pop\n    /* \"auth.sol\":300:301  3 */\n  0x03\n    /* \"auth.sol\":269:301  uint8 ACC_INDIVIDUAL_COMPANY = 3 */\n  0x00\n  exp(0x0100, 0x17)\n  dup2\n  sload\n  dup2\n  0xff\n  mul\n  not\n  and\n  swap1\n  dup4\n  0xff\n  and\n  mul\n  or\n  swap1\n  sstore\n  pop\n    /* \"auth.sol\":334:335  4 */\n  0x04\n    /* \"auth.sol\":307:335  uint8 ACC_FOREIGN_BRANCH = 4 */\n  0x00\n  exp(0x0100, 0x18)\n  dup2\n  sload\n  dup2\n  0xff\n  mul\n  not\n  and\n  swap1\n  dup4\n  0xff\n  and\n  mul\n  or\n  swap1\n  sstore\n  pop\n    /* \"auth.sol\":678:806  constructor() {... */\n  callvalue\n  dup1\n  iszero\n  tag_1\n  jumpi\n  0x00\n  dup1\n  revert\ntag_1:\n  pop\n    /* \"auth.sol\":710:720  msg.sender */\n  caller\n    /* \"auth.sol\":702:707  owner */\n  0x00\n  dup1\n    /* \"auth.sol\":702:720  owner = msg.sender */\n  0x0100\n  exp\n  dup2\n  sload\n  dup2\n  0xffffffffffffffffffffffffffffffffffffffff\n  mul\n  not\n  and\n  swap1\n  dup4\n  0xffffffffffffffffffffffffffffffffffffffff\n  and\n  mul\n  or\n  swap1\n  sstore\n  pop\n    /* \"auth.sol\":133:5782  contract Auth {... */\n  dataSize(sub_0)\n  dup1\n  dataOffset(sub_0)\n  0x00\n  codecopy\n  0x00\n  return\nstop\n\nsub_0: assembly {\n        /* \"auth.sol\":133:5782  contract Auth {... */\n      mstore(0x40, 0x80)\n      jumpi(tag_1, lt(calldatasize, 0x04))\n      shr(0xe0, calldataload(0x00))\n      dup1\n      0x131c4f\n      eq\n      tag_2\n      jumpi\n      dup1\n      0xc28fe9c1\n      eq\n      tag_3\n      jumpi\n      dup1\n      0xdd64e4ad\n      eq\n      tag_4\n      jumpi\n      dup1\n      0xddfbce96\n      eq\n      tag_5\n      jumpi\n    tag_1:\n      0x00\n      dup1\n      revert\n        /* \"auth.sol\":2814:4826  function getUser(bytes32 UID, string memory pass) public view returns(person memory)... */\n    tag_2:\n      callvalue\n      dup1\n      iszero\n      tag_6\n      jumpi\n      0x00\n      dup1\n      revert\n    tag_6:\n      pop\n      tag_7\n      0x04\n      dup1\n      calldatasize\n      sub\n      dup2\n      add\n      swap1\n      tag_8\n      swap2\n      swap1\n      tag_9\n      jump\t// in\n    tag_8:\n      tag_10\n      jump\t// in\n    tag_7:\n      mload(0x40)\n      tag_11\n      swap2\n      swap1\n      tag_12\n      jump\t// in\n    tag_11:\n      mload(0x40)\n      dup1\n      swap2\n      sub\n      swap1\n      return\n        /* \"auth.sol\":4832:5394  function editUser(bytes32 UID, string memory fullName, string memory homeAddress, string memory phone, address blockAccount, string memory companyCode, string memory pass) public payable... */\n    tag_3:\n      tag_13\n      0x04\n      dup1\n      calldatasize\n      sub\n      dup2\n      add\n      swap1\n      tag_14\n      swap2\n      swap1\n      tag_15\n      jump\t// in\n    tag_14:\n      tag_16\n      jump\t// in\n    tag_13:\n      stop\n        /* \"auth.sol\":915:2808  function createAccount(string memory fullName, string memory SSN, string memory homeAddress, string memory pass, uint8 accountType, string memory phone, address addr, string memory companyCode) public payable returns (bytes32)... */\n    tag_4:\n      tag_17\n      0x04\n      dup1\n      calldatasize\n      sub\n      dup2\n      add\n      swap1\n      tag_18\n      swap2\n      swap1\n      tag_19\n      jump\t// in\n    tag_18:\n      tag_20\n      jump\t// in\n    tag_17:\n      mload(0x40)\n      tag_21\n      swap2\n      swap1\n      tag_22\n      jump\t// in\n    tag_21:\n      mload(0x40)\n      dup1\n      swap2\n      sub\n      swap1\n      return\n        /* \"auth.sol\":5586:5779  function authenthicate(bytes32 UID, string memory pass) public view returns(bool) {... */\n    tag_5:\n      callvalue\n      dup1\n      iszero\n      tag_23\n      jumpi\n      0x00\n      dup1\n      revert\n    tag_23:\n      pop\n      tag_24\n      0x04\n      dup1\n      calldatasize\n      sub\n      dup2\n      add\n      swap1\n      tag_25\n      swap2\n      swap1\n      tag_9\n      jump\t// in\n    tag_25:\n      tag_26\n      jump\t// in\n    tag_24:\n      mload(0x40)\n      tag_27\n      swap2\n      swap1\n      tag_28\n      jump\t// in\n    tag_27:\n      mload(0x40)\n      dup1\n      swap2\n      sub\n      swap1\n      return\n        /* \"auth.sol\":2814:4826  function getUser(bytes32 UID, string memory pass) public view returns(person memory)... */\n    tag_10:\n        /* \"auth.sol\":2884:2897  person memory */\n      tag_29\n      tag_30\n      jump\t// in\n    tag_29:\n        /* \"auth.sol\":2913:2941  person memory censoredPerson */\n      tag_32\n      tag_30\n      jump\t// in\n    tag_32:\n        /* \"auth.sol\":2986:2996  msg.sender */\n      caller\n        /* \"auth.sol\":2957:2996  persons[UID].blockAccount != msg.sender */\n      0xffffffffffffffffffffffffffffffffffffffff\n      and\n        /* \"auth.sol\":2957:2964  persons */\n      0x01\n        /* \"auth.sol\":2957:2969  persons[UID] */\n      0x00\n        /* \"auth.sol\":2965:2968  UID */\n      dup7\n        /* \"auth.sol\":2957:2969  persons[UID] */\n      dup2\n      mstore\n      0x20\n      add\n      swap1\n      dup2\n      mstore\n      0x20\n      add\n      0x00\n      keccak256\n        /* \"auth.sol\":2957:2982  persons[UID].blockAccount */\n      0x07\n      add\n      0x00\n      swap1\n      sload\n      swap1\n      0x0100\n      exp\n      swap1\n      div\n      0xffffffffffffffffffffffffffffffffffffffff\n      and\n        /* \"auth.sol\":2957:2996  persons[UID].blockAccount != msg.sender */\n      0xffffffffffffffffffffffffffffffffffffffff\n      and\n      eq\n        /* \"auth.sol\":2953:4135  if (persons[UID].blockAccount != msg.sender)... */\n      tag_33\n      jumpi\n        /* \"auth.sol\":3037:3435  person({... */\n      mload(0x40)\n      dup1\n      0x0120\n      add\n      0x40\n      mstore\n      dup1\n      mload(0x40)\n      dup1\n      0x40\n      add\n      0x40\n      mstore\n      dup1\n      0x0b\n      dup2\n      mstore\n      0x20\n      add\n      0x2a2a2a2a2a2a2a2a2a2a2a000000000000000000000000000000000000000000\n      dup2\n      mstore\n      pop\n      dup2\n      mstore\n      0x20\n      add\n      mload(0x40)\n      dup1\n      0x40\n      add\n      0x40\n      mstore\n      dup1\n      0x06\n      dup2\n      mstore\n      0x20\n      add\n      0x2a2a2a2a2a2a0000000000000000000000000000000000000000000000000000\n      dup2\n      mstore\n      pop\n      dup2\n      mstore\n      0x20\n      add\n      mload(0x40)\n      dup1\n      0x40\n      add\n      0x40\n      mstore\n      dup1\n      0x0a\n      dup2\n      mstore\n      0x20\n      add\n      0x2a2a2a2a2a2a2a2a2a2a00000000000000000000000000000000000000000000\n      dup2\n      mstore\n      pop\n      dup2\n      mstore\n      0x20\n      add\n      mload(0x40)\n      dup1\n      0x40\n      add\n      0x40\n      mstore\n      dup1\n      0x07\n      dup2\n      mstore\n      0x20\n      add\n      0x2a2a2a2a2a2a2a00000000000000000000000000000000000000000000000000\n      dup2\n      mstore\n      pop\n      dup2\n      mstore\n      0x20\n      add\n      mload(0x40)\n      dup1\n      0x40\n      add\n      0x40\n      mstore\n      dup1\n      0x08\n      dup2\n      mstore\n      0x20\n      add\n      0x2a2a2a2a2a2a2a2a000000000000000000000000000000000000000000000000\n      dup2\n      mstore\n      pop\n      dup2\n      mstore\n      0x20\n      add\n        /* \"auth.sol\":3259:3266  persons */\n      0x01\n        /* \"auth.sol\":3259:3271  persons[UID] */\n      0x00\n        /* \"auth.sol\":3267:3270  UID */\n      dup8\n        /* \"auth.sol\":3259:3271  persons[UID] */\n      dup2\n      mstore\n      0x20\n      add\n      swap1\n      dup2\n      mstore\n      0x20\n      add\n      0x00\n      keccak256\n        /* \"auth.sol\":3259:3283  persons[UID].accountType */\n      0x05\n      add\n      0x00\n      swap1\n      sload\n      swap1\n      0x0100\n      exp\n      swap1\n      div\n      0xff\n      and\n        /* \"auth.sol\":3037:3435  person({... */\n      0xff\n      and\n      dup2\n      mstore\n      0x20\n      add\n        /* \"auth.sol\":3396:3403  persons */\n      0x01\n        /* \"auth.sol\":3396:3408  persons[UID] */\n      0x00\n        /* \"auth.sol\":3404:3407  UID */\n      dup8\n        /* \"auth.sol\":3396:3408  persons[UID] */\n      dup2\n      mstore\n      0x20\n      add\n      swap1\n      dup2\n      mstore\n      0x20\n      add\n      0x00\n      keccak256\n        /* \"auth.sol\":3396:3420  persons[UID].companyCode */\n      0x06\n      add\n        /* \"auth.sol\":3037:3435  person({... */\n      dup1\n      sload\n      tag_34\n      swap1\n      tag_35\n      jump\t// in\n    tag_34:\n      dup1\n      0x1f\n      add\n      0x20\n      dup1\n      swap2\n      div\n      mul\n      0x20\n      add\n      mload(0x40)\n      swap1\n      dup2\n      add\n      0x40\n      mstore\n      dup1\n      swap3\n      swap2\n      swap1\n      dup2\n      dup2\n      mstore\n      0x20\n      add\n      dup3\n      dup1\n      sload\n      tag_36\n      swap1\n      tag_35\n      jump\t// in\n    tag_36:\n      dup1\n      iszero\n      tag_37\n      jumpi\n      dup1\n      0x1f\n      lt\n      tag_38\n      jumpi\n      0x0100\n      dup1\n      dup4\n      sload\n      div\n      mul\n      dup4\n      mstore\n      swap2\n      0x20\n      add\n      swap2\n      jump(tag_37)\n    tag_38:\n      dup3\n      add\n      swap2\n      swap1\n      0x00\n      mstore\n      keccak256(0x00, 0x20)\n      swap1\n    tag_39:\n      dup2\n      sload\n      dup2\n      mstore\n      swap1\n      0x01\n      add\n      swap1\n      0x20\n      add\n      dup1\n      dup4\n      gt\n      tag_39\n      jumpi\n      dup3\n      swap1\n      sub\n      0x1f\n      and\n      dup3\n      add\n      swap2\n    tag_37:\n      pop\n      pop\n      pop\n      pop\n      pop\n      dup2\n      mstore\n      0x20\n      add\n        /* \"auth.sol\":3314:3324  msg.sender */\n      caller\n        /* \"auth.sol\":3037:3435  person({... */\n      0xffffffffffffffffffffffffffffffffffffffff\n      and\n      dup2\n      mstore\n      0x20\n      add\n        /* \"auth.sol\":3348:3355  persons */\n      0x01\n        /* \"auth.sol\":3348:3360  persons[UID] */\n      0x00\n        /* \"auth.sol\":3356:3359  UID */\n      dup8\n        /* \"auth.sol\":3348:3360  persons[UID] */\n      dup2\n      mstore\n      0x20\n      add\n      swap1\n      dup2\n      mstore\n      0x20\n      add\n      0x00\n      keccak256\n        /* \"auth.sol\":3348:3364  persons[UID].UID */\n      0x08\n      add\n      sload\n        /* \"auth.sol\":3037:3435  person({... */\n      dup2\n      mstore\n      pop\n        /* \"auth.sol\":3020:3435  censoredPerson = person({... */\n      swap1\n      pop\n        /* \"auth.sol\":2953:4135  if (persons[UID].blockAccount != msg.sender)... */\n      jump(tag_40)\n    tag_33:\n        /* \"auth.sol\":3499:4113  person({... */\n      mload(0x40)\n      dup1\n      0x0120\n      add\n      0x40\n      mstore\n      dup1\n        /* \"auth.sol\":3542:3548  cypher */\n      linkerSymbol(\"0394c467ed0fdd19c4eccf25096e0ad40f7a8f3a2ecaa74fa8ac0ce31535a80b\")\n        /* \"auth.sol\":3542:3556  cypher.encrypt */\n      0x015cfec7\n        /* \"auth.sol\":3563:3570  persons */\n      0x01\n        /* \"auth.sol\":3563:3575  persons[UID] */\n      0x00\n        /* \"auth.sol\":3571:3574  UID */\n      dup10\n        /* \"auth.sol\":3563:3575  persons[UID] */\n      dup2\n      mstore\n      0x20\n      add\n      swap1\n      dup2\n      mstore\n      0x20\n      add\n      0x00\n      keccak256\n        /* \"auth.sol\":3563:3584  persons[UID].fullName */\n      0x00\n      add\n        /* \"auth.sol\":3593:3597  pass */\n      dup8\n        /* \"auth.sol\":3542:3599  cypher.encrypt(bytes(persons[UID].fullName), bytes(pass)) */\n      mload(0x40)\n      dup4\n      0xffffffff\n      and\n      0xe0\n      shl\n      dup2\n      mstore\n      0x04\n      add\n      tag_41\n      swap3\n      swap2\n      swap1\n      tag_42\n      jump\t// in\n    tag_41:\n      0x00\n      mload(0x40)\n      dup1\n      dup4\n      sub\n      dup2\n      dup7\n      gas\n      delegatecall\n      iszero\n      dup1\n      iszero\n      tag_44\n      jumpi\n      returndatasize\n      0x00\n      dup1\n      returndatacopy\n      revert(0x00, returndatasize)\n    tag_44:\n      pop\n      pop\n      pop\n      pop\n      mload(0x40)\n      returndatasize\n      0x00\n      dup3\n      returndatacopy\n      returndatasize\n      not(0x1f)\n      0x1f\n      dup3\n      add\n      and\n      dup3\n      add\n      dup1\n      0x40\n      mstore\n      pop\n      dup2\n      add\n      swap1\n      tag_45\n      swap2\n      swap1\n      tag_46\n      jump\t// in\n    tag_45:\n        /* \"auth.sol\":3499:4113  person({... */\n      dup2\n      mstore\n      0x20\n      add\n        /* \"auth.sol\":3631:3637  cypher */\n      linkerSymbol(\"0394c467ed0fdd19c4eccf25096e0ad40f7a8f3a2ecaa74fa8ac0ce31535a80b\")\n        /* \"auth.sol\":3631:3645  cypher.encrypt */\n      0x015cfec7\n        /* \"auth.sol\":3652:3659  persons */\n      0x01\n        /* \"auth.sol\":3652:3664  persons[UID] */\n      0x00\n        /* \"auth.sol\":3660:3663  UID */\n      dup10\n        /* \"auth.sol\":3652:3664  persons[UID] */\n      dup2\n      mstore\n      0x20\n      add\n      swap1\n      dup2\n      mstore\n      0x20\n      add\n      0x00\n      keccak256\n        /* \"auth.sol\":3652:3668  persons[UID].SSN */\n      0x01\n      add\n        /* \"auth.sol\":3677:3681  pass */\n      dup8\n        /* \"auth.sol\":3631:3683  cypher.encrypt(bytes(persons[UID].SSN), bytes(pass)) */\n      mload(0x40)\n      dup4\n      0xffffffff\n      and\n      0xe0\n      shl\n      dup2\n      mstore\n      0x04\n      add\n      tag_47\n      swap3\n      swap2\n      swap1\n      tag_42\n      jump\t// in\n    tag_47:\n      0x00\n      mload(0x40)\n      dup1\n      dup4\n      sub\n      dup2\n      dup7\n      gas\n      delegatecall\n      iszero\n      dup1\n      iszero\n      tag_49\n      jumpi\n      returndatasize\n      0x00\n      dup1\n      returndatacopy\n      revert(0x00, returndatasize)\n    tag_49:\n      pop\n      pop\n      pop\n      pop\n      mload(0x40)\n      returndatasize\n      0x00\n      dup3\n      returndatacopy\n      returndatasize\n      not(0x1f)\n      0x1f\n      dup3\n      add\n      and\n      dup3\n      add\n      dup1\n      0x40\n      mstore\n      pop\n      dup2\n      add\n      swap1\n      tag_50\n      swap2\n      swap1\n      tag_46\n      jump\t// in\n    tag_50:\n        /* \"auth.sol\":3499:4113  person({... */\n      dup2\n      mstore\n      0x20\n      add\n        /* \"auth.sol\":3723:3729  cypher */\n      linkerSymbol(\"0394c467ed0fdd19c4eccf25096e0ad40f7a8f3a2ecaa74fa8ac0ce31535a80b\")\n        /* \"auth.sol\":3723:3737  cypher.encrypt */\n      0x015cfec7\n        /* \"auth.sol\":3744:3751  persons */\n      0x01\n        /* \"auth.sol\":3744:3756  persons[UID] */\n      0x00\n        /* \"auth.sol\":3752:3755  UID */\n      dup10\n        /* \"auth.sol\":3744:3756  persons[UID] */\n      dup2\n      mstore\n      0x20\n      add\n      swap1\n      dup2\n      mstore\n      0x20\n      add\n      0x00\n      keccak256\n        /* \"auth.sol\":3744:3768  persons[UID].homeAddress */\n      0x02\n      add\n        /* \"auth.sol\":3777:3781  pass */\n      dup8\n        /* \"auth.sol\":3723:3783  cypher.encrypt(bytes(persons[UID].homeAddress), bytes(pass)) */\n      mload(0x40)\n      dup4\n      0xffffffff\n      and\n      0xe0\n      shl\n      dup2\n      mstore\n      0x04\n      add\n      tag_51\n      swap3\n      swap2\n      swap1\n      tag_42\n      jump\t// in\n    tag_51:\n      0x00\n      mload(0x40)\n      dup1\n      dup4\n      sub\n      dup2\n      dup7\n      gas\n      delegatecall\n      iszero\n      dup1\n      iszero\n      tag_53\n      jumpi\n      returndatasize\n      0x00\n      dup1\n      returndatacopy\n      revert(0x00, returndatasize)\n    tag_53:\n      pop\n      pop\n      pop\n      pop\n      mload(0x40)\n      returndatasize\n      0x00\n      dup3\n      returndatacopy\n      returndatasize\n      not(0x1f)\n      0x1f\n      dup3\n      add\n      and\n      dup3\n      add\n      dup1\n      0x40\n      mstore\n      pop\n      dup2\n      add\n      swap1\n      tag_54\n      swap2\n      swap1\n      tag_46\n      jump\t// in\n    tag_54:\n        /* \"auth.sol\":3499:4113  person({... */\n      dup2\n      mstore\n      0x20\n      add\n      mload(0x40)\n      dup1\n      0x40\n      add\n      0x40\n      mstore\n      dup1\n      0x05\n      dup2\n      mstore\n      0x20\n      add\n      0x2a2a2a2a2a000000000000000000000000000000000000000000000000000000\n      dup2\n      mstore\n      pop\n      dup2\n      mstore\n      0x20\n      add\n        /* \"auth.sol\":3849:3855  cypher */\n      linkerSymbol(\"0394c467ed0fdd19c4eccf25096e0ad40f7a8f3a2ecaa74fa8ac0ce31535a80b\")\n        /* \"auth.sol\":3849:3863  cypher.encrypt */\n      0x015cfec7\n        /* \"auth.sol\":3870:3877  persons */\n      0x01\n        /* \"auth.sol\":3870:3882  persons[UID] */\n      0x00\n        /* \"auth.sol\":3878:3881  UID */\n      dup10\n        /* \"auth.sol\":3870:3882  persons[UID] */\n      dup2\n      mstore\n      0x20\n      add\n      swap1\n      dup2\n      mstore\n      0x20\n      add\n      0x00\n      keccak256\n        /* \"auth.sol\":3870:3888  persons[UID].phone */\n      0x04\n      add\n        /* \"auth.sol\":3897:3901  pass */\n      dup8\n        /* \"auth.sol\":3849:3903  cypher.encrypt(bytes(persons[UID].phone), bytes(pass)) */\n      mload(0x40)\n      dup4\n      0xffffffff\n      and\n      0xe0\n      shl\n      dup2\n      mstore\n      0x04\n      add\n      tag_55\n      swap3\n      swap2\n      swap1\n      tag_42\n      jump\t// in\n    tag_55:\n      0x00\n      mload(0x40)\n      dup1\n      dup4\n      sub\n      dup2\n      dup7\n      gas\n      delegatecall\n      iszero\n      dup1\n      iszero\n      tag_57\n      jumpi\n      returndatasize\n      0x00\n      dup1\n      returndatacopy\n      revert(0x00, returndatasize)\n    tag_57:\n      pop\n      pop\n      pop\n      pop\n      mload(0x40)\n      returndatasize\n      0x00\n      dup3\n      returndatacopy\n      returndatasize\n      not(0x1f)\n      0x1f\n      dup3\n      add\n      and\n      dup3\n      add\n      dup1\n      0x40\n      mstore\n      pop\n      dup2\n      add\n      swap1\n      tag_58\n      swap2\n      swap1\n      tag_46\n      jump\t// in\n    tag_58:\n        /* \"auth.sol\":3499:4113  person({... */\n      dup2\n      mstore\n      0x20\n      add\n        /* \"auth.sol\":3935:3942  persons */\n      0x01\n        /* \"auth.sol\":3935:3947  persons[UID] */\n      0x00\n        /* \"auth.sol\":3943:3946  UID */\n      dup8\n        /* \"auth.sol\":3935:3947  persons[UID] */\n      dup2\n      mstore\n      0x20\n      add\n      swap1\n      dup2\n      mstore\n      0x20\n      add\n      0x00\n      keccak256\n        /* \"auth.sol\":3935:3959  persons[UID].accountType */\n      0x05\n      add\n      0x00\n      swap1\n      sload\n      swap1\n      0x0100\n      exp\n      swap1\n      div\n      0xff\n      and\n        /* \"auth.sol\":3499:4113  person({... */\n      0xff\n      and\n      dup2\n      mstore\n      0x20\n      add\n        /* \"auth.sol\":4074:4081  persons */\n      0x01\n        /* \"auth.sol\":4074:4086  persons[UID] */\n      0x00\n        /* \"auth.sol\":4082:4085  UID */\n      dup8\n        /* \"auth.sol\":4074:4086  persons[UID] */\n      dup2\n      mstore\n      0x20\n      add\n      swap1\n      dup2\n      mstore\n      0x20\n      add\n      0x00\n      keccak256\n        /* \"auth.sol\":4074:4098  persons[UID].companyCode */\n      0x06\n      add\n        /* \"auth.sol\":3499:4113  person({... */\n      dup1\n      sload\n      tag_59\n      swap1\n      tag_35\n      jump\t// in\n    tag_59:\n      dup1\n      0x1f\n      add\n      0x20\n      dup1\n      swap2\n      div\n      mul\n      0x20\n      add\n      mload(0x40)\n      swap1\n      dup2\n      add\n      0x40\n      mstore\n      dup1\n      swap3\n      swap2\n      swap1\n      dup2\n      dup2\n      mstore\n      0x20\n      add\n      dup3\n      dup1\n      sload\n      tag_60\n      swap1\n      tag_35\n      jump\t// in\n    tag_60:\n      dup1\n      iszero\n      tag_61\n      jumpi\n      dup1\n      0x1f\n      lt\n      tag_62\n      jumpi\n      0x0100\n      dup1\n      dup4\n      sload\n      div\n      mul\n      dup4\n      mstore\n      swap2\n      0x20\n      add\n      swap2\n      jump(tag_61)\n    tag_62:\n      dup3\n      add\n      swap2\n      swap1\n      0x00\n      mstore\n      keccak256(0x00, 0x20)\n      swap1\n    tag_63:\n      dup2\n      sload\n      dup2\n      mstore\n      swap1\n      0x01\n      add\n      swap1\n      0x20\n      add\n      dup1\n      dup4\n      gt\n      tag_63\n      jumpi\n      dup3\n      swap1\n      sub\n      0x1f\n      and\n      dup3\n      add\n      swap2\n    tag_61:\n      pop\n      pop\n      pop\n      pop\n      pop\n      dup2\n      mstore\n      0x20\n      add\n        /* \"auth.sol\":3992:3999  persons */\n      0x01\n        /* \"auth.sol\":3992:4004  persons[UID] */\n      0x00\n        /* \"auth.sol\":4000:4003  UID */\n      dup8\n        /* \"auth.sol\":3992:4004  persons[UID] */\n      dup2\n      mstore\n      0x20\n      add\n      swap1\n      dup2\n      mstore\n      0x20\n      add\n      0x00\n      keccak256\n        /* \"auth.sol\":3992:4017  persons[UID].blockAccount */\n      0x07\n      add\n      0x00\n      swap1\n      sload\n      swap1\n      0x0100\n      exp\n      swap1\n      div\n      0xffffffffffffffffffffffffffffffffffffffff\n      and\n        /* \"auth.sol\":3499:4113  person({... */\n      0xffffffffffffffffffffffffffffffffffffffff\n      and\n      dup2\n      mstore\n      0x20\n      add\n        /* \"auth.sol\":4040:4043  UID */\n      dup6\n        /* \"auth.sol\":3499:4113  person({... */\n      dup2\n      mstore\n      pop\n        /* \"auth.sol\":3482:4113  censoredPerson = person({... */\n      swap1\n      pop\n        /* \"auth.sol\":2953:4135  if (persons[UID].blockAccount != msg.sender)... */\n    tag_40:\n        /* \"auth.sol\":4176:4177  0 */\n      0x00\n        /* \"auth.sol\":4149:4156  persons */\n      0x01\n        /* \"auth.sol\":4149:4161  persons[UID] */\n      0x00\n        /* \"auth.sol\":4157:4160  UID */\n      dup7\n        /* \"auth.sol\":4149:4161  persons[UID] */\n      dup2\n      mstore\n      0x20\n      add\n      swap1\n      dup2\n      mstore\n      0x20\n      add\n      0x00\n      keccak256\n        /* \"auth.sol\":4149:4173  persons[UID].accountType */\n      0x05\n      add\n      0x00\n      swap1\n      sload\n      swap1\n      0x0100\n      exp\n      swap1\n      div\n      0xff\n      and\n        /* \"auth.sol\":4149:4177  persons[UID].accountType > 0 */\n      0xff\n      and\n      gt\n        /* \"auth.sol\":4145:4677  if (persons[UID].accountType > 0)... */\n      iszero\n      tag_64\n      jumpi\n        /* \"auth.sol\":4218:4666  person({... */\n      mload(0x40)\n      dup1\n      0x0120\n      add\n      0x40\n      mstore\n      dup1\n        /* \"auth.sol\":4253:4260  persons */\n      0x01\n        /* \"auth.sol\":4253:4265  persons[UID] */\n      0x00\n        /* \"auth.sol\":4261:4264  UID */\n      dup8\n        /* \"auth.sol\":4253:4265  persons[UID] */\n      dup2\n      mstore\n      0x20\n      add\n      swap1\n      dup2\n      mstore\n      0x20\n      add\n      0x00\n      keccak256\n        /* \"auth.sol\":4253:4274  persons[UID].fullName */\n      0x00\n      add\n        /* \"auth.sol\":4218:4666  person({... */\n      dup1\n      sload\n      tag_65\n      swap1\n      tag_35\n      jump\t// in\n    tag_65:\n      dup1\n      0x1f\n      add\n      0x20\n      dup1\n      swap2\n      div\n      mul\n      0x20\n      add\n      mload(0x40)\n      swap1\n      dup2\n      add\n      0x40\n      mstore\n      dup1\n      swap3\n      swap2\n      swap1\n      dup2\n      dup2\n      mstore\n      0x20\n      add\n      dup3\n      dup1\n      sload\n      tag_66\n      swap1\n      tag_35\n      jump\t// in\n    tag_66:\n      dup1\n      iszero\n      tag_67\n      jumpi\n      dup1\n      0x1f\n      lt\n      tag_68\n      jumpi\n      0x0100\n      dup1\n      dup4\n      sload\n      div\n      mul\n      dup4\n      mstore\n      swap2\n      0x20\n      add\n      swap2\n      jump(tag_67)\n    tag_68:\n      dup3\n      add\n      swap2\n      swap1\n      0x00\n      mstore\n      keccak256(0x00, 0x20)\n      swap1\n    tag_69:\n      dup2\n      sload\n      dup2\n      mstore\n      swap1\n      0x01\n      add\n      swap1\n      0x20\n      add\n      dup1\n      dup4\n      gt\n      tag_69\n      jumpi\n      dup3\n      swap1\n      sub\n      0x1f\n      and\n      dup3\n      add\n      swap2\n    tag_67:\n      pop\n      pop\n      pop\n      pop\n      pop\n      dup2\n      mstore\n      0x20\n      add\n        /* \"auth.sol\":4298:4305  persons */\n      0x01\n        /* \"auth.sol\":4298:4310  persons[UID] */\n      0x00\n        /* \"auth.sol\":4306:4309  UID */\n      dup8\n        /* \"auth.sol\":4298:4310  persons[UID] */\n      dup2\n      mstore\n      0x20\n      add\n      swap1\n      dup2\n      mstore\n      0x20\n      add\n      0x00\n      keccak256\n        /* \"auth.sol\":4298:4314  persons[UID].SSN */\n      0x01\n      add\n        /* \"auth.sol\":4218:4666  person({... */\n      dup1\n      sload\n      tag_70\n      swap1\n      tag_35\n      jump\t// in\n    tag_70:\n      dup1\n      0x1f\n      add\n      0x20\n      dup1\n      swap2\n      div\n      mul\n      0x20\n      add\n      mload(0x40)\n      swap1\n      dup2\n      add\n      0x40\n      mstore\n      dup1\n      swap3\n      swap2\n      swap1\n      dup2\n      dup2\n      mstore\n      0x20\n      add\n      dup3\n      dup1\n      sload\n      tag_71\n      swap1\n      tag_35\n      jump\t// in\n    tag_71:\n      dup1\n      iszero\n      tag_72\n      jumpi\n      dup1\n      0x1f\n      lt\n      tag_73\n      jumpi\n      0x0100\n      dup1\n      dup4\n      sload\n      div\n      mul\n      dup4\n      mstore\n      swap2\n      0x20\n      add\n      swap2\n      jump(tag_72)\n    tag_73:\n      dup3\n      add\n      swap2\n      swap1\n      0x00\n      mstore\n      keccak256(0x00, 0x20)\n      swap1\n    tag_74:\n      dup2\n      sload\n      dup2\n      mstore\n      swap1\n      0x01\n      add\n      swap1\n      0x20\n      add\n      dup1\n      dup4\n      gt\n      tag_74\n      jumpi\n      dup3\n      swap1\n      sub\n      0x1f\n      and\n      dup3\n      add\n      swap2\n    tag_72:\n      pop\n      pop\n      pop\n      pop\n      pop\n      dup2\n      mstore\n      0x20\n      add\n        /* \"auth.sol\":4345:4352  persons */\n      0x01\n        /* \"auth.sol\":4345:4357  persons[UID] */\n      0x00\n        /* \"auth.sol\":4353:4356  UID */\n      dup8\n        /* \"auth.sol\":4345:4357  persons[UID] */\n      dup2\n      mstore\n      0x20\n      add\n      swap1\n      dup2\n      mstore\n      0x20\n      add\n      0x00\n      keccak256\n        /* \"auth.sol\":4345:4369  persons[UID].homeAddress */\n      0x02\n      add\n        /* \"auth.sol\":4218:4666  person({... */\n      dup1\n      sload\n      tag_75\n      swap1\n      tag_35\n      jump\t// in\n    tag_75:\n      dup1\n      0x1f\n      add\n      0x20\n      dup1\n      swap2\n      div\n      mul\n      0x20\n      add\n      mload(0x40)\n      swap1\n      dup2\n      add\n      0x40\n      mstore\n      dup1\n      swap3\n      swap2\n      swap1\n      dup2\n      dup2\n      mstore\n      0x20\n      add\n      dup3\n      dup1\n      sload\n      tag_76\n      swap1\n      tag_35\n      jump\t// in\n    tag_76:\n      dup1\n      iszero\n      tag_77\n      jumpi\n      dup1\n      0x1f\n      lt\n      tag_78\n      jumpi\n      0x0100\n      dup1\n      dup4\n      sload\n      div\n      mul\n      dup4\n      mstore\n      swap2\n      0x20\n      add\n      swap2\n      jump(tag_77)\n    tag_78:\n      dup3\n      add\n      swap2\n      swap1\n      0x00\n      mstore\n      keccak256(0x00, 0x20)\n      swap1\n    tag_79:\n      dup2\n      sload\n      dup2\n      mstore\n      swap1\n      0x01\n      add\n      swap1\n      0x20\n      add\n      dup1\n      dup4\n      gt\n      tag_79\n      jumpi\n      dup3\n      swap1\n      sub\n      0x1f\n      and\n      dup3\n      add\n      swap2\n    tag_77:\n      pop\n      pop\n      pop\n      pop\n      pop\n      dup2\n      mstore\n      0x20\n      add\n      mload(0x40)\n      dup1\n      0x40\n      add\n      0x40\n      mstore\n      dup1\n      0x07\n      dup2\n      mstore\n      0x20\n      add\n      0x2a2a2a2a2a2a2a00000000000000000000000000000000000000000000000000\n      dup2\n      mstore\n      pop\n      dup2\n      mstore\n      0x20\n      add\n        /* \"auth.sol\":4427:4434  persons */\n      0x01\n        /* \"auth.sol\":4427:4439  persons[UID] */\n      0x00\n        /* \"auth.sol\":4435:4438  UID */\n      dup8\n        /* \"auth.sol\":4427:4439  persons[UID] */\n      dup2\n      mstore\n      0x20\n      add\n      swap1\n      dup2\n      mstore\n      0x20\n      add\n      0x00\n      keccak256\n        /* \"auth.sol\":4427:4445  persons[UID].phone */\n      0x04\n      add\n        /* \"auth.sol\":4218:4666  person({... */\n      dup1\n      sload\n      tag_80\n      swap1\n      tag_35\n      jump\t// in\n    tag_80:\n      dup1\n      0x1f\n      add\n      0x20\n      dup1\n      swap2\n      div\n      mul\n      0x20\n      add\n      mload(0x40)\n      swap1\n      dup2\n      add\n      0x40\n      mstore\n      dup1\n      swap3\n      swap2\n      swap1\n      dup2\n      dup2\n      mstore\n      0x20\n      add\n      dup3\n      dup1\n      sload\n      tag_81\n      swap1\n      tag_35\n      jump\t// in\n    tag_81:\n      dup1\n      iszero\n      tag_82\n      jumpi\n      dup1\n      0x1f\n      lt\n      tag_83\n      jumpi\n      0x0100\n      dup1\n      dup4\n      sload\n      div\n      mul\n      dup4\n      mstore\n      swap2\n      0x20\n      add\n      swap2\n      jump(tag_82)\n    tag_83:\n      dup3\n      add\n      swap2\n      swap1\n      0x00\n      mstore\n      keccak256(0x00, 0x20)\n      swap1\n    tag_84:\n      dup2\n      sload\n      dup2\n      mstore\n      swap1\n      0x01\n      add\n      swap1\n      0x20\n      add\n      dup1\n      dup4\n      gt\n      tag_84\n      jumpi\n      dup3\n      swap1\n      sub\n      0x1f\n      and\n      dup3\n      add\n      swap2\n    tag_82:\n      pop\n      pop\n      pop\n      pop\n      pop\n      dup2\n      mstore\n      0x20\n      add\n        /* \"auth.sol\":4476:4483  persons */\n      0x01\n        /* \"auth.sol\":4476:4488  persons[UID] */\n      0x00\n        /* \"auth.sol\":4484:4487  UID */\n      dup8\n        /* \"auth.sol\":4476:4488  persons[UID] */\n      dup2\n      mstore\n      0x20\n      add\n      swap1\n      dup2\n      mstore\n      0x20\n      add\n      0x00\n      keccak256\n        /* \"auth.sol\":4476:4500  persons[UID].accountType */\n      0x05\n      add\n      0x00\n      swap1\n      sload\n      swap1\n      0x0100\n      exp\n      swap1\n      div\n      0xff\n      and\n        /* \"auth.sol\":4218:4666  person({... */\n      0xff\n      and\n      dup2\n      mstore\n      0x20\n      add\n        /* \"auth.sol\":4627:4634  persons */\n      0x01\n        /* \"auth.sol\":4627:4639  persons[UID] */\n      0x00\n        /* \"auth.sol\":4635:4638  UID */\n      dup8\n        /* \"auth.sol\":4627:4639  persons[UID] */\n      dup2\n      mstore\n      0x20\n      add\n      swap1\n      dup2\n      mstore\n      0x20\n      add\n      0x00\n      keccak256\n        /* \"auth.sol\":4627:4651  persons[UID].companyCode */\n      0x06\n      add\n        /* \"auth.sol\":4218:4666  person({... */\n      dup1\n      sload\n      tag_85\n      swap1\n      tag_35\n      jump\t// in\n    tag_85:\n      dup1\n      0x1f\n      add\n      0x20\n      dup1\n      swap2\n      div\n      mul\n      0x20\n      add\n      mload(0x40)\n      swap1\n      dup2\n      add\n      0x40\n      mstore\n      dup1\n      swap3\n      swap2\n      swap1\n      dup2\n      dup2\n      mstore\n      0x20\n      add\n      dup3\n      dup1\n      sload\n      tag_86\n      swap1\n      tag_35\n      jump\t// in\n    tag_86:\n      dup1\n      iszero\n      tag_87\n      jumpi\n      dup1\n      0x1f\n      lt\n      tag_88\n      jumpi\n      0x0100\n      dup1\n      dup4\n      sload\n      div\n      mul\n      dup4\n      mstore\n      swap2\n      0x20\n      add\n      swap2\n      jump(tag_87)\n    tag_88:\n      dup3\n      add\n      swap2\n      swap1\n      0x00\n      mstore\n      keccak256(0x00, 0x20)\n      swap1\n    tag_89:\n      dup2\n      sload\n      dup2\n      mstore\n      swap1\n      0x01\n      add\n      swap1\n      0x20\n      add\n      dup1\n      dup4\n      gt\n      tag_89\n      jumpi\n      dup3\n      swap1\n      sub\n      0x1f\n      and\n      dup3\n      add\n      swap2\n    tag_87:\n      pop\n      pop\n      pop\n      pop\n      pop\n      dup2\n      mstore\n      0x20\n      add\n        /* \"auth.sol\":4531:4538  persons */\n      0x01\n        /* \"auth.sol\":4531:4543  persons[UID] */\n      0x00\n        /* \"auth.sol\":4539:4542  UID */\n      dup8\n        /* \"auth.sol\":4531:4543  persons[UID] */\n      dup2\n      mstore\n      0x20\n      add\n      swap1\n      dup2\n      mstore\n      0x20\n      add\n      0x00\n      keccak256\n        /* \"auth.sol\":4531:4556  persons[UID].blockAccount */\n      0x07\n      add\n      0x00\n      swap1\n      sload\n      swap1\n      0x0100\n      exp\n      swap1\n      div\n      0xffffffffffffffffffffffffffffffffffffffff\n      and\n        /* \"auth.sol\":4218:4666  person({... */\n      0xffffffffffffffffffffffffffffffffffffffff\n      and\n      dup2\n      mstore\n      0x20\n      add\n        /* \"auth.sol\":4580:4587  persons */\n      0x01\n        /* \"auth.sol\":4580:4592  persons[UID] */\n      0x00\n        /* \"auth.sol\":4588:4591  UID */\n      dup8\n        /* \"auth.sol\":4580:4592  persons[UID] */\n      dup2\n      mstore\n      0x20\n      add\n      swap1\n      dup2\n      mstore\n      0x20\n      add\n      0x00\n      keccak256\n        /* \"auth.sol\":4580:4596  persons[UID].UID */\n      0x08\n      add\n      sload\n        /* \"auth.sol\":4218:4666  person({... */\n      dup2\n      mstore\n      pop\n        /* \"auth.sol\":4201:4666  censoredPerson = person({... */\n      swap1\n      pop\n        /* \"auth.sol\":4145:4677  if (persons[UID].accountType > 0)... */\n    tag_64:\n        /* \"auth.sol\":4691:4715  authenthicate(UID, pass) */\n      tag_90\n        /* \"auth.sol\":4705:4708  UID */\n      dup5\n        /* \"auth.sol\":4710:4714  pass */\n      dup5\n        /* \"auth.sol\":4691:4704  authenthicate */\n      tag_26\n        /* \"auth.sol\":4691:4715  authenthicate(UID, pass) */\n      jump\t// in\n    tag_90:\n        /* \"auth.sol\":4687:4789  if (authenthicate(UID, pass))... */\n      iszero\n      tag_91\n      jumpi\n        /* \"auth.sol\":4761:4768  persons */\n      0x01\n        /* \"auth.sol\":4761:4773  persons[UID] */\n      0x00\n        /* \"auth.sol\":4769:4772  UID */\n      dup6\n        /* \"auth.sol\":4761:4773  persons[UID] */\n      dup2\n      mstore\n      0x20\n      add\n      swap1\n      dup2\n      mstore\n      0x20\n      add\n      0x00\n      keccak256\n        /* \"auth.sol\":4761:4778  persons[UID].pass */\n      0x03\n      add\n        /* \"auth.sol\":4739:4778  censoredPerson.pass = persons[UID].pass */\n      dup1\n      sload\n      tag_92\n      swap1\n      tag_35\n      jump\t// in\n    tag_92:\n      dup1\n      0x1f\n      add\n      0x20\n      dup1\n      swap2\n      div\n      mul\n      0x20\n      add\n      mload(0x40)\n      swap1\n      dup2\n      add\n      0x40\n      mstore\n      dup1\n      swap3\n      swap2\n      swap1\n      dup2\n      dup2\n      mstore\n      0x20\n      add\n      dup3\n      dup1\n      sload\n      tag_93\n      swap1\n      tag_35\n      jump\t// in\n    tag_93:\n      dup1\n      iszero\n      tag_94\n      jumpi\n      dup1\n      0x1f\n      lt\n      tag_95\n      jumpi\n      0x0100\n      dup1\n      dup4\n      sload\n      div\n      mul\n      dup4\n      mstore\n      swap2\n      0x20\n      add\n      swap2\n      jump(tag_94)\n    tag_95:\n      dup3\n      add\n      swap2\n      swap1\n      0x00\n      mstore\n      keccak256(0x00, 0x20)\n      swap1\n    tag_96:\n      dup2\n      sload\n      dup2\n      mstore\n      swap1\n      0x01\n      add\n      swap1\n      0x20\n      add\n      dup1\n      dup4\n      gt\n      tag_96\n      jumpi\n      dup3\n      swap1\n      sub\n      0x1f\n      and\n      dup3\n      add\n      swap2\n    tag_94:\n      pop\n      pop\n      pop\n      pop\n      pop\n        /* \"auth.sol\":4739:4753  censoredPerson */\n      dup2\n        /* \"auth.sol\":4739:4758  censoredPerson.pass */\n      0x60\n      add\n        /* \"auth.sol\":4739:4778  censoredPerson.pass = persons[UID].pass */\n      dup2\n      swap1\n      mstore\n      pop\n        /* \"auth.sol\":4687:4789  if (authenthicate(UID, pass))... */\n    tag_91:\n        /* \"auth.sol\":4805:4819  censoredPerson */\n      dup1\n        /* \"auth.sol\":4798:4819  return censoredPerson */\n      swap2\n      pop\n      pop\n        /* \"auth.sol\":2814:4826  function getUser(bytes32 UID, string memory pass) public view returns(person memory)... */\n      swap3\n      swap2\n      pop\n      pop\n      jump\t// out\n        /* \"auth.sol\":4832:5394  function editUser(bytes32 UID, string memory fullName, string memory homeAddress, string memory phone, address blockAccount, string memory companyCode, string memory pass) public payable... */\n    tag_16:\n        /* \"auth.sol\":5068:5078  msg.sender */\n      caller\n        /* \"auth.sol\":5039:5078  persons[UID].blockAccount != msg.sender */\n      0xffffffffffffffffffffffffffffffffffffffff\n      and\n        /* \"auth.sol\":5039:5046  persons */\n      0x01\n        /* \"auth.sol\":5039:5051  persons[UID] */\n      0x00\n        /* \"auth.sol\":5047:5050  UID */\n      dup10\n        /* \"auth.sol\":5039:5051  persons[UID] */\n      dup2\n      mstore\n      0x20\n      add\n      swap1\n      dup2\n      mstore\n      0x20\n      add\n      0x00\n      keccak256\n        /* \"auth.sol\":5039:5064  persons[UID].blockAccount */\n      0x07\n      add\n      0x00\n      swap1\n      sload\n      swap1\n      0x0100\n      exp\n      swap1\n      div\n      0xffffffffffffffffffffffffffffffffffffffff\n      and\n        /* \"auth.sol\":5039:5078  persons[UID].blockAccount != msg.sender */\n      0xffffffffffffffffffffffffffffffffffffffff\n      and\n      eq\n      iszero\n        /* \"auth.sol\":5038:5109  (persons[UID].blockAccount != msg.sender) && (authenthicate(UID, pass)) */\n      dup1\n      iszero\n      tag_98\n      jumpi\n      pop\n        /* \"auth.sol\":5084:5108  authenthicate(UID, pass) */\n      tag_99\n        /* \"auth.sol\":5098:5101  UID */\n      dup8\n        /* \"auth.sol\":5103:5107  pass */\n      dup3\n        /* \"auth.sol\":5084:5097  authenthicate */\n      tag_26\n        /* \"auth.sol\":5084:5108  authenthicate(UID, pass) */\n      jump\t// in\n    tag_99:\n        /* \"auth.sol\":5038:5109  (persons[UID].blockAccount != msg.sender) && (authenthicate(UID, pass)) */\n    tag_98:\n        /* \"auth.sol\":5034:5385  if ((persons[UID].blockAccount != msg.sender) && (authenthicate(UID, pass)))    ... */\n      iszero\n      tag_100\n      jumpi\n        /* \"auth.sol\":5163:5171  fullName */\n      dup6\n        /* \"auth.sol\":5139:5146  persons */\n      0x01\n        /* \"auth.sol\":5139:5151  persons[UID] */\n      0x00\n        /* \"auth.sol\":5147:5150  UID */\n      dup10\n        /* \"auth.sol\":5139:5151  persons[UID] */\n      dup2\n      mstore\n      0x20\n      add\n      swap1\n      dup2\n      mstore\n      0x20\n      add\n      0x00\n      keccak256\n        /* \"auth.sol\":5139:5160  persons[UID].fullName */\n      0x00\n      add\n        /* \"auth.sol\":5139:5171  persons[UID].fullName = fullName */\n      swap1\n      dup2\n      tag_101\n      swap2\n      swap1\n      tag_102\n      jump\t// in\n    tag_101:\n      pop\n        /* \"auth.sol\":5213:5224  homeAddress */\n      dup5\n        /* \"auth.sol\":5186:5193  persons */\n      0x01\n        /* \"auth.sol\":5186:5198  persons[UID] */\n      0x00\n        /* \"auth.sol\":5194:5197  UID */\n      dup10\n        /* \"auth.sol\":5186:5198  persons[UID] */\n      dup2\n      mstore\n      0x20\n      add\n      swap1\n      dup2\n      mstore\n      0x20\n      add\n      0x00\n      keccak256\n        /* \"auth.sol\":5186:5210  persons[UID].homeAddress */\n      0x02\n      add\n        /* \"auth.sol\":5186:5224  persons[UID].homeAddress = homeAddress */\n      swap1\n      dup2\n      tag_103\n      swap2\n      swap1\n      tag_102\n      jump\t// in\n    tag_103:\n      pop\n        /* \"auth.sol\":5260:5265  phone */\n      dup4\n        /* \"auth.sol\":5239:5246  persons */\n      0x01\n        /* \"auth.sol\":5239:5251  persons[UID] */\n      0x00\n        /* \"auth.sol\":5247:5250  UID */\n      dup10\n        /* \"auth.sol\":5239:5251  persons[UID] */\n      dup2\n      mstore\n      0x20\n      add\n      swap1\n      dup2\n      mstore\n      0x20\n      add\n      0x00\n      keccak256\n        /* \"auth.sol\":5239:5257  persons[UID].phone */\n      0x04\n      add\n        /* \"auth.sol\":5239:5265  persons[UID].phone = phone */\n      swap1\n      dup2\n      tag_104\n      swap2\n      swap1\n      tag_102\n      jump\t// in\n    tag_104:\n      pop\n        /* \"auth.sol\":5308:5320  blockAccount */\n      dup3\n        /* \"auth.sol\":5280:5287  persons */\n      0x01\n        /* \"auth.sol\":5280:5292  persons[UID] */\n      0x00\n        /* \"auth.sol\":5288:5291  UID */\n      dup10\n        /* \"auth.sol\":5280:5292  persons[UID] */\n      dup2\n      mstore\n      0x20\n      add\n      swap1\n      dup2\n      mstore\n      0x20\n      add\n      0x00\n      keccak256\n        /* \"auth.sol\":5280:5305  persons[UID].blockAccount */\n      0x07\n      add\n      0x00\n        /* \"auth.sol\":5280:5320  persons[UID].blockAccount = blockAccount */\n      0x0100\n      exp\n      dup2\n      sload\n      dup2\n      0xffffffffffffffffffffffffffffffffffffffff\n      mul\n      not\n      and\n      swap1\n      dup4\n      0xffffffffffffffffffffffffffffffffffffffff\n      and\n      mul\n      or\n      swap1\n      sstore\n      pop\n        /* \"auth.sol\":5362:5373  companyCode */\n      dup2\n        /* \"auth.sol\":5335:5342  persons */\n      0x01\n        /* \"auth.sol\":5335:5347  persons[UID] */\n      0x00\n        /* \"auth.sol\":5343:5346  UID */\n      dup10\n        /* \"auth.sol\":5335:5347  persons[UID] */\n      dup2\n      mstore\n      0x20\n      add\n      swap1\n      dup2\n      mstore\n      0x20\n      add\n      0x00\n      keccak256\n        /* \"auth.sol\":5335:5359  persons[UID].companyCode */\n      0x06\n      add\n        /* \"auth.sol\":5335:5373  persons[UID].companyCode = companyCode */\n      swap1\n      dup2\n      tag_105\n      swap2\n      swap1\n      tag_102\n      jump\t// in\n    tag_105:\n      pop\n        /* \"auth.sol\":5034:5385  if ((persons[UID].blockAccount != msg.sender) && (authenthicate(UID, pass)))    ... */\n    tag_100:\n        /* \"auth.sol\":4832:5394  function editUser(bytes32 UID, string memory fullName, string memory homeAddress, string memory phone, address blockAccount, string memory companyCode, string memory pass) public payable... */\n      pop\n      pop\n      pop\n      pop\n      pop\n      pop\n      pop\n      jump\t// out\n        /* \"auth.sol\":915:2808  function createAccount(string memory fullName, string memory SSN, string memory homeAddress, string memory pass, uint8 accountType, string memory phone, address addr, string memory companyCode) public payable returns (bytes32)... */\n    tag_20:\n        /* \"auth.sol\":1133:1140  bytes32 */\n      0x00\n        /* \"auth.sol\":1156:1165  isOwner() */\n      tag_107\n        /* \"auth.sol\":1156:1163  isOwner */\n      tag_108\n        /* \"auth.sol\":1156:1165  isOwner() */\n      jump\t// in\n    tag_107:\n        /* \"auth.sol\":1199:1200  5 */\n      0x05\n        /* \"auth.sol\":1184:1195  accountType */\n      dup6\n        /* \"auth.sol\":1184:1200  accountType <= 5 */\n      0xff\n      and\n      gt\n      iszero\n        /* \"auth.sol\":1176:1225  require(accountType <= 5, \"Invalid company type\") */\n      tag_109\n      jumpi\n      mload(0x40)\n      0x08c379a000000000000000000000000000000000000000000000000000000000\n      dup2\n      mstore\n      0x04\n      add\n      tag_110\n      swap1\n      tag_111\n      jump\t// in\n    tag_110:\n      mload(0x40)\n      dup1\n      swap2\n      sub\n      swap1\n      revert\n    tag_109:\n        /* \"auth.sol\":1264:1266  13 */\n      0x0d\n        /* \"auth.sol\":1249:1252  SSN */\n      dup9\n        /* \"auth.sol\":1243:1260  bytes(SSN).length */\n      mload\n        /* \"auth.sol\":1243:1266  bytes(SSN).length == 13 */\n      eq\n        /* \"auth.sol\":1235:1282  require(bytes(SSN).length == 13, \"Invalid SSN\") */\n      tag_112\n      jumpi\n      mload(0x40)\n      0x08c379a000000000000000000000000000000000000000000000000000000000\n      dup2\n      mstore\n      0x04\n      add\n      tag_113\n      swap1\n      tag_114\n      jump\t// in\n    tag_113:\n      mload(0x40)\n      dup1\n      swap2\n      sub\n      swap1\n      revert\n    tag_112:\n        /* \"auth.sol\":1325:1326  6 */\n      0x06\n        /* \"auth.sol\":1306:1314  fullName */\n      dup10\n        /* \"auth.sol\":1300:1322  bytes(fullName).length */\n      mload\n        /* \"auth.sol\":1300:1326  bytes(fullName).length > 6 */\n      gt\n        /* \"auth.sol\":1292:1343  require(bytes(fullName).length > 6, \"Invalid name\") */\n      tag_115\n      jumpi\n      mload(0x40)\n      0x08c379a000000000000000000000000000000000000000000000000000000000\n      dup2\n      mstore\n      0x04\n      add\n      tag_116\n      swap1\n      tag_117\n      jump\t// in\n    tag_116:\n      mload(0x40)\n      dup1\n      swap2\n      sub\n      swap1\n      revert\n    tag_115:\n        /* \"auth.sol\":1389:1391  10 */\n      0x0a\n        /* \"auth.sol\":1367:1378  homeAddress */\n      dup8\n        /* \"auth.sol\":1361:1386  bytes(homeAddress).length */\n      mload\n        /* \"auth.sol\":1361:1391  bytes(homeAddress).length > 10 */\n      gt\n        /* \"auth.sol\":1353:1411  require(bytes(homeAddress).length > 10, \"Invalid address\") */\n      tag_118\n      jumpi\n      mload(0x40)\n      0x08c379a000000000000000000000000000000000000000000000000000000000\n      dup2\n      mstore\n      0x04\n      add\n      tag_119\n      swap1\n      tag_120\n      jump\t// in\n    tag_119:\n      mload(0x40)\n      dup1\n      swap2\n      sub\n      swap1\n      revert\n    tag_118:\n        /* \"auth.sol\":1450:1451  8 */\n      0x08\n        /* \"auth.sol\":1435:1439  pass */\n      dup7\n        /* \"auth.sol\":1429:1447  bytes(pass).length */\n      mload\n        /* \"auth.sol\":1429:1451  bytes(pass).length > 8 */\n      gt\n        /* \"auth.sol\":1421:1474  require(bytes(pass).length > 8, \"Password too short\") */\n      tag_121\n      jumpi\n      mload(0x40)\n      0x08c379a000000000000000000000000000000000000000000000000000000000\n      dup2\n      mstore\n      0x04\n      add\n      tag_122\n      swap1\n      tag_123\n      jump\t// in\n    tag_122:\n      mload(0x40)\n      dup1\n      swap2\n      sub\n      swap1\n      revert\n    tag_121:\n        /* \"auth.sol\":1514:1515  6 */\n      0x06\n        /* \"auth.sol\":1498:1503  phone */\n      dup5\n        /* \"auth.sol\":1492:1511  bytes(phone).length */\n      mload\n        /* \"auth.sol\":1492:1515  bytes(phone).length > 6 */\n      gt\n        /* \"auth.sol\":1484:1542  require(bytes(phone).length > 6, \"Phone number too short\") */\n      tag_124\n      jumpi\n      mload(0x40)\n      0x08c379a000000000000000000000000000000000000000000000000000000000\n      dup2\n      mstore\n      0x04\n      add\n      tag_125\n      swap1\n      tag_126\n      jump\t// in\n    tag_125:\n      mload(0x40)\n      dup1\n      swap2\n      sub\n      swap1\n      revert\n    tag_124:\n        /* \"auth.sol\":1552:1563  bytes32 UID */\n      0x00\n        /* \"auth.sol\":1607:1615  fullName */\n      dup10\n        /* \"auth.sol\":1616:1619  SSN */\n      dup10\n        /* \"auth.sol\":1620:1649  Strings.toString(accountType) */\n      tag_127\n        /* \"auth.sol\":1637:1648  accountType */\n      dup9\n        /* \"auth.sol\":1620:1649  Strings.toString(accountType) */\n      0xff\n      and\n        /* \"auth.sol\":1620:1636  Strings.toString */\n      tag_128\n        /* \"auth.sol\":1620:1649  Strings.toString(accountType) */\n      jump\t// in\n    tag_127:\n        /* \"auth.sol\":1650:1661  homeAddress */\n      dup11\n        /* \"auth.sol\":1662:1666  pass */\n      dup11\n        /* \"auth.sol\":1667:1672  phone */\n      dup10\n        /* \"auth.sol\":1593:1673  string.concat(fullName,SSN,Strings.toString(accountType),homeAddress,pass,phone) */\n      add(0x20, mload(0x40))\n      tag_129\n      swap7\n      swap6\n      swap5\n      swap4\n      swap3\n      swap2\n      swap1\n      tag_130\n      jump\t// in\n    tag_129:\n      mload(0x40)\n      0x20\n      dup2\n      dup4\n      sub\n      sub\n      dup2\n      mstore\n      swap1\n      0x40\n      mstore\n        /* \"auth.sol\":1576:1674  abi.encodePacked(string.concat(fullName,SSN,Strings.toString(accountType),homeAddress,pass,phone)) */\n      add(0x20, mload(0x40))\n      tag_131\n      swap2\n      swap1\n      tag_132\n      jump\t// in\n    tag_131:\n      mload(0x40)\n      0x20\n      dup2\n      dup4\n      sub\n      sub\n      dup2\n      mstore\n      swap1\n      0x40\n      mstore\n        /* \"auth.sol\":1566:1675  keccak256(abi.encodePacked(string.concat(fullName,SSN,Strings.toString(accountType),homeAddress,pass,phone))) */\n      dup1\n      mload\n      swap1\n      0x20\n      add\n      keccak256\n        /* \"auth.sol\":1552:1675  bytes32 UID = keccak256(abi.encodePacked(string.concat(fullName,SSN,Strings.toString(accountType),homeAddress,pass,phone))) */\n      swap1\n      pop\n        /* \"auth.sol\":1730:1731  0 */\n      0x00\n        /* \"auth.sol\":1715:1726  accountType */\n      dup7\n        /* \"auth.sol\":1715:1731  accountType == 0 */\n      0xff\n      and\n      sub\n        /* \"auth.sol\":1711:2748  if (accountType == 0)... */\n      tag_133\n      jumpi\n        /* \"auth.sol\":1770:2329  person({... */\n      mload(0x40)\n      dup1\n      0x0120\n      add\n      0x40\n      mstore\n      dup1\n        /* \"auth.sol\":1813:1819  cypher */\n      linkerSymbol(\"0394c467ed0fdd19c4eccf25096e0ad40f7a8f3a2ecaa74fa8ac0ce31535a80b\")\n        /* \"auth.sol\":1813:1827  cypher.encrypt */\n      0x015cfec7\n        /* \"auth.sol\":1834:1842  fullName */\n      dup14\n        /* \"auth.sol\":1851:1855  pass */\n      dup12\n        /* \"auth.sol\":1813:1857  cypher.encrypt(bytes(fullName), bytes(pass)) */\n      mload(0x40)\n      dup4\n      0xffffffff\n      and\n      0xe0\n      shl\n      dup2\n      mstore\n      0x04\n      add\n      tag_134\n      swap3\n      swap2\n      swap1\n      tag_135\n      jump\t// in\n    tag_134:\n      0x00\n      mload(0x40)\n      dup1\n      dup4\n      sub\n      dup2\n      dup7\n      gas\n      delegatecall\n      iszero\n      dup1\n      iszero\n      tag_137\n      jumpi\n      returndatasize\n      0x00\n      dup1\n      returndatacopy\n      revert(0x00, returndatasize)\n    tag_137:\n      pop\n      pop\n      pop\n      pop\n      mload(0x40)\n      returndatasize\n      0x00\n      dup3\n      returndatacopy\n      returndatasize\n      not(0x1f)\n      0x1f\n      dup3\n      add\n      and\n      dup3\n      add\n      dup1\n      0x40\n      mstore\n      pop\n      dup2\n      add\n      swap1\n      tag_138\n      swap2\n      swap1\n      tag_46\n      jump\t// in\n    tag_138:\n        /* \"auth.sol\":1770:2329  person({... */\n      dup2\n      mstore\n      0x20\n      add\n        /* \"auth.sol\":1889:1895  cypher */\n      linkerSymbol(\"0394c467ed0fdd19c4eccf25096e0ad40f7a8f3a2ecaa74fa8ac0ce31535a80b\")\n        /* \"auth.sol\":1889:1903  cypher.encrypt */\n      0x015cfec7\n        /* \"auth.sol\":1910:1913  SSN */\n      dup13\n        /* \"auth.sol\":1922:1926  pass */\n      dup12\n        /* \"auth.sol\":1889:1928  cypher.encrypt(bytes(SSN), bytes(pass)) */\n      mload(0x40)\n      dup4\n      0xffffffff\n      and\n      0xe0\n      shl\n      dup2\n      mstore\n      0x04\n      add\n      tag_139\n      swap3\n      swap2\n      swap1\n      tag_135\n      jump\t// in\n    tag_139:\n      0x00\n      mload(0x40)\n      dup1\n      dup4\n      sub\n      dup2\n      dup7\n      gas\n      delegatecall\n      iszero\n      dup1\n      iszero\n      tag_141\n      jumpi\n      returndatasize\n      0x00\n      dup1\n      returndatacopy\n      revert(0x00, returndatasize)\n    tag_141:\n      pop\n      pop\n      pop\n      pop\n      mload(0x40)\n      returndatasize\n      0x00\n      dup3\n      returndatacopy\n      returndatasize\n      not(0x1f)\n      0x1f\n      dup3\n      add\n      and\n      dup3\n      add\n      dup1\n      0x40\n      mstore\n      pop\n      dup2\n      add\n      swap1\n      tag_142\n      swap2\n      swap1\n      tag_46\n      jump\t// in\n    tag_142:\n        /* \"auth.sol\":1770:2329  person({... */\n      dup2\n      mstore\n      0x20\n      add\n        /* \"auth.sol\":1968:1974  cypher */\n      linkerSymbol(\"0394c467ed0fdd19c4eccf25096e0ad40f7a8f3a2ecaa74fa8ac0ce31535a80b\")\n        /* \"auth.sol\":1968:1982  cypher.encrypt */\n      0x015cfec7\n        /* \"auth.sol\":1989:2000  homeAddress */\n      dup12\n        /* \"auth.sol\":2009:2013  pass */\n      dup12\n        /* \"auth.sol\":1968:2015  cypher.encrypt(bytes(homeAddress), bytes(pass)) */\n      mload(0x40)\n      dup4\n      0xffffffff\n      and\n      0xe0\n      shl\n      dup2\n      mstore\n      0x04\n      add\n      tag_143\n      swap3\n      swap2\n      swap1\n      tag_135\n      jump\t// in\n    tag_143:\n      0x00\n      mload(0x40)\n      dup1\n      dup4\n      sub\n      dup2\n      dup7\n      gas\n      delegatecall\n      iszero\n      dup1\n      iszero\n      tag_145\n      jumpi\n      returndatasize\n      0x00\n      dup1\n      returndatacopy\n      revert(0x00, returndatasize)\n    tag_145:\n      pop\n      pop\n      pop\n      pop\n      mload(0x40)\n      returndatasize\n      0x00\n      dup3\n      returndatacopy\n      returndatasize\n      not(0x1f)\n      0x1f\n      dup3\n      add\n      and\n      dup3\n      add\n      dup1\n      0x40\n      mstore\n      pop\n      dup2\n      add\n      swap1\n      tag_146\n      swap2\n      swap1\n      tag_46\n      jump\t// in\n    tag_146:\n        /* \"auth.sol\":1770:2329  person({... */\n      dup2\n      mstore\n      0x20\n      add\n        /* \"auth.sol\":2092:2096  pass */\n      dup9\n        /* \"auth.sol\":2075:2097  abi.encodePacked(pass) */\n      add(0x20, mload(0x40))\n      tag_147\n      swap2\n      swap1\n      tag_132\n      jump\t// in\n    tag_147:\n      mload(0x40)\n      0x20\n      dup2\n      dup4\n      sub\n      sub\n      dup2\n      mstore\n      swap1\n      0x40\n      mstore\n        /* \"auth.sol\":2065:2098  keccak256(abi.encodePacked(pass)) */\n      dup1\n      mload\n      swap1\n      0x20\n      add\n      keccak256\n        /* \"auth.sol\":2048:2099  abi.encodePacked(keccak256(abi.encodePacked(pass))) */\n      add(0x20, mload(0x40))\n      tag_148\n      swap2\n      swap1\n      tag_149\n      jump\t// in\n    tag_148:\n      mload(0x40)\n      0x20\n      dup2\n      dup4\n      sub\n      sub\n      dup2\n      mstore\n      swap1\n      0x40\n      mstore\n        /* \"auth.sol\":1770:2329  person({... */\n      dup2\n      mstore\n      0x20\n      add\n        /* \"auth.sol\":2133:2139  cypher */\n      linkerSymbol(\"0394c467ed0fdd19c4eccf25096e0ad40f7a8f3a2ecaa74fa8ac0ce31535a80b\")\n        /* \"auth.sol\":2133:2147  cypher.encrypt */\n      0x015cfec7\n        /* \"auth.sol\":2154:2159  phone */\n      dup9\n        /* \"auth.sol\":2168:2172  pass */\n      dup12\n        /* \"auth.sol\":2133:2174  cypher.encrypt(bytes(phone), bytes(pass)) */\n      mload(0x40)\n      dup4\n      0xffffffff\n      and\n      0xe0\n      shl\n      dup2\n      mstore\n      0x04\n      add\n      tag_150\n      swap3\n      swap2\n      swap1\n      tag_135\n      jump\t// in\n    tag_150:\n      0x00\n      mload(0x40)\n      dup1\n      dup4\n      sub\n      dup2\n      dup7\n      gas\n      delegatecall\n      iszero\n      dup1\n      iszero\n      tag_152\n      jumpi\n      returndatasize\n      0x00\n      dup1\n      returndatacopy\n      revert(0x00, returndatasize)\n    tag_152:\n      pop\n      pop\n      pop\n      pop\n      mload(0x40)\n      returndatasize\n      0x00\n      dup3\n      returndatacopy\n      returndatasize\n      not(0x1f)\n      0x1f\n      dup3\n      add\n      and\n      dup3\n      add\n      dup1\n      0x40\n      mstore\n      pop\n      dup2\n      add\n      swap1\n      tag_153\n      swap2\n      swap1\n      tag_46\n      jump\t// in\n    tag_153:\n        /* \"auth.sol\":1770:2329  person({... */\n      dup2\n      mstore\n      0x20\n      add\n        /* \"auth.sol\":2206:2217  accountType */\n      dup8\n        /* \"auth.sol\":1770:2329  person({... */\n      0xff\n      and\n      dup2\n      mstore\n      0x20\n      add\n      mload(0x40)\n      dup1\n      0x40\n      add\n      0x40\n      mstore\n      dup1\n      0x01\n      dup2\n      mstore\n      0x20\n      add\n      0x3000000000000000000000000000000000000000000000000000000000000000\n      dup2\n      mstore\n      pop\n      dup2\n      mstore\n      0x20\n      add\n        /* \"auth.sol\":2250:2254  addr */\n      dup6\n        /* \"auth.sol\":1770:2329  person({... */\n      0xffffffffffffffffffffffffffffffffffffffff\n      and\n      dup2\n      mstore\n      0x20\n      add\n        /* \"auth.sol\":2277:2280  UID */\n      dup3\n        /* \"auth.sol\":1770:2329  person({... */\n      dup2\n      mstore\n      pop\n        /* \"auth.sol\":1755:1762  persons */\n      0x01\n        /* \"auth.sol\":1755:1767  persons[UID] */\n      0x00\n        /* \"auth.sol\":1763:1766  UID */\n      dup4\n        /* \"auth.sol\":1755:1767  persons[UID] */\n      dup2\n      mstore\n      0x20\n      add\n      swap1\n      dup2\n      mstore\n      0x20\n      add\n      0x00\n      keccak256\n        /* \"auth.sol\":1755:2329  persons[UID] = person({... */\n      0x00\n      dup3\n      add\n      mload\n      dup2\n      0x00\n      add\n      swap1\n      dup2\n      tag_154\n      swap2\n      swap1\n      tag_102\n      jump\t// in\n    tag_154:\n      pop\n      0x20\n      dup3\n      add\n      mload\n      dup2\n      0x01\n      add\n      swap1\n      dup2\n      tag_155\n      swap2\n      swap1\n      tag_102\n      jump\t// in\n    tag_155:\n      pop\n      0x40\n      dup3\n      add\n      mload\n      dup2\n      0x02\n      add\n      swap1\n      dup2\n      tag_156\n      swap2\n      swap1\n      tag_102\n      jump\t// in\n    tag_156:\n      pop\n      0x60\n      dup3\n      add\n      mload\n      dup2\n      0x03\n      add\n      swap1\n      dup2\n      tag_157\n      swap2\n      swap1\n      tag_102\n      jump\t// in\n    tag_157:\n      pop\n      0x80\n      dup3\n      add\n      mload\n      dup2\n      0x04\n      add\n      swap1\n      dup2\n      tag_158\n      swap2\n      swap1\n      tag_102\n      jump\t// in\n    tag_158:\n      pop\n      0xa0\n      dup3\n      add\n      mload\n      dup2\n      0x05\n      add\n      exp(0x0100, 0x00)\n      dup2\n      sload\n      dup2\n      0xff\n      mul\n      not\n      and\n      swap1\n      dup4\n      0xff\n      and\n      mul\n      or\n      swap1\n      sstore\n      pop\n      0xc0\n      dup3\n      add\n      mload\n      dup2\n      0x06\n      add\n      swap1\n      dup2\n      tag_159\n      swap2\n      swap1\n      tag_102\n      jump\t// in\n    tag_159:\n      pop\n      0xe0\n      dup3\n      add\n      mload\n      dup2\n      0x07\n      add\n      exp(0x0100, 0x00)\n      dup2\n      sload\n      dup2\n      0xffffffffffffffffffffffffffffffffffffffff\n      mul\n      not\n      and\n      swap1\n      dup4\n      0xffffffffffffffffffffffffffffffffffffffff\n      and\n      mul\n      or\n      swap1\n      sstore\n      pop\n      0x0100\n      dup3\n      add\n      mload\n      dup2\n      0x08\n      add\n      sstore\n      swap1\n      pop\n      pop\n        /* \"auth.sol\":1711:2748  if (accountType == 0)... */\n      jump(tag_160)\n    tag_133:\n        /* \"auth.sol\":2391:2737  person({... */\n      mload(0x40)\n      dup1\n      0x0120\n      add\n      0x40\n      mstore\n      dup1\n        /* \"auth.sol\":2427:2435  fullName */\n      dup12\n        /* \"auth.sol\":2391:2737  person({... */\n      dup2\n      mstore\n      0x20\n      add\n        /* \"auth.sol\":2459:2462  SSN */\n      dup11\n        /* \"auth.sol\":2391:2737  person({... */\n      dup2\n      mstore\n      0x20\n      add\n        /* \"auth.sol\":2494:2505  homeAddress */\n      dup10\n        /* \"auth.sol\":2391:2737  person({... */\n      dup2\n      mstore\n      0x20\n      add\n        /* \"auth.sol\":2530:2534  pass */\n      dup9\n        /* \"auth.sol\":2391:2737  person({... */\n      dup2\n      mstore\n      0x20\n      add\n        /* \"auth.sol\":2560:2565  phone */\n      dup7\n        /* \"auth.sol\":2391:2737  person({... */\n      dup2\n      mstore\n      0x20\n      add\n        /* \"auth.sol\":2596:2607  accountType */\n      dup8\n        /* \"auth.sol\":2391:2737  person({... */\n      0xff\n      and\n      dup2\n      mstore\n      0x20\n      add\n        /* \"auth.sol\":2700:2711  companyCode */\n      dup5\n        /* \"auth.sol\":2391:2737  person({... */\n      dup2\n      mstore\n      0x20\n      add\n        /* \"auth.sol\":2640:2644  addr */\n      dup6\n        /* \"auth.sol\":2391:2737  person({... */\n      0xffffffffffffffffffffffffffffffffffffffff\n      and\n      dup2\n      mstore\n      0x20\n      add\n        /* \"auth.sol\":2667:2670  UID */\n      dup3\n        /* \"auth.sol\":2391:2737  person({... */\n      dup2\n      mstore\n      pop\n        /* \"auth.sol\":2376:2383  persons */\n      0x01\n        /* \"auth.sol\":2376:2388  persons[UID] */\n      0x00\n        /* \"auth.sol\":2384:2387  UID */\n      dup4\n        /* \"auth.sol\":2376:2388  persons[UID] */\n      dup2\n      mstore\n      0x20\n      add\n      swap1\n      dup2\n      mstore\n      0x20\n      add\n      0x00\n      keccak256\n        /* \"auth.sol\":2376:2737  persons[UID] = person({... */\n      0x00\n      dup3\n      add\n      mload\n      dup2\n      0x00\n      add\n      swap1\n      dup2\n      tag_161\n      swap2\n      swap1\n      tag_102\n      jump\t// in\n    tag_161:\n      pop\n      0x20\n      dup3\n      add\n      mload\n      dup2\n      0x01\n      add\n      swap1\n      dup2\n      tag_162\n      swap2\n      swap1\n      tag_102\n      jump\t// in\n    tag_162:\n      pop\n      0x40\n      dup3\n      add\n      mload\n      dup2\n      0x02\n      add\n      swap1\n      dup2\n      tag_163\n      swap2\n      swap1\n      tag_102\n      jump\t// in\n    tag_163:\n      pop\n      0x60\n      dup3\n      add\n      mload\n      dup2\n      0x03\n      add\n      swap1\n      dup2\n      tag_164\n      swap2\n      swap1\n      tag_102\n      jump\t// in\n    tag_164:\n      pop\n      0x80\n      dup3\n      add\n      mload\n      dup2\n      0x04\n      add\n      swap1\n      dup2\n      tag_165\n      swap2\n      swap1\n      tag_102\n      jump\t// in\n    tag_165:\n      pop\n      0xa0\n      dup3\n      add\n      mload\n      dup2\n      0x05\n      add\n      exp(0x0100, 0x00)\n      dup2\n      sload\n      dup2\n      0xff\n      mul\n      not\n      and\n      swap1\n      dup4\n      0xff\n      and\n      mul\n      or\n      swap1\n      sstore\n      pop\n      0xc0\n      dup3\n      add\n      mload\n      dup2\n      0x06\n      add\n      swap1\n      dup2\n      tag_166\n      swap2\n      swap1\n      tag_102\n      jump\t// in\n    tag_166:\n      pop\n      0xe0\n      dup3\n      add\n      mload\n      dup2\n      0x07\n      add\n      exp(0x0100, 0x00)\n      dup2\n      sload\n      dup2\n      0xffffffffffffffffffffffffffffffffffffffff\n      mul\n      not\n      and\n      swap1\n      dup4\n      0xffffffffffffffffffffffffffffffffffffffff\n      and\n      mul\n      or\n      swap1\n      sstore\n      pop\n      0x0100\n      dup3\n      add\n      mload\n      dup2\n      0x08\n      add\n      sstore\n      swap1\n      pop\n      pop\n        /* \"auth.sol\":1711:2748  if (accountType == 0)... */\n    tag_160:\n        /* \"auth.sol\":2762:2781  accountCreated(UID) */\n      0xa8c560616579705e004d37fd505597cd07d92d2604f0b9b435752fa9378e2655\n        /* \"auth.sol\":2777:2780  UID */\n      dup2\n        /* \"auth.sol\":2762:2781  accountCreated(UID) */\n      mload(0x40)\n      tag_167\n      swap2\n      swap1\n      tag_22\n      jump\t// in\n    tag_167:\n      mload(0x40)\n      dup1\n      swap2\n      sub\n      swap1\n      log1\n        /* \"auth.sol\":2798:2801  UID */\n      dup1\n        /* \"auth.sol\":2791:2801  return UID */\n      swap2\n      pop\n      pop\n        /* \"auth.sol\":915:2808  function createAccount(string memory fullName, string memory SSN, string memory homeAddress, string memory pass, uint8 accountType, string memory phone, address addr, string memory companyCode) public payable returns (bytes32)... */\n      swap9\n      swap8\n      pop\n      pop\n      pop\n      pop\n      pop\n      pop\n      pop\n      pop\n      jump\t// out\n        /* \"auth.sol\":5586:5779  function authenthicate(bytes32 UID, string memory pass) public view returns(bool) {... */\n    tag_26:\n        /* \"auth.sol\":5662:5666  bool */\n      0x00\n        /* \"auth.sol\":5685:5772  compare(string(abi.encodePacked(keccak256(abi.encodePacked(pass)))), persons[UID].pass) */\n      tag_169\n        /* \"auth.sol\":5744:5748  pass */\n      dup3\n        /* \"auth.sol\":5727:5749  abi.encodePacked(pass) */\n      add(0x20, mload(0x40))\n      tag_170\n      swap2\n      swap1\n      tag_132\n      jump\t// in\n    tag_170:\n      mload(0x40)\n      0x20\n      dup2\n      dup4\n      sub\n      sub\n      dup2\n      mstore\n      swap1\n      0x40\n      mstore\n        /* \"auth.sol\":5717:5750  keccak256(abi.encodePacked(pass)) */\n      dup1\n      mload\n      swap1\n      0x20\n      add\n      keccak256\n        /* \"auth.sol\":5700:5751  abi.encodePacked(keccak256(abi.encodePacked(pass))) */\n      add(0x20, mload(0x40))\n      tag_171\n      swap2\n      swap1\n      tag_149\n      jump\t// in\n    tag_171:\n      mload(0x40)\n      0x20\n      dup2\n      dup4\n      sub\n      sub\n      dup2\n      mstore\n      swap1\n      0x40\n      mstore\n        /* \"auth.sol\":5754:5761  persons */\n      0x01\n        /* \"auth.sol\":5754:5766  persons[UID] */\n      0x00\n        /* \"auth.sol\":5762:5765  UID */\n      dup7\n        /* \"auth.sol\":5754:5766  persons[UID] */\n      dup2\n      mstore\n      0x20\n      add\n      swap1\n      dup2\n      mstore\n      0x20\n      add\n      0x00\n      keccak256\n        /* \"auth.sol\":5754:5771  persons[UID].pass */\n      0x03\n      add\n        /* \"auth.sol\":5685:5772  compare(string(abi.encodePacked(keccak256(abi.encodePacked(pass)))), persons[UID].pass) */\n      dup1\n      sload\n      tag_172\n      swap1\n      tag_35\n      jump\t// in\n    tag_172:\n      dup1\n      0x1f\n      add\n      0x20\n      dup1\n      swap2\n      div\n      mul\n      0x20\n      add\n      mload(0x40)\n      swap1\n      dup2\n      add\n      0x40\n      mstore\n      dup1\n      swap3\n      swap2\n      swap1\n      dup2\n      dup2\n      mstore\n      0x20\n      add\n      dup3\n      dup1\n      sload\n      tag_173\n      swap1\n      tag_35\n      jump\t// in\n    tag_173:\n      dup1\n      iszero\n      tag_174\n      jumpi\n      dup1\n      0x1f\n      lt\n      tag_175\n      jumpi\n      0x0100\n      dup1\n      dup4\n      sload\n      div\n      mul\n      dup4\n      mstore\n      swap2\n      0x20\n      add\n      swap2\n      jump(tag_174)\n    tag_175:\n      dup3\n      add\n      swap2\n      swap1\n      0x00\n      mstore\n      keccak256(0x00, 0x20)\n      swap1\n    tag_176:\n      dup2\n      sload\n      dup2\n      mstore\n      swap1\n      0x01\n      add\n      swap1\n      0x20\n      add\n      dup1\n      dup4\n      gt\n      tag_176\n      jumpi\n      dup3\n      swap1\n      sub\n      0x1f\n      and\n      dup3\n      add\n      swap2\n    tag_174:\n      pop\n      pop\n      pop\n      pop\n      pop\n        /* \"auth.sol\":5685:5692  compare */\n      tag_177\n        /* \"auth.sol\":5685:5772  compare(string(abi.encodePacked(keccak256(abi.encodePacked(pass)))), persons[UID].pass) */\n      jump\t// in\n    tag_169:\n        /* \"auth.sol\":5678:5772  return compare(string(abi.encodePacked(keccak256(abi.encodePacked(pass)))), persons[UID].pass) */\n      swap1\n      pop\n        /* \"auth.sol\":5586:5779  function authenthicate(bytes32 UID, string memory pass) public view returns(bool) {... */\n      swap3\n      swap2\n      pop\n      pop\n      jump\t// out\n        /* \"auth.sol\":812:909  function isOwner() internal view... */\n    tag_108:\n        /* \"auth.sol\":876:886  msg.sender */\n      caller\n        /* \"auth.sol\":867:886  owner == msg.sender */\n      0xffffffffffffffffffffffffffffffffffffffff\n      and\n        /* \"auth.sol\":867:872  owner */\n      0x00\n      dup1\n      sload\n      swap1\n      0x0100\n      exp\n      swap1\n      div\n      0xffffffffffffffffffffffffffffffffffffffff\n      and\n        /* \"auth.sol\":867:886  owner == msg.sender */\n      0xffffffffffffffffffffffffffffffffffffffff\n      and\n      eq\n        /* \"auth.sol\":859:902  require(owner == msg.sender, \"Not allowed\") */\n      tag_179\n      jumpi\n      mload(0x40)\n      0x08c379a000000000000000000000000000000000000000000000000000000000\n      dup2\n      mstore\n      0x04\n      add\n      tag_180\n      swap1\n      tag_181\n      jump\t// in\n    tag_180:\n      mload(0x40)\n      dup1\n      swap2\n      sub\n      swap1\n      revert\n    tag_179:\n        /* \"auth.sol\":812:909  function isOwner() internal view... */\n      jump\t// out\n        /* \"OpenZeppelin.mod/Strings.sol\":447:1143  function toString(uint256 value) internal pure returns (string memory) {... */\n    tag_128:\n        /* \"OpenZeppelin.mod/Strings.sol\":503:516  string memory */\n      0x60\n        /* \"OpenZeppelin.mod/Strings.sol\":552:566  uint256 length */\n      0x00\n        /* \"OpenZeppelin.mod/Strings.sol\":589:590  1 */\n      0x01\n        /* \"OpenZeppelin.mod/Strings.sol\":569:586  Math.log10(value) */\n      tag_183\n        /* \"OpenZeppelin.mod/Strings.sol\":580:585  value */\n      dup5\n        /* \"OpenZeppelin.mod/Strings.sol\":569:579  Math.log10 */\n      tag_184\n        /* \"OpenZeppelin.mod/Strings.sol\":569:586  Math.log10(value) */\n      jump\t// in\n    tag_183:\n        /* \"OpenZeppelin.mod/Strings.sol\":569:590  Math.log10(value) + 1 */\n      add\n        /* \"OpenZeppelin.mod/Strings.sol\":552:590  uint256 length = Math.log10(value) + 1 */\n      swap1\n      pop\n        /* \"OpenZeppelin.mod/Strings.sol\":604:624  string memory buffer */\n      0x00\n        /* \"OpenZeppelin.mod/Strings.sol\":638:644  length */\n      dup2\n        /* \"OpenZeppelin.mod/Strings.sol\":627:645  new string(length) */\n      0xffffffffffffffff\n      dup2\n      gt\n      iszero\n      tag_185\n      jumpi\n      tag_186\n      tag_187\n      jump\t// in\n    tag_186:\n    tag_185:\n      mload(0x40)\n      swap1\n      dup1\n      dup3\n      mstore\n      dup1\n      0x1f\n      add\n      not(0x1f)\n      and\n      0x20\n      add\n      dup3\n      add\n      0x40\n      mstore\n      dup1\n      iszero\n      tag_188\n      jumpi\n      dup2\n      0x20\n      add\n      0x01\n      dup3\n      mul\n      dup1\n      calldatasize\n      dup4\n      calldatacopy\n      dup1\n      dup3\n      add\n      swap2\n      pop\n      pop\n      swap1\n      pop\n    tag_188:\n      pop\n        /* \"OpenZeppelin.mod/Strings.sol\":604:645  string memory buffer = new string(length) */\n      swap1\n      pop\n        /* \"OpenZeppelin.mod/Strings.sol\":659:670  uint256 ptr */\n      0x00\n        /* \"OpenZeppelin.mod/Strings.sol\":785:791  length */\n      dup3\n        /* \"OpenZeppelin.mod/Strings.sol\":781:783  32 */\n      0x20\n        /* \"OpenZeppelin.mod/Strings.sol\":777:792  add(32, length) */\n      add\n        /* \"OpenZeppelin.mod/Strings.sol\":769:775  buffer */\n      dup3\n        /* \"OpenZeppelin.mod/Strings.sol\":765:793  add(buffer, add(32, length)) */\n      add\n        /* \"OpenZeppelin.mod/Strings.sol\":758:793  ptr := add(buffer, add(32, length)) */\n      swap1\n      pop\n        /* \"OpenZeppelin.mod/Strings.sol\":820:1100  while (true) {... */\n    tag_189:\n        /* \"OpenZeppelin.mod/Strings.sol\":827:831  true */\n      0x01\n        /* \"OpenZeppelin.mod/Strings.sol\":820:1100  while (true) {... */\n      iszero\n      tag_190\n      jumpi\n        /* \"OpenZeppelin.mod/Strings.sol\":851:856  ptr-- */\n      dup1\n      dup1\n      0x01\n      swap1\n      sub\n      swap2\n      pop\n      pop\n        /* \"OpenZeppelin.mod/Strings.sol\":990:998  _SYMBOLS */\n      0x3031323334353637383961626364656600000000000000000000000000000000\n        /* \"OpenZeppelin.mod/Strings.sol\":985:987  10 */\n      0x0a\n        /* \"OpenZeppelin.mod/Strings.sol\":978:983  value */\n      dup7\n        /* \"OpenZeppelin.mod/Strings.sol\":974:988  mod(value, 10) */\n      mod\n        /* \"OpenZeppelin.mod/Strings.sol\":969:999  byte(mod(value, 10), _SYMBOLS) */\n      byte\n        /* \"OpenZeppelin.mod/Strings.sol\":964:967  ptr */\n      dup2\n        /* \"OpenZeppelin.mod/Strings.sol\":956:1000  mstore8(ptr, byte(mod(value, 10), _SYMBOLS)) */\n      mstore8\n        /* \"OpenZeppelin.mod/Strings.sol\":1044:1046  10 */\n      0x0a\n        /* \"OpenZeppelin.mod/Strings.sol\":1035:1046  value /= 10 */\n      dup6\n      dup2\n      tag_191\n      jumpi\n      tag_192\n      tag_193\n      jump\t// in\n    tag_192:\n    tag_191:\n      div\n      swap5\n      pop\n        /* \"OpenZeppelin.mod/Strings.sol\":1077:1078  0 */\n      0x00\n        /* \"OpenZeppelin.mod/Strings.sol\":1068:1073  value */\n      dup6\n        /* \"OpenZeppelin.mod/Strings.sol\":1068:1078  value == 0 */\n      sub\n        /* \"OpenZeppelin.mod/Strings.sol\":820:1100  while (true) {... */\n      tag_189\n        /* \"OpenZeppelin.mod/Strings.sol\":1064:1085  if (value == 0) break */\n      jumpi\n        /* \"OpenZeppelin.mod/Strings.sol\":820:1100  while (true) {... */\n    tag_190:\n        /* \"OpenZeppelin.mod/Strings.sol\":1120:1126  buffer */\n      dup2\n        /* \"OpenZeppelin.mod/Strings.sol\":1113:1126  return buffer */\n      swap4\n      pop\n      pop\n      pop\n      pop\n        /* \"OpenZeppelin.mod/Strings.sol\":447:1143  function toString(uint256 value) internal pure returns (string memory) {... */\n      swap2\n      swap1\n      pop\n      jump\t// out\n        /* \"auth.sol\":5401:5580  function compare(string memory str1, string memory str2) private pure returns (bool) {... */\n    tag_177:\n        /* \"auth.sol\":5480:5484  bool */\n      0x00\n        /* \"auth.sol\":5567:5571  str2 */\n      dup2\n        /* \"auth.sol\":5550:5572  abi.encodePacked(str2) */\n      add(0x20, mload(0x40))\n      tag_196\n      swap2\n      swap1\n      tag_132\n      jump\t// in\n    tag_196:\n      mload(0x40)\n      0x20\n      dup2\n      dup4\n      sub\n      sub\n      dup2\n      mstore\n      swap1\n      0x40\n      mstore\n        /* \"auth.sol\":5540:5573  keccak256(abi.encodePacked(str2)) */\n      dup1\n      mload\n      swap1\n      0x20\n      add\n      keccak256\n        /* \"auth.sol\":5530:5534  str1 */\n      dup4\n        /* \"auth.sol\":5513:5535  abi.encodePacked(str1) */\n      add(0x20, mload(0x40))\n      tag_197\n      swap2\n      swap1\n      tag_132\n      jump\t// in\n    tag_197:\n      mload(0x40)\n      0x20\n      dup2\n      dup4\n      sub\n      sub\n      dup2\n      mstore\n      swap1\n      0x40\n      mstore\n        /* \"auth.sol\":5503:5536  keccak256(abi.encodePacked(str1)) */\n      dup1\n      mload\n      swap1\n      0x20\n      add\n      keccak256\n        /* \"auth.sol\":5503:5573  keccak256(abi.encodePacked(str1)) == keccak256(abi.encodePacked(str2)) */\n      eq\n        /* \"auth.sol\":5496:5573  return keccak256(abi.encodePacked(str1)) == keccak256(abi.encodePacked(str2)) */\n      swap1\n      pop\n        /* \"auth.sol\":5401:5580  function compare(string memory str1, string memory str2) private pure returns (bool) {... */\n      swap3\n      swap2\n      pop\n      pop\n      jump\t// out\n        /* \"OpenZeppelin.mod/math/Math.sol\":9889:10779  function log10(uint256 value) internal pure returns (uint256) {... */\n    tag_184:\n        /* \"OpenZeppelin.mod/math/Math.sol\":9942:9949  uint256 */\n      0x00\n        /* \"OpenZeppelin.mod/math/Math.sol\":9961:9975  uint256 result */\n      dup1\n        /* \"OpenZeppelin.mod/math/Math.sol\":9978:9979  0 */\n      0x00\n        /* \"OpenZeppelin.mod/math/Math.sol\":9961:9979  uint256 result = 0 */\n      swap1\n      pop\n        /* \"OpenZeppelin.mod/math/Math.sol\":10026:10032  10**64 */\n      0x184f03e93ff9f4daa797ed6e38ed64bf6a1f010000000000000000\n        /* \"OpenZeppelin.mod/math/Math.sol\":10017:10022  value */\n      dup4\n        /* \"OpenZeppelin.mod/math/Math.sol\":10017:10032  value >= 10**64 */\n      lt\n        /* \"OpenZeppelin.mod/math/Math.sol\":10013:10112  if (value >= 10**64) {... */\n      tag_199\n      jumpi\n        /* \"OpenZeppelin.mod/math/Math.sol\":10061:10067  10**64 */\n      0x184f03e93ff9f4daa797ed6e38ed64bf6a1f010000000000000000\n        /* \"OpenZeppelin.mod/math/Math.sol\":10052:10067  value /= 10**64 */\n      dup4\n      dup2\n      tag_200\n      jumpi\n      tag_201\n      tag_193\n      jump\t// in\n    tag_201:\n    tag_200:\n      div\n      swap3\n      pop\n        /* \"OpenZeppelin.mod/math/Math.sol\":10095:10097  64 */\n      0x40\n        /* \"OpenZeppelin.mod/math/Math.sol\":10085:10097  result += 64 */\n      dup2\n      add\n      swap1\n      pop\n        /* \"OpenZeppelin.mod/math/Math.sol\":10013:10112  if (value >= 10**64) {... */\n    tag_199:\n        /* \"OpenZeppelin.mod/math/Math.sol\":10138:10144  10**32 */\n      0x04ee2d6d415b85acef8100000000\n        /* \"OpenZeppelin.mod/math/Math.sol\":10129:10134  value */\n      dup4\n        /* \"OpenZeppelin.mod/math/Math.sol\":10129:10144  value >= 10**32 */\n      lt\n        /* \"OpenZeppelin.mod/math/Math.sol\":10125:10224  if (value >= 10**32) {... */\n      tag_202\n      jumpi\n        /* \"OpenZeppelin.mod/math/Math.sol\":10173:10179  10**32 */\n      0x04ee2d6d415b85acef8100000000\n        /* \"OpenZeppelin.mod/math/Math.sol\":10164:10179  value /= 10**32 */\n      dup4\n      dup2\n      tag_203\n      jumpi\n      tag_204\n      tag_193\n      jump\t// in\n    tag_204:\n    tag_203:\n      div\n      swap3\n      pop\n        /* \"OpenZeppelin.mod/math/Math.sol\":10207:10209  32 */\n      0x20\n        /* \"OpenZeppelin.mod/math/Math.sol\":10197:10209  result += 32 */\n      dup2\n      add\n      swap1\n      pop\n        /* \"OpenZeppelin.mod/math/Math.sol\":10125:10224  if (value >= 10**32) {... */\n    tag_202:\n        /* \"OpenZeppelin.mod/math/Math.sol\":10250:10256  10**16 */\n      0x2386f26fc10000\n        /* \"OpenZeppelin.mod/math/Math.sol\":10241:10246  value */\n      dup4\n        /* \"OpenZeppelin.mod/math/Math.sol\":10241:10256  value >= 10**16 */\n      lt\n        /* \"OpenZeppelin.mod/math/Math.sol\":10237:10336  if (value >= 10**16) {... */\n      tag_205\n      jumpi\n        /* \"OpenZeppelin.mod/math/Math.sol\":10285:10291  10**16 */\n      0x2386f26fc10000\n        /* \"OpenZeppelin.mod/math/Math.sol\":10276:10291  value /= 10**16 */\n      dup4\n      dup2\n      tag_206\n      jumpi\n      tag_207\n      tag_193\n      jump\t// in\n    tag_207:\n    tag_206:\n      div\n      swap3\n      pop\n        /* \"OpenZeppelin.mod/math/Math.sol\":10319:10321  16 */\n      0x10\n        /* \"OpenZeppelin.mod/math/Math.sol\":10309:10321  result += 16 */\n      dup2\n      add\n      swap1\n      pop\n        /* \"OpenZeppelin.mod/math/Math.sol\":10237:10336  if (value >= 10**16) {... */\n    tag_205:\n        /* \"OpenZeppelin.mod/math/Math.sol\":10362:10367  10**8 */\n      0x05f5e100\n        /* \"OpenZeppelin.mod/math/Math.sol\":10353:10358  value */\n      dup4\n        /* \"OpenZeppelin.mod/math/Math.sol\":10353:10367  value >= 10**8 */\n      lt\n        /* \"OpenZeppelin.mod/math/Math.sol\":10349:10445  if (value >= 10**8) {... */\n      tag_208\n      jumpi\n        /* \"OpenZeppelin.mod/math/Math.sol\":10396:10401  10**8 */\n      0x05f5e100\n        /* \"OpenZeppelin.mod/math/Math.sol\":10387:10401  value /= 10**8 */\n      dup4\n      dup2\n      tag_209\n      jumpi\n      tag_210\n      tag_193\n      jump\t// in\n    tag_210:\n    tag_209:\n      div\n      swap3\n      pop\n        /* \"OpenZeppelin.mod/math/Math.sol\":10429:10430  8 */\n      0x08\n        /* \"OpenZeppelin.mod/math/Math.sol\":10419:10430  result += 8 */\n      dup2\n      add\n      swap1\n      pop\n        /* \"OpenZeppelin.mod/math/Math.sol\":10349:10445  if (value >= 10**8) {... */\n    tag_208:\n        /* \"OpenZeppelin.mod/math/Math.sol\":10471:10476  10**4 */\n      0x2710\n        /* \"OpenZeppelin.mod/math/Math.sol\":10462:10467  value */\n      dup4\n        /* \"OpenZeppelin.mod/math/Math.sol\":10462:10476  value >= 10**4 */\n      lt\n        /* \"OpenZeppelin.mod/math/Math.sol\":10458:10554  if (value >= 10**4) {... */\n      tag_211\n      jumpi\n        /* \"OpenZeppelin.mod/math/Math.sol\":10505:10510  10**4 */\n      0x2710\n        /* \"OpenZeppelin.mod/math/Math.sol\":10496:10510  value /= 10**4 */\n      dup4\n      dup2\n      tag_212\n      jumpi\n      tag_213\n      tag_193\n      jump\t// in\n    tag_213:\n    tag_212:\n      div\n      swap3\n      pop\n        /* \"OpenZeppelin.mod/math/Math.sol\":10538:10539  4 */\n      0x04\n        /* \"OpenZeppelin.mod/math/Math.sol\":10528:10539  result += 4 */\n      dup2\n      add\n      swap1\n      pop\n        /* \"OpenZeppelin.mod/math/Math.sol\":10458:10554  if (value >= 10**4) {... */\n    tag_211:\n        /* \"OpenZeppelin.mod/math/Math.sol\":10580:10585  10**2 */\n      0x64\n        /* \"OpenZeppelin.mod/math/Math.sol\":10571:10576  value */\n      dup4\n        /* \"OpenZeppelin.mod/math/Math.sol\":10571:10585  value >= 10**2 */\n      lt\n        /* \"OpenZeppelin.mod/math/Math.sol\":10567:10663  if (value >= 10**2) {... */\n      tag_214\n      jumpi\n        /* \"OpenZeppelin.mod/math/Math.sol\":10614:10619  10**2 */\n      0x64\n        /* \"OpenZeppelin.mod/math/Math.sol\":10605:10619  value /= 10**2 */\n      dup4\n      dup2\n      tag_215\n      jumpi\n      tag_216\n      tag_193\n      jump\t// in\n    tag_216:\n    tag_215:\n      div\n      swap3\n      pop\n        /* \"OpenZeppelin.mod/math/Math.sol\":10647:10648  2 */\n      0x02\n        /* \"OpenZeppelin.mod/math/Math.sol\":10637:10648  result += 2 */\n      dup2\n      add\n      swap1\n      pop\n        /* \"OpenZeppelin.mod/math/Math.sol\":10567:10663  if (value >= 10**2) {... */\n    tag_214:\n        /* \"OpenZeppelin.mod/math/Math.sol\":10689:10694  10**1 */\n      0x0a\n        /* \"OpenZeppelin.mod/math/Math.sol\":10680:10685  value */\n      dup4\n        /* \"OpenZeppelin.mod/math/Math.sol\":10680:10694  value >= 10**1 */\n      lt\n        /* \"OpenZeppelin.mod/math/Math.sol\":10676:10740  if (value >= 10**1) {... */\n      tag_217\n      jumpi\n        /* \"OpenZeppelin.mod/math/Math.sol\":10724:10725  1 */\n      0x01\n        /* \"OpenZeppelin.mod/math/Math.sol\":10714:10725  result += 1 */\n      dup2\n      add\n      swap1\n      pop\n        /* \"OpenZeppelin.mod/math/Math.sol\":10676:10740  if (value >= 10**1) {... */\n    tag_217:\n        /* \"OpenZeppelin.mod/math/Math.sol\":10766:10772  result */\n      dup1\n        /* \"OpenZeppelin.mod/math/Math.sol\":10759:10772  return result */\n      swap2\n      pop\n      pop\n        /* \"OpenZeppelin.mod/math/Math.sol\":9889:10779  function log10(uint256 value) internal pure returns (uint256) {... */\n      swap2\n      swap1\n      pop\n      jump\t// out\n    tag_30:\n      mload(0x40)\n      dup1\n      0x0120\n      add\n      0x40\n      mstore\n      dup1\n      0x60\n      dup2\n      mstore\n      0x20\n      add\n      0x60\n      dup2\n      mstore\n      0x20\n      add\n      0x60\n      dup2\n      mstore\n      0x20\n      add\n      0x60\n      dup2\n      mstore\n      0x20\n      add\n      0x60\n      dup2\n      mstore\n      0x20\n      add\n      and(0xff, 0x00)\n      dup2\n      mstore\n      0x20\n      add\n      0x60\n      dup2\n      mstore\n      0x20\n      add\n      and(0xffffffffffffffffffffffffffffffffffffffff, 0x00)\n      dup2\n      mstore\n      0x20\n      add\n      0x00\n      dup1\n      not\n      and\n      dup2\n      mstore\n      pop\n      swap1\n      jump\t// out\n        /* \"#utility.yul\":7:82   */\n    tag_218:\n        /* \"#utility.yul\":40:46   */\n      0x00\n        /* \"#utility.yul\":73:75   */\n      0x40\n        /* \"#utility.yul\":67:76   */\n      mload\n        /* \"#utility.yul\":57:76   */\n      swap1\n      pop\n        /* \"#utility.yul\":7:82   */\n      swap1\n      jump\t// out\n        /* \"#utility.yul\":88:205   */\n    tag_219:\n        /* \"#utility.yul\":197:198   */\n      0x00\n        /* \"#utility.yul\":194:195   */\n      dup1\n        /* \"#utility.yul\":187:199   */\n      revert\n        /* \"#utility.yul\":211:328   */\n    tag_220:\n        /* \"#utility.yul\":320:321   */\n      0x00\n        /* \"#utility.yul\":317:318   */\n      dup1\n        /* \"#utility.yul\":310:322   */\n      revert\n        /* \"#utility.yul\":334:411   */\n    tag_221:\n        /* \"#utility.yul\":371:378   */\n      0x00\n        /* \"#utility.yul\":400:405   */\n      dup2\n        /* \"#utility.yul\":389:405   */\n      swap1\n      pop\n        /* \"#utility.yul\":334:411   */\n      swap2\n      swap1\n      pop\n      jump\t// out\n        /* \"#utility.yul\":417:539   */\n    tag_222:\n        /* \"#utility.yul\":490:514   */\n      tag_301\n        /* \"#utility.yul\":508:513   */\n      dup2\n        /* \"#utility.yul\":490:514   */\n      tag_221\n      jump\t// in\n    tag_301:\n        /* \"#utility.yul\":483:488   */\n      dup2\n        /* \"#utility.yul\":480:515   */\n      eq\n        /* \"#utility.yul\":470:533   */\n      tag_302\n      jumpi\n        /* \"#utility.yul\":529:530   */\n      0x00\n        /* \"#utility.yul\":526:527   */\n      dup1\n        /* \"#utility.yul\":519:531   */\n      revert\n        /* \"#utility.yul\":470:533   */\n    tag_302:\n        /* \"#utility.yul\":417:539   */\n      pop\n      jump\t// out\n        /* \"#utility.yul\":545:684   */\n    tag_223:\n        /* \"#utility.yul\":591:596   */\n      0x00\n        /* \"#utility.yul\":629:635   */\n      dup2\n        /* \"#utility.yul\":616:636   */\n      calldataload\n        /* \"#utility.yul\":607:636   */\n      swap1\n      pop\n        /* \"#utility.yul\":645:678   */\n      tag_304\n        /* \"#utility.yul\":672:677   */\n      dup2\n        /* \"#utility.yul\":645:678   */\n      tag_222\n      jump\t// in\n    tag_304:\n        /* \"#utility.yul\":545:684   */\n      swap3\n      swap2\n      pop\n      pop\n      jump\t// out\n        /* \"#utility.yul\":690:807   */\n    tag_224:\n        /* \"#utility.yul\":799:800   */\n      0x00\n        /* \"#utility.yul\":796:797   */\n      dup1\n        /* \"#utility.yul\":789:801   */\n      revert\n        /* \"#utility.yul\":813:930   */\n    tag_225:\n        /* \"#utility.yul\":922:923   */\n      0x00\n        /* \"#utility.yul\":919:920   */\n      dup1\n        /* \"#utility.yul\":912:924   */\n      revert\n        /* \"#utility.yul\":936:1038   */\n    tag_226:\n        /* \"#utility.yul\":977:983   */\n      0x00\n        /* \"#utility.yul\":1028:1030   */\n      0x1f\n        /* \"#utility.yul\":1024:1031   */\n      not\n        /* \"#utility.yul\":1019:1021   */\n      0x1f\n        /* \"#utility.yul\":1012:1017   */\n      dup4\n        /* \"#utility.yul\":1008:1022   */\n      add\n        /* \"#utility.yul\":1004:1032   */\n      and\n        /* \"#utility.yul\":994:1032   */\n      swap1\n      pop\n        /* \"#utility.yul\":936:1038   */\n      swap2\n      swap1\n      pop\n      jump\t// out\n        /* \"#utility.yul\":1044:1224   */\n    tag_187:\n        /* \"#utility.yul\":1092:1169   */\n      0x4e487b7100000000000000000000000000000000000000000000000000000000\n        /* \"#utility.yul\":1089:1090   */\n      0x00\n        /* \"#utility.yul\":1082:1170   */\n      mstore\n        /* \"#utility.yul\":1189:1193   */\n      0x41\n        /* \"#utility.yul\":1186:1187   */\n      0x04\n        /* \"#utility.yul\":1179:1194   */\n      mstore\n        /* \"#utility.yul\":1213:1217   */\n      0x24\n        /* \"#utility.yul\":1210:1211   */\n      0x00\n        /* \"#utility.yul\":1203:1218   */\n      revert\n        /* \"#utility.yul\":1230:1511   */\n    tag_227:\n        /* \"#utility.yul\":1313:1340   */\n      tag_310\n        /* \"#utility.yul\":1335:1339   */\n      dup3\n        /* \"#utility.yul\":1313:1340   */\n      tag_226\n      jump\t// in\n    tag_310:\n        /* \"#utility.yul\":1305:1311   */\n      dup2\n        /* \"#utility.yul\":1301:1341   */\n      add\n        /* \"#utility.yul\":1443:1449   */\n      dup2\n        /* \"#utility.yul\":1431:1441   */\n      dup2\n        /* \"#utility.yul\":1428:1450   */\n      lt\n        /* \"#utility.yul\":1407:1425   */\n      0xffffffffffffffff\n        /* \"#utility.yul\":1395:1405   */\n      dup3\n        /* \"#utility.yul\":1392:1426   */\n      gt\n        /* \"#utility.yul\":1389:1451   */\n      or\n        /* \"#utility.yul\":1386:1474   */\n      iszero\n      tag_311\n      jumpi\n        /* \"#utility.yul\":1454:1472   */\n      tag_312\n      tag_187\n      jump\t// in\n    tag_312:\n        /* \"#utility.yul\":1386:1474   */\n    tag_311:\n        /* \"#utility.yul\":1494:1504   */\n      dup1\n        /* \"#utility.yul\":1490:1492   */\n      0x40\n        /* \"#utility.yul\":1483:1505   */\n      mstore\n        /* \"#utility.yul\":1273:1511   */\n      pop\n        /* \"#utility.yul\":1230:1511   */\n      pop\n      pop\n      jump\t// out\n        /* \"#utility.yul\":1517:1646   */\n    tag_228:\n        /* \"#utility.yul\":1551:1557   */\n      0x00\n        /* \"#utility.yul\":1578:1598   */\n      tag_314\n      tag_218\n      jump\t// in\n    tag_314:\n        /* \"#utility.yul\":1568:1598   */\n      swap1\n      pop\n        /* \"#utility.yul\":1607:1640   */\n      tag_315\n        /* \"#utility.yul\":1635:1639   */\n      dup3\n        /* \"#utility.yul\":1627:1633   */\n      dup3\n        /* \"#utility.yul\":1607:1640   */\n      tag_227\n      jump\t// in\n    tag_315:\n        /* \"#utility.yul\":1517:1646   */\n      swap2\n      swap1\n      pop\n      jump\t// out\n        /* \"#utility.yul\":1652:1960   */\n    tag_229:\n        /* \"#utility.yul\":1714:1718   */\n      0x00\n        /* \"#utility.yul\":1804:1822   */\n      0xffffffffffffffff\n        /* \"#utility.yul\":1796:1802   */\n      dup3\n        /* \"#utility.yul\":1793:1823   */\n      gt\n        /* \"#utility.yul\":1790:1846   */\n      iszero\n      tag_317\n      jumpi\n        /* \"#utility.yul\":1826:1844   */\n      tag_318\n      tag_187\n      jump\t// in\n    tag_318:\n        /* \"#utility.yul\":1790:1846   */\n    tag_317:\n        /* \"#utility.yul\":1864:1893   */\n      tag_319\n        /* \"#utility.yul\":1886:1892   */\n      dup3\n        /* \"#utility.yul\":1864:1893   */\n      tag_226\n      jump\t// in\n    tag_319:\n        /* \"#utility.yul\":1856:1893   */\n      swap1\n      pop\n        /* \"#utility.yul\":1948:1952   */\n      0x20\n        /* \"#utility.yul\":1942:1946   */\n      dup2\n        /* \"#utility.yul\":1938:1953   */\n      add\n        /* \"#utility.yul\":1930:1953   */\n      swap1\n      pop\n        /* \"#utility.yul\":1652:1960   */\n      swap2\n      swap1\n      pop\n      jump\t// out\n        /* \"#utility.yul\":1966:2112   */\n    tag_230:\n        /* \"#utility.yul\":2063:2069   */\n      dup3\n        /* \"#utility.yul\":2058:2061   */\n      dup2\n        /* \"#utility.yul\":2053:2056   */\n      dup4\n        /* \"#utility.yul\":2040:2070   */\n      calldatacopy\n        /* \"#utility.yul\":2104:2105   */\n      0x00\n        /* \"#utility.yul\":2095:2101   */\n      dup4\n        /* \"#utility.yul\":2090:2093   */\n      dup4\n        /* \"#utility.yul\":2086:2102   */\n      add\n        /* \"#utility.yul\":2079:2106   */\n      mstore\n        /* \"#utility.yul\":1966:2112   */\n      pop\n      pop\n      pop\n      jump\t// out\n        /* \"#utility.yul\":2118:2543   */\n    tag_231:\n        /* \"#utility.yul\":2196:2201   */\n      0x00\n        /* \"#utility.yul\":2221:2287   */\n      tag_322\n        /* \"#utility.yul\":2237:2286   */\n      tag_323\n        /* \"#utility.yul\":2279:2285   */\n      dup5\n        /* \"#utility.yul\":2237:2286   */\n      tag_229\n      jump\t// in\n    tag_323:\n        /* \"#utility.yul\":2221:2287   */\n      tag_228\n      jump\t// in\n    tag_322:\n        /* \"#utility.yul\":2212:2287   */\n      swap1\n      pop\n        /* \"#utility.yul\":2310:2316   */\n      dup3\n        /* \"#utility.yul\":2303:2308   */\n      dup2\n        /* \"#utility.yul\":2296:2317   */\n      mstore\n        /* \"#utility.yul\":2348:2352   */\n      0x20\n        /* \"#utility.yul\":2341:2346   */\n      dup2\n        /* \"#utility.yul\":2337:2353   */\n      add\n        /* \"#utility.yul\":2386:2389   */\n      dup5\n        /* \"#utility.yul\":2377:2383   */\n      dup5\n        /* \"#utility.yul\":2372:2375   */\n      dup5\n        /* \"#utility.yul\":2368:2384   */\n      add\n        /* \"#utility.yul\":2365:2390   */\n      gt\n        /* \"#utility.yul\":2362:2474   */\n      iszero\n      tag_324\n      jumpi\n        /* \"#utility.yul\":2393:2472   */\n      tag_325\n      tag_225\n      jump\t// in\n    tag_325:\n        /* \"#utility.yul\":2362:2474   */\n    tag_324:\n        /* \"#utility.yul\":2483:2537   */\n      tag_326\n        /* \"#utility.yul\":2530:2536   */\n      dup5\n        /* \"#utility.yul\":2525:2528   */\n      dup3\n        /* \"#utility.yul\":2520:2523   */\n      dup6\n        /* \"#utility.yul\":2483:2537   */\n      tag_230\n      jump\t// in\n    tag_326:\n        /* \"#utility.yul\":2202:2543   */\n      pop\n        /* \"#utility.yul\":2118:2543   */\n      swap4\n      swap3\n      pop\n      pop\n      pop\n      jump\t// out\n        /* \"#utility.yul\":2563:2903   */\n    tag_232:\n        /* \"#utility.yul\":2619:2624   */\n      0x00\n        /* \"#utility.yul\":2668:2671   */\n      dup3\n        /* \"#utility.yul\":2661:2665   */\n      0x1f\n        /* \"#utility.yul\":2653:2659   */\n      dup4\n        /* \"#utility.yul\":2649:2666   */\n      add\n        /* \"#utility.yul\":2645:2672   */\n      slt\n        /* \"#utility.yul\":2635:2757   */\n      tag_328\n      jumpi\n        /* \"#utility.yul\":2676:2755   */\n      tag_329\n      tag_224\n      jump\t// in\n    tag_329:\n        /* \"#utility.yul\":2635:2757   */\n    tag_328:\n        /* \"#utility.yul\":2793:2799   */\n      dup2\n        /* \"#utility.yul\":2780:2800   */\n      calldataload\n        /* \"#utility.yul\":2818:2897   */\n      tag_330\n        /* \"#utility.yul\":2893:2896   */\n      dup5\n        /* \"#utility.yul\":2885:2891   */\n      dup3\n        /* \"#utility.yul\":2878:2882   */\n      0x20\n        /* \"#utility.yul\":2870:2876   */\n      dup7\n        /* \"#utility.yul\":2866:2883   */\n      add\n        /* \"#utility.yul\":2818:2897   */\n      tag_231\n      jump\t// in\n    tag_330:\n        /* \"#utility.yul\":2809:2897   */\n      swap2\n      pop\n        /* \"#utility.yul\":2625:2903   */\n      pop\n        /* \"#utility.yul\":2563:2903   */\n      swap3\n      swap2\n      pop\n      pop\n      jump\t// out\n        /* \"#utility.yul\":2909:3563   */\n    tag_9:\n        /* \"#utility.yul\":2987:2993   */\n      0x00\n        /* \"#utility.yul\":2995:3001   */\n      dup1\n        /* \"#utility.yul\":3044:3046   */\n      0x40\n        /* \"#utility.yul\":3032:3041   */\n      dup4\n        /* \"#utility.yul\":3023:3030   */\n      dup6\n        /* \"#utility.yul\":3019:3042   */\n      sub\n        /* \"#utility.yul\":3015:3047   */\n      slt\n        /* \"#utility.yul\":3012:3131   */\n      iszero\n      tag_332\n      jumpi\n        /* \"#utility.yul\":3050:3129   */\n      tag_333\n      tag_219\n      jump\t// in\n    tag_333:\n        /* \"#utility.yul\":3012:3131   */\n    tag_332:\n        /* \"#utility.yul\":3170:3171   */\n      0x00\n        /* \"#utility.yul\":3195:3248   */\n      tag_334\n        /* \"#utility.yul\":3240:3247   */\n      dup6\n        /* \"#utility.yul\":3231:3237   */\n      dup3\n        /* \"#utility.yul\":3220:3229   */\n      dup7\n        /* \"#utility.yul\":3216:3238   */\n      add\n        /* \"#utility.yul\":3195:3248   */\n      tag_223\n      jump\t// in\n    tag_334:\n        /* \"#utility.yul\":3185:3248   */\n      swap3\n      pop\n        /* \"#utility.yul\":3141:3258   */\n      pop\n        /* \"#utility.yul\":3325:3327   */\n      0x20\n        /* \"#utility.yul\":3314:3323   */\n      dup4\n        /* \"#utility.yul\":3310:3328   */\n      add\n        /* \"#utility.yul\":3297:3329   */\n      calldataload\n        /* \"#utility.yul\":3356:3374   */\n      0xffffffffffffffff\n        /* \"#utility.yul\":3348:3354   */\n      dup2\n        /* \"#utility.yul\":3345:3375   */\n      gt\n        /* \"#utility.yul\":3342:3459   */\n      iszero\n      tag_335\n      jumpi\n        /* \"#utility.yul\":3378:3457   */\n      tag_336\n      tag_220\n      jump\t// in\n    tag_336:\n        /* \"#utility.yul\":3342:3459   */\n    tag_335:\n        /* \"#utility.yul\":3483:3546   */\n      tag_337\n        /* \"#utility.yul\":3538:3545   */\n      dup6\n        /* \"#utility.yul\":3529:3535   */\n      dup3\n        /* \"#utility.yul\":3518:3527   */\n      dup7\n        /* \"#utility.yul\":3514:3536   */\n      add\n        /* \"#utility.yul\":3483:3546   */\n      tag_232\n      jump\t// in\n    tag_337:\n        /* \"#utility.yul\":3473:3546   */\n      swap2\n      pop\n        /* \"#utility.yul\":3268:3556   */\n      pop\n        /* \"#utility.yul\":2909:3563   */\n      swap3\n      pop\n      swap3\n      swap1\n      pop\n      jump\t// out\n        /* \"#utility.yul\":3569:3668   */\n    tag_233:\n        /* \"#utility.yul\":3621:3627   */\n      0x00\n        /* \"#utility.yul\":3655:3660   */\n      dup2\n        /* \"#utility.yul\":3649:3661   */\n      mload\n        /* \"#utility.yul\":3639:3661   */\n      swap1\n      pop\n        /* \"#utility.yul\":3569:3668   */\n      swap2\n      swap1\n      pop\n      jump\t// out\n        /* \"#utility.yul\":3674:3833   */\n    tag_234:\n        /* \"#utility.yul\":3748:3759   */\n      0x00\n        /* \"#utility.yul\":3782:3788   */\n      dup3\n        /* \"#utility.yul\":3777:3780   */\n      dup3\n        /* \"#utility.yul\":3770:3789   */\n      mstore\n        /* \"#utility.yul\":3822:3826   */\n      0x20\n        /* \"#utility.yul\":3817:3820   */\n      dup3\n        /* \"#utility.yul\":3813:3827   */\n      add\n        /* \"#utility.yul\":3798:3827   */\n      swap1\n      pop\n        /* \"#utility.yul\":3674:3833   */\n      swap3\n      swap2\n      pop\n      pop\n      jump\t// out\n        /* \"#utility.yul\":3839:4085   */\n    tag_235:\n        /* \"#utility.yul\":3920:3921   */\n      0x00\n        /* \"#utility.yul\":3930:4043   */\n    tag_341:\n        /* \"#utility.yul\":3944:3950   */\n      dup4\n        /* \"#utility.yul\":3941:3942   */\n      dup2\n        /* \"#utility.yul\":3938:3951   */\n      lt\n        /* \"#utility.yul\":3930:4043   */\n      iszero\n      tag_343\n      jumpi\n        /* \"#utility.yul\":4029:4030   */\n      dup1\n        /* \"#utility.yul\":4024:4027   */\n      dup3\n        /* \"#utility.yul\":4020:4031   */\n      add\n        /* \"#utility.yul\":4014:4032   */\n      mload\n        /* \"#utility.yul\":4010:4011   */\n      dup2\n        /* \"#utility.yul\":4005:4008   */\n      dup5\n        /* \"#utility.yul\":4001:4012   */\n      add\n        /* \"#utility.yul\":3994:4033   */\n      mstore\n        /* \"#utility.yul\":3966:3968   */\n      0x20\n        /* \"#utility.yul\":3963:3964   */\n      dup2\n        /* \"#utility.yul\":3959:3969   */\n      add\n        /* \"#utility.yul\":3954:3969   */\n      swap1\n      pop\n        /* \"#utility.yul\":3930:4043   */\n      jump(tag_341)\n    tag_343:\n        /* \"#utility.yul\":4077:4078   */\n      0x00\n        /* \"#utility.yul\":4068:4074   */\n      dup5\n        /* \"#utility.yul\":4063:4066   */\n      dup5\n        /* \"#utility.yul\":4059:4075   */\n      add\n        /* \"#utility.yul\":4052:4079   */\n      mstore\n        /* \"#utility.yul\":3901:4085   */\n      pop\n        /* \"#utility.yul\":3839:4085   */\n      pop\n      pop\n      pop\n      jump\t// out\n        /* \"#utility.yul\":4091:4448   */\n    tag_236:\n        /* \"#utility.yul\":4169:4172   */\n      0x00\n        /* \"#utility.yul\":4197:4236   */\n      tag_345\n        /* \"#utility.yul\":4230:4235   */\n      dup3\n        /* \"#utility.yul\":4197:4236   */\n      tag_233\n      jump\t// in\n    tag_345:\n        /* \"#utility.yul\":4252:4313   */\n      tag_346\n        /* \"#utility.yul\":4306:4312   */\n      dup2\n        /* \"#utility.yul\":4301:4304   */\n      dup6\n        /* \"#utility.yul\":4252:4313   */\n      tag_234\n      jump\t// in\n    tag_346:\n        /* \"#utility.yul\":4245:4313   */\n      swap4\n      pop\n        /* \"#utility.yul\":4322:4387   */\n      tag_347\n        /* \"#utility.yul\":4380:4386   */\n      dup2\n        /* \"#utility.yul\":4375:4378   */\n      dup6\n        /* \"#utility.yul\":4368:4372   */\n      0x20\n        /* \"#utility.yul\":4361:4366   */\n      dup7\n        /* \"#utility.yul\":4357:4373   */\n      add\n        /* \"#utility.yul\":4322:4387   */\n      tag_235\n      jump\t// in\n    tag_347:\n        /* \"#utility.yul\":4412:4441   */\n      tag_348\n        /* \"#utility.yul\":4434:4440   */\n      dup2\n        /* \"#utility.yul\":4412:4441   */\n      tag_226\n      jump\t// in\n    tag_348:\n        /* \"#utility.yul\":4407:4410   */\n      dup5\n        /* \"#utility.yul\":4403:4442   */\n      add\n        /* \"#utility.yul\":4396:4442   */\n      swap2\n      pop\n        /* \"#utility.yul\":4173:4448   */\n      pop\n        /* \"#utility.yul\":4091:4448   */\n      swap3\n      swap2\n      pop\n      pop\n      jump\t// out\n        /* \"#utility.yul\":4454:4540   */\n    tag_237:\n        /* \"#utility.yul\":4489:4496   */\n      0x00\n        /* \"#utility.yul\":4529:4533   */\n      0xff\n        /* \"#utility.yul\":4522:4527   */\n      dup3\n        /* \"#utility.yul\":4518:4534   */\n      and\n        /* \"#utility.yul\":4507:4534   */\n      swap1\n      pop\n        /* \"#utility.yul\":4454:4540   */\n      swap2\n      swap1\n      pop\n      jump\t// out\n        /* \"#utility.yul\":4546:4648   */\n    tag_238:\n        /* \"#utility.yul\":4619:4641   */\n      tag_351\n        /* \"#utility.yul\":4635:4640   */\n      dup2\n        /* \"#utility.yul\":4619:4641   */\n      tag_237\n      jump\t// in\n    tag_351:\n        /* \"#utility.yul\":4614:4617   */\n      dup3\n        /* \"#utility.yul\":4607:4642   */\n      mstore\n        /* \"#utility.yul\":4546:4648   */\n      pop\n      pop\n      jump\t// out\n        /* \"#utility.yul\":4654:4780   */\n    tag_239:\n        /* \"#utility.yul\":4691:4698   */\n      0x00\n        /* \"#utility.yul\":4731:4773   */\n      0xffffffffffffffffffffffffffffffffffffffff\n        /* \"#utility.yul\":4724:4729   */\n      dup3\n        /* \"#utility.yul\":4720:4774   */\n      and\n        /* \"#utility.yul\":4709:4774   */\n      swap1\n      pop\n        /* \"#utility.yul\":4654:4780   */\n      swap2\n      swap1\n      pop\n      jump\t// out\n        /* \"#utility.yul\":4786:4882   */\n    tag_240:\n        /* \"#utility.yul\":4823:4830   */\n      0x00\n        /* \"#utility.yul\":4852:4876   */\n      tag_354\n        /* \"#utility.yul\":4870:4875   */\n      dup3\n        /* \"#utility.yul\":4852:4876   */\n      tag_239\n      jump\t// in\n    tag_354:\n        /* \"#utility.yul\":4841:4876   */\n      swap1\n      pop\n        /* \"#utility.yul\":4786:4882   */\n      swap2\n      swap1\n      pop\n      jump\t// out\n        /* \"#utility.yul\":4888:4996   */\n    tag_241:\n        /* \"#utility.yul\":4965:4989   */\n      tag_356\n        /* \"#utility.yul\":4983:4988   */\n      dup2\n        /* \"#utility.yul\":4965:4989   */\n      tag_240\n      jump\t// in\n    tag_356:\n        /* \"#utility.yul\":4960:4963   */\n      dup3\n        /* \"#utility.yul\":4953:4990   */\n      mstore\n        /* \"#utility.yul\":4888:4996   */\n      pop\n      pop\n      jump\t// out\n        /* \"#utility.yul\":5002:5110   */\n    tag_242:\n        /* \"#utility.yul\":5079:5103   */\n      tag_358\n        /* \"#utility.yul\":5097:5102   */\n      dup2\n        /* \"#utility.yul\":5079:5103   */\n      tag_221\n      jump\t// in\n    tag_358:\n        /* \"#utility.yul\":5074:5077   */\n      dup3\n        /* \"#utility.yul\":5067:5104   */\n      mstore\n        /* \"#utility.yul\":5002:5110   */\n      pop\n      pop\n      jump\t// out\n        /* \"#utility.yul\":5164:7375   */\n    tag_243:\n        /* \"#utility.yul\":5281:5284   */\n      0x00\n        /* \"#utility.yul\":5317:5323   */\n      0x0120\n        /* \"#utility.yul\":5312:5315   */\n      dup4\n        /* \"#utility.yul\":5308:5324   */\n      add\n        /* \"#utility.yul\":5410:5414   */\n      0x00\n        /* \"#utility.yul\":5403:5408   */\n      dup4\n        /* \"#utility.yul\":5399:5415   */\n      add\n        /* \"#utility.yul\":5393:5416   */\n      mload\n        /* \"#utility.yul\":5463:5466   */\n      dup5\n        /* \"#utility.yul\":5457:5461   */\n      dup3\n        /* \"#utility.yul\":5453:5467   */\n      sub\n        /* \"#utility.yul\":5446:5450   */\n      0x00\n        /* \"#utility.yul\":5441:5444   */\n      dup7\n        /* \"#utility.yul\":5437:5451   */\n      add\n        /* \"#utility.yul\":5430:5468   */\n      mstore\n        /* \"#utility.yul\":5489:5562   */\n      tag_360\n        /* \"#utility.yul\":5557:5561   */\n      dup3\n        /* \"#utility.yul\":5543:5555   */\n      dup3\n        /* \"#utility.yul\":5489:5562   */\n      tag_236\n      jump\t// in\n    tag_360:\n        /* \"#utility.yul\":5481:5562   */\n      swap2\n      pop\n        /* \"#utility.yul\":5334:5573   */\n      pop\n        /* \"#utility.yul\":5654:5658   */\n      0x20\n        /* \"#utility.yul\":5647:5652   */\n      dup4\n        /* \"#utility.yul\":5643:5659   */\n      add\n        /* \"#utility.yul\":5637:5660   */\n      mload\n        /* \"#utility.yul\":5707:5710   */\n      dup5\n        /* \"#utility.yul\":5701:5705   */\n      dup3\n        /* \"#utility.yul\":5697:5711   */\n      sub\n        /* \"#utility.yul\":5690:5694   */\n      0x20\n        /* \"#utility.yul\":5685:5688   */\n      dup7\n        /* \"#utility.yul\":5681:5695   */\n      add\n        /* \"#utility.yul\":5674:5712   */\n      mstore\n        /* \"#utility.yul\":5733:5806   */\n      tag_361\n        /* \"#utility.yul\":5801:5805   */\n      dup3\n        /* \"#utility.yul\":5787:5799   */\n      dup3\n        /* \"#utility.yul\":5733:5806   */\n      tag_236\n      jump\t// in\n    tag_361:\n        /* \"#utility.yul\":5725:5806   */\n      swap2\n      pop\n        /* \"#utility.yul\":5583:5817   */\n      pop\n        /* \"#utility.yul\":5906:5910   */\n      0x40\n        /* \"#utility.yul\":5899:5904   */\n      dup4\n        /* \"#utility.yul\":5895:5911   */\n      add\n        /* \"#utility.yul\":5889:5912   */\n      mload\n        /* \"#utility.yul\":5959:5962   */\n      dup5\n        /* \"#utility.yul\":5953:5957   */\n      dup3\n        /* \"#utility.yul\":5949:5963   */\n      sub\n        /* \"#utility.yul\":5942:5946   */\n      0x40\n        /* \"#utility.yul\":5937:5940   */\n      dup7\n        /* \"#utility.yul\":5933:5947   */\n      add\n        /* \"#utility.yul\":5926:5964   */\n      mstore\n        /* \"#utility.yul\":5985:6058   */\n      tag_362\n        /* \"#utility.yul\":6053:6057   */\n      dup3\n        /* \"#utility.yul\":6039:6051   */\n      dup3\n        /* \"#utility.yul\":5985:6058   */\n      tag_236\n      jump\t// in\n    tag_362:\n        /* \"#utility.yul\":5977:6058   */\n      swap2\n      pop\n        /* \"#utility.yul\":5827:6069   */\n      pop\n        /* \"#utility.yul\":6151:6155   */\n      0x60\n        /* \"#utility.yul\":6144:6149   */\n      dup4\n        /* \"#utility.yul\":6140:6156   */\n      add\n        /* \"#utility.yul\":6134:6157   */\n      mload\n        /* \"#utility.yul\":6204:6207   */\n      dup5\n        /* \"#utility.yul\":6198:6202   */\n      dup3\n        /* \"#utility.yul\":6194:6208   */\n      sub\n        /* \"#utility.yul\":6187:6191   */\n      0x60\n        /* \"#utility.yul\":6182:6185   */\n      dup7\n        /* \"#utility.yul\":6178:6192   */\n      add\n        /* \"#utility.yul\":6171:6209   */\n      mstore\n        /* \"#utility.yul\":6230:6303   */\n      tag_363\n        /* \"#utility.yul\":6298:6302   */\n      dup3\n        /* \"#utility.yul\":6284:6296   */\n      dup3\n        /* \"#utility.yul\":6230:6303   */\n      tag_236\n      jump\t// in\n    tag_363:\n        /* \"#utility.yul\":6222:6303   */\n      swap2\n      pop\n        /* \"#utility.yul\":6079:6314   */\n      pop\n        /* \"#utility.yul\":6397:6401   */\n      0x80\n        /* \"#utility.yul\":6390:6395   */\n      dup4\n        /* \"#utility.yul\":6386:6402   */\n      add\n        /* \"#utility.yul\":6380:6403   */\n      mload\n        /* \"#utility.yul\":6450:6453   */\n      dup5\n        /* \"#utility.yul\":6444:6448   */\n      dup3\n        /* \"#utility.yul\":6440:6454   */\n      sub\n        /* \"#utility.yul\":6433:6437   */\n      0x80\n        /* \"#utility.yul\":6428:6431   */\n      dup7\n        /* \"#utility.yul\":6424:6438   */\n      add\n        /* \"#utility.yul\":6417:6455   */\n      mstore\n        /* \"#utility.yul\":6476:6549   */\n      tag_364\n        /* \"#utility.yul\":6544:6548   */\n      dup3\n        /* \"#utility.yul\":6530:6542   */\n      dup3\n        /* \"#utility.yul\":6476:6549   */\n      tag_236\n      jump\t// in\n    tag_364:\n        /* \"#utility.yul\":6468:6549   */\n      swap2\n      pop\n        /* \"#utility.yul\":6324:6560   */\n      pop\n        /* \"#utility.yul\":6649:6653   */\n      0xa0\n        /* \"#utility.yul\":6642:6647   */\n      dup4\n        /* \"#utility.yul\":6638:6654   */\n      add\n        /* \"#utility.yul\":6632:6655   */\n      mload\n        /* \"#utility.yul\":6668:6727   */\n      tag_365\n        /* \"#utility.yul\":6721:6725   */\n      0xa0\n        /* \"#utility.yul\":6716:6719   */\n      dup7\n        /* \"#utility.yul\":6712:6726   */\n      add\n        /* \"#utility.yul\":6698:6710   */\n      dup3\n        /* \"#utility.yul\":6668:6727   */\n      tag_238\n      jump\t// in\n    tag_365:\n        /* \"#utility.yul\":6570:6737   */\n      pop\n        /* \"#utility.yul\":6826:6830   */\n      0xc0\n        /* \"#utility.yul\":6819:6824   */\n      dup4\n        /* \"#utility.yul\":6815:6831   */\n      add\n        /* \"#utility.yul\":6809:6832   */\n      mload\n        /* \"#utility.yul\":6879:6882   */\n      dup5\n        /* \"#utility.yul\":6873:6877   */\n      dup3\n        /* \"#utility.yul\":6869:6883   */\n      sub\n        /* \"#utility.yul\":6862:6866   */\n      0xc0\n        /* \"#utility.yul\":6857:6860   */\n      dup7\n        /* \"#utility.yul\":6853:6867   */\n      add\n        /* \"#utility.yul\":6846:6884   */\n      mstore\n        /* \"#utility.yul\":6905:6978   */\n      tag_366\n        /* \"#utility.yul\":6973:6977   */\n      dup3\n        /* \"#utility.yul\":6959:6971   */\n      dup3\n        /* \"#utility.yul\":6905:6978   */\n      tag_236\n      jump\t// in\n    tag_366:\n        /* \"#utility.yul\":6897:6978   */\n      swap2\n      pop\n        /* \"#utility.yul\":6747:6989   */\n      pop\n        /* \"#utility.yul\":7079:7083   */\n      0xe0\n        /* \"#utility.yul\":7072:7077   */\n      dup4\n        /* \"#utility.yul\":7068:7084   */\n      add\n        /* \"#utility.yul\":7062:7085   */\n      mload\n        /* \"#utility.yul\":7098:7161   */\n      tag_367\n        /* \"#utility.yul\":7155:7159   */\n      0xe0\n        /* \"#utility.yul\":7150:7153   */\n      dup7\n        /* \"#utility.yul\":7146:7160   */\n      add\n        /* \"#utility.yul\":7132:7144   */\n      dup3\n        /* \"#utility.yul\":7098:7161   */\n      tag_241\n      jump\t// in\n    tag_367:\n        /* \"#utility.yul\":6999:7171   */\n      pop\n        /* \"#utility.yul\":7252:7258   */\n      0x0100\n        /* \"#utility.yul\":7245:7250   */\n      dup4\n        /* \"#utility.yul\":7241:7259   */\n      add\n        /* \"#utility.yul\":7235:7260   */\n      mload\n        /* \"#utility.yul\":7273:7338   */\n      tag_368\n        /* \"#utility.yul\":7330:7336   */\n      0x0100\n        /* \"#utility.yul\":7325:7328   */\n      dup7\n        /* \"#utility.yul\":7321:7337   */\n      add\n        /* \"#utility.yul\":7307:7319   */\n      dup3\n        /* \"#utility.yul\":7273:7338   */\n      tag_242\n      jump\t// in\n    tag_368:\n        /* \"#utility.yul\":7181:7348   */\n      pop\n        /* \"#utility.yul\":7365:7369   */\n      dup1\n        /* \"#utility.yul\":7358:7369   */\n      swap2\n      pop\n        /* \"#utility.yul\":5286:7375   */\n      pop\n        /* \"#utility.yul\":5164:7375   */\n      swap3\n      swap2\n      pop\n      pop\n      jump\t// out\n        /* \"#utility.yul\":7381:7750   */\n    tag_12:\n        /* \"#utility.yul\":7522:7526   */\n      0x00\n        /* \"#utility.yul\":7560:7562   */\n      0x20\n        /* \"#utility.yul\":7549:7558   */\n      dup3\n        /* \"#utility.yul\":7545:7563   */\n      add\n        /* \"#utility.yul\":7537:7563   */\n      swap1\n      pop\n        /* \"#utility.yul\":7609:7618   */\n      dup2\n        /* \"#utility.yul\":7603:7607   */\n      dup2\n        /* \"#utility.yul\":7599:7619   */\n      sub\n        /* \"#utility.yul\":7595:7596   */\n      0x00\n        /* \"#utility.yul\":7584:7593   */\n      dup4\n        /* \"#utility.yul\":7580:7597   */\n      add\n        /* \"#utility.yul\":7573:7620   */\n      mstore\n        /* \"#utility.yul\":7637:7743   */\n      tag_370\n        /* \"#utility.yul\":7738:7742   */\n      dup2\n        /* \"#utility.yul\":7729:7735   */\n      dup5\n        /* \"#utility.yul\":7637:7743   */\n      tag_243\n      jump\t// in\n    tag_370:\n        /* \"#utility.yul\":7629:7743   */\n      swap1\n      pop\n        /* \"#utility.yul\":7381:7750   */\n      swap3\n      swap2\n      pop\n      pop\n      jump\t// out\n        /* \"#utility.yul\":7756:7878   */\n    tag_244:\n        /* \"#utility.yul\":7829:7853   */\n      tag_372\n        /* \"#utility.yul\":7847:7852   */\n      dup2\n        /* \"#utility.yul\":7829:7853   */\n      tag_240\n      jump\t// in\n    tag_372:\n        /* \"#utility.yul\":7822:7827   */\n      dup2\n        /* \"#utility.yul\":7819:7854   */\n      eq\n        /* \"#utility.yul\":7809:7872   */\n      tag_373\n      jumpi\n        /* \"#utility.yul\":7868:7869   */\n      0x00\n        /* \"#utility.yul\":7865:7866   */\n      dup1\n        /* \"#utility.yul\":7858:7870   */\n      revert\n        /* \"#utility.yul\":7809:7872   */\n    tag_373:\n        /* \"#utility.yul\":7756:7878   */\n      pop\n      jump\t// out\n        /* \"#utility.yul\":7884:8023   */\n    tag_245:\n        /* \"#utility.yul\":7930:7935   */\n      0x00\n        /* \"#utility.yul\":7968:7974   */\n      dup2\n        /* \"#utility.yul\":7955:7975   */\n      calldataload\n        /* \"#utility.yul\":7946:7975   */\n      swap1\n      pop\n        /* \"#utility.yul\":7984:8017   */\n      tag_375\n        /* \"#utility.yul\":8011:8016   */\n      dup2\n        /* \"#utility.yul\":7984:8017   */\n      tag_244\n      jump\t// in\n    tag_375:\n        /* \"#utility.yul\":7884:8023   */\n      swap3\n      swap2\n      pop\n      pop\n      jump\t// out\n        /* \"#utility.yul\":8029:10132   */\n    tag_15:\n        /* \"#utility.yul\":8192:8198   */\n      0x00\n        /* \"#utility.yul\":8200:8206   */\n      dup1\n        /* \"#utility.yul\":8208:8214   */\n      0x00\n        /* \"#utility.yul\":8216:8222   */\n      dup1\n        /* \"#utility.yul\":8224:8230   */\n      0x00\n        /* \"#utility.yul\":8232:8238   */\n      dup1\n        /* \"#utility.yul\":8240:8246   */\n      0x00\n        /* \"#utility.yul\":8289:8292   */\n      0xe0\n        /* \"#utility.yul\":8277:8286   */\n      dup9\n        /* \"#utility.yul\":8268:8275   */\n      dup11\n        /* \"#utility.yul\":8264:8287   */\n      sub\n        /* \"#utility.yul\":8260:8293   */\n      slt\n        /* \"#utility.yul\":8257:8377   */\n      iszero\n      tag_377\n      jumpi\n        /* \"#utility.yul\":8296:8375   */\n      tag_378\n      tag_219\n      jump\t// in\n    tag_378:\n        /* \"#utility.yul\":8257:8377   */\n    tag_377:\n        /* \"#utility.yul\":8416:8417   */\n      0x00\n        /* \"#utility.yul\":8441:8494   */\n      tag_379\n        /* \"#utility.yul\":8486:8493   */\n      dup11\n        /* \"#utility.yul\":8477:8483   */\n      dup3\n        /* \"#utility.yul\":8466:8475   */\n      dup12\n        /* \"#utility.yul\":8462:8484   */\n      add\n        /* \"#utility.yul\":8441:8494   */\n      tag_223\n      jump\t// in\n    tag_379:\n        /* \"#utility.yul\":8431:8494   */\n      swap8\n      pop\n        /* \"#utility.yul\":8387:8504   */\n      pop\n        /* \"#utility.yul\":8571:8573   */\n      0x20\n        /* \"#utility.yul\":8560:8569   */\n      dup9\n        /* \"#utility.yul\":8556:8574   */\n      add\n        /* \"#utility.yul\":8543:8575   */\n      calldataload\n        /* \"#utility.yul\":8602:8620   */\n      0xffffffffffffffff\n        /* \"#utility.yul\":8594:8600   */\n      dup2\n        /* \"#utility.yul\":8591:8621   */\n      gt\n        /* \"#utility.yul\":8588:8705   */\n      iszero\n      tag_380\n      jumpi\n        /* \"#utility.yul\":8624:8703   */\n      tag_381\n      tag_220\n      jump\t// in\n    tag_381:\n        /* \"#utility.yul\":8588:8705   */\n    tag_380:\n        /* \"#utility.yul\":8729:8792   */\n      tag_382\n        /* \"#utility.yul\":8784:8791   */\n      dup11\n        /* \"#utility.yul\":8775:8781   */\n      dup3\n        /* \"#utility.yul\":8764:8773   */\n      dup12\n        /* \"#utility.yul\":8760:8782   */\n      add\n        /* \"#utility.yul\":8729:8792   */\n      tag_232\n      jump\t// in\n    tag_382:\n        /* \"#utility.yul\":8719:8792   */\n      swap7\n      pop\n        /* \"#utility.yul\":8514:8802   */\n      pop\n        /* \"#utility.yul\":8869:8871   */\n      0x40\n        /* \"#utility.yul\":8858:8867   */\n      dup9\n        /* \"#utility.yul\":8854:8872   */\n      add\n        /* \"#utility.yul\":8841:8873   */\n      calldataload\n        /* \"#utility.yul\":8900:8918   */\n      0xffffffffffffffff\n        /* \"#utility.yul\":8892:8898   */\n      dup2\n        /* \"#utility.yul\":8889:8919   */\n      gt\n        /* \"#utility.yul\":8886:9003   */\n      iszero\n      tag_383\n      jumpi\n        /* \"#utility.yul\":8922:9001   */\n      tag_384\n      tag_220\n      jump\t// in\n    tag_384:\n        /* \"#utility.yul\":8886:9003   */\n    tag_383:\n        /* \"#utility.yul\":9027:9090   */\n      tag_385\n        /* \"#utility.yul\":9082:9089   */\n      dup11\n        /* \"#utility.yul\":9073:9079   */\n      dup3\n        /* \"#utility.yul\":9062:9071   */\n      dup12\n        /* \"#utility.yul\":9058:9080   */\n      add\n        /* \"#utility.yul\":9027:9090   */\n      tag_232\n      jump\t// in\n    tag_385:\n        /* \"#utility.yul\":9017:9090   */\n      swap6\n      pop\n        /* \"#utility.yul\":8812:9100   */\n      pop\n        /* \"#utility.yul\":9167:9169   */\n      0x60\n        /* \"#utility.yul\":9156:9165   */\n      dup9\n        /* \"#utility.yul\":9152:9170   */\n      add\n        /* \"#utility.yul\":9139:9171   */\n      calldataload\n        /* \"#utility.yul\":9198:9216   */\n      0xffffffffffffffff\n        /* \"#utility.yul\":9190:9196   */\n      dup2\n        /* \"#utility.yul\":9187:9217   */\n      gt\n        /* \"#utility.yul\":9184:9301   */\n      iszero\n      tag_386\n      jumpi\n        /* \"#utility.yul\":9220:9299   */\n      tag_387\n      tag_220\n      jump\t// in\n    tag_387:\n        /* \"#utility.yul\":9184:9301   */\n    tag_386:\n        /* \"#utility.yul\":9325:9388   */\n      tag_388\n        /* \"#utility.yul\":9380:9387   */\n      dup11\n        /* \"#utility.yul\":9371:9377   */\n      dup3\n        /* \"#utility.yul\":9360:9369   */\n      dup12\n        /* \"#utility.yul\":9356:9378   */\n      add\n        /* \"#utility.yul\":9325:9388   */\n      tag_232\n      jump\t// in\n    tag_388:\n        /* \"#utility.yul\":9315:9388   */\n      swap5\n      pop\n        /* \"#utility.yul\":9110:9398   */\n      pop\n        /* \"#utility.yul\":9437:9440   */\n      0x80\n        /* \"#utility.yul\":9464:9517   */\n      tag_389\n        /* \"#utility.yul\":9509:9516   */\n      dup11\n        /* \"#utility.yul\":9500:9506   */\n      dup3\n        /* \"#utility.yul\":9489:9498   */\n      dup12\n        /* \"#utility.yul\":9485:9507   */\n      add\n        /* \"#utility.yul\":9464:9517   */\n      tag_245\n      jump\t// in\n    tag_389:\n        /* \"#utility.yul\":9454:9517   */\n      swap4\n      pop\n        /* \"#utility.yul\":9408:9527   */\n      pop\n        /* \"#utility.yul\":9594:9597   */\n      0xa0\n        /* \"#utility.yul\":9583:9592   */\n      dup9\n        /* \"#utility.yul\":9579:9598   */\n      add\n        /* \"#utility.yul\":9566:9599   */\n      calldataload\n        /* \"#utility.yul\":9626:9644   */\n      0xffffffffffffffff\n        /* \"#utility.yul\":9618:9624   */\n      dup2\n        /* \"#utility.yul\":9615:9645   */\n      gt\n        /* \"#utility.yul\":9612:9729   */\n      iszero\n      tag_390\n      jumpi\n        /* \"#utility.yul\":9648:9727   */\n      tag_391\n      tag_220\n      jump\t// in\n    tag_391:\n        /* \"#utility.yul\":9612:9729   */\n    tag_390:\n        /* \"#utility.yul\":9753:9816   */\n      tag_392\n        /* \"#utility.yul\":9808:9815   */\n      dup11\n        /* \"#utility.yul\":9799:9805   */\n      dup3\n        /* \"#utility.yul\":9788:9797   */\n      dup12\n        /* \"#utility.yul\":9784:9806   */\n      add\n        /* \"#utility.yul\":9753:9816   */\n      tag_232\n      jump\t// in\n    tag_392:\n        /* \"#utility.yul\":9743:9816   */\n      swap3\n      pop\n        /* \"#utility.yul\":9537:9826   */\n      pop\n        /* \"#utility.yul\":9893:9896   */\n      0xc0\n        /* \"#utility.yul\":9882:9891   */\n      dup9\n        /* \"#utility.yul\":9878:9897   */\n      add\n        /* \"#utility.yul\":9865:9898   */\n      calldataload\n        /* \"#utility.yul\":9925:9943   */\n      0xffffffffffffffff\n        /* \"#utility.yul\":9917:9923   */\n      dup2\n        /* \"#utility.yul\":9914:9944   */\n      gt\n        /* \"#utility.yul\":9911:10028   */\n      iszero\n      tag_393\n      jumpi\n        /* \"#utility.yul\":9947:10026   */\n      tag_394\n      tag_220\n      jump\t// in\n    tag_394:\n        /* \"#utility.yul\":9911:10028   */\n    tag_393:\n        /* \"#utility.yul\":10052:10115   */\n      tag_395\n        /* \"#utility.yul\":10107:10114   */\n      dup11\n        /* \"#utility.yul\":10098:10104   */\n      dup3\n        /* \"#utility.yul\":10087:10096   */\n      dup12\n        /* \"#utility.yul\":10083:10105   */\n      add\n        /* \"#utility.yul\":10052:10115   */\n      tag_232\n      jump\t// in\n    tag_395:\n        /* \"#utility.yul\":10042:10115   */\n      swap2\n      pop\n        /* \"#utility.yul\":9836:10125   */\n      pop\n        /* \"#utility.yul\":8029:10132   */\n      swap3\n      swap6\n      swap9\n      swap2\n      swap5\n      swap8\n      pop\n      swap3\n      swap6\n      pop\n      jump\t// out\n        /* \"#utility.yul\":10138:10256   */\n    tag_246:\n        /* \"#utility.yul\":10209:10231   */\n      tag_397\n        /* \"#utility.yul\":10225:10230   */\n      dup2\n        /* \"#utility.yul\":10209:10231   */\n      tag_237\n      jump\t// in\n    tag_397:\n        /* \"#utility.yul\":10202:10207   */\n      dup2\n        /* \"#utility.yul\":10199:10232   */\n      eq\n        /* \"#utility.yul\":10189:10250   */\n      tag_398\n      jumpi\n        /* \"#utility.yul\":10246:10247   */\n      0x00\n        /* \"#utility.yul\":10243:10244   */\n      dup1\n        /* \"#utility.yul\":10236:10248   */\n      revert\n        /* \"#utility.yul\":10189:10250   */\n    tag_398:\n        /* \"#utility.yul\":10138:10256   */\n      pop\n      jump\t// out\n        /* \"#utility.yul\":10262:10397   */\n    tag_247:\n        /* \"#utility.yul\":10306:10311   */\n      0x00\n        /* \"#utility.yul\":10344:10350   */\n      dup2\n        /* \"#utility.yul\":10331:10351   */\n      calldataload\n        /* \"#utility.yul\":10322:10351   */\n      swap1\n      pop\n        /* \"#utility.yul\":10360:10391   */\n      tag_400\n        /* \"#utility.yul\":10385:10390   */\n      dup2\n        /* \"#utility.yul\":10360:10391   */\n      tag_246\n      jump\t// in\n    tag_400:\n        /* \"#utility.yul\":10262:10397   */\n      swap3\n      swap2\n      pop\n      pop\n      jump\t// out\n        /* \"#utility.yul\":10403:12828   */\n    tag_19:\n        /* \"#utility.yul\":10583:10589   */\n      0x00\n        /* \"#utility.yul\":10591:10597   */\n      dup1\n        /* \"#utility.yul\":10599:10605   */\n      0x00\n        /* \"#utility.yul\":10607:10613   */\n      dup1\n        /* \"#utility.yul\":10615:10621   */\n      0x00\n        /* \"#utility.yul\":10623:10629   */\n      dup1\n        /* \"#utility.yul\":10631:10637   */\n      0x00\n        /* \"#utility.yul\":10639:10645   */\n      dup1\n        /* \"#utility.yul\":10688:10691   */\n      0x0100\n        /* \"#utility.yul\":10676:10685   */\n      dup10\n        /* \"#utility.yul\":10667:10674   */\n      dup12\n        /* \"#utility.yul\":10663:10686   */\n      sub\n        /* \"#utility.yul\":10659:10692   */\n      slt\n        /* \"#utility.yul\":10656:10776   */\n      iszero\n      tag_402\n      jumpi\n        /* \"#utility.yul\":10695:10774   */\n      tag_403\n      tag_219\n      jump\t// in\n    tag_403:\n        /* \"#utility.yul\":10656:10776   */\n    tag_402:\n        /* \"#utility.yul\":10843:10844   */\n      0x00\n        /* \"#utility.yul\":10832:10841   */\n      dup10\n        /* \"#utility.yul\":10828:10845   */\n      add\n        /* \"#utility.yul\":10815:10846   */\n      calldataload\n        /* \"#utility.yul\":10873:10891   */\n      0xffffffffffffffff\n        /* \"#utility.yul\":10865:10871   */\n      dup2\n        /* \"#utility.yul\":10862:10892   */\n      gt\n        /* \"#utility.yul\":10859:10976   */\n      iszero\n      tag_404\n      jumpi\n        /* \"#utility.yul\":10895:10974   */\n      tag_405\n      tag_220\n      jump\t// in\n    tag_405:\n        /* \"#utility.yul\":10859:10976   */\n    tag_404:\n        /* \"#utility.yul\":11000:11063   */\n      tag_406\n        /* \"#utility.yul\":11055:11062   */\n      dup12\n        /* \"#utility.yul\":11046:11052   */\n      dup3\n        /* \"#utility.yul\":11035:11044   */\n      dup13\n        /* \"#utility.yul\":11031:11053   */\n      add\n        /* \"#utility.yul\":11000:11063   */\n      tag_232\n      jump\t// in\n    tag_406:\n        /* \"#utility.yul\":10990:11063   */\n      swap9\n      pop\n        /* \"#utility.yul\":10786:11073   */\n      pop\n        /* \"#utility.yul\":11140:11142   */\n      0x20\n        /* \"#utility.yul\":11129:11138   */\n      dup10\n        /* \"#utility.yul\":11125:11143   */\n      add\n        /* \"#utility.yul\":11112:11144   */\n      calldataload\n        /* \"#utility.yul\":11171:11189   */\n      0xffffffffffffffff\n        /* \"#utility.yul\":11163:11169   */\n      dup2\n        /* \"#utility.yul\":11160:11190   */\n      gt\n        /* \"#utility.yul\":11157:11274   */\n      iszero\n      tag_407\n      jumpi\n        /* \"#utility.yul\":11193:11272   */\n      tag_408\n      tag_220\n      jump\t// in\n    tag_408:\n        /* \"#utility.yul\":11157:11274   */\n    tag_407:\n        /* \"#utility.yul\":11298:11361   */\n      tag_409\n        /* \"#utility.yul\":11353:11360   */\n      dup12\n        /* \"#utility.yul\":11344:11350   */\n      dup3\n        /* \"#utility.yul\":11333:11342   */\n      dup13\n        /* \"#utility.yul\":11329:11351   */\n      add\n        /* \"#utility.yul\":11298:11361   */\n      tag_232\n      jump\t// in\n    tag_409:\n        /* \"#utility.yul\":11288:11361   */\n      swap8\n      pop\n        /* \"#utility.yul\":11083:11371   */\n      pop\n        /* \"#utility.yul\":11438:11440   */\n      0x40\n        /* \"#utility.yul\":11427:11436   */\n      dup10\n        /* \"#utility.yul\":11423:11441   */\n      add\n        /* \"#utility.yul\":11410:11442   */\n      calldataload\n        /* \"#utility.yul\":11469:11487   */\n      0xffffffffffffffff\n        /* \"#utility.yul\":11461:11467   */\n      dup2\n        /* \"#utility.yul\":11458:11488   */\n      gt\n        /* \"#utility.yul\":11455:11572   */\n      iszero\n      tag_410\n      jumpi\n        /* \"#utility.yul\":11491:11570   */\n      tag_411\n      tag_220\n      jump\t// in\n    tag_411:\n        /* \"#utility.yul\":11455:11572   */\n    tag_410:\n        /* \"#utility.yul\":11596:11659   */\n      tag_412\n        /* \"#utility.yul\":11651:11658   */\n      dup12\n        /* \"#utility.yul\":11642:11648   */\n      dup3\n        /* \"#utility.yul\":11631:11640   */\n      dup13\n        /* \"#utility.yul\":11627:11649   */\n      add\n        /* \"#utility.yul\":11596:11659   */\n      tag_232\n      jump\t// in\n    tag_412:\n        /* \"#utility.yul\":11586:11659   */\n      swap7\n      pop\n        /* \"#utility.yul\":11381:11669   */\n      pop\n        /* \"#utility.yul\":11736:11738   */\n      0x60\n        /* \"#utility.yul\":11725:11734   */\n      dup10\n        /* \"#utility.yul\":11721:11739   */\n      add\n        /* \"#utility.yul\":11708:11740   */\n      calldataload\n        /* \"#utility.yul\":11767:11785   */\n      0xffffffffffffffff\n        /* \"#utility.yul\":11759:11765   */\n      dup2\n        /* \"#utility.yul\":11756:11786   */\n      gt\n        /* \"#utility.yul\":11753:11870   */\n      iszero\n      tag_413\n      jumpi\n        /* \"#utility.yul\":11789:11868   */\n      tag_414\n      tag_220\n      jump\t// in\n    tag_414:\n        /* \"#utility.yul\":11753:11870   */\n    tag_413:\n        /* \"#utility.yul\":11894:11957   */\n      tag_415\n        /* \"#utility.yul\":11949:11956   */\n      dup12\n        /* \"#utility.yul\":11940:11946   */\n      dup3\n        /* \"#utility.yul\":11929:11938   */\n      dup13\n        /* \"#utility.yul\":11925:11947   */\n      add\n        /* \"#utility.yul\":11894:11957   */\n      tag_232\n      jump\t// in\n    tag_415:\n        /* \"#utility.yul\":11884:11957   */\n      swap6\n      pop\n        /* \"#utility.yul\":11679:11967   */\n      pop\n        /* \"#utility.yul\":12006:12009   */\n      0x80\n        /* \"#utility.yul\":12033:12084   */\n      tag_416\n        /* \"#utility.yul\":12076:12083   */\n      dup12\n        /* \"#utility.yul\":12067:12073   */\n      dup3\n        /* \"#utility.yul\":12056:12065   */\n      dup13\n        /* \"#utility.yul\":12052:12074   */\n      add\n        /* \"#utility.yul\":12033:12084   */\n      tag_247\n      jump\t// in\n    tag_416:\n        /* \"#utility.yul\":12023:12084   */\n      swap5\n      pop\n        /* \"#utility.yul\":11977:12094   */\n      pop\n        /* \"#utility.yul\":12161:12164   */\n      0xa0\n        /* \"#utility.yul\":12150:12159   */\n      dup10\n        /* \"#utility.yul\":12146:12165   */\n      add\n        /* \"#utility.yul\":12133:12166   */\n      calldataload\n        /* \"#utility.yul\":12193:12211   */\n      0xffffffffffffffff\n        /* \"#utility.yul\":12185:12191   */\n      dup2\n        /* \"#utility.yul\":12182:12212   */\n      gt\n        /* \"#utility.yul\":12179:12296   */\n      iszero\n      tag_417\n      jumpi\n        /* \"#utility.yul\":12215:12294   */\n      tag_418\n      tag_220\n      jump\t// in\n    tag_418:\n        /* \"#utility.yul\":12179:12296   */\n    tag_417:\n        /* \"#utility.yul\":12320:12383   */\n      tag_419\n        /* \"#utility.yul\":12375:12382   */\n      dup12\n        /* \"#utility.yul\":12366:12372   */\n      dup3\n        /* \"#utility.yul\":12355:12364   */\n      dup13\n        /* \"#utility.yul\":12351:12373   */\n      add\n        /* \"#utility.yul\":12320:12383   */\n      tag_232\n      jump\t// in\n    tag_419:\n        /* \"#utility.yul\":12310:12383   */\n      swap4\n      pop\n        /* \"#utility.yul\":12104:12393   */\n      pop\n        /* \"#utility.yul\":12432:12435   */\n      0xc0\n        /* \"#utility.yul\":12459:12512   */\n      tag_420\n        /* \"#utility.yul\":12504:12511   */\n      dup12\n        /* \"#utility.yul\":12495:12501   */\n      dup3\n        /* \"#utility.yul\":12484:12493   */\n      dup13\n        /* \"#utility.yul\":12480:12502   */\n      add\n        /* \"#utility.yul\":12459:12512   */\n      tag_245\n      jump\t// in\n    tag_420:\n        /* \"#utility.yul\":12449:12512   */\n      swap3\n      pop\n        /* \"#utility.yul\":12403:12522   */\n      pop\n        /* \"#utility.yul\":12589:12592   */\n      0xe0\n        /* \"#utility.yul\":12578:12587   */\n      dup10\n        /* \"#utility.yul\":12574:12593   */\n      add\n        /* \"#utility.yul\":12561:12594   */\n      calldataload\n        /* \"#utility.yul\":12621:12639   */\n      0xffffffffffffffff\n        /* \"#utility.yul\":12613:12619   */\n      dup2\n        /* \"#utility.yul\":12610:12640   */\n      gt\n        /* \"#utility.yul\":12607:12724   */\n      iszero\n      tag_421\n      jumpi\n        /* \"#utility.yul\":12643:12722   */\n      tag_422\n      tag_220\n      jump\t// in\n    tag_422:\n        /* \"#utility.yul\":12607:12724   */\n    tag_421:\n        /* \"#utility.yul\":12748:12811   */\n      tag_423\n        /* \"#utility.yul\":12803:12810   */\n      dup12\n        /* \"#utility.yul\":12794:12800   */\n      dup3\n        /* \"#utility.yul\":12783:12792   */\n      dup13\n        /* \"#utility.yul\":12779:12801   */\n      add\n        /* \"#utility.yul\":12748:12811   */\n      tag_232\n      jump\t// in\n    tag_423:\n        /* \"#utility.yul\":12738:12811   */\n      swap2\n      pop\n        /* \"#utility.yul\":12532:12821   */\n      pop\n        /* \"#utility.yul\":10403:12828   */\n      swap3\n      swap6\n      swap9\n      pop\n      swap3\n      swap6\n      swap9\n      swap1\n      swap4\n      swap7\n      pop\n      jump\t// out\n        /* \"#utility.yul\":12834:12952   */\n    tag_248:\n        /* \"#utility.yul\":12921:12945   */\n      tag_425\n        /* \"#utility.yul\":12939:12944   */\n      dup2\n        /* \"#utility.yul\":12921:12945   */\n      tag_221\n      jump\t// in\n    tag_425:\n        /* \"#utility.yul\":12916:12919   */\n      dup3\n        /* \"#utility.yul\":12909:12946   */\n      mstore\n        /* \"#utility.yul\":12834:12952   */\n      pop\n      pop\n      jump\t// out\n        /* \"#utility.yul\":12958:13180   */\n    tag_22:\n        /* \"#utility.yul\":13051:13055   */\n      0x00\n        /* \"#utility.yul\":13089:13091   */\n      0x20\n        /* \"#utility.yul\":13078:13087   */\n      dup3\n        /* \"#utility.yul\":13074:13092   */\n      add\n        /* \"#utility.yul\":13066:13092   */\n      swap1\n      pop\n        /* \"#utility.yul\":13102:13173   */\n      tag_427\n        /* \"#utility.yul\":13170:13171   */\n      0x00\n        /* \"#utility.yul\":13159:13168   */\n      dup4\n        /* \"#utility.yul\":13155:13172   */\n      add\n        /* \"#utility.yul\":13146:13152   */\n      dup5\n        /* \"#utility.yul\":13102:13173   */\n      tag_248\n      jump\t// in\n    tag_427:\n        /* \"#utility.yul\":12958:13180   */\n      swap3\n      swap2\n      pop\n      pop\n      jump\t// out\n        /* \"#utility.yul\":13186:13276   */\n    tag_249:\n        /* \"#utility.yul\":13220:13227   */\n      0x00\n        /* \"#utility.yul\":13263:13268   */\n      dup2\n        /* \"#utility.yul\":13256:13269   */\n      iszero\n        /* \"#utility.yul\":13249:13270   */\n      iszero\n        /* \"#utility.yul\":13238:13270   */\n      swap1\n      pop\n        /* \"#utility.yul\":13186:13276   */\n      swap2\n      swap1\n      pop\n      jump\t// out\n        /* \"#utility.yul\":13282:13391   */\n    tag_250:\n        /* \"#utility.yul\":13363:13384   */\n      tag_430\n        /* \"#utility.yul\":13378:13383   */\n      dup2\n        /* \"#utility.yul\":13363:13384   */\n      tag_249\n      jump\t// in\n    tag_430:\n        /* \"#utility.yul\":13358:13361   */\n      dup3\n        /* \"#utility.yul\":13351:13385   */\n      mstore\n        /* \"#utility.yul\":13282:13391   */\n      pop\n      pop\n      jump\t// out\n        /* \"#utility.yul\":13397:13607   */\n    tag_28:\n        /* \"#utility.yul\":13484:13488   */\n      0x00\n        /* \"#utility.yul\":13522:13524   */\n      0x20\n        /* \"#utility.yul\":13511:13520   */\n      dup3\n        /* \"#utility.yul\":13507:13525   */\n      add\n        /* \"#utility.yul\":13499:13525   */\n      swap1\n      pop\n        /* \"#utility.yul\":13535:13600   */\n      tag_432\n        /* \"#utility.yul\":13597:13598   */\n      0x00\n        /* \"#utility.yul\":13586:13595   */\n      dup4\n        /* \"#utility.yul\":13582:13599   */\n      add\n        /* \"#utility.yul\":13573:13579   */\n      dup5\n        /* \"#utility.yul\":13535:13600   */\n      tag_250\n      jump\t// in\n    tag_432:\n        /* \"#utility.yul\":13397:13607   */\n      swap3\n      swap2\n      pop\n      pop\n      jump\t// out\n        /* \"#utility.yul\":13613:13793   */\n    tag_251:\n        /* \"#utility.yul\":13661:13738   */\n      0x4e487b7100000000000000000000000000000000000000000000000000000000\n        /* \"#utility.yul\":13658:13659   */\n      0x00\n        /* \"#utility.yul\":13651:13739   */\n      mstore\n        /* \"#utility.yul\":13758:13762   */\n      0x22\n        /* \"#utility.yul\":13755:13756   */\n      0x04\n        /* \"#utility.yul\":13748:13763   */\n      mstore\n        /* \"#utility.yul\":13782:13786   */\n      0x24\n        /* \"#utility.yul\":13779:13780   */\n      0x00\n        /* \"#utility.yul\":13772:13787   */\n      revert\n        /* \"#utility.yul\":13799:14119   */\n    tag_35:\n        /* \"#utility.yul\":13843:13849   */\n      0x00\n        /* \"#utility.yul\":13880:13881   */\n      0x02\n        /* \"#utility.yul\":13874:13878   */\n      dup3\n        /* \"#utility.yul\":13870:13882   */\n      div\n        /* \"#utility.yul\":13860:13882   */\n      swap1\n      pop\n        /* \"#utility.yul\":13927:13928   */\n      0x01\n        /* \"#utility.yul\":13921:13925   */\n      dup3\n        /* \"#utility.yul\":13917:13929   */\n      and\n        /* \"#utility.yul\":13948:13966   */\n      dup1\n        /* \"#utility.yul\":13938:14019   */\n      tag_435\n      jumpi\n        /* \"#utility.yul\":14004:14008   */\n      0x7f\n        /* \"#utility.yul\":13996:14002   */\n      dup3\n        /* \"#utility.yul\":13992:14009   */\n      and\n        /* \"#utility.yul\":13982:14009   */\n      swap2\n      pop\n        /* \"#utility.yul\":13938:14019   */\n    tag_435:\n        /* \"#utility.yul\":14066:14068   */\n      0x20\n        /* \"#utility.yul\":14058:14064   */\n      dup3\n        /* \"#utility.yul\":14055:14069   */\n      lt\n        /* \"#utility.yul\":14035:14053   */\n      dup2\n        /* \"#utility.yul\":14032:14070   */\n      sub\n        /* \"#utility.yul\":14029:14113   */\n      tag_436\n      jumpi\n        /* \"#utility.yul\":14085:14103   */\n      tag_437\n      tag_251\n      jump\t// in\n    tag_437:\n        /* \"#utility.yul\":14029:14113   */\n    tag_436:\n        /* \"#utility.yul\":13850:14119   */\n      pop\n        /* \"#utility.yul\":13799:14119   */\n      swap2\n      swap1\n      pop\n      jump\t// out\n        /* \"#utility.yul\":14125:14301   */\n    tag_252:\n        /* \"#utility.yul\":14216:14227   */\n      0x00\n        /* \"#utility.yul\":14250:14256   */\n      dup3\n        /* \"#utility.yul\":14245:14248   */\n      dup3\n        /* \"#utility.yul\":14238:14257   */\n      mstore\n        /* \"#utility.yul\":14290:14294   */\n      0x20\n        /* \"#utility.yul\":14285:14288   */\n      dup3\n        /* \"#utility.yul\":14281:14295   */\n      add\n        /* \"#utility.yul\":14266:14295   */\n      swap1\n      pop\n        /* \"#utility.yul\":14125:14301   */\n      swap3\n      swap2\n      pop\n      pop\n      jump\t// out\n        /* \"#utility.yul\":14307:14451   */\n    tag_253:\n        /* \"#utility.yul\":14359:14363   */\n      0x00\n        /* \"#utility.yul\":14382:14385   */\n      dup2\n        /* \"#utility.yul\":14374:14385   */\n      swap1\n      pop\n        /* \"#utility.yul\":14405:14408   */\n      dup2\n        /* \"#utility.yul\":14402:14403   */\n      0x00\n        /* \"#utility.yul\":14395:14409   */\n      mstore\n        /* \"#utility.yul\":14439:14443   */\n      0x20\n        /* \"#utility.yul\":14436:14437   */\n      0x00\n        /* \"#utility.yul\":14426:14444   */\n      keccak256\n        /* \"#utility.yul\":14418:14444   */\n      swap1\n      pop\n        /* \"#utility.yul\":14307:14451   */\n      swap2\n      swap1\n      pop\n      jump\t// out\n        /* \"#utility.yul\":14479:15330   */\n    tag_254:\n        /* \"#utility.yul\":14574:14577   */\n      0x00\n        /* \"#utility.yul\":14611:14616   */\n      dup2\n        /* \"#utility.yul\":14605:14617   */\n      sload\n        /* \"#utility.yul\":14640:14676   */\n      tag_441\n        /* \"#utility.yul\":14666:14675   */\n      dup2\n        /* \"#utility.yul\":14640:14676   */\n      tag_35\n      jump\t// in\n    tag_441:\n        /* \"#utility.yul\":14692:14770   */\n      tag_442\n        /* \"#utility.yul\":14763:14769   */\n      dup2\n        /* \"#utility.yul\":14758:14761   */\n      dup7\n        /* \"#utility.yul\":14692:14770   */\n      tag_252\n      jump\t// in\n    tag_442:\n        /* \"#utility.yul\":14685:14770   */\n      swap5\n      pop\n        /* \"#utility.yul\":14801:14802   */\n      0x01\n        /* \"#utility.yul\":14790:14799   */\n      dup3\n        /* \"#utility.yul\":14786:14803   */\n      and\n        /* \"#utility.yul\":14817:14818   */\n      0x00\n        /* \"#utility.yul\":14812:14976   */\n      dup2\n      eq\n      tag_444\n      jumpi\n        /* \"#utility.yul\":14990:14991   */\n      0x01\n        /* \"#utility.yul\":14985:15324   */\n      dup2\n      eq\n      tag_445\n      jumpi\n        /* \"#utility.yul\":14779:15324   */\n      jump(tag_443)\n        /* \"#utility.yul\":14812:14976   */\n    tag_444:\n        /* \"#utility.yul\":14896:14900   */\n      0xff\n        /* \"#utility.yul\":14892:14901   */\n      not\n        /* \"#utility.yul\":14881:14890   */\n      dup4\n        /* \"#utility.yul\":14877:14902   */\n      and\n        /* \"#utility.yul\":14872:14875   */\n      dup7\n        /* \"#utility.yul\":14865:14903   */\n      mstore\n        /* \"#utility.yul\":14956:14962   */\n      dup2\n        /* \"#utility.yul\":14949:14963   */\n      iszero\n        /* \"#utility.yul\":14942:14964   */\n      iszero\n        /* \"#utility.yul\":14936:14940   */\n      0x20\n        /* \"#utility.yul\":14932:14965   */\n      mul\n        /* \"#utility.yul\":14927:14930   */\n      dup7\n        /* \"#utility.yul\":14923:14966   */\n      add\n        /* \"#utility.yul\":14916:14966   */\n      swap4\n      pop\n        /* \"#utility.yul\":14812:14976   */\n      jump(tag_443)\n        /* \"#utility.yul\":14985:15324   */\n    tag_445:\n        /* \"#utility.yul\":15052:15093   */\n      tag_446\n        /* \"#utility.yul\":15087:15092   */\n      dup6\n        /* \"#utility.yul\":15052:15093   */\n      tag_253\n      jump\t// in\n    tag_446:\n        /* \"#utility.yul\":15115:15116   */\n      0x00\n        /* \"#utility.yul\":15129:15283   */\n    tag_447:\n        /* \"#utility.yul\":15143:15149   */\n      dup4\n        /* \"#utility.yul\":15140:15141   */\n      dup2\n        /* \"#utility.yul\":15137:15150   */\n      lt\n        /* \"#utility.yul\":15129:15283   */\n      iszero\n      tag_449\n      jumpi\n        /* \"#utility.yul\":15217:15224   */\n      dup2\n        /* \"#utility.yul\":15211:15225   */\n      sload\n        /* \"#utility.yul\":15207:15208   */\n      dup2\n        /* \"#utility.yul\":15202:15205   */\n      dup10\n        /* \"#utility.yul\":15198:15209   */\n      add\n        /* \"#utility.yul\":15191:15226   */\n      mstore\n        /* \"#utility.yul\":15267:15268   */\n      0x01\n        /* \"#utility.yul\":15258:15265   */\n      dup3\n        /* \"#utility.yul\":15254:15269   */\n      add\n        /* \"#utility.yul\":15243:15269   */\n      swap2\n      pop\n        /* \"#utility.yul\":15165:15169   */\n      0x20\n        /* \"#utility.yul\":15162:15163   */\n      dup2\n        /* \"#utility.yul\":15158:15170   */\n      add\n        /* \"#utility.yul\":15153:15170   */\n      swap1\n      pop\n        /* \"#utility.yul\":15129:15283   */\n      jump(tag_447)\n    tag_449:\n        /* \"#utility.yul\":15312:15313   */\n      dup1\n        /* \"#utility.yul\":15307:15310   */\n      dup9\n        /* \"#utility.yul\":15303:15314   */\n      add\n        /* \"#utility.yul\":15296:15314   */\n      swap6\n      pop\n        /* \"#utility.yul\":14992:15324   */\n      pop\n      pop\n        /* \"#utility.yul\":14779:15324   */\n    tag_443:\n      pop\n        /* \"#utility.yul\":14578:15330   */\n      pop\n      pop\n        /* \"#utility.yul\":14479:15330   */\n      swap3\n      swap2\n      pop\n      pop\n      jump\t// out\n        /* \"#utility.yul\":15336:15434   */\n    tag_255:\n        /* \"#utility.yul\":15387:15393   */\n      0x00\n        /* \"#utility.yul\":15421:15426   */\n      dup2\n        /* \"#utility.yul\":15415:15427   */\n      mload\n        /* \"#utility.yul\":15405:15427   */\n      swap1\n      pop\n        /* \"#utility.yul\":15336:15434   */\n      swap2\n      swap1\n      pop\n      jump\t// out\n        /* \"#utility.yul\":15440:15829   */\n    tag_256:\n        /* \"#utility.yul\":15534:15537   */\n      0x00\n        /* \"#utility.yul\":15562:15600   */\n      tag_452\n        /* \"#utility.yul\":15594:15599   */\n      dup3\n        /* \"#utility.yul\":15562:15600   */\n      tag_255\n      jump\t// in\n    tag_452:\n        /* \"#utility.yul\":15616:15694   */\n      tag_453\n        /* \"#utility.yul\":15687:15693   */\n      dup2\n        /* \"#utility.yul\":15682:15685   */\n      dup6\n        /* \"#utility.yul\":15616:15694   */\n      tag_252\n      jump\t// in\n    tag_453:\n        /* \"#utility.yul\":15609:15694   */\n      swap4\n      pop\n        /* \"#utility.yul\":15703:15768   */\n      tag_454\n        /* \"#utility.yul\":15761:15767   */\n      dup2\n        /* \"#utility.yul\":15756:15759   */\n      dup6\n        /* \"#utility.yul\":15749:15753   */\n      0x20\n        /* \"#utility.yul\":15742:15747   */\n      dup7\n        /* \"#utility.yul\":15738:15754   */\n      add\n        /* \"#utility.yul\":15703:15768   */\n      tag_235\n      jump\t// in\n    tag_454:\n        /* \"#utility.yul\":15793:15822   */\n      tag_455\n        /* \"#utility.yul\":15815:15821   */\n      dup2\n        /* \"#utility.yul\":15793:15822   */\n      tag_226\n      jump\t// in\n    tag_455:\n        /* \"#utility.yul\":15788:15791   */\n      dup5\n        /* \"#utility.yul\":15784:15823   */\n      add\n        /* \"#utility.yul\":15777:15823   */\n      swap2\n      pop\n        /* \"#utility.yul\":15538:15829   */\n      pop\n        /* \"#utility.yul\":15440:15829   */\n      swap3\n      swap2\n      pop\n      pop\n      jump\t// out\n        /* \"#utility.yul\":15835:16367   */\n    tag_42:\n        /* \"#utility.yul\":16001:16005   */\n      0x00\n        /* \"#utility.yul\":16039:16041   */\n      0x40\n        /* \"#utility.yul\":16028:16037   */\n      dup3\n        /* \"#utility.yul\":16024:16042   */\n      add\n        /* \"#utility.yul\":16016:16042   */\n      swap1\n      pop\n        /* \"#utility.yul\":16088:16097   */\n      dup2\n        /* \"#utility.yul\":16082:16086   */\n      dup2\n        /* \"#utility.yul\":16078:16098   */\n      sub\n        /* \"#utility.yul\":16074:16075   */\n      0x00\n        /* \"#utility.yul\":16063:16072   */\n      dup4\n        /* \"#utility.yul\":16059:16076   */\n      add\n        /* \"#utility.yul\":16052:16099   */\n      mstore\n        /* \"#utility.yul\":16116:16201   */\n      tag_457\n        /* \"#utility.yul\":16196:16200   */\n      dup2\n        /* \"#utility.yul\":16187:16193   */\n      dup6\n        /* \"#utility.yul\":16116:16201   */\n      tag_254\n      jump\t// in\n    tag_457:\n        /* \"#utility.yul\":16108:16201   */\n      swap1\n      pop\n        /* \"#utility.yul\":16248:16257   */\n      dup2\n        /* \"#utility.yul\":16242:16246   */\n      dup2\n        /* \"#utility.yul\":16238:16258   */\n      sub\n        /* \"#utility.yul\":16233:16235   */\n      0x20\n        /* \"#utility.yul\":16222:16231   */\n      dup4\n        /* \"#utility.yul\":16218:16236   */\n      add\n        /* \"#utility.yul\":16211:16259   */\n      mstore\n        /* \"#utility.yul\":16276:16360   */\n      tag_458\n        /* \"#utility.yul\":16355:16359   */\n      dup2\n        /* \"#utility.yul\":16346:16352   */\n      dup5\n        /* \"#utility.yul\":16276:16360   */\n      tag_256\n      jump\t// in\n    tag_458:\n        /* \"#utility.yul\":16268:16360   */\n      swap1\n      pop\n        /* \"#utility.yul\":15835:16367   */\n      swap4\n      swap3\n      pop\n      pop\n      pop\n      jump\t// out\n        /* \"#utility.yul\":16373:16680   */\n    tag_257:\n        /* \"#utility.yul\":16434:16438   */\n      0x00\n        /* \"#utility.yul\":16524:16542   */\n      0xffffffffffffffff\n        /* \"#utility.yul\":16516:16522   */\n      dup3\n        /* \"#utility.yul\":16513:16543   */\n      gt\n        /* \"#utility.yul\":16510:16566   */\n      iszero\n      tag_460\n      jumpi\n        /* \"#utility.yul\":16546:16564   */\n      tag_461\n      tag_187\n      jump\t// in\n    tag_461:\n        /* \"#utility.yul\":16510:16566   */\n    tag_460:\n        /* \"#utility.yul\":16584:16613   */\n      tag_462\n        /* \"#utility.yul\":16606:16612   */\n      dup3\n        /* \"#utility.yul\":16584:16613   */\n      tag_226\n      jump\t// in\n    tag_462:\n        /* \"#utility.yul\":16576:16613   */\n      swap1\n      pop\n        /* \"#utility.yul\":16668:16672   */\n      0x20\n        /* \"#utility.yul\":16662:16666   */\n      dup2\n        /* \"#utility.yul\":16658:16673   */\n      add\n        /* \"#utility.yul\":16650:16673   */\n      swap1\n      pop\n        /* \"#utility.yul\":16373:16680   */\n      swap2\n      swap1\n      pop\n      jump\t// out\n        /* \"#utility.yul\":16686:17118   */\n    tag_258:\n        /* \"#utility.yul\":16774:16779   */\n      0x00\n        /* \"#utility.yul\":16799:16864   */\n      tag_464\n        /* \"#utility.yul\":16815:16863   */\n      tag_465\n        /* \"#utility.yul\":16856:16862   */\n      dup5\n        /* \"#utility.yul\":16815:16863   */\n      tag_257\n      jump\t// in\n    tag_465:\n        /* \"#utility.yul\":16799:16864   */\n      tag_228\n      jump\t// in\n    tag_464:\n        /* \"#utility.yul\":16790:16864   */\n      swap1\n      pop\n        /* \"#utility.yul\":16887:16893   */\n      dup3\n        /* \"#utility.yul\":16880:16885   */\n      dup2\n        /* \"#utility.yul\":16873:16894   */\n      mstore\n        /* \"#utility.yul\":16925:16929   */\n      0x20\n        /* \"#utility.yul\":16918:16923   */\n      dup2\n        /* \"#utility.yul\":16914:16930   */\n      add\n        /* \"#utility.yul\":16963:16966   */\n      dup5\n        /* \"#utility.yul\":16954:16960   */\n      dup5\n        /* \"#utility.yul\":16949:16952   */\n      dup5\n        /* \"#utility.yul\":16945:16961   */\n      add\n        /* \"#utility.yul\":16942:16967   */\n      gt\n        /* \"#utility.yul\":16939:17051   */\n      iszero\n      tag_466\n      jumpi\n        /* \"#utility.yul\":16970:17049   */\n      tag_467\n      tag_225\n      jump\t// in\n    tag_467:\n        /* \"#utility.yul\":16939:17051   */\n    tag_466:\n        /* \"#utility.yul\":17060:17112   */\n      tag_468\n        /* \"#utility.yul\":17105:17111   */\n      dup5\n        /* \"#utility.yul\":17100:17103   */\n      dup3\n        /* \"#utility.yul\":17095:17098   */\n      dup6\n        /* \"#utility.yul\":17060:17112   */\n      tag_235\n      jump\t// in\n    tag_468:\n        /* \"#utility.yul\":16780:17118   */\n      pop\n        /* \"#utility.yul\":16686:17118   */\n      swap4\n      swap3\n      pop\n      pop\n      pop\n      jump\t// out\n        /* \"#utility.yul\":17137:17490   */\n    tag_259:\n        /* \"#utility.yul\":17203:17208   */\n      0x00\n        /* \"#utility.yul\":17252:17255   */\n      dup3\n        /* \"#utility.yul\":17245:17249   */\n      0x1f\n        /* \"#utility.yul\":17237:17243   */\n      dup4\n        /* \"#utility.yul\":17233:17250   */\n      add\n        /* \"#utility.yul\":17229:17256   */\n      slt\n        /* \"#utility.yul\":17219:17341   */\n      tag_470\n      jumpi\n        /* \"#utility.yul\":17260:17339   */\n      tag_471\n      tag_224\n      jump\t// in\n    tag_471:\n        /* \"#utility.yul\":17219:17341   */\n    tag_470:\n        /* \"#utility.yul\":17370:17376   */\n      dup2\n        /* \"#utility.yul\":17364:17377   */\n      mload\n        /* \"#utility.yul\":17395:17484   */\n      tag_472\n        /* \"#utility.yul\":17480:17483   */\n      dup5\n        /* \"#utility.yul\":17472:17478   */\n      dup3\n        /* \"#utility.yul\":17465:17469   */\n      0x20\n        /* \"#utility.yul\":17457:17463   */\n      dup7\n        /* \"#utility.yul\":17453:17470   */\n      add\n        /* \"#utility.yul\":17395:17484   */\n      tag_258\n      jump\t// in\n    tag_472:\n        /* \"#utility.yul\":17386:17484   */\n      swap2\n      pop\n        /* \"#utility.yul\":17209:17490   */\n      pop\n        /* \"#utility.yul\":17137:17490   */\n      swap3\n      swap2\n      pop\n      pop\n      jump\t// out\n        /* \"#utility.yul\":17496:18018   */\n    tag_46:\n        /* \"#utility.yul\":17575:17581   */\n      0x00\n        /* \"#utility.yul\":17624:17626   */\n      0x20\n        /* \"#utility.yul\":17612:17621   */\n      dup3\n        /* \"#utility.yul\":17603:17610   */\n      dup5\n        /* \"#utility.yul\":17599:17622   */\n      sub\n        /* \"#utility.yul\":17595:17627   */\n      slt\n        /* \"#utility.yul\":17592:17711   */\n      iszero\n      tag_474\n      jumpi\n        /* \"#utility.yul\":17630:17709   */\n      tag_475\n      tag_219\n      jump\t// in\n    tag_475:\n        /* \"#utility.yul\":17592:17711   */\n    tag_474:\n        /* \"#utility.yul\":17771:17772   */\n      0x00\n        /* \"#utility.yul\":17760:17769   */\n      dup3\n        /* \"#utility.yul\":17756:17773   */\n      add\n        /* \"#utility.yul\":17750:17774   */\n      mload\n        /* \"#utility.yul\":17801:17819   */\n      0xffffffffffffffff\n        /* \"#utility.yul\":17793:17799   */\n      dup2\n        /* \"#utility.yul\":17790:17820   */\n      gt\n        /* \"#utility.yul\":17787:17904   */\n      iszero\n      tag_476\n      jumpi\n        /* \"#utility.yul\":17823:17902   */\n      tag_477\n      tag_220\n      jump\t// in\n    tag_477:\n        /* \"#utility.yul\":17787:17904   */\n    tag_476:\n        /* \"#utility.yul\":17928:18001   */\n      tag_478\n        /* \"#utility.yul\":17993:18000   */\n      dup5\n        /* \"#utility.yul\":17984:17990   */\n      dup3\n        /* \"#utility.yul\":17973:17982   */\n      dup6\n        /* \"#utility.yul\":17969:17991   */\n      add\n        /* \"#utility.yul\":17928:18001   */\n      tag_259\n      jump\t// in\n    tag_478:\n        /* \"#utility.yul\":17918:18001   */\n      swap2\n      pop\n        /* \"#utility.yul\":17721:18011   */\n      pop\n        /* \"#utility.yul\":17496:18018   */\n      swap3\n      swap2\n      pop\n      pop\n      jump\t// out\n        /* \"#utility.yul\":18024:18165   */\n    tag_260:\n        /* \"#utility.yul\":18073:18077   */\n      0x00\n        /* \"#utility.yul\":18096:18099   */\n      dup2\n        /* \"#utility.yul\":18088:18099   */\n      swap1\n      pop\n        /* \"#utility.yul\":18119:18122   */\n      dup2\n        /* \"#utility.yul\":18116:18117   */\n      0x00\n        /* \"#utility.yul\":18109:18123   */\n      mstore\n        /* \"#utility.yul\":18153:18157   */\n      0x20\n        /* \"#utility.yul\":18150:18151   */\n      0x00\n        /* \"#utility.yul\":18140:18158   */\n      keccak256\n        /* \"#utility.yul\":18132:18158   */\n      swap1\n      pop\n        /* \"#utility.yul\":18024:18165   */\n      swap2\n      swap1\n      pop\n      jump\t// out\n        /* \"#utility.yul\":18171:18264   */\n    tag_261:\n        /* \"#utility.yul\":18208:18214   */\n      0x00\n        /* \"#utility.yul\":18255:18257   */\n      0x20\n        /* \"#utility.yul\":18250:18252   */\n      0x1f\n        /* \"#utility.yul\":18243:18248   */\n      dup4\n        /* \"#utility.yul\":18239:18253   */\n      add\n        /* \"#utility.yul\":18235:18258   */\n      div\n        /* \"#utility.yul\":18225:18258   */\n      swap1\n      pop\n        /* \"#utility.yul\":18171:18264   */\n      swap2\n      swap1\n      pop\n      jump\t// out\n        /* \"#utility.yul\":18270:18377   */\n    tag_262:\n        /* \"#utility.yul\":18314:18322   */\n      0x00\n        /* \"#utility.yul\":18364:18369   */\n      dup3\n        /* \"#utility.yul\":18358:18362   */\n      dup3\n        /* \"#utility.yul\":18354:18370   */\n      shl\n        /* \"#utility.yul\":18333:18370   */\n      swap1\n      pop\n        /* \"#utility.yul\":18270:18377   */\n      swap3\n      swap2\n      pop\n      pop\n      jump\t// out\n        /* \"#utility.yul\":18383:18776   */\n    tag_263:\n        /* \"#utility.yul\":18452:18458   */\n      0x00\n        /* \"#utility.yul\":18502:18503   */\n      0x08\n        /* \"#utility.yul\":18490:18500   */\n      dup4\n        /* \"#utility.yul\":18486:18504   */\n      mul\n        /* \"#utility.yul\":18525:18622   */\n      tag_483\n        /* \"#utility.yul\":18555:18621   */\n      0xffffffffffffffffffffffffffffffffffffffffffffffffffffffffffffffff\n        /* \"#utility.yul\":18544:18553   */\n      dup3\n        /* \"#utility.yul\":18525:18622   */\n      tag_262\n      jump\t// in\n    tag_483:\n        /* \"#utility.yul\":18643:18682   */\n      tag_484\n        /* \"#utility.yul\":18673:18681   */\n      dup7\n        /* \"#utility.yul\":18662:18671   */\n      dup4\n        /* \"#utility.yul\":18643:18682   */\n      tag_262\n      jump\t// in\n    tag_484:\n        /* \"#utility.yul\":18631:18682   */\n      swap6\n      pop\n        /* \"#utility.yul\":18715:18719   */\n      dup1\n        /* \"#utility.yul\":18711:18720   */\n      not\n        /* \"#utility.yul\":18704:18709   */\n      dup5\n        /* \"#utility.yul\":18700:18721   */\n      and\n        /* \"#utility.yul\":18691:18721   */\n      swap4\n      pop\n        /* \"#utility.yul\":18764:18768   */\n      dup1\n        /* \"#utility.yul\":18754:18762   */\n      dup7\n        /* \"#utility.yul\":18750:18769   */\n      and\n        /* \"#utility.yul\":18743:18748   */\n      dup5\n        /* \"#utility.yul\":18740:18770   */\n      or\n        /* \"#utility.yul\":18730:18770   */\n      swap3\n      pop\n        /* \"#utility.yul\":18459:18776   */\n      pop\n      pop\n        /* \"#utility.yul\":18383:18776   */\n      swap4\n      swap3\n      pop\n      pop\n      pop\n      jump\t// out\n        /* \"#utility.yul\":18782:18859   */\n    tag_264:\n        /* \"#utility.yul\":18819:18826   */\n      0x00\n        /* \"#utility.yul\":18848:18853   */\n      dup2\n        /* \"#utility.yul\":18837:18853   */\n      swap1\n      pop\n        /* \"#utility.yul\":18782:18859   */\n      swap2\n      swap1\n      pop\n      jump\t// out\n        /* \"#utility.yul\":18865:18925   */\n    tag_265:\n        /* \"#utility.yul\":18893:18896   */\n      0x00\n        /* \"#utility.yul\":18914:18919   */\n      dup2\n        /* \"#utility.yul\":18907:18919   */\n      swap1\n      pop\n        /* \"#utility.yul\":18865:18925   */\n      swap2\n      swap1\n      pop\n      jump\t// out\n        /* \"#utility.yul\":18931:19073   */\n    tag_266:\n        /* \"#utility.yul\":18981:18990   */\n      0x00\n        /* \"#utility.yul\":19014:19067   */\n      tag_488\n        /* \"#utility.yul\":19032:19066   */\n      tag_489\n        /* \"#utility.yul\":19041:19065   */\n      tag_490\n        /* \"#utility.yul\":19059:19064   */\n      dup5\n        /* \"#utility.yul\":19041:19065   */\n      tag_264\n      jump\t// in\n    tag_490:\n        /* \"#utility.yul\":19032:19066   */\n      tag_265\n      jump\t// in\n    tag_489:\n        /* \"#utility.yul\":19014:19067   */\n      tag_264\n      jump\t// in\n    tag_488:\n        /* \"#utility.yul\":19001:19067   */\n      swap1\n      pop\n        /* \"#utility.yul\":18931:19073   */\n      swap2\n      swap1\n      pop\n      jump\t// out\n        /* \"#utility.yul\":19079:19154   */\n    tag_267:\n        /* \"#utility.yul\":19122:19125   */\n      0x00\n        /* \"#utility.yul\":19143:19148   */\n      dup2\n        /* \"#utility.yul\":19136:19148   */\n      swap1\n      pop\n        /* \"#utility.yul\":19079:19154   */\n      swap2\n      swap1\n      pop\n      jump\t// out\n        /* \"#utility.yul\":19160:19429   */\n    tag_268:\n        /* \"#utility.yul\":19270:19309   */\n      tag_493\n        /* \"#utility.yul\":19301:19308   */\n      dup4\n        /* \"#utility.yul\":19270:19309   */\n      tag_266\n      jump\t// in\n    tag_493:\n        /* \"#utility.yul\":19331:19422   */\n      tag_494\n        /* \"#utility.yul\":19380:19421   */\n      tag_495\n        /* \"#utility.yul\":19404:19420   */\n      dup3\n        /* \"#utility.yul\":19380:19421   */\n      tag_267\n      jump\t// in\n    tag_495:\n        /* \"#utility.yul\":19372:19378   */\n      dup5\n        /* \"#utility.yul\":19365:19369   */\n      dup5\n        /* \"#utility.yul\":19359:19370   */\n      sload\n        /* \"#utility.yul\":19331:19422   */\n      tag_263\n      jump\t// in\n    tag_494:\n        /* \"#utility.yul\":19325:19329   */\n      dup3\n        /* \"#utility.yul\":19318:19423   */\n      sstore\n        /* \"#utility.yul\":19236:19429   */\n      pop\n        /* \"#utility.yul\":19160:19429   */\n      pop\n      pop\n      pop\n      jump\t// out\n        /* \"#utility.yul\":19435:19508   */\n    tag_269:\n        /* \"#utility.yul\":19480:19483   */\n      0x00\n        /* \"#utility.yul\":19435:19508   */\n      swap1\n      jump\t// out\n        /* \"#utility.yul\":19514:19703   */\n    tag_270:\n        /* \"#utility.yul\":19591:19623   */\n      tag_498\n      tag_269\n      jump\t// in\n    tag_498:\n        /* \"#utility.yul\":19632:19697   */\n      tag_499\n        /* \"#utility.yul\":19690:19696   */\n      dup2\n        /* \"#utility.yul\":19682:19688   */\n      dup5\n        /* \"#utility.yul\":19676:19680   */\n      dup5\n        /* \"#utility.yul\":19632:19697   */\n      tag_268\n      jump\t// in\n    tag_499:\n        /* \"#utility.yul\":19567:19703   */\n      pop\n        /* \"#utility.yul\":19514:19703   */\n      pop\n      pop\n      jump\t// out\n        /* \"#utility.yul\":19709:19895   */\n    tag_271:\n        /* \"#utility.yul\":19769:19889   */\n    tag_501:\n        /* \"#utility.yul\":19786:19789   */\n      dup2\n        /* \"#utility.yul\":19779:19784   */\n      dup2\n        /* \"#utility.yul\":19776:19790   */\n      lt\n        /* \"#utility.yul\":19769:19889   */\n      iszero\n      tag_503\n      jumpi\n        /* \"#utility.yul\":19840:19879   */\n      tag_504\n        /* \"#utility.yul\":19877:19878   */\n      0x00\n        /* \"#utility.yul\":19870:19875   */\n      dup3\n        /* \"#utility.yul\":19840:19879   */\n      tag_270\n      jump\t// in\n    tag_504:\n        /* \"#utility.yul\":19813:19814   */\n      0x01\n        /* \"#utility.yul\":19806:19811   */\n      dup2\n        /* \"#utility.yul\":19802:19815   */\n      add\n        /* \"#utility.yul\":19793:19815   */\n      swap1\n      pop\n        /* \"#utility.yul\":19769:19889   */\n      jump(tag_501)\n    tag_503:\n        /* \"#utility.yul\":19709:19895   */\n      pop\n      pop\n      jump\t// out\n        /* \"#utility.yul\":19901:20444   */\n    tag_272:\n        /* \"#utility.yul\":20002:20004   */\n      0x1f\n        /* \"#utility.yul\":19997:20000   */\n      dup3\n        /* \"#utility.yul\":19994:20005   */\n      gt\n        /* \"#utility.yul\":19991:20437   */\n      iszero\n      tag_506\n      jumpi\n        /* \"#utility.yul\":20036:20074   */\n      tag_507\n        /* \"#utility.yul\":20068:20073   */\n      dup2\n        /* \"#utility.yul\":20036:20074   */\n      tag_260\n      jump\t// in\n    tag_507:\n        /* \"#utility.yul\":20120:20149   */\n      tag_508\n        /* \"#utility.yul\":20138:20148   */\n      dup5\n        /* \"#utility.yul\":20120:20149   */\n      tag_261\n      jump\t// in\n    tag_508:\n        /* \"#utility.yul\":20110:20118   */\n      dup2\n        /* \"#utility.yul\":20106:20150   */\n      add\n        /* \"#utility.yul\":20303:20305   */\n      0x20\n        /* \"#utility.yul\":20291:20301   */\n      dup6\n        /* \"#utility.yul\":20288:20306   */\n      lt\n        /* \"#utility.yul\":20285:20334   */\n      iszero\n      tag_509\n      jumpi\n        /* \"#utility.yul\":20324:20332   */\n      dup2\n        /* \"#utility.yul\":20309:20332   */\n      swap1\n      pop\n        /* \"#utility.yul\":20285:20334   */\n    tag_509:\n        /* \"#utility.yul\":20347:20427   */\n      tag_510\n        /* \"#utility.yul\":20403:20425   */\n      tag_511\n        /* \"#utility.yul\":20421:20424   */\n      dup6\n        /* \"#utility.yul\":20403:20425   */\n      tag_261\n      jump\t// in\n    tag_511:\n        /* \"#utility.yul\":20393:20401   */\n      dup4\n        /* \"#utility.yul\":20389:20426   */\n      add\n        /* \"#utility.yul\":20376:20387   */\n      dup3\n        /* \"#utility.yul\":20347:20427   */\n      tag_271\n      jump\t// in\n    tag_510:\n        /* \"#utility.yul\":20006:20437   */\n      pop\n      pop\n        /* \"#utility.yul\":19991:20437   */\n    tag_506:\n        /* \"#utility.yul\":19901:20444   */\n      pop\n      pop\n      pop\n      jump\t// out\n        /* \"#utility.yul\":20450:20567   */\n    tag_273:\n        /* \"#utility.yul\":20504:20512   */\n      0x00\n        /* \"#utility.yul\":20554:20559   */\n      dup3\n        /* \"#utility.yul\":20548:20552   */\n      dup3\n        /* \"#utility.yul\":20544:20560   */\n      shr\n        /* \"#utility.yul\":20523:20560   */\n      swap1\n      pop\n        /* \"#utility.yul\":20450:20567   */\n      swap3\n      swap2\n      pop\n      pop\n      jump\t// out\n        /* \"#utility.yul\":20573:20742   */\n    tag_274:\n        /* \"#utility.yul\":20617:20623   */\n      0x00\n        /* \"#utility.yul\":20650:20701   */\n      tag_514\n        /* \"#utility.yul\":20698:20699   */\n      0x00\n        /* \"#utility.yul\":20694:20700   */\n      not\n        /* \"#utility.yul\":20686:20691   */\n      dup5\n        /* \"#utility.yul\":20683:20684   */\n      0x08\n        /* \"#utility.yul\":20679:20692   */\n      mul\n        /* \"#utility.yul\":20650:20701   */\n      tag_273\n      jump\t// in\n    tag_514:\n        /* \"#utility.yul\":20646:20702   */\n      not\n        /* \"#utility.yul\":20731:20735   */\n      dup1\n        /* \"#utility.yul\":20725:20729   */\n      dup4\n        /* \"#utility.yul\":20721:20736   */\n      and\n        /* \"#utility.yul\":20711:20736   */\n      swap2\n      pop\n        /* \"#utility.yul\":20624:20742   */\n      pop\n        /* \"#utility.yul\":20573:20742   */\n      swap3\n      swap2\n      pop\n      pop\n      jump\t// out\n        /* \"#utility.yul\":20747:21042   */\n    tag_275:\n        /* \"#utility.yul\":20823:20827   */\n      0x00\n        /* \"#utility.yul\":20969:20998   */\n      tag_516\n        /* \"#utility.yul\":20994:20997   */\n      dup4\n        /* \"#utility.yul\":20988:20992   */\n      dup4\n        /* \"#utility.yul\":20969:20998   */\n      tag_274\n      jump\t// in\n    tag_516:\n        /* \"#utility.yul\":20961:20998   */\n      swap2\n      pop\n        /* \"#utility.yul\":21031:21034   */\n      dup3\n        /* \"#utility.yul\":21028:21029   */\n      0x02\n        /* \"#utility.yul\":21024:21035   */\n      mul\n        /* \"#utility.yul\":21018:21022   */\n      dup3\n        /* \"#utility.yul\":21015:21036   */\n      or\n        /* \"#utility.yul\":21007:21036   */\n      swap1\n      pop\n        /* \"#utility.yul\":20747:21042   */\n      swap3\n      swap2\n      pop\n      pop\n      jump\t// out\n        /* \"#utility.yul\":21047:22442   */\n    tag_102:\n        /* \"#utility.yul\":21164:21201   */\n      tag_518\n        /* \"#utility.yul\":21197:21200   */\n      dup3\n        /* \"#utility.yul\":21164:21201   */\n      tag_233\n      jump\t// in\n    tag_518:\n        /* \"#utility.yul\":21266:21284   */\n      0xffffffffffffffff\n        /* \"#utility.yul\":21258:21264   */\n      dup2\n        /* \"#utility.yul\":21255:21285   */\n      gt\n        /* \"#utility.yul\":21252:21308   */\n      iszero\n      tag_519\n      jumpi\n        /* \"#utility.yul\":21288:21306   */\n      tag_520\n      tag_187\n      jump\t// in\n    tag_520:\n        /* \"#utility.yul\":21252:21308   */\n    tag_519:\n        /* \"#utility.yul\":21332:21370   */\n      tag_521\n        /* \"#utility.yul\":21364:21368   */\n      dup3\n        /* \"#utility.yul\":21358:21369   */\n      sload\n        /* \"#utility.yul\":21332:21370   */\n      tag_35\n      jump\t// in\n    tag_521:\n        /* \"#utility.yul\":21417:21484   */\n      tag_522\n        /* \"#utility.yul\":21477:21483   */\n      dup3\n        /* \"#utility.yul\":21469:21475   */\n      dup3\n        /* \"#utility.yul\":21463:21467   */\n      dup6\n        /* \"#utility.yul\":21417:21484   */\n      tag_272\n      jump\t// in\n    tag_522:\n        /* \"#utility.yul\":21511:21512   */\n      0x00\n        /* \"#utility.yul\":21535:21539   */\n      0x20\n        /* \"#utility.yul\":21522:21539   */\n      swap1\n      pop\n        /* \"#utility.yul\":21567:21569   */\n      0x1f\n        /* \"#utility.yul\":21559:21565   */\n      dup4\n        /* \"#utility.yul\":21556:21570   */\n      gt\n        /* \"#utility.yul\":21584:21585   */\n      0x01\n        /* \"#utility.yul\":21579:22197   */\n      dup2\n      eq\n      tag_524\n      jumpi\n        /* \"#utility.yul\":22241:22242   */\n      0x00\n        /* \"#utility.yul\":22258:22264   */\n      dup5\n        /* \"#utility.yul\":22255:22332   */\n      iszero\n      tag_525\n      jumpi\n        /* \"#utility.yul\":22307:22316   */\n      dup3\n        /* \"#utility.yul\":22302:22305   */\n      dup8\n        /* \"#utility.yul\":22298:22317   */\n      add\n        /* \"#utility.yul\":22292:22318   */\n      mload\n        /* \"#utility.yul\":22283:22318   */\n      swap1\n      pop\n        /* \"#utility.yul\":22255:22332   */\n    tag_525:\n        /* \"#utility.yul\":22358:22425   */\n      tag_526\n        /* \"#utility.yul\":22418:22424   */\n      dup6\n        /* \"#utility.yul\":22411:22416   */\n      dup3\n        /* \"#utility.yul\":22358:22425   */\n      tag_275\n      jump\t// in\n    tag_526:\n        /* \"#utility.yul\":22352:22356   */\n      dup7\n        /* \"#utility.yul\":22345:22426   */\n      sstore\n        /* \"#utility.yul\":22214:22436   */\n      pop\n        /* \"#utility.yul\":21549:22436   */\n      jump(tag_523)\n        /* \"#utility.yul\":21579:22197   */\n    tag_524:\n        /* \"#utility.yul\":21631:21635   */\n      0x1f\n        /* \"#utility.yul\":21627:21636   */\n      not\n        /* \"#utility.yul\":21619:21625   */\n      dup5\n        /* \"#utility.yul\":21615:21637   */\n      and\n        /* \"#utility.yul\":21665:21702   */\n      tag_527\n        /* \"#utility.yul\":21697:21701   */\n      dup7\n        /* \"#utility.yul\":21665:21702   */\n      tag_260\n      jump\t// in\n    tag_527:\n        /* \"#utility.yul\":21724:21725   */\n      0x00\n        /* \"#utility.yul\":21738:21946   */\n    tag_528:\n        /* \"#utility.yul\":21752:21759   */\n      dup3\n        /* \"#utility.yul\":21749:21750   */\n      dup2\n        /* \"#utility.yul\":21746:21760   */\n      lt\n        /* \"#utility.yul\":21738:21946   */\n      iszero\n      tag_530\n      jumpi\n        /* \"#utility.yul\":21831:21840   */\n      dup5\n        /* \"#utility.yul\":21826:21829   */\n      dup10\n        /* \"#utility.yul\":21822:21841   */\n      add\n        /* \"#utility.yul\":21816:21842   */\n      mload\n        /* \"#utility.yul\":21808:21814   */\n      dup3\n        /* \"#utility.yul\":21801:21843   */\n      sstore\n        /* \"#utility.yul\":21882:21883   */\n      0x01\n        /* \"#utility.yul\":21874:21880   */\n      dup3\n        /* \"#utility.yul\":21870:21884   */\n      add\n        /* \"#utility.yul\":21860:21884   */\n      swap2\n      pop\n        /* \"#utility.yul\":21929:21931   */\n      0x20\n        /* \"#utility.yul\":21918:21927   */\n      dup6\n        /* \"#utility.yul\":21914:21932   */\n      add\n        /* \"#utility.yul\":21901:21932   */\n      swap5\n      pop\n        /* \"#utility.yul\":21775:21779   */\n      0x20\n        /* \"#utility.yul\":21772:21773   */\n      dup2\n        /* \"#utility.yul\":21768:21780   */\n      add\n        /* \"#utility.yul\":21763:21780   */\n      swap1\n      pop\n        /* \"#utility.yul\":21738:21946   */\n      jump(tag_528)\n    tag_530:\n        /* \"#utility.yul\":21974:21980   */\n      dup7\n        /* \"#utility.yul\":21965:21972   */\n      dup4\n        /* \"#utility.yul\":21962:21981   */\n      lt\n        /* \"#utility.yul\":21959:22138   */\n      iszero\n      tag_531\n      jumpi\n        /* \"#utility.yul\":22032:22041   */\n      dup5\n        /* \"#utility.yul\":22027:22030   */\n      dup10\n        /* \"#utility.yul\":22023:22042   */\n      add\n        /* \"#utility.yul\":22017:22043   */\n      mload\n        /* \"#utility.yul\":22075:22123   */\n      tag_532\n        /* \"#utility.yul\":22117:22121   */\n      0x1f\n        /* \"#utility.yul\":22109:22115   */\n      dup10\n        /* \"#utility.yul\":22105:22122   */\n      and\n        /* \"#utility.yul\":22094:22103   */\n      dup3\n        /* \"#utility.yul\":22075:22123   */\n      tag_274\n      jump\t// in\n    tag_532:\n        /* \"#utility.yul\":22067:22073   */\n      dup4\n        /* \"#utility.yul\":22060:22124   */\n      sstore\n        /* \"#utility.yul\":21982:22138   */\n      pop\n        /* \"#utility.yul\":21959:22138   */\n    tag_531:\n        /* \"#utility.yul\":22184:22185   */\n      0x01\n        /* \"#utility.yul\":22180:22181   */\n      0x02\n        /* \"#utility.yul\":22172:22178   */\n      dup9\n        /* \"#utility.yul\":22168:22182   */\n      mul\n        /* \"#utility.yul\":22164:22186   */\n      add\n        /* \"#utility.yul\":22158:22162   */\n      dup9\n        /* \"#utility.yul\":22151:22187   */\n      sstore\n        /* \"#utility.yul\":21586:22197   */\n      pop\n      pop\n      pop\n        /* \"#utility.yul\":21549:22436   */\n    tag_523:\n      pop\n        /* \"#utility.yul\":21139:22442   */\n      pop\n      pop\n      pop\n        /* \"#utility.yul\":21047:22442   */\n      pop\n      pop\n      jump\t// out\n        /* \"#utility.yul\":22448:22617   */\n    tag_276:\n        /* \"#utility.yul\":22532:22543   */\n      0x00\n        /* \"#utility.yul\":22566:22572   */\n      dup3\n        /* \"#utility.yul\":22561:22564   */\n      dup3\n        /* \"#utility.yul\":22554:22573   */\n      mstore\n        /* \"#utility.yul\":22606:22610   */\n      0x20\n        /* \"#utility.yul\":22601:22604   */\n      dup3\n        /* \"#utility.yul\":22597:22611   */\n      add\n        /* \"#utility.yul\":22582:22611   */\n      swap1\n      pop\n        /* \"#utility.yul\":22448:22617   */\n      swap3\n      swap2\n      pop\n      pop\n      jump\t// out\n        /* \"#utility.yul\":22623:22793   */\n    tag_277:\n        /* \"#utility.yul\":22763:22785   */\n      0x496e76616c696420636f6d70616e792074797065000000000000000000000000\n        /* \"#utility.yul\":22759:22760   */\n      0x00\n        /* \"#utility.yul\":22751:22757   */\n      dup3\n        /* \"#utility.yul\":22747:22761   */\n      add\n        /* \"#utility.yul\":22740:22786   */\n      mstore\n        /* \"#utility.yul\":22623:22793   */\n      pop\n      jump\t// out\n        /* \"#utility.yul\":22799:23165   */\n    tag_278:\n        /* \"#utility.yul\":22941:22944   */\n      0x00\n        /* \"#utility.yul\":22962:23029   */\n      tag_536\n        /* \"#utility.yul\":23026:23028   */\n      0x14\n        /* \"#utility.yul\":23021:23024   */\n      dup4\n        /* \"#utility.yul\":22962:23029   */\n      tag_276\n      jump\t// in\n    tag_536:\n        /* \"#utility.yul\":22955:23029   */\n      swap2\n      pop\n        /* \"#utility.yul\":23038:23131   */\n      tag_537\n        /* \"#utility.yul\":23127:23130   */\n      dup3\n        /* \"#utility.yul\":23038:23131   */\n      tag_277\n      jump\t// in\n    tag_537:\n        /* \"#utility.yul\":23156:23158   */\n      0x20\n        /* \"#utility.yul\":23151:23154   */\n      dup3\n        /* \"#utility.yul\":23147:23159   */\n      add\n        /* \"#utility.yul\":23140:23159   */\n      swap1\n      pop\n        /* \"#utility.yul\":22799:23165   */\n      swap2\n      swap1\n      pop\n      jump\t// out\n        /* \"#utility.yul\":23171:23590   */\n    tag_111:\n        /* \"#utility.yul\":23337:23341   */\n      0x00\n        /* \"#utility.yul\":23375:23377   */\n      0x20\n        /* \"#utility.yul\":23364:23373   */\n      dup3\n        /* \"#utility.yul\":23360:23378   */\n      add\n        /* \"#utility.yul\":23352:23378   */\n      swap1\n      pop\n        /* \"#utility.yul\":23424:23433   */\n      dup2\n        /* \"#utility.yul\":23418:23422   */\n      dup2\n        /* \"#utility.yul\":23414:23434   */\n      sub\n        /* \"#utility.yul\":23410:23411   */\n      0x00\n        /* \"#utility.yul\":23399:23408   */\n      dup4\n        /* \"#utility.yul\":23395:23412   */\n      add\n        /* \"#utility.yul\":23388:23435   */\n      mstore\n        /* \"#utility.yul\":23452:23583   */\n      tag_539\n        /* \"#utility.yul\":23578:23582   */\n      dup2\n        /* \"#utility.yul\":23452:23583   */\n      tag_278\n      jump\t// in\n    tag_539:\n        /* \"#utility.yul\":23444:23583   */\n      swap1\n      pop\n        /* \"#utility.yul\":23171:23590   */\n      swap2\n      swap1\n      pop\n      jump\t// out\n        /* \"#utility.yul\":23596:23757   */\n    tag_279:\n        /* \"#utility.yul\":23736:23749   */\n      0x496e76616c69642053534e000000000000000000000000000000000000000000\n        /* \"#utility.yul\":23732:23733   */\n      0x00\n        /* \"#utility.yul\":23724:23730   */\n      dup3\n        /* \"#utility.yul\":23720:23734   */\n      add\n        /* \"#utility.yul\":23713:23750   */\n      mstore\n        /* \"#utility.yul\":23596:23757   */\n      pop\n      jump\t// out\n        /* \"#utility.yul\":23763:24129   */\n    tag_280:\n        /* \"#utility.yul\":23905:23908   */\n      0x00\n        /* \"#utility.yul\":23926:23993   */\n      tag_542\n        /* \"#utility.yul\":23990:23992   */\n      0x0b\n        /* \"#utility.yul\":23985:23988   */\n      dup4\n        /* \"#utility.yul\":23926:23993   */\n      tag_276\n      jump\t// in\n    tag_542:\n        /* \"#utility.yul\":23919:23993   */\n      swap2\n      pop\n        /* \"#utility.yul\":24002:24095   */\n      tag_543\n        /* \"#utility.yul\":24091:24094   */\n      dup3\n        /* \"#utility.yul\":24002:24095   */\n      tag_279\n      jump\t// in\n    tag_543:\n        /* \"#utility.yul\":24120:24122   */\n      0x20\n        /* \"#utility.yul\":24115:24118   */\n      dup3\n        /* \"#utility.yul\":24111:24123   */\n      add\n        /* \"#utility.yul\":24104:24123   */\n      swap1\n      pop\n        /* \"#utility.yul\":23763:24129   */\n      swap2\n      swap1\n      pop\n      jump\t// out\n        /* \"#utility.yul\":24135:24554   */\n    tag_114:\n        /* \"#utility.yul\":24301:24305   */\n      0x00\n        /* \"#utility.yul\":24339:24341   */\n      0x20\n        /* \"#utility.yul\":24328:24337   */\n      dup3\n        /* \"#utility.yul\":24324:24342   */\n      add\n        /* \"#utility.yul\":24316:24342   */\n      swap1\n      pop\n        /* \"#utility.yul\":24388:24397   */\n      dup2\n        /* \"#utility.yul\":24382:24386   */\n      dup2\n        /* \"#utility.yul\":24378:24398   */\n      sub\n        /* \"#utility.yul\":24374:24375   */\n      0x00\n        /* \"#utility.yul\":24363:24372   */\n      dup4\n        /* \"#utility.yul\":24359:24376   */\n      add\n        /* \"#utility.yul\":24352:24399   */\n      mstore\n        /* \"#utility.yul\":24416:24547   */\n      tag_545\n        /* \"#utility.yul\":24542:24546   */\n      dup2\n        /* \"#utility.yul\":24416:24547   */\n      tag_280\n      jump\t// in\n    tag_545:\n        /* \"#utility.yul\":24408:24547   */\n      swap1\n      pop\n        /* \"#utility.yul\":24135:24554   */\n      swap2\n      swap1\n      pop\n      jump\t// out\n        /* \"#utility.yul\":24560:24722   */\n    tag_281:\n        /* \"#utility.yul\":24700:24714   */\n      0x496e76616c6964206e616d650000000000000000000000000000000000000000\n        /* \"#utility.yul\":24696:24697   */\n      0x00\n        /* \"#utility.yul\":24688:24694   */\n      dup3\n        /* \"#utility.yul\":24684:24698   */\n      add\n        /* \"#utility.yul\":24677:24715   */\n      mstore\n        /* \"#utility.yul\":24560:24722   */\n      pop\n      jump\t// out\n        /* \"#utility.yul\":24728:25094   */\n    tag_282:\n        /* \"#utility.yul\":24870:24873   */\n      0x00\n        /* \"#utility.yul\":24891:24958   */\n      tag_548\n        /* \"#utility.yul\":24955:24957   */\n      0x0c\n        /* \"#utility.yul\":24950:24953   */\n      dup4\n        /* \"#utility.yul\":24891:24958   */\n      tag_276\n      jump\t// in\n    tag_548:\n        /* \"#utility.yul\":24884:24958   */\n      swap2\n      pop\n        /* \"#utility.yul\":24967:25060   */\n      tag_549\n        /* \"#utility.yul\":25056:25059   */\n      dup3\n        /* \"#utility.yul\":24967:25060   */\n      tag_281\n      jump\t// in\n    tag_549:\n        /* \"#utility.yul\":25085:25087   */\n      0x20\n        /* \"#utility.yul\":25080:25083   */\n      dup3\n        /* \"#utility.yul\":25076:25088   */\n      add\n        /* \"#utility.yul\":25069:25088   */\n      swap1\n      pop\n        /* \"#utility.yul\":24728:25094   */\n      swap2\n      swap1\n      pop\n      jump\t// out\n        /* \"#utility.yul\":25100:25519   */\n    tag_117:\n        /* \"#utility.yul\":25266:25270   */\n      0x00\n        /* \"#utility.yul\":25304:25306   */\n      0x20\n        /* \"#utility.yul\":25293:25302   */\n      dup3\n        /* \"#utility.yul\":25289:25307   */\n      add\n        /* \"#utility.yul\":25281:25307   */\n      swap1\n      pop\n        /* \"#utility.yul\":25353:25362   */\n      dup2\n        /* \"#utility.yul\":25347:25351   */\n      dup2\n        /* \"#utility.yul\":25343:25363   */\n      sub\n        /* \"#utility.yul\":25339:25340   */\n      0x00\n        /* \"#utility.yul\":25328:25337   */\n      dup4\n        /* \"#utility.yul\":25324:25341   */\n      add\n        /* \"#utility.yul\":25317:25364   */\n      mstore\n        /* \"#utility.yul\":25381:25512   */\n      tag_551\n        /* \"#utility.yul\":25507:25511   */\n      dup2\n        /* \"#utility.yul\":25381:25512   */\n      tag_282\n      jump\t// in\n    tag_551:\n        /* \"#utility.yul\":25373:25512   */\n      swap1\n      pop\n        /* \"#utility.yul\":25100:25519   */\n      swap2\n      swap1\n      pop\n      jump\t// out\n        /* \"#utility.yul\":25525:25690   */\n    tag_283:\n        /* \"#utility.yul\":25665:25682   */\n      0x496e76616c696420616464726573730000000000000000000000000000000000\n        /* \"#utility.yul\":25661:25662   */\n      0x00\n        /* \"#utility.yul\":25653:25659   */\n      dup3\n        /* \"#utility.yul\":25649:25663   */\n      add\n        /* \"#utility.yul\":25642:25683   */\n      mstore\n        /* \"#utility.yul\":25525:25690   */\n      pop\n      jump\t// out\n        /* \"#utility.yul\":25696:26062   */\n    tag_284:\n        /* \"#utility.yul\":25838:25841   */\n      0x00\n        /* \"#utility.yul\":25859:25926   */\n      tag_554\n        /* \"#utility.yul\":25923:25925   */\n      0x0f\n        /* \"#utility.yul\":25918:25921   */\n      dup4\n        /* \"#utility.yul\":25859:25926   */\n      tag_276\n      jump\t// in\n    tag_554:\n        /* \"#utility.yul\":25852:25926   */\n      swap2\n      pop\n        /* \"#utility.yul\":25935:26028   */\n      tag_555\n        /* \"#utility.yul\":26024:26027   */\n      dup3\n        /* \"#utility.yul\":25935:26028   */\n      tag_283\n      jump\t// in\n    tag_555:\n        /* \"#utility.yul\":26053:26055   */\n      0x20\n        /* \"#utility.yul\":26048:26051   */\n      dup3\n        /* \"#utility.yul\":26044:26056   */\n      add\n        /* \"#utility.yul\":26037:26056   */\n      swap1\n      pop\n        /* \"#utility.yul\":25696:26062   */\n      swap2\n      swap1\n      pop\n      jump\t// out\n        /* \"#utility.yul\":26068:26487   */\n    tag_120:\n        /* \"#utility.yul\":26234:26238   */\n      0x00\n        /* \"#utility.yul\":26272:26274   */\n      0x20\n        /* \"#utility.yul\":26261:26270   */\n      dup3\n        /* \"#utility.yul\":26257:26275   */\n      add\n        /* \"#utility.yul\":26249:26275   */\n      swap1\n      pop\n        /* \"#utility.yul\":26321:26330   */\n      dup2\n        /* \"#utility.yul\":26315:26319   */\n      dup2\n        /* \"#utility.yul\":26311:26331   */\n      sub\n        /* \"#utility.yul\":26307:26308   */\n      0x00\n        /* \"#utility.yul\":26296:26305   */\n      dup4\n        /* \"#utility.yul\":26292:26309   */\n      add\n        /* \"#utility.yul\":26285:26332   */\n      mstore\n        /* \"#utility.yul\":26349:26480   */\n      tag_557\n        /* \"#utility.yul\":26475:26479   */\n      dup2\n        /* \"#utility.yul\":26349:26480   */\n      tag_284\n      jump\t// in\n    tag_557:\n        /* \"#utility.yul\":26341:26480   */\n      swap1\n      pop\n        /* \"#utility.yul\":26068:26487   */\n      swap2\n      swap1\n      pop\n      jump\t// out\n        /* \"#utility.yul\":26493:26661   */\n    tag_285:\n        /* \"#utility.yul\":26633:26653   */\n      0x50617373776f726420746f6f2073686f72740000000000000000000000000000\n        /* \"#utility.yul\":26629:26630   */\n      0x00\n        /* \"#utility.yul\":26621:26627   */\n      dup3\n        /* \"#utility.yul\":26617:26631   */\n      add\n        /* \"#utility.yul\":26610:26654   */\n      mstore\n        /* \"#utility.yul\":26493:26661   */\n      pop\n      jump\t// out\n        /* \"#utility.yul\":26667:27033   */\n    tag_286:\n        /* \"#utility.yul\":26809:26812   */\n      0x00\n        /* \"#utility.yul\":26830:26897   */\n      tag_560\n        /* \"#utility.yul\":26894:26896   */\n      0x12\n        /* \"#utility.yul\":26889:26892   */\n      dup4\n        /* \"#utility.yul\":26830:26897   */\n      tag_276\n      jump\t// in\n    tag_560:\n        /* \"#utility.yul\":26823:26897   */\n      swap2\n      pop\n        /* \"#utility.yul\":26906:26999   */\n      tag_561\n        /* \"#utility.yul\":26995:26998   */\n      dup3\n        /* \"#utility.yul\":26906:26999   */\n      tag_285\n      jump\t// in\n    tag_561:\n        /* \"#utility.yul\":27024:27026   */\n      0x20\n        /* \"#utility.yul\":27019:27022   */\n      dup3\n        /* \"#utility.yul\":27015:27027   */\n      add\n        /* \"#utility.yul\":27008:27027   */\n      swap1\n      pop\n        /* \"#utility.yul\":26667:27033   */\n      swap2\n      swap1\n      pop\n      jump\t// out\n        /* \"#utility.yul\":27039:27458   */\n    tag_123:\n        /* \"#utility.yul\":27205:27209   */\n      0x00\n        /* \"#utility.yul\":27243:27245   */\n      0x20\n        /* \"#utility.yul\":27232:27241   */\n      dup3\n        /* \"#utility.yul\":27228:27246   */\n      add\n        /* \"#utility.yul\":27220:27246   */\n      swap1\n      pop\n        /* \"#utility.yul\":27292:27301   */\n      dup2\n        /* \"#utility.yul\":27286:27290   */\n      dup2\n        /* \"#utility.yul\":27282:27302   */\n      sub\n        /* \"#utility.yul\":27278:27279   */\n      0x00\n        /* \"#utility.yul\":27267:27276   */\n      dup4\n        /* \"#utility.yul\":27263:27280   */\n      add\n        /* \"#utility.yul\":27256:27303   */\n      mstore\n        /* \"#utility.yul\":27320:27451   */\n      tag_563\n        /* \"#utility.yul\":27446:27450   */\n      dup2\n        /* \"#utility.yul\":27320:27451   */\n      tag_286\n      jump\t// in\n    tag_563:\n        /* \"#utility.yul\":27312:27451   */\n      swap1\n      pop\n        /* \"#utility.yul\":27039:27458   */\n      swap2\n      swap1\n      pop\n      jump\t// out\n        /* \"#utility.yul\":27464:27636   */\n    tag_287:\n        /* \"#utility.yul\":27604:27628   */\n      0x50686f6e65206e756d62657220746f6f2073686f727400000000000000000000\n        /* \"#utility.yul\":27600:27601   */\n      0x00\n        /* \"#utility.yul\":27592:27598   */\n      dup3\n        /* \"#utility.yul\":27588:27602   */\n      add\n        /* \"#utility.yul\":27581:27629   */\n      mstore\n        /* \"#utility.yul\":27464:27636   */\n      pop\n      jump\t// out\n        /* \"#utility.yul\":27642:28008   */\n    tag_288:\n        /* \"#utility.yul\":27784:27787   */\n      0x00\n        /* \"#utility.yul\":27805:27872   */\n      tag_566\n        /* \"#utility.yul\":27869:27871   */\n      0x16\n        /* \"#utility.yul\":27864:27867   */\n      dup4\n        /* \"#utility.yul\":27805:27872   */\n      tag_276\n      jump\t// in\n    tag_566:\n        /* \"#utility.yul\":27798:27872   */\n      swap2\n      pop\n        /* \"#utility.yul\":27881:27974   */\n      tag_567\n        /* \"#utility.yul\":27970:27973   */\n      dup3\n        /* \"#utility.yul\":27881:27974   */\n      tag_287\n      jump\t// in\n    tag_567:\n        /* \"#utility.yul\":27999:28001   */\n      0x20\n        /* \"#utility.yul\":27994:27997   */\n      dup3\n        /* \"#utility.yul\":27990:28002   */\n      add\n        /* \"#utility.yul\":27983:28002   */\n      swap1\n      pop\n        /* \"#utility.yul\":27642:28008   */\n      swap2\n      swap1\n      pop\n      jump\t// out\n        /* \"#utility.yul\":28014:28433   */\n    tag_126:\n        /* \"#utility.yul\":28180:28184   */\n      0x00\n        /* \"#utility.yul\":28218:28220   */\n      0x20\n        /* \"#utility.yul\":28207:28216   */\n      dup3\n        /* \"#utility.yul\":28203:28221   */\n      add\n        /* \"#utility.yul\":28195:28221   */\n      swap1\n      pop\n        /* \"#utility.yul\":28267:28276   */\n      dup2\n        /* \"#utility.yul\":28261:28265   */\n      dup2\n        /* \"#utility.yul\":28257:28277   */\n      sub\n        /* \"#utility.yul\":28253:28254   */\n      0x00\n        /* \"#utility.yul\":28242:28251   */\n      dup4\n        /* \"#utility.yul\":28238:28255   */\n      add\n        /* \"#utility.yul\":28231:28278   */\n      mstore\n        /* \"#utility.yul\":28295:28426   */\n      tag_569\n        /* \"#utility.yul\":28421:28425   */\n      dup2\n        /* \"#utility.yul\":28295:28426   */\n      tag_288\n      jump\t// in\n    tag_569:\n        /* \"#utility.yul\":28287:28426   */\n      swap1\n      pop\n        /* \"#utility.yul\":28014:28433   */\n      swap2\n      swap1\n      pop\n      jump\t// out\n        /* \"#utility.yul\":28439:28587   */\n    tag_289:\n        /* \"#utility.yul\":28541:28552   */\n      0x00\n        /* \"#utility.yul\":28578:28581   */\n      dup2\n        /* \"#utility.yul\":28563:28581   */\n      swap1\n      pop\n        /* \"#utility.yul\":28439:28587   */\n      swap3\n      swap2\n      pop\n      pop\n      jump\t// out\n        /* \"#utility.yul\":28593:28983   */\n    tag_290:\n        /* \"#utility.yul\":28699:28702   */\n      0x00\n        /* \"#utility.yul\":28727:28766   */\n      tag_572\n        /* \"#utility.yul\":28760:28765   */\n      dup3\n        /* \"#utility.yul\":28727:28766   */\n      tag_233\n      jump\t// in\n    tag_572:\n        /* \"#utility.yul\":28782:28871   */\n      tag_573\n        /* \"#utility.yul\":28864:28870   */\n      dup2\n        /* \"#utility.yul\":28859:28862   */\n      dup6\n        /* \"#utility.yul\":28782:28871   */\n      tag_289\n      jump\t// in\n    tag_573:\n        /* \"#utility.yul\":28775:28871   */\n      swap4\n      pop\n        /* \"#utility.yul\":28880:28945   */\n      tag_574\n        /* \"#utility.yul\":28938:28944   */\n      dup2\n        /* \"#utility.yul\":28933:28936   */\n      dup6\n        /* \"#utility.yul\":28926:28930   */\n      0x20\n        /* \"#utility.yul\":28919:28924   */\n      dup7\n        /* \"#utility.yul\":28915:28931   */\n      add\n        /* \"#utility.yul\":28880:28945   */\n      tag_235\n      jump\t// in\n    tag_574:\n        /* \"#utility.yul\":28970:28976   */\n      dup1\n        /* \"#utility.yul\":28965:28968   */\n      dup5\n        /* \"#utility.yul\":28961:28977   */\n      add\n        /* \"#utility.yul\":28954:28977   */\n      swap2\n      pop\n        /* \"#utility.yul\":28703:28983   */\n      pop\n        /* \"#utility.yul\":28593:28983   */\n      swap3\n      swap2\n      pop\n      pop\n      jump\t// out\n        /* \"#utility.yul\":28989:30064   */\n    tag_130:\n        /* \"#utility.yul\":29361:29364   */\n      0x00\n        /* \"#utility.yul\":29383:29478   */\n      tag_576\n        /* \"#utility.yul\":29474:29477   */\n      dup3\n        /* \"#utility.yul\":29465:29471   */\n      dup10\n        /* \"#utility.yul\":29383:29478   */\n      tag_290\n      jump\t// in\n    tag_576:\n        /* \"#utility.yul\":29376:29478   */\n      swap2\n      pop\n        /* \"#utility.yul\":29495:29590   */\n      tag_577\n        /* \"#utility.yul\":29586:29589   */\n      dup3\n        /* \"#utility.yul\":29577:29583   */\n      dup9\n        /* \"#utility.yul\":29495:29590   */\n      tag_290\n      jump\t// in\n    tag_577:\n        /* \"#utility.yul\":29488:29590   */\n      swap2\n      pop\n        /* \"#utility.yul\":29607:29702   */\n      tag_578\n        /* \"#utility.yul\":29698:29701   */\n      dup3\n        /* \"#utility.yul\":29689:29695   */\n      dup8\n        /* \"#utility.yul\":29607:29702   */\n      tag_290\n      jump\t// in\n    tag_578:\n        /* \"#utility.yul\":29600:29702   */\n      swap2\n      pop\n        /* \"#utility.yul\":29719:29814   */\n      tag_579\n        /* \"#utility.yul\":29810:29813   */\n      dup3\n        /* \"#utility.yul\":29801:29807   */\n      dup7\n        /* \"#utility.yul\":29719:29814   */\n      tag_290\n      jump\t// in\n    tag_579:\n        /* \"#utility.yul\":29712:29814   */\n      swap2\n      pop\n        /* \"#utility.yul\":29831:29926   */\n      tag_580\n        /* \"#utility.yul\":29922:29925   */\n      dup3\n        /* \"#utility.yul\":29913:29919   */\n      dup6\n        /* \"#utility.yul\":29831:29926   */\n      tag_290\n      jump\t// in\n    tag_580:\n        /* \"#utility.yul\":29824:29926   */\n      swap2\n      pop\n        /* \"#utility.yul\":29943:30038   */\n      tag_581\n        /* \"#utility.yul\":30034:30037   */\n      dup3\n        /* \"#utility.yul\":30025:30031   */\n      dup5\n        /* \"#utility.yul\":29943:30038   */\n      tag_290\n      jump\t// in\n    tag_581:\n        /* \"#utility.yul\":29936:30038   */\n      swap2\n      pop\n        /* \"#utility.yul\":30055:30058   */\n      dup2\n        /* \"#utility.yul\":30048:30058   */\n      swap1\n      pop\n        /* \"#utility.yul\":28989:30064   */\n      swap8\n      swap7\n      pop\n      pop\n      pop\n      pop\n      pop\n      pop\n      pop\n      jump\t// out\n        /* \"#utility.yul\":30070:30345   */\n    tag_132:\n        /* \"#utility.yul\":30202:30205   */\n      0x00\n        /* \"#utility.yul\":30224:30319   */\n      tag_583\n        /* \"#utility.yul\":30315:30318   */\n      dup3\n        /* \"#utility.yul\":30306:30312   */\n      dup5\n        /* \"#utility.yul\":30224:30319   */\n      tag_290\n      jump\t// in\n    tag_583:\n        /* \"#utility.yul\":30217:30319   */\n      swap2\n      pop\n        /* \"#utility.yul\":30336:30339   */\n      dup2\n        /* \"#utility.yul\":30329:30339   */\n      swap1\n      pop\n        /* \"#utility.yul\":30070:30345   */\n      swap3\n      swap2\n      pop\n      pop\n      jump\t// out\n        /* \"#utility.yul\":30351:30881   */\n    tag_135:\n        /* \"#utility.yul\":30516:30520   */\n      0x00\n        /* \"#utility.yul\":30554:30556   */\n      0x40\n        /* \"#utility.yul\":30543:30552   */\n      dup3\n        /* \"#utility.yul\":30539:30557   */\n      add\n        /* \"#utility.yul\":30531:30557   */\n      swap1\n      pop\n        /* \"#utility.yul\":30603:30612   */\n      dup2\n        /* \"#utility.yul\":30597:30601   */\n      dup2\n        /* \"#utility.yul\":30593:30613   */\n      sub\n        /* \"#utility.yul\":30589:30590   */\n      0x00\n        /* \"#utility.yul\":30578:30587   */\n      dup4\n        /* \"#utility.yul\":30574:30591   */\n      add\n        /* \"#utility.yul\":30567:30614   */\n      mstore\n        /* \"#utility.yul\":30631:30715   */\n      tag_585\n        /* \"#utility.yul\":30710:30714   */\n      dup2\n        /* \"#utility.yul\":30701:30707   */\n      dup6\n        /* \"#utility.yul\":30631:30715   */\n      tag_256\n      jump\t// in\n    tag_585:\n        /* \"#utility.yul\":30623:30715   */\n      swap1\n      pop\n        /* \"#utility.yul\":30762:30771   */\n      dup2\n        /* \"#utility.yul\":30756:30760   */\n      dup2\n        /* \"#utility.yul\":30752:30772   */\n      sub\n        /* \"#utility.yul\":30747:30749   */\n      0x20\n        /* \"#utility.yul\":30736:30745   */\n      dup4\n        /* \"#utility.yul\":30732:30750   */\n      add\n        /* \"#utility.yul\":30725:30773   */\n      mstore\n        /* \"#utility.yul\":30790:30874   */\n      tag_586\n        /* \"#utility.yul\":30869:30873   */\n      dup2\n        /* \"#utility.yul\":30860:30866   */\n      dup5\n        /* \"#utility.yul\":30790:30874   */\n      tag_256\n      jump\t// in\n    tag_586:\n        /* \"#utility.yul\":30782:30874   */\n      swap1\n      pop\n        /* \"#utility.yul\":30351:30881   */\n      swap4\n      swap3\n      pop\n      pop\n      pop\n      jump\t// out\n        /* \"#utility.yul\":30887:30966   */\n    tag_291:\n        /* \"#utility.yul\":30926:30933   */\n      0x00\n        /* \"#utility.yul\":30955:30960   */\n      dup2\n        /* \"#utility.yul\":30944:30960   */\n      swap1\n      pop\n        /* \"#utility.yul\":30887:30966   */\n      swap2\n      swap1\n      pop\n      jump\t// out\n        /* \"#utility.yul\":30972:31129   */\n    tag_292:\n        /* \"#utility.yul\":31077:31122   */\n      tag_589\n        /* \"#utility.yul\":31097:31121   */\n      tag_590\n        /* \"#utility.yul\":31115:31120   */\n      dup3\n        /* \"#utility.yul\":31097:31121   */\n      tag_221\n      jump\t// in\n    tag_590:\n        /* \"#utility.yul\":31077:31122   */\n      tag_291\n      jump\t// in\n    tag_589:\n        /* \"#utility.yul\":31072:31075   */\n      dup3\n        /* \"#utility.yul\":31065:31123   */\n      mstore\n        /* \"#utility.yul\":30972:31129   */\n      pop\n      pop\n      jump\t// out\n        /* \"#utility.yul\":31135:31391   */\n    tag_149:\n        /* \"#utility.yul\":31247:31250   */\n      0x00\n        /* \"#utility.yul\":31262:31337   */\n      tag_592\n        /* \"#utility.yul\":31333:31336   */\n      dup3\n        /* \"#utility.yul\":31324:31330   */\n      dup5\n        /* \"#utility.yul\":31262:31337   */\n      tag_292\n      jump\t// in\n    tag_592:\n        /* \"#utility.yul\":31362:31364   */\n      0x20\n        /* \"#utility.yul\":31357:31360   */\n      dup3\n        /* \"#utility.yul\":31353:31365   */\n      add\n        /* \"#utility.yul\":31346:31365   */\n      swap2\n      pop\n        /* \"#utility.yul\":31382:31385   */\n      dup2\n        /* \"#utility.yul\":31375:31385   */\n      swap1\n      pop\n        /* \"#utility.yul\":31135:31391   */\n      swap3\n      swap2\n      pop\n      pop\n      jump\t// out\n        /* \"#utility.yul\":31397:31558   */\n    tag_293:\n        /* \"#utility.yul\":31537:31550   */\n      0x4e6f7420616c6c6f776564000000000000000000000000000000000000000000\n        /* \"#utility.yul\":31533:31534   */\n      0x00\n        /* \"#utility.yul\":31525:31531   */\n      dup3\n        /* \"#utility.yul\":31521:31535   */\n      add\n        /* \"#utility.yul\":31514:31551   */\n      mstore\n        /* \"#utility.yul\":31397:31558   */\n      pop\n      jump\t// out\n        /* \"#utility.yul\":31564:31930   */\n    tag_294:\n        /* \"#utility.yul\":31706:31709   */\n      0x00\n        /* \"#utility.yul\":31727:31794   */\n      tag_595\n        /* \"#utility.yul\":31791:31793   */\n      0x0b\n        /* \"#utility.yul\":31786:31789   */\n      dup4\n        /* \"#utility.yul\":31727:31794   */\n      tag_276\n      jump\t// in\n    tag_595:\n        /* \"#utility.yul\":31720:31794   */\n      swap2\n      pop\n        /* \"#utility.yul\":31803:31896   */\n      tag_596\n        /* \"#utility.yul\":31892:31895   */\n      dup3\n        /* \"#utility.yul\":31803:31896   */\n      tag_293\n      jump\t// in\n    tag_596:\n        /* \"#utility.yul\":31921:31923   */\n      0x20\n        /* \"#utility.yul\":31916:31919   */\n      dup3\n        /* \"#utility.yul\":31912:31924   */\n      add\n        /* \"#utility.yul\":31905:31924   */\n      swap1\n      pop\n        /* \"#utility.yul\":31564:31930   */\n      swap2\n      swap1\n      pop\n      jump\t// out\n        /* \"#utility.yul\":31936:32355   */\n    tag_181:\n        /* \"#utility.yul\":32102:32106   */\n      0x00\n        /* \"#utility.yul\":32140:32142   */\n      0x20\n        /* \"#utility.yul\":32129:32138   */\n      dup3\n        /* \"#utility.yul\":32125:32143   */\n      add\n        /* \"#utility.yul\":32117:32143   */\n      swap1\n      pop\n        /* \"#utility.yul\":32189:32198   */\n      dup2\n        /* \"#utility.yul\":32183:32187   */\n      dup2\n        /* \"#utility.yul\":32179:32199   */\n      sub\n        /* \"#utility.yul\":32175:32176   */\n      0x00\n        /* \"#utility.yul\":32164:32173   */\n      dup4\n        /* \"#utility.yul\":32160:32177   */\n      add\n        /* \"#utility.yul\":32153:32200   */\n      mstore\n        /* \"#utility.yul\":32217:32348   */\n      tag_598\n        /* \"#utility.yul\":32343:32347   */\n      dup2\n        /* \"#utility.yul\":32217:32348   */\n      tag_294\n      jump\t// in\n    tag_598:\n        /* \"#utility.yul\":32209:32348   */\n      swap1\n      pop\n        /* \"#utility.yul\":31936:32355   */\n      swap2\n      swap1\n      pop\n      jump\t// out\n        /* \"#utility.yul\":32361:32541   */\n    tag_193:\n        /* \"#utility.yul\":32409:32486   */\n      0x4e487b7100000000000000000000000000000000000000000000000000000000\n        /* \"#utility.yul\":32406:32407   */\n      0x00\n        /* \"#utility.yul\":32399:32487   */\n      mstore\n        /* \"#utility.yul\":32506:32510   */\n      0x12\n        /* \"#utility.yul\":32503:32504   */\n      0x04\n        /* \"#utility.yul\":32496:32511   */\n      mstore\n        /* \"#utility.yul\":32530:32534   */\n      0x24\n        /* \"#utility.yul\":32527:32528   */\n      0x00\n        /* \"#utility.yul\":32520:32535   */\n      revert\n\n    auxdata: 0xa2646970667358221220773dd1b85db5282610f5de040afea26defbf3e52b13cce7f46c3c3b835d06b7a64736f6c63430008120033\n}\n",
				"bytecode": {
					"linkReferences": {
						"cypher.sol": {
							"cypher": [
								{
									"length": 20,
									"start": 1211
								},
								{
									"length": 20,
									"start": 1364
								},
								{
									"length": 20,
									"start": 1517
								},
								{
									"length": 20,
									"start": 1729
								},
								{
									"length": 20,
									"start": 4368
								},
								{
									"length": 20,
									"start": 4500
								},
								{
									"length": 20,
									"start": 4632
								},
								{
									"length": 20,
									"start": 4839
								}
							]
						}
					},
					"object": "608060405260008060146101000a81548160ff021916908360ff1602179055506001600060156101000a81548160ff021916908360ff1602179055506002600060166101000a81548160ff021916908360ff1602179055506003600060176101000a81548160ff021916908360ff1602179055506004600060186101000a81548160ff021916908360ff16021790555034801561009b57600080fd5b50336000806101000a81548173ffffffffffffffffffffffffffffffffffffffff021916908373ffffffffffffffffffffffffffffffffffffffff160217905550612aaf806100eb6000396000f3fe60806040526004361061003e5760003560e01c8062131c4f14610043578063c28fe9c114610080578063dd64e4ad1461009c578063ddfbce96146100cc575b600080fd5b34801561004f57600080fd5b5061006a60048036038101906100659190611b9b565b610109565b6040516100779190611dca565b60405180910390f35b61009a60048036038101906100959190611e18565b610c9c565b005b6100b660048036038101906100b19190611f72565b610e08565b6040516100c391906120df565b60405180910390f35b3480156100d857600080fd5b506100f360048036038101906100ee9190611b9b565b6115a2565b6040516101009190612115565b60405180910390f35b6101116119a3565b6101196119a3565b3373ffffffffffffffffffffffffffffffffffffffff166001600086815260200190815260200160002060070160009054906101000a900473ffffffffffffffffffffffffffffffffffffffff1673ffffffffffffffffffffffffffffffffffffffff16146103c2576040518061012001604052806040518060400160405280600b81526020017f2a2a2a2a2a2a2a2a2a2a2a00000000000000000000000000000000000000000081525081526020016040518060400160405280600681526020017f2a2a2a2a2a2a000000000000000000000000000000000000000000000000000081525081526020016040518060400160405280600a81526020017f2a2a2a2a2a2a2a2a2a2a0000000000000000000000000000000000000000000081525081526020016040518060400160405280600781526020017f2a2a2a2a2a2a2a0000000000000000000000000000000000000000000000000081525081526020016040518060400160405280600881526020017f2a2a2a2a2a2a2a2a00000000000000000000000000000000000000000000000081525081526020016001600087815260200190815260200160002060050160009054906101000a900460ff1660ff1681526020016001600087815260200190815260200160002060060180546103029061215f565b80601f016020809104026020016040519081016040528092919081815260200182805461032e9061215f565b801561037b5780601f106103505761010080835404028352916020019161037b565b820191906000526020600020905b81548152906001019060200180831161035e57829003601f168201915b505050505081526020013373ffffffffffffffffffffffffffffffffffffffff16815260200160016000878152602001908152602001600020600801548152509050610796565b60405180610120016040528073__$0394c467ed0fdd19c4eccf25096e0ad40f$__63015cfec760016000898152602001908152602001600020600001876040518363ffffffff1660e01b815260040161041c92919061227e565b600060405180830381865af4158015610439573d6000803e3d6000fd5b505050506040513d6000823e3d601f19601f820116820180604052508101906104629190612356565b815260200173__$0394c467ed0fdd19c4eccf25096e0ad40f$__63015cfec760016000898152602001908152602001600020600101876040518363ffffffff1660e01b81526004016104b592919061227e565b600060405180830381865af41580156104d2573d6000803e3d6000fd5b505050506040513d6000823e3d601f19601f820116820180604052508101906104fb9190612356565b815260200173__$0394c467ed0fdd19c4eccf25096e0ad40f$__63015cfec760016000898152602001908152602001600020600201876040518363ffffffff1660e01b815260040161054e92919061227e565b600060405180830381865af415801561056b573d6000803e3d6000fd5b505050506040513d6000823e3d601f19601f820116820180604052508101906105949190612356565b81526020016040518060400160405280600581526020017f2a2a2a2a2a000000000000000000000000000000000000000000000000000000815250815260200173__$0394c467ed0fdd19c4eccf25096e0ad40f$__63015cfec760016000898152602001908152602001600020600401876040518363ffffffff1660e01b815260040161062292919061227e565b600060405180830381865af415801561063f573d6000803e3d6000fd5b505050506040513d6000823e3d601f19601f820116820180604052508101906106689190612356565b81526020016001600087815260200190815260200160002060050160009054906101000a900460ff1660ff1681526020016001600087815260200190815260200160002060060180546106ba9061215f565b80601f01602080910402602001604051908101604052809291908181526020018280546106e69061215f565b80156107335780601f1061070857610100808354040283529160200191610733565b820191906000526020600020905b81548152906001019060200180831161071657829003601f168201915b505050505081526020016001600087815260200190815260200160002060070160009054906101000a900473ffffffffffffffffffffffffffffffffffffffff1673ffffffffffffffffffffffffffffffffffffffff1681526020018581525090505b60006001600086815260200190815260200160002060050160009054906101000a900460ff1660ff161115610bdb576040518061012001604052806001600087815260200190815260200160002060000180546107f29061215f565b80601f016020809104026020016040519081016040528092919081815260200182805461081e9061215f565b801561086b5780601f106108405761010080835404028352916020019161086b565b820191906000526020600020905b81548152906001019060200180831161084e57829003601f168201915b505050505081526020016001600087815260200190815260200160002060010180546108969061215f565b80601f01602080910402602001604051908101604052809291908181526020018280546108c29061215f565b801561090f5780601f106108e45761010080835404028352916020019161090f565b820191906000526020600020905b8154815290600101906020018083116108f257829003601f168201915b5050505050815260200160016000878152602001908152602001600020600201805461093a9061215f565b80601f01602080910402602001604051908101604052809291908181526020018280546109669061215f565b80156109b35780601f10610988576101008083540402835291602001916109b3565b820191906000526020600020905b81548152906001019060200180831161099657829003601f168201915b505050505081526020016040518060400160405280600781526020017f2a2a2a2a2a2a2a000000000000000000000000000000000000000000000000008152508152602001600160008781526020019081526020016000206004018054610a199061215f565b80601f0160208091040260200160405190810160405280929190818152602001828054610a459061215f565b8015610a925780601f10610a6757610100808354040283529160200191610a92565b820191906000526020600020905b815481529060010190602001808311610a7557829003601f168201915b505050505081526020016001600087815260200190815260200160002060050160009054906101000a900460ff1660ff168152602001600160008781526020019081526020016000206006018054610ae99061215f565b80601f0160208091040260200160405190810160405280929190818152602001828054610b159061215f565b8015610b625780601f10610b3757610100808354040283529160200191610b62565b820191906000526020600020905b815481529060010190602001808311610b4557829003601f168201915b505050505081526020016001600087815260200190815260200160002060070160009054906101000a900473ffffffffffffffffffffffffffffffffffffffff1673ffffffffffffffffffffffffffffffffffffffff168152602001600160008781526020019081526020016000206008015481525090505b610be584846115a2565b15610c9257600160008581526020019081526020016000206003018054610c0b9061215f565b80601f0160208091040260200160405190810160405280929190818152602001828054610c379061215f565b8015610c845780601f10610c5957610100808354040283529160200191610c84565b820191906000526020600020905b815481529060010190602001808311610c6757829003601f168201915b505050505081606001819052505b8091505092915050565b3373ffffffffffffffffffffffffffffffffffffffff166001600089815260200190815260200160002060070160009054906101000a900473ffffffffffffffffffffffffffffffffffffffff1673ffffffffffffffffffffffffffffffffffffffff1614158015610d145750610d1387826115a2565b5b15610dff5785600160008981526020019081526020016000206000019081610d3c9190612555565b5084600160008981526020019081526020016000206002019081610d609190612555565b5083600160008981526020019081526020016000206004019081610d849190612555565b50826001600089815260200190815260200160002060070160006101000a81548173ffffffffffffffffffffffffffffffffffffffff021916908373ffffffffffffffffffffffffffffffffffffffff16021790555081600160008981526020019081526020016000206006019081610dfd9190612555565b505b50505050505050565b6000610e12611699565b60058560ff161115610e59576040517f08c379a0000000000000000000000000000000000000000000000000000000008152600401610e5090612684565b60405180910390fd5b600d885114610e9d576040517f08c379a0000000000000000000000000000000000000000000000000000000008152600401610e94906126f0565b60405180910390fd5b6006895111610ee1576040517f08c379a0000000000000000000000000000000000000000000000000000000008152600401610ed89061275c565b60405180910390fd5b600a875111610f25576040517f08c379a0000000000000000000000000000000000000000000000000000000008152600401610f1c906127c8565b60405180910390fd5b6008865111610f69576040517f08c379a0000000000000000000000000000000000000000000000000000000008152600401610f6090612834565b60405180910390fd5b6006845111610fad576040517f08c379a0000000000000000000000000000000000000000000000000000000008152600401610fa4906128a0565b60405180910390fd5b60008989610fbd8860ff16611729565b8a8a89604051602001610fd5969594939291906128fc565b604051602081830303815290604052604051602001610ff49190612954565b60405160208183030381529060405280519060200120905060008660ff16036113f45760405180610120016040528073__$0394c467ed0fdd19c4eccf25096e0ad40f$__63015cfec78d8b6040518363ffffffff1660e01b815260040161105c92919061296b565b600060405180830381865af4158015611079573d6000803e3d6000fd5b505050506040513d6000823e3d601f19601f820116820180604052508101906110a29190612356565b815260200173__$0394c467ed0fdd19c4eccf25096e0ad40f$__63015cfec78c8b6040518363ffffffff1660e01b81526004016110e092919061296b565b600060405180830381865af41580156110fd573d6000803e3d6000fd5b505050506040513d6000823e3d601f19601f820116820180604052508101906111269190612356565b815260200173__$0394c467ed0fdd19c4eccf25096e0ad40f$__63015cfec78b8b6040518363ffffffff1660e01b815260040161116492919061296b565b600060405180830381865af4158015611181573d6000803e3d6000fd5b505050506040513d6000823e3d601f19601f820116820180604052508101906111aa9190612356565b8152602001886040516020016111c09190612954565b604051602081830303815290604052805190602001206040516020016111e691906129c3565b604051602081830303815290604052815260200173__$0394c467ed0fdd19c4eccf25096e0ad40f$__63015cfec7888b6040518363ffffffff1660e01b815260040161123392919061296b565b600060405180830381865af4158015611250573d6000803e3d6000fd5b505050506040513d6000823e3d601f19601f820116820180604052508101906112799190612356565b81526020018760ff1681526020016040518060400160405280600181526020017f300000000000000000000000000000000000000000000000000000000000000081525081526020018573ffffffffffffffffffffffffffffffffffffffff1681526020018281525060016000838152602001908152602001600020600082015181600001908161130a9190612555565b5060208201518160010190816113209190612555565b5060408201518160020190816113369190612555565b50606082015181600301908161134c9190612555565b5060808201518160040190816113629190612555565b5060a08201518160050160006101000a81548160ff021916908360ff16021790555060c08201518160060190816113999190612555565b5060e08201518160070160006101000a81548173ffffffffffffffffffffffffffffffffffffffff021916908373ffffffffffffffffffffffffffffffffffffffff160217905550610100820151816008015590505061155b565b6040518061012001604052808b81526020018a81526020018981526020018881526020018681526020018760ff1681526020018481526020018573ffffffffffffffffffffffffffffffffffffffff168152602001828152506001600083815260200190815260200160002060008201518160000190816114759190612555565b50602082015181600101908161148b9190612555565b5060408201518160020190816114a19190612555565b5060608201518160030190816114b79190612555565b5060808201518160040190816114cd9190612555565b5060a08201518160050160006101000a81548160ff021916908360ff16021790555060c08201518160060190816115049190612555565b5060e08201518160070160006101000a81548173ffffffffffffffffffffffffffffffffffffffff021916908373ffffffffffffffffffffffffffffffffffffffff16021790555061010082015181600801559050505b7fa8c560616579705e004d37fd505597cd07d92d2604f0b9b435752fa9378e26558160405161158a91906120df565b60405180910390a18091505098975050505050505050565b6000611691826040516020016115b89190612954565b604051602081830303815290604052805190602001206040516020016115de91906129c3565b60405160208183030381529060405260016000868152602001908152602001600020600301805461160e9061215f565b80601f016020809104026020016040519081016040528092919081815260200182805461163a9061215f565b80156116875780601f1061165c57610100808354040283529160200191611687565b820191906000526020600020905b81548152906001019060200180831161166a57829003601f168201915b50505050506117f7565b905092915050565b3373ffffffffffffffffffffffffffffffffffffffff1660008054906101000a900473ffffffffffffffffffffffffffffffffffffffff1673ffffffffffffffffffffffffffffffffffffffff1614611727576040517f08c379a000000000000000000000000000000000000000000000000000000000815260040161171e90612a2a565b60405180910390fd5b565b60606000600161173884611850565b01905060008167ffffffffffffffff81111561175757611756611a70565b5b6040519080825280601f01601f1916602001820160405280156117895781602001600182028036833780820191505090505b509050600082602001820190505b6001156117ec578080600190039150507f3031323334353637383961626364656600000000000000000000000000000000600a86061a8153600a85816117e0576117df612a4a565b5b04945060008503611797575b819350505050919050565b60008160405160200161180a9190612954565b60405160208183030381529060405280519060200120836040516020016118319190612954565b6040516020818303038152906040528051906020012014905092915050565b600080600090507a184f03e93ff9f4daa797ed6e38ed64bf6a1f01000000000000000083106118ae577a184f03e93ff9f4daa797ed6e38ed64bf6a1f01000000000000000083816118a4576118a3612a4a565b5b0492506040810190505b6d04ee2d6d415b85acef810000000083106118eb576d04ee2d6d415b85acef810000000083816118e1576118e0612a4a565b5b0492506020810190505b662386f26fc10000831061191a57662386f26fc1000083816119105761190f612a4a565b5b0492506010810190505b6305f5e1008310611943576305f5e100838161193957611938612a4a565b5b0492506008810190505b612710831061196857612710838161195e5761195d612a4a565b5b0492506004810190505b6064831061198b576064838161198157611980612a4a565b5b0492506002810190505b600a831061199a576001810190505b80915050919050565b6040518061012001604052806060815260200160608152602001606081526020016060815260200160608152602001600060ff16815260200160608152602001600073ffffffffffffffffffffffffffffffffffffffff168152602001600080191681525090565b6000604051905090565b600080fd5b600080fd5b6000819050919050565b611a3281611a1f565b8114611a3d57600080fd5b50565b600081359050611a4f81611a29565b92915050565b600080fd5b600080fd5b6000601f19601f8301169050919050565b7f4e487b7100000000000000000000000000000000000000000000000000000000600052604160045260246000fd5b611aa882611a5f565b810181811067ffffffffffffffff82111715611ac757611ac6611a70565b5b80604052505050565b6000611ada611a0b565b9050611ae68282611a9f565b919050565b600067ffffffffffffffff821115611b0657611b05611a70565b5b611b0f82611a5f565b9050602081019050919050565b82818337600083830152505050565b6000611b3e611b3984611aeb565b611ad0565b905082815260208101848484011115611b5a57611b59611a5a565b5b611b65848285611b1c565b509392505050565b600082601f830112611b8257611b81611a55565b5b8135611b92848260208601611b2b565b91505092915050565b60008060408385031215611bb257611bb1611a15565b5b6000611bc085828601611a40565b925050602083013567ffffffffffffffff811115611be157611be0611a1a565b5b611bed85828601611b6d565b9150509250929050565b600081519050919050565b600082825260208201905092915050565b60005b83811015611c31578082015181840152602081019050611c16565b60008484015250505050565b6000611c4882611bf7565b611c528185611c02565b9350611c62818560208601611c13565b611c6b81611a5f565b840191505092915050565b600060ff82169050919050565b611c8c81611c76565b82525050565b600073ffffffffffffffffffffffffffffffffffffffff82169050919050565b6000611cbd82611c92565b9050919050565b611ccd81611cb2565b82525050565b611cdc81611a1f565b82525050565b6000610120830160008301518482036000860152611d008282611c3d565b91505060208301518482036020860152611d1a8282611c3d565b91505060408301518482036040860152611d348282611c3d565b91505060608301518482036060860152611d4e8282611c3d565b91505060808301518482036080860152611d688282611c3d565b91505060a0830151611d7d60a0860182611c83565b5060c083015184820360c0860152611d958282611c3d565b91505060e0830151611daa60e0860182611cc4565b50610100830151611dbf610100860182611cd3565b508091505092915050565b60006020820190508181036000830152611de48184611ce2565b905092915050565b611df581611cb2565b8114611e0057600080fd5b50565b600081359050611e1281611dec565b92915050565b600080600080600080600060e0888a031215611e3757611e36611a15565b5b6000611e458a828b01611a40565b975050602088013567ffffffffffffffff811115611e6657611e65611a1a565b5b611e728a828b01611b6d565b965050604088013567ffffffffffffffff811115611e9357611e92611a1a565b5b611e9f8a828b01611b6d565b955050606088013567ffffffffffffffff811115611ec057611ebf611a1a565b5b611ecc8a828b01611b6d565b9450506080611edd8a828b01611e03565b93505060a088013567ffffffffffffffff811115611efe57611efd611a1a565b5b611f0a8a828b01611b6d565b92505060c088013567ffffffffffffffff811115611f2b57611f2a611a1a565b5b611f378a828b01611b6d565b91505092959891949750929550565b611f4f81611c76565b8114611f5a57600080fd5b50565b600081359050611f6c81611f46565b92915050565b600080600080600080600080610100898b031215611f9357611f92611a15565b5b600089013567ffffffffffffffff811115611fb157611fb0611a1a565b5b611fbd8b828c01611b6d565b985050602089013567ffffffffffffffff811115611fde57611fdd611a1a565b5b611fea8b828c01611b6d565b975050604089013567ffffffffffffffff81111561200b5761200a611a1a565b5b6120178b828c01611b6d565b965050606089013567ffffffffffffffff81111561203857612037611a1a565b5b6120448b828c01611b6d565b95505060806120558b828c01611f5d565b94505060a089013567ffffffffffffffff81111561207657612075611a1a565b5b6120828b828c01611b6d565b93505060c06120938b828c01611e03565b92505060e089013567ffffffffffffffff8111156120b4576120b3611a1a565b5b6120c08b828c01611b6d565b9150509295985092959890939650565b6120d981611a1f565b82525050565b60006020820190506120f460008301846120d0565b92915050565b60008115159050919050565b61210f816120fa565b82525050565b600060208201905061212a6000830184612106565b92915050565b7f4e487b7100000000000000000000000000000000000000000000000000000000600052602260045260246000fd5b6000600282049050600182168061217757607f821691505b60208210810361218a57612189612130565b5b50919050565b600082825260208201905092915050565b60008190508160005260206000209050919050565b600081546121c38161215f565b6121cd8186612190565b945060018216600081146121e857600181146121fe57612231565b60ff198316865281151560200286019350612231565b612207856121a1565b60005b838110156122295781548189015260018201915060208101905061220a565b808801955050505b50505092915050565b600081519050919050565b60006122508261223a565b61225a8185612190565b935061226a818560208601611c13565b61227381611a5f565b840191505092915050565b6000604082019050818103600083015261229881856121b6565b905081810360208301526122ac8184612245565b90509392505050565b600067ffffffffffffffff8211156122d0576122cf611a70565b5b6122d982611a5f565b9050602081019050919050565b60006122f96122f4846122b5565b611ad0565b90508281526020810184848401111561231557612314611a5a565b5b612320848285611c13565b509392505050565b600082601f83011261233d5761233c611a55565b5b815161234d8482602086016122e6565b91505092915050565b60006020828403121561236c5761236b611a15565b5b600082015167ffffffffffffffff81111561238a57612389611a1a565b5b61239684828501612328565b91505092915050565b60008190508160005260206000209050919050565b60006020601f8301049050919050565b600082821b905092915050565b6000600883026124017fffffffffffffffffffffffffffffffffffffffffffffffffffffffffffffffff826123c4565b61240b86836123c4565b95508019841693508086168417925050509392505050565b6000819050919050565b6000819050919050565b600061245261244d61244884612423565b61242d565b612423565b9050919050565b6000819050919050565b61246c83612437565b61248061247882612459565b8484546123d1565b825550505050565b600090565b612495612488565b6124a0818484612463565b505050565b5b818110156124c4576124b960008261248d565b6001810190506124a6565b5050565b601f821115612509576124da8161239f565b6124e3846123b4565b810160208510156124f2578190505b6125066124fe856123b4565b8301826124a5565b50505b505050565b600082821c905092915050565b600061252c6000198460080261250e565b1980831691505092915050565b6000612545838361251b565b9150826002028217905092915050565b61255e82611bf7565b67ffffffffffffffff81111561257757612576611a70565b5b612581825461215f565b61258c8282856124c8565b600060209050601f8311600181146125bf57600084156125ad578287015190505b6125b78582612539565b86555061261f565b601f1984166125cd8661239f565b60005b828110156125f5578489015182556001820191506020850194506020810190506125d0565b86831015612612578489015161260e601f89168261251b565b8355505b6001600288020188555050505b505050505050565b600082825260208201905092915050565b7f496e76616c696420636f6d70616e792074797065000000000000000000000000600082015250565b600061266e601483612627565b915061267982612638565b602082019050919050565b6000602082019050818103600083015261269d81612661565b9050919050565b7f496e76616c69642053534e000000000000000000000000000000000000000000600082015250565b60006126da600b83612627565b91506126e5826126a4565b602082019050919050565b60006020820190508181036000830152612709816126cd565b9050919050565b7f496e76616c6964206e616d650000000000000000000000000000000000000000600082015250565b6000612746600c83612627565b915061275182612710565b602082019050919050565b6000602082019050818103600083015261277581612739565b9050919050565b7f496e76616c696420616464726573730000000000000000000000000000000000600082015250565b60006127b2600f83612627565b91506127bd8261277c565b602082019050919050565b600060208201905081810360008301526127e1816127a5565b9050919050565b7f50617373776f726420746f6f2073686f72740000000000000000000000000000600082015250565b600061281e601283612627565b9150612829826127e8565b602082019050919050565b6000602082019050818103600083015261284d81612811565b9050919050565b7f50686f6e65206e756d62657220746f6f2073686f727400000000000000000000600082015250565b600061288a601683612627565b915061289582612854565b602082019050919050565b600060208201905081810360008301526128b98161287d565b9050919050565b600081905092915050565b60006128d682611bf7565b6128e081856128c0565b93506128f0818560208601611c13565b80840191505092915050565b600061290882896128cb565b915061291482886128cb565b915061292082876128cb565b915061292c82866128cb565b915061293882856128cb565b915061294482846128cb565b9150819050979650505050505050565b600061296082846128cb565b915081905092915050565b600060408201905081810360008301526129858185612245565b905081810360208301526129998184612245565b90509392505050565b6000819050919050565b6129bd6129b882611a1f565b6129a2565b82525050565b60006129cf82846129ac565b60208201915081905092915050565b7f4e6f7420616c6c6f776564000000000000000000000000000000000000000000600082015250565b6000612a14600b83612627565b9150612a1f826129de565b602082019050919050565b60006020820190508181036000830152612a4381612a07565b9050919050565b7f4e487b7100000000000000000000000000000000000000000000000000000000600052601260045260246000fdfea2646970667358221220773dd1b85db5282610f5de040afea26defbf3e52b13cce7f46c3c3b835d06b7a64736f6c63430008120033",
					"opcodes": "PUSH1 0x80 PUSH1 0x40 MSTORE PUSH1 0x0 DUP1 PUSH1 0x14 PUSH2 0x100 EXP DUP2 SLOAD DUP2 PUSH1 0xFF MUL NOT AND SWAP1 DUP4 PUSH1 0xFF AND MUL OR SWAP1 SSTORE POP PUSH1 0x1 PUSH1 0x0 PUSH1 0x15 PUSH2 0x100 EXP DUP2 SLOAD DUP2 PUSH1 0xFF MUL NOT AND SWAP1 DUP4 PUSH1 0xFF AND MUL OR SWAP1 SSTORE POP PUSH1 0x2 PUSH1 0x0 PUSH1 0x16 PUSH2 0x100 EXP DUP2 SLOAD DUP2 PUSH1 0xFF MUL NOT AND SWAP1 DUP4 PUSH1 0xFF AND MUL OR SWAP1 SSTORE POP PUSH1 0x3 PUSH1 0x0 PUSH1 0x17 PUSH2 0x100 EXP DUP2 SLOAD DUP2 PUSH1 0xFF MUL NOT AND SWAP1 DUP4 PUSH1 0xFF AND MUL OR SWAP1 SSTORE POP PUSH1 0x4 PUSH1 0x0 PUSH1 0x18 PUSH2 0x100 EXP DUP2 SLOAD DUP2 PUSH1 0xFF MUL NOT AND SWAP1 DUP4 PUSH1 0xFF AND MUL OR SWAP1 SSTORE POP CALLVALUE DUP1 ISZERO PUSH2 0x9B JUMPI PUSH1 0x0 DUP1 REVERT JUMPDEST POP CALLER PUSH1 0x0 DUP1 PUSH2 0x100 EXP DUP2 SLOAD DUP2 PUSH20 0xFFFFFFFFFFFFFFFFFFFFFFFFFFFFFFFFFFFFFFFF MUL NOT AND SWAP1 DUP4 PUSH20 0xFFFFFFFFFFFFFFFFFFFFFFFFFFFFFFFFFFFFFFFF AND MUL OR SWAP1 SSTORE POP PUSH2 0x2AAF DUP1 PUSH2 0xEB PUSH1 0x0 CODECOPY PUSH1 0x0 RETURN INVALID PUSH1 0x80 PUSH1 0x40 MSTORE PUSH1 0x4 CALLDATASIZE LT PUSH2 0x3E JUMPI PUSH1 0x0 CALLDATALOAD PUSH1 0xE0 SHR DUP1 PUSH3 0x131C4F EQ PUSH2 0x43 JUMPI DUP1 PUSH4 0xC28FE9C1 EQ PUSH2 0x80 JUMPI DUP1 PUSH4 0xDD64E4AD EQ PUSH2 0x9C JUMPI DUP1 PUSH4 0xDDFBCE96 EQ PUSH2 0xCC JUMPI JUMPDEST PUSH1 0x0 DUP1 REVERT JUMPDEST CALLVALUE DUP1 ISZERO PUSH2 0x4F JUMPI PUSH1 0x0 DUP1 REVERT JUMPDEST POP PUSH2 0x6A PUSH1 0x4 DUP1 CALLDATASIZE SUB DUP2 ADD SWAP1 PUSH2 0x65 SWAP2 SWAP1 PUSH2 0x1B9B JUMP JUMPDEST PUSH2 0x109 JUMP JUMPDEST PUSH1 0x40 MLOAD PUSH2 0x77 SWAP2 SWAP1 PUSH2 0x1DCA JUMP JUMPDEST PUSH1 0x40 MLOAD DUP1 SWAP2 SUB SWAP1 RETURN JUMPDEST PUSH2 0x9A PUSH1 0x4 DUP1 CALLDATASIZE SUB DUP2 ADD SWAP1 PUSH2 0x95 SWAP2 SWAP1 PUSH2 0x1E18 JUMP JUMPDEST PUSH2 0xC9C JUMP JUMPDEST STOP JUMPDEST PUSH2 0xB6 PUSH1 0x4 DUP1 CALLDATASIZE SUB DUP2 ADD SWAP1 PUSH2 0xB1 SWAP2 SWAP1 PUSH2 0x1F72 JUMP JUMPDEST PUSH2 0xE08 JUMP JUMPDEST PUSH1 0x40 MLOAD PUSH2 0xC3 SWAP2 SWAP1 PUSH2 0x20DF JUMP JUMPDEST PUSH1 0x40 MLOAD DUP1 SWAP2 SUB SWAP1 RETURN JUMPDEST CALLVALUE DUP1 ISZERO PUSH2 0xD8 JUMPI PUSH1 0x0 DUP1 REVERT JUMPDEST POP PUSH2 0xF3 PUSH1 0x4 DUP1 CALLDATASIZE SUB DUP2 ADD SWAP1 PUSH2 0xEE SWAP2 SWAP1 PUSH2 0x1B9B JUMP JUMPDEST PUSH2 0x15A2 JUMP JUMPDEST PUSH1 0x40 MLOAD PUSH2 0x100 SWAP2 SWAP1 PUSH2 0x2115 JUMP JUMPDEST PUSH1 0x40 MLOAD DUP1 SWAP2 SUB SWAP1 RETURN JUMPDEST PUSH2 0x111 PUSH2 0x19A3 JUMP JUMPDEST PUSH2 0x119 PUSH2 0x19A3 JUMP JUMPDEST CALLER PUSH20 0xFFFFFFFFFFFFFFFFFFFFFFFFFFFFFFFFFFFFFFFF AND PUSH1 0x1 PUSH1 0x0 DUP7 DUP2 MSTORE PUSH1 0x20 ADD SWAP1 DUP2 MSTORE PUSH1 0x20 ADD PUSH1 0x0 KECCAK256 PUSH1 0x7 ADD PUSH1 0x0 SWAP1 SLOAD SWAP1 PUSH2 0x100 EXP SWAP1 DIV PUSH20 0xFFFFFFFFFFFFFFFFFFFFFFFFFFFFFFFFFFFFFFFF AND PUSH20 0xFFFFFFFFFFFFFFFFFFFFFFFFFFFFFFFFFFFFFFFF AND EQ PUSH2 0x3C2 JUMPI PUSH1 0x40 MLOAD DUP1 PUSH2 0x120 ADD PUSH1 0x40 MSTORE DUP1 PUSH1 0x40 MLOAD DUP1 PUSH1 0x40 ADD PUSH1 0x40 MSTORE DUP1 PUSH1 0xB DUP2 MSTORE PUSH1 0x20 ADD PUSH32 0x2A2A2A2A2A2A2A2A2A2A2A000000000000000000000000000000000000000000 DUP2 MSTORE POP DUP2 MSTORE PUSH1 0x20 ADD PUSH1 0x40 MLOAD DUP1 PUSH1 0x40 ADD PUSH1 0x40 MSTORE DUP1 PUSH1 0x6 DUP2 MSTORE PUSH1 0x20 ADD PUSH32 0x2A2A2A2A2A2A0000000000000000000000000000000000000000000000000000 DUP2 MSTORE POP DUP2 MSTORE PUSH1 0x20 ADD PUSH1 0x40 MLOAD DUP1 PUSH1 0x40 ADD PUSH1 0x40 MSTORE DUP1 PUSH1 0xA DUP2 MSTORE PUSH1 0x20 ADD PUSH32 0x2A2A2A2A2A2A2A2A2A2A00000000000000000000000000000000000000000000 DUP2 MSTORE POP DUP2 MSTORE PUSH1 0x20 ADD PUSH1 0x40 MLOAD DUP1 PUSH1 0x40 ADD PUSH1 0x40 MSTORE DUP1 PUSH1 0x7 DUP2 MSTORE PUSH1 0x20 ADD PUSH32 0x2A2A2A2A2A2A2A00000000000000000000000000000000000000000000000000 DUP2 MSTORE POP DUP2 MSTORE PUSH1 0x20 ADD PUSH1 0x40 MLOAD DUP1 PUSH1 0x40 ADD PUSH1 0x40 MSTORE DUP1 PUSH1 0x8 DUP2 MSTORE PUSH1 0x20 ADD PUSH32 0x2A2A2A2A2A2A2A2A000000000000000000000000000000000000000000000000 DUP2 MSTORE POP DUP2 MSTORE PUSH1 0x20 ADD PUSH1 0x1 PUSH1 0x0 DUP8 DUP2 MSTORE PUSH1 0x20 ADD SWAP1 DUP2 MSTORE PUSH1 0x20 ADD PUSH1 0x0 KECCAK256 PUSH1 0x5 ADD PUSH1 0x0 SWAP1 SLOAD SWAP1 PUSH2 0x100 EXP SWAP1 DIV PUSH1 0xFF AND PUSH1 0xFF AND DUP2 MSTORE PUSH1 0x20 ADD PUSH1 0x1 PUSH1 0x0 DUP8 DUP2 MSTORE PUSH1 0x20 ADD SWAP1 DUP2 MSTORE PUSH1 0x20 ADD PUSH1 0x0 KECCAK256 PUSH1 0x6 ADD DUP1 SLOAD PUSH2 0x302 SWAP1 PUSH2 0x215F JUMP JUMPDEST DUP1 PUSH1 0x1F ADD PUSH1 0x20 DUP1 SWAP2 DIV MUL PUSH1 0x20 ADD PUSH1 0x40 MLOAD SWAP1 DUP2 ADD PUSH1 0x40 MSTORE DUP1 SWAP3 SWAP2 SWAP1 DUP2 DUP2 MSTORE PUSH1 0x20 ADD DUP3 DUP1 SLOAD PUSH2 0x32E SWAP1 PUSH2 0x215F JUMP JUMPDEST DUP1 ISZERO PUSH2 0x37B JUMPI DUP1 PUSH1 0x1F LT PUSH2 0x350 JUMPI PUSH2 0x100 DUP1 DUP4 SLOAD DIV MUL DUP4 MSTORE SWAP2 PUSH1 0x20 ADD SWAP2 PUSH2 0x37B JUMP JUMPDEST DUP3 ADD SWAP2 SWAP1 PUSH1 0x0 MSTORE PUSH1 0x20 PUSH1 0x0 KECCAK256 SWAP1 JUMPDEST DUP2 SLOAD DUP2 MSTORE SWAP1 PUSH1 0x1 ADD SWAP1 PUSH1 0x20 ADD DUP1 DUP4 GT PUSH2 0x35E JUMPI DUP3 SWAP1 SUB PUSH1 0x1F AND DUP3 ADD SWAP2 JUMPDEST POP POP POP POP POP DUP2 MSTORE PUSH1 0x20 ADD CALLER PUSH20 0xFFFFFFFFFFFFFFFFFFFFFFFFFFFFFFFFFFFFFFFF AND DUP2 MSTORE PUSH1 0x20 ADD PUSH1 0x1 PUSH1 0x0 DUP8 DUP2 MSTORE PUSH1 0x20 ADD SWAP1 DUP2 MSTORE PUSH1 0x20 ADD PUSH1 0x0 KECCAK256 PUSH1 0x8 ADD SLOAD DUP2 MSTORE POP SWAP1 POP PUSH2 0x796 JUMP JUMPDEST PUSH1 0x40 MLOAD DUP1 PUSH2 0x120 ADD PUSH1 0x40 MSTORE DUP1 PUSH20 0x0 PUSH4 0x15CFEC7 PUSH1 0x1 PUSH1 0x0 DUP10 DUP2 MSTORE PUSH1 0x20 ADD SWAP1 DUP2 MSTORE PUSH1 0x20 ADD PUSH1 0x0 KECCAK256 PUSH1 0x0 ADD DUP8 PUSH1 0x40 MLOAD DUP4 PUSH4 0xFFFFFFFF AND PUSH1 0xE0 SHL DUP2 MSTORE PUSH1 0x4 ADD PUSH2 0x41C SWAP3 SWAP2 SWAP1 PUSH2 0x227E JUMP JUMPDEST PUSH1 0x0 PUSH1 0x40 MLOAD DUP1 DUP4 SUB DUP2 DUP7 GAS DELEGATECALL ISZERO DUP1 ISZERO PUSH2 0x439 JUMPI RETURNDATASIZE PUSH1 0x0 DUP1 RETURNDATACOPY RETURNDATASIZE PUSH1 0x0 REVERT JUMPDEST POP POP POP POP PUSH1 0x40 MLOAD RETURNDATASIZE PUSH1 0x0 DUP3 RETURNDATACOPY RETURNDATASIZE PUSH1 0x1F NOT PUSH1 0x1F DUP3 ADD AND DUP3 ADD DUP1 PUSH1 0x40 MSTORE POP DUP2 ADD SWAP1 PUSH2 0x462 SWAP2 SWAP1 PUSH2 0x2356 JUMP JUMPDEST DUP2 MSTORE PUSH1 0x20 ADD PUSH20 0x0 PUSH4 0x15CFEC7 PUSH1 0x1 PUSH1 0x0 DUP10 DUP2 MSTORE PUSH1 0x20 ADD SWAP1 DUP2 MSTORE PUSH1 0x20 ADD PUSH1 0x0 KECCAK256 PUSH1 0x1 ADD DUP8 PUSH1 0x40 MLOAD DUP4 PUSH4 0xFFFFFFFF AND PUSH1 0xE0 SHL DUP2 MSTORE PUSH1 0x4 ADD PUSH2 0x4B5 SWAP3 SWAP2 SWAP1 PUSH2 0x227E JUMP JUMPDEST PUSH1 0x0 PUSH1 0x40 MLOAD DUP1 DUP4 SUB DUP2 DUP7 GAS DELEGATECALL ISZERO DUP1 ISZERO PUSH2 0x4D2 JUMPI RETURNDATASIZE PUSH1 0x0 DUP1 RETURNDATACOPY RETURNDATASIZE PUSH1 0x0 REVERT JUMPDEST POP POP POP POP PUSH1 0x40 MLOAD RETURNDATASIZE PUSH1 0x0 DUP3 RETURNDATACOPY RETURNDATASIZE PUSH1 0x1F NOT PUSH1 0x1F DUP3 ADD AND DUP3 ADD DUP1 PUSH1 0x40 MSTORE POP DUP2 ADD SWAP1 PUSH2 0x4FB SWAP2 SWAP1 PUSH2 0x2356 JUMP JUMPDEST DUP2 MSTORE PUSH1 0x20 ADD PUSH20 0x0 PUSH4 0x15CFEC7 PUSH1 0x1 PUSH1 0x0 DUP10 DUP2 MSTORE PUSH1 0x20 ADD SWAP1 DUP2 MSTORE PUSH1 0x20 ADD PUSH1 0x0 KECCAK256 PUSH1 0x2 ADD DUP8 PUSH1 0x40 MLOAD DUP4 PUSH4 0xFFFFFFFF AND PUSH1 0xE0 SHL DUP2 MSTORE PUSH1 0x4 ADD PUSH2 0x54E SWAP3 SWAP2 SWAP1 PUSH2 0x227E JUMP JUMPDEST PUSH1 0x0 PUSH1 0x40 MLOAD DUP1 DUP4 SUB DUP2 DUP7 GAS DELEGATECALL ISZERO DUP1 ISZERO PUSH2 0x56B JUMPI RETURNDATASIZE PUSH1 0x0 DUP1 RETURNDATACOPY RETURNDATASIZE PUSH1 0x0 REVERT JUMPDEST POP POP POP POP PUSH1 0x40 MLOAD RETURNDATASIZE PUSH1 0x0 DUP3 RETURNDATACOPY RETURNDATASIZE PUSH1 0x1F NOT PUSH1 0x1F DUP3 ADD AND DUP3 ADD DUP1 PUSH1 0x40 MSTORE POP DUP2 ADD SWAP1 PUSH2 0x594 SWAP2 SWAP1 PUSH2 0x2356 JUMP JUMPDEST DUP2 MSTORE PUSH1 0x20 ADD PUSH1 0x40 MLOAD DUP1 PUSH1 0x40 ADD PUSH1 0x40 MSTORE DUP1 PUSH1 0x5 DUP2 MSTORE PUSH1 0x20 ADD PUSH32 0x2A2A2A2A2A000000000000000000000000000000000000000000000000000000 DUP2 MSTORE POP DUP2 MSTORE PUSH1 0x20 ADD PUSH20 0x0 PUSH4 0x15CFEC7 PUSH1 0x1 PUSH1 0x0 DUP10 DUP2 MSTORE PUSH1 0x20 ADD SWAP1 DUP2 MSTORE PUSH1 0x20 ADD PUSH1 0x0 KECCAK256 PUSH1 0x4 ADD DUP8 PUSH1 0x40 MLOAD DUP4 PUSH4 0xFFFFFFFF AND PUSH1 0xE0 SHL DUP2 MSTORE PUSH1 0x4 ADD PUSH2 0x622 SWAP3 SWAP2 SWAP1 PUSH2 0x227E JUMP JUMPDEST PUSH1 0x0 PUSH1 0x40 MLOAD DUP1 DUP4 SUB DUP2 DUP7 GAS DELEGATECALL ISZERO DUP1 ISZERO PUSH2 0x63F JUMPI RETURNDATASIZE PUSH1 0x0 DUP1 RETURNDATACOPY RETURNDATASIZE PUSH1 0x0 REVERT JUMPDEST POP POP POP POP PUSH1 0x40 MLOAD RETURNDATASIZE PUSH1 0x0 DUP3 RETURNDATACOPY RETURNDATASIZE PUSH1 0x1F NOT PUSH1 0x1F DUP3 ADD AND DUP3 ADD DUP1 PUSH1 0x40 MSTORE POP DUP2 ADD SWAP1 PUSH2 0x668 SWAP2 SWAP1 PUSH2 0x2356 JUMP JUMPDEST DUP2 MSTORE PUSH1 0x20 ADD PUSH1 0x1 PUSH1 0x0 DUP8 DUP2 MSTORE PUSH1 0x20 ADD SWAP1 DUP2 MSTORE PUSH1 0x20 ADD PUSH1 0x0 KECCAK256 PUSH1 0x5 ADD PUSH1 0x0 SWAP1 SLOAD SWAP1 PUSH2 0x100 EXP SWAP1 DIV PUSH1 0xFF AND PUSH1 0xFF AND DUP2 MSTORE PUSH1 0x20 ADD PUSH1 0x1 PUSH1 0x0 DUP8 DUP2 MSTORE PUSH1 0x20 ADD SWAP1 DUP2 MSTORE PUSH1 0x20 ADD PUSH1 0x0 KECCAK256 PUSH1 0x6 ADD DUP1 SLOAD PUSH2 0x6BA SWAP1 PUSH2 0x215F JUMP JUMPDEST DUP1 PUSH1 0x1F ADD PUSH1 0x20 DUP1 SWAP2 DIV MUL PUSH1 0x20 ADD PUSH1 0x40 MLOAD SWAP1 DUP2 ADD PUSH1 0x40 MSTORE DUP1 SWAP3 SWAP2 SWAP1 DUP2 DUP2 MSTORE PUSH1 0x20 ADD DUP3 DUP1 SLOAD PUSH2 0x6E6 SWAP1 PUSH2 0x215F JUMP JUMPDEST DUP1 ISZERO PUSH2 0x733 JUMPI DUP1 PUSH1 0x1F LT PUSH2 0x708 JUMPI PUSH2 0x100 DUP1 DUP4 SLOAD DIV MUL DUP4 MSTORE SWAP2 PUSH1 0x20 ADD SWAP2 PUSH2 0x733 JUMP JUMPDEST DUP3 ADD SWAP2 SWAP1 PUSH1 0x0 MSTORE PUSH1 0x20 PUSH1 0x0 KECCAK256 SWAP1 JUMPDEST DUP2 SLOAD DUP2 MSTORE SWAP1 PUSH1 0x1 ADD SWAP1 PUSH1 0x20 ADD DUP1 DUP4 GT PUSH2 0x716 JUMPI DUP3 SWAP1 SUB PUSH1 0x1F AND DUP3 ADD SWAP2 JUMPDEST POP POP POP POP POP DUP2 MSTORE PUSH1 0x20 ADD PUSH1 0x1 PUSH1 0x0 DUP8 DUP2 MSTORE PUSH1 0x20 ADD SWAP1 DUP2 MSTORE PUSH1 0x20 ADD PUSH1 0x0 KECCAK256 PUSH1 0x7 ADD PUSH1 0x0 SWAP1 SLOAD SWAP1 PUSH2 0x100 EXP SWAP1 DIV PUSH20 0xFFFFFFFFFFFFFFFFFFFFFFFFFFFFFFFFFFFFFFFF AND PUSH20 0xFFFFFFFFFFFFFFFFFFFFFFFFFFFFFFFFFFFFFFFF AND DUP2 MSTORE PUSH1 0x20 ADD DUP6 DUP2 MSTORE POP SWAP1 POP JUMPDEST PUSH1 0x0 PUSH1 0x1 PUSH1 0x0 DUP7 DUP2 MSTORE PUSH1 0x20 ADD SWAP1 DUP2 MSTORE PUSH1 0x20 ADD PUSH1 0x0 KECCAK256 PUSH1 0x5 ADD PUSH1 0x0 SWAP1 SLOAD SWAP1 PUSH2 0x100 EXP SWAP1 DIV PUSH1 0xFF AND PUSH1 0xFF AND GT ISZERO PUSH2 0xBDB JUMPI PUSH1 0x40 MLOAD DUP1 PUSH2 0x120 ADD PUSH1 0x40 MSTORE DUP1 PUSH1 0x1 PUSH1 0x0 DUP8 DUP2 MSTORE PUSH1 0x20 ADD SWAP1 DUP2 MSTORE PUSH1 0x20 ADD PUSH1 0x0 KECCAK256 PUSH1 0x0 ADD DUP1 SLOAD PUSH2 0x7F2 SWAP1 PUSH2 0x215F JUMP JUMPDEST DUP1 PUSH1 0x1F ADD PUSH1 0x20 DUP1 SWAP2 DIV MUL PUSH1 0x20 ADD PUSH1 0x40 MLOAD SWAP1 DUP2 ADD PUSH1 0x40 MSTORE DUP1 SWAP3 SWAP2 SWAP1 DUP2 DUP2 MSTORE PUSH1 0x20 ADD DUP3 DUP1 SLOAD PUSH2 0x81E SWAP1 PUSH2 0x215F JUMP JUMPDEST DUP1 ISZERO PUSH2 0x86B JUMPI DUP1 PUSH1 0x1F LT PUSH2 0x840 JUMPI PUSH2 0x100 DUP1 DUP4 SLOAD DIV MUL DUP4 MSTORE SWAP2 PUSH1 0x20 ADD SWAP2 PUSH2 0x86B JUMP JUMPDEST DUP3 ADD SWAP2 SWAP1 PUSH1 0x0 MSTORE PUSH1 0x20 PUSH1 0x0 KECCAK256 SWAP1 JUMPDEST DUP2 SLOAD DUP2 MSTORE SWAP1 PUSH1 0x1 ADD SWAP1 PUSH1 0x20 ADD DUP1 DUP4 GT PUSH2 0x84E JUMPI DUP3 SWAP1 SUB PUSH1 0x1F AND DUP3 ADD SWAP2 JUMPDEST POP POP POP POP POP DUP2 MSTORE PUSH1 0x20 ADD PUSH1 0x1 PUSH1 0x0 DUP8 DUP2 MSTORE PUSH1 0x20 ADD SWAP1 DUP2 MSTORE PUSH1 0x20 ADD PUSH1 0x0 KECCAK256 PUSH1 0x1 ADD DUP1 SLOAD PUSH2 0x896 SWAP1 PUSH2 0x215F JUMP JUMPDEST DUP1 PUSH1 0x1F ADD PUSH1 0x20 DUP1 SWAP2 DIV MUL PUSH1 0x20 ADD PUSH1 0x40 MLOAD SWAP1 DUP2 ADD PUSH1 0x40 MSTORE DUP1 SWAP3 SWAP2 SWAP1 DUP2 DUP2 MSTORE PUSH1 0x20 ADD DUP3 DUP1 SLOAD PUSH2 0x8C2 SWAP1 PUSH2 0x215F JUMP JUMPDEST DUP1 ISZERO PUSH2 0x90F JUMPI DUP1 PUSH1 0x1F LT PUSH2 0x8E4 JUMPI PUSH2 0x100 DUP1 DUP4 SLOAD DIV MUL DUP4 MSTORE SWAP2 PUSH1 0x20 ADD SWAP2 PUSH2 0x90F JUMP JUMPDEST DUP3 ADD SWAP2 SWAP1 PUSH1 0x0 MSTORE PUSH1 0x20 PUSH1 0x0 KECCAK256 SWAP1 JUMPDEST DUP2 SLOAD DUP2 MSTORE SWAP1 PUSH1 0x1 ADD SWAP1 PUSH1 0x20 ADD DUP1 DUP4 GT PUSH2 0x8F2 JUMPI DUP3 SWAP1 SUB PUSH1 0x1F AND DUP3 ADD SWAP2 JUMPDEST POP POP POP POP POP DUP2 MSTORE PUSH1 0x20 ADD PUSH1 0x1 PUSH1 0x0 DUP8 DUP2 MSTORE PUSH1 0x20 ADD SWAP1 DUP2 MSTORE PUSH1 0x20 ADD PUSH1 0x0 KECCAK256 PUSH1 0x2 ADD DUP1 SLOAD PUSH2 0x93A SWAP1 PUSH2 0x215F JUMP JUMPDEST DUP1 PUSH1 0x1F ADD PUSH1 0x20 DUP1 SWAP2 DIV MUL PUSH1 0x20 ADD PUSH1 0x40 MLOAD SWAP1 DUP2 ADD PUSH1 0x40 MSTORE DUP1 SWAP3 SWAP2 SWAP1 DUP2 DUP2 MSTORE PUSH1 0x20 ADD DUP3 DUP1 SLOAD PUSH2 0x966 SWAP1 PUSH2 0x215F JUMP JUMPDEST DUP1 ISZERO PUSH2 0x9B3 JUMPI DUP1 PUSH1 0x1F LT PUSH2 0x988 JUMPI PUSH2 0x100 DUP1 DUP4 SLOAD DIV MUL DUP4 MSTORE SWAP2 PUSH1 0x20 ADD SWAP2 PUSH2 0x9B3 JUMP JUMPDEST DUP3 ADD SWAP2 SWAP1 PUSH1 0x0 MSTORE PUSH1 0x20 PUSH1 0x0 KECCAK256 SWAP1 JUMPDEST DUP2 SLOAD DUP2 MSTORE SWAP1 PUSH1 0x1 ADD SWAP1 PUSH1 0x20 ADD DUP1 DUP4 GT PUSH2 0x996 JUMPI DUP3 SWAP1 SUB PUSH1 0x1F AND DUP3 ADD SWAP2 JUMPDEST POP POP POP POP POP DUP2 MSTORE PUSH1 0x20 ADD PUSH1 0x40 MLOAD DUP1 PUSH1 0x40 ADD PUSH1 0x40 MSTORE DUP1 PUSH1 0x7 DUP2 MSTORE PUSH1 0x20 ADD PUSH32 0x2A2A2A2A2A2A2A00000000000000000000000000000000000000000000000000 DUP2 MSTORE POP DUP2 MSTORE PUSH1 0x20 ADD PUSH1 0x1 PUSH1 0x0 DUP8 DUP2 MSTORE PUSH1 0x20 ADD SWAP1 DUP2 MSTORE PUSH1 0x20 ADD PUSH1 0x0 KECCAK256 PUSH1 0x4 ADD DUP1 SLOAD PUSH2 0xA19 SWAP1 PUSH2 0x215F JUMP JUMPDEST DUP1 PUSH1 0x1F ADD PUSH1 0x20 DUP1 SWAP2 DIV MUL PUSH1 0x20 ADD PUSH1 0x40 MLOAD SWAP1 DUP2 ADD PUSH1 0x40 MSTORE DUP1 SWAP3 SWAP2 SWAP1 DUP2 DUP2 MSTORE PUSH1 0x20 ADD DUP3 DUP1 SLOAD PUSH2 0xA45 SWAP1 PUSH2 0x215F JUMP JUMPDEST DUP1 ISZERO PUSH2 0xA92 JUMPI DUP1 PUSH1 0x1F LT PUSH2 0xA67 JUMPI PUSH2 0x100 DUP1 DUP4 SLOAD DIV MUL DUP4 MSTORE SWAP2 PUSH1 0x20 ADD SWAP2 PUSH2 0xA92 JUMP JUMPDEST DUP3 ADD SWAP2 SWAP1 PUSH1 0x0 MSTORE PUSH1 0x20 PUSH1 0x0 KECCAK256 SWAP1 JUMPDEST DUP2 SLOAD DUP2 MSTORE SWAP1 PUSH1 0x1 ADD SWAP1 PUSH1 0x20 ADD DUP1 DUP4 GT PUSH2 0xA75 JUMPI DUP3 SWAP1 SUB PUSH1 0x1F AND DUP3 ADD SWAP2 JUMPDEST POP POP POP POP POP DUP2 MSTORE PUSH1 0x20 ADD PUSH1 0x1 PUSH1 0x0 DUP8 DUP2 MSTORE PUSH1 0x20 ADD SWAP1 DUP2 MSTORE PUSH1 0x20 ADD PUSH1 0x0 KECCAK256 PUSH1 0x5 ADD PUSH1 0x0 SWAP1 SLOAD SWAP1 PUSH2 0x100 EXP SWAP1 DIV PUSH1 0xFF AND PUSH1 0xFF AND DUP2 MSTORE PUSH1 0x20 ADD PUSH1 0x1 PUSH1 0x0 DUP8 DUP2 MSTORE PUSH1 0x20 ADD SWAP1 DUP2 MSTORE PUSH1 0x20 ADD PUSH1 0x0 KECCAK256 PUSH1 0x6 ADD DUP1 SLOAD PUSH2 0xAE9 SWAP1 PUSH2 0x215F JUMP JUMPDEST DUP1 PUSH1 0x1F ADD PUSH1 0x20 DUP1 SWAP2 DIV MUL PUSH1 0x20 ADD PUSH1 0x40 MLOAD SWAP1 DUP2 ADD PUSH1 0x40 MSTORE DUP1 SWAP3 SWAP2 SWAP1 DUP2 DUP2 MSTORE PUSH1 0x20 ADD DUP3 DUP1 SLOAD PUSH2 0xB15 SWAP1 PUSH2 0x215F JUMP JUMPDEST DUP1 ISZERO PUSH2 0xB62 JUMPI DUP1 PUSH1 0x1F LT PUSH2 0xB37 JUMPI PUSH2 0x100 DUP1 DUP4 SLOAD DIV MUL DUP4 MSTORE SWAP2 PUSH1 0x20 ADD SWAP2 PUSH2 0xB62 JUMP JUMPDEST DUP3 ADD SWAP2 SWAP1 PUSH1 0x0 MSTORE PUSH1 0x20 PUSH1 0x0 KECCAK256 SWAP1 JUMPDEST DUP2 SLOAD DUP2 MSTORE SWAP1 PUSH1 0x1 ADD SWAP1 PUSH1 0x20 ADD DUP1 DUP4 GT PUSH2 0xB45 JUMPI DUP3 SWAP1 SUB PUSH1 0x1F AND DUP3 ADD SWAP2 JUMPDEST POP POP POP POP POP DUP2 MSTORE PUSH1 0x20 ADD PUSH1 0x1 PUSH1 0x0 DUP8 DUP2 MSTORE PUSH1 0x20 ADD SWAP1 DUP2 MSTORE PUSH1 0x20 ADD PUSH1 0x0 KECCAK256 PUSH1 0x7 ADD PUSH1 0x0 SWAP1 SLOAD SWAP1 PUSH2 0x100 EXP SWAP1 DIV PUSH20 0xFFFFFFFFFFFFFFFFFFFFFFFFFFFFFFFFFFFFFFFF AND PUSH20 0xFFFFFFFFFFFFFFFFFFFFFFFFFFFFFFFFFFFFFFFF AND DUP2 MSTORE PUSH1 0x20 ADD PUSH1 0x1 PUSH1 0x0 DUP8 DUP2 MSTORE PUSH1 0x20 ADD SWAP1 DUP2 MSTORE PUSH1 0x20 ADD PUSH1 0x0 KECCAK256 PUSH1 0x8 ADD SLOAD DUP2 MSTORE POP SWAP1 POP JUMPDEST PUSH2 0xBE5 DUP5 DUP5 PUSH2 0x15A2 JUMP JUMPDEST ISZERO PUSH2 0xC92 JUMPI PUSH1 0x1 PUSH1 0x0 DUP6 DUP2 MSTORE PUSH1 0x20 ADD SWAP1 DUP2 MSTORE PUSH1 0x20 ADD PUSH1 0x0 KECCAK256 PUSH1 0x3 ADD DUP1 SLOAD PUSH2 0xC0B SWAP1 PUSH2 0x215F JUMP JUMPDEST DUP1 PUSH1 0x1F ADD PUSH1 0x20 DUP1 SWAP2 DIV MUL PUSH1 0x20 ADD PUSH1 0x40 MLOAD SWAP1 DUP2 ADD PUSH1 0x40 MSTORE DUP1 SWAP3 SWAP2 SWAP1 DUP2 DUP2 MSTORE PUSH1 0x20 ADD DUP3 DUP1 SLOAD PUSH2 0xC37 SWAP1 PUSH2 0x215F JUMP JUMPDEST DUP1 ISZERO PUSH2 0xC84 JUMPI DUP1 PUSH1 0x1F LT PUSH2 0xC59 JUMPI PUSH2 0x100 DUP1 DUP4 SLOAD DIV MUL DUP4 MSTORE SWAP2 PUSH1 0x20 ADD SWAP2 PUSH2 0xC84 JUMP JUMPDEST DUP3 ADD SWAP2 SWAP1 PUSH1 0x0 MSTORE PUSH1 0x20 PUSH1 0x0 KECCAK256 SWAP1 JUMPDEST DUP2 SLOAD DUP2 MSTORE SWAP1 PUSH1 0x1 ADD SWAP1 PUSH1 0x20 ADD DUP1 DUP4 GT PUSH2 0xC67 JUMPI DUP3 SWAP1 SUB PUSH1 0x1F AND DUP3 ADD SWAP2 JUMPDEST POP POP POP POP POP DUP2 PUSH1 0x60 ADD DUP2 SWAP1 MSTORE POP JUMPDEST DUP1 SWAP2 POP POP SWAP3 SWAP2 POP POP JUMP JUMPDEST CALLER PUSH20 0xFFFFFFFFFFFFFFFFFFFFFFFFFFFFFFFFFFFFFFFF AND PUSH1 0x1 PUSH1 0x0 DUP10 DUP2 MSTORE PUSH1 0x20 ADD SWAP1 DUP2 MSTORE PUSH1 0x20 ADD PUSH1 0x0 KECCAK256 PUSH1 0x7 ADD PUSH1 0x0 SWAP1 SLOAD SWAP1 PUSH2 0x100 EXP SWAP1 DIV PUSH20 0xFFFFFFFFFFFFFFFFFFFFFFFFFFFFFFFFFFFFFFFF AND PUSH20 0xFFFFFFFFFFFFFFFFFFFFFFFFFFFFFFFFFFFFFFFF AND EQ ISZERO DUP1 ISZERO PUSH2 0xD14 JUMPI POP PUSH2 0xD13 DUP8 DUP3 PUSH2 0x15A2 JUMP JUMPDEST JUMPDEST ISZERO PUSH2 0xDFF JUMPI DUP6 PUSH1 0x1 PUSH1 0x0 DUP10 DUP2 MSTORE PUSH1 0x20 ADD SWAP1 DUP2 MSTORE PUSH1 0x20 ADD PUSH1 0x0 KECCAK256 PUSH1 0x0 ADD SWAP1 DUP2 PUSH2 0xD3C SWAP2 SWAP1 PUSH2 0x2555 JUMP JUMPDEST POP DUP5 PUSH1 0x1 PUSH1 0x0 DUP10 DUP2 MSTORE PUSH1 0x20 ADD SWAP1 DUP2 MSTORE PUSH1 0x20 ADD PUSH1 0x0 KECCAK256 PUSH1 0x2 ADD SWAP1 DUP2 PUSH2 0xD60 SWAP2 SWAP1 PUSH2 0x2555 JUMP JUMPDEST POP DUP4 PUSH1 0x1 PUSH1 0x0 DUP10 DUP2 MSTORE PUSH1 0x20 ADD SWAP1 DUP2 MSTORE PUSH1 0x20 ADD PUSH1 0x0 KECCAK256 PUSH1 0x4 ADD SWAP1 DUP2 PUSH2 0xD84 SWAP2 SWAP1 PUSH2 0x2555 JUMP JUMPDEST POP DUP3 PUSH1 0x1 PUSH1 0x0 DUP10 DUP2 MSTORE PUSH1 0x20 ADD SWAP1 DUP2 MSTORE PUSH1 0x20 ADD PUSH1 0x0 KECCAK256 PUSH1 0x7 ADD PUSH1 0x0 PUSH2 0x100 EXP DUP2 SLOAD DUP2 PUSH20 0xFFFFFFFFFFFFFFFFFFFFFFFFFFFFFFFFFFFFFFFF MUL NOT AND SWAP1 DUP4 PUSH20 0xFFFFFFFFFFFFFFFFFFFFFFFFFFFFFFFFFFFFFFFF AND MUL OR SWAP1 SSTORE POP DUP2 PUSH1 0x1 PUSH1 0x0 DUP10 DUP2 MSTORE PUSH1 0x20 ADD SWAP1 DUP2 MSTORE PUSH1 0x20 ADD PUSH1 0x0 KECCAK256 PUSH1 0x6 ADD SWAP1 DUP2 PUSH2 0xDFD SWAP2 SWAP1 PUSH2 0x2555 JUMP JUMPDEST POP JUMPDEST POP POP POP POP POP POP POP JUMP JUMPDEST PUSH1 0x0 PUSH2 0xE12 PUSH2 0x1699 JUMP JUMPDEST PUSH1 0x5 DUP6 PUSH1 0xFF AND GT ISZERO PUSH2 0xE59 JUMPI PUSH1 0x40 MLOAD PUSH32 0x8C379A000000000000000000000000000000000000000000000000000000000 DUP2 MSTORE PUSH1 0x4 ADD PUSH2 0xE50 SWAP1 PUSH2 0x2684 JUMP JUMPDEST PUSH1 0x40 MLOAD DUP1 SWAP2 SUB SWAP1 REVERT JUMPDEST PUSH1 0xD DUP9 MLOAD EQ PUSH2 0xE9D JUMPI PUSH1 0x40 MLOAD PUSH32 0x8C379A000000000000000000000000000000000000000000000000000000000 DUP2 MSTORE PUSH1 0x4 ADD PUSH2 0xE94 SWAP1 PUSH2 0x26F0 JUMP JUMPDEST PUSH1 0x40 MLOAD DUP1 SWAP2 SUB SWAP1 REVERT JUMPDEST PUSH1 0x6 DUP10 MLOAD GT PUSH2 0xEE1 JUMPI PUSH1 0x40 MLOAD PUSH32 0x8C379A000000000000000000000000000000000000000000000000000000000 DUP2 MSTORE PUSH1 0x4 ADD PUSH2 0xED8 SWAP1 PUSH2 0x275C JUMP JUMPDEST PUSH1 0x40 MLOAD DUP1 SWAP2 SUB SWAP1 REVERT JUMPDEST PUSH1 0xA DUP8 MLOAD GT PUSH2 0xF25 JUMPI PUSH1 0x40 MLOAD PUSH32 0x8C379A000000000000000000000000000000000000000000000000000000000 DUP2 MSTORE PUSH1 0x4 ADD PUSH2 0xF1C SWAP1 PUSH2 0x27C8 JUMP JUMPDEST PUSH1 0x40 MLOAD DUP1 SWAP2 SUB SWAP1 REVERT JUMPDEST PUSH1 0x8 DUP7 MLOAD GT PUSH2 0xF69 JUMPI PUSH1 0x40 MLOAD PUSH32 0x8C379A000000000000000000000000000000000000000000000000000000000 DUP2 MSTORE PUSH1 0x4 ADD PUSH2 0xF60 SWAP1 PUSH2 0x2834 JUMP JUMPDEST PUSH1 0x40 MLOAD DUP1 SWAP2 SUB SWAP1 REVERT JUMPDEST PUSH1 0x6 DUP5 MLOAD GT PUSH2 0xFAD JUMPI PUSH1 0x40 MLOAD PUSH32 0x8C379A000000000000000000000000000000000000000000000000000000000 DUP2 MSTORE PUSH1 0x4 ADD PUSH2 0xFA4 SWAP1 PUSH2 0x28A0 JUMP JUMPDEST PUSH1 0x40 MLOAD DUP1 SWAP2 SUB SWAP1 REVERT JUMPDEST PUSH1 0x0 DUP10 DUP10 PUSH2 0xFBD DUP9 PUSH1 0xFF AND PUSH2 0x1729 JUMP JUMPDEST DUP11 DUP11 DUP10 PUSH1 0x40 MLOAD PUSH1 0x20 ADD PUSH2 0xFD5 SWAP7 SWAP6 SWAP5 SWAP4 SWAP3 SWAP2 SWAP1 PUSH2 0x28FC JUMP JUMPDEST PUSH1 0x40 MLOAD PUSH1 0x20 DUP2 DUP4 SUB SUB DUP2 MSTORE SWAP1 PUSH1 0x40 MSTORE PUSH1 0x40 MLOAD PUSH1 0x20 ADD PUSH2 0xFF4 SWAP2 SWAP1 PUSH2 0x2954 JUMP JUMPDEST PUSH1 0x40 MLOAD PUSH1 0x20 DUP2 DUP4 SUB SUB DUP2 MSTORE SWAP1 PUSH1 0x40 MSTORE DUP1 MLOAD SWAP1 PUSH1 0x20 ADD KECCAK256 SWAP1 POP PUSH1 0x0 DUP7 PUSH1 0xFF AND SUB PUSH2 0x13F4 JUMPI PUSH1 0x40 MLOAD DUP1 PUSH2 0x120 ADD PUSH1 0x40 MSTORE DUP1 PUSH20 0x0 PUSH4 0x15CFEC7 DUP14 DUP12 PUSH1 0x40 MLOAD DUP4 PUSH4 0xFFFFFFFF AND PUSH1 0xE0 SHL DUP2 MSTORE PUSH1 0x4 ADD PUSH2 0x105C SWAP3 SWAP2 SWAP1 PUSH2 0x296B JUMP JUMPDEST PUSH1 0x0 PUSH1 0x40 MLOAD DUP1 DUP4 SUB DUP2 DUP7 GAS DELEGATECALL ISZERO DUP1 ISZERO PUSH2 0x1079 JUMPI RETURNDATASIZE PUSH1 0x0 DUP1 RETURNDATACOPY RETURNDATASIZE PUSH1 0x0 REVERT JUMPDEST POP POP POP POP PUSH1 0x40 MLOAD RETURNDATASIZE PUSH1 0x0 DUP3 RETURNDATACOPY RETURNDATASIZE PUSH1 0x1F NOT PUSH1 0x1F DUP3 ADD AND DUP3 ADD DUP1 PUSH1 0x40 MSTORE POP DUP2 ADD SWAP1 PUSH2 0x10A2 SWAP2 SWAP1 PUSH2 0x2356 JUMP JUMPDEST DUP2 MSTORE PUSH1 0x20 ADD PUSH20 0x0 PUSH4 0x15CFEC7 DUP13 DUP12 PUSH1 0x40 MLOAD DUP4 PUSH4 0xFFFFFFFF AND PUSH1 0xE0 SHL DUP2 MSTORE PUSH1 0x4 ADD PUSH2 0x10E0 SWAP3 SWAP2 SWAP1 PUSH2 0x296B JUMP JUMPDEST PUSH1 0x0 PUSH1 0x40 MLOAD DUP1 DUP4 SUB DUP2 DUP7 GAS DELEGATECALL ISZERO DUP1 ISZERO PUSH2 0x10FD JUMPI RETURNDATASIZE PUSH1 0x0 DUP1 RETURNDATACOPY RETURNDATASIZE PUSH1 0x0 REVERT JUMPDEST POP POP POP POP PUSH1 0x40 MLOAD RETURNDATASIZE PUSH1 0x0 DUP3 RETURNDATACOPY RETURNDATASIZE PUSH1 0x1F NOT PUSH1 0x1F DUP3 ADD AND DUP3 ADD DUP1 PUSH1 0x40 MSTORE POP DUP2 ADD SWAP1 PUSH2 0x1126 SWAP2 SWAP1 PUSH2 0x2356 JUMP JUMPDEST DUP2 MSTORE PUSH1 0x20 ADD PUSH20 0x0 PUSH4 0x15CFEC7 DUP12 DUP12 PUSH1 0x40 MLOAD DUP4 PUSH4 0xFFFFFFFF AND PUSH1 0xE0 SHL DUP2 MSTORE PUSH1 0x4 ADD PUSH2 0x1164 SWAP3 SWAP2 SWAP1 PUSH2 0x296B JUMP JUMPDEST PUSH1 0x0 PUSH1 0x40 MLOAD DUP1 DUP4 SUB DUP2 DUP7 GAS DELEGATECALL ISZERO DUP1 ISZERO PUSH2 0x1181 JUMPI RETURNDATASIZE PUSH1 0x0 DUP1 RETURNDATACOPY RETURNDATASIZE PUSH1 0x0 REVERT JUMPDEST POP POP POP POP PUSH1 0x40 MLOAD RETURNDATASIZE PUSH1 0x0 DUP3 RETURNDATACOPY RETURNDATASIZE PUSH1 0x1F NOT PUSH1 0x1F DUP3 ADD AND DUP3 ADD DUP1 PUSH1 0x40 MSTORE POP DUP2 ADD SWAP1 PUSH2 0x11AA SWAP2 SWAP1 PUSH2 0x2356 JUMP JUMPDEST DUP2 MSTORE PUSH1 0x20 ADD DUP9 PUSH1 0x40 MLOAD PUSH1 0x20 ADD PUSH2 0x11C0 SWAP2 SWAP1 PUSH2 0x2954 JUMP JUMPDEST PUSH1 0x40 MLOAD PUSH1 0x20 DUP2 DUP4 SUB SUB DUP2 MSTORE SWAP1 PUSH1 0x40 MSTORE DUP1 MLOAD SWAP1 PUSH1 0x20 ADD KECCAK256 PUSH1 0x40 MLOAD PUSH1 0x20 ADD PUSH2 0x11E6 SWAP2 SWAP1 PUSH2 0x29C3 JUMP JUMPDEST PUSH1 0x40 MLOAD PUSH1 0x20 DUP2 DUP4 SUB SUB DUP2 MSTORE SWAP1 PUSH1 0x40 MSTORE DUP2 MSTORE PUSH1 0x20 ADD PUSH20 0x0 PUSH4 0x15CFEC7 DUP9 DUP12 PUSH1 0x40 MLOAD DUP4 PUSH4 0xFFFFFFFF AND PUSH1 0xE0 SHL DUP2 MSTORE PUSH1 0x4 ADD PUSH2 0x1233 SWAP3 SWAP2 SWAP1 PUSH2 0x296B JUMP JUMPDEST PUSH1 0x0 PUSH1 0x40 MLOAD DUP1 DUP4 SUB DUP2 DUP7 GAS DELEGATECALL ISZERO DUP1 ISZERO PUSH2 0x1250 JUMPI RETURNDATASIZE PUSH1 0x0 DUP1 RETURNDATACOPY RETURNDATASIZE PUSH1 0x0 REVERT JUMPDEST POP POP POP POP PUSH1 0x40 MLOAD RETURNDATASIZE PUSH1 0x0 DUP3 RETURNDATACOPY RETURNDATASIZE PUSH1 0x1F NOT PUSH1 0x1F DUP3 ADD AND DUP3 ADD DUP1 PUSH1 0x40 MSTORE POP DUP2 ADD SWAP1 PUSH2 0x1279 SWAP2 SWAP1 PUSH2 0x2356 JUMP JUMPDEST DUP2 MSTORE PUSH1 0x20 ADD DUP8 PUSH1 0xFF AND DUP2 MSTORE PUSH1 0x20 ADD PUSH1 0x40 MLOAD DUP1 PUSH1 0x40 ADD PUSH1 0x40 MSTORE DUP1 PUSH1 0x1 DUP2 MSTORE PUSH1 0x20 ADD PUSH32 0x3000000000000000000000000000000000000000000000000000000000000000 DUP2 MSTORE POP DUP2 MSTORE PUSH1 0x20 ADD DUP6 PUSH20 0xFFFFFFFFFFFFFFFFFFFFFFFFFFFFFFFFFFFFFFFF AND DUP2 MSTORE PUSH1 0x20 ADD DUP3 DUP2 MSTORE POP PUSH1 0x1 PUSH1 0x0 DUP4 DUP2 MSTORE PUSH1 0x20 ADD SWAP1 DUP2 MSTORE PUSH1 0x20 ADD PUSH1 0x0 KECCAK256 PUSH1 0x0 DUP3 ADD MLOAD DUP2 PUSH1 0x0 ADD SWAP1 DUP2 PUSH2 0x130A SWAP2 SWAP1 PUSH2 0x2555 JUMP JUMPDEST POP PUSH1 0x20 DUP3 ADD MLOAD DUP2 PUSH1 0x1 ADD SWAP1 DUP2 PUSH2 0x1320 SWAP2 SWAP1 PUSH2 0x2555 JUMP JUMPDEST POP PUSH1 0x40 DUP3 ADD MLOAD DUP2 PUSH1 0x2 ADD SWAP1 DUP2 PUSH2 0x1336 SWAP2 SWAP1 PUSH2 0x2555 JUMP JUMPDEST POP PUSH1 0x60 DUP3 ADD MLOAD DUP2 PUSH1 0x3 ADD SWAP1 DUP2 PUSH2 0x134C SWAP2 SWAP1 PUSH2 0x2555 JUMP JUMPDEST POP PUSH1 0x80 DUP3 ADD MLOAD DUP2 PUSH1 0x4 ADD SWAP1 DUP2 PUSH2 0x1362 SWAP2 SWAP1 PUSH2 0x2555 JUMP JUMPDEST POP PUSH1 0xA0 DUP3 ADD MLOAD DUP2 PUSH1 0x5 ADD PUSH1 0x0 PUSH2 0x100 EXP DUP2 SLOAD DUP2 PUSH1 0xFF MUL NOT AND SWAP1 DUP4 PUSH1 0xFF AND MUL OR SWAP1 SSTORE POP PUSH1 0xC0 DUP3 ADD MLOAD DUP2 PUSH1 0x6 ADD SWAP1 DUP2 PUSH2 0x1399 SWAP2 SWAP1 PUSH2 0x2555 JUMP JUMPDEST POP PUSH1 0xE0 DUP3 ADD MLOAD DUP2 PUSH1 0x7 ADD PUSH1 0x0 PUSH2 0x100 EXP DUP2 SLOAD DUP2 PUSH20 0xFFFFFFFFFFFFFFFFFFFFFFFFFFFFFFFFFFFFFFFF MUL NOT AND SWAP1 DUP4 PUSH20 0xFFFFFFFFFFFFFFFFFFFFFFFFFFFFFFFFFFFFFFFF AND MUL OR SWAP1 SSTORE POP PUSH2 0x100 DUP3 ADD MLOAD DUP2 PUSH1 0x8 ADD SSTORE SWAP1 POP POP PUSH2 0x155B JUMP JUMPDEST PUSH1 0x40 MLOAD DUP1 PUSH2 0x120 ADD PUSH1 0x40 MSTORE DUP1 DUP12 DUP2 MSTORE PUSH1 0x20 ADD DUP11 DUP2 MSTORE PUSH1 0x20 ADD DUP10 DUP2 MSTORE PUSH1 0x20 ADD DUP9 DUP2 MSTORE PUSH1 0x20 ADD DUP7 DUP2 MSTORE PUSH1 0x20 ADD DUP8 PUSH1 0xFF AND DUP2 MSTORE PUSH1 0x20 ADD DUP5 DUP2 MSTORE PUSH1 0x20 ADD DUP6 PUSH20 0xFFFFFFFFFFFFFFFFFFFFFFFFFFFFFFFFFFFFFFFF AND DUP2 MSTORE PUSH1 0x20 ADD DUP3 DUP2 MSTORE POP PUSH1 0x1 PUSH1 0x0 DUP4 DUP2 MSTORE PUSH1 0x20 ADD SWAP1 DUP2 MSTORE PUSH1 0x20 ADD PUSH1 0x0 KECCAK256 PUSH1 0x0 DUP3 ADD MLOAD DUP2 PUSH1 0x0 ADD SWAP1 DUP2 PUSH2 0x1475 SWAP2 SWAP1 PUSH2 0x2555 JUMP JUMPDEST POP PUSH1 0x20 DUP3 ADD MLOAD DUP2 PUSH1 0x1 ADD SWAP1 DUP2 PUSH2 0x148B SWAP2 SWAP1 PUSH2 0x2555 JUMP JUMPDEST POP PUSH1 0x40 DUP3 ADD MLOAD DUP2 PUSH1 0x2 ADD SWAP1 DUP2 PUSH2 0x14A1 SWAP2 SWAP1 PUSH2 0x2555 JUMP JUMPDEST POP PUSH1 0x60 DUP3 ADD MLOAD DUP2 PUSH1 0x3 ADD SWAP1 DUP2 PUSH2 0x14B7 SWAP2 SWAP1 PUSH2 0x2555 JUMP JUMPDEST POP PUSH1 0x80 DUP3 ADD MLOAD DUP2 PUSH1 0x4 ADD SWAP1 DUP2 PUSH2 0x14CD SWAP2 SWAP1 PUSH2 0x2555 JUMP JUMPDEST POP PUSH1 0xA0 DUP3 ADD MLOAD DUP2 PUSH1 0x5 ADD PUSH1 0x0 PUSH2 0x100 EXP DUP2 SLOAD DUP2 PUSH1 0xFF MUL NOT AND SWAP1 DUP4 PUSH1 0xFF AND MUL OR SWAP1 SSTORE POP PUSH1 0xC0 DUP3 ADD MLOAD DUP2 PUSH1 0x6 ADD SWAP1 DUP2 PUSH2 0x1504 SWAP2 SWAP1 PUSH2 0x2555 JUMP JUMPDEST POP PUSH1 0xE0 DUP3 ADD MLOAD DUP2 PUSH1 0x7 ADD PUSH1 0x0 PUSH2 0x100 EXP DUP2 SLOAD DUP2 PUSH20 0xFFFFFFFFFFFFFFFFFFFFFFFFFFFFFFFFFFFFFFFF MUL NOT AND SWAP1 DUP4 PUSH20 0xFFFFFFFFFFFFFFFFFFFFFFFFFFFFFFFFFFFFFFFF AND MUL OR SWAP1 SSTORE POP PUSH2 0x100 DUP3 ADD MLOAD DUP2 PUSH1 0x8 ADD SSTORE SWAP1 POP POP JUMPDEST PUSH32 0xA8C560616579705E004D37FD505597CD07D92D2604F0B9B435752FA9378E2655 DUP2 PUSH1 0x40 MLOAD PUSH2 0x158A SWAP2 SWAP1 PUSH2 0x20DF JUMP JUMPDEST PUSH1 0x40 MLOAD DUP1 SWAP2 SUB SWAP1 LOG1 DUP1 SWAP2 POP POP SWAP9 SWAP8 POP POP POP POP POP POP POP POP JUMP JUMPDEST PUSH1 0x0 PUSH2 0x1691 DUP3 PUSH1 0x40 MLOAD PUSH1 0x20 ADD PUSH2 0x15B8 SWAP2 SWAP1 PUSH2 0x2954 JUMP JUMPDEST PUSH1 0x40 MLOAD PUSH1 0x20 DUP2 DUP4 SUB SUB DUP2 MSTORE SWAP1 PUSH1 0x40 MSTORE DUP1 MLOAD SWAP1 PUSH1 0x20 ADD KECCAK256 PUSH1 0x40 MLOAD PUSH1 0x20 ADD PUSH2 0x15DE SWAP2 SWAP1 PUSH2 0x29C3 JUMP JUMPDEST PUSH1 0x40 MLOAD PUSH1 0x20 DUP2 DUP4 SUB SUB DUP2 MSTORE SWAP1 PUSH1 0x40 MSTORE PUSH1 0x1 PUSH1 0x0 DUP7 DUP2 MSTORE PUSH1 0x20 ADD SWAP1 DUP2 MSTORE PUSH1 0x20 ADD PUSH1 0x0 KECCAK256 PUSH1 0x3 ADD DUP1 SLOAD PUSH2 0x160E SWAP1 PUSH2 0x215F JUMP JUMPDEST DUP1 PUSH1 0x1F ADD PUSH1 0x20 DUP1 SWAP2 DIV MUL PUSH1 0x20 ADD PUSH1 0x40 MLOAD SWAP1 DUP2 ADD PUSH1 0x40 MSTORE DUP1 SWAP3 SWAP2 SWAP1 DUP2 DUP2 MSTORE PUSH1 0x20 ADD DUP3 DUP1 SLOAD PUSH2 0x163A SWAP1 PUSH2 0x215F JUMP JUMPDEST DUP1 ISZERO PUSH2 0x1687 JUMPI DUP1 PUSH1 0x1F LT PUSH2 0x165C JUMPI PUSH2 0x100 DUP1 DUP4 SLOAD DIV MUL DUP4 MSTORE SWAP2 PUSH1 0x20 ADD SWAP2 PUSH2 0x1687 JUMP JUMPDEST DUP3 ADD SWAP2 SWAP1 PUSH1 0x0 MSTORE PUSH1 0x20 PUSH1 0x0 KECCAK256 SWAP1 JUMPDEST DUP2 SLOAD DUP2 MSTORE SWAP1 PUSH1 0x1 ADD SWAP1 PUSH1 0x20 ADD DUP1 DUP4 GT PUSH2 0x166A JUMPI DUP3 SWAP1 SUB PUSH1 0x1F AND DUP3 ADD SWAP2 JUMPDEST POP POP POP POP POP PUSH2 0x17F7 JUMP JUMPDEST SWAP1 POP SWAP3 SWAP2 POP POP JUMP JUMPDEST CALLER PUSH20 0xFFFFFFFFFFFFFFFFFFFFFFFFFFFFFFFFFFFFFFFF AND PUSH1 0x0 DUP1 SLOAD SWAP1 PUSH2 0x100 EXP SWAP1 DIV PUSH20 0xFFFFFFFFFFFFFFFFFFFFFFFFFFFFFFFFFFFFFFFF AND PUSH20 0xFFFFFFFFFFFFFFFFFFFFFFFFFFFFFFFFFFFFFFFF AND EQ PUSH2 0x1727 JUMPI PUSH1 0x40 MLOAD PUSH32 0x8C379A000000000000000000000000000000000000000000000000000000000 DUP2 MSTORE PUSH1 0x4 ADD PUSH2 0x171E SWAP1 PUSH2 0x2A2A JUMP JUMPDEST PUSH1 0x40 MLOAD DUP1 SWAP2 SUB SWAP1 REVERT JUMPDEST JUMP JUMPDEST PUSH1 0x60 PUSH1 0x0 PUSH1 0x1 PUSH2 0x1738 DUP5 PUSH2 0x1850 JUMP JUMPDEST ADD SWAP1 POP PUSH1 0x0 DUP2 PUSH8 0xFFFFFFFFFFFFFFFF DUP2 GT ISZERO PUSH2 0x1757 JUMPI PUSH2 0x1756 PUSH2 0x1A70 JUMP JUMPDEST JUMPDEST PUSH1 0x40 MLOAD SWAP1 DUP1 DUP3 MSTORE DUP1 PUSH1 0x1F ADD PUSH1 0x1F NOT AND PUSH1 0x20 ADD DUP3 ADD PUSH1 0x40 MSTORE DUP1 ISZERO PUSH2 0x1789 JUMPI DUP2 PUSH1 0x20 ADD PUSH1 0x1 DUP3 MUL DUP1 CALLDATASIZE DUP4 CALLDATACOPY DUP1 DUP3 ADD SWAP2 POP POP SWAP1 POP JUMPDEST POP SWAP1 POP PUSH1 0x0 DUP3 PUSH1 0x20 ADD DUP3 ADD SWAP1 POP JUMPDEST PUSH1 0x1 ISZERO PUSH2 0x17EC JUMPI DUP1 DUP1 PUSH1 0x1 SWAP1 SUB SWAP2 POP POP PUSH32 0x3031323334353637383961626364656600000000000000000000000000000000 PUSH1 0xA DUP7 MOD BYTE DUP2 MSTORE8 PUSH1 0xA DUP6 DUP2 PUSH2 0x17E0 JUMPI PUSH2 0x17DF PUSH2 0x2A4A JUMP JUMPDEST JUMPDEST DIV SWAP5 POP PUSH1 0x0 DUP6 SUB PUSH2 0x1797 JUMPI JUMPDEST DUP2 SWAP4 POP POP POP POP SWAP2 SWAP1 POP JUMP JUMPDEST PUSH1 0x0 DUP2 PUSH1 0x40 MLOAD PUSH1 0x20 ADD PUSH2 0x180A SWAP2 SWAP1 PUSH2 0x2954 JUMP JUMPDEST PUSH1 0x40 MLOAD PUSH1 0x20 DUP2 DUP4 SUB SUB DUP2 MSTORE SWAP1 PUSH1 0x40 MSTORE DUP1 MLOAD SWAP1 PUSH1 0x20 ADD KECCAK256 DUP4 PUSH1 0x40 MLOAD PUSH1 0x20 ADD PUSH2 0x1831 SWAP2 SWAP1 PUSH2 0x2954 JUMP JUMPDEST PUSH1 0x40 MLOAD PUSH1 0x20 DUP2 DUP4 SUB SUB DUP2 MSTORE SWAP1 PUSH1 0x40 MSTORE DUP1 MLOAD SWAP1 PUSH1 0x20 ADD KECCAK256 EQ SWAP1 POP SWAP3 SWAP2 POP POP JUMP JUMPDEST PUSH1 0x0 DUP1 PUSH1 0x0 SWAP1 POP PUSH27 0x184F03E93FF9F4DAA797ED6E38ED64BF6A1F010000000000000000 DUP4 LT PUSH2 0x18AE JUMPI PUSH27 0x184F03E93FF9F4DAA797ED6E38ED64BF6A1F010000000000000000 DUP4 DUP2 PUSH2 0x18A4 JUMPI PUSH2 0x18A3 PUSH2 0x2A4A JUMP JUMPDEST JUMPDEST DIV SWAP3 POP PUSH1 0x40 DUP2 ADD SWAP1 POP JUMPDEST PUSH14 0x4EE2D6D415B85ACEF8100000000 DUP4 LT PUSH2 0x18EB JUMPI PUSH14 0x4EE2D6D415B85ACEF8100000000 DUP4 DUP2 PUSH2 0x18E1 JUMPI PUSH2 0x18E0 PUSH2 0x2A4A JUMP JUMPDEST JUMPDEST DIV SWAP3 POP PUSH1 0x20 DUP2 ADD SWAP1 POP JUMPDEST PUSH7 0x2386F26FC10000 DUP4 LT PUSH2 0x191A JUMPI PUSH7 0x2386F26FC10000 DUP4 DUP2 PUSH2 0x1910 JUMPI PUSH2 0x190F PUSH2 0x2A4A JUMP JUMPDEST JUMPDEST DIV SWAP3 POP PUSH1 0x10 DUP2 ADD SWAP1 POP JUMPDEST PUSH4 0x5F5E100 DUP4 LT PUSH2 0x1943 JUMPI PUSH4 0x5F5E100 DUP4 DUP2 PUSH2 0x1939 JUMPI PUSH2 0x1938 PUSH2 0x2A4A JUMP JUMPDEST JUMPDEST DIV SWAP3 POP PUSH1 0x8 DUP2 ADD SWAP1 POP JUMPDEST PUSH2 0x2710 DUP4 LT PUSH2 0x1968 JUMPI PUSH2 0x2710 DUP4 DUP2 PUSH2 0x195E JUMPI PUSH2 0x195D PUSH2 0x2A4A JUMP JUMPDEST JUMPDEST DIV SWAP3 POP PUSH1 0x4 DUP2 ADD SWAP1 POP JUMPDEST PUSH1 0x64 DUP4 LT PUSH2 0x198B JUMPI PUSH1 0x64 DUP4 DUP2 PUSH2 0x1981 JUMPI PUSH2 0x1980 PUSH2 0x2A4A JUMP JUMPDEST JUMPDEST DIV SWAP3 POP PUSH1 0x2 DUP2 ADD SWAP1 POP JUMPDEST PUSH1 0xA DUP4 LT PUSH2 0x199A JUMPI PUSH1 0x1 DUP2 ADD SWAP1 POP JUMPDEST DUP1 SWAP2 POP POP SWAP2 SWAP1 POP JUMP JUMPDEST PUSH1 0x40 MLOAD DUP1 PUSH2 0x120 ADD PUSH1 0x40 MSTORE DUP1 PUSH1 0x60 DUP2 MSTORE PUSH1 0x20 ADD PUSH1 0x60 DUP2 MSTORE PUSH1 0x20 ADD PUSH1 0x60 DUP2 MSTORE PUSH1 0x20 ADD PUSH1 0x60 DUP2 MSTORE PUSH1 0x20 ADD PUSH1 0x60 DUP2 MSTORE PUSH1 0x20 ADD PUSH1 0x0 PUSH1 0xFF AND DUP2 MSTORE PUSH1 0x20 ADD PUSH1 0x60 DUP2 MSTORE PUSH1 0x20 ADD PUSH1 0x0 PUSH20 0xFFFFFFFFFFFFFFFFFFFFFFFFFFFFFFFFFFFFFFFF AND DUP2 MSTORE PUSH1 0x20 ADD PUSH1 0x0 DUP1 NOT AND DUP2 MSTORE POP SWAP1 JUMP JUMPDEST PUSH1 0x0 PUSH1 0x40 MLOAD SWAP1 POP SWAP1 JUMP JUMPDEST PUSH1 0x0 DUP1 REVERT JUMPDEST PUSH1 0x0 DUP1 REVERT JUMPDEST PUSH1 0x0 DUP2 SWAP1 POP SWAP2 SWAP1 POP JUMP JUMPDEST PUSH2 0x1A32 DUP2 PUSH2 0x1A1F JUMP JUMPDEST DUP2 EQ PUSH2 0x1A3D JUMPI PUSH1 0x0 DUP1 REVERT JUMPDEST POP JUMP JUMPDEST PUSH1 0x0 DUP2 CALLDATALOAD SWAP1 POP PUSH2 0x1A4F DUP2 PUSH2 0x1A29 JUMP JUMPDEST SWAP3 SWAP2 POP POP JUMP JUMPDEST PUSH1 0x0 DUP1 REVERT JUMPDEST PUSH1 0x0 DUP1 REVERT JUMPDEST PUSH1 0x0 PUSH1 0x1F NOT PUSH1 0x1F DUP4 ADD AND SWAP1 POP SWAP2 SWAP1 POP JUMP JUMPDEST PUSH32 0x4E487B7100000000000000000000000000000000000000000000000000000000 PUSH1 0x0 MSTORE PUSH1 0x41 PUSH1 0x4 MSTORE PUSH1 0x24 PUSH1 0x0 REVERT JUMPDEST PUSH2 0x1AA8 DUP3 PUSH2 0x1A5F JUMP JUMPDEST DUP2 ADD DUP2 DUP2 LT PUSH8 0xFFFFFFFFFFFFFFFF DUP3 GT OR ISZERO PUSH2 0x1AC7 JUMPI PUSH2 0x1AC6 PUSH2 0x1A70 JUMP JUMPDEST JUMPDEST DUP1 PUSH1 0x40 MSTORE POP POP POP JUMP JUMPDEST PUSH1 0x0 PUSH2 0x1ADA PUSH2 0x1A0B JUMP JUMPDEST SWAP1 POP PUSH2 0x1AE6 DUP3 DUP3 PUSH2 0x1A9F JUMP JUMPDEST SWAP2 SWAP1 POP JUMP JUMPDEST PUSH1 0x0 PUSH8 0xFFFFFFFFFFFFFFFF DUP3 GT ISZERO PUSH2 0x1B06 JUMPI PUSH2 0x1B05 PUSH2 0x1A70 JUMP JUMPDEST JUMPDEST PUSH2 0x1B0F DUP3 PUSH2 0x1A5F JUMP JUMPDEST SWAP1 POP PUSH1 0x20 DUP2 ADD SWAP1 POP SWAP2 SWAP1 POP JUMP JUMPDEST DUP3 DUP2 DUP4 CALLDATACOPY PUSH1 0x0 DUP4 DUP4 ADD MSTORE POP POP POP JUMP JUMPDEST PUSH1 0x0 PUSH2 0x1B3E PUSH2 0x1B39 DUP5 PUSH2 0x1AEB JUMP JUMPDEST PUSH2 0x1AD0 JUMP JUMPDEST SWAP1 POP DUP3 DUP2 MSTORE PUSH1 0x20 DUP2 ADD DUP5 DUP5 DUP5 ADD GT ISZERO PUSH2 0x1B5A JUMPI PUSH2 0x1B59 PUSH2 0x1A5A JUMP JUMPDEST JUMPDEST PUSH2 0x1B65 DUP5 DUP3 DUP6 PUSH2 0x1B1C JUMP JUMPDEST POP SWAP4 SWAP3 POP POP POP JUMP JUMPDEST PUSH1 0x0 DUP3 PUSH1 0x1F DUP4 ADD SLT PUSH2 0x1B82 JUMPI PUSH2 0x1B81 PUSH2 0x1A55 JUMP JUMPDEST JUMPDEST DUP2 CALLDATALOAD PUSH2 0x1B92 DUP5 DUP3 PUSH1 0x20 DUP7 ADD PUSH2 0x1B2B JUMP JUMPDEST SWAP2 POP POP SWAP3 SWAP2 POP POP JUMP JUMPDEST PUSH1 0x0 DUP1 PUSH1 0x40 DUP4 DUP6 SUB SLT ISZERO PUSH2 0x1BB2 JUMPI PUSH2 0x1BB1 PUSH2 0x1A15 JUMP JUMPDEST JUMPDEST PUSH1 0x0 PUSH2 0x1BC0 DUP6 DUP3 DUP7 ADD PUSH2 0x1A40 JUMP JUMPDEST SWAP3 POP POP PUSH1 0x20 DUP4 ADD CALLDATALOAD PUSH8 0xFFFFFFFFFFFFFFFF DUP2 GT ISZERO PUSH2 0x1BE1 JUMPI PUSH2 0x1BE0 PUSH2 0x1A1A JUMP JUMPDEST JUMPDEST PUSH2 0x1BED DUP6 DUP3 DUP7 ADD PUSH2 0x1B6D JUMP JUMPDEST SWAP2 POP POP SWAP3 POP SWAP3 SWAP1 POP JUMP JUMPDEST PUSH1 0x0 DUP2 MLOAD SWAP1 POP SWAP2 SWAP1 POP JUMP JUMPDEST PUSH1 0x0 DUP3 DUP3 MSTORE PUSH1 0x20 DUP3 ADD SWAP1 POP SWAP3 SWAP2 POP POP JUMP JUMPDEST PUSH1 0x0 JUMPDEST DUP4 DUP2 LT ISZERO PUSH2 0x1C31 JUMPI DUP1 DUP3 ADD MLOAD DUP2 DUP5 ADD MSTORE PUSH1 0x20 DUP2 ADD SWAP1 POP PUSH2 0x1C16 JUMP JUMPDEST PUSH1 0x0 DUP5 DUP5 ADD MSTORE POP POP POP POP JUMP JUMPDEST PUSH1 0x0 PUSH2 0x1C48 DUP3 PUSH2 0x1BF7 JUMP JUMPDEST PUSH2 0x1C52 DUP2 DUP6 PUSH2 0x1C02 JUMP JUMPDEST SWAP4 POP PUSH2 0x1C62 DUP2 DUP6 PUSH1 0x20 DUP7 ADD PUSH2 0x1C13 JUMP JUMPDEST PUSH2 0x1C6B DUP2 PUSH2 0x1A5F JUMP JUMPDEST DUP5 ADD SWAP2 POP POP SWAP3 SWAP2 POP POP JUMP JUMPDEST PUSH1 0x0 PUSH1 0xFF DUP3 AND SWAP1 POP SWAP2 SWAP1 POP JUMP JUMPDEST PUSH2 0x1C8C DUP2 PUSH2 0x1C76 JUMP JUMPDEST DUP3 MSTORE POP POP JUMP JUMPDEST PUSH1 0x0 PUSH20 0xFFFFFFFFFFFFFFFFFFFFFFFFFFFFFFFFFFFFFFFF DUP3 AND SWAP1 POP SWAP2 SWAP1 POP JUMP JUMPDEST PUSH1 0x0 PUSH2 0x1CBD DUP3 PUSH2 0x1C92 JUMP JUMPDEST SWAP1 POP SWAP2 SWAP1 POP JUMP JUMPDEST PUSH2 0x1CCD DUP2 PUSH2 0x1CB2 JUMP JUMPDEST DUP3 MSTORE POP POP JUMP JUMPDEST PUSH2 0x1CDC DUP2 PUSH2 0x1A1F JUMP JUMPDEST DUP3 MSTORE POP POP JUMP JUMPDEST PUSH1 0x0 PUSH2 0x120 DUP4 ADD PUSH1 0x0 DUP4 ADD MLOAD DUP5 DUP3 SUB PUSH1 0x0 DUP7 ADD MSTORE PUSH2 0x1D00 DUP3 DUP3 PUSH2 0x1C3D JUMP JUMPDEST SWAP2 POP POP PUSH1 0x20 DUP4 ADD MLOAD DUP5 DUP3 SUB PUSH1 0x20 DUP7 ADD MSTORE PUSH2 0x1D1A DUP3 DUP3 PUSH2 0x1C3D JUMP JUMPDEST SWAP2 POP POP PUSH1 0x40 DUP4 ADD MLOAD DUP5 DUP3 SUB PUSH1 0x40 DUP7 ADD MSTORE PUSH2 0x1D34 DUP3 DUP3 PUSH2 0x1C3D JUMP JUMPDEST SWAP2 POP POP PUSH1 0x60 DUP4 ADD MLOAD DUP5 DUP3 SUB PUSH1 0x60 DUP7 ADD MSTORE PUSH2 0x1D4E DUP3 DUP3 PUSH2 0x1C3D JUMP JUMPDEST SWAP2 POP POP PUSH1 0x80 DUP4 ADD MLOAD DUP5 DUP3 SUB PUSH1 0x80 DUP7 ADD MSTORE PUSH2 0x1D68 DUP3 DUP3 PUSH2 0x1C3D JUMP JUMPDEST SWAP2 POP POP PUSH1 0xA0 DUP4 ADD MLOAD PUSH2 0x1D7D PUSH1 0xA0 DUP7 ADD DUP3 PUSH2 0x1C83 JUMP JUMPDEST POP PUSH1 0xC0 DUP4 ADD MLOAD DUP5 DUP3 SUB PUSH1 0xC0 DUP7 ADD MSTORE PUSH2 0x1D95 DUP3 DUP3 PUSH2 0x1C3D JUMP JUMPDEST SWAP2 POP POP PUSH1 0xE0 DUP4 ADD MLOAD PUSH2 0x1DAA PUSH1 0xE0 DUP7 ADD DUP3 PUSH2 0x1CC4 JUMP JUMPDEST POP PUSH2 0x100 DUP4 ADD MLOAD PUSH2 0x1DBF PUSH2 0x100 DUP7 ADD DUP3 PUSH2 0x1CD3 JUMP JUMPDEST POP DUP1 SWAP2 POP POP SWAP3 SWAP2 POP POP JUMP JUMPDEST PUSH1 0x0 PUSH1 0x20 DUP3 ADD SWAP1 POP DUP2 DUP2 SUB PUSH1 0x0 DUP4 ADD MSTORE PUSH2 0x1DE4 DUP2 DUP5 PUSH2 0x1CE2 JUMP JUMPDEST SWAP1 POP SWAP3 SWAP2 POP POP JUMP JUMPDEST PUSH2 0x1DF5 DUP2 PUSH2 0x1CB2 JUMP JUMPDEST DUP2 EQ PUSH2 0x1E00 JUMPI PUSH1 0x0 DUP1 REVERT JUMPDEST POP JUMP JUMPDEST PUSH1 0x0 DUP2 CALLDATALOAD SWAP1 POP PUSH2 0x1E12 DUP2 PUSH2 0x1DEC JUMP JUMPDEST SWAP3 SWAP2 POP POP JUMP JUMPDEST PUSH1 0x0 DUP1 PUSH1 0x0 DUP1 PUSH1 0x0 DUP1 PUSH1 0x0 PUSH1 0xE0 DUP9 DUP11 SUB SLT ISZERO PUSH2 0x1E37 JUMPI PUSH2 0x1E36 PUSH2 0x1A15 JUMP JUMPDEST JUMPDEST PUSH1 0x0 PUSH2 0x1E45 DUP11 DUP3 DUP12 ADD PUSH2 0x1A40 JUMP JUMPDEST SWAP8 POP POP PUSH1 0x20 DUP9 ADD CALLDATALOAD PUSH8 0xFFFFFFFFFFFFFFFF DUP2 GT ISZERO PUSH2 0x1E66 JUMPI PUSH2 0x1E65 PUSH2 0x1A1A JUMP JUMPDEST JUMPDEST PUSH2 0x1E72 DUP11 DUP3 DUP12 ADD PUSH2 0x1B6D JUMP JUMPDEST SWAP7 POP POP PUSH1 0x40 DUP9 ADD CALLDATALOAD PUSH8 0xFFFFFFFFFFFFFFFF DUP2 GT ISZERO PUSH2 0x1E93 JUMPI PUSH2 0x1E92 PUSH2 0x1A1A JUMP JUMPDEST JUMPDEST PUSH2 0x1E9F DUP11 DUP3 DUP12 ADD PUSH2 0x1B6D JUMP JUMPDEST SWAP6 POP POP PUSH1 0x60 DUP9 ADD CALLDATALOAD PUSH8 0xFFFFFFFFFFFFFFFF DUP2 GT ISZERO PUSH2 0x1EC0 JUMPI PUSH2 0x1EBF PUSH2 0x1A1A JUMP JUMPDEST JUMPDEST PUSH2 0x1ECC DUP11 DUP3 DUP12 ADD PUSH2 0x1B6D JUMP JUMPDEST SWAP5 POP POP PUSH1 0x80 PUSH2 0x1EDD DUP11 DUP3 DUP12 ADD PUSH2 0x1E03 JUMP JUMPDEST SWAP4 POP POP PUSH1 0xA0 DUP9 ADD CALLDATALOAD PUSH8 0xFFFFFFFFFFFFFFFF DUP2 GT ISZERO PUSH2 0x1EFE JUMPI PUSH2 0x1EFD PUSH2 0x1A1A JUMP JUMPDEST JUMPDEST PUSH2 0x1F0A DUP11 DUP3 DUP12 ADD PUSH2 0x1B6D JUMP JUMPDEST SWAP3 POP POP PUSH1 0xC0 DUP9 ADD CALLDATALOAD PUSH8 0xFFFFFFFFFFFFFFFF DUP2 GT ISZERO PUSH2 0x1F2B JUMPI PUSH2 0x1F2A PUSH2 0x1A1A JUMP JUMPDEST JUMPDEST PUSH2 0x1F37 DUP11 DUP3 DUP12 ADD PUSH2 0x1B6D JUMP JUMPDEST SWAP2 POP POP SWAP3 SWAP6 SWAP9 SWAP2 SWAP5 SWAP8 POP SWAP3 SWAP6 POP JUMP JUMPDEST PUSH2 0x1F4F DUP2 PUSH2 0x1C76 JUMP JUMPDEST DUP2 EQ PUSH2 0x1F5A JUMPI PUSH1 0x0 DUP1 REVERT JUMPDEST POP JUMP JUMPDEST PUSH1 0x0 DUP2 CALLDATALOAD SWAP1 POP PUSH2 0x1F6C DUP2 PUSH2 0x1F46 JUMP JUMPDEST SWAP3 SWAP2 POP POP JUMP JUMPDEST PUSH1 0x0 DUP1 PUSH1 0x0 DUP1 PUSH1 0x0 DUP1 PUSH1 0x0 DUP1 PUSH2 0x100 DUP10 DUP12 SUB SLT ISZERO PUSH2 0x1F93 JUMPI PUSH2 0x1F92 PUSH2 0x1A15 JUMP JUMPDEST JUMPDEST PUSH1 0x0 DUP10 ADD CALLDATALOAD PUSH8 0xFFFFFFFFFFFFFFFF DUP2 GT ISZERO PUSH2 0x1FB1 JUMPI PUSH2 0x1FB0 PUSH2 0x1A1A JUMP JUMPDEST JUMPDEST PUSH2 0x1FBD DUP12 DUP3 DUP13 ADD PUSH2 0x1B6D JUMP JUMPDEST SWAP9 POP POP PUSH1 0x20 DUP10 ADD CALLDATALOAD PUSH8 0xFFFFFFFFFFFFFFFF DUP2 GT ISZERO PUSH2 0x1FDE JUMPI PUSH2 0x1FDD PUSH2 0x1A1A JUMP JUMPDEST JUMPDEST PUSH2 0x1FEA DUP12 DUP3 DUP13 ADD PUSH2 0x1B6D JUMP JUMPDEST SWAP8 POP POP PUSH1 0x40 DUP10 ADD CALLDATALOAD PUSH8 0xFFFFFFFFFFFFFFFF DUP2 GT ISZERO PUSH2 0x200B JUMPI PUSH2 0x200A PUSH2 0x1A1A JUMP JUMPDEST JUMPDEST PUSH2 0x2017 DUP12 DUP3 DUP13 ADD PUSH2 0x1B6D JUMP JUMPDEST SWAP7 POP POP PUSH1 0x60 DUP10 ADD CALLDATALOAD PUSH8 0xFFFFFFFFFFFFFFFF DUP2 GT ISZERO PUSH2 0x2038 JUMPI PUSH2 0x2037 PUSH2 0x1A1A JUMP JUMPDEST JUMPDEST PUSH2 0x2044 DUP12 DUP3 DUP13 ADD PUSH2 0x1B6D JUMP JUMPDEST SWAP6 POP POP PUSH1 0x80 PUSH2 0x2055 DUP12 DUP3 DUP13 ADD PUSH2 0x1F5D JUMP JUMPDEST SWAP5 POP POP PUSH1 0xA0 DUP10 ADD CALLDATALOAD PUSH8 0xFFFFFFFFFFFFFFFF DUP2 GT ISZERO PUSH2 0x2076 JUMPI PUSH2 0x2075 PUSH2 0x1A1A JUMP JUMPDEST JUMPDEST PUSH2 0x2082 DUP12 DUP3 DUP13 ADD PUSH2 0x1B6D JUMP JUMPDEST SWAP4 POP POP PUSH1 0xC0 PUSH2 0x2093 DUP12 DUP3 DUP13 ADD PUSH2 0x1E03 JUMP JUMPDEST SWAP3 POP POP PUSH1 0xE0 DUP10 ADD CALLDATALOAD PUSH8 0xFFFFFFFFFFFFFFFF DUP2 GT ISZERO PUSH2 0x20B4 JUMPI PUSH2 0x20B3 PUSH2 0x1A1A JUMP JUMPDEST JUMPDEST PUSH2 0x20C0 DUP12 DUP3 DUP13 ADD PUSH2 0x1B6D JUMP JUMPDEST SWAP2 POP POP SWAP3 SWAP6 SWAP9 POP SWAP3 SWAP6 SWAP9 SWAP1 SWAP4 SWAP7 POP JUMP JUMPDEST PUSH2 0x20D9 DUP2 PUSH2 0x1A1F JUMP JUMPDEST DUP3 MSTORE POP POP JUMP JUMPDEST PUSH1 0x0 PUSH1 0x20 DUP3 ADD SWAP1 POP PUSH2 0x20F4 PUSH1 0x0 DUP4 ADD DUP5 PUSH2 0x20D0 JUMP JUMPDEST SWAP3 SWAP2 POP POP JUMP JUMPDEST PUSH1 0x0 DUP2 ISZERO ISZERO SWAP1 POP SWAP2 SWAP1 POP JUMP JUMPDEST PUSH2 0x210F DUP2 PUSH2 0x20FA JUMP JUMPDEST DUP3 MSTORE POP POP JUMP JUMPDEST PUSH1 0x0 PUSH1 0x20 DUP3 ADD SWAP1 POP PUSH2 0x212A PUSH1 0x0 DUP4 ADD DUP5 PUSH2 0x2106 JUMP JUMPDEST SWAP3 SWAP2 POP POP JUMP JUMPDEST PUSH32 0x4E487B7100000000000000000000000000000000000000000000000000000000 PUSH1 0x0 MSTORE PUSH1 0x22 PUSH1 0x4 MSTORE PUSH1 0x24 PUSH1 0x0 REVERT JUMPDEST PUSH1 0x0 PUSH1 0x2 DUP3 DIV SWAP1 POP PUSH1 0x1 DUP3 AND DUP1 PUSH2 0x2177 JUMPI PUSH1 0x7F DUP3 AND SWAP2 POP JUMPDEST PUSH1 0x20 DUP3 LT DUP2 SUB PUSH2 0x218A JUMPI PUSH2 0x2189 PUSH2 0x2130 JUMP JUMPDEST JUMPDEST POP SWAP2 SWAP1 POP JUMP JUMPDEST PUSH1 0x0 DUP3 DUP3 MSTORE PUSH1 0x20 DUP3 ADD SWAP1 POP SWAP3 SWAP2 POP POP JUMP JUMPDEST PUSH1 0x0 DUP2 SWAP1 POP DUP2 PUSH1 0x0 MSTORE PUSH1 0x20 PUSH1 0x0 KECCAK256 SWAP1 POP SWAP2 SWAP1 POP JUMP JUMPDEST PUSH1 0x0 DUP2 SLOAD PUSH2 0x21C3 DUP2 PUSH2 0x215F JUMP JUMPDEST PUSH2 0x21CD DUP2 DUP7 PUSH2 0x2190 JUMP JUMPDEST SWAP5 POP PUSH1 0x1 DUP3 AND PUSH1 0x0 DUP2 EQ PUSH2 0x21E8 JUMPI PUSH1 0x1 DUP2 EQ PUSH2 0x21FE JUMPI PUSH2 0x2231 JUMP JUMPDEST PUSH1 0xFF NOT DUP4 AND DUP7 MSTORE DUP2 ISZERO ISZERO PUSH1 0x20 MUL DUP7 ADD SWAP4 POP PUSH2 0x2231 JUMP JUMPDEST PUSH2 0x2207 DUP6 PUSH2 0x21A1 JUMP JUMPDEST PUSH1 0x0 JUMPDEST DUP4 DUP2 LT ISZERO PUSH2 0x2229 JUMPI DUP2 SLOAD DUP2 DUP10 ADD MSTORE PUSH1 0x1 DUP3 ADD SWAP2 POP PUSH1 0x20 DUP2 ADD SWAP1 POP PUSH2 0x220A JUMP JUMPDEST DUP1 DUP9 ADD SWAP6 POP POP POP JUMPDEST POP POP POP SWAP3 SWAP2 POP POP JUMP JUMPDEST PUSH1 0x0 DUP2 MLOAD SWAP1 POP SWAP2 SWAP1 POP JUMP JUMPDEST PUSH1 0x0 PUSH2 0x2250 DUP3 PUSH2 0x223A JUMP JUMPDEST PUSH2 0x225A DUP2 DUP6 PUSH2 0x2190 JUMP JUMPDEST SWAP4 POP PUSH2 0x226A DUP2 DUP6 PUSH1 0x20 DUP7 ADD PUSH2 0x1C13 JUMP JUMPDEST PUSH2 0x2273 DUP2 PUSH2 0x1A5F JUMP JUMPDEST DUP5 ADD SWAP2 POP POP SWAP3 SWAP2 POP POP JUMP JUMPDEST PUSH1 0x0 PUSH1 0x40 DUP3 ADD SWAP1 POP DUP2 DUP2 SUB PUSH1 0x0 DUP4 ADD MSTORE PUSH2 0x2298 DUP2 DUP6 PUSH2 0x21B6 JUMP JUMPDEST SWAP1 POP DUP2 DUP2 SUB PUSH1 0x20 DUP4 ADD MSTORE PUSH2 0x22AC DUP2 DUP5 PUSH2 0x2245 JUMP JUMPDEST SWAP1 POP SWAP4 SWAP3 POP POP POP JUMP JUMPDEST PUSH1 0x0 PUSH8 0xFFFFFFFFFFFFFFFF DUP3 GT ISZERO PUSH2 0x22D0 JUMPI PUSH2 0x22CF PUSH2 0x1A70 JUMP JUMPDEST JUMPDEST PUSH2 0x22D9 DUP3 PUSH2 0x1A5F JUMP JUMPDEST SWAP1 POP PUSH1 0x20 DUP2 ADD SWAP1 POP SWAP2 SWAP1 POP JUMP JUMPDEST PUSH1 0x0 PUSH2 0x22F9 PUSH2 0x22F4 DUP5 PUSH2 0x22B5 JUMP JUMPDEST PUSH2 0x1AD0 JUMP JUMPDEST SWAP1 POP DUP3 DUP2 MSTORE PUSH1 0x20 DUP2 ADD DUP5 DUP5 DUP5 ADD GT ISZERO PUSH2 0x2315 JUMPI PUSH2 0x2314 PUSH2 0x1A5A JUMP JUMPDEST JUMPDEST PUSH2 0x2320 DUP5 DUP3 DUP6 PUSH2 0x1C13 JUMP JUMPDEST POP SWAP4 SWAP3 POP POP POP JUMP JUMPDEST PUSH1 0x0 DUP3 PUSH1 0x1F DUP4 ADD SLT PUSH2 0x233D JUMPI PUSH2 0x233C PUSH2 0x1A55 JUMP JUMPDEST JUMPDEST DUP2 MLOAD PUSH2 0x234D DUP5 DUP3 PUSH1 0x20 DUP7 ADD PUSH2 0x22E6 JUMP JUMPDEST SWAP2 POP POP SWAP3 SWAP2 POP POP JUMP JUMPDEST PUSH1 0x0 PUSH1 0x20 DUP3 DUP5 SUB SLT ISZERO PUSH2 0x236C JUMPI PUSH2 0x236B PUSH2 0x1A15 JUMP JUMPDEST JUMPDEST PUSH1 0x0 DUP3 ADD MLOAD PUSH8 0xFFFFFFFFFFFFFFFF DUP2 GT ISZERO PUSH2 0x238A JUMPI PUSH2 0x2389 PUSH2 0x1A1A JUMP JUMPDEST JUMPDEST PUSH2 0x2396 DUP5 DUP3 DUP6 ADD PUSH2 0x2328 JUMP JUMPDEST SWAP2 POP POP SWAP3 SWAP2 POP POP JUMP JUMPDEST PUSH1 0x0 DUP2 SWAP1 POP DUP2 PUSH1 0x0 MSTORE PUSH1 0x20 PUSH1 0x0 KECCAK256 SWAP1 POP SWAP2 SWAP1 POP JUMP JUMPDEST PUSH1 0x0 PUSH1 0x20 PUSH1 0x1F DUP4 ADD DIV SWAP1 POP SWAP2 SWAP1 POP JUMP JUMPDEST PUSH1 0x0 DUP3 DUP3 SHL SWAP1 POP SWAP3 SWAP2 POP POP JUMP JUMPDEST PUSH1 0x0 PUSH1 0x8 DUP4 MUL PUSH2 0x2401 PUSH32 0xFFFFFFFFFFFFFFFFFFFFFFFFFFFFFFFFFFFFFFFFFFFFFFFFFFFFFFFFFFFFFFFF DUP3 PUSH2 0x23C4 JUMP JUMPDEST PUSH2 0x240B DUP7 DUP4 PUSH2 0x23C4 JUMP JUMPDEST SWAP6 POP DUP1 NOT DUP5 AND SWAP4 POP DUP1 DUP7 AND DUP5 OR SWAP3 POP POP POP SWAP4 SWAP3 POP POP POP JUMP JUMPDEST PUSH1 0x0 DUP2 SWAP1 POP SWAP2 SWAP1 POP JUMP JUMPDEST PUSH1 0x0 DUP2 SWAP1 POP SWAP2 SWAP1 POP JUMP JUMPDEST PUSH1 0x0 PUSH2 0x2452 PUSH2 0x244D PUSH2 0x2448 DUP5 PUSH2 0x2423 JUMP JUMPDEST PUSH2 0x242D JUMP JUMPDEST PUSH2 0x2423 JUMP JUMPDEST SWAP1 POP SWAP2 SWAP1 POP JUMP JUMPDEST PUSH1 0x0 DUP2 SWAP1 POP SWAP2 SWAP1 POP JUMP JUMPDEST PUSH2 0x246C DUP4 PUSH2 0x2437 JUMP JUMPDEST PUSH2 0x2480 PUSH2 0x2478 DUP3 PUSH2 0x2459 JUMP JUMPDEST DUP5 DUP5 SLOAD PUSH2 0x23D1 JUMP JUMPDEST DUP3 SSTORE POP POP POP POP JUMP JUMPDEST PUSH1 0x0 SWAP1 JUMP JUMPDEST PUSH2 0x2495 PUSH2 0x2488 JUMP JUMPDEST PUSH2 0x24A0 DUP2 DUP5 DUP5 PUSH2 0x2463 JUMP JUMPDEST POP POP POP JUMP JUMPDEST JUMPDEST DUP2 DUP2 LT ISZERO PUSH2 0x24C4 JUMPI PUSH2 0x24B9 PUSH1 0x0 DUP3 PUSH2 0x248D JUMP JUMPDEST PUSH1 0x1 DUP2 ADD SWAP1 POP PUSH2 0x24A6 JUMP JUMPDEST POP POP JUMP JUMPDEST PUSH1 0x1F DUP3 GT ISZERO PUSH2 0x2509 JUMPI PUSH2 0x24DA DUP2 PUSH2 0x239F JUMP JUMPDEST PUSH2 0x24E3 DUP5 PUSH2 0x23B4 JUMP JUMPDEST DUP2 ADD PUSH1 0x20 DUP6 LT ISZERO PUSH2 0x24F2 JUMPI DUP2 SWAP1 POP JUMPDEST PUSH2 0x2506 PUSH2 0x24FE DUP6 PUSH2 0x23B4 JUMP JUMPDEST DUP4 ADD DUP3 PUSH2 0x24A5 JUMP JUMPDEST POP POP JUMPDEST POP POP POP JUMP JUMPDEST PUSH1 0x0 DUP3 DUP3 SHR SWAP1 POP SWAP3 SWAP2 POP POP JUMP JUMPDEST PUSH1 0x0 PUSH2 0x252C PUSH1 0x0 NOT DUP5 PUSH1 0x8 MUL PUSH2 0x250E JUMP JUMPDEST NOT DUP1 DUP4 AND SWAP2 POP POP SWAP3 SWAP2 POP POP JUMP JUMPDEST PUSH1 0x0 PUSH2 0x2545 DUP4 DUP4 PUSH2 0x251B JUMP JUMPDEST SWAP2 POP DUP3 PUSH1 0x2 MUL DUP3 OR SWAP1 POP SWAP3 SWAP2 POP POP JUMP JUMPDEST PUSH2 0x255E DUP3 PUSH2 0x1BF7 JUMP JUMPDEST PUSH8 0xFFFFFFFFFFFFFFFF DUP2 GT ISZERO PUSH2 0x2577 JUMPI PUSH2 0x2576 PUSH2 0x1A70 JUMP JUMPDEST JUMPDEST PUSH2 0x2581 DUP3 SLOAD PUSH2 0x215F JUMP JUMPDEST PUSH2 0x258C DUP3 DUP3 DUP6 PUSH2 0x24C8 JUMP JUMPDEST PUSH1 0x0 PUSH1 0x20 SWAP1 POP PUSH1 0x1F DUP4 GT PUSH1 0x1 DUP2 EQ PUSH2 0x25BF JUMPI PUSH1 0x0 DUP5 ISZERO PUSH2 0x25AD JUMPI DUP3 DUP8 ADD MLOAD SWAP1 POP JUMPDEST PUSH2 0x25B7 DUP6 DUP3 PUSH2 0x2539 JUMP JUMPDEST DUP7 SSTORE POP PUSH2 0x261F JUMP JUMPDEST PUSH1 0x1F NOT DUP5 AND PUSH2 0x25CD DUP7 PUSH2 0x239F JUMP JUMPDEST PUSH1 0x0 JUMPDEST DUP3 DUP2 LT ISZERO PUSH2 0x25F5 JUMPI DUP5 DUP10 ADD MLOAD DUP3 SSTORE PUSH1 0x1 DUP3 ADD SWAP2 POP PUSH1 0x20 DUP6 ADD SWAP5 POP PUSH1 0x20 DUP2 ADD SWAP1 POP PUSH2 0x25D0 JUMP JUMPDEST DUP7 DUP4 LT ISZERO PUSH2 0x2612 JUMPI DUP5 DUP10 ADD MLOAD PUSH2 0x260E PUSH1 0x1F DUP10 AND DUP3 PUSH2 0x251B JUMP JUMPDEST DUP4 SSTORE POP JUMPDEST PUSH1 0x1 PUSH1 0x2 DUP9 MUL ADD DUP9 SSTORE POP POP POP JUMPDEST POP POP POP POP POP POP JUMP JUMPDEST PUSH1 0x0 DUP3 DUP3 MSTORE PUSH1 0x20 DUP3 ADD SWAP1 POP SWAP3 SWAP2 POP POP JUMP JUMPDEST PUSH32 0x496E76616C696420636F6D70616E792074797065000000000000000000000000 PUSH1 0x0 DUP3 ADD MSTORE POP JUMP JUMPDEST PUSH1 0x0 PUSH2 0x266E PUSH1 0x14 DUP4 PUSH2 0x2627 JUMP JUMPDEST SWAP2 POP PUSH2 0x2679 DUP3 PUSH2 0x2638 JUMP JUMPDEST PUSH1 0x20 DUP3 ADD SWAP1 POP SWAP2 SWAP1 POP JUMP JUMPDEST PUSH1 0x0 PUSH1 0x20 DUP3 ADD SWAP1 POP DUP2 DUP2 SUB PUSH1 0x0 DUP4 ADD MSTORE PUSH2 0x269D DUP2 PUSH2 0x2661 JUMP JUMPDEST SWAP1 POP SWAP2 SWAP1 POP JUMP JUMPDEST PUSH32 0x496E76616C69642053534E000000000000000000000000000000000000000000 PUSH1 0x0 DUP3 ADD MSTORE POP JUMP JUMPDEST PUSH1 0x0 PUSH2 0x26DA PUSH1 0xB DUP4 PUSH2 0x2627 JUMP JUMPDEST SWAP2 POP PUSH2 0x26E5 DUP3 PUSH2 0x26A4 JUMP JUMPDEST PUSH1 0x20 DUP3 ADD SWAP1 POP SWAP2 SWAP1 POP JUMP JUMPDEST PUSH1 0x0 PUSH1 0x20 DUP3 ADD SWAP1 POP DUP2 DUP2 SUB PUSH1 0x0 DUP4 ADD MSTORE PUSH2 0x2709 DUP2 PUSH2 0x26CD JUMP JUMPDEST SWAP1 POP SWAP2 SWAP1 POP JUMP JUMPDEST PUSH32 0x496E76616C6964206E616D650000000000000000000000000000000000000000 PUSH1 0x0 DUP3 ADD MSTORE POP JUMP JUMPDEST PUSH1 0x0 PUSH2 0x2746 PUSH1 0xC DUP4 PUSH2 0x2627 JUMP JUMPDEST SWAP2 POP PUSH2 0x2751 DUP3 PUSH2 0x2710 JUMP JUMPDEST PUSH1 0x20 DUP3 ADD SWAP1 POP SWAP2 SWAP1 POP JUMP JUMPDEST PUSH1 0x0 PUSH1 0x20 DUP3 ADD SWAP1 POP DUP2 DUP2 SUB PUSH1 0x0 DUP4 ADD MSTORE PUSH2 0x2775 DUP2 PUSH2 0x2739 JUMP JUMPDEST SWAP1 POP SWAP2 SWAP1 POP JUMP JUMPDEST PUSH32 0x496E76616C696420616464726573730000000000000000000000000000000000 PUSH1 0x0 DUP3 ADD MSTORE POP JUMP JUMPDEST PUSH1 0x0 PUSH2 0x27B2 PUSH1 0xF DUP4 PUSH2 0x2627 JUMP JUMPDEST SWAP2 POP PUSH2 0x27BD DUP3 PUSH2 0x277C JUMP JUMPDEST PUSH1 0x20 DUP3 ADD SWAP1 POP SWAP2 SWAP1 POP JUMP JUMPDEST PUSH1 0x0 PUSH1 0x20 DUP3 ADD SWAP1 POP DUP2 DUP2 SUB PUSH1 0x0 DUP4 ADD MSTORE PUSH2 0x27E1 DUP2 PUSH2 0x27A5 JUMP JUMPDEST SWAP1 POP SWAP2 SWAP1 POP JUMP JUMPDEST PUSH32 0x50617373776F726420746F6F2073686F72740000000000000000000000000000 PUSH1 0x0 DUP3 ADD MSTORE POP JUMP JUMPDEST PUSH1 0x0 PUSH2 0x281E PUSH1 0x12 DUP4 PUSH2 0x2627 JUMP JUMPDEST SWAP2 POP PUSH2 0x2829 DUP3 PUSH2 0x27E8 JUMP JUMPDEST PUSH1 0x20 DUP3 ADD SWAP1 POP SWAP2 SWAP1 POP JUMP JUMPDEST PUSH1 0x0 PUSH1 0x20 DUP3 ADD SWAP1 POP DUP2 DUP2 SUB PUSH1 0x0 DUP4 ADD MSTORE PUSH2 0x284D DUP2 PUSH2 0x2811 JUMP JUMPDEST SWAP1 POP SWAP2 SWAP1 POP JUMP JUMPDEST PUSH32 0x50686F6E65206E756D62657220746F6F2073686F727400000000000000000000 PUSH1 0x0 DUP3 ADD MSTORE POP JUMP JUMPDEST PUSH1 0x0 PUSH2 0x288A PUSH1 0x16 DUP4 PUSH2 0x2627 JUMP JUMPDEST SWAP2 POP PUSH2 0x2895 DUP3 PUSH2 0x2854 JUMP JUMPDEST PUSH1 0x20 DUP3 ADD SWAP1 POP SWAP2 SWAP1 POP JUMP JUMPDEST PUSH1 0x0 PUSH1 0x20 DUP3 ADD SWAP1 POP DUP2 DUP2 SUB PUSH1 0x0 DUP4 ADD MSTORE PUSH2 0x28B9 DUP2 PUSH2 0x287D JUMP JUMPDEST SWAP1 POP SWAP2 SWAP1 POP JUMP JUMPDEST PUSH1 0x0 DUP2 SWAP1 POP SWAP3 SWAP2 POP POP JUMP JUMPDEST PUSH1 0x0 PUSH2 0x28D6 DUP3 PUSH2 0x1BF7 JUMP JUMPDEST PUSH2 0x28E0 DUP2 DUP6 PUSH2 0x28C0 JUMP JUMPDEST SWAP4 POP PUSH2 0x28F0 DUP2 DUP6 PUSH1 0x20 DUP7 ADD PUSH2 0x1C13 JUMP JUMPDEST DUP1 DUP5 ADD SWAP2 POP POP SWAP3 SWAP2 POP POP JUMP JUMPDEST PUSH1 0x0 PUSH2 0x2908 DUP3 DUP10 PUSH2 0x28CB JUMP JUMPDEST SWAP2 POP PUSH2 0x2914 DUP3 DUP9 PUSH2 0x28CB JUMP JUMPDEST SWAP2 POP PUSH2 0x2920 DUP3 DUP8 PUSH2 0x28CB JUMP JUMPDEST SWAP2 POP PUSH2 0x292C DUP3 DUP7 PUSH2 0x28CB JUMP JUMPDEST SWAP2 POP PUSH2 0x2938 DUP3 DUP6 PUSH2 0x28CB JUMP JUMPDEST SWAP2 POP PUSH2 0x2944 DUP3 DUP5 PUSH2 0x28CB JUMP JUMPDEST SWAP2 POP DUP2 SWAP1 POP SWAP8 SWAP7 POP POP POP POP POP POP POP JUMP JUMPDEST PUSH1 0x0 PUSH2 0x2960 DUP3 DUP5 PUSH2 0x28CB JUMP JUMPDEST SWAP2 POP DUP2 SWAP1 POP SWAP3 SWAP2 POP POP JUMP JUMPDEST PUSH1 0x0 PUSH1 0x40 DUP3 ADD SWAP1 POP DUP2 DUP2 SUB PUSH1 0x0 DUP4 ADD MSTORE PUSH2 0x2985 DUP2 DUP6 PUSH2 0x2245 JUMP JUMPDEST SWAP1 POP DUP2 DUP2 SUB PUSH1 0x20 DUP4 ADD MSTORE PUSH2 0x2999 DUP2 DUP5 PUSH2 0x2245 JUMP JUMPDEST SWAP1 POP SWAP4 SWAP3 POP POP POP JUMP JUMPDEST PUSH1 0x0 DUP2 SWAP1 POP SWAP2 SWAP1 POP JUMP JUMPDEST PUSH2 0x29BD PUSH2 0x29B8 DUP3 PUSH2 0x1A1F JUMP JUMPDEST PUSH2 0x29A2 JUMP JUMPDEST DUP3 MSTORE POP POP JUMP JUMPDEST PUSH1 0x0 PUSH2 0x29CF DUP3 DUP5 PUSH2 0x29AC JUMP JUMPDEST PUSH1 0x20 DUP3 ADD SWAP2 POP DUP2 SWAP1 POP SWAP3 SWAP2 POP POP JUMP JUMPDEST PUSH32 0x4E6F7420616C6C6F776564000000000000000000000000000000000000000000 PUSH1 0x0 DUP3 ADD MSTORE POP JUMP JUMPDEST PUSH1 0x0 PUSH2 0x2A14 PUSH1 0xB DUP4 PUSH2 0x2627 JUMP JUMPDEST SWAP2 POP PUSH2 0x2A1F DUP3 PUSH2 0x29DE JUMP JUMPDEST PUSH1 0x20 DUP3 ADD SWAP1 POP SWAP2 SWAP1 POP JUMP JUMPDEST PUSH1 0x0 PUSH1 0x20 DUP3 ADD SWAP1 POP DUP2 DUP2 SUB PUSH1 0x0 DUP4 ADD MSTORE PUSH2 0x2A43 DUP2 PUSH2 0x2A07 JUMP JUMPDEST SWAP1 POP SWAP2 SWAP1 POP JUMP JUMPDEST PUSH32 0x4E487B7100000000000000000000000000000000000000000000000000000000 PUSH1 0x0 MSTORE PUSH1 0x12 PUSH1 0x4 MSTORE PUSH1 0x24 PUSH1 0x0 REVERT INVALID LOG2 PUSH5 0x6970667358 0x22 SLT KECCAK256 PUSH24 0x3DD1B85DB5282610F5DE040AFEA26DEFBF3E52B13CCE7F46 0xC3 0xC3 0xB8 CALLDATALOAD 0xD0 PUSH12 0x7A64736F6C63430008120033 "
				},
				"gasEstimates": {
					"creation": {
						"codeDepositCost": "2185400",
						"executionCost": "148182",
						"totalCost": "2333582"
					},
					"external": {
						"authenthicate(bytes32,string)": "infinite",
						"createAccount(string,string,string,string,uint8,string,address,string)": "infinite",
						"editUser(bytes32,string,string,string,address,string,string)": "infinite",
						"getUser(bytes32,string)": "infinite"
					},
					"internal": {
						"compare(string memory,string memory)": "infinite",
						"isOwner()": "infinite"
					}
				},
				"methodIdentifiers": {
					"authenthicate(bytes32,string)": "ddfbce96",
					"createAccount(string,string,string,string,uint8,string,address,string)": "dd64e4ad",
					"editUser(bytes32,string,string,string,address,string,string)": "c28fe9c1",
					"getUser(bytes32,string)": "00131c4f"
				}
			},
			"storageLayout": {
				"storage": [
					{
						"astId": 1204,
						"contract": "auth.sol:Auth",
						"label": "owner",
						"offset": 0,
						"slot": "0",
						"type": "t_address"
					},
					{
						"astId": 1207,
						"contract": "auth.sol:Auth",
						"label": "ACC_PERSONAL",
						"offset": 20,
						"slot": "0",
						"type": "t_uint8"
					},
					{
						"astId": 1210,
						"contract": "auth.sol:Auth",
						"label": "ACC_LIMITED_COMPANY",
						"offset": 21,
						"slot": "0",
						"type": "t_uint8"
					},
					{
						"astId": 1213,
						"contract": "auth.sol:Auth",
						"label": "ACC_SHARE_COMPANY",
						"offset": 22,
						"slot": "0",
						"type": "t_uint8"
					},
					{
						"astId": 1216,
						"contract": "auth.sol:Auth",
						"label": "ACC_INDIVIDUAL_COMPANY",
						"offset": 23,
						"slot": "0",
						"type": "t_uint8"
					},
					{
						"astId": 1219,
						"contract": "auth.sol:Auth",
						"label": "ACC_FOREIGN_BRANCH",
						"offset": 24,
						"slot": "0",
						"type": "t_uint8"
					},
					{
						"astId": 1247,
						"contract": "auth.sol:Auth",
						"label": "persons",
						"offset": 0,
						"slot": "1",
						"type": "t_mapping(t_bytes32,t_struct(person)1238_storage)"
					}
				],
				"types": {
					"t_address": {
						"encoding": "inplace",
						"label": "address",
						"numberOfBytes": "20"
					},
					"t_bytes32": {
						"encoding": "inplace",
						"label": "bytes32",
						"numberOfBytes": "32"
					},
					"t_mapping(t_bytes32,t_struct(person)1238_storage)": {
						"encoding": "mapping",
						"key": "t_bytes32",
						"label": "mapping(bytes32 => struct Auth.person)",
						"numberOfBytes": "32",
						"value": "t_struct(person)1238_storage"
					},
					"t_string_storage": {
						"encoding": "bytes",
						"label": "string",
						"numberOfBytes": "32"
					},
					"t_struct(person)1238_storage": {
						"encoding": "inplace",
						"label": "struct Auth.person",
						"members": [
							{
								"astId": 1221,
								"contract": "auth.sol:Auth",
								"label": "fullName",
								"offset": 0,
								"slot": "0",
								"type": "t_string_storage"
							},
							{
								"astId": 1223,
								"contract": "auth.sol:Auth",
								"label": "SSN",
								"offset": 0,
								"slot": "1",
								"type": "t_string_storage"
							},
							{
								"astId": 1225,
								"contract": "auth.sol:Auth",
								"label": "homeAddress",
								"offset": 0,
								"slot": "2",
								"type": "t_string_storage"
							},
							{
								"astId": 1227,
								"contract": "auth.sol:Auth",
								"label": "pass",
								"offset": 0,
								"slot": "3",
								"type": "t_string_storage"
							},
							{
								"astId": 1229,
								"contract": "auth.sol:Auth",
								"label": "phone",
								"offset": 0,
								"slot": "4",
								"type": "t_string_storage"
							},
							{
								"astId": 1231,
								"contract": "auth.sol:Auth",
								"label": "accountType",
								"offset": 0,
								"slot": "5",
								"type": "t_uint8"
							},
							{
								"astId": 1233,
								"contract": "auth.sol:Auth",
								"label": "companyCode",
								"offset": 0,
								"slot": "6",
								"type": "t_string_storage"
							},
							{
								"astId": 1235,
								"contract": "auth.sol:Auth",
								"label": "blockAccount",
								"offset": 0,
								"slot": "7",
								"type": "t_address"
							},
							{
								"astId": 1237,
								"contract": "auth.sol:Auth",
								"label": "UID",
								"offset": 0,
								"slot": "8",
								"type": "t_bytes32"
							}
						],
						"numberOfBytes": "288"
					},
					"t_uint8": {
						"encoding": "inplace",
						"label": "uint8",
						"numberOfBytes": "1"
					}
				}
			},
			"userdoc": {
				"kind": "user",
				"methods": {},
				"version": 1
			}
		}
	}
}