{
	"auth.sol": {
		"Auth": {
			"abi": [
				{
					"inputs": [],
					"stateMutability": "nonpayable",
					"type": "constructor"
				},
				{
					"anonymous": false,
					"inputs": [
						{
							"indexed": false,
							"internalType": "bytes32",
							"name": "UID",
							"type": "bytes32"
						}
					],
					"name": "accountCreated",
					"type": "event"
				},
				{
					"inputs": [
						{
							"internalType": "string",
							"name": "fullName",
							"type": "string"
						},
						{
							"internalType": "string",
							"name": "SSN",
							"type": "string"
						},
						{
							"internalType": "string",
							"name": "homeAddress",
							"type": "string"
						},
						{
							"internalType": "string",
							"name": "pass",
							"type": "string"
						},
						{
							"internalType": "uint8",
							"name": "accountType",
							"type": "uint8"
						},
						{
							"internalType": "string",
							"name": "phone",
							"type": "string"
						},
						{
							"internalType": "address",
							"name": "addr",
							"type": "address"
						},
						{
							"internalType": "string",
							"name": "companyCode",
							"type": "string"
						}
					],
					"name": "createAccount",
					"outputs": [
						{
							"internalType": "bytes32",
							"name": "",
							"type": "bytes32"
						}
					],
					"stateMutability": "payable",
					"type": "function"
				},
				{
					"inputs": [
						{
							"internalType": "bytes32",
							"name": "UID",
							"type": "bytes32"
						},
						{
							"internalType": "string",
							"name": "fullName",
							"type": "string"
						},
						{
							"internalType": "string",
							"name": "homeAddress",
							"type": "string"
						},
						{
							"internalType": "string",
							"name": "phone",
							"type": "string"
						},
						{
							"internalType": "address",
							"name": "blockAccount",
							"type": "address"
						},
						{
							"internalType": "string",
							"name": "companyCode",
							"type": "string"
						},
						{
							"internalType": "string",
							"name": "pass",
							"type": "string"
						}
					],
					"name": "editUser",
					"outputs": [],
					"stateMutability": "payable",
					"type": "function"
				},
				{
					"inputs": [
						{
							"internalType": "bytes32",
							"name": "UID",
							"type": "bytes32"
						},
						{
							"internalType": "string",
							"name": "pass",
							"type": "string"
						}
					],
					"name": "getUser",
					"outputs": [
						{
							"components": [
								{
									"internalType": "string",
									"name": "fullName",
									"type": "string"
								},
								{
									"internalType": "string",
									"name": "SSN",
									"type": "string"
								},
								{
									"internalType": "string",
									"name": "homeAddress",
									"type": "string"
								},
								{
									"internalType": "string",
									"name": "pass",
									"type": "string"
								},
								{
									"internalType": "string",
									"name": "phone",
									"type": "string"
								},
								{
									"internalType": "uint8",
									"name": "accountType",
									"type": "uint8"
								},
								{
									"internalType": "string",
									"name": "companyCode",
									"type": "string"
								},
								{
									"internalType": "address",
									"name": "blockAccount",
									"type": "address"
								},
								{
									"internalType": "bytes32",
									"name": "UID",
									"type": "bytes32"
								}
							],
							"internalType": "struct Auth.person",
							"name": "",
							"type": "tuple"
						}
					],
					"stateMutability": "view",
					"type": "function"
				}
			],
			"devdoc": {
				"kind": "dev",
				"methods": {},
				"version": 1
			},
			"evm": {
				"assembly": "    /* \"auth.sol\":133:5530  contract Auth {... */\n  mstore(0x40, 0x80)\n    /* \"auth.sol\":194:195  0 */\n  0x00\n    /* \"auth.sol\":173:195  uint8 ACC_PERSONAL = 0 */\n  dup1\n  exp(0x0100, 0x14)\n  dup2\n  sload\n  dup2\n  0xff\n  mul\n  not\n  and\n  swap1\n  dup4\n  0xff\n  and\n  mul\n  or\n  swap1\n  sstore\n  pop\n    /* \"auth.sol\":229:230  1 */\n  0x01\n    /* \"auth.sol\":201:230  uint8 ACC_LIMITED_COMPANY = 1 */\n  0x00\n  exp(0x0100, 0x15)\n  dup2\n  sload\n  dup2\n  0xff\n  mul\n  not\n  and\n  swap1\n  dup4\n  0xff\n  and\n  mul\n  or\n  swap1\n  sstore\n  pop\n    /* \"auth.sol\":262:263  2 */\n  0x02\n    /* \"auth.sol\":236:263  uint8 ACC_SHARE_COMPANY = 2 */\n  0x00\n  exp(0x0100, 0x16)\n  dup2\n  sload\n  dup2\n  0xff\n  mul\n  not\n  and\n  swap1\n  dup4\n  0xff\n  and\n  mul\n  or\n  swap1\n  sstore\n  pop\n    /* \"auth.sol\":300:301  3 */\n  0x03\n    /* \"auth.sol\":269:301  uint8 ACC_INDIVIDUAL_COMPANY = 3 */\n  0x00\n  exp(0x0100, 0x17)\n  dup2\n  sload\n  dup2\n  0xff\n  mul\n  not\n  and\n  swap1\n  dup4\n  0xff\n  and\n  mul\n  or\n  swap1\n  sstore\n  pop\n    /* \"auth.sol\":334:335  4 */\n  0x04\n    /* \"auth.sol\":307:335  uint8 ACC_FOREIGN_BRANCH = 4 */\n  0x00\n  exp(0x0100, 0x18)\n  dup2\n  sload\n  dup2\n  0xff\n  mul\n  not\n  and\n  swap1\n  dup4\n  0xff\n  and\n  mul\n  or\n  swap1\n  sstore\n  pop\n    /* \"auth.sol\":678:806  constructor() {... */\n  callvalue\n  dup1\n  iszero\n  tag_1\n  jumpi\n  0x00\n  dup1\n  revert\ntag_1:\n  pop\n    /* \"auth.sol\":710:720  msg.sender */\n  caller\n    /* \"auth.sol\":702:707  owner */\n  0x00\n  dup1\n    /* \"auth.sol\":702:720  owner = msg.sender */\n  0x0100\n  exp\n  dup2\n  sload\n  dup2\n  0xffffffffffffffffffffffffffffffffffffffff\n  mul\n  not\n  and\n  swap1\n  dup4\n  0xffffffffffffffffffffffffffffffffffffffff\n  and\n  mul\n  or\n  swap1\n  sstore\n  pop\n    /* \"auth.sol\":133:5530  contract Auth {... */\n  dataSize(sub_0)\n  dup1\n  dataOffset(sub_0)\n  0x00\n  codecopy\n  0x00\n  return\nstop\n\nsub_0: assembly {\n        /* \"auth.sol\":133:5530  contract Auth {... */\n      mstore(0x40, 0x80)\n      jumpi(tag_1, lt(calldatasize, 0x04))\n      shr(0xe0, calldataload(0x00))\n      dup1\n      0x131c4f\n      eq\n      tag_2\n      jumpi\n      dup1\n      0xc28fe9c1\n      eq\n      tag_3\n      jumpi\n      dup1\n      0xdd64e4ad\n      eq\n      tag_4\n      jumpi\n    tag_1:\n      0x00\n      dup1\n      revert\n        /* \"auth.sol\":2815:4723  function getUser(bytes32 UID, string memory pass) public view returns(person memory)... */\n    tag_2:\n      callvalue\n      dup1\n      iszero\n      tag_5\n      jumpi\n      0x00\n      dup1\n      revert\n    tag_5:\n      pop\n      tag_6\n      0x04\n      dup1\n      calldatasize\n      sub\n      dup2\n      add\n      swap1\n      tag_7\n      swap2\n      swap1\n      tag_8\n      jump\t// in\n    tag_7:\n      tag_9\n      jump\t// in\n    tag_6:\n      mload(0x40)\n      tag_10\n      swap2\n      swap1\n      tag_11\n      jump\t// in\n    tag_10:\n      mload(0x40)\n      dup1\n      swap2\n      sub\n      swap1\n      return\n        /* \"auth.sol\":4729:5341  function editUser(bytes32 UID, string memory fullName, string memory homeAddress, string memory phone, address blockAccount, string memory companyCode, string memory pass) public payable... */\n    tag_3:\n      tag_12\n      0x04\n      dup1\n      calldatasize\n      sub\n      dup2\n      add\n      swap1\n      tag_13\n      swap2\n      swap1\n      tag_14\n      jump\t// in\n    tag_13:\n      tag_15\n      jump\t// in\n    tag_12:\n      stop\n        /* \"auth.sol\":915:2809  function createAccount(string memory fullName, string memory SSN, string memory homeAddress, string memory pass, uint8 accountType, string memory phone, address addr, string memory companyCode) public payable returns (bytes32)... */\n    tag_4:\n      tag_16\n      0x04\n      dup1\n      calldatasize\n      sub\n      dup2\n      add\n      swap1\n      tag_17\n      swap2\n      swap1\n      tag_18\n      jump\t// in\n    tag_17:\n      tag_19\n      jump\t// in\n    tag_16:\n      mload(0x40)\n      tag_20\n      swap2\n      swap1\n      tag_21\n      jump\t// in\n    tag_20:\n      mload(0x40)\n      dup1\n      swap2\n      sub\n      swap1\n      return\n        /* \"auth.sol\":2815:4723  function getUser(bytes32 UID, string memory pass) public view returns(person memory)... */\n    tag_9:\n        /* \"auth.sol\":2885:2898  person memory */\n      tag_22\n      tag_23\n      jump\t// in\n    tag_22:\n        /* \"auth.sol\":2914:2942  person memory censoredPerson */\n      tag_25\n      tag_23\n      jump\t// in\n    tag_25:\n        /* \"auth.sol\":2994:3004  msg.sender */\n      caller\n        /* \"auth.sol\":2965:3004  persons[UID].blockAccount != msg.sender */\n      0xffffffffffffffffffffffffffffffffffffffff\n      and\n        /* \"auth.sol\":2965:2972  persons */\n      0x01\n        /* \"auth.sol\":2965:2977  persons[UID] */\n      0x00\n        /* \"auth.sol\":2973:2976  UID */\n      dup7\n        /* \"auth.sol\":2965:2977  persons[UID] */\n      dup2\n      mstore\n      0x20\n      add\n      swap1\n      dup2\n      mstore\n      0x20\n      add\n      0x00\n      keccak256\n        /* \"auth.sol\":2965:2990  persons[UID].blockAccount */\n      0x07\n      add\n      0x00\n      swap1\n      sload\n      swap1\n      0x0100\n      exp\n      swap1\n      div\n      0xffffffffffffffffffffffffffffffffffffffff\n      and\n        /* \"auth.sol\":2965:3004  persons[UID].blockAccount != msg.sender */\n      0xffffffffffffffffffffffffffffffffffffffff\n      and\n      eq\n        /* \"auth.sol\":2961:4143  if (persons[UID].blockAccount != msg.sender)... */\n      tag_26\n      jumpi\n        /* \"auth.sol\":3045:3443  person({... */\n      mload(0x40)\n      dup1\n      0x0120\n      add\n      0x40\n      mstore\n      dup1\n      mload(0x40)\n      dup1\n      0x40\n      add\n      0x40\n      mstore\n      dup1\n      0x0b\n      dup2\n      mstore\n      0x20\n      add\n      0x2a2a2a2a2a2a2a2a2a2a2a000000000000000000000000000000000000000000\n      dup2\n      mstore\n      pop\n      dup2\n      mstore\n      0x20\n      add\n      mload(0x40)\n      dup1\n      0x40\n      add\n      0x40\n      mstore\n      dup1\n      0x06\n      dup2\n      mstore\n      0x20\n      add\n      0x2a2a2a2a2a2a0000000000000000000000000000000000000000000000000000\n      dup2\n      mstore\n      pop\n      dup2\n      mstore\n      0x20\n      add\n      mload(0x40)\n      dup1\n      0x40\n      add\n      0x40\n      mstore\n      dup1\n      0x0a\n      dup2\n      mstore\n      0x20\n      add\n      0x2a2a2a2a2a2a2a2a2a2a00000000000000000000000000000000000000000000\n      dup2\n      mstore\n      pop\n      dup2\n      mstore\n      0x20\n      add\n      mload(0x40)\n      dup1\n      0x40\n      add\n      0x40\n      mstore\n      dup1\n      0x07\n      dup2\n      mstore\n      0x20\n      add\n      0x2a2a2a2a2a2a2a00000000000000000000000000000000000000000000000000\n      dup2\n      mstore\n      pop\n      dup2\n      mstore\n      0x20\n      add\n      mload(0x40)\n      dup1\n      0x40\n      add\n      0x40\n      mstore\n      dup1\n      0x08\n      dup2\n      mstore\n      0x20\n      add\n      0x2a2a2a2a2a2a2a2a000000000000000000000000000000000000000000000000\n      dup2\n      mstore\n      pop\n      dup2\n      mstore\n      0x20\n      add\n        /* \"auth.sol\":3267:3274  persons */\n      0x01\n        /* \"auth.sol\":3267:3279  persons[UID] */\n      0x00\n        /* \"auth.sol\":3275:3278  UID */\n      dup8\n        /* \"auth.sol\":3267:3279  persons[UID] */\n      dup2\n      mstore\n      0x20\n      add\n      swap1\n      dup2\n      mstore\n      0x20\n      add\n      0x00\n      keccak256\n        /* \"auth.sol\":3267:3291  persons[UID].accountType */\n      0x05\n      add\n      0x00\n      swap1\n      sload\n      swap1\n      0x0100\n      exp\n      swap1\n      div\n      0xff\n      and\n        /* \"auth.sol\":3045:3443  person({... */\n      0xff\n      and\n      dup2\n      mstore\n      0x20\n      add\n        /* \"auth.sol\":3404:3411  persons */\n      0x01\n        /* \"auth.sol\":3404:3416  persons[UID] */\n      0x00\n        /* \"auth.sol\":3412:3415  UID */\n      dup8\n        /* \"auth.sol\":3404:3416  persons[UID] */\n      dup2\n      mstore\n      0x20\n      add\n      swap1\n      dup2\n      mstore\n      0x20\n      add\n      0x00\n      keccak256\n        /* \"auth.sol\":3404:3428  persons[UID].companyCode */\n      0x06\n      add\n        /* \"auth.sol\":3045:3443  person({... */\n      dup1\n      sload\n      tag_27\n      swap1\n      tag_28\n      jump\t// in\n    tag_27:\n      dup1\n      0x1f\n      add\n      0x20\n      dup1\n      swap2\n      div\n      mul\n      0x20\n      add\n      mload(0x40)\n      swap1\n      dup2\n      add\n      0x40\n      mstore\n      dup1\n      swap3\n      swap2\n      swap1\n      dup2\n      dup2\n      mstore\n      0x20\n      add\n      dup3\n      dup1\n      sload\n      tag_29\n      swap1\n      tag_28\n      jump\t// in\n    tag_29:\n      dup1\n      iszero\n      tag_30\n      jumpi\n      dup1\n      0x1f\n      lt\n      tag_31\n      jumpi\n      0x0100\n      dup1\n      dup4\n      sload\n      div\n      mul\n      dup4\n      mstore\n      swap2\n      0x20\n      add\n      swap2\n      jump(tag_30)\n    tag_31:\n      dup3\n      add\n      swap2\n      swap1\n      0x00\n      mstore\n      keccak256(0x00, 0x20)\n      swap1\n    tag_32:\n      dup2\n      sload\n      dup2\n      mstore\n      swap1\n      0x01\n      add\n      swap1\n      0x20\n      add\n      dup1\n      dup4\n      gt\n      tag_32\n      jumpi\n      dup3\n      swap1\n      sub\n      0x1f\n      and\n      dup3\n      add\n      swap2\n    tag_30:\n      pop\n      pop\n      pop\n      pop\n      pop\n      dup2\n      mstore\n      0x20\n      add\n        /* \"auth.sol\":3322:3332  msg.sender */\n      caller\n        /* \"auth.sol\":3045:3443  person({... */\n      0xffffffffffffffffffffffffffffffffffffffff\n      and\n      dup2\n      mstore\n      0x20\n      add\n        /* \"auth.sol\":3356:3363  persons */\n      0x01\n        /* \"auth.sol\":3356:3368  persons[UID] */\n      0x00\n        /* \"auth.sol\":3364:3367  UID */\n      dup8\n        /* \"auth.sol\":3356:3368  persons[UID] */\n      dup2\n      mstore\n      0x20\n      add\n      swap1\n      dup2\n      mstore\n      0x20\n      add\n      0x00\n      keccak256\n        /* \"auth.sol\":3356:3372  persons[UID].UID */\n      0x08\n      add\n      sload\n        /* \"auth.sol\":3045:3443  person({... */\n      dup2\n      mstore\n      pop\n        /* \"auth.sol\":3028:3443  censoredPerson = person({... */\n      swap1\n      pop\n        /* \"auth.sol\":2961:4143  if (persons[UID].blockAccount != msg.sender)... */\n      jump(tag_33)\n    tag_26:\n        /* \"auth.sol\":3507:4121  person({... */\n      mload(0x40)\n      dup1\n      0x0120\n      add\n      0x40\n      mstore\n      dup1\n        /* \"auth.sol\":3550:3556  cypher */\n      linkerSymbol(\"0394c467ed0fdd19c4eccf25096e0ad40f7a8f3a2ecaa74fa8ac0ce31535a80b\")\n        /* \"auth.sol\":3550:3564  cypher.encrypt */\n      0x015cfec7\n        /* \"auth.sol\":3571:3578  persons */\n      0x01\n        /* \"auth.sol\":3571:3583  persons[UID] */\n      0x00\n        /* \"auth.sol\":3579:3582  UID */\n      dup10\n        /* \"auth.sol\":3571:3583  persons[UID] */\n      dup2\n      mstore\n      0x20\n      add\n      swap1\n      dup2\n      mstore\n      0x20\n      add\n      0x00\n      keccak256\n        /* \"auth.sol\":3571:3592  persons[UID].fullName */\n      0x00\n      add\n        /* \"auth.sol\":3601:3605  pass */\n      dup8\n        /* \"auth.sol\":3550:3607  cypher.encrypt(bytes(persons[UID].fullName), bytes(pass)) */\n      mload(0x40)\n      dup4\n      0xffffffff\n      and\n      0xe0\n      shl\n      dup2\n      mstore\n      0x04\n      add\n      tag_34\n      swap3\n      swap2\n      swap1\n      tag_35\n      jump\t// in\n    tag_34:\n      0x00\n      mload(0x40)\n      dup1\n      dup4\n      sub\n      dup2\n      dup7\n      gas\n      delegatecall\n      iszero\n      dup1\n      iszero\n      tag_37\n      jumpi\n      returndatasize\n      0x00\n      dup1\n      returndatacopy\n      revert(0x00, returndatasize)\n    tag_37:\n      pop\n      pop\n      pop\n      pop\n      mload(0x40)\n      returndatasize\n      0x00\n      dup3\n      returndatacopy\n      returndatasize\n      not(0x1f)\n      0x1f\n      dup3\n      add\n      and\n      dup3\n      add\n      dup1\n      0x40\n      mstore\n      pop\n      dup2\n      add\n      swap1\n      tag_38\n      swap2\n      swap1\n      tag_39\n      jump\t// in\n    tag_38:\n        /* \"auth.sol\":3507:4121  person({... */\n      dup2\n      mstore\n      0x20\n      add\n        /* \"auth.sol\":3639:3645  cypher */\n      linkerSymbol(\"0394c467ed0fdd19c4eccf25096e0ad40f7a8f3a2ecaa74fa8ac0ce31535a80b\")\n        /* \"auth.sol\":3639:3653  cypher.encrypt */\n      0x015cfec7\n        /* \"auth.sol\":3660:3667  persons */\n      0x01\n        /* \"auth.sol\":3660:3672  persons[UID] */\n      0x00\n        /* \"auth.sol\":3668:3671  UID */\n      dup10\n        /* \"auth.sol\":3660:3672  persons[UID] */\n      dup2\n      mstore\n      0x20\n      add\n      swap1\n      dup2\n      mstore\n      0x20\n      add\n      0x00\n      keccak256\n        /* \"auth.sol\":3660:3676  persons[UID].SSN */\n      0x01\n      add\n        /* \"auth.sol\":3685:3689  pass */\n      dup8\n        /* \"auth.sol\":3639:3691  cypher.encrypt(bytes(persons[UID].SSN), bytes(pass)) */\n      mload(0x40)\n      dup4\n      0xffffffff\n      and\n      0xe0\n      shl\n      dup2\n      mstore\n      0x04\n      add\n      tag_40\n      swap3\n      swap2\n      swap1\n      tag_35\n      jump\t// in\n    tag_40:\n      0x00\n      mload(0x40)\n      dup1\n      dup4\n      sub\n      dup2\n      dup7\n      gas\n      delegatecall\n      iszero\n      dup1\n      iszero\n      tag_42\n      jumpi\n      returndatasize\n      0x00\n      dup1\n      returndatacopy\n      revert(0x00, returndatasize)\n    tag_42:\n      pop\n      pop\n      pop\n      pop\n      mload(0x40)\n      returndatasize\n      0x00\n      dup3\n      returndatacopy\n      returndatasize\n      not(0x1f)\n      0x1f\n      dup3\n      add\n      and\n      dup3\n      add\n      dup1\n      0x40\n      mstore\n      pop\n      dup2\n      add\n      swap1\n      tag_43\n      swap2\n      swap1\n      tag_39\n      jump\t// in\n    tag_43:\n        /* \"auth.sol\":3507:4121  person({... */\n      dup2\n      mstore\n      0x20\n      add\n        /* \"auth.sol\":3731:3737  cypher */\n      linkerSymbol(\"0394c467ed0fdd19c4eccf25096e0ad40f7a8f3a2ecaa74fa8ac0ce31535a80b\")\n        /* \"auth.sol\":3731:3745  cypher.encrypt */\n      0x015cfec7\n        /* \"auth.sol\":3752:3759  persons */\n      0x01\n        /* \"auth.sol\":3752:3764  persons[UID] */\n      0x00\n        /* \"auth.sol\":3760:3763  UID */\n      dup10\n        /* \"auth.sol\":3752:3764  persons[UID] */\n      dup2\n      mstore\n      0x20\n      add\n      swap1\n      dup2\n      mstore\n      0x20\n      add\n      0x00\n      keccak256\n        /* \"auth.sol\":3752:3776  persons[UID].homeAddress */\n      0x02\n      add\n        /* \"auth.sol\":3785:3789  pass */\n      dup8\n        /* \"auth.sol\":3731:3791  cypher.encrypt(bytes(persons[UID].homeAddress), bytes(pass)) */\n      mload(0x40)\n      dup4\n      0xffffffff\n      and\n      0xe0\n      shl\n      dup2\n      mstore\n      0x04\n      add\n      tag_44\n      swap3\n      swap2\n      swap1\n      tag_35\n      jump\t// in\n    tag_44:\n      0x00\n      mload(0x40)\n      dup1\n      dup4\n      sub\n      dup2\n      dup7\n      gas\n      delegatecall\n      iszero\n      dup1\n      iszero\n      tag_46\n      jumpi\n      returndatasize\n      0x00\n      dup1\n      returndatacopy\n      revert(0x00, returndatasize)\n    tag_46:\n      pop\n      pop\n      pop\n      pop\n      mload(0x40)\n      returndatasize\n      0x00\n      dup3\n      returndatacopy\n      returndatasize\n      not(0x1f)\n      0x1f\n      dup3\n      add\n      and\n      dup3\n      add\n      dup1\n      0x40\n      mstore\n      pop\n      dup2\n      add\n      swap1\n      tag_47\n      swap2\n      swap1\n      tag_39\n      jump\t// in\n    tag_47:\n        /* \"auth.sol\":3507:4121  person({... */\n      dup2\n      mstore\n      0x20\n      add\n      mload(0x40)\n      dup1\n      0x40\n      add\n      0x40\n      mstore\n      dup1\n      0x05\n      dup2\n      mstore\n      0x20\n      add\n      0x2a2a2a2a2a000000000000000000000000000000000000000000000000000000\n      dup2\n      mstore\n      pop\n      dup2\n      mstore\n      0x20\n      add\n        /* \"auth.sol\":3857:3863  cypher */\n      linkerSymbol(\"0394c467ed0fdd19c4eccf25096e0ad40f7a8f3a2ecaa74fa8ac0ce31535a80b\")\n        /* \"auth.sol\":3857:3871  cypher.encrypt */\n      0x015cfec7\n        /* \"auth.sol\":3878:3885  persons */\n      0x01\n        /* \"auth.sol\":3878:3890  persons[UID] */\n      0x00\n        /* \"auth.sol\":3886:3889  UID */\n      dup10\n        /* \"auth.sol\":3878:3890  persons[UID] */\n      dup2\n      mstore\n      0x20\n      add\n      swap1\n      dup2\n      mstore\n      0x20\n      add\n      0x00\n      keccak256\n        /* \"auth.sol\":3878:3896  persons[UID].phone */\n      0x04\n      add\n        /* \"auth.sol\":3905:3909  pass */\n      dup8\n        /* \"auth.sol\":3857:3911  cypher.encrypt(bytes(persons[UID].phone), bytes(pass)) */\n      mload(0x40)\n      dup4\n      0xffffffff\n      and\n      0xe0\n      shl\n      dup2\n      mstore\n      0x04\n      add\n      tag_48\n      swap3\n      swap2\n      swap1\n      tag_35\n      jump\t// in\n    tag_48:\n      0x00\n      mload(0x40)\n      dup1\n      dup4\n      sub\n      dup2\n      dup7\n      gas\n      delegatecall\n      iszero\n      dup1\n      iszero\n      tag_50\n      jumpi\n      returndatasize\n      0x00\n      dup1\n      returndatacopy\n      revert(0x00, returndatasize)\n    tag_50:\n      pop\n      pop\n      pop\n      pop\n      mload(0x40)\n      returndatasize\n      0x00\n      dup3\n      returndatacopy\n      returndatasize\n      not(0x1f)\n      0x1f\n      dup3\n      add\n      and\n      dup3\n      add\n      dup1\n      0x40\n      mstore\n      pop\n      dup2\n      add\n      swap1\n      tag_51\n      swap2\n      swap1\n      tag_39\n      jump\t// in\n    tag_51:\n        /* \"auth.sol\":3507:4121  person({... */\n      dup2\n      mstore\n      0x20\n      add\n        /* \"auth.sol\":3943:3950  persons */\n      0x01\n        /* \"auth.sol\":3943:3955  persons[UID] */\n      0x00\n        /* \"auth.sol\":3951:3954  UID */\n      dup8\n        /* \"auth.sol\":3943:3955  persons[UID] */\n      dup2\n      mstore\n      0x20\n      add\n      swap1\n      dup2\n      mstore\n      0x20\n      add\n      0x00\n      keccak256\n        /* \"auth.sol\":3943:3967  persons[UID].accountType */\n      0x05\n      add\n      0x00\n      swap1\n      sload\n      swap1\n      0x0100\n      exp\n      swap1\n      div\n      0xff\n      and\n        /* \"auth.sol\":3507:4121  person({... */\n      0xff\n      and\n      dup2\n      mstore\n      0x20\n      add\n        /* \"auth.sol\":4082:4089  persons */\n      0x01\n        /* \"auth.sol\":4082:4094  persons[UID] */\n      0x00\n        /* \"auth.sol\":4090:4093  UID */\n      dup8\n        /* \"auth.sol\":4082:4094  persons[UID] */\n      dup2\n      mstore\n      0x20\n      add\n      swap1\n      dup2\n      mstore\n      0x20\n      add\n      0x00\n      keccak256\n        /* \"auth.sol\":4082:4106  persons[UID].companyCode */\n      0x06\n      add\n        /* \"auth.sol\":3507:4121  person({... */\n      dup1\n      sload\n      tag_52\n      swap1\n      tag_28\n      jump\t// in\n    tag_52:\n      dup1\n      0x1f\n      add\n      0x20\n      dup1\n      swap2\n      div\n      mul\n      0x20\n      add\n      mload(0x40)\n      swap1\n      dup2\n      add\n      0x40\n      mstore\n      dup1\n      swap3\n      swap2\n      swap1\n      dup2\n      dup2\n      mstore\n      0x20\n      add\n      dup3\n      dup1\n      sload\n      tag_53\n      swap1\n      tag_28\n      jump\t// in\n    tag_53:\n      dup1\n      iszero\n      tag_54\n      jumpi\n      dup1\n      0x1f\n      lt\n      tag_55\n      jumpi\n      0x0100\n      dup1\n      dup4\n      sload\n      div\n      mul\n      dup4\n      mstore\n      swap2\n      0x20\n      add\n      swap2\n      jump(tag_54)\n    tag_55:\n      dup3\n      add\n      swap2\n      swap1\n      0x00\n      mstore\n      keccak256(0x00, 0x20)\n      swap1\n    tag_56:\n      dup2\n      sload\n      dup2\n      mstore\n      swap1\n      0x01\n      add\n      swap1\n      0x20\n      add\n      dup1\n      dup4\n      gt\n      tag_56\n      jumpi\n      dup3\n      swap1\n      sub\n      0x1f\n      and\n      dup3\n      add\n      swap2\n    tag_54:\n      pop\n      pop\n      pop\n      pop\n      pop\n      dup2\n      mstore\n      0x20\n      add\n        /* \"auth.sol\":4000:4007  persons */\n      0x01\n        /* \"auth.sol\":4000:4012  persons[UID] */\n      0x00\n        /* \"auth.sol\":4008:4011  UID */\n      dup8\n        /* \"auth.sol\":4000:4012  persons[UID] */\n      dup2\n      mstore\n      0x20\n      add\n      swap1\n      dup2\n      mstore\n      0x20\n      add\n      0x00\n      keccak256\n        /* \"auth.sol\":4000:4025  persons[UID].blockAccount */\n      0x07\n      add\n      0x00\n      swap1\n      sload\n      swap1\n      0x0100\n      exp\n      swap1\n      div\n      0xffffffffffffffffffffffffffffffffffffffff\n      and\n        /* \"auth.sol\":3507:4121  person({... */\n      0xffffffffffffffffffffffffffffffffffffffff\n      and\n      dup2\n      mstore\n      0x20\n      add\n        /* \"auth.sol\":4048:4051  UID */\n      dup6\n        /* \"auth.sol\":3507:4121  person({... */\n      dup2\n      mstore\n      pop\n        /* \"auth.sol\":3490:4121  censoredPerson = person({... */\n      swap1\n      pop\n        /* \"auth.sol\":2961:4143  if (persons[UID].blockAccount != msg.sender)... */\n    tag_33:\n        /* \"auth.sol\":4185:4186  0 */\n      0x00\n        /* \"auth.sol\":4158:4165  persons */\n      0x01\n        /* \"auth.sol\":4158:4170  persons[UID] */\n      0x00\n        /* \"auth.sol\":4166:4169  UID */\n      dup7\n        /* \"auth.sol\":4158:4170  persons[UID] */\n      dup2\n      mstore\n      0x20\n      add\n      swap1\n      dup2\n      mstore\n      0x20\n      add\n      0x00\n      keccak256\n        /* \"auth.sol\":4158:4182  persons[UID].accountType */\n      0x05\n      add\n      0x00\n      swap1\n      sload\n      swap1\n      0x0100\n      exp\n      swap1\n      div\n      0xff\n      and\n        /* \"auth.sol\":4158:4186  persons[UID].accountType > 0 */\n      0xff\n      and\n      gt\n        /* \"auth.sol\":4154:4686  if (persons[UID].accountType > 0)... */\n      iszero\n      tag_57\n      jumpi\n        /* \"auth.sol\":4227:4675  person({... */\n      mload(0x40)\n      dup1\n      0x0120\n      add\n      0x40\n      mstore\n      dup1\n        /* \"auth.sol\":4262:4269  persons */\n      0x01\n        /* \"auth.sol\":4262:4274  persons[UID] */\n      0x00\n        /* \"auth.sol\":4270:4273  UID */\n      dup8\n        /* \"auth.sol\":4262:4274  persons[UID] */\n      dup2\n      mstore\n      0x20\n      add\n      swap1\n      dup2\n      mstore\n      0x20\n      add\n      0x00\n      keccak256\n        /* \"auth.sol\":4262:4283  persons[UID].fullName */\n      0x00\n      add\n        /* \"auth.sol\":4227:4675  person({... */\n      dup1\n      sload\n      tag_58\n      swap1\n      tag_28\n      jump\t// in\n    tag_58:\n      dup1\n      0x1f\n      add\n      0x20\n      dup1\n      swap2\n      div\n      mul\n      0x20\n      add\n      mload(0x40)\n      swap1\n      dup2\n      add\n      0x40\n      mstore\n      dup1\n      swap3\n      swap2\n      swap1\n      dup2\n      dup2\n      mstore\n      0x20\n      add\n      dup3\n      dup1\n      sload\n      tag_59\n      swap1\n      tag_28\n      jump\t// in\n    tag_59:\n      dup1\n      iszero\n      tag_60\n      jumpi\n      dup1\n      0x1f\n      lt\n      tag_61\n      jumpi\n      0x0100\n      dup1\n      dup4\n      sload\n      div\n      mul\n      dup4\n      mstore\n      swap2\n      0x20\n      add\n      swap2\n      jump(tag_60)\n    tag_61:\n      dup3\n      add\n      swap2\n      swap1\n      0x00\n      mstore\n      keccak256(0x00, 0x20)\n      swap1\n    tag_62:\n      dup2\n      sload\n      dup2\n      mstore\n      swap1\n      0x01\n      add\n      swap1\n      0x20\n      add\n      dup1\n      dup4\n      gt\n      tag_62\n      jumpi\n      dup3\n      swap1\n      sub\n      0x1f\n      and\n      dup3\n      add\n      swap2\n    tag_60:\n      pop\n      pop\n      pop\n      pop\n      pop\n      dup2\n      mstore\n      0x20\n      add\n        /* \"auth.sol\":4307:4314  persons */\n      0x01\n        /* \"auth.sol\":4307:4319  persons[UID] */\n      0x00\n        /* \"auth.sol\":4315:4318  UID */\n      dup8\n        /* \"auth.sol\":4307:4319  persons[UID] */\n      dup2\n      mstore\n      0x20\n      add\n      swap1\n      dup2\n      mstore\n      0x20\n      add\n      0x00\n      keccak256\n        /* \"auth.sol\":4307:4323  persons[UID].SSN */\n      0x01\n      add\n        /* \"auth.sol\":4227:4675  person({... */\n      dup1\n      sload\n      tag_63\n      swap1\n      tag_28\n      jump\t// in\n    tag_63:\n      dup1\n      0x1f\n      add\n      0x20\n      dup1\n      swap2\n      div\n      mul\n      0x20\n      add\n      mload(0x40)\n      swap1\n      dup2\n      add\n      0x40\n      mstore\n      dup1\n      swap3\n      swap2\n      swap1\n      dup2\n      dup2\n      mstore\n      0x20\n      add\n      dup3\n      dup1\n      sload\n      tag_64\n      swap1\n      tag_28\n      jump\t// in\n    tag_64:\n      dup1\n      iszero\n      tag_65\n      jumpi\n      dup1\n      0x1f\n      lt\n      tag_66\n      jumpi\n      0x0100\n      dup1\n      dup4\n      sload\n      div\n      mul\n      dup4\n      mstore\n      swap2\n      0x20\n      add\n      swap2\n      jump(tag_65)\n    tag_66:\n      dup3\n      add\n      swap2\n      swap1\n      0x00\n      mstore\n      keccak256(0x00, 0x20)\n      swap1\n    tag_67:\n      dup2\n      sload\n      dup2\n      mstore\n      swap1\n      0x01\n      add\n      swap1\n      0x20\n      add\n      dup1\n      dup4\n      gt\n      tag_67\n      jumpi\n      dup3\n      swap1\n      sub\n      0x1f\n      and\n      dup3\n      add\n      swap2\n    tag_65:\n      pop\n      pop\n      pop\n      pop\n      pop\n      dup2\n      mstore\n      0x20\n      add\n        /* \"auth.sol\":4354:4361  persons */\n      0x01\n        /* \"auth.sol\":4354:4366  persons[UID] */\n      0x00\n        /* \"auth.sol\":4362:4365  UID */\n      dup8\n        /* \"auth.sol\":4354:4366  persons[UID] */\n      dup2\n      mstore\n      0x20\n      add\n      swap1\n      dup2\n      mstore\n      0x20\n      add\n      0x00\n      keccak256\n        /* \"auth.sol\":4354:4378  persons[UID].homeAddress */\n      0x02\n      add\n        /* \"auth.sol\":4227:4675  person({... */\n      dup1\n      sload\n      tag_68\n      swap1\n      tag_28\n      jump\t// in\n    tag_68:\n      dup1\n      0x1f\n      add\n      0x20\n      dup1\n      swap2\n      div\n      mul\n      0x20\n      add\n      mload(0x40)\n      swap1\n      dup2\n      add\n      0x40\n      mstore\n      dup1\n      swap3\n      swap2\n      swap1\n      dup2\n      dup2\n      mstore\n      0x20\n      add\n      dup3\n      dup1\n      sload\n      tag_69\n      swap1\n      tag_28\n      jump\t// in\n    tag_69:\n      dup1\n      iszero\n      tag_70\n      jumpi\n      dup1\n      0x1f\n      lt\n      tag_71\n      jumpi\n      0x0100\n      dup1\n      dup4\n      sload\n      div\n      mul\n      dup4\n      mstore\n      swap2\n      0x20\n      add\n      swap2\n      jump(tag_70)\n    tag_71:\n      dup3\n      add\n      swap2\n      swap1\n      0x00\n      mstore\n      keccak256(0x00, 0x20)\n      swap1\n    tag_72:\n      dup2\n      sload\n      dup2\n      mstore\n      swap1\n      0x01\n      add\n      swap1\n      0x20\n      add\n      dup1\n      dup4\n      gt\n      tag_72\n      jumpi\n      dup3\n      swap1\n      sub\n      0x1f\n      and\n      dup3\n      add\n      swap2\n    tag_70:\n      pop\n      pop\n      pop\n      pop\n      pop\n      dup2\n      mstore\n      0x20\n      add\n      mload(0x40)\n      dup1\n      0x40\n      add\n      0x40\n      mstore\n      dup1\n      0x07\n      dup2\n      mstore\n      0x20\n      add\n      0x2a2a2a2a2a2a2a00000000000000000000000000000000000000000000000000\n      dup2\n      mstore\n      pop\n      dup2\n      mstore\n      0x20\n      add\n        /* \"auth.sol\":4436:4443  persons */\n      0x01\n        /* \"auth.sol\":4436:4448  persons[UID] */\n      0x00\n        /* \"auth.sol\":4444:4447  UID */\n      dup8\n        /* \"auth.sol\":4436:4448  persons[UID] */\n      dup2\n      mstore\n      0x20\n      add\n      swap1\n      dup2\n      mstore\n      0x20\n      add\n      0x00\n      keccak256\n        /* \"auth.sol\":4436:4454  persons[UID].phone */\n      0x04\n      add\n        /* \"auth.sol\":4227:4675  person({... */\n      dup1\n      sload\n      tag_73\n      swap1\n      tag_28\n      jump\t// in\n    tag_73:\n      dup1\n      0x1f\n      add\n      0x20\n      dup1\n      swap2\n      div\n      mul\n      0x20\n      add\n      mload(0x40)\n      swap1\n      dup2\n      add\n      0x40\n      mstore\n      dup1\n      swap3\n      swap2\n      swap1\n      dup2\n      dup2\n      mstore\n      0x20\n      add\n      dup3\n      dup1\n      sload\n      tag_74\n      swap1\n      tag_28\n      jump\t// in\n    tag_74:\n      dup1\n      iszero\n      tag_75\n      jumpi\n      dup1\n      0x1f\n      lt\n      tag_76\n      jumpi\n      0x0100\n      dup1\n      dup4\n      sload\n      div\n      mul\n      dup4\n      mstore\n      swap2\n      0x20\n      add\n      swap2\n      jump(tag_75)\n    tag_76:\n      dup3\n      add\n      swap2\n      swap1\n      0x00\n      mstore\n      keccak256(0x00, 0x20)\n      swap1\n    tag_77:\n      dup2\n      sload\n      dup2\n      mstore\n      swap1\n      0x01\n      add\n      swap1\n      0x20\n      add\n      dup1\n      dup4\n      gt\n      tag_77\n      jumpi\n      dup3\n      swap1\n      sub\n      0x1f\n      and\n      dup3\n      add\n      swap2\n    tag_75:\n      pop\n      pop\n      pop\n      pop\n      pop\n      dup2\n      mstore\n      0x20\n      add\n        /* \"auth.sol\":4485:4492  persons */\n      0x01\n        /* \"auth.sol\":4485:4497  persons[UID] */\n      0x00\n        /* \"auth.sol\":4493:4496  UID */\n      dup8\n        /* \"auth.sol\":4485:4497  persons[UID] */\n      dup2\n      mstore\n      0x20\n      add\n      swap1\n      dup2\n      mstore\n      0x20\n      add\n      0x00\n      keccak256\n        /* \"auth.sol\":4485:4509  persons[UID].accountType */\n      0x05\n      add\n      0x00\n      swap1\n      sload\n      swap1\n      0x0100\n      exp\n      swap1\n      div\n      0xff\n      and\n        /* \"auth.sol\":4227:4675  person({... */\n      0xff\n      and\n      dup2\n      mstore\n      0x20\n      add\n        /* \"auth.sol\":4636:4643  persons */\n      0x01\n        /* \"auth.sol\":4636:4648  persons[UID] */\n      0x00\n        /* \"auth.sol\":4644:4647  UID */\n      dup8\n        /* \"auth.sol\":4636:4648  persons[UID] */\n      dup2\n      mstore\n      0x20\n      add\n      swap1\n      dup2\n      mstore\n      0x20\n      add\n      0x00\n      keccak256\n        /* \"auth.sol\":4636:4660  persons[UID].companyCode */\n      0x06\n      add\n        /* \"auth.sol\":4227:4675  person({... */\n      dup1\n      sload\n      tag_78\n      swap1\n      tag_28\n      jump\t// in\n    tag_78:\n      dup1\n      0x1f\n      add\n      0x20\n      dup1\n      swap2\n      div\n      mul\n      0x20\n      add\n      mload(0x40)\n      swap1\n      dup2\n      add\n      0x40\n      mstore\n      dup1\n      swap3\n      swap2\n      swap1\n      dup2\n      dup2\n      mstore\n      0x20\n      add\n      dup3\n      dup1\n      sload\n      tag_79\n      swap1\n      tag_28\n      jump\t// in\n    tag_79:\n      dup1\n      iszero\n      tag_80\n      jumpi\n      dup1\n      0x1f\n      lt\n      tag_81\n      jumpi\n      0x0100\n      dup1\n      dup4\n      sload\n      div\n      mul\n      dup4\n      mstore\n      swap2\n      0x20\n      add\n      swap2\n      jump(tag_80)\n    tag_81:\n      dup3\n      add\n      swap2\n      swap1\n      0x00\n      mstore\n      keccak256(0x00, 0x20)\n      swap1\n    tag_82:\n      dup2\n      sload\n      dup2\n      mstore\n      swap1\n      0x01\n      add\n      swap1\n      0x20\n      add\n      dup1\n      dup4\n      gt\n      tag_82\n      jumpi\n      dup3\n      swap1\n      sub\n      0x1f\n      and\n      dup3\n      add\n      swap2\n    tag_80:\n      pop\n      pop\n      pop\n      pop\n      pop\n      dup2\n      mstore\n      0x20\n      add\n        /* \"auth.sol\":4540:4547  persons */\n      0x01\n        /* \"auth.sol\":4540:4552  persons[UID] */\n      0x00\n        /* \"auth.sol\":4548:4551  UID */\n      dup8\n        /* \"auth.sol\":4540:4552  persons[UID] */\n      dup2\n      mstore\n      0x20\n      add\n      swap1\n      dup2\n      mstore\n      0x20\n      add\n      0x00\n      keccak256\n        /* \"auth.sol\":4540:4565  persons[UID].blockAccount */\n      0x07\n      add\n      0x00\n      swap1\n      sload\n      swap1\n      0x0100\n      exp\n      swap1\n      div\n      0xffffffffffffffffffffffffffffffffffffffff\n      and\n        /* \"auth.sol\":4227:4675  person({... */\n      0xffffffffffffffffffffffffffffffffffffffff\n      and\n      dup2\n      mstore\n      0x20\n      add\n        /* \"auth.sol\":4589:4596  persons */\n      0x01\n        /* \"auth.sol\":4589:4601  persons[UID] */\n      0x00\n        /* \"auth.sol\":4597:4600  UID */\n      dup8\n        /* \"auth.sol\":4589:4601  persons[UID] */\n      dup2\n      mstore\n      0x20\n      add\n      swap1\n      dup2\n      mstore\n      0x20\n      add\n      0x00\n      keccak256\n        /* \"auth.sol\":4589:4605  persons[UID].UID */\n      0x08\n      add\n      sload\n        /* \"auth.sol\":4227:4675  person({... */\n      dup2\n      mstore\n      pop\n        /* \"auth.sol\":4210:4675  censoredPerson = person({... */\n      swap1\n      pop\n        /* \"auth.sol\":4154:4686  if (persons[UID].accountType > 0)... */\n    tag_57:\n        /* \"auth.sol\":4702:4716  censoredPerson */\n      dup1\n        /* \"auth.sol\":4695:4716  return censoredPerson */\n      swap2\n      pop\n      pop\n        /* \"auth.sol\":2815:4723  function getUser(bytes32 UID, string memory pass) public view returns(person memory)... */\n      swap3\n      swap2\n      pop\n      pop\n      jump\t// out\n        /* \"auth.sol\":4729:5341  function editUser(bytes32 UID, string memory fullName, string memory homeAddress, string memory phone, address blockAccount, string memory companyCode, string memory pass) public payable... */\n    tag_15:\n        /* \"auth.sol\":4965:4975  msg.sender */\n      caller\n        /* \"auth.sol\":4936:4975  persons[UID].blockAccount != msg.sender */\n      0xffffffffffffffffffffffffffffffffffffffff\n      and\n        /* \"auth.sol\":4936:4943  persons */\n      0x01\n        /* \"auth.sol\":4936:4948  persons[UID] */\n      0x00\n        /* \"auth.sol\":4944:4947  UID */\n      dup10\n        /* \"auth.sol\":4936:4948  persons[UID] */\n      dup2\n      mstore\n      0x20\n      add\n      swap1\n      dup2\n      mstore\n      0x20\n      add\n      0x00\n      keccak256\n        /* \"auth.sol\":4936:4961  persons[UID].blockAccount */\n      0x07\n      add\n      0x00\n      swap1\n      sload\n      swap1\n      0x0100\n      exp\n      swap1\n      div\n      0xffffffffffffffffffffffffffffffffffffffff\n      and\n        /* \"auth.sol\":4936:4975  persons[UID].blockAccount != msg.sender */\n      0xffffffffffffffffffffffffffffffffffffffff\n      and\n      eq\n      iszero\n        /* \"auth.sol\":4935:5056  (persons[UID].blockAccount != msg.sender) && (compare(pass, string(abi.encodePacked(keccak256(abi.encodePacked(pass)))))) */\n      dup1\n      iszero\n      tag_84\n      jumpi\n      pop\n        /* \"auth.sol\":4981:5055  compare(pass, string(abi.encodePacked(keccak256(abi.encodePacked(pass))))) */\n      tag_85\n        /* \"auth.sol\":4989:4993  pass */\n      dup2\n        /* \"auth.sol\":5046:5050  pass */\n      dup3\n        /* \"auth.sol\":5029:5051  abi.encodePacked(pass) */\n      add(0x20, mload(0x40))\n      tag_86\n      swap2\n      swap1\n      tag_87\n      jump\t// in\n    tag_86:\n      mload(0x40)\n      0x20\n      dup2\n      dup4\n      sub\n      sub\n      dup2\n      mstore\n      swap1\n      0x40\n      mstore\n        /* \"auth.sol\":5019:5052  keccak256(abi.encodePacked(pass)) */\n      dup1\n      mload\n      swap1\n      0x20\n      add\n      keccak256\n        /* \"auth.sol\":5002:5053  abi.encodePacked(keccak256(abi.encodePacked(pass))) */\n      add(0x20, mload(0x40))\n      tag_88\n      swap2\n      swap1\n      tag_89\n      jump\t// in\n    tag_88:\n      mload(0x40)\n      0x20\n      dup2\n      dup4\n      sub\n      sub\n      dup2\n      mstore\n      swap1\n      0x40\n      mstore\n        /* \"auth.sol\":4981:4988  compare */\n      tag_90\n        /* \"auth.sol\":4981:5055  compare(pass, string(abi.encodePacked(keccak256(abi.encodePacked(pass))))) */\n      jump\t// in\n    tag_85:\n        /* \"auth.sol\":4935:5056  (persons[UID].blockAccount != msg.sender) && (compare(pass, string(abi.encodePacked(keccak256(abi.encodePacked(pass)))))) */\n    tag_84:\n        /* \"auth.sol\":4931:5332  if ((persons[UID].blockAccount != msg.sender) && (compare(pass, string(abi.encodePacked(keccak256(abi.encodePacked(pass)))))))    ... */\n      iszero\n      tag_91\n      jumpi\n        /* \"auth.sol\":5110:5118  fullName */\n      dup6\n        /* \"auth.sol\":5086:5093  persons */\n      0x01\n        /* \"auth.sol\":5086:5098  persons[UID] */\n      0x00\n        /* \"auth.sol\":5094:5097  UID */\n      dup10\n        /* \"auth.sol\":5086:5098  persons[UID] */\n      dup2\n      mstore\n      0x20\n      add\n      swap1\n      dup2\n      mstore\n      0x20\n      add\n      0x00\n      keccak256\n        /* \"auth.sol\":5086:5107  persons[UID].fullName */\n      0x00\n      add\n        /* \"auth.sol\":5086:5118  persons[UID].fullName = fullName */\n      swap1\n      dup2\n      tag_92\n      swap2\n      swap1\n      tag_93\n      jump\t// in\n    tag_92:\n      pop\n        /* \"auth.sol\":5160:5171  homeAddress */\n      dup5\n        /* \"auth.sol\":5133:5140  persons */\n      0x01\n        /* \"auth.sol\":5133:5145  persons[UID] */\n      0x00\n        /* \"auth.sol\":5141:5144  UID */\n      dup10\n        /* \"auth.sol\":5133:5145  persons[UID] */\n      dup2\n      mstore\n      0x20\n      add\n      swap1\n      dup2\n      mstore\n      0x20\n      add\n      0x00\n      keccak256\n        /* \"auth.sol\":5133:5157  persons[UID].homeAddress */\n      0x02\n      add\n        /* \"auth.sol\":5133:5171  persons[UID].homeAddress = homeAddress */\n      swap1\n      dup2\n      tag_94\n      swap2\n      swap1\n      tag_93\n      jump\t// in\n    tag_94:\n      pop\n        /* \"auth.sol\":5207:5212  phone */\n      dup4\n        /* \"auth.sol\":5186:5193  persons */\n      0x01\n        /* \"auth.sol\":5186:5198  persons[UID] */\n      0x00\n        /* \"auth.sol\":5194:5197  UID */\n      dup10\n        /* \"auth.sol\":5186:5198  persons[UID] */\n      dup2\n      mstore\n      0x20\n      add\n      swap1\n      dup2\n      mstore\n      0x20\n      add\n      0x00\n      keccak256\n        /* \"auth.sol\":5186:5204  persons[UID].phone */\n      0x04\n      add\n        /* \"auth.sol\":5186:5212  persons[UID].phone = phone */\n      swap1\n      dup2\n      tag_95\n      swap2\n      swap1\n      tag_93\n      jump\t// in\n    tag_95:\n      pop\n        /* \"auth.sol\":5255:5267  blockAccount */\n      dup3\n        /* \"auth.sol\":5227:5234  persons */\n      0x01\n        /* \"auth.sol\":5227:5239  persons[UID] */\n      0x00\n        /* \"auth.sol\":5235:5238  UID */\n      dup10\n        /* \"auth.sol\":5227:5239  persons[UID] */\n      dup2\n      mstore\n      0x20\n      add\n      swap1\n      dup2\n      mstore\n      0x20\n      add\n      0x00\n      keccak256\n        /* \"auth.sol\":5227:5252  persons[UID].blockAccount */\n      0x07\n      add\n      0x00\n        /* \"auth.sol\":5227:5267  persons[UID].blockAccount = blockAccount */\n      0x0100\n      exp\n      dup2\n      sload\n      dup2\n      0xffffffffffffffffffffffffffffffffffffffff\n      mul\n      not\n      and\n      swap1\n      dup4\n      0xffffffffffffffffffffffffffffffffffffffff\n      and\n      mul\n      or\n      swap1\n      sstore\n      pop\n        /* \"auth.sol\":5309:5320  companyCode */\n      dup2\n        /* \"auth.sol\":5282:5289  persons */\n      0x01\n        /* \"auth.sol\":5282:5294  persons[UID] */\n      0x00\n        /* \"auth.sol\":5290:5293  UID */\n      dup10\n        /* \"auth.sol\":5282:5294  persons[UID] */\n      dup2\n      mstore\n      0x20\n      add\n      swap1\n      dup2\n      mstore\n      0x20\n      add\n      0x00\n      keccak256\n        /* \"auth.sol\":5282:5306  persons[UID].companyCode */\n      0x06\n      add\n        /* \"auth.sol\":5282:5320  persons[UID].companyCode = companyCode */\n      swap1\n      dup2\n      tag_96\n      swap2\n      swap1\n      tag_93\n      jump\t// in\n    tag_96:\n      pop\n        /* \"auth.sol\":4931:5332  if ((persons[UID].blockAccount != msg.sender) && (compare(pass, string(abi.encodePacked(keccak256(abi.encodePacked(pass)))))))    ... */\n    tag_91:\n        /* \"auth.sol\":4729:5341  function editUser(bytes32 UID, string memory fullName, string memory homeAddress, string memory phone, address blockAccount, string memory companyCode, string memory pass) public payable... */\n      pop\n      pop\n      pop\n      pop\n      pop\n      pop\n      pop\n      jump\t// out\n        /* \"auth.sol\":915:2809  function createAccount(string memory fullName, string memory SSN, string memory homeAddress, string memory pass, uint8 accountType, string memory phone, address addr, string memory companyCode) public payable returns (bytes32)... */\n    tag_19:\n        /* \"auth.sol\":1133:1140  bytes32 */\n      0x00\n        /* \"auth.sol\":1156:1165  isOwner() */\n      tag_98\n        /* \"auth.sol\":1156:1163  isOwner */\n      tag_99\n        /* \"auth.sol\":1156:1165  isOwner() */\n      jump\t// in\n    tag_98:\n        /* \"auth.sol\":1200:1201  5 */\n      0x05\n        /* \"auth.sol\":1185:1196  accountType */\n      dup6\n        /* \"auth.sol\":1185:1201  accountType <= 5 */\n      0xff\n      and\n      gt\n      iszero\n        /* \"auth.sol\":1177:1226  require(accountType <= 5, \"Invalid company type\") */\n      tag_100\n      jumpi\n      mload(0x40)\n      0x08c379a000000000000000000000000000000000000000000000000000000000\n      dup2\n      mstore\n      0x04\n      add\n      tag_101\n      swap1\n      tag_102\n      jump\t// in\n    tag_101:\n      mload(0x40)\n      dup1\n      swap2\n      sub\n      swap1\n      revert\n    tag_100:\n        /* \"auth.sol\":1265:1267  13 */\n      0x0d\n        /* \"auth.sol\":1250:1253  SSN */\n      dup9\n        /* \"auth.sol\":1244:1261  bytes(SSN).length */\n      mload\n        /* \"auth.sol\":1244:1267  bytes(SSN).length == 13 */\n      eq\n        /* \"auth.sol\":1236:1283  require(bytes(SSN).length == 13, \"Invalid SSN\") */\n      tag_103\n      jumpi\n      mload(0x40)\n      0x08c379a000000000000000000000000000000000000000000000000000000000\n      dup2\n      mstore\n      0x04\n      add\n      tag_104\n      swap1\n      tag_105\n      jump\t// in\n    tag_104:\n      mload(0x40)\n      dup1\n      swap2\n      sub\n      swap1\n      revert\n    tag_103:\n        /* \"auth.sol\":1326:1327  6 */\n      0x06\n        /* \"auth.sol\":1307:1315  fullName */\n      dup10\n        /* \"auth.sol\":1301:1323  bytes(fullName).length */\n      mload\n        /* \"auth.sol\":1301:1327  bytes(fullName).length > 6 */\n      gt\n        /* \"auth.sol\":1293:1344  require(bytes(fullName).length > 6, \"Invalid name\") */\n      tag_106\n      jumpi\n      mload(0x40)\n      0x08c379a000000000000000000000000000000000000000000000000000000000\n      dup2\n      mstore\n      0x04\n      add\n      tag_107\n      swap1\n      tag_108\n      jump\t// in\n    tag_107:\n      mload(0x40)\n      dup1\n      swap2\n      sub\n      swap1\n      revert\n    tag_106:\n        /* \"auth.sol\":1390:1392  10 */\n      0x0a\n        /* \"auth.sol\":1368:1379  homeAddress */\n      dup8\n        /* \"auth.sol\":1362:1387  bytes(homeAddress).length */\n      mload\n        /* \"auth.sol\":1362:1392  bytes(homeAddress).length > 10 */\n      gt\n        /* \"auth.sol\":1354:1412  require(bytes(homeAddress).length > 10, \"Invalid address\") */\n      tag_109\n      jumpi\n      mload(0x40)\n      0x08c379a000000000000000000000000000000000000000000000000000000000\n      dup2\n      mstore\n      0x04\n      add\n      tag_110\n      swap1\n      tag_111\n      jump\t// in\n    tag_110:\n      mload(0x40)\n      dup1\n      swap2\n      sub\n      swap1\n      revert\n    tag_109:\n        /* \"auth.sol\":1451:1452  8 */\n      0x08\n        /* \"auth.sol\":1436:1440  pass */\n      dup7\n        /* \"auth.sol\":1430:1448  bytes(pass).length */\n      mload\n        /* \"auth.sol\":1430:1452  bytes(pass).length > 8 */\n      gt\n        /* \"auth.sol\":1422:1475  require(bytes(pass).length > 8, \"Password too short\") */\n      tag_112\n      jumpi\n      mload(0x40)\n      0x08c379a000000000000000000000000000000000000000000000000000000000\n      dup2\n      mstore\n      0x04\n      add\n      tag_113\n      swap1\n      tag_114\n      jump\t// in\n    tag_113:\n      mload(0x40)\n      dup1\n      swap2\n      sub\n      swap1\n      revert\n    tag_112:\n        /* \"auth.sol\":1515:1516  6 */\n      0x06\n        /* \"auth.sol\":1499:1504  phone */\n      dup5\n        /* \"auth.sol\":1493:1512  bytes(phone).length */\n      mload\n        /* \"auth.sol\":1493:1516  bytes(phone).length > 6 */\n      gt\n        /* \"auth.sol\":1485:1543  require(bytes(phone).length > 6, \"Phone number too short\") */\n      tag_115\n      jumpi\n      mload(0x40)\n      0x08c379a000000000000000000000000000000000000000000000000000000000\n      dup2\n      mstore\n      0x04\n      add\n      tag_116\n      swap1\n      tag_117\n      jump\t// in\n    tag_116:\n      mload(0x40)\n      dup1\n      swap2\n      sub\n      swap1\n      revert\n    tag_115:\n        /* \"auth.sol\":1553:1564  bytes32 UID */\n      0x00\n        /* \"auth.sol\":1608:1616  fullName */\n      dup10\n        /* \"auth.sol\":1617:1620  SSN */\n      dup10\n        /* \"auth.sol\":1621:1650  Strings.toString(accountType) */\n      tag_118\n        /* \"auth.sol\":1638:1649  accountType */\n      dup9\n        /* \"auth.sol\":1621:1650  Strings.toString(accountType) */\n      0xff\n      and\n        /* \"auth.sol\":1621:1637  Strings.toString */\n      tag_119\n        /* \"auth.sol\":1621:1650  Strings.toString(accountType) */\n      jump\t// in\n    tag_118:\n        /* \"auth.sol\":1651:1662  homeAddress */\n      dup11\n        /* \"auth.sol\":1663:1667  pass */\n      dup11\n        /* \"auth.sol\":1668:1673  phone */\n      dup10\n        /* \"auth.sol\":1594:1674  string.concat(fullName,SSN,Strings.toString(accountType),homeAddress,pass,phone) */\n      add(0x20, mload(0x40))\n      tag_120\n      swap7\n      swap6\n      swap5\n      swap4\n      swap3\n      swap2\n      swap1\n      tag_121\n      jump\t// in\n    tag_120:\n      mload(0x40)\n      0x20\n      dup2\n      dup4\n      sub\n      sub\n      dup2\n      mstore\n      swap1\n      0x40\n      mstore\n        /* \"auth.sol\":1577:1675  abi.encodePacked(string.concat(fullName,SSN,Strings.toString(accountType),homeAddress,pass,phone)) */\n      add(0x20, mload(0x40))\n      tag_122\n      swap2\n      swap1\n      tag_87\n      jump\t// in\n    tag_122:\n      mload(0x40)\n      0x20\n      dup2\n      dup4\n      sub\n      sub\n      dup2\n      mstore\n      swap1\n      0x40\n      mstore\n        /* \"auth.sol\":1567:1676  keccak256(abi.encodePacked(string.concat(fullName,SSN,Strings.toString(accountType),homeAddress,pass,phone))) */\n      dup1\n      mload\n      swap1\n      0x20\n      add\n      keccak256\n        /* \"auth.sol\":1553:1676  bytes32 UID = keccak256(abi.encodePacked(string.concat(fullName,SSN,Strings.toString(accountType),homeAddress,pass,phone))) */\n      swap1\n      pop\n        /* \"auth.sol\":1731:1732  0 */\n      0x00\n        /* \"auth.sol\":1716:1727  accountType */\n      dup7\n        /* \"auth.sol\":1716:1732  accountType == 0 */\n      0xff\n      and\n      sub\n        /* \"auth.sol\":1712:2749  if (accountType == 0)... */\n      tag_123\n      jumpi\n        /* \"auth.sol\":1771:2330  person({... */\n      mload(0x40)\n      dup1\n      0x0120\n      add\n      0x40\n      mstore\n      dup1\n        /* \"auth.sol\":1814:1820  cypher */\n      linkerSymbol(\"0394c467ed0fdd19c4eccf25096e0ad40f7a8f3a2ecaa74fa8ac0ce31535a80b\")\n        /* \"auth.sol\":1814:1828  cypher.encrypt */\n      0x015cfec7\n        /* \"auth.sol\":1835:1843  fullName */\n      dup14\n        /* \"auth.sol\":1852:1856  pass */\n      dup12\n        /* \"auth.sol\":1814:1858  cypher.encrypt(bytes(fullName), bytes(pass)) */\n      mload(0x40)\n      dup4\n      0xffffffff\n      and\n      0xe0\n      shl\n      dup2\n      mstore\n      0x04\n      add\n      tag_124\n      swap3\n      swap2\n      swap1\n      tag_125\n      jump\t// in\n    tag_124:\n      0x00\n      mload(0x40)\n      dup1\n      dup4\n      sub\n      dup2\n      dup7\n      gas\n      delegatecall\n      iszero\n      dup1\n      iszero\n      tag_127\n      jumpi\n      returndatasize\n      0x00\n      dup1\n      returndatacopy\n      revert(0x00, returndatasize)\n    tag_127:\n      pop\n      pop\n      pop\n      pop\n      mload(0x40)\n      returndatasize\n      0x00\n      dup3\n      returndatacopy\n      returndatasize\n      not(0x1f)\n      0x1f\n      dup3\n      add\n      and\n      dup3\n      add\n      dup1\n      0x40\n      mstore\n      pop\n      dup2\n      add\n      swap1\n      tag_128\n      swap2\n      swap1\n      tag_39\n      jump\t// in\n    tag_128:\n        /* \"auth.sol\":1771:2330  person({... */\n      dup2\n      mstore\n      0x20\n      add\n        /* \"auth.sol\":1890:1896  cypher */\n      linkerSymbol(\"0394c467ed0fdd19c4eccf25096e0ad40f7a8f3a2ecaa74fa8ac0ce31535a80b\")\n        /* \"auth.sol\":1890:1904  cypher.encrypt */\n      0x015cfec7\n        /* \"auth.sol\":1911:1914  SSN */\n      dup13\n        /* \"auth.sol\":1923:1927  pass */\n      dup12\n        /* \"auth.sol\":1890:1929  cypher.encrypt(bytes(SSN), bytes(pass)) */\n      mload(0x40)\n      dup4\n      0xffffffff\n      and\n      0xe0\n      shl\n      dup2\n      mstore\n      0x04\n      add\n      tag_129\n      swap3\n      swap2\n      swap1\n      tag_125\n      jump\t// in\n    tag_129:\n      0x00\n      mload(0x40)\n      dup1\n      dup4\n      sub\n      dup2\n      dup7\n      gas\n      delegatecall\n      iszero\n      dup1\n      iszero\n      tag_131\n      jumpi\n      returndatasize\n      0x00\n      dup1\n      returndatacopy\n      revert(0x00, returndatasize)\n    tag_131:\n      pop\n      pop\n      pop\n      pop\n      mload(0x40)\n      returndatasize\n      0x00\n      dup3\n      returndatacopy\n      returndatasize\n      not(0x1f)\n      0x1f\n      dup3\n      add\n      and\n      dup3\n      add\n      dup1\n      0x40\n      mstore\n      pop\n      dup2\n      add\n      swap1\n      tag_132\n      swap2\n      swap1\n      tag_39\n      jump\t// in\n    tag_132:\n        /* \"auth.sol\":1771:2330  person({... */\n      dup2\n      mstore\n      0x20\n      add\n        /* \"auth.sol\":1969:1975  cypher */\n      linkerSymbol(\"0394c467ed0fdd19c4eccf25096e0ad40f7a8f3a2ecaa74fa8ac0ce31535a80b\")\n        /* \"auth.sol\":1969:1983  cypher.encrypt */\n      0x015cfec7\n        /* \"auth.sol\":1990:2001  homeAddress */\n      dup12\n        /* \"auth.sol\":2010:2014  pass */\n      dup12\n        /* \"auth.sol\":1969:2016  cypher.encrypt(bytes(homeAddress), bytes(pass)) */\n      mload(0x40)\n      dup4\n      0xffffffff\n      and\n      0xe0\n      shl\n      dup2\n      mstore\n      0x04\n      add\n      tag_133\n      swap3\n      swap2\n      swap1\n      tag_125\n      jump\t// in\n    tag_133:\n      0x00\n      mload(0x40)\n      dup1\n      dup4\n      sub\n      dup2\n      dup7\n      gas\n      delegatecall\n      iszero\n      dup1\n      iszero\n      tag_135\n      jumpi\n      returndatasize\n      0x00\n      dup1\n      returndatacopy\n      revert(0x00, returndatasize)\n    tag_135:\n      pop\n      pop\n      pop\n      pop\n      mload(0x40)\n      returndatasize\n      0x00\n      dup3\n      returndatacopy\n      returndatasize\n      not(0x1f)\n      0x1f\n      dup3\n      add\n      and\n      dup3\n      add\n      dup1\n      0x40\n      mstore\n      pop\n      dup2\n      add\n      swap1\n      tag_136\n      swap2\n      swap1\n      tag_39\n      jump\t// in\n    tag_136:\n        /* \"auth.sol\":1771:2330  person({... */\n      dup2\n      mstore\n      0x20\n      add\n        /* \"auth.sol\":2093:2097  pass */\n      dup9\n        /* \"auth.sol\":2076:2098  abi.encodePacked(pass) */\n      add(0x20, mload(0x40))\n      tag_137\n      swap2\n      swap1\n      tag_87\n      jump\t// in\n    tag_137:\n      mload(0x40)\n      0x20\n      dup2\n      dup4\n      sub\n      sub\n      dup2\n      mstore\n      swap1\n      0x40\n      mstore\n        /* \"auth.sol\":2066:2099  keccak256(abi.encodePacked(pass)) */\n      dup1\n      mload\n      swap1\n      0x20\n      add\n      keccak256\n        /* \"auth.sol\":2049:2100  abi.encodePacked(keccak256(abi.encodePacked(pass))) */\n      add(0x20, mload(0x40))\n      tag_138\n      swap2\n      swap1\n      tag_89\n      jump\t// in\n    tag_138:\n      mload(0x40)\n      0x20\n      dup2\n      dup4\n      sub\n      sub\n      dup2\n      mstore\n      swap1\n      0x40\n      mstore\n        /* \"auth.sol\":1771:2330  person({... */\n      dup2\n      mstore\n      0x20\n      add\n        /* \"auth.sol\":2134:2140  cypher */\n      linkerSymbol(\"0394c467ed0fdd19c4eccf25096e0ad40f7a8f3a2ecaa74fa8ac0ce31535a80b\")\n        /* \"auth.sol\":2134:2148  cypher.encrypt */\n      0x015cfec7\n        /* \"auth.sol\":2155:2160  phone */\n      dup9\n        /* \"auth.sol\":2169:2173  pass */\n      dup12\n        /* \"auth.sol\":2134:2175  cypher.encrypt(bytes(phone), bytes(pass)) */\n      mload(0x40)\n      dup4\n      0xffffffff\n      and\n      0xe0\n      shl\n      dup2\n      mstore\n      0x04\n      add\n      tag_139\n      swap3\n      swap2\n      swap1\n      tag_125\n      jump\t// in\n    tag_139:\n      0x00\n      mload(0x40)\n      dup1\n      dup4\n      sub\n      dup2\n      dup7\n      gas\n      delegatecall\n      iszero\n      dup1\n      iszero\n      tag_141\n      jumpi\n      returndatasize\n      0x00\n      dup1\n      returndatacopy\n      revert(0x00, returndatasize)\n    tag_141:\n      pop\n      pop\n      pop\n      pop\n      mload(0x40)\n      returndatasize\n      0x00\n      dup3\n      returndatacopy\n      returndatasize\n      not(0x1f)\n      0x1f\n      dup3\n      add\n      and\n      dup3\n      add\n      dup1\n      0x40\n      mstore\n      pop\n      dup2\n      add\n      swap1\n      tag_142\n      swap2\n      swap1\n      tag_39\n      jump\t// in\n    tag_142:\n        /* \"auth.sol\":1771:2330  person({... */\n      dup2\n      mstore\n      0x20\n      add\n        /* \"auth.sol\":2207:2218  accountType */\n      dup8\n        /* \"auth.sol\":1771:2330  person({... */\n      0xff\n      and\n      dup2\n      mstore\n      0x20\n      add\n      mload(0x40)\n      dup1\n      0x40\n      add\n      0x40\n      mstore\n      dup1\n      0x01\n      dup2\n      mstore\n      0x20\n      add\n      0x3000000000000000000000000000000000000000000000000000000000000000\n      dup2\n      mstore\n      pop\n      dup2\n      mstore\n      0x20\n      add\n        /* \"auth.sol\":2251:2255  addr */\n      dup6\n        /* \"auth.sol\":1771:2330  person({... */\n      0xffffffffffffffffffffffffffffffffffffffff\n      and\n      dup2\n      mstore\n      0x20\n      add\n        /* \"auth.sol\":2278:2281  UID */\n      dup3\n        /* \"auth.sol\":1771:2330  person({... */\n      dup2\n      mstore\n      pop\n        /* \"auth.sol\":1756:1763  persons */\n      0x01\n        /* \"auth.sol\":1756:1768  persons[UID] */\n      0x00\n        /* \"auth.sol\":1764:1767  UID */\n      dup4\n        /* \"auth.sol\":1756:1768  persons[UID] */\n      dup2\n      mstore\n      0x20\n      add\n      swap1\n      dup2\n      mstore\n      0x20\n      add\n      0x00\n      keccak256\n        /* \"auth.sol\":1756:2330  persons[UID] = person({... */\n      0x00\n      dup3\n      add\n      mload\n      dup2\n      0x00\n      add\n      swap1\n      dup2\n      tag_143\n      swap2\n      swap1\n      tag_93\n      jump\t// in\n    tag_143:\n      pop\n      0x20\n      dup3\n      add\n      mload\n      dup2\n      0x01\n      add\n      swap1\n      dup2\n      tag_144\n      swap2\n      swap1\n      tag_93\n      jump\t// in\n    tag_144:\n      pop\n      0x40\n      dup3\n      add\n      mload\n      dup2\n      0x02\n      add\n      swap1\n      dup2\n      tag_145\n      swap2\n      swap1\n      tag_93\n      jump\t// in\n    tag_145:\n      pop\n      0x60\n      dup3\n      add\n      mload\n      dup2\n      0x03\n      add\n      swap1\n      dup2\n      tag_146\n      swap2\n      swap1\n      tag_93\n      jump\t// in\n    tag_146:\n      pop\n      0x80\n      dup3\n      add\n      mload\n      dup2\n      0x04\n      add\n      swap1\n      dup2\n      tag_147\n      swap2\n      swap1\n      tag_93\n      jump\t// in\n    tag_147:\n      pop\n      0xa0\n      dup3\n      add\n      mload\n      dup2\n      0x05\n      add\n      exp(0x0100, 0x00)\n      dup2\n      sload\n      dup2\n      0xff\n      mul\n      not\n      and\n      swap1\n      dup4\n      0xff\n      and\n      mul\n      or\n      swap1\n      sstore\n      pop\n      0xc0\n      dup3\n      add\n      mload\n      dup2\n      0x06\n      add\n      swap1\n      dup2\n      tag_148\n      swap2\n      swap1\n      tag_93\n      jump\t// in\n    tag_148:\n      pop\n      0xe0\n      dup3\n      add\n      mload\n      dup2\n      0x07\n      add\n      exp(0x0100, 0x00)\n      dup2\n      sload\n      dup2\n      0xffffffffffffffffffffffffffffffffffffffff\n      mul\n      not\n      and\n      swap1\n      dup4\n      0xffffffffffffffffffffffffffffffffffffffff\n      and\n      mul\n      or\n      swap1\n      sstore\n      pop\n      0x0100\n      dup3\n      add\n      mload\n      dup2\n      0x08\n      add\n      sstore\n      swap1\n      pop\n      pop\n        /* \"auth.sol\":1712:2749  if (accountType == 0)... */\n      jump(tag_149)\n    tag_123:\n        /* \"auth.sol\":2392:2738  person({... */\n      mload(0x40)\n      dup1\n      0x0120\n      add\n      0x40\n      mstore\n      dup1\n        /* \"auth.sol\":2428:2436  fullName */\n      dup12\n        /* \"auth.sol\":2392:2738  person({... */\n      dup2\n      mstore\n      0x20\n      add\n        /* \"auth.sol\":2460:2463  SSN */\n      dup11\n        /* \"auth.sol\":2392:2738  person({... */\n      dup2\n      mstore\n      0x20\n      add\n        /* \"auth.sol\":2495:2506  homeAddress */\n      dup10\n        /* \"auth.sol\":2392:2738  person({... */\n      dup2\n      mstore\n      0x20\n      add\n        /* \"auth.sol\":2531:2535  pass */\n      dup9\n        /* \"auth.sol\":2392:2738  person({... */\n      dup2\n      mstore\n      0x20\n      add\n        /* \"auth.sol\":2561:2566  phone */\n      dup7\n        /* \"auth.sol\":2392:2738  person({... */\n      dup2\n      mstore\n      0x20\n      add\n        /* \"auth.sol\":2597:2608  accountType */\n      dup8\n        /* \"auth.sol\":2392:2738  person({... */\n      0xff\n      and\n      dup2\n      mstore\n      0x20\n      add\n        /* \"auth.sol\":2701:2712  companyCode */\n      dup5\n        /* \"auth.sol\":2392:2738  person({... */\n      dup2\n      mstore\n      0x20\n      add\n        /* \"auth.sol\":2641:2645  addr */\n      dup6\n        /* \"auth.sol\":2392:2738  person({... */\n      0xffffffffffffffffffffffffffffffffffffffff\n      and\n      dup2\n      mstore\n      0x20\n      add\n        /* \"auth.sol\":2668:2671  UID */\n      dup3\n        /* \"auth.sol\":2392:2738  person({... */\n      dup2\n      mstore\n      pop\n        /* \"auth.sol\":2377:2384  persons */\n      0x01\n        /* \"auth.sol\":2377:2389  persons[UID] */\n      0x00\n        /* \"auth.sol\":2385:2388  UID */\n      dup4\n        /* \"auth.sol\":2377:2389  persons[UID] */\n      dup2\n      mstore\n      0x20\n      add\n      swap1\n      dup2\n      mstore\n      0x20\n      add\n      0x00\n      keccak256\n        /* \"auth.sol\":2377:2738  persons[UID] = person({... */\n      0x00\n      dup3\n      add\n      mload\n      dup2\n      0x00\n      add\n      swap1\n      dup2\n      tag_150\n      swap2\n      swap1\n      tag_93\n      jump\t// in\n    tag_150:\n      pop\n      0x20\n      dup3\n      add\n      mload\n      dup2\n      0x01\n      add\n      swap1\n      dup2\n      tag_151\n      swap2\n      swap1\n      tag_93\n      jump\t// in\n    tag_151:\n      pop\n      0x40\n      dup3\n      add\n      mload\n      dup2\n      0x02\n      add\n      swap1\n      dup2\n      tag_152\n      swap2\n      swap1\n      tag_93\n      jump\t// in\n    tag_152:\n      pop\n      0x60\n      dup3\n      add\n      mload\n      dup2\n      0x03\n      add\n      swap1\n      dup2\n      tag_153\n      swap2\n      swap1\n      tag_93\n      jump\t// in\n    tag_153:\n      pop\n      0x80\n      dup3\n      add\n      mload\n      dup2\n      0x04\n      add\n      swap1\n      dup2\n      tag_154\n      swap2\n      swap1\n      tag_93\n      jump\t// in\n    tag_154:\n      pop\n      0xa0\n      dup3\n      add\n      mload\n      dup2\n      0x05\n      add\n      exp(0x0100, 0x00)\n      dup2\n      sload\n      dup2\n      0xff\n      mul\n      not\n      and\n      swap1\n      dup4\n      0xff\n      and\n      mul\n      or\n      swap1\n      sstore\n      pop\n      0xc0\n      dup3\n      add\n      mload\n      dup2\n      0x06\n      add\n      swap1\n      dup2\n      tag_155\n      swap2\n      swap1\n      tag_93\n      jump\t// in\n    tag_155:\n      pop\n      0xe0\n      dup3\n      add\n      mload\n      dup2\n      0x07\n      add\n      exp(0x0100, 0x00)\n      dup2\n      sload\n      dup2\n      0xffffffffffffffffffffffffffffffffffffffff\n      mul\n      not\n      and\n      swap1\n      dup4\n      0xffffffffffffffffffffffffffffffffffffffff\n      and\n      mul\n      or\n      swap1\n      sstore\n      pop\n      0x0100\n      dup3\n      add\n      mload\n      dup2\n      0x08\n      add\n      sstore\n      swap1\n      pop\n      pop\n        /* \"auth.sol\":1712:2749  if (accountType == 0)... */\n    tag_149:\n        /* \"auth.sol\":2763:2782  accountCreated(UID) */\n      0xa8c560616579705e004d37fd505597cd07d92d2604f0b9b435752fa9378e2655\n        /* \"auth.sol\":2778:2781  UID */\n      dup2\n        /* \"auth.sol\":2763:2782  accountCreated(UID) */\n      mload(0x40)\n      tag_156\n      swap2\n      swap1\n      tag_21\n      jump\t// in\n    tag_156:\n      mload(0x40)\n      dup1\n      swap2\n      sub\n      swap1\n      log1\n        /* \"auth.sol\":2799:2802  UID */\n      dup1\n        /* \"auth.sol\":2792:2802  return UID */\n      swap2\n      pop\n      pop\n        /* \"auth.sol\":915:2809  function createAccount(string memory fullName, string memory SSN, string memory homeAddress, string memory pass, uint8 accountType, string memory phone, address addr, string memory companyCode) public payable returns (bytes32)... */\n      swap9\n      swap8\n      pop\n      pop\n      pop\n      pop\n      pop\n      pop\n      pop\n      pop\n      jump\t// out\n        /* \"auth.sol\":5348:5527  function compare(string memory str1, string memory str2) private pure returns (bool) {... */\n    tag_90:\n        /* \"auth.sol\":5427:5431  bool */\n      0x00\n        /* \"auth.sol\":5514:5518  str2 */\n      dup2\n        /* \"auth.sol\":5497:5519  abi.encodePacked(str2) */\n      add(0x20, mload(0x40))\n      tag_158\n      swap2\n      swap1\n      tag_87\n      jump\t// in\n    tag_158:\n      mload(0x40)\n      0x20\n      dup2\n      dup4\n      sub\n      sub\n      dup2\n      mstore\n      swap1\n      0x40\n      mstore\n        /* \"auth.sol\":5487:5520  keccak256(abi.encodePacked(str2)) */\n      dup1\n      mload\n      swap1\n      0x20\n      add\n      keccak256\n        /* \"auth.sol\":5477:5481  str1 */\n      dup4\n        /* \"auth.sol\":5460:5482  abi.encodePacked(str1) */\n      add(0x20, mload(0x40))\n      tag_159\n      swap2\n      swap1\n      tag_87\n      jump\t// in\n    tag_159:\n      mload(0x40)\n      0x20\n      dup2\n      dup4\n      sub\n      sub\n      dup2\n      mstore\n      swap1\n      0x40\n      mstore\n        /* \"auth.sol\":5450:5483  keccak256(abi.encodePacked(str1)) */\n      dup1\n      mload\n      swap1\n      0x20\n      add\n      keccak256\n        /* \"auth.sol\":5450:5520  keccak256(abi.encodePacked(str1)) == keccak256(abi.encodePacked(str2)) */\n      eq\n        /* \"auth.sol\":5443:5520  return keccak256(abi.encodePacked(str1)) == keccak256(abi.encodePacked(str2)) */\n      swap1\n      pop\n        /* \"auth.sol\":5348:5527  function compare(string memory str1, string memory str2) private pure returns (bool) {... */\n      swap3\n      swap2\n      pop\n      pop\n      jump\t// out\n        /* \"auth.sol\":812:909  function isOwner() internal view... */\n    tag_99:\n        /* \"auth.sol\":876:886  msg.sender */\n      caller\n        /* \"auth.sol\":867:886  owner == msg.sender */\n      0xffffffffffffffffffffffffffffffffffffffff\n      and\n        /* \"auth.sol\":867:872  owner */\n      0x00\n      dup1\n      sload\n      swap1\n      0x0100\n      exp\n      swap1\n      div\n      0xffffffffffffffffffffffffffffffffffffffff\n      and\n        /* \"auth.sol\":867:886  owner == msg.sender */\n      0xffffffffffffffffffffffffffffffffffffffff\n      and\n      eq\n        /* \"auth.sol\":859:902  require(owner == msg.sender, \"Not allowed\") */\n      tag_161\n      jumpi\n      mload(0x40)\n      0x08c379a000000000000000000000000000000000000000000000000000000000\n      dup2\n      mstore\n      0x04\n      add\n      tag_162\n      swap1\n      tag_163\n      jump\t// in\n    tag_162:\n      mload(0x40)\n      dup1\n      swap2\n      sub\n      swap1\n      revert\n    tag_161:\n        /* \"auth.sol\":812:909  function isOwner() internal view... */\n      jump\t// out\n        /* \"OpenZeppelin.mod/Strings.sol\":447:1143  function toString(uint256 value) internal pure returns (string memory) {... */\n    tag_119:\n        /* \"OpenZeppelin.mod/Strings.sol\":503:516  string memory */\n      0x60\n        /* \"OpenZeppelin.mod/Strings.sol\":552:566  uint256 length */\n      0x00\n        /* \"OpenZeppelin.mod/Strings.sol\":589:590  1 */\n      0x01\n        /* \"OpenZeppelin.mod/Strings.sol\":569:586  Math.log10(value) */\n      tag_165\n        /* \"OpenZeppelin.mod/Strings.sol\":580:585  value */\n      dup5\n        /* \"OpenZeppelin.mod/Strings.sol\":569:579  Math.log10 */\n      tag_166\n        /* \"OpenZeppelin.mod/Strings.sol\":569:586  Math.log10(value) */\n      jump\t// in\n    tag_165:\n        /* \"OpenZeppelin.mod/Strings.sol\":569:590  Math.log10(value) + 1 */\n      add\n        /* \"OpenZeppelin.mod/Strings.sol\":552:590  uint256 length = Math.log10(value) + 1 */\n      swap1\n      pop\n        /* \"OpenZeppelin.mod/Strings.sol\":604:624  string memory buffer */\n      0x00\n        /* \"OpenZeppelin.mod/Strings.sol\":638:644  length */\n      dup2\n        /* \"OpenZeppelin.mod/Strings.sol\":627:645  new string(length) */\n      0xffffffffffffffff\n      dup2\n      gt\n      iszero\n      tag_167\n      jumpi\n      tag_168\n      tag_169\n      jump\t// in\n    tag_168:\n    tag_167:\n      mload(0x40)\n      swap1\n      dup1\n      dup3\n      mstore\n      dup1\n      0x1f\n      add\n      not(0x1f)\n      and\n      0x20\n      add\n      dup3\n      add\n      0x40\n      mstore\n      dup1\n      iszero\n      tag_170\n      jumpi\n      dup2\n      0x20\n      add\n      0x01\n      dup3\n      mul\n      dup1\n      calldatasize\n      dup4\n      calldatacopy\n      dup1\n      dup3\n      add\n      swap2\n      pop\n      pop\n      swap1\n      pop\n    tag_170:\n      pop\n        /* \"OpenZeppelin.mod/Strings.sol\":604:645  string memory buffer = new string(length) */\n      swap1\n      pop\n        /* \"OpenZeppelin.mod/Strings.sol\":659:670  uint256 ptr */\n      0x00\n        /* \"OpenZeppelin.mod/Strings.sol\":785:791  length */\n      dup3\n        /* \"OpenZeppelin.mod/Strings.sol\":781:783  32 */\n      0x20\n        /* \"OpenZeppelin.mod/Strings.sol\":777:792  add(32, length) */\n      add\n        /* \"OpenZeppelin.mod/Strings.sol\":769:775  buffer */\n      dup3\n        /* \"OpenZeppelin.mod/Strings.sol\":765:793  add(buffer, add(32, length)) */\n      add\n        /* \"OpenZeppelin.mod/Strings.sol\":758:793  ptr := add(buffer, add(32, length)) */\n      swap1\n      pop\n        /* \"OpenZeppelin.mod/Strings.sol\":820:1100  while (true) {... */\n    tag_171:\n        /* \"OpenZeppelin.mod/Strings.sol\":827:831  true */\n      0x01\n        /* \"OpenZeppelin.mod/Strings.sol\":820:1100  while (true) {... */\n      iszero\n      tag_172\n      jumpi\n        /* \"OpenZeppelin.mod/Strings.sol\":851:856  ptr-- */\n      dup1\n      dup1\n      0x01\n      swap1\n      sub\n      swap2\n      pop\n      pop\n        /* \"OpenZeppelin.mod/Strings.sol\":990:998  _SYMBOLS */\n      0x3031323334353637383961626364656600000000000000000000000000000000\n        /* \"OpenZeppelin.mod/Strings.sol\":985:987  10 */\n      0x0a\n        /* \"OpenZeppelin.mod/Strings.sol\":978:983  value */\n      dup7\n        /* \"OpenZeppelin.mod/Strings.sol\":974:988  mod(value, 10) */\n      mod\n        /* \"OpenZeppelin.mod/Strings.sol\":969:999  byte(mod(value, 10), _SYMBOLS) */\n      byte\n        /* \"OpenZeppelin.mod/Strings.sol\":964:967  ptr */\n      dup2\n        /* \"OpenZeppelin.mod/Strings.sol\":956:1000  mstore8(ptr, byte(mod(value, 10), _SYMBOLS)) */\n      mstore8\n        /* \"OpenZeppelin.mod/Strings.sol\":1044:1046  10 */\n      0x0a\n        /* \"OpenZeppelin.mod/Strings.sol\":1035:1046  value /= 10 */\n      dup6\n      dup2\n      tag_173\n      jumpi\n      tag_174\n      tag_175\n      jump\t// in\n    tag_174:\n    tag_173:\n      div\n      swap5\n      pop\n        /* \"OpenZeppelin.mod/Strings.sol\":1077:1078  0 */\n      0x00\n        /* \"OpenZeppelin.mod/Strings.sol\":1068:1073  value */\n      dup6\n        /* \"OpenZeppelin.mod/Strings.sol\":1068:1078  value == 0 */\n      sub\n        /* \"OpenZeppelin.mod/Strings.sol\":820:1100  while (true) {... */\n      tag_171\n        /* \"OpenZeppelin.mod/Strings.sol\":1064:1085  if (value == 0) break */\n      jumpi\n        /* \"OpenZeppelin.mod/Strings.sol\":820:1100  while (true) {... */\n    tag_172:\n        /* \"OpenZeppelin.mod/Strings.sol\":1120:1126  buffer */\n      dup2\n        /* \"OpenZeppelin.mod/Strings.sol\":1113:1126  return buffer */\n      swap4\n      pop\n      pop\n      pop\n      pop\n        /* \"OpenZeppelin.mod/Strings.sol\":447:1143  function toString(uint256 value) internal pure returns (string memory) {... */\n      swap2\n      swap1\n      pop\n      jump\t// out\n        /* \"OpenZeppelin.mod/math/Math.sol\":9889:10779  function log10(uint256 value) internal pure returns (uint256) {... */\n    tag_166:\n        /* \"OpenZeppelin.mod/math/Math.sol\":9942:9949  uint256 */\n      0x00\n        /* \"OpenZeppelin.mod/math/Math.sol\":9961:9975  uint256 result */\n      dup1\n        /* \"OpenZeppelin.mod/math/Math.sol\":9978:9979  0 */\n      0x00\n        /* \"OpenZeppelin.mod/math/Math.sol\":9961:9979  uint256 result = 0 */\n      swap1\n      pop\n        /* \"OpenZeppelin.mod/math/Math.sol\":10026:10032  10**64 */\n      0x184f03e93ff9f4daa797ed6e38ed64bf6a1f010000000000000000\n        /* \"OpenZeppelin.mod/math/Math.sol\":10017:10022  value */\n      dup4\n        /* \"OpenZeppelin.mod/math/Math.sol\":10017:10032  value >= 10**64 */\n      lt\n        /* \"OpenZeppelin.mod/math/Math.sol\":10013:10112  if (value >= 10**64) {... */\n      tag_178\n      jumpi\n        /* \"OpenZeppelin.mod/math/Math.sol\":10061:10067  10**64 */\n      0x184f03e93ff9f4daa797ed6e38ed64bf6a1f010000000000000000\n        /* \"OpenZeppelin.mod/math/Math.sol\":10052:10067  value /= 10**64 */\n      dup4\n      dup2\n      tag_179\n      jumpi\n      tag_180\n      tag_175\n      jump\t// in\n    tag_180:\n    tag_179:\n      div\n      swap3\n      pop\n        /* \"OpenZeppelin.mod/math/Math.sol\":10095:10097  64 */\n      0x40\n        /* \"OpenZeppelin.mod/math/Math.sol\":10085:10097  result += 64 */\n      dup2\n      add\n      swap1\n      pop\n        /* \"OpenZeppelin.mod/math/Math.sol\":10013:10112  if (value >= 10**64) {... */\n    tag_178:\n        /* \"OpenZeppelin.mod/math/Math.sol\":10138:10144  10**32 */\n      0x04ee2d6d415b85acef8100000000\n        /* \"OpenZeppelin.mod/math/Math.sol\":10129:10134  value */\n      dup4\n        /* \"OpenZeppelin.mod/math/Math.sol\":10129:10144  value >= 10**32 */\n      lt\n        /* \"OpenZeppelin.mod/math/Math.sol\":10125:10224  if (value >= 10**32) {... */\n      tag_181\n      jumpi\n        /* \"OpenZeppelin.mod/math/Math.sol\":10173:10179  10**32 */\n      0x04ee2d6d415b85acef8100000000\n        /* \"OpenZeppelin.mod/math/Math.sol\":10164:10179  value /= 10**32 */\n      dup4\n      dup2\n      tag_182\n      jumpi\n      tag_183\n      tag_175\n      jump\t// in\n    tag_183:\n    tag_182:\n      div\n      swap3\n      pop\n        /* \"OpenZeppelin.mod/math/Math.sol\":10207:10209  32 */\n      0x20\n        /* \"OpenZeppelin.mod/math/Math.sol\":10197:10209  result += 32 */\n      dup2\n      add\n      swap1\n      pop\n        /* \"OpenZeppelin.mod/math/Math.sol\":10125:10224  if (value >= 10**32) {... */\n    tag_181:\n        /* \"OpenZeppelin.mod/math/Math.sol\":10250:10256  10**16 */\n      0x2386f26fc10000\n        /* \"OpenZeppelin.mod/math/Math.sol\":10241:10246  value */\n      dup4\n        /* \"OpenZeppelin.mod/math/Math.sol\":10241:10256  value >= 10**16 */\n      lt\n        /* \"OpenZeppelin.mod/math/Math.sol\":10237:10336  if (value >= 10**16) {... */\n      tag_184\n      jumpi\n        /* \"OpenZeppelin.mod/math/Math.sol\":10285:10291  10**16 */\n      0x2386f26fc10000\n        /* \"OpenZeppelin.mod/math/Math.sol\":10276:10291  value /= 10**16 */\n      dup4\n      dup2\n      tag_185\n      jumpi\n      tag_186\n      tag_175\n      jump\t// in\n    tag_186:\n    tag_185:\n      div\n      swap3\n      pop\n        /* \"OpenZeppelin.mod/math/Math.sol\":10319:10321  16 */\n      0x10\n        /* \"OpenZeppelin.mod/math/Math.sol\":10309:10321  result += 16 */\n      dup2\n      add\n      swap1\n      pop\n        /* \"OpenZeppelin.mod/math/Math.sol\":10237:10336  if (value >= 10**16) {... */\n    tag_184:\n        /* \"OpenZeppelin.mod/math/Math.sol\":10362:10367  10**8 */\n      0x05f5e100\n        /* \"OpenZeppelin.mod/math/Math.sol\":10353:10358  value */\n      dup4\n        /* \"OpenZeppelin.mod/math/Math.sol\":10353:10367  value >= 10**8 */\n      lt\n        /* \"OpenZeppelin.mod/math/Math.sol\":10349:10445  if (value >= 10**8) {... */\n      tag_187\n      jumpi\n        /* \"OpenZeppelin.mod/math/Math.sol\":10396:10401  10**8 */\n      0x05f5e100\n        /* \"OpenZeppelin.mod/math/Math.sol\":10387:10401  value /= 10**8 */\n      dup4\n      dup2\n      tag_188\n      jumpi\n      tag_189\n      tag_175\n      jump\t// in\n    tag_189:\n    tag_188:\n      div\n      swap3\n      pop\n        /* \"OpenZeppelin.mod/math/Math.sol\":10429:10430  8 */\n      0x08\n        /* \"OpenZeppelin.mod/math/Math.sol\":10419:10430  result += 8 */\n      dup2\n      add\n      swap1\n      pop\n        /* \"OpenZeppelin.mod/math/Math.sol\":10349:10445  if (value >= 10**8) {... */\n    tag_187:\n        /* \"OpenZeppelin.mod/math/Math.sol\":10471:10476  10**4 */\n      0x2710\n        /* \"OpenZeppelin.mod/math/Math.sol\":10462:10467  value */\n      dup4\n        /* \"OpenZeppelin.mod/math/Math.sol\":10462:10476  value >= 10**4 */\n      lt\n        /* \"OpenZeppelin.mod/math/Math.sol\":10458:10554  if (value >= 10**4) {... */\n      tag_190\n      jumpi\n        /* \"OpenZeppelin.mod/math/Math.sol\":10505:10510  10**4 */\n      0x2710\n        /* \"OpenZeppelin.mod/math/Math.sol\":10496:10510  value /= 10**4 */\n      dup4\n      dup2\n      tag_191\n      jumpi\n      tag_192\n      tag_175\n      jump\t// in\n    tag_192:\n    tag_191:\n      div\n      swap3\n      pop\n        /* \"OpenZeppelin.mod/math/Math.sol\":10538:10539  4 */\n      0x04\n        /* \"OpenZeppelin.mod/math/Math.sol\":10528:10539  result += 4 */\n      dup2\n      add\n      swap1\n      pop\n        /* \"OpenZeppelin.mod/math/Math.sol\":10458:10554  if (value >= 10**4) {... */\n    tag_190:\n        /* \"OpenZeppelin.mod/math/Math.sol\":10580:10585  10**2 */\n      0x64\n        /* \"OpenZeppelin.mod/math/Math.sol\":10571:10576  value */\n      dup4\n        /* \"OpenZeppelin.mod/math/Math.sol\":10571:10585  value >= 10**2 */\n      lt\n        /* \"OpenZeppelin.mod/math/Math.sol\":10567:10663  if (value >= 10**2) {... */\n      tag_193\n      jumpi\n        /* \"OpenZeppelin.mod/math/Math.sol\":10614:10619  10**2 */\n      0x64\n        /* \"OpenZeppelin.mod/math/Math.sol\":10605:10619  value /= 10**2 */\n      dup4\n      dup2\n      tag_194\n      jumpi\n      tag_195\n      tag_175\n      jump\t// in\n    tag_195:\n    tag_194:\n      div\n      swap3\n      pop\n        /* \"OpenZeppelin.mod/math/Math.sol\":10647:10648  2 */\n      0x02\n        /* \"OpenZeppelin.mod/math/Math.sol\":10637:10648  result += 2 */\n      dup2\n      add\n      swap1\n      pop\n        /* \"OpenZeppelin.mod/math/Math.sol\":10567:10663  if (value >= 10**2) {... */\n    tag_193:\n        /* \"OpenZeppelin.mod/math/Math.sol\":10689:10694  10**1 */\n      0x0a\n        /* \"OpenZeppelin.mod/math/Math.sol\":10680:10685  value */\n      dup4\n        /* \"OpenZeppelin.mod/math/Math.sol\":10680:10694  value >= 10**1 */\n      lt\n        /* \"OpenZeppelin.mod/math/Math.sol\":10676:10740  if (value >= 10**1) {... */\n      tag_196\n      jumpi\n        /* \"OpenZeppelin.mod/math/Math.sol\":10724:10725  1 */\n      0x01\n        /* \"OpenZeppelin.mod/math/Math.sol\":10714:10725  result += 1 */\n      dup2\n      add\n      swap1\n      pop\n        /* \"OpenZeppelin.mod/math/Math.sol\":10676:10740  if (value >= 10**1) {... */\n    tag_196:\n        /* \"OpenZeppelin.mod/math/Math.sol\":10766:10772  result */\n      dup1\n        /* \"OpenZeppelin.mod/math/Math.sol\":10759:10772  return result */\n      swap2\n      pop\n      pop\n        /* \"OpenZeppelin.mod/math/Math.sol\":9889:10779  function log10(uint256 value) internal pure returns (uint256) {... */\n      swap2\n      swap1\n      pop\n      jump\t// out\n    tag_23:\n      mload(0x40)\n      dup1\n      0x0120\n      add\n      0x40\n      mstore\n      dup1\n      0x60\n      dup2\n      mstore\n      0x20\n      add\n      0x60\n      dup2\n      mstore\n      0x20\n      add\n      0x60\n      dup2\n      mstore\n      0x20\n      add\n      0x60\n      dup2\n      mstore\n      0x20\n      add\n      0x60\n      dup2\n      mstore\n      0x20\n      add\n      and(0xff, 0x00)\n      dup2\n      mstore\n      0x20\n      add\n      0x60\n      dup2\n      mstore\n      0x20\n      add\n      and(0xffffffffffffffffffffffffffffffffffffffff, 0x00)\n      dup2\n      mstore\n      0x20\n      add\n      0x00\n      dup1\n      not\n      and\n      dup2\n      mstore\n      pop\n      swap1\n      jump\t// out\n        /* \"#utility.yul\":7:82   */\n    tag_197:\n        /* \"#utility.yul\":40:46   */\n      0x00\n        /* \"#utility.yul\":73:75   */\n      0x40\n        /* \"#utility.yul\":67:76   */\n      mload\n        /* \"#utility.yul\":57:76   */\n      swap1\n      pop\n        /* \"#utility.yul\":7:82   */\n      swap1\n      jump\t// out\n        /* \"#utility.yul\":88:205   */\n    tag_198:\n        /* \"#utility.yul\":197:198   */\n      0x00\n        /* \"#utility.yul\":194:195   */\n      dup1\n        /* \"#utility.yul\":187:199   */\n      revert\n        /* \"#utility.yul\":211:328   */\n    tag_199:\n        /* \"#utility.yul\":320:321   */\n      0x00\n        /* \"#utility.yul\":317:318   */\n      dup1\n        /* \"#utility.yul\":310:322   */\n      revert\n        /* \"#utility.yul\":334:411   */\n    tag_200:\n        /* \"#utility.yul\":371:378   */\n      0x00\n        /* \"#utility.yul\":400:405   */\n      dup2\n        /* \"#utility.yul\":389:405   */\n      swap1\n      pop\n        /* \"#utility.yul\":334:411   */\n      swap2\n      swap1\n      pop\n      jump\t// out\n        /* \"#utility.yul\":417:539   */\n    tag_201:\n        /* \"#utility.yul\":490:514   */\n      tag_278\n        /* \"#utility.yul\":508:513   */\n      dup2\n        /* \"#utility.yul\":490:514   */\n      tag_200\n      jump\t// in\n    tag_278:\n        /* \"#utility.yul\":483:488   */\n      dup2\n        /* \"#utility.yul\":480:515   */\n      eq\n        /* \"#utility.yul\":470:533   */\n      tag_279\n      jumpi\n        /* \"#utility.yul\":529:530   */\n      0x00\n        /* \"#utility.yul\":526:527   */\n      dup1\n        /* \"#utility.yul\":519:531   */\n      revert\n        /* \"#utility.yul\":470:533   */\n    tag_279:\n        /* \"#utility.yul\":417:539   */\n      pop\n      jump\t// out\n        /* \"#utility.yul\":545:684   */\n    tag_202:\n        /* \"#utility.yul\":591:596   */\n      0x00\n        /* \"#utility.yul\":629:635   */\n      dup2\n        /* \"#utility.yul\":616:636   */\n      calldataload\n        /* \"#utility.yul\":607:636   */\n      swap1\n      pop\n        /* \"#utility.yul\":645:678   */\n      tag_281\n        /* \"#utility.yul\":672:677   */\n      dup2\n        /* \"#utility.yul\":645:678   */\n      tag_201\n      jump\t// in\n    tag_281:\n        /* \"#utility.yul\":545:684   */\n      swap3\n      swap2\n      pop\n      pop\n      jump\t// out\n        /* \"#utility.yul\":690:807   */\n    tag_203:\n        /* \"#utility.yul\":799:800   */\n      0x00\n        /* \"#utility.yul\":796:797   */\n      dup1\n        /* \"#utility.yul\":789:801   */\n      revert\n        /* \"#utility.yul\":813:930   */\n    tag_204:\n        /* \"#utility.yul\":922:923   */\n      0x00\n        /* \"#utility.yul\":919:920   */\n      dup1\n        /* \"#utility.yul\":912:924   */\n      revert\n        /* \"#utility.yul\":936:1038   */\n    tag_205:\n        /* \"#utility.yul\":977:983   */\n      0x00\n        /* \"#utility.yul\":1028:1030   */\n      0x1f\n        /* \"#utility.yul\":1024:1031   */\n      not\n        /* \"#utility.yul\":1019:1021   */\n      0x1f\n        /* \"#utility.yul\":1012:1017   */\n      dup4\n        /* \"#utility.yul\":1008:1022   */\n      add\n        /* \"#utility.yul\":1004:1032   */\n      and\n        /* \"#utility.yul\":994:1032   */\n      swap1\n      pop\n        /* \"#utility.yul\":936:1038   */\n      swap2\n      swap1\n      pop\n      jump\t// out\n        /* \"#utility.yul\":1044:1224   */\n    tag_169:\n        /* \"#utility.yul\":1092:1169   */\n      0x4e487b7100000000000000000000000000000000000000000000000000000000\n        /* \"#utility.yul\":1089:1090   */\n      0x00\n        /* \"#utility.yul\":1082:1170   */\n      mstore\n        /* \"#utility.yul\":1189:1193   */\n      0x41\n        /* \"#utility.yul\":1186:1187   */\n      0x04\n        /* \"#utility.yul\":1179:1194   */\n      mstore\n        /* \"#utility.yul\":1213:1217   */\n      0x24\n        /* \"#utility.yul\":1210:1211   */\n      0x00\n        /* \"#utility.yul\":1203:1218   */\n      revert\n        /* \"#utility.yul\":1230:1511   */\n    tag_206:\n        /* \"#utility.yul\":1313:1340   */\n      tag_287\n        /* \"#utility.yul\":1335:1339   */\n      dup3\n        /* \"#utility.yul\":1313:1340   */\n      tag_205\n      jump\t// in\n    tag_287:\n        /* \"#utility.yul\":1305:1311   */\n      dup2\n        /* \"#utility.yul\":1301:1341   */\n      add\n        /* \"#utility.yul\":1443:1449   */\n      dup2\n        /* \"#utility.yul\":1431:1441   */\n      dup2\n        /* \"#utility.yul\":1428:1450   */\n      lt\n        /* \"#utility.yul\":1407:1425   */\n      0xffffffffffffffff\n        /* \"#utility.yul\":1395:1405   */\n      dup3\n        /* \"#utility.yul\":1392:1426   */\n      gt\n        /* \"#utility.yul\":1389:1451   */\n      or\n        /* \"#utility.yul\":1386:1474   */\n      iszero\n      tag_288\n      jumpi\n        /* \"#utility.yul\":1454:1472   */\n      tag_289\n      tag_169\n      jump\t// in\n    tag_289:\n        /* \"#utility.yul\":1386:1474   */\n    tag_288:\n        /* \"#utility.yul\":1494:1504   */\n      dup1\n        /* \"#utility.yul\":1490:1492   */\n      0x40\n        /* \"#utility.yul\":1483:1505   */\n      mstore\n        /* \"#utility.yul\":1273:1511   */\n      pop\n        /* \"#utility.yul\":1230:1511   */\n      pop\n      pop\n      jump\t// out\n        /* \"#utility.yul\":1517:1646   */\n    tag_207:\n        /* \"#utility.yul\":1551:1557   */\n      0x00\n        /* \"#utility.yul\":1578:1598   */\n      tag_291\n      tag_197\n      jump\t// in\n    tag_291:\n        /* \"#utility.yul\":1568:1598   */\n      swap1\n      pop\n        /* \"#utility.yul\":1607:1640   */\n      tag_292\n        /* \"#utility.yul\":1635:1639   */\n      dup3\n        /* \"#utility.yul\":1627:1633   */\n      dup3\n        /* \"#utility.yul\":1607:1640   */\n      tag_206\n      jump\t// in\n    tag_292:\n        /* \"#utility.yul\":1517:1646   */\n      swap2\n      swap1\n      pop\n      jump\t// out\n        /* \"#utility.yul\":1652:1960   */\n    tag_208:\n        /* \"#utility.yul\":1714:1718   */\n      0x00\n        /* \"#utility.yul\":1804:1822   */\n      0xffffffffffffffff\n        /* \"#utility.yul\":1796:1802   */\n      dup3\n        /* \"#utility.yul\":1793:1823   */\n      gt\n        /* \"#utility.yul\":1790:1846   */\n      iszero\n      tag_294\n      jumpi\n        /* \"#utility.yul\":1826:1844   */\n      tag_295\n      tag_169\n      jump\t// in\n    tag_295:\n        /* \"#utility.yul\":1790:1846   */\n    tag_294:\n        /* \"#utility.yul\":1864:1893   */\n      tag_296\n        /* \"#utility.yul\":1886:1892   */\n      dup3\n        /* \"#utility.yul\":1864:1893   */\n      tag_205\n      jump\t// in\n    tag_296:\n        /* \"#utility.yul\":1856:1893   */\n      swap1\n      pop\n        /* \"#utility.yul\":1948:1952   */\n      0x20\n        /* \"#utility.yul\":1942:1946   */\n      dup2\n        /* \"#utility.yul\":1938:1953   */\n      add\n        /* \"#utility.yul\":1930:1953   */\n      swap1\n      pop\n        /* \"#utility.yul\":1652:1960   */\n      swap2\n      swap1\n      pop\n      jump\t// out\n        /* \"#utility.yul\":1966:2112   */\n    tag_209:\n        /* \"#utility.yul\":2063:2069   */\n      dup3\n        /* \"#utility.yul\":2058:2061   */\n      dup2\n        /* \"#utility.yul\":2053:2056   */\n      dup4\n        /* \"#utility.yul\":2040:2070   */\n      calldatacopy\n        /* \"#utility.yul\":2104:2105   */\n      0x00\n        /* \"#utility.yul\":2095:2101   */\n      dup4\n        /* \"#utility.yul\":2090:2093   */\n      dup4\n        /* \"#utility.yul\":2086:2102   */\n      add\n        /* \"#utility.yul\":2079:2106   */\n      mstore\n        /* \"#utility.yul\":1966:2112   */\n      pop\n      pop\n      pop\n      jump\t// out\n        /* \"#utility.yul\":2118:2543   */\n    tag_210:\n        /* \"#utility.yul\":2196:2201   */\n      0x00\n        /* \"#utility.yul\":2221:2287   */\n      tag_299\n        /* \"#utility.yul\":2237:2286   */\n      tag_300\n        /* \"#utility.yul\":2279:2285   */\n      dup5\n        /* \"#utility.yul\":2237:2286   */\n      tag_208\n      jump\t// in\n    tag_300:\n        /* \"#utility.yul\":2221:2287   */\n      tag_207\n      jump\t// in\n    tag_299:\n        /* \"#utility.yul\":2212:2287   */\n      swap1\n      pop\n        /* \"#utility.yul\":2310:2316   */\n      dup3\n        /* \"#utility.yul\":2303:2308   */\n      dup2\n        /* \"#utility.yul\":2296:2317   */\n      mstore\n        /* \"#utility.yul\":2348:2352   */\n      0x20\n        /* \"#utility.yul\":2341:2346   */\n      dup2\n        /* \"#utility.yul\":2337:2353   */\n      add\n        /* \"#utility.yul\":2386:2389   */\n      dup5\n        /* \"#utility.yul\":2377:2383   */\n      dup5\n        /* \"#utility.yul\":2372:2375   */\n      dup5\n        /* \"#utility.yul\":2368:2384   */\n      add\n        /* \"#utility.yul\":2365:2390   */\n      gt\n        /* \"#utility.yul\":2362:2474   */\n      iszero\n      tag_301\n      jumpi\n        /* \"#utility.yul\":2393:2472   */\n      tag_302\n      tag_204\n      jump\t// in\n    tag_302:\n        /* \"#utility.yul\":2362:2474   */\n    tag_301:\n        /* \"#utility.yul\":2483:2537   */\n      tag_303\n        /* \"#utility.yul\":2530:2536   */\n      dup5\n        /* \"#utility.yul\":2525:2528   */\n      dup3\n        /* \"#utility.yul\":2520:2523   */\n      dup6\n        /* \"#utility.yul\":2483:2537   */\n      tag_209\n      jump\t// in\n    tag_303:\n        /* \"#utility.yul\":2202:2543   */\n      pop\n        /* \"#utility.yul\":2118:2543   */\n      swap4\n      swap3\n      pop\n      pop\n      pop\n      jump\t// out\n        /* \"#utility.yul\":2563:2903   */\n    tag_211:\n        /* \"#utility.yul\":2619:2624   */\n      0x00\n        /* \"#utility.yul\":2668:2671   */\n      dup3\n        /* \"#utility.yul\":2661:2665   */\n      0x1f\n        /* \"#utility.yul\":2653:2659   */\n      dup4\n        /* \"#utility.yul\":2649:2666   */\n      add\n        /* \"#utility.yul\":2645:2672   */\n      slt\n        /* \"#utility.yul\":2635:2757   */\n      tag_305\n      jumpi\n        /* \"#utility.yul\":2676:2755   */\n      tag_306\n      tag_203\n      jump\t// in\n    tag_306:\n        /* \"#utility.yul\":2635:2757   */\n    tag_305:\n        /* \"#utility.yul\":2793:2799   */\n      dup2\n        /* \"#utility.yul\":2780:2800   */\n      calldataload\n        /* \"#utility.yul\":2818:2897   */\n      tag_307\n        /* \"#utility.yul\":2893:2896   */\n      dup5\n        /* \"#utility.yul\":2885:2891   */\n      dup3\n        /* \"#utility.yul\":2878:2882   */\n      0x20\n        /* \"#utility.yul\":2870:2876   */\n      dup7\n        /* \"#utility.yul\":2866:2883   */\n      add\n        /* \"#utility.yul\":2818:2897   */\n      tag_210\n      jump\t// in\n    tag_307:\n        /* \"#utility.yul\":2809:2897   */\n      swap2\n      pop\n        /* \"#utility.yul\":2625:2903   */\n      pop\n        /* \"#utility.yul\":2563:2903   */\n      swap3\n      swap2\n      pop\n      pop\n      jump\t// out\n        /* \"#utility.yul\":2909:3563   */\n    tag_8:\n        /* \"#utility.yul\":2987:2993   */\n      0x00\n        /* \"#utility.yul\":2995:3001   */\n      dup1\n        /* \"#utility.yul\":3044:3046   */\n      0x40\n        /* \"#utility.yul\":3032:3041   */\n      dup4\n        /* \"#utility.yul\":3023:3030   */\n      dup6\n        /* \"#utility.yul\":3019:3042   */\n      sub\n        /* \"#utility.yul\":3015:3047   */\n      slt\n        /* \"#utility.yul\":3012:3131   */\n      iszero\n      tag_309\n      jumpi\n        /* \"#utility.yul\":3050:3129   */\n      tag_310\n      tag_198\n      jump\t// in\n    tag_310:\n        /* \"#utility.yul\":3012:3131   */\n    tag_309:\n        /* \"#utility.yul\":3170:3171   */\n      0x00\n        /* \"#utility.yul\":3195:3248   */\n      tag_311\n        /* \"#utility.yul\":3240:3247   */\n      dup6\n        /* \"#utility.yul\":3231:3237   */\n      dup3\n        /* \"#utility.yul\":3220:3229   */\n      dup7\n        /* \"#utility.yul\":3216:3238   */\n      add\n        /* \"#utility.yul\":3195:3248   */\n      tag_202\n      jump\t// in\n    tag_311:\n        /* \"#utility.yul\":3185:3248   */\n      swap3\n      pop\n        /* \"#utility.yul\":3141:3258   */\n      pop\n        /* \"#utility.yul\":3325:3327   */\n      0x20\n        /* \"#utility.yul\":3314:3323   */\n      dup4\n        /* \"#utility.yul\":3310:3328   */\n      add\n        /* \"#utility.yul\":3297:3329   */\n      calldataload\n        /* \"#utility.yul\":3356:3374   */\n      0xffffffffffffffff\n        /* \"#utility.yul\":3348:3354   */\n      dup2\n        /* \"#utility.yul\":3345:3375   */\n      gt\n        /* \"#utility.yul\":3342:3459   */\n      iszero\n      tag_312\n      jumpi\n        /* \"#utility.yul\":3378:3457   */\n      tag_313\n      tag_199\n      jump\t// in\n    tag_313:\n        /* \"#utility.yul\":3342:3459   */\n    tag_312:\n        /* \"#utility.yul\":3483:3546   */\n      tag_314\n        /* \"#utility.yul\":3538:3545   */\n      dup6\n        /* \"#utility.yul\":3529:3535   */\n      dup3\n        /* \"#utility.yul\":3518:3527   */\n      dup7\n        /* \"#utility.yul\":3514:3536   */\n      add\n        /* \"#utility.yul\":3483:3546   */\n      tag_211\n      jump\t// in\n    tag_314:\n        /* \"#utility.yul\":3473:3546   */\n      swap2\n      pop\n        /* \"#utility.yul\":3268:3556   */\n      pop\n        /* \"#utility.yul\":2909:3563   */\n      swap3\n      pop\n      swap3\n      swap1\n      pop\n      jump\t// out\n        /* \"#utility.yul\":3569:3668   */\n    tag_212:\n        /* \"#utility.yul\":3621:3627   */\n      0x00\n        /* \"#utility.yul\":3655:3660   */\n      dup2\n        /* \"#utility.yul\":3649:3661   */\n      mload\n        /* \"#utility.yul\":3639:3661   */\n      swap1\n      pop\n        /* \"#utility.yul\":3569:3668   */\n      swap2\n      swap1\n      pop\n      jump\t// out\n        /* \"#utility.yul\":3674:3833   */\n    tag_213:\n        /* \"#utility.yul\":3748:3759   */\n      0x00\n        /* \"#utility.yul\":3782:3788   */\n      dup3\n        /* \"#utility.yul\":3777:3780   */\n      dup3\n        /* \"#utility.yul\":3770:3789   */\n      mstore\n        /* \"#utility.yul\":3822:3826   */\n      0x20\n        /* \"#utility.yul\":3817:3820   */\n      dup3\n        /* \"#utility.yul\":3813:3827   */\n      add\n        /* \"#utility.yul\":3798:3827   */\n      swap1\n      pop\n        /* \"#utility.yul\":3674:3833   */\n      swap3\n      swap2\n      pop\n      pop\n      jump\t// out\n        /* \"#utility.yul\":3839:4085   */\n    tag_214:\n        /* \"#utility.yul\":3920:3921   */\n      0x00\n        /* \"#utility.yul\":3930:4043   */\n    tag_318:\n        /* \"#utility.yul\":3944:3950   */\n      dup4\n        /* \"#utility.yul\":3941:3942   */\n      dup2\n        /* \"#utility.yul\":3938:3951   */\n      lt\n        /* \"#utility.yul\":3930:4043   */\n      iszero\n      tag_320\n      jumpi\n        /* \"#utility.yul\":4029:4030   */\n      dup1\n        /* \"#utility.yul\":4024:4027   */\n      dup3\n        /* \"#utility.yul\":4020:4031   */\n      add\n        /* \"#utility.yul\":4014:4032   */\n      mload\n        /* \"#utility.yul\":4010:4011   */\n      dup2\n        /* \"#utility.yul\":4005:4008   */\n      dup5\n        /* \"#utility.yul\":4001:4012   */\n      add\n        /* \"#utility.yul\":3994:4033   */\n      mstore\n        /* \"#utility.yul\":3966:3968   */\n      0x20\n        /* \"#utility.yul\":3963:3964   */\n      dup2\n        /* \"#utility.yul\":3959:3969   */\n      add\n        /* \"#utility.yul\":3954:3969   */\n      swap1\n      pop\n        /* \"#utility.yul\":3930:4043   */\n      jump(tag_318)\n    tag_320:\n        /* \"#utility.yul\":4077:4078   */\n      0x00\n        /* \"#utility.yul\":4068:4074   */\n      dup5\n        /* \"#utility.yul\":4063:4066   */\n      dup5\n        /* \"#utility.yul\":4059:4075   */\n      add\n        /* \"#utility.yul\":4052:4079   */\n      mstore\n        /* \"#utility.yul\":3901:4085   */\n      pop\n        /* \"#utility.yul\":3839:4085   */\n      pop\n      pop\n      pop\n      jump\t// out\n        /* \"#utility.yul\":4091:4448   */\n    tag_215:\n        /* \"#utility.yul\":4169:4172   */\n      0x00\n        /* \"#utility.yul\":4197:4236   */\n      tag_322\n        /* \"#utility.yul\":4230:4235   */\n      dup3\n        /* \"#utility.yul\":4197:4236   */\n      tag_212\n      jump\t// in\n    tag_322:\n        /* \"#utility.yul\":4252:4313   */\n      tag_323\n        /* \"#utility.yul\":4306:4312   */\n      dup2\n        /* \"#utility.yul\":4301:4304   */\n      dup6\n        /* \"#utility.yul\":4252:4313   */\n      tag_213\n      jump\t// in\n    tag_323:\n        /* \"#utility.yul\":4245:4313   */\n      swap4\n      pop\n        /* \"#utility.yul\":4322:4387   */\n      tag_324\n        /* \"#utility.yul\":4380:4386   */\n      dup2\n        /* \"#utility.yul\":4375:4378   */\n      dup6\n        /* \"#utility.yul\":4368:4372   */\n      0x20\n        /* \"#utility.yul\":4361:4366   */\n      dup7\n        /* \"#utility.yul\":4357:4373   */\n      add\n        /* \"#utility.yul\":4322:4387   */\n      tag_214\n      jump\t// in\n    tag_324:\n        /* \"#utility.yul\":4412:4441   */\n      tag_325\n        /* \"#utility.yul\":4434:4440   */\n      dup2\n        /* \"#utility.yul\":4412:4441   */\n      tag_205\n      jump\t// in\n    tag_325:\n        /* \"#utility.yul\":4407:4410   */\n      dup5\n        /* \"#utility.yul\":4403:4442   */\n      add\n        /* \"#utility.yul\":4396:4442   */\n      swap2\n      pop\n        /* \"#utility.yul\":4173:4448   */\n      pop\n        /* \"#utility.yul\":4091:4448   */\n      swap3\n      swap2\n      pop\n      pop\n      jump\t// out\n        /* \"#utility.yul\":4454:4540   */\n    tag_216:\n        /* \"#utility.yul\":4489:4496   */\n      0x00\n        /* \"#utility.yul\":4529:4533   */\n      0xff\n        /* \"#utility.yul\":4522:4527   */\n      dup3\n        /* \"#utility.yul\":4518:4534   */\n      and\n        /* \"#utility.yul\":4507:4534   */\n      swap1\n      pop\n        /* \"#utility.yul\":4454:4540   */\n      swap2\n      swap1\n      pop\n      jump\t// out\n        /* \"#utility.yul\":4546:4648   */\n    tag_217:\n        /* \"#utility.yul\":4619:4641   */\n      tag_328\n        /* \"#utility.yul\":4635:4640   */\n      dup2\n        /* \"#utility.yul\":4619:4641   */\n      tag_216\n      jump\t// in\n    tag_328:\n        /* \"#utility.yul\":4614:4617   */\n      dup3\n        /* \"#utility.yul\":4607:4642   */\n      mstore\n        /* \"#utility.yul\":4546:4648   */\n      pop\n      pop\n      jump\t// out\n        /* \"#utility.yul\":4654:4780   */\n    tag_218:\n        /* \"#utility.yul\":4691:4698   */\n      0x00\n        /* \"#utility.yul\":4731:4773   */\n      0xffffffffffffffffffffffffffffffffffffffff\n        /* \"#utility.yul\":4724:4729   */\n      dup3\n        /* \"#utility.yul\":4720:4774   */\n      and\n        /* \"#utility.yul\":4709:4774   */\n      swap1\n      pop\n        /* \"#utility.yul\":4654:4780   */\n      swap2\n      swap1\n      pop\n      jump\t// out\n        /* \"#utility.yul\":4786:4882   */\n    tag_219:\n        /* \"#utility.yul\":4823:4830   */\n      0x00\n        /* \"#utility.yul\":4852:4876   */\n      tag_331\n        /* \"#utility.yul\":4870:4875   */\n      dup3\n        /* \"#utility.yul\":4852:4876   */\n      tag_218\n      jump\t// in\n    tag_331:\n        /* \"#utility.yul\":4841:4876   */\n      swap1\n      pop\n        /* \"#utility.yul\":4786:4882   */\n      swap2\n      swap1\n      pop\n      jump\t// out\n        /* \"#utility.yul\":4888:4996   */\n    tag_220:\n        /* \"#utility.yul\":4965:4989   */\n      tag_333\n        /* \"#utility.yul\":4983:4988   */\n      dup2\n        /* \"#utility.yul\":4965:4989   */\n      tag_219\n      jump\t// in\n    tag_333:\n        /* \"#utility.yul\":4960:4963   */\n      dup3\n        /* \"#utility.yul\":4953:4990   */\n      mstore\n        /* \"#utility.yul\":4888:4996   */\n      pop\n      pop\n      jump\t// out\n        /* \"#utility.yul\":5002:5110   */\n    tag_221:\n        /* \"#utility.yul\":5079:5103   */\n      tag_335\n        /* \"#utility.yul\":5097:5102   */\n      dup2\n        /* \"#utility.yul\":5079:5103   */\n      tag_200\n      jump\t// in\n    tag_335:\n        /* \"#utility.yul\":5074:5077   */\n      dup3\n        /* \"#utility.yul\":5067:5104   */\n      mstore\n        /* \"#utility.yul\":5002:5110   */\n      pop\n      pop\n      jump\t// out\n        /* \"#utility.yul\":5164:7375   */\n    tag_222:\n        /* \"#utility.yul\":5281:5284   */\n      0x00\n        /* \"#utility.yul\":5317:5323   */\n      0x0120\n        /* \"#utility.yul\":5312:5315   */\n      dup4\n        /* \"#utility.yul\":5308:5324   */\n      add\n        /* \"#utility.yul\":5410:5414   */\n      0x00\n        /* \"#utility.yul\":5403:5408   */\n      dup4\n        /* \"#utility.yul\":5399:5415   */\n      add\n        /* \"#utility.yul\":5393:5416   */\n      mload\n        /* \"#utility.yul\":5463:5466   */\n      dup5\n        /* \"#utility.yul\":5457:5461   */\n      dup3\n        /* \"#utility.yul\":5453:5467   */\n      sub\n        /* \"#utility.yul\":5446:5450   */\n      0x00\n        /* \"#utility.yul\":5441:5444   */\n      dup7\n        /* \"#utility.yul\":5437:5451   */\n      add\n        /* \"#utility.yul\":5430:5468   */\n      mstore\n        /* \"#utility.yul\":5489:5562   */\n      tag_337\n        /* \"#utility.yul\":5557:5561   */\n      dup3\n        /* \"#utility.yul\":5543:5555   */\n      dup3\n        /* \"#utility.yul\":5489:5562   */\n      tag_215\n      jump\t// in\n    tag_337:\n        /* \"#utility.yul\":5481:5562   */\n      swap2\n      pop\n        /* \"#utility.yul\":5334:5573   */\n      pop\n        /* \"#utility.yul\":5654:5658   */\n      0x20\n        /* \"#utility.yul\":5647:5652   */\n      dup4\n        /* \"#utility.yul\":5643:5659   */\n      add\n        /* \"#utility.yul\":5637:5660   */\n      mload\n        /* \"#utility.yul\":5707:5710   */\n      dup5\n        /* \"#utility.yul\":5701:5705   */\n      dup3\n        /* \"#utility.yul\":5697:5711   */\n      sub\n        /* \"#utility.yul\":5690:5694   */\n      0x20\n        /* \"#utility.yul\":5685:5688   */\n      dup7\n        /* \"#utility.yul\":5681:5695   */\n      add\n        /* \"#utility.yul\":5674:5712   */\n      mstore\n        /* \"#utility.yul\":5733:5806   */\n      tag_338\n        /* \"#utility.yul\":5801:5805   */\n      dup3\n        /* \"#utility.yul\":5787:5799   */\n      dup3\n        /* \"#utility.yul\":5733:5806   */\n      tag_215\n      jump\t// in\n    tag_338:\n        /* \"#utility.yul\":5725:5806   */\n      swap2\n      pop\n        /* \"#utility.yul\":5583:5817   */\n      pop\n        /* \"#utility.yul\":5906:5910   */\n      0x40\n        /* \"#utility.yul\":5899:5904   */\n      dup4\n        /* \"#utility.yul\":5895:5911   */\n      add\n        /* \"#utility.yul\":5889:5912   */\n      mload\n        /* \"#utility.yul\":5959:5962   */\n      dup5\n        /* \"#utility.yul\":5953:5957   */\n      dup3\n        /* \"#utility.yul\":5949:5963   */\n      sub\n        /* \"#utility.yul\":5942:5946   */\n      0x40\n        /* \"#utility.yul\":5937:5940   */\n      dup7\n        /* \"#utility.yul\":5933:5947   */\n      add\n        /* \"#utility.yul\":5926:5964   */\n      mstore\n        /* \"#utility.yul\":5985:6058   */\n      tag_339\n        /* \"#utility.yul\":6053:6057   */\n      dup3\n        /* \"#utility.yul\":6039:6051   */\n      dup3\n        /* \"#utility.yul\":5985:6058   */\n      tag_215\n      jump\t// in\n    tag_339:\n        /* \"#utility.yul\":5977:6058   */\n      swap2\n      pop\n        /* \"#utility.yul\":5827:6069   */\n      pop\n        /* \"#utility.yul\":6151:6155   */\n      0x60\n        /* \"#utility.yul\":6144:6149   */\n      dup4\n        /* \"#utility.yul\":6140:6156   */\n      add\n        /* \"#utility.yul\":6134:6157   */\n      mload\n        /* \"#utility.yul\":6204:6207   */\n      dup5\n        /* \"#utility.yul\":6198:6202   */\n      dup3\n        /* \"#utility.yul\":6194:6208   */\n      sub\n        /* \"#utility.yul\":6187:6191   */\n      0x60\n        /* \"#utility.yul\":6182:6185   */\n      dup7\n        /* \"#utility.yul\":6178:6192   */\n      add\n        /* \"#utility.yul\":6171:6209   */\n      mstore\n        /* \"#utility.yul\":6230:6303   */\n      tag_340\n        /* \"#utility.yul\":6298:6302   */\n      dup3\n        /* \"#utility.yul\":6284:6296   */\n      dup3\n        /* \"#utility.yul\":6230:6303   */\n      tag_215\n      jump\t// in\n    tag_340:\n        /* \"#utility.yul\":6222:6303   */\n      swap2\n      pop\n        /* \"#utility.yul\":6079:6314   */\n      pop\n        /* \"#utility.yul\":6397:6401   */\n      0x80\n        /* \"#utility.yul\":6390:6395   */\n      dup4\n        /* \"#utility.yul\":6386:6402   */\n      add\n        /* \"#utility.yul\":6380:6403   */\n      mload\n        /* \"#utility.yul\":6450:6453   */\n      dup5\n        /* \"#utility.yul\":6444:6448   */\n      dup3\n        /* \"#utility.yul\":6440:6454   */\n      sub\n        /* \"#utility.yul\":6433:6437   */\n      0x80\n        /* \"#utility.yul\":6428:6431   */\n      dup7\n        /* \"#utility.yul\":6424:6438   */\n      add\n        /* \"#utility.yul\":6417:6455   */\n      mstore\n        /* \"#utility.yul\":6476:6549   */\n      tag_341\n        /* \"#utility.yul\":6544:6548   */\n      dup3\n        /* \"#utility.yul\":6530:6542   */\n      dup3\n        /* \"#utility.yul\":6476:6549   */\n      tag_215\n      jump\t// in\n    tag_341:\n        /* \"#utility.yul\":6468:6549   */\n      swap2\n      pop\n        /* \"#utility.yul\":6324:6560   */\n      pop\n        /* \"#utility.yul\":6649:6653   */\n      0xa0\n        /* \"#utility.yul\":6642:6647   */\n      dup4\n        /* \"#utility.yul\":6638:6654   */\n      add\n        /* \"#utility.yul\":6632:6655   */\n      mload\n        /* \"#utility.yul\":6668:6727   */\n      tag_342\n        /* \"#utility.yul\":6721:6725   */\n      0xa0\n        /* \"#utility.yul\":6716:6719   */\n      dup7\n        /* \"#utility.yul\":6712:6726   */\n      add\n        /* \"#utility.yul\":6698:6710   */\n      dup3\n        /* \"#utility.yul\":6668:6727   */\n      tag_217\n      jump\t// in\n    tag_342:\n        /* \"#utility.yul\":6570:6737   */\n      pop\n        /* \"#utility.yul\":6826:6830   */\n      0xc0\n        /* \"#utility.yul\":6819:6824   */\n      dup4\n        /* \"#utility.yul\":6815:6831   */\n      add\n        /* \"#utility.yul\":6809:6832   */\n      mload\n        /* \"#utility.yul\":6879:6882   */\n      dup5\n        /* \"#utility.yul\":6873:6877   */\n      dup3\n        /* \"#utility.yul\":6869:6883   */\n      sub\n        /* \"#utility.yul\":6862:6866   */\n      0xc0\n        /* \"#utility.yul\":6857:6860   */\n      dup7\n        /* \"#utility.yul\":6853:6867   */\n      add\n        /* \"#utility.yul\":6846:6884   */\n      mstore\n        /* \"#utility.yul\":6905:6978   */\n      tag_343\n        /* \"#utility.yul\":6973:6977   */\n      dup3\n        /* \"#utility.yul\":6959:6971   */\n      dup3\n        /* \"#utility.yul\":6905:6978   */\n      tag_215\n      jump\t// in\n    tag_343:\n        /* \"#utility.yul\":6897:6978   */\n      swap2\n      pop\n        /* \"#utility.yul\":6747:6989   */\n      pop\n        /* \"#utility.yul\":7079:7083   */\n      0xe0\n        /* \"#utility.yul\":7072:7077   */\n      dup4\n        /* \"#utility.yul\":7068:7084   */\n      add\n        /* \"#utility.yul\":7062:7085   */\n      mload\n        /* \"#utility.yul\":7098:7161   */\n      tag_344\n        /* \"#utility.yul\":7155:7159   */\n      0xe0\n        /* \"#utility.yul\":7150:7153   */\n      dup7\n        /* \"#utility.yul\":7146:7160   */\n      add\n        /* \"#utility.yul\":7132:7144   */\n      dup3\n        /* \"#utility.yul\":7098:7161   */\n      tag_220\n      jump\t// in\n    tag_344:\n        /* \"#utility.yul\":6999:7171   */\n      pop\n        /* \"#utility.yul\":7252:7258   */\n      0x0100\n        /* \"#utility.yul\":7245:7250   */\n      dup4\n        /* \"#utility.yul\":7241:7259   */\n      add\n        /* \"#utility.yul\":7235:7260   */\n      mload\n        /* \"#utility.yul\":7273:7338   */\n      tag_345\n        /* \"#utility.yul\":7330:7336   */\n      0x0100\n        /* \"#utility.yul\":7325:7328   */\n      dup7\n        /* \"#utility.yul\":7321:7337   */\n      add\n        /* \"#utility.yul\":7307:7319   */\n      dup3\n        /* \"#utility.yul\":7273:7338   */\n      tag_221\n      jump\t// in\n    tag_345:\n        /* \"#utility.yul\":7181:7348   */\n      pop\n        /* \"#utility.yul\":7365:7369   */\n      dup1\n        /* \"#utility.yul\":7358:7369   */\n      swap2\n      pop\n        /* \"#utility.yul\":5286:7375   */\n      pop\n        /* \"#utility.yul\":5164:7375   */\n      swap3\n      swap2\n      pop\n      pop\n      jump\t// out\n        /* \"#utility.yul\":7381:7750   */\n    tag_11:\n        /* \"#utility.yul\":7522:7526   */\n      0x00\n        /* \"#utility.yul\":7560:7562   */\n      0x20\n        /* \"#utility.yul\":7549:7558   */\n      dup3\n        /* \"#utility.yul\":7545:7563   */\n      add\n        /* \"#utility.yul\":7537:7563   */\n      swap1\n      pop\n        /* \"#utility.yul\":7609:7618   */\n      dup2\n        /* \"#utility.yul\":7603:7607   */\n      dup2\n        /* \"#utility.yul\":7599:7619   */\n      sub\n        /* \"#utility.yul\":7595:7596   */\n      0x00\n        /* \"#utility.yul\":7584:7593   */\n      dup4\n        /* \"#utility.yul\":7580:7597   */\n      add\n        /* \"#utility.yul\":7573:7620   */\n      mstore\n        /* \"#utility.yul\":7637:7743   */\n      tag_347\n        /* \"#utility.yul\":7738:7742   */\n      dup2\n        /* \"#utility.yul\":7729:7735   */\n      dup5\n        /* \"#utility.yul\":7637:7743   */\n      tag_222\n      jump\t// in\n    tag_347:\n        /* \"#utility.yul\":7629:7743   */\n      swap1\n      pop\n        /* \"#utility.yul\":7381:7750   */\n      swap3\n      swap2\n      pop\n      pop\n      jump\t// out\n        /* \"#utility.yul\":7756:7878   */\n    tag_223:\n        /* \"#utility.yul\":7829:7853   */\n      tag_349\n        /* \"#utility.yul\":7847:7852   */\n      dup2\n        /* \"#utility.yul\":7829:7853   */\n      tag_219\n      jump\t// in\n    tag_349:\n        /* \"#utility.yul\":7822:7827   */\n      dup2\n        /* \"#utility.yul\":7819:7854   */\n      eq\n        /* \"#utility.yul\":7809:7872   */\n      tag_350\n      jumpi\n        /* \"#utility.yul\":7868:7869   */\n      0x00\n        /* \"#utility.yul\":7865:7866   */\n      dup1\n        /* \"#utility.yul\":7858:7870   */\n      revert\n        /* \"#utility.yul\":7809:7872   */\n    tag_350:\n        /* \"#utility.yul\":7756:7878   */\n      pop\n      jump\t// out\n        /* \"#utility.yul\":7884:8023   */\n    tag_224:\n        /* \"#utility.yul\":7930:7935   */\n      0x00\n        /* \"#utility.yul\":7968:7974   */\n      dup2\n        /* \"#utility.yul\":7955:7975   */\n      calldataload\n        /* \"#utility.yul\":7946:7975   */\n      swap1\n      pop\n        /* \"#utility.yul\":7984:8017   */\n      tag_352\n        /* \"#utility.yul\":8011:8016   */\n      dup2\n        /* \"#utility.yul\":7984:8017   */\n      tag_223\n      jump\t// in\n    tag_352:\n        /* \"#utility.yul\":7884:8023   */\n      swap3\n      swap2\n      pop\n      pop\n      jump\t// out\n        /* \"#utility.yul\":8029:10132   */\n    tag_14:\n        /* \"#utility.yul\":8192:8198   */\n      0x00\n        /* \"#utility.yul\":8200:8206   */\n      dup1\n        /* \"#utility.yul\":8208:8214   */\n      0x00\n        /* \"#utility.yul\":8216:8222   */\n      dup1\n        /* \"#utility.yul\":8224:8230   */\n      0x00\n        /* \"#utility.yul\":8232:8238   */\n      dup1\n        /* \"#utility.yul\":8240:8246   */\n      0x00\n        /* \"#utility.yul\":8289:8292   */\n      0xe0\n        /* \"#utility.yul\":8277:8286   */\n      dup9\n        /* \"#utility.yul\":8268:8275   */\n      dup11\n        /* \"#utility.yul\":8264:8287   */\n      sub\n        /* \"#utility.yul\":8260:8293   */\n      slt\n        /* \"#utility.yul\":8257:8377   */\n      iszero\n      tag_354\n      jumpi\n        /* \"#utility.yul\":8296:8375   */\n      tag_355\n      tag_198\n      jump\t// in\n    tag_355:\n        /* \"#utility.yul\":8257:8377   */\n    tag_354:\n        /* \"#utility.yul\":8416:8417   */\n      0x00\n        /* \"#utility.yul\":8441:8494   */\n      tag_356\n        /* \"#utility.yul\":8486:8493   */\n      dup11\n        /* \"#utility.yul\":8477:8483   */\n      dup3\n        /* \"#utility.yul\":8466:8475   */\n      dup12\n        /* \"#utility.yul\":8462:8484   */\n      add\n        /* \"#utility.yul\":8441:8494   */\n      tag_202\n      jump\t// in\n    tag_356:\n        /* \"#utility.yul\":8431:8494   */\n      swap8\n      pop\n        /* \"#utility.yul\":8387:8504   */\n      pop\n        /* \"#utility.yul\":8571:8573   */\n      0x20\n        /* \"#utility.yul\":8560:8569   */\n      dup9\n        /* \"#utility.yul\":8556:8574   */\n      add\n        /* \"#utility.yul\":8543:8575   */\n      calldataload\n        /* \"#utility.yul\":8602:8620   */\n      0xffffffffffffffff\n        /* \"#utility.yul\":8594:8600   */\n      dup2\n        /* \"#utility.yul\":8591:8621   */\n      gt\n        /* \"#utility.yul\":8588:8705   */\n      iszero\n      tag_357\n      jumpi\n        /* \"#utility.yul\":8624:8703   */\n      tag_358\n      tag_199\n      jump\t// in\n    tag_358:\n        /* \"#utility.yul\":8588:8705   */\n    tag_357:\n        /* \"#utility.yul\":8729:8792   */\n      tag_359\n        /* \"#utility.yul\":8784:8791   */\n      dup11\n        /* \"#utility.yul\":8775:8781   */\n      dup3\n        /* \"#utility.yul\":8764:8773   */\n      dup12\n        /* \"#utility.yul\":8760:8782   */\n      add\n        /* \"#utility.yul\":8729:8792   */\n      tag_211\n      jump\t// in\n    tag_359:\n        /* \"#utility.yul\":8719:8792   */\n      swap7\n      pop\n        /* \"#utility.yul\":8514:8802   */\n      pop\n        /* \"#utility.yul\":8869:8871   */\n      0x40\n        /* \"#utility.yul\":8858:8867   */\n      dup9\n        /* \"#utility.yul\":8854:8872   */\n      add\n        /* \"#utility.yul\":8841:8873   */\n      calldataload\n        /* \"#utility.yul\":8900:8918   */\n      0xffffffffffffffff\n        /* \"#utility.yul\":8892:8898   */\n      dup2\n        /* \"#utility.yul\":8889:8919   */\n      gt\n        /* \"#utility.yul\":8886:9003   */\n      iszero\n      tag_360\n      jumpi\n        /* \"#utility.yul\":8922:9001   */\n      tag_361\n      tag_199\n      jump\t// in\n    tag_361:\n        /* \"#utility.yul\":8886:9003   */\n    tag_360:\n        /* \"#utility.yul\":9027:9090   */\n      tag_362\n        /* \"#utility.yul\":9082:9089   */\n      dup11\n        /* \"#utility.yul\":9073:9079   */\n      dup3\n        /* \"#utility.yul\":9062:9071   */\n      dup12\n        /* \"#utility.yul\":9058:9080   */\n      add\n        /* \"#utility.yul\":9027:9090   */\n      tag_211\n      jump\t// in\n    tag_362:\n        /* \"#utility.yul\":9017:9090   */\n      swap6\n      pop\n        /* \"#utility.yul\":8812:9100   */\n      pop\n        /* \"#utility.yul\":9167:9169   */\n      0x60\n        /* \"#utility.yul\":9156:9165   */\n      dup9\n        /* \"#utility.yul\":9152:9170   */\n      add\n        /* \"#utility.yul\":9139:9171   */\n      calldataload\n        /* \"#utility.yul\":9198:9216   */\n      0xffffffffffffffff\n        /* \"#utility.yul\":9190:9196   */\n      dup2\n        /* \"#utility.yul\":9187:9217   */\n      gt\n        /* \"#utility.yul\":9184:9301   */\n      iszero\n      tag_363\n      jumpi\n        /* \"#utility.yul\":9220:9299   */\n      tag_364\n      tag_199\n      jump\t// in\n    tag_364:\n        /* \"#utility.yul\":9184:9301   */\n    tag_363:\n        /* \"#utility.yul\":9325:9388   */\n      tag_365\n        /* \"#utility.yul\":9380:9387   */\n      dup11\n        /* \"#utility.yul\":9371:9377   */\n      dup3\n        /* \"#utility.yul\":9360:9369   */\n      dup12\n        /* \"#utility.yul\":9356:9378   */\n      add\n        /* \"#utility.yul\":9325:9388   */\n      tag_211\n      jump\t// in\n    tag_365:\n        /* \"#utility.yul\":9315:9388   */\n      swap5\n      pop\n        /* \"#utility.yul\":9110:9398   */\n      pop\n        /* \"#utility.yul\":9437:9440   */\n      0x80\n        /* \"#utility.yul\":9464:9517   */\n      tag_366\n        /* \"#utility.yul\":9509:9516   */\n      dup11\n        /* \"#utility.yul\":9500:9506   */\n      dup3\n        /* \"#utility.yul\":9489:9498   */\n      dup12\n        /* \"#utility.yul\":9485:9507   */\n      add\n        /* \"#utility.yul\":9464:9517   */\n      tag_224\n      jump\t// in\n    tag_366:\n        /* \"#utility.yul\":9454:9517   */\n      swap4\n      pop\n        /* \"#utility.yul\":9408:9527   */\n      pop\n        /* \"#utility.yul\":9594:9597   */\n      0xa0\n        /* \"#utility.yul\":9583:9592   */\n      dup9\n        /* \"#utility.yul\":9579:9598   */\n      add\n        /* \"#utility.yul\":9566:9599   */\n      calldataload\n        /* \"#utility.yul\":9626:9644   */\n      0xffffffffffffffff\n        /* \"#utility.yul\":9618:9624   */\n      dup2\n        /* \"#utility.yul\":9615:9645   */\n      gt\n        /* \"#utility.yul\":9612:9729   */\n      iszero\n      tag_367\n      jumpi\n        /* \"#utility.yul\":9648:9727   */\n      tag_368\n      tag_199\n      jump\t// in\n    tag_368:\n        /* \"#utility.yul\":9612:9729   */\n    tag_367:\n        /* \"#utility.yul\":9753:9816   */\n      tag_369\n        /* \"#utility.yul\":9808:9815   */\n      dup11\n        /* \"#utility.yul\":9799:9805   */\n      dup3\n        /* \"#utility.yul\":9788:9797   */\n      dup12\n        /* \"#utility.yul\":9784:9806   */\n      add\n        /* \"#utility.yul\":9753:9816   */\n      tag_211\n      jump\t// in\n    tag_369:\n        /* \"#utility.yul\":9743:9816   */\n      swap3\n      pop\n        /* \"#utility.yul\":9537:9826   */\n      pop\n        /* \"#utility.yul\":9893:9896   */\n      0xc0\n        /* \"#utility.yul\":9882:9891   */\n      dup9\n        /* \"#utility.yul\":9878:9897   */\n      add\n        /* \"#utility.yul\":9865:9898   */\n      calldataload\n        /* \"#utility.yul\":9925:9943   */\n      0xffffffffffffffff\n        /* \"#utility.yul\":9917:9923   */\n      dup2\n        /* \"#utility.yul\":9914:9944   */\n      gt\n        /* \"#utility.yul\":9911:10028   */\n      iszero\n      tag_370\n      jumpi\n        /* \"#utility.yul\":9947:10026   */\n      tag_371\n      tag_199\n      jump\t// in\n    tag_371:\n        /* \"#utility.yul\":9911:10028   */\n    tag_370:\n        /* \"#utility.yul\":10052:10115   */\n      tag_372\n        /* \"#utility.yul\":10107:10114   */\n      dup11\n        /* \"#utility.yul\":10098:10104   */\n      dup3\n        /* \"#utility.yul\":10087:10096   */\n      dup12\n        /* \"#utility.yul\":10083:10105   */\n      add\n        /* \"#utility.yul\":10052:10115   */\n      tag_211\n      jump\t// in\n    tag_372:\n        /* \"#utility.yul\":10042:10115   */\n      swap2\n      pop\n        /* \"#utility.yul\":9836:10125   */\n      pop\n        /* \"#utility.yul\":8029:10132   */\n      swap3\n      swap6\n      swap9\n      swap2\n      swap5\n      swap8\n      pop\n      swap3\n      swap6\n      pop\n      jump\t// out\n        /* \"#utility.yul\":10138:10256   */\n    tag_225:\n        /* \"#utility.yul\":10209:10231   */\n      tag_374\n        /* \"#utility.yul\":10225:10230   */\n      dup2\n        /* \"#utility.yul\":10209:10231   */\n      tag_216\n      jump\t// in\n    tag_374:\n        /* \"#utility.yul\":10202:10207   */\n      dup2\n        /* \"#utility.yul\":10199:10232   */\n      eq\n        /* \"#utility.yul\":10189:10250   */\n      tag_375\n      jumpi\n        /* \"#utility.yul\":10246:10247   */\n      0x00\n        /* \"#utility.yul\":10243:10244   */\n      dup1\n        /* \"#utility.yul\":10236:10248   */\n      revert\n        /* \"#utility.yul\":10189:10250   */\n    tag_375:\n        /* \"#utility.yul\":10138:10256   */\n      pop\n      jump\t// out\n        /* \"#utility.yul\":10262:10397   */\n    tag_226:\n        /* \"#utility.yul\":10306:10311   */\n      0x00\n        /* \"#utility.yul\":10344:10350   */\n      dup2\n        /* \"#utility.yul\":10331:10351   */\n      calldataload\n        /* \"#utility.yul\":10322:10351   */\n      swap1\n      pop\n        /* \"#utility.yul\":10360:10391   */\n      tag_377\n        /* \"#utility.yul\":10385:10390   */\n      dup2\n        /* \"#utility.yul\":10360:10391   */\n      tag_225\n      jump\t// in\n    tag_377:\n        /* \"#utility.yul\":10262:10397   */\n      swap3\n      swap2\n      pop\n      pop\n      jump\t// out\n        /* \"#utility.yul\":10403:12828   */\n    tag_18:\n        /* \"#utility.yul\":10583:10589   */\n      0x00\n        /* \"#utility.yul\":10591:10597   */\n      dup1\n        /* \"#utility.yul\":10599:10605   */\n      0x00\n        /* \"#utility.yul\":10607:10613   */\n      dup1\n        /* \"#utility.yul\":10615:10621   */\n      0x00\n        /* \"#utility.yul\":10623:10629   */\n      dup1\n        /* \"#utility.yul\":10631:10637   */\n      0x00\n        /* \"#utility.yul\":10639:10645   */\n      dup1\n        /* \"#utility.yul\":10688:10691   */\n      0x0100\n        /* \"#utility.yul\":10676:10685   */\n      dup10\n        /* \"#utility.yul\":10667:10674   */\n      dup12\n        /* \"#utility.yul\":10663:10686   */\n      sub\n        /* \"#utility.yul\":10659:10692   */\n      slt\n        /* \"#utility.yul\":10656:10776   */\n      iszero\n      tag_379\n      jumpi\n        /* \"#utility.yul\":10695:10774   */\n      tag_380\n      tag_198\n      jump\t// in\n    tag_380:\n        /* \"#utility.yul\":10656:10776   */\n    tag_379:\n        /* \"#utility.yul\":10843:10844   */\n      0x00\n        /* \"#utility.yul\":10832:10841   */\n      dup10\n        /* \"#utility.yul\":10828:10845   */\n      add\n        /* \"#utility.yul\":10815:10846   */\n      calldataload\n        /* \"#utility.yul\":10873:10891   */\n      0xffffffffffffffff\n        /* \"#utility.yul\":10865:10871   */\n      dup2\n        /* \"#utility.yul\":10862:10892   */\n      gt\n        /* \"#utility.yul\":10859:10976   */\n      iszero\n      tag_381\n      jumpi\n        /* \"#utility.yul\":10895:10974   */\n      tag_382\n      tag_199\n      jump\t// in\n    tag_382:\n        /* \"#utility.yul\":10859:10976   */\n    tag_381:\n        /* \"#utility.yul\":11000:11063   */\n      tag_383\n        /* \"#utility.yul\":11055:11062   */\n      dup12\n        /* \"#utility.yul\":11046:11052   */\n      dup3\n        /* \"#utility.yul\":11035:11044   */\n      dup13\n        /* \"#utility.yul\":11031:11053   */\n      add\n        /* \"#utility.yul\":11000:11063   */\n      tag_211\n      jump\t// in\n    tag_383:\n        /* \"#utility.yul\":10990:11063   */\n      swap9\n      pop\n        /* \"#utility.yul\":10786:11073   */\n      pop\n        /* \"#utility.yul\":11140:11142   */\n      0x20\n        /* \"#utility.yul\":11129:11138   */\n      dup10\n        /* \"#utility.yul\":11125:11143   */\n      add\n        /* \"#utility.yul\":11112:11144   */\n      calldataload\n        /* \"#utility.yul\":11171:11189   */\n      0xffffffffffffffff\n        /* \"#utility.yul\":11163:11169   */\n      dup2\n        /* \"#utility.yul\":11160:11190   */\n      gt\n        /* \"#utility.yul\":11157:11274   */\n      iszero\n      tag_384\n      jumpi\n        /* \"#utility.yul\":11193:11272   */\n      tag_385\n      tag_199\n      jump\t// in\n    tag_385:\n        /* \"#utility.yul\":11157:11274   */\n    tag_384:\n        /* \"#utility.yul\":11298:11361   */\n      tag_386\n        /* \"#utility.yul\":11353:11360   */\n      dup12\n        /* \"#utility.yul\":11344:11350   */\n      dup3\n        /* \"#utility.yul\":11333:11342   */\n      dup13\n        /* \"#utility.yul\":11329:11351   */\n      add\n        /* \"#utility.yul\":11298:11361   */\n      tag_211\n      jump\t// in\n    tag_386:\n        /* \"#utility.yul\":11288:11361   */\n      swap8\n      pop\n        /* \"#utility.yul\":11083:11371   */\n      pop\n        /* \"#utility.yul\":11438:11440   */\n      0x40\n        /* \"#utility.yul\":11427:11436   */\n      dup10\n        /* \"#utility.yul\":11423:11441   */\n      add\n        /* \"#utility.yul\":11410:11442   */\n      calldataload\n        /* \"#utility.yul\":11469:11487   */\n      0xffffffffffffffff\n        /* \"#utility.yul\":11461:11467   */\n      dup2\n        /* \"#utility.yul\":11458:11488   */\n      gt\n        /* \"#utility.yul\":11455:11572   */\n      iszero\n      tag_387\n      jumpi\n        /* \"#utility.yul\":11491:11570   */\n      tag_388\n      tag_199\n      jump\t// in\n    tag_388:\n        /* \"#utility.yul\":11455:11572   */\n    tag_387:\n        /* \"#utility.yul\":11596:11659   */\n      tag_389\n        /* \"#utility.yul\":11651:11658   */\n      dup12\n        /* \"#utility.yul\":11642:11648   */\n      dup3\n        /* \"#utility.yul\":11631:11640   */\n      dup13\n        /* \"#utility.yul\":11627:11649   */\n      add\n        /* \"#utility.yul\":11596:11659   */\n      tag_211\n      jump\t// in\n    tag_389:\n        /* \"#utility.yul\":11586:11659   */\n      swap7\n      pop\n        /* \"#utility.yul\":11381:11669   */\n      pop\n        /* \"#utility.yul\":11736:11738   */\n      0x60\n        /* \"#utility.yul\":11725:11734   */\n      dup10\n        /* \"#utility.yul\":11721:11739   */\n      add\n        /* \"#utility.yul\":11708:11740   */\n      calldataload\n        /* \"#utility.yul\":11767:11785   */\n      0xffffffffffffffff\n        /* \"#utility.yul\":11759:11765   */\n      dup2\n        /* \"#utility.yul\":11756:11786   */\n      gt\n        /* \"#utility.yul\":11753:11870   */\n      iszero\n      tag_390\n      jumpi\n        /* \"#utility.yul\":11789:11868   */\n      tag_391\n      tag_199\n      jump\t// in\n    tag_391:\n        /* \"#utility.yul\":11753:11870   */\n    tag_390:\n        /* \"#utility.yul\":11894:11957   */\n      tag_392\n        /* \"#utility.yul\":11949:11956   */\n      dup12\n        /* \"#utility.yul\":11940:11946   */\n      dup3\n        /* \"#utility.yul\":11929:11938   */\n      dup13\n        /* \"#utility.yul\":11925:11947   */\n      add\n        /* \"#utility.yul\":11894:11957   */\n      tag_211\n      jump\t// in\n    tag_392:\n        /* \"#utility.yul\":11884:11957   */\n      swap6\n      pop\n        /* \"#utility.yul\":11679:11967   */\n      pop\n        /* \"#utility.yul\":12006:12009   */\n      0x80\n        /* \"#utility.yul\":12033:12084   */\n      tag_393\n        /* \"#utility.yul\":12076:12083   */\n      dup12\n        /* \"#utility.yul\":12067:12073   */\n      dup3\n        /* \"#utility.yul\":12056:12065   */\n      dup13\n        /* \"#utility.yul\":12052:12074   */\n      add\n        /* \"#utility.yul\":12033:12084   */\n      tag_226\n      jump\t// in\n    tag_393:\n        /* \"#utility.yul\":12023:12084   */\n      swap5\n      pop\n        /* \"#utility.yul\":11977:12094   */\n      pop\n        /* \"#utility.yul\":12161:12164   */\n      0xa0\n        /* \"#utility.yul\":12150:12159   */\n      dup10\n        /* \"#utility.yul\":12146:12165   */\n      add\n        /* \"#utility.yul\":12133:12166   */\n      calldataload\n        /* \"#utility.yul\":12193:12211   */\n      0xffffffffffffffff\n        /* \"#utility.yul\":12185:12191   */\n      dup2\n        /* \"#utility.yul\":12182:12212   */\n      gt\n        /* \"#utility.yul\":12179:12296   */\n      iszero\n      tag_394\n      jumpi\n        /* \"#utility.yul\":12215:12294   */\n      tag_395\n      tag_199\n      jump\t// in\n    tag_395:\n        /* \"#utility.yul\":12179:12296   */\n    tag_394:\n        /* \"#utility.yul\":12320:12383   */\n      tag_396\n        /* \"#utility.yul\":12375:12382   */\n      dup12\n        /* \"#utility.yul\":12366:12372   */\n      dup3\n        /* \"#utility.yul\":12355:12364   */\n      dup13\n        /* \"#utility.yul\":12351:12373   */\n      add\n        /* \"#utility.yul\":12320:12383   */\n      tag_211\n      jump\t// in\n    tag_396:\n        /* \"#utility.yul\":12310:12383   */\n      swap4\n      pop\n        /* \"#utility.yul\":12104:12393   */\n      pop\n        /* \"#utility.yul\":12432:12435   */\n      0xc0\n        /* \"#utility.yul\":12459:12512   */\n      tag_397\n        /* \"#utility.yul\":12504:12511   */\n      dup12\n        /* \"#utility.yul\":12495:12501   */\n      dup3\n        /* \"#utility.yul\":12484:12493   */\n      dup13\n        /* \"#utility.yul\":12480:12502   */\n      add\n        /* \"#utility.yul\":12459:12512   */\n      tag_224\n      jump\t// in\n    tag_397:\n        /* \"#utility.yul\":12449:12512   */\n      swap3\n      pop\n        /* \"#utility.yul\":12403:12522   */\n      pop\n        /* \"#utility.yul\":12589:12592   */\n      0xe0\n        /* \"#utility.yul\":12578:12587   */\n      dup10\n        /* \"#utility.yul\":12574:12593   */\n      add\n        /* \"#utility.yul\":12561:12594   */\n      calldataload\n        /* \"#utility.yul\":12621:12639   */\n      0xffffffffffffffff\n        /* \"#utility.yul\":12613:12619   */\n      dup2\n        /* \"#utility.yul\":12610:12640   */\n      gt\n        /* \"#utility.yul\":12607:12724   */\n      iszero\n      tag_398\n      jumpi\n        /* \"#utility.yul\":12643:12722   */\n      tag_399\n      tag_199\n      jump\t// in\n    tag_399:\n        /* \"#utility.yul\":12607:12724   */\n    tag_398:\n        /* \"#utility.yul\":12748:12811   */\n      tag_400\n        /* \"#utility.yul\":12803:12810   */\n      dup12\n        /* \"#utility.yul\":12794:12800   */\n      dup3\n        /* \"#utility.yul\":12783:12792   */\n      dup13\n        /* \"#utility.yul\":12779:12801   */\n      add\n        /* \"#utility.yul\":12748:12811   */\n      tag_211\n      jump\t// in\n    tag_400:\n        /* \"#utility.yul\":12738:12811   */\n      swap2\n      pop\n        /* \"#utility.yul\":12532:12821   */\n      pop\n        /* \"#utility.yul\":10403:12828   */\n      swap3\n      swap6\n      swap9\n      pop\n      swap3\n      swap6\n      swap9\n      swap1\n      swap4\n      swap7\n      pop\n      jump\t// out\n        /* \"#utility.yul\":12834:12952   */\n    tag_227:\n        /* \"#utility.yul\":12921:12945   */\n      tag_402\n        /* \"#utility.yul\":12939:12944   */\n      dup2\n        /* \"#utility.yul\":12921:12945   */\n      tag_200\n      jump\t// in\n    tag_402:\n        /* \"#utility.yul\":12916:12919   */\n      dup3\n        /* \"#utility.yul\":12909:12946   */\n      mstore\n        /* \"#utility.yul\":12834:12952   */\n      pop\n      pop\n      jump\t// out\n        /* \"#utility.yul\":12958:13180   */\n    tag_21:\n        /* \"#utility.yul\":13051:13055   */\n      0x00\n        /* \"#utility.yul\":13089:13091   */\n      0x20\n        /* \"#utility.yul\":13078:13087   */\n      dup3\n        /* \"#utility.yul\":13074:13092   */\n      add\n        /* \"#utility.yul\":13066:13092   */\n      swap1\n      pop\n        /* \"#utility.yul\":13102:13173   */\n      tag_404\n        /* \"#utility.yul\":13170:13171   */\n      0x00\n        /* \"#utility.yul\":13159:13168   */\n      dup4\n        /* \"#utility.yul\":13155:13172   */\n      add\n        /* \"#utility.yul\":13146:13152   */\n      dup5\n        /* \"#utility.yul\":13102:13173   */\n      tag_227\n      jump\t// in\n    tag_404:\n        /* \"#utility.yul\":12958:13180   */\n      swap3\n      swap2\n      pop\n      pop\n      jump\t// out\n        /* \"#utility.yul\":13186:13366   */\n    tag_228:\n        /* \"#utility.yul\":13234:13311   */\n      0x4e487b7100000000000000000000000000000000000000000000000000000000\n        /* \"#utility.yul\":13231:13232   */\n      0x00\n        /* \"#utility.yul\":13224:13312   */\n      mstore\n        /* \"#utility.yul\":13331:13335   */\n      0x22\n        /* \"#utility.yul\":13328:13329   */\n      0x04\n        /* \"#utility.yul\":13321:13336   */\n      mstore\n        /* \"#utility.yul\":13355:13359   */\n      0x24\n        /* \"#utility.yul\":13352:13353   */\n      0x00\n        /* \"#utility.yul\":13345:13360   */\n      revert\n        /* \"#utility.yul\":13372:13692   */\n    tag_28:\n        /* \"#utility.yul\":13416:13422   */\n      0x00\n        /* \"#utility.yul\":13453:13454   */\n      0x02\n        /* \"#utility.yul\":13447:13451   */\n      dup3\n        /* \"#utility.yul\":13443:13455   */\n      div\n        /* \"#utility.yul\":13433:13455   */\n      swap1\n      pop\n        /* \"#utility.yul\":13500:13501   */\n      0x01\n        /* \"#utility.yul\":13494:13498   */\n      dup3\n        /* \"#utility.yul\":13490:13502   */\n      and\n        /* \"#utility.yul\":13521:13539   */\n      dup1\n        /* \"#utility.yul\":13511:13592   */\n      tag_407\n      jumpi\n        /* \"#utility.yul\":13577:13581   */\n      0x7f\n        /* \"#utility.yul\":13569:13575   */\n      dup3\n        /* \"#utility.yul\":13565:13582   */\n      and\n        /* \"#utility.yul\":13555:13582   */\n      swap2\n      pop\n        /* \"#utility.yul\":13511:13592   */\n    tag_407:\n        /* \"#utility.yul\":13639:13641   */\n      0x20\n        /* \"#utility.yul\":13631:13637   */\n      dup3\n        /* \"#utility.yul\":13628:13642   */\n      lt\n        /* \"#utility.yul\":13608:13626   */\n      dup2\n        /* \"#utility.yul\":13605:13643   */\n      sub\n        /* \"#utility.yul\":13602:13686   */\n      tag_408\n      jumpi\n        /* \"#utility.yul\":13658:13676   */\n      tag_409\n      tag_228\n      jump\t// in\n    tag_409:\n        /* \"#utility.yul\":13602:13686   */\n    tag_408:\n        /* \"#utility.yul\":13423:13692   */\n      pop\n        /* \"#utility.yul\":13372:13692   */\n      swap2\n      swap1\n      pop\n      jump\t// out\n        /* \"#utility.yul\":13698:13874   */\n    tag_229:\n        /* \"#utility.yul\":13789:13800   */\n      0x00\n        /* \"#utility.yul\":13823:13829   */\n      dup3\n        /* \"#utility.yul\":13818:13821   */\n      dup3\n        /* \"#utility.yul\":13811:13830   */\n      mstore\n        /* \"#utility.yul\":13863:13867   */\n      0x20\n        /* \"#utility.yul\":13858:13861   */\n      dup3\n        /* \"#utility.yul\":13854:13868   */\n      add\n        /* \"#utility.yul\":13839:13868   */\n      swap1\n      pop\n        /* \"#utility.yul\":13698:13874   */\n      swap3\n      swap2\n      pop\n      pop\n      jump\t// out\n        /* \"#utility.yul\":13880:14024   */\n    tag_230:\n        /* \"#utility.yul\":13932:13936   */\n      0x00\n        /* \"#utility.yul\":13955:13958   */\n      dup2\n        /* \"#utility.yul\":13947:13958   */\n      swap1\n      pop\n        /* \"#utility.yul\":13978:13981   */\n      dup2\n        /* \"#utility.yul\":13975:13976   */\n      0x00\n        /* \"#utility.yul\":13968:13982   */\n      mstore\n        /* \"#utility.yul\":14012:14016   */\n      0x20\n        /* \"#utility.yul\":14009:14010   */\n      0x00\n        /* \"#utility.yul\":13999:14017   */\n      keccak256\n        /* \"#utility.yul\":13991:14017   */\n      swap1\n      pop\n        /* \"#utility.yul\":13880:14024   */\n      swap2\n      swap1\n      pop\n      jump\t// out\n        /* \"#utility.yul\":14052:14903   */\n    tag_231:\n        /* \"#utility.yul\":14147:14150   */\n      0x00\n        /* \"#utility.yul\":14184:14189   */\n      dup2\n        /* \"#utility.yul\":14178:14190   */\n      sload\n        /* \"#utility.yul\":14213:14249   */\n      tag_413\n        /* \"#utility.yul\":14239:14248   */\n      dup2\n        /* \"#utility.yul\":14213:14249   */\n      tag_28\n      jump\t// in\n    tag_413:\n        /* \"#utility.yul\":14265:14343   */\n      tag_414\n        /* \"#utility.yul\":14336:14342   */\n      dup2\n        /* \"#utility.yul\":14331:14334   */\n      dup7\n        /* \"#utility.yul\":14265:14343   */\n      tag_229\n      jump\t// in\n    tag_414:\n        /* \"#utility.yul\":14258:14343   */\n      swap5\n      pop\n        /* \"#utility.yul\":14374:14375   */\n      0x01\n        /* \"#utility.yul\":14363:14372   */\n      dup3\n        /* \"#utility.yul\":14359:14376   */\n      and\n        /* \"#utility.yul\":14390:14391   */\n      0x00\n        /* \"#utility.yul\":14385:14549   */\n      dup2\n      eq\n      tag_416\n      jumpi\n        /* \"#utility.yul\":14563:14564   */\n      0x01\n        /* \"#utility.yul\":14558:14897   */\n      dup2\n      eq\n      tag_417\n      jumpi\n        /* \"#utility.yul\":14352:14897   */\n      jump(tag_415)\n        /* \"#utility.yul\":14385:14549   */\n    tag_416:\n        /* \"#utility.yul\":14469:14473   */\n      0xff\n        /* \"#utility.yul\":14465:14474   */\n      not\n        /* \"#utility.yul\":14454:14463   */\n      dup4\n        /* \"#utility.yul\":14450:14475   */\n      and\n        /* \"#utility.yul\":14445:14448   */\n      dup7\n        /* \"#utility.yul\":14438:14476   */\n      mstore\n        /* \"#utility.yul\":14529:14535   */\n      dup2\n        /* \"#utility.yul\":14522:14536   */\n      iszero\n        /* \"#utility.yul\":14515:14537   */\n      iszero\n        /* \"#utility.yul\":14509:14513   */\n      0x20\n        /* \"#utility.yul\":14505:14538   */\n      mul\n        /* \"#utility.yul\":14500:14503   */\n      dup7\n        /* \"#utility.yul\":14496:14539   */\n      add\n        /* \"#utility.yul\":14489:14539   */\n      swap4\n      pop\n        /* \"#utility.yul\":14385:14549   */\n      jump(tag_415)\n        /* \"#utility.yul\":14558:14897   */\n    tag_417:\n        /* \"#utility.yul\":14625:14666   */\n      tag_418\n        /* \"#utility.yul\":14660:14665   */\n      dup6\n        /* \"#utility.yul\":14625:14666   */\n      tag_230\n      jump\t// in\n    tag_418:\n        /* \"#utility.yul\":14688:14689   */\n      0x00\n        /* \"#utility.yul\":14702:14856   */\n    tag_419:\n        /* \"#utility.yul\":14716:14722   */\n      dup4\n        /* \"#utility.yul\":14713:14714   */\n      dup2\n        /* \"#utility.yul\":14710:14723   */\n      lt\n        /* \"#utility.yul\":14702:14856   */\n      iszero\n      tag_421\n      jumpi\n        /* \"#utility.yul\":14790:14797   */\n      dup2\n        /* \"#utility.yul\":14784:14798   */\n      sload\n        /* \"#utility.yul\":14780:14781   */\n      dup2\n        /* \"#utility.yul\":14775:14778   */\n      dup10\n        /* \"#utility.yul\":14771:14782   */\n      add\n        /* \"#utility.yul\":14764:14799   */\n      mstore\n        /* \"#utility.yul\":14840:14841   */\n      0x01\n        /* \"#utility.yul\":14831:14838   */\n      dup3\n        /* \"#utility.yul\":14827:14842   */\n      add\n        /* \"#utility.yul\":14816:14842   */\n      swap2\n      pop\n        /* \"#utility.yul\":14738:14742   */\n      0x20\n        /* \"#utility.yul\":14735:14736   */\n      dup2\n        /* \"#utility.yul\":14731:14743   */\n      add\n        /* \"#utility.yul\":14726:14743   */\n      swap1\n      pop\n        /* \"#utility.yul\":14702:14856   */\n      jump(tag_419)\n    tag_421:\n        /* \"#utility.yul\":14885:14886   */\n      dup1\n        /* \"#utility.yul\":14880:14883   */\n      dup9\n        /* \"#utility.yul\":14876:14887   */\n      add\n        /* \"#utility.yul\":14869:14887   */\n      swap6\n      pop\n        /* \"#utility.yul\":14565:14897   */\n      pop\n      pop\n        /* \"#utility.yul\":14352:14897   */\n    tag_415:\n      pop\n        /* \"#utility.yul\":14151:14903   */\n      pop\n      pop\n        /* \"#utility.yul\":14052:14903   */\n      swap3\n      swap2\n      pop\n      pop\n      jump\t// out\n        /* \"#utility.yul\":14909:15007   */\n    tag_232:\n        /* \"#utility.yul\":14960:14966   */\n      0x00\n        /* \"#utility.yul\":14994:14999   */\n      dup2\n        /* \"#utility.yul\":14988:15000   */\n      mload\n        /* \"#utility.yul\":14978:15000   */\n      swap1\n      pop\n        /* \"#utility.yul\":14909:15007   */\n      swap2\n      swap1\n      pop\n      jump\t// out\n        /* \"#utility.yul\":15013:15402   */\n    tag_233:\n        /* \"#utility.yul\":15107:15110   */\n      0x00\n        /* \"#utility.yul\":15135:15173   */\n      tag_424\n        /* \"#utility.yul\":15167:15172   */\n      dup3\n        /* \"#utility.yul\":15135:15173   */\n      tag_232\n      jump\t// in\n    tag_424:\n        /* \"#utility.yul\":15189:15267   */\n      tag_425\n        /* \"#utility.yul\":15260:15266   */\n      dup2\n        /* \"#utility.yul\":15255:15258   */\n      dup6\n        /* \"#utility.yul\":15189:15267   */\n      tag_229\n      jump\t// in\n    tag_425:\n        /* \"#utility.yul\":15182:15267   */\n      swap4\n      pop\n        /* \"#utility.yul\":15276:15341   */\n      tag_426\n        /* \"#utility.yul\":15334:15340   */\n      dup2\n        /* \"#utility.yul\":15329:15332   */\n      dup6\n        /* \"#utility.yul\":15322:15326   */\n      0x20\n        /* \"#utility.yul\":15315:15320   */\n      dup7\n        /* \"#utility.yul\":15311:15327   */\n      add\n        /* \"#utility.yul\":15276:15341   */\n      tag_214\n      jump\t// in\n    tag_426:\n        /* \"#utility.yul\":15366:15395   */\n      tag_427\n        /* \"#utility.yul\":15388:15394   */\n      dup2\n        /* \"#utility.yul\":15366:15395   */\n      tag_205\n      jump\t// in\n    tag_427:\n        /* \"#utility.yul\":15361:15364   */\n      dup5\n        /* \"#utility.yul\":15357:15396   */\n      add\n        /* \"#utility.yul\":15350:15396   */\n      swap2\n      pop\n        /* \"#utility.yul\":15111:15402   */\n      pop\n        /* \"#utility.yul\":15013:15402   */\n      swap3\n      swap2\n      pop\n      pop\n      jump\t// out\n        /* \"#utility.yul\":15408:15940   */\n    tag_35:\n        /* \"#utility.yul\":15574:15578   */\n      0x00\n        /* \"#utility.yul\":15612:15614   */\n      0x40\n        /* \"#utility.yul\":15601:15610   */\n      dup3\n        /* \"#utility.yul\":15597:15615   */\n      add\n        /* \"#utility.yul\":15589:15615   */\n      swap1\n      pop\n        /* \"#utility.yul\":15661:15670   */\n      dup2\n        /* \"#utility.yul\":15655:15659   */\n      dup2\n        /* \"#utility.yul\":15651:15671   */\n      sub\n        /* \"#utility.yul\":15647:15648   */\n      0x00\n        /* \"#utility.yul\":15636:15645   */\n      dup4\n        /* \"#utility.yul\":15632:15649   */\n      add\n        /* \"#utility.yul\":15625:15672   */\n      mstore\n        /* \"#utility.yul\":15689:15774   */\n      tag_429\n        /* \"#utility.yul\":15769:15773   */\n      dup2\n        /* \"#utility.yul\":15760:15766   */\n      dup6\n        /* \"#utility.yul\":15689:15774   */\n      tag_231\n      jump\t// in\n    tag_429:\n        /* \"#utility.yul\":15681:15774   */\n      swap1\n      pop\n        /* \"#utility.yul\":15821:15830   */\n      dup2\n        /* \"#utility.yul\":15815:15819   */\n      dup2\n        /* \"#utility.yul\":15811:15831   */\n      sub\n        /* \"#utility.yul\":15806:15808   */\n      0x20\n        /* \"#utility.yul\":15795:15804   */\n      dup4\n        /* \"#utility.yul\":15791:15809   */\n      add\n        /* \"#utility.yul\":15784:15832   */\n      mstore\n        /* \"#utility.yul\":15849:15933   */\n      tag_430\n        /* \"#utility.yul\":15928:15932   */\n      dup2\n        /* \"#utility.yul\":15919:15925   */\n      dup5\n        /* \"#utility.yul\":15849:15933   */\n      tag_233\n      jump\t// in\n    tag_430:\n        /* \"#utility.yul\":15841:15933   */\n      swap1\n      pop\n        /* \"#utility.yul\":15408:15940   */\n      swap4\n      swap3\n      pop\n      pop\n      pop\n      jump\t// out\n        /* \"#utility.yul\":15946:16253   */\n    tag_234:\n        /* \"#utility.yul\":16007:16011   */\n      0x00\n        /* \"#utility.yul\":16097:16115   */\n      0xffffffffffffffff\n        /* \"#utility.yul\":16089:16095   */\n      dup3\n        /* \"#utility.yul\":16086:16116   */\n      gt\n        /* \"#utility.yul\":16083:16139   */\n      iszero\n      tag_432\n      jumpi\n        /* \"#utility.yul\":16119:16137   */\n      tag_433\n      tag_169\n      jump\t// in\n    tag_433:\n        /* \"#utility.yul\":16083:16139   */\n    tag_432:\n        /* \"#utility.yul\":16157:16186   */\n      tag_434\n        /* \"#utility.yul\":16179:16185   */\n      dup3\n        /* \"#utility.yul\":16157:16186   */\n      tag_205\n      jump\t// in\n    tag_434:\n        /* \"#utility.yul\":16149:16186   */\n      swap1\n      pop\n        /* \"#utility.yul\":16241:16245   */\n      0x20\n        /* \"#utility.yul\":16235:16239   */\n      dup2\n        /* \"#utility.yul\":16231:16246   */\n      add\n        /* \"#utility.yul\":16223:16246   */\n      swap1\n      pop\n        /* \"#utility.yul\":15946:16253   */\n      swap2\n      swap1\n      pop\n      jump\t// out\n        /* \"#utility.yul\":16259:16691   */\n    tag_235:\n        /* \"#utility.yul\":16347:16352   */\n      0x00\n        /* \"#utility.yul\":16372:16437   */\n      tag_436\n        /* \"#utility.yul\":16388:16436   */\n      tag_437\n        /* \"#utility.yul\":16429:16435   */\n      dup5\n        /* \"#utility.yul\":16388:16436   */\n      tag_234\n      jump\t// in\n    tag_437:\n        /* \"#utility.yul\":16372:16437   */\n      tag_207\n      jump\t// in\n    tag_436:\n        /* \"#utility.yul\":16363:16437   */\n      swap1\n      pop\n        /* \"#utility.yul\":16460:16466   */\n      dup3\n        /* \"#utility.yul\":16453:16458   */\n      dup2\n        /* \"#utility.yul\":16446:16467   */\n      mstore\n        /* \"#utility.yul\":16498:16502   */\n      0x20\n        /* \"#utility.yul\":16491:16496   */\n      dup2\n        /* \"#utility.yul\":16487:16503   */\n      add\n        /* \"#utility.yul\":16536:16539   */\n      dup5\n        /* \"#utility.yul\":16527:16533   */\n      dup5\n        /* \"#utility.yul\":16522:16525   */\n      dup5\n        /* \"#utility.yul\":16518:16534   */\n      add\n        /* \"#utility.yul\":16515:16540   */\n      gt\n        /* \"#utility.yul\":16512:16624   */\n      iszero\n      tag_438\n      jumpi\n        /* \"#utility.yul\":16543:16622   */\n      tag_439\n      tag_204\n      jump\t// in\n    tag_439:\n        /* \"#utility.yul\":16512:16624   */\n    tag_438:\n        /* \"#utility.yul\":16633:16685   */\n      tag_440\n        /* \"#utility.yul\":16678:16684   */\n      dup5\n        /* \"#utility.yul\":16673:16676   */\n      dup3\n        /* \"#utility.yul\":16668:16671   */\n      dup6\n        /* \"#utility.yul\":16633:16685   */\n      tag_214\n      jump\t// in\n    tag_440:\n        /* \"#utility.yul\":16353:16691   */\n      pop\n        /* \"#utility.yul\":16259:16691   */\n      swap4\n      swap3\n      pop\n      pop\n      pop\n      jump\t// out\n        /* \"#utility.yul\":16710:17063   */\n    tag_236:\n        /* \"#utility.yul\":16776:16781   */\n      0x00\n        /* \"#utility.yul\":16825:16828   */\n      dup3\n        /* \"#utility.yul\":16818:16822   */\n      0x1f\n        /* \"#utility.yul\":16810:16816   */\n      dup4\n        /* \"#utility.yul\":16806:16823   */\n      add\n        /* \"#utility.yul\":16802:16829   */\n      slt\n        /* \"#utility.yul\":16792:16914   */\n      tag_442\n      jumpi\n        /* \"#utility.yul\":16833:16912   */\n      tag_443\n      tag_203\n      jump\t// in\n    tag_443:\n        /* \"#utility.yul\":16792:16914   */\n    tag_442:\n        /* \"#utility.yul\":16943:16949   */\n      dup2\n        /* \"#utility.yul\":16937:16950   */\n      mload\n        /* \"#utility.yul\":16968:17057   */\n      tag_444\n        /* \"#utility.yul\":17053:17056   */\n      dup5\n        /* \"#utility.yul\":17045:17051   */\n      dup3\n        /* \"#utility.yul\":17038:17042   */\n      0x20\n        /* \"#utility.yul\":17030:17036   */\n      dup7\n        /* \"#utility.yul\":17026:17043   */\n      add\n        /* \"#utility.yul\":16968:17057   */\n      tag_235\n      jump\t// in\n    tag_444:\n        /* \"#utility.yul\":16959:17057   */\n      swap2\n      pop\n        /* \"#utility.yul\":16782:17063   */\n      pop\n        /* \"#utility.yul\":16710:17063   */\n      swap3\n      swap2\n      pop\n      pop\n      jump\t// out\n        /* \"#utility.yul\":17069:17591   */\n    tag_39:\n        /* \"#utility.yul\":17148:17154   */\n      0x00\n        /* \"#utility.yul\":17197:17199   */\n      0x20\n        /* \"#utility.yul\":17185:17194   */\n      dup3\n        /* \"#utility.yul\":17176:17183   */\n      dup5\n        /* \"#utility.yul\":17172:17195   */\n      sub\n        /* \"#utility.yul\":17168:17200   */\n      slt\n        /* \"#utility.yul\":17165:17284   */\n      iszero\n      tag_446\n      jumpi\n        /* \"#utility.yul\":17203:17282   */\n      tag_447\n      tag_198\n      jump\t// in\n    tag_447:\n        /* \"#utility.yul\":17165:17284   */\n    tag_446:\n        /* \"#utility.yul\":17344:17345   */\n      0x00\n        /* \"#utility.yul\":17333:17342   */\n      dup3\n        /* \"#utility.yul\":17329:17346   */\n      add\n        /* \"#utility.yul\":17323:17347   */\n      mload\n        /* \"#utility.yul\":17374:17392   */\n      0xffffffffffffffff\n        /* \"#utility.yul\":17366:17372   */\n      dup2\n        /* \"#utility.yul\":17363:17393   */\n      gt\n        /* \"#utility.yul\":17360:17477   */\n      iszero\n      tag_448\n      jumpi\n        /* \"#utility.yul\":17396:17475   */\n      tag_449\n      tag_199\n      jump\t// in\n    tag_449:\n        /* \"#utility.yul\":17360:17477   */\n    tag_448:\n        /* \"#utility.yul\":17501:17574   */\n      tag_450\n        /* \"#utility.yul\":17566:17573   */\n      dup5\n        /* \"#utility.yul\":17557:17563   */\n      dup3\n        /* \"#utility.yul\":17546:17555   */\n      dup6\n        /* \"#utility.yul\":17542:17564   */\n      add\n        /* \"#utility.yul\":17501:17574   */\n      tag_236\n      jump\t// in\n    tag_450:\n        /* \"#utility.yul\":17491:17574   */\n      swap2\n      pop\n        /* \"#utility.yul\":17294:17584   */\n      pop\n        /* \"#utility.yul\":17069:17591   */\n      swap3\n      swap2\n      pop\n      pop\n      jump\t// out\n        /* \"#utility.yul\":17597:17745   */\n    tag_237:\n        /* \"#utility.yul\":17699:17710   */\n      0x00\n        /* \"#utility.yul\":17736:17739   */\n      dup2\n        /* \"#utility.yul\":17721:17739   */\n      swap1\n      pop\n        /* \"#utility.yul\":17597:17745   */\n      swap3\n      swap2\n      pop\n      pop\n      jump\t// out\n        /* \"#utility.yul\":17751:18141   */\n    tag_238:\n        /* \"#utility.yul\":17857:17860   */\n      0x00\n        /* \"#utility.yul\":17885:17924   */\n      tag_453\n        /* \"#utility.yul\":17918:17923   */\n      dup3\n        /* \"#utility.yul\":17885:17924   */\n      tag_212\n      jump\t// in\n    tag_453:\n        /* \"#utility.yul\":17940:18029   */\n      tag_454\n        /* \"#utility.yul\":18022:18028   */\n      dup2\n        /* \"#utility.yul\":18017:18020   */\n      dup6\n        /* \"#utility.yul\":17940:18029   */\n      tag_237\n      jump\t// in\n    tag_454:\n        /* \"#utility.yul\":17933:18029   */\n      swap4\n      pop\n        /* \"#utility.yul\":18038:18103   */\n      tag_455\n        /* \"#utility.yul\":18096:18102   */\n      dup2\n        /* \"#utility.yul\":18091:18094   */\n      dup6\n        /* \"#utility.yul\":18084:18088   */\n      0x20\n        /* \"#utility.yul\":18077:18082   */\n      dup7\n        /* \"#utility.yul\":18073:18089   */\n      add\n        /* \"#utility.yul\":18038:18103   */\n      tag_214\n      jump\t// in\n    tag_455:\n        /* \"#utility.yul\":18128:18134   */\n      dup1\n        /* \"#utility.yul\":18123:18126   */\n      dup5\n        /* \"#utility.yul\":18119:18135   */\n      add\n        /* \"#utility.yul\":18112:18135   */\n      swap2\n      pop\n        /* \"#utility.yul\":17861:18141   */\n      pop\n        /* \"#utility.yul\":17751:18141   */\n      swap3\n      swap2\n      pop\n      pop\n      jump\t// out\n        /* \"#utility.yul\":18147:18422   */\n    tag_87:\n        /* \"#utility.yul\":18279:18282   */\n      0x00\n        /* \"#utility.yul\":18301:18396   */\n      tag_457\n        /* \"#utility.yul\":18392:18395   */\n      dup3\n        /* \"#utility.yul\":18383:18389   */\n      dup5\n        /* \"#utility.yul\":18301:18396   */\n      tag_238\n      jump\t// in\n    tag_457:\n        /* \"#utility.yul\":18294:18396   */\n      swap2\n      pop\n        /* \"#utility.yul\":18413:18416   */\n      dup2\n        /* \"#utility.yul\":18406:18416   */\n      swap1\n      pop\n        /* \"#utility.yul\":18147:18422   */\n      swap3\n      swap2\n      pop\n      pop\n      jump\t// out\n        /* \"#utility.yul\":18428:18507   */\n    tag_239:\n        /* \"#utility.yul\":18467:18474   */\n      0x00\n        /* \"#utility.yul\":18496:18501   */\n      dup2\n        /* \"#utility.yul\":18485:18501   */\n      swap1\n      pop\n        /* \"#utility.yul\":18428:18507   */\n      swap2\n      swap1\n      pop\n      jump\t// out\n        /* \"#utility.yul\":18513:18670   */\n    tag_240:\n        /* \"#utility.yul\":18618:18663   */\n      tag_460\n        /* \"#utility.yul\":18638:18662   */\n      tag_461\n        /* \"#utility.yul\":18656:18661   */\n      dup3\n        /* \"#utility.yul\":18638:18662   */\n      tag_200\n      jump\t// in\n    tag_461:\n        /* \"#utility.yul\":18618:18663   */\n      tag_239\n      jump\t// in\n    tag_460:\n        /* \"#utility.yul\":18613:18616   */\n      dup3\n        /* \"#utility.yul\":18606:18664   */\n      mstore\n        /* \"#utility.yul\":18513:18670   */\n      pop\n      pop\n      jump\t// out\n        /* \"#utility.yul\":18676:18932   */\n    tag_89:\n        /* \"#utility.yul\":18788:18791   */\n      0x00\n        /* \"#utility.yul\":18803:18878   */\n      tag_463\n        /* \"#utility.yul\":18874:18877   */\n      dup3\n        /* \"#utility.yul\":18865:18871   */\n      dup5\n        /* \"#utility.yul\":18803:18878   */\n      tag_240\n      jump\t// in\n    tag_463:\n        /* \"#utility.yul\":18903:18905   */\n      0x20\n        /* \"#utility.yul\":18898:18901   */\n      dup3\n        /* \"#utility.yul\":18894:18906   */\n      add\n        /* \"#utility.yul\":18887:18906   */\n      swap2\n      pop\n        /* \"#utility.yul\":18923:18926   */\n      dup2\n        /* \"#utility.yul\":18916:18926   */\n      swap1\n      pop\n        /* \"#utility.yul\":18676:18932   */\n      swap3\n      swap2\n      pop\n      pop\n      jump\t// out\n        /* \"#utility.yul\":18938:19079   */\n    tag_241:\n        /* \"#utility.yul\":18987:18991   */\n      0x00\n        /* \"#utility.yul\":19010:19013   */\n      dup2\n        /* \"#utility.yul\":19002:19013   */\n      swap1\n      pop\n        /* \"#utility.yul\":19033:19036   */\n      dup2\n        /* \"#utility.yul\":19030:19031   */\n      0x00\n        /* \"#utility.yul\":19023:19037   */\n      mstore\n        /* \"#utility.yul\":19067:19071   */\n      0x20\n        /* \"#utility.yul\":19064:19065   */\n      0x00\n        /* \"#utility.yul\":19054:19072   */\n      keccak256\n        /* \"#utility.yul\":19046:19072   */\n      swap1\n      pop\n        /* \"#utility.yul\":18938:19079   */\n      swap2\n      swap1\n      pop\n      jump\t// out\n        /* \"#utility.yul\":19085:19178   */\n    tag_242:\n        /* \"#utility.yul\":19122:19128   */\n      0x00\n        /* \"#utility.yul\":19169:19171   */\n      0x20\n        /* \"#utility.yul\":19164:19166   */\n      0x1f\n        /* \"#utility.yul\":19157:19162   */\n      dup4\n        /* \"#utility.yul\":19153:19167   */\n      add\n        /* \"#utility.yul\":19149:19172   */\n      div\n        /* \"#utility.yul\":19139:19172   */\n      swap1\n      pop\n        /* \"#utility.yul\":19085:19178   */\n      swap2\n      swap1\n      pop\n      jump\t// out\n        /* \"#utility.yul\":19184:19291   */\n    tag_243:\n        /* \"#utility.yul\":19228:19236   */\n      0x00\n        /* \"#utility.yul\":19278:19283   */\n      dup3\n        /* \"#utility.yul\":19272:19276   */\n      dup3\n        /* \"#utility.yul\":19268:19284   */\n      shl\n        /* \"#utility.yul\":19247:19284   */\n      swap1\n      pop\n        /* \"#utility.yul\":19184:19291   */\n      swap3\n      swap2\n      pop\n      pop\n      jump\t// out\n        /* \"#utility.yul\":19297:19690   */\n    tag_244:\n        /* \"#utility.yul\":19366:19372   */\n      0x00\n        /* \"#utility.yul\":19416:19417   */\n      0x08\n        /* \"#utility.yul\":19404:19414   */\n      dup4\n        /* \"#utility.yul\":19400:19418   */\n      mul\n        /* \"#utility.yul\":19439:19536   */\n      tag_468\n        /* \"#utility.yul\":19469:19535   */\n      0xffffffffffffffffffffffffffffffffffffffffffffffffffffffffffffffff\n        /* \"#utility.yul\":19458:19467   */\n      dup3\n        /* \"#utility.yul\":19439:19536   */\n      tag_243\n      jump\t// in\n    tag_468:\n        /* \"#utility.yul\":19557:19596   */\n      tag_469\n        /* \"#utility.yul\":19587:19595   */\n      dup7\n        /* \"#utility.yul\":19576:19585   */\n      dup4\n        /* \"#utility.yul\":19557:19596   */\n      tag_243\n      jump\t// in\n    tag_469:\n        /* \"#utility.yul\":19545:19596   */\n      swap6\n      pop\n        /* \"#utility.yul\":19629:19633   */\n      dup1\n        /* \"#utility.yul\":19625:19634   */\n      not\n        /* \"#utility.yul\":19618:19623   */\n      dup5\n        /* \"#utility.yul\":19614:19635   */\n      and\n        /* \"#utility.yul\":19605:19635   */\n      swap4\n      pop\n        /* \"#utility.yul\":19678:19682   */\n      dup1\n        /* \"#utility.yul\":19668:19676   */\n      dup7\n        /* \"#utility.yul\":19664:19683   */\n      and\n        /* \"#utility.yul\":19657:19662   */\n      dup5\n        /* \"#utility.yul\":19654:19684   */\n      or\n        /* \"#utility.yul\":19644:19684   */\n      swap3\n      pop\n        /* \"#utility.yul\":19373:19690   */\n      pop\n      pop\n        /* \"#utility.yul\":19297:19690   */\n      swap4\n      swap3\n      pop\n      pop\n      pop\n      jump\t// out\n        /* \"#utility.yul\":19696:19773   */\n    tag_245:\n        /* \"#utility.yul\":19733:19740   */\n      0x00\n        /* \"#utility.yul\":19762:19767   */\n      dup2\n        /* \"#utility.yul\":19751:19767   */\n      swap1\n      pop\n        /* \"#utility.yul\":19696:19773   */\n      swap2\n      swap1\n      pop\n      jump\t// out\n        /* \"#utility.yul\":19779:19839   */\n    tag_246:\n        /* \"#utility.yul\":19807:19810   */\n      0x00\n        /* \"#utility.yul\":19828:19833   */\n      dup2\n        /* \"#utility.yul\":19821:19833   */\n      swap1\n      pop\n        /* \"#utility.yul\":19779:19839   */\n      swap2\n      swap1\n      pop\n      jump\t// out\n        /* \"#utility.yul\":19845:19987   */\n    tag_247:\n        /* \"#utility.yul\":19895:19904   */\n      0x00\n        /* \"#utility.yul\":19928:19981   */\n      tag_473\n        /* \"#utility.yul\":19946:19980   */\n      tag_474\n        /* \"#utility.yul\":19955:19979   */\n      tag_475\n        /* \"#utility.yul\":19973:19978   */\n      dup5\n        /* \"#utility.yul\":19955:19979   */\n      tag_245\n      jump\t// in\n    tag_475:\n        /* \"#utility.yul\":19946:19980   */\n      tag_246\n      jump\t// in\n    tag_474:\n        /* \"#utility.yul\":19928:19981   */\n      tag_245\n      jump\t// in\n    tag_473:\n        /* \"#utility.yul\":19915:19981   */\n      swap1\n      pop\n        /* \"#utility.yul\":19845:19987   */\n      swap2\n      swap1\n      pop\n      jump\t// out\n        /* \"#utility.yul\":19993:20068   */\n    tag_248:\n        /* \"#utility.yul\":20036:20039   */\n      0x00\n        /* \"#utility.yul\":20057:20062   */\n      dup2\n        /* \"#utility.yul\":20050:20062   */\n      swap1\n      pop\n        /* \"#utility.yul\":19993:20068   */\n      swap2\n      swap1\n      pop\n      jump\t// out\n        /* \"#utility.yul\":20074:20343   */\n    tag_249:\n        /* \"#utility.yul\":20184:20223   */\n      tag_478\n        /* \"#utility.yul\":20215:20222   */\n      dup4\n        /* \"#utility.yul\":20184:20223   */\n      tag_247\n      jump\t// in\n    tag_478:\n        /* \"#utility.yul\":20245:20336   */\n      tag_479\n        /* \"#utility.yul\":20294:20335   */\n      tag_480\n        /* \"#utility.yul\":20318:20334   */\n      dup3\n        /* \"#utility.yul\":20294:20335   */\n      tag_248\n      jump\t// in\n    tag_480:\n        /* \"#utility.yul\":20286:20292   */\n      dup5\n        /* \"#utility.yul\":20279:20283   */\n      dup5\n        /* \"#utility.yul\":20273:20284   */\n      sload\n        /* \"#utility.yul\":20245:20336   */\n      tag_244\n      jump\t// in\n    tag_479:\n        /* \"#utility.yul\":20239:20243   */\n      dup3\n        /* \"#utility.yul\":20232:20337   */\n      sstore\n        /* \"#utility.yul\":20150:20343   */\n      pop\n        /* \"#utility.yul\":20074:20343   */\n      pop\n      pop\n      pop\n      jump\t// out\n        /* \"#utility.yul\":20349:20422   */\n    tag_250:\n        /* \"#utility.yul\":20394:20397   */\n      0x00\n        /* \"#utility.yul\":20349:20422   */\n      swap1\n      jump\t// out\n        /* \"#utility.yul\":20428:20617   */\n    tag_251:\n        /* \"#utility.yul\":20505:20537   */\n      tag_483\n      tag_250\n      jump\t// in\n    tag_483:\n        /* \"#utility.yul\":20546:20611   */\n      tag_484\n        /* \"#utility.yul\":20604:20610   */\n      dup2\n        /* \"#utility.yul\":20596:20602   */\n      dup5\n        /* \"#utility.yul\":20590:20594   */\n      dup5\n        /* \"#utility.yul\":20546:20611   */\n      tag_249\n      jump\t// in\n    tag_484:\n        /* \"#utility.yul\":20481:20617   */\n      pop\n        /* \"#utility.yul\":20428:20617   */\n      pop\n      pop\n      jump\t// out\n        /* \"#utility.yul\":20623:20809   */\n    tag_252:\n        /* \"#utility.yul\":20683:20803   */\n    tag_486:\n        /* \"#utility.yul\":20700:20703   */\n      dup2\n        /* \"#utility.yul\":20693:20698   */\n      dup2\n        /* \"#utility.yul\":20690:20704   */\n      lt\n        /* \"#utility.yul\":20683:20803   */\n      iszero\n      tag_488\n      jumpi\n        /* \"#utility.yul\":20754:20793   */\n      tag_489\n        /* \"#utility.yul\":20791:20792   */\n      0x00\n        /* \"#utility.yul\":20784:20789   */\n      dup3\n        /* \"#utility.yul\":20754:20793   */\n      tag_251\n      jump\t// in\n    tag_489:\n        /* \"#utility.yul\":20727:20728   */\n      0x01\n        /* \"#utility.yul\":20720:20725   */\n      dup2\n        /* \"#utility.yul\":20716:20729   */\n      add\n        /* \"#utility.yul\":20707:20729   */\n      swap1\n      pop\n        /* \"#utility.yul\":20683:20803   */\n      jump(tag_486)\n    tag_488:\n        /* \"#utility.yul\":20623:20809   */\n      pop\n      pop\n      jump\t// out\n        /* \"#utility.yul\":20815:21358   */\n    tag_253:\n        /* \"#utility.yul\":20916:20918   */\n      0x1f\n        /* \"#utility.yul\":20911:20914   */\n      dup3\n        /* \"#utility.yul\":20908:20919   */\n      gt\n        /* \"#utility.yul\":20905:21351   */\n      iszero\n      tag_491\n      jumpi\n        /* \"#utility.yul\":20950:20988   */\n      tag_492\n        /* \"#utility.yul\":20982:20987   */\n      dup2\n        /* \"#utility.yul\":20950:20988   */\n      tag_241\n      jump\t// in\n    tag_492:\n        /* \"#utility.yul\":21034:21063   */\n      tag_493\n        /* \"#utility.yul\":21052:21062   */\n      dup5\n        /* \"#utility.yul\":21034:21063   */\n      tag_242\n      jump\t// in\n    tag_493:\n        /* \"#utility.yul\":21024:21032   */\n      dup2\n        /* \"#utility.yul\":21020:21064   */\n      add\n        /* \"#utility.yul\":21217:21219   */\n      0x20\n        /* \"#utility.yul\":21205:21215   */\n      dup6\n        /* \"#utility.yul\":21202:21220   */\n      lt\n        /* \"#utility.yul\":21199:21248   */\n      iszero\n      tag_494\n      jumpi\n        /* \"#utility.yul\":21238:21246   */\n      dup2\n        /* \"#utility.yul\":21223:21246   */\n      swap1\n      pop\n        /* \"#utility.yul\":21199:21248   */\n    tag_494:\n        /* \"#utility.yul\":21261:21341   */\n      tag_495\n        /* \"#utility.yul\":21317:21339   */\n      tag_496\n        /* \"#utility.yul\":21335:21338   */\n      dup6\n        /* \"#utility.yul\":21317:21339   */\n      tag_242\n      jump\t// in\n    tag_496:\n        /* \"#utility.yul\":21307:21315   */\n      dup4\n        /* \"#utility.yul\":21303:21340   */\n      add\n        /* \"#utility.yul\":21290:21301   */\n      dup3\n        /* \"#utility.yul\":21261:21341   */\n      tag_252\n      jump\t// in\n    tag_495:\n        /* \"#utility.yul\":20920:21351   */\n      pop\n      pop\n        /* \"#utility.yul\":20905:21351   */\n    tag_491:\n        /* \"#utility.yul\":20815:21358   */\n      pop\n      pop\n      pop\n      jump\t// out\n        /* \"#utility.yul\":21364:21481   */\n    tag_254:\n        /* \"#utility.yul\":21418:21426   */\n      0x00\n        /* \"#utility.yul\":21468:21473   */\n      dup3\n        /* \"#utility.yul\":21462:21466   */\n      dup3\n        /* \"#utility.yul\":21458:21474   */\n      shr\n        /* \"#utility.yul\":21437:21474   */\n      swap1\n      pop\n        /* \"#utility.yul\":21364:21481   */\n      swap3\n      swap2\n      pop\n      pop\n      jump\t// out\n        /* \"#utility.yul\":21487:21656   */\n    tag_255:\n        /* \"#utility.yul\":21531:21537   */\n      0x00\n        /* \"#utility.yul\":21564:21615   */\n      tag_499\n        /* \"#utility.yul\":21612:21613   */\n      0x00\n        /* \"#utility.yul\":21608:21614   */\n      not\n        /* \"#utility.yul\":21600:21605   */\n      dup5\n        /* \"#utility.yul\":21597:21598   */\n      0x08\n        /* \"#utility.yul\":21593:21606   */\n      mul\n        /* \"#utility.yul\":21564:21615   */\n      tag_254\n      jump\t// in\n    tag_499:\n        /* \"#utility.yul\":21560:21616   */\n      not\n        /* \"#utility.yul\":21645:21649   */\n      dup1\n        /* \"#utility.yul\":21639:21643   */\n      dup4\n        /* \"#utility.yul\":21635:21650   */\n      and\n        /* \"#utility.yul\":21625:21650   */\n      swap2\n      pop\n        /* \"#utility.yul\":21538:21656   */\n      pop\n        /* \"#utility.yul\":21487:21656   */\n      swap3\n      swap2\n      pop\n      pop\n      jump\t// out\n        /* \"#utility.yul\":21661:21956   */\n    tag_256:\n        /* \"#utility.yul\":21737:21741   */\n      0x00\n        /* \"#utility.yul\":21883:21912   */\n      tag_501\n        /* \"#utility.yul\":21908:21911   */\n      dup4\n        /* \"#utility.yul\":21902:21906   */\n      dup4\n        /* \"#utility.yul\":21883:21912   */\n      tag_255\n      jump\t// in\n    tag_501:\n        /* \"#utility.yul\":21875:21912   */\n      swap2\n      pop\n        /* \"#utility.yul\":21945:21948   */\n      dup3\n        /* \"#utility.yul\":21942:21943   */\n      0x02\n        /* \"#utility.yul\":21938:21949   */\n      mul\n        /* \"#utility.yul\":21932:21936   */\n      dup3\n        /* \"#utility.yul\":21929:21950   */\n      or\n        /* \"#utility.yul\":21921:21950   */\n      swap1\n      pop\n        /* \"#utility.yul\":21661:21956   */\n      swap3\n      swap2\n      pop\n      pop\n      jump\t// out\n        /* \"#utility.yul\":21961:23356   */\n    tag_93:\n        /* \"#utility.yul\":22078:22115   */\n      tag_503\n        /* \"#utility.yul\":22111:22114   */\n      dup3\n        /* \"#utility.yul\":22078:22115   */\n      tag_212\n      jump\t// in\n    tag_503:\n        /* \"#utility.yul\":22180:22198   */\n      0xffffffffffffffff\n        /* \"#utility.yul\":22172:22178   */\n      dup2\n        /* \"#utility.yul\":22169:22199   */\n      gt\n        /* \"#utility.yul\":22166:22222   */\n      iszero\n      tag_504\n      jumpi\n        /* \"#utility.yul\":22202:22220   */\n      tag_505\n      tag_169\n      jump\t// in\n    tag_505:\n        /* \"#utility.yul\":22166:22222   */\n    tag_504:\n        /* \"#utility.yul\":22246:22284   */\n      tag_506\n        /* \"#utility.yul\":22278:22282   */\n      dup3\n        /* \"#utility.yul\":22272:22283   */\n      sload\n        /* \"#utility.yul\":22246:22284   */\n      tag_28\n      jump\t// in\n    tag_506:\n        /* \"#utility.yul\":22331:22398   */\n      tag_507\n        /* \"#utility.yul\":22391:22397   */\n      dup3\n        /* \"#utility.yul\":22383:22389   */\n      dup3\n        /* \"#utility.yul\":22377:22381   */\n      dup6\n        /* \"#utility.yul\":22331:22398   */\n      tag_253\n      jump\t// in\n    tag_507:\n        /* \"#utility.yul\":22425:22426   */\n      0x00\n        /* \"#utility.yul\":22449:22453   */\n      0x20\n        /* \"#utility.yul\":22436:22453   */\n      swap1\n      pop\n        /* \"#utility.yul\":22481:22483   */\n      0x1f\n        /* \"#utility.yul\":22473:22479   */\n      dup4\n        /* \"#utility.yul\":22470:22484   */\n      gt\n        /* \"#utility.yul\":22498:22499   */\n      0x01\n        /* \"#utility.yul\":22493:23111   */\n      dup2\n      eq\n      tag_509\n      jumpi\n        /* \"#utility.yul\":23155:23156   */\n      0x00\n        /* \"#utility.yul\":23172:23178   */\n      dup5\n        /* \"#utility.yul\":23169:23246   */\n      iszero\n      tag_510\n      jumpi\n        /* \"#utility.yul\":23221:23230   */\n      dup3\n        /* \"#utility.yul\":23216:23219   */\n      dup8\n        /* \"#utility.yul\":23212:23231   */\n      add\n        /* \"#utility.yul\":23206:23232   */\n      mload\n        /* \"#utility.yul\":23197:23232   */\n      swap1\n      pop\n        /* \"#utility.yul\":23169:23246   */\n    tag_510:\n        /* \"#utility.yul\":23272:23339   */\n      tag_511\n        /* \"#utility.yul\":23332:23338   */\n      dup6\n        /* \"#utility.yul\":23325:23330   */\n      dup3\n        /* \"#utility.yul\":23272:23339   */\n      tag_256\n      jump\t// in\n    tag_511:\n        /* \"#utility.yul\":23266:23270   */\n      dup7\n        /* \"#utility.yul\":23259:23340   */\n      sstore\n        /* \"#utility.yul\":23128:23350   */\n      pop\n        /* \"#utility.yul\":22463:23350   */\n      jump(tag_508)\n        /* \"#utility.yul\":22493:23111   */\n    tag_509:\n        /* \"#utility.yul\":22545:22549   */\n      0x1f\n        /* \"#utility.yul\":22541:22550   */\n      not\n        /* \"#utility.yul\":22533:22539   */\n      dup5\n        /* \"#utility.yul\":22529:22551   */\n      and\n        /* \"#utility.yul\":22579:22616   */\n      tag_512\n        /* \"#utility.yul\":22611:22615   */\n      dup7\n        /* \"#utility.yul\":22579:22616   */\n      tag_241\n      jump\t// in\n    tag_512:\n        /* \"#utility.yul\":22638:22639   */\n      0x00\n        /* \"#utility.yul\":22652:22860   */\n    tag_513:\n        /* \"#utility.yul\":22666:22673   */\n      dup3\n        /* \"#utility.yul\":22663:22664   */\n      dup2\n        /* \"#utility.yul\":22660:22674   */\n      lt\n        /* \"#utility.yul\":22652:22860   */\n      iszero\n      tag_515\n      jumpi\n        /* \"#utility.yul\":22745:22754   */\n      dup5\n        /* \"#utility.yul\":22740:22743   */\n      dup10\n        /* \"#utility.yul\":22736:22755   */\n      add\n        /* \"#utility.yul\":22730:22756   */\n      mload\n        /* \"#utility.yul\":22722:22728   */\n      dup3\n        /* \"#utility.yul\":22715:22757   */\n      sstore\n        /* \"#utility.yul\":22796:22797   */\n      0x01\n        /* \"#utility.yul\":22788:22794   */\n      dup3\n        /* \"#utility.yul\":22784:22798   */\n      add\n        /* \"#utility.yul\":22774:22798   */\n      swap2\n      pop\n        /* \"#utility.yul\":22843:22845   */\n      0x20\n        /* \"#utility.yul\":22832:22841   */\n      dup6\n        /* \"#utility.yul\":22828:22846   */\n      add\n        /* \"#utility.yul\":22815:22846   */\n      swap5\n      pop\n        /* \"#utility.yul\":22689:22693   */\n      0x20\n        /* \"#utility.yul\":22686:22687   */\n      dup2\n        /* \"#utility.yul\":22682:22694   */\n      add\n        /* \"#utility.yul\":22677:22694   */\n      swap1\n      pop\n        /* \"#utility.yul\":22652:22860   */\n      jump(tag_513)\n    tag_515:\n        /* \"#utility.yul\":22888:22894   */\n      dup7\n        /* \"#utility.yul\":22879:22886   */\n      dup4\n        /* \"#utility.yul\":22876:22895   */\n      lt\n        /* \"#utility.yul\":22873:23052   */\n      iszero\n      tag_516\n      jumpi\n        /* \"#utility.yul\":22946:22955   */\n      dup5\n        /* \"#utility.yul\":22941:22944   */\n      dup10\n        /* \"#utility.yul\":22937:22956   */\n      add\n        /* \"#utility.yul\":22931:22957   */\n      mload\n        /* \"#utility.yul\":22989:23037   */\n      tag_517\n        /* \"#utility.yul\":23031:23035   */\n      0x1f\n        /* \"#utility.yul\":23023:23029   */\n      dup10\n        /* \"#utility.yul\":23019:23036   */\n      and\n        /* \"#utility.yul\":23008:23017   */\n      dup3\n        /* \"#utility.yul\":22989:23037   */\n      tag_255\n      jump\t// in\n    tag_517:\n        /* \"#utility.yul\":22981:22987   */\n      dup4\n        /* \"#utility.yul\":22974:23038   */\n      sstore\n        /* \"#utility.yul\":22896:23052   */\n      pop\n        /* \"#utility.yul\":22873:23052   */\n    tag_516:\n        /* \"#utility.yul\":23098:23099   */\n      0x01\n        /* \"#utility.yul\":23094:23095   */\n      0x02\n        /* \"#utility.yul\":23086:23092   */\n      dup9\n        /* \"#utility.yul\":23082:23096   */\n      mul\n        /* \"#utility.yul\":23078:23100   */\n      add\n        /* \"#utility.yul\":23072:23076   */\n      dup9\n        /* \"#utility.yul\":23065:23101   */\n      sstore\n        /* \"#utility.yul\":22500:23111   */\n      pop\n      pop\n      pop\n        /* \"#utility.yul\":22463:23350   */\n    tag_508:\n      pop\n        /* \"#utility.yul\":22053:23356   */\n      pop\n      pop\n      pop\n        /* \"#utility.yul\":21961:23356   */\n      pop\n      pop\n      jump\t// out\n        /* \"#utility.yul\":23362:23531   */\n    tag_257:\n        /* \"#utility.yul\":23446:23457   */\n      0x00\n        /* \"#utility.yul\":23480:23486   */\n      dup3\n        /* \"#utility.yul\":23475:23478   */\n      dup3\n        /* \"#utility.yul\":23468:23487   */\n      mstore\n        /* \"#utility.yul\":23520:23524   */\n      0x20\n        /* \"#utility.yul\":23515:23518   */\n      dup3\n        /* \"#utility.yul\":23511:23525   */\n      add\n        /* \"#utility.yul\":23496:23525   */\n      swap1\n      pop\n        /* \"#utility.yul\":23362:23531   */\n      swap3\n      swap2\n      pop\n      pop\n      jump\t// out\n        /* \"#utility.yul\":23537:23707   */\n    tag_258:\n        /* \"#utility.yul\":23677:23699   */\n      0x496e76616c696420636f6d70616e792074797065000000000000000000000000\n        /* \"#utility.yul\":23673:23674   */\n      0x00\n        /* \"#utility.yul\":23665:23671   */\n      dup3\n        /* \"#utility.yul\":23661:23675   */\n      add\n        /* \"#utility.yul\":23654:23700   */\n      mstore\n        /* \"#utility.yul\":23537:23707   */\n      pop\n      jump\t// out\n        /* \"#utility.yul\":23713:24079   */\n    tag_259:\n        /* \"#utility.yul\":23855:23858   */\n      0x00\n        /* \"#utility.yul\":23876:23943   */\n      tag_521\n        /* \"#utility.yul\":23940:23942   */\n      0x14\n        /* \"#utility.yul\":23935:23938   */\n      dup4\n        /* \"#utility.yul\":23876:23943   */\n      tag_257\n      jump\t// in\n    tag_521:\n        /* \"#utility.yul\":23869:23943   */\n      swap2\n      pop\n        /* \"#utility.yul\":23952:24045   */\n      tag_522\n        /* \"#utility.yul\":24041:24044   */\n      dup3\n        /* \"#utility.yul\":23952:24045   */\n      tag_258\n      jump\t// in\n    tag_522:\n        /* \"#utility.yul\":24070:24072   */\n      0x20\n        /* \"#utility.yul\":24065:24068   */\n      dup3\n        /* \"#utility.yul\":24061:24073   */\n      add\n        /* \"#utility.yul\":24054:24073   */\n      swap1\n      pop\n        /* \"#utility.yul\":23713:24079   */\n      swap2\n      swap1\n      pop\n      jump\t// out\n        /* \"#utility.yul\":24085:24504   */\n    tag_102:\n        /* \"#utility.yul\":24251:24255   */\n      0x00\n        /* \"#utility.yul\":24289:24291   */\n      0x20\n        /* \"#utility.yul\":24278:24287   */\n      dup3\n        /* \"#utility.yul\":24274:24292   */\n      add\n        /* \"#utility.yul\":24266:24292   */\n      swap1\n      pop\n        /* \"#utility.yul\":24338:24347   */\n      dup2\n        /* \"#utility.yul\":24332:24336   */\n      dup2\n        /* \"#utility.yul\":24328:24348   */\n      sub\n        /* \"#utility.yul\":24324:24325   */\n      0x00\n        /* \"#utility.yul\":24313:24322   */\n      dup4\n        /* \"#utility.yul\":24309:24326   */\n      add\n        /* \"#utility.yul\":24302:24349   */\n      mstore\n        /* \"#utility.yul\":24366:24497   */\n      tag_524\n        /* \"#utility.yul\":24492:24496   */\n      dup2\n        /* \"#utility.yul\":24366:24497   */\n      tag_259\n      jump\t// in\n    tag_524:\n        /* \"#utility.yul\":24358:24497   */\n      swap1\n      pop\n        /* \"#utility.yul\":24085:24504   */\n      swap2\n      swap1\n      pop\n      jump\t// out\n        /* \"#utility.yul\":24510:24671   */\n    tag_260:\n        /* \"#utility.yul\":24650:24663   */\n      0x496e76616c69642053534e000000000000000000000000000000000000000000\n        /* \"#utility.yul\":24646:24647   */\n      0x00\n        /* \"#utility.yul\":24638:24644   */\n      dup3\n        /* \"#utility.yul\":24634:24648   */\n      add\n        /* \"#utility.yul\":24627:24664   */\n      mstore\n        /* \"#utility.yul\":24510:24671   */\n      pop\n      jump\t// out\n        /* \"#utility.yul\":24677:25043   */\n    tag_261:\n        /* \"#utility.yul\":24819:24822   */\n      0x00\n        /* \"#utility.yul\":24840:24907   */\n      tag_527\n        /* \"#utility.yul\":24904:24906   */\n      0x0b\n        /* \"#utility.yul\":24899:24902   */\n      dup4\n        /* \"#utility.yul\":24840:24907   */\n      tag_257\n      jump\t// in\n    tag_527:\n        /* \"#utility.yul\":24833:24907   */\n      swap2\n      pop\n        /* \"#utility.yul\":24916:25009   */\n      tag_528\n        /* \"#utility.yul\":25005:25008   */\n      dup3\n        /* \"#utility.yul\":24916:25009   */\n      tag_260\n      jump\t// in\n    tag_528:\n        /* \"#utility.yul\":25034:25036   */\n      0x20\n        /* \"#utility.yul\":25029:25032   */\n      dup3\n        /* \"#utility.yul\":25025:25037   */\n      add\n        /* \"#utility.yul\":25018:25037   */\n      swap1\n      pop\n        /* \"#utility.yul\":24677:25043   */\n      swap2\n      swap1\n      pop\n      jump\t// out\n        /* \"#utility.yul\":25049:25468   */\n    tag_105:\n        /* \"#utility.yul\":25215:25219   */\n      0x00\n        /* \"#utility.yul\":25253:25255   */\n      0x20\n        /* \"#utility.yul\":25242:25251   */\n      dup3\n        /* \"#utility.yul\":25238:25256   */\n      add\n        /* \"#utility.yul\":25230:25256   */\n      swap1\n      pop\n        /* \"#utility.yul\":25302:25311   */\n      dup2\n        /* \"#utility.yul\":25296:25300   */\n      dup2\n        /* \"#utility.yul\":25292:25312   */\n      sub\n        /* \"#utility.yul\":25288:25289   */\n      0x00\n        /* \"#utility.yul\":25277:25286   */\n      dup4\n        /* \"#utility.yul\":25273:25290   */\n      add\n        /* \"#utility.yul\":25266:25313   */\n      mstore\n        /* \"#utility.yul\":25330:25461   */\n      tag_530\n        /* \"#utility.yul\":25456:25460   */\n      dup2\n        /* \"#utility.yul\":25330:25461   */\n      tag_261\n      jump\t// in\n    tag_530:\n        /* \"#utility.yul\":25322:25461   */\n      swap1\n      pop\n        /* \"#utility.yul\":25049:25468   */\n      swap2\n      swap1\n      pop\n      jump\t// out\n        /* \"#utility.yul\":25474:25636   */\n    tag_262:\n        /* \"#utility.yul\":25614:25628   */\n      0x496e76616c6964206e616d650000000000000000000000000000000000000000\n        /* \"#utility.yul\":25610:25611   */\n      0x00\n        /* \"#utility.yul\":25602:25608   */\n      dup3\n        /* \"#utility.yul\":25598:25612   */\n      add\n        /* \"#utility.yul\":25591:25629   */\n      mstore\n        /* \"#utility.yul\":25474:25636   */\n      pop\n      jump\t// out\n        /* \"#utility.yul\":25642:26008   */\n    tag_263:\n        /* \"#utility.yul\":25784:25787   */\n      0x00\n        /* \"#utility.yul\":25805:25872   */\n      tag_533\n        /* \"#utility.yul\":25869:25871   */\n      0x0c\n        /* \"#utility.yul\":25864:25867   */\n      dup4\n        /* \"#utility.yul\":25805:25872   */\n      tag_257\n      jump\t// in\n    tag_533:\n        /* \"#utility.yul\":25798:25872   */\n      swap2\n      pop\n        /* \"#utility.yul\":25881:25974   */\n      tag_534\n        /* \"#utility.yul\":25970:25973   */\n      dup3\n        /* \"#utility.yul\":25881:25974   */\n      tag_262\n      jump\t// in\n    tag_534:\n        /* \"#utility.yul\":25999:26001   */\n      0x20\n        /* \"#utility.yul\":25994:25997   */\n      dup3\n        /* \"#utility.yul\":25990:26002   */\n      add\n        /* \"#utility.yul\":25983:26002   */\n      swap1\n      pop\n        /* \"#utility.yul\":25642:26008   */\n      swap2\n      swap1\n      pop\n      jump\t// out\n        /* \"#utility.yul\":26014:26433   */\n    tag_108:\n        /* \"#utility.yul\":26180:26184   */\n      0x00\n        /* \"#utility.yul\":26218:26220   */\n      0x20\n        /* \"#utility.yul\":26207:26216   */\n      dup3\n        /* \"#utility.yul\":26203:26221   */\n      add\n        /* \"#utility.yul\":26195:26221   */\n      swap1\n      pop\n        /* \"#utility.yul\":26267:26276   */\n      dup2\n        /* \"#utility.yul\":26261:26265   */\n      dup2\n        /* \"#utility.yul\":26257:26277   */\n      sub\n        /* \"#utility.yul\":26253:26254   */\n      0x00\n        /* \"#utility.yul\":26242:26251   */\n      dup4\n        /* \"#utility.yul\":26238:26255   */\n      add\n        /* \"#utility.yul\":26231:26278   */\n      mstore\n        /* \"#utility.yul\":26295:26426   */\n      tag_536\n        /* \"#utility.yul\":26421:26425   */\n      dup2\n        /* \"#utility.yul\":26295:26426   */\n      tag_263\n      jump\t// in\n    tag_536:\n        /* \"#utility.yul\":26287:26426   */\n      swap1\n      pop\n        /* \"#utility.yul\":26014:26433   */\n      swap2\n      swap1\n      pop\n      jump\t// out\n        /* \"#utility.yul\":26439:26604   */\n    tag_264:\n        /* \"#utility.yul\":26579:26596   */\n      0x496e76616c696420616464726573730000000000000000000000000000000000\n        /* \"#utility.yul\":26575:26576   */\n      0x00\n        /* \"#utility.yul\":26567:26573   */\n      dup3\n        /* \"#utility.yul\":26563:26577   */\n      add\n        /* \"#utility.yul\":26556:26597   */\n      mstore\n        /* \"#utility.yul\":26439:26604   */\n      pop\n      jump\t// out\n        /* \"#utility.yul\":26610:26976   */\n    tag_265:\n        /* \"#utility.yul\":26752:26755   */\n      0x00\n        /* \"#utility.yul\":26773:26840   */\n      tag_539\n        /* \"#utility.yul\":26837:26839   */\n      0x0f\n        /* \"#utility.yul\":26832:26835   */\n      dup4\n        /* \"#utility.yul\":26773:26840   */\n      tag_257\n      jump\t// in\n    tag_539:\n        /* \"#utility.yul\":26766:26840   */\n      swap2\n      pop\n        /* \"#utility.yul\":26849:26942   */\n      tag_540\n        /* \"#utility.yul\":26938:26941   */\n      dup3\n        /* \"#utility.yul\":26849:26942   */\n      tag_264\n      jump\t// in\n    tag_540:\n        /* \"#utility.yul\":26967:26969   */\n      0x20\n        /* \"#utility.yul\":26962:26965   */\n      dup3\n        /* \"#utility.yul\":26958:26970   */\n      add\n        /* \"#utility.yul\":26951:26970   */\n      swap1\n      pop\n        /* \"#utility.yul\":26610:26976   */\n      swap2\n      swap1\n      pop\n      jump\t// out\n        /* \"#utility.yul\":26982:27401   */\n    tag_111:\n        /* \"#utility.yul\":27148:27152   */\n      0x00\n        /* \"#utility.yul\":27186:27188   */\n      0x20\n        /* \"#utility.yul\":27175:27184   */\n      dup3\n        /* \"#utility.yul\":27171:27189   */\n      add\n        /* \"#utility.yul\":27163:27189   */\n      swap1\n      pop\n        /* \"#utility.yul\":27235:27244   */\n      dup2\n        /* \"#utility.yul\":27229:27233   */\n      dup2\n        /* \"#utility.yul\":27225:27245   */\n      sub\n        /* \"#utility.yul\":27221:27222   */\n      0x00\n        /* \"#utility.yul\":27210:27219   */\n      dup4\n        /* \"#utility.yul\":27206:27223   */\n      add\n        /* \"#utility.yul\":27199:27246   */\n      mstore\n        /* \"#utility.yul\":27263:27394   */\n      tag_542\n        /* \"#utility.yul\":27389:27393   */\n      dup2\n        /* \"#utility.yul\":27263:27394   */\n      tag_265\n      jump\t// in\n    tag_542:\n        /* \"#utility.yul\":27255:27394   */\n      swap1\n      pop\n        /* \"#utility.yul\":26982:27401   */\n      swap2\n      swap1\n      pop\n      jump\t// out\n        /* \"#utility.yul\":27407:27575   */\n    tag_266:\n        /* \"#utility.yul\":27547:27567   */\n      0x50617373776f726420746f6f2073686f72740000000000000000000000000000\n        /* \"#utility.yul\":27543:27544   */\n      0x00\n        /* \"#utility.yul\":27535:27541   */\n      dup3\n        /* \"#utility.yul\":27531:27545   */\n      add\n        /* \"#utility.yul\":27524:27568   */\n      mstore\n        /* \"#utility.yul\":27407:27575   */\n      pop\n      jump\t// out\n        /* \"#utility.yul\":27581:27947   */\n    tag_267:\n        /* \"#utility.yul\":27723:27726   */\n      0x00\n        /* \"#utility.yul\":27744:27811   */\n      tag_545\n        /* \"#utility.yul\":27808:27810   */\n      0x12\n        /* \"#utility.yul\":27803:27806   */\n      dup4\n        /* \"#utility.yul\":27744:27811   */\n      tag_257\n      jump\t// in\n    tag_545:\n        /* \"#utility.yul\":27737:27811   */\n      swap2\n      pop\n        /* \"#utility.yul\":27820:27913   */\n      tag_546\n        /* \"#utility.yul\":27909:27912   */\n      dup3\n        /* \"#utility.yul\":27820:27913   */\n      tag_266\n      jump\t// in\n    tag_546:\n        /* \"#utility.yul\":27938:27940   */\n      0x20\n        /* \"#utility.yul\":27933:27936   */\n      dup3\n        /* \"#utility.yul\":27929:27941   */\n      add\n        /* \"#utility.yul\":27922:27941   */\n      swap1\n      pop\n        /* \"#utility.yul\":27581:27947   */\n      swap2\n      swap1\n      pop\n      jump\t// out\n        /* \"#utility.yul\":27953:28372   */\n    tag_114:\n        /* \"#utility.yul\":28119:28123   */\n      0x00\n        /* \"#utility.yul\":28157:28159   */\n      0x20\n        /* \"#utility.yul\":28146:28155   */\n      dup3\n        /* \"#utility.yul\":28142:28160   */\n      add\n        /* \"#utility.yul\":28134:28160   */\n      swap1\n      pop\n        /* \"#utility.yul\":28206:28215   */\n      dup2\n        /* \"#utility.yul\":28200:28204   */\n      dup2\n        /* \"#utility.yul\":28196:28216   */\n      sub\n        /* \"#utility.yul\":28192:28193   */\n      0x00\n        /* \"#utility.yul\":28181:28190   */\n      dup4\n        /* \"#utility.yul\":28177:28194   */\n      add\n        /* \"#utility.yul\":28170:28217   */\n      mstore\n        /* \"#utility.yul\":28234:28365   */\n      tag_548\n        /* \"#utility.yul\":28360:28364   */\n      dup2\n        /* \"#utility.yul\":28234:28365   */\n      tag_267\n      jump\t// in\n    tag_548:\n        /* \"#utility.yul\":28226:28365   */\n      swap1\n      pop\n        /* \"#utility.yul\":27953:28372   */\n      swap2\n      swap1\n      pop\n      jump\t// out\n        /* \"#utility.yul\":28378:28550   */\n    tag_268:\n        /* \"#utility.yul\":28518:28542   */\n      0x50686f6e65206e756d62657220746f6f2073686f727400000000000000000000\n        /* \"#utility.yul\":28514:28515   */\n      0x00\n        /* \"#utility.yul\":28506:28512   */\n      dup3\n        /* \"#utility.yul\":28502:28516   */\n      add\n        /* \"#utility.yul\":28495:28543   */\n      mstore\n        /* \"#utility.yul\":28378:28550   */\n      pop\n      jump\t// out\n        /* \"#utility.yul\":28556:28922   */\n    tag_269:\n        /* \"#utility.yul\":28698:28701   */\n      0x00\n        /* \"#utility.yul\":28719:28786   */\n      tag_551\n        /* \"#utility.yul\":28783:28785   */\n      0x16\n        /* \"#utility.yul\":28778:28781   */\n      dup4\n        /* \"#utility.yul\":28719:28786   */\n      tag_257\n      jump\t// in\n    tag_551:\n        /* \"#utility.yul\":28712:28786   */\n      swap2\n      pop\n        /* \"#utility.yul\":28795:28888   */\n      tag_552\n        /* \"#utility.yul\":28884:28887   */\n      dup3\n        /* \"#utility.yul\":28795:28888   */\n      tag_268\n      jump\t// in\n    tag_552:\n        /* \"#utility.yul\":28913:28915   */\n      0x20\n        /* \"#utility.yul\":28908:28911   */\n      dup3\n        /* \"#utility.yul\":28904:28916   */\n      add\n        /* \"#utility.yul\":28897:28916   */\n      swap1\n      pop\n        /* \"#utility.yul\":28556:28922   */\n      swap2\n      swap1\n      pop\n      jump\t// out\n        /* \"#utility.yul\":28928:29347   */\n    tag_117:\n        /* \"#utility.yul\":29094:29098   */\n      0x00\n        /* \"#utility.yul\":29132:29134   */\n      0x20\n        /* \"#utility.yul\":29121:29130   */\n      dup3\n        /* \"#utility.yul\":29117:29135   */\n      add\n        /* \"#utility.yul\":29109:29135   */\n      swap1\n      pop\n        /* \"#utility.yul\":29181:29190   */\n      dup2\n        /* \"#utility.yul\":29175:29179   */\n      dup2\n        /* \"#utility.yul\":29171:29191   */\n      sub\n        /* \"#utility.yul\":29167:29168   */\n      0x00\n        /* \"#utility.yul\":29156:29165   */\n      dup4\n        /* \"#utility.yul\":29152:29169   */\n      add\n        /* \"#utility.yul\":29145:29192   */\n      mstore\n        /* \"#utility.yul\":29209:29340   */\n      tag_554\n        /* \"#utility.yul\":29335:29339   */\n      dup2\n        /* \"#utility.yul\":29209:29340   */\n      tag_269\n      jump\t// in\n    tag_554:\n        /* \"#utility.yul\":29201:29340   */\n      swap1\n      pop\n        /* \"#utility.yul\":28928:29347   */\n      swap2\n      swap1\n      pop\n      jump\t// out\n        /* \"#utility.yul\":29353:30428   */\n    tag_121:\n        /* \"#utility.yul\":29725:29728   */\n      0x00\n        /* \"#utility.yul\":29747:29842   */\n      tag_556\n        /* \"#utility.yul\":29838:29841   */\n      dup3\n        /* \"#utility.yul\":29829:29835   */\n      dup10\n        /* \"#utility.yul\":29747:29842   */\n      tag_238\n      jump\t// in\n    tag_556:\n        /* \"#utility.yul\":29740:29842   */\n      swap2\n      pop\n        /* \"#utility.yul\":29859:29954   */\n      tag_557\n        /* \"#utility.yul\":29950:29953   */\n      dup3\n        /* \"#utility.yul\":29941:29947   */\n      dup9\n        /* \"#utility.yul\":29859:29954   */\n      tag_238\n      jump\t// in\n    tag_557:\n        /* \"#utility.yul\":29852:29954   */\n      swap2\n      pop\n        /* \"#utility.yul\":29971:30066   */\n      tag_558\n        /* \"#utility.yul\":30062:30065   */\n      dup3\n        /* \"#utility.yul\":30053:30059   */\n      dup8\n        /* \"#utility.yul\":29971:30066   */\n      tag_238\n      jump\t// in\n    tag_558:\n        /* \"#utility.yul\":29964:30066   */\n      swap2\n      pop\n        /* \"#utility.yul\":30083:30178   */\n      tag_559\n        /* \"#utility.yul\":30174:30177   */\n      dup3\n        /* \"#utility.yul\":30165:30171   */\n      dup7\n        /* \"#utility.yul\":30083:30178   */\n      tag_238\n      jump\t// in\n    tag_559:\n        /* \"#utility.yul\":30076:30178   */\n      swap2\n      pop\n        /* \"#utility.yul\":30195:30290   */\n      tag_560\n        /* \"#utility.yul\":30286:30289   */\n      dup3\n        /* \"#utility.yul\":30277:30283   */\n      dup6\n        /* \"#utility.yul\":30195:30290   */\n      tag_238\n      jump\t// in\n    tag_560:\n        /* \"#utility.yul\":30188:30290   */\n      swap2\n      pop\n        /* \"#utility.yul\":30307:30402   */\n      tag_561\n        /* \"#utility.yul\":30398:30401   */\n      dup3\n        /* \"#utility.yul\":30389:30395   */\n      dup5\n        /* \"#utility.yul\":30307:30402   */\n      tag_238\n      jump\t// in\n    tag_561:\n        /* \"#utility.yul\":30300:30402   */\n      swap2\n      pop\n        /* \"#utility.yul\":30419:30422   */\n      dup2\n        /* \"#utility.yul\":30412:30422   */\n      swap1\n      pop\n        /* \"#utility.yul\":29353:30428   */\n      swap8\n      swap7\n      pop\n      pop\n      pop\n      pop\n      pop\n      pop\n      pop\n      jump\t// out\n        /* \"#utility.yul\":30434:30964   */\n    tag_125:\n        /* \"#utility.yul\":30599:30603   */\n      0x00\n        /* \"#utility.yul\":30637:30639   */\n      0x40\n        /* \"#utility.yul\":30626:30635   */\n      dup3\n        /* \"#utility.yul\":30622:30640   */\n      add\n        /* \"#utility.yul\":30614:30640   */\n      swap1\n      pop\n        /* \"#utility.yul\":30686:30695   */\n      dup2\n        /* \"#utility.yul\":30680:30684   */\n      dup2\n        /* \"#utility.yul\":30676:30696   */\n      sub\n        /* \"#utility.yul\":30672:30673   */\n      0x00\n        /* \"#utility.yul\":30661:30670   */\n      dup4\n        /* \"#utility.yul\":30657:30674   */\n      add\n        /* \"#utility.yul\":30650:30697   */\n      mstore\n        /* \"#utility.yul\":30714:30798   */\n      tag_563\n        /* \"#utility.yul\":30793:30797   */\n      dup2\n        /* \"#utility.yul\":30784:30790   */\n      dup6\n        /* \"#utility.yul\":30714:30798   */\n      tag_233\n      jump\t// in\n    tag_563:\n        /* \"#utility.yul\":30706:30798   */\n      swap1\n      pop\n        /* \"#utility.yul\":30845:30854   */\n      dup2\n        /* \"#utility.yul\":30839:30843   */\n      dup2\n        /* \"#utility.yul\":30835:30855   */\n      sub\n        /* \"#utility.yul\":30830:30832   */\n      0x20\n        /* \"#utility.yul\":30819:30828   */\n      dup4\n        /* \"#utility.yul\":30815:30833   */\n      add\n        /* \"#utility.yul\":30808:30856   */\n      mstore\n        /* \"#utility.yul\":30873:30957   */\n      tag_564\n        /* \"#utility.yul\":30952:30956   */\n      dup2\n        /* \"#utility.yul\":30943:30949   */\n      dup5\n        /* \"#utility.yul\":30873:30957   */\n      tag_233\n      jump\t// in\n    tag_564:\n        /* \"#utility.yul\":30865:30957   */\n      swap1\n      pop\n        /* \"#utility.yul\":30434:30964   */\n      swap4\n      swap3\n      pop\n      pop\n      pop\n      jump\t// out\n        /* \"#utility.yul\":30970:31131   */\n    tag_270:\n        /* \"#utility.yul\":31110:31123   */\n      0x4e6f7420616c6c6f776564000000000000000000000000000000000000000000\n        /* \"#utility.yul\":31106:31107   */\n      0x00\n        /* \"#utility.yul\":31098:31104   */\n      dup3\n        /* \"#utility.yul\":31094:31108   */\n      add\n        /* \"#utility.yul\":31087:31124   */\n      mstore\n        /* \"#utility.yul\":30970:31131   */\n      pop\n      jump\t// out\n        /* \"#utility.yul\":31137:31503   */\n    tag_271:\n        /* \"#utility.yul\":31279:31282   */\n      0x00\n        /* \"#utility.yul\":31300:31367   */\n      tag_567\n        /* \"#utility.yul\":31364:31366   */\n      0x0b\n        /* \"#utility.yul\":31359:31362   */\n      dup4\n        /* \"#utility.yul\":31300:31367   */\n      tag_257\n      jump\t// in\n    tag_567:\n        /* \"#utility.yul\":31293:31367   */\n      swap2\n      pop\n        /* \"#utility.yul\":31376:31469   */\n      tag_568\n        /* \"#utility.yul\":31465:31468   */\n      dup3\n        /* \"#utility.yul\":31376:31469   */\n      tag_270\n      jump\t// in\n    tag_568:\n        /* \"#utility.yul\":31494:31496   */\n      0x20\n        /* \"#utility.yul\":31489:31492   */\n      dup3\n        /* \"#utility.yul\":31485:31497   */\n      add\n        /* \"#utility.yul\":31478:31497   */\n      swap1\n      pop\n        /* \"#utility.yul\":31137:31503   */\n      swap2\n      swap1\n      pop\n      jump\t// out\n        /* \"#utility.yul\":31509:31928   */\n    tag_163:\n        /* \"#utility.yul\":31675:31679   */\n      0x00\n        /* \"#utility.yul\":31713:31715   */\n      0x20\n        /* \"#utility.yul\":31702:31711   */\n      dup3\n        /* \"#utility.yul\":31698:31716   */\n      add\n        /* \"#utility.yul\":31690:31716   */\n      swap1\n      pop\n        /* \"#utility.yul\":31762:31771   */\n      dup2\n        /* \"#utility.yul\":31756:31760   */\n      dup2\n        /* \"#utility.yul\":31752:31772   */\n      sub\n        /* \"#utility.yul\":31748:31749   */\n      0x00\n        /* \"#utility.yul\":31737:31746   */\n      dup4\n        /* \"#utility.yul\":31733:31750   */\n      add\n        /* \"#utility.yul\":31726:31773   */\n      mstore\n        /* \"#utility.yul\":31790:31921   */\n      tag_570\n        /* \"#utility.yul\":31916:31920   */\n      dup2\n        /* \"#utility.yul\":31790:31921   */\n      tag_271\n      jump\t// in\n    tag_570:\n        /* \"#utility.yul\":31782:31921   */\n      swap1\n      pop\n        /* \"#utility.yul\":31509:31928   */\n      swap2\n      swap1\n      pop\n      jump\t// out\n        /* \"#utility.yul\":31934:32114   */\n    tag_175:\n        /* \"#utility.yul\":31982:32059   */\n      0x4e487b7100000000000000000000000000000000000000000000000000000000\n        /* \"#utility.yul\":31979:31980   */\n      0x00\n        /* \"#utility.yul\":31972:32060   */\n      mstore\n        /* \"#utility.yul\":32079:32083   */\n      0x12\n        /* \"#utility.yul\":32076:32077   */\n      0x04\n        /* \"#utility.yul\":32069:32084   */\n      mstore\n        /* \"#utility.yul\":32103:32107   */\n      0x24\n        /* \"#utility.yul\":32100:32101   */\n      0x00\n        /* \"#utility.yul\":32093:32108   */\n      revert\n\n    auxdata: 0xa26469706673582212203ce0367726dd950eea52aa6970ed0ccf8464176ad8a768872c0893339d07f31f64736f6c63430008120033\n}\n",
				"bytecode": {
					"linkReferences": {
						"cypher.sol": {
							"cypher": [
								{
									"length": 20,
									"start": 1139
								},
								{
									"length": 20,
									"start": 1292
								},
								{
									"length": 20,
									"start": 1445
								},
								{
									"length": 20,
									"start": 1657
								},
								{
									"length": 20,
									"start": 4182
								},
								{
									"length": 20,
									"start": 4314
								},
								{
									"length": 20,
									"start": 4446
								},
								{
									"length": 20,
									"start": 4653
								}
							]
						}
					},
					"object": "608060405260008060146101000a81548160ff021916908360ff1602179055506001600060156101000a81548160ff021916908360ff1602179055506002600060166101000a81548160ff021916908360ff1602179055506003600060176101000a81548160ff021916908360ff1602179055506004600060186101000a81548160ff021916908360ff16021790555034801561009b57600080fd5b50336000806101000a81548173ffffffffffffffffffffffffffffffffffffffff021916908373ffffffffffffffffffffffffffffffffffffffff1602179055506128c8806100eb6000396000f3fe6080604052600436106100335760003560e01c8062131c4f14610038578063c28fe9c114610075578063dd64e4ad14610091575b600080fd5b34801561004457600080fd5b5061005f600480360381019061005a91906119ea565b6100c1565b60405161006c9190611c19565b60405180910390f35b61008f600480360381019061008a9190611c67565b610b9d565b005b6100ab60048036038101906100a69190611dc1565b610d4e565b6040516100b89190611f2e565b60405180910390f35b6100c96117f2565b6100d16117f2565b3373ffffffffffffffffffffffffffffffffffffffff166001600086815260200190815260200160002060070160009054906101000a900473ffffffffffffffffffffffffffffffffffffffff1673ffffffffffffffffffffffffffffffffffffffff161461037a576040518061012001604052806040518060400160405280600b81526020017f2a2a2a2a2a2a2a2a2a2a2a00000000000000000000000000000000000000000081525081526020016040518060400160405280600681526020017f2a2a2a2a2a2a000000000000000000000000000000000000000000000000000081525081526020016040518060400160405280600a81526020017f2a2a2a2a2a2a2a2a2a2a0000000000000000000000000000000000000000000081525081526020016040518060400160405280600781526020017f2a2a2a2a2a2a2a0000000000000000000000000000000000000000000000000081525081526020016040518060400160405280600881526020017f2a2a2a2a2a2a2a2a00000000000000000000000000000000000000000000000081525081526020016001600087815260200190815260200160002060050160009054906101000a900460ff1660ff1681526020016001600087815260200190815260200160002060060180546102ba90611f78565b80601f01602080910402602001604051908101604052809291908181526020018280546102e690611f78565b80156103335780601f1061030857610100808354040283529160200191610333565b820191906000526020600020905b81548152906001019060200180831161031657829003601f168201915b505050505081526020013373ffffffffffffffffffffffffffffffffffffffff1681526020016001600087815260200190815260200160002060080154815250905061074e565b60405180610120016040528073__$0394c467ed0fdd19c4eccf25096e0ad40f$__63015cfec760016000898152602001908152602001600020600001876040518363ffffffff1660e01b81526004016103d4929190612097565b600060405180830381865af41580156103f1573d6000803e3d6000fd5b505050506040513d6000823e3d601f19601f8201168201806040525081019061041a919061216f565b815260200173__$0394c467ed0fdd19c4eccf25096e0ad40f$__63015cfec760016000898152602001908152602001600020600101876040518363ffffffff1660e01b815260040161046d929190612097565b600060405180830381865af415801561048a573d6000803e3d6000fd5b505050506040513d6000823e3d601f19601f820116820180604052508101906104b3919061216f565b815260200173__$0394c467ed0fdd19c4eccf25096e0ad40f$__63015cfec760016000898152602001908152602001600020600201876040518363ffffffff1660e01b8152600401610506929190612097565b600060405180830381865af4158015610523573d6000803e3d6000fd5b505050506040513d6000823e3d601f19601f8201168201806040525081019061054c919061216f565b81526020016040518060400160405280600581526020017f2a2a2a2a2a000000000000000000000000000000000000000000000000000000815250815260200173__$0394c467ed0fdd19c4eccf25096e0ad40f$__63015cfec760016000898152602001908152602001600020600401876040518363ffffffff1660e01b81526004016105da929190612097565b600060405180830381865af41580156105f7573d6000803e3d6000fd5b505050506040513d6000823e3d601f19601f82011682018060405250810190610620919061216f565b81526020016001600087815260200190815260200160002060050160009054906101000a900460ff1660ff16815260200160016000878152602001908152602001600020600601805461067290611f78565b80601f016020809104026020016040519081016040528092919081815260200182805461069e90611f78565b80156106eb5780601f106106c0576101008083540402835291602001916106eb565b820191906000526020600020905b8154815290600101906020018083116106ce57829003601f168201915b505050505081526020016001600087815260200190815260200160002060070160009054906101000a900473ffffffffffffffffffffffffffffffffffffffff1673ffffffffffffffffffffffffffffffffffffffff1681526020018581525090505b60006001600086815260200190815260200160002060050160009054906101000a900460ff1660ff161115610b93576040518061012001604052806001600087815260200190815260200160002060000180546107aa90611f78565b80601f01602080910402602001604051908101604052809291908181526020018280546107d690611f78565b80156108235780601f106107f857610100808354040283529160200191610823565b820191906000526020600020905b81548152906001019060200180831161080657829003601f168201915b5050505050815260200160016000878152602001908152602001600020600101805461084e90611f78565b80601f016020809104026020016040519081016040528092919081815260200182805461087a90611f78565b80156108c75780601f1061089c576101008083540402835291602001916108c7565b820191906000526020600020905b8154815290600101906020018083116108aa57829003601f168201915b505050505081526020016001600087815260200190815260200160002060020180546108f290611f78565b80601f016020809104026020016040519081016040528092919081815260200182805461091e90611f78565b801561096b5780601f106109405761010080835404028352916020019161096b565b820191906000526020600020905b81548152906001019060200180831161094e57829003601f168201915b505050505081526020016040518060400160405280600781526020017f2a2a2a2a2a2a2a0000000000000000000000000000000000000000000000000081525081526020016001600087815260200190815260200160002060040180546109d190611f78565b80601f01602080910402602001604051908101604052809291908181526020018280546109fd90611f78565b8015610a4a5780601f10610a1f57610100808354040283529160200191610a4a565b820191906000526020600020905b815481529060010190602001808311610a2d57829003601f168201915b505050505081526020016001600087815260200190815260200160002060050160009054906101000a900460ff1660ff168152602001600160008781526020019081526020016000206006018054610aa190611f78565b80601f0160208091040260200160405190810160405280929190818152602001828054610acd90611f78565b8015610b1a5780601f10610aef57610100808354040283529160200191610b1a565b820191906000526020600020905b815481529060010190602001808311610afd57829003601f168201915b505050505081526020016001600087815260200190815260200160002060070160009054906101000a900473ffffffffffffffffffffffffffffffffffffffff1673ffffffffffffffffffffffffffffffffffffffff168152602001600160008781526020019081526020016000206008015481525090505b8091505092915050565b3373ffffffffffffffffffffffffffffffffffffffff166001600089815260200190815260200160002060070160009054906101000a900473ffffffffffffffffffffffffffffffffffffffff1673ffffffffffffffffffffffffffffffffffffffff1614158015610c5a5750610c598182604051602001610c1f91906121f4565b60405160208183030381529060405280519060200120604051602001610c45919061222c565b6040516020818303038152906040526114e8565b5b15610d455785600160008981526020019081526020016000206000019081610c8291906123fd565b5084600160008981526020019081526020016000206002019081610ca691906123fd565b5083600160008981526020019081526020016000206004019081610cca91906123fd565b50826001600089815260200190815260200160002060070160006101000a81548173ffffffffffffffffffffffffffffffffffffffff021916908373ffffffffffffffffffffffffffffffffffffffff16021790555081600160008981526020019081526020016000206006019081610d4391906123fd565b505b50505050505050565b6000610d58611541565b60058560ff161115610d9f576040517f08c379a0000000000000000000000000000000000000000000000000000000008152600401610d969061252c565b60405180910390fd5b600d885114610de3576040517f08c379a0000000000000000000000000000000000000000000000000000000008152600401610dda90612598565b60405180910390fd5b6006895111610e27576040517f08c379a0000000000000000000000000000000000000000000000000000000008152600401610e1e90612604565b60405180910390fd5b600a875111610e6b576040517f08c379a0000000000000000000000000000000000000000000000000000000008152600401610e6290612670565b60405180910390fd5b6008865111610eaf576040517f08c379a0000000000000000000000000000000000000000000000000000000008152600401610ea6906126dc565b60405180910390fd5b6006845111610ef3576040517f08c379a0000000000000000000000000000000000000000000000000000000008152600401610eea90612748565b60405180910390fd5b60008989610f038860ff166115d1565b8a8a89604051602001610f1b96959493929190612768565b604051602081830303815290604052604051602001610f3a91906121f4565b60405160208183030381529060405280519060200120905060008660ff160361133a5760405180610120016040528073__$0394c467ed0fdd19c4eccf25096e0ad40f$__63015cfec78d8b6040518363ffffffff1660e01b8152600401610fa29291906127c0565b600060405180830381865af4158015610fbf573d6000803e3d6000fd5b505050506040513d6000823e3d601f19601f82011682018060405250810190610fe8919061216f565b815260200173__$0394c467ed0fdd19c4eccf25096e0ad40f$__63015cfec78c8b6040518363ffffffff1660e01b81526004016110269291906127c0565b600060405180830381865af4158015611043573d6000803e3d6000fd5b505050506040513d6000823e3d601f19601f8201168201806040525081019061106c919061216f565b815260200173__$0394c467ed0fdd19c4eccf25096e0ad40f$__63015cfec78b8b6040518363ffffffff1660e01b81526004016110aa9291906127c0565b600060405180830381865af41580156110c7573d6000803e3d6000fd5b505050506040513d6000823e3d601f19601f820116820180604052508101906110f0919061216f565b81526020018860405160200161110691906121f4565b6040516020818303038152906040528051906020012060405160200161112c919061222c565b604051602081830303815290604052815260200173__$0394c467ed0fdd19c4eccf25096e0ad40f$__63015cfec7888b6040518363ffffffff1660e01b81526004016111799291906127c0565b600060405180830381865af4158015611196573d6000803e3d6000fd5b505050506040513d6000823e3d601f19601f820116820180604052508101906111bf919061216f565b81526020018760ff1681526020016040518060400160405280600181526020017f300000000000000000000000000000000000000000000000000000000000000081525081526020018573ffffffffffffffffffffffffffffffffffffffff1681526020018281525060016000838152602001908152602001600020600082015181600001908161125091906123fd565b50602082015181600101908161126691906123fd565b50604082015181600201908161127c91906123fd565b50606082015181600301908161129291906123fd565b5060808201518160040190816112a891906123fd565b5060a08201518160050160006101000a81548160ff021916908360ff16021790555060c08201518160060190816112df91906123fd565b5060e08201518160070160006101000a81548173ffffffffffffffffffffffffffffffffffffffff021916908373ffffffffffffffffffffffffffffffffffffffff16021790555061010082015181600801559050506114a1565b6040518061012001604052808b81526020018a81526020018981526020018881526020018681526020018760ff1681526020018481526020018573ffffffffffffffffffffffffffffffffffffffff168152602001828152506001600083815260200190815260200160002060008201518160000190816113bb91906123fd565b5060208201518160010190816113d191906123fd565b5060408201518160020190816113e791906123fd565b5060608201518160030190816113fd91906123fd565b50608082015181600401908161141391906123fd565b5060a08201518160050160006101000a81548160ff021916908360ff16021790555060c082015181600601908161144a91906123fd565b5060e08201518160070160006101000a81548173ffffffffffffffffffffffffffffffffffffffff021916908373ffffffffffffffffffffffffffffffffffffffff16021790555061010082015181600801559050505b7fa8c560616579705e004d37fd505597cd07d92d2604f0b9b435752fa9378e2655816040516114d09190611f2e565b60405180910390a18091505098975050505050505050565b6000816040516020016114fb91906121f4565b604051602081830303815290604052805190602001208360405160200161152291906121f4565b6040516020818303038152906040528051906020012014905092915050565b3373ffffffffffffffffffffffffffffffffffffffff1660008054906101000a900473ffffffffffffffffffffffffffffffffffffffff1673ffffffffffffffffffffffffffffffffffffffff16146115cf576040517f08c379a00000000000000000000000000000000000000000000000000000000081526004016115c690612843565b60405180910390fd5b565b6060600060016115e08461169f565b01905060008167ffffffffffffffff8111156115ff576115fe6118bf565b5b6040519080825280601f01601f1916602001820160405280156116315781602001600182028036833780820191505090505b509050600082602001820190505b600115611694578080600190039150507f3031323334353637383961626364656600000000000000000000000000000000600a86061a8153600a858161168857611687612863565b5b0494506000850361163f575b819350505050919050565b600080600090507a184f03e93ff9f4daa797ed6e38ed64bf6a1f01000000000000000083106116fd577a184f03e93ff9f4daa797ed6e38ed64bf6a1f01000000000000000083816116f3576116f2612863565b5b0492506040810190505b6d04ee2d6d415b85acef8100000000831061173a576d04ee2d6d415b85acef810000000083816117305761172f612863565b5b0492506020810190505b662386f26fc10000831061176957662386f26fc10000838161175f5761175e612863565b5b0492506010810190505b6305f5e1008310611792576305f5e100838161178857611787612863565b5b0492506008810190505b61271083106117b75761271083816117ad576117ac612863565b5b0492506004810190505b606483106117da57606483816117d0576117cf612863565b5b0492506002810190505b600a83106117e9576001810190505b80915050919050565b6040518061012001604052806060815260200160608152602001606081526020016060815260200160608152602001600060ff16815260200160608152602001600073ffffffffffffffffffffffffffffffffffffffff168152602001600080191681525090565b6000604051905090565b600080fd5b600080fd5b6000819050919050565b6118818161186e565b811461188c57600080fd5b50565b60008135905061189e81611878565b92915050565b600080fd5b600080fd5b6000601f19601f8301169050919050565b7f4e487b7100000000000000000000000000000000000000000000000000000000600052604160045260246000fd5b6118f7826118ae565b810181811067ffffffffffffffff82111715611916576119156118bf565b5b80604052505050565b600061192961185a565b905061193582826118ee565b919050565b600067ffffffffffffffff821115611955576119546118bf565b5b61195e826118ae565b9050602081019050919050565b82818337600083830152505050565b600061198d6119888461193a565b61191f565b9050828152602081018484840111156119a9576119a86118a9565b5b6119b484828561196b565b509392505050565b600082601f8301126119d1576119d06118a4565b5b81356119e184826020860161197a565b91505092915050565b60008060408385031215611a0157611a00611864565b5b6000611a0f8582860161188f565b925050602083013567ffffffffffffffff811115611a3057611a2f611869565b5b611a3c858286016119bc565b9150509250929050565b600081519050919050565b600082825260208201905092915050565b60005b83811015611a80578082015181840152602081019050611a65565b60008484015250505050565b6000611a9782611a46565b611aa18185611a51565b9350611ab1818560208601611a62565b611aba816118ae565b840191505092915050565b600060ff82169050919050565b611adb81611ac5565b82525050565b600073ffffffffffffffffffffffffffffffffffffffff82169050919050565b6000611b0c82611ae1565b9050919050565b611b1c81611b01565b82525050565b611b2b8161186e565b82525050565b6000610120830160008301518482036000860152611b4f8282611a8c565b91505060208301518482036020860152611b698282611a8c565b91505060408301518482036040860152611b838282611a8c565b91505060608301518482036060860152611b9d8282611a8c565b91505060808301518482036080860152611bb78282611a8c565b91505060a0830151611bcc60a0860182611ad2565b5060c083015184820360c0860152611be48282611a8c565b91505060e0830151611bf960e0860182611b13565b50610100830151611c0e610100860182611b22565b508091505092915050565b60006020820190508181036000830152611c338184611b31565b905092915050565b611c4481611b01565b8114611c4f57600080fd5b50565b600081359050611c6181611c3b565b92915050565b600080600080600080600060e0888a031215611c8657611c85611864565b5b6000611c948a828b0161188f565b975050602088013567ffffffffffffffff811115611cb557611cb4611869565b5b611cc18a828b016119bc565b965050604088013567ffffffffffffffff811115611ce257611ce1611869565b5b611cee8a828b016119bc565b955050606088013567ffffffffffffffff811115611d0f57611d0e611869565b5b611d1b8a828b016119bc565b9450506080611d2c8a828b01611c52565b93505060a088013567ffffffffffffffff811115611d4d57611d4c611869565b5b611d598a828b016119bc565b92505060c088013567ffffffffffffffff811115611d7a57611d79611869565b5b611d868a828b016119bc565b91505092959891949750929550565b611d9e81611ac5565b8114611da957600080fd5b50565b600081359050611dbb81611d95565b92915050565b600080600080600080600080610100898b031215611de257611de1611864565b5b600089013567ffffffffffffffff811115611e0057611dff611869565b5b611e0c8b828c016119bc565b985050602089013567ffffffffffffffff811115611e2d57611e2c611869565b5b611e398b828c016119bc565b975050604089013567ffffffffffffffff811115611e5a57611e59611869565b5b611e668b828c016119bc565b965050606089013567ffffffffffffffff811115611e8757611e86611869565b5b611e938b828c016119bc565b9550506080611ea48b828c01611dac565b94505060a089013567ffffffffffffffff811115611ec557611ec4611869565b5b611ed18b828c016119bc565b93505060c0611ee28b828c01611c52565b92505060e089013567ffffffffffffffff811115611f0357611f02611869565b5b611f0f8b828c016119bc565b9150509295985092959890939650565b611f288161186e565b82525050565b6000602082019050611f436000830184611f1f565b92915050565b7f4e487b7100000000000000000000000000000000000000000000000000000000600052602260045260246000fd5b60006002820490506001821680611f9057607f821691505b602082108103611fa357611fa2611f49565b5b50919050565b600082825260208201905092915050565b60008190508160005260206000209050919050565b60008154611fdc81611f78565b611fe68186611fa9565b9450600182166000811461200157600181146120175761204a565b60ff19831686528115156020028601935061204a565b61202085611fba565b60005b8381101561204257815481890152600182019150602081019050612023565b808801955050505b50505092915050565b600081519050919050565b600061206982612053565b6120738185611fa9565b9350612083818560208601611a62565b61208c816118ae565b840191505092915050565b600060408201905081810360008301526120b18185611fcf565b905081810360208301526120c5818461205e565b90509392505050565b600067ffffffffffffffff8211156120e9576120e86118bf565b5b6120f2826118ae565b9050602081019050919050565b600061211261210d846120ce565b61191f565b90508281526020810184848401111561212e5761212d6118a9565b5b612139848285611a62565b509392505050565b600082601f830112612156576121556118a4565b5b81516121668482602086016120ff565b91505092915050565b60006020828403121561218557612184611864565b5b600082015167ffffffffffffffff8111156121a3576121a2611869565b5b6121af84828501612141565b91505092915050565b600081905092915050565b60006121ce82611a46565b6121d881856121b8565b93506121e8818560208601611a62565b80840191505092915050565b600061220082846121c3565b915081905092915050565b6000819050919050565b6122266122218261186e565b61220b565b82525050565b60006122388284612215565b60208201915081905092915050565b60008190508160005260206000209050919050565b60006020601f8301049050919050565b600082821b905092915050565b6000600883026122a97fffffffffffffffffffffffffffffffffffffffffffffffffffffffffffffffff8261226c565b6122b3868361226c565b95508019841693508086168417925050509392505050565b6000819050919050565b6000819050919050565b60006122fa6122f56122f0846122cb565b6122d5565b6122cb565b9050919050565b6000819050919050565b612314836122df565b61232861232082612301565b848454612279565b825550505050565b600090565b61233d612330565b61234881848461230b565b505050565b5b8181101561236c57612361600082612335565b60018101905061234e565b5050565b601f8211156123b15761238281612247565b61238b8461225c565b8101602085101561239a578190505b6123ae6123a68561225c565b83018261234d565b50505b505050565b600082821c905092915050565b60006123d4600019846008026123b6565b1980831691505092915050565b60006123ed83836123c3565b9150826002028217905092915050565b61240682611a46565b67ffffffffffffffff81111561241f5761241e6118bf565b5b6124298254611f78565b612434828285612370565b600060209050601f8311600181146124675760008415612455578287015190505b61245f85826123e1565b8655506124c7565b601f19841661247586612247565b60005b8281101561249d57848901518255600182019150602085019450602081019050612478565b868310156124ba57848901516124b6601f8916826123c3565b8355505b6001600288020188555050505b505050505050565b600082825260208201905092915050565b7f496e76616c696420636f6d70616e792074797065000000000000000000000000600082015250565b60006125166014836124cf565b9150612521826124e0565b602082019050919050565b6000602082019050818103600083015261254581612509565b9050919050565b7f496e76616c69642053534e000000000000000000000000000000000000000000600082015250565b6000612582600b836124cf565b915061258d8261254c565b602082019050919050565b600060208201905081810360008301526125b181612575565b9050919050565b7f496e76616c6964206e616d650000000000000000000000000000000000000000600082015250565b60006125ee600c836124cf565b91506125f9826125b8565b602082019050919050565b6000602082019050818103600083015261261d816125e1565b9050919050565b7f496e76616c696420616464726573730000000000000000000000000000000000600082015250565b600061265a600f836124cf565b915061266582612624565b602082019050919050565b600060208201905081810360008301526126898161264d565b9050919050565b7f50617373776f726420746f6f2073686f72740000000000000000000000000000600082015250565b60006126c66012836124cf565b91506126d182612690565b602082019050919050565b600060208201905081810360008301526126f5816126b9565b9050919050565b7f50686f6e65206e756d62657220746f6f2073686f727400000000000000000000600082015250565b60006127326016836124cf565b915061273d826126fc565b602082019050919050565b6000602082019050818103600083015261276181612725565b9050919050565b600061277482896121c3565b915061278082886121c3565b915061278c82876121c3565b915061279882866121c3565b91506127a482856121c3565b91506127b082846121c3565b9150819050979650505050505050565b600060408201905081810360008301526127da818561205e565b905081810360208301526127ee818461205e565b90509392505050565b7f4e6f7420616c6c6f776564000000000000000000000000000000000000000000600082015250565b600061282d600b836124cf565b9150612838826127f7565b602082019050919050565b6000602082019050818103600083015261285c81612820565b9050919050565b7f4e487b7100000000000000000000000000000000000000000000000000000000600052601260045260246000fdfea26469706673582212203ce0367726dd950eea52aa6970ed0ccf8464176ad8a768872c0893339d07f31f64736f6c63430008120033",
					"opcodes": "PUSH1 0x80 PUSH1 0x40 MSTORE PUSH1 0x0 DUP1 PUSH1 0x14 PUSH2 0x100 EXP DUP2 SLOAD DUP2 PUSH1 0xFF MUL NOT AND SWAP1 DUP4 PUSH1 0xFF AND MUL OR SWAP1 SSTORE POP PUSH1 0x1 PUSH1 0x0 PUSH1 0x15 PUSH2 0x100 EXP DUP2 SLOAD DUP2 PUSH1 0xFF MUL NOT AND SWAP1 DUP4 PUSH1 0xFF AND MUL OR SWAP1 SSTORE POP PUSH1 0x2 PUSH1 0x0 PUSH1 0x16 PUSH2 0x100 EXP DUP2 SLOAD DUP2 PUSH1 0xFF MUL NOT AND SWAP1 DUP4 PUSH1 0xFF AND MUL OR SWAP1 SSTORE POP PUSH1 0x3 PUSH1 0x0 PUSH1 0x17 PUSH2 0x100 EXP DUP2 SLOAD DUP2 PUSH1 0xFF MUL NOT AND SWAP1 DUP4 PUSH1 0xFF AND MUL OR SWAP1 SSTORE POP PUSH1 0x4 PUSH1 0x0 PUSH1 0x18 PUSH2 0x100 EXP DUP2 SLOAD DUP2 PUSH1 0xFF MUL NOT AND SWAP1 DUP4 PUSH1 0xFF AND MUL OR SWAP1 SSTORE POP CALLVALUE DUP1 ISZERO PUSH2 0x9B JUMPI PUSH1 0x0 DUP1 REVERT JUMPDEST POP CALLER PUSH1 0x0 DUP1 PUSH2 0x100 EXP DUP2 SLOAD DUP2 PUSH20 0xFFFFFFFFFFFFFFFFFFFFFFFFFFFFFFFFFFFFFFFF MUL NOT AND SWAP1 DUP4 PUSH20 0xFFFFFFFFFFFFFFFFFFFFFFFFFFFFFFFFFFFFFFFF AND MUL OR SWAP1 SSTORE POP PUSH2 0x28C8 DUP1 PUSH2 0xEB PUSH1 0x0 CODECOPY PUSH1 0x0 RETURN INVALID PUSH1 0x80 PUSH1 0x40 MSTORE PUSH1 0x4 CALLDATASIZE LT PUSH2 0x33 JUMPI PUSH1 0x0 CALLDATALOAD PUSH1 0xE0 SHR DUP1 PUSH3 0x131C4F EQ PUSH2 0x38 JUMPI DUP1 PUSH4 0xC28FE9C1 EQ PUSH2 0x75 JUMPI DUP1 PUSH4 0xDD64E4AD EQ PUSH2 0x91 JUMPI JUMPDEST PUSH1 0x0 DUP1 REVERT JUMPDEST CALLVALUE DUP1 ISZERO PUSH2 0x44 JUMPI PUSH1 0x0 DUP1 REVERT JUMPDEST POP PUSH2 0x5F PUSH1 0x4 DUP1 CALLDATASIZE SUB DUP2 ADD SWAP1 PUSH2 0x5A SWAP2 SWAP1 PUSH2 0x19EA JUMP JUMPDEST PUSH2 0xC1 JUMP JUMPDEST PUSH1 0x40 MLOAD PUSH2 0x6C SWAP2 SWAP1 PUSH2 0x1C19 JUMP JUMPDEST PUSH1 0x40 MLOAD DUP1 SWAP2 SUB SWAP1 RETURN JUMPDEST PUSH2 0x8F PUSH1 0x4 DUP1 CALLDATASIZE SUB DUP2 ADD SWAP1 PUSH2 0x8A SWAP2 SWAP1 PUSH2 0x1C67 JUMP JUMPDEST PUSH2 0xB9D JUMP JUMPDEST STOP JUMPDEST PUSH2 0xAB PUSH1 0x4 DUP1 CALLDATASIZE SUB DUP2 ADD SWAP1 PUSH2 0xA6 SWAP2 SWAP1 PUSH2 0x1DC1 JUMP JUMPDEST PUSH2 0xD4E JUMP JUMPDEST PUSH1 0x40 MLOAD PUSH2 0xB8 SWAP2 SWAP1 PUSH2 0x1F2E JUMP JUMPDEST PUSH1 0x40 MLOAD DUP1 SWAP2 SUB SWAP1 RETURN JUMPDEST PUSH2 0xC9 PUSH2 0x17F2 JUMP JUMPDEST PUSH2 0xD1 PUSH2 0x17F2 JUMP JUMPDEST CALLER PUSH20 0xFFFFFFFFFFFFFFFFFFFFFFFFFFFFFFFFFFFFFFFF AND PUSH1 0x1 PUSH1 0x0 DUP7 DUP2 MSTORE PUSH1 0x20 ADD SWAP1 DUP2 MSTORE PUSH1 0x20 ADD PUSH1 0x0 KECCAK256 PUSH1 0x7 ADD PUSH1 0x0 SWAP1 SLOAD SWAP1 PUSH2 0x100 EXP SWAP1 DIV PUSH20 0xFFFFFFFFFFFFFFFFFFFFFFFFFFFFFFFFFFFFFFFF AND PUSH20 0xFFFFFFFFFFFFFFFFFFFFFFFFFFFFFFFFFFFFFFFF AND EQ PUSH2 0x37A JUMPI PUSH1 0x40 MLOAD DUP1 PUSH2 0x120 ADD PUSH1 0x40 MSTORE DUP1 PUSH1 0x40 MLOAD DUP1 PUSH1 0x40 ADD PUSH1 0x40 MSTORE DUP1 PUSH1 0xB DUP2 MSTORE PUSH1 0x20 ADD PUSH32 0x2A2A2A2A2A2A2A2A2A2A2A000000000000000000000000000000000000000000 DUP2 MSTORE POP DUP2 MSTORE PUSH1 0x20 ADD PUSH1 0x40 MLOAD DUP1 PUSH1 0x40 ADD PUSH1 0x40 MSTORE DUP1 PUSH1 0x6 DUP2 MSTORE PUSH1 0x20 ADD PUSH32 0x2A2A2A2A2A2A0000000000000000000000000000000000000000000000000000 DUP2 MSTORE POP DUP2 MSTORE PUSH1 0x20 ADD PUSH1 0x40 MLOAD DUP1 PUSH1 0x40 ADD PUSH1 0x40 MSTORE DUP1 PUSH1 0xA DUP2 MSTORE PUSH1 0x20 ADD PUSH32 0x2A2A2A2A2A2A2A2A2A2A00000000000000000000000000000000000000000000 DUP2 MSTORE POP DUP2 MSTORE PUSH1 0x20 ADD PUSH1 0x40 MLOAD DUP1 PUSH1 0x40 ADD PUSH1 0x40 MSTORE DUP1 PUSH1 0x7 DUP2 MSTORE PUSH1 0x20 ADD PUSH32 0x2A2A2A2A2A2A2A00000000000000000000000000000000000000000000000000 DUP2 MSTORE POP DUP2 MSTORE PUSH1 0x20 ADD PUSH1 0x40 MLOAD DUP1 PUSH1 0x40 ADD PUSH1 0x40 MSTORE DUP1 PUSH1 0x8 DUP2 MSTORE PUSH1 0x20 ADD PUSH32 0x2A2A2A2A2A2A2A2A000000000000000000000000000000000000000000000000 DUP2 MSTORE POP DUP2 MSTORE PUSH1 0x20 ADD PUSH1 0x1 PUSH1 0x0 DUP8 DUP2 MSTORE PUSH1 0x20 ADD SWAP1 DUP2 MSTORE PUSH1 0x20 ADD PUSH1 0x0 KECCAK256 PUSH1 0x5 ADD PUSH1 0x0 SWAP1 SLOAD SWAP1 PUSH2 0x100 EXP SWAP1 DIV PUSH1 0xFF AND PUSH1 0xFF AND DUP2 MSTORE PUSH1 0x20 ADD PUSH1 0x1 PUSH1 0x0 DUP8 DUP2 MSTORE PUSH1 0x20 ADD SWAP1 DUP2 MSTORE PUSH1 0x20 ADD PUSH1 0x0 KECCAK256 PUSH1 0x6 ADD DUP1 SLOAD PUSH2 0x2BA SWAP1 PUSH2 0x1F78 JUMP JUMPDEST DUP1 PUSH1 0x1F ADD PUSH1 0x20 DUP1 SWAP2 DIV MUL PUSH1 0x20 ADD PUSH1 0x40 MLOAD SWAP1 DUP2 ADD PUSH1 0x40 MSTORE DUP1 SWAP3 SWAP2 SWAP1 DUP2 DUP2 MSTORE PUSH1 0x20 ADD DUP3 DUP1 SLOAD PUSH2 0x2E6 SWAP1 PUSH2 0x1F78 JUMP JUMPDEST DUP1 ISZERO PUSH2 0x333 JUMPI DUP1 PUSH1 0x1F LT PUSH2 0x308 JUMPI PUSH2 0x100 DUP1 DUP4 SLOAD DIV MUL DUP4 MSTORE SWAP2 PUSH1 0x20 ADD SWAP2 PUSH2 0x333 JUMP JUMPDEST DUP3 ADD SWAP2 SWAP1 PUSH1 0x0 MSTORE PUSH1 0x20 PUSH1 0x0 KECCAK256 SWAP1 JUMPDEST DUP2 SLOAD DUP2 MSTORE SWAP1 PUSH1 0x1 ADD SWAP1 PUSH1 0x20 ADD DUP1 DUP4 GT PUSH2 0x316 JUMPI DUP3 SWAP1 SUB PUSH1 0x1F AND DUP3 ADD SWAP2 JUMPDEST POP POP POP POP POP DUP2 MSTORE PUSH1 0x20 ADD CALLER PUSH20 0xFFFFFFFFFFFFFFFFFFFFFFFFFFFFFFFFFFFFFFFF AND DUP2 MSTORE PUSH1 0x20 ADD PUSH1 0x1 PUSH1 0x0 DUP8 DUP2 MSTORE PUSH1 0x20 ADD SWAP1 DUP2 MSTORE PUSH1 0x20 ADD PUSH1 0x0 KECCAK256 PUSH1 0x8 ADD SLOAD DUP2 MSTORE POP SWAP1 POP PUSH2 0x74E JUMP JUMPDEST PUSH1 0x40 MLOAD DUP1 PUSH2 0x120 ADD PUSH1 0x40 MSTORE DUP1 PUSH20 0x0 PUSH4 0x15CFEC7 PUSH1 0x1 PUSH1 0x0 DUP10 DUP2 MSTORE PUSH1 0x20 ADD SWAP1 DUP2 MSTORE PUSH1 0x20 ADD PUSH1 0x0 KECCAK256 PUSH1 0x0 ADD DUP8 PUSH1 0x40 MLOAD DUP4 PUSH4 0xFFFFFFFF AND PUSH1 0xE0 SHL DUP2 MSTORE PUSH1 0x4 ADD PUSH2 0x3D4 SWAP3 SWAP2 SWAP1 PUSH2 0x2097 JUMP JUMPDEST PUSH1 0x0 PUSH1 0x40 MLOAD DUP1 DUP4 SUB DUP2 DUP7 GAS DELEGATECALL ISZERO DUP1 ISZERO PUSH2 0x3F1 JUMPI RETURNDATASIZE PUSH1 0x0 DUP1 RETURNDATACOPY RETURNDATASIZE PUSH1 0x0 REVERT JUMPDEST POP POP POP POP PUSH1 0x40 MLOAD RETURNDATASIZE PUSH1 0x0 DUP3 RETURNDATACOPY RETURNDATASIZE PUSH1 0x1F NOT PUSH1 0x1F DUP3 ADD AND DUP3 ADD DUP1 PUSH1 0x40 MSTORE POP DUP2 ADD SWAP1 PUSH2 0x41A SWAP2 SWAP1 PUSH2 0x216F JUMP JUMPDEST DUP2 MSTORE PUSH1 0x20 ADD PUSH20 0x0 PUSH4 0x15CFEC7 PUSH1 0x1 PUSH1 0x0 DUP10 DUP2 MSTORE PUSH1 0x20 ADD SWAP1 DUP2 MSTORE PUSH1 0x20 ADD PUSH1 0x0 KECCAK256 PUSH1 0x1 ADD DUP8 PUSH1 0x40 MLOAD DUP4 PUSH4 0xFFFFFFFF AND PUSH1 0xE0 SHL DUP2 MSTORE PUSH1 0x4 ADD PUSH2 0x46D SWAP3 SWAP2 SWAP1 PUSH2 0x2097 JUMP JUMPDEST PUSH1 0x0 PUSH1 0x40 MLOAD DUP1 DUP4 SUB DUP2 DUP7 GAS DELEGATECALL ISZERO DUP1 ISZERO PUSH2 0x48A JUMPI RETURNDATASIZE PUSH1 0x0 DUP1 RETURNDATACOPY RETURNDATASIZE PUSH1 0x0 REVERT JUMPDEST POP POP POP POP PUSH1 0x40 MLOAD RETURNDATASIZE PUSH1 0x0 DUP3 RETURNDATACOPY RETURNDATASIZE PUSH1 0x1F NOT PUSH1 0x1F DUP3 ADD AND DUP3 ADD DUP1 PUSH1 0x40 MSTORE POP DUP2 ADD SWAP1 PUSH2 0x4B3 SWAP2 SWAP1 PUSH2 0x216F JUMP JUMPDEST DUP2 MSTORE PUSH1 0x20 ADD PUSH20 0x0 PUSH4 0x15CFEC7 PUSH1 0x1 PUSH1 0x0 DUP10 DUP2 MSTORE PUSH1 0x20 ADD SWAP1 DUP2 MSTORE PUSH1 0x20 ADD PUSH1 0x0 KECCAK256 PUSH1 0x2 ADD DUP8 PUSH1 0x40 MLOAD DUP4 PUSH4 0xFFFFFFFF AND PUSH1 0xE0 SHL DUP2 MSTORE PUSH1 0x4 ADD PUSH2 0x506 SWAP3 SWAP2 SWAP1 PUSH2 0x2097 JUMP JUMPDEST PUSH1 0x0 PUSH1 0x40 MLOAD DUP1 DUP4 SUB DUP2 DUP7 GAS DELEGATECALL ISZERO DUP1 ISZERO PUSH2 0x523 JUMPI RETURNDATASIZE PUSH1 0x0 DUP1 RETURNDATACOPY RETURNDATASIZE PUSH1 0x0 REVERT JUMPDEST POP POP POP POP PUSH1 0x40 MLOAD RETURNDATASIZE PUSH1 0x0 DUP3 RETURNDATACOPY RETURNDATASIZE PUSH1 0x1F NOT PUSH1 0x1F DUP3 ADD AND DUP3 ADD DUP1 PUSH1 0x40 MSTORE POP DUP2 ADD SWAP1 PUSH2 0x54C SWAP2 SWAP1 PUSH2 0x216F JUMP JUMPDEST DUP2 MSTORE PUSH1 0x20 ADD PUSH1 0x40 MLOAD DUP1 PUSH1 0x40 ADD PUSH1 0x40 MSTORE DUP1 PUSH1 0x5 DUP2 MSTORE PUSH1 0x20 ADD PUSH32 0x2A2A2A2A2A000000000000000000000000000000000000000000000000000000 DUP2 MSTORE POP DUP2 MSTORE PUSH1 0x20 ADD PUSH20 0x0 PUSH4 0x15CFEC7 PUSH1 0x1 PUSH1 0x0 DUP10 DUP2 MSTORE PUSH1 0x20 ADD SWAP1 DUP2 MSTORE PUSH1 0x20 ADD PUSH1 0x0 KECCAK256 PUSH1 0x4 ADD DUP8 PUSH1 0x40 MLOAD DUP4 PUSH4 0xFFFFFFFF AND PUSH1 0xE0 SHL DUP2 MSTORE PUSH1 0x4 ADD PUSH2 0x5DA SWAP3 SWAP2 SWAP1 PUSH2 0x2097 JUMP JUMPDEST PUSH1 0x0 PUSH1 0x40 MLOAD DUP1 DUP4 SUB DUP2 DUP7 GAS DELEGATECALL ISZERO DUP1 ISZERO PUSH2 0x5F7 JUMPI RETURNDATASIZE PUSH1 0x0 DUP1 RETURNDATACOPY RETURNDATASIZE PUSH1 0x0 REVERT JUMPDEST POP POP POP POP PUSH1 0x40 MLOAD RETURNDATASIZE PUSH1 0x0 DUP3 RETURNDATACOPY RETURNDATASIZE PUSH1 0x1F NOT PUSH1 0x1F DUP3 ADD AND DUP3 ADD DUP1 PUSH1 0x40 MSTORE POP DUP2 ADD SWAP1 PUSH2 0x620 SWAP2 SWAP1 PUSH2 0x216F JUMP JUMPDEST DUP2 MSTORE PUSH1 0x20 ADD PUSH1 0x1 PUSH1 0x0 DUP8 DUP2 MSTORE PUSH1 0x20 ADD SWAP1 DUP2 MSTORE PUSH1 0x20 ADD PUSH1 0x0 KECCAK256 PUSH1 0x5 ADD PUSH1 0x0 SWAP1 SLOAD SWAP1 PUSH2 0x100 EXP SWAP1 DIV PUSH1 0xFF AND PUSH1 0xFF AND DUP2 MSTORE PUSH1 0x20 ADD PUSH1 0x1 PUSH1 0x0 DUP8 DUP2 MSTORE PUSH1 0x20 ADD SWAP1 DUP2 MSTORE PUSH1 0x20 ADD PUSH1 0x0 KECCAK256 PUSH1 0x6 ADD DUP1 SLOAD PUSH2 0x672 SWAP1 PUSH2 0x1F78 JUMP JUMPDEST DUP1 PUSH1 0x1F ADD PUSH1 0x20 DUP1 SWAP2 DIV MUL PUSH1 0x20 ADD PUSH1 0x40 MLOAD SWAP1 DUP2 ADD PUSH1 0x40 MSTORE DUP1 SWAP3 SWAP2 SWAP1 DUP2 DUP2 MSTORE PUSH1 0x20 ADD DUP3 DUP1 SLOAD PUSH2 0x69E SWAP1 PUSH2 0x1F78 JUMP JUMPDEST DUP1 ISZERO PUSH2 0x6EB JUMPI DUP1 PUSH1 0x1F LT PUSH2 0x6C0 JUMPI PUSH2 0x100 DUP1 DUP4 SLOAD DIV MUL DUP4 MSTORE SWAP2 PUSH1 0x20 ADD SWAP2 PUSH2 0x6EB JUMP JUMPDEST DUP3 ADD SWAP2 SWAP1 PUSH1 0x0 MSTORE PUSH1 0x20 PUSH1 0x0 KECCAK256 SWAP1 JUMPDEST DUP2 SLOAD DUP2 MSTORE SWAP1 PUSH1 0x1 ADD SWAP1 PUSH1 0x20 ADD DUP1 DUP4 GT PUSH2 0x6CE JUMPI DUP3 SWAP1 SUB PUSH1 0x1F AND DUP3 ADD SWAP2 JUMPDEST POP POP POP POP POP DUP2 MSTORE PUSH1 0x20 ADD PUSH1 0x1 PUSH1 0x0 DUP8 DUP2 MSTORE PUSH1 0x20 ADD SWAP1 DUP2 MSTORE PUSH1 0x20 ADD PUSH1 0x0 KECCAK256 PUSH1 0x7 ADD PUSH1 0x0 SWAP1 SLOAD SWAP1 PUSH2 0x100 EXP SWAP1 DIV PUSH20 0xFFFFFFFFFFFFFFFFFFFFFFFFFFFFFFFFFFFFFFFF AND PUSH20 0xFFFFFFFFFFFFFFFFFFFFFFFFFFFFFFFFFFFFFFFF AND DUP2 MSTORE PUSH1 0x20 ADD DUP6 DUP2 MSTORE POP SWAP1 POP JUMPDEST PUSH1 0x0 PUSH1 0x1 PUSH1 0x0 DUP7 DUP2 MSTORE PUSH1 0x20 ADD SWAP1 DUP2 MSTORE PUSH1 0x20 ADD PUSH1 0x0 KECCAK256 PUSH1 0x5 ADD PUSH1 0x0 SWAP1 SLOAD SWAP1 PUSH2 0x100 EXP SWAP1 DIV PUSH1 0xFF AND PUSH1 0xFF AND GT ISZERO PUSH2 0xB93 JUMPI PUSH1 0x40 MLOAD DUP1 PUSH2 0x120 ADD PUSH1 0x40 MSTORE DUP1 PUSH1 0x1 PUSH1 0x0 DUP8 DUP2 MSTORE PUSH1 0x20 ADD SWAP1 DUP2 MSTORE PUSH1 0x20 ADD PUSH1 0x0 KECCAK256 PUSH1 0x0 ADD DUP1 SLOAD PUSH2 0x7AA SWAP1 PUSH2 0x1F78 JUMP JUMPDEST DUP1 PUSH1 0x1F ADD PUSH1 0x20 DUP1 SWAP2 DIV MUL PUSH1 0x20 ADD PUSH1 0x40 MLOAD SWAP1 DUP2 ADD PUSH1 0x40 MSTORE DUP1 SWAP3 SWAP2 SWAP1 DUP2 DUP2 MSTORE PUSH1 0x20 ADD DUP3 DUP1 SLOAD PUSH2 0x7D6 SWAP1 PUSH2 0x1F78 JUMP JUMPDEST DUP1 ISZERO PUSH2 0x823 JUMPI DUP1 PUSH1 0x1F LT PUSH2 0x7F8 JUMPI PUSH2 0x100 DUP1 DUP4 SLOAD DIV MUL DUP4 MSTORE SWAP2 PUSH1 0x20 ADD SWAP2 PUSH2 0x823 JUMP JUMPDEST DUP3 ADD SWAP2 SWAP1 PUSH1 0x0 MSTORE PUSH1 0x20 PUSH1 0x0 KECCAK256 SWAP1 JUMPDEST DUP2 SLOAD DUP2 MSTORE SWAP1 PUSH1 0x1 ADD SWAP1 PUSH1 0x20 ADD DUP1 DUP4 GT PUSH2 0x806 JUMPI DUP3 SWAP1 SUB PUSH1 0x1F AND DUP3 ADD SWAP2 JUMPDEST POP POP POP POP POP DUP2 MSTORE PUSH1 0x20 ADD PUSH1 0x1 PUSH1 0x0 DUP8 DUP2 MSTORE PUSH1 0x20 ADD SWAP1 DUP2 MSTORE PUSH1 0x20 ADD PUSH1 0x0 KECCAK256 PUSH1 0x1 ADD DUP1 SLOAD PUSH2 0x84E SWAP1 PUSH2 0x1F78 JUMP JUMPDEST DUP1 PUSH1 0x1F ADD PUSH1 0x20 DUP1 SWAP2 DIV MUL PUSH1 0x20 ADD PUSH1 0x40 MLOAD SWAP1 DUP2 ADD PUSH1 0x40 MSTORE DUP1 SWAP3 SWAP2 SWAP1 DUP2 DUP2 MSTORE PUSH1 0x20 ADD DUP3 DUP1 SLOAD PUSH2 0x87A SWAP1 PUSH2 0x1F78 JUMP JUMPDEST DUP1 ISZERO PUSH2 0x8C7 JUMPI DUP1 PUSH1 0x1F LT PUSH2 0x89C JUMPI PUSH2 0x100 DUP1 DUP4 SLOAD DIV MUL DUP4 MSTORE SWAP2 PUSH1 0x20 ADD SWAP2 PUSH2 0x8C7 JUMP JUMPDEST DUP3 ADD SWAP2 SWAP1 PUSH1 0x0 MSTORE PUSH1 0x20 PUSH1 0x0 KECCAK256 SWAP1 JUMPDEST DUP2 SLOAD DUP2 MSTORE SWAP1 PUSH1 0x1 ADD SWAP1 PUSH1 0x20 ADD DUP1 DUP4 GT PUSH2 0x8AA JUMPI DUP3 SWAP1 SUB PUSH1 0x1F AND DUP3 ADD SWAP2 JUMPDEST POP POP POP POP POP DUP2 MSTORE PUSH1 0x20 ADD PUSH1 0x1 PUSH1 0x0 DUP8 DUP2 MSTORE PUSH1 0x20 ADD SWAP1 DUP2 MSTORE PUSH1 0x20 ADD PUSH1 0x0 KECCAK256 PUSH1 0x2 ADD DUP1 SLOAD PUSH2 0x8F2 SWAP1 PUSH2 0x1F78 JUMP JUMPDEST DUP1 PUSH1 0x1F ADD PUSH1 0x20 DUP1 SWAP2 DIV MUL PUSH1 0x20 ADD PUSH1 0x40 MLOAD SWAP1 DUP2 ADD PUSH1 0x40 MSTORE DUP1 SWAP3 SWAP2 SWAP1 DUP2 DUP2 MSTORE PUSH1 0x20 ADD DUP3 DUP1 SLOAD PUSH2 0x91E SWAP1 PUSH2 0x1F78 JUMP JUMPDEST DUP1 ISZERO PUSH2 0x96B JUMPI DUP1 PUSH1 0x1F LT PUSH2 0x940 JUMPI PUSH2 0x100 DUP1 DUP4 SLOAD DIV MUL DUP4 MSTORE SWAP2 PUSH1 0x20 ADD SWAP2 PUSH2 0x96B JUMP JUMPDEST DUP3 ADD SWAP2 SWAP1 PUSH1 0x0 MSTORE PUSH1 0x20 PUSH1 0x0 KECCAK256 SWAP1 JUMPDEST DUP2 SLOAD DUP2 MSTORE SWAP1 PUSH1 0x1 ADD SWAP1 PUSH1 0x20 ADD DUP1 DUP4 GT PUSH2 0x94E JUMPI DUP3 SWAP1 SUB PUSH1 0x1F AND DUP3 ADD SWAP2 JUMPDEST POP POP POP POP POP DUP2 MSTORE PUSH1 0x20 ADD PUSH1 0x40 MLOAD DUP1 PUSH1 0x40 ADD PUSH1 0x40 MSTORE DUP1 PUSH1 0x7 DUP2 MSTORE PUSH1 0x20 ADD PUSH32 0x2A2A2A2A2A2A2A00000000000000000000000000000000000000000000000000 DUP2 MSTORE POP DUP2 MSTORE PUSH1 0x20 ADD PUSH1 0x1 PUSH1 0x0 DUP8 DUP2 MSTORE PUSH1 0x20 ADD SWAP1 DUP2 MSTORE PUSH1 0x20 ADD PUSH1 0x0 KECCAK256 PUSH1 0x4 ADD DUP1 SLOAD PUSH2 0x9D1 SWAP1 PUSH2 0x1F78 JUMP JUMPDEST DUP1 PUSH1 0x1F ADD PUSH1 0x20 DUP1 SWAP2 DIV MUL PUSH1 0x20 ADD PUSH1 0x40 MLOAD SWAP1 DUP2 ADD PUSH1 0x40 MSTORE DUP1 SWAP3 SWAP2 SWAP1 DUP2 DUP2 MSTORE PUSH1 0x20 ADD DUP3 DUP1 SLOAD PUSH2 0x9FD SWAP1 PUSH2 0x1F78 JUMP JUMPDEST DUP1 ISZERO PUSH2 0xA4A JUMPI DUP1 PUSH1 0x1F LT PUSH2 0xA1F JUMPI PUSH2 0x100 DUP1 DUP4 SLOAD DIV MUL DUP4 MSTORE SWAP2 PUSH1 0x20 ADD SWAP2 PUSH2 0xA4A JUMP JUMPDEST DUP3 ADD SWAP2 SWAP1 PUSH1 0x0 MSTORE PUSH1 0x20 PUSH1 0x0 KECCAK256 SWAP1 JUMPDEST DUP2 SLOAD DUP2 MSTORE SWAP1 PUSH1 0x1 ADD SWAP1 PUSH1 0x20 ADD DUP1 DUP4 GT PUSH2 0xA2D JUMPI DUP3 SWAP1 SUB PUSH1 0x1F AND DUP3 ADD SWAP2 JUMPDEST POP POP POP POP POP DUP2 MSTORE PUSH1 0x20 ADD PUSH1 0x1 PUSH1 0x0 DUP8 DUP2 MSTORE PUSH1 0x20 ADD SWAP1 DUP2 MSTORE PUSH1 0x20 ADD PUSH1 0x0 KECCAK256 PUSH1 0x5 ADD PUSH1 0x0 SWAP1 SLOAD SWAP1 PUSH2 0x100 EXP SWAP1 DIV PUSH1 0xFF AND PUSH1 0xFF AND DUP2 MSTORE PUSH1 0x20 ADD PUSH1 0x1 PUSH1 0x0 DUP8 DUP2 MSTORE PUSH1 0x20 ADD SWAP1 DUP2 MSTORE PUSH1 0x20 ADD PUSH1 0x0 KECCAK256 PUSH1 0x6 ADD DUP1 SLOAD PUSH2 0xAA1 SWAP1 PUSH2 0x1F78 JUMP JUMPDEST DUP1 PUSH1 0x1F ADD PUSH1 0x20 DUP1 SWAP2 DIV MUL PUSH1 0x20 ADD PUSH1 0x40 MLOAD SWAP1 DUP2 ADD PUSH1 0x40 MSTORE DUP1 SWAP3 SWAP2 SWAP1 DUP2 DUP2 MSTORE PUSH1 0x20 ADD DUP3 DUP1 SLOAD PUSH2 0xACD SWAP1 PUSH2 0x1F78 JUMP JUMPDEST DUP1 ISZERO PUSH2 0xB1A JUMPI DUP1 PUSH1 0x1F LT PUSH2 0xAEF JUMPI PUSH2 0x100 DUP1 DUP4 SLOAD DIV MUL DUP4 MSTORE SWAP2 PUSH1 0x20 ADD SWAP2 PUSH2 0xB1A JUMP JUMPDEST DUP3 ADD SWAP2 SWAP1 PUSH1 0x0 MSTORE PUSH1 0x20 PUSH1 0x0 KECCAK256 SWAP1 JUMPDEST DUP2 SLOAD DUP2 MSTORE SWAP1 PUSH1 0x1 ADD SWAP1 PUSH1 0x20 ADD DUP1 DUP4 GT PUSH2 0xAFD JUMPI DUP3 SWAP1 SUB PUSH1 0x1F AND DUP3 ADD SWAP2 JUMPDEST POP POP POP POP POP DUP2 MSTORE PUSH1 0x20 ADD PUSH1 0x1 PUSH1 0x0 DUP8 DUP2 MSTORE PUSH1 0x20 ADD SWAP1 DUP2 MSTORE PUSH1 0x20 ADD PUSH1 0x0 KECCAK256 PUSH1 0x7 ADD PUSH1 0x0 SWAP1 SLOAD SWAP1 PUSH2 0x100 EXP SWAP1 DIV PUSH20 0xFFFFFFFFFFFFFFFFFFFFFFFFFFFFFFFFFFFFFFFF AND PUSH20 0xFFFFFFFFFFFFFFFFFFFFFFFFFFFFFFFFFFFFFFFF AND DUP2 MSTORE PUSH1 0x20 ADD PUSH1 0x1 PUSH1 0x0 DUP8 DUP2 MSTORE PUSH1 0x20 ADD SWAP1 DUP2 MSTORE PUSH1 0x20 ADD PUSH1 0x0 KECCAK256 PUSH1 0x8 ADD SLOAD DUP2 MSTORE POP SWAP1 POP JUMPDEST DUP1 SWAP2 POP POP SWAP3 SWAP2 POP POP JUMP JUMPDEST CALLER PUSH20 0xFFFFFFFFFFFFFFFFFFFFFFFFFFFFFFFFFFFFFFFF AND PUSH1 0x1 PUSH1 0x0 DUP10 DUP2 MSTORE PUSH1 0x20 ADD SWAP1 DUP2 MSTORE PUSH1 0x20 ADD PUSH1 0x0 KECCAK256 PUSH1 0x7 ADD PUSH1 0x0 SWAP1 SLOAD SWAP1 PUSH2 0x100 EXP SWAP1 DIV PUSH20 0xFFFFFFFFFFFFFFFFFFFFFFFFFFFFFFFFFFFFFFFF AND PUSH20 0xFFFFFFFFFFFFFFFFFFFFFFFFFFFFFFFFFFFFFFFF AND EQ ISZERO DUP1 ISZERO PUSH2 0xC5A JUMPI POP PUSH2 0xC59 DUP2 DUP3 PUSH1 0x40 MLOAD PUSH1 0x20 ADD PUSH2 0xC1F SWAP2 SWAP1 PUSH2 0x21F4 JUMP JUMPDEST PUSH1 0x40 MLOAD PUSH1 0x20 DUP2 DUP4 SUB SUB DUP2 MSTORE SWAP1 PUSH1 0x40 MSTORE DUP1 MLOAD SWAP1 PUSH1 0x20 ADD KECCAK256 PUSH1 0x40 MLOAD PUSH1 0x20 ADD PUSH2 0xC45 SWAP2 SWAP1 PUSH2 0x222C JUMP JUMPDEST PUSH1 0x40 MLOAD PUSH1 0x20 DUP2 DUP4 SUB SUB DUP2 MSTORE SWAP1 PUSH1 0x40 MSTORE PUSH2 0x14E8 JUMP JUMPDEST JUMPDEST ISZERO PUSH2 0xD45 JUMPI DUP6 PUSH1 0x1 PUSH1 0x0 DUP10 DUP2 MSTORE PUSH1 0x20 ADD SWAP1 DUP2 MSTORE PUSH1 0x20 ADD PUSH1 0x0 KECCAK256 PUSH1 0x0 ADD SWAP1 DUP2 PUSH2 0xC82 SWAP2 SWAP1 PUSH2 0x23FD JUMP JUMPDEST POP DUP5 PUSH1 0x1 PUSH1 0x0 DUP10 DUP2 MSTORE PUSH1 0x20 ADD SWAP1 DUP2 MSTORE PUSH1 0x20 ADD PUSH1 0x0 KECCAK256 PUSH1 0x2 ADD SWAP1 DUP2 PUSH2 0xCA6 SWAP2 SWAP1 PUSH2 0x23FD JUMP JUMPDEST POP DUP4 PUSH1 0x1 PUSH1 0x0 DUP10 DUP2 MSTORE PUSH1 0x20 ADD SWAP1 DUP2 MSTORE PUSH1 0x20 ADD PUSH1 0x0 KECCAK256 PUSH1 0x4 ADD SWAP1 DUP2 PUSH2 0xCCA SWAP2 SWAP1 PUSH2 0x23FD JUMP JUMPDEST POP DUP3 PUSH1 0x1 PUSH1 0x0 DUP10 DUP2 MSTORE PUSH1 0x20 ADD SWAP1 DUP2 MSTORE PUSH1 0x20 ADD PUSH1 0x0 KECCAK256 PUSH1 0x7 ADD PUSH1 0x0 PUSH2 0x100 EXP DUP2 SLOAD DUP2 PUSH20 0xFFFFFFFFFFFFFFFFFFFFFFFFFFFFFFFFFFFFFFFF MUL NOT AND SWAP1 DUP4 PUSH20 0xFFFFFFFFFFFFFFFFFFFFFFFFFFFFFFFFFFFFFFFF AND MUL OR SWAP1 SSTORE POP DUP2 PUSH1 0x1 PUSH1 0x0 DUP10 DUP2 MSTORE PUSH1 0x20 ADD SWAP1 DUP2 MSTORE PUSH1 0x20 ADD PUSH1 0x0 KECCAK256 PUSH1 0x6 ADD SWAP1 DUP2 PUSH2 0xD43 SWAP2 SWAP1 PUSH2 0x23FD JUMP JUMPDEST POP JUMPDEST POP POP POP POP POP POP POP JUMP JUMPDEST PUSH1 0x0 PUSH2 0xD58 PUSH2 0x1541 JUMP JUMPDEST PUSH1 0x5 DUP6 PUSH1 0xFF AND GT ISZERO PUSH2 0xD9F JUMPI PUSH1 0x40 MLOAD PUSH32 0x8C379A000000000000000000000000000000000000000000000000000000000 DUP2 MSTORE PUSH1 0x4 ADD PUSH2 0xD96 SWAP1 PUSH2 0x252C JUMP JUMPDEST PUSH1 0x40 MLOAD DUP1 SWAP2 SUB SWAP1 REVERT JUMPDEST PUSH1 0xD DUP9 MLOAD EQ PUSH2 0xDE3 JUMPI PUSH1 0x40 MLOAD PUSH32 0x8C379A000000000000000000000000000000000000000000000000000000000 DUP2 MSTORE PUSH1 0x4 ADD PUSH2 0xDDA SWAP1 PUSH2 0x2598 JUMP JUMPDEST PUSH1 0x40 MLOAD DUP1 SWAP2 SUB SWAP1 REVERT JUMPDEST PUSH1 0x6 DUP10 MLOAD GT PUSH2 0xE27 JUMPI PUSH1 0x40 MLOAD PUSH32 0x8C379A000000000000000000000000000000000000000000000000000000000 DUP2 MSTORE PUSH1 0x4 ADD PUSH2 0xE1E SWAP1 PUSH2 0x2604 JUMP JUMPDEST PUSH1 0x40 MLOAD DUP1 SWAP2 SUB SWAP1 REVERT JUMPDEST PUSH1 0xA DUP8 MLOAD GT PUSH2 0xE6B JUMPI PUSH1 0x40 MLOAD PUSH32 0x8C379A000000000000000000000000000000000000000000000000000000000 DUP2 MSTORE PUSH1 0x4 ADD PUSH2 0xE62 SWAP1 PUSH2 0x2670 JUMP JUMPDEST PUSH1 0x40 MLOAD DUP1 SWAP2 SUB SWAP1 REVERT JUMPDEST PUSH1 0x8 DUP7 MLOAD GT PUSH2 0xEAF JUMPI PUSH1 0x40 MLOAD PUSH32 0x8C379A000000000000000000000000000000000000000000000000000000000 DUP2 MSTORE PUSH1 0x4 ADD PUSH2 0xEA6 SWAP1 PUSH2 0x26DC JUMP JUMPDEST PUSH1 0x40 MLOAD DUP1 SWAP2 SUB SWAP1 REVERT JUMPDEST PUSH1 0x6 DUP5 MLOAD GT PUSH2 0xEF3 JUMPI PUSH1 0x40 MLOAD PUSH32 0x8C379A000000000000000000000000000000000000000000000000000000000 DUP2 MSTORE PUSH1 0x4 ADD PUSH2 0xEEA SWAP1 PUSH2 0x2748 JUMP JUMPDEST PUSH1 0x40 MLOAD DUP1 SWAP2 SUB SWAP1 REVERT JUMPDEST PUSH1 0x0 DUP10 DUP10 PUSH2 0xF03 DUP9 PUSH1 0xFF AND PUSH2 0x15D1 JUMP JUMPDEST DUP11 DUP11 DUP10 PUSH1 0x40 MLOAD PUSH1 0x20 ADD PUSH2 0xF1B SWAP7 SWAP6 SWAP5 SWAP4 SWAP3 SWAP2 SWAP1 PUSH2 0x2768 JUMP JUMPDEST PUSH1 0x40 MLOAD PUSH1 0x20 DUP2 DUP4 SUB SUB DUP2 MSTORE SWAP1 PUSH1 0x40 MSTORE PUSH1 0x40 MLOAD PUSH1 0x20 ADD PUSH2 0xF3A SWAP2 SWAP1 PUSH2 0x21F4 JUMP JUMPDEST PUSH1 0x40 MLOAD PUSH1 0x20 DUP2 DUP4 SUB SUB DUP2 MSTORE SWAP1 PUSH1 0x40 MSTORE DUP1 MLOAD SWAP1 PUSH1 0x20 ADD KECCAK256 SWAP1 POP PUSH1 0x0 DUP7 PUSH1 0xFF AND SUB PUSH2 0x133A JUMPI PUSH1 0x40 MLOAD DUP1 PUSH2 0x120 ADD PUSH1 0x40 MSTORE DUP1 PUSH20 0x0 PUSH4 0x15CFEC7 DUP14 DUP12 PUSH1 0x40 MLOAD DUP4 PUSH4 0xFFFFFFFF AND PUSH1 0xE0 SHL DUP2 MSTORE PUSH1 0x4 ADD PUSH2 0xFA2 SWAP3 SWAP2 SWAP1 PUSH2 0x27C0 JUMP JUMPDEST PUSH1 0x0 PUSH1 0x40 MLOAD DUP1 DUP4 SUB DUP2 DUP7 GAS DELEGATECALL ISZERO DUP1 ISZERO PUSH2 0xFBF JUMPI RETURNDATASIZE PUSH1 0x0 DUP1 RETURNDATACOPY RETURNDATASIZE PUSH1 0x0 REVERT JUMPDEST POP POP POP POP PUSH1 0x40 MLOAD RETURNDATASIZE PUSH1 0x0 DUP3 RETURNDATACOPY RETURNDATASIZE PUSH1 0x1F NOT PUSH1 0x1F DUP3 ADD AND DUP3 ADD DUP1 PUSH1 0x40 MSTORE POP DUP2 ADD SWAP1 PUSH2 0xFE8 SWAP2 SWAP1 PUSH2 0x216F JUMP JUMPDEST DUP2 MSTORE PUSH1 0x20 ADD PUSH20 0x0 PUSH4 0x15CFEC7 DUP13 DUP12 PUSH1 0x40 MLOAD DUP4 PUSH4 0xFFFFFFFF AND PUSH1 0xE0 SHL DUP2 MSTORE PUSH1 0x4 ADD PUSH2 0x1026 SWAP3 SWAP2 SWAP1 PUSH2 0x27C0 JUMP JUMPDEST PUSH1 0x0 PUSH1 0x40 MLOAD DUP1 DUP4 SUB DUP2 DUP7 GAS DELEGATECALL ISZERO DUP1 ISZERO PUSH2 0x1043 JUMPI RETURNDATASIZE PUSH1 0x0 DUP1 RETURNDATACOPY RETURNDATASIZE PUSH1 0x0 REVERT JUMPDEST POP POP POP POP PUSH1 0x40 MLOAD RETURNDATASIZE PUSH1 0x0 DUP3 RETURNDATACOPY RETURNDATASIZE PUSH1 0x1F NOT PUSH1 0x1F DUP3 ADD AND DUP3 ADD DUP1 PUSH1 0x40 MSTORE POP DUP2 ADD SWAP1 PUSH2 0x106C SWAP2 SWAP1 PUSH2 0x216F JUMP JUMPDEST DUP2 MSTORE PUSH1 0x20 ADD PUSH20 0x0 PUSH4 0x15CFEC7 DUP12 DUP12 PUSH1 0x40 MLOAD DUP4 PUSH4 0xFFFFFFFF AND PUSH1 0xE0 SHL DUP2 MSTORE PUSH1 0x4 ADD PUSH2 0x10AA SWAP3 SWAP2 SWAP1 PUSH2 0x27C0 JUMP JUMPDEST PUSH1 0x0 PUSH1 0x40 MLOAD DUP1 DUP4 SUB DUP2 DUP7 GAS DELEGATECALL ISZERO DUP1 ISZERO PUSH2 0x10C7 JUMPI RETURNDATASIZE PUSH1 0x0 DUP1 RETURNDATACOPY RETURNDATASIZE PUSH1 0x0 REVERT JUMPDEST POP POP POP POP PUSH1 0x40 MLOAD RETURNDATASIZE PUSH1 0x0 DUP3 RETURNDATACOPY RETURNDATASIZE PUSH1 0x1F NOT PUSH1 0x1F DUP3 ADD AND DUP3 ADD DUP1 PUSH1 0x40 MSTORE POP DUP2 ADD SWAP1 PUSH2 0x10F0 SWAP2 SWAP1 PUSH2 0x216F JUMP JUMPDEST DUP2 MSTORE PUSH1 0x20 ADD DUP9 PUSH1 0x40 MLOAD PUSH1 0x20 ADD PUSH2 0x1106 SWAP2 SWAP1 PUSH2 0x21F4 JUMP JUMPDEST PUSH1 0x40 MLOAD PUSH1 0x20 DUP2 DUP4 SUB SUB DUP2 MSTORE SWAP1 PUSH1 0x40 MSTORE DUP1 MLOAD SWAP1 PUSH1 0x20 ADD KECCAK256 PUSH1 0x40 MLOAD PUSH1 0x20 ADD PUSH2 0x112C SWAP2 SWAP1 PUSH2 0x222C JUMP JUMPDEST PUSH1 0x40 MLOAD PUSH1 0x20 DUP2 DUP4 SUB SUB DUP2 MSTORE SWAP1 PUSH1 0x40 MSTORE DUP2 MSTORE PUSH1 0x20 ADD PUSH20 0x0 PUSH4 0x15CFEC7 DUP9 DUP12 PUSH1 0x40 MLOAD DUP4 PUSH4 0xFFFFFFFF AND PUSH1 0xE0 SHL DUP2 MSTORE PUSH1 0x4 ADD PUSH2 0x1179 SWAP3 SWAP2 SWAP1 PUSH2 0x27C0 JUMP JUMPDEST PUSH1 0x0 PUSH1 0x40 MLOAD DUP1 DUP4 SUB DUP2 DUP7 GAS DELEGATECALL ISZERO DUP1 ISZERO PUSH2 0x1196 JUMPI RETURNDATASIZE PUSH1 0x0 DUP1 RETURNDATACOPY RETURNDATASIZE PUSH1 0x0 REVERT JUMPDEST POP POP POP POP PUSH1 0x40 MLOAD RETURNDATASIZE PUSH1 0x0 DUP3 RETURNDATACOPY RETURNDATASIZE PUSH1 0x1F NOT PUSH1 0x1F DUP3 ADD AND DUP3 ADD DUP1 PUSH1 0x40 MSTORE POP DUP2 ADD SWAP1 PUSH2 0x11BF SWAP2 SWAP1 PUSH2 0x216F JUMP JUMPDEST DUP2 MSTORE PUSH1 0x20 ADD DUP8 PUSH1 0xFF AND DUP2 MSTORE PUSH1 0x20 ADD PUSH1 0x40 MLOAD DUP1 PUSH1 0x40 ADD PUSH1 0x40 MSTORE DUP1 PUSH1 0x1 DUP2 MSTORE PUSH1 0x20 ADD PUSH32 0x3000000000000000000000000000000000000000000000000000000000000000 DUP2 MSTORE POP DUP2 MSTORE PUSH1 0x20 ADD DUP6 PUSH20 0xFFFFFFFFFFFFFFFFFFFFFFFFFFFFFFFFFFFFFFFF AND DUP2 MSTORE PUSH1 0x20 ADD DUP3 DUP2 MSTORE POP PUSH1 0x1 PUSH1 0x0 DUP4 DUP2 MSTORE PUSH1 0x20 ADD SWAP1 DUP2 MSTORE PUSH1 0x20 ADD PUSH1 0x0 KECCAK256 PUSH1 0x0 DUP3 ADD MLOAD DUP2 PUSH1 0x0 ADD SWAP1 DUP2 PUSH2 0x1250 SWAP2 SWAP1 PUSH2 0x23FD JUMP JUMPDEST POP PUSH1 0x20 DUP3 ADD MLOAD DUP2 PUSH1 0x1 ADD SWAP1 DUP2 PUSH2 0x1266 SWAP2 SWAP1 PUSH2 0x23FD JUMP JUMPDEST POP PUSH1 0x40 DUP3 ADD MLOAD DUP2 PUSH1 0x2 ADD SWAP1 DUP2 PUSH2 0x127C SWAP2 SWAP1 PUSH2 0x23FD JUMP JUMPDEST POP PUSH1 0x60 DUP3 ADD MLOAD DUP2 PUSH1 0x3 ADD SWAP1 DUP2 PUSH2 0x1292 SWAP2 SWAP1 PUSH2 0x23FD JUMP JUMPDEST POP PUSH1 0x80 DUP3 ADD MLOAD DUP2 PUSH1 0x4 ADD SWAP1 DUP2 PUSH2 0x12A8 SWAP2 SWAP1 PUSH2 0x23FD JUMP JUMPDEST POP PUSH1 0xA0 DUP3 ADD MLOAD DUP2 PUSH1 0x5 ADD PUSH1 0x0 PUSH2 0x100 EXP DUP2 SLOAD DUP2 PUSH1 0xFF MUL NOT AND SWAP1 DUP4 PUSH1 0xFF AND MUL OR SWAP1 SSTORE POP PUSH1 0xC0 DUP3 ADD MLOAD DUP2 PUSH1 0x6 ADD SWAP1 DUP2 PUSH2 0x12DF SWAP2 SWAP1 PUSH2 0x23FD JUMP JUMPDEST POP PUSH1 0xE0 DUP3 ADD MLOAD DUP2 PUSH1 0x7 ADD PUSH1 0x0 PUSH2 0x100 EXP DUP2 SLOAD DUP2 PUSH20 0xFFFFFFFFFFFFFFFFFFFFFFFFFFFFFFFFFFFFFFFF MUL NOT AND SWAP1 DUP4 PUSH20 0xFFFFFFFFFFFFFFFFFFFFFFFFFFFFFFFFFFFFFFFF AND MUL OR SWAP1 SSTORE POP PUSH2 0x100 DUP3 ADD MLOAD DUP2 PUSH1 0x8 ADD SSTORE SWAP1 POP POP PUSH2 0x14A1 JUMP JUMPDEST PUSH1 0x40 MLOAD DUP1 PUSH2 0x120 ADD PUSH1 0x40 MSTORE DUP1 DUP12 DUP2 MSTORE PUSH1 0x20 ADD DUP11 DUP2 MSTORE PUSH1 0x20 ADD DUP10 DUP2 MSTORE PUSH1 0x20 ADD DUP9 DUP2 MSTORE PUSH1 0x20 ADD DUP7 DUP2 MSTORE PUSH1 0x20 ADD DUP8 PUSH1 0xFF AND DUP2 MSTORE PUSH1 0x20 ADD DUP5 DUP2 MSTORE PUSH1 0x20 ADD DUP6 PUSH20 0xFFFFFFFFFFFFFFFFFFFFFFFFFFFFFFFFFFFFFFFF AND DUP2 MSTORE PUSH1 0x20 ADD DUP3 DUP2 MSTORE POP PUSH1 0x1 PUSH1 0x0 DUP4 DUP2 MSTORE PUSH1 0x20 ADD SWAP1 DUP2 MSTORE PUSH1 0x20 ADD PUSH1 0x0 KECCAK256 PUSH1 0x0 DUP3 ADD MLOAD DUP2 PUSH1 0x0 ADD SWAP1 DUP2 PUSH2 0x13BB SWAP2 SWAP1 PUSH2 0x23FD JUMP JUMPDEST POP PUSH1 0x20 DUP3 ADD MLOAD DUP2 PUSH1 0x1 ADD SWAP1 DUP2 PUSH2 0x13D1 SWAP2 SWAP1 PUSH2 0x23FD JUMP JUMPDEST POP PUSH1 0x40 DUP3 ADD MLOAD DUP2 PUSH1 0x2 ADD SWAP1 DUP2 PUSH2 0x13E7 SWAP2 SWAP1 PUSH2 0x23FD JUMP JUMPDEST POP PUSH1 0x60 DUP3 ADD MLOAD DUP2 PUSH1 0x3 ADD SWAP1 DUP2 PUSH2 0x13FD SWAP2 SWAP1 PUSH2 0x23FD JUMP JUMPDEST POP PUSH1 0x80 DUP3 ADD MLOAD DUP2 PUSH1 0x4 ADD SWAP1 DUP2 PUSH2 0x1413 SWAP2 SWAP1 PUSH2 0x23FD JUMP JUMPDEST POP PUSH1 0xA0 DUP3 ADD MLOAD DUP2 PUSH1 0x5 ADD PUSH1 0x0 PUSH2 0x100 EXP DUP2 SLOAD DUP2 PUSH1 0xFF MUL NOT AND SWAP1 DUP4 PUSH1 0xFF AND MUL OR SWAP1 SSTORE POP PUSH1 0xC0 DUP3 ADD MLOAD DUP2 PUSH1 0x6 ADD SWAP1 DUP2 PUSH2 0x144A SWAP2 SWAP1 PUSH2 0x23FD JUMP JUMPDEST POP PUSH1 0xE0 DUP3 ADD MLOAD DUP2 PUSH1 0x7 ADD PUSH1 0x0 PUSH2 0x100 EXP DUP2 SLOAD DUP2 PUSH20 0xFFFFFFFFFFFFFFFFFFFFFFFFFFFFFFFFFFFFFFFF MUL NOT AND SWAP1 DUP4 PUSH20 0xFFFFFFFFFFFFFFFFFFFFFFFFFFFFFFFFFFFFFFFF AND MUL OR SWAP1 SSTORE POP PUSH2 0x100 DUP3 ADD MLOAD DUP2 PUSH1 0x8 ADD SSTORE SWAP1 POP POP JUMPDEST PUSH32 0xA8C560616579705E004D37FD505597CD07D92D2604F0B9B435752FA9378E2655 DUP2 PUSH1 0x40 MLOAD PUSH2 0x14D0 SWAP2 SWAP1 PUSH2 0x1F2E JUMP JUMPDEST PUSH1 0x40 MLOAD DUP1 SWAP2 SUB SWAP1 LOG1 DUP1 SWAP2 POP POP SWAP9 SWAP8 POP POP POP POP POP POP POP POP JUMP JUMPDEST PUSH1 0x0 DUP2 PUSH1 0x40 MLOAD PUSH1 0x20 ADD PUSH2 0x14FB SWAP2 SWAP1 PUSH2 0x21F4 JUMP JUMPDEST PUSH1 0x40 MLOAD PUSH1 0x20 DUP2 DUP4 SUB SUB DUP2 MSTORE SWAP1 PUSH1 0x40 MSTORE DUP1 MLOAD SWAP1 PUSH1 0x20 ADD KECCAK256 DUP4 PUSH1 0x40 MLOAD PUSH1 0x20 ADD PUSH2 0x1522 SWAP2 SWAP1 PUSH2 0x21F4 JUMP JUMPDEST PUSH1 0x40 MLOAD PUSH1 0x20 DUP2 DUP4 SUB SUB DUP2 MSTORE SWAP1 PUSH1 0x40 MSTORE DUP1 MLOAD SWAP1 PUSH1 0x20 ADD KECCAK256 EQ SWAP1 POP SWAP3 SWAP2 POP POP JUMP JUMPDEST CALLER PUSH20 0xFFFFFFFFFFFFFFFFFFFFFFFFFFFFFFFFFFFFFFFF AND PUSH1 0x0 DUP1 SLOAD SWAP1 PUSH2 0x100 EXP SWAP1 DIV PUSH20 0xFFFFFFFFFFFFFFFFFFFFFFFFFFFFFFFFFFFFFFFF AND PUSH20 0xFFFFFFFFFFFFFFFFFFFFFFFFFFFFFFFFFFFFFFFF AND EQ PUSH2 0x15CF JUMPI PUSH1 0x40 MLOAD PUSH32 0x8C379A000000000000000000000000000000000000000000000000000000000 DUP2 MSTORE PUSH1 0x4 ADD PUSH2 0x15C6 SWAP1 PUSH2 0x2843 JUMP JUMPDEST PUSH1 0x40 MLOAD DUP1 SWAP2 SUB SWAP1 REVERT JUMPDEST JUMP JUMPDEST PUSH1 0x60 PUSH1 0x0 PUSH1 0x1 PUSH2 0x15E0 DUP5 PUSH2 0x169F JUMP JUMPDEST ADD SWAP1 POP PUSH1 0x0 DUP2 PUSH8 0xFFFFFFFFFFFFFFFF DUP2 GT ISZERO PUSH2 0x15FF JUMPI PUSH2 0x15FE PUSH2 0x18BF JUMP JUMPDEST JUMPDEST PUSH1 0x40 MLOAD SWAP1 DUP1 DUP3 MSTORE DUP1 PUSH1 0x1F ADD PUSH1 0x1F NOT AND PUSH1 0x20 ADD DUP3 ADD PUSH1 0x40 MSTORE DUP1 ISZERO PUSH2 0x1631 JUMPI DUP2 PUSH1 0x20 ADD PUSH1 0x1 DUP3 MUL DUP1 CALLDATASIZE DUP4 CALLDATACOPY DUP1 DUP3 ADD SWAP2 POP POP SWAP1 POP JUMPDEST POP SWAP1 POP PUSH1 0x0 DUP3 PUSH1 0x20 ADD DUP3 ADD SWAP1 POP JUMPDEST PUSH1 0x1 ISZERO PUSH2 0x1694 JUMPI DUP1 DUP1 PUSH1 0x1 SWAP1 SUB SWAP2 POP POP PUSH32 0x3031323334353637383961626364656600000000000000000000000000000000 PUSH1 0xA DUP7 MOD BYTE DUP2 MSTORE8 PUSH1 0xA DUP6 DUP2 PUSH2 0x1688 JUMPI PUSH2 0x1687 PUSH2 0x2863 JUMP JUMPDEST JUMPDEST DIV SWAP5 POP PUSH1 0x0 DUP6 SUB PUSH2 0x163F JUMPI JUMPDEST DUP2 SWAP4 POP POP POP POP SWAP2 SWAP1 POP JUMP JUMPDEST PUSH1 0x0 DUP1 PUSH1 0x0 SWAP1 POP PUSH27 0x184F03E93FF9F4DAA797ED6E38ED64BF6A1F010000000000000000 DUP4 LT PUSH2 0x16FD JUMPI PUSH27 0x184F03E93FF9F4DAA797ED6E38ED64BF6A1F010000000000000000 DUP4 DUP2 PUSH2 0x16F3 JUMPI PUSH2 0x16F2 PUSH2 0x2863 JUMP JUMPDEST JUMPDEST DIV SWAP3 POP PUSH1 0x40 DUP2 ADD SWAP1 POP JUMPDEST PUSH14 0x4EE2D6D415B85ACEF8100000000 DUP4 LT PUSH2 0x173A JUMPI PUSH14 0x4EE2D6D415B85ACEF8100000000 DUP4 DUP2 PUSH2 0x1730 JUMPI PUSH2 0x172F PUSH2 0x2863 JUMP JUMPDEST JUMPDEST DIV SWAP3 POP PUSH1 0x20 DUP2 ADD SWAP1 POP JUMPDEST PUSH7 0x2386F26FC10000 DUP4 LT PUSH2 0x1769 JUMPI PUSH7 0x2386F26FC10000 DUP4 DUP2 PUSH2 0x175F JUMPI PUSH2 0x175E PUSH2 0x2863 JUMP JUMPDEST JUMPDEST DIV SWAP3 POP PUSH1 0x10 DUP2 ADD SWAP1 POP JUMPDEST PUSH4 0x5F5E100 DUP4 LT PUSH2 0x1792 JUMPI PUSH4 0x5F5E100 DUP4 DUP2 PUSH2 0x1788 JUMPI PUSH2 0x1787 PUSH2 0x2863 JUMP JUMPDEST JUMPDEST DIV SWAP3 POP PUSH1 0x8 DUP2 ADD SWAP1 POP JUMPDEST PUSH2 0x2710 DUP4 LT PUSH2 0x17B7 JUMPI PUSH2 0x2710 DUP4 DUP2 PUSH2 0x17AD JUMPI PUSH2 0x17AC PUSH2 0x2863 JUMP JUMPDEST JUMPDEST DIV SWAP3 POP PUSH1 0x4 DUP2 ADD SWAP1 POP JUMPDEST PUSH1 0x64 DUP4 LT PUSH2 0x17DA JUMPI PUSH1 0x64 DUP4 DUP2 PUSH2 0x17D0 JUMPI PUSH2 0x17CF PUSH2 0x2863 JUMP JUMPDEST JUMPDEST DIV SWAP3 POP PUSH1 0x2 DUP2 ADD SWAP1 POP JUMPDEST PUSH1 0xA DUP4 LT PUSH2 0x17E9 JUMPI PUSH1 0x1 DUP2 ADD SWAP1 POP JUMPDEST DUP1 SWAP2 POP POP SWAP2 SWAP1 POP JUMP JUMPDEST PUSH1 0x40 MLOAD DUP1 PUSH2 0x120 ADD PUSH1 0x40 MSTORE DUP1 PUSH1 0x60 DUP2 MSTORE PUSH1 0x20 ADD PUSH1 0x60 DUP2 MSTORE PUSH1 0x20 ADD PUSH1 0x60 DUP2 MSTORE PUSH1 0x20 ADD PUSH1 0x60 DUP2 MSTORE PUSH1 0x20 ADD PUSH1 0x60 DUP2 MSTORE PUSH1 0x20 ADD PUSH1 0x0 PUSH1 0xFF AND DUP2 MSTORE PUSH1 0x20 ADD PUSH1 0x60 DUP2 MSTORE PUSH1 0x20 ADD PUSH1 0x0 PUSH20 0xFFFFFFFFFFFFFFFFFFFFFFFFFFFFFFFFFFFFFFFF AND DUP2 MSTORE PUSH1 0x20 ADD PUSH1 0x0 DUP1 NOT AND DUP2 MSTORE POP SWAP1 JUMP JUMPDEST PUSH1 0x0 PUSH1 0x40 MLOAD SWAP1 POP SWAP1 JUMP JUMPDEST PUSH1 0x0 DUP1 REVERT JUMPDEST PUSH1 0x0 DUP1 REVERT JUMPDEST PUSH1 0x0 DUP2 SWAP1 POP SWAP2 SWAP1 POP JUMP JUMPDEST PUSH2 0x1881 DUP2 PUSH2 0x186E JUMP JUMPDEST DUP2 EQ PUSH2 0x188C JUMPI PUSH1 0x0 DUP1 REVERT JUMPDEST POP JUMP JUMPDEST PUSH1 0x0 DUP2 CALLDATALOAD SWAP1 POP PUSH2 0x189E DUP2 PUSH2 0x1878 JUMP JUMPDEST SWAP3 SWAP2 POP POP JUMP JUMPDEST PUSH1 0x0 DUP1 REVERT JUMPDEST PUSH1 0x0 DUP1 REVERT JUMPDEST PUSH1 0x0 PUSH1 0x1F NOT PUSH1 0x1F DUP4 ADD AND SWAP1 POP SWAP2 SWAP1 POP JUMP JUMPDEST PUSH32 0x4E487B7100000000000000000000000000000000000000000000000000000000 PUSH1 0x0 MSTORE PUSH1 0x41 PUSH1 0x4 MSTORE PUSH1 0x24 PUSH1 0x0 REVERT JUMPDEST PUSH2 0x18F7 DUP3 PUSH2 0x18AE JUMP JUMPDEST DUP2 ADD DUP2 DUP2 LT PUSH8 0xFFFFFFFFFFFFFFFF DUP3 GT OR ISZERO PUSH2 0x1916 JUMPI PUSH2 0x1915 PUSH2 0x18BF JUMP JUMPDEST JUMPDEST DUP1 PUSH1 0x40 MSTORE POP POP POP JUMP JUMPDEST PUSH1 0x0 PUSH2 0x1929 PUSH2 0x185A JUMP JUMPDEST SWAP1 POP PUSH2 0x1935 DUP3 DUP3 PUSH2 0x18EE JUMP JUMPDEST SWAP2 SWAP1 POP JUMP JUMPDEST PUSH1 0x0 PUSH8 0xFFFFFFFFFFFFFFFF DUP3 GT ISZERO PUSH2 0x1955 JUMPI PUSH2 0x1954 PUSH2 0x18BF JUMP JUMPDEST JUMPDEST PUSH2 0x195E DUP3 PUSH2 0x18AE JUMP JUMPDEST SWAP1 POP PUSH1 0x20 DUP2 ADD SWAP1 POP SWAP2 SWAP1 POP JUMP JUMPDEST DUP3 DUP2 DUP4 CALLDATACOPY PUSH1 0x0 DUP4 DUP4 ADD MSTORE POP POP POP JUMP JUMPDEST PUSH1 0x0 PUSH2 0x198D PUSH2 0x1988 DUP5 PUSH2 0x193A JUMP JUMPDEST PUSH2 0x191F JUMP JUMPDEST SWAP1 POP DUP3 DUP2 MSTORE PUSH1 0x20 DUP2 ADD DUP5 DUP5 DUP5 ADD GT ISZERO PUSH2 0x19A9 JUMPI PUSH2 0x19A8 PUSH2 0x18A9 JUMP JUMPDEST JUMPDEST PUSH2 0x19B4 DUP5 DUP3 DUP6 PUSH2 0x196B JUMP JUMPDEST POP SWAP4 SWAP3 POP POP POP JUMP JUMPDEST PUSH1 0x0 DUP3 PUSH1 0x1F DUP4 ADD SLT PUSH2 0x19D1 JUMPI PUSH2 0x19D0 PUSH2 0x18A4 JUMP JUMPDEST JUMPDEST DUP2 CALLDATALOAD PUSH2 0x19E1 DUP5 DUP3 PUSH1 0x20 DUP7 ADD PUSH2 0x197A JUMP JUMPDEST SWAP2 POP POP SWAP3 SWAP2 POP POP JUMP JUMPDEST PUSH1 0x0 DUP1 PUSH1 0x40 DUP4 DUP6 SUB SLT ISZERO PUSH2 0x1A01 JUMPI PUSH2 0x1A00 PUSH2 0x1864 JUMP JUMPDEST JUMPDEST PUSH1 0x0 PUSH2 0x1A0F DUP6 DUP3 DUP7 ADD PUSH2 0x188F JUMP JUMPDEST SWAP3 POP POP PUSH1 0x20 DUP4 ADD CALLDATALOAD PUSH8 0xFFFFFFFFFFFFFFFF DUP2 GT ISZERO PUSH2 0x1A30 JUMPI PUSH2 0x1A2F PUSH2 0x1869 JUMP JUMPDEST JUMPDEST PUSH2 0x1A3C DUP6 DUP3 DUP7 ADD PUSH2 0x19BC JUMP JUMPDEST SWAP2 POP POP SWAP3 POP SWAP3 SWAP1 POP JUMP JUMPDEST PUSH1 0x0 DUP2 MLOAD SWAP1 POP SWAP2 SWAP1 POP JUMP JUMPDEST PUSH1 0x0 DUP3 DUP3 MSTORE PUSH1 0x20 DUP3 ADD SWAP1 POP SWAP3 SWAP2 POP POP JUMP JUMPDEST PUSH1 0x0 JUMPDEST DUP4 DUP2 LT ISZERO PUSH2 0x1A80 JUMPI DUP1 DUP3 ADD MLOAD DUP2 DUP5 ADD MSTORE PUSH1 0x20 DUP2 ADD SWAP1 POP PUSH2 0x1A65 JUMP JUMPDEST PUSH1 0x0 DUP5 DUP5 ADD MSTORE POP POP POP POP JUMP JUMPDEST PUSH1 0x0 PUSH2 0x1A97 DUP3 PUSH2 0x1A46 JUMP JUMPDEST PUSH2 0x1AA1 DUP2 DUP6 PUSH2 0x1A51 JUMP JUMPDEST SWAP4 POP PUSH2 0x1AB1 DUP2 DUP6 PUSH1 0x20 DUP7 ADD PUSH2 0x1A62 JUMP JUMPDEST PUSH2 0x1ABA DUP2 PUSH2 0x18AE JUMP JUMPDEST DUP5 ADD SWAP2 POP POP SWAP3 SWAP2 POP POP JUMP JUMPDEST PUSH1 0x0 PUSH1 0xFF DUP3 AND SWAP1 POP SWAP2 SWAP1 POP JUMP JUMPDEST PUSH2 0x1ADB DUP2 PUSH2 0x1AC5 JUMP JUMPDEST DUP3 MSTORE POP POP JUMP JUMPDEST PUSH1 0x0 PUSH20 0xFFFFFFFFFFFFFFFFFFFFFFFFFFFFFFFFFFFFFFFF DUP3 AND SWAP1 POP SWAP2 SWAP1 POP JUMP JUMPDEST PUSH1 0x0 PUSH2 0x1B0C DUP3 PUSH2 0x1AE1 JUMP JUMPDEST SWAP1 POP SWAP2 SWAP1 POP JUMP JUMPDEST PUSH2 0x1B1C DUP2 PUSH2 0x1B01 JUMP JUMPDEST DUP3 MSTORE POP POP JUMP JUMPDEST PUSH2 0x1B2B DUP2 PUSH2 0x186E JUMP JUMPDEST DUP3 MSTORE POP POP JUMP JUMPDEST PUSH1 0x0 PUSH2 0x120 DUP4 ADD PUSH1 0x0 DUP4 ADD MLOAD DUP5 DUP3 SUB PUSH1 0x0 DUP7 ADD MSTORE PUSH2 0x1B4F DUP3 DUP3 PUSH2 0x1A8C JUMP JUMPDEST SWAP2 POP POP PUSH1 0x20 DUP4 ADD MLOAD DUP5 DUP3 SUB PUSH1 0x20 DUP7 ADD MSTORE PUSH2 0x1B69 DUP3 DUP3 PUSH2 0x1A8C JUMP JUMPDEST SWAP2 POP POP PUSH1 0x40 DUP4 ADD MLOAD DUP5 DUP3 SUB PUSH1 0x40 DUP7 ADD MSTORE PUSH2 0x1B83 DUP3 DUP3 PUSH2 0x1A8C JUMP JUMPDEST SWAP2 POP POP PUSH1 0x60 DUP4 ADD MLOAD DUP5 DUP3 SUB PUSH1 0x60 DUP7 ADD MSTORE PUSH2 0x1B9D DUP3 DUP3 PUSH2 0x1A8C JUMP JUMPDEST SWAP2 POP POP PUSH1 0x80 DUP4 ADD MLOAD DUP5 DUP3 SUB PUSH1 0x80 DUP7 ADD MSTORE PUSH2 0x1BB7 DUP3 DUP3 PUSH2 0x1A8C JUMP JUMPDEST SWAP2 POP POP PUSH1 0xA0 DUP4 ADD MLOAD PUSH2 0x1BCC PUSH1 0xA0 DUP7 ADD DUP3 PUSH2 0x1AD2 JUMP JUMPDEST POP PUSH1 0xC0 DUP4 ADD MLOAD DUP5 DUP3 SUB PUSH1 0xC0 DUP7 ADD MSTORE PUSH2 0x1BE4 DUP3 DUP3 PUSH2 0x1A8C JUMP JUMPDEST SWAP2 POP POP PUSH1 0xE0 DUP4 ADD MLOAD PUSH2 0x1BF9 PUSH1 0xE0 DUP7 ADD DUP3 PUSH2 0x1B13 JUMP JUMPDEST POP PUSH2 0x100 DUP4 ADD MLOAD PUSH2 0x1C0E PUSH2 0x100 DUP7 ADD DUP3 PUSH2 0x1B22 JUMP JUMPDEST POP DUP1 SWAP2 POP POP SWAP3 SWAP2 POP POP JUMP JUMPDEST PUSH1 0x0 PUSH1 0x20 DUP3 ADD SWAP1 POP DUP2 DUP2 SUB PUSH1 0x0 DUP4 ADD MSTORE PUSH2 0x1C33 DUP2 DUP5 PUSH2 0x1B31 JUMP JUMPDEST SWAP1 POP SWAP3 SWAP2 POP POP JUMP JUMPDEST PUSH2 0x1C44 DUP2 PUSH2 0x1B01 JUMP JUMPDEST DUP2 EQ PUSH2 0x1C4F JUMPI PUSH1 0x0 DUP1 REVERT JUMPDEST POP JUMP JUMPDEST PUSH1 0x0 DUP2 CALLDATALOAD SWAP1 POP PUSH2 0x1C61 DUP2 PUSH2 0x1C3B JUMP JUMPDEST SWAP3 SWAP2 POP POP JUMP JUMPDEST PUSH1 0x0 DUP1 PUSH1 0x0 DUP1 PUSH1 0x0 DUP1 PUSH1 0x0 PUSH1 0xE0 DUP9 DUP11 SUB SLT ISZERO PUSH2 0x1C86 JUMPI PUSH2 0x1C85 PUSH2 0x1864 JUMP JUMPDEST JUMPDEST PUSH1 0x0 PUSH2 0x1C94 DUP11 DUP3 DUP12 ADD PUSH2 0x188F JUMP JUMPDEST SWAP8 POP POP PUSH1 0x20 DUP9 ADD CALLDATALOAD PUSH8 0xFFFFFFFFFFFFFFFF DUP2 GT ISZERO PUSH2 0x1CB5 JUMPI PUSH2 0x1CB4 PUSH2 0x1869 JUMP JUMPDEST JUMPDEST PUSH2 0x1CC1 DUP11 DUP3 DUP12 ADD PUSH2 0x19BC JUMP JUMPDEST SWAP7 POP POP PUSH1 0x40 DUP9 ADD CALLDATALOAD PUSH8 0xFFFFFFFFFFFFFFFF DUP2 GT ISZERO PUSH2 0x1CE2 JUMPI PUSH2 0x1CE1 PUSH2 0x1869 JUMP JUMPDEST JUMPDEST PUSH2 0x1CEE DUP11 DUP3 DUP12 ADD PUSH2 0x19BC JUMP JUMPDEST SWAP6 POP POP PUSH1 0x60 DUP9 ADD CALLDATALOAD PUSH8 0xFFFFFFFFFFFFFFFF DUP2 GT ISZERO PUSH2 0x1D0F JUMPI PUSH2 0x1D0E PUSH2 0x1869 JUMP JUMPDEST JUMPDEST PUSH2 0x1D1B DUP11 DUP3 DUP12 ADD PUSH2 0x19BC JUMP JUMPDEST SWAP5 POP POP PUSH1 0x80 PUSH2 0x1D2C DUP11 DUP3 DUP12 ADD PUSH2 0x1C52 JUMP JUMPDEST SWAP4 POP POP PUSH1 0xA0 DUP9 ADD CALLDATALOAD PUSH8 0xFFFFFFFFFFFFFFFF DUP2 GT ISZERO PUSH2 0x1D4D JUMPI PUSH2 0x1D4C PUSH2 0x1869 JUMP JUMPDEST JUMPDEST PUSH2 0x1D59 DUP11 DUP3 DUP12 ADD PUSH2 0x19BC JUMP JUMPDEST SWAP3 POP POP PUSH1 0xC0 DUP9 ADD CALLDATALOAD PUSH8 0xFFFFFFFFFFFFFFFF DUP2 GT ISZERO PUSH2 0x1D7A JUMPI PUSH2 0x1D79 PUSH2 0x1869 JUMP JUMPDEST JUMPDEST PUSH2 0x1D86 DUP11 DUP3 DUP12 ADD PUSH2 0x19BC JUMP JUMPDEST SWAP2 POP POP SWAP3 SWAP6 SWAP9 SWAP2 SWAP5 SWAP8 POP SWAP3 SWAP6 POP JUMP JUMPDEST PUSH2 0x1D9E DUP2 PUSH2 0x1AC5 JUMP JUMPDEST DUP2 EQ PUSH2 0x1DA9 JUMPI PUSH1 0x0 DUP1 REVERT JUMPDEST POP JUMP JUMPDEST PUSH1 0x0 DUP2 CALLDATALOAD SWAP1 POP PUSH2 0x1DBB DUP2 PUSH2 0x1D95 JUMP JUMPDEST SWAP3 SWAP2 POP POP JUMP JUMPDEST PUSH1 0x0 DUP1 PUSH1 0x0 DUP1 PUSH1 0x0 DUP1 PUSH1 0x0 DUP1 PUSH2 0x100 DUP10 DUP12 SUB SLT ISZERO PUSH2 0x1DE2 JUMPI PUSH2 0x1DE1 PUSH2 0x1864 JUMP JUMPDEST JUMPDEST PUSH1 0x0 DUP10 ADD CALLDATALOAD PUSH8 0xFFFFFFFFFFFFFFFF DUP2 GT ISZERO PUSH2 0x1E00 JUMPI PUSH2 0x1DFF PUSH2 0x1869 JUMP JUMPDEST JUMPDEST PUSH2 0x1E0C DUP12 DUP3 DUP13 ADD PUSH2 0x19BC JUMP JUMPDEST SWAP9 POP POP PUSH1 0x20 DUP10 ADD CALLDATALOAD PUSH8 0xFFFFFFFFFFFFFFFF DUP2 GT ISZERO PUSH2 0x1E2D JUMPI PUSH2 0x1E2C PUSH2 0x1869 JUMP JUMPDEST JUMPDEST PUSH2 0x1E39 DUP12 DUP3 DUP13 ADD PUSH2 0x19BC JUMP JUMPDEST SWAP8 POP POP PUSH1 0x40 DUP10 ADD CALLDATALOAD PUSH8 0xFFFFFFFFFFFFFFFF DUP2 GT ISZERO PUSH2 0x1E5A JUMPI PUSH2 0x1E59 PUSH2 0x1869 JUMP JUMPDEST JUMPDEST PUSH2 0x1E66 DUP12 DUP3 DUP13 ADD PUSH2 0x19BC JUMP JUMPDEST SWAP7 POP POP PUSH1 0x60 DUP10 ADD CALLDATALOAD PUSH8 0xFFFFFFFFFFFFFFFF DUP2 GT ISZERO PUSH2 0x1E87 JUMPI PUSH2 0x1E86 PUSH2 0x1869 JUMP JUMPDEST JUMPDEST PUSH2 0x1E93 DUP12 DUP3 DUP13 ADD PUSH2 0x19BC JUMP JUMPDEST SWAP6 POP POP PUSH1 0x80 PUSH2 0x1EA4 DUP12 DUP3 DUP13 ADD PUSH2 0x1DAC JUMP JUMPDEST SWAP5 POP POP PUSH1 0xA0 DUP10 ADD CALLDATALOAD PUSH8 0xFFFFFFFFFFFFFFFF DUP2 GT ISZERO PUSH2 0x1EC5 JUMPI PUSH2 0x1EC4 PUSH2 0x1869 JUMP JUMPDEST JUMPDEST PUSH2 0x1ED1 DUP12 DUP3 DUP13 ADD PUSH2 0x19BC JUMP JUMPDEST SWAP4 POP POP PUSH1 0xC0 PUSH2 0x1EE2 DUP12 DUP3 DUP13 ADD PUSH2 0x1C52 JUMP JUMPDEST SWAP3 POP POP PUSH1 0xE0 DUP10 ADD CALLDATALOAD PUSH8 0xFFFFFFFFFFFFFFFF DUP2 GT ISZERO PUSH2 0x1F03 JUMPI PUSH2 0x1F02 PUSH2 0x1869 JUMP JUMPDEST JUMPDEST PUSH2 0x1F0F DUP12 DUP3 DUP13 ADD PUSH2 0x19BC JUMP JUMPDEST SWAP2 POP POP SWAP3 SWAP6 SWAP9 POP SWAP3 SWAP6 SWAP9 SWAP1 SWAP4 SWAP7 POP JUMP JUMPDEST PUSH2 0x1F28 DUP2 PUSH2 0x186E JUMP JUMPDEST DUP3 MSTORE POP POP JUMP JUMPDEST PUSH1 0x0 PUSH1 0x20 DUP3 ADD SWAP1 POP PUSH2 0x1F43 PUSH1 0x0 DUP4 ADD DUP5 PUSH2 0x1F1F JUMP JUMPDEST SWAP3 SWAP2 POP POP JUMP JUMPDEST PUSH32 0x4E487B7100000000000000000000000000000000000000000000000000000000 PUSH1 0x0 MSTORE PUSH1 0x22 PUSH1 0x4 MSTORE PUSH1 0x24 PUSH1 0x0 REVERT JUMPDEST PUSH1 0x0 PUSH1 0x2 DUP3 DIV SWAP1 POP PUSH1 0x1 DUP3 AND DUP1 PUSH2 0x1F90 JUMPI PUSH1 0x7F DUP3 AND SWAP2 POP JUMPDEST PUSH1 0x20 DUP3 LT DUP2 SUB PUSH2 0x1FA3 JUMPI PUSH2 0x1FA2 PUSH2 0x1F49 JUMP JUMPDEST JUMPDEST POP SWAP2 SWAP1 POP JUMP JUMPDEST PUSH1 0x0 DUP3 DUP3 MSTORE PUSH1 0x20 DUP3 ADD SWAP1 POP SWAP3 SWAP2 POP POP JUMP JUMPDEST PUSH1 0x0 DUP2 SWAP1 POP DUP2 PUSH1 0x0 MSTORE PUSH1 0x20 PUSH1 0x0 KECCAK256 SWAP1 POP SWAP2 SWAP1 POP JUMP JUMPDEST PUSH1 0x0 DUP2 SLOAD PUSH2 0x1FDC DUP2 PUSH2 0x1F78 JUMP JUMPDEST PUSH2 0x1FE6 DUP2 DUP7 PUSH2 0x1FA9 JUMP JUMPDEST SWAP5 POP PUSH1 0x1 DUP3 AND PUSH1 0x0 DUP2 EQ PUSH2 0x2001 JUMPI PUSH1 0x1 DUP2 EQ PUSH2 0x2017 JUMPI PUSH2 0x204A JUMP JUMPDEST PUSH1 0xFF NOT DUP4 AND DUP7 MSTORE DUP2 ISZERO ISZERO PUSH1 0x20 MUL DUP7 ADD SWAP4 POP PUSH2 0x204A JUMP JUMPDEST PUSH2 0x2020 DUP6 PUSH2 0x1FBA JUMP JUMPDEST PUSH1 0x0 JUMPDEST DUP4 DUP2 LT ISZERO PUSH2 0x2042 JUMPI DUP2 SLOAD DUP2 DUP10 ADD MSTORE PUSH1 0x1 DUP3 ADD SWAP2 POP PUSH1 0x20 DUP2 ADD SWAP1 POP PUSH2 0x2023 JUMP JUMPDEST DUP1 DUP9 ADD SWAP6 POP POP POP JUMPDEST POP POP POP SWAP3 SWAP2 POP POP JUMP JUMPDEST PUSH1 0x0 DUP2 MLOAD SWAP1 POP SWAP2 SWAP1 POP JUMP JUMPDEST PUSH1 0x0 PUSH2 0x2069 DUP3 PUSH2 0x2053 JUMP JUMPDEST PUSH2 0x2073 DUP2 DUP6 PUSH2 0x1FA9 JUMP JUMPDEST SWAP4 POP PUSH2 0x2083 DUP2 DUP6 PUSH1 0x20 DUP7 ADD PUSH2 0x1A62 JUMP JUMPDEST PUSH2 0x208C DUP2 PUSH2 0x18AE JUMP JUMPDEST DUP5 ADD SWAP2 POP POP SWAP3 SWAP2 POP POP JUMP JUMPDEST PUSH1 0x0 PUSH1 0x40 DUP3 ADD SWAP1 POP DUP2 DUP2 SUB PUSH1 0x0 DUP4 ADD MSTORE PUSH2 0x20B1 DUP2 DUP6 PUSH2 0x1FCF JUMP JUMPDEST SWAP1 POP DUP2 DUP2 SUB PUSH1 0x20 DUP4 ADD MSTORE PUSH2 0x20C5 DUP2 DUP5 PUSH2 0x205E JUMP JUMPDEST SWAP1 POP SWAP4 SWAP3 POP POP POP JUMP JUMPDEST PUSH1 0x0 PUSH8 0xFFFFFFFFFFFFFFFF DUP3 GT ISZERO PUSH2 0x20E9 JUMPI PUSH2 0x20E8 PUSH2 0x18BF JUMP JUMPDEST JUMPDEST PUSH2 0x20F2 DUP3 PUSH2 0x18AE JUMP JUMPDEST SWAP1 POP PUSH1 0x20 DUP2 ADD SWAP1 POP SWAP2 SWAP1 POP JUMP JUMPDEST PUSH1 0x0 PUSH2 0x2112 PUSH2 0x210D DUP5 PUSH2 0x20CE JUMP JUMPDEST PUSH2 0x191F JUMP JUMPDEST SWAP1 POP DUP3 DUP2 MSTORE PUSH1 0x20 DUP2 ADD DUP5 DUP5 DUP5 ADD GT ISZERO PUSH2 0x212E JUMPI PUSH2 0x212D PUSH2 0x18A9 JUMP JUMPDEST JUMPDEST PUSH2 0x2139 DUP5 DUP3 DUP6 PUSH2 0x1A62 JUMP JUMPDEST POP SWAP4 SWAP3 POP POP POP JUMP JUMPDEST PUSH1 0x0 DUP3 PUSH1 0x1F DUP4 ADD SLT PUSH2 0x2156 JUMPI PUSH2 0x2155 PUSH2 0x18A4 JUMP JUMPDEST JUMPDEST DUP2 MLOAD PUSH2 0x2166 DUP5 DUP3 PUSH1 0x20 DUP7 ADD PUSH2 0x20FF JUMP JUMPDEST SWAP2 POP POP SWAP3 SWAP2 POP POP JUMP JUMPDEST PUSH1 0x0 PUSH1 0x20 DUP3 DUP5 SUB SLT ISZERO PUSH2 0x2185 JUMPI PUSH2 0x2184 PUSH2 0x1864 JUMP JUMPDEST JUMPDEST PUSH1 0x0 DUP3 ADD MLOAD PUSH8 0xFFFFFFFFFFFFFFFF DUP2 GT ISZERO PUSH2 0x21A3 JUMPI PUSH2 0x21A2 PUSH2 0x1869 JUMP JUMPDEST JUMPDEST PUSH2 0x21AF DUP5 DUP3 DUP6 ADD PUSH2 0x2141 JUMP JUMPDEST SWAP2 POP POP SWAP3 SWAP2 POP POP JUMP JUMPDEST PUSH1 0x0 DUP2 SWAP1 POP SWAP3 SWAP2 POP POP JUMP JUMPDEST PUSH1 0x0 PUSH2 0x21CE DUP3 PUSH2 0x1A46 JUMP JUMPDEST PUSH2 0x21D8 DUP2 DUP6 PUSH2 0x21B8 JUMP JUMPDEST SWAP4 POP PUSH2 0x21E8 DUP2 DUP6 PUSH1 0x20 DUP7 ADD PUSH2 0x1A62 JUMP JUMPDEST DUP1 DUP5 ADD SWAP2 POP POP SWAP3 SWAP2 POP POP JUMP JUMPDEST PUSH1 0x0 PUSH2 0x2200 DUP3 DUP5 PUSH2 0x21C3 JUMP JUMPDEST SWAP2 POP DUP2 SWAP1 POP SWAP3 SWAP2 POP POP JUMP JUMPDEST PUSH1 0x0 DUP2 SWAP1 POP SWAP2 SWAP1 POP JUMP JUMPDEST PUSH2 0x2226 PUSH2 0x2221 DUP3 PUSH2 0x186E JUMP JUMPDEST PUSH2 0x220B JUMP JUMPDEST DUP3 MSTORE POP POP JUMP JUMPDEST PUSH1 0x0 PUSH2 0x2238 DUP3 DUP5 PUSH2 0x2215 JUMP JUMPDEST PUSH1 0x20 DUP3 ADD SWAP2 POP DUP2 SWAP1 POP SWAP3 SWAP2 POP POP JUMP JUMPDEST PUSH1 0x0 DUP2 SWAP1 POP DUP2 PUSH1 0x0 MSTORE PUSH1 0x20 PUSH1 0x0 KECCAK256 SWAP1 POP SWAP2 SWAP1 POP JUMP JUMPDEST PUSH1 0x0 PUSH1 0x20 PUSH1 0x1F DUP4 ADD DIV SWAP1 POP SWAP2 SWAP1 POP JUMP JUMPDEST PUSH1 0x0 DUP3 DUP3 SHL SWAP1 POP SWAP3 SWAP2 POP POP JUMP JUMPDEST PUSH1 0x0 PUSH1 0x8 DUP4 MUL PUSH2 0x22A9 PUSH32 0xFFFFFFFFFFFFFFFFFFFFFFFFFFFFFFFFFFFFFFFFFFFFFFFFFFFFFFFFFFFFFFFF DUP3 PUSH2 0x226C JUMP JUMPDEST PUSH2 0x22B3 DUP7 DUP4 PUSH2 0x226C JUMP JUMPDEST SWAP6 POP DUP1 NOT DUP5 AND SWAP4 POP DUP1 DUP7 AND DUP5 OR SWAP3 POP POP POP SWAP4 SWAP3 POP POP POP JUMP JUMPDEST PUSH1 0x0 DUP2 SWAP1 POP SWAP2 SWAP1 POP JUMP JUMPDEST PUSH1 0x0 DUP2 SWAP1 POP SWAP2 SWAP1 POP JUMP JUMPDEST PUSH1 0x0 PUSH2 0x22FA PUSH2 0x22F5 PUSH2 0x22F0 DUP5 PUSH2 0x22CB JUMP JUMPDEST PUSH2 0x22D5 JUMP JUMPDEST PUSH2 0x22CB JUMP JUMPDEST SWAP1 POP SWAP2 SWAP1 POP JUMP JUMPDEST PUSH1 0x0 DUP2 SWAP1 POP SWAP2 SWAP1 POP JUMP JUMPDEST PUSH2 0x2314 DUP4 PUSH2 0x22DF JUMP JUMPDEST PUSH2 0x2328 PUSH2 0x2320 DUP3 PUSH2 0x2301 JUMP JUMPDEST DUP5 DUP5 SLOAD PUSH2 0x2279 JUMP JUMPDEST DUP3 SSTORE POP POP POP POP JUMP JUMPDEST PUSH1 0x0 SWAP1 JUMP JUMPDEST PUSH2 0x233D PUSH2 0x2330 JUMP JUMPDEST PUSH2 0x2348 DUP2 DUP5 DUP5 PUSH2 0x230B JUMP JUMPDEST POP POP POP JUMP JUMPDEST JUMPDEST DUP2 DUP2 LT ISZERO PUSH2 0x236C JUMPI PUSH2 0x2361 PUSH1 0x0 DUP3 PUSH2 0x2335 JUMP JUMPDEST PUSH1 0x1 DUP2 ADD SWAP1 POP PUSH2 0x234E JUMP JUMPDEST POP POP JUMP JUMPDEST PUSH1 0x1F DUP3 GT ISZERO PUSH2 0x23B1 JUMPI PUSH2 0x2382 DUP2 PUSH2 0x2247 JUMP JUMPDEST PUSH2 0x238B DUP5 PUSH2 0x225C JUMP JUMPDEST DUP2 ADD PUSH1 0x20 DUP6 LT ISZERO PUSH2 0x239A JUMPI DUP2 SWAP1 POP JUMPDEST PUSH2 0x23AE PUSH2 0x23A6 DUP6 PUSH2 0x225C JUMP JUMPDEST DUP4 ADD DUP3 PUSH2 0x234D JUMP JUMPDEST POP POP JUMPDEST POP POP POP JUMP JUMPDEST PUSH1 0x0 DUP3 DUP3 SHR SWAP1 POP SWAP3 SWAP2 POP POP JUMP JUMPDEST PUSH1 0x0 PUSH2 0x23D4 PUSH1 0x0 NOT DUP5 PUSH1 0x8 MUL PUSH2 0x23B6 JUMP JUMPDEST NOT DUP1 DUP4 AND SWAP2 POP POP SWAP3 SWAP2 POP POP JUMP JUMPDEST PUSH1 0x0 PUSH2 0x23ED DUP4 DUP4 PUSH2 0x23C3 JUMP JUMPDEST SWAP2 POP DUP3 PUSH1 0x2 MUL DUP3 OR SWAP1 POP SWAP3 SWAP2 POP POP JUMP JUMPDEST PUSH2 0x2406 DUP3 PUSH2 0x1A46 JUMP JUMPDEST PUSH8 0xFFFFFFFFFFFFFFFF DUP2 GT ISZERO PUSH2 0x241F JUMPI PUSH2 0x241E PUSH2 0x18BF JUMP JUMPDEST JUMPDEST PUSH2 0x2429 DUP3 SLOAD PUSH2 0x1F78 JUMP JUMPDEST PUSH2 0x2434 DUP3 DUP3 DUP6 PUSH2 0x2370 JUMP JUMPDEST PUSH1 0x0 PUSH1 0x20 SWAP1 POP PUSH1 0x1F DUP4 GT PUSH1 0x1 DUP2 EQ PUSH2 0x2467 JUMPI PUSH1 0x0 DUP5 ISZERO PUSH2 0x2455 JUMPI DUP3 DUP8 ADD MLOAD SWAP1 POP JUMPDEST PUSH2 0x245F DUP6 DUP3 PUSH2 0x23E1 JUMP JUMPDEST DUP7 SSTORE POP PUSH2 0x24C7 JUMP JUMPDEST PUSH1 0x1F NOT DUP5 AND PUSH2 0x2475 DUP7 PUSH2 0x2247 JUMP JUMPDEST PUSH1 0x0 JUMPDEST DUP3 DUP2 LT ISZERO PUSH2 0x249D JUMPI DUP5 DUP10 ADD MLOAD DUP3 SSTORE PUSH1 0x1 DUP3 ADD SWAP2 POP PUSH1 0x20 DUP6 ADD SWAP5 POP PUSH1 0x20 DUP2 ADD SWAP1 POP PUSH2 0x2478 JUMP JUMPDEST DUP7 DUP4 LT ISZERO PUSH2 0x24BA JUMPI DUP5 DUP10 ADD MLOAD PUSH2 0x24B6 PUSH1 0x1F DUP10 AND DUP3 PUSH2 0x23C3 JUMP JUMPDEST DUP4 SSTORE POP JUMPDEST PUSH1 0x1 PUSH1 0x2 DUP9 MUL ADD DUP9 SSTORE POP POP POP JUMPDEST POP POP POP POP POP POP JUMP JUMPDEST PUSH1 0x0 DUP3 DUP3 MSTORE PUSH1 0x20 DUP3 ADD SWAP1 POP SWAP3 SWAP2 POP POP JUMP JUMPDEST PUSH32 0x496E76616C696420636F6D70616E792074797065000000000000000000000000 PUSH1 0x0 DUP3 ADD MSTORE POP JUMP JUMPDEST PUSH1 0x0 PUSH2 0x2516 PUSH1 0x14 DUP4 PUSH2 0x24CF JUMP JUMPDEST SWAP2 POP PUSH2 0x2521 DUP3 PUSH2 0x24E0 JUMP JUMPDEST PUSH1 0x20 DUP3 ADD SWAP1 POP SWAP2 SWAP1 POP JUMP JUMPDEST PUSH1 0x0 PUSH1 0x20 DUP3 ADD SWAP1 POP DUP2 DUP2 SUB PUSH1 0x0 DUP4 ADD MSTORE PUSH2 0x2545 DUP2 PUSH2 0x2509 JUMP JUMPDEST SWAP1 POP SWAP2 SWAP1 POP JUMP JUMPDEST PUSH32 0x496E76616C69642053534E000000000000000000000000000000000000000000 PUSH1 0x0 DUP3 ADD MSTORE POP JUMP JUMPDEST PUSH1 0x0 PUSH2 0x2582 PUSH1 0xB DUP4 PUSH2 0x24CF JUMP JUMPDEST SWAP2 POP PUSH2 0x258D DUP3 PUSH2 0x254C JUMP JUMPDEST PUSH1 0x20 DUP3 ADD SWAP1 POP SWAP2 SWAP1 POP JUMP JUMPDEST PUSH1 0x0 PUSH1 0x20 DUP3 ADD SWAP1 POP DUP2 DUP2 SUB PUSH1 0x0 DUP4 ADD MSTORE PUSH2 0x25B1 DUP2 PUSH2 0x2575 JUMP JUMPDEST SWAP1 POP SWAP2 SWAP1 POP JUMP JUMPDEST PUSH32 0x496E76616C6964206E616D650000000000000000000000000000000000000000 PUSH1 0x0 DUP3 ADD MSTORE POP JUMP JUMPDEST PUSH1 0x0 PUSH2 0x25EE PUSH1 0xC DUP4 PUSH2 0x24CF JUMP JUMPDEST SWAP2 POP PUSH2 0x25F9 DUP3 PUSH2 0x25B8 JUMP JUMPDEST PUSH1 0x20 DUP3 ADD SWAP1 POP SWAP2 SWAP1 POP JUMP JUMPDEST PUSH1 0x0 PUSH1 0x20 DUP3 ADD SWAP1 POP DUP2 DUP2 SUB PUSH1 0x0 DUP4 ADD MSTORE PUSH2 0x261D DUP2 PUSH2 0x25E1 JUMP JUMPDEST SWAP1 POP SWAP2 SWAP1 POP JUMP JUMPDEST PUSH32 0x496E76616C696420616464726573730000000000000000000000000000000000 PUSH1 0x0 DUP3 ADD MSTORE POP JUMP JUMPDEST PUSH1 0x0 PUSH2 0x265A PUSH1 0xF DUP4 PUSH2 0x24CF JUMP JUMPDEST SWAP2 POP PUSH2 0x2665 DUP3 PUSH2 0x2624 JUMP JUMPDEST PUSH1 0x20 DUP3 ADD SWAP1 POP SWAP2 SWAP1 POP JUMP JUMPDEST PUSH1 0x0 PUSH1 0x20 DUP3 ADD SWAP1 POP DUP2 DUP2 SUB PUSH1 0x0 DUP4 ADD MSTORE PUSH2 0x2689 DUP2 PUSH2 0x264D JUMP JUMPDEST SWAP1 POP SWAP2 SWAP1 POP JUMP JUMPDEST PUSH32 0x50617373776F726420746F6F2073686F72740000000000000000000000000000 PUSH1 0x0 DUP3 ADD MSTORE POP JUMP JUMPDEST PUSH1 0x0 PUSH2 0x26C6 PUSH1 0x12 DUP4 PUSH2 0x24CF JUMP JUMPDEST SWAP2 POP PUSH2 0x26D1 DUP3 PUSH2 0x2690 JUMP JUMPDEST PUSH1 0x20 DUP3 ADD SWAP1 POP SWAP2 SWAP1 POP JUMP JUMPDEST PUSH1 0x0 PUSH1 0x20 DUP3 ADD SWAP1 POP DUP2 DUP2 SUB PUSH1 0x0 DUP4 ADD MSTORE PUSH2 0x26F5 DUP2 PUSH2 0x26B9 JUMP JUMPDEST SWAP1 POP SWAP2 SWAP1 POP JUMP JUMPDEST PUSH32 0x50686F6E65206E756D62657220746F6F2073686F727400000000000000000000 PUSH1 0x0 DUP3 ADD MSTORE POP JUMP JUMPDEST PUSH1 0x0 PUSH2 0x2732 PUSH1 0x16 DUP4 PUSH2 0x24CF JUMP JUMPDEST SWAP2 POP PUSH2 0x273D DUP3 PUSH2 0x26FC JUMP JUMPDEST PUSH1 0x20 DUP3 ADD SWAP1 POP SWAP2 SWAP1 POP JUMP JUMPDEST PUSH1 0x0 PUSH1 0x20 DUP3 ADD SWAP1 POP DUP2 DUP2 SUB PUSH1 0x0 DUP4 ADD MSTORE PUSH2 0x2761 DUP2 PUSH2 0x2725 JUMP JUMPDEST SWAP1 POP SWAP2 SWAP1 POP JUMP JUMPDEST PUSH1 0x0 PUSH2 0x2774 DUP3 DUP10 PUSH2 0x21C3 JUMP JUMPDEST SWAP2 POP PUSH2 0x2780 DUP3 DUP9 PUSH2 0x21C3 JUMP JUMPDEST SWAP2 POP PUSH2 0x278C DUP3 DUP8 PUSH2 0x21C3 JUMP JUMPDEST SWAP2 POP PUSH2 0x2798 DUP3 DUP7 PUSH2 0x21C3 JUMP JUMPDEST SWAP2 POP PUSH2 0x27A4 DUP3 DUP6 PUSH2 0x21C3 JUMP JUMPDEST SWAP2 POP PUSH2 0x27B0 DUP3 DUP5 PUSH2 0x21C3 JUMP JUMPDEST SWAP2 POP DUP2 SWAP1 POP SWAP8 SWAP7 POP POP POP POP POP POP POP JUMP JUMPDEST PUSH1 0x0 PUSH1 0x40 DUP3 ADD SWAP1 POP DUP2 DUP2 SUB PUSH1 0x0 DUP4 ADD MSTORE PUSH2 0x27DA DUP2 DUP6 PUSH2 0x205E JUMP JUMPDEST SWAP1 POP DUP2 DUP2 SUB PUSH1 0x20 DUP4 ADD MSTORE PUSH2 0x27EE DUP2 DUP5 PUSH2 0x205E JUMP JUMPDEST SWAP1 POP SWAP4 SWAP3 POP POP POP JUMP JUMPDEST PUSH32 0x4E6F7420616C6C6F776564000000000000000000000000000000000000000000 PUSH1 0x0 DUP3 ADD MSTORE POP JUMP JUMPDEST PUSH1 0x0 PUSH2 0x282D PUSH1 0xB DUP4 PUSH2 0x24CF JUMP JUMPDEST SWAP2 POP PUSH2 0x2838 DUP3 PUSH2 0x27F7 JUMP JUMPDEST PUSH1 0x20 DUP3 ADD SWAP1 POP SWAP2 SWAP1 POP JUMP JUMPDEST PUSH1 0x0 PUSH1 0x20 DUP3 ADD SWAP1 POP DUP2 DUP2 SUB PUSH1 0x0 DUP4 ADD MSTORE PUSH2 0x285C DUP2 PUSH2 0x2820 JUMP JUMPDEST SWAP1 POP SWAP2 SWAP1 POP JUMP JUMPDEST PUSH32 0x4E487B7100000000000000000000000000000000000000000000000000000000 PUSH1 0x0 MSTORE PUSH1 0x12 PUSH1 0x4 MSTORE PUSH1 0x24 PUSH1 0x0 REVERT INVALID LOG2 PUSH5 0x6970667358 0x22 SLT KECCAK256 EXTCODECOPY 0xE0 CALLDATASIZE PUSH24 0x26DD950EEA52AA6970ED0CCF8464176AD8A768872C089333 SWAP14 SMOD RETURN 0x1F PUSH5 0x736F6C6343 STOP ADDMOD SLT STOP CALLER "
				},
				"gasEstimates": {
					"creation": {
						"codeDepositCost": "2088000",
						"executionCost": "148072",
						"totalCost": "2236072"
					},
					"external": {
						"createAccount(string,string,string,string,uint8,string,address,string)": "infinite",
						"editUser(bytes32,string,string,string,address,string,string)": "infinite",
						"getUser(bytes32,string)": "infinite"
					},
					"internal": {
						"compare(string memory,string memory)": "infinite",
						"isOwner()": "infinite"
					}
				},
				"methodIdentifiers": {
					"createAccount(string,string,string,string,uint8,string,address,string)": "dd64e4ad",
					"editUser(bytes32,string,string,string,address,string,string)": "c28fe9c1",
					"getUser(bytes32,string)": "00131c4f"
				}
			},
			"storageLayout": {
				"storage": [
					{
						"astId": 1204,
						"contract": "auth.sol:Auth",
						"label": "owner",
						"offset": 0,
						"slot": "0",
						"type": "t_address"
					},
					{
						"astId": 1207,
						"contract": "auth.sol:Auth",
						"label": "ACC_PERSONAL",
						"offset": 20,
						"slot": "0",
						"type": "t_uint8"
					},
					{
						"astId": 1210,
						"contract": "auth.sol:Auth",
						"label": "ACC_LIMITED_COMPANY",
						"offset": 21,
						"slot": "0",
						"type": "t_uint8"
					},
					{
						"astId": 1213,
						"contract": "auth.sol:Auth",
						"label": "ACC_SHARE_COMPANY",
						"offset": 22,
						"slot": "0",
						"type": "t_uint8"
					},
					{
						"astId": 1216,
						"contract": "auth.sol:Auth",
						"label": "ACC_INDIVIDUAL_COMPANY",
						"offset": 23,
						"slot": "0",
						"type": "t_uint8"
					},
					{
						"astId": 1219,
						"contract": "auth.sol:Auth",
						"label": "ACC_FOREIGN_BRANCH",
						"offset": 24,
						"slot": "0",
						"type": "t_uint8"
					},
					{
						"astId": 1247,
						"contract": "auth.sol:Auth",
						"label": "persons",
						"offset": 0,
						"slot": "1",
						"type": "t_mapping(t_bytes32,t_struct(person)1238_storage)"
					}
				],
				"types": {
					"t_address": {
						"encoding": "inplace",
						"label": "address",
						"numberOfBytes": "20"
					},
					"t_bytes32": {
						"encoding": "inplace",
						"label": "bytes32",
						"numberOfBytes": "32"
					},
					"t_mapping(t_bytes32,t_struct(person)1238_storage)": {
						"encoding": "mapping",
						"key": "t_bytes32",
						"label": "mapping(bytes32 => struct Auth.person)",
						"numberOfBytes": "32",
						"value": "t_struct(person)1238_storage"
					},
					"t_string_storage": {
						"encoding": "bytes",
						"label": "string",
						"numberOfBytes": "32"
					},
					"t_struct(person)1238_storage": {
						"encoding": "inplace",
						"label": "struct Auth.person",
						"members": [
							{
								"astId": 1221,
								"contract": "auth.sol:Auth",
								"label": "fullName",
								"offset": 0,
								"slot": "0",
								"type": "t_string_storage"
							},
							{
								"astId": 1223,
								"contract": "auth.sol:Auth",
								"label": "SSN",
								"offset": 0,
								"slot": "1",
								"type": "t_string_storage"
							},
							{
								"astId": 1225,
								"contract": "auth.sol:Auth",
								"label": "homeAddress",
								"offset": 0,
								"slot": "2",
								"type": "t_string_storage"
							},
							{
								"astId": 1227,
								"contract": "auth.sol:Auth",
								"label": "pass",
								"offset": 0,
								"slot": "3",
								"type": "t_string_storage"
							},
							{
								"astId": 1229,
								"contract": "auth.sol:Auth",
								"label": "phone",
								"offset": 0,
								"slot": "4",
								"type": "t_string_storage"
							},
							{
								"astId": 1231,
								"contract": "auth.sol:Auth",
								"label": "accountType",
								"offset": 0,
								"slot": "5",
								"type": "t_uint8"
							},
							{
								"astId": 1233,
								"contract": "auth.sol:Auth",
								"label": "companyCode",
								"offset": 0,
								"slot": "6",
								"type": "t_string_storage"
							},
							{
								"astId": 1235,
								"contract": "auth.sol:Auth",
								"label": "blockAccount",
								"offset": 0,
								"slot": "7",
								"type": "t_address"
							},
							{
								"astId": 1237,
								"contract": "auth.sol:Auth",
								"label": "UID",
								"offset": 0,
								"slot": "8",
								"type": "t_bytes32"
							}
						],
						"numberOfBytes": "288"
					},
					"t_uint8": {
						"encoding": "inplace",
						"label": "uint8",
						"numberOfBytes": "1"
					}
				}
			},
			"userdoc": {
				"kind": "user",
				"methods": {},
				"version": 1
			}
		}
	}
}