{
	"cypher.sol": {
		"cypher": {
			"abi": [
				{
					"inputs": [
						{
							"internalType": "bytes",
							"name": "data",
							"type": "bytes"
						},
						{
							"internalType": "bytes",
							"name": "key",
							"type": "bytes"
						}
					],
					"name": "encrypt",
					"outputs": [
						{
							"internalType": "bytes",
							"name": "result",
							"type": "bytes"
						}
					],
					"stateMutability": "pure",
					"type": "function"
				}
			],
			"devdoc": {
				"kind": "dev",
				"methods": {},
				"version": 1
			},
			"evm": {
				"assembly": "    /* \"cypher.sol\":72:988  library cypher {... */\n  dataSize(sub_0)\n  dataOffset(sub_0)\n  0x0b\n  dup3\n  dup3\n  dup3\n  codecopy\n  dup1\n  mload\n  0x00\n  byte\n  0x73\n  eq\n  tag_1\n  jumpi\n  mstore(0x00, 0x4e487b7100000000000000000000000000000000000000000000000000000000)\n  mstore(0x04, 0x00)\n  revert(0x00, 0x24)\ntag_1:\n  mstore(0x00, address)\n  0x73\n  dup2\n  mstore8\n  dup3\n  dup2\n  return\nstop\n\nsub_0: assembly {\n        /* \"cypher.sol\":72:988  library cypher {... */\n      eq(address, deployTimeAddress())\n      mstore(0x40, 0x80)\n      jumpi(tag_1, lt(calldatasize, 0x04))\n      shr(0xe0, calldataload(0x00))\n      dup1\n      0x015cfec7\n      eq\n      tag_2\n      jumpi\n    tag_1:\n      0x00\n      dup1\n      revert\n        /* \"cypher.sol\":90:985  function encrypt(bytes memory data, bytes memory key)... */\n    tag_2:\n      tag_3\n      0x04\n      dup1\n      calldatasize\n      sub\n      dup2\n      add\n      swap1\n      tag_4\n      swap2\n      swap1\n      tag_5\n      jump\t// in\n    tag_4:\n      tag_6\n      jump\t// in\n    tag_3:\n      mload(0x40)\n      tag_7\n      swap2\n      swap1\n      tag_8\n      jump\t// in\n    tag_7:\n      mload(0x40)\n      dup1\n      swap2\n      sub\n      swap1\n      return\n    tag_6:\n        /* \"cypher.sol\":167:186  bytes memory result */\n      0x60\n        /* \"cypher.sol\":238:252  uint256 length */\n      0x00\n        /* \"cypher.sol\":255:259  data */\n      dup4\n        /* \"cypher.sol\":255:266  data.length */\n      mload\n        /* \"cypher.sol\":238:266  uint256 length = data.length */\n      swap1\n      pop\n        /* \"cypher.sol\":344:348  0x40 */\n      0x40\n        /* \"cypher.sol\":337:349  mload (0x40) */\n      mload\n        /* \"cypher.sol\":327:349  result := mload (0x40) */\n      swap2\n      pop\n        /* \"cypher.sol\":446:448  32 */\n      0x20\n        /* \"cypher.sol\":437:443  length */\n      dup2\n        /* \"cypher.sol\":429:435  result */\n      dup4\n        /* \"cypher.sol\":424:444  add (result, length) */\n      add\n        /* \"cypher.sol\":419:449  add (add (result, length), 32) */\n      add\n        /* \"cypher.sol\":413:417  0x40 */\n      0x40\n        /* \"cypher.sol\":405:450  mstore (0x40, add (add (result, length), 32)) */\n      mstore\n        /* \"cypher.sol\":496:502  length */\n      dup1\n        /* \"cypher.sol\":488:494  result */\n      dup3\n        /* \"cypher.sol\":480:503  mstore (result, length) */\n      mstore\n        /* \"cypher.sol\":564:570  uint i */\n      0x00\n        /* \"cypher.sol\":559:983  for (uint i = 0; i < length; i += 32) {... */\n    tag_10:\n        /* \"cypher.sol\":580:586  length */\n      dup2\n        /* \"cypher.sol\":576:577  i */\n      dup2\n        /* \"cypher.sol\":576:586  i < length */\n      lt\n        /* \"cypher.sol\":559:983  for (uint i = 0; i < length; i += 32) {... */\n      iszero\n      tag_11\n      jumpi\n        /* \"cypher.sol\":646:658  bytes32 hash */\n      0x00\n        /* \"cypher.sol\":690:693  key */\n      dup5\n        /* \"cypher.sol\":695:696  i */\n      dup3\n        /* \"cypher.sol\":672:697  abi.encodePacked (key, i) */\n      add(0x20, mload(0x40))\n      tag_13\n      swap3\n      swap2\n      swap1\n      tag_14\n      jump\t// in\n    tag_13:\n      mload(0x40)\n      0x20\n      dup2\n      dup4\n      sub\n      sub\n      dup2\n      mstore\n      swap1\n      0x40\n      mstore\n        /* \"cypher.sol\":661:698  keccak256 (abi.encodePacked (key, i)) */\n      dup1\n      mload\n      swap1\n      0x20\n      add\n      keccak256\n        /* \"cypher.sol\":646:698  bytes32 hash = keccak256 (abi.encodePacked (key, i)) */\n      swap1\n      pop\n        /* \"cypher.sol\":705:718  bytes32 chunk */\n      0x00\n        /* \"cypher.sol\":810:812  32 */\n      0x20\n        /* \"cypher.sol\":807:808  i */\n      dup4\n        /* \"cypher.sol\":802:813  add (i, 32) */\n      add\n        /* \"cypher.sol\":796:800  data */\n      dup8\n        /* \"cypher.sol\":791:814  add (data, add (i, 32)) */\n      add\n        /* \"cypher.sol\":784:815  mload (add (data, add (i, 32))) */\n      mload\n        /* \"cypher.sol\":775:815  chunk := mload (add (data, add (i, 32))) */\n      swap1\n      pop\n        /* \"cypher.sol\":866:870  hash */\n      dup2\n        /* \"cypher.sol\":857:870  chunk ^= hash */\n      dup2\n      xor\n      swap1\n      pop\n        /* \"cypher.sol\":967:972  chunk */\n      dup1\n        /* \"cypher.sol\":961:963  32 */\n      0x20\n        /* \"cypher.sol\":958:959  i */\n      dup5\n        /* \"cypher.sol\":953:964  add (i, 32) */\n      add\n        /* \"cypher.sol\":945:951  result */\n      dup7\n        /* \"cypher.sol\":940:965  add (result, add (i, 32)) */\n      add\n        /* \"cypher.sol\":932:973  mstore (add (result, add (i, 32)), chunk) */\n      mstore\n        /* \"cypher.sol\":885:979  {... */\n      pop\n      pop\n        /* \"cypher.sol\":593:595  32 */\n      0x20\n        /* \"cypher.sol\":588:595  i += 32 */\n      dup2\n      tag_15\n      swap2\n      swap1\n      tag_16\n      jump\t// in\n    tag_15:\n      swap1\n      pop\n        /* \"cypher.sol\":559:983  for (uint i = 0; i < length; i += 32) {... */\n      jump(tag_10)\n    tag_11:\n      pop\n        /* \"cypher.sol\":188:985  {... */\n      pop\n        /* \"cypher.sol\":90:985  function encrypt(bytes memory data, bytes memory key)... */\n      swap3\n      swap2\n      pop\n      pop\n      jump\t// out\n        /* \"#utility.yul\":7:82   */\n    tag_17:\n        /* \"#utility.yul\":40:46   */\n      0x00\n        /* \"#utility.yul\":73:75   */\n      0x40\n        /* \"#utility.yul\":67:76   */\n      mload\n        /* \"#utility.yul\":57:76   */\n      swap1\n      pop\n        /* \"#utility.yul\":7:82   */\n      swap1\n      jump\t// out\n        /* \"#utility.yul\":88:205   */\n    tag_18:\n        /* \"#utility.yul\":197:198   */\n      0x00\n        /* \"#utility.yul\":194:195   */\n      dup1\n        /* \"#utility.yul\":187:199   */\n      revert\n        /* \"#utility.yul\":211:328   */\n    tag_19:\n        /* \"#utility.yul\":320:321   */\n      0x00\n        /* \"#utility.yul\":317:318   */\n      dup1\n        /* \"#utility.yul\":310:322   */\n      revert\n        /* \"#utility.yul\":334:451   */\n    tag_20:\n        /* \"#utility.yul\":443:444   */\n      0x00\n        /* \"#utility.yul\":440:441   */\n      dup1\n        /* \"#utility.yul\":433:445   */\n      revert\n        /* \"#utility.yul\":457:574   */\n    tag_21:\n        /* \"#utility.yul\":566:567   */\n      0x00\n        /* \"#utility.yul\":563:564   */\n      dup1\n        /* \"#utility.yul\":556:568   */\n      revert\n        /* \"#utility.yul\":580:682   */\n    tag_22:\n        /* \"#utility.yul\":621:627   */\n      0x00\n        /* \"#utility.yul\":672:674   */\n      0x1f\n        /* \"#utility.yul\":668:675   */\n      not\n        /* \"#utility.yul\":663:665   */\n      0x1f\n        /* \"#utility.yul\":656:661   */\n      dup4\n        /* \"#utility.yul\":652:666   */\n      add\n        /* \"#utility.yul\":648:676   */\n      and\n        /* \"#utility.yul\":638:676   */\n      swap1\n      pop\n        /* \"#utility.yul\":580:682   */\n      swap2\n      swap1\n      pop\n      jump\t// out\n        /* \"#utility.yul\":688:868   */\n    tag_23:\n        /* \"#utility.yul\":736:813   */\n      0x4e487b7100000000000000000000000000000000000000000000000000000000\n        /* \"#utility.yul\":733:734   */\n      0x00\n        /* \"#utility.yul\":726:814   */\n      mstore\n        /* \"#utility.yul\":833:837   */\n      0x41\n        /* \"#utility.yul\":830:831   */\n      0x04\n        /* \"#utility.yul\":823:838   */\n      mstore\n        /* \"#utility.yul\":857:861   */\n      0x24\n        /* \"#utility.yul\":854:855   */\n      0x00\n        /* \"#utility.yul\":847:862   */\n      revert\n        /* \"#utility.yul\":874:1155   */\n    tag_24:\n        /* \"#utility.yul\":957:984   */\n      tag_49\n        /* \"#utility.yul\":979:983   */\n      dup3\n        /* \"#utility.yul\":957:984   */\n      tag_22\n      jump\t// in\n    tag_49:\n        /* \"#utility.yul\":949:955   */\n      dup2\n        /* \"#utility.yul\":945:985   */\n      add\n        /* \"#utility.yul\":1087:1093   */\n      dup2\n        /* \"#utility.yul\":1075:1085   */\n      dup2\n        /* \"#utility.yul\":1072:1094   */\n      lt\n        /* \"#utility.yul\":1051:1069   */\n      0xffffffffffffffff\n        /* \"#utility.yul\":1039:1049   */\n      dup3\n        /* \"#utility.yul\":1036:1070   */\n      gt\n        /* \"#utility.yul\":1033:1095   */\n      or\n        /* \"#utility.yul\":1030:1118   */\n      iszero\n      tag_50\n      jumpi\n        /* \"#utility.yul\":1098:1116   */\n      tag_51\n      tag_23\n      jump\t// in\n    tag_51:\n        /* \"#utility.yul\":1030:1118   */\n    tag_50:\n        /* \"#utility.yul\":1138:1148   */\n      dup1\n        /* \"#utility.yul\":1134:1136   */\n      0x40\n        /* \"#utility.yul\":1127:1149   */\n      mstore\n        /* \"#utility.yul\":917:1155   */\n      pop\n        /* \"#utility.yul\":874:1155   */\n      pop\n      pop\n      jump\t// out\n        /* \"#utility.yul\":1161:1290   */\n    tag_25:\n        /* \"#utility.yul\":1195:1201   */\n      0x00\n        /* \"#utility.yul\":1222:1242   */\n      tag_53\n      tag_17\n      jump\t// in\n    tag_53:\n        /* \"#utility.yul\":1212:1242   */\n      swap1\n      pop\n        /* \"#utility.yul\":1251:1284   */\n      tag_54\n        /* \"#utility.yul\":1279:1283   */\n      dup3\n        /* \"#utility.yul\":1271:1277   */\n      dup3\n        /* \"#utility.yul\":1251:1284   */\n      tag_24\n      jump\t// in\n    tag_54:\n        /* \"#utility.yul\":1161:1290   */\n      swap2\n      swap1\n      pop\n      jump\t// out\n        /* \"#utility.yul\":1296:1603   */\n    tag_26:\n        /* \"#utility.yul\":1357:1361   */\n      0x00\n        /* \"#utility.yul\":1447:1465   */\n      0xffffffffffffffff\n        /* \"#utility.yul\":1439:1445   */\n      dup3\n        /* \"#utility.yul\":1436:1466   */\n      gt\n        /* \"#utility.yul\":1433:1489   */\n      iszero\n      tag_56\n      jumpi\n        /* \"#utility.yul\":1469:1487   */\n      tag_57\n      tag_23\n      jump\t// in\n    tag_57:\n        /* \"#utility.yul\":1433:1489   */\n    tag_56:\n        /* \"#utility.yul\":1507:1536   */\n      tag_58\n        /* \"#utility.yul\":1529:1535   */\n      dup3\n        /* \"#utility.yul\":1507:1536   */\n      tag_22\n      jump\t// in\n    tag_58:\n        /* \"#utility.yul\":1499:1536   */\n      swap1\n      pop\n        /* \"#utility.yul\":1591:1595   */\n      0x20\n        /* \"#utility.yul\":1585:1589   */\n      dup2\n        /* \"#utility.yul\":1581:1596   */\n      add\n        /* \"#utility.yul\":1573:1596   */\n      swap1\n      pop\n        /* \"#utility.yul\":1296:1603   */\n      swap2\n      swap1\n      pop\n      jump\t// out\n        /* \"#utility.yul\":1609:1755   */\n    tag_27:\n        /* \"#utility.yul\":1706:1712   */\n      dup3\n        /* \"#utility.yul\":1701:1704   */\n      dup2\n        /* \"#utility.yul\":1696:1699   */\n      dup4\n        /* \"#utility.yul\":1683:1713   */\n      calldatacopy\n        /* \"#utility.yul\":1747:1748   */\n      0x00\n        /* \"#utility.yul\":1738:1744   */\n      dup4\n        /* \"#utility.yul\":1733:1736   */\n      dup4\n        /* \"#utility.yul\":1729:1745   */\n      add\n        /* \"#utility.yul\":1722:1749   */\n      mstore\n        /* \"#utility.yul\":1609:1755   */\n      pop\n      pop\n      pop\n      jump\t// out\n        /* \"#utility.yul\":1761:2184   */\n    tag_28:\n        /* \"#utility.yul\":1838:1843   */\n      0x00\n        /* \"#utility.yul\":1863:1928   */\n      tag_61\n        /* \"#utility.yul\":1879:1927   */\n      tag_62\n        /* \"#utility.yul\":1920:1926   */\n      dup5\n        /* \"#utility.yul\":1879:1927   */\n      tag_26\n      jump\t// in\n    tag_62:\n        /* \"#utility.yul\":1863:1928   */\n      tag_25\n      jump\t// in\n    tag_61:\n        /* \"#utility.yul\":1854:1928   */\n      swap1\n      pop\n        /* \"#utility.yul\":1951:1957   */\n      dup3\n        /* \"#utility.yul\":1944:1949   */\n      dup2\n        /* \"#utility.yul\":1937:1958   */\n      mstore\n        /* \"#utility.yul\":1989:1993   */\n      0x20\n        /* \"#utility.yul\":1982:1987   */\n      dup2\n        /* \"#utility.yul\":1978:1994   */\n      add\n        /* \"#utility.yul\":2027:2030   */\n      dup5\n        /* \"#utility.yul\":2018:2024   */\n      dup5\n        /* \"#utility.yul\":2013:2016   */\n      dup5\n        /* \"#utility.yul\":2009:2025   */\n      add\n        /* \"#utility.yul\":2006:2031   */\n      gt\n        /* \"#utility.yul\":2003:2115   */\n      iszero\n      tag_63\n      jumpi\n        /* \"#utility.yul\":2034:2113   */\n      tag_64\n      tag_21\n      jump\t// in\n    tag_64:\n        /* \"#utility.yul\":2003:2115   */\n    tag_63:\n        /* \"#utility.yul\":2124:2178   */\n      tag_65\n        /* \"#utility.yul\":2171:2177   */\n      dup5\n        /* \"#utility.yul\":2166:2169   */\n      dup3\n        /* \"#utility.yul\":2161:2164   */\n      dup6\n        /* \"#utility.yul\":2124:2178   */\n      tag_27\n      jump\t// in\n    tag_65:\n        /* \"#utility.yul\":1844:2184   */\n      pop\n        /* \"#utility.yul\":1761:2184   */\n      swap4\n      swap3\n      pop\n      pop\n      pop\n      jump\t// out\n        /* \"#utility.yul\":2203:2541   */\n    tag_29:\n        /* \"#utility.yul\":2258:2263   */\n      0x00\n        /* \"#utility.yul\":2307:2310   */\n      dup3\n        /* \"#utility.yul\":2300:2304   */\n      0x1f\n        /* \"#utility.yul\":2292:2298   */\n      dup4\n        /* \"#utility.yul\":2288:2305   */\n      add\n        /* \"#utility.yul\":2284:2311   */\n      slt\n        /* \"#utility.yul\":2274:2396   */\n      tag_67\n      jumpi\n        /* \"#utility.yul\":2315:2394   */\n      tag_68\n      tag_20\n      jump\t// in\n    tag_68:\n        /* \"#utility.yul\":2274:2396   */\n    tag_67:\n        /* \"#utility.yul\":2432:2438   */\n      dup2\n        /* \"#utility.yul\":2419:2439   */\n      calldataload\n        /* \"#utility.yul\":2457:2535   */\n      tag_69\n        /* \"#utility.yul\":2531:2534   */\n      dup5\n        /* \"#utility.yul\":2523:2529   */\n      dup3\n        /* \"#utility.yul\":2516:2520   */\n      0x20\n        /* \"#utility.yul\":2508:2514   */\n      dup7\n        /* \"#utility.yul\":2504:2521   */\n      add\n        /* \"#utility.yul\":2457:2535   */\n      tag_28\n      jump\t// in\n    tag_69:\n        /* \"#utility.yul\":2448:2535   */\n      swap2\n      pop\n        /* \"#utility.yul\":2264:2541   */\n      pop\n        /* \"#utility.yul\":2203:2541   */\n      swap3\n      swap2\n      pop\n      pop\n      jump\t// out\n        /* \"#utility.yul\":2547:3377   */\n    tag_5:\n        /* \"#utility.yul\":2633:2639   */\n      0x00\n        /* \"#utility.yul\":2641:2647   */\n      dup1\n        /* \"#utility.yul\":2690:2692   */\n      0x40\n        /* \"#utility.yul\":2678:2687   */\n      dup4\n        /* \"#utility.yul\":2669:2676   */\n      dup6\n        /* \"#utility.yul\":2665:2688   */\n      sub\n        /* \"#utility.yul\":2661:2693   */\n      slt\n        /* \"#utility.yul\":2658:2777   */\n      iszero\n      tag_71\n      jumpi\n        /* \"#utility.yul\":2696:2775   */\n      tag_72\n      tag_18\n      jump\t// in\n    tag_72:\n        /* \"#utility.yul\":2658:2777   */\n    tag_71:\n        /* \"#utility.yul\":2844:2845   */\n      0x00\n        /* \"#utility.yul\":2833:2842   */\n      dup4\n        /* \"#utility.yul\":2829:2846   */\n      add\n        /* \"#utility.yul\":2816:2847   */\n      calldataload\n        /* \"#utility.yul\":2874:2892   */\n      0xffffffffffffffff\n        /* \"#utility.yul\":2866:2872   */\n      dup2\n        /* \"#utility.yul\":2863:2893   */\n      gt\n        /* \"#utility.yul\":2860:2977   */\n      iszero\n      tag_73\n      jumpi\n        /* \"#utility.yul\":2896:2975   */\n      tag_74\n      tag_19\n      jump\t// in\n    tag_74:\n        /* \"#utility.yul\":2860:2977   */\n    tag_73:\n        /* \"#utility.yul\":3001:3063   */\n      tag_75\n        /* \"#utility.yul\":3055:3062   */\n      dup6\n        /* \"#utility.yul\":3046:3052   */\n      dup3\n        /* \"#utility.yul\":3035:3044   */\n      dup7\n        /* \"#utility.yul\":3031:3053   */\n      add\n        /* \"#utility.yul\":3001:3063   */\n      tag_29\n      jump\t// in\n    tag_75:\n        /* \"#utility.yul\":2991:3063   */\n      swap3\n      pop\n        /* \"#utility.yul\":2787:3073   */\n      pop\n        /* \"#utility.yul\":3140:3142   */\n      0x20\n        /* \"#utility.yul\":3129:3138   */\n      dup4\n        /* \"#utility.yul\":3125:3143   */\n      add\n        /* \"#utility.yul\":3112:3144   */\n      calldataload\n        /* \"#utility.yul\":3171:3189   */\n      0xffffffffffffffff\n        /* \"#utility.yul\":3163:3169   */\n      dup2\n        /* \"#utility.yul\":3160:3190   */\n      gt\n        /* \"#utility.yul\":3157:3274   */\n      iszero\n      tag_76\n      jumpi\n        /* \"#utility.yul\":3193:3272   */\n      tag_77\n      tag_19\n      jump\t// in\n    tag_77:\n        /* \"#utility.yul\":3157:3274   */\n    tag_76:\n        /* \"#utility.yul\":3298:3360   */\n      tag_78\n        /* \"#utility.yul\":3352:3359   */\n      dup6\n        /* \"#utility.yul\":3343:3349   */\n      dup3\n        /* \"#utility.yul\":3332:3341   */\n      dup7\n        /* \"#utility.yul\":3328:3350   */\n      add\n        /* \"#utility.yul\":3298:3360   */\n      tag_29\n      jump\t// in\n    tag_78:\n        /* \"#utility.yul\":3288:3360   */\n      swap2\n      pop\n        /* \"#utility.yul\":3083:3370   */\n      pop\n        /* \"#utility.yul\":2547:3377   */\n      swap3\n      pop\n      swap3\n      swap1\n      pop\n      jump\t// out\n        /* \"#utility.yul\":3383:3481   */\n    tag_30:\n        /* \"#utility.yul\":3434:3440   */\n      0x00\n        /* \"#utility.yul\":3468:3473   */\n      dup2\n        /* \"#utility.yul\":3462:3474   */\n      mload\n        /* \"#utility.yul\":3452:3474   */\n      swap1\n      pop\n        /* \"#utility.yul\":3383:3481   */\n      swap2\n      swap1\n      pop\n      jump\t// out\n        /* \"#utility.yul\":3487:3663   */\n    tag_31:\n        /* \"#utility.yul\":3578:3589   */\n      0x00\n        /* \"#utility.yul\":3612:3618   */\n      dup3\n        /* \"#utility.yul\":3607:3610   */\n      dup3\n        /* \"#utility.yul\":3600:3619   */\n      mstore\n        /* \"#utility.yul\":3652:3656   */\n      0x20\n        /* \"#utility.yul\":3647:3650   */\n      dup3\n        /* \"#utility.yul\":3643:3657   */\n      add\n        /* \"#utility.yul\":3628:3657   */\n      swap1\n      pop\n        /* \"#utility.yul\":3487:3663   */\n      swap3\n      swap2\n      pop\n      pop\n      jump\t// out\n        /* \"#utility.yul\":3669:3915   */\n    tag_32:\n        /* \"#utility.yul\":3750:3751   */\n      0x00\n        /* \"#utility.yul\":3760:3873   */\n    tag_82:\n        /* \"#utility.yul\":3774:3780   */\n      dup4\n        /* \"#utility.yul\":3771:3772   */\n      dup2\n        /* \"#utility.yul\":3768:3781   */\n      lt\n        /* \"#utility.yul\":3760:3873   */\n      iszero\n      tag_84\n      jumpi\n        /* \"#utility.yul\":3859:3860   */\n      dup1\n        /* \"#utility.yul\":3854:3857   */\n      dup3\n        /* \"#utility.yul\":3850:3861   */\n      add\n        /* \"#utility.yul\":3844:3862   */\n      mload\n        /* \"#utility.yul\":3840:3841   */\n      dup2\n        /* \"#utility.yul\":3835:3838   */\n      dup5\n        /* \"#utility.yul\":3831:3842   */\n      add\n        /* \"#utility.yul\":3824:3863   */\n      mstore\n        /* \"#utility.yul\":3796:3798   */\n      0x20\n        /* \"#utility.yul\":3793:3794   */\n      dup2\n        /* \"#utility.yul\":3789:3799   */\n      add\n        /* \"#utility.yul\":3784:3799   */\n      swap1\n      pop\n        /* \"#utility.yul\":3760:3873   */\n      jump(tag_82)\n    tag_84:\n        /* \"#utility.yul\":3907:3908   */\n      0x00\n        /* \"#utility.yul\":3898:3904   */\n      dup5\n        /* \"#utility.yul\":3893:3896   */\n      dup5\n        /* \"#utility.yul\":3889:3905   */\n      add\n        /* \"#utility.yul\":3882:3909   */\n      mstore\n        /* \"#utility.yul\":3731:3915   */\n      pop\n        /* \"#utility.yul\":3669:3915   */\n      pop\n      pop\n      pop\n      jump\t// out\n        /* \"#utility.yul\":3921:4310   */\n    tag_33:\n        /* \"#utility.yul\":4015:4018   */\n      0x00\n        /* \"#utility.yul\":4043:4081   */\n      tag_86\n        /* \"#utility.yul\":4075:4080   */\n      dup3\n        /* \"#utility.yul\":4043:4081   */\n      tag_30\n      jump\t// in\n    tag_86:\n        /* \"#utility.yul\":4097:4175   */\n      tag_87\n        /* \"#utility.yul\":4168:4174   */\n      dup2\n        /* \"#utility.yul\":4163:4166   */\n      dup6\n        /* \"#utility.yul\":4097:4175   */\n      tag_31\n      jump\t// in\n    tag_87:\n        /* \"#utility.yul\":4090:4175   */\n      swap4\n      pop\n        /* \"#utility.yul\":4184:4249   */\n      tag_88\n        /* \"#utility.yul\":4242:4248   */\n      dup2\n        /* \"#utility.yul\":4237:4240   */\n      dup6\n        /* \"#utility.yul\":4230:4234   */\n      0x20\n        /* \"#utility.yul\":4223:4228   */\n      dup7\n        /* \"#utility.yul\":4219:4235   */\n      add\n        /* \"#utility.yul\":4184:4249   */\n      tag_32\n      jump\t// in\n    tag_88:\n        /* \"#utility.yul\":4274:4303   */\n      tag_89\n        /* \"#utility.yul\":4296:4302   */\n      dup2\n        /* \"#utility.yul\":4274:4303   */\n      tag_22\n      jump\t// in\n    tag_89:\n        /* \"#utility.yul\":4269:4272   */\n      dup5\n        /* \"#utility.yul\":4265:4304   */\n      add\n        /* \"#utility.yul\":4258:4304   */\n      swap2\n      pop\n        /* \"#utility.yul\":4019:4310   */\n      pop\n        /* \"#utility.yul\":3921:4310   */\n      swap3\n      swap2\n      pop\n      pop\n      jump\t// out\n        /* \"#utility.yul\":4316:4641   */\n    tag_8:\n        /* \"#utility.yul\":4435:4439   */\n      0x00\n        /* \"#utility.yul\":4473:4475   */\n      0x20\n        /* \"#utility.yul\":4462:4471   */\n      dup3\n        /* \"#utility.yul\":4458:4476   */\n      add\n        /* \"#utility.yul\":4450:4476   */\n      swap1\n      pop\n        /* \"#utility.yul\":4522:4531   */\n      dup2\n        /* \"#utility.yul\":4516:4520   */\n      dup2\n        /* \"#utility.yul\":4512:4532   */\n      sub\n        /* \"#utility.yul\":4508:4509   */\n      0x00\n        /* \"#utility.yul\":4497:4506   */\n      dup4\n        /* \"#utility.yul\":4493:4510   */\n      add\n        /* \"#utility.yul\":4486:4533   */\n      mstore\n        /* \"#utility.yul\":4550:4634   */\n      tag_91\n        /* \"#utility.yul\":4629:4633   */\n      dup2\n        /* \"#utility.yul\":4620:4626   */\n      dup5\n        /* \"#utility.yul\":4550:4634   */\n      tag_33\n      jump\t// in\n    tag_91:\n        /* \"#utility.yul\":4542:4634   */\n      swap1\n      pop\n        /* \"#utility.yul\":4316:4641   */\n      swap3\n      swap2\n      pop\n      pop\n      jump\t// out\n        /* \"#utility.yul\":4647:4794   */\n    tag_34:\n        /* \"#utility.yul\":4748:4759   */\n      0x00\n        /* \"#utility.yul\":4785:4788   */\n      dup2\n        /* \"#utility.yul\":4770:4788   */\n      swap1\n      pop\n        /* \"#utility.yul\":4647:4794   */\n      swap3\n      swap2\n      pop\n      pop\n      jump\t// out\n        /* \"#utility.yul\":4800:5186   */\n    tag_35:\n        /* \"#utility.yul\":4904:4907   */\n      0x00\n        /* \"#utility.yul\":4932:4970   */\n      tag_94\n        /* \"#utility.yul\":4964:4969   */\n      dup3\n        /* \"#utility.yul\":4932:4970   */\n      tag_30\n      jump\t// in\n    tag_94:\n        /* \"#utility.yul\":4986:5074   */\n      tag_95\n        /* \"#utility.yul\":5067:5073   */\n      dup2\n        /* \"#utility.yul\":5062:5065   */\n      dup6\n        /* \"#utility.yul\":4986:5074   */\n      tag_34\n      jump\t// in\n    tag_95:\n        /* \"#utility.yul\":4979:5074   */\n      swap4\n      pop\n        /* \"#utility.yul\":5083:5148   */\n      tag_96\n        /* \"#utility.yul\":5141:5147   */\n      dup2\n        /* \"#utility.yul\":5136:5139   */\n      dup6\n        /* \"#utility.yul\":5129:5133   */\n      0x20\n        /* \"#utility.yul\":5122:5127   */\n      dup7\n        /* \"#utility.yul\":5118:5134   */\n      add\n        /* \"#utility.yul\":5083:5148   */\n      tag_32\n      jump\t// in\n    tag_96:\n        /* \"#utility.yul\":5173:5179   */\n      dup1\n        /* \"#utility.yul\":5168:5171   */\n      dup5\n        /* \"#utility.yul\":5164:5180   */\n      add\n        /* \"#utility.yul\":5157:5180   */\n      swap2\n      pop\n        /* \"#utility.yul\":4908:5186   */\n      pop\n        /* \"#utility.yul\":4800:5186   */\n      swap3\n      swap2\n      pop\n      pop\n      jump\t// out\n        /* \"#utility.yul\":5192:5269   */\n    tag_36:\n        /* \"#utility.yul\":5229:5236   */\n      0x00\n        /* \"#utility.yul\":5258:5263   */\n      dup2\n        /* \"#utility.yul\":5247:5263   */\n      swap1\n      pop\n        /* \"#utility.yul\":5192:5269   */\n      swap2\n      swap1\n      pop\n      jump\t// out\n        /* \"#utility.yul\":5275:5354   */\n    tag_37:\n        /* \"#utility.yul\":5314:5321   */\n      0x00\n        /* \"#utility.yul\":5343:5348   */\n      dup2\n        /* \"#utility.yul\":5332:5348   */\n      swap1\n      pop\n        /* \"#utility.yul\":5275:5354   */\n      swap2\n      swap1\n      pop\n      jump\t// out\n        /* \"#utility.yul\":5360:5517   */\n    tag_38:\n        /* \"#utility.yul\":5465:5510   */\n      tag_100\n        /* \"#utility.yul\":5485:5509   */\n      tag_101\n        /* \"#utility.yul\":5503:5508   */\n      dup3\n        /* \"#utility.yul\":5485:5509   */\n      tag_36\n      jump\t// in\n    tag_101:\n        /* \"#utility.yul\":5465:5510   */\n      tag_37\n      jump\t// in\n    tag_100:\n        /* \"#utility.yul\":5460:5463   */\n      dup3\n        /* \"#utility.yul\":5453:5511   */\n      mstore\n        /* \"#utility.yul\":5360:5517   */\n      pop\n      pop\n      jump\t// out\n        /* \"#utility.yul\":5523:5935   */\n    tag_14:\n        /* \"#utility.yul\":5681:5684   */\n      0x00\n        /* \"#utility.yul\":5703:5796   */\n      tag_103\n        /* \"#utility.yul\":5792:5795   */\n      dup3\n        /* \"#utility.yul\":5783:5789   */\n      dup6\n        /* \"#utility.yul\":5703:5796   */\n      tag_35\n      jump\t// in\n    tag_103:\n        /* \"#utility.yul\":5696:5796   */\n      swap2\n      pop\n        /* \"#utility.yul\":5806:5881   */\n      tag_104\n        /* \"#utility.yul\":5877:5880   */\n      dup3\n        /* \"#utility.yul\":5868:5874   */\n      dup5\n        /* \"#utility.yul\":5806:5881   */\n      tag_38\n      jump\t// in\n    tag_104:\n        /* \"#utility.yul\":5906:5908   */\n      0x20\n        /* \"#utility.yul\":5901:5904   */\n      dup3\n        /* \"#utility.yul\":5897:5909   */\n      add\n        /* \"#utility.yul\":5890:5909   */\n      swap2\n      pop\n        /* \"#utility.yul\":5926:5929   */\n      dup2\n        /* \"#utility.yul\":5919:5929   */\n      swap1\n      pop\n        /* \"#utility.yul\":5523:5935   */\n      swap4\n      swap3\n      pop\n      pop\n      pop\n      jump\t// out\n        /* \"#utility.yul\":5941:6121   */\n    tag_39:\n        /* \"#utility.yul\":5989:6066   */\n      0x4e487b7100000000000000000000000000000000000000000000000000000000\n        /* \"#utility.yul\":5986:5987   */\n      0x00\n        /* \"#utility.yul\":5979:6067   */\n      mstore\n        /* \"#utility.yul\":6086:6090   */\n      0x11\n        /* \"#utility.yul\":6083:6084   */\n      0x04\n        /* \"#utility.yul\":6076:6091   */\n      mstore\n        /* \"#utility.yul\":6110:6114   */\n      0x24\n        /* \"#utility.yul\":6107:6108   */\n      0x00\n        /* \"#utility.yul\":6100:6115   */\n      revert\n        /* \"#utility.yul\":6127:6318   */\n    tag_16:\n        /* \"#utility.yul\":6167:6170   */\n      0x00\n        /* \"#utility.yul\":6186:6206   */\n      tag_107\n        /* \"#utility.yul\":6204:6205   */\n      dup3\n        /* \"#utility.yul\":6186:6206   */\n      tag_36\n      jump\t// in\n    tag_107:\n        /* \"#utility.yul\":6181:6206   */\n      swap2\n      pop\n        /* \"#utility.yul\":6220:6240   */\n      tag_108\n        /* \"#utility.yul\":6238:6239   */\n      dup4\n        /* \"#utility.yul\":6220:6240   */\n      tag_36\n      jump\t// in\n    tag_108:\n        /* \"#utility.yul\":6215:6240   */\n      swap3\n      pop\n        /* \"#utility.yul\":6263:6264   */\n      dup3\n        /* \"#utility.yul\":6260:6261   */\n      dup3\n        /* \"#utility.yul\":6256:6265   */\n      add\n        /* \"#utility.yul\":6249:6265   */\n      swap1\n      pop\n        /* \"#utility.yul\":6284:6287   */\n      dup1\n        /* \"#utility.yul\":6281:6282   */\n      dup3\n        /* \"#utility.yul\":6278:6288   */\n      gt\n        /* \"#utility.yul\":6275:6311   */\n      iszero\n      tag_109\n      jumpi\n        /* \"#utility.yul\":6291:6309   */\n      tag_110\n      tag_39\n      jump\t// in\n    tag_110:\n        /* \"#utility.yul\":6275:6311   */\n    tag_109:\n        /* \"#utility.yul\":6127:6318   */\n      swap3\n      swap2\n      pop\n      pop\n      jump\t// out\n\n    auxdata: 0xa264697066735822122062a88a296a7bead4a3a1437a0e3b9910d3d513ffd432ab4cac0427d5f1844e1c64736f6c63430008120033\n}\n",
				"bytecode": {
					"linkReferences": {},
					"object": "61048c610053600b82828239805160001a607314610046577f4e487b7100000000000000000000000000000000000000000000000000000000600052600060045260246000fd5b30600052607381538281f3fe73000000000000000000000000000000000000000030146080604052600436106100355760003560e01c8063015cfec71461003a575b600080fd5b610054600480360381019061004f919061024b565b61006a565b6040516100619190610342565b60405180910390f35b6060600083519050604051915060208183010160405280825260005b818110156100e957600084826040516020016100a39291906103cb565b60405160208183030381529060405280519060200120905060006020830187015190508181189050806020840186015250506020816100e29190610422565b9050610086565b505092915050565b6000604051905090565b600080fd5b600080fd5b600080fd5b600080fd5b6000601f19601f8301169050919050565b7f4e487b7100000000000000000000000000000000000000000000000000000000600052604160045260246000fd5b6101588261010f565b810181811067ffffffffffffffff8211171561017757610176610120565b5b80604052505050565b600061018a6100f1565b9050610196828261014f565b919050565b600067ffffffffffffffff8211156101b6576101b5610120565b5b6101bf8261010f565b9050602081019050919050565b82818337600083830152505050565b60006101ee6101e98461019b565b610180565b90508281526020810184848401111561020a5761020961010a565b5b6102158482856101cc565b509392505050565b600082601f83011261023257610231610105565b5b81356102428482602086016101db565b91505092915050565b60008060408385031215610262576102616100fb565b5b600083013567ffffffffffffffff8111156102805761027f610100565b5b61028c8582860161021d565b925050602083013567ffffffffffffffff8111156102ad576102ac610100565b5b6102b98582860161021d565b9150509250929050565b600081519050919050565b600082825260208201905092915050565b60005b838110156102fd5780820151818401526020810190506102e2565b60008484015250505050565b6000610314826102c3565b61031e81856102ce565b935061032e8185602086016102df565b6103378161010f565b840191505092915050565b6000602082019050818103600083015261035c8184610309565b905092915050565b600081905092915050565b600061037a826102c3565b6103848185610364565b93506103948185602086016102df565b80840191505092915050565b6000819050919050565b6000819050919050565b6103c56103c0826103a0565b6103aa565b82525050565b60006103d7828561036f565b91506103e382846103b4565b6020820191508190509392505050565b7f4e487b7100000000000000000000000000000000000000000000000000000000600052601160045260246000fd5b600061042d826103a0565b9150610438836103a0565b92508282019050808211156104505761044f6103f3565b5b9291505056fea264697066735822122062a88a296a7bead4a3a1437a0e3b9910d3d513ffd432ab4cac0427d5f1844e1c64736f6c63430008120033",
					"opcodes": "PUSH2 0x48C PUSH2 0x53 PUSH1 0xB DUP3 DUP3 DUP3 CODECOPY DUP1 MLOAD PUSH1 0x0 BYTE PUSH1 0x73 EQ PUSH2 0x46 JUMPI PUSH32 0x4E487B7100000000000000000000000000000000000000000000000000000000 PUSH1 0x0 MSTORE PUSH1 0x0 PUSH1 0x4 MSTORE PUSH1 0x24 PUSH1 0x0 REVERT JUMPDEST ADDRESS PUSH1 0x0 MSTORE PUSH1 0x73 DUP2 MSTORE8 DUP3 DUP2 RETURN INVALID PUSH20 0x0 ADDRESS EQ PUSH1 0x80 PUSH1 0x40 MSTORE PUSH1 0x4 CALLDATASIZE LT PUSH2 0x35 JUMPI PUSH1 0x0 CALLDATALOAD PUSH1 0xE0 SHR DUP1 PUSH4 0x15CFEC7 EQ PUSH2 0x3A JUMPI JUMPDEST PUSH1 0x0 DUP1 REVERT JUMPDEST PUSH2 0x54 PUSH1 0x4 DUP1 CALLDATASIZE SUB DUP2 ADD SWAP1 PUSH2 0x4F SWAP2 SWAP1 PUSH2 0x24B JUMP JUMPDEST PUSH2 0x6A JUMP JUMPDEST PUSH1 0x40 MLOAD PUSH2 0x61 SWAP2 SWAP1 PUSH2 0x342 JUMP JUMPDEST PUSH1 0x40 MLOAD DUP1 SWAP2 SUB SWAP1 RETURN JUMPDEST PUSH1 0x60 PUSH1 0x0 DUP4 MLOAD SWAP1 POP PUSH1 0x40 MLOAD SWAP2 POP PUSH1 0x20 DUP2 DUP4 ADD ADD PUSH1 0x40 MSTORE DUP1 DUP3 MSTORE PUSH1 0x0 JUMPDEST DUP2 DUP2 LT ISZERO PUSH2 0xE9 JUMPI PUSH1 0x0 DUP5 DUP3 PUSH1 0x40 MLOAD PUSH1 0x20 ADD PUSH2 0xA3 SWAP3 SWAP2 SWAP1 PUSH2 0x3CB JUMP JUMPDEST PUSH1 0x40 MLOAD PUSH1 0x20 DUP2 DUP4 SUB SUB DUP2 MSTORE SWAP1 PUSH1 0x40 MSTORE DUP1 MLOAD SWAP1 PUSH1 0x20 ADD KECCAK256 SWAP1 POP PUSH1 0x0 PUSH1 0x20 DUP4 ADD DUP8 ADD MLOAD SWAP1 POP DUP2 DUP2 XOR SWAP1 POP DUP1 PUSH1 0x20 DUP5 ADD DUP7 ADD MSTORE POP POP PUSH1 0x20 DUP2 PUSH2 0xE2 SWAP2 SWAP1 PUSH2 0x422 JUMP JUMPDEST SWAP1 POP PUSH2 0x86 JUMP JUMPDEST POP POP SWAP3 SWAP2 POP POP JUMP JUMPDEST PUSH1 0x0 PUSH1 0x40 MLOAD SWAP1 POP SWAP1 JUMP JUMPDEST PUSH1 0x0 DUP1 REVERT JUMPDEST PUSH1 0x0 DUP1 REVERT JUMPDEST PUSH1 0x0 DUP1 REVERT JUMPDEST PUSH1 0x0 DUP1 REVERT JUMPDEST PUSH1 0x0 PUSH1 0x1F NOT PUSH1 0x1F DUP4 ADD AND SWAP1 POP SWAP2 SWAP1 POP JUMP JUMPDEST PUSH32 0x4E487B7100000000000000000000000000000000000000000000000000000000 PUSH1 0x0 MSTORE PUSH1 0x41 PUSH1 0x4 MSTORE PUSH1 0x24 PUSH1 0x0 REVERT JUMPDEST PUSH2 0x158 DUP3 PUSH2 0x10F JUMP JUMPDEST DUP2 ADD DUP2 DUP2 LT PUSH8 0xFFFFFFFFFFFFFFFF DUP3 GT OR ISZERO PUSH2 0x177 JUMPI PUSH2 0x176 PUSH2 0x120 JUMP JUMPDEST JUMPDEST DUP1 PUSH1 0x40 MSTORE POP POP POP JUMP JUMPDEST PUSH1 0x0 PUSH2 0x18A PUSH2 0xF1 JUMP JUMPDEST SWAP1 POP PUSH2 0x196 DUP3 DUP3 PUSH2 0x14F JUMP JUMPDEST SWAP2 SWAP1 POP JUMP JUMPDEST PUSH1 0x0 PUSH8 0xFFFFFFFFFFFFFFFF DUP3 GT ISZERO PUSH2 0x1B6 JUMPI PUSH2 0x1B5 PUSH2 0x120 JUMP JUMPDEST JUMPDEST PUSH2 0x1BF DUP3 PUSH2 0x10F JUMP JUMPDEST SWAP1 POP PUSH1 0x20 DUP2 ADD SWAP1 POP SWAP2 SWAP1 POP JUMP JUMPDEST DUP3 DUP2 DUP4 CALLDATACOPY PUSH1 0x0 DUP4 DUP4 ADD MSTORE POP POP POP JUMP JUMPDEST PUSH1 0x0 PUSH2 0x1EE PUSH2 0x1E9 DUP5 PUSH2 0x19B JUMP JUMPDEST PUSH2 0x180 JUMP JUMPDEST SWAP1 POP DUP3 DUP2 MSTORE PUSH1 0x20 DUP2 ADD DUP5 DUP5 DUP5 ADD GT ISZERO PUSH2 0x20A JUMPI PUSH2 0x209 PUSH2 0x10A JUMP JUMPDEST JUMPDEST PUSH2 0x215 DUP5 DUP3 DUP6 PUSH2 0x1CC JUMP JUMPDEST POP SWAP4 SWAP3 POP POP POP JUMP JUMPDEST PUSH1 0x0 DUP3 PUSH1 0x1F DUP4 ADD SLT PUSH2 0x232 JUMPI PUSH2 0x231 PUSH2 0x105 JUMP JUMPDEST JUMPDEST DUP2 CALLDATALOAD PUSH2 0x242 DUP5 DUP3 PUSH1 0x20 DUP7 ADD PUSH2 0x1DB JUMP JUMPDEST SWAP2 POP POP SWAP3 SWAP2 POP POP JUMP JUMPDEST PUSH1 0x0 DUP1 PUSH1 0x40 DUP4 DUP6 SUB SLT ISZERO PUSH2 0x262 JUMPI PUSH2 0x261 PUSH2 0xFB JUMP JUMPDEST JUMPDEST PUSH1 0x0 DUP4 ADD CALLDATALOAD PUSH8 0xFFFFFFFFFFFFFFFF DUP2 GT ISZERO PUSH2 0x280 JUMPI PUSH2 0x27F PUSH2 0x100 JUMP JUMPDEST JUMPDEST PUSH2 0x28C DUP6 DUP3 DUP7 ADD PUSH2 0x21D JUMP JUMPDEST SWAP3 POP POP PUSH1 0x20 DUP4 ADD CALLDATALOAD PUSH8 0xFFFFFFFFFFFFFFFF DUP2 GT ISZERO PUSH2 0x2AD JUMPI PUSH2 0x2AC PUSH2 0x100 JUMP JUMPDEST JUMPDEST PUSH2 0x2B9 DUP6 DUP3 DUP7 ADD PUSH2 0x21D JUMP JUMPDEST SWAP2 POP POP SWAP3 POP SWAP3 SWAP1 POP JUMP JUMPDEST PUSH1 0x0 DUP2 MLOAD SWAP1 POP SWAP2 SWAP1 POP JUMP JUMPDEST PUSH1 0x0 DUP3 DUP3 MSTORE PUSH1 0x20 DUP3 ADD SWAP1 POP SWAP3 SWAP2 POP POP JUMP JUMPDEST PUSH1 0x0 JUMPDEST DUP4 DUP2 LT ISZERO PUSH2 0x2FD JUMPI DUP1 DUP3 ADD MLOAD DUP2 DUP5 ADD MSTORE PUSH1 0x20 DUP2 ADD SWAP1 POP PUSH2 0x2E2 JUMP JUMPDEST PUSH1 0x0 DUP5 DUP5 ADD MSTORE POP POP POP POP JUMP JUMPDEST PUSH1 0x0 PUSH2 0x314 DUP3 PUSH2 0x2C3 JUMP JUMPDEST PUSH2 0x31E DUP2 DUP6 PUSH2 0x2CE JUMP JUMPDEST SWAP4 POP PUSH2 0x32E DUP2 DUP6 PUSH1 0x20 DUP7 ADD PUSH2 0x2DF JUMP JUMPDEST PUSH2 0x337 DUP2 PUSH2 0x10F JUMP JUMPDEST DUP5 ADD SWAP2 POP POP SWAP3 SWAP2 POP POP JUMP JUMPDEST PUSH1 0x0 PUSH1 0x20 DUP3 ADD SWAP1 POP DUP2 DUP2 SUB PUSH1 0x0 DUP4 ADD MSTORE PUSH2 0x35C DUP2 DUP5 PUSH2 0x309 JUMP JUMPDEST SWAP1 POP SWAP3 SWAP2 POP POP JUMP JUMPDEST PUSH1 0x0 DUP2 SWAP1 POP SWAP3 SWAP2 POP POP JUMP JUMPDEST PUSH1 0x0 PUSH2 0x37A DUP3 PUSH2 0x2C3 JUMP JUMPDEST PUSH2 0x384 DUP2 DUP6 PUSH2 0x364 JUMP JUMPDEST SWAP4 POP PUSH2 0x394 DUP2 DUP6 PUSH1 0x20 DUP7 ADD PUSH2 0x2DF JUMP JUMPDEST DUP1 DUP5 ADD SWAP2 POP POP SWAP3 SWAP2 POP POP JUMP JUMPDEST PUSH1 0x0 DUP2 SWAP1 POP SWAP2 SWAP1 POP JUMP JUMPDEST PUSH1 0x0 DUP2 SWAP1 POP SWAP2 SWAP1 POP JUMP JUMPDEST PUSH2 0x3C5 PUSH2 0x3C0 DUP3 PUSH2 0x3A0 JUMP JUMPDEST PUSH2 0x3AA JUMP JUMPDEST DUP3 MSTORE POP POP JUMP JUMPDEST PUSH1 0x0 PUSH2 0x3D7 DUP3 DUP6 PUSH2 0x36F JUMP JUMPDEST SWAP2 POP PUSH2 0x3E3 DUP3 DUP5 PUSH2 0x3B4 JUMP JUMPDEST PUSH1 0x20 DUP3 ADD SWAP2 POP DUP2 SWAP1 POP SWAP4 SWAP3 POP POP POP JUMP JUMPDEST PUSH32 0x4E487B7100000000000000000000000000000000000000000000000000000000 PUSH1 0x0 MSTORE PUSH1 0x11 PUSH1 0x4 MSTORE PUSH1 0x24 PUSH1 0x0 REVERT JUMPDEST PUSH1 0x0 PUSH2 0x42D DUP3 PUSH2 0x3A0 JUMP JUMPDEST SWAP2 POP PUSH2 0x438 DUP4 PUSH2 0x3A0 JUMP JUMPDEST SWAP3 POP DUP3 DUP3 ADD SWAP1 POP DUP1 DUP3 GT ISZERO PUSH2 0x450 JUMPI PUSH2 0x44F PUSH2 0x3F3 JUMP JUMPDEST JUMPDEST SWAP3 SWAP2 POP POP JUMP INVALID LOG2 PUSH5 0x6970667358 0x22 SLT KECCAK256 PUSH3 0xA88A29 PUSH11 0x7BEAD4A3A1437A0E3B9910 0xD3 0xD5 SGT SELFDESTRUCT 0xD4 ORIGIN 0xAB 0x4C 0xAC DIV 0x27 0xD5 CALL DUP5 0x4E SHR PUSH5 0x736F6C6343 STOP ADDMOD SLT STOP CALLER "
				},
				"gasEstimates": {
					"creation": {
						"codeDepositCost": "232800",
						"executionCost": "300",
						"totalCost": "233100"
					},
					"external": {
						"encrypt(bytes,bytes)": "infinite"
					}
				},
				"methodIdentifiers": {
					"encrypt(bytes,bytes)": "015cfec7"
				}
			},
			"storageLayout": {
				"storage": [],
				"types": null
			},
			"userdoc": {
				"kind": "user",
				"methods": {},
				"version": 1
			}
		}
	}
}